{
  "abi": [
    {
      "anonymous": false,
      "inputs": [
        {
          "indexed": true,
          "internalType": "address",
          "name": "vault",
          "type": "address"
        },
        {
          "indexed": true,
          "internalType": "address",
          "name": "account",
          "type": "address"
        },
        {
          "indexed": false,
          "internalType": "uint256",
          "name": "vaultSharesToLiquidator",
          "type": "uint256"
        },
        {
          "indexed": false,
          "internalType": "int256",
          "name": "fCashRepaid",
          "type": "int256"
        }
      ],
      "name": "VaultDeleverageAccount",
      "type": "event"
    },
    {
      "anonymous": false,
      "inputs": [
        {
          "indexed": true,
          "internalType": "address",
          "name": "vault",
          "type": "address"
        },
        {
          "indexed": true,
          "internalType": "uint256",
          "name": "maturity",
          "type": "uint256"
        },
        {
          "indexed": true,
          "internalType": "address",
          "name": "account",
          "type": "address"
        },
        {
          "indexed": false,
          "internalType": "uint256",
          "name": "underlyingTokensDeposited",
          "type": "uint256"
        },
        {
          "indexed": false,
          "internalType": "uint256",
          "name": "cashTransferToVault",
          "type": "uint256"
        },
        {
          "indexed": false,
          "internalType": "uint256",
          "name": "strategyTokenDeposited",
          "type": "uint256"
        },
        {
          "indexed": false,
          "internalType": "uint256",
          "name": "vaultSharesMinted",
          "type": "uint256"
        }
      ],
      "name": "VaultEnterMaturity",
      "type": "event"
    },
    {
      "anonymous": false,
      "inputs": [
        {
          "indexed": true,
          "internalType": "address",
          "name": "vault",
          "type": "address"
        },
        {
          "indexed": true,
          "internalType": "address",
          "name": "account",
          "type": "address"
        },
        {
          "indexed": true,
          "internalType": "uint256",
          "name": "maturity",
          "type": "uint256"
        },
        {
          "indexed": false,
          "internalType": "uint256",
          "name": "fCashBorrowed",
          "type": "uint256"
        }
      ],
      "name": "VaultEnterPosition",
      "type": "event"
    },
    {
      "anonymous": false,
      "inputs": [
        {
          "indexed": true,
          "internalType": "address",
          "name": "vault",
          "type": "address"
        },
        {
          "indexed": true,
          "internalType": "address",
          "name": "account",
          "type": "address"
        },
        {
          "indexed": true,
          "internalType": "uint256",
          "name": "maturity",
          "type": "uint256"
        },
        {
          "indexed": false,
          "internalType": "uint256",
          "name": "underlyingToReceiver",
          "type": "uint256"
        }
      ],
      "name": "VaultExitPostMaturity",
      "type": "event"
    },
    {
      "anonymous": false,
      "inputs": [
        {
          "indexed": true,
          "internalType": "address",
          "name": "vault",
          "type": "address"
        },
        {
          "indexed": true,
          "internalType": "address",
          "name": "account",
          "type": "address"
        },
        {
          "indexed": true,
          "internalType": "uint256",
          "name": "maturity",
          "type": "uint256"
        },
        {
          "indexed": false,
          "internalType": "uint256",
          "name": "fCashToLend",
          "type": "uint256"
        },
        {
          "indexed": false,
          "internalType": "uint256",
          "name": "vaultSharesToRedeem",
          "type": "uint256"
        },
        {
          "indexed": false,
          "internalType": "uint256",
          "name": "underlyingToReceiver",
          "type": "uint256"
        }
      ],
      "name": "VaultExitPreMaturity",
      "type": "event"
    },
    {
      "anonymous": false,
      "inputs": [
        {
          "indexed": true,
          "internalType": "address",
          "name": "vault",
          "type": "address"
        },
        {
          "indexed": true,
          "internalType": "address",
          "name": "account",
          "type": "address"
        },
        {
          "indexed": true,
          "internalType": "address",
          "name": "liquidator",
          "type": "address"
        },
        {
          "indexed": false,
          "internalType": "uint256",
          "name": "vaultSharesToLiquidator",
          "type": "uint256"
        },
        {
          "indexed": false,
          "internalType": "bool",
          "name": "transferSharesToLiquidator",
          "type": "bool"
        }
      ],
      "name": "VaultLiquidatorProfit",
      "type": "event"
    },
    {
      "anonymous": false,
      "inputs": [
        {
          "indexed": true,
          "internalType": "address",
          "name": "vault",
          "type": "address"
        },
        {
          "indexed": true,
          "internalType": "address",
          "name": "account",
          "type": "address"
        },
        {
          "indexed": true,
          "internalType": "uint256",
          "name": "newMaturity",
          "type": "uint256"
        },
        {
          "indexed": false,
          "internalType": "uint256",
          "name": "fCashBorrowed",
          "type": "uint256"
        }
      ],
      "name": "VaultRollPosition",
      "type": "event"
    },
    {
      "inputs": [
        {
          "internalType": "address",
          "name": "account",
          "type": "address"
        },
        {
          "internalType": "address",
          "name": "vault",
          "type": "address"
        },
        {
          "internalType": "address",
          "name": "liquidator",
          "type": "address"
        },
        {
          "internalType": "uint256",
          "name": "depositAmountExternal",
          "type": "uint256"
        },
        {
          "internalType": "bool",
          "name": "transferSharesToLiquidator",
          "type": "bool"
        },
        {
          "internalType": "bytes",
          "name": "redeemData",
          "type": "bytes"
        }
      ],
      "name": "deleverageAccount",
      "outputs": [
        {
          "internalType": "uint256",
          "name": "profitFromLiquidation",
          "type": "uint256"
        }
      ],
      "stateMutability": "nonpayable",
      "type": "function"
    },
    {
      "inputs": [
        {
          "internalType": "address",
          "name": "account",
          "type": "address"
        },
        {
          "internalType": "address",
          "name": "vault",
          "type": "address"
        },
        {
          "internalType": "uint256",
          "name": "depositAmountExternal",
          "type": "uint256"
        },
        {
          "internalType": "uint256",
          "name": "maturity",
          "type": "uint256"
        },
        {
          "internalType": "uint256",
          "name": "fCash",
          "type": "uint256"
        },
        {
          "internalType": "uint32",
          "name": "maxBorrowRate",
          "type": "uint32"
        },
        {
          "internalType": "bytes",
          "name": "vaultData",
          "type": "bytes"
        }
      ],
      "name": "enterVault",
      "outputs": [
        {
          "internalType": "uint256",
          "name": "strategyTokensAdded",
          "type": "uint256"
        }
      ],
      "stateMutability": "payable",
      "type": "function"
    },
    {
      "inputs": [
        {
          "internalType": "address",
          "name": "account",
          "type": "address"
        },
        {
          "internalType": "address",
          "name": "vault",
          "type": "address"
        },
        {
          "internalType": "address",
          "name": "receiver",
          "type": "address"
        },
        {
          "internalType": "uint256",
          "name": "vaultSharesToRedeem",
          "type": "uint256"
        },
        {
          "internalType": "uint256",
          "name": "fCashToLend",
          "type": "uint256"
        },
        {
          "internalType": "uint32",
          "name": "minLendRate",
          "type": "uint32"
        },
        {
          "internalType": "bytes",
          "name": "exitVaultData",
          "type": "bytes"
        }
      ],
      "name": "exitVault",
      "outputs": [
        {
          "internalType": "uint256",
          "name": "underlyingToReceiver",
          "type": "uint256"
        }
      ],
      "stateMutability": "payable",
      "type": "function"
    },
    {
      "inputs": [],
      "name": "getLibInfo",
      "outputs": [
        {
          "internalType": "address",
          "name": "",
          "type": "address"
        }
      ],
      "stateMutability": "pure",
      "type": "function"
    },
    {
      "inputs": [
        {
          "internalType": "address",
          "name": "account",
          "type": "address"
        },
        {
          "internalType": "address",
          "name": "vault",
          "type": "address"
        }
      ],
      "name": "getVaultAccount",
      "outputs": [
        {
          "components": [
            {
              "internalType": "int256",
              "name": "fCash",
              "type": "int256"
            },
            {
              "internalType": "uint256",
              "name": "maturity",
              "type": "uint256"
            },
            {
              "internalType": "uint256",
              "name": "vaultShares",
              "type": "uint256"
            },
            {
              "internalType": "address",
              "name": "account",
              "type": "address"
            },
            {
              "internalType": "int256",
              "name": "tempCashBalance",
              "type": "int256"
            },
            {
              "internalType": "uint256",
              "name": "lastEntryBlockHeight",
              "type": "uint256"
            }
          ],
          "internalType": "struct VaultAccount",
          "name": "",
          "type": "tuple"
        }
      ],
      "stateMutability": "view",
      "type": "function"
    },
    {
      "inputs": [
        {
          "internalType": "address",
          "name": "account",
          "type": "address"
        },
        {
          "internalType": "address",
          "name": "vault",
          "type": "address"
        }
      ],
      "name": "getVaultAccountCollateralRatio",
      "outputs": [
        {
          "internalType": "int256",
          "name": "collateralRatio",
          "type": "int256"
        },
        {
          "internalType": "int256",
          "name": "minCollateralRatio",
          "type": "int256"
        },
        {
          "internalType": "int256",
          "name": "maxLiquidatorDepositAssetCash",
          "type": "int256"
        },
        {
          "internalType": "uint256",
          "name": "vaultSharesToLiquidator",
          "type": "uint256"
        }
      ],
      "stateMutability": "view",
      "type": "function"
    },
    {
      "inputs": [
        {
          "internalType": "address",
          "name": "account",
          "type": "address"
        },
        {
          "internalType": "address",
          "name": "vault",
          "type": "address"
        }
      ],
      "name": "getVaultAccountDebtShares",
      "outputs": [
        {
          "internalType": "uint256",
          "name": "debtSharesMaturity",
          "type": "uint256"
        },
        {
          "internalType": "uint256[2]",
          "name": "accountDebtShares",
          "type": "uint256[2]"
        },
        {
          "internalType": "uint256",
          "name": "accountStrategyTokens",
          "type": "uint256"
        }
      ],
      "stateMutability": "view",
      "type": "function"
    },
    {
      "inputs": [],
      "name": "owner",
      "outputs": [
        {
          "internalType": "address",
          "name": "",
          "type": "address"
        }
      ],
      "stateMutability": "view",
      "type": "function"
    },
    {
      "inputs": [],
      "name": "pauseGuardian",
      "outputs": [
        {
          "internalType": "address",
          "name": "",
          "type": "address"
        }
      ],
      "stateMutability": "view",
      "type": "function"
    },
    {
      "inputs": [],
      "name": "pauseRouter",
      "outputs": [
        {
          "internalType": "address",
          "name": "",
          "type": "address"
        }
      ],
      "stateMutability": "view",
      "type": "function"
    },
    {
      "inputs": [
        {
          "internalType": "address",
          "name": "account",
          "type": "address"
        },
        {
          "internalType": "address",
          "name": "vault",
          "type": "address"
        },
        {
          "internalType": "uint256",
          "name": "fCashToBorrow",
          "type": "uint256"
        },
        {
          "internalType": "uint256",
          "name": "maturity",
          "type": "uint256"
        },
        {
          "internalType": "uint256",
          "name": "depositAmountExternal",
          "type": "uint256"
        },
        {
          "internalType": "uint32",
          "name": "minLendRate",
          "type": "uint32"
        },
        {
          "internalType": "uint32",
          "name": "maxBorrowRate",
          "type": "uint32"
        },
        {
          "internalType": "bytes",
          "name": "enterVaultData",
          "type": "bytes"
        }
      ],
      "name": "rollVaultPosition",
      "outputs": [
        {
          "internalType": "uint256",
          "name": "strategyTokensAdded",
          "type": "uint256"
        }
      ],
      "stateMutability": "payable",
      "type": "function"
    }
  ],
  "bytecode": "608060405234801561001057600080fd5b5061591080620000216000396000f3fe60806040526004361061009c5760003560e01c80638246336711610064578063824633671461015e5780638da5cb5b1461017357806395c1a202146101885780639948315e1461019b578063c025d1a5146101bb578063c4c96dae146101e85761009c565b806324a3d622146100a1578063647cc196146100cc578063653b6104146100fc5780636ce48f011461011c578063803c25fb1461012f575b600080fd5b3480156100ad57600080fd5b506100b66101fd565b6040516100c391906152c5565b60405180910390f35b3480156100d857600080fd5b506100ec6100e7366004614fcc565b61020c565b6040516100c394939291906153d8565b61010f61010a366004615190565b6102f2565b6040516100c391906153c1565b61010f61012a366004615089565b6104c9565b34801561013b57600080fd5b5061014f61014a366004614fcc565b61072b565b6040516100c393929190615875565b34801561016a57600080fd5b506100b66107dc565b34801561017f57600080fd5b506100b66107eb565b61010f610196366004615120565b610802565b3480156101a757600080fd5b5061010f6101b6366004614ff5565b610989565b3480156101c757600080fd5b506101db6101d6366004614fcc565b610c05565b6040516100c39190615805565b3480156101f457600080fd5b506100b6610c20565b6002546001600160a01b031681565b600080600080600061021d86610c38565b9050600061022b8888610c67565b9050600061023d888360200151610cfc565b90508260a00151955080604001511561025f576001600160ff1b0396506102e6565b6040820151825160009161027991869185918e9190610d97565b9098509050868812801561028d5750600081135b156102e45761029d838583610e1d565b5095506102e1633b9aca006102db6102b484610f2c565b6102db87604001516102d56102cc8b60c00151610f2c565b6102d58e610f2c565b90610f43565b90610f6a565b94505b505b50505092959194509250565b60006002600a5414156103205760405162461bcd60e51b81526004016103179061569c565b60405180910390fd5b6002600a5560006103308a610f89565b905061033e818c6010610fad565b610349816080611017565b15610354576001600a555b60006103608c8c610c67565b905061036d826001611017565b801561037f575061037f826002611017565b801561038e5750806020015142105b801561039d5750888160200151105b80156103a9575060008a115b6103c55760405162461bcd60e51b8152600401610317906155df565b60006103d983600001518360200151610cfc565b905060006103f68384604001518461102c9092919063ffffffff16565b9050610415848361040a866000015161108b565b869291908d42611099565b8251156104345760405162461bcd60e51b8152600401610317906157b1565b8351610441908390611127565b89156104525761045283858c61129b565b61046483858d8f8c8c8c886000611382565b94508a8e6001600160a01b03168e6001600160a01b03167f67c1d09e65227d62b788f4c3e6ace545ac922034d69bd4aa45c53dec290275be8f6040516104aa91906153c1565b60405180910390a450506001600a5550909a9950505050505050505050565b60006002600a5414156104ee5760405162461bcd60e51b81526004016103179061569c565b6002600a5560006104fe89610f89565b905061050c818b6008610fad565b610517816080611017565b15610522576001600a555b600061052e8b8b610c67565b90504360058260a001510111156105575760405162461bcd60e51b8152600401610317906156eb565b428160200151116106035760208101516000610574838542611425565b905060008360800151131561059f576105968b856040015185608001516114fb565b50600060808401525b6105ae84848d84868c8c6115a4565b9450818d6001600160a01b03168d6001600160a01b03167fccd6b9aec297a77187bfaabfe7f98ac1dd313c796a73695dff89de0885dbb293886040516105f491906153c1565b60405180910390a450506106f0565b600061061783600001518360200151610cfc565b905061063283826106278b61161b565b859291908b42611099565b600061063f82848c61102c565b905060008360800151131561066a576106618b856040015185608001516114fb565b50600060808401525b815161067f90859085908e9085908c8c6115a4565b945061068c848385611631565b8351610699908390611127565b81600001518d6001600160a01b03168d6001600160a01b03167fea195c44d2295a1df0defe8210abb22b4a911b4379b9e30e764548ebee65c4208c8e8a6040516106e5939291906158c4565b60405180910390a450505b805115801561070157506040810151155b1561070e57600060208201525b61071881836116a9565b50506001600a5598975050505050505050565b6000610735614d8b565b600080610740611866565b6001600160a01b03878116600090815260209283526040808220928916825291835290812080546001600160501b03600160281b820481168852600160781b8204169387019390935264ffffffffff90921695509091506107a18787610c67565b905060006107b3878360200151610cfc565b90506107cc82604001518261187390919063ffffffff16565b9050809450505050509250925092565b6001546001600160a01b031681565b60005464010000000090046001600160a01b031681565b60006002600a5414156108275760405162461bcd60e51b81526004016103179061569c565b6002600a55610835896118cd565b876001600160a01b0316896001600160a01b0316141561085457600080fd5b600061085f89610f89565b905061086d818b6004610fad565b610878816080611017565b15610883576001600a555b61088e816001611017565b6108aa5760405162461bcd60e51b81526004016103179061578b565b8642106108c95760405162461bcd60e51b81526004016103179061578b565b60006108d58b8b610c67565b9050600081602001516000141580156108f2575042826020015111155b1561090557610902828442611425565b90505b6000610912848e8d61191c565b905061092583858c8c8c8c8c8989611382565b9450898d6001600160a01b03168d6001600160a01b03167f7e1a5e400898c4bb3cfc62f61a71f4369ec78f0e778a31286892b7d2c0d044f28c60405161096b91906153c1565b60405180910390a450506001600a5550909998505050505050505050565b60006002600a5414156109ae5760405162461bcd60e51b81526004016103179061569c565b6002600a556109bc866118cd565b60006109c98989896119f5565b905060006109d78a8a610c67565b905060006109e98a8360200151610cfc565b9050816020015142106109fb57600080fd5b600080610a1f838e8660400151876000015189610d9790949392919063ffffffff16565b915091508460a001518212610a465760405162461bcd60e51b8152600401610317906157d6565b6000610a59866040015161ffff16611ae0565b9050610a698c8287898f87611af3565b6000610aa4633b9aca006102db610a7f86610f2c565b6102db8a604001516102d5610a978e60c00151610f2c565b6102d58e60800151610f2c565b6040870151909150610ab69082611bdc565b60408701526080860151610160880151600091610ad39190611bf1565b9050610af2888783610ae88b6080015161108b565b8b93929190611c24565b86516009191215610b0257600087525b8f6001600160a01b03168f6001600160a01b03167f5b4676a4ed91c52fd6c4a759aec8a3561b67499c52870fc58000a8eb54fec3018484604051610b479291906153ca565b60405180910390a350610b5a86886116a9565b8c6001600160a01b03168f6001600160a01b03168f6001600160a01b03167f01745a2fe0d7c484ea79432a82f950eac6916adc499a0223d2ebdadcdb210f2a848f604051610ba99291906158b4565b60405180910390a48a15610bdb578651610bc4908690611127565b610bd48d88838960200151611c92565b9750610bed565b610bea8d8887848e8e88611d06565b97505b50506001600a5550939b9a5050505050505050505050565b610c0d614da9565b610c178383610c67565b90505b92915050565b73__TradingAction_________________________90565b610c40614de8565b610c4982611d94565b9050610c5c816040015161ffff16611f2e565b610160820152919050565b610c6f614da9565b6000610c79611f7a565b6001600160a01b03948516600081815260209283526040808220969097168152948252858520546001600160501b0380821687038652600160a01b820464ffffffffff1693860193909352600160501b8104909216958401959095526060830194909452506080810191909152600160c81b90910463ffffffff1660a082015290565b610d04614e6d565b6000610d0e611f87565b6001600160a01b03909416600090815260209485526040808220858352865280822094845284546001600160501b038082169093039685019690965260ff600160f01b870416151590840152600160501b8086048216608085015260019094015480821660a0850152600160a01b909504166060830152509104600990810b900b60c082015290565b600080610da686888787611f94565b90506000610db988878960000151611ff9565b90506000610ddf610dd383610dcd8861108b565b906120e0565b6101608b0151906120f6565b90506000610ded8483612121565b905081610e03576001600160ff1b039450610e10565b610e0d8183612137565b94505b5050509550959350505050565b6000806000610e3e633b9aca008661012001516120e090919063ffffffff16565b90506000610e5e610e52886000015161108b565b610160880151906120f6565b9050610e94610e7a8760c001518461212190919063ffffffff16565b610e8e87610e888587612150565b90612121565b90612137565b93506000610ea28286612121565b90506000610ec288606001518961016001516120f690919063ffffffff16565b9050610ece8382612121565b945080821215610edc578295505b6000610eff88610ef98b60c001518a61216990919063ffffffff16565b906121b7565b9050633b9aca008112610f1f5760c0890151610f1c908990612137565b96505b5050505050935093915050565b600080821215610f3b57600080fd5b50805b919050565b600082610f5257506000610c1a565b82820282848281610f5f57fe5b0414610c1757600080fd5b6000808211610f7857600080fd5b818381610f8157fe5b049392505050565b610f91614de8565b610f9a82611d94565b9050610c5c816040015161ffff166121e8565b610fb78382611017565b15610fea5782516001600160a01b03163314610fe55760405162461bcd60e51b8152600401610317906153f3565b611012565b6001600160a01b03821633146110125760405162461bcd60e51b8152600401610317906153f3565b505050565b60209190910151811661ffff90811691161490565b825160208301516000911461104057600080fd5b604083015161104f9083611bdc565b6040840152600061106085846121fe565b9250905061107b6110708261161b565b6080860151906120e0565b6080909401939093529392505050565b6000610c1a60001983612169565b85516000906110a890856120e0565b13156110b357600080fd5b856020015181106110c357600080fd5b60006110e08660400151886020015186868a610100015187612255565b90508061110357610160860151611100906110fb90866120f6565b61108b565b90505b600081131561111157600080fd5b61111e8787878785611c24565b50505050505050565b6000611131611f87565b6001600160a01b038316600090815260208281526040808320875184529091529081902090850151919250901561116757600080fd5b61118461117f61117a866020015161108b565b610f2c565b612364565b81546001600160501b0319166001600160501b039190911617815560808401516111ad90612364565b81546001600160501b0391909116600160501b02600160501b600160a01b031990911617815560a08401516111e190612364565b6001820180546001600160501b0319166001600160501b0392909216919091179055606084015161121190612364565b81546001600160501b0391909116600160a01b0269ffffffffffffffffffff60a01b1990911617815583516020850151608086015160a087015160608801516040516001600160a01b038916947f3a0fdaecf7b5da75a56077f5b1c8fbc88f9b08e9d0c4db31eb34e25bc6700cde9461128d94919390926153d8565b60405180910390a350505050565b6000806112a78461237a565b909250905060006003826060015160058111156112c057fe5b14156112ec573484146112e55760405162461bcd60e51b815260040161031790615739565b5034611315565b61131261117a8760600151876040015161ffff166113098861161b565b869291906123d3565b90505b600060048460600151600581111561132957fe5b141561133f576113388261161b565b9050611359565b81156113595760408601516113569085908461247b565b90505b6113716113668583612572565b6080890151906120e0565b608090970196909652505050505050565b6000878a60200151148061139557508951155b61139e57600080fd5b60006113ae8a600001518a610cfc565b905087156113d4576113cf8b8b838c6113c96110fb8e61161b565b8c6125a2565b6113eb565b6113e98a604001518a8c610100015142612632565b505b6113fa818c8c87878b8b6126a1565b4360a08d0152915061140c8b8b6116a9565b6114178a828d611631565b509998505050505050505050565b60008061143a84600001518660200151610cfc565b9050806040015161145d5760405162461bcd60e51b81526004016103179061558a565b6000611476856040015161ffff168760200151866127c8565b9050600061149d6305f5e100610ef98560c001516114978760a0015161161b565b90612169565b905060006114ae8885898686612936565b905060006114bf8886868587612ad7565b60008b5260808b01519097509091506114d890826120e0565b60808a015250506000604088018190526020909701969096525090949350505050565b60008161150a5750600061159d565b6000821361151757600080fd5b60006115268461ffff16611ae0565b905060006115348285612d0f565b905060048260600151600581111561154857fe5b14156115765761156f61117a6110fb888861ffff166115668661108b565b879291906123d3565b925061159a565b61159761117a6110fb8761ffff168961158e86610f2c565b87929190612d47565b92505b50505b9392505050565b600080876080015113156115b757600080fd5b611603886040518060a001604052808a606001516001600160a01b03168152602001896001600160a01b031681526020018881526020018781526020018a608001518152508585612de7565b60006080909901989098525095979650505050505050565b60006001600160ff1b03821115610f3b57600080fd5b600061164c8484846060015185604001518660000151610d97565b5060408301519091501561167f5783610180015181131561167f5760405162461bcd60e51b815260040161031790615536565b808460a0015113156116a35760405162461bcd60e51b815260040161031790615608565b50505050565b60006116b3611f7a565b60608401516001600160a01b039081166000908152602083815260408083208751909416835292905220608085015191925090156116f057600080fd5b606083015184516117009061108b565b1215611735578351158061171957506001846040015111155b6117355760405162461bcd60e51b815260040161031790615715565b61173e8361305c565b156117a157600061174d611866565b60608601516001600160a01b03908116600090815260209283526040808220885190931682529183522080549187015190925064ffffffffff90911690811480611795575080155b61179e57600080fd5b50505b6117b461117f61117a866000015161108b565b81546001600160501b0319166001600160501b039190911617815560408401516117dd90612364565b81546001600160501b0391909116600160501b02600160501b600160a01b0319909116178155602084015161181190613085565b815464ffffffffff91909116600160a01b0264ffffffffff60a01b1990911617815560a084015161184190613099565b815463ffffffff91909116600160c81b0263ffffffff60c81b19909116179055505050565b600080610c1a601a6130ac565b6000806000846060015111156118c6576118a284606001516102db866080015186610f4390919063ffffffff16565b91506118c384606001516102db8660a0015186610f4390919063ffffffff16565b90505b9250929050565b6001600160a01b0381166118e057600080fd5b6001600160a01b0381163014156118f657600080fd5b6000611901826130c5565b5050505061ffff1690508060001461191857600080fd5b5050565b60008161192b5750600061159d565b600061193e856040015161ffff16611ae0565b9050600060048260600151600581111561195457fe5b1461196f5761196a866040015161ffff16613131565b611971565b815b86516020820151919250901561198657600080fd5b60038260600151600581111561199857fe5b14156119d2578434146119bd5760405162461bcd60e51b815260040161031790615739565b6119c78134613144565b34935050505061159d565b81516119e09087838861317a565b84935050505061159d565b5050509392505050565b6119fd614de8565b611a0683610f89565b9050611a1481610100611017565b15611a1e57600080fd5b611a29816080611017565b15611a34576001600a555b611a3f816020611017565b15611a7157336001600160a01b03841614611a6c5760405162461bcd60e51b8152600401610317906153f3565b611a99565b336001600160a01b03831614611a995760405162461bcd60e51b8152600401610317906153f3565b6001600160a01b0384163314801590611ac45750816001600160a01b0316846001600160a01b031614155b61159d5760405162461bcd60e51b8152600401610317906153f3565b611ae8614eac565b610c1a826000613202565b6000611afe8361161b565b9050600586606001516005811115611b1257fe5b1415611b2d57611b2a846040015161ffff16826132b0565b90505b600080611b3b878786610e1d565b9150915060008213611b4c57600080fd5b6000611b588984612d0f565b905080841215611b8f57611b6c8983612d0f565b8412611b8a5760405162461bcd60e51b81526004016103179061563f565b611b93565b8093505b6040870151600090611bad908b908d9061ffff16886123d3565b9050611bc7611bbc8b83612572565b60808b0151906120e0565b60809099019890985250505050505050505050565b600082821115611beb57600080fd5b50900390565b600080611c1c8460400151610ef96402540be400610ef987896020015161216990919063ffffffff16565b949350505050565b6080850151611c3390826120e0565b60808601528451611c4490836120e0565b80865260001215611c5457600080fd5b6020830151611c6390836120e0565b6020840181905260001215611c7757600080fd5b611c8a8460000151856040015184613337565b505050505050565b600080611ca3868660000151610c67565b9050806020015160001480611cbb5750828160200151145b611cd75760405162461bcd60e51b815260040161031790615419565b602081018390526040810151611ced908561343d565b6040820152611cfc81866116a9565b5091949350505050565b60008080611d1488886121fe565b89519193509150611d2c908a908c9084908a8a61344f565b8a51909450611d3d91508990611127565b8115611d87576000611d7761117a6110fb8c6040015161ffff168e611d6e61117a611d678a61161b565b8c90612d0f565b8a929190612d47565b9050611d83848261343d565b9350505b5050979650505050505050565b611d9c614de8565b6000611da66134a6565b6001600160a01b03841660008181526020838152604091829020928652825461ffff808216928801929092526201000081049091169186019190915291925090611e079063ffffffff6401000000009091048116906305f5e1009061216916565b60608401528054611e2590600160501b900460ff166207a120610f43565b60808401528054611e499068010000000000000000900461ffff16620186a0610f43565b60a08401528054611e6890600160701b900461ffff16620186a0610f43565b6101208401526002810154611e849061ffff16620186a0610f43565b610180840152805460649060ff600160581b90910416633b9aca00020560c08401528054600160601b810460ff90811660e0860152600160681b909104166101008401526040805180820191829052906001830190600290826000855b82829054906101000a900461ffff1661ffff1681526020019060020190602082600101049283019260010382029150808411611ee157905050505050508361014001819052505050919050565b611f36614ed3565b6000806000611f44856134b3565b604080516060810182526001600160a01b039093168352602083019390935260ff16600a0a918101919091529350505050919050565b600080610c1a60166130ac565b600080610c1a60156130ac565b600081611fa357506000611c1c565b600080611fb08785611873565b915091506000611fcf8760400151886000015188858c60000151613574565b9050611fed611fdd8461161b565b610160890151610dcd90846120f6565b98975050505050505050565b60006120048461305c565b1561159d576000612013611866565b6001600160a01b0380861660009081526020928352604080822089519093168252919092528082209087015190925061204f9061ffff1661362e565b82549091506001600160501b03600160281b8204811691600160781b90041681156120a5576120a261209b848a610140015160006002811061208d57fe5b60200201518b518a87613791565b86906120e0565b94505b80156120d5576120d261209b848a61014001516001600281106120c457fe5b60200201518b518a86613791565b94505b505050509392505050565b81810182811215600083121514610c1a57600080fd5b600080611c1c8460200151610ef986604001516114976402540be4008861216990919063ffffffff16565b80820382811315600083121514610c1a57600080fd5b6000610c1761214a84633b9aca00612169565b836121b7565b6000610c1761215f8484612169565b633b9aca006121b7565b8181026000198314156121995781158061218b57508282828161218857fe5b05145b61219457600080fd5b610c1a565b8215806121ae5750818382816121ab57fe5b05145b610c1a57600080fd5b6000816000191480156121cd5750600160ff1b83145b156121d757600080fd5b8183816121e057fe5b059392505050565b6121f0614ed3565b6000806000611f4485613842565b60008061220b8484611873565b6080860151919350915061221f9083611bdc565b608085015260a08401516122339082611bdc565b60a085015260608401516122479084611bdc565b606090940193909352929050565b60008061226488888686612632565b90506000612271876138c7565b90506affffffffffffffffffffff811061228a57600080fd5b600060788763ffffffff16901b609883901b60f085901b60f860008c136122b25760016122b5565b60005b60058111156122c057fe5b60ff16901b17171760001b905073__TradingAction_________________________63e50f349e8b836040518363ffffffff1660e01b8152600401612306929190615861565b60206040518083038186803b15801561231e57600080fd5b505af4158015612332573d6000803e3d6000fd5b505050506040513d601f19601f820116820180604052508101906123569190615234565b9a9950505050505050505050565b60006001600160501b03821115610f3b57600080fd5b612382614eac565b61238a614eac565b61239b836040015161ffff16611ae0565b91506004826060015160058111156123af57fe5b146123ca576123c5836040015161ffff16613131565b6123cc565b815b9050915091565b806005856060015160058111156123e657fe5b141561240b5760006123f784613131565b90506124078160000151846138e8565b9250505b6000821315612437576000612421868685613977565b9050856020015115612431578091505b50611c1c565b60038560600151600581111561244957fe5b1415612466576124618461245c8461108b565b613144565b611c1c565b8451611c1c90856124768561108b565b613a60565b60008060058560600151600581111561249057fe5b146124a2576370a0823160e01b6124ab565b630ed1279f60e11b5b905060006124be86600001513084613ad7565b90506005866060015160058111156124d257fe5b14156124f95760006124e78661ffff16613131565b90506124f38186613be9565b50612542565b60018660600151600581111561250b57fe5b14156125205761251b8685613c54565b612542565b60028660600151600581111561253257fe5b141561009c5761251b8685613cf6565b600061255387600001513085613ad7565b90506125676125628284613d49565b61161b565b979650505050505050565b60006305f5e1008360400151141561258b575080610c1a565b6040830151610c1790610ef9846305f5e100612169565b600082126125af57600080fd5b60006125c886604001518585858a610100015142612255565b9050600081136125ea5760405162461bcd60e51b8152600401610317906156c4565b6125f78787878685611c24565b86516126029061108b565b866060015113156126255760405162461bcd60e51b815260040161031790615715565b61111e8688838742613da0565b60008060006126448761ffff16613e9b565b90506126548160ff168786613eb1565b9093509150848311156126795760405162461bcd60e51b81526004016103179061550c565b81156126975760405162461bcd60e51b81526004016103179061550c565b5050949350505050565b600087608001516000146126b457600080fd5b6000876080015112156126c657600080fd5b8751602088015110156126ee576040870151156126e257600080fd5b875160208801526126ff565b87516020880151146126ff57600080fd5b6000851561271a576127178989888a60000151613f79565b90505b606088015160808901518a51600092612737928b928a8a8a613ff7565b905061275361274c8b8b848c60000151613f79565b839061343d565b915088606001516001600160a01b03168a6000015189600001516001600160a01b03167ff0b1fff1c6815d2739f7cb03adbb99177a10daae11921a3ae1712f20ea52eb9a898d608001518c886040516127af94939291906153d8565b60405180910390a4600060808a0152612356878261343d565b6127d0614ed3565b6000806127dd86866140ad565b91509150816000141561290b5760006127f587613842565b91945090925090506001600160a01b038116156129095760006128166140f4565b90508560001080156128285750858711155b8015612839575064ffffffffff8611155b61284257600080fd5b83600012801561285957506001600160801b038413155b61286257600080fd5b6000888152602082815260408083208a845290915290819020805464ffffffffff191664ffffffffff89161774ffffffffffffffffffffffffffffffff00000000001916600160281b6001600160801b038816021760ff60a81b1916600160a81b60ff871602178155905188908a907f0fdfa6885701e2f1f42e4187b9231cf81c1fe23671ef64fa46f34ddb56c1dc18906128fe90899061584d565b60405180910390a350505b505b6040805160608101825260008152602081019390935260ff909116600a0a9082015290509392505050565b60008061295a61295361294c886080015161161b565b8690611bf1565b84906120e0565b90506129658561305c565b15612a78576000612974611866565b60608901516001600160a01b039081166000908152602092835260408082208a519093168252919092528120875189516101408a015151835493955084936129ce93929190600160281b90046001600160501b0316614101565b90925090506129dd84836120e0565b93506129e98582612121565b88518a516101408b0151602001518654939850612a1593600160781b90046001600160501b0316614101565b9092509050612a2484836120e0565b9350612a308582612121565b9450612a3a611866565b60608b01516001600160a01b039081166000908152602092835260408082208c51909316825291909252902080546001600160c81b03191690555050505b612aab612aa48860000151610dcd612a938a6060015161161b565b610ef9866114978e6040015161161b565b83906120e0565b91506000821215612acd57612ac361136685846120f6565b6080880152600091505b5095945050505050565b6000806000612b03612af68860200151886120f690919063ffffffff16565b610dcd896080015161161b565b90506000612b1585610dcd8985611bf1565b90508015612b4e57612b3b61117a82610ef9612b348c60a0015161161b565b8a90612169565b9250612b4b81610ef98885612169565b93505b50506000612b5a614195565b88516001600160a01b03166000908152602091825260408082208a5183529092522080549091506001600160501b03811690600160501b9004600990810b900b83821015612bd757612bca61209b612bc36305f5e100610ef98d60c00151611497888b0361161b565b8a906120f6565b9450909250600090612bdd565b83820391505b82546001600160501b0319166001600160501b0383161783556000851215612c0457600080fd5b84811215612c77576000808213612c1b5785612c1f565b8186035b90506000612c3b8c600001518d60400151848e600001516141a2565b90506000831315612c6c57612c5083826120e0565b8554600160501b600160a01b0319168655965060009250612c70565b8096505b5050612cb6565b612c818186612121565b9050612c8c816142ca565b835460099190910b6001600160501b0316600160501b02600160501b600160a01b03199091161783555b88600001518a600001516001600160a01b03167ff5b347a56f0b5140f05eec05ff743978670a56685689fdc2c3193d71cfac31a98385604051612cfa9291906153ca565b60405180910390a35050509550959350505050565b60006305f5e10083604001511415612d28575080610c1a565b610c176305f5e100610ef985604001518561216990919063ffffffff16565b600080600286606001516005811115612d5c57fe5b1415612d7457612d6d8685856142fa565b9050612dd1565b6000612d7f86613131565b9050600587606001516005811115612d9357fe5b1415612dab57612da48186866143b7565b9150612dcf565b600187606001516005811115612dbd57fe5b141561009c57612da487828787614468565b505b612ddd6110fb8261161b565b9695505050505050565b600080600080612df68861237a565b9150915060008088608001511215612e6b57600483606001516005811115612e1a57fe5b1415612e3757612e3061117a896080015161108b565b9050612e6b565b6000612e586110fb8a608001518c6101600151611bf190919063ffffffff16565b9050612e6761117a8483614566565b9150505b604088015160009015612f43576000612e8484306145a2565b90508a600001516001600160a01b03166344f051088b600001518c602001518d604001518e60600151888f8f6040518863ffffffff1660e01b8152600401612ed297969594939291906152d9565b602060405180830381600087803b158015612eec57600080fd5b505af1158015612f00573d6000803e3d6000fd5b505050506040513d601f19601f82011682018060405250810190612f249190615234565b95506000612f3285306145a2565b9050612f3e8183611bdc565b925050505b81811015612fde57808203600384606001516005811115612f6057fe5b1415612f9e5734811115612f865760405162461bcd60e51b815260040161031790615486565b612f968a60000151823403613144565b829150612fdc565b6000612fc38b600001518d6040015161ffff16612fba8561161b565b889291906123d3565b9050612fd8612fd182610f2c565b849061343d565b9250505b505b81811015612ffe5760405162461bcd60e51b815260040161031790615486565b600060048560600151600581111561301257fe5b1415613028576130218261161b565b9050613042565b81156130425760408b015161303f9086908461247b565b90505b61304c8582612572565b9650505050505094509492505050565b6101408101515160009061ffff16151580610c1a57505061014001516020015161ffff16151590565b600064ffffffffff821115610f3b57600080fd5b600063ffffffff821115610f3b57600080fd5b6000620f424082601a8111156130be57fe5b0192915050565b6000806000806000806130d661464c565b6001600160a01b039097166000908152602097909752505060409094205461ffff81169563ffffffff620100008304811696506601000000000000830416945060ff600160501b8304169350600160581b90910460d81b9150565b613139614eac565b610c1a826001613202565b6040516001600160a01b0383169082156108fc029083906000818181858888f19350505050158015611012573d6000803e3d6000fd5b836001600160a01b03166323b872dd8484846040518463ffffffff1660e01b815260040180846001600160a01b03168152602001836001600160a01b031681526020018281526020019350505050600060405180830381600087803b1580156131e257600080fd5b505af11580156131f6573d6000803e3d6000fd5b505050506116a3614659565b61320a614eac565b60006132146146c6565b6000858152602082815260408083208715158452825291829020825160a08101845281546001600160a01b038116825260ff600160a01b82048116151594830194909452600160b01b81048416600a0a9482019490945293945092916060830191600160a81b90910416600581111561328957fe5b81529154600160b81b900468ffffffffffffffffff16602090920191909152949350505050565b6000816132bf57506000610c1a565b600082136132cc57600080fd5b60006132d784613131565b905060006132e882600001516146d3565b9050600281056b033b2e3c9fd0803ce80000006001600160ff1b038290030585131561331357600080fd5b81816b033b2e3c9fd0803ce80000008702018161332c57fe5b059695505050505050565b60008061334261475e565b6001600160a01b03861660009081526020918252604080822061ffff8816835290925220805490915061338590600160501b90046001600160501b031684612121565b915060008312156133ba5780546001600160501b03168213156133ba5760405162461bcd60e51b815260040161031790615564565b6133c661117f83610f2c565b81546001600160501b0391909116600160501b02600160501b600160a01b031990911617815560405161ffff8516906001600160a01b038716907f20478ef460e49d010960d4f3fff35d8dae385443abfac09035d6a2ccbcd834c49061342d9086906153c1565b60405180910390a3509392505050565b600082820183811015610c1757600080fd5b600080613497886040518060a001604052808a6001600160a01b031681526020018a6001600160a01b0316815260200189815260200188815260200160008152508686612de7565b90999098509650505050505050565b600080610c1a60146130ac565b60008060008060006134c48661476b565b909250905060006001600160a01b0383166134e95750600090506402540be400613569565b826001600160a01b031663b2fffb046040518163ffffffff1660e01b815260040160206040518083038186803b15801561352257600080fd5b505afa158015613536573d6000803e3d6000fd5b505050506040513d601f19601f8201168201806040525081019061355a9190615234565b90506000811361356957600080fd5b969195509350915050565b6000806135848761ffff16613131565b90508060400151600014156135a3576135a08761ffff16611ae0565b90505b60405163e937711160e01b8152612567906001600160a01b0388169063e9377111906135d790899089908990600401615367565b60206040518083038186803b1580156135ef57600080fd5b505afa158015613603573d6000803e3d6000fd5b505050506040513d601f19601f820116820180604052508101906136279190615234565b8290612572565b613636614efd565b60006136406147a2565b600084815260208290526040812091925080600186141561366d5750670de0b6b3a7640000905080613743565b825460408051633fabe5a360e21b815290516001600160a01b039092169163feaf968c9160048082019260a092909190829003018186803b1580156136b157600080fd5b505afa1580156136c5573d6000803e3d6000fd5b505050506040513d601f19601f820116820180604052508101906136e9919061524c565b509193505060008313915061371290505760405162461bcd60e51b815260040161031790615676565b825460ff600160a01b82048116600a0a9350600160a81b90910416156137435761374081610ef98480612169565b90505b6040805160a0810182529283526020830191909152915460ff600160b01b8204811693830193909352600160b81b810483166060830152600160c01b90049091166080820152915050919050565b60008061379c6147af565b6001600160a01b038616600090815260209182526040808220878352835280822061ffff8a16835290925290812080549092506001600160501b0380821692600160501b90920416906137f6612562836102db8987610f43565b905060006138078a61ffff1661362e565b905060006138158c836147bc565b905061383281610ef98e600001518661216990919063ffffffff16565b9c9b505050505050505050505050565b60008060008060006138538661476b565b909250905060006001600160a01b0383166138785750600090506402540be400613569565b826001600160a01b0316631ee108336040518163ffffffff1660e01b8152600401602060405180830381600087803b1580156138b357600080fd5b505af1158015613536573d6000803e3d6000fd5b6000808212156138e1576138da8261108b565b9050610f3e565b5080610f3e565b6000816138f757506000610c1a565b6000613902846146d3565b9050600061390f846138c7565b9050816b019d971e4fe8401e74000001600160ff1b038161392c57fe5b0581131561393957600080fd5b6b033b2e3c9fd0803ce80000006b019d971e4fe8401e7400000083830201056000851361396e576139698161108b565b612ddd565b95945050505050565b600080808060058760600151600581111561398e57fe5b146139a0576370a0823160e01b6139a9565b630ed1279f60e11b5b90508660200151156139c55786516139c2903083613ad7565b92505b86516139d29087876147e1565b8660200151806139e6575060008760800151115b156139fb5786516139f8903083613ad7565b91505b608087015115613a36576000613a1988613a148561161b565b612572565b9050613a28886080015161161b565b811315613a3457600080fd5b505b866020015115613a5757613a4d6125628385613d49565b935050505061159d565b613a4d8561161b565b826001600160a01b031663a9059cbb83836040518363ffffffff1660e01b815260040180836001600160a01b0316815260200182815260200192505050600060405180830381600087803b158015613ab757600080fd5b505af1158015613acb573d6000803e3d6000fd5b50505050611012614659565b604080516001600160a01b0384811660248084019190915283518084039091018152604490920183526020820180516001600160e01b03166001600160e01b0319861617815292518251600094859485948a16939092909182918083835b60208310613b545780518252601f199092019160209182019101613b35565b6001836020036101000a038019825116818451168082178552505050505050905001915050600060405180830381855afa9150503d8060008114613bb4576040519150601f19603f3d011682016040523d82523d6000602084013e613bb9565b606091505b509150915081613bc857600080fd5b808060200190516020811015613bdd57600080fd5b50519695505050505050565b613bf1614839565b54825160405163e8eda9df60e01b81526001600160a01b039092169163e8eda9df91613c26918590309060009060040161533a565b600060405180830381600087803b158015613c4057600080fd5b505af1158015611c8a573d6000803e3d6000fd5b815160405163140e25ad60e31b81526000916001600160a01b03169063a0712d6890613c849085906004016153c1565b602060405180830381600087803b158015613c9e57600080fd5b505af1158015613cb2573d6000803e3d6000fd5b505050506040513d601f19601f82011682018060405250810190613cd69190615234565b905080156110125760405162461bcd60e51b815260040161031790615448565b81600001516001600160a01b0316631249c58b826040518263ffffffff1660e01b81526004016000604051808303818588803b158015613d3557600080fd5b505af115801561111e573d6000803e3d6000fd5b600082821115611beb576040805162461bcd60e51b815260206004820152601e60248201527f536166654d6174683a207375627472616374696f6e206f766572666c6f770000604482015290519081900360640190fd5b6000613dc56301da9c00610ef9613dba6125628787611bdc565b60808a015190612169565b90506000613dd38583612150565b90506000613df36064610ef98a60e001518561216990919063ffffffff16565b90506000613e018383612121565b9050613e15896040015161ffff1683614846565b613e27896040015161ffff16826148cd565b6080880151613e369084612121565b88608001818152505085896040015161ffff168a600001516001600160a01b03167f7456cb4b7c3068832fb334a03d3cd8e440286bad834cb9e332df05ae6792cfbb8585604051613e889291906153ca565b60405180910390a4505050505050505050565b600080613ea783614919565b60ff169392505050565b60008060008511613ed45760405162461bcd60e51b8152600401610317906154b6565b6007851115613ef55760405162461bcd60e51b8152600401610317906155af565b6000613f0084614936565b905060015b868111613f58576000613f21613f1a83614954565b84906149f8565b905086811415613f395750925060009150613f719050565b86811115613f4f5750925060019150613f719050565b50600101613f05565b5060405162461bcd60e51b81526004016103179061575e565b935093915050565b60008460a0015160001415613f8f575081613fb1565b613fae8560a001516102db876060015186610f4390919063ffffffff16565b90505b60a0850151613fc0908461343d565b60a08601526060850151613fd4908261343d565b60608601526040840151613fe8908261343d565b6040850152611c1c8583611127565b60008061400d89600001518a60400151896114fb565b89519091506001600160a01b031663dc6679c58961402b848961343d565b8988886040518663ffffffff1660e01b815260040161404e959493929190615388565b602060405180830381600087803b15801561406857600080fd5b505af115801561407c573d6000803e3d6000fd5b505050506040513d601f19601f820116820180604052508101906140a09190615234565b9998505050505050505050565b60008060006140ba6140f4565b600095865260209081526040808720958752949052505050902054600160281b81046001600160801b031691600160a81b90910460ff1690565b600080610c1a60086130ac565b60008061ffff84166141185750600090508061418c565b60006141226147af565b6001600160a01b038816600090815260209182526040808220898352835280822061ffff891683529092522080549091506001600160501b03600160a01b8204811691600160501b900416851561418757614184612562826102db8986610f43565b93505b509250505b94509492505050565b600080610c1a60196130ac565b60006141af856000614a52565b846001600160a01b03167f7c51c6aa77346c54cb051d9e792f9b7bde5c28a9b57e6fb2d2dd727b38438ca960006040516141e991906153b6565b60405180910390a2818461ffff16866001600160a01b03167f823b641d46550301006f807a26587634f15bd13749efdc8859734377d5304a3b8660405161423091906153c1565b60405180910390a4600061424960008661ffff16614ab2565b50505090508084136142695761426185858303614b5b565b8391506142c1565b614274856000614b5b565b828561ffff16876001600160a01b03167f3a717b6924e3ad05b8c7609a2401472af90869b52cc3c9ca69b50100b4be63168488036040516142b591906153c1565b60405180910390a48091505b50949350505050565b6000697fffffffffffffffffff1982128015906142f15750697fffffffffffffffffff8213155b610f3b57600080fd5b825160405163db006a7560e01b8152600091479183916001600160a01b03169063db006a759061432e9087906004016153c1565b602060405180830381600087803b15801561434857600080fd5b505af115801561435c573d6000803e3d6000fd5b505050506040513d601f19601f820116820180604052508101906143809190615234565b905080156143a05760405162461bcd60e51b815260040161031790615466565b476143ab8184613d49565b93506119eb8685613144565b60006143d261117a85600001516143cd8561161b565b6138e8565b90506143dc614839565b548451604051631a4ca37b60e21b81526001600160a01b03909216916369328dec9161440e9185908890600401615317565b602060405180830381600087803b15801561442857600080fd5b505af115801561443c573d6000803e3d6000fd5b505050506040513d601f19601f820116820180604052508101906144609190615234565b509392505050565b8251600090819061448190306370a0823160e01b613ad7565b9050600086600001516001600160a01b031663db006a75856040518263ffffffff1660e01b81526004016144b591906153c1565b602060405180830381600087803b1580156144cf57600080fd5b505af11580156144e3573d6000803e3d6000fd5b505050506040513d601f19601f820116820180604052508101906145079190615234565b905080156145275760405162461bcd60e51b815260040161031790615466565b855160009061453e90306370a0823160e01b613ad7565b905061454a8184613d49565b935061455b87600001518786613a60565b505050949350505050565b60006305f5e1008360400151121561458e576145876001610dcd8585612d0f565b9050610c1a565b610c178361459d8460016120e0565b612d0f565b60006003836060015160058111156145b657fe5b14156145cd57506001600160a01b03811631610c1a565b82516040516370a0823160e01b81526001600160a01b03909116906370a08231906145fc9085906004016152c5565b60206040518083038186803b15801561461457600080fd5b505afa158015614628573d6000803e3d6000fd5b505050506040513d601f19601f820116820180604052508101906145879190615234565b600080610c1a60026130ac565b6000614663614f2c565b3d8015614677576020811461468057600080fd5b6001925061468b565b60206000833e815192505b5081611918576040805162461bcd60e51b8152602060048201526005602482015264045524332360dc1b604482015290519081900360640190fd5b600080610c1a60076130ac565b6000610c1a6146e0614839565b5460405163d15e005360e01b81526001600160a01b039091169063d15e00539061470e9086906004016152c5565b60206040518083038186803b15801561472657600080fd5b505afa15801561473a573d6000803e3d6000fd5b505050506040513d601f19601f820116820180604052508101906125629190615234565b600080610c1a60176130ac565b6000806000614778614bbe565b600094855260205250506040909120546001600160a01b03811692600160a01b90910460ff169150565b600080610c1a60106130ac565b600080610c1a60186130ac565b6000610c178260200151610ef98460000151866020015161216990919063ffffffff16565b604080516323b872dd60e01b81526001600160a01b038481166004830152306024830152604482018490529151918516916323b872dd9160648082019260009290919082900301818387803b158015613ab757600080fd5b600080610c1a60136130ac565b600081121561485457600080fd5b6000614861600084614ab2565b505050905061487982826120e090919063ffffffff16565b905061488c600084836000806000614bcb565b8261ffff167f85170c297762884f47ec6098b74925c795e6d33686b11019b400e33a9b23b5e9836040516148c091906153c1565b60405180910390a2505050565b60008112156148db57600080fd5b60006148e683614d12565b905060006148f48285614ab2565b505050905061490c83826120e090919063ffffffff16565b90506116a3828583614d38565b600080614924614d56565b60009384526020525050604090205490565b60006276a70082101561494857600080fd5b506276a7008106900390565b6000816001141561496957506276a700610f3e565b816002141561497c575062ed4e00610f3e565b816003141561499057506301da9c00610f3e565b81600414156149a457506303b53800610f3e565b81600514156149b857506309450c00610f3e565b81600614156149cc575063128a1800610f3e565b81600714156149e057506325143000610f3e565b60405162461bcd60e51b8152600401610317906154e5565b600082820183811015610c17576040805162461bcd60e51b815260206004820152601b60248201527f536166654d6174683a206164646974696f6e206f766572666c6f770000000000604482015290519081900360640190fd5b6000614a5c6134a6565b6001600160a01b038416600090815260208290526040902080549192509061ffff168315614a9b57815461ffff19166001821761ffff16178255614aab565b815461ffff191661fffe82161782555b5050505050565b6000806000806000614ac2614d63565b6001600160a01b0388166000908152602082815260408083208a8452909152902080546001600160501b0381169650600160501b900463ffffffff1694509091508315614b2b578054614b2490600160701b900466ffffffffffffff16614d70565b9250614b40565b8054600160701b900466ffffffffffffff1692505b54600160a81b9004600a90810b900b97939650919450925050565b6000811215614b6957600080fd5b614b7e60008361ffff16836000806000614bcb565b8161ffff167fd3625f7b5926828151efe19f7ae655488287357d99ebe67e5fb20522ca739c0b82604051614bb291906153c1565b60405180910390a25050565b600080610c1a600f6130ac565b6000614bd5614d63565b6001600160a01b0388166000908152602082815260408083208a845290915290209091506a7fffffffffffffffffffff198612801590614c2057506a7fffffffffffffffffffff8613155b614c2957600080fd5b60008512158015614c4157506001600160501b038513155b614c4a57600080fd5b83614c8a5766ffffffffffffff831115614c6357600080fd5b805466ffffffffffffff60701b1916600160701b66ffffffffffffff851602178155614ca4565b8054600160501b900463ffffffff168414614ca457600080fd5b8054600a9690960b6affffffffffffffffffffff16600160a81b026001600160a81b036001600160501b039096166001600160501b031963ffffffff909616600160501b0263ffffffff60501b19909816979097179490941695909517939093169190911790925550505050565b600080614d1d614d7e565b6000938452602052505060409020546001600160a01b031690565b6000811215614d4657600080fd5b6110128383836000806000614bcb565b600080610c1a60096130ac565b600080610c1a60066130ac565b600881901c60ff9091161b90565b600080610c1a60036130ac565b60405180604001604052806002906020820280368337509192915050565b6040518060c0016040528060008152602001600081526020016000815260200160006001600160a01b0316815260200160008152602001600081525090565b604051806101a0016040528060006001600160a01b03168152602001600061ffff168152602001600061ffff16815260200160008152602001600081526020016000815260200160008152602001600081526020016000815260200160008152602001614e53614d8b565b8152602001614e60614ed3565b8152602001600081525090565b6040518060e001604052806000815260200160008152602001600015158152602001600081526020016000815260200160008152602001600081525090565b6040805160a081018252600080825260208201819052918101829052906060820190614e60565b604051806060016040528060006001600160a01b0316815260200160008152602001600081525090565b6040518060a0016040528060008152602001600081526020016000815260200160008152602001600081525090565b60405180602001604052806001906020820280368337509192915050565b80356001600160a01b0381168114610f3e57600080fd5b60008083601f840112614f72578182fd5b50813567ffffffffffffffff811115614f89578182fd5b6020830191508360208285010111156118c657600080fd5b803563ffffffff81168114610f3e57600080fd5b80516001600160501b0381168114610f3e57600080fd5b60008060408385031215614fde578182fd5b614fe783614f4a565b91506118c360208401614f4a565b600080600080600080600060c0888a03121561500f578283fd5b61501888614f4a565b965061502660208901614f4a565b955061503460408901614f4a565b9450606088013593506080880135801515811461504f578384fd5b925060a088013567ffffffffffffffff81111561506a578283fd5b6150768a828b01614f61565b989b979a50959850939692959293505050565b60008060008060008060008060e0898b0312156150a4578081fd5b6150ad89614f4a565b97506150bb60208a01614f4a565b96506150c960408a01614f4a565b955060608901359450608089013593506150e560a08a01614fa1565b925060c089013567ffffffffffffffff811115615100578182fd5b61510c8b828c01614f61565b999c989b5096995094979396929594505050565b60008060008060008060008060e0898b03121561513b578384fd5b61514489614f4a565b975061515260208a01614f4a565b965060408901359550606089013594506080890135935061517560a08a01614fa1565b925060c089013567ffffffffffffffff811115615100578283fd5b60008060008060008060008060006101008a8c0312156151ae578081fd5b6151b78a614f4a565b98506151c560208b01614f4a565b975060408a0135965060608a0135955060808a013594506151e860a08b01614fa1565b93506151f660c08b01614fa1565b925060e08a013567ffffffffffffffff811115615211578182fd5b61521d8c828d01614f61565b915080935050809150509295985092959850929598565b600060208284031215615245578081fd5b5051919050565b600080600080600060a08688031215615263578081fd5b61526c86614fb5565b945060208601519350604086015192506060860151915061528f60808701614fb5565b90509295509295909350565b60008284528282602086013780602084860101526020601f19601f85011685010190509392505050565b6001600160a01b0391909116815260200190565b600060018060a01b03808a16835280891660208401525086604083015285606083015284608083015260c060a08301526140a060c08301848661529b565b6001600160a01b0393841681526020810192909252909116604082015260600190565b6001600160a01b03948516815260208101939093529216604082015261ffff909116606082015260800190565b6001600160a01b039390931683526020830191909152604082015260600190565b600060018060a01b03871682528560208301528460408301526080606083015261256760808301848661529b565b901515815260200190565b90815260200190565b918252602082015260400190565b93845260208401929092526040830152606082015260800190565b6020808252600c908201526b155b985d5d1a1bdc9a5e995960a21b604082015260600190565b6020808252601590820152740acc2ead8e840a6d0c2e4cae6409ad2e6dac2e8c6d605b1b604082015260600190565b602080825260049082015263135a5b9d60e21b604082015260600190565b60208082526006908201526552656465656d60d01b604082015260600190565b602080825260169082015275125b9cdd59999a58da595b9d081c995c185e5b595b9d60521b604082015260600190565b60208082526015908201527410d1ce881b9bc81b585c9ad95d1cc81b1a5cdd1959605a1b604082015260600190565b6020808252600d908201526c092dcecc2d8d2c840d2dcc8caf609b1b604082015260600190565b60208082526010908201526f496e76616c6964204d6174757269747960801b604082015260600190565b60208082526014908201527310589bdd994813585e0810dbdb1b185d195c985b60621b604082015260600190565b6020808252600c908201526b4d617820436170616369747960a01b604082015260600190565b6020808252600b908201526a139bdd0814d95d1d1b195960aa1b604082015260600190565b60208082526016908201527510d1ce881b585c9ad95d081a5b99195e08189bdd5b9960521b604082015260600190565b6020808252600f908201526e139bc8149bdb1b08105b1b1bddd959608a1b604082015260600190565b60208082526017908201527f496e73756666696369656e7420436f6c6c61746572616c000000000000000000604082015260600190565b60208082526017908201527f4d757374204c697175696461746520416c6c2044656274000000000000000000604082015260600190565b6020808252600c908201526b496e76616c6964207261746560a01b604082015260600190565b6020808252600e908201526d1499595b9d1c985b9d0818d85b1b60921b604082015260600190565b6020808252600d908201526c109bdc9c9bddc819985a5b1959609a1b604082015260600190565b60208082526010908201526f4d696e20456e74727920426c6f636b7360801b604082015260600190565b6020808252600a90820152694d696e20426f72726f7760b01b604082015260600190565b6020808252600b908201526a092dcecc2d8d2c8408aa8960ab1b604082015260600190565b60208082526013908201527210d1ce881b9bc81b585c9ad95d08199bdd5b99606a1b604082015260600190565b6020808252600c908201526b21b0b73737ba1022b73a32b960a11b604082015260600190565b6020808252600b908201526a11985a5b19590813195b9960aa1b604082015260600190565b60208082526015908201527414dd59999a58da595b9d0810dbdb1b185d195c985b605a1b604082015260600190565b8151815260208083015190820152604080830151908201526060808301516001600160a01b0316908201526080808301519082015260a0918201519181019190915260c00190565b6001600160801b0391909116815260200190565b61ffff929092168252602082015260400190565b8381526080810160208083018560005b60028110156158a257815183529183019190830190600101615885565b50505050826060830152949350505050565b9182521515602082015260400190565b928352602083019190915260408201526060019056fea2646970667358221220c258a86af76b9d778a736e494b1d278fb25106ca111c09077bbbfec085d478e364736f6c63430007060033",
  "bytecodeSha1": "426a4b284cc98345544b3d94fe3f74a14173955a",
  "compiler": {
    "evm_version": "istanbul",
    "optimizer": {
      "enabled": true,
      "runs": 200
    },
    "version": "0.7.6+commit.7338295f"
  },
  "contractName": "VaultAccountAction",
  "deployedBytecode": "60806040526004361061009c5760003560e01c80638246336711610064578063824633671461015e5780638da5cb5b1461017357806395c1a202146101885780639948315e1461019b578063c025d1a5146101bb578063c4c96dae146101e85761009c565b806324a3d622146100a1578063647cc196146100cc578063653b6104146100fc5780636ce48f011461011c578063803c25fb1461012f575b600080fd5b3480156100ad57600080fd5b506100b66101fd565b6040516100c391906152c5565b60405180910390f35b3480156100d857600080fd5b506100ec6100e7366004614fcc565b61020c565b6040516100c394939291906153d8565b61010f61010a366004615190565b6102f2565b6040516100c391906153c1565b61010f61012a366004615089565b6104c9565b34801561013b57600080fd5b5061014f61014a366004614fcc565b61072b565b6040516100c393929190615875565b34801561016a57600080fd5b506100b66107dc565b34801561017f57600080fd5b506100b66107eb565b61010f610196366004615120565b610802565b3480156101a757600080fd5b5061010f6101b6366004614ff5565b610989565b3480156101c757600080fd5b506101db6101d6366004614fcc565b610c05565b6040516100c39190615805565b3480156101f457600080fd5b506100b6610c20565b6002546001600160a01b031681565b600080600080600061021d86610c38565b9050600061022b8888610c67565b9050600061023d888360200151610cfc565b90508260a00151955080604001511561025f576001600160ff1b0396506102e6565b6040820151825160009161027991869185918e9190610d97565b9098509050868812801561028d5750600081135b156102e45761029d838583610e1d565b5095506102e1633b9aca006102db6102b484610f2c565b6102db87604001516102d56102cc8b60c00151610f2c565b6102d58e610f2c565b90610f43565b90610f6a565b94505b505b50505092959194509250565b60006002600a5414156103205760405162461bcd60e51b81526004016103179061569c565b60405180910390fd5b6002600a5560006103308a610f89565b905061033e818c6010610fad565b610349816080611017565b15610354576001600a555b60006103608c8c610c67565b905061036d826001611017565b801561037f575061037f826002611017565b801561038e5750806020015142105b801561039d5750888160200151105b80156103a9575060008a115b6103c55760405162461bcd60e51b8152600401610317906155df565b60006103d983600001518360200151610cfc565b905060006103f68384604001518461102c9092919063ffffffff16565b9050610415848361040a866000015161108b565b869291908d42611099565b8251156104345760405162461bcd60e51b8152600401610317906157b1565b8351610441908390611127565b89156104525761045283858c61129b565b61046483858d8f8c8c8c886000611382565b94508a8e6001600160a01b03168e6001600160a01b03167f67c1d09e65227d62b788f4c3e6ace545ac922034d69bd4aa45c53dec290275be8f6040516104aa91906153c1565b60405180910390a450506001600a5550909a9950505050505050505050565b60006002600a5414156104ee5760405162461bcd60e51b81526004016103179061569c565b6002600a5560006104fe89610f89565b905061050c818b6008610fad565b610517816080611017565b15610522576001600a555b600061052e8b8b610c67565b90504360058260a001510111156105575760405162461bcd60e51b8152600401610317906156eb565b428160200151116106035760208101516000610574838542611425565b905060008360800151131561059f576105968b856040015185608001516114fb565b50600060808401525b6105ae84848d84868c8c6115a4565b9450818d6001600160a01b03168d6001600160a01b03167fccd6b9aec297a77187bfaabfe7f98ac1dd313c796a73695dff89de0885dbb293886040516105f491906153c1565b60405180910390a450506106f0565b600061061783600001518360200151610cfc565b905061063283826106278b61161b565b859291908b42611099565b600061063f82848c61102c565b905060008360800151131561066a576106618b856040015185608001516114fb565b50600060808401525b815161067f90859085908e9085908c8c6115a4565b945061068c848385611631565b8351610699908390611127565b81600001518d6001600160a01b03168d6001600160a01b03167fea195c44d2295a1df0defe8210abb22b4a911b4379b9e30e764548ebee65c4208c8e8a6040516106e5939291906158c4565b60405180910390a450505b805115801561070157506040810151155b1561070e57600060208201525b61071881836116a9565b50506001600a5598975050505050505050565b6000610735614d8b565b600080610740611866565b6001600160a01b03878116600090815260209283526040808220928916825291835290812080546001600160501b03600160281b820481168852600160781b8204169387019390935264ffffffffff90921695509091506107a18787610c67565b905060006107b3878360200151610cfc565b90506107cc82604001518261187390919063ffffffff16565b9050809450505050509250925092565b6001546001600160a01b031681565b60005464010000000090046001600160a01b031681565b60006002600a5414156108275760405162461bcd60e51b81526004016103179061569c565b6002600a55610835896118cd565b876001600160a01b0316896001600160a01b0316141561085457600080fd5b600061085f89610f89565b905061086d818b6004610fad565b610878816080611017565b15610883576001600a555b61088e816001611017565b6108aa5760405162461bcd60e51b81526004016103179061578b565b8642106108c95760405162461bcd60e51b81526004016103179061578b565b60006108d58b8b610c67565b9050600081602001516000141580156108f2575042826020015111155b1561090557610902828442611425565b90505b6000610912848e8d61191c565b905061092583858c8c8c8c8c8989611382565b9450898d6001600160a01b03168d6001600160a01b03167f7e1a5e400898c4bb3cfc62f61a71f4369ec78f0e778a31286892b7d2c0d044f28c60405161096b91906153c1565b60405180910390a450506001600a5550909998505050505050505050565b60006002600a5414156109ae5760405162461bcd60e51b81526004016103179061569c565b6002600a556109bc866118cd565b60006109c98989896119f5565b905060006109d78a8a610c67565b905060006109e98a8360200151610cfc565b9050816020015142106109fb57600080fd5b600080610a1f838e8660400151876000015189610d9790949392919063ffffffff16565b915091508460a001518212610a465760405162461bcd60e51b8152600401610317906157d6565b6000610a59866040015161ffff16611ae0565b9050610a698c8287898f87611af3565b6000610aa4633b9aca006102db610a7f86610f2c565b6102db8a604001516102d5610a978e60c00151610f2c565b6102d58e60800151610f2c565b6040870151909150610ab69082611bdc565b60408701526080860151610160880151600091610ad39190611bf1565b9050610af2888783610ae88b6080015161108b565b8b93929190611c24565b86516009191215610b0257600087525b8f6001600160a01b03168f6001600160a01b03167f5b4676a4ed91c52fd6c4a759aec8a3561b67499c52870fc58000a8eb54fec3018484604051610b479291906153ca565b60405180910390a350610b5a86886116a9565b8c6001600160a01b03168f6001600160a01b03168f6001600160a01b03167f01745a2fe0d7c484ea79432a82f950eac6916adc499a0223d2ebdadcdb210f2a848f604051610ba99291906158b4565b60405180910390a48a15610bdb578651610bc4908690611127565b610bd48d88838960200151611c92565b9750610bed565b610bea8d8887848e8e88611d06565b97505b50506001600a5550939b9a5050505050505050505050565b610c0d614da9565b610c178383610c67565b90505b92915050565b73__$7ac922d04bd7a1b42c7f6e5f1dd89a70af$__90565b610c40614de8565b610c4982611d94565b9050610c5c816040015161ffff16611f2e565b610160820152919050565b610c6f614da9565b6000610c79611f7a565b6001600160a01b03948516600081815260209283526040808220969097168152948252858520546001600160501b0380821687038652600160a01b820464ffffffffff1693860193909352600160501b8104909216958401959095526060830194909452506080810191909152600160c81b90910463ffffffff1660a082015290565b610d04614e6d565b6000610d0e611f87565b6001600160a01b03909416600090815260209485526040808220858352865280822094845284546001600160501b038082169093039685019690965260ff600160f01b870416151590840152600160501b8086048216608085015260019094015480821660a0850152600160a01b909504166060830152509104600990810b900b60c082015290565b600080610da686888787611f94565b90506000610db988878960000151611ff9565b90506000610ddf610dd383610dcd8861108b565b906120e0565b6101608b0151906120f6565b90506000610ded8483612121565b905081610e03576001600160ff1b039450610e10565b610e0d8183612137565b94505b5050509550959350505050565b6000806000610e3e633b9aca008661012001516120e090919063ffffffff16565b90506000610e5e610e52886000015161108b565b610160880151906120f6565b9050610e94610e7a8760c001518461212190919063ffffffff16565b610e8e87610e888587612150565b90612121565b90612137565b93506000610ea28286612121565b90506000610ec288606001518961016001516120f690919063ffffffff16565b9050610ece8382612121565b945080821215610edc578295505b6000610eff88610ef98b60c001518a61216990919063ffffffff16565b906121b7565b9050633b9aca008112610f1f5760c0890151610f1c908990612137565b96505b5050505050935093915050565b600080821215610f3b57600080fd5b50805b919050565b600082610f5257506000610c1a565b82820282848281610f5f57fe5b0414610c1757600080fd5b6000808211610f7857600080fd5b818381610f8157fe5b049392505050565b610f91614de8565b610f9a82611d94565b9050610c5c816040015161ffff166121e8565b610fb78382611017565b15610fea5782516001600160a01b03163314610fe55760405162461bcd60e51b8152600401610317906153f3565b611012565b6001600160a01b03821633146110125760405162461bcd60e51b8152600401610317906153f3565b505050565b60209190910151811661ffff90811691161490565b825160208301516000911461104057600080fd5b604083015161104f9083611bdc565b6040840152600061106085846121fe565b9250905061107b6110708261161b565b6080860151906120e0565b6080909401939093529392505050565b6000610c1a60001983612169565b85516000906110a890856120e0565b13156110b357600080fd5b856020015181106110c357600080fd5b60006110e08660400151886020015186868a610100015187612255565b90508061110357610160860151611100906110fb90866120f6565b61108b565b90505b600081131561111157600080fd5b61111e8787878785611c24565b50505050505050565b6000611131611f87565b6001600160a01b038316600090815260208281526040808320875184529091529081902090850151919250901561116757600080fd5b61118461117f61117a866020015161108b565b610f2c565b612364565b81546001600160501b0319166001600160501b039190911617815560808401516111ad90612364565b81546001600160501b0391909116600160501b02600160501b600160a01b031990911617815560a08401516111e190612364565b6001820180546001600160501b0319166001600160501b0392909216919091179055606084015161121190612364565b81546001600160501b0391909116600160a01b0269ffffffffffffffffffff60a01b1990911617815583516020850151608086015160a087015160608801516040516001600160a01b038916947f3a0fdaecf7b5da75a56077f5b1c8fbc88f9b08e9d0c4db31eb34e25bc6700cde9461128d94919390926153d8565b60405180910390a350505050565b6000806112a78461237a565b909250905060006003826060015160058111156112c057fe5b14156112ec573484146112e55760405162461bcd60e51b815260040161031790615739565b5034611315565b61131261117a8760600151876040015161ffff166113098861161b565b869291906123d3565b90505b600060048460600151600581111561132957fe5b141561133f576113388261161b565b9050611359565b81156113595760408601516113569085908461247b565b90505b6113716113668583612572565b6080890151906120e0565b608090970196909652505050505050565b6000878a60200151148061139557508951155b61139e57600080fd5b60006113ae8a600001518a610cfc565b905087156113d4576113cf8b8b838c6113c96110fb8e61161b565b8c6125a2565b6113eb565b6113e98a604001518a8c610100015142612632565b505b6113fa818c8c87878b8b6126a1565b4360a08d0152915061140c8b8b6116a9565b6114178a828d611631565b509998505050505050505050565b60008061143a84600001518660200151610cfc565b9050806040015161145d5760405162461bcd60e51b81526004016103179061558a565b6000611476856040015161ffff168760200151866127c8565b9050600061149d6305f5e100610ef98560c001516114978760a0015161161b565b90612169565b905060006114ae8885898686612936565b905060006114bf8886868587612ad7565b60008b5260808b01519097509091506114d890826120e0565b60808a015250506000604088018190526020909701969096525090949350505050565b60008161150a5750600061159d565b6000821361151757600080fd5b60006115268461ffff16611ae0565b905060006115348285612d0f565b905060048260600151600581111561154857fe5b14156115765761156f61117a6110fb888861ffff166115668661108b565b879291906123d3565b925061159a565b61159761117a6110fb8761ffff168961158e86610f2c565b87929190612d47565b92505b50505b9392505050565b600080876080015113156115b757600080fd5b611603886040518060a001604052808a606001516001600160a01b03168152602001896001600160a01b031681526020018881526020018781526020018a608001518152508585612de7565b60006080909901989098525095979650505050505050565b60006001600160ff1b03821115610f3b57600080fd5b600061164c8484846060015185604001518660000151610d97565b5060408301519091501561167f5783610180015181131561167f5760405162461bcd60e51b815260040161031790615536565b808460a0015113156116a35760405162461bcd60e51b815260040161031790615608565b50505050565b60006116b3611f7a565b60608401516001600160a01b039081166000908152602083815260408083208751909416835292905220608085015191925090156116f057600080fd5b606083015184516117009061108b565b1215611735578351158061171957506001846040015111155b6117355760405162461bcd60e51b815260040161031790615715565b61173e8361305c565b156117a157600061174d611866565b60608601516001600160a01b03908116600090815260209283526040808220885190931682529183522080549187015190925064ffffffffff90911690811480611795575080155b61179e57600080fd5b50505b6117b461117f61117a866000015161108b565b81546001600160501b0319166001600160501b039190911617815560408401516117dd90612364565b81546001600160501b0391909116600160501b02600160501b600160a01b0319909116178155602084015161181190613085565b815464ffffffffff91909116600160a01b0264ffffffffff60a01b1990911617815560a084015161184190613099565b815463ffffffff91909116600160c81b0263ffffffff60c81b19909116179055505050565b600080610c1a601a6130ac565b6000806000846060015111156118c6576118a284606001516102db866080015186610f4390919063ffffffff16565b91506118c384606001516102db8660a0015186610f4390919063ffffffff16565b90505b9250929050565b6001600160a01b0381166118e057600080fd5b6001600160a01b0381163014156118f657600080fd5b6000611901826130c5565b5050505061ffff1690508060001461191857600080fd5b5050565b60008161192b5750600061159d565b600061193e856040015161ffff16611ae0565b9050600060048260600151600581111561195457fe5b1461196f5761196a866040015161ffff16613131565b611971565b815b86516020820151919250901561198657600080fd5b60038260600151600581111561199857fe5b14156119d2578434146119bd5760405162461bcd60e51b815260040161031790615739565b6119c78134613144565b34935050505061159d565b81516119e09087838861317a565b84935050505061159d565b5050509392505050565b6119fd614de8565b611a0683610f89565b9050611a1481610100611017565b15611a1e57600080fd5b611a29816080611017565b15611a34576001600a555b611a3f816020611017565b15611a7157336001600160a01b03841614611a6c5760405162461bcd60e51b8152600401610317906153f3565b611a99565b336001600160a01b03831614611a995760405162461bcd60e51b8152600401610317906153f3565b6001600160a01b0384163314801590611ac45750816001600160a01b0316846001600160a01b031614155b61159d5760405162461bcd60e51b8152600401610317906153f3565b611ae8614eac565b610c1a826000613202565b6000611afe8361161b565b9050600586606001516005811115611b1257fe5b1415611b2d57611b2a846040015161ffff16826132b0565b90505b600080611b3b878786610e1d565b9150915060008213611b4c57600080fd5b6000611b588984612d0f565b905080841215611b8f57611b6c8983612d0f565b8412611b8a5760405162461bcd60e51b81526004016103179061563f565b611b93565b8093505b6040870151600090611bad908b908d9061ffff16886123d3565b9050611bc7611bbc8b83612572565b60808b0151906120e0565b60809099019890985250505050505050505050565b600082821115611beb57600080fd5b50900390565b600080611c1c8460400151610ef96402540be400610ef987896020015161216990919063ffffffff16565b949350505050565b6080850151611c3390826120e0565b60808601528451611c4490836120e0565b80865260001215611c5457600080fd5b6020830151611c6390836120e0565b6020840181905260001215611c7757600080fd5b611c8a8460000151856040015184613337565b505050505050565b600080611ca3868660000151610c67565b9050806020015160001480611cbb5750828160200151145b611cd75760405162461bcd60e51b815260040161031790615419565b602081018390526040810151611ced908561343d565b6040820152611cfc81866116a9565b5091949350505050565b60008080611d1488886121fe565b89519193509150611d2c908a908c9084908a8a61344f565b8a51909450611d3d91508990611127565b8115611d87576000611d7761117a6110fb8c6040015161ffff168e611d6e61117a611d678a61161b565b8c90612d0f565b8a929190612d47565b9050611d83848261343d565b9350505b5050979650505050505050565b611d9c614de8565b6000611da66134a6565b6001600160a01b03841660008181526020838152604091829020928652825461ffff808216928801929092526201000081049091169186019190915291925090611e079063ffffffff6401000000009091048116906305f5e1009061216916565b60608401528054611e2590600160501b900460ff166207a120610f43565b60808401528054611e499068010000000000000000900461ffff16620186a0610f43565b60a08401528054611e6890600160701b900461ffff16620186a0610f43565b6101208401526002810154611e849061ffff16620186a0610f43565b610180840152805460649060ff600160581b90910416633b9aca00020560c08401528054600160601b810460ff90811660e0860152600160681b909104166101008401526040805180820191829052906001830190600290826000855b82829054906101000a900461ffff1661ffff1681526020019060020190602082600101049283019260010382029150808411611ee157905050505050508361014001819052505050919050565b611f36614ed3565b6000806000611f44856134b3565b604080516060810182526001600160a01b039093168352602083019390935260ff16600a0a918101919091529350505050919050565b600080610c1a60166130ac565b600080610c1a60156130ac565b600081611fa357506000611c1c565b600080611fb08785611873565b915091506000611fcf8760400151886000015188858c60000151613574565b9050611fed611fdd8461161b565b610160890151610dcd90846120f6565b98975050505050505050565b60006120048461305c565b1561159d576000612013611866565b6001600160a01b0380861660009081526020928352604080822089519093168252919092528082209087015190925061204f9061ffff1661362e565b82549091506001600160501b03600160281b8204811691600160781b90041681156120a5576120a261209b848a610140015160006002811061208d57fe5b60200201518b518a87613791565b86906120e0565b94505b80156120d5576120d261209b848a61014001516001600281106120c457fe5b60200201518b518a86613791565b94505b505050509392505050565b81810182811215600083121514610c1a57600080fd5b600080611c1c8460200151610ef986604001516114976402540be4008861216990919063ffffffff16565b80820382811315600083121514610c1a57600080fd5b6000610c1761214a84633b9aca00612169565b836121b7565b6000610c1761215f8484612169565b633b9aca006121b7565b8181026000198314156121995781158061218b57508282828161218857fe5b05145b61219457600080fd5b610c1a565b8215806121ae5750818382816121ab57fe5b05145b610c1a57600080fd5b6000816000191480156121cd5750600160ff1b83145b156121d757600080fd5b8183816121e057fe5b059392505050565b6121f0614ed3565b6000806000611f4485613842565b60008061220b8484611873565b6080860151919350915061221f9083611bdc565b608085015260a08401516122339082611bdc565b60a085015260608401516122479084611bdc565b606090940193909352929050565b60008061226488888686612632565b90506000612271876138c7565b90506affffffffffffffffffffff811061228a57600080fd5b600060788763ffffffff16901b609883901b60f085901b60f860008c136122b25760016122b5565b60005b60058111156122c057fe5b60ff16901b17171760001b905073__$7ac922d04bd7a1b42c7f6e5f1dd89a70af$__63e50f349e8b836040518363ffffffff1660e01b8152600401612306929190615861565b60206040518083038186803b15801561231e57600080fd5b505af4158015612332573d6000803e3d6000fd5b505050506040513d601f19601f820116820180604052508101906123569190615234565b9a9950505050505050505050565b60006001600160501b03821115610f3b57600080fd5b612382614eac565b61238a614eac565b61239b836040015161ffff16611ae0565b91506004826060015160058111156123af57fe5b146123ca576123c5836040015161ffff16613131565b6123cc565b815b9050915091565b806005856060015160058111156123e657fe5b141561240b5760006123f784613131565b90506124078160000151846138e8565b9250505b6000821315612437576000612421868685613977565b9050856020015115612431578091505b50611c1c565b60038560600151600581111561244957fe5b1415612466576124618461245c8461108b565b613144565b611c1c565b8451611c1c90856124768561108b565b613a60565b60008060058560600151600581111561249057fe5b146124a2576370a0823160e01b6124ab565b630ed1279f60e11b5b905060006124be86600001513084613ad7565b90506005866060015160058111156124d257fe5b14156124f95760006124e78661ffff16613131565b90506124f38186613be9565b50612542565b60018660600151600581111561250b57fe5b14156125205761251b8685613c54565b612542565b60028660600151600581111561253257fe5b141561009c5761251b8685613cf6565b600061255387600001513085613ad7565b90506125676125628284613d49565b61161b565b979650505050505050565b60006305f5e1008360400151141561258b575080610c1a565b6040830151610c1790610ef9846305f5e100612169565b600082126125af57600080fd5b60006125c886604001518585858a610100015142612255565b9050600081136125ea5760405162461bcd60e51b8152600401610317906156c4565b6125f78787878685611c24565b86516126029061108b565b866060015113156126255760405162461bcd60e51b815260040161031790615715565b61111e8688838742613da0565b60008060006126448761ffff16613e9b565b90506126548160ff168786613eb1565b9093509150848311156126795760405162461bcd60e51b81526004016103179061550c565b81156126975760405162461bcd60e51b81526004016103179061550c565b5050949350505050565b600087608001516000146126b457600080fd5b6000876080015112156126c657600080fd5b8751602088015110156126ee576040870151156126e257600080fd5b875160208801526126ff565b87516020880151146126ff57600080fd5b6000851561271a576127178989888a60000151613f79565b90505b606088015160808901518a51600092612737928b928a8a8a613ff7565b905061275361274c8b8b848c60000151613f79565b839061343d565b915088606001516001600160a01b03168a6000015189600001516001600160a01b03167ff0b1fff1c6815d2739f7cb03adbb99177a10daae11921a3ae1712f20ea52eb9a898d608001518c886040516127af94939291906153d8565b60405180910390a4600060808a0152612356878261343d565b6127d0614ed3565b6000806127dd86866140ad565b91509150816000141561290b5760006127f587613842565b91945090925090506001600160a01b038116156129095760006128166140f4565b90508560001080156128285750858711155b8015612839575064ffffffffff8611155b61284257600080fd5b83600012801561285957506001600160801b038413155b61286257600080fd5b6000888152602082815260408083208a845290915290819020805464ffffffffff191664ffffffffff89161774ffffffffffffffffffffffffffffffff00000000001916600160281b6001600160801b038816021760ff60a81b1916600160a81b60ff871602178155905188908a907f0fdfa6885701e2f1f42e4187b9231cf81c1fe23671ef64fa46f34ddb56c1dc18906128fe90899061584d565b60405180910390a350505b505b6040805160608101825260008152602081019390935260ff909116600a0a9082015290509392505050565b60008061295a61295361294c886080015161161b565b8690611bf1565b84906120e0565b90506129658561305c565b15612a78576000612974611866565b60608901516001600160a01b039081166000908152602092835260408082208a519093168252919092528120875189516101408a015151835493955084936129ce93929190600160281b90046001600160501b0316614101565b90925090506129dd84836120e0565b93506129e98582612121565b88518a516101408b0151602001518654939850612a1593600160781b90046001600160501b0316614101565b9092509050612a2484836120e0565b9350612a308582612121565b9450612a3a611866565b60608b01516001600160a01b039081166000908152602092835260408082208c51909316825291909252902080546001600160c81b03191690555050505b612aab612aa48860000151610dcd612a938a6060015161161b565b610ef9866114978e6040015161161b565b83906120e0565b91506000821215612acd57612ac361136685846120f6565b6080880152600091505b5095945050505050565b6000806000612b03612af68860200151886120f690919063ffffffff16565b610dcd896080015161161b565b90506000612b1585610dcd8985611bf1565b90508015612b4e57612b3b61117a82610ef9612b348c60a0015161161b565b8a90612169565b9250612b4b81610ef98885612169565b93505b50506000612b5a614195565b88516001600160a01b03166000908152602091825260408082208a5183529092522080549091506001600160501b03811690600160501b9004600990810b900b83821015612bd757612bca61209b612bc36305f5e100610ef98d60c00151611497888b0361161b565b8a906120f6565b9450909250600090612bdd565b83820391505b82546001600160501b0319166001600160501b0383161783556000851215612c0457600080fd5b84811215612c77576000808213612c1b5785612c1f565b8186035b90506000612c3b8c600001518d60400151848e600001516141a2565b90506000831315612c6c57612c5083826120e0565b8554600160501b600160a01b0319168655965060009250612c70565b8096505b5050612cb6565b612c818186612121565b9050612c8c816142ca565b835460099190910b6001600160501b0316600160501b02600160501b600160a01b03199091161783555b88600001518a600001516001600160a01b03167ff5b347a56f0b5140f05eec05ff743978670a56685689fdc2c3193d71cfac31a98385604051612cfa9291906153ca565b60405180910390a35050509550959350505050565b60006305f5e10083604001511415612d28575080610c1a565b610c176305f5e100610ef985604001518561216990919063ffffffff16565b600080600286606001516005811115612d5c57fe5b1415612d7457612d6d8685856142fa565b9050612dd1565b6000612d7f86613131565b9050600587606001516005811115612d9357fe5b1415612dab57612da48186866143b7565b9150612dcf565b600187606001516005811115612dbd57fe5b141561009c57612da487828787614468565b505b612ddd6110fb8261161b565b9695505050505050565b600080600080612df68861237a565b9150915060008088608001511215612e6b57600483606001516005811115612e1a57fe5b1415612e3757612e3061117a896080015161108b565b9050612e6b565b6000612e586110fb8a608001518c6101600151611bf190919063ffffffff16565b9050612e6761117a8483614566565b9150505b604088015160009015612f43576000612e8484306145a2565b90508a600001516001600160a01b03166344f051088b600001518c602001518d604001518e60600151888f8f6040518863ffffffff1660e01b8152600401612ed297969594939291906152d9565b602060405180830381600087803b158015612eec57600080fd5b505af1158015612f00573d6000803e3d6000fd5b505050506040513d601f19601f82011682018060405250810190612f249190615234565b95506000612f3285306145a2565b9050612f3e8183611bdc565b925050505b81811015612fde57808203600384606001516005811115612f6057fe5b1415612f9e5734811115612f865760405162461bcd60e51b815260040161031790615486565b612f968a60000151823403613144565b829150612fdc565b6000612fc38b600001518d6040015161ffff16612fba8561161b565b889291906123d3565b9050612fd8612fd182610f2c565b849061343d565b9250505b505b81811015612ffe5760405162461bcd60e51b815260040161031790615486565b600060048560600151600581111561301257fe5b1415613028576130218261161b565b9050613042565b81156130425760408b015161303f9086908461247b565b90505b61304c8582612572565b9650505050505094509492505050565b6101408101515160009061ffff16151580610c1a57505061014001516020015161ffff16151590565b600064ffffffffff821115610f3b57600080fd5b600063ffffffff821115610f3b57600080fd5b6000620f424082601a8111156130be57fe5b0192915050565b6000806000806000806130d661464c565b6001600160a01b039097166000908152602097909752505060409094205461ffff81169563ffffffff620100008304811696506601000000000000830416945060ff600160501b8304169350600160581b90910460d81b9150565b613139614eac565b610c1a826001613202565b6040516001600160a01b0383169082156108fc029083906000818181858888f19350505050158015611012573d6000803e3d6000fd5b836001600160a01b03166323b872dd8484846040518463ffffffff1660e01b815260040180846001600160a01b03168152602001836001600160a01b031681526020018281526020019350505050600060405180830381600087803b1580156131e257600080fd5b505af11580156131f6573d6000803e3d6000fd5b505050506116a3614659565b61320a614eac565b60006132146146c6565b6000858152602082815260408083208715158452825291829020825160a08101845281546001600160a01b038116825260ff600160a01b82048116151594830194909452600160b01b81048416600a0a9482019490945293945092916060830191600160a81b90910416600581111561328957fe5b81529154600160b81b900468ffffffffffffffffff16602090920191909152949350505050565b6000816132bf57506000610c1a565b600082136132cc57600080fd5b60006132d784613131565b905060006132e882600001516146d3565b9050600281056b033b2e3c9fd0803ce80000006001600160ff1b038290030585131561331357600080fd5b81816b033b2e3c9fd0803ce80000008702018161332c57fe5b059695505050505050565b60008061334261475e565b6001600160a01b03861660009081526020918252604080822061ffff8816835290925220805490915061338590600160501b90046001600160501b031684612121565b915060008312156133ba5780546001600160501b03168213156133ba5760405162461bcd60e51b815260040161031790615564565b6133c661117f83610f2c565b81546001600160501b0391909116600160501b02600160501b600160a01b031990911617815560405161ffff8516906001600160a01b038716907f20478ef460e49d010960d4f3fff35d8dae385443abfac09035d6a2ccbcd834c49061342d9086906153c1565b60405180910390a3509392505050565b600082820183811015610c1757600080fd5b600080613497886040518060a001604052808a6001600160a01b031681526020018a6001600160a01b0316815260200189815260200188815260200160008152508686612de7565b90999098509650505050505050565b600080610c1a60146130ac565b60008060008060006134c48661476b565b909250905060006001600160a01b0383166134e95750600090506402540be400613569565b826001600160a01b031663b2fffb046040518163ffffffff1660e01b815260040160206040518083038186803b15801561352257600080fd5b505afa158015613536573d6000803e3d6000fd5b505050506040513d601f19601f8201168201806040525081019061355a9190615234565b90506000811361356957600080fd5b969195509350915050565b6000806135848761ffff16613131565b90508060400151600014156135a3576135a08761ffff16611ae0565b90505b60405163e937711160e01b8152612567906001600160a01b0388169063e9377111906135d790899089908990600401615367565b60206040518083038186803b1580156135ef57600080fd5b505afa158015613603573d6000803e3d6000fd5b505050506040513d601f19601f820116820180604052508101906136279190615234565b8290612572565b613636614efd565b60006136406147a2565b600084815260208290526040812091925080600186141561366d5750670de0b6b3a7640000905080613743565b825460408051633fabe5a360e21b815290516001600160a01b039092169163feaf968c9160048082019260a092909190829003018186803b1580156136b157600080fd5b505afa1580156136c5573d6000803e3d6000fd5b505050506040513d601f19601f820116820180604052508101906136e9919061524c565b509193505060008313915061371290505760405162461bcd60e51b815260040161031790615676565b825460ff600160a01b82048116600a0a9350600160a81b90910416156137435761374081610ef98480612169565b90505b6040805160a0810182529283526020830191909152915460ff600160b01b8204811693830193909352600160b81b810483166060830152600160c01b90049091166080820152915050919050565b60008061379c6147af565b6001600160a01b038616600090815260209182526040808220878352835280822061ffff8a16835290925290812080549092506001600160501b0380821692600160501b90920416906137f6612562836102db8987610f43565b905060006138078a61ffff1661362e565b905060006138158c836147bc565b905061383281610ef98e600001518661216990919063ffffffff16565b9c9b505050505050505050505050565b60008060008060006138538661476b565b909250905060006001600160a01b0383166138785750600090506402540be400613569565b826001600160a01b0316631ee108336040518163ffffffff1660e01b8152600401602060405180830381600087803b1580156138b357600080fd5b505af1158015613536573d6000803e3d6000fd5b6000808212156138e1576138da8261108b565b9050610f3e565b5080610f3e565b6000816138f757506000610c1a565b6000613902846146d3565b9050600061390f846138c7565b9050816b019d971e4fe8401e74000001600160ff1b038161392c57fe5b0581131561393957600080fd5b6b033b2e3c9fd0803ce80000006b019d971e4fe8401e7400000083830201056000851361396e576139698161108b565b612ddd565b95945050505050565b600080808060058760600151600581111561398e57fe5b146139a0576370a0823160e01b6139a9565b630ed1279f60e11b5b90508660200151156139c55786516139c2903083613ad7565b92505b86516139d29087876147e1565b8660200151806139e6575060008760800151115b156139fb5786516139f8903083613ad7565b91505b608087015115613a36576000613a1988613a148561161b565b612572565b9050613a28886080015161161b565b811315613a3457600080fd5b505b866020015115613a5757613a4d6125628385613d49565b935050505061159d565b613a4d8561161b565b826001600160a01b031663a9059cbb83836040518363ffffffff1660e01b815260040180836001600160a01b0316815260200182815260200192505050600060405180830381600087803b158015613ab757600080fd5b505af1158015613acb573d6000803e3d6000fd5b50505050611012614659565b604080516001600160a01b0384811660248084019190915283518084039091018152604490920183526020820180516001600160e01b03166001600160e01b0319861617815292518251600094859485948a16939092909182918083835b60208310613b545780518252601f199092019160209182019101613b35565b6001836020036101000a038019825116818451168082178552505050505050905001915050600060405180830381855afa9150503d8060008114613bb4576040519150601f19603f3d011682016040523d82523d6000602084013e613bb9565b606091505b509150915081613bc857600080fd5b808060200190516020811015613bdd57600080fd5b50519695505050505050565b613bf1614839565b54825160405163e8eda9df60e01b81526001600160a01b039092169163e8eda9df91613c26918590309060009060040161533a565b600060405180830381600087803b158015613c4057600080fd5b505af1158015611c8a573d6000803e3d6000fd5b815160405163140e25ad60e31b81526000916001600160a01b03169063a0712d6890613c849085906004016153c1565b602060405180830381600087803b158015613c9e57600080fd5b505af1158015613cb2573d6000803e3d6000fd5b505050506040513d601f19601f82011682018060405250810190613cd69190615234565b905080156110125760405162461bcd60e51b815260040161031790615448565b81600001516001600160a01b0316631249c58b826040518263ffffffff1660e01b81526004016000604051808303818588803b158015613d3557600080fd5b505af115801561111e573d6000803e3d6000fd5b600082821115611beb576040805162461bcd60e51b815260206004820152601e60248201527f536166654d6174683a207375627472616374696f6e206f766572666c6f770000604482015290519081900360640190fd5b6000613dc56301da9c00610ef9613dba6125628787611bdc565b60808a015190612169565b90506000613dd38583612150565b90506000613df36064610ef98a60e001518561216990919063ffffffff16565b90506000613e018383612121565b9050613e15896040015161ffff1683614846565b613e27896040015161ffff16826148cd565b6080880151613e369084612121565b88608001818152505085896040015161ffff168a600001516001600160a01b03167f7456cb4b7c3068832fb334a03d3cd8e440286bad834cb9e332df05ae6792cfbb8585604051613e889291906153ca565b60405180910390a4505050505050505050565b600080613ea783614919565b60ff169392505050565b60008060008511613ed45760405162461bcd60e51b8152600401610317906154b6565b6007851115613ef55760405162461bcd60e51b8152600401610317906155af565b6000613f0084614936565b905060015b868111613f58576000613f21613f1a83614954565b84906149f8565b905086811415613f395750925060009150613f719050565b86811115613f4f5750925060019150613f719050565b50600101613f05565b5060405162461bcd60e51b81526004016103179061575e565b935093915050565b60008460a0015160001415613f8f575081613fb1565b613fae8560a001516102db876060015186610f4390919063ffffffff16565b90505b60a0850151613fc0908461343d565b60a08601526060850151613fd4908261343d565b60608601526040840151613fe8908261343d565b6040850152611c1c8583611127565b60008061400d89600001518a60400151896114fb565b89519091506001600160a01b031663dc6679c58961402b848961343d565b8988886040518663ffffffff1660e01b815260040161404e959493929190615388565b602060405180830381600087803b15801561406857600080fd5b505af115801561407c573d6000803e3d6000fd5b505050506040513d601f19601f820116820180604052508101906140a09190615234565b9998505050505050505050565b60008060006140ba6140f4565b600095865260209081526040808720958752949052505050902054600160281b81046001600160801b031691600160a81b90910460ff1690565b600080610c1a60086130ac565b60008061ffff84166141185750600090508061418c565b60006141226147af565b6001600160a01b038816600090815260209182526040808220898352835280822061ffff891683529092522080549091506001600160501b03600160a01b8204811691600160501b900416851561418757614184612562826102db8986610f43565b93505b509250505b94509492505050565b600080610c1a60196130ac565b60006141af856000614a52565b846001600160a01b03167f7c51c6aa77346c54cb051d9e792f9b7bde5c28a9b57e6fb2d2dd727b38438ca960006040516141e991906153b6565b60405180910390a2818461ffff16866001600160a01b03167f823b641d46550301006f807a26587634f15bd13749efdc8859734377d5304a3b8660405161423091906153c1565b60405180910390a4600061424960008661ffff16614ab2565b50505090508084136142695761426185858303614b5b565b8391506142c1565b614274856000614b5b565b828561ffff16876001600160a01b03167f3a717b6924e3ad05b8c7609a2401472af90869b52cc3c9ca69b50100b4be63168488036040516142b591906153c1565b60405180910390a48091505b50949350505050565b6000697fffffffffffffffffff1982128015906142f15750697fffffffffffffffffff8213155b610f3b57600080fd5b825160405163db006a7560e01b8152600091479183916001600160a01b03169063db006a759061432e9087906004016153c1565b602060405180830381600087803b15801561434857600080fd5b505af115801561435c573d6000803e3d6000fd5b505050506040513d601f19601f820116820180604052508101906143809190615234565b905080156143a05760405162461bcd60e51b815260040161031790615466565b476143ab8184613d49565b93506119eb8685613144565b60006143d261117a85600001516143cd8561161b565b6138e8565b90506143dc614839565b548451604051631a4ca37b60e21b81526001600160a01b03909216916369328dec9161440e9185908890600401615317565b602060405180830381600087803b15801561442857600080fd5b505af115801561443c573d6000803e3d6000fd5b505050506040513d601f19601f820116820180604052508101906144609190615234565b509392505050565b8251600090819061448190306370a0823160e01b613ad7565b9050600086600001516001600160a01b031663db006a75856040518263ffffffff1660e01b81526004016144b591906153c1565b602060405180830381600087803b1580156144cf57600080fd5b505af11580156144e3573d6000803e3d6000fd5b505050506040513d601f19601f820116820180604052508101906145079190615234565b905080156145275760405162461bcd60e51b815260040161031790615466565b855160009061453e90306370a0823160e01b613ad7565b905061454a8184613d49565b935061455b87600001518786613a60565b505050949350505050565b60006305f5e1008360400151121561458e576145876001610dcd8585612d0f565b9050610c1a565b610c178361459d8460016120e0565b612d0f565b60006003836060015160058111156145b657fe5b14156145cd57506001600160a01b03811631610c1a565b82516040516370a0823160e01b81526001600160a01b03909116906370a08231906145fc9085906004016152c5565b60206040518083038186803b15801561461457600080fd5b505afa158015614628573d6000803e3d6000fd5b505050506040513d601f19601f820116820180604052508101906145879190615234565b600080610c1a60026130ac565b6000614663614f2c565b3d8015614677576020811461468057600080fd5b6001925061468b565b60206000833e815192505b5081611918576040805162461bcd60e51b8152602060048201526005602482015264045524332360dc1b604482015290519081900360640190fd5b600080610c1a60076130ac565b6000610c1a6146e0614839565b5460405163d15e005360e01b81526001600160a01b039091169063d15e00539061470e9086906004016152c5565b60206040518083038186803b15801561472657600080fd5b505afa15801561473a573d6000803e3d6000fd5b505050506040513d601f19601f820116820180604052508101906125629190615234565b600080610c1a60176130ac565b6000806000614778614bbe565b600094855260205250506040909120546001600160a01b03811692600160a01b90910460ff169150565b600080610c1a60106130ac565b600080610c1a60186130ac565b6000610c178260200151610ef98460000151866020015161216990919063ffffffff16565b604080516323b872dd60e01b81526001600160a01b038481166004830152306024830152604482018490529151918516916323b872dd9160648082019260009290919082900301818387803b158015613ab757600080fd5b600080610c1a60136130ac565b600081121561485457600080fd5b6000614861600084614ab2565b505050905061487982826120e090919063ffffffff16565b905061488c600084836000806000614bcb565b8261ffff167f85170c297762884f47ec6098b74925c795e6d33686b11019b400e33a9b23b5e9836040516148c091906153c1565b60405180910390a2505050565b60008112156148db57600080fd5b60006148e683614d12565b905060006148f48285614ab2565b505050905061490c83826120e090919063ffffffff16565b90506116a3828583614d38565b600080614924614d56565b60009384526020525050604090205490565b60006276a70082101561494857600080fd5b506276a7008106900390565b6000816001141561496957506276a700610f3e565b816002141561497c575062ed4e00610f3e565b816003141561499057506301da9c00610f3e565b81600414156149a457506303b53800610f3e565b81600514156149b857506309450c00610f3e565b81600614156149cc575063128a1800610f3e565b81600714156149e057506325143000610f3e565b60405162461bcd60e51b8152600401610317906154e5565b600082820183811015610c17576040805162461bcd60e51b815260206004820152601b60248201527f536166654d6174683a206164646974696f6e206f766572666c6f770000000000604482015290519081900360640190fd5b6000614a5c6134a6565b6001600160a01b038416600090815260208290526040902080549192509061ffff168315614a9b57815461ffff19166001821761ffff16178255614aab565b815461ffff191661fffe82161782555b5050505050565b6000806000806000614ac2614d63565b6001600160a01b0388166000908152602082815260408083208a8452909152902080546001600160501b0381169650600160501b900463ffffffff1694509091508315614b2b578054614b2490600160701b900466ffffffffffffff16614d70565b9250614b40565b8054600160701b900466ffffffffffffff1692505b54600160a81b9004600a90810b900b97939650919450925050565b6000811215614b6957600080fd5b614b7e60008361ffff16836000806000614bcb565b8161ffff167fd3625f7b5926828151efe19f7ae655488287357d99ebe67e5fb20522ca739c0b82604051614bb291906153c1565b60405180910390a25050565b600080610c1a600f6130ac565b6000614bd5614d63565b6001600160a01b0388166000908152602082815260408083208a845290915290209091506a7fffffffffffffffffffff198612801590614c2057506a7fffffffffffffffffffff8613155b614c2957600080fd5b60008512158015614c4157506001600160501b038513155b614c4a57600080fd5b83614c8a5766ffffffffffffff831115614c6357600080fd5b805466ffffffffffffff60701b1916600160701b66ffffffffffffff851602178155614ca4565b8054600160501b900463ffffffff168414614ca457600080fd5b8054600a9690960b6affffffffffffffffffffff16600160a81b026001600160a81b036001600160501b039096166001600160501b031963ffffffff909616600160501b0263ffffffff60501b19909816979097179490941695909517939093169190911790925550505050565b600080614d1d614d7e565b6000938452602052505060409020546001600160a01b031690565b6000811215614d4657600080fd5b6110128383836000806000614bcb565b600080610c1a60096130ac565b600080610c1a60066130ac565b600881901c60ff9091161b90565b600080610c1a60036130ac565b60405180604001604052806002906020820280368337509192915050565b6040518060c0016040528060008152602001600081526020016000815260200160006001600160a01b0316815260200160008152602001600081525090565b604051806101a0016040528060006001600160a01b03168152602001600061ffff168152602001600061ffff16815260200160008152602001600081526020016000815260200160008152602001600081526020016000815260200160008152602001614e53614d8b565b8152602001614e60614ed3565b8152602001600081525090565b6040518060e001604052806000815260200160008152602001600015158152602001600081526020016000815260200160008152602001600081525090565b6040805160a081018252600080825260208201819052918101829052906060820190614e60565b604051806060016040528060006001600160a01b0316815260200160008152602001600081525090565b6040518060a0016040528060008152602001600081526020016000815260200160008152602001600081525090565b60405180602001604052806001906020820280368337509192915050565b80356001600160a01b0381168114610f3e57600080fd5b60008083601f840112614f72578182fd5b50813567ffffffffffffffff811115614f89578182fd5b6020830191508360208285010111156118c657600080fd5b803563ffffffff81168114610f3e57600080fd5b80516001600160501b0381168114610f3e57600080fd5b60008060408385031215614fde578182fd5b614fe783614f4a565b91506118c360208401614f4a565b600080600080600080600060c0888a03121561500f578283fd5b61501888614f4a565b965061502660208901614f4a565b955061503460408901614f4a565b9450606088013593506080880135801515811461504f578384fd5b925060a088013567ffffffffffffffff81111561506a578283fd5b6150768a828b01614f61565b989b979a50959850939692959293505050565b60008060008060008060008060e0898b0312156150a4578081fd5b6150ad89614f4a565b97506150bb60208a01614f4a565b96506150c960408a01614f4a565b955060608901359450608089013593506150e560a08a01614fa1565b925060c089013567ffffffffffffffff811115615100578182fd5b61510c8b828c01614f61565b999c989b5096995094979396929594505050565b60008060008060008060008060e0898b03121561513b578384fd5b61514489614f4a565b975061515260208a01614f4a565b965060408901359550606089013594506080890135935061517560a08a01614fa1565b925060c089013567ffffffffffffffff811115615100578283fd5b60008060008060008060008060006101008a8c0312156151ae578081fd5b6151b78a614f4a565b98506151c560208b01614f4a565b975060408a0135965060608a0135955060808a013594506151e860a08b01614fa1565b93506151f660c08b01614fa1565b925060e08a013567ffffffffffffffff811115615211578182fd5b61521d8c828d01614f61565b915080935050809150509295985092959850929598565b600060208284031215615245578081fd5b5051919050565b600080600080600060a08688031215615263578081fd5b61526c86614fb5565b945060208601519350604086015192506060860151915061528f60808701614fb5565b90509295509295909350565b60008284528282602086013780602084860101526020601f19601f85011685010190509392505050565b6001600160a01b0391909116815260200190565b600060018060a01b03808a16835280891660208401525086604083015285606083015284608083015260c060a08301526140a060c08301848661529b565b6001600160a01b0393841681526020810192909252909116604082015260600190565b6001600160a01b03948516815260208101939093529216604082015261ffff909116606082015260800190565b6001600160a01b039390931683526020830191909152604082015260600190565b600060018060a01b03871682528560208301528460408301526080606083015261256760808301848661529b565b901515815260200190565b90815260200190565b918252602082015260400190565b93845260208401929092526040830152606082015260800190565b6020808252600c908201526b155b985d5d1a1bdc9a5e995960a21b604082015260600190565b6020808252601590820152740acc2ead8e840a6d0c2e4cae6409ad2e6dac2e8c6d605b1b604082015260600190565b602080825260049082015263135a5b9d60e21b604082015260600190565b60208082526006908201526552656465656d60d01b604082015260600190565b602080825260169082015275125b9cdd59999a58da595b9d081c995c185e5b595b9d60521b604082015260600190565b60208082526015908201527410d1ce881b9bc81b585c9ad95d1cc81b1a5cdd1959605a1b604082015260600190565b6020808252600d908201526c092dcecc2d8d2c840d2dcc8caf609b1b604082015260600190565b60208082526010908201526f496e76616c6964204d6174757269747960801b604082015260600190565b60208082526014908201527310589bdd994813585e0810dbdb1b185d195c985b60621b604082015260600190565b6020808252600c908201526b4d617820436170616369747960a01b604082015260600190565b6020808252600b908201526a139bdd0814d95d1d1b195960aa1b604082015260600190565b60208082526016908201527510d1ce881b585c9ad95d081a5b99195e08189bdd5b9960521b604082015260600190565b6020808252600f908201526e139bc8149bdb1b08105b1b1bddd959608a1b604082015260600190565b60208082526017908201527f496e73756666696369656e7420436f6c6c61746572616c000000000000000000604082015260600190565b60208082526017908201527f4d757374204c697175696461746520416c6c2044656274000000000000000000604082015260600190565b6020808252600c908201526b496e76616c6964207261746560a01b604082015260600190565b6020808252600e908201526d1499595b9d1c985b9d0818d85b1b60921b604082015260600190565b6020808252600d908201526c109bdc9c9bddc819985a5b1959609a1b604082015260600190565b60208082526010908201526f4d696e20456e74727920426c6f636b7360801b604082015260600190565b6020808252600a90820152694d696e20426f72726f7760b01b604082015260600190565b6020808252600b908201526a092dcecc2d8d2c8408aa8960ab1b604082015260600190565b60208082526013908201527210d1ce881b9bc81b585c9ad95d08199bdd5b99606a1b604082015260600190565b6020808252600c908201526b21b0b73737ba1022b73a32b960a11b604082015260600190565b6020808252600b908201526a11985a5b19590813195b9960aa1b604082015260600190565b60208082526015908201527414dd59999a58da595b9d0810dbdb1b185d195c985b605a1b604082015260600190565b8151815260208083015190820152604080830151908201526060808301516001600160a01b0316908201526080808301519082015260a0918201519181019190915260c00190565b6001600160801b0391909116815260200190565b61ffff929092168252602082015260400190565b8381526080810160208083018560005b60028110156158a257815183529183019190830190600101615885565b50505050826060830152949350505050565b9182521515602082015260400190565b928352602083019190915260408201526060019056fea2646970667358221220c258a86af76b9d778a736e494b1d278fb25106ca111c09077bbbfec085d478e364736f6c63430007060033",
  "language": "Solidity",
  "natspec": {
    "kind": "dev",
    "methods": {
      "deleverageAccount(address,address,address,uint256,bool,bytes)": {
        "notice": "If an account is below the minimum collateral ratio, this method wil deleverage (liquidate) that account. `depositAmountExternal` in the borrow currency will be transferred from the liquidator and used to offset the account's debt position. The liquidator will receive either vaultShares or cash depending.",
        "params": {
          "account": "the address that will exit the vault",
          "depositAmountExternal": "amount of asset cash to deposit",
          "liquidator": "the address that will receive profits from liquidation",
          "redeemData": "calldata sent to the vault when redeeming liquidator profits",
          "transferSharesToLiquidator": "transfers the shares to the liquidator instead of redeeming them",
          "vault": "the vault to enter"
        },
        "returns": {
          "profitFromLiquidation": "amount of vaultShares or cash received from liquidation"
        }
      },
      "enterVault(address,address,uint256,uint256,uint256,uint32,bytes)": {
        "notice": "Borrows a specified amount of fCash in the vault's borrow currency and deposits it all plus the depositAmountExternal into the vault to mint strategy tokens.",
        "params": {
          "account": "the address that will enter the vault",
          "depositAmountExternal": "some amount of additional collateral in the borrowed currency to be transferred to vault",
          "fCash": "amount to borrow",
          "maturity": "the maturity to borrow at",
          "maxBorrowRate": "maximum interest rate to borrow at",
          "vault": "the vault to enter",
          "vaultData": "additional data to pass to the vault contract"
        },
        "returns": {
          "strategyTokensAdded": "the total strategy tokens added to the maturity, including any tokens from settlement. Allows enterVault to be used by off-chain methods to get an accurate simulation of the strategy tokens minted."
        }
      },
      "exitVault(address,address,address,uint256,uint256,uint32,bytes)": {
        "notice": "Prior to maturity, allows an account to withdraw their position from the vault. Will redeem some number of vault shares to the borrow currency and close the borrow position by lending `fCashToLend`. Any shortfall in cash from lending will be transferred from the account, any excess profits will be transferred to the account. Post maturity, will net off the account's debt against vault cash balances and redeem all remaining strategy tokens back to the borrowed currency and transfer the profits to the account.",
        "params": {
          "account": "the address that will exit the vault",
          "exitVaultData": "passed to the vault during exit",
          "fCashToLend": "amount of fCash to lend",
          "minLendRate": "the minimum rate to lend at",
          "receiver": "the address that will receive profits",
          "vault": "the vault to enter",
          "vaultSharesToRedeem": "amount of vault tokens to exit, only relevant when exiting pre-maturity"
        },
        "returns": {
          "underlyingToReceiver": "amount of underlying tokens returned to the receiver on exit"
        }
      },
      "getVaultAccount(address,address)": {
        "notice": "View Methods *"
      },
      "rollVaultPosition(address,address,uint256,uint256,uint256,uint32,uint32,bytes)": {
        "notice": "Re-enters the vault at a longer dated maturity. The account's existing borrow position will be closed and a new borrow position at the specified maturity will be opened. Strategy token holdings will transfer to the longer dated maturity.",
        "params": {
          "account": "the address that will reenter the vault",
          "depositAmountExternal": "amount to deposit into the new maturity",
          "fCashToBorrow": "amount of fCash to borrow in the next maturity",
          "maturity": "new maturity to borrow at",
          "maxBorrowRate": "slippage protection for new borrow position",
          "minLendRate": "slippage protection for repaying debts",
          "vault": "the vault to reenter"
        },
        "returns": {
          "strategyTokensAdded": "the total strategy tokens added to the maturity, including any tokens rolled from the previous maturity.. Allows rollVaultPosition to be used by off-chain methods to get an accurate simulation of the strategy tokens minted."
        }
      }
    },
    "version": 1
  },
  "opcodes": "PUSH1 0x80 PUSH1 0x40 MSTORE PUSH1 0x4 CALLDATASIZE LT PUSH2 0x9C JUMPI PUSH1 0x0 CALLDATALOAD PUSH1 0xE0 SHR DUP1 PUSH4 0x82463367 GT PUSH2 0x64 JUMPI DUP1 PUSH4 0x82463367 EQ PUSH2 0x15E JUMPI DUP1 PUSH4 0x8DA5CB5B EQ PUSH2 0x173 JUMPI DUP1 PUSH4 0x95C1A202 EQ PUSH2 0x188 JUMPI DUP1 PUSH4 0x9948315E EQ PUSH2 0x19B JUMPI DUP1 PUSH4 0xC025D1A5 EQ PUSH2 0x1BB JUMPI DUP1 PUSH4 0xC4C96DAE EQ PUSH2 0x1E8 JUMPI PUSH2 0x9C JUMP JUMPDEST DUP1 PUSH4 0x24A3D622 EQ PUSH2 0xA1 JUMPI DUP1 PUSH4 0x647CC196 EQ PUSH2 0xCC JUMPI DUP1 PUSH4 0x653B6104 EQ PUSH2 0xFC JUMPI DUP1 PUSH4 0x6CE48F01 EQ PUSH2 0x11C JUMPI DUP1 PUSH4 0x803C25FB EQ PUSH2 0x12F JUMPI JUMPDEST PUSH1 0x0 DUP1 REVERT JUMPDEST CALLVALUE DUP1 ISZERO PUSH2 0xAD JUMPI PUSH1 0x0 DUP1 REVERT JUMPDEST POP PUSH2 0xB6 PUSH2 0x1FD JUMP JUMPDEST PUSH1 0x40 MLOAD PUSH2 0xC3 SWAP2 SWAP1 PUSH2 0x52C5 JUMP JUMPDEST PUSH1 0x40 MLOAD DUP1 SWAP2 SUB SWAP1 RETURN JUMPDEST CALLVALUE DUP1 ISZERO PUSH2 0xD8 JUMPI PUSH1 0x0 DUP1 REVERT JUMPDEST POP PUSH2 0xEC PUSH2 0xE7 CALLDATASIZE PUSH1 0x4 PUSH2 0x4FCC JUMP JUMPDEST PUSH2 0x20C JUMP JUMPDEST PUSH1 0x40 MLOAD PUSH2 0xC3 SWAP5 SWAP4 SWAP3 SWAP2 SWAP1 PUSH2 0x53D8 JUMP JUMPDEST PUSH2 0x10F PUSH2 0x10A CALLDATASIZE PUSH1 0x4 PUSH2 0x5190 JUMP JUMPDEST PUSH2 0x2F2 JUMP JUMPDEST PUSH1 0x40 MLOAD PUSH2 0xC3 SWAP2 SWAP1 PUSH2 0x53C1 JUMP JUMPDEST PUSH2 0x10F PUSH2 0x12A CALLDATASIZE PUSH1 0x4 PUSH2 0x5089 JUMP JUMPDEST PUSH2 0x4C9 JUMP JUMPDEST CALLVALUE DUP1 ISZERO PUSH2 0x13B JUMPI PUSH1 0x0 DUP1 REVERT JUMPDEST POP PUSH2 0x14F PUSH2 0x14A CALLDATASIZE PUSH1 0x4 PUSH2 0x4FCC JUMP JUMPDEST PUSH2 0x72B JUMP JUMPDEST PUSH1 0x40 MLOAD PUSH2 0xC3 SWAP4 SWAP3 SWAP2 SWAP1 PUSH2 0x5875 JUMP JUMPDEST CALLVALUE DUP1 ISZERO PUSH2 0x16A JUMPI PUSH1 0x0 DUP1 REVERT JUMPDEST POP PUSH2 0xB6 PUSH2 0x7DC JUMP JUMPDEST CALLVALUE DUP1 ISZERO PUSH2 0x17F JUMPI PUSH1 0x0 DUP1 REVERT JUMPDEST POP PUSH2 0xB6 PUSH2 0x7EB JUMP JUMPDEST PUSH2 0x10F PUSH2 0x196 CALLDATASIZE PUSH1 0x4 PUSH2 0x5120 JUMP JUMPDEST PUSH2 0x802 JUMP JUMPDEST CALLVALUE DUP1 ISZERO PUSH2 0x1A7 JUMPI PUSH1 0x0 DUP1 REVERT JUMPDEST POP PUSH2 0x10F PUSH2 0x1B6 CALLDATASIZE PUSH1 0x4 PUSH2 0x4FF5 JUMP JUMPDEST PUSH2 0x989 JUMP JUMPDEST CALLVALUE DUP1 ISZERO PUSH2 0x1C7 JUMPI PUSH1 0x0 DUP1 REVERT JUMPDEST POP PUSH2 0x1DB PUSH2 0x1D6 CALLDATASIZE PUSH1 0x4 PUSH2 0x4FCC JUMP JUMPDEST PUSH2 0xC05 JUMP JUMPDEST PUSH1 0x40 MLOAD PUSH2 0xC3 SWAP2 SWAP1 PUSH2 0x5805 JUMP JUMPDEST CALLVALUE DUP1 ISZERO PUSH2 0x1F4 JUMPI PUSH1 0x0 DUP1 REVERT JUMPDEST POP PUSH2 0xB6 PUSH2 0xC20 JUMP JUMPDEST PUSH1 0x2 SLOAD PUSH1 0x1 PUSH1 0x1 PUSH1 0xA0 SHL SUB AND DUP2 JUMP JUMPDEST PUSH1 0x0 DUP1 PUSH1 0x0 DUP1 PUSH1 0x0 PUSH2 0x21D DUP7 PUSH2 0xC38 JUMP JUMPDEST SWAP1 POP PUSH1 0x0 PUSH2 0x22B DUP9 DUP9 PUSH2 0xC67 JUMP JUMPDEST SWAP1 POP PUSH1 0x0 PUSH2 0x23D DUP9 DUP4 PUSH1 0x20 ADD MLOAD PUSH2 0xCFC JUMP JUMPDEST SWAP1 POP DUP3 PUSH1 0xA0 ADD MLOAD SWAP6 POP DUP1 PUSH1 0x40 ADD MLOAD ISZERO PUSH2 0x25F JUMPI PUSH1 0x1 PUSH1 0x1 PUSH1 0xFF SHL SUB SWAP7 POP PUSH2 0x2E6 JUMP JUMPDEST PUSH1 0x40 DUP3 ADD MLOAD DUP3 MLOAD PUSH1 0x0 SWAP2 PUSH2 0x279 SWAP2 DUP7 SWAP2 DUP6 SWAP2 DUP15 SWAP2 SWAP1 PUSH2 0xD97 JUMP JUMPDEST SWAP1 SWAP9 POP SWAP1 POP DUP7 DUP9 SLT DUP1 ISZERO PUSH2 0x28D JUMPI POP PUSH1 0x0 DUP2 SGT JUMPDEST ISZERO PUSH2 0x2E4 JUMPI PUSH2 0x29D DUP4 DUP6 DUP4 PUSH2 0xE1D JUMP JUMPDEST POP SWAP6 POP PUSH2 0x2E1 PUSH4 0x3B9ACA00 PUSH2 0x2DB PUSH2 0x2B4 DUP5 PUSH2 0xF2C JUMP JUMPDEST PUSH2 0x2DB DUP8 PUSH1 0x40 ADD MLOAD PUSH2 0x2D5 PUSH2 0x2CC DUP12 PUSH1 0xC0 ADD MLOAD PUSH2 0xF2C JUMP JUMPDEST PUSH2 0x2D5 DUP15 PUSH2 0xF2C JUMP JUMPDEST SWAP1 PUSH2 0xF43 JUMP JUMPDEST SWAP1 PUSH2 0xF6A JUMP JUMPDEST SWAP5 POP JUMPDEST POP JUMPDEST POP POP POP SWAP3 SWAP6 SWAP2 SWAP5 POP SWAP3 POP JUMP JUMPDEST PUSH1 0x0 PUSH1 0x2 PUSH1 0xA SLOAD EQ ISZERO PUSH2 0x320 JUMPI PUSH1 0x40 MLOAD PUSH3 0x461BCD PUSH1 0xE5 SHL DUP2 MSTORE PUSH1 0x4 ADD PUSH2 0x317 SWAP1 PUSH2 0x569C JUMP JUMPDEST PUSH1 0x40 MLOAD DUP1 SWAP2 SUB SWAP1 REVERT JUMPDEST PUSH1 0x2 PUSH1 0xA SSTORE PUSH1 0x0 PUSH2 0x330 DUP11 PUSH2 0xF89 JUMP JUMPDEST SWAP1 POP PUSH2 0x33E DUP2 DUP13 PUSH1 0x10 PUSH2 0xFAD JUMP JUMPDEST PUSH2 0x349 DUP2 PUSH1 0x80 PUSH2 0x1017 JUMP JUMPDEST ISZERO PUSH2 0x354 JUMPI PUSH1 0x1 PUSH1 0xA SSTORE JUMPDEST PUSH1 0x0 PUSH2 0x360 DUP13 DUP13 PUSH2 0xC67 JUMP JUMPDEST SWAP1 POP PUSH2 0x36D DUP3 PUSH1 0x1 PUSH2 0x1017 JUMP JUMPDEST DUP1 ISZERO PUSH2 0x37F JUMPI POP PUSH2 0x37F DUP3 PUSH1 0x2 PUSH2 0x1017 JUMP JUMPDEST DUP1 ISZERO PUSH2 0x38E JUMPI POP DUP1 PUSH1 0x20 ADD MLOAD TIMESTAMP LT JUMPDEST DUP1 ISZERO PUSH2 0x39D JUMPI POP DUP9 DUP2 PUSH1 0x20 ADD MLOAD LT JUMPDEST DUP1 ISZERO PUSH2 0x3A9 JUMPI POP PUSH1 0x0 DUP11 GT JUMPDEST PUSH2 0x3C5 JUMPI PUSH1 0x40 MLOAD PUSH3 0x461BCD PUSH1 0xE5 SHL DUP2 MSTORE PUSH1 0x4 ADD PUSH2 0x317 SWAP1 PUSH2 0x55DF JUMP JUMPDEST PUSH1 0x0 PUSH2 0x3D9 DUP4 PUSH1 0x0 ADD MLOAD DUP4 PUSH1 0x20 ADD MLOAD PUSH2 0xCFC JUMP JUMPDEST SWAP1 POP PUSH1 0x0 PUSH2 0x3F6 DUP4 DUP5 PUSH1 0x40 ADD MLOAD DUP5 PUSH2 0x102C SWAP1 SWAP3 SWAP2 SWAP1 PUSH4 0xFFFFFFFF AND JUMP JUMPDEST SWAP1 POP PUSH2 0x415 DUP5 DUP4 PUSH2 0x40A DUP7 PUSH1 0x0 ADD MLOAD PUSH2 0x108B JUMP JUMPDEST DUP7 SWAP3 SWAP2 SWAP1 DUP14 TIMESTAMP PUSH2 0x1099 JUMP JUMPDEST DUP3 MLOAD ISZERO PUSH2 0x434 JUMPI PUSH1 0x40 MLOAD PUSH3 0x461BCD PUSH1 0xE5 SHL DUP2 MSTORE PUSH1 0x4 ADD PUSH2 0x317 SWAP1 PUSH2 0x57B1 JUMP JUMPDEST DUP4 MLOAD PUSH2 0x441 SWAP1 DUP4 SWAP1 PUSH2 0x1127 JUMP JUMPDEST DUP10 ISZERO PUSH2 0x452 JUMPI PUSH2 0x452 DUP4 DUP6 DUP13 PUSH2 0x129B JUMP JUMPDEST PUSH2 0x464 DUP4 DUP6 DUP14 DUP16 DUP13 DUP13 DUP13 DUP9 PUSH1 0x0 PUSH2 0x1382 JUMP JUMPDEST SWAP5 POP DUP11 DUP15 PUSH1 0x1 PUSH1 0x1 PUSH1 0xA0 SHL SUB AND DUP15 PUSH1 0x1 PUSH1 0x1 PUSH1 0xA0 SHL SUB AND PUSH32 0x67C1D09E65227D62B788F4C3E6ACE545AC922034D69BD4AA45C53DEC290275BE DUP16 PUSH1 0x40 MLOAD PUSH2 0x4AA SWAP2 SWAP1 PUSH2 0x53C1 JUMP JUMPDEST PUSH1 0x40 MLOAD DUP1 SWAP2 SUB SWAP1 LOG4 POP POP PUSH1 0x1 PUSH1 0xA SSTORE POP SWAP1 SWAP11 SWAP10 POP POP POP POP POP POP POP POP POP POP JUMP JUMPDEST PUSH1 0x0 PUSH1 0x2 PUSH1 0xA SLOAD EQ ISZERO PUSH2 0x4EE JUMPI PUSH1 0x40 MLOAD PUSH3 0x461BCD PUSH1 0xE5 SHL DUP2 MSTORE PUSH1 0x4 ADD PUSH2 0x317 SWAP1 PUSH2 0x569C JUMP JUMPDEST PUSH1 0x2 PUSH1 0xA SSTORE PUSH1 0x0 PUSH2 0x4FE DUP10 PUSH2 0xF89 JUMP JUMPDEST SWAP1 POP PUSH2 0x50C DUP2 DUP12 PUSH1 0x8 PUSH2 0xFAD JUMP JUMPDEST PUSH2 0x517 DUP2 PUSH1 0x80 PUSH2 0x1017 JUMP JUMPDEST ISZERO PUSH2 0x522 JUMPI PUSH1 0x1 PUSH1 0xA SSTORE JUMPDEST PUSH1 0x0 PUSH2 0x52E DUP12 DUP12 PUSH2 0xC67 JUMP JUMPDEST SWAP1 POP NUMBER PUSH1 0x5 DUP3 PUSH1 0xA0 ADD MLOAD ADD GT ISZERO PUSH2 0x557 JUMPI PUSH1 0x40 MLOAD PUSH3 0x461BCD PUSH1 0xE5 SHL DUP2 MSTORE PUSH1 0x4 ADD PUSH2 0x317 SWAP1 PUSH2 0x56EB JUMP JUMPDEST TIMESTAMP DUP2 PUSH1 0x20 ADD MLOAD GT PUSH2 0x603 JUMPI PUSH1 0x20 DUP2 ADD MLOAD PUSH1 0x0 PUSH2 0x574 DUP4 DUP6 TIMESTAMP PUSH2 0x1425 JUMP JUMPDEST SWAP1 POP PUSH1 0x0 DUP4 PUSH1 0x80 ADD MLOAD SGT ISZERO PUSH2 0x59F JUMPI PUSH2 0x596 DUP12 DUP6 PUSH1 0x40 ADD MLOAD DUP6 PUSH1 0x80 ADD MLOAD PUSH2 0x14FB JUMP JUMPDEST POP PUSH1 0x0 PUSH1 0x80 DUP5 ADD MSTORE JUMPDEST PUSH2 0x5AE DUP5 DUP5 DUP14 DUP5 DUP7 DUP13 DUP13 PUSH2 0x15A4 JUMP JUMPDEST SWAP5 POP DUP2 DUP14 PUSH1 0x1 PUSH1 0x1 PUSH1 0xA0 SHL SUB AND DUP14 PUSH1 0x1 PUSH1 0x1 PUSH1 0xA0 SHL SUB AND PUSH32 0xCCD6B9AEC297A77187BFAABFE7F98AC1DD313C796A73695DFF89DE0885DBB293 DUP9 PUSH1 0x40 MLOAD PUSH2 0x5F4 SWAP2 SWAP1 PUSH2 0x53C1 JUMP JUMPDEST PUSH1 0x40 MLOAD DUP1 SWAP2 SUB SWAP1 LOG4 POP POP PUSH2 0x6F0 JUMP JUMPDEST PUSH1 0x0 PUSH2 0x617 DUP4 PUSH1 0x0 ADD MLOAD DUP4 PUSH1 0x20 ADD MLOAD PUSH2 0xCFC JUMP JUMPDEST SWAP1 POP PUSH2 0x632 DUP4 DUP3 PUSH2 0x627 DUP12 PUSH2 0x161B JUMP JUMPDEST DUP6 SWAP3 SWAP2 SWAP1 DUP12 TIMESTAMP PUSH2 0x1099 JUMP JUMPDEST PUSH1 0x0 PUSH2 0x63F DUP3 DUP5 DUP13 PUSH2 0x102C JUMP JUMPDEST SWAP1 POP PUSH1 0x0 DUP4 PUSH1 0x80 ADD MLOAD SGT ISZERO PUSH2 0x66A JUMPI PUSH2 0x661 DUP12 DUP6 PUSH1 0x40 ADD MLOAD DUP6 PUSH1 0x80 ADD MLOAD PUSH2 0x14FB JUMP JUMPDEST POP PUSH1 0x0 PUSH1 0x80 DUP5 ADD MSTORE JUMPDEST DUP2 MLOAD PUSH2 0x67F SWAP1 DUP6 SWAP1 DUP6 SWAP1 DUP15 SWAP1 DUP6 SWAP1 DUP13 DUP13 PUSH2 0x15A4 JUMP JUMPDEST SWAP5 POP PUSH2 0x68C DUP5 DUP4 DUP6 PUSH2 0x1631 JUMP JUMPDEST DUP4 MLOAD PUSH2 0x699 SWAP1 DUP4 SWAP1 PUSH2 0x1127 JUMP JUMPDEST DUP2 PUSH1 0x0 ADD MLOAD DUP14 PUSH1 0x1 PUSH1 0x1 PUSH1 0xA0 SHL SUB AND DUP14 PUSH1 0x1 PUSH1 0x1 PUSH1 0xA0 SHL SUB AND PUSH32 0xEA195C44D2295A1DF0DEFE8210ABB22B4A911B4379B9E30E764548EBEE65C420 DUP13 DUP15 DUP11 PUSH1 0x40 MLOAD PUSH2 0x6E5 SWAP4 SWAP3 SWAP2 SWAP1 PUSH2 0x58C4 JUMP JUMPDEST PUSH1 0x40 MLOAD DUP1 SWAP2 SUB SWAP1 LOG4 POP POP JUMPDEST DUP1 MLOAD ISZERO DUP1 ISZERO PUSH2 0x701 JUMPI POP PUSH1 0x40 DUP2 ADD MLOAD ISZERO JUMPDEST ISZERO PUSH2 0x70E JUMPI PUSH1 0x0 PUSH1 0x20 DUP3 ADD MSTORE JUMPDEST PUSH2 0x718 DUP2 DUP4 PUSH2 0x16A9 JUMP JUMPDEST POP POP PUSH1 0x1 PUSH1 0xA SSTORE SWAP9 SWAP8 POP POP POP POP POP POP POP POP JUMP JUMPDEST PUSH1 0x0 PUSH2 0x735 PUSH2 0x4D8B JUMP JUMPDEST PUSH1 0x0 DUP1 PUSH2 0x740 PUSH2 0x1866 JUMP JUMPDEST PUSH1 0x1 PUSH1 0x1 PUSH1 0xA0 SHL SUB DUP8 DUP2 AND PUSH1 0x0 SWAP1 DUP2 MSTORE PUSH1 0x20 SWAP3 DUP4 MSTORE PUSH1 0x40 DUP1 DUP3 KECCAK256 SWAP3 DUP10 AND DUP3 MSTORE SWAP2 DUP4 MSTORE SWAP1 DUP2 KECCAK256 DUP1 SLOAD PUSH1 0x1 PUSH1 0x1 PUSH1 0x50 SHL SUB PUSH1 0x1 PUSH1 0x28 SHL DUP3 DIV DUP2 AND DUP9 MSTORE PUSH1 0x1 PUSH1 0x78 SHL DUP3 DIV AND SWAP4 DUP8 ADD SWAP4 SWAP1 SWAP4 MSTORE PUSH5 0xFFFFFFFFFF SWAP1 SWAP3 AND SWAP6 POP SWAP1 SWAP2 POP PUSH2 0x7A1 DUP8 DUP8 PUSH2 0xC67 JUMP JUMPDEST SWAP1 POP PUSH1 0x0 PUSH2 0x7B3 DUP8 DUP4 PUSH1 0x20 ADD MLOAD PUSH2 0xCFC JUMP JUMPDEST SWAP1 POP PUSH2 0x7CC DUP3 PUSH1 0x40 ADD MLOAD DUP3 PUSH2 0x1873 SWAP1 SWAP2 SWAP1 PUSH4 0xFFFFFFFF AND JUMP JUMPDEST SWAP1 POP DUP1 SWAP5 POP POP POP POP POP SWAP3 POP SWAP3 POP SWAP3 JUMP JUMPDEST PUSH1 0x1 SLOAD PUSH1 0x1 PUSH1 0x1 PUSH1 0xA0 SHL SUB AND DUP2 JUMP JUMPDEST PUSH1 0x0 SLOAD PUSH5 0x100000000 SWAP1 DIV PUSH1 0x1 PUSH1 0x1 PUSH1 0xA0 SHL SUB AND DUP2 JUMP JUMPDEST PUSH1 0x0 PUSH1 0x2 PUSH1 0xA SLOAD EQ ISZERO PUSH2 0x827 JUMPI PUSH1 0x40 MLOAD PUSH3 0x461BCD PUSH1 0xE5 SHL DUP2 MSTORE PUSH1 0x4 ADD PUSH2 0x317 SWAP1 PUSH2 0x569C JUMP JUMPDEST PUSH1 0x2 PUSH1 0xA SSTORE PUSH2 0x835 DUP10 PUSH2 0x18CD JUMP JUMPDEST DUP8 PUSH1 0x1 PUSH1 0x1 PUSH1 0xA0 SHL SUB AND DUP10 PUSH1 0x1 PUSH1 0x1 PUSH1 0xA0 SHL SUB AND EQ ISZERO PUSH2 0x854 JUMPI PUSH1 0x0 DUP1 REVERT JUMPDEST PUSH1 0x0 PUSH2 0x85F DUP10 PUSH2 0xF89 JUMP JUMPDEST SWAP1 POP PUSH2 0x86D DUP2 DUP12 PUSH1 0x4 PUSH2 0xFAD JUMP JUMPDEST PUSH2 0x878 DUP2 PUSH1 0x80 PUSH2 0x1017 JUMP JUMPDEST ISZERO PUSH2 0x883 JUMPI PUSH1 0x1 PUSH1 0xA SSTORE JUMPDEST PUSH2 0x88E DUP2 PUSH1 0x1 PUSH2 0x1017 JUMP JUMPDEST PUSH2 0x8AA JUMPI PUSH1 0x40 MLOAD PUSH3 0x461BCD PUSH1 0xE5 SHL DUP2 MSTORE PUSH1 0x4 ADD PUSH2 0x317 SWAP1 PUSH2 0x578B JUMP JUMPDEST DUP7 TIMESTAMP LT PUSH2 0x8C9 JUMPI PUSH1 0x40 MLOAD PUSH3 0x461BCD PUSH1 0xE5 SHL DUP2 MSTORE PUSH1 0x4 ADD PUSH2 0x317 SWAP1 PUSH2 0x578B JUMP JUMPDEST PUSH1 0x0 PUSH2 0x8D5 DUP12 DUP12 PUSH2 0xC67 JUMP JUMPDEST SWAP1 POP PUSH1 0x0 DUP2 PUSH1 0x20 ADD MLOAD PUSH1 0x0 EQ ISZERO DUP1 ISZERO PUSH2 0x8F2 JUMPI POP TIMESTAMP DUP3 PUSH1 0x20 ADD MLOAD GT ISZERO JUMPDEST ISZERO PUSH2 0x905 JUMPI PUSH2 0x902 DUP3 DUP5 TIMESTAMP PUSH2 0x1425 JUMP JUMPDEST SWAP1 POP JUMPDEST PUSH1 0x0 PUSH2 0x912 DUP5 DUP15 DUP14 PUSH2 0x191C JUMP JUMPDEST SWAP1 POP PUSH2 0x925 DUP4 DUP6 DUP13 DUP13 DUP13 DUP13 DUP13 DUP10 DUP10 PUSH2 0x1382 JUMP JUMPDEST SWAP5 POP DUP10 DUP14 PUSH1 0x1 PUSH1 0x1 PUSH1 0xA0 SHL SUB AND DUP14 PUSH1 0x1 PUSH1 0x1 PUSH1 0xA0 SHL SUB AND PUSH32 0x7E1A5E400898C4BB3CFC62F61A71F4369EC78F0E778A31286892B7D2C0D044F2 DUP13 PUSH1 0x40 MLOAD PUSH2 0x96B SWAP2 SWAP1 PUSH2 0x53C1 JUMP JUMPDEST PUSH1 0x40 MLOAD DUP1 SWAP2 SUB SWAP1 LOG4 POP POP PUSH1 0x1 PUSH1 0xA SSTORE POP SWAP1 SWAP10 SWAP9 POP POP POP POP POP POP POP POP POP JUMP JUMPDEST PUSH1 0x0 PUSH1 0x2 PUSH1 0xA SLOAD EQ ISZERO PUSH2 0x9AE JUMPI PUSH1 0x40 MLOAD PUSH3 0x461BCD PUSH1 0xE5 SHL DUP2 MSTORE PUSH1 0x4 ADD PUSH2 0x317 SWAP1 PUSH2 0x569C JUMP JUMPDEST PUSH1 0x2 PUSH1 0xA SSTORE PUSH2 0x9BC DUP7 PUSH2 0x18CD JUMP JUMPDEST PUSH1 0x0 PUSH2 0x9C9 DUP10 DUP10 DUP10 PUSH2 0x19F5 JUMP JUMPDEST SWAP1 POP PUSH1 0x0 PUSH2 0x9D7 DUP11 DUP11 PUSH2 0xC67 JUMP JUMPDEST SWAP1 POP PUSH1 0x0 PUSH2 0x9E9 DUP11 DUP4 PUSH1 0x20 ADD MLOAD PUSH2 0xCFC JUMP JUMPDEST SWAP1 POP DUP2 PUSH1 0x20 ADD MLOAD TIMESTAMP LT PUSH2 0x9FB JUMPI PUSH1 0x0 DUP1 REVERT JUMPDEST PUSH1 0x0 DUP1 PUSH2 0xA1F DUP4 DUP15 DUP7 PUSH1 0x40 ADD MLOAD DUP8 PUSH1 0x0 ADD MLOAD DUP10 PUSH2 0xD97 SWAP1 SWAP5 SWAP4 SWAP3 SWAP2 SWAP1 PUSH4 0xFFFFFFFF AND JUMP JUMPDEST SWAP2 POP SWAP2 POP DUP5 PUSH1 0xA0 ADD MLOAD DUP3 SLT PUSH2 0xA46 JUMPI PUSH1 0x40 MLOAD PUSH3 0x461BCD PUSH1 0xE5 SHL DUP2 MSTORE PUSH1 0x4 ADD PUSH2 0x317 SWAP1 PUSH2 0x57D6 JUMP JUMPDEST PUSH1 0x0 PUSH2 0xA59 DUP7 PUSH1 0x40 ADD MLOAD PUSH2 0xFFFF AND PUSH2 0x1AE0 JUMP JUMPDEST SWAP1 POP PUSH2 0xA69 DUP13 DUP3 DUP8 DUP10 DUP16 DUP8 PUSH2 0x1AF3 JUMP JUMPDEST PUSH1 0x0 PUSH2 0xAA4 PUSH4 0x3B9ACA00 PUSH2 0x2DB PUSH2 0xA7F DUP7 PUSH2 0xF2C JUMP JUMPDEST PUSH2 0x2DB DUP11 PUSH1 0x40 ADD MLOAD PUSH2 0x2D5 PUSH2 0xA97 DUP15 PUSH1 0xC0 ADD MLOAD PUSH2 0xF2C JUMP JUMPDEST PUSH2 0x2D5 DUP15 PUSH1 0x80 ADD MLOAD PUSH2 0xF2C JUMP JUMPDEST PUSH1 0x40 DUP8 ADD MLOAD SWAP1 SWAP2 POP PUSH2 0xAB6 SWAP1 DUP3 PUSH2 0x1BDC JUMP JUMPDEST PUSH1 0x40 DUP8 ADD MSTORE PUSH1 0x80 DUP7 ADD MLOAD PUSH2 0x160 DUP9 ADD MLOAD PUSH1 0x0 SWAP2 PUSH2 0xAD3 SWAP2 SWAP1 PUSH2 0x1BF1 JUMP JUMPDEST SWAP1 POP PUSH2 0xAF2 DUP9 DUP8 DUP4 PUSH2 0xAE8 DUP12 PUSH1 0x80 ADD MLOAD PUSH2 0x108B JUMP JUMPDEST DUP12 SWAP4 SWAP3 SWAP2 SWAP1 PUSH2 0x1C24 JUMP JUMPDEST DUP7 MLOAD PUSH1 0x9 NOT SLT ISZERO PUSH2 0xB02 JUMPI PUSH1 0x0 DUP8 MSTORE JUMPDEST DUP16 PUSH1 0x1 PUSH1 0x1 PUSH1 0xA0 SHL SUB AND DUP16 PUSH1 0x1 PUSH1 0x1 PUSH1 0xA0 SHL SUB AND PUSH32 0x5B4676A4ED91C52FD6C4A759AEC8A3561B67499C52870FC58000A8EB54FEC301 DUP5 DUP5 PUSH1 0x40 MLOAD PUSH2 0xB47 SWAP3 SWAP2 SWAP1 PUSH2 0x53CA JUMP JUMPDEST PUSH1 0x40 MLOAD DUP1 SWAP2 SUB SWAP1 LOG3 POP PUSH2 0xB5A DUP7 DUP9 PUSH2 0x16A9 JUMP JUMPDEST DUP13 PUSH1 0x1 PUSH1 0x1 PUSH1 0xA0 SHL SUB AND DUP16 PUSH1 0x1 PUSH1 0x1 PUSH1 0xA0 SHL SUB AND DUP16 PUSH1 0x1 PUSH1 0x1 PUSH1 0xA0 SHL SUB AND PUSH32 0x1745A2FE0D7C484EA79432A82F950EAC6916ADC499A0223D2EBDADCDB210F2A DUP5 DUP16 PUSH1 0x40 MLOAD PUSH2 0xBA9 SWAP3 SWAP2 SWAP1 PUSH2 0x58B4 JUMP JUMPDEST PUSH1 0x40 MLOAD DUP1 SWAP2 SUB SWAP1 LOG4 DUP11 ISZERO PUSH2 0xBDB JUMPI DUP7 MLOAD PUSH2 0xBC4 SWAP1 DUP7 SWAP1 PUSH2 0x1127 JUMP JUMPDEST PUSH2 0xBD4 DUP14 DUP9 DUP4 DUP10 PUSH1 0x20 ADD MLOAD PUSH2 0x1C92 JUMP JUMPDEST SWAP8 POP PUSH2 0xBED JUMP JUMPDEST PUSH2 0xBEA DUP14 DUP9 DUP8 DUP5 DUP15 DUP15 DUP9 PUSH2 0x1D06 JUMP JUMPDEST SWAP8 POP JUMPDEST POP POP PUSH1 0x1 PUSH1 0xA SSTORE POP SWAP4 SWAP12 SWAP11 POP POP POP POP POP POP POP POP POP POP POP JUMP JUMPDEST PUSH2 0xC0D PUSH2 0x4DA9 JUMP JUMPDEST PUSH2 0xC17 DUP4 DUP4 PUSH2 0xC67 JUMP JUMPDEST SWAP1 POP JUMPDEST SWAP3 SWAP2 POP POP JUMP JUMPDEST PUSH20 0x0 SWAP1 JUMP JUMPDEST PUSH2 0xC40 PUSH2 0x4DE8 JUMP JUMPDEST PUSH2 0xC49 DUP3 PUSH2 0x1D94 JUMP JUMPDEST SWAP1 POP PUSH2 0xC5C DUP2 PUSH1 0x40 ADD MLOAD PUSH2 0xFFFF AND PUSH2 0x1F2E JUMP JUMPDEST PUSH2 0x160 DUP3 ADD MSTORE SWAP2 SWAP1 POP JUMP JUMPDEST PUSH2 0xC6F PUSH2 0x4DA9 JUMP JUMPDEST PUSH1 0x0 PUSH2 0xC79 PUSH2 0x1F7A JUMP JUMPDEST PUSH1 0x1 PUSH1 0x1 PUSH1 0xA0 SHL SUB SWAP5 DUP6 AND PUSH1 0x0 DUP2 DUP2 MSTORE PUSH1 0x20 SWAP3 DUP4 MSTORE PUSH1 0x40 DUP1 DUP3 KECCAK256 SWAP7 SWAP1 SWAP8 AND DUP2 MSTORE SWAP5 DUP3 MSTORE DUP6 DUP6 KECCAK256 SLOAD PUSH1 0x1 PUSH1 0x1 PUSH1 0x50 SHL SUB DUP1 DUP3 AND DUP8 SUB DUP7 MSTORE PUSH1 0x1 PUSH1 0xA0 SHL DUP3 DIV PUSH5 0xFFFFFFFFFF AND SWAP4 DUP7 ADD SWAP4 SWAP1 SWAP4 MSTORE PUSH1 0x1 PUSH1 0x50 SHL DUP2 DIV SWAP1 SWAP3 AND SWAP6 DUP5 ADD SWAP6 SWAP1 SWAP6 MSTORE PUSH1 0x60 DUP4 ADD SWAP5 SWAP1 SWAP5 MSTORE POP PUSH1 0x80 DUP2 ADD SWAP2 SWAP1 SWAP2 MSTORE PUSH1 0x1 PUSH1 0xC8 SHL SWAP1 SWAP2 DIV PUSH4 0xFFFFFFFF AND PUSH1 0xA0 DUP3 ADD MSTORE SWAP1 JUMP JUMPDEST PUSH2 0xD04 PUSH2 0x4E6D JUMP JUMPDEST PUSH1 0x0 PUSH2 0xD0E PUSH2 0x1F87 JUMP JUMPDEST PUSH1 0x1 PUSH1 0x1 PUSH1 0xA0 SHL SUB SWAP1 SWAP5 AND PUSH1 0x0 SWAP1 DUP2 MSTORE PUSH1 0x20 SWAP5 DUP6 MSTORE PUSH1 0x40 DUP1 DUP3 KECCAK256 DUP6 DUP4 MSTORE DUP7 MSTORE DUP1 DUP3 KECCAK256 SWAP5 DUP5 MSTORE DUP5 SLOAD PUSH1 0x1 PUSH1 0x1 PUSH1 0x50 SHL SUB DUP1 DUP3 AND SWAP1 SWAP4 SUB SWAP7 DUP6 ADD SWAP7 SWAP1 SWAP7 MSTORE PUSH1 0xFF PUSH1 0x1 PUSH1 0xF0 SHL DUP8 DIV AND ISZERO ISZERO SWAP1 DUP5 ADD MSTORE PUSH1 0x1 PUSH1 0x50 SHL DUP1 DUP7 DIV DUP3 AND PUSH1 0x80 DUP6 ADD MSTORE PUSH1 0x1 SWAP1 SWAP5 ADD SLOAD DUP1 DUP3 AND PUSH1 0xA0 DUP6 ADD MSTORE PUSH1 0x1 PUSH1 0xA0 SHL SWAP1 SWAP6 DIV AND PUSH1 0x60 DUP4 ADD MSTORE POP SWAP2 DIV PUSH1 0x9 SWAP1 DUP2 SIGNEXTEND SWAP1 SIGNEXTEND PUSH1 0xC0 DUP3 ADD MSTORE SWAP1 JUMP JUMPDEST PUSH1 0x0 DUP1 PUSH2 0xDA6 DUP7 DUP9 DUP8 DUP8 PUSH2 0x1F94 JUMP JUMPDEST SWAP1 POP PUSH1 0x0 PUSH2 0xDB9 DUP9 DUP8 DUP10 PUSH1 0x0 ADD MLOAD PUSH2 0x1FF9 JUMP JUMPDEST SWAP1 POP PUSH1 0x0 PUSH2 0xDDF PUSH2 0xDD3 DUP4 PUSH2 0xDCD DUP9 PUSH2 0x108B JUMP JUMPDEST SWAP1 PUSH2 0x20E0 JUMP JUMPDEST PUSH2 0x160 DUP12 ADD MLOAD SWAP1 PUSH2 0x20F6 JUMP JUMPDEST SWAP1 POP PUSH1 0x0 PUSH2 0xDED DUP5 DUP4 PUSH2 0x2121 JUMP JUMPDEST SWAP1 POP DUP2 PUSH2 0xE03 JUMPI PUSH1 0x1 PUSH1 0x1 PUSH1 0xFF SHL SUB SWAP5 POP PUSH2 0xE10 JUMP JUMPDEST PUSH2 0xE0D DUP2 DUP4 PUSH2 0x2137 JUMP JUMPDEST SWAP5 POP JUMPDEST POP POP POP SWAP6 POP SWAP6 SWAP4 POP POP POP POP JUMP JUMPDEST PUSH1 0x0 DUP1 PUSH1 0x0 PUSH2 0xE3E PUSH4 0x3B9ACA00 DUP7 PUSH2 0x120 ADD MLOAD PUSH2 0x20E0 SWAP1 SWAP2 SWAP1 PUSH4 0xFFFFFFFF AND JUMP JUMPDEST SWAP1 POP PUSH1 0x0 PUSH2 0xE5E PUSH2 0xE52 DUP9 PUSH1 0x0 ADD MLOAD PUSH2 0x108B JUMP JUMPDEST PUSH2 0x160 DUP9 ADD MLOAD SWAP1 PUSH2 0x20F6 JUMP JUMPDEST SWAP1 POP PUSH2 0xE94 PUSH2 0xE7A DUP8 PUSH1 0xC0 ADD MLOAD DUP5 PUSH2 0x2121 SWAP1 SWAP2 SWAP1 PUSH4 0xFFFFFFFF AND JUMP JUMPDEST PUSH2 0xE8E DUP8 PUSH2 0xE88 DUP6 DUP8 PUSH2 0x2150 JUMP JUMPDEST SWAP1 PUSH2 0x2121 JUMP JUMPDEST SWAP1 PUSH2 0x2137 JUMP JUMPDEST SWAP4 POP PUSH1 0x0 PUSH2 0xEA2 DUP3 DUP7 PUSH2 0x2121 JUMP JUMPDEST SWAP1 POP PUSH1 0x0 PUSH2 0xEC2 DUP9 PUSH1 0x60 ADD MLOAD DUP10 PUSH2 0x160 ADD MLOAD PUSH2 0x20F6 SWAP1 SWAP2 SWAP1 PUSH4 0xFFFFFFFF AND JUMP JUMPDEST SWAP1 POP PUSH2 0xECE DUP4 DUP3 PUSH2 0x2121 JUMP JUMPDEST SWAP5 POP DUP1 DUP3 SLT ISZERO PUSH2 0xEDC JUMPI DUP3 SWAP6 POP JUMPDEST PUSH1 0x0 PUSH2 0xEFF DUP9 PUSH2 0xEF9 DUP12 PUSH1 0xC0 ADD MLOAD DUP11 PUSH2 0x2169 SWAP1 SWAP2 SWAP1 PUSH4 0xFFFFFFFF AND JUMP JUMPDEST SWAP1 PUSH2 0x21B7 JUMP JUMPDEST SWAP1 POP PUSH4 0x3B9ACA00 DUP2 SLT PUSH2 0xF1F JUMPI PUSH1 0xC0 DUP10 ADD MLOAD PUSH2 0xF1C SWAP1 DUP10 SWAP1 PUSH2 0x2137 JUMP JUMPDEST SWAP7 POP JUMPDEST POP POP POP POP POP SWAP4 POP SWAP4 SWAP2 POP POP JUMP JUMPDEST PUSH1 0x0 DUP1 DUP3 SLT ISZERO PUSH2 0xF3B JUMPI PUSH1 0x0 DUP1 REVERT JUMPDEST POP DUP1 JUMPDEST SWAP2 SWAP1 POP JUMP JUMPDEST PUSH1 0x0 DUP3 PUSH2 0xF52 JUMPI POP PUSH1 0x0 PUSH2 0xC1A JUMP JUMPDEST DUP3 DUP3 MUL DUP3 DUP5 DUP3 DUP2 PUSH2 0xF5F JUMPI INVALID JUMPDEST DIV EQ PUSH2 0xC17 JUMPI PUSH1 0x0 DUP1 REVERT JUMPDEST PUSH1 0x0 DUP1 DUP3 GT PUSH2 0xF78 JUMPI PUSH1 0x0 DUP1 REVERT JUMPDEST DUP2 DUP4 DUP2 PUSH2 0xF81 JUMPI INVALID JUMPDEST DIV SWAP4 SWAP3 POP POP POP JUMP JUMPDEST PUSH2 0xF91 PUSH2 0x4DE8 JUMP JUMPDEST PUSH2 0xF9A DUP3 PUSH2 0x1D94 JUMP JUMPDEST SWAP1 POP PUSH2 0xC5C DUP2 PUSH1 0x40 ADD MLOAD PUSH2 0xFFFF AND PUSH2 0x21E8 JUMP JUMPDEST PUSH2 0xFB7 DUP4 DUP3 PUSH2 0x1017 JUMP JUMPDEST ISZERO PUSH2 0xFEA JUMPI DUP3 MLOAD PUSH1 0x1 PUSH1 0x1 PUSH1 0xA0 SHL SUB AND CALLER EQ PUSH2 0xFE5 JUMPI PUSH1 0x40 MLOAD PUSH3 0x461BCD PUSH1 0xE5 SHL DUP2 MSTORE PUSH1 0x4 ADD PUSH2 0x317 SWAP1 PUSH2 0x53F3 JUMP JUMPDEST PUSH2 0x1012 JUMP JUMPDEST PUSH1 0x1 PUSH1 0x1 PUSH1 0xA0 SHL SUB DUP3 AND CALLER EQ PUSH2 0x1012 JUMPI PUSH1 0x40 MLOAD PUSH3 0x461BCD PUSH1 0xE5 SHL DUP2 MSTORE PUSH1 0x4 ADD PUSH2 0x317 SWAP1 PUSH2 0x53F3 JUMP JUMPDEST POP POP POP JUMP JUMPDEST PUSH1 0x20 SWAP2 SWAP1 SWAP2 ADD MLOAD DUP2 AND PUSH2 0xFFFF SWAP1 DUP2 AND SWAP2 AND EQ SWAP1 JUMP JUMPDEST DUP3 MLOAD PUSH1 0x20 DUP4 ADD MLOAD PUSH1 0x0 SWAP2 EQ PUSH2 0x1040 JUMPI PUSH1 0x0 DUP1 REVERT JUMPDEST PUSH1 0x40 DUP4 ADD MLOAD PUSH2 0x104F SWAP1 DUP4 PUSH2 0x1BDC JUMP JUMPDEST PUSH1 0x40 DUP5 ADD MSTORE PUSH1 0x0 PUSH2 0x1060 DUP6 DUP5 PUSH2 0x21FE JUMP JUMPDEST SWAP3 POP SWAP1 POP PUSH2 0x107B PUSH2 0x1070 DUP3 PUSH2 0x161B JUMP JUMPDEST PUSH1 0x80 DUP7 ADD MLOAD SWAP1 PUSH2 0x20E0 JUMP JUMPDEST PUSH1 0x80 SWAP1 SWAP5 ADD SWAP4 SWAP1 SWAP4 MSTORE SWAP4 SWAP3 POP POP POP JUMP JUMPDEST PUSH1 0x0 PUSH2 0xC1A PUSH1 0x0 NOT DUP4 PUSH2 0x2169 JUMP JUMPDEST DUP6 MLOAD PUSH1 0x0 SWAP1 PUSH2 0x10A8 SWAP1 DUP6 PUSH2 0x20E0 JUMP JUMPDEST SGT ISZERO PUSH2 0x10B3 JUMPI PUSH1 0x0 DUP1 REVERT JUMPDEST DUP6 PUSH1 0x20 ADD MLOAD DUP2 LT PUSH2 0x10C3 JUMPI PUSH1 0x0 DUP1 REVERT JUMPDEST PUSH1 0x0 PUSH2 0x10E0 DUP7 PUSH1 0x40 ADD MLOAD DUP9 PUSH1 0x20 ADD MLOAD DUP7 DUP7 DUP11 PUSH2 0x100 ADD MLOAD DUP8 PUSH2 0x2255 JUMP JUMPDEST SWAP1 POP DUP1 PUSH2 0x1103 JUMPI PUSH2 0x160 DUP7 ADD MLOAD PUSH2 0x1100 SWAP1 PUSH2 0x10FB SWAP1 DUP7 PUSH2 0x20F6 JUMP JUMPDEST PUSH2 0x108B JUMP JUMPDEST SWAP1 POP JUMPDEST PUSH1 0x0 DUP2 SGT ISZERO PUSH2 0x1111 JUMPI PUSH1 0x0 DUP1 REVERT JUMPDEST PUSH2 0x111E DUP8 DUP8 DUP8 DUP8 DUP6 PUSH2 0x1C24 JUMP JUMPDEST POP POP POP POP POP POP POP JUMP JUMPDEST PUSH1 0x0 PUSH2 0x1131 PUSH2 0x1F87 JUMP JUMPDEST PUSH1 0x1 PUSH1 0x1 PUSH1 0xA0 SHL SUB DUP4 AND PUSH1 0x0 SWAP1 DUP2 MSTORE PUSH1 0x20 DUP3 DUP2 MSTORE PUSH1 0x40 DUP1 DUP4 KECCAK256 DUP8 MLOAD DUP5 MSTORE SWAP1 SWAP2 MSTORE SWAP1 DUP2 SWAP1 KECCAK256 SWAP1 DUP6 ADD MLOAD SWAP2 SWAP3 POP SWAP1 ISZERO PUSH2 0x1167 JUMPI PUSH1 0x0 DUP1 REVERT JUMPDEST PUSH2 0x1184 PUSH2 0x117F PUSH2 0x117A DUP7 PUSH1 0x20 ADD MLOAD PUSH2 0x108B JUMP JUMPDEST PUSH2 0xF2C JUMP JUMPDEST PUSH2 0x2364 JUMP JUMPDEST DUP2 SLOAD PUSH1 0x1 PUSH1 0x1 PUSH1 0x50 SHL SUB NOT AND PUSH1 0x1 PUSH1 0x1 PUSH1 0x50 SHL SUB SWAP2 SWAP1 SWAP2 AND OR DUP2 SSTORE PUSH1 0x80 DUP5 ADD MLOAD PUSH2 0x11AD SWAP1 PUSH2 0x2364 JUMP JUMPDEST DUP2 SLOAD PUSH1 0x1 PUSH1 0x1 PUSH1 0x50 SHL SUB SWAP2 SWAP1 SWAP2 AND PUSH1 0x1 PUSH1 0x50 SHL MUL PUSH1 0x1 PUSH1 0x50 SHL PUSH1 0x1 PUSH1 0xA0 SHL SUB NOT SWAP1 SWAP2 AND OR DUP2 SSTORE PUSH1 0xA0 DUP5 ADD MLOAD PUSH2 0x11E1 SWAP1 PUSH2 0x2364 JUMP JUMPDEST PUSH1 0x1 DUP3 ADD DUP1 SLOAD PUSH1 0x1 PUSH1 0x1 PUSH1 0x50 SHL SUB NOT AND PUSH1 0x1 PUSH1 0x1 PUSH1 0x50 SHL SUB SWAP3 SWAP1 SWAP3 AND SWAP2 SWAP1 SWAP2 OR SWAP1 SSTORE PUSH1 0x60 DUP5 ADD MLOAD PUSH2 0x1211 SWAP1 PUSH2 0x2364 JUMP JUMPDEST DUP2 SLOAD PUSH1 0x1 PUSH1 0x1 PUSH1 0x50 SHL SUB SWAP2 SWAP1 SWAP2 AND PUSH1 0x1 PUSH1 0xA0 SHL MUL PUSH10 0xFFFFFFFFFFFFFFFFFFFF PUSH1 0xA0 SHL NOT SWAP1 SWAP2 AND OR DUP2 SSTORE DUP4 MLOAD PUSH1 0x20 DUP6 ADD MLOAD PUSH1 0x80 DUP7 ADD MLOAD PUSH1 0xA0 DUP8 ADD MLOAD PUSH1 0x60 DUP9 ADD MLOAD PUSH1 0x40 MLOAD PUSH1 0x1 PUSH1 0x1 PUSH1 0xA0 SHL SUB DUP10 AND SWAP5 PUSH32 0x3A0FDAECF7B5DA75A56077F5B1C8FBC88F9B08E9D0C4DB31EB34E25BC6700CDE SWAP5 PUSH2 0x128D SWAP5 SWAP2 SWAP4 SWAP1 SWAP3 PUSH2 0x53D8 JUMP JUMPDEST PUSH1 0x40 MLOAD DUP1 SWAP2 SUB SWAP1 LOG3 POP POP POP POP JUMP JUMPDEST PUSH1 0x0 DUP1 PUSH2 0x12A7 DUP5 PUSH2 0x237A JUMP JUMPDEST SWAP1 SWAP3 POP SWAP1 POP PUSH1 0x0 PUSH1 0x3 DUP3 PUSH1 0x60 ADD MLOAD PUSH1 0x5 DUP2 GT ISZERO PUSH2 0x12C0 JUMPI INVALID JUMPDEST EQ ISZERO PUSH2 0x12EC JUMPI CALLVALUE DUP5 EQ PUSH2 0x12E5 JUMPI PUSH1 0x40 MLOAD PUSH3 0x461BCD PUSH1 0xE5 SHL DUP2 MSTORE PUSH1 0x4 ADD PUSH2 0x317 SWAP1 PUSH2 0x5739 JUMP JUMPDEST POP CALLVALUE PUSH2 0x1315 JUMP JUMPDEST PUSH2 0x1312 PUSH2 0x117A DUP8 PUSH1 0x60 ADD MLOAD DUP8 PUSH1 0x40 ADD MLOAD PUSH2 0xFFFF AND PUSH2 0x1309 DUP9 PUSH2 0x161B JUMP JUMPDEST DUP7 SWAP3 SWAP2 SWAP1 PUSH2 0x23D3 JUMP JUMPDEST SWAP1 POP JUMPDEST PUSH1 0x0 PUSH1 0x4 DUP5 PUSH1 0x60 ADD MLOAD PUSH1 0x5 DUP2 GT ISZERO PUSH2 0x1329 JUMPI INVALID JUMPDEST EQ ISZERO PUSH2 0x133F JUMPI PUSH2 0x1338 DUP3 PUSH2 0x161B JUMP JUMPDEST SWAP1 POP PUSH2 0x1359 JUMP JUMPDEST DUP2 ISZERO PUSH2 0x1359 JUMPI PUSH1 0x40 DUP7 ADD MLOAD PUSH2 0x1356 SWAP1 DUP6 SWAP1 DUP5 PUSH2 0x247B JUMP JUMPDEST SWAP1 POP JUMPDEST PUSH2 0x1371 PUSH2 0x1366 DUP6 DUP4 PUSH2 0x2572 JUMP JUMPDEST PUSH1 0x80 DUP10 ADD MLOAD SWAP1 PUSH2 0x20E0 JUMP JUMPDEST PUSH1 0x80 SWAP1 SWAP8 ADD SWAP7 SWAP1 SWAP7 MSTORE POP POP POP POP POP POP JUMP JUMPDEST PUSH1 0x0 DUP8 DUP11 PUSH1 0x20 ADD MLOAD EQ DUP1 PUSH2 0x1395 JUMPI POP DUP10 MLOAD ISZERO JUMPDEST PUSH2 0x139E JUMPI PUSH1 0x0 DUP1 REVERT JUMPDEST PUSH1 0x0 PUSH2 0x13AE DUP11 PUSH1 0x0 ADD MLOAD DUP11 PUSH2 0xCFC JUMP JUMPDEST SWAP1 POP DUP8 ISZERO PUSH2 0x13D4 JUMPI PUSH2 0x13CF DUP12 DUP12 DUP4 DUP13 PUSH2 0x13C9 PUSH2 0x10FB DUP15 PUSH2 0x161B JUMP JUMPDEST DUP13 PUSH2 0x25A2 JUMP JUMPDEST PUSH2 0x13EB JUMP JUMPDEST PUSH2 0x13E9 DUP11 PUSH1 0x40 ADD MLOAD DUP11 DUP13 PUSH2 0x100 ADD MLOAD TIMESTAMP PUSH2 0x2632 JUMP JUMPDEST POP JUMPDEST PUSH2 0x13FA DUP2 DUP13 DUP13 DUP8 DUP8 DUP12 DUP12 PUSH2 0x26A1 JUMP JUMPDEST NUMBER PUSH1 0xA0 DUP14 ADD MSTORE SWAP2 POP PUSH2 0x140C DUP12 DUP12 PUSH2 0x16A9 JUMP JUMPDEST PUSH2 0x1417 DUP11 DUP3 DUP14 PUSH2 0x1631 JUMP JUMPDEST POP SWAP10 SWAP9 POP POP POP POP POP POP POP POP POP JUMP JUMPDEST PUSH1 0x0 DUP1 PUSH2 0x143A DUP5 PUSH1 0x0 ADD MLOAD DUP7 PUSH1 0x20 ADD MLOAD PUSH2 0xCFC JUMP JUMPDEST SWAP1 POP DUP1 PUSH1 0x40 ADD MLOAD PUSH2 0x145D JUMPI PUSH1 0x40 MLOAD PUSH3 0x461BCD PUSH1 0xE5 SHL DUP2 MSTORE PUSH1 0x4 ADD PUSH2 0x317 SWAP1 PUSH2 0x558A JUMP JUMPDEST PUSH1 0x0 PUSH2 0x1476 DUP6 PUSH1 0x40 ADD MLOAD PUSH2 0xFFFF AND DUP8 PUSH1 0x20 ADD MLOAD DUP7 PUSH2 0x27C8 JUMP JUMPDEST SWAP1 POP PUSH1 0x0 PUSH2 0x149D PUSH4 0x5F5E100 PUSH2 0xEF9 DUP6 PUSH1 0xC0 ADD MLOAD PUSH2 0x1497 DUP8 PUSH1 0xA0 ADD MLOAD PUSH2 0x161B JUMP JUMPDEST SWAP1 PUSH2 0x2169 JUMP JUMPDEST SWAP1 POP PUSH1 0x0 PUSH2 0x14AE DUP9 DUP6 DUP10 DUP7 DUP7 PUSH2 0x2936 JUMP JUMPDEST SWAP1 POP PUSH1 0x0 PUSH2 0x14BF DUP9 DUP7 DUP7 DUP6 DUP8 PUSH2 0x2AD7 JUMP JUMPDEST PUSH1 0x0 DUP12 MSTORE PUSH1 0x80 DUP12 ADD MLOAD SWAP1 SWAP8 POP SWAP1 SWAP2 POP PUSH2 0x14D8 SWAP1 DUP3 PUSH2 0x20E0 JUMP JUMPDEST PUSH1 0x80 DUP11 ADD MSTORE POP POP PUSH1 0x0 PUSH1 0x40 DUP9 ADD DUP2 SWAP1 MSTORE PUSH1 0x20 SWAP1 SWAP8 ADD SWAP7 SWAP1 SWAP7 MSTORE POP SWAP1 SWAP5 SWAP4 POP POP POP POP JUMP JUMPDEST PUSH1 0x0 DUP2 PUSH2 0x150A JUMPI POP PUSH1 0x0 PUSH2 0x159D JUMP JUMPDEST PUSH1 0x0 DUP3 SGT PUSH2 0x1517 JUMPI PUSH1 0x0 DUP1 REVERT JUMPDEST PUSH1 0x0 PUSH2 0x1526 DUP5 PUSH2 0xFFFF AND PUSH2 0x1AE0 JUMP JUMPDEST SWAP1 POP PUSH1 0x0 PUSH2 0x1534 DUP3 DUP6 PUSH2 0x2D0F JUMP JUMPDEST SWAP1 POP PUSH1 0x4 DUP3 PUSH1 0x60 ADD MLOAD PUSH1 0x5 DUP2 GT ISZERO PUSH2 0x1548 JUMPI INVALID JUMPDEST EQ ISZERO PUSH2 0x1576 JUMPI PUSH2 0x156F PUSH2 0x117A PUSH2 0x10FB DUP9 DUP9 PUSH2 0xFFFF AND PUSH2 0x1566 DUP7 PUSH2 0x108B JUMP JUMPDEST DUP8 SWAP3 SWAP2 SWAP1 PUSH2 0x23D3 JUMP JUMPDEST SWAP3 POP PUSH2 0x159A JUMP JUMPDEST PUSH2 0x1597 PUSH2 0x117A PUSH2 0x10FB DUP8 PUSH2 0xFFFF AND DUP10 PUSH2 0x158E DUP7 PUSH2 0xF2C JUMP JUMPDEST DUP8 SWAP3 SWAP2 SWAP1 PUSH2 0x2D47 JUMP JUMPDEST SWAP3 POP JUMPDEST POP POP JUMPDEST SWAP4 SWAP3 POP POP POP JUMP JUMPDEST PUSH1 0x0 DUP1 DUP8 PUSH1 0x80 ADD MLOAD SGT ISZERO PUSH2 0x15B7 JUMPI PUSH1 0x0 DUP1 REVERT JUMPDEST PUSH2 0x1603 DUP9 PUSH1 0x40 MLOAD DUP1 PUSH1 0xA0 ADD PUSH1 0x40 MSTORE DUP1 DUP11 PUSH1 0x60 ADD MLOAD PUSH1 0x1 PUSH1 0x1 PUSH1 0xA0 SHL SUB AND DUP2 MSTORE PUSH1 0x20 ADD DUP10 PUSH1 0x1 PUSH1 0x1 PUSH1 0xA0 SHL SUB AND DUP2 MSTORE PUSH1 0x20 ADD DUP9 DUP2 MSTORE PUSH1 0x20 ADD DUP8 DUP2 MSTORE PUSH1 0x20 ADD DUP11 PUSH1 0x80 ADD MLOAD DUP2 MSTORE POP DUP6 DUP6 PUSH2 0x2DE7 JUMP JUMPDEST PUSH1 0x0 PUSH1 0x80 SWAP1 SWAP10 ADD SWAP9 SWAP1 SWAP9 MSTORE POP SWAP6 SWAP8 SWAP7 POP POP POP POP POP POP POP JUMP JUMPDEST PUSH1 0x0 PUSH1 0x1 PUSH1 0x1 PUSH1 0xFF SHL SUB DUP3 GT ISZERO PUSH2 0xF3B JUMPI PUSH1 0x0 DUP1 REVERT JUMPDEST PUSH1 0x0 PUSH2 0x164C DUP5 DUP5 DUP5 PUSH1 0x60 ADD MLOAD DUP6 PUSH1 0x40 ADD MLOAD DUP7 PUSH1 0x0 ADD MLOAD PUSH2 0xD97 JUMP JUMPDEST POP PUSH1 0x40 DUP4 ADD MLOAD SWAP1 SWAP2 POP ISZERO PUSH2 0x167F JUMPI DUP4 PUSH2 0x180 ADD MLOAD DUP2 SGT ISZERO PUSH2 0x167F JUMPI PUSH1 0x40 MLOAD PUSH3 0x461BCD PUSH1 0xE5 SHL DUP2 MSTORE PUSH1 0x4 ADD PUSH2 0x317 SWAP1 PUSH2 0x5536 JUMP JUMPDEST DUP1 DUP5 PUSH1 0xA0 ADD MLOAD SGT ISZERO PUSH2 0x16A3 JUMPI PUSH1 0x40 MLOAD PUSH3 0x461BCD PUSH1 0xE5 SHL DUP2 MSTORE PUSH1 0x4 ADD PUSH2 0x317 SWAP1 PUSH2 0x5608 JUMP JUMPDEST POP POP POP POP JUMP JUMPDEST PUSH1 0x0 PUSH2 0x16B3 PUSH2 0x1F7A JUMP JUMPDEST PUSH1 0x60 DUP5 ADD MLOAD PUSH1 0x1 PUSH1 0x1 PUSH1 0xA0 SHL SUB SWAP1 DUP2 AND PUSH1 0x0 SWAP1 DUP2 MSTORE PUSH1 0x20 DUP4 DUP2 MSTORE PUSH1 0x40 DUP1 DUP4 KECCAK256 DUP8 MLOAD SWAP1 SWAP5 AND DUP4 MSTORE SWAP3 SWAP1 MSTORE KECCAK256 PUSH1 0x80 DUP6 ADD MLOAD SWAP2 SWAP3 POP SWAP1 ISZERO PUSH2 0x16F0 JUMPI PUSH1 0x0 DUP1 REVERT JUMPDEST PUSH1 0x60 DUP4 ADD MLOAD DUP5 MLOAD PUSH2 0x1700 SWAP1 PUSH2 0x108B JUMP JUMPDEST SLT ISZERO PUSH2 0x1735 JUMPI DUP4 MLOAD ISZERO DUP1 PUSH2 0x1719 JUMPI POP PUSH1 0x1 DUP5 PUSH1 0x40 ADD MLOAD GT ISZERO JUMPDEST PUSH2 0x1735 JUMPI PUSH1 0x40 MLOAD PUSH3 0x461BCD PUSH1 0xE5 SHL DUP2 MSTORE PUSH1 0x4 ADD PUSH2 0x317 SWAP1 PUSH2 0x5715 JUMP JUMPDEST PUSH2 0x173E DUP4 PUSH2 0x305C JUMP JUMPDEST ISZERO PUSH2 0x17A1 JUMPI PUSH1 0x0 PUSH2 0x174D PUSH2 0x1866 JUMP JUMPDEST PUSH1 0x60 DUP7 ADD MLOAD PUSH1 0x1 PUSH1 0x1 PUSH1 0xA0 SHL SUB SWAP1 DUP2 AND PUSH1 0x0 SWAP1 DUP2 MSTORE PUSH1 0x20 SWAP3 DUP4 MSTORE PUSH1 0x40 DUP1 DUP3 KECCAK256 DUP9 MLOAD SWAP1 SWAP4 AND DUP3 MSTORE SWAP2 DUP4 MSTORE KECCAK256 DUP1 SLOAD SWAP2 DUP8 ADD MLOAD SWAP1 SWAP3 POP PUSH5 0xFFFFFFFFFF SWAP1 SWAP2 AND SWAP1 DUP2 EQ DUP1 PUSH2 0x1795 JUMPI POP DUP1 ISZERO JUMPDEST PUSH2 0x179E JUMPI PUSH1 0x0 DUP1 REVERT JUMPDEST POP POP JUMPDEST PUSH2 0x17B4 PUSH2 0x117F PUSH2 0x117A DUP7 PUSH1 0x0 ADD MLOAD PUSH2 0x108B JUMP JUMPDEST DUP2 SLOAD PUSH1 0x1 PUSH1 0x1 PUSH1 0x50 SHL SUB NOT AND PUSH1 0x1 PUSH1 0x1 PUSH1 0x50 SHL SUB SWAP2 SWAP1 SWAP2 AND OR DUP2 SSTORE PUSH1 0x40 DUP5 ADD MLOAD PUSH2 0x17DD SWAP1 PUSH2 0x2364 JUMP JUMPDEST DUP2 SLOAD PUSH1 0x1 PUSH1 0x1 PUSH1 0x50 SHL SUB SWAP2 SWAP1 SWAP2 AND PUSH1 0x1 PUSH1 0x50 SHL MUL PUSH1 0x1 PUSH1 0x50 SHL PUSH1 0x1 PUSH1 0xA0 SHL SUB NOT SWAP1 SWAP2 AND OR DUP2 SSTORE PUSH1 0x20 DUP5 ADD MLOAD PUSH2 0x1811 SWAP1 PUSH2 0x3085 JUMP JUMPDEST DUP2 SLOAD PUSH5 0xFFFFFFFFFF SWAP2 SWAP1 SWAP2 AND PUSH1 0x1 PUSH1 0xA0 SHL MUL PUSH5 0xFFFFFFFFFF PUSH1 0xA0 SHL NOT SWAP1 SWAP2 AND OR DUP2 SSTORE PUSH1 0xA0 DUP5 ADD MLOAD PUSH2 0x1841 SWAP1 PUSH2 0x3099 JUMP JUMPDEST DUP2 SLOAD PUSH4 0xFFFFFFFF SWAP2 SWAP1 SWAP2 AND PUSH1 0x1 PUSH1 0xC8 SHL MUL PUSH4 0xFFFFFFFF PUSH1 0xC8 SHL NOT SWAP1 SWAP2 AND OR SWAP1 SSTORE POP POP POP JUMP JUMPDEST PUSH1 0x0 DUP1 PUSH2 0xC1A PUSH1 0x1A PUSH2 0x30AC JUMP JUMPDEST PUSH1 0x0 DUP1 PUSH1 0x0 DUP5 PUSH1 0x60 ADD MLOAD GT ISZERO PUSH2 0x18C6 JUMPI PUSH2 0x18A2 DUP5 PUSH1 0x60 ADD MLOAD PUSH2 0x2DB DUP7 PUSH1 0x80 ADD MLOAD DUP7 PUSH2 0xF43 SWAP1 SWAP2 SWAP1 PUSH4 0xFFFFFFFF AND JUMP JUMPDEST SWAP2 POP PUSH2 0x18C3 DUP5 PUSH1 0x60 ADD MLOAD PUSH2 0x2DB DUP7 PUSH1 0xA0 ADD MLOAD DUP7 PUSH2 0xF43 SWAP1 SWAP2 SWAP1 PUSH4 0xFFFFFFFF AND JUMP JUMPDEST SWAP1 POP JUMPDEST SWAP3 POP SWAP3 SWAP1 POP JUMP JUMPDEST PUSH1 0x1 PUSH1 0x1 PUSH1 0xA0 SHL SUB DUP2 AND PUSH2 0x18E0 JUMPI PUSH1 0x0 DUP1 REVERT JUMPDEST PUSH1 0x1 PUSH1 0x1 PUSH1 0xA0 SHL SUB DUP2 AND ADDRESS EQ ISZERO PUSH2 0x18F6 JUMPI PUSH1 0x0 DUP1 REVERT JUMPDEST PUSH1 0x0 PUSH2 0x1901 DUP3 PUSH2 0x30C5 JUMP JUMPDEST POP POP POP POP PUSH2 0xFFFF AND SWAP1 POP DUP1 PUSH1 0x0 EQ PUSH2 0x1918 JUMPI PUSH1 0x0 DUP1 REVERT JUMPDEST POP POP JUMP JUMPDEST PUSH1 0x0 DUP2 PUSH2 0x192B JUMPI POP PUSH1 0x0 PUSH2 0x159D JUMP JUMPDEST PUSH1 0x0 PUSH2 0x193E DUP6 PUSH1 0x40 ADD MLOAD PUSH2 0xFFFF AND PUSH2 0x1AE0 JUMP JUMPDEST SWAP1 POP PUSH1 0x0 PUSH1 0x4 DUP3 PUSH1 0x60 ADD MLOAD PUSH1 0x5 DUP2 GT ISZERO PUSH2 0x1954 JUMPI INVALID JUMPDEST EQ PUSH2 0x196F JUMPI PUSH2 0x196A DUP7 PUSH1 0x40 ADD MLOAD PUSH2 0xFFFF AND PUSH2 0x3131 JUMP JUMPDEST PUSH2 0x1971 JUMP JUMPDEST DUP2 JUMPDEST DUP7 MLOAD PUSH1 0x20 DUP3 ADD MLOAD SWAP2 SWAP3 POP SWAP1 ISZERO PUSH2 0x1986 JUMPI PUSH1 0x0 DUP1 REVERT JUMPDEST PUSH1 0x3 DUP3 PUSH1 0x60 ADD MLOAD PUSH1 0x5 DUP2 GT ISZERO PUSH2 0x1998 JUMPI INVALID JUMPDEST EQ ISZERO PUSH2 0x19D2 JUMPI DUP5 CALLVALUE EQ PUSH2 0x19BD JUMPI PUSH1 0x40 MLOAD PUSH3 0x461BCD PUSH1 0xE5 SHL DUP2 MSTORE PUSH1 0x4 ADD PUSH2 0x317 SWAP1 PUSH2 0x5739 JUMP JUMPDEST PUSH2 0x19C7 DUP2 CALLVALUE PUSH2 0x3144 JUMP JUMPDEST CALLVALUE SWAP4 POP POP POP POP PUSH2 0x159D JUMP JUMPDEST DUP2 MLOAD PUSH2 0x19E0 SWAP1 DUP8 DUP4 DUP9 PUSH2 0x317A JUMP JUMPDEST DUP5 SWAP4 POP POP POP POP PUSH2 0x159D JUMP JUMPDEST POP POP POP SWAP4 SWAP3 POP POP POP JUMP JUMPDEST PUSH2 0x19FD PUSH2 0x4DE8 JUMP JUMPDEST PUSH2 0x1A06 DUP4 PUSH2 0xF89 JUMP JUMPDEST SWAP1 POP PUSH2 0x1A14 DUP2 PUSH2 0x100 PUSH2 0x1017 JUMP JUMPDEST ISZERO PUSH2 0x1A1E JUMPI PUSH1 0x0 DUP1 REVERT JUMPDEST PUSH2 0x1A29 DUP2 PUSH1 0x80 PUSH2 0x1017 JUMP JUMPDEST ISZERO PUSH2 0x1A34 JUMPI PUSH1 0x1 PUSH1 0xA SSTORE JUMPDEST PUSH2 0x1A3F DUP2 PUSH1 0x20 PUSH2 0x1017 JUMP JUMPDEST ISZERO PUSH2 0x1A71 JUMPI CALLER PUSH1 0x1 PUSH1 0x1 PUSH1 0xA0 SHL SUB DUP5 AND EQ PUSH2 0x1A6C JUMPI PUSH1 0x40 MLOAD PUSH3 0x461BCD PUSH1 0xE5 SHL DUP2 MSTORE PUSH1 0x4 ADD PUSH2 0x317 SWAP1 PUSH2 0x53F3 JUMP JUMPDEST PUSH2 0x1A99 JUMP JUMPDEST CALLER PUSH1 0x1 PUSH1 0x1 PUSH1 0xA0 SHL SUB DUP4 AND EQ PUSH2 0x1A99 JUMPI PUSH1 0x40 MLOAD PUSH3 0x461BCD PUSH1 0xE5 SHL DUP2 MSTORE PUSH1 0x4 ADD PUSH2 0x317 SWAP1 PUSH2 0x53F3 JUMP JUMPDEST PUSH1 0x1 PUSH1 0x1 PUSH1 0xA0 SHL SUB DUP5 AND CALLER EQ DUP1 ISZERO SWAP1 PUSH2 0x1AC4 JUMPI POP DUP2 PUSH1 0x1 PUSH1 0x1 PUSH1 0xA0 SHL SUB AND DUP5 PUSH1 0x1 PUSH1 0x1 PUSH1 0xA0 SHL SUB AND EQ ISZERO JUMPDEST PUSH2 0x159D JUMPI PUSH1 0x40 MLOAD PUSH3 0x461BCD PUSH1 0xE5 SHL DUP2 MSTORE PUSH1 0x4 ADD PUSH2 0x317 SWAP1 PUSH2 0x53F3 JUMP JUMPDEST PUSH2 0x1AE8 PUSH2 0x4EAC JUMP JUMPDEST PUSH2 0xC1A DUP3 PUSH1 0x0 PUSH2 0x3202 JUMP JUMPDEST PUSH1 0x0 PUSH2 0x1AFE DUP4 PUSH2 0x161B JUMP JUMPDEST SWAP1 POP PUSH1 0x5 DUP7 PUSH1 0x60 ADD MLOAD PUSH1 0x5 DUP2 GT ISZERO PUSH2 0x1B12 JUMPI INVALID JUMPDEST EQ ISZERO PUSH2 0x1B2D JUMPI PUSH2 0x1B2A DUP5 PUSH1 0x40 ADD MLOAD PUSH2 0xFFFF AND DUP3 PUSH2 0x32B0 JUMP JUMPDEST SWAP1 POP JUMPDEST PUSH1 0x0 DUP1 PUSH2 0x1B3B DUP8 DUP8 DUP7 PUSH2 0xE1D JUMP JUMPDEST SWAP2 POP SWAP2 POP PUSH1 0x0 DUP3 SGT PUSH2 0x1B4C JUMPI PUSH1 0x0 DUP1 REVERT JUMPDEST PUSH1 0x0 PUSH2 0x1B58 DUP10 DUP5 PUSH2 0x2D0F JUMP JUMPDEST SWAP1 POP DUP1 DUP5 SLT ISZERO PUSH2 0x1B8F JUMPI PUSH2 0x1B6C DUP10 DUP4 PUSH2 0x2D0F JUMP JUMPDEST DUP5 SLT PUSH2 0x1B8A JUMPI PUSH1 0x40 MLOAD PUSH3 0x461BCD PUSH1 0xE5 SHL DUP2 MSTORE PUSH1 0x4 ADD PUSH2 0x317 SWAP1 PUSH2 0x563F JUMP JUMPDEST PUSH2 0x1B93 JUMP JUMPDEST DUP1 SWAP4 POP JUMPDEST PUSH1 0x40 DUP8 ADD MLOAD PUSH1 0x0 SWAP1 PUSH2 0x1BAD SWAP1 DUP12 SWAP1 DUP14 SWAP1 PUSH2 0xFFFF AND DUP9 PUSH2 0x23D3 JUMP JUMPDEST SWAP1 POP PUSH2 0x1BC7 PUSH2 0x1BBC DUP12 DUP4 PUSH2 0x2572 JUMP JUMPDEST PUSH1 0x80 DUP12 ADD MLOAD SWAP1 PUSH2 0x20E0 JUMP JUMPDEST PUSH1 0x80 SWAP1 SWAP10 ADD SWAP9 SWAP1 SWAP9 MSTORE POP POP POP POP POP POP POP POP POP POP JUMP JUMPDEST PUSH1 0x0 DUP3 DUP3 GT ISZERO PUSH2 0x1BEB JUMPI PUSH1 0x0 DUP1 REVERT JUMPDEST POP SWAP1 SUB SWAP1 JUMP JUMPDEST PUSH1 0x0 DUP1 PUSH2 0x1C1C DUP5 PUSH1 0x40 ADD MLOAD PUSH2 0xEF9 PUSH5 0x2540BE400 PUSH2 0xEF9 DUP8 DUP10 PUSH1 0x20 ADD MLOAD PUSH2 0x2169 SWAP1 SWAP2 SWAP1 PUSH4 0xFFFFFFFF AND JUMP JUMPDEST SWAP5 SWAP4 POP POP POP POP JUMP JUMPDEST PUSH1 0x80 DUP6 ADD MLOAD PUSH2 0x1C33 SWAP1 DUP3 PUSH2 0x20E0 JUMP JUMPDEST PUSH1 0x80 DUP7 ADD MSTORE DUP5 MLOAD PUSH2 0x1C44 SWAP1 DUP4 PUSH2 0x20E0 JUMP JUMPDEST DUP1 DUP7 MSTORE PUSH1 0x0 SLT ISZERO PUSH2 0x1C54 JUMPI PUSH1 0x0 DUP1 REVERT JUMPDEST PUSH1 0x20 DUP4 ADD MLOAD PUSH2 0x1C63 SWAP1 DUP4 PUSH2 0x20E0 JUMP JUMPDEST PUSH1 0x20 DUP5 ADD DUP2 SWAP1 MSTORE PUSH1 0x0 SLT ISZERO PUSH2 0x1C77 JUMPI PUSH1 0x0 DUP1 REVERT JUMPDEST PUSH2 0x1C8A DUP5 PUSH1 0x0 ADD MLOAD DUP6 PUSH1 0x40 ADD MLOAD DUP5 PUSH2 0x3337 JUMP JUMPDEST POP POP POP POP POP POP JUMP JUMPDEST PUSH1 0x0 DUP1 PUSH2 0x1CA3 DUP7 DUP7 PUSH1 0x0 ADD MLOAD PUSH2 0xC67 JUMP JUMPDEST SWAP1 POP DUP1 PUSH1 0x20 ADD MLOAD PUSH1 0x0 EQ DUP1 PUSH2 0x1CBB JUMPI POP DUP3 DUP2 PUSH1 0x20 ADD MLOAD EQ JUMPDEST PUSH2 0x1CD7 JUMPI PUSH1 0x40 MLOAD PUSH3 0x461BCD PUSH1 0xE5 SHL DUP2 MSTORE PUSH1 0x4 ADD PUSH2 0x317 SWAP1 PUSH2 0x5419 JUMP JUMPDEST PUSH1 0x20 DUP2 ADD DUP4 SWAP1 MSTORE PUSH1 0x40 DUP2 ADD MLOAD PUSH2 0x1CED SWAP1 DUP6 PUSH2 0x343D JUMP JUMPDEST PUSH1 0x40 DUP3 ADD MSTORE PUSH2 0x1CFC DUP2 DUP7 PUSH2 0x16A9 JUMP JUMPDEST POP SWAP2 SWAP5 SWAP4 POP POP POP POP JUMP JUMPDEST PUSH1 0x0 DUP1 DUP1 PUSH2 0x1D14 DUP9 DUP9 PUSH2 0x21FE JUMP JUMPDEST DUP10 MLOAD SWAP2 SWAP4 POP SWAP2 POP PUSH2 0x1D2C SWAP1 DUP11 SWAP1 DUP13 SWAP1 DUP5 SWAP1 DUP11 DUP11 PUSH2 0x344F JUMP JUMPDEST DUP11 MLOAD SWAP1 SWAP5 POP PUSH2 0x1D3D SWAP2 POP DUP10 SWAP1 PUSH2 0x1127 JUMP JUMPDEST DUP2 ISZERO PUSH2 0x1D87 JUMPI PUSH1 0x0 PUSH2 0x1D77 PUSH2 0x117A PUSH2 0x10FB DUP13 PUSH1 0x40 ADD MLOAD PUSH2 0xFFFF AND DUP15 PUSH2 0x1D6E PUSH2 0x117A PUSH2 0x1D67 DUP11 PUSH2 0x161B JUMP JUMPDEST DUP13 SWAP1 PUSH2 0x2D0F JUMP JUMPDEST DUP11 SWAP3 SWAP2 SWAP1 PUSH2 0x2D47 JUMP JUMPDEST SWAP1 POP PUSH2 0x1D83 DUP5 DUP3 PUSH2 0x343D JUMP JUMPDEST SWAP4 POP POP JUMPDEST POP POP SWAP8 SWAP7 POP POP POP POP POP POP POP JUMP JUMPDEST PUSH2 0x1D9C PUSH2 0x4DE8 JUMP JUMPDEST PUSH1 0x0 PUSH2 0x1DA6 PUSH2 0x34A6 JUMP JUMPDEST PUSH1 0x1 PUSH1 0x1 PUSH1 0xA0 SHL SUB DUP5 AND PUSH1 0x0 DUP2 DUP2 MSTORE PUSH1 0x20 DUP4 DUP2 MSTORE PUSH1 0x40 SWAP2 DUP3 SWAP1 KECCAK256 SWAP3 DUP7 MSTORE DUP3 SLOAD PUSH2 0xFFFF DUP1 DUP3 AND SWAP3 DUP9 ADD SWAP3 SWAP1 SWAP3 MSTORE PUSH3 0x10000 DUP2 DIV SWAP1 SWAP2 AND SWAP2 DUP7 ADD SWAP2 SWAP1 SWAP2 MSTORE SWAP2 SWAP3 POP SWAP1 PUSH2 0x1E07 SWAP1 PUSH4 0xFFFFFFFF PUSH5 0x100000000 SWAP1 SWAP2 DIV DUP2 AND SWAP1 PUSH4 0x5F5E100 SWAP1 PUSH2 0x2169 AND JUMP JUMPDEST PUSH1 0x60 DUP5 ADD MSTORE DUP1 SLOAD PUSH2 0x1E25 SWAP1 PUSH1 0x1 PUSH1 0x50 SHL SWAP1 DIV PUSH1 0xFF AND PUSH3 0x7A120 PUSH2 0xF43 JUMP JUMPDEST PUSH1 0x80 DUP5 ADD MSTORE DUP1 SLOAD PUSH2 0x1E49 SWAP1 PUSH9 0x10000000000000000 SWAP1 DIV PUSH2 0xFFFF AND PUSH3 0x186A0 PUSH2 0xF43 JUMP JUMPDEST PUSH1 0xA0 DUP5 ADD MSTORE DUP1 SLOAD PUSH2 0x1E68 SWAP1 PUSH1 0x1 PUSH1 0x70 SHL SWAP1 DIV PUSH2 0xFFFF AND PUSH3 0x186A0 PUSH2 0xF43 JUMP JUMPDEST PUSH2 0x120 DUP5 ADD MSTORE PUSH1 0x2 DUP2 ADD SLOAD PUSH2 0x1E84 SWAP1 PUSH2 0xFFFF AND PUSH3 0x186A0 PUSH2 0xF43 JUMP JUMPDEST PUSH2 0x180 DUP5 ADD MSTORE DUP1 SLOAD PUSH1 0x64 SWAP1 PUSH1 0xFF PUSH1 0x1 PUSH1 0x58 SHL SWAP1 SWAP2 DIV AND PUSH4 0x3B9ACA00 MUL SDIV PUSH1 0xC0 DUP5 ADD MSTORE DUP1 SLOAD PUSH1 0x1 PUSH1 0x60 SHL DUP2 DIV PUSH1 0xFF SWAP1 DUP2 AND PUSH1 0xE0 DUP7 ADD MSTORE PUSH1 0x1 PUSH1 0x68 SHL SWAP1 SWAP2 DIV AND PUSH2 0x100 DUP5 ADD MSTORE PUSH1 0x40 DUP1 MLOAD DUP1 DUP3 ADD SWAP2 DUP3 SWAP1 MSTORE SWAP1 PUSH1 0x1 DUP4 ADD SWAP1 PUSH1 0x2 SWAP1 DUP3 PUSH1 0x0 DUP6 JUMPDEST DUP3 DUP3 SWAP1 SLOAD SWAP1 PUSH2 0x100 EXP SWAP1 DIV PUSH2 0xFFFF AND PUSH2 0xFFFF AND DUP2 MSTORE PUSH1 0x20 ADD SWAP1 PUSH1 0x2 ADD SWAP1 PUSH1 0x20 DUP3 PUSH1 0x1 ADD DIV SWAP3 DUP4 ADD SWAP3 PUSH1 0x1 SUB DUP3 MUL SWAP2 POP DUP1 DUP5 GT PUSH2 0x1EE1 JUMPI SWAP1 POP POP POP POP POP POP DUP4 PUSH2 0x140 ADD DUP2 SWAP1 MSTORE POP POP POP SWAP2 SWAP1 POP JUMP JUMPDEST PUSH2 0x1F36 PUSH2 0x4ED3 JUMP JUMPDEST PUSH1 0x0 DUP1 PUSH1 0x0 PUSH2 0x1F44 DUP6 PUSH2 0x34B3 JUMP JUMPDEST PUSH1 0x40 DUP1 MLOAD PUSH1 0x60 DUP2 ADD DUP3 MSTORE PUSH1 0x1 PUSH1 0x1 PUSH1 0xA0 SHL SUB SWAP1 SWAP4 AND DUP4 MSTORE PUSH1 0x20 DUP4 ADD SWAP4 SWAP1 SWAP4 MSTORE PUSH1 0xFF AND PUSH1 0xA EXP SWAP2 DUP2 ADD SWAP2 SWAP1 SWAP2 MSTORE SWAP4 POP POP POP POP SWAP2 SWAP1 POP JUMP JUMPDEST PUSH1 0x0 DUP1 PUSH2 0xC1A PUSH1 0x16 PUSH2 0x30AC JUMP JUMPDEST PUSH1 0x0 DUP1 PUSH2 0xC1A PUSH1 0x15 PUSH2 0x30AC JUMP JUMPDEST PUSH1 0x0 DUP2 PUSH2 0x1FA3 JUMPI POP PUSH1 0x0 PUSH2 0x1C1C JUMP JUMPDEST PUSH1 0x0 DUP1 PUSH2 0x1FB0 DUP8 DUP6 PUSH2 0x1873 JUMP JUMPDEST SWAP2 POP SWAP2 POP PUSH1 0x0 PUSH2 0x1FCF DUP8 PUSH1 0x40 ADD MLOAD DUP9 PUSH1 0x0 ADD MLOAD DUP9 DUP6 DUP13 PUSH1 0x0 ADD MLOAD PUSH2 0x3574 JUMP JUMPDEST SWAP1 POP PUSH2 0x1FED PUSH2 0x1FDD DUP5 PUSH2 0x161B JUMP JUMPDEST PUSH2 0x160 DUP10 ADD MLOAD PUSH2 0xDCD SWAP1 DUP5 PUSH2 0x20F6 JUMP JUMPDEST SWAP9 SWAP8 POP POP POP POP POP POP POP POP JUMP JUMPDEST PUSH1 0x0 PUSH2 0x2004 DUP5 PUSH2 0x305C JUMP JUMPDEST ISZERO PUSH2 0x159D JUMPI PUSH1 0x0 PUSH2 0x2013 PUSH2 0x1866 JUMP JUMPDEST PUSH1 0x1 PUSH1 0x1 PUSH1 0xA0 SHL SUB DUP1 DUP7 AND PUSH1 0x0 SWAP1 DUP2 MSTORE PUSH1 0x20 SWAP3 DUP4 MSTORE PUSH1 0x40 DUP1 DUP3 KECCAK256 DUP10 MLOAD SWAP1 SWAP4 AND DUP3 MSTORE SWAP2 SWAP1 SWAP3 MSTORE DUP1 DUP3 KECCAK256 SWAP1 DUP8 ADD MLOAD SWAP1 SWAP3 POP PUSH2 0x204F SWAP1 PUSH2 0xFFFF AND PUSH2 0x362E JUMP JUMPDEST DUP3 SLOAD SWAP1 SWAP2 POP PUSH1 0x1 PUSH1 0x1 PUSH1 0x50 SHL SUB PUSH1 0x1 PUSH1 0x28 SHL DUP3 DIV DUP2 AND SWAP2 PUSH1 0x1 PUSH1 0x78 SHL SWAP1 DIV AND DUP2 ISZERO PUSH2 0x20A5 JUMPI PUSH2 0x20A2 PUSH2 0x209B DUP5 DUP11 PUSH2 0x140 ADD MLOAD PUSH1 0x0 PUSH1 0x2 DUP2 LT PUSH2 0x208D JUMPI INVALID JUMPDEST PUSH1 0x20 MUL ADD MLOAD DUP12 MLOAD DUP11 DUP8 PUSH2 0x3791 JUMP JUMPDEST DUP7 SWAP1 PUSH2 0x20E0 JUMP JUMPDEST SWAP5 POP JUMPDEST DUP1 ISZERO PUSH2 0x20D5 JUMPI PUSH2 0x20D2 PUSH2 0x209B DUP5 DUP11 PUSH2 0x140 ADD MLOAD PUSH1 0x1 PUSH1 0x2 DUP2 LT PUSH2 0x20C4 JUMPI INVALID JUMPDEST PUSH1 0x20 MUL ADD MLOAD DUP12 MLOAD DUP11 DUP7 PUSH2 0x3791 JUMP JUMPDEST SWAP5 POP JUMPDEST POP POP POP POP SWAP4 SWAP3 POP POP POP JUMP JUMPDEST DUP2 DUP2 ADD DUP3 DUP2 SLT ISZERO PUSH1 0x0 DUP4 SLT ISZERO EQ PUSH2 0xC1A JUMPI PUSH1 0x0 DUP1 REVERT JUMPDEST PUSH1 0x0 DUP1 PUSH2 0x1C1C DUP5 PUSH1 0x20 ADD MLOAD PUSH2 0xEF9 DUP7 PUSH1 0x40 ADD MLOAD PUSH2 0x1497 PUSH5 0x2540BE400 DUP9 PUSH2 0x2169 SWAP1 SWAP2 SWAP1 PUSH4 0xFFFFFFFF AND JUMP JUMPDEST DUP1 DUP3 SUB DUP3 DUP2 SGT ISZERO PUSH1 0x0 DUP4 SLT ISZERO EQ PUSH2 0xC1A JUMPI PUSH1 0x0 DUP1 REVERT JUMPDEST PUSH1 0x0 PUSH2 0xC17 PUSH2 0x214A DUP5 PUSH4 0x3B9ACA00 PUSH2 0x2169 JUMP JUMPDEST DUP4 PUSH2 0x21B7 JUMP JUMPDEST PUSH1 0x0 PUSH2 0xC17 PUSH2 0x215F DUP5 DUP5 PUSH2 0x2169 JUMP JUMPDEST PUSH4 0x3B9ACA00 PUSH2 0x21B7 JUMP JUMPDEST DUP2 DUP2 MUL PUSH1 0x0 NOT DUP4 EQ ISZERO PUSH2 0x2199 JUMPI DUP2 ISZERO DUP1 PUSH2 0x218B JUMPI POP DUP3 DUP3 DUP3 DUP2 PUSH2 0x2188 JUMPI INVALID JUMPDEST SDIV EQ JUMPDEST PUSH2 0x2194 JUMPI PUSH1 0x0 DUP1 REVERT JUMPDEST PUSH2 0xC1A JUMP JUMPDEST DUP3 ISZERO DUP1 PUSH2 0x21AE JUMPI POP DUP2 DUP4 DUP3 DUP2 PUSH2 0x21AB JUMPI INVALID JUMPDEST SDIV EQ JUMPDEST PUSH2 0xC1A JUMPI PUSH1 0x0 DUP1 REVERT JUMPDEST PUSH1 0x0 DUP2 PUSH1 0x0 NOT EQ DUP1 ISZERO PUSH2 0x21CD JUMPI POP PUSH1 0x1 PUSH1 0xFF SHL DUP4 EQ JUMPDEST ISZERO PUSH2 0x21D7 JUMPI PUSH1 0x0 DUP1 REVERT JUMPDEST DUP2 DUP4 DUP2 PUSH2 0x21E0 JUMPI INVALID JUMPDEST SDIV SWAP4 SWAP3 POP POP POP JUMP JUMPDEST PUSH2 0x21F0 PUSH2 0x4ED3 JUMP JUMPDEST PUSH1 0x0 DUP1 PUSH1 0x0 PUSH2 0x1F44 DUP6 PUSH2 0x3842 JUMP JUMPDEST PUSH1 0x0 DUP1 PUSH2 0x220B DUP5 DUP5 PUSH2 0x1873 JUMP JUMPDEST PUSH1 0x80 DUP7 ADD MLOAD SWAP2 SWAP4 POP SWAP2 POP PUSH2 0x221F SWAP1 DUP4 PUSH2 0x1BDC JUMP JUMPDEST PUSH1 0x80 DUP6 ADD MSTORE PUSH1 0xA0 DUP5 ADD MLOAD PUSH2 0x2233 SWAP1 DUP3 PUSH2 0x1BDC JUMP JUMPDEST PUSH1 0xA0 DUP6 ADD MSTORE PUSH1 0x60 DUP5 ADD MLOAD PUSH2 0x2247 SWAP1 DUP5 PUSH2 0x1BDC JUMP JUMPDEST PUSH1 0x60 SWAP1 SWAP5 ADD SWAP4 SWAP1 SWAP4 MSTORE SWAP3 SWAP1 POP JUMP JUMPDEST PUSH1 0x0 DUP1 PUSH2 0x2264 DUP9 DUP9 DUP7 DUP7 PUSH2 0x2632 JUMP JUMPDEST SWAP1 POP PUSH1 0x0 PUSH2 0x2271 DUP8 PUSH2 0x38C7 JUMP JUMPDEST SWAP1 POP PUSH11 0xFFFFFFFFFFFFFFFFFFFFFF DUP2 LT PUSH2 0x228A JUMPI PUSH1 0x0 DUP1 REVERT JUMPDEST PUSH1 0x0 PUSH1 0x78 DUP8 PUSH4 0xFFFFFFFF AND SWAP1 SHL PUSH1 0x98 DUP4 SWAP1 SHL PUSH1 0xF0 DUP6 SWAP1 SHL PUSH1 0xF8 PUSH1 0x0 DUP13 SGT PUSH2 0x22B2 JUMPI PUSH1 0x1 PUSH2 0x22B5 JUMP JUMPDEST PUSH1 0x0 JUMPDEST PUSH1 0x5 DUP2 GT ISZERO PUSH2 0x22C0 JUMPI INVALID JUMPDEST PUSH1 0xFF AND SWAP1 SHL OR OR OR PUSH1 0x0 SHL SWAP1 POP PUSH20 0x0 PUSH4 0xE50F349E DUP12 DUP4 PUSH1 0x40 MLOAD DUP4 PUSH4 0xFFFFFFFF AND PUSH1 0xE0 SHL DUP2 MSTORE PUSH1 0x4 ADD PUSH2 0x2306 SWAP3 SWAP2 SWAP1 PUSH2 0x5861 JUMP JUMPDEST PUSH1 0x20 PUSH1 0x40 MLOAD DUP1 DUP4 SUB DUP2 DUP7 DUP1 EXTCODESIZE ISZERO DUP1 ISZERO PUSH2 0x231E JUMPI PUSH1 0x0 DUP1 REVERT JUMPDEST POP GAS DELEGATECALL ISZERO DUP1 ISZERO PUSH2 0x2332 JUMPI RETURNDATASIZE PUSH1 0x0 DUP1 RETURNDATACOPY RETURNDATASIZE PUSH1 0x0 REVERT JUMPDEST POP POP POP POP PUSH1 0x40 MLOAD RETURNDATASIZE PUSH1 0x1F NOT PUSH1 0x1F DUP3 ADD AND DUP3 ADD DUP1 PUSH1 0x40 MSTORE POP DUP2 ADD SWAP1 PUSH2 0x2356 SWAP2 SWAP1 PUSH2 0x5234 JUMP JUMPDEST SWAP11 SWAP10 POP POP POP POP POP POP POP POP POP POP JUMP JUMPDEST PUSH1 0x0 PUSH1 0x1 PUSH1 0x1 PUSH1 0x50 SHL SUB DUP3 GT ISZERO PUSH2 0xF3B JUMPI PUSH1 0x0 DUP1 REVERT JUMPDEST PUSH2 0x2382 PUSH2 0x4EAC JUMP JUMPDEST PUSH2 0x238A PUSH2 0x4EAC JUMP JUMPDEST PUSH2 0x239B DUP4 PUSH1 0x40 ADD MLOAD PUSH2 0xFFFF AND PUSH2 0x1AE0 JUMP JUMPDEST SWAP2 POP PUSH1 0x4 DUP3 PUSH1 0x60 ADD MLOAD PUSH1 0x5 DUP2 GT ISZERO PUSH2 0x23AF JUMPI INVALID JUMPDEST EQ PUSH2 0x23CA JUMPI PUSH2 0x23C5 DUP4 PUSH1 0x40 ADD MLOAD PUSH2 0xFFFF AND PUSH2 0x3131 JUMP JUMPDEST PUSH2 0x23CC JUMP JUMPDEST DUP2 JUMPDEST SWAP1 POP SWAP2 POP SWAP2 JUMP JUMPDEST DUP1 PUSH1 0x5 DUP6 PUSH1 0x60 ADD MLOAD PUSH1 0x5 DUP2 GT ISZERO PUSH2 0x23E6 JUMPI INVALID JUMPDEST EQ ISZERO PUSH2 0x240B JUMPI PUSH1 0x0 PUSH2 0x23F7 DUP5 PUSH2 0x3131 JUMP JUMPDEST SWAP1 POP PUSH2 0x2407 DUP2 PUSH1 0x0 ADD MLOAD DUP5 PUSH2 0x38E8 JUMP JUMPDEST SWAP3 POP POP JUMPDEST PUSH1 0x0 DUP3 SGT ISZERO PUSH2 0x2437 JUMPI PUSH1 0x0 PUSH2 0x2421 DUP7 DUP7 DUP6 PUSH2 0x3977 JUMP JUMPDEST SWAP1 POP DUP6 PUSH1 0x20 ADD MLOAD ISZERO PUSH2 0x2431 JUMPI DUP1 SWAP2 POP JUMPDEST POP PUSH2 0x1C1C JUMP JUMPDEST PUSH1 0x3 DUP6 PUSH1 0x60 ADD MLOAD PUSH1 0x5 DUP2 GT ISZERO PUSH2 0x2449 JUMPI INVALID JUMPDEST EQ ISZERO PUSH2 0x2466 JUMPI PUSH2 0x2461 DUP5 PUSH2 0x245C DUP5 PUSH2 0x108B JUMP JUMPDEST PUSH2 0x3144 JUMP JUMPDEST PUSH2 0x1C1C JUMP JUMPDEST DUP5 MLOAD PUSH2 0x1C1C SWAP1 DUP6 PUSH2 0x2476 DUP6 PUSH2 0x108B JUMP JUMPDEST PUSH2 0x3A60 JUMP JUMPDEST PUSH1 0x0 DUP1 PUSH1 0x5 DUP6 PUSH1 0x60 ADD MLOAD PUSH1 0x5 DUP2 GT ISZERO PUSH2 0x2490 JUMPI INVALID JUMPDEST EQ PUSH2 0x24A2 JUMPI PUSH4 0x70A08231 PUSH1 0xE0 SHL PUSH2 0x24AB JUMP JUMPDEST PUSH4 0xED1279F PUSH1 0xE1 SHL JUMPDEST SWAP1 POP PUSH1 0x0 PUSH2 0x24BE DUP7 PUSH1 0x0 ADD MLOAD ADDRESS DUP5 PUSH2 0x3AD7 JUMP JUMPDEST SWAP1 POP PUSH1 0x5 DUP7 PUSH1 0x60 ADD MLOAD PUSH1 0x5 DUP2 GT ISZERO PUSH2 0x24D2 JUMPI INVALID JUMPDEST EQ ISZERO PUSH2 0x24F9 JUMPI PUSH1 0x0 PUSH2 0x24E7 DUP7 PUSH2 0xFFFF AND PUSH2 0x3131 JUMP JUMPDEST SWAP1 POP PUSH2 0x24F3 DUP2 DUP7 PUSH2 0x3BE9 JUMP JUMPDEST POP PUSH2 0x2542 JUMP JUMPDEST PUSH1 0x1 DUP7 PUSH1 0x60 ADD MLOAD PUSH1 0x5 DUP2 GT ISZERO PUSH2 0x250B JUMPI INVALID JUMPDEST EQ ISZERO PUSH2 0x2520 JUMPI PUSH2 0x251B DUP7 DUP6 PUSH2 0x3C54 JUMP JUMPDEST PUSH2 0x2542 JUMP JUMPDEST PUSH1 0x2 DUP7 PUSH1 0x60 ADD MLOAD PUSH1 0x5 DUP2 GT ISZERO PUSH2 0x2532 JUMPI INVALID JUMPDEST EQ ISZERO PUSH2 0x9C JUMPI PUSH2 0x251B DUP7 DUP6 PUSH2 0x3CF6 JUMP JUMPDEST PUSH1 0x0 PUSH2 0x2553 DUP8 PUSH1 0x0 ADD MLOAD ADDRESS DUP6 PUSH2 0x3AD7 JUMP JUMPDEST SWAP1 POP PUSH2 0x2567 PUSH2 0x2562 DUP3 DUP5 PUSH2 0x3D49 JUMP JUMPDEST PUSH2 0x161B JUMP JUMPDEST SWAP8 SWAP7 POP POP POP POP POP POP POP JUMP JUMPDEST PUSH1 0x0 PUSH4 0x5F5E100 DUP4 PUSH1 0x40 ADD MLOAD EQ ISZERO PUSH2 0x258B JUMPI POP DUP1 PUSH2 0xC1A JUMP JUMPDEST PUSH1 0x40 DUP4 ADD MLOAD PUSH2 0xC17 SWAP1 PUSH2 0xEF9 DUP5 PUSH4 0x5F5E100 PUSH2 0x2169 JUMP JUMPDEST PUSH1 0x0 DUP3 SLT PUSH2 0x25AF JUMPI PUSH1 0x0 DUP1 REVERT JUMPDEST PUSH1 0x0 PUSH2 0x25C8 DUP7 PUSH1 0x40 ADD MLOAD DUP6 DUP6 DUP6 DUP11 PUSH2 0x100 ADD MLOAD TIMESTAMP PUSH2 0x2255 JUMP JUMPDEST SWAP1 POP PUSH1 0x0 DUP2 SGT PUSH2 0x25EA JUMPI PUSH1 0x40 MLOAD PUSH3 0x461BCD PUSH1 0xE5 SHL DUP2 MSTORE PUSH1 0x4 ADD PUSH2 0x317 SWAP1 PUSH2 0x56C4 JUMP JUMPDEST PUSH2 0x25F7 DUP8 DUP8 DUP8 DUP7 DUP6 PUSH2 0x1C24 JUMP JUMPDEST DUP7 MLOAD PUSH2 0x2602 SWAP1 PUSH2 0x108B JUMP JUMPDEST DUP7 PUSH1 0x60 ADD MLOAD SGT ISZERO PUSH2 0x2625 JUMPI PUSH1 0x40 MLOAD PUSH3 0x461BCD PUSH1 0xE5 SHL DUP2 MSTORE PUSH1 0x4 ADD PUSH2 0x317 SWAP1 PUSH2 0x5715 JUMP JUMPDEST PUSH2 0x111E DUP7 DUP9 DUP4 DUP8 TIMESTAMP PUSH2 0x3DA0 JUMP JUMPDEST PUSH1 0x0 DUP1 PUSH1 0x0 PUSH2 0x2644 DUP8 PUSH2 0xFFFF AND PUSH2 0x3E9B JUMP JUMPDEST SWAP1 POP PUSH2 0x2654 DUP2 PUSH1 0xFF AND DUP8 DUP7 PUSH2 0x3EB1 JUMP JUMPDEST SWAP1 SWAP4 POP SWAP2 POP DUP5 DUP4 GT ISZERO PUSH2 0x2679 JUMPI PUSH1 0x40 MLOAD PUSH3 0x461BCD PUSH1 0xE5 SHL DUP2 MSTORE PUSH1 0x4 ADD PUSH2 0x317 SWAP1 PUSH2 0x550C JUMP JUMPDEST DUP2 ISZERO PUSH2 0x2697 JUMPI PUSH1 0x40 MLOAD PUSH3 0x461BCD PUSH1 0xE5 SHL DUP2 MSTORE PUSH1 0x4 ADD PUSH2 0x317 SWAP1 PUSH2 0x550C JUMP JUMPDEST POP POP SWAP5 SWAP4 POP POP POP POP JUMP JUMPDEST PUSH1 0x0 DUP8 PUSH1 0x80 ADD MLOAD PUSH1 0x0 EQ PUSH2 0x26B4 JUMPI PUSH1 0x0 DUP1 REVERT JUMPDEST PUSH1 0x0 DUP8 PUSH1 0x80 ADD MLOAD SLT ISZERO PUSH2 0x26C6 JUMPI PUSH1 0x0 DUP1 REVERT JUMPDEST DUP8 MLOAD PUSH1 0x20 DUP9 ADD MLOAD LT ISZERO PUSH2 0x26EE JUMPI PUSH1 0x40 DUP8 ADD MLOAD ISZERO PUSH2 0x26E2 JUMPI PUSH1 0x0 DUP1 REVERT JUMPDEST DUP8 MLOAD PUSH1 0x20 DUP9 ADD MSTORE PUSH2 0x26FF JUMP JUMPDEST DUP8 MLOAD PUSH1 0x20 DUP9 ADD MLOAD EQ PUSH2 0x26FF JUMPI PUSH1 0x0 DUP1 REVERT JUMPDEST PUSH1 0x0 DUP6 ISZERO PUSH2 0x271A JUMPI PUSH2 0x2717 DUP10 DUP10 DUP9 DUP11 PUSH1 0x0 ADD MLOAD PUSH2 0x3F79 JUMP JUMPDEST SWAP1 POP JUMPDEST PUSH1 0x60 DUP9 ADD MLOAD PUSH1 0x80 DUP10 ADD MLOAD DUP11 MLOAD PUSH1 0x0 SWAP3 PUSH2 0x2737 SWAP3 DUP12 SWAP3 DUP11 DUP11 DUP11 PUSH2 0x3FF7 JUMP JUMPDEST SWAP1 POP PUSH2 0x2753 PUSH2 0x274C DUP12 DUP12 DUP5 DUP13 PUSH1 0x0 ADD MLOAD PUSH2 0x3F79 JUMP JUMPDEST DUP4 SWAP1 PUSH2 0x343D JUMP JUMPDEST SWAP2 POP DUP9 PUSH1 0x60 ADD MLOAD PUSH1 0x1 PUSH1 0x1 PUSH1 0xA0 SHL SUB AND DUP11 PUSH1 0x0 ADD MLOAD DUP10 PUSH1 0x0 ADD MLOAD PUSH1 0x1 PUSH1 0x1 PUSH1 0xA0 SHL SUB AND PUSH32 0xF0B1FFF1C6815D2739F7CB03ADBB99177A10DAAE11921A3AE1712F20EA52EB9A DUP10 DUP14 PUSH1 0x80 ADD MLOAD DUP13 DUP9 PUSH1 0x40 MLOAD PUSH2 0x27AF SWAP5 SWAP4 SWAP3 SWAP2 SWAP1 PUSH2 0x53D8 JUMP JUMPDEST PUSH1 0x40 MLOAD DUP1 SWAP2 SUB SWAP1 LOG4 PUSH1 0x0 PUSH1 0x80 DUP11 ADD MSTORE PUSH2 0x2356 DUP8 DUP3 PUSH2 0x343D JUMP JUMPDEST PUSH2 0x27D0 PUSH2 0x4ED3 JUMP JUMPDEST PUSH1 0x0 DUP1 PUSH2 0x27DD DUP7 DUP7 PUSH2 0x40AD JUMP JUMPDEST SWAP2 POP SWAP2 POP DUP2 PUSH1 0x0 EQ ISZERO PUSH2 0x290B JUMPI PUSH1 0x0 PUSH2 0x27F5 DUP8 PUSH2 0x3842 JUMP JUMPDEST SWAP2 SWAP5 POP SWAP1 SWAP3 POP SWAP1 POP PUSH1 0x1 PUSH1 0x1 PUSH1 0xA0 SHL SUB DUP2 AND ISZERO PUSH2 0x2909 JUMPI PUSH1 0x0 PUSH2 0x2816 PUSH2 0x40F4 JUMP JUMPDEST SWAP1 POP DUP6 PUSH1 0x0 LT DUP1 ISZERO PUSH2 0x2828 JUMPI POP DUP6 DUP8 GT ISZERO JUMPDEST DUP1 ISZERO PUSH2 0x2839 JUMPI POP PUSH5 0xFFFFFFFFFF DUP7 GT ISZERO JUMPDEST PUSH2 0x2842 JUMPI PUSH1 0x0 DUP1 REVERT JUMPDEST DUP4 PUSH1 0x0 SLT DUP1 ISZERO PUSH2 0x2859 JUMPI POP PUSH1 0x1 PUSH1 0x1 PUSH1 0x80 SHL SUB DUP5 SGT ISZERO JUMPDEST PUSH2 0x2862 JUMPI PUSH1 0x0 DUP1 REVERT JUMPDEST PUSH1 0x0 DUP9 DUP2 MSTORE PUSH1 0x20 DUP3 DUP2 MSTORE PUSH1 0x40 DUP1 DUP4 KECCAK256 DUP11 DUP5 MSTORE SWAP1 SWAP2 MSTORE SWAP1 DUP2 SWAP1 KECCAK256 DUP1 SLOAD PUSH5 0xFFFFFFFFFF NOT AND PUSH5 0xFFFFFFFFFF DUP10 AND OR PUSH21 0xFFFFFFFFFFFFFFFFFFFFFFFFFFFFFFFF0000000000 NOT AND PUSH1 0x1 PUSH1 0x28 SHL PUSH1 0x1 PUSH1 0x1 PUSH1 0x80 SHL SUB DUP9 AND MUL OR PUSH1 0xFF PUSH1 0xA8 SHL NOT AND PUSH1 0x1 PUSH1 0xA8 SHL PUSH1 0xFF DUP8 AND MUL OR DUP2 SSTORE SWAP1 MLOAD DUP9 SWAP1 DUP11 SWAP1 PUSH32 0xFDFA6885701E2F1F42E4187B9231CF81C1FE23671EF64FA46F34DDB56C1DC18 SWAP1 PUSH2 0x28FE SWAP1 DUP10 SWAP1 PUSH2 0x584D JUMP JUMPDEST PUSH1 0x40 MLOAD DUP1 SWAP2 SUB SWAP1 LOG3 POP POP JUMPDEST POP JUMPDEST PUSH1 0x40 DUP1 MLOAD PUSH1 0x60 DUP2 ADD DUP3 MSTORE PUSH1 0x0 DUP2 MSTORE PUSH1 0x20 DUP2 ADD SWAP4 SWAP1 SWAP4 MSTORE PUSH1 0xFF SWAP1 SWAP2 AND PUSH1 0xA EXP SWAP1 DUP3 ADD MSTORE SWAP1 POP SWAP4 SWAP3 POP POP POP JUMP JUMPDEST PUSH1 0x0 DUP1 PUSH2 0x295A PUSH2 0x2953 PUSH2 0x294C DUP9 PUSH1 0x80 ADD MLOAD PUSH2 0x161B JUMP JUMPDEST DUP7 SWAP1 PUSH2 0x1BF1 JUMP JUMPDEST DUP5 SWAP1 PUSH2 0x20E0 JUMP JUMPDEST SWAP1 POP PUSH2 0x2965 DUP6 PUSH2 0x305C JUMP JUMPDEST ISZERO PUSH2 0x2A78 JUMPI PUSH1 0x0 PUSH2 0x2974 PUSH2 0x1866 JUMP JUMPDEST PUSH1 0x60 DUP10 ADD MLOAD PUSH1 0x1 PUSH1 0x1 PUSH1 0xA0 SHL SUB SWAP1 DUP2 AND PUSH1 0x0 SWAP1 DUP2 MSTORE PUSH1 0x20 SWAP3 DUP4 MSTORE PUSH1 0x40 DUP1 DUP3 KECCAK256 DUP11 MLOAD SWAP1 SWAP4 AND DUP3 MSTORE SWAP2 SWAP1 SWAP3 MSTORE DUP2 KECCAK256 DUP8 MLOAD DUP10 MLOAD PUSH2 0x140 DUP11 ADD MLOAD MLOAD DUP4 SLOAD SWAP4 SWAP6 POP DUP5 SWAP4 PUSH2 0x29CE SWAP4 SWAP3 SWAP2 SWAP1 PUSH1 0x1 PUSH1 0x28 SHL SWAP1 DIV PUSH1 0x1 PUSH1 0x1 PUSH1 0x50 SHL SUB AND PUSH2 0x4101 JUMP JUMPDEST SWAP1 SWAP3 POP SWAP1 POP PUSH2 0x29DD DUP5 DUP4 PUSH2 0x20E0 JUMP JUMPDEST SWAP4 POP PUSH2 0x29E9 DUP6 DUP3 PUSH2 0x2121 JUMP JUMPDEST DUP9 MLOAD DUP11 MLOAD PUSH2 0x140 DUP12 ADD MLOAD PUSH1 0x20 ADD MLOAD DUP7 SLOAD SWAP4 SWAP9 POP PUSH2 0x2A15 SWAP4 PUSH1 0x1 PUSH1 0x78 SHL SWAP1 DIV PUSH1 0x1 PUSH1 0x1 PUSH1 0x50 SHL SUB AND PUSH2 0x4101 JUMP JUMPDEST SWAP1 SWAP3 POP SWAP1 POP PUSH2 0x2A24 DUP5 DUP4 PUSH2 0x20E0 JUMP JUMPDEST SWAP4 POP PUSH2 0x2A30 DUP6 DUP3 PUSH2 0x2121 JUMP JUMPDEST SWAP5 POP PUSH2 0x2A3A PUSH2 0x1866 JUMP JUMPDEST PUSH1 0x60 DUP12 ADD MLOAD PUSH1 0x1 PUSH1 0x1 PUSH1 0xA0 SHL SUB SWAP1 DUP2 AND PUSH1 0x0 SWAP1 DUP2 MSTORE PUSH1 0x20 SWAP3 DUP4 MSTORE PUSH1 0x40 DUP1 DUP3 KECCAK256 DUP13 MLOAD SWAP1 SWAP4 AND DUP3 MSTORE SWAP2 SWAP1 SWAP3 MSTORE SWAP1 KECCAK256 DUP1 SLOAD PUSH1 0x1 PUSH1 0x1 PUSH1 0xC8 SHL SUB NOT AND SWAP1 SSTORE POP POP POP JUMPDEST PUSH2 0x2AAB PUSH2 0x2AA4 DUP9 PUSH1 0x0 ADD MLOAD PUSH2 0xDCD PUSH2 0x2A93 DUP11 PUSH1 0x60 ADD MLOAD PUSH2 0x161B JUMP JUMPDEST PUSH2 0xEF9 DUP7 PUSH2 0x1497 DUP15 PUSH1 0x40 ADD MLOAD PUSH2 0x161B JUMP JUMPDEST DUP4 SWAP1 PUSH2 0x20E0 JUMP JUMPDEST SWAP2 POP PUSH1 0x0 DUP3 SLT ISZERO PUSH2 0x2ACD JUMPI PUSH2 0x2AC3 PUSH2 0x1366 DUP6 DUP5 PUSH2 0x20F6 JUMP JUMPDEST PUSH1 0x80 DUP9 ADD MSTORE PUSH1 0x0 SWAP2 POP JUMPDEST POP SWAP6 SWAP5 POP POP POP POP POP JUMP JUMPDEST PUSH1 0x0 DUP1 PUSH1 0x0 PUSH2 0x2B03 PUSH2 0x2AF6 DUP9 PUSH1 0x20 ADD MLOAD DUP9 PUSH2 0x20F6 SWAP1 SWAP2 SWAP1 PUSH4 0xFFFFFFFF AND JUMP JUMPDEST PUSH2 0xDCD DUP10 PUSH1 0x80 ADD MLOAD PUSH2 0x161B JUMP JUMPDEST SWAP1 POP PUSH1 0x0 PUSH2 0x2B15 DUP6 PUSH2 0xDCD DUP10 DUP6 PUSH2 0x1BF1 JUMP JUMPDEST SWAP1 POP DUP1 ISZERO PUSH2 0x2B4E JUMPI PUSH2 0x2B3B PUSH2 0x117A DUP3 PUSH2 0xEF9 PUSH2 0x2B34 DUP13 PUSH1 0xA0 ADD MLOAD PUSH2 0x161B JUMP JUMPDEST DUP11 SWAP1 PUSH2 0x2169 JUMP JUMPDEST SWAP3 POP PUSH2 0x2B4B DUP2 PUSH2 0xEF9 DUP9 DUP6 PUSH2 0x2169 JUMP JUMPDEST SWAP4 POP JUMPDEST POP POP PUSH1 0x0 PUSH2 0x2B5A PUSH2 0x4195 JUMP JUMPDEST DUP9 MLOAD PUSH1 0x1 PUSH1 0x1 PUSH1 0xA0 SHL SUB AND PUSH1 0x0 SWAP1 DUP2 MSTORE PUSH1 0x20 SWAP2 DUP3 MSTORE PUSH1 0x40 DUP1 DUP3 KECCAK256 DUP11 MLOAD DUP4 MSTORE SWAP1 SWAP3 MSTORE KECCAK256 DUP1 SLOAD SWAP1 SWAP2 POP PUSH1 0x1 PUSH1 0x1 PUSH1 0x50 SHL SUB DUP2 AND SWAP1 PUSH1 0x1 PUSH1 0x50 SHL SWAP1 DIV PUSH1 0x9 SWAP1 DUP2 SIGNEXTEND SWAP1 SIGNEXTEND DUP4 DUP3 LT ISZERO PUSH2 0x2BD7 JUMPI PUSH2 0x2BCA PUSH2 0x209B PUSH2 0x2BC3 PUSH4 0x5F5E100 PUSH2 0xEF9 DUP14 PUSH1 0xC0 ADD MLOAD PUSH2 0x1497 DUP9 DUP12 SUB PUSH2 0x161B JUMP JUMPDEST DUP11 SWAP1 PUSH2 0x20F6 JUMP JUMPDEST SWAP5 POP SWAP1 SWAP3 POP PUSH1 0x0 SWAP1 PUSH2 0x2BDD JUMP JUMPDEST DUP4 DUP3 SUB SWAP2 POP JUMPDEST DUP3 SLOAD PUSH1 0x1 PUSH1 0x1 PUSH1 0x50 SHL SUB NOT AND PUSH1 0x1 PUSH1 0x1 PUSH1 0x50 SHL SUB DUP4 AND OR DUP4 SSTORE PUSH1 0x0 DUP6 SLT ISZERO PUSH2 0x2C04 JUMPI PUSH1 0x0 DUP1 REVERT JUMPDEST DUP5 DUP2 SLT ISZERO PUSH2 0x2C77 JUMPI PUSH1 0x0 DUP1 DUP3 SGT PUSH2 0x2C1B JUMPI DUP6 PUSH2 0x2C1F JUMP JUMPDEST DUP2 DUP7 SUB JUMPDEST SWAP1 POP PUSH1 0x0 PUSH2 0x2C3B DUP13 PUSH1 0x0 ADD MLOAD DUP14 PUSH1 0x40 ADD MLOAD DUP5 DUP15 PUSH1 0x0 ADD MLOAD PUSH2 0x41A2 JUMP JUMPDEST SWAP1 POP PUSH1 0x0 DUP4 SGT ISZERO PUSH2 0x2C6C JUMPI PUSH2 0x2C50 DUP4 DUP3 PUSH2 0x20E0 JUMP JUMPDEST DUP6 SLOAD PUSH1 0x1 PUSH1 0x50 SHL PUSH1 0x1 PUSH1 0xA0 SHL SUB NOT AND DUP7 SSTORE SWAP7 POP PUSH1 0x0 SWAP3 POP PUSH2 0x2C70 JUMP JUMPDEST DUP1 SWAP7 POP JUMPDEST POP POP PUSH2 0x2CB6 JUMP JUMPDEST PUSH2 0x2C81 DUP2 DUP7 PUSH2 0x2121 JUMP JUMPDEST SWAP1 POP PUSH2 0x2C8C DUP2 PUSH2 0x42CA JUMP JUMPDEST DUP4 SLOAD PUSH1 0x9 SWAP2 SWAP1 SWAP2 SIGNEXTEND PUSH1 0x1 PUSH1 0x1 PUSH1 0x50 SHL SUB AND PUSH1 0x1 PUSH1 0x50 SHL MUL PUSH1 0x1 PUSH1 0x50 SHL PUSH1 0x1 PUSH1 0xA0 SHL SUB NOT SWAP1 SWAP2 AND OR DUP4 SSTORE JUMPDEST DUP9 PUSH1 0x0 ADD MLOAD DUP11 PUSH1 0x0 ADD MLOAD PUSH1 0x1 PUSH1 0x1 PUSH1 0xA0 SHL SUB AND PUSH32 0xF5B347A56F0B5140F05EEC05FF743978670A56685689FDC2C3193D71CFAC31A9 DUP4 DUP6 PUSH1 0x40 MLOAD PUSH2 0x2CFA SWAP3 SWAP2 SWAP1 PUSH2 0x53CA JUMP JUMPDEST PUSH1 0x40 MLOAD DUP1 SWAP2 SUB SWAP1 LOG3 POP POP POP SWAP6 POP SWAP6 SWAP4 POP POP POP POP JUMP JUMPDEST PUSH1 0x0 PUSH4 0x5F5E100 DUP4 PUSH1 0x40 ADD MLOAD EQ ISZERO PUSH2 0x2D28 JUMPI POP DUP1 PUSH2 0xC1A JUMP JUMPDEST PUSH2 0xC17 PUSH4 0x5F5E100 PUSH2 0xEF9 DUP6 PUSH1 0x40 ADD MLOAD DUP6 PUSH2 0x2169 SWAP1 SWAP2 SWAP1 PUSH4 0xFFFFFFFF AND JUMP JUMPDEST PUSH1 0x0 DUP1 PUSH1 0x2 DUP7 PUSH1 0x60 ADD MLOAD PUSH1 0x5 DUP2 GT ISZERO PUSH2 0x2D5C JUMPI INVALID JUMPDEST EQ ISZERO PUSH2 0x2D74 JUMPI PUSH2 0x2D6D DUP7 DUP6 DUP6 PUSH2 0x42FA JUMP JUMPDEST SWAP1 POP PUSH2 0x2DD1 JUMP JUMPDEST PUSH1 0x0 PUSH2 0x2D7F DUP7 PUSH2 0x3131 JUMP JUMPDEST SWAP1 POP PUSH1 0x5 DUP8 PUSH1 0x60 ADD MLOAD PUSH1 0x5 DUP2 GT ISZERO PUSH2 0x2D93 JUMPI INVALID JUMPDEST EQ ISZERO PUSH2 0x2DAB JUMPI PUSH2 0x2DA4 DUP2 DUP7 DUP7 PUSH2 0x43B7 JUMP JUMPDEST SWAP2 POP PUSH2 0x2DCF JUMP JUMPDEST PUSH1 0x1 DUP8 PUSH1 0x60 ADD MLOAD PUSH1 0x5 DUP2 GT ISZERO PUSH2 0x2DBD JUMPI INVALID JUMPDEST EQ ISZERO PUSH2 0x9C JUMPI PUSH2 0x2DA4 DUP8 DUP3 DUP8 DUP8 PUSH2 0x4468 JUMP JUMPDEST POP JUMPDEST PUSH2 0x2DDD PUSH2 0x10FB DUP3 PUSH2 0x161B JUMP JUMPDEST SWAP7 SWAP6 POP POP POP POP POP POP JUMP JUMPDEST PUSH1 0x0 DUP1 PUSH1 0x0 DUP1 PUSH2 0x2DF6 DUP9 PUSH2 0x237A JUMP JUMPDEST SWAP2 POP SWAP2 POP PUSH1 0x0 DUP1 DUP9 PUSH1 0x80 ADD MLOAD SLT ISZERO PUSH2 0x2E6B JUMPI PUSH1 0x4 DUP4 PUSH1 0x60 ADD MLOAD PUSH1 0x5 DUP2 GT ISZERO PUSH2 0x2E1A JUMPI INVALID JUMPDEST EQ ISZERO PUSH2 0x2E37 JUMPI PUSH2 0x2E30 PUSH2 0x117A DUP10 PUSH1 0x80 ADD MLOAD PUSH2 0x108B JUMP JUMPDEST SWAP1 POP PUSH2 0x2E6B JUMP JUMPDEST PUSH1 0x0 PUSH2 0x2E58 PUSH2 0x10FB DUP11 PUSH1 0x80 ADD MLOAD DUP13 PUSH2 0x160 ADD MLOAD PUSH2 0x1BF1 SWAP1 SWAP2 SWAP1 PUSH4 0xFFFFFFFF AND JUMP JUMPDEST SWAP1 POP PUSH2 0x2E67 PUSH2 0x117A DUP5 DUP4 PUSH2 0x4566 JUMP JUMPDEST SWAP2 POP POP JUMPDEST PUSH1 0x40 DUP9 ADD MLOAD PUSH1 0x0 SWAP1 ISZERO PUSH2 0x2F43 JUMPI PUSH1 0x0 PUSH2 0x2E84 DUP5 ADDRESS PUSH2 0x45A2 JUMP JUMPDEST SWAP1 POP DUP11 PUSH1 0x0 ADD MLOAD PUSH1 0x1 PUSH1 0x1 PUSH1 0xA0 SHL SUB AND PUSH4 0x44F05108 DUP12 PUSH1 0x0 ADD MLOAD DUP13 PUSH1 0x20 ADD MLOAD DUP14 PUSH1 0x40 ADD MLOAD DUP15 PUSH1 0x60 ADD MLOAD DUP9 DUP16 DUP16 PUSH1 0x40 MLOAD DUP9 PUSH4 0xFFFFFFFF AND PUSH1 0xE0 SHL DUP2 MSTORE PUSH1 0x4 ADD PUSH2 0x2ED2 SWAP8 SWAP7 SWAP6 SWAP5 SWAP4 SWAP3 SWAP2 SWAP1 PUSH2 0x52D9 JUMP JUMPDEST PUSH1 0x20 PUSH1 0x40 MLOAD DUP1 DUP4 SUB DUP2 PUSH1 0x0 DUP8 DUP1 EXTCODESIZE ISZERO DUP1 ISZERO PUSH2 0x2EEC JUMPI PUSH1 0x0 DUP1 REVERT JUMPDEST POP GAS CALL ISZERO DUP1 ISZERO PUSH2 0x2F00 JUMPI RETURNDATASIZE PUSH1 0x0 DUP1 RETURNDATACOPY RETURNDATASIZE PUSH1 0x0 REVERT JUMPDEST POP POP POP POP PUSH1 0x40 MLOAD RETURNDATASIZE PUSH1 0x1F NOT PUSH1 0x1F DUP3 ADD AND DUP3 ADD DUP1 PUSH1 0x40 MSTORE POP DUP2 ADD SWAP1 PUSH2 0x2F24 SWAP2 SWAP1 PUSH2 0x5234 JUMP JUMPDEST SWAP6 POP PUSH1 0x0 PUSH2 0x2F32 DUP6 ADDRESS PUSH2 0x45A2 JUMP JUMPDEST SWAP1 POP PUSH2 0x2F3E DUP2 DUP4 PUSH2 0x1BDC JUMP JUMPDEST SWAP3 POP POP POP JUMPDEST DUP2 DUP2 LT ISZERO PUSH2 0x2FDE JUMPI DUP1 DUP3 SUB PUSH1 0x3 DUP5 PUSH1 0x60 ADD MLOAD PUSH1 0x5 DUP2 GT ISZERO PUSH2 0x2F60 JUMPI INVALID JUMPDEST EQ ISZERO PUSH2 0x2F9E JUMPI CALLVALUE DUP2 GT ISZERO PUSH2 0x2F86 JUMPI PUSH1 0x40 MLOAD PUSH3 0x461BCD PUSH1 0xE5 SHL DUP2 MSTORE PUSH1 0x4 ADD PUSH2 0x317 SWAP1 PUSH2 0x5486 JUMP JUMPDEST PUSH2 0x2F96 DUP11 PUSH1 0x0 ADD MLOAD DUP3 CALLVALUE SUB PUSH2 0x3144 JUMP JUMPDEST DUP3 SWAP2 POP PUSH2 0x2FDC JUMP JUMPDEST PUSH1 0x0 PUSH2 0x2FC3 DUP12 PUSH1 0x0 ADD MLOAD DUP14 PUSH1 0x40 ADD MLOAD PUSH2 0xFFFF AND PUSH2 0x2FBA DUP6 PUSH2 0x161B JUMP JUMPDEST DUP9 SWAP3 SWAP2 SWAP1 PUSH2 0x23D3 JUMP JUMPDEST SWAP1 POP PUSH2 0x2FD8 PUSH2 0x2FD1 DUP3 PUSH2 0xF2C JUMP JUMPDEST DUP5 SWAP1 PUSH2 0x343D JUMP JUMPDEST SWAP3 POP POP JUMPDEST POP JUMPDEST DUP2 DUP2 LT ISZERO PUSH2 0x2FFE JUMPI PUSH1 0x40 MLOAD PUSH3 0x461BCD PUSH1 0xE5 SHL DUP2 MSTORE PUSH1 0x4 ADD PUSH2 0x317 SWAP1 PUSH2 0x5486 JUMP JUMPDEST PUSH1 0x0 PUSH1 0x4 DUP6 PUSH1 0x60 ADD MLOAD PUSH1 0x5 DUP2 GT ISZERO PUSH2 0x3012 JUMPI INVALID JUMPDEST EQ ISZERO PUSH2 0x3028 JUMPI PUSH2 0x3021 DUP3 PUSH2 0x161B JUMP JUMPDEST SWAP1 POP PUSH2 0x3042 JUMP JUMPDEST DUP2 ISZERO PUSH2 0x3042 JUMPI PUSH1 0x40 DUP12 ADD MLOAD PUSH2 0x303F SWAP1 DUP7 SWAP1 DUP5 PUSH2 0x247B JUMP JUMPDEST SWAP1 POP JUMPDEST PUSH2 0x304C DUP6 DUP3 PUSH2 0x2572 JUMP JUMPDEST SWAP7 POP POP POP POP POP POP SWAP5 POP SWAP5 SWAP3 POP POP POP JUMP JUMPDEST PUSH2 0x140 DUP2 ADD MLOAD MLOAD PUSH1 0x0 SWAP1 PUSH2 0xFFFF AND ISZERO ISZERO DUP1 PUSH2 0xC1A JUMPI POP POP PUSH2 0x140 ADD MLOAD PUSH1 0x20 ADD MLOAD PUSH2 0xFFFF AND ISZERO ISZERO SWAP1 JUMP JUMPDEST PUSH1 0x0 PUSH5 0xFFFFFFFFFF DUP3 GT ISZERO PUSH2 0xF3B JUMPI PUSH1 0x0 DUP1 REVERT JUMPDEST PUSH1 0x0 PUSH4 0xFFFFFFFF DUP3 GT ISZERO PUSH2 0xF3B JUMPI PUSH1 0x0 DUP1 REVERT JUMPDEST PUSH1 0x0 PUSH3 0xF4240 DUP3 PUSH1 0x1A DUP2 GT ISZERO PUSH2 0x30BE JUMPI INVALID JUMPDEST ADD SWAP3 SWAP2 POP POP JUMP JUMPDEST PUSH1 0x0 DUP1 PUSH1 0x0 DUP1 PUSH1 0x0 DUP1 PUSH2 0x30D6 PUSH2 0x464C JUMP JUMPDEST PUSH1 0x1 PUSH1 0x1 PUSH1 0xA0 SHL SUB SWAP1 SWAP8 AND PUSH1 0x0 SWAP1 DUP2 MSTORE PUSH1 0x20 SWAP8 SWAP1 SWAP8 MSTORE POP POP PUSH1 0x40 SWAP1 SWAP5 KECCAK256 SLOAD PUSH2 0xFFFF DUP2 AND SWAP6 PUSH4 0xFFFFFFFF PUSH3 0x10000 DUP4 DIV DUP2 AND SWAP7 POP PUSH7 0x1000000000000 DUP4 DIV AND SWAP5 POP PUSH1 0xFF PUSH1 0x1 PUSH1 0x50 SHL DUP4 DIV AND SWAP4 POP PUSH1 0x1 PUSH1 0x58 SHL SWAP1 SWAP2 DIV PUSH1 0xD8 SHL SWAP2 POP JUMP JUMPDEST PUSH2 0x3139 PUSH2 0x4EAC JUMP JUMPDEST PUSH2 0xC1A DUP3 PUSH1 0x1 PUSH2 0x3202 JUMP JUMPDEST PUSH1 0x40 MLOAD PUSH1 0x1 PUSH1 0x1 PUSH1 0xA0 SHL SUB DUP4 AND SWAP1 DUP3 ISZERO PUSH2 0x8FC MUL SWAP1 DUP4 SWAP1 PUSH1 0x0 DUP2 DUP2 DUP2 DUP6 DUP9 DUP9 CALL SWAP4 POP POP POP POP ISZERO DUP1 ISZERO PUSH2 0x1012 JUMPI RETURNDATASIZE PUSH1 0x0 DUP1 RETURNDATACOPY RETURNDATASIZE PUSH1 0x0 REVERT JUMPDEST DUP4 PUSH1 0x1 PUSH1 0x1 PUSH1 0xA0 SHL SUB AND PUSH4 0x23B872DD DUP5 DUP5 DUP5 PUSH1 0x40 MLOAD DUP5 PUSH4 0xFFFFFFFF AND PUSH1 0xE0 SHL DUP2 MSTORE PUSH1 0x4 ADD DUP1 DUP5 PUSH1 0x1 PUSH1 0x1 PUSH1 0xA0 SHL SUB AND DUP2 MSTORE PUSH1 0x20 ADD DUP4 PUSH1 0x1 PUSH1 0x1 PUSH1 0xA0 SHL SUB AND DUP2 MSTORE PUSH1 0x20 ADD DUP3 DUP2 MSTORE PUSH1 0x20 ADD SWAP4 POP POP POP POP PUSH1 0x0 PUSH1 0x40 MLOAD DUP1 DUP4 SUB DUP2 PUSH1 0x0 DUP8 DUP1 EXTCODESIZE ISZERO DUP1 ISZERO PUSH2 0x31E2 JUMPI PUSH1 0x0 DUP1 REVERT JUMPDEST POP GAS CALL ISZERO DUP1 ISZERO PUSH2 0x31F6 JUMPI RETURNDATASIZE PUSH1 0x0 DUP1 RETURNDATACOPY RETURNDATASIZE PUSH1 0x0 REVERT JUMPDEST POP POP POP POP PUSH2 0x16A3 PUSH2 0x4659 JUMP JUMPDEST PUSH2 0x320A PUSH2 0x4EAC JUMP JUMPDEST PUSH1 0x0 PUSH2 0x3214 PUSH2 0x46C6 JUMP JUMPDEST PUSH1 0x0 DUP6 DUP2 MSTORE PUSH1 0x20 DUP3 DUP2 MSTORE PUSH1 0x40 DUP1 DUP4 KECCAK256 DUP8 ISZERO ISZERO DUP5 MSTORE DUP3 MSTORE SWAP2 DUP3 SWAP1 KECCAK256 DUP3 MLOAD PUSH1 0xA0 DUP2 ADD DUP5 MSTORE DUP2 SLOAD PUSH1 0x1 PUSH1 0x1 PUSH1 0xA0 SHL SUB DUP2 AND DUP3 MSTORE PUSH1 0xFF PUSH1 0x1 PUSH1 0xA0 SHL DUP3 DIV DUP2 AND ISZERO ISZERO SWAP5 DUP4 ADD SWAP5 SWAP1 SWAP5 MSTORE PUSH1 0x1 PUSH1 0xB0 SHL DUP2 DIV DUP5 AND PUSH1 0xA EXP SWAP5 DUP3 ADD SWAP5 SWAP1 SWAP5 MSTORE SWAP4 SWAP5 POP SWAP3 SWAP2 PUSH1 0x60 DUP4 ADD SWAP2 PUSH1 0x1 PUSH1 0xA8 SHL SWAP1 SWAP2 DIV AND PUSH1 0x5 DUP2 GT ISZERO PUSH2 0x3289 JUMPI INVALID JUMPDEST DUP2 MSTORE SWAP2 SLOAD PUSH1 0x1 PUSH1 0xB8 SHL SWAP1 DIV PUSH9 0xFFFFFFFFFFFFFFFFFF AND PUSH1 0x20 SWAP1 SWAP3 ADD SWAP2 SWAP1 SWAP2 MSTORE SWAP5 SWAP4 POP POP POP POP JUMP JUMPDEST PUSH1 0x0 DUP2 PUSH2 0x32BF JUMPI POP PUSH1 0x0 PUSH2 0xC1A JUMP JUMPDEST PUSH1 0x0 DUP3 SGT PUSH2 0x32CC JUMPI PUSH1 0x0 DUP1 REVERT JUMPDEST PUSH1 0x0 PUSH2 0x32D7 DUP5 PUSH2 0x3131 JUMP JUMPDEST SWAP1 POP PUSH1 0x0 PUSH2 0x32E8 DUP3 PUSH1 0x0 ADD MLOAD PUSH2 0x46D3 JUMP JUMPDEST SWAP1 POP PUSH1 0x2 DUP2 SDIV PUSH12 0x33B2E3C9FD0803CE8000000 PUSH1 0x1 PUSH1 0x1 PUSH1 0xFF SHL SUB DUP3 SWAP1 SUB SDIV DUP6 SGT ISZERO PUSH2 0x3313 JUMPI PUSH1 0x0 DUP1 REVERT JUMPDEST DUP2 DUP2 PUSH12 0x33B2E3C9FD0803CE8000000 DUP8 MUL ADD DUP2 PUSH2 0x332C JUMPI INVALID JUMPDEST SDIV SWAP7 SWAP6 POP POP POP POP POP POP JUMP JUMPDEST PUSH1 0x0 DUP1 PUSH2 0x3342 PUSH2 0x475E JUMP JUMPDEST PUSH1 0x1 PUSH1 0x1 PUSH1 0xA0 SHL SUB DUP7 AND PUSH1 0x0 SWAP1 DUP2 MSTORE PUSH1 0x20 SWAP2 DUP3 MSTORE PUSH1 0x40 DUP1 DUP3 KECCAK256 PUSH2 0xFFFF DUP9 AND DUP4 MSTORE SWAP1 SWAP3 MSTORE KECCAK256 DUP1 SLOAD SWAP1 SWAP2 POP PUSH2 0x3385 SWAP1 PUSH1 0x1 PUSH1 0x50 SHL SWAP1 DIV PUSH1 0x1 PUSH1 0x1 PUSH1 0x50 SHL SUB AND DUP5 PUSH2 0x2121 JUMP JUMPDEST SWAP2 POP PUSH1 0x0 DUP4 SLT ISZERO PUSH2 0x33BA JUMPI DUP1 SLOAD PUSH1 0x1 PUSH1 0x1 PUSH1 0x50 SHL SUB AND DUP3 SGT ISZERO PUSH2 0x33BA JUMPI PUSH1 0x40 MLOAD PUSH3 0x461BCD PUSH1 0xE5 SHL DUP2 MSTORE PUSH1 0x4 ADD PUSH2 0x317 SWAP1 PUSH2 0x5564 JUMP JUMPDEST PUSH2 0x33C6 PUSH2 0x117F DUP4 PUSH2 0xF2C JUMP JUMPDEST DUP2 SLOAD PUSH1 0x1 PUSH1 0x1 PUSH1 0x50 SHL SUB SWAP2 SWAP1 SWAP2 AND PUSH1 0x1 PUSH1 0x50 SHL MUL PUSH1 0x1 PUSH1 0x50 SHL PUSH1 0x1 PUSH1 0xA0 SHL SUB NOT SWAP1 SWAP2 AND OR DUP2 SSTORE PUSH1 0x40 MLOAD PUSH2 0xFFFF DUP6 AND SWAP1 PUSH1 0x1 PUSH1 0x1 PUSH1 0xA0 SHL SUB DUP8 AND SWAP1 PUSH32 0x20478EF460E49D010960D4F3FFF35D8DAE385443ABFAC09035D6A2CCBCD834C4 SWAP1 PUSH2 0x342D SWAP1 DUP7 SWAP1 PUSH2 0x53C1 JUMP JUMPDEST PUSH1 0x40 MLOAD DUP1 SWAP2 SUB SWAP1 LOG3 POP SWAP4 SWAP3 POP POP POP JUMP JUMPDEST PUSH1 0x0 DUP3 DUP3 ADD DUP4 DUP2 LT ISZERO PUSH2 0xC17 JUMPI PUSH1 0x0 DUP1 REVERT JUMPDEST PUSH1 0x0 DUP1 PUSH2 0x3497 DUP9 PUSH1 0x40 MLOAD DUP1 PUSH1 0xA0 ADD PUSH1 0x40 MSTORE DUP1 DUP11 PUSH1 0x1 PUSH1 0x1 PUSH1 0xA0 SHL SUB AND DUP2 MSTORE PUSH1 0x20 ADD DUP11 PUSH1 0x1 PUSH1 0x1 PUSH1 0xA0 SHL SUB AND DUP2 MSTORE PUSH1 0x20 ADD DUP10 DUP2 MSTORE PUSH1 0x20 ADD DUP9 DUP2 MSTORE PUSH1 0x20 ADD PUSH1 0x0 DUP2 MSTORE POP DUP7 DUP7 PUSH2 0x2DE7 JUMP JUMPDEST SWAP1 SWAP10 SWAP1 SWAP9 POP SWAP7 POP POP POP POP POP POP POP JUMP JUMPDEST PUSH1 0x0 DUP1 PUSH2 0xC1A PUSH1 0x14 PUSH2 0x30AC JUMP JUMPDEST PUSH1 0x0 DUP1 PUSH1 0x0 DUP1 PUSH1 0x0 PUSH2 0x34C4 DUP7 PUSH2 0x476B JUMP JUMPDEST SWAP1 SWAP3 POP SWAP1 POP PUSH1 0x0 PUSH1 0x1 PUSH1 0x1 PUSH1 0xA0 SHL SUB DUP4 AND PUSH2 0x34E9 JUMPI POP PUSH1 0x0 SWAP1 POP PUSH5 0x2540BE400 PUSH2 0x3569 JUMP JUMPDEST DUP3 PUSH1 0x1 PUSH1 0x1 PUSH1 0xA0 SHL SUB AND PUSH4 0xB2FFFB04 PUSH1 0x40 MLOAD DUP2 PUSH4 0xFFFFFFFF AND PUSH1 0xE0 SHL DUP2 MSTORE PUSH1 0x4 ADD PUSH1 0x20 PUSH1 0x40 MLOAD DUP1 DUP4 SUB DUP2 DUP7 DUP1 EXTCODESIZE ISZERO DUP1 ISZERO PUSH2 0x3522 JUMPI PUSH1 0x0 DUP1 REVERT JUMPDEST POP GAS STATICCALL ISZERO DUP1 ISZERO PUSH2 0x3536 JUMPI RETURNDATASIZE PUSH1 0x0 DUP1 RETURNDATACOPY RETURNDATASIZE PUSH1 0x0 REVERT JUMPDEST POP POP POP POP PUSH1 0x40 MLOAD RETURNDATASIZE PUSH1 0x1F NOT PUSH1 0x1F DUP3 ADD AND DUP3 ADD DUP1 PUSH1 0x40 MSTORE POP DUP2 ADD SWAP1 PUSH2 0x355A SWAP2 SWAP1 PUSH2 0x5234 JUMP JUMPDEST SWAP1 POP PUSH1 0x0 DUP2 SGT PUSH2 0x3569 JUMPI PUSH1 0x0 DUP1 REVERT JUMPDEST SWAP7 SWAP2 SWAP6 POP SWAP4 POP SWAP2 POP POP JUMP JUMPDEST PUSH1 0x0 DUP1 PUSH2 0x3584 DUP8 PUSH2 0xFFFF AND PUSH2 0x3131 JUMP JUMPDEST SWAP1 POP DUP1 PUSH1 0x40 ADD MLOAD PUSH1 0x0 EQ ISZERO PUSH2 0x35A3 JUMPI PUSH2 0x35A0 DUP8 PUSH2 0xFFFF AND PUSH2 0x1AE0 JUMP JUMPDEST SWAP1 POP JUMPDEST PUSH1 0x40 MLOAD PUSH4 0xE9377111 PUSH1 0xE0 SHL DUP2 MSTORE PUSH2 0x2567 SWAP1 PUSH1 0x1 PUSH1 0x1 PUSH1 0xA0 SHL SUB DUP9 AND SWAP1 PUSH4 0xE9377111 SWAP1 PUSH2 0x35D7 SWAP1 DUP10 SWAP1 DUP10 SWAP1 DUP10 SWAP1 PUSH1 0x4 ADD PUSH2 0x5367 JUMP JUMPDEST PUSH1 0x20 PUSH1 0x40 MLOAD DUP1 DUP4 SUB DUP2 DUP7 DUP1 EXTCODESIZE ISZERO DUP1 ISZERO PUSH2 0x35EF JUMPI PUSH1 0x0 DUP1 REVERT JUMPDEST POP GAS STATICCALL ISZERO DUP1 ISZERO PUSH2 0x3603 JUMPI RETURNDATASIZE PUSH1 0x0 DUP1 RETURNDATACOPY RETURNDATASIZE PUSH1 0x0 REVERT JUMPDEST POP POP POP POP PUSH1 0x40 MLOAD RETURNDATASIZE PUSH1 0x1F NOT PUSH1 0x1F DUP3 ADD AND DUP3 ADD DUP1 PUSH1 0x40 MSTORE POP DUP2 ADD SWAP1 PUSH2 0x3627 SWAP2 SWAP1 PUSH2 0x5234 JUMP JUMPDEST DUP3 SWAP1 PUSH2 0x2572 JUMP JUMPDEST PUSH2 0x3636 PUSH2 0x4EFD JUMP JUMPDEST PUSH1 0x0 PUSH2 0x3640 PUSH2 0x47A2 JUMP JUMPDEST PUSH1 0x0 DUP5 DUP2 MSTORE PUSH1 0x20 DUP3 SWAP1 MSTORE PUSH1 0x40 DUP2 KECCAK256 SWAP2 SWAP3 POP DUP1 PUSH1 0x1 DUP7 EQ ISZERO PUSH2 0x366D JUMPI POP PUSH8 0xDE0B6B3A7640000 SWAP1 POP DUP1 PUSH2 0x3743 JUMP JUMPDEST DUP3 SLOAD PUSH1 0x40 DUP1 MLOAD PUSH4 0x3FABE5A3 PUSH1 0xE2 SHL DUP2 MSTORE SWAP1 MLOAD PUSH1 0x1 PUSH1 0x1 PUSH1 0xA0 SHL SUB SWAP1 SWAP3 AND SWAP2 PUSH4 0xFEAF968C SWAP2 PUSH1 0x4 DUP1 DUP3 ADD SWAP3 PUSH1 0xA0 SWAP3 SWAP1 SWAP2 SWAP1 DUP3 SWAP1 SUB ADD DUP2 DUP7 DUP1 EXTCODESIZE ISZERO DUP1 ISZERO PUSH2 0x36B1 JUMPI PUSH1 0x0 DUP1 REVERT JUMPDEST POP GAS STATICCALL ISZERO DUP1 ISZERO PUSH2 0x36C5 JUMPI RETURNDATASIZE PUSH1 0x0 DUP1 RETURNDATACOPY RETURNDATASIZE PUSH1 0x0 REVERT JUMPDEST POP POP POP POP PUSH1 0x40 MLOAD RETURNDATASIZE PUSH1 0x1F NOT PUSH1 0x1F DUP3 ADD AND DUP3 ADD DUP1 PUSH1 0x40 MSTORE POP DUP2 ADD SWAP1 PUSH2 0x36E9 SWAP2 SWAP1 PUSH2 0x524C JUMP JUMPDEST POP SWAP2 SWAP4 POP POP PUSH1 0x0 DUP4 SGT SWAP2 POP PUSH2 0x3712 SWAP1 POP JUMPI PUSH1 0x40 MLOAD PUSH3 0x461BCD PUSH1 0xE5 SHL DUP2 MSTORE PUSH1 0x4 ADD PUSH2 0x317 SWAP1 PUSH2 0x5676 JUMP JUMPDEST DUP3 SLOAD PUSH1 0xFF PUSH1 0x1 PUSH1 0xA0 SHL DUP3 DIV DUP2 AND PUSH1 0xA EXP SWAP4 POP PUSH1 0x1 PUSH1 0xA8 SHL SWAP1 SWAP2 DIV AND ISZERO PUSH2 0x3743 JUMPI PUSH2 0x3740 DUP2 PUSH2 0xEF9 DUP5 DUP1 PUSH2 0x2169 JUMP JUMPDEST SWAP1 POP JUMPDEST PUSH1 0x40 DUP1 MLOAD PUSH1 0xA0 DUP2 ADD DUP3 MSTORE SWAP3 DUP4 MSTORE PUSH1 0x20 DUP4 ADD SWAP2 SWAP1 SWAP2 MSTORE SWAP2 SLOAD PUSH1 0xFF PUSH1 0x1 PUSH1 0xB0 SHL DUP3 DIV DUP2 AND SWAP4 DUP4 ADD SWAP4 SWAP1 SWAP4 MSTORE PUSH1 0x1 PUSH1 0xB8 SHL DUP2 DIV DUP4 AND PUSH1 0x60 DUP4 ADD MSTORE PUSH1 0x1 PUSH1 0xC0 SHL SWAP1 DIV SWAP1 SWAP2 AND PUSH1 0x80 DUP3 ADD MSTORE SWAP2 POP POP SWAP2 SWAP1 POP JUMP JUMPDEST PUSH1 0x0 DUP1 PUSH2 0x379C PUSH2 0x47AF JUMP JUMPDEST PUSH1 0x1 PUSH1 0x1 PUSH1 0xA0 SHL SUB DUP7 AND PUSH1 0x0 SWAP1 DUP2 MSTORE PUSH1 0x20 SWAP2 DUP3 MSTORE PUSH1 0x40 DUP1 DUP3 KECCAK256 DUP8 DUP4 MSTORE DUP4 MSTORE DUP1 DUP3 KECCAK256 PUSH2 0xFFFF DUP11 AND DUP4 MSTORE SWAP1 SWAP3 MSTORE SWAP1 DUP2 KECCAK256 DUP1 SLOAD SWAP1 SWAP3 POP PUSH1 0x1 PUSH1 0x1 PUSH1 0x50 SHL SUB DUP1 DUP3 AND SWAP3 PUSH1 0x1 PUSH1 0x50 SHL SWAP1 SWAP3 DIV AND SWAP1 PUSH2 0x37F6 PUSH2 0x2562 DUP4 PUSH2 0x2DB DUP10 DUP8 PUSH2 0xF43 JUMP JUMPDEST SWAP1 POP PUSH1 0x0 PUSH2 0x3807 DUP11 PUSH2 0xFFFF AND PUSH2 0x362E JUMP JUMPDEST SWAP1 POP PUSH1 0x0 PUSH2 0x3815 DUP13 DUP4 PUSH2 0x47BC JUMP JUMPDEST SWAP1 POP PUSH2 0x3832 DUP2 PUSH2 0xEF9 DUP15 PUSH1 0x0 ADD MLOAD DUP7 PUSH2 0x2169 SWAP1 SWAP2 SWAP1 PUSH4 0xFFFFFFFF AND JUMP JUMPDEST SWAP13 SWAP12 POP POP POP POP POP POP POP POP POP POP POP POP JUMP JUMPDEST PUSH1 0x0 DUP1 PUSH1 0x0 DUP1 PUSH1 0x0 PUSH2 0x3853 DUP7 PUSH2 0x476B JUMP JUMPDEST SWAP1 SWAP3 POP SWAP1 POP PUSH1 0x0 PUSH1 0x1 PUSH1 0x1 PUSH1 0xA0 SHL SUB DUP4 AND PUSH2 0x3878 JUMPI POP PUSH1 0x0 SWAP1 POP PUSH5 0x2540BE400 PUSH2 0x3569 JUMP JUMPDEST DUP3 PUSH1 0x1 PUSH1 0x1 PUSH1 0xA0 SHL SUB AND PUSH4 0x1EE10833 PUSH1 0x40 MLOAD DUP2 PUSH4 0xFFFFFFFF AND PUSH1 0xE0 SHL DUP2 MSTORE PUSH1 0x4 ADD PUSH1 0x20 PUSH1 0x40 MLOAD DUP1 DUP4 SUB DUP2 PUSH1 0x0 DUP8 DUP1 EXTCODESIZE ISZERO DUP1 ISZERO PUSH2 0x38B3 JUMPI PUSH1 0x0 DUP1 REVERT JUMPDEST POP GAS CALL ISZERO DUP1 ISZERO PUSH2 0x3536 JUMPI RETURNDATASIZE PUSH1 0x0 DUP1 RETURNDATACOPY RETURNDATASIZE PUSH1 0x0 REVERT JUMPDEST PUSH1 0x0 DUP1 DUP3 SLT ISZERO PUSH2 0x38E1 JUMPI PUSH2 0x38DA DUP3 PUSH2 0x108B JUMP JUMPDEST SWAP1 POP PUSH2 0xF3E JUMP JUMPDEST POP DUP1 PUSH2 0xF3E JUMP JUMPDEST PUSH1 0x0 DUP2 PUSH2 0x38F7 JUMPI POP PUSH1 0x0 PUSH2 0xC1A JUMP JUMPDEST PUSH1 0x0 PUSH2 0x3902 DUP5 PUSH2 0x46D3 JUMP JUMPDEST SWAP1 POP PUSH1 0x0 PUSH2 0x390F DUP5 PUSH2 0x38C7 JUMP JUMPDEST SWAP1 POP DUP2 PUSH12 0x19D971E4FE8401E74000001 PUSH1 0x1 PUSH1 0xFF SHL SUB DUP2 PUSH2 0x392C JUMPI INVALID JUMPDEST SDIV DUP2 SGT ISZERO PUSH2 0x3939 JUMPI PUSH1 0x0 DUP1 REVERT JUMPDEST PUSH12 0x33B2E3C9FD0803CE8000000 PUSH12 0x19D971E4FE8401E74000000 DUP4 DUP4 MUL ADD SDIV PUSH1 0x0 DUP6 SGT PUSH2 0x396E JUMPI PUSH2 0x3969 DUP2 PUSH2 0x108B JUMP JUMPDEST PUSH2 0x2DDD JUMP JUMPDEST SWAP6 SWAP5 POP POP POP POP POP JUMP JUMPDEST PUSH1 0x0 DUP1 DUP1 DUP1 PUSH1 0x5 DUP8 PUSH1 0x60 ADD MLOAD PUSH1 0x5 DUP2 GT ISZERO PUSH2 0x398E JUMPI INVALID JUMPDEST EQ PUSH2 0x39A0 JUMPI PUSH4 0x70A08231 PUSH1 0xE0 SHL PUSH2 0x39A9 JUMP JUMPDEST PUSH4 0xED1279F PUSH1 0xE1 SHL JUMPDEST SWAP1 POP DUP7 PUSH1 0x20 ADD MLOAD ISZERO PUSH2 0x39C5 JUMPI DUP7 MLOAD PUSH2 0x39C2 SWAP1 ADDRESS DUP4 PUSH2 0x3AD7 JUMP JUMPDEST SWAP3 POP JUMPDEST DUP7 MLOAD PUSH2 0x39D2 SWAP1 DUP8 DUP8 PUSH2 0x47E1 JUMP JUMPDEST DUP7 PUSH1 0x20 ADD MLOAD DUP1 PUSH2 0x39E6 JUMPI POP PUSH1 0x0 DUP8 PUSH1 0x80 ADD MLOAD GT JUMPDEST ISZERO PUSH2 0x39FB JUMPI DUP7 MLOAD PUSH2 0x39F8 SWAP1 ADDRESS DUP4 PUSH2 0x3AD7 JUMP JUMPDEST SWAP2 POP JUMPDEST PUSH1 0x80 DUP8 ADD MLOAD ISZERO PUSH2 0x3A36 JUMPI PUSH1 0x0 PUSH2 0x3A19 DUP9 PUSH2 0x3A14 DUP6 PUSH2 0x161B JUMP JUMPDEST PUSH2 0x2572 JUMP JUMPDEST SWAP1 POP PUSH2 0x3A28 DUP9 PUSH1 0x80 ADD MLOAD PUSH2 0x161B JUMP JUMPDEST DUP2 SGT ISZERO PUSH2 0x3A34 JUMPI PUSH1 0x0 DUP1 REVERT JUMPDEST POP JUMPDEST DUP7 PUSH1 0x20 ADD MLOAD ISZERO PUSH2 0x3A57 JUMPI PUSH2 0x3A4D PUSH2 0x2562 DUP4 DUP6 PUSH2 0x3D49 JUMP JUMPDEST SWAP4 POP POP POP POP PUSH2 0x159D JUMP JUMPDEST PUSH2 0x3A4D DUP6 PUSH2 0x161B JUMP JUMPDEST DUP3 PUSH1 0x1 PUSH1 0x1 PUSH1 0xA0 SHL SUB AND PUSH4 0xA9059CBB DUP4 DUP4 PUSH1 0x40 MLOAD DUP4 PUSH4 0xFFFFFFFF AND PUSH1 0xE0 SHL DUP2 MSTORE PUSH1 0x4 ADD DUP1 DUP4 PUSH1 0x1 PUSH1 0x1 PUSH1 0xA0 SHL SUB AND DUP2 MSTORE PUSH1 0x20 ADD DUP3 DUP2 MSTORE PUSH1 0x20 ADD SWAP3 POP POP POP PUSH1 0x0 PUSH1 0x40 MLOAD DUP1 DUP4 SUB DUP2 PUSH1 0x0 DUP8 DUP1 EXTCODESIZE ISZERO DUP1 ISZERO PUSH2 0x3AB7 JUMPI PUSH1 0x0 DUP1 REVERT JUMPDEST POP GAS CALL ISZERO DUP1 ISZERO PUSH2 0x3ACB JUMPI RETURNDATASIZE PUSH1 0x0 DUP1 RETURNDATACOPY RETURNDATASIZE PUSH1 0x0 REVERT JUMPDEST POP POP POP POP PUSH2 0x1012 PUSH2 0x4659 JUMP JUMPDEST PUSH1 0x40 DUP1 MLOAD PUSH1 0x1 PUSH1 0x1 PUSH1 0xA0 SHL SUB DUP5 DUP2 AND PUSH1 0x24 DUP1 DUP5 ADD SWAP2 SWAP1 SWAP2 MSTORE DUP4 MLOAD DUP1 DUP5 SUB SWAP1 SWAP2 ADD DUP2 MSTORE PUSH1 0x44 SWAP1 SWAP3 ADD DUP4 MSTORE PUSH1 0x20 DUP3 ADD DUP1 MLOAD PUSH1 0x1 PUSH1 0x1 PUSH1 0xE0 SHL SUB AND PUSH1 0x1 PUSH1 0x1 PUSH1 0xE0 SHL SUB NOT DUP7 AND OR DUP2 MSTORE SWAP3 MLOAD DUP3 MLOAD PUSH1 0x0 SWAP5 DUP6 SWAP5 DUP6 SWAP5 DUP11 AND SWAP4 SWAP1 SWAP3 SWAP1 SWAP2 DUP3 SWAP2 DUP1 DUP4 DUP4 JUMPDEST PUSH1 0x20 DUP4 LT PUSH2 0x3B54 JUMPI DUP1 MLOAD DUP3 MSTORE PUSH1 0x1F NOT SWAP1 SWAP3 ADD SWAP2 PUSH1 0x20 SWAP2 DUP3 ADD SWAP2 ADD PUSH2 0x3B35 JUMP JUMPDEST PUSH1 0x1 DUP4 PUSH1 0x20 SUB PUSH2 0x100 EXP SUB DUP1 NOT DUP3 MLOAD AND DUP2 DUP5 MLOAD AND DUP1 DUP3 OR DUP6 MSTORE POP POP POP POP POP POP SWAP1 POP ADD SWAP2 POP POP PUSH1 0x0 PUSH1 0x40 MLOAD DUP1 DUP4 SUB DUP2 DUP6 GAS STATICCALL SWAP2 POP POP RETURNDATASIZE DUP1 PUSH1 0x0 DUP2 EQ PUSH2 0x3BB4 JUMPI PUSH1 0x40 MLOAD SWAP2 POP PUSH1 0x1F NOT PUSH1 0x3F RETURNDATASIZE ADD AND DUP3 ADD PUSH1 0x40 MSTORE RETURNDATASIZE DUP3 MSTORE RETURNDATASIZE PUSH1 0x0 PUSH1 0x20 DUP5 ADD RETURNDATACOPY PUSH2 0x3BB9 JUMP JUMPDEST PUSH1 0x60 SWAP2 POP JUMPDEST POP SWAP2 POP SWAP2 POP DUP2 PUSH2 0x3BC8 JUMPI PUSH1 0x0 DUP1 REVERT JUMPDEST DUP1 DUP1 PUSH1 0x20 ADD SWAP1 MLOAD PUSH1 0x20 DUP2 LT ISZERO PUSH2 0x3BDD JUMPI PUSH1 0x0 DUP1 REVERT JUMPDEST POP MLOAD SWAP7 SWAP6 POP POP POP POP POP POP JUMP JUMPDEST PUSH2 0x3BF1 PUSH2 0x4839 JUMP JUMPDEST SLOAD DUP3 MLOAD PUSH1 0x40 MLOAD PUSH4 0xE8EDA9DF PUSH1 0xE0 SHL DUP2 MSTORE PUSH1 0x1 PUSH1 0x1 PUSH1 0xA0 SHL SUB SWAP1 SWAP3 AND SWAP2 PUSH4 0xE8EDA9DF SWAP2 PUSH2 0x3C26 SWAP2 DUP6 SWAP1 ADDRESS SWAP1 PUSH1 0x0 SWAP1 PUSH1 0x4 ADD PUSH2 0x533A JUMP JUMPDEST PUSH1 0x0 PUSH1 0x40 MLOAD DUP1 DUP4 SUB DUP2 PUSH1 0x0 DUP8 DUP1 EXTCODESIZE ISZERO DUP1 ISZERO PUSH2 0x3C40 JUMPI PUSH1 0x0 DUP1 REVERT JUMPDEST POP GAS CALL ISZERO DUP1 ISZERO PUSH2 0x1C8A JUMPI RETURNDATASIZE PUSH1 0x0 DUP1 RETURNDATACOPY RETURNDATASIZE PUSH1 0x0 REVERT JUMPDEST DUP2 MLOAD PUSH1 0x40 MLOAD PUSH4 0x140E25AD PUSH1 0xE3 SHL DUP2 MSTORE PUSH1 0x0 SWAP2 PUSH1 0x1 PUSH1 0x1 PUSH1 0xA0 SHL SUB AND SWAP1 PUSH4 0xA0712D68 SWAP1 PUSH2 0x3C84 SWAP1 DUP6 SWAP1 PUSH1 0x4 ADD PUSH2 0x53C1 JUMP JUMPDEST PUSH1 0x20 PUSH1 0x40 MLOAD DUP1 DUP4 SUB DUP2 PUSH1 0x0 DUP8 DUP1 EXTCODESIZE ISZERO DUP1 ISZERO PUSH2 0x3C9E JUMPI PUSH1 0x0 DUP1 REVERT JUMPDEST POP GAS CALL ISZERO DUP1 ISZERO PUSH2 0x3CB2 JUMPI RETURNDATASIZE PUSH1 0x0 DUP1 RETURNDATACOPY RETURNDATASIZE PUSH1 0x0 REVERT JUMPDEST POP POP POP POP PUSH1 0x40 MLOAD RETURNDATASIZE PUSH1 0x1F NOT PUSH1 0x1F DUP3 ADD AND DUP3 ADD DUP1 PUSH1 0x40 MSTORE POP DUP2 ADD SWAP1 PUSH2 0x3CD6 SWAP2 SWAP1 PUSH2 0x5234 JUMP JUMPDEST SWAP1 POP DUP1 ISZERO PUSH2 0x1012 JUMPI PUSH1 0x40 MLOAD PUSH3 0x461BCD PUSH1 0xE5 SHL DUP2 MSTORE PUSH1 0x4 ADD PUSH2 0x317 SWAP1 PUSH2 0x5448 JUMP JUMPDEST DUP2 PUSH1 0x0 ADD MLOAD PUSH1 0x1 PUSH1 0x1 PUSH1 0xA0 SHL SUB AND PUSH4 0x1249C58B DUP3 PUSH1 0x40 MLOAD DUP3 PUSH4 0xFFFFFFFF AND PUSH1 0xE0 SHL DUP2 MSTORE PUSH1 0x4 ADD PUSH1 0x0 PUSH1 0x40 MLOAD DUP1 DUP4 SUB DUP2 DUP6 DUP9 DUP1 EXTCODESIZE ISZERO DUP1 ISZERO PUSH2 0x3D35 JUMPI PUSH1 0x0 DUP1 REVERT JUMPDEST POP GAS CALL ISZERO DUP1 ISZERO PUSH2 0x111E JUMPI RETURNDATASIZE PUSH1 0x0 DUP1 RETURNDATACOPY RETURNDATASIZE PUSH1 0x0 REVERT JUMPDEST PUSH1 0x0 DUP3 DUP3 GT ISZERO PUSH2 0x1BEB JUMPI PUSH1 0x40 DUP1 MLOAD PUSH3 0x461BCD PUSH1 0xE5 SHL DUP2 MSTORE PUSH1 0x20 PUSH1 0x4 DUP3 ADD MSTORE PUSH1 0x1E PUSH1 0x24 DUP3 ADD MSTORE PUSH32 0x536166654D6174683A207375627472616374696F6E206F766572666C6F770000 PUSH1 0x44 DUP3 ADD MSTORE SWAP1 MLOAD SWAP1 DUP2 SWAP1 SUB PUSH1 0x64 ADD SWAP1 REVERT JUMPDEST PUSH1 0x0 PUSH2 0x3DC5 PUSH4 0x1DA9C00 PUSH2 0xEF9 PUSH2 0x3DBA PUSH2 0x2562 DUP8 DUP8 PUSH2 0x1BDC JUMP JUMPDEST PUSH1 0x80 DUP11 ADD MLOAD SWAP1 PUSH2 0x2169 JUMP JUMPDEST SWAP1 POP PUSH1 0x0 PUSH2 0x3DD3 DUP6 DUP4 PUSH2 0x2150 JUMP JUMPDEST SWAP1 POP PUSH1 0x0 PUSH2 0x3DF3 PUSH1 0x64 PUSH2 0xEF9 DUP11 PUSH1 0xE0 ADD MLOAD DUP6 PUSH2 0x2169 SWAP1 SWAP2 SWAP1 PUSH4 0xFFFFFFFF AND JUMP JUMPDEST SWAP1 POP PUSH1 0x0 PUSH2 0x3E01 DUP4 DUP4 PUSH2 0x2121 JUMP JUMPDEST SWAP1 POP PUSH2 0x3E15 DUP10 PUSH1 0x40 ADD MLOAD PUSH2 0xFFFF AND DUP4 PUSH2 0x4846 JUMP JUMPDEST PUSH2 0x3E27 DUP10 PUSH1 0x40 ADD MLOAD PUSH2 0xFFFF AND DUP3 PUSH2 0x48CD JUMP JUMPDEST PUSH1 0x80 DUP9 ADD MLOAD PUSH2 0x3E36 SWAP1 DUP5 PUSH2 0x2121 JUMP JUMPDEST DUP9 PUSH1 0x80 ADD DUP2 DUP2 MSTORE POP POP DUP6 DUP10 PUSH1 0x40 ADD MLOAD PUSH2 0xFFFF AND DUP11 PUSH1 0x0 ADD MLOAD PUSH1 0x1 PUSH1 0x1 PUSH1 0xA0 SHL SUB AND PUSH32 0x7456CB4B7C3068832FB334A03D3CD8E440286BAD834CB9E332DF05AE6792CFBB DUP6 DUP6 PUSH1 0x40 MLOAD PUSH2 0x3E88 SWAP3 SWAP2 SWAP1 PUSH2 0x53CA JUMP JUMPDEST PUSH1 0x40 MLOAD DUP1 SWAP2 SUB SWAP1 LOG4 POP POP POP POP POP POP POP POP POP JUMP JUMPDEST PUSH1 0x0 DUP1 PUSH2 0x3EA7 DUP4 PUSH2 0x4919 JUMP JUMPDEST PUSH1 0xFF AND SWAP4 SWAP3 POP POP POP JUMP JUMPDEST PUSH1 0x0 DUP1 PUSH1 0x0 DUP6 GT PUSH2 0x3ED4 JUMPI PUSH1 0x40 MLOAD PUSH3 0x461BCD PUSH1 0xE5 SHL DUP2 MSTORE PUSH1 0x4 ADD PUSH2 0x317 SWAP1 PUSH2 0x54B6 JUMP JUMPDEST PUSH1 0x7 DUP6 GT ISZERO PUSH2 0x3EF5 JUMPI PUSH1 0x40 MLOAD PUSH3 0x461BCD PUSH1 0xE5 SHL DUP2 MSTORE PUSH1 0x4 ADD PUSH2 0x317 SWAP1 PUSH2 0x55AF JUMP JUMPDEST PUSH1 0x0 PUSH2 0x3F00 DUP5 PUSH2 0x4936 JUMP JUMPDEST SWAP1 POP PUSH1 0x1 JUMPDEST DUP7 DUP2 GT PUSH2 0x3F58 JUMPI PUSH1 0x0 PUSH2 0x3F21 PUSH2 0x3F1A DUP4 PUSH2 0x4954 JUMP JUMPDEST DUP5 SWAP1 PUSH2 0x49F8 JUMP JUMPDEST SWAP1 POP DUP7 DUP2 EQ ISZERO PUSH2 0x3F39 JUMPI POP SWAP3 POP PUSH1 0x0 SWAP2 POP PUSH2 0x3F71 SWAP1 POP JUMP JUMPDEST DUP7 DUP2 GT ISZERO PUSH2 0x3F4F JUMPI POP SWAP3 POP PUSH1 0x1 SWAP2 POP PUSH2 0x3F71 SWAP1 POP JUMP JUMPDEST POP PUSH1 0x1 ADD PUSH2 0x3F05 JUMP JUMPDEST POP PUSH1 0x40 MLOAD PUSH3 0x461BCD PUSH1 0xE5 SHL DUP2 MSTORE PUSH1 0x4 ADD PUSH2 0x317 SWAP1 PUSH2 0x575E JUMP JUMPDEST SWAP4 POP SWAP4 SWAP2 POP POP JUMP JUMPDEST PUSH1 0x0 DUP5 PUSH1 0xA0 ADD MLOAD PUSH1 0x0 EQ ISZERO PUSH2 0x3F8F JUMPI POP DUP2 PUSH2 0x3FB1 JUMP JUMPDEST PUSH2 0x3FAE DUP6 PUSH1 0xA0 ADD MLOAD PUSH2 0x2DB DUP8 PUSH1 0x60 ADD MLOAD DUP7 PUSH2 0xF43 SWAP1 SWAP2 SWAP1 PUSH4 0xFFFFFFFF AND JUMP JUMPDEST SWAP1 POP JUMPDEST PUSH1 0xA0 DUP6 ADD MLOAD PUSH2 0x3FC0 SWAP1 DUP5 PUSH2 0x343D JUMP JUMPDEST PUSH1 0xA0 DUP7 ADD MSTORE PUSH1 0x60 DUP6 ADD MLOAD PUSH2 0x3FD4 SWAP1 DUP3 PUSH2 0x343D JUMP JUMPDEST PUSH1 0x60 DUP7 ADD MSTORE PUSH1 0x40 DUP5 ADD MLOAD PUSH2 0x3FE8 SWAP1 DUP3 PUSH2 0x343D JUMP JUMPDEST PUSH1 0x40 DUP6 ADD MSTORE PUSH2 0x1C1C DUP6 DUP4 PUSH2 0x1127 JUMP JUMPDEST PUSH1 0x0 DUP1 PUSH2 0x400D DUP10 PUSH1 0x0 ADD MLOAD DUP11 PUSH1 0x40 ADD MLOAD DUP10 PUSH2 0x14FB JUMP JUMPDEST DUP10 MLOAD SWAP1 SWAP2 POP PUSH1 0x1 PUSH1 0x1 PUSH1 0xA0 SHL SUB AND PUSH4 0xDC6679C5 DUP10 PUSH2 0x402B DUP5 DUP10 PUSH2 0x343D JUMP JUMPDEST DUP10 DUP9 DUP9 PUSH1 0x40 MLOAD DUP7 PUSH4 0xFFFFFFFF AND PUSH1 0xE0 SHL DUP2 MSTORE PUSH1 0x4 ADD PUSH2 0x404E SWAP6 SWAP5 SWAP4 SWAP3 SWAP2 SWAP1 PUSH2 0x5388 JUMP JUMPDEST PUSH1 0x20 PUSH1 0x40 MLOAD DUP1 DUP4 SUB DUP2 PUSH1 0x0 DUP8 DUP1 EXTCODESIZE ISZERO DUP1 ISZERO PUSH2 0x4068 JUMPI PUSH1 0x0 DUP1 REVERT JUMPDEST POP GAS CALL ISZERO DUP1 ISZERO PUSH2 0x407C JUMPI RETURNDATASIZE PUSH1 0x0 DUP1 RETURNDATACOPY RETURNDATASIZE PUSH1 0x0 REVERT JUMPDEST POP POP POP POP PUSH1 0x40 MLOAD RETURNDATASIZE PUSH1 0x1F NOT PUSH1 0x1F DUP3 ADD AND DUP3 ADD DUP1 PUSH1 0x40 MSTORE POP DUP2 ADD SWAP1 PUSH2 0x40A0 SWAP2 SWAP1 PUSH2 0x5234 JUMP JUMPDEST SWAP10 SWAP9 POP POP POP POP POP POP POP POP POP JUMP JUMPDEST PUSH1 0x0 DUP1 PUSH1 0x0 PUSH2 0x40BA PUSH2 0x40F4 JUMP JUMPDEST PUSH1 0x0 SWAP6 DUP7 MSTORE PUSH1 0x20 SWAP1 DUP2 MSTORE PUSH1 0x40 DUP1 DUP8 KECCAK256 SWAP6 DUP8 MSTORE SWAP5 SWAP1 MSTORE POP POP POP SWAP1 KECCAK256 SLOAD PUSH1 0x1 PUSH1 0x28 SHL DUP2 DIV PUSH1 0x1 PUSH1 0x1 PUSH1 0x80 SHL SUB AND SWAP2 PUSH1 0x1 PUSH1 0xA8 SHL SWAP1 SWAP2 DIV PUSH1 0xFF AND SWAP1 JUMP JUMPDEST PUSH1 0x0 DUP1 PUSH2 0xC1A PUSH1 0x8 PUSH2 0x30AC JUMP JUMPDEST PUSH1 0x0 DUP1 PUSH2 0xFFFF DUP5 AND PUSH2 0x4118 JUMPI POP PUSH1 0x0 SWAP1 POP DUP1 PUSH2 0x418C JUMP JUMPDEST PUSH1 0x0 PUSH2 0x4122 PUSH2 0x47AF JUMP JUMPDEST PUSH1 0x1 PUSH1 0x1 PUSH1 0xA0 SHL SUB DUP9 AND PUSH1 0x0 SWAP1 DUP2 MSTORE PUSH1 0x20 SWAP2 DUP3 MSTORE PUSH1 0x40 DUP1 DUP3 KECCAK256 DUP10 DUP4 MSTORE DUP4 MSTORE DUP1 DUP3 KECCAK256 PUSH2 0xFFFF DUP10 AND DUP4 MSTORE SWAP1 SWAP3 MSTORE KECCAK256 DUP1 SLOAD SWAP1 SWAP2 POP PUSH1 0x1 PUSH1 0x1 PUSH1 0x50 SHL SUB PUSH1 0x1 PUSH1 0xA0 SHL DUP3 DIV DUP2 AND SWAP2 PUSH1 0x1 PUSH1 0x50 SHL SWAP1 DIV AND DUP6 ISZERO PUSH2 0x4187 JUMPI PUSH2 0x4184 PUSH2 0x2562 DUP3 PUSH2 0x2DB DUP10 DUP7 PUSH2 0xF43 JUMP JUMPDEST SWAP4 POP JUMPDEST POP SWAP3 POP POP JUMPDEST SWAP5 POP SWAP5 SWAP3 POP POP POP JUMP JUMPDEST PUSH1 0x0 DUP1 PUSH2 0xC1A PUSH1 0x19 PUSH2 0x30AC JUMP JUMPDEST PUSH1 0x0 PUSH2 0x41AF DUP6 PUSH1 0x0 PUSH2 0x4A52 JUMP JUMPDEST DUP5 PUSH1 0x1 PUSH1 0x1 PUSH1 0xA0 SHL SUB AND PUSH32 0x7C51C6AA77346C54CB051D9E792F9B7BDE5C28A9B57E6FB2D2DD727B38438CA9 PUSH1 0x0 PUSH1 0x40 MLOAD PUSH2 0x41E9 SWAP2 SWAP1 PUSH2 0x53B6 JUMP JUMPDEST PUSH1 0x40 MLOAD DUP1 SWAP2 SUB SWAP1 LOG2 DUP2 DUP5 PUSH2 0xFFFF AND DUP7 PUSH1 0x1 PUSH1 0x1 PUSH1 0xA0 SHL SUB AND PUSH32 0x823B641D46550301006F807A26587634F15BD13749EFDC8859734377D5304A3B DUP7 PUSH1 0x40 MLOAD PUSH2 0x4230 SWAP2 SWAP1 PUSH2 0x53C1 JUMP JUMPDEST PUSH1 0x40 MLOAD DUP1 SWAP2 SUB SWAP1 LOG4 PUSH1 0x0 PUSH2 0x4249 PUSH1 0x0 DUP7 PUSH2 0xFFFF AND PUSH2 0x4AB2 JUMP JUMPDEST POP POP POP SWAP1 POP DUP1 DUP5 SGT PUSH2 0x4269 JUMPI PUSH2 0x4261 DUP6 DUP6 DUP4 SUB PUSH2 0x4B5B JUMP JUMPDEST DUP4 SWAP2 POP PUSH2 0x42C1 JUMP JUMPDEST PUSH2 0x4274 DUP6 PUSH1 0x0 PUSH2 0x4B5B JUMP JUMPDEST DUP3 DUP6 PUSH2 0xFFFF AND DUP8 PUSH1 0x1 PUSH1 0x1 PUSH1 0xA0 SHL SUB AND PUSH32 0x3A717B6924E3AD05B8C7609A2401472AF90869B52CC3C9CA69B50100B4BE6316 DUP5 DUP9 SUB PUSH1 0x40 MLOAD PUSH2 0x42B5 SWAP2 SWAP1 PUSH2 0x53C1 JUMP JUMPDEST PUSH1 0x40 MLOAD DUP1 SWAP2 SUB SWAP1 LOG4 DUP1 SWAP2 POP JUMPDEST POP SWAP5 SWAP4 POP POP POP POP JUMP JUMPDEST PUSH1 0x0 PUSH10 0x7FFFFFFFFFFFFFFFFFFF NOT DUP3 SLT DUP1 ISZERO SWAP1 PUSH2 0x42F1 JUMPI POP PUSH10 0x7FFFFFFFFFFFFFFFFFFF DUP3 SGT ISZERO JUMPDEST PUSH2 0xF3B JUMPI PUSH1 0x0 DUP1 REVERT JUMPDEST DUP3 MLOAD PUSH1 0x40 MLOAD PUSH4 0xDB006A75 PUSH1 0xE0 SHL DUP2 MSTORE PUSH1 0x0 SWAP2 SELFBALANCE SWAP2 DUP4 SWAP2 PUSH1 0x1 PUSH1 0x1 PUSH1 0xA0 SHL SUB AND SWAP1 PUSH4 0xDB006A75 SWAP1 PUSH2 0x432E SWAP1 DUP8 SWAP1 PUSH1 0x4 ADD PUSH2 0x53C1 JUMP JUMPDEST PUSH1 0x20 PUSH1 0x40 MLOAD DUP1 DUP4 SUB DUP2 PUSH1 0x0 DUP8 DUP1 EXTCODESIZE ISZERO DUP1 ISZERO PUSH2 0x4348 JUMPI PUSH1 0x0 DUP1 REVERT JUMPDEST POP GAS CALL ISZERO DUP1 ISZERO PUSH2 0x435C JUMPI RETURNDATASIZE PUSH1 0x0 DUP1 RETURNDATACOPY RETURNDATASIZE PUSH1 0x0 REVERT JUMPDEST POP POP POP POP PUSH1 0x40 MLOAD RETURNDATASIZE PUSH1 0x1F NOT PUSH1 0x1F DUP3 ADD AND DUP3 ADD DUP1 PUSH1 0x40 MSTORE POP DUP2 ADD SWAP1 PUSH2 0x4380 SWAP2 SWAP1 PUSH2 0x5234 JUMP JUMPDEST SWAP1 POP DUP1 ISZERO PUSH2 0x43A0 JUMPI PUSH1 0x40 MLOAD PUSH3 0x461BCD PUSH1 0xE5 SHL DUP2 MSTORE PUSH1 0x4 ADD PUSH2 0x317 SWAP1 PUSH2 0x5466 JUMP JUMPDEST SELFBALANCE PUSH2 0x43AB DUP2 DUP5 PUSH2 0x3D49 JUMP JUMPDEST SWAP4 POP PUSH2 0x19EB DUP7 DUP6 PUSH2 0x3144 JUMP JUMPDEST PUSH1 0x0 PUSH2 0x43D2 PUSH2 0x117A DUP6 PUSH1 0x0 ADD MLOAD PUSH2 0x43CD DUP6 PUSH2 0x161B JUMP JUMPDEST PUSH2 0x38E8 JUMP JUMPDEST SWAP1 POP PUSH2 0x43DC PUSH2 0x4839 JUMP JUMPDEST SLOAD DUP5 MLOAD PUSH1 0x40 MLOAD PUSH4 0x1A4CA37B PUSH1 0xE2 SHL DUP2 MSTORE PUSH1 0x1 PUSH1 0x1 PUSH1 0xA0 SHL SUB SWAP1 SWAP3 AND SWAP2 PUSH4 0x69328DEC SWAP2 PUSH2 0x440E SWAP2 DUP6 SWAP1 DUP9 SWAP1 PUSH1 0x4 ADD PUSH2 0x5317 JUMP JUMPDEST PUSH1 0x20 PUSH1 0x40 MLOAD DUP1 DUP4 SUB DUP2 PUSH1 0x0 DUP8 DUP1 EXTCODESIZE ISZERO DUP1 ISZERO PUSH2 0x4428 JUMPI PUSH1 0x0 DUP1 REVERT JUMPDEST POP GAS CALL ISZERO DUP1 ISZERO PUSH2 0x443C JUMPI RETURNDATASIZE PUSH1 0x0 DUP1 RETURNDATACOPY RETURNDATASIZE PUSH1 0x0 REVERT JUMPDEST POP POP POP POP PUSH1 0x40 MLOAD RETURNDATASIZE PUSH1 0x1F NOT PUSH1 0x1F DUP3 ADD AND DUP3 ADD DUP1 PUSH1 0x40 MSTORE POP DUP2 ADD SWAP1 PUSH2 0x4460 SWAP2 SWAP1 PUSH2 0x5234 JUMP JUMPDEST POP SWAP4 SWAP3 POP POP POP JUMP JUMPDEST DUP3 MLOAD PUSH1 0x0 SWAP1 DUP2 SWAP1 PUSH2 0x4481 SWAP1 ADDRESS PUSH4 0x70A08231 PUSH1 0xE0 SHL PUSH2 0x3AD7 JUMP JUMPDEST SWAP1 POP PUSH1 0x0 DUP7 PUSH1 0x0 ADD MLOAD PUSH1 0x1 PUSH1 0x1 PUSH1 0xA0 SHL SUB AND PUSH4 0xDB006A75 DUP6 PUSH1 0x40 MLOAD DUP3 PUSH4 0xFFFFFFFF AND PUSH1 0xE0 SHL DUP2 MSTORE PUSH1 0x4 ADD PUSH2 0x44B5 SWAP2 SWAP1 PUSH2 0x53C1 JUMP JUMPDEST PUSH1 0x20 PUSH1 0x40 MLOAD DUP1 DUP4 SUB DUP2 PUSH1 0x0 DUP8 DUP1 EXTCODESIZE ISZERO DUP1 ISZERO PUSH2 0x44CF JUMPI PUSH1 0x0 DUP1 REVERT JUMPDEST POP GAS CALL ISZERO DUP1 ISZERO PUSH2 0x44E3 JUMPI RETURNDATASIZE PUSH1 0x0 DUP1 RETURNDATACOPY RETURNDATASIZE PUSH1 0x0 REVERT JUMPDEST POP POP POP POP PUSH1 0x40 MLOAD RETURNDATASIZE PUSH1 0x1F NOT PUSH1 0x1F DUP3 ADD AND DUP3 ADD DUP1 PUSH1 0x40 MSTORE POP DUP2 ADD SWAP1 PUSH2 0x4507 SWAP2 SWAP1 PUSH2 0x5234 JUMP JUMPDEST SWAP1 POP DUP1 ISZERO PUSH2 0x4527 JUMPI PUSH1 0x40 MLOAD PUSH3 0x461BCD PUSH1 0xE5 SHL DUP2 MSTORE PUSH1 0x4 ADD PUSH2 0x317 SWAP1 PUSH2 0x5466 JUMP JUMPDEST DUP6 MLOAD PUSH1 0x0 SWAP1 PUSH2 0x453E SWAP1 ADDRESS PUSH4 0x70A08231 PUSH1 0xE0 SHL PUSH2 0x3AD7 JUMP JUMPDEST SWAP1 POP PUSH2 0x454A DUP2 DUP5 PUSH2 0x3D49 JUMP JUMPDEST SWAP4 POP PUSH2 0x455B DUP8 PUSH1 0x0 ADD MLOAD DUP8 DUP7 PUSH2 0x3A60 JUMP JUMPDEST POP POP POP SWAP5 SWAP4 POP POP POP POP JUMP JUMPDEST PUSH1 0x0 PUSH4 0x5F5E100 DUP4 PUSH1 0x40 ADD MLOAD SLT ISZERO PUSH2 0x458E JUMPI PUSH2 0x4587 PUSH1 0x1 PUSH2 0xDCD DUP6 DUP6 PUSH2 0x2D0F JUMP JUMPDEST SWAP1 POP PUSH2 0xC1A JUMP JUMPDEST PUSH2 0xC17 DUP4 PUSH2 0x459D DUP5 PUSH1 0x1 PUSH2 0x20E0 JUMP JUMPDEST PUSH2 0x2D0F JUMP JUMPDEST PUSH1 0x0 PUSH1 0x3 DUP4 PUSH1 0x60 ADD MLOAD PUSH1 0x5 DUP2 GT ISZERO PUSH2 0x45B6 JUMPI INVALID JUMPDEST EQ ISZERO PUSH2 0x45CD JUMPI POP PUSH1 0x1 PUSH1 0x1 PUSH1 0xA0 SHL SUB DUP2 AND BALANCE PUSH2 0xC1A JUMP JUMPDEST DUP3 MLOAD PUSH1 0x40 MLOAD PUSH4 0x70A08231 PUSH1 0xE0 SHL DUP2 MSTORE PUSH1 0x1 PUSH1 0x1 PUSH1 0xA0 SHL SUB SWAP1 SWAP2 AND SWAP1 PUSH4 0x70A08231 SWAP1 PUSH2 0x45FC SWAP1 DUP6 SWAP1 PUSH1 0x4 ADD PUSH2 0x52C5 JUMP JUMPDEST PUSH1 0x20 PUSH1 0x40 MLOAD DUP1 DUP4 SUB DUP2 DUP7 DUP1 EXTCODESIZE ISZERO DUP1 ISZERO PUSH2 0x4614 JUMPI PUSH1 0x0 DUP1 REVERT JUMPDEST POP GAS STATICCALL ISZERO DUP1 ISZERO PUSH2 0x4628 JUMPI RETURNDATASIZE PUSH1 0x0 DUP1 RETURNDATACOPY RETURNDATASIZE PUSH1 0x0 REVERT JUMPDEST POP POP POP POP PUSH1 0x40 MLOAD RETURNDATASIZE PUSH1 0x1F NOT PUSH1 0x1F DUP3 ADD AND DUP3 ADD DUP1 PUSH1 0x40 MSTORE POP DUP2 ADD SWAP1 PUSH2 0x4587 SWAP2 SWAP1 PUSH2 0x5234 JUMP JUMPDEST PUSH1 0x0 DUP1 PUSH2 0xC1A PUSH1 0x2 PUSH2 0x30AC JUMP JUMPDEST PUSH1 0x0 PUSH2 0x4663 PUSH2 0x4F2C JUMP JUMPDEST RETURNDATASIZE DUP1 ISZERO PUSH2 0x4677 JUMPI PUSH1 0x20 DUP2 EQ PUSH2 0x4680 JUMPI PUSH1 0x0 DUP1 REVERT JUMPDEST PUSH1 0x1 SWAP3 POP PUSH2 0x468B JUMP JUMPDEST PUSH1 0x20 PUSH1 0x0 DUP4 RETURNDATACOPY DUP2 MLOAD SWAP3 POP JUMPDEST POP DUP2 PUSH2 0x1918 JUMPI PUSH1 0x40 DUP1 MLOAD PUSH3 0x461BCD PUSH1 0xE5 SHL DUP2 MSTORE PUSH1 0x20 PUSH1 0x4 DUP3 ADD MSTORE PUSH1 0x5 PUSH1 0x24 DUP3 ADD MSTORE PUSH5 0x455243323 PUSH1 0xDC SHL PUSH1 0x44 DUP3 ADD MSTORE SWAP1 MLOAD SWAP1 DUP2 SWAP1 SUB PUSH1 0x64 ADD SWAP1 REVERT JUMPDEST PUSH1 0x0 DUP1 PUSH2 0xC1A PUSH1 0x7 PUSH2 0x30AC JUMP JUMPDEST PUSH1 0x0 PUSH2 0xC1A PUSH2 0x46E0 PUSH2 0x4839 JUMP JUMPDEST SLOAD PUSH1 0x40 MLOAD PUSH4 0xD15E0053 PUSH1 0xE0 SHL DUP2 MSTORE PUSH1 0x1 PUSH1 0x1 PUSH1 0xA0 SHL SUB SWAP1 SWAP2 AND SWAP1 PUSH4 0xD15E0053 SWAP1 PUSH2 0x470E SWAP1 DUP7 SWAP1 PUSH1 0x4 ADD PUSH2 0x52C5 JUMP JUMPDEST PUSH1 0x20 PUSH1 0x40 MLOAD DUP1 DUP4 SUB DUP2 DUP7 DUP1 EXTCODESIZE ISZERO DUP1 ISZERO PUSH2 0x4726 JUMPI PUSH1 0x0 DUP1 REVERT JUMPDEST POP GAS STATICCALL ISZERO DUP1 ISZERO PUSH2 0x473A JUMPI RETURNDATASIZE PUSH1 0x0 DUP1 RETURNDATACOPY RETURNDATASIZE PUSH1 0x0 REVERT JUMPDEST POP POP POP POP PUSH1 0x40 MLOAD RETURNDATASIZE PUSH1 0x1F NOT PUSH1 0x1F DUP3 ADD AND DUP3 ADD DUP1 PUSH1 0x40 MSTORE POP DUP2 ADD SWAP1 PUSH2 0x2562 SWAP2 SWAP1 PUSH2 0x5234 JUMP JUMPDEST PUSH1 0x0 DUP1 PUSH2 0xC1A PUSH1 0x17 PUSH2 0x30AC JUMP JUMPDEST PUSH1 0x0 DUP1 PUSH1 0x0 PUSH2 0x4778 PUSH2 0x4BBE JUMP JUMPDEST PUSH1 0x0 SWAP5 DUP6 MSTORE PUSH1 0x20 MSTORE POP POP PUSH1 0x40 SWAP1 SWAP2 KECCAK256 SLOAD PUSH1 0x1 PUSH1 0x1 PUSH1 0xA0 SHL SUB DUP2 AND SWAP3 PUSH1 0x1 PUSH1 0xA0 SHL SWAP1 SWAP2 DIV PUSH1 0xFF AND SWAP2 POP JUMP JUMPDEST PUSH1 0x0 DUP1 PUSH2 0xC1A PUSH1 0x10 PUSH2 0x30AC JUMP JUMPDEST PUSH1 0x0 DUP1 PUSH2 0xC1A PUSH1 0x18 PUSH2 0x30AC JUMP JUMPDEST PUSH1 0x0 PUSH2 0xC17 DUP3 PUSH1 0x20 ADD MLOAD PUSH2 0xEF9 DUP5 PUSH1 0x0 ADD MLOAD DUP7 PUSH1 0x20 ADD MLOAD PUSH2 0x2169 SWAP1 SWAP2 SWAP1 PUSH4 0xFFFFFFFF AND JUMP JUMPDEST PUSH1 0x40 DUP1 MLOAD PUSH4 0x23B872DD PUSH1 0xE0 SHL DUP2 MSTORE PUSH1 0x1 PUSH1 0x1 PUSH1 0xA0 SHL SUB DUP5 DUP2 AND PUSH1 0x4 DUP4 ADD MSTORE ADDRESS PUSH1 0x24 DUP4 ADD MSTORE PUSH1 0x44 DUP3 ADD DUP5 SWAP1 MSTORE SWAP2 MLOAD SWAP2 DUP6 AND SWAP2 PUSH4 0x23B872DD SWAP2 PUSH1 0x64 DUP1 DUP3 ADD SWAP3 PUSH1 0x0 SWAP3 SWAP1 SWAP2 SWAP1 DUP3 SWAP1 SUB ADD DUP2 DUP4 DUP8 DUP1 EXTCODESIZE ISZERO DUP1 ISZERO PUSH2 0x3AB7 JUMPI PUSH1 0x0 DUP1 REVERT JUMPDEST PUSH1 0x0 DUP1 PUSH2 0xC1A PUSH1 0x13 PUSH2 0x30AC JUMP JUMPDEST PUSH1 0x0 DUP2 SLT ISZERO PUSH2 0x4854 JUMPI PUSH1 0x0 DUP1 REVERT JUMPDEST PUSH1 0x0 PUSH2 0x4861 PUSH1 0x0 DUP5 PUSH2 0x4AB2 JUMP JUMPDEST POP POP POP SWAP1 POP PUSH2 0x4879 DUP3 DUP3 PUSH2 0x20E0 SWAP1 SWAP2 SWAP1 PUSH4 0xFFFFFFFF AND JUMP JUMPDEST SWAP1 POP PUSH2 0x488C PUSH1 0x0 DUP5 DUP4 PUSH1 0x0 DUP1 PUSH1 0x0 PUSH2 0x4BCB JUMP JUMPDEST DUP3 PUSH2 0xFFFF AND PUSH32 0x85170C297762884F47EC6098B74925C795E6D33686B11019B400E33A9B23B5E9 DUP4 PUSH1 0x40 MLOAD PUSH2 0x48C0 SWAP2 SWAP1 PUSH2 0x53C1 JUMP JUMPDEST PUSH1 0x40 MLOAD DUP1 SWAP2 SUB SWAP1 LOG2 POP POP POP JUMP JUMPDEST PUSH1 0x0 DUP2 SLT ISZERO PUSH2 0x48DB JUMPI PUSH1 0x0 DUP1 REVERT JUMPDEST PUSH1 0x0 PUSH2 0x48E6 DUP4 PUSH2 0x4D12 JUMP JUMPDEST SWAP1 POP PUSH1 0x0 PUSH2 0x48F4 DUP3 DUP6 PUSH2 0x4AB2 JUMP JUMPDEST POP POP POP SWAP1 POP PUSH2 0x490C DUP4 DUP3 PUSH2 0x20E0 SWAP1 SWAP2 SWAP1 PUSH4 0xFFFFFFFF AND JUMP JUMPDEST SWAP1 POP PUSH2 0x16A3 DUP3 DUP6 DUP4 PUSH2 0x4D38 JUMP JUMPDEST PUSH1 0x0 DUP1 PUSH2 0x4924 PUSH2 0x4D56 JUMP JUMPDEST PUSH1 0x0 SWAP4 DUP5 MSTORE PUSH1 0x20 MSTORE POP POP PUSH1 0x40 SWAP1 KECCAK256 SLOAD SWAP1 JUMP JUMPDEST PUSH1 0x0 PUSH3 0x76A700 DUP3 LT ISZERO PUSH2 0x4948 JUMPI PUSH1 0x0 DUP1 REVERT JUMPDEST POP PUSH3 0x76A700 DUP2 MOD SWAP1 SUB SWAP1 JUMP JUMPDEST PUSH1 0x0 DUP2 PUSH1 0x1 EQ ISZERO PUSH2 0x4969 JUMPI POP PUSH3 0x76A700 PUSH2 0xF3E JUMP JUMPDEST DUP2 PUSH1 0x2 EQ ISZERO PUSH2 0x497C JUMPI POP PUSH3 0xED4E00 PUSH2 0xF3E JUMP JUMPDEST DUP2 PUSH1 0x3 EQ ISZERO PUSH2 0x4990 JUMPI POP PUSH4 0x1DA9C00 PUSH2 0xF3E JUMP JUMPDEST DUP2 PUSH1 0x4 EQ ISZERO PUSH2 0x49A4 JUMPI POP PUSH4 0x3B53800 PUSH2 0xF3E JUMP JUMPDEST DUP2 PUSH1 0x5 EQ ISZERO PUSH2 0x49B8 JUMPI POP PUSH4 0x9450C00 PUSH2 0xF3E JUMP JUMPDEST DUP2 PUSH1 0x6 EQ ISZERO PUSH2 0x49CC JUMPI POP PUSH4 0x128A1800 PUSH2 0xF3E JUMP JUMPDEST DUP2 PUSH1 0x7 EQ ISZERO PUSH2 0x49E0 JUMPI POP PUSH4 0x25143000 PUSH2 0xF3E JUMP JUMPDEST PUSH1 0x40 MLOAD PUSH3 0x461BCD PUSH1 0xE5 SHL DUP2 MSTORE PUSH1 0x4 ADD PUSH2 0x317 SWAP1 PUSH2 0x54E5 JUMP JUMPDEST PUSH1 0x0 DUP3 DUP3 ADD DUP4 DUP2 LT ISZERO PUSH2 0xC17 JUMPI PUSH1 0x40 DUP1 MLOAD PUSH3 0x461BCD PUSH1 0xE5 SHL DUP2 MSTORE PUSH1 0x20 PUSH1 0x4 DUP3 ADD MSTORE PUSH1 0x1B PUSH1 0x24 DUP3 ADD MSTORE PUSH32 0x536166654D6174683A206164646974696F6E206F766572666C6F770000000000 PUSH1 0x44 DUP3 ADD MSTORE SWAP1 MLOAD SWAP1 DUP2 SWAP1 SUB PUSH1 0x64 ADD SWAP1 REVERT JUMPDEST PUSH1 0x0 PUSH2 0x4A5C PUSH2 0x34A6 JUMP JUMPDEST PUSH1 0x1 PUSH1 0x1 PUSH1 0xA0 SHL SUB DUP5 AND PUSH1 0x0 SWAP1 DUP2 MSTORE PUSH1 0x20 DUP3 SWAP1 MSTORE PUSH1 0x40 SWAP1 KECCAK256 DUP1 SLOAD SWAP2 SWAP3 POP SWAP1 PUSH2 0xFFFF AND DUP4 ISZERO PUSH2 0x4A9B JUMPI DUP2 SLOAD PUSH2 0xFFFF NOT AND PUSH1 0x1 DUP3 OR PUSH2 0xFFFF AND OR DUP3 SSTORE PUSH2 0x4AAB JUMP JUMPDEST DUP2 SLOAD PUSH2 0xFFFF NOT AND PUSH2 0xFFFE DUP3 AND OR DUP3 SSTORE JUMPDEST POP POP POP POP POP JUMP JUMPDEST PUSH1 0x0 DUP1 PUSH1 0x0 DUP1 PUSH1 0x0 PUSH2 0x4AC2 PUSH2 0x4D63 JUMP JUMPDEST PUSH1 0x1 PUSH1 0x1 PUSH1 0xA0 SHL SUB DUP9 AND PUSH1 0x0 SWAP1 DUP2 MSTORE PUSH1 0x20 DUP3 DUP2 MSTORE PUSH1 0x40 DUP1 DUP4 KECCAK256 DUP11 DUP5 MSTORE SWAP1 SWAP2 MSTORE SWAP1 KECCAK256 DUP1 SLOAD PUSH1 0x1 PUSH1 0x1 PUSH1 0x50 SHL SUB DUP2 AND SWAP7 POP PUSH1 0x1 PUSH1 0x50 SHL SWAP1 DIV PUSH4 0xFFFFFFFF AND SWAP5 POP SWAP1 SWAP2 POP DUP4 ISZERO PUSH2 0x4B2B JUMPI DUP1 SLOAD PUSH2 0x4B24 SWAP1 PUSH1 0x1 PUSH1 0x70 SHL SWAP1 DIV PUSH7 0xFFFFFFFFFFFFFF AND PUSH2 0x4D70 JUMP JUMPDEST SWAP3 POP PUSH2 0x4B40 JUMP JUMPDEST DUP1 SLOAD PUSH1 0x1 PUSH1 0x70 SHL SWAP1 DIV PUSH7 0xFFFFFFFFFFFFFF AND SWAP3 POP JUMPDEST SLOAD PUSH1 0x1 PUSH1 0xA8 SHL SWAP1 DIV PUSH1 0xA SWAP1 DUP2 SIGNEXTEND SWAP1 SIGNEXTEND SWAP8 SWAP4 SWAP7 POP SWAP2 SWAP5 POP SWAP3 POP POP JUMP JUMPDEST PUSH1 0x0 DUP2 SLT ISZERO PUSH2 0x4B69 JUMPI PUSH1 0x0 DUP1 REVERT JUMPDEST PUSH2 0x4B7E PUSH1 0x0 DUP4 PUSH2 0xFFFF AND DUP4 PUSH1 0x0 DUP1 PUSH1 0x0 PUSH2 0x4BCB JUMP JUMPDEST DUP2 PUSH2 0xFFFF AND PUSH32 0xD3625F7B5926828151EFE19F7AE655488287357D99EBE67E5FB20522CA739C0B DUP3 PUSH1 0x40 MLOAD PUSH2 0x4BB2 SWAP2 SWAP1 PUSH2 0x53C1 JUMP JUMPDEST PUSH1 0x40 MLOAD DUP1 SWAP2 SUB SWAP1 LOG2 POP POP JUMP JUMPDEST PUSH1 0x0 DUP1 PUSH2 0xC1A PUSH1 0xF PUSH2 0x30AC JUMP JUMPDEST PUSH1 0x0 PUSH2 0x4BD5 PUSH2 0x4D63 JUMP JUMPDEST PUSH1 0x1 PUSH1 0x1 PUSH1 0xA0 SHL SUB DUP9 AND PUSH1 0x0 SWAP1 DUP2 MSTORE PUSH1 0x20 DUP3 DUP2 MSTORE PUSH1 0x40 DUP1 DUP4 KECCAK256 DUP11 DUP5 MSTORE SWAP1 SWAP2 MSTORE SWAP1 KECCAK256 SWAP1 SWAP2 POP PUSH11 0x7FFFFFFFFFFFFFFFFFFFFF NOT DUP7 SLT DUP1 ISZERO SWAP1 PUSH2 0x4C20 JUMPI POP PUSH11 0x7FFFFFFFFFFFFFFFFFFFFF DUP7 SGT ISZERO JUMPDEST PUSH2 0x4C29 JUMPI PUSH1 0x0 DUP1 REVERT JUMPDEST PUSH1 0x0 DUP6 SLT ISZERO DUP1 ISZERO PUSH2 0x4C41 JUMPI POP PUSH1 0x1 PUSH1 0x1 PUSH1 0x50 SHL SUB DUP6 SGT ISZERO JUMPDEST PUSH2 0x4C4A JUMPI PUSH1 0x0 DUP1 REVERT JUMPDEST DUP4 PUSH2 0x4C8A JUMPI PUSH7 0xFFFFFFFFFFFFFF DUP4 GT ISZERO PUSH2 0x4C63 JUMPI PUSH1 0x0 DUP1 REVERT JUMPDEST DUP1 SLOAD PUSH7 0xFFFFFFFFFFFFFF PUSH1 0x70 SHL NOT AND PUSH1 0x1 PUSH1 0x70 SHL PUSH7 0xFFFFFFFFFFFFFF DUP6 AND MUL OR DUP2 SSTORE PUSH2 0x4CA4 JUMP JUMPDEST DUP1 SLOAD PUSH1 0x1 PUSH1 0x50 SHL SWAP1 DIV PUSH4 0xFFFFFFFF AND DUP5 EQ PUSH2 0x4CA4 JUMPI PUSH1 0x0 DUP1 REVERT JUMPDEST DUP1 SLOAD PUSH1 0xA SWAP7 SWAP1 SWAP7 SIGNEXTEND PUSH11 0xFFFFFFFFFFFFFFFFFFFFFF AND PUSH1 0x1 PUSH1 0xA8 SHL MUL PUSH1 0x1 PUSH1 0x1 PUSH1 0xA8 SHL SUB PUSH1 0x1 PUSH1 0x1 PUSH1 0x50 SHL SUB SWAP1 SWAP7 AND PUSH1 0x1 PUSH1 0x1 PUSH1 0x50 SHL SUB NOT PUSH4 0xFFFFFFFF SWAP1 SWAP7 AND PUSH1 0x1 PUSH1 0x50 SHL MUL PUSH4 0xFFFFFFFF PUSH1 0x50 SHL NOT SWAP1 SWAP9 AND SWAP8 SWAP1 SWAP8 OR SWAP5 SWAP1 SWAP5 AND SWAP6 SWAP1 SWAP6 OR SWAP4 SWAP1 SWAP4 AND SWAP2 SWAP1 SWAP2 OR SWAP1 SWAP3 SSTORE POP POP POP POP JUMP JUMPDEST PUSH1 0x0 DUP1 PUSH2 0x4D1D PUSH2 0x4D7E JUMP JUMPDEST PUSH1 0x0 SWAP4 DUP5 MSTORE PUSH1 0x20 MSTORE POP POP PUSH1 0x40 SWAP1 KECCAK256 SLOAD PUSH1 0x1 PUSH1 0x1 PUSH1 0xA0 SHL SUB AND SWAP1 JUMP JUMPDEST PUSH1 0x0 DUP2 SLT ISZERO PUSH2 0x4D46 JUMPI PUSH1 0x0 DUP1 REVERT JUMPDEST PUSH2 0x1012 DUP4 DUP4 DUP4 PUSH1 0x0 DUP1 PUSH1 0x0 PUSH2 0x4BCB JUMP JUMPDEST PUSH1 0x0 DUP1 PUSH2 0xC1A PUSH1 0x9 PUSH2 0x30AC JUMP JUMPDEST PUSH1 0x0 DUP1 PUSH2 0xC1A PUSH1 0x6 PUSH2 0x30AC JUMP JUMPDEST PUSH1 0x8 DUP2 SWAP1 SHR PUSH1 0xFF SWAP1 SWAP2 AND SHL SWAP1 JUMP JUMPDEST PUSH1 0x0 DUP1 PUSH2 0xC1A PUSH1 0x3 PUSH2 0x30AC JUMP JUMPDEST PUSH1 0x40 MLOAD DUP1 PUSH1 0x40 ADD PUSH1 0x40 MSTORE DUP1 PUSH1 0x2 SWAP1 PUSH1 0x20 DUP3 MUL DUP1 CALLDATASIZE DUP4 CALLDATACOPY POP SWAP2 SWAP3 SWAP2 POP POP JUMP JUMPDEST PUSH1 0x40 MLOAD DUP1 PUSH1 0xC0 ADD PUSH1 0x40 MSTORE DUP1 PUSH1 0x0 DUP2 MSTORE PUSH1 0x20 ADD PUSH1 0x0 DUP2 MSTORE PUSH1 0x20 ADD PUSH1 0x0 DUP2 MSTORE PUSH1 0x20 ADD PUSH1 0x0 PUSH1 0x1 PUSH1 0x1 PUSH1 0xA0 SHL SUB AND DUP2 MSTORE PUSH1 0x20 ADD PUSH1 0x0 DUP2 MSTORE PUSH1 0x20 ADD PUSH1 0x0 DUP2 MSTORE POP SWAP1 JUMP JUMPDEST PUSH1 0x40 MLOAD DUP1 PUSH2 0x1A0 ADD PUSH1 0x40 MSTORE DUP1 PUSH1 0x0 PUSH1 0x1 PUSH1 0x1 PUSH1 0xA0 SHL SUB AND DUP2 MSTORE PUSH1 0x20 ADD PUSH1 0x0 PUSH2 0xFFFF AND DUP2 MSTORE PUSH1 0x20 ADD PUSH1 0x0 PUSH2 0xFFFF AND DUP2 MSTORE PUSH1 0x20 ADD PUSH1 0x0 DUP2 MSTORE PUSH1 0x20 ADD PUSH1 0x0 DUP2 MSTORE PUSH1 0x20 ADD PUSH1 0x0 DUP2 MSTORE PUSH1 0x20 ADD PUSH1 0x0 DUP2 MSTORE PUSH1 0x20 ADD PUSH1 0x0 DUP2 MSTORE PUSH1 0x20 ADD PUSH1 0x0 DUP2 MSTORE PUSH1 0x20 ADD PUSH1 0x0 DUP2 MSTORE PUSH1 0x20 ADD PUSH2 0x4E53 PUSH2 0x4D8B JUMP JUMPDEST DUP2 MSTORE PUSH1 0x20 ADD PUSH2 0x4E60 PUSH2 0x4ED3 JUMP JUMPDEST DUP2 MSTORE PUSH1 0x20 ADD PUSH1 0x0 DUP2 MSTORE POP SWAP1 JUMP JUMPDEST PUSH1 0x40 MLOAD DUP1 PUSH1 0xE0 ADD PUSH1 0x40 MSTORE DUP1 PUSH1 0x0 DUP2 MSTORE PUSH1 0x20 ADD PUSH1 0x0 DUP2 MSTORE PUSH1 0x20 ADD PUSH1 0x0 ISZERO ISZERO DUP2 MSTORE PUSH1 0x20 ADD PUSH1 0x0 DUP2 MSTORE PUSH1 0x20 ADD PUSH1 0x0 DUP2 MSTORE PUSH1 0x20 ADD PUSH1 0x0 DUP2 MSTORE PUSH1 0x20 ADD PUSH1 0x0 DUP2 MSTORE POP SWAP1 JUMP JUMPDEST PUSH1 0x40 DUP1 MLOAD PUSH1 0xA0 DUP2 ADD DUP3 MSTORE PUSH1 0x0 DUP1 DUP3 MSTORE PUSH1 0x20 DUP3 ADD DUP2 SWAP1 MSTORE SWAP2 DUP2 ADD DUP3 SWAP1 MSTORE SWAP1 PUSH1 0x60 DUP3 ADD SWAP1 PUSH2 0x4E60 JUMP JUMPDEST PUSH1 0x40 MLOAD DUP1 PUSH1 0x60 ADD PUSH1 0x40 MSTORE DUP1 PUSH1 0x0 PUSH1 0x1 PUSH1 0x1 PUSH1 0xA0 SHL SUB AND DUP2 MSTORE PUSH1 0x20 ADD PUSH1 0x0 DUP2 MSTORE PUSH1 0x20 ADD PUSH1 0x0 DUP2 MSTORE POP SWAP1 JUMP JUMPDEST PUSH1 0x40 MLOAD DUP1 PUSH1 0xA0 ADD PUSH1 0x40 MSTORE DUP1 PUSH1 0x0 DUP2 MSTORE PUSH1 0x20 ADD PUSH1 0x0 DUP2 MSTORE PUSH1 0x20 ADD PUSH1 0x0 DUP2 MSTORE PUSH1 0x20 ADD PUSH1 0x0 DUP2 MSTORE PUSH1 0x20 ADD PUSH1 0x0 DUP2 MSTORE POP SWAP1 JUMP JUMPDEST PUSH1 0x40 MLOAD DUP1 PUSH1 0x20 ADD PUSH1 0x40 MSTORE DUP1 PUSH1 0x1 SWAP1 PUSH1 0x20 DUP3 MUL DUP1 CALLDATASIZE DUP4 CALLDATACOPY POP SWAP2 SWAP3 SWAP2 POP POP JUMP JUMPDEST DUP1 CALLDATALOAD PUSH1 0x1 PUSH1 0x1 PUSH1 0xA0 SHL SUB DUP2 AND DUP2 EQ PUSH2 0xF3E JUMPI PUSH1 0x0 DUP1 REVERT JUMPDEST PUSH1 0x0 DUP1 DUP4 PUSH1 0x1F DUP5 ADD SLT PUSH2 0x4F72 JUMPI DUP2 DUP3 REVERT JUMPDEST POP DUP2 CALLDATALOAD PUSH8 0xFFFFFFFFFFFFFFFF DUP2 GT ISZERO PUSH2 0x4F89 JUMPI DUP2 DUP3 REVERT JUMPDEST PUSH1 0x20 DUP4 ADD SWAP2 POP DUP4 PUSH1 0x20 DUP3 DUP6 ADD ADD GT ISZERO PUSH2 0x18C6 JUMPI PUSH1 0x0 DUP1 REVERT JUMPDEST DUP1 CALLDATALOAD PUSH4 0xFFFFFFFF DUP2 AND DUP2 EQ PUSH2 0xF3E JUMPI PUSH1 0x0 DUP1 REVERT JUMPDEST DUP1 MLOAD PUSH1 0x1 PUSH1 0x1 PUSH1 0x50 SHL SUB DUP2 AND DUP2 EQ PUSH2 0xF3E JUMPI PUSH1 0x0 DUP1 REVERT JUMPDEST PUSH1 0x0 DUP1 PUSH1 0x40 DUP4 DUP6 SUB SLT ISZERO PUSH2 0x4FDE JUMPI DUP2 DUP3 REVERT JUMPDEST PUSH2 0x4FE7 DUP4 PUSH2 0x4F4A JUMP JUMPDEST SWAP2 POP PUSH2 0x18C3 PUSH1 0x20 DUP5 ADD PUSH2 0x4F4A JUMP JUMPDEST PUSH1 0x0 DUP1 PUSH1 0x0 DUP1 PUSH1 0x0 DUP1 PUSH1 0x0 PUSH1 0xC0 DUP9 DUP11 SUB SLT ISZERO PUSH2 0x500F JUMPI DUP3 DUP4 REVERT JUMPDEST PUSH2 0x5018 DUP9 PUSH2 0x4F4A JUMP JUMPDEST SWAP7 POP PUSH2 0x5026 PUSH1 0x20 DUP10 ADD PUSH2 0x4F4A JUMP JUMPDEST SWAP6 POP PUSH2 0x5034 PUSH1 0x40 DUP10 ADD PUSH2 0x4F4A JUMP JUMPDEST SWAP5 POP PUSH1 0x60 DUP9 ADD CALLDATALOAD SWAP4 POP PUSH1 0x80 DUP9 ADD CALLDATALOAD DUP1 ISZERO ISZERO DUP2 EQ PUSH2 0x504F JUMPI DUP4 DUP5 REVERT JUMPDEST SWAP3 POP PUSH1 0xA0 DUP9 ADD CALLDATALOAD PUSH8 0xFFFFFFFFFFFFFFFF DUP2 GT ISZERO PUSH2 0x506A JUMPI DUP3 DUP4 REVERT JUMPDEST PUSH2 0x5076 DUP11 DUP3 DUP12 ADD PUSH2 0x4F61 JUMP JUMPDEST SWAP9 SWAP12 SWAP8 SWAP11 POP SWAP6 SWAP9 POP SWAP4 SWAP7 SWAP3 SWAP6 SWAP3 SWAP4 POP POP POP JUMP JUMPDEST PUSH1 0x0 DUP1 PUSH1 0x0 DUP1 PUSH1 0x0 DUP1 PUSH1 0x0 DUP1 PUSH1 0xE0 DUP10 DUP12 SUB SLT ISZERO PUSH2 0x50A4 JUMPI DUP1 DUP2 REVERT JUMPDEST PUSH2 0x50AD DUP10 PUSH2 0x4F4A JUMP JUMPDEST SWAP8 POP PUSH2 0x50BB PUSH1 0x20 DUP11 ADD PUSH2 0x4F4A JUMP JUMPDEST SWAP7 POP PUSH2 0x50C9 PUSH1 0x40 DUP11 ADD PUSH2 0x4F4A JUMP JUMPDEST SWAP6 POP PUSH1 0x60 DUP10 ADD CALLDATALOAD SWAP5 POP PUSH1 0x80 DUP10 ADD CALLDATALOAD SWAP4 POP PUSH2 0x50E5 PUSH1 0xA0 DUP11 ADD PUSH2 0x4FA1 JUMP JUMPDEST SWAP3 POP PUSH1 0xC0 DUP10 ADD CALLDATALOAD PUSH8 0xFFFFFFFFFFFFFFFF DUP2 GT ISZERO PUSH2 0x5100 JUMPI DUP2 DUP3 REVERT JUMPDEST PUSH2 0x510C DUP12 DUP3 DUP13 ADD PUSH2 0x4F61 JUMP JUMPDEST SWAP10 SWAP13 SWAP9 SWAP12 POP SWAP7 SWAP10 POP SWAP5 SWAP8 SWAP4 SWAP7 SWAP3 SWAP6 SWAP5 POP POP POP JUMP JUMPDEST PUSH1 0x0 DUP1 PUSH1 0x0 DUP1 PUSH1 0x0 DUP1 PUSH1 0x0 DUP1 PUSH1 0xE0 DUP10 DUP12 SUB SLT ISZERO PUSH2 0x513B JUMPI DUP4 DUP5 REVERT JUMPDEST PUSH2 0x5144 DUP10 PUSH2 0x4F4A JUMP JUMPDEST SWAP8 POP PUSH2 0x5152 PUSH1 0x20 DUP11 ADD PUSH2 0x4F4A JUMP JUMPDEST SWAP7 POP PUSH1 0x40 DUP10 ADD CALLDATALOAD SWAP6 POP PUSH1 0x60 DUP10 ADD CALLDATALOAD SWAP5 POP PUSH1 0x80 DUP10 ADD CALLDATALOAD SWAP4 POP PUSH2 0x5175 PUSH1 0xA0 DUP11 ADD PUSH2 0x4FA1 JUMP JUMPDEST SWAP3 POP PUSH1 0xC0 DUP10 ADD CALLDATALOAD PUSH8 0xFFFFFFFFFFFFFFFF DUP2 GT ISZERO PUSH2 0x5100 JUMPI DUP3 DUP4 REVERT JUMPDEST PUSH1 0x0 DUP1 PUSH1 0x0 DUP1 PUSH1 0x0 DUP1 PUSH1 0x0 DUP1 PUSH1 0x0 PUSH2 0x100 DUP11 DUP13 SUB SLT ISZERO PUSH2 0x51AE JUMPI DUP1 DUP2 REVERT JUMPDEST PUSH2 0x51B7 DUP11 PUSH2 0x4F4A JUMP JUMPDEST SWAP9 POP PUSH2 0x51C5 PUSH1 0x20 DUP12 ADD PUSH2 0x4F4A JUMP JUMPDEST SWAP8 POP PUSH1 0x40 DUP11 ADD CALLDATALOAD SWAP7 POP PUSH1 0x60 DUP11 ADD CALLDATALOAD SWAP6 POP PUSH1 0x80 DUP11 ADD CALLDATALOAD SWAP5 POP PUSH2 0x51E8 PUSH1 0xA0 DUP12 ADD PUSH2 0x4FA1 JUMP JUMPDEST SWAP4 POP PUSH2 0x51F6 PUSH1 0xC0 DUP12 ADD PUSH2 0x4FA1 JUMP JUMPDEST SWAP3 POP PUSH1 0xE0 DUP11 ADD CALLDATALOAD PUSH8 0xFFFFFFFFFFFFFFFF DUP2 GT ISZERO PUSH2 0x5211 JUMPI DUP2 DUP3 REVERT JUMPDEST PUSH2 0x521D DUP13 DUP3 DUP14 ADD PUSH2 0x4F61 JUMP JUMPDEST SWAP2 POP DUP1 SWAP4 POP POP DUP1 SWAP2 POP POP SWAP3 SWAP6 SWAP9 POP SWAP3 SWAP6 SWAP9 POP SWAP3 SWAP6 SWAP9 JUMP JUMPDEST PUSH1 0x0 PUSH1 0x20 DUP3 DUP5 SUB SLT ISZERO PUSH2 0x5245 JUMPI DUP1 DUP2 REVERT JUMPDEST POP MLOAD SWAP2 SWAP1 POP JUMP JUMPDEST PUSH1 0x0 DUP1 PUSH1 0x0 DUP1 PUSH1 0x0 PUSH1 0xA0 DUP7 DUP9 SUB SLT ISZERO PUSH2 0x5263 JUMPI DUP1 DUP2 REVERT JUMPDEST PUSH2 0x526C DUP7 PUSH2 0x4FB5 JUMP JUMPDEST SWAP5 POP PUSH1 0x20 DUP7 ADD MLOAD SWAP4 POP PUSH1 0x40 DUP7 ADD MLOAD SWAP3 POP PUSH1 0x60 DUP7 ADD MLOAD SWAP2 POP PUSH2 0x528F PUSH1 0x80 DUP8 ADD PUSH2 0x4FB5 JUMP JUMPDEST SWAP1 POP SWAP3 SWAP6 POP SWAP3 SWAP6 SWAP1 SWAP4 POP JUMP JUMPDEST PUSH1 0x0 DUP3 DUP5 MSTORE DUP3 DUP3 PUSH1 0x20 DUP7 ADD CALLDATACOPY DUP1 PUSH1 0x20 DUP5 DUP7 ADD ADD MSTORE PUSH1 0x20 PUSH1 0x1F NOT PUSH1 0x1F DUP6 ADD AND DUP6 ADD ADD SWAP1 POP SWAP4 SWAP3 POP POP POP JUMP JUMPDEST PUSH1 0x1 PUSH1 0x1 PUSH1 0xA0 SHL SUB SWAP2 SWAP1 SWAP2 AND DUP2 MSTORE PUSH1 0x20 ADD SWAP1 JUMP JUMPDEST PUSH1 0x0 PUSH1 0x1 DUP1 PUSH1 0xA0 SHL SUB DUP1 DUP11 AND DUP4 MSTORE DUP1 DUP10 AND PUSH1 0x20 DUP5 ADD MSTORE POP DUP7 PUSH1 0x40 DUP4 ADD MSTORE DUP6 PUSH1 0x60 DUP4 ADD MSTORE DUP5 PUSH1 0x80 DUP4 ADD MSTORE PUSH1 0xC0 PUSH1 0xA0 DUP4 ADD MSTORE PUSH2 0x40A0 PUSH1 0xC0 DUP4 ADD DUP5 DUP7 PUSH2 0x529B JUMP JUMPDEST PUSH1 0x1 PUSH1 0x1 PUSH1 0xA0 SHL SUB SWAP4 DUP5 AND DUP2 MSTORE PUSH1 0x20 DUP2 ADD SWAP3 SWAP1 SWAP3 MSTORE SWAP1 SWAP2 AND PUSH1 0x40 DUP3 ADD MSTORE PUSH1 0x60 ADD SWAP1 JUMP JUMPDEST PUSH1 0x1 PUSH1 0x1 PUSH1 0xA0 SHL SUB SWAP5 DUP6 AND DUP2 MSTORE PUSH1 0x20 DUP2 ADD SWAP4 SWAP1 SWAP4 MSTORE SWAP3 AND PUSH1 0x40 DUP3 ADD MSTORE PUSH2 0xFFFF SWAP1 SWAP2 AND PUSH1 0x60 DUP3 ADD MSTORE PUSH1 0x80 ADD SWAP1 JUMP JUMPDEST PUSH1 0x1 PUSH1 0x1 PUSH1 0xA0 SHL SUB SWAP4 SWAP1 SWAP4 AND DUP4 MSTORE PUSH1 0x20 DUP4 ADD SWAP2 SWAP1 SWAP2 MSTORE PUSH1 0x40 DUP3 ADD MSTORE PUSH1 0x60 ADD SWAP1 JUMP JUMPDEST PUSH1 0x0 PUSH1 0x1 DUP1 PUSH1 0xA0 SHL SUB DUP8 AND DUP3 MSTORE DUP6 PUSH1 0x20 DUP4 ADD MSTORE DUP5 PUSH1 0x40 DUP4 ADD MSTORE PUSH1 0x80 PUSH1 0x60 DUP4 ADD MSTORE PUSH2 0x2567 PUSH1 0x80 DUP4 ADD DUP5 DUP7 PUSH2 0x529B JUMP JUMPDEST SWAP1 ISZERO ISZERO DUP2 MSTORE PUSH1 0x20 ADD SWAP1 JUMP JUMPDEST SWAP1 DUP2 MSTORE PUSH1 0x20 ADD SWAP1 JUMP JUMPDEST SWAP2 DUP3 MSTORE PUSH1 0x20 DUP3 ADD MSTORE PUSH1 0x40 ADD SWAP1 JUMP JUMPDEST SWAP4 DUP5 MSTORE PUSH1 0x20 DUP5 ADD SWAP3 SWAP1 SWAP3 MSTORE PUSH1 0x40 DUP4 ADD MSTORE PUSH1 0x60 DUP3 ADD MSTORE PUSH1 0x80 ADD SWAP1 JUMP JUMPDEST PUSH1 0x20 DUP1 DUP3 MSTORE PUSH1 0xC SWAP1 DUP3 ADD MSTORE PUSH12 0x155B985D5D1A1BDC9A5E9959 PUSH1 0xA2 SHL PUSH1 0x40 DUP3 ADD MSTORE PUSH1 0x60 ADD SWAP1 JUMP JUMPDEST PUSH1 0x20 DUP1 DUP3 MSTORE PUSH1 0x15 SWAP1 DUP3 ADD MSTORE PUSH21 0xACC2EAD8E840A6D0C2E4CAE6409AD2E6DAC2E8C6D PUSH1 0x5B SHL PUSH1 0x40 DUP3 ADD MSTORE PUSH1 0x60 ADD SWAP1 JUMP JUMPDEST PUSH1 0x20 DUP1 DUP3 MSTORE PUSH1 0x4 SWAP1 DUP3 ADD MSTORE PUSH4 0x135A5B9D PUSH1 0xE2 SHL PUSH1 0x40 DUP3 ADD MSTORE PUSH1 0x60 ADD SWAP1 JUMP JUMPDEST PUSH1 0x20 DUP1 DUP3 MSTORE PUSH1 0x6 SWAP1 DUP3 ADD MSTORE PUSH6 0x52656465656D PUSH1 0xD0 SHL PUSH1 0x40 DUP3 ADD MSTORE PUSH1 0x60 ADD SWAP1 JUMP JUMPDEST PUSH1 0x20 DUP1 DUP3 MSTORE PUSH1 0x16 SWAP1 DUP3 ADD MSTORE PUSH22 0x125B9CDD59999A58DA595B9D081C995C185E5B595B9D PUSH1 0x52 SHL PUSH1 0x40 DUP3 ADD MSTORE PUSH1 0x60 ADD SWAP1 JUMP JUMPDEST PUSH1 0x20 DUP1 DUP3 MSTORE PUSH1 0x15 SWAP1 DUP3 ADD MSTORE PUSH21 0x10D1CE881B9BC81B585C9AD95D1CC81B1A5CDD1959 PUSH1 0x5A SHL PUSH1 0x40 DUP3 ADD MSTORE PUSH1 0x60 ADD SWAP1 JUMP JUMPDEST PUSH1 0x20 DUP1 DUP3 MSTORE PUSH1 0xD SWAP1 DUP3 ADD MSTORE PUSH13 0x92DCECC2D8D2C840D2DCC8CAF PUSH1 0x9B SHL PUSH1 0x40 DUP3 ADD MSTORE PUSH1 0x60 ADD SWAP1 JUMP JUMPDEST PUSH1 0x20 DUP1 DUP3 MSTORE PUSH1 0x10 SWAP1 DUP3 ADD MSTORE PUSH16 0x496E76616C6964204D61747572697479 PUSH1 0x80 SHL PUSH1 0x40 DUP3 ADD MSTORE PUSH1 0x60 ADD SWAP1 JUMP JUMPDEST PUSH1 0x20 DUP1 DUP3 MSTORE PUSH1 0x14 SWAP1 DUP3 ADD MSTORE PUSH20 0x10589BDD994813585E0810DBDB1B185D195C985B PUSH1 0x62 SHL PUSH1 0x40 DUP3 ADD MSTORE PUSH1 0x60 ADD SWAP1 JUMP JUMPDEST PUSH1 0x20 DUP1 DUP3 MSTORE PUSH1 0xC SWAP1 DUP3 ADD MSTORE PUSH12 0x4D6178204361706163697479 PUSH1 0xA0 SHL PUSH1 0x40 DUP3 ADD MSTORE PUSH1 0x60 ADD SWAP1 JUMP JUMPDEST PUSH1 0x20 DUP1 DUP3 MSTORE PUSH1 0xB SWAP1 DUP3 ADD MSTORE PUSH11 0x139BDD0814D95D1D1B1959 PUSH1 0xAA SHL PUSH1 0x40 DUP3 ADD MSTORE PUSH1 0x60 ADD SWAP1 JUMP JUMPDEST PUSH1 0x20 DUP1 DUP3 MSTORE PUSH1 0x16 SWAP1 DUP3 ADD MSTORE PUSH22 0x10D1CE881B585C9AD95D081A5B99195E08189BDD5B99 PUSH1 0x52 SHL PUSH1 0x40 DUP3 ADD MSTORE PUSH1 0x60 ADD SWAP1 JUMP JUMPDEST PUSH1 0x20 DUP1 DUP3 MSTORE PUSH1 0xF SWAP1 DUP3 ADD MSTORE PUSH15 0x139BC8149BDB1B08105B1B1BDDD959 PUSH1 0x8A SHL PUSH1 0x40 DUP3 ADD MSTORE PUSH1 0x60 ADD SWAP1 JUMP JUMPDEST PUSH1 0x20 DUP1 DUP3 MSTORE PUSH1 0x17 SWAP1 DUP3 ADD MSTORE PUSH32 0x496E73756666696369656E7420436F6C6C61746572616C000000000000000000 PUSH1 0x40 DUP3 ADD MSTORE PUSH1 0x60 ADD SWAP1 JUMP JUMPDEST PUSH1 0x20 DUP1 DUP3 MSTORE PUSH1 0x17 SWAP1 DUP3 ADD MSTORE PUSH32 0x4D757374204C697175696461746520416C6C2044656274000000000000000000 PUSH1 0x40 DUP3 ADD MSTORE PUSH1 0x60 ADD SWAP1 JUMP JUMPDEST PUSH1 0x20 DUP1 DUP3 MSTORE PUSH1 0xC SWAP1 DUP3 ADD MSTORE PUSH12 0x496E76616C69642072617465 PUSH1 0xA0 SHL PUSH1 0x40 DUP3 ADD MSTORE PUSH1 0x60 ADD SWAP1 JUMP JUMPDEST PUSH1 0x20 DUP1 DUP3 MSTORE PUSH1 0xE SWAP1 DUP3 ADD MSTORE PUSH14 0x1499595B9D1C985B9D0818D85B1B PUSH1 0x92 SHL PUSH1 0x40 DUP3 ADD MSTORE PUSH1 0x60 ADD SWAP1 JUMP JUMPDEST PUSH1 0x20 DUP1 DUP3 MSTORE PUSH1 0xD SWAP1 DUP3 ADD MSTORE PUSH13 0x109BDC9C9BDDC819985A5B1959 PUSH1 0x9A SHL PUSH1 0x40 DUP3 ADD MSTORE PUSH1 0x60 ADD SWAP1 JUMP JUMPDEST PUSH1 0x20 DUP1 DUP3 MSTORE PUSH1 0x10 SWAP1 DUP3 ADD MSTORE PUSH16 0x4D696E20456E74727920426C6F636B73 PUSH1 0x80 SHL PUSH1 0x40 DUP3 ADD MSTORE PUSH1 0x60 ADD SWAP1 JUMP JUMPDEST PUSH1 0x20 DUP1 DUP3 MSTORE PUSH1 0xA SWAP1 DUP3 ADD MSTORE PUSH10 0x4D696E20426F72726F77 PUSH1 0xB0 SHL PUSH1 0x40 DUP3 ADD MSTORE PUSH1 0x60 ADD SWAP1 JUMP JUMPDEST PUSH1 0x20 DUP1 DUP3 MSTORE PUSH1 0xB SWAP1 DUP3 ADD MSTORE PUSH11 0x92DCECC2D8D2C8408AA89 PUSH1 0xAB SHL PUSH1 0x40 DUP3 ADD MSTORE PUSH1 0x60 ADD SWAP1 JUMP JUMPDEST PUSH1 0x20 DUP1 DUP3 MSTORE PUSH1 0x13 SWAP1 DUP3 ADD MSTORE PUSH19 0x10D1CE881B9BC81B585C9AD95D08199BDD5B99 PUSH1 0x6A SHL PUSH1 0x40 DUP3 ADD MSTORE PUSH1 0x60 ADD SWAP1 JUMP JUMPDEST PUSH1 0x20 DUP1 DUP3 MSTORE PUSH1 0xC SWAP1 DUP3 ADD MSTORE PUSH12 0x21B0B73737BA1022B73A32B9 PUSH1 0xA1 SHL PUSH1 0x40 DUP3 ADD MSTORE PUSH1 0x60 ADD SWAP1 JUMP JUMPDEST PUSH1 0x20 DUP1 DUP3 MSTORE PUSH1 0xB SWAP1 DUP3 ADD MSTORE PUSH11 0x11985A5B19590813195B99 PUSH1 0xAA SHL PUSH1 0x40 DUP3 ADD MSTORE PUSH1 0x60 ADD SWAP1 JUMP JUMPDEST PUSH1 0x20 DUP1 DUP3 MSTORE PUSH1 0x15 SWAP1 DUP3 ADD MSTORE PUSH21 0x14DD59999A58DA595B9D0810DBDB1B185D195C985B PUSH1 0x5A SHL PUSH1 0x40 DUP3 ADD MSTORE PUSH1 0x60 ADD SWAP1 JUMP JUMPDEST DUP2 MLOAD DUP2 MSTORE PUSH1 0x20 DUP1 DUP4 ADD MLOAD SWAP1 DUP3 ADD MSTORE PUSH1 0x40 DUP1 DUP4 ADD MLOAD SWAP1 DUP3 ADD MSTORE PUSH1 0x60 DUP1 DUP4 ADD MLOAD PUSH1 0x1 PUSH1 0x1 PUSH1 0xA0 SHL SUB AND SWAP1 DUP3 ADD MSTORE PUSH1 0x80 DUP1 DUP4 ADD MLOAD SWAP1 DUP3 ADD MSTORE PUSH1 0xA0 SWAP2 DUP3 ADD MLOAD SWAP2 DUP2 ADD SWAP2 SWAP1 SWAP2 MSTORE PUSH1 0xC0 ADD SWAP1 JUMP JUMPDEST PUSH1 0x1 PUSH1 0x1 PUSH1 0x80 SHL SUB SWAP2 SWAP1 SWAP2 AND DUP2 MSTORE PUSH1 0x20 ADD SWAP1 JUMP JUMPDEST PUSH2 0xFFFF SWAP3 SWAP1 SWAP3 AND DUP3 MSTORE PUSH1 0x20 DUP3 ADD MSTORE PUSH1 0x40 ADD SWAP1 JUMP JUMPDEST DUP4 DUP2 MSTORE PUSH1 0x80 DUP2 ADD PUSH1 0x20 DUP1 DUP4 ADD DUP6 PUSH1 0x0 JUMPDEST PUSH1 0x2 DUP2 LT ISZERO PUSH2 0x58A2 JUMPI DUP2 MLOAD DUP4 MSTORE SWAP2 DUP4 ADD SWAP2 SWAP1 DUP4 ADD SWAP1 PUSH1 0x1 ADD PUSH2 0x5885 JUMP JUMPDEST POP POP POP POP DUP3 PUSH1 0x60 DUP4 ADD MSTORE SWAP5 SWAP4 POP POP POP POP JUMP JUMPDEST SWAP2 DUP3 MSTORE ISZERO ISZERO PUSH1 0x20 DUP3 ADD MSTORE PUSH1 0x40 ADD SWAP1 JUMP JUMPDEST SWAP3 DUP4 MSTORE PUSH1 0x20 DUP4 ADD SWAP2 SWAP1 SWAP2 MSTORE PUSH1 0x40 DUP3 ADD MSTORE PUSH1 0x60 ADD SWAP1 JUMP INVALID LOG2 PUSH5 0x6970667358 0x22 SLT KECCAK256 0xC2 PC 0xA8 PUSH11 0xF76B9D778A736E494B1D27 DUP16 0xB2 MLOAD MOD 0xCA GT SHR MULMOD SMOD PUSH28 0xBBFEC085D478E364736F6C6343000706003300000000000000000000 ",
  "sha1": "9db1baf4085dbe7ab808b50b5d32c2165344c6c3",
  "source": "// SPDX-License-Identifier: GPL-3.0-only\npragma solidity =0.7.6;\npragma abicoder v2;\n\nimport {ActionGuards} from \"./ActionGuards.sol\";\nimport {IVaultAccountAction} from \"../../../interfaces/notional/IVaultController.sol\";\nimport \"../../internal/vaults/VaultConfiguration.sol\";\nimport \"../../internal/vaults/VaultAccount.sol\";\nimport {VaultStateLib, VaultState} from \"../../internal/vaults/VaultState.sol\";\nimport {TokenHandler, Token, AaveHandler} from \"../../internal/balances/TokenHandler.sol\";\n\ncontract VaultAccountAction is ActionGuards, IVaultAccountAction {\n    using VaultConfiguration for VaultConfig;\n    using VaultAccountLib for VaultAccount;\n    using VaultStateLib for VaultState;\n    using AssetRate for AssetRateParameters;\n    using TokenHandler for Token;\n    using SafeInt256 for int256;\n    using SafeUint256 for uint256;\n\n    /// @notice Borrows a specified amount of fCash in the vault's borrow currency and deposits it\n    /// all plus the depositAmountExternal into the vault to mint strategy tokens.\n    /// @param account the address that will enter the vault\n    /// @param vault the vault to enter\n    /// @param depositAmountExternal some amount of additional collateral in the borrowed currency\n    /// to be transferred to vault\n    /// @param maturity the maturity to borrow at\n    /// @param fCash amount to borrow\n    /// @param maxBorrowRate maximum interest rate to borrow at\n    /// @param vaultData additional data to pass to the vault contract\n    /// @return strategyTokensAdded the total strategy tokens added to the maturity, including any tokens\n    /// from settlement. Allows enterVault to be used by off-chain methods to get an accurate simulation\n    /// of the strategy tokens minted.\n    function enterVault(\n        address account,\n        address vault,\n        uint256 depositAmountExternal,\n        uint256 maturity,\n        uint256 fCash,\n        uint32 maxBorrowRate,\n        bytes calldata vaultData\n    ) external payable override nonReentrant returns (uint256 strategyTokensAdded) { \n        // Ensure that system level accounts cannot enter vaults\n        requireValidAccount(account);\n        require(account != vault);\n\n        VaultConfig memory vaultConfig = VaultConfiguration.getVaultConfigStateful(vault);\n        vaultConfig.authorizeCaller(account, VaultConfiguration.ONLY_VAULT_ENTRY);\n\n        // If the vault allows further re-entrancy then set the status back to the default\n        if (vaultConfig.getFlag(VaultConfiguration.ALLOW_REENTRANCY)) {\n            reentrancyStatus = _NOT_ENTERED;\n        }\n\n        // Vaults cannot be entered if they are paused or matured\n        require(vaultConfig.getFlag(VaultConfiguration.ENABLED), \"Cannot Enter\");\n        require(block.timestamp < maturity, \"Cannot Enter\");\n        VaultAccount memory vaultAccount = VaultAccountLib.getVaultAccount(account, vault);\n\n        uint256 strategyTokens;\n        if (vaultAccount.maturity != 0 && vaultAccount.maturity <= block.timestamp) {\n            // These strategy tokens will be transferred to the new maturity\n            strategyTokens = vaultAccount.settleVaultAccount(vaultConfig, block.timestamp);\n        }\n\n        // Deposits some amount of underlying tokens into the vault directly to serve as additional collateral when\n        // entering the vault.\n        uint256 additionalUnderlyingExternal = vaultConfig.transferUnderlyingToVaultDirect(account, depositAmountExternal);\n        strategyTokensAdded = vaultAccount.borrowAndEnterVault(\n            vaultConfig, maturity, fCash, maxBorrowRate, vaultData, strategyTokens, additionalUnderlyingExternal\n        );\n\n        emit VaultEnterPosition(vault, account, maturity, fCash);\n    }\n\n    /// @notice Re-enters the vault at a longer dated maturity. The account's existing borrow position will be closed\n    /// and a new borrow position at the specified maturity will be opened. Strategy token holdings will transfer to\n    /// the longer dated maturity.\n    /// @param account the address that will reenter the vault\n    /// @param vault the vault to reenter\n    /// @param fCashToBorrow amount of fCash to borrow in the next maturity\n    /// @param maturity new maturity to borrow at\n    /// @param depositAmountExternal amount to deposit into the new maturity\n    /// @param minLendRate slippage protection for repaying debts\n    /// @param maxBorrowRate slippage protection for new borrow position\n    /// @return strategyTokensAdded the total strategy tokens added to the maturity, including any tokens\n    /// rolled from the previous maturity.. Allows rollVaultPosition to be used by off-chain methods to get\n    /// an accurate simulation of the strategy tokens minted.\n    function rollVaultPosition(\n        address account,\n        address vault,\n        uint256 fCashToBorrow,\n        uint256 maturity,\n        uint256 depositAmountExternal,\n        uint32 minLendRate,\n        uint32 maxBorrowRate,\n        bytes calldata enterVaultData\n    ) external payable override nonReentrant returns (uint256 strategyTokensAdded) {\n        VaultConfig memory vaultConfig = VaultConfiguration.getVaultConfigStateful(vault);\n        vaultConfig.authorizeCaller(account, VaultConfiguration.ONLY_VAULT_ROLL);\n\n        // If the vault allows further re-entrancy then set the status back to the default\n        if (vaultConfig.getFlag(VaultConfiguration.ALLOW_REENTRANCY)) {\n            reentrancyStatus = _NOT_ENTERED;\n        }\n\n        VaultAccount memory vaultAccount = VaultAccountLib.getVaultAccount(account, vault);\n        // Cannot roll unless all of these requirements are met\n        require(\n            vaultConfig.getFlag(VaultConfiguration.ENABLED) &&\n            vaultConfig.getFlag(VaultConfiguration.ALLOW_ROLL_POSITION) &&\n            block.timestamp < vaultAccount.maturity && // cannot have matured yet\n            vaultAccount.maturity < maturity && // new maturity must be forward in time\n            fCashToBorrow > 0, // must borrow into the next maturity, if not, then they should just exit\n            \"No Roll Allowed\"\n        );\n\n        VaultState memory vaultState = VaultStateLib.getVaultState(vaultConfig.vault, vaultAccount.maturity);\n        // Exit the maturity pool by removing all the vault shares. All of the strategy tokens will be\n        // re-deposited into the new maturity\n        uint256 strategyTokens = vaultState.exitMaturity(vaultAccount, vaultAccount.vaultShares);\n\n        // Exit the vault first and debit the temporary cash balance with the cost to exit\n        vaultAccount.lendToExitVault(\n            vaultConfig,\n            vaultState,\n            vaultAccount.fCash.neg(), // must fully exit the fCash position\n            minLendRate,\n            block.timestamp\n        );\n\n        // This should never be the case for a healthy vault account due to the mechanics of exiting the vault\n        // above but we check it for safety here.\n        require(vaultAccount.fCash == 0, \"Failed Lend\");\n        vaultState.setVaultState(vaultConfig.vault);\n\n        // Takes a deposit from the user as repayment for the lending, allows an account to roll their position\n        // even if they are close to the max borrow capacity.\n        if (depositAmountExternal > 0) {\n            vaultAccount.depositForRollPosition(vaultConfig, depositAmountExternal);\n        }\n\n        // Enters the vault at the longer dated maturity. The account is required to borrow at this\n        // point due  to the requirement earlier in this method, they cannot enter the maturity\n        // with below minAccountBorrowSize\n        strategyTokensAdded = vaultAccount.borrowAndEnterVault(\n            vaultConfig,\n            maturity, // This is the new maturity to enter\n            fCashToBorrow,\n            maxBorrowRate,\n            enterVaultData,\n            strategyTokens,\n            0 // No additional tokens deposited in this method\n        );\n\n        emit VaultRollPosition(vault, account, maturity, fCashToBorrow);\n    }\n\n    /// @notice Prior to maturity, allows an account to withdraw their position from the vault. Will\n    /// redeem some number of vault shares to the borrow currency and close the borrow position by\n    /// lending `fCashToLend`. Any shortfall in cash from lending will be transferred from the account,\n    /// any excess profits will be transferred to the account.\n    /// Post maturity, will net off the account's debt against vault cash balances and redeem all remaining\n    /// strategy tokens back to the borrowed currency and transfer the profits to the account.\n    /// @param account the address that will exit the vault\n    /// @param vault the vault to enter\n    /// @param receiver the address that will receive profits\n    /// @param vaultSharesToRedeem amount of vault tokens to exit, only relevant when exiting pre-maturity\n    /// @param fCashToLend amount of fCash to lend\n    /// @param minLendRate the minimum rate to lend at\n    /// @param exitVaultData passed to the vault during exit\n    /// @return underlyingToReceiver amount of underlying tokens returned to the receiver on exit\n    function exitVault(\n        address account,\n        address vault,\n        address receiver,\n        uint256 vaultSharesToRedeem,\n        uint256 fCashToLend,\n        uint32 minLendRate,\n        bytes calldata exitVaultData\n    ) external payable override nonReentrant returns (uint256 underlyingToReceiver) {\n        VaultConfig memory vaultConfig = VaultConfiguration.getVaultConfigStateful(vault);\n        vaultConfig.authorizeCaller(account, VaultConfiguration.ONLY_VAULT_EXIT);\n\n        // If the vault allows further re-entrancy then set the status back to the default\n        if (vaultConfig.getFlag(VaultConfiguration.ALLOW_REENTRANCY)) {\n            reentrancyStatus = _NOT_ENTERED;\n        }\n\n        VaultAccount memory vaultAccount = VaultAccountLib.getVaultAccount(account, vault);\n        require(\n            vaultAccount.lastEntryBlockHeight + Constants.VAULT_ACCOUNT_MIN_BLOCKS <= block.number,\n            \"Min Entry Blocks\"\n        );\n\n        if (vaultAccount.maturity <= block.timestamp) {\n            // Save this off because settleVaultAccount will clear the maturity\n            uint256 maturity = vaultAccount.maturity;\n            // Past maturity, an account will be settled instead\n            uint256 strategyTokens = vaultAccount.settleVaultAccount(vaultConfig, block.timestamp);\n\n            if (vaultAccount.tempCashBalance > 0) {\n                // Transfer asset cash back to the account\n                VaultConfiguration.transferFromNotional(\n                    receiver, vaultConfig.borrowCurrencyId, vaultAccount.tempCashBalance\n                );\n                vaultAccount.tempCashBalance = 0;\n            }\n\n            // Redeems all strategy tokens and any profits are sent back to the account, it is possible for temp\n            // cash balance to be negative here if the account is insolvent\n            underlyingToReceiver = vaultConfig.redeemWithDebtRepayment(\n                vaultAccount, receiver, strategyTokens, maturity, exitVaultData\n            );\n            emit VaultExitPostMaturity(vault, account, maturity, underlyingToReceiver);\n        } else {\n            VaultState memory vaultState = VaultStateLib.getVaultState(vaultConfig.vault, vaultAccount.maturity);\n            // Puts a negative cash balance on the vault's temporary cash balance\n            vaultAccount.lendToExitVault(\n                vaultConfig, vaultState, fCashToLend.toInt(), minLendRate, block.timestamp\n            );\n\n            uint256 strategyTokens = vaultState.exitMaturity(vaultAccount, vaultSharesToRedeem);\n\n            if (vaultAccount.tempCashBalance > 0) {\n                // Transfer asset cash back to the account, this is possible if there is asset cash\n                // when the vault exits the maturity\n                VaultConfiguration.transferFromNotional(\n                    receiver, vaultConfig.borrowCurrencyId, vaultAccount.tempCashBalance\n                );\n                vaultAccount.tempCashBalance = 0;\n            }\n\n            // If insufficient strategy tokens are redeemed (or if it is set to zero), then\n            // redeem with debt repayment will recover the repayment from the account's wallet\n            // directly.\n            underlyingToReceiver = vaultConfig.redeemWithDebtRepayment(\n                vaultAccount, receiver, strategyTokens, vaultState.maturity, exitVaultData\n            );\n\n            // It's possible that the user redeems more vault shares than they lend (it is not always the case\n            // that they will be increasing their collateral ratio here, so we check that this is the case).\n            vaultConfig.checkCollateralRatio(vaultState, vaultAccount);\n\n            // Set the vault state after redemption completes\n            vaultState.setVaultState(vaultConfig.vault);\n            emit VaultExitPreMaturity(vault, account, vaultState.maturity, fCashToLend, vaultSharesToRedeem, underlyingToReceiver);\n        }\n\n        if (vaultAccount.fCash == 0 && vaultAccount.vaultShares == 0) {\n            // If the account has no position in the vault at this point, set the maturity to zero as well\n            vaultAccount.maturity = 0;\n        }\n        vaultAccount.setVaultAccount(vaultConfig);\n    }\n\n    /// @notice If an account is below the minimum collateral ratio, this method wil deleverage (liquidate)\n    /// that account. `depositAmountExternal` in the borrow currency will be transferred from the liquidator\n    /// and used to offset the account's debt position. The liquidator will receive either vaultShares or\n    /// cash depending.\n    /// @param account the address that will exit the vault\n    /// @param vault the vault to enter\n    /// @param liquidator the address that will receive profits from liquidation\n    /// @param depositAmountExternal amount of asset cash to deposit\n    /// @param transferSharesToLiquidator transfers the shares to the liquidator instead of redeeming them\n    /// @param redeemData calldata sent to the vault when redeeming liquidator profits\n    /// @return profitFromLiquidation amount of vaultShares or cash received from liquidation\n    function deleverageAccount(\n        address account,\n        address vault,\n        address liquidator,\n        uint256 depositAmountExternal,\n        bool transferSharesToLiquidator,\n        bytes calldata redeemData\n    ) external nonReentrant override returns (uint256 profitFromLiquidation) {\n        // Do not allow invalid accounts to liquidate\n        requireValidAccount(liquidator);\n\n        VaultConfig memory vaultConfig = _authenticateDeleverage(account, vault, liquidator);\n        VaultAccount memory vaultAccount = VaultAccountLib.getVaultAccount(account, vault);\n        VaultState memory vaultState = VaultStateLib.getVaultState(vault, vaultAccount.maturity);\n\n        // Check that the account has an active position. After maturity, accounts will be settled instead.\n        require(block.timestamp < vaultAccount.maturity);\n\n        // Check that the collateral ratio is below the minimum allowed\n        (int256 collateralRatio, int256 vaultShareValue) = vaultConfig.calculateCollateralRatio(\n            vaultState, account, vaultAccount.vaultShares, vaultAccount.fCash\n        );\n        require(collateralRatio < vaultConfig.minCollateralRatio , \"Sufficient Collateral\");\n\n        Token memory assetToken = TokenHandler.getAssetToken(vaultConfig.borrowCurrencyId);\n        // This will deposit some amount of cash into vaultAccount.tempCashBalance\n        _depositLiquidatorAmount(\n            liquidator, assetToken, vaultAccount, vaultConfig, depositAmountExternal, vaultShareValue\n        );\n\n        // The liquidator will purchase vault shares from the vault account at discount. The calculation is:\n        // (cashDeposited / assetCashValueOfShares) * liquidationRate * vaultShares\n        //      where cashDeposited / assetCashValueOfShares represents the share of the total vault share\n        //      value the liquidator has deposited\n        //      and liquidationRate is a percentage greater than 100% that represents their bonus\n        uint256 vaultSharesToLiquidator;\n        {\n            vaultSharesToLiquidator = vaultAccount.tempCashBalance.toUint()\n                .mul(vaultConfig.liquidationRate.toUint())\n                .mul(vaultAccount.vaultShares)\n                .div(vaultShareValue.toUint())\n                .div(uint256(Constants.RATE_PRECISION));\n        }\n\n        vaultAccount.vaultShares = vaultAccount.vaultShares.sub(vaultSharesToLiquidator);\n        // The liquidated account will lend to exit their position at a zero interest rate and forgo any future interest\n        // from asset tokens. Trading on the AMM during liquidation is risky and lending at a zero interest rate is more\n        // costly to the the liquidated account but is safer from a protocol perspective. This can be seen as a protocol\n        // level liquidation fee.\n        {\n            int256 fCashToReduce = vaultConfig.assetRate.convertToUnderlying(vaultAccount.tempCashBalance);\n            vaultAccount.updateAccountfCash(vaultConfig, vaultState, fCashToReduce, vaultAccount.tempCashBalance.neg());\n            // _calculateLiquidatorDeposit should ensure that we only ever lend up to a zero balance, but in the\n            // case of any off by one issues we clear the fCash balance by down to zero.\n            if (vaultAccount.fCash > Constants.DELEVERAGE_ROUNDING_ERROR) vaultAccount.fCash = 0;\n            emit VaultDeleverageAccount(vault, account, vaultSharesToLiquidator, fCashToReduce);\n        }\n\n        // Sets the liquidated account account\n        vaultAccount.setVaultAccount(vaultConfig);\n\n        // Redeems the vault shares for asset cash and transfers it to the designated address\n        emit VaultLiquidatorProfit(vault, account, liquidator, vaultSharesToLiquidator, transferSharesToLiquidator);\n        if (transferSharesToLiquidator) {\n            vaultState.setVaultState(vaultConfig.vault);\n            profitFromLiquidation = _transferLiquidatorProfits(liquidator, vaultConfig, vaultSharesToLiquidator, vaultAccount.maturity);\n        } else {\n            profitFromLiquidation = _redeemLiquidatorProfits(\n                liquidator, vaultConfig, vaultState, vaultSharesToLiquidator, redeemData, assetToken\n            );\n        }\n    }\n\n    /// @notice Authenticates a call to the deleverage method\n    function _authenticateDeleverage(\n        address account,\n        address vault,\n        address liquidator\n    ) private returns (VaultConfig memory vaultConfig) {\n        vaultConfig = VaultConfiguration.getVaultConfigStateful(vault);\n        require(vaultConfig.getFlag(VaultConfiguration.DISABLE_DELEVERAGE) == false);\n\n        // If the vault allows further re-entrancy then set the status back to the default\n        if (vaultConfig.getFlag(VaultConfiguration.ALLOW_REENTRANCY)) {\n            reentrancyStatus = _NOT_ENTERED;\n        }\n\n        // Authorization rules for deleveraging\n        if (vaultConfig.getFlag(VaultConfiguration.ONLY_VAULT_DELEVERAGE)) {\n            require(msg.sender == vault, \"Unauthorized\");\n        } else {\n            require(msg.sender == liquidator, \"Unauthorized\");\n        }\n\n        // Cannot liquidate self, if a vault needs to deleverage itself as a whole it has other methods \n        // in VaultAction to do so.\n        require(account != msg.sender && account != liquidator, \"Unauthorized\");\n    }\n\n    /// @notice Calculates the amount the liquidator must deposit and then transfers it into Notional,\n    /// crediting the account's temporary cash balance. Deposits must be in the form of asset cash.\n    function _depositLiquidatorAmount(\n        address liquidator,\n        Token memory assetToken,\n        VaultAccount memory vaultAccount,\n        VaultConfig memory vaultConfig,\n        uint256 _depositAmountExternal,\n        int256 vaultShareValue\n    ) private {\n        int256 depositAmountExternal = _depositAmountExternal.toInt();\n        if (assetToken.tokenType == TokenType.aToken) {\n            // Handles special accounting requirements for aTokens\n            depositAmountExternal = AaveHandler.convertToScaledBalanceExternal(\n                vaultConfig.borrowCurrencyId, depositAmountExternal\n            );\n        }\n\n        // Calculates the maximum deleverage amount\n        (\n            int256 maxLiquidatorDepositAssetCash,\n            int256 debtOutstandingAboveMinBorrow\n        ) = vaultAccount.calculateDeleverageAmount(vaultConfig, vaultShareValue);\n        // Catch potential edge cases where this is negative due to insolvency inside the vault itself\n        require(maxLiquidatorDepositAssetCash > 0);\n        // For aTokens this amount is in scaled balance external precision (the same as depositAmountExternal)\n        int256 maxLiquidatorDepositExternal = assetToken.convertToExternal(maxLiquidatorDepositAssetCash);\n\n        // NOTE: deposit amount external is always positive in this method\n        if (depositAmountExternal < maxLiquidatorDepositExternal) {\n            // If liquidating past the debt outstanding above the min borrow, then the entire debt outstanding\n            // must be liquidated (that is set to maxLiquidatorDepositExternal)\n            require(depositAmountExternal < assetToken.convertToExternal(debtOutstandingAboveMinBorrow), \"Must Liquidate All Debt\");\n        } else {\n            // In the other case, limit the deposited amount to the maximum\n            depositAmountExternal = maxLiquidatorDepositExternal;\n        }\n\n        // Transfers the amount of asset tokens into Notional and credit it to the account's temp cash balance\n        int256 assetAmountExternalTransferred = assetToken.transfer(\n            liquidator, vaultConfig.borrowCurrencyId, depositAmountExternal\n        );\n\n        vaultAccount.tempCashBalance = vaultAccount.tempCashBalance.add(\n            assetToken.convertToInternal(assetAmountExternalTransferred)\n        );\n    }\n\n    /// @notice Transfers liquidator profits in the form of vault shares to be returned to the liquidator\n    function _transferLiquidatorProfits(\n        address receiver,\n        VaultConfig memory vaultConfig,\n        uint256 vaultSharesToLiquidator,\n        uint256 maturity\n    ) private returns (uint256) {\n        // Liquidator will receive vault shares that they can redeem by calling exitVault. If the liquidator has a\n        // leveraged position on then their collateral ratio will increase\n        VaultAccount memory liquidator = VaultAccountLib.getVaultAccount(receiver, vaultConfig.vault);\n        // The liquidator must be able to receive the vault shares (i.e. not be in the vault at all or be in the\n        // vault at the same maturity). If the liquidator has fCash in the current maturity then their collateral\n        // ratio will increase as a result of the liquidation, no need to check their collateral position.\n        require(liquidator.maturity == 0 || liquidator.maturity == maturity, \"Vault Shares Mismatch\"); // dev: has vault shares\n        liquidator.maturity = maturity;\n        liquidator.vaultShares = liquidator.vaultShares.add(vaultSharesToLiquidator);\n        liquidator.setVaultAccount(vaultConfig);\n\n        return vaultSharesToLiquidator;\n    }\n\n    /// @notice Redeems liquidator profits back to asset cash and transfers it to the liquidator\n    function _redeemLiquidatorProfits(\n        address liquidator,\n        VaultConfig memory vaultConfig,\n        VaultState memory vaultState,\n        uint256 vaultShares,\n        bytes calldata redeemData,\n        Token memory assetToken\n    ) private returns (uint256 underlyingToReceiver) {\n        (uint256 assetCash, uint256 strategyTokens) = vaultState.exitMaturityDirect(vaultShares);\n        (/* */, underlyingToReceiver) = vaultConfig.redeemWithoutDebtRepayment(\n            liquidator, strategyTokens, vaultState.maturity, redeemData\n        );\n\n        // Set the vault state after redemption completes\n        vaultState.setVaultState(vaultConfig.vault);\n\n        if (assetCash > 0) {\n            // Represents the amount of asset cash returned to the liquidator in underlying terms\n            uint256 underlyingRedeemed = assetToken.redeem(\n                vaultConfig.borrowCurrencyId, liquidator, assetToken.convertToExternal(assetCash.toInt()).toUint()\n            ).neg().toUint();\n            underlyingToReceiver = underlyingToReceiver.add(underlyingRedeemed);\n        }\n    }\n\n    /** View Methods **/\n    function getVaultAccount(address account, address vault) external override view returns (VaultAccount memory) {\n        return VaultAccountLib.getVaultAccount(account, vault);\n    }\n\n    function getVaultAccountDebtShares(\n        address account,\n        address vault\n    ) external override view returns (\n        uint256 debtSharesMaturity,\n        uint256[2] memory accountDebtShares,\n        uint256 accountStrategyTokens\n    ) {\n        VaultAccountSecondaryDebtShareStorage storage s = \n            LibStorage.getVaultAccountSecondaryDebtShare()[account][vault];\n        debtSharesMaturity = s.maturity;\n        accountDebtShares[0] = s.accountDebtSharesOne;\n        accountDebtShares[1] = s.accountDebtSharesTwo;\n\n        VaultAccount memory vaultAccount = VaultAccountLib.getVaultAccount(account, vault);\n        VaultState memory vaultState = VaultStateLib.getVaultState(vault, vaultAccount.maturity);\n        (/* */, accountStrategyTokens) = vaultState.getPoolShare(vaultAccount.vaultShares);\n    }\n\n    function getVaultAccountCollateralRatio(address account, address vault) external override view returns (\n        int256 collateralRatio,\n        int256 minCollateralRatio,\n        int256 maxLiquidatorDepositAssetCash,\n        uint256 vaultSharesToLiquidator\n    ) {\n        VaultConfig memory vaultConfig = VaultConfiguration.getVaultConfigView(vault);\n        VaultAccount memory vaultAccount = VaultAccountLib.getVaultAccount(account, vault);\n        VaultState memory vaultState = VaultStateLib.getVaultState(vault, vaultAccount.maturity);\n        minCollateralRatio = vaultConfig.minCollateralRatio;\n\n        if (vaultState.isSettled) {\n            // In this case, the maturity has been settled and although the vault account says that it has\n            // some fCash balance it does not actually owe any debt anymore.\n            collateralRatio = type(int256).max;\n        } else {\n            int256 vaultShareValue;\n            (collateralRatio, vaultShareValue) = vaultConfig.calculateCollateralRatio(\n                vaultState, account, vaultAccount.vaultShares, vaultAccount.fCash\n            );\n\n            // Calculates liquidation factors if the account is eligible\n            if (collateralRatio < minCollateralRatio && vaultShareValue > 0) {\n                (maxLiquidatorDepositAssetCash, /* */) = vaultAccount.calculateDeleverageAmount(\n                    vaultConfig, vaultShareValue\n                );\n\n                vaultSharesToLiquidator = maxLiquidatorDepositAssetCash.toUint()\n                    .mul(vaultConfig.liquidationRate.toUint())\n                    .mul(vaultAccount.vaultShares)\n                    .div(vaultShareValue.toUint())\n                    .div(uint256(Constants.RATE_PRECISION));\n            }\n        }\n    }\n\n    function getLibInfo() external pure returns (address) {\n        return address(TradingAction);\n    }\n}\n",
  "sourcePath": "contracts/external/actions/VaultAccountAction.sol",
  "type": "contract"
}