{
  "abi": [
    {
      "anonymous": false,
      "inputs": [
        {
          "indexed": true,
          "internalType": "address",
          "name": "vault",
          "type": "address"
        },
        {
          "indexed": true,
          "internalType": "address",
          "name": "account",
          "type": "address"
        },
        {
          "indexed": false,
          "internalType": "uint256",
          "name": "vaultSharesToLiquidator",
          "type": "uint256"
        },
        {
          "indexed": false,
          "internalType": "int256",
          "name": "fCashRepaid",
          "type": "int256"
        }
      ],
      "name": "VaultDeleverageAccount",
      "type": "event"
    },
    {
      "anonymous": false,
      "inputs": [
        {
          "indexed": true,
          "internalType": "address",
          "name": "vault",
          "type": "address"
        },
        {
          "indexed": true,
          "internalType": "uint256",
          "name": "maturity",
          "type": "uint256"
        },
        {
          "indexed": true,
          "internalType": "address",
          "name": "account",
          "type": "address"
        },
        {
          "indexed": false,
          "internalType": "uint256",
          "name": "underlyingTokensTransferred",
          "type": "uint256"
        },
        {
          "indexed": false,
          "internalType": "uint256",
          "name": "strategyTokenDeposited",
          "type": "uint256"
        },
        {
          "indexed": false,
          "internalType": "uint256",
          "name": "vaultSharesMinted",
          "type": "uint256"
        }
      ],
      "name": "VaultEnterMaturity",
      "type": "event"
    },
    {
      "anonymous": false,
      "inputs": [
        {
          "indexed": true,
          "internalType": "address",
          "name": "vault",
          "type": "address"
        },
        {
          "indexed": true,
          "internalType": "address",
          "name": "account",
          "type": "address"
        },
        {
          "indexed": true,
          "internalType": "uint256",
          "name": "maturity",
          "type": "uint256"
        },
        {
          "indexed": false,
          "internalType": "uint256",
          "name": "fCashBorrowed",
          "type": "uint256"
        }
      ],
      "name": "VaultEnterPosition",
      "type": "event"
    },
    {
      "anonymous": false,
      "inputs": [
        {
          "indexed": true,
          "internalType": "address",
          "name": "vault",
          "type": "address"
        },
        {
          "indexed": true,
          "internalType": "address",
          "name": "account",
          "type": "address"
        },
        {
          "indexed": true,
          "internalType": "uint256",
          "name": "maturity",
          "type": "uint256"
        }
      ],
      "name": "VaultExitPostMaturity",
      "type": "event"
    },
    {
      "anonymous": false,
      "inputs": [
        {
          "indexed": true,
          "internalType": "address",
          "name": "vault",
          "type": "address"
        },
        {
          "indexed": true,
          "internalType": "address",
          "name": "account",
          "type": "address"
        },
        {
          "indexed": true,
          "internalType": "uint256",
          "name": "maturity",
          "type": "uint256"
        },
        {
          "indexed": false,
          "internalType": "uint256",
          "name": "fCashToLend",
          "type": "uint256"
        },
        {
          "indexed": false,
          "internalType": "uint256",
          "name": "vaultSharesToRedeem",
          "type": "uint256"
        }
      ],
      "name": "VaultExitPreMaturity",
      "type": "event"
    },
    {
      "anonymous": false,
      "inputs": [
        {
          "indexed": true,
          "internalType": "address",
          "name": "vault",
          "type": "address"
        },
        {
          "indexed": true,
          "internalType": "address",
          "name": "account",
          "type": "address"
        },
        {
          "indexed": true,
          "internalType": "address",
          "name": "liquidator",
          "type": "address"
        },
        {
          "indexed": false,
          "internalType": "uint256",
          "name": "vaultSharesToLiquidator",
          "type": "uint256"
        },
        {
          "indexed": false,
          "internalType": "bool",
          "name": "transferSharesToLiquidator",
          "type": "bool"
        }
      ],
      "name": "VaultLiquidatorProfit",
      "type": "event"
    },
    {
      "anonymous": false,
      "inputs": [
        {
          "indexed": true,
          "internalType": "address",
          "name": "vault",
          "type": "address"
        },
        {
          "indexed": true,
          "internalType": "address",
          "name": "account",
          "type": "address"
        },
        {
          "indexed": true,
          "internalType": "uint256",
          "name": "newMaturity",
          "type": "uint256"
        },
        {
          "indexed": false,
          "internalType": "uint256",
          "name": "fCashBorrowed",
          "type": "uint256"
        }
      ],
      "name": "VaultRollPosition",
      "type": "event"
    },
    {
      "inputs": [
        {
          "internalType": "address",
          "name": "account",
          "type": "address"
        },
        {
          "internalType": "address",
          "name": "vault",
          "type": "address"
        },
        {
          "internalType": "address",
          "name": "liquidator",
          "type": "address"
        },
        {
          "internalType": "uint256",
          "name": "depositAmountExternal",
          "type": "uint256"
        },
        {
          "internalType": "bool",
          "name": "transferSharesToLiquidator",
          "type": "bool"
        },
        {
          "internalType": "bytes",
          "name": "redeemData",
          "type": "bytes"
        }
      ],
      "name": "deleverageAccount",
      "outputs": [
        {
          "internalType": "uint256",
          "name": "profitFromLiquidation",
          "type": "uint256"
        }
      ],
      "stateMutability": "nonpayable",
      "type": "function"
    },
    {
      "inputs": [
        {
          "internalType": "address",
          "name": "account",
          "type": "address"
        },
        {
          "internalType": "address",
          "name": "vault",
          "type": "address"
        },
        {
          "internalType": "uint256",
          "name": "depositAmountExternal",
          "type": "uint256"
        },
        {
          "internalType": "uint256",
          "name": "maturity",
          "type": "uint256"
        },
        {
          "internalType": "uint256",
          "name": "fCash",
          "type": "uint256"
        },
        {
          "internalType": "uint32",
          "name": "maxBorrowRate",
          "type": "uint32"
        },
        {
          "internalType": "bytes",
          "name": "vaultData",
          "type": "bytes"
        }
      ],
      "name": "enterVault",
      "outputs": [
        {
          "internalType": "uint256",
          "name": "strategyTokensAdded",
          "type": "uint256"
        }
      ],
      "stateMutability": "payable",
      "type": "function"
    },
    {
      "inputs": [
        {
          "internalType": "address",
          "name": "account",
          "type": "address"
        },
        {
          "internalType": "address",
          "name": "vault",
          "type": "address"
        },
        {
          "internalType": "address",
          "name": "receiver",
          "type": "address"
        },
        {
          "internalType": "uint256",
          "name": "vaultSharesToRedeem",
          "type": "uint256"
        },
        {
          "internalType": "uint256",
          "name": "fCashToLend",
          "type": "uint256"
        },
        {
          "internalType": "uint32",
          "name": "minLendRate",
          "type": "uint32"
        },
        {
          "internalType": "bytes",
          "name": "exitVaultData",
          "type": "bytes"
        }
      ],
      "name": "exitVault",
      "outputs": [
        {
          "internalType": "uint256",
          "name": "underlyingToReceiver",
          "type": "uint256"
        }
      ],
      "stateMutability": "payable",
      "type": "function"
    },
    {
      "inputs": [],
      "name": "getLibInfo",
      "outputs": [
        {
          "internalType": "address",
          "name": "",
          "type": "address"
        }
      ],
      "stateMutability": "pure",
      "type": "function"
    },
    {
      "inputs": [
        {
          "internalType": "address",
          "name": "account",
          "type": "address"
        },
        {
          "internalType": "address",
          "name": "vault",
          "type": "address"
        }
      ],
      "name": "getVaultAccount",
      "outputs": [
        {
          "components": [
            {
              "internalType": "int256",
              "name": "fCash",
              "type": "int256"
            },
            {
              "internalType": "uint256",
              "name": "maturity",
              "type": "uint256"
            },
            {
              "internalType": "uint256",
              "name": "vaultShares",
              "type": "uint256"
            },
            {
              "internalType": "address",
              "name": "account",
              "type": "address"
            },
            {
              "internalType": "int256",
              "name": "tempCashBalance",
              "type": "int256"
            }
          ],
          "internalType": "struct VaultAccount",
          "name": "",
          "type": "tuple"
        }
      ],
      "stateMutability": "view",
      "type": "function"
    },
    {
      "inputs": [
        {
          "internalType": "address",
          "name": "account",
          "type": "address"
        },
        {
          "internalType": "address",
          "name": "vault",
          "type": "address"
        }
      ],
      "name": "getVaultAccountCollateralRatio",
      "outputs": [
        {
          "internalType": "int256",
          "name": "collateralRatio",
          "type": "int256"
        },
        {
          "internalType": "int256",
          "name": "minCollateralRatio",
          "type": "int256"
        },
        {
          "internalType": "int256",
          "name": "maxLiquidatorDepositAssetCash",
          "type": "int256"
        }
      ],
      "stateMutability": "view",
      "type": "function"
    },
    {
      "inputs": [
        {
          "internalType": "address",
          "name": "account",
          "type": "address"
        },
        {
          "internalType": "address",
          "name": "vault",
          "type": "address"
        }
      ],
      "name": "getVaultAccountDebtShares",
      "outputs": [
        {
          "internalType": "uint256",
          "name": "debtSharesMaturity",
          "type": "uint256"
        },
        {
          "internalType": "uint256[2]",
          "name": "accountDebtShares",
          "type": "uint256[2]"
        },
        {
          "internalType": "uint256",
          "name": "accountStrategyTokens",
          "type": "uint256"
        }
      ],
      "stateMutability": "view",
      "type": "function"
    },
    {
      "inputs": [],
      "name": "owner",
      "outputs": [
        {
          "internalType": "address",
          "name": "",
          "type": "address"
        }
      ],
      "stateMutability": "view",
      "type": "function"
    },
    {
      "inputs": [],
      "name": "pauseGuardian",
      "outputs": [
        {
          "internalType": "address",
          "name": "",
          "type": "address"
        }
      ],
      "stateMutability": "view",
      "type": "function"
    },
    {
      "inputs": [],
      "name": "pauseRouter",
      "outputs": [
        {
          "internalType": "address",
          "name": "",
          "type": "address"
        }
      ],
      "stateMutability": "view",
      "type": "function"
    },
    {
      "inputs": [
        {
          "internalType": "address",
          "name": "account",
          "type": "address"
        },
        {
          "internalType": "address",
          "name": "vault",
          "type": "address"
        },
        {
          "internalType": "uint256",
          "name": "fCashToBorrow",
          "type": "uint256"
        },
        {
          "internalType": "uint256",
          "name": "maturity",
          "type": "uint256"
        },
        {
          "internalType": "uint32",
          "name": "minLendRate",
          "type": "uint32"
        },
        {
          "internalType": "uint32",
          "name": "maxBorrowRate",
          "type": "uint32"
        },
        {
          "internalType": "bytes",
          "name": "enterVaultData",
          "type": "bytes"
        }
      ],
      "name": "rollVaultPosition",
      "outputs": [
        {
          "internalType": "uint256",
          "name": "strategyTokensAdded",
          "type": "uint256"
        }
      ],
      "stateMutability": "nonpayable",
      "type": "function"
    }
  ],
  "bytecode": "608060405234801561001057600080fd5b50615238806100206000396000f3fe60806040526004361061009c5760003560e01c80638246336711610064578063824633671461016a5780638da5cb5b1461017f57806395c1a202146101945780639948315e146101a7578063c025d1a5146101c7578063c4c96dae146101f45761009c565b806324a3d622146100a1578063450c0e02146100cc578063647cc196146100f95780636ce48f0114610128578063803c25fb1461013b575b600080fd5b3480156100ad57600080fd5b506100b6610209565b6040516100c39190614c75565b60405180910390f35b3480156100d857600080fd5b506100ec6100e7366004614bd7565b610218565b6040516100c39190614d71565b34801561010557600080fd5b50610119610114366004614a13565b6103dd565b6040516100c393929190614d88565b6100ec610136366004614ad0565b61047c565b34801561014757600080fd5b5061015b610156366004614a13565b6106bb565b6040516100c3939291906151b3565b34801561017657600080fd5b506100b661076c565b34801561018b57600080fd5b506100b661077b565b6100ec6101a2366004614b67565b610792565b3480156101b357600080fd5b506100ec6101c2366004614a3c565b6108dc565b3480156101d357600080fd5b506101e76101e2366004614a13565b610b56565b6040516100c3919061514d565b34801561020057600080fd5b506100b6610b71565b6002546001600160a01b031681565b60006002600a5414156102465760405162461bcd60e51b815260040161023d9061500e565b60405180910390fd5b6002600a55600061025689610b89565b9050610264818b6010610bb8565b61026f816080610c22565b1561027a576001600a555b60006102868b8b610c37565b9050610293826001610c22565b80156102a557506102a5826002610c22565b80156102b45750806020015142105b80156102c35750878160200151105b80156102cf5750600089115b6102eb5760405162461bcd60e51b815260040161023d90614f77565b60006102ff83600001518360200151610cb5565b9050600061031c83846040015184610d509092919063ffffffff16565b905061033b84836103308660000151610daf565b869291908d42610dc5565b82511561035a5760405162461bcd60e51b815260040161023d906150f9565b8351610367908390610e53565b61037983858c8e8c8c8c886000610fc7565b9450898d6001600160a01b03168d6001600160a01b03167f67c1d09e65227d62b788f4c3e6ace545ac922034d69bd4aa45c53dec290275be8e6040516103bf9190614d71565b60405180910390a450506001600a5550909998505050505050505050565b6000806000806103ec8561106a565b905060006103fa8787610c37565b9050600061040c878360200151610cb5565b90508260a00151945080604001511561042e576001600160ff1b039550610472565b6040820151825160009161044891869185918d919061108e565b9097509050858712801561045c5750600081135b156104705761046c8385836110f6565b5094505b505b5050509250925092565b60006002600a5414156104a15760405162461bcd60e51b815260040161023d9061500e565b6002600a5560006104b189610b89565b90506104bf818b6008610bb8565b6104ca816080610c22565b156104d5576001600a555b60006104e18b8b610c37565b9050428160200151116105845760208101516000610500838542611205565b905060008360800151131561052b576105228b856040015185608001516112db565b50600060808401525b61053a84848d84868c8c611384565b9450818d6001600160a01b03168d6001600160a01b03167f8255ee71b1bee16ae1f9ff6c76fe18682af74350ef6c49dba972aab969a7e67c60405160405180910390a45050610680565b600061059883600001518360200151610cb5565b90506105b383826105a88b6113fb565b859291908b42610dc5565b60006105c082848c610d50565b90506000836080015113156105eb576105e28b856040015185608001516112db565b50600060808401525b801561060957815161060690859085908e9085908c8c611384565b94505b82516000131561061e5761061e848385611415565b835161062b908390610e53565b81600001518d6001600160a01b03168d6001600160a01b03167f5fa4d63d84bbcbb86063028ac3ad93f61e31764be1de668fc3b3dc6fe930e82f8c8e604051610675929190614d7a565b60405180910390a450505b805115801561069157506040810151155b1561069e57600060208201525b6106a8818361145d565b50506001600a5598975050505050505050565b60006106c561481f565b6000806106d061157e565b6001600160a01b03878116600090815260209283526040808220928916825291835290812080546001600160501b03640100000000820481168852600160701b8204169387019390935263ffffffff90921695509091506107318787610c37565b90506000610743878360200151610cb5565b905061075c82604001518261158b90919063ffffffff16565b9050809450505050509250925092565b6001546001600160a01b031681565b60005464010000000090046001600160a01b031681565b60006002600a5414156107b75760405162461bcd60e51b815260040161023d9061500e565b6002600a556107c5896115e5565b60006107d089610b89565b90506107de818b6004610bb8565b6107e9816080610c22565b156107f4576001600a555b6107ff816001610c22565b61081b5760405162461bcd60e51b815260040161023d906150d3565b86421061083a5760405162461bcd60e51b815260040161023d906150d3565b60006108468b8b610c37565b905060008160200151600014158015610863575042826020015111155b1561087657610873828442611205565b90505b6000610883848e8d611634565b905061089683858c8c8c8c8c8989610fc7565b9450898d6001600160a01b03168d6001600160a01b03167f7e1a5e400898c4bb3cfc62f61a71f4369ec78f0e778a31286892b7d2c0d044f28c6040516103bf9190614d71565b60006002600a5414156109015760405162461bcd60e51b815260040161023d9061500e565b6002600a556000610913898989611749565b905060006109218a8a610c37565b905060006109338a8360200151610cb5565b90508160200151421061094557600080fd5b600080610969838e866040015187600001518961108e90949392919063ffffffff16565b915091508460a0015182126109905760405162461bcd60e51b815260040161023d9061511e565b60006109a3866040015161ffff1661181e565b90506109b38c8287898f87611831565b60006109fa633b9aca006109f46109c98661191a565b6109f48a604001516109ee6109e18e60c0015161191a565b6109ee8e6080015161191a565b90611929565b90611950565b6040870151909150610a0c908261196f565b60408701526080860151610160880151600091610a299190611984565b9050610a48888783610a3e8b60800151610daf565b8b939291906119b7565b865160001215610a5757600087525b8f6001600160a01b03168f6001600160a01b03167f5b4676a4ed91c52fd6c4a759aec8a3561b67499c52870fc58000a8eb54fec3018484604051610a9c929190614d7a565b60405180910390a350610aaf868861145d565b8c6001600160a01b03168f6001600160a01b03168f6001600160a01b03167f01745a2fe0d7c484ea79432a82f950eac6916adc499a0223d2ebdadcdb210f2a848f604051610afe9291906151f2565b60405180910390a48a15610b37578651610b19908690610e53565b610b298d88838960200151611a25565b975050505050505050610b46565b610b298d8887848e8e88611a99565b6001600a55979650505050505050565b610b5e61483d565b610b688383610c37565b90505b92915050565b73__TradingAction_________________________90565b610b91614875565b610b9a82611b6f565b9050610bad816040015161ffff16611ced565b610160820152919050565b610bc28382610c22565b15610bf55782516001600160a01b03163314610bf05760405162461bcd60e51b815260040161023d90614db9565b610c1d565b6001600160a01b0382163314610c1d5760405162461bcd60e51b815260040161023d90614db9565b505050565b60209190910151811661ffff90811691161490565b610c3f61483d565b6000610c49611d39565b6001600160a01b03948516600081815260209283526040808220969097168152948252858520546001600160501b038082168703865263ffffffff600160a01b83041693860193909352600160501b900490911694830194909452506060810192909252608082015290565b610cbd6148f2565b6000610cc7611d46565b6001600160a01b03909416600090815260209485526040808220858352865280822094845284546001600160501b038082169093039685019690965260ff600160f01b870416151590840152600160501b8086048216608085015260019094015480821660a0850152600160a01b909504166060830152509104600990810b900b60c082015290565b8251602083015160009114610d6457600080fd5b6040830151610d73908361196f565b60408401526000610d848584611d53565b92509050610d9f610d94826113fb565b608086015190611daa565b6080909401939093529392505050565b6000610dbd60001983611dc0565b90505b919050565b8551600090610dd49085611daa565b1315610ddf57600080fd5b85602001518110610def57600080fd5b6000610e0c8660400151886020015186868a610100015187611e0e565b905080610e2f57610160860151610e2c90610e279086611f1d565b610daf565b90505b6000811315610e3d57600080fd5b610e4a87878787856119b7565b50505050505050565b6000610e5d611d46565b6001600160a01b0383166000908152602082815260408083208751845290915290819020908501519192509015610e9357600080fd5b610eb0610eab610ea68660200151610daf565b61191a565b611f48565b81546001600160501b0319166001600160501b03919091161781556080840151610ed990611f48565b81546001600160501b0391909116600160501b02600160501b600160a01b031990911617815560a0840151610f0d90611f48565b6001820180546001600160501b0319166001600160501b03929092169190911790556060840151610f3d90611f48565b81546001600160501b0391909116600160a01b0269ffffffffffffffffffff60a01b1990911617815583516020850151608086015160a087015160608801516040516001600160a01b038916947f3a0fdaecf7b5da75a56077f5b1c8fbc88f9b08e9d0c4db31eb34e25bc6700cde94610fb99491939092614d9e565b60405180910390a350505050565b6000878a602001511480610fda57508951155b610fe357600080fd5b6000610ff38a600001518a610cb5565b90508715611019576110148b8b838c61100e610e278e6113fb565b8c611f5e565b611030565b61102e8a604001518a8c610100015142611fee565b505b61103f818c8c87878b8b61205d565b915061104b8b8b61145d565b871561105c5761105c8a828d611415565b509998505050505050505050565b611072614875565b61107b82611b6f565b9050610bad816040015161ffff16612194565b60008061109d868887876121aa565b905060006110b96110ad85610daf565b6101608a015190611f1d565b905060006110c78383612215565b9050816110dd576001600160ff1b0393506110ea565b6110e7818361222b565b93505b50509550959350505050565b6000806000611117633b9aca00866101200151611daa90919063ffffffff16565b9050600061113761112b8860000151610daf565b61016088015190611f1d565b905061116d6111538760c001518461221590919063ffffffff16565b611167876111618587612244565b90612215565b9061222b565b9350600061117b8286612215565b9050600061119b8860600151896101600151611f1d90919063ffffffff16565b90506111a78382612215565b9450808212156111b5578295505b60006111d8886111d28b60c001518a611dc090919063ffffffff16565b90612259565b9050633b9aca0081126111f85760c08901516111f590899061222b565b96505b5050505050935093915050565b60008061121a84600001518660200151610cb5565b9050806040015161123d5760405162461bcd60e51b815260040161023d90614f22565b6000611256856040015161ffff1687602001518661228a565b9050600061127d6305f5e1006111d28560c001516112778760a001516113fb565b90611dc0565b9050600061128e88858986866123fa565b9050600061129f88868685876125c3565b60008b5260808b01519097509091506112b89082611daa565b60808a015250506000604088018190526020909701969096525090949350505050565b6000816112ea5750600061137d565b600082136112f757600080fd5b60006113068461ffff1661181e565b9050600061131482856127fb565b905060048260600151600581111561132857fe5b14156113565761134f610ea6610e27888861ffff1661134686610daf565b87929190612833565b925061137a565b611377610ea6610e278761ffff168961136e8661191a565b879291906128db565b92505b50505b9392505050565b6000808760800151131561139757600080fd5b6113e3886040518060a001604052808a606001516001600160a01b03168152602001896001600160a01b031681526020018881526020018781526020018a60800151815250858561297b565b60006080909901989098525095979650505050505050565b60006001600160ff1b0382111561141157600080fd5b5090565b6000611430848484606001518560400151866000015161108e565b509050808460a0015113156114575760405162461bcd60e51b815260040161023d90614fa0565b50505050565b6000611467611d39565b60608401516001600160a01b039081166000908152602083815260408083208751909416835292905220608085015191925090156114a457600080fd5b606083015184516114b490610daf565b12156114e957835115806114cd57506001846040015111155b6114e95760405162461bcd60e51b815260040161023d9061505d565b6114fc610eab610ea68660000151610daf565b81546001600160501b0319166001600160501b0391909116178155604084015161152590611f48565b81546001600160501b0391909116600160501b02600160501b600160a01b0319909116178155602084015161155990612c28565b815463ffffffff91909116600160a01b0263ffffffff60a01b19909116179055505050565b600080610b6b601a612c3b565b6000806000846060015111156115de576115ba84606001516109f486608001518661192990919063ffffffff16565b91506115db84606001516109f48660a001518661192990919063ffffffff16565b90505b9250929050565b6001600160a01b0381166115f857600080fd5b6001600160a01b03811630141561160e57600080fd5b600061161982612c54565b5050505061ffff1690508060001461163057600080fd5b5050565b6000816116435750600061137d565b6000611656856040015161ffff1661181e565b9050600060048260600151600581111561166c57fe5b1461168757611682866040015161ffff16612cc0565b611689565b815b86519091506003826060015160058111156116a057fe5b14156116da578434146116c55760405162461bcd60e51b815260040161023d90615081565b6116cf8134612cd3565b34935050505061137d565b8160200151156117265760006116f08383612d09565b90506117028360000151888489612dba565b600061170e8484612d09565b905061171a818361196f565b9550505050505061137d565b815161173490878388612dba565b84935050505061137d565b5050509392505050565b611751614875565b61175a83610b89565b9050611767816080610c22565b15611772576001600a555b61177d816020610c22565b156117af57336001600160a01b038416146117aa5760405162461bcd60e51b815260040161023d90614db9565b6117d7565b336001600160a01b038316146117d75760405162461bcd60e51b815260040161023d90614db9565b6001600160a01b03841633148015906118025750816001600160a01b0316846001600160a01b031614155b61137d5760405162461bcd60e51b815260040161023d90614db9565b611826614931565b610dbd826000612e42565b600061183c836113fb565b905060058660600151600581111561185057fe5b141561186b57611868846040015161ffff1682612ef0565b90505b6000806118798787866110f6565b915091506000821361188a57600080fd5b600061189689846127fb565b9050808412156118cd576118aa89836127fb565b84126118c85760405162461bcd60e51b815260040161023d90614fd7565b6118d1565b8093505b60408701516000906118eb908b908d9061ffff1688612833565b90506119056118fa8b83612f77565b60808b015190611daa565b60809099019890985250505050505050505050565b60008082121561141157600080fd5b60008261193857506000610b6b565b8282028284828161194557fe5b0414610b6857600080fd5b600080821161195e57600080fd5b81838161196757fe5b049392505050565b60008282111561197e57600080fd5b50900390565b6000806119af84604001516111d26402540be4006111d2878960200151611dc090919063ffffffff16565b949350505050565b60808501516119c69082611daa565b608086015284516119d79083611daa565b808652600012156119e757600080fd5b60208301516119f69083611daa565b6020840181905260001215611a0a57600080fd5b611a1d8460000151856040015184612fa7565b505050505050565b600080611a36868660000151610c37565b9050806020015160001480611a4e5750828160200151145b611a6a5760405162461bcd60e51b815260040161023d90614ddf565b602081018390526040810151611a8090856130ad565b6040820152611a8f818661145d565b5091949350505050565b60008080611aa78888611d53565b89519193509150600090611ac2908b908d9085908b8b6130bf565b9050611ad7611ad0846113fb565b8290611daa565b8a51909150611ae7908a90610e53565b6000611b128c8c6040015161ffff16611b09611b0286610daf565b8a906127fb565b89929190612833565b9050600586606001516005811115611b2657fe5b1415611b53576000611b3f8c6040015161ffff16612cc0565b9050611b4f816000015183613112565b9150505b611b5f610ea682610daf565b9c9b505050505050505050505050565b611b77614875565b6000611b816131a1565b6001600160a01b03841660008181526020838152604091829020928652825461ffff808216928801929092526201000081049091169186019190915291925090611be29063ffffffff6401000000009091048116906305f5e10090611dc016565b60608401528054611c0090600160501b900460ff166207a120611929565b60808401528054611c249068010000000000000000900461ffff16620186a0611929565b60a08401528054611c4390600160701b900461ffff16620186a0611929565b610120840152805460649060ff600160581b90910416633b9aca00020560c08401528054600160601b810460ff90811660e0860152600160681b909104166101008401526040805180820191829052906001830190600290826000855b82829054906101000a900461ffff1661ffff1681526020019060020190602082600101049283019260010382029150808411611ca057905050505050508361014001819052505050919050565b611cf5614960565b6000806000611d03856131ae565b604080516060810182526001600160a01b039093168352602083019390935260ff16600a0a918101919091529350505050919050565b600080610b6b6016612c3b565b600080610b6b6015612c3b565b600080611d60848461158b565b60808601519193509150611d74908361196f565b608085015260a0840151611d88908261196f565b60a08501526060840151611d9c908461196f565b606090940193909352929050565b81810182811215600083121514610b6b57600080fd5b818102600019831415611df057811580611de2575082828281611ddf57fe5b05145b611deb57600080fd5b610b6b565b821580611e05575081838281611e0257fe5b05145b610b6b57600080fd5b600080611e1d88888686611fee565b90506000611e2a87613271565b90506affffffffffffffffffffff8110611e4357600080fd5b600060788763ffffffff16901b609883901b60f085901b60f860008c13611e6b576001611e6e565b60005b6005811115611e7957fe5b60ff16901b17171760001b905073__TradingAction_________________________63e50f349e8b836040518363ffffffff1660e01b8152600401611ebf92919061519f565b60206040518083038186803b158015611ed757600080fd5b505af4158015611eeb573d6000803e3d6000fd5b505050506040513d601f19601f82011682018060405250810190611f0f9190614c33565b9a9950505050505050505050565b6000806119af84602001516111d286604001516112776402540be40088611dc090919063ffffffff16565b60006001600160501b0382111561141157600080fd5b60008212611f6b57600080fd5b6000611f8486604001518585858a610100015142611e0e565b905060008113611fa65760405162461bcd60e51b815260040161023d90615036565b611fb387878786856119b7565b8651611fbe90610daf565b86606001511315611fe15760405162461bcd60e51b815260040161023d9061505d565b610e4a8688858742613292565b60008060006120008761ffff166133b8565b90506120108160ff1687866133ce565b9093509150848311156120355760405162461bcd60e51b815260040161023d90614ed2565b81156120535760405162461bcd60e51b815260040161023d90614ed2565b5050949350505050565b6000876080015160001461207057600080fd5b60008760800151121561208257600080fd5b8751602088015110156120aa5760408701511561209e57600080fd5b875160208801526120bb565b87516020880151146120bb57600080fd5b600085156120d6576120d38989888a60000151613496565b90505b606088015160808901518a516000926120f3928b928a8a8a613514565b905061210f6121088b8b848c60000151613496565b83906130ad565b915088606001516001600160a01b03168a6000015189600001516001600160a01b03167f87d46c761bdd82b4a559098beeb0d5b8fa8c0e2aa3607704fe0757618e85e24d61216a8a8e608001516130ad90919063ffffffff16565b8b8760405161217b93929190614d88565b60405180910390a4600060808a0152611f0f87826130ad565b61219c614960565b6000806000611d03856135ca565b6000816121b9575060006119af565b6000806121c6878561158b565b9150915060006121e58760400151886000015188858c6000015161364d565b90506122096121f3846113fb565b6101608901516122039084611f1d565b90611daa565b98975050505050505050565b80820382811315600083121514610b6b57600080fd5b6000610b6861223e84633b9aca00611dc0565b83612259565b6000610b686122538484611dc0565b633b9aca005b60008160001914801561226f5750600160ff1b83145b1561227957600080fd5b81838161228257fe5b059392505050565b612292614960565b60008061229f8686613712565b9150915081600014156123cf5760006122b7876131ae565b91945090925090506001600160a01b038116156123cd5760006122d861375b565b90508560001080156122ea5750858711155b80156122fb575064ffffffffff8611155b61230457600080fd5b83600012801561231b57506001600160801b038413155b61232457600080fd5b6000888152602082815260408083208a845290915290819020805464ffffffffff191664ffffffffff89161774ffffffffffffffffffffffffffffffff00000000001916650100000000006001600160801b038816021760ff60a81b1916600160a81b60ff871602178155905188908a907f0fdfa6885701e2f1f42e4187b9231cf81c1fe23671ef64fa46f34ddb56c1dc18906123c290899061518b565b60405180910390a350505b505b6040805160608101825260008152602081019390935260ff909116600a0a9082015290509392505050565b60008061241e61241761241088608001516113fb565b8690611984565b8490611daa565b6101408601515190915061ffff1615158061244557506101408501516020015161ffff1615155b1561255957600061245461157e565b60608901516001600160a01b039081166000908152602092835260408082208a519093168252919092528120875189516101408a015151835493955084936124af9392919064010000000090046001600160501b0316613768565b90925090506124be8483611daa565b93506124ca8582612215565b88518a516101408b01516020015186549398506124f693600160701b90046001600160501b0316613768565b90925090506125058483611daa565b93506125118582612215565b945061251b61157e565b60608b01516001600160a01b039081166000908152602092835260408082208c51909316825291909252902080546001600160c01b03191690555050505b61258c61258588600001516122036125748a606001516113fb565b6111d2866112778e604001516113fb565b8390611daa565b915060008212156125b9576125af6125a48584611f1d565b608089015190611daa565b6080880152600091505b5095945050505050565b60008060006125ef6125e2886020015188611f1d90919063ffffffff16565b61220389608001516113fb565b90506000612601856122038985611984565b9050612621610ea6826111d261261a8c60a001516113fb565b8a90611dc0565b9250612631816111d28885611dc0565b93505050600061263f6137fc565b88516001600160a01b03166000908152602091825260408082208a5183529092522080549091506001600160501b03811690600160501b9004600990810b900b838210156126c3576126b66126af6126a86305f5e1006111d28d60c00151611277888b036113fb565b8a90611f1d565b8690611daa565b94509092506000906126c9565b83820391505b82546001600160501b0319166001600160501b03831617835560008512156126f057600080fd5b84811215612763576000808213612707578561270b565b8186035b905060006127278c600001518d60400151848e60000151613809565b905060008313156127585761273c8382611daa565b8554600160501b600160a01b031916865596506000925061275c565b8096505b50506127a2565b61276d8186612215565b905061277881613931565b835460099190910b6001600160501b0316600160501b02600160501b600160a01b03199091161783555b88600001518a600001516001600160a01b03167ff5b347a56f0b5140f05eec05ff743978670a56685689fdc2c3193d71cfac31a983856040516127e6929190614d7a565b60405180910390a35050509550959350505050565b60006305f5e10083604001511415612814575080610b6b565b610b686305f5e1006111d2856040015185611dc090919063ffffffff16565b8060058560600151600581111561284657fe5b141561286b57600061285784612cc0565b9050612867816000015184613112565b9250505b6000821315612897576000612881868685613961565b9050856020015115612891578091505b506119af565b6003856060015160058111156128a957fe5b14156128c6576128c1846128bc84610daf565b612cd3565b6119af565b84516119af90856128d685610daf565b613a4a565b6000806002866060015160058111156128f057fe5b141561290857612901868585613ac1565b9050612965565b600061291386612cc0565b905060058760600151600581111561292757fe5b141561293f57612938818686613b7e565b9150612963565b60018760600151600581111561295157fe5b141561009c5761293887828787613c2f565b505b612971610e27826113fb565b9695505050505050565b6000806000612991876040015161ffff1661181e565b905060006004826060015160058111156129a757fe5b146129c2576129bd886040015161ffff16612cc0565b6129c4565b815b905060008088608001511215612a37576004836060015160058111156129e657fe5b1415612a03576129fc610ea68960800151610daf565b9050612a37565b6000612a24610e278a608001518c610160015161198490919063ffffffff16565b9050612a33610ea68483613d2d565b9150505b604088015160009015612b0f576000612a508430612d09565b90508a600001516001600160a01b03166344f051088b600001518c602001518d604001518e60600151888f8f6040518863ffffffff1660e01b8152600401612a9e9796959493929190614c89565b602060405180830381600087803b158015612ab857600080fd5b505af1158015612acc573d6000803e3d6000fd5b505050506040513d601f19601f82011682018060405250810190612af09190614c33565b95506000612afe8530612d09565b9050612b0a818361196f565b925050505b81811015612baa57808203600384606001516005811115612b2c57fe5b1415612b6a5734811115612b525760405162461bcd60e51b815260040161023d90614e4c565b612b628a60000151823403612cd3565b829150612ba8565b6000612b8f8b600001518d6040015161ffff16612b86856113fb565b88929190612833565b9050612ba4612b9d8261191a565b84906130ad565b9250505b505b81811015612bca5760405162461bcd60e51b815260040161023d90614e4c565b6000600485606001516005811115612bde57fe5b1415612bf457612bed826113fb565b9050612c0e565b8115612c0e5760408b0151612c0b90869084613d62565b90505b612c188582612f77565b9650505050505094509492505050565b600063ffffffff82111561141157600080fd5b6000620f424082601a811115612c4d57fe5b0192915050565b600080600080600080612c65613e49565b6001600160a01b039097166000908152602097909752505060409094205461ffff81169563ffffffff620100008304811696506601000000000000830416945060ff600160501b8304169350600160581b90910460d81b9150565b612cc8614931565b610dbd826001612e42565b6040516001600160a01b0383169082156108fc029083906000818181858888f19350505050158015610c1d573d6000803e3d6000fd5b6000600383606001516005811115612d1d57fe5b1415612d3457506001600160a01b03811631610b6b565b82516040516370a0823160e01b81526001600160a01b03909116906370a0823190612d63908590600401614c75565b60206040518083038186803b158015612d7b57600080fd5b505afa158015612d8f573d6000803e3d6000fd5b505050506040513d601f19601f82011682018060405250810190612db39190614c33565b9050610b6b565b836001600160a01b03166323b872dd8484846040518463ffffffff1660e01b815260040180846001600160a01b03168152602001836001600160a01b031681526020018281526020019350505050600060405180830381600087803b158015612e2257600080fd5b505af1158015612e36573d6000803e3d6000fd5b50505050611457613e56565b612e4a614931565b6000612e54613ec3565b6000858152602082815260408083208715158452825291829020825160a08101845281546001600160a01b038116825260ff600160a01b82048116151594830194909452600160b01b81048416600a0a9482019490945293945092916060830191600160a81b909104166005811115612ec957fe5b81529154600160b81b900468ffffffffffffffffff16602090920191909152949350505050565b600081612eff57506000610b6b565b60008213612f0c57600080fd5b6000612f1784612cc0565b90506000612f288260000151613ed0565b9050600281056b033b2e3c9fd0803ce80000006001600160ff1b0382900305851315612f5357600080fd5b81816b033b2e3c9fd0803ce800000087020181612f6c57fe5b059695505050505050565b60006305f5e10083604001511415612f90575080610b6b565b6040830151610b68906111d2846305f5e100611dc0565b600080612fb2613f5b565b6001600160a01b03861660009081526020918252604080822061ffff88168352909252208054909150612ff590600160501b90046001600160501b031684612215565b9150600083121561302a5780546001600160501b031682131561302a5760405162461bcd60e51b815260040161023d90614efc565b613036610eab8361191a565b81546001600160501b0391909116600160501b02600160501b600160a01b031990911617815560405161ffff8516906001600160a01b038716907f20478ef460e49d010960d4f3fff35d8dae385443abfac09035d6a2ccbcd834c49061309d908690614d71565b60405180910390a3509392505050565b600082820183811015610b6857600080fd5b6000613106876040518060a00160405280896001600160a01b03168152602001896001600160a01b031681526020018881526020018781526020016000815250858561297b565b50979650505050505050565b60008161312157506000610b6b565b600061312c84613ed0565b9050600061313984613271565b9050816b019d971e4fe8401e74000001600160ff1b038161315657fe5b0581131561316357600080fd5b6b033b2e3c9fd0803ce80000006b019d971e4fe8401e740000008383020105600085136131985761319381610daf565b612971565b95945050505050565b600080610b6b6014612c3b565b60008060008060006131bf86613f68565b909250905060006001600160a01b0383166131e45750600090506402540be400613266565b826001600160a01b0316631ee108336040518163ffffffff1660e01b8152600401602060405180830381600087803b15801561321f57600080fd5b505af1158015613233573d6000803e3d6000fd5b505050506040513d601f19601f820116820180604052508101906132579190614c33565b90506000811361326657600080fd5b969195509350915050565b60008082121561328b5761328482610daf565b9050610dc0565b5080610dc0565b60008313156132a057600080fd5b60006132ca6301da9c006111d26132bf6132ba878761196f565b6113fb565b60808a015190611dc0565b905060006132f06132e4836132de88610daf565b90612244565b61016089015190611f1d565b9050600061331060646111d28a60e0015185611dc090919063ffffffff16565b9050600061331e8383612215565b9050613332896040015161ffff1683613f9f565b613344896040015161ffff1682614026565b60808801516133539084612215565b88608001818152505085896040015161ffff168a600001516001600160a01b03167f7456cb4b7c3068832fb334a03d3cd8e440286bad834cb9e332df05ae6792cfbb85856040516133a5929190614d7a565b60405180910390a4505050505050505050565b6000806133c483614072565b60ff169392505050565b600080600085116133f15760405162461bcd60e51b815260040161023d90614e7c565b60078511156134125760405162461bcd60e51b815260040161023d90614f47565b600061341d8461408f565b905060015b86811161347557600061343e613437836140ad565b8490614151565b905086811415613456575092506000915061348e9050565b8681111561346c575092506001915061348e9050565b50600101613422565b5060405162461bcd60e51b815260040161023d906150a6565b935093915050565b60008460a00151600014156134ac5750816134ce565b6134cb8560a001516109f487606001518661192990919063ffffffff16565b90505b60a08501516134dd90846130ad565b60a086015260608501516134f190826130ad565b6060860152604084015161350590826130ad565b60408501526119af8583610e53565b60008061352a89600001518a60400151896112db565b89519091506001600160a01b031663dc6679c58961354884896130ad565b8988886040518663ffffffff1660e01b815260040161356b959493929190614d38565b602060405180830381600087803b15801561358557600080fd5b505af1158015613599573d6000803e3d6000fd5b505050506040513d601f19601f820116820180604052508101906135bd9190614c33565b9998505050505050505050565b60008060008060006135db86613f68565b909250905060006001600160a01b0383166136005750600090506402540be400613266565b826001600160a01b031663b2fffb046040518163ffffffff1660e01b815260040160206040518083038186803b15801561363957600080fd5b505afa158015613233573d6000803e3d6000fd5b60008061365d8761ffff16612cc0565b905080604001516000141561367c576136798761ffff1661181e565b90505b60405163e937711160e01b8152613707906001600160a01b0388169063e9377111906136b090899089908990600401614d17565b60206040518083038186803b1580156136c857600080fd5b505afa1580156136dc573d6000803e3d6000fd5b505050506040513d601f19601f820116820180604052508101906137009190614c33565b8290612f77565b979650505050505050565b600080600061371f61375b565b6000958652602090815260408087209587529490525050509020546501000000000081046001600160801b031691600160a81b90910460ff1690565b600080610b6b6008612c3b565b60008061ffff841661377f575060009050806137f3565b60006137896141ab565b6001600160a01b038816600090815260209182526040808220898352835280822061ffff891683529092522080549091506001600160501b03600160a01b8204811691600160501b90041685156137ee576137eb6132ba826109f48986611929565b93505b509250505b94509492505050565b600080610b6b6019612c3b565b60006138168560006141b8565b846001600160a01b03167f7c51c6aa77346c54cb051d9e792f9b7bde5c28a9b57e6fb2d2dd727b38438ca960006040516138509190614d66565b60405180910390a2818461ffff16866001600160a01b03167f823b641d46550301006f807a26587634f15bd13749efdc8859734377d5304a3b866040516138979190614d71565b60405180910390a460006138b060008661ffff16614218565b50505090508084136138d0576138c8858583036142c1565b839150613928565b6138db8560006142c1565b828561ffff16876001600160a01b03167f3a717b6924e3ad05b8c7609a2401472af90869b52cc3c9ca69b50100b4be631684880360405161391c9190614d71565b60405180910390a48091505b50949350505050565b6000697fffffffffffffffffff1982128015906139585750697fffffffffffffffffff8213155b61141157600080fd5b600080808060058760600151600581111561397857fe5b1461398a576370a0823160e01b613993565b630ed1279f60e11b5b90508660200151156139af5786516139ac903083614324565b92505b86516139bc908787614436565b8660200151806139d0575060008760800151115b156139e55786516139e2903083614324565b91505b608087015115613a20576000613a03886139fe856113fb565b612f77565b9050613a1288608001516113fb565b811315613a1e57600080fd5b505b866020015115613a4157613a376132ba838561448e565b935050505061137d565b613a37856113fb565b826001600160a01b031663a9059cbb83836040518363ffffffff1660e01b815260040180836001600160a01b0316815260200182815260200192505050600060405180830381600087803b158015613aa157600080fd5b505af1158015613ab5573d6000803e3d6000fd5b50505050610c1d613e56565b825160405163db006a7560e01b8152600091479183916001600160a01b03169063db006a7590613af5908790600401614d71565b602060405180830381600087803b158015613b0f57600080fd5b505af1158015613b23573d6000803e3d6000fd5b505050506040513d601f19601f82011682018060405250810190613b479190614c33565b90508015613b675760405162461bcd60e51b815260040161023d90614e2c565b47613b72818461448e565b935061173f8685612cd3565b6000613b99610ea68560000151613b94856113fb565b613112565b9050613ba36144e5565b548451604051631a4ca37b60e21b81526001600160a01b03909216916369328dec91613bd59185908890600401614cc7565b602060405180830381600087803b158015613bef57600080fd5b505af1158015613c03573d6000803e3d6000fd5b505050506040513d601f19601f82011682018060405250810190613c279190614c33565b509392505050565b82516000908190613c4890306370a0823160e01b614324565b9050600086600001516001600160a01b031663db006a75856040518263ffffffff1660e01b8152600401613c7c9190614d71565b602060405180830381600087803b158015613c9657600080fd5b505af1158015613caa573d6000803e3d6000fd5b505050506040513d601f19601f82011682018060405250810190613cce9190614c33565b90508015613cee5760405162461bcd60e51b815260040161023d90614e2c565b8551600090613d0590306370a0823160e01b614324565b9050613d11818461448e565b9350613d2287600001518786613a4a565b505050949350505050565b60006305f5e10083604001511215613d4e57612db3600161220385856127fb565b610b6883613d5d846001611daa565b6127fb565b600080600585606001516005811115613d7757fe5b14613d89576370a0823160e01b613d92565b630ed1279f60e11b5b90506000613da586600001513084614324565b9050600586606001516005811115613db957fe5b1415613de0576000613dce8661ffff16612cc0565b9050613dda81866144f2565b50613e29565b600186606001516005811115613df257fe5b1415613e0757613e02868561455d565b613e29565b600286606001516005811115613e1957fe5b141561009c57613e0286856145ff565b6000613e3a87600001513085614324565b90506137076132ba828461448e565b600080610b6b6002612c3b565b6000613e6061498a565b3d8015613e745760208114613e7d57600080fd5b60019250613e88565b60206000833e815192505b5081611630576040805162461bcd60e51b8152602060048201526005602482015264045524332360dc1b604482015290519081900360640190fd5b600080610b6b6007612c3b565b6000610dbd613edd6144e5565b5460405163d15e005360e01b81526001600160a01b039091169063d15e005390613f0b908690600401614c75565b60206040518083038186803b158015613f2357600080fd5b505afa158015613f37573d6000803e3d6000fd5b505050506040513d601f19601f820116820180604052508101906132ba9190614c33565b600080610b6b6017612c3b565b6000806000613f75614652565b600094855260205250506040909120546001600160a01b03811692600160a01b90910460ff169150565b6000811215613fad57600080fd5b6000613fba600084614218565b5050509050613fd28282611daa90919063ffffffff16565b9050613fe560008483600080600061465f565b8261ffff167f85170c297762884f47ec6098b74925c795e6d33686b11019b400e33a9b23b5e9836040516140199190614d71565b60405180910390a2505050565b600081121561403457600080fd5b600061403f836147a6565b9050600061404d8285614218565b50505090506140658382611daa90919063ffffffff16565b90506114578285836147cc565b60008061407d6147ea565b60009384526020525050604090205490565b60006276a7008210156140a157600080fd5b506276a7008106900390565b600081600114156140c257506276a700610dc0565b81600214156140d5575062ed4e00610dc0565b81600314156140e957506301da9c00610dc0565b81600414156140fd57506303b53800610dc0565b816005141561411157506309450c00610dc0565b8160061415614125575063128a1800610dc0565b816007141561413957506325143000610dc0565b60405162461bcd60e51b815260040161023d90614eab565b600082820183811015610b68576040805162461bcd60e51b815260206004820152601b60248201527f536166654d6174683a206164646974696f6e206f766572666c6f770000000000604482015290519081900360640190fd5b600080610b6b6018612c3b565b60006141c26131a1565b6001600160a01b038416600090815260208290526040902080549192509061ffff16831561420157815461ffff19166001821761ffff16178255614211565b815461ffff191661fffe82161782555b5050505050565b60008060008060006142286147f7565b6001600160a01b0388166000908152602082815260408083208a8452909152902080546001600160501b0381169650600160501b900463ffffffff169450909150831561429157805461428a90600160701b900466ffffffffffffff16614804565b92506142a6565b8054600160701b900466ffffffffffffff1692505b54600160a81b9004600a90810b900b97939650919450925050565b60008112156142cf57600080fd5b6142e460008361ffff1683600080600061465f565b8161ffff167fd3625f7b5926828151efe19f7ae655488287357d99ebe67e5fb20522ca739c0b826040516143189190614d71565b60405180910390a25050565b604080516001600160a01b0384811660248084019190915283518084039091018152604490920183526020820180516001600160e01b03166001600160e01b0319861617815292518251600094859485948a16939092909182918083835b602083106143a15780518252601f199092019160209182019101614382565b6001836020036101000a038019825116818451168082178552505050505050905001915050600060405180830381855afa9150503d8060008114614401576040519150601f19603f3d011682016040523d82523d6000602084013e614406565b606091505b50915091508161441557600080fd5b80806020019051602081101561442a57600080fd5b50519695505050505050565b604080516323b872dd60e01b81526001600160a01b038481166004830152306024830152604482018490529151918516916323b872dd9160648082019260009290919082900301818387803b158015613aa157600080fd5b60008282111561197e576040805162461bcd60e51b815260206004820152601e60248201527f536166654d6174683a207375627472616374696f6e206f766572666c6f770000604482015290519081900360640190fd5b600080610b6b6013612c3b565b6144fa6144e5565b54825160405163e8eda9df60e01b81526001600160a01b039092169163e8eda9df9161452f9185903090600090600401614cea565b600060405180830381600087803b15801561454957600080fd5b505af1158015611a1d573d6000803e3d6000fd5b815160405163140e25ad60e31b81526000916001600160a01b03169063a0712d689061458d908590600401614d71565b602060405180830381600087803b1580156145a757600080fd5b505af11580156145bb573d6000803e3d6000fd5b505050506040513d601f19601f820116820180604052508101906145df9190614c33565b90508015610c1d5760405162461bcd60e51b815260040161023d90614e0e565b81600001516001600160a01b0316631249c58b826040518263ffffffff1660e01b81526004016000604051808303818588803b15801561463e57600080fd5b505af1158015610e4a573d6000803e3d6000fd5b600080610b6b600f612c3b565b60006146696147f7565b6001600160a01b0388166000908152602082815260408083208a845290915290209091506a7fffffffffffffffffffff1986128015906146b457506a7fffffffffffffffffffff8613155b6146bd57600080fd5b600085121580156146d557506001600160501b038513155b6146de57600080fd5b8361471e5766ffffffffffffff8311156146f757600080fd5b805466ffffffffffffff60701b1916600160701b66ffffffffffffff851602178155614738565b8054600160501b900463ffffffff16841461473857600080fd5b8054600a9690960b6affffffffffffffffffffff16600160a81b026001600160a81b036001600160501b039096166001600160501b031963ffffffff909616600160501b0263ffffffff60501b19909816979097179490941695909517939093169190911790925550505050565b6000806147b1614812565b6000938452602052505060409020546001600160a01b031690565b60008112156147da57600080fd5b610c1d838383600080600061465f565b600080610b6b6009612c3b565b600080610b6b6006612c3b565b600881901c60ff9091161b90565b600080610b6b6003612c3b565b60405180604001604052806002906020820280368337509192915050565b6040518060a0016040528060008152602001600081526020016000815260200160006001600160a01b03168152602001600081525090565b60405180610180016040528060006001600160a01b03168152602001600061ffff168152602001600061ffff168152602001600081526020016000815260200160008152602001600081526020016000815260200160008152602001600081526020016148e061481f565b81526020016148ed614960565b905290565b6040518060e001604052806000815260200160008152602001600015158152602001600081526020016000815260200160008152602001600081525090565b6040805160a0810182526000808252602082018190529181018290529060608201908152602001600081525090565b604051806060016040528060006001600160a01b0316815260200160008152602001600081525090565b60405180602001604052806001906020820280368337509192915050565b80356001600160a01b0381168114610dc057600080fd5b60008083601f8401126149d0578182fd5b50813567ffffffffffffffff8111156149e7578182fd5b6020830191508360208285010111156115de57600080fd5b803563ffffffff81168114610dc057600080fd5b60008060408385031215614a25578182fd5b614a2e836149a8565b91506115db602084016149a8565b600080600080600080600060c0888a031215614a56578283fd5b614a5f886149a8565b9650614a6d602089016149a8565b9550614a7b604089016149a8565b94506060880135935060808801358015158114614a96578384fd5b925060a088013567ffffffffffffffff811115614ab1578283fd5b614abd8a828b016149bf565b989b979a50959850939692959293505050565b60008060008060008060008060e0898b031215614aeb578081fd5b614af4896149a8565b9750614b0260208a016149a8565b9650614b1060408a016149a8565b95506060890135945060808901359350614b2c60a08a016149ff565b925060c089013567ffffffffffffffff811115614b47578182fd5b614b538b828c016149bf565b999c989b5096995094979396929594505050565b60008060008060008060008060e0898b031215614b82578384fd5b614b8b896149a8565b9750614b9960208a016149a8565b9650604089013595506060890135945060808901359350614bbc60a08a016149ff565b925060c089013567ffffffffffffffff811115614b47578283fd5b60008060008060008060008060e0898b031215614bf2578384fd5b614bfb896149a8565b9750614c0960208a016149a8565b96506040890135955060608901359450614c2560808a016149ff565b9350614bbc60a08a016149ff565b600060208284031215614c44578081fd5b5051919050565b60008284528282602086013780602084860101526020601f19601f85011685010190509392505050565b6001600160a01b0391909116815260200190565b600060018060a01b03808a16835280891660208401525086604083015285606083015284608083015260c060a08301526135bd60c083018486614c4b565b6001600160a01b0393841681526020810192909252909116604082015260600190565b6001600160a01b03948516815260208101939093529216604082015261ffff909116606082015260800190565b6001600160a01b039390931683526020830191909152604082015260600190565b600060018060a01b038716825285602083015284604083015260806060830152613707608083018486614c4b565b901515815260200190565b90815260200190565b918252602082015260400190565b9283526020830191909152604082015260600190565b93845260208401929092526040830152606082015260800190565b6020808252600c908201526b155b985d5d1a1bdc9a5e995960a21b604082015260600190565b6020808252601590820152740acc2ead8e840a6d0c2e4cae6409ad2e6dac2e8c6d605b1b604082015260600190565b602080825260049082015263135a5b9d60e21b604082015260600190565b60208082526006908201526552656465656d60d01b604082015260600190565b602080825260169082015275125b9cdd59999a58da595b9d081c995c185e5b595b9d60521b604082015260600190565b60208082526015908201527410d1ce881b9bc81b585c9ad95d1cc81b1a5cdd1959605a1b604082015260600190565b6020808252600d908201526c092dcecc2d8d2c840d2dcc8caf609b1b604082015260600190565b60208082526010908201526f496e76616c6964204d6174757269747960801b604082015260600190565b6020808252600c908201526b4d617820436170616369747960a01b604082015260600190565b6020808252600b908201526a139bdd0814d95d1d1b195960aa1b604082015260600190565b60208082526016908201527510d1ce881b585c9ad95d081a5b99195e08189bdd5b9960521b604082015260600190565b6020808252600f908201526e139bc8149bdb1b08105b1b1bddd959608a1b604082015260600190565b60208082526017908201527f496e73756666696369656e7420436f6c6c61746572616c000000000000000000604082015260600190565b60208082526017908201527f4d757374204c697175696461746520416c6c2044656274000000000000000000604082015260600190565b6020808252600e908201526d1499595b9d1c985b9d0818d85b1b60921b604082015260600190565b6020808252600d908201526c109bdc9c9bddc819985a5b1959609a1b604082015260600190565b6020808252600a90820152694d696e20426f72726f7760b01b604082015260600190565b6020808252600b908201526a092dcecc2d8d2c8408aa8960ab1b604082015260600190565b60208082526013908201527210d1ce881b9bc81b585c9ad95d08199bdd5b99606a1b604082015260600190565b6020808252600c908201526b21b0b73737ba1022b73a32b960a11b604082015260600190565b6020808252600b908201526a11985a5b19590813195b9960aa1b604082015260600190565b60208082526015908201527414dd59999a58da595b9d0810dbdb1b185d195c985b605a1b604082015260600190565b8151815260208083015190820152604080830151908201526060808301516001600160a01b0316908201526080918201519181019190915260a00190565b6001600160801b0391909116815260200190565b61ffff929092168252602082015260400190565b8381526080810160208083018560005b60028110156151e0578151835291830191908301906001016151c3565b50505050826060830152949350505050565b918252151560208201526040019056fea26469706673582212209334278b4a1af37ac0c80bab5a2f01216c4e2cf93bba305d316d557b4c83c09d64736f6c63430007060033",
  "bytecodeSha1": "60e07fafa9a1647f06794672380846972b1b9f74",
  "compiler": {
    "evm_version": "istanbul",
    "optimizer": {
      "enabled": true,
      "runs": 200
    },
    "version": "0.7.6+commit.7338295f"
  },
  "contractName": "VaultAccountAction",
  "deployedBytecode": "60806040526004361061009c5760003560e01c80638246336711610064578063824633671461016a5780638da5cb5b1461017f57806395c1a202146101945780639948315e146101a7578063c025d1a5146101c7578063c4c96dae146101f45761009c565b806324a3d622146100a1578063450c0e02146100cc578063647cc196146100f95780636ce48f0114610128578063803c25fb1461013b575b600080fd5b3480156100ad57600080fd5b506100b6610209565b6040516100c39190614c75565b60405180910390f35b3480156100d857600080fd5b506100ec6100e7366004614bd7565b610218565b6040516100c39190614d71565b34801561010557600080fd5b50610119610114366004614a13565b6103dd565b6040516100c393929190614d88565b6100ec610136366004614ad0565b61047c565b34801561014757600080fd5b5061015b610156366004614a13565b6106bb565b6040516100c3939291906151b3565b34801561017657600080fd5b506100b661076c565b34801561018b57600080fd5b506100b661077b565b6100ec6101a2366004614b67565b610792565b3480156101b357600080fd5b506100ec6101c2366004614a3c565b6108dc565b3480156101d357600080fd5b506101e76101e2366004614a13565b610b56565b6040516100c3919061514d565b34801561020057600080fd5b506100b6610b71565b6002546001600160a01b031681565b60006002600a5414156102465760405162461bcd60e51b815260040161023d9061500e565b60405180910390fd5b6002600a55600061025689610b89565b9050610264818b6010610bb8565b61026f816080610c22565b1561027a576001600a555b60006102868b8b610c37565b9050610293826001610c22565b80156102a557506102a5826002610c22565b80156102b45750806020015142105b80156102c35750878160200151105b80156102cf5750600089115b6102eb5760405162461bcd60e51b815260040161023d90614f77565b60006102ff83600001518360200151610cb5565b9050600061031c83846040015184610d509092919063ffffffff16565b905061033b84836103308660000151610daf565b869291908d42610dc5565b82511561035a5760405162461bcd60e51b815260040161023d906150f9565b8351610367908390610e53565b61037983858c8e8c8c8c886000610fc7565b9450898d6001600160a01b03168d6001600160a01b03167f67c1d09e65227d62b788f4c3e6ace545ac922034d69bd4aa45c53dec290275be8e6040516103bf9190614d71565b60405180910390a450506001600a5550909998505050505050505050565b6000806000806103ec8561106a565b905060006103fa8787610c37565b9050600061040c878360200151610cb5565b90508260a00151945080604001511561042e576001600160ff1b039550610472565b6040820151825160009161044891869185918d919061108e565b9097509050858712801561045c5750600081135b156104705761046c8385836110f6565b5094505b505b5050509250925092565b60006002600a5414156104a15760405162461bcd60e51b815260040161023d9061500e565b6002600a5560006104b189610b89565b90506104bf818b6008610bb8565b6104ca816080610c22565b156104d5576001600a555b60006104e18b8b610c37565b9050428160200151116105845760208101516000610500838542611205565b905060008360800151131561052b576105228b856040015185608001516112db565b50600060808401525b61053a84848d84868c8c611384565b9450818d6001600160a01b03168d6001600160a01b03167f8255ee71b1bee16ae1f9ff6c76fe18682af74350ef6c49dba972aab969a7e67c60405160405180910390a45050610680565b600061059883600001518360200151610cb5565b90506105b383826105a88b6113fb565b859291908b42610dc5565b60006105c082848c610d50565b90506000836080015113156105eb576105e28b856040015185608001516112db565b50600060808401525b801561060957815161060690859085908e9085908c8c611384565b94505b82516000131561061e5761061e848385611415565b835161062b908390610e53565b81600001518d6001600160a01b03168d6001600160a01b03167f5fa4d63d84bbcbb86063028ac3ad93f61e31764be1de668fc3b3dc6fe930e82f8c8e604051610675929190614d7a565b60405180910390a450505b805115801561069157506040810151155b1561069e57600060208201525b6106a8818361145d565b50506001600a5598975050505050505050565b60006106c561481f565b6000806106d061157e565b6001600160a01b03878116600090815260209283526040808220928916825291835290812080546001600160501b03640100000000820481168852600160701b8204169387019390935263ffffffff90921695509091506107318787610c37565b90506000610743878360200151610cb5565b905061075c82604001518261158b90919063ffffffff16565b9050809450505050509250925092565b6001546001600160a01b031681565b60005464010000000090046001600160a01b031681565b60006002600a5414156107b75760405162461bcd60e51b815260040161023d9061500e565b6002600a556107c5896115e5565b60006107d089610b89565b90506107de818b6004610bb8565b6107e9816080610c22565b156107f4576001600a555b6107ff816001610c22565b61081b5760405162461bcd60e51b815260040161023d906150d3565b86421061083a5760405162461bcd60e51b815260040161023d906150d3565b60006108468b8b610c37565b905060008160200151600014158015610863575042826020015111155b1561087657610873828442611205565b90505b6000610883848e8d611634565b905061089683858c8c8c8c8c8989610fc7565b9450898d6001600160a01b03168d6001600160a01b03167f7e1a5e400898c4bb3cfc62f61a71f4369ec78f0e778a31286892b7d2c0d044f28c6040516103bf9190614d71565b60006002600a5414156109015760405162461bcd60e51b815260040161023d9061500e565b6002600a556000610913898989611749565b905060006109218a8a610c37565b905060006109338a8360200151610cb5565b90508160200151421061094557600080fd5b600080610969838e866040015187600001518961108e90949392919063ffffffff16565b915091508460a0015182126109905760405162461bcd60e51b815260040161023d9061511e565b60006109a3866040015161ffff1661181e565b90506109b38c8287898f87611831565b60006109fa633b9aca006109f46109c98661191a565b6109f48a604001516109ee6109e18e60c0015161191a565b6109ee8e6080015161191a565b90611929565b90611950565b6040870151909150610a0c908261196f565b60408701526080860151610160880151600091610a299190611984565b9050610a48888783610a3e8b60800151610daf565b8b939291906119b7565b865160001215610a5757600087525b8f6001600160a01b03168f6001600160a01b03167f5b4676a4ed91c52fd6c4a759aec8a3561b67499c52870fc58000a8eb54fec3018484604051610a9c929190614d7a565b60405180910390a350610aaf868861145d565b8c6001600160a01b03168f6001600160a01b03168f6001600160a01b03167f01745a2fe0d7c484ea79432a82f950eac6916adc499a0223d2ebdadcdb210f2a848f604051610afe9291906151f2565b60405180910390a48a15610b37578651610b19908690610e53565b610b298d88838960200151611a25565b975050505050505050610b46565b610b298d8887848e8e88611a99565b6001600a55979650505050505050565b610b5e61483d565b610b688383610c37565b90505b92915050565b73__$7ac922d04bd7a1b42c7f6e5f1dd89a70af$__90565b610b91614875565b610b9a82611b6f565b9050610bad816040015161ffff16611ced565b610160820152919050565b610bc28382610c22565b15610bf55782516001600160a01b03163314610bf05760405162461bcd60e51b815260040161023d90614db9565b610c1d565b6001600160a01b0382163314610c1d5760405162461bcd60e51b815260040161023d90614db9565b505050565b60209190910151811661ffff90811691161490565b610c3f61483d565b6000610c49611d39565b6001600160a01b03948516600081815260209283526040808220969097168152948252858520546001600160501b038082168703865263ffffffff600160a01b83041693860193909352600160501b900490911694830194909452506060810192909252608082015290565b610cbd6148f2565b6000610cc7611d46565b6001600160a01b03909416600090815260209485526040808220858352865280822094845284546001600160501b038082169093039685019690965260ff600160f01b870416151590840152600160501b8086048216608085015260019094015480821660a0850152600160a01b909504166060830152509104600990810b900b60c082015290565b8251602083015160009114610d6457600080fd5b6040830151610d73908361196f565b60408401526000610d848584611d53565b92509050610d9f610d94826113fb565b608086015190611daa565b6080909401939093529392505050565b6000610dbd60001983611dc0565b90505b919050565b8551600090610dd49085611daa565b1315610ddf57600080fd5b85602001518110610def57600080fd5b6000610e0c8660400151886020015186868a610100015187611e0e565b905080610e2f57610160860151610e2c90610e279086611f1d565b610daf565b90505b6000811315610e3d57600080fd5b610e4a87878787856119b7565b50505050505050565b6000610e5d611d46565b6001600160a01b0383166000908152602082815260408083208751845290915290819020908501519192509015610e9357600080fd5b610eb0610eab610ea68660200151610daf565b61191a565b611f48565b81546001600160501b0319166001600160501b03919091161781556080840151610ed990611f48565b81546001600160501b0391909116600160501b02600160501b600160a01b031990911617815560a0840151610f0d90611f48565b6001820180546001600160501b0319166001600160501b03929092169190911790556060840151610f3d90611f48565b81546001600160501b0391909116600160a01b0269ffffffffffffffffffff60a01b1990911617815583516020850151608086015160a087015160608801516040516001600160a01b038916947f3a0fdaecf7b5da75a56077f5b1c8fbc88f9b08e9d0c4db31eb34e25bc6700cde94610fb99491939092614d9e565b60405180910390a350505050565b6000878a602001511480610fda57508951155b610fe357600080fd5b6000610ff38a600001518a610cb5565b90508715611019576110148b8b838c61100e610e278e6113fb565b8c611f5e565b611030565b61102e8a604001518a8c610100015142611fee565b505b61103f818c8c87878b8b61205d565b915061104b8b8b61145d565b871561105c5761105c8a828d611415565b509998505050505050505050565b611072614875565b61107b82611b6f565b9050610bad816040015161ffff16612194565b60008061109d868887876121aa565b905060006110b96110ad85610daf565b6101608a015190611f1d565b905060006110c78383612215565b9050816110dd576001600160ff1b0393506110ea565b6110e7818361222b565b93505b50509550959350505050565b6000806000611117633b9aca00866101200151611daa90919063ffffffff16565b9050600061113761112b8860000151610daf565b61016088015190611f1d565b905061116d6111538760c001518461221590919063ffffffff16565b611167876111618587612244565b90612215565b9061222b565b9350600061117b8286612215565b9050600061119b8860600151896101600151611f1d90919063ffffffff16565b90506111a78382612215565b9450808212156111b5578295505b60006111d8886111d28b60c001518a611dc090919063ffffffff16565b90612259565b9050633b9aca0081126111f85760c08901516111f590899061222b565b96505b5050505050935093915050565b60008061121a84600001518660200151610cb5565b9050806040015161123d5760405162461bcd60e51b815260040161023d90614f22565b6000611256856040015161ffff1687602001518661228a565b9050600061127d6305f5e1006111d28560c001516112778760a001516113fb565b90611dc0565b9050600061128e88858986866123fa565b9050600061129f88868685876125c3565b60008b5260808b01519097509091506112b89082611daa565b60808a015250506000604088018190526020909701969096525090949350505050565b6000816112ea5750600061137d565b600082136112f757600080fd5b60006113068461ffff1661181e565b9050600061131482856127fb565b905060048260600151600581111561132857fe5b14156113565761134f610ea6610e27888861ffff1661134686610daf565b87929190612833565b925061137a565b611377610ea6610e278761ffff168961136e8661191a565b879291906128db565b92505b50505b9392505050565b6000808760800151131561139757600080fd5b6113e3886040518060a001604052808a606001516001600160a01b03168152602001896001600160a01b031681526020018881526020018781526020018a60800151815250858561297b565b60006080909901989098525095979650505050505050565b60006001600160ff1b0382111561141157600080fd5b5090565b6000611430848484606001518560400151866000015161108e565b509050808460a0015113156114575760405162461bcd60e51b815260040161023d90614fa0565b50505050565b6000611467611d39565b60608401516001600160a01b039081166000908152602083815260408083208751909416835292905220608085015191925090156114a457600080fd5b606083015184516114b490610daf565b12156114e957835115806114cd57506001846040015111155b6114e95760405162461bcd60e51b815260040161023d9061505d565b6114fc610eab610ea68660000151610daf565b81546001600160501b0319166001600160501b0391909116178155604084015161152590611f48565b81546001600160501b0391909116600160501b02600160501b600160a01b0319909116178155602084015161155990612c28565b815463ffffffff91909116600160a01b0263ffffffff60a01b19909116179055505050565b600080610b6b601a612c3b565b6000806000846060015111156115de576115ba84606001516109f486608001518661192990919063ffffffff16565b91506115db84606001516109f48660a001518661192990919063ffffffff16565b90505b9250929050565b6001600160a01b0381166115f857600080fd5b6001600160a01b03811630141561160e57600080fd5b600061161982612c54565b5050505061ffff1690508060001461163057600080fd5b5050565b6000816116435750600061137d565b6000611656856040015161ffff1661181e565b9050600060048260600151600581111561166c57fe5b1461168757611682866040015161ffff16612cc0565b611689565b815b86519091506003826060015160058111156116a057fe5b14156116da578434146116c55760405162461bcd60e51b815260040161023d90615081565b6116cf8134612cd3565b34935050505061137d565b8160200151156117265760006116f08383612d09565b90506117028360000151888489612dba565b600061170e8484612d09565b905061171a818361196f565b9550505050505061137d565b815161173490878388612dba565b84935050505061137d565b5050509392505050565b611751614875565b61175a83610b89565b9050611767816080610c22565b15611772576001600a555b61177d816020610c22565b156117af57336001600160a01b038416146117aa5760405162461bcd60e51b815260040161023d90614db9565b6117d7565b336001600160a01b038316146117d75760405162461bcd60e51b815260040161023d90614db9565b6001600160a01b03841633148015906118025750816001600160a01b0316846001600160a01b031614155b61137d5760405162461bcd60e51b815260040161023d90614db9565b611826614931565b610dbd826000612e42565b600061183c836113fb565b905060058660600151600581111561185057fe5b141561186b57611868846040015161ffff1682612ef0565b90505b6000806118798787866110f6565b915091506000821361188a57600080fd5b600061189689846127fb565b9050808412156118cd576118aa89836127fb565b84126118c85760405162461bcd60e51b815260040161023d90614fd7565b6118d1565b8093505b60408701516000906118eb908b908d9061ffff1688612833565b90506119056118fa8b83612f77565b60808b015190611daa565b60809099019890985250505050505050505050565b60008082121561141157600080fd5b60008261193857506000610b6b565b8282028284828161194557fe5b0414610b6857600080fd5b600080821161195e57600080fd5b81838161196757fe5b049392505050565b60008282111561197e57600080fd5b50900390565b6000806119af84604001516111d26402540be4006111d2878960200151611dc090919063ffffffff16565b949350505050565b60808501516119c69082611daa565b608086015284516119d79083611daa565b808652600012156119e757600080fd5b60208301516119f69083611daa565b6020840181905260001215611a0a57600080fd5b611a1d8460000151856040015184612fa7565b505050505050565b600080611a36868660000151610c37565b9050806020015160001480611a4e5750828160200151145b611a6a5760405162461bcd60e51b815260040161023d90614ddf565b602081018390526040810151611a8090856130ad565b6040820152611a8f818661145d565b5091949350505050565b60008080611aa78888611d53565b89519193509150600090611ac2908b908d9085908b8b6130bf565b9050611ad7611ad0846113fb565b8290611daa565b8a51909150611ae7908a90610e53565b6000611b128c8c6040015161ffff16611b09611b0286610daf565b8a906127fb565b89929190612833565b9050600586606001516005811115611b2657fe5b1415611b53576000611b3f8c6040015161ffff16612cc0565b9050611b4f816000015183613112565b9150505b611b5f610ea682610daf565b9c9b505050505050505050505050565b611b77614875565b6000611b816131a1565b6001600160a01b03841660008181526020838152604091829020928652825461ffff808216928801929092526201000081049091169186019190915291925090611be29063ffffffff6401000000009091048116906305f5e10090611dc016565b60608401528054611c0090600160501b900460ff166207a120611929565b60808401528054611c249068010000000000000000900461ffff16620186a0611929565b60a08401528054611c4390600160701b900461ffff16620186a0611929565b610120840152805460649060ff600160581b90910416633b9aca00020560c08401528054600160601b810460ff90811660e0860152600160681b909104166101008401526040805180820191829052906001830190600290826000855b82829054906101000a900461ffff1661ffff1681526020019060020190602082600101049283019260010382029150808411611ca057905050505050508361014001819052505050919050565b611cf5614960565b6000806000611d03856131ae565b604080516060810182526001600160a01b039093168352602083019390935260ff16600a0a918101919091529350505050919050565b600080610b6b6016612c3b565b600080610b6b6015612c3b565b600080611d60848461158b565b60808601519193509150611d74908361196f565b608085015260a0840151611d88908261196f565b60a08501526060840151611d9c908461196f565b606090940193909352929050565b81810182811215600083121514610b6b57600080fd5b818102600019831415611df057811580611de2575082828281611ddf57fe5b05145b611deb57600080fd5b610b6b565b821580611e05575081838281611e0257fe5b05145b610b6b57600080fd5b600080611e1d88888686611fee565b90506000611e2a87613271565b90506affffffffffffffffffffff8110611e4357600080fd5b600060788763ffffffff16901b609883901b60f085901b60f860008c13611e6b576001611e6e565b60005b6005811115611e7957fe5b60ff16901b17171760001b905073__$7ac922d04bd7a1b42c7f6e5f1dd89a70af$__63e50f349e8b836040518363ffffffff1660e01b8152600401611ebf92919061519f565b60206040518083038186803b158015611ed757600080fd5b505af4158015611eeb573d6000803e3d6000fd5b505050506040513d601f19601f82011682018060405250810190611f0f9190614c33565b9a9950505050505050505050565b6000806119af84602001516111d286604001516112776402540be40088611dc090919063ffffffff16565b60006001600160501b0382111561141157600080fd5b60008212611f6b57600080fd5b6000611f8486604001518585858a610100015142611e0e565b905060008113611fa65760405162461bcd60e51b815260040161023d90615036565b611fb387878786856119b7565b8651611fbe90610daf565b86606001511315611fe15760405162461bcd60e51b815260040161023d9061505d565b610e4a8688858742613292565b60008060006120008761ffff166133b8565b90506120108160ff1687866133ce565b9093509150848311156120355760405162461bcd60e51b815260040161023d90614ed2565b81156120535760405162461bcd60e51b815260040161023d90614ed2565b5050949350505050565b6000876080015160001461207057600080fd5b60008760800151121561208257600080fd5b8751602088015110156120aa5760408701511561209e57600080fd5b875160208801526120bb565b87516020880151146120bb57600080fd5b600085156120d6576120d38989888a60000151613496565b90505b606088015160808901518a516000926120f3928b928a8a8a613514565b905061210f6121088b8b848c60000151613496565b83906130ad565b915088606001516001600160a01b03168a6000015189600001516001600160a01b03167f87d46c761bdd82b4a559098beeb0d5b8fa8c0e2aa3607704fe0757618e85e24d61216a8a8e608001516130ad90919063ffffffff16565b8b8760405161217b93929190614d88565b60405180910390a4600060808a0152611f0f87826130ad565b61219c614960565b6000806000611d03856135ca565b6000816121b9575060006119af565b6000806121c6878561158b565b9150915060006121e58760400151886000015188858c6000015161364d565b90506122096121f3846113fb565b6101608901516122039084611f1d565b90611daa565b98975050505050505050565b80820382811315600083121514610b6b57600080fd5b6000610b6861223e84633b9aca00611dc0565b83612259565b6000610b686122538484611dc0565b633b9aca005b60008160001914801561226f5750600160ff1b83145b1561227957600080fd5b81838161228257fe5b059392505050565b612292614960565b60008061229f8686613712565b9150915081600014156123cf5760006122b7876131ae565b91945090925090506001600160a01b038116156123cd5760006122d861375b565b90508560001080156122ea5750858711155b80156122fb575064ffffffffff8611155b61230457600080fd5b83600012801561231b57506001600160801b038413155b61232457600080fd5b6000888152602082815260408083208a845290915290819020805464ffffffffff191664ffffffffff89161774ffffffffffffffffffffffffffffffff00000000001916650100000000006001600160801b038816021760ff60a81b1916600160a81b60ff871602178155905188908a907f0fdfa6885701e2f1f42e4187b9231cf81c1fe23671ef64fa46f34ddb56c1dc18906123c290899061518b565b60405180910390a350505b505b6040805160608101825260008152602081019390935260ff909116600a0a9082015290509392505050565b60008061241e61241761241088608001516113fb565b8690611984565b8490611daa565b6101408601515190915061ffff1615158061244557506101408501516020015161ffff1615155b1561255957600061245461157e565b60608901516001600160a01b039081166000908152602092835260408082208a519093168252919092528120875189516101408a015151835493955084936124af9392919064010000000090046001600160501b0316613768565b90925090506124be8483611daa565b93506124ca8582612215565b88518a516101408b01516020015186549398506124f693600160701b90046001600160501b0316613768565b90925090506125058483611daa565b93506125118582612215565b945061251b61157e565b60608b01516001600160a01b039081166000908152602092835260408082208c51909316825291909252902080546001600160c01b03191690555050505b61258c61258588600001516122036125748a606001516113fb565b6111d2866112778e604001516113fb565b8390611daa565b915060008212156125b9576125af6125a48584611f1d565b608089015190611daa565b6080880152600091505b5095945050505050565b60008060006125ef6125e2886020015188611f1d90919063ffffffff16565b61220389608001516113fb565b90506000612601856122038985611984565b9050612621610ea6826111d261261a8c60a001516113fb565b8a90611dc0565b9250612631816111d28885611dc0565b93505050600061263f6137fc565b88516001600160a01b03166000908152602091825260408082208a5183529092522080549091506001600160501b03811690600160501b9004600990810b900b838210156126c3576126b66126af6126a86305f5e1006111d28d60c00151611277888b036113fb565b8a90611f1d565b8690611daa565b94509092506000906126c9565b83820391505b82546001600160501b0319166001600160501b03831617835560008512156126f057600080fd5b84811215612763576000808213612707578561270b565b8186035b905060006127278c600001518d60400151848e60000151613809565b905060008313156127585761273c8382611daa565b8554600160501b600160a01b031916865596506000925061275c565b8096505b50506127a2565b61276d8186612215565b905061277881613931565b835460099190910b6001600160501b0316600160501b02600160501b600160a01b03199091161783555b88600001518a600001516001600160a01b03167ff5b347a56f0b5140f05eec05ff743978670a56685689fdc2c3193d71cfac31a983856040516127e6929190614d7a565b60405180910390a35050509550959350505050565b60006305f5e10083604001511415612814575080610b6b565b610b686305f5e1006111d2856040015185611dc090919063ffffffff16565b8060058560600151600581111561284657fe5b141561286b57600061285784612cc0565b9050612867816000015184613112565b9250505b6000821315612897576000612881868685613961565b9050856020015115612891578091505b506119af565b6003856060015160058111156128a957fe5b14156128c6576128c1846128bc84610daf565b612cd3565b6119af565b84516119af90856128d685610daf565b613a4a565b6000806002866060015160058111156128f057fe5b141561290857612901868585613ac1565b9050612965565b600061291386612cc0565b905060058760600151600581111561292757fe5b141561293f57612938818686613b7e565b9150612963565b60018760600151600581111561295157fe5b141561009c5761293887828787613c2f565b505b612971610e27826113fb565b9695505050505050565b6000806000612991876040015161ffff1661181e565b905060006004826060015160058111156129a757fe5b146129c2576129bd886040015161ffff16612cc0565b6129c4565b815b905060008088608001511215612a37576004836060015160058111156129e657fe5b1415612a03576129fc610ea68960800151610daf565b9050612a37565b6000612a24610e278a608001518c610160015161198490919063ffffffff16565b9050612a33610ea68483613d2d565b9150505b604088015160009015612b0f576000612a508430612d09565b90508a600001516001600160a01b03166344f051088b600001518c602001518d604001518e60600151888f8f6040518863ffffffff1660e01b8152600401612a9e9796959493929190614c89565b602060405180830381600087803b158015612ab857600080fd5b505af1158015612acc573d6000803e3d6000fd5b505050506040513d601f19601f82011682018060405250810190612af09190614c33565b95506000612afe8530612d09565b9050612b0a818361196f565b925050505b81811015612baa57808203600384606001516005811115612b2c57fe5b1415612b6a5734811115612b525760405162461bcd60e51b815260040161023d90614e4c565b612b628a60000151823403612cd3565b829150612ba8565b6000612b8f8b600001518d6040015161ffff16612b86856113fb565b88929190612833565b9050612ba4612b9d8261191a565b84906130ad565b9250505b505b81811015612bca5760405162461bcd60e51b815260040161023d90614e4c565b6000600485606001516005811115612bde57fe5b1415612bf457612bed826113fb565b9050612c0e565b8115612c0e5760408b0151612c0b90869084613d62565b90505b612c188582612f77565b9650505050505094509492505050565b600063ffffffff82111561141157600080fd5b6000620f424082601a811115612c4d57fe5b0192915050565b600080600080600080612c65613e49565b6001600160a01b039097166000908152602097909752505060409094205461ffff81169563ffffffff620100008304811696506601000000000000830416945060ff600160501b8304169350600160581b90910460d81b9150565b612cc8614931565b610dbd826001612e42565b6040516001600160a01b0383169082156108fc029083906000818181858888f19350505050158015610c1d573d6000803e3d6000fd5b6000600383606001516005811115612d1d57fe5b1415612d3457506001600160a01b03811631610b6b565b82516040516370a0823160e01b81526001600160a01b03909116906370a0823190612d63908590600401614c75565b60206040518083038186803b158015612d7b57600080fd5b505afa158015612d8f573d6000803e3d6000fd5b505050506040513d601f19601f82011682018060405250810190612db39190614c33565b9050610b6b565b836001600160a01b03166323b872dd8484846040518463ffffffff1660e01b815260040180846001600160a01b03168152602001836001600160a01b031681526020018281526020019350505050600060405180830381600087803b158015612e2257600080fd5b505af1158015612e36573d6000803e3d6000fd5b50505050611457613e56565b612e4a614931565b6000612e54613ec3565b6000858152602082815260408083208715158452825291829020825160a08101845281546001600160a01b038116825260ff600160a01b82048116151594830194909452600160b01b81048416600a0a9482019490945293945092916060830191600160a81b909104166005811115612ec957fe5b81529154600160b81b900468ffffffffffffffffff16602090920191909152949350505050565b600081612eff57506000610b6b565b60008213612f0c57600080fd5b6000612f1784612cc0565b90506000612f288260000151613ed0565b9050600281056b033b2e3c9fd0803ce80000006001600160ff1b0382900305851315612f5357600080fd5b81816b033b2e3c9fd0803ce800000087020181612f6c57fe5b059695505050505050565b60006305f5e10083604001511415612f90575080610b6b565b6040830151610b68906111d2846305f5e100611dc0565b600080612fb2613f5b565b6001600160a01b03861660009081526020918252604080822061ffff88168352909252208054909150612ff590600160501b90046001600160501b031684612215565b9150600083121561302a5780546001600160501b031682131561302a5760405162461bcd60e51b815260040161023d90614efc565b613036610eab8361191a565b81546001600160501b0391909116600160501b02600160501b600160a01b031990911617815560405161ffff8516906001600160a01b038716907f20478ef460e49d010960d4f3fff35d8dae385443abfac09035d6a2ccbcd834c49061309d908690614d71565b60405180910390a3509392505050565b600082820183811015610b6857600080fd5b6000613106876040518060a00160405280896001600160a01b03168152602001896001600160a01b031681526020018881526020018781526020016000815250858561297b565b50979650505050505050565b60008161312157506000610b6b565b600061312c84613ed0565b9050600061313984613271565b9050816b019d971e4fe8401e74000001600160ff1b038161315657fe5b0581131561316357600080fd5b6b033b2e3c9fd0803ce80000006b019d971e4fe8401e740000008383020105600085136131985761319381610daf565b612971565b95945050505050565b600080610b6b6014612c3b565b60008060008060006131bf86613f68565b909250905060006001600160a01b0383166131e45750600090506402540be400613266565b826001600160a01b0316631ee108336040518163ffffffff1660e01b8152600401602060405180830381600087803b15801561321f57600080fd5b505af1158015613233573d6000803e3d6000fd5b505050506040513d601f19601f820116820180604052508101906132579190614c33565b90506000811361326657600080fd5b969195509350915050565b60008082121561328b5761328482610daf565b9050610dc0565b5080610dc0565b60008313156132a057600080fd5b60006132ca6301da9c006111d26132bf6132ba878761196f565b6113fb565b60808a015190611dc0565b905060006132f06132e4836132de88610daf565b90612244565b61016089015190611f1d565b9050600061331060646111d28a60e0015185611dc090919063ffffffff16565b9050600061331e8383612215565b9050613332896040015161ffff1683613f9f565b613344896040015161ffff1682614026565b60808801516133539084612215565b88608001818152505085896040015161ffff168a600001516001600160a01b03167f7456cb4b7c3068832fb334a03d3cd8e440286bad834cb9e332df05ae6792cfbb85856040516133a5929190614d7a565b60405180910390a4505050505050505050565b6000806133c483614072565b60ff169392505050565b600080600085116133f15760405162461bcd60e51b815260040161023d90614e7c565b60078511156134125760405162461bcd60e51b815260040161023d90614f47565b600061341d8461408f565b905060015b86811161347557600061343e613437836140ad565b8490614151565b905086811415613456575092506000915061348e9050565b8681111561346c575092506001915061348e9050565b50600101613422565b5060405162461bcd60e51b815260040161023d906150a6565b935093915050565b60008460a00151600014156134ac5750816134ce565b6134cb8560a001516109f487606001518661192990919063ffffffff16565b90505b60a08501516134dd90846130ad565b60a086015260608501516134f190826130ad565b6060860152604084015161350590826130ad565b60408501526119af8583610e53565b60008061352a89600001518a60400151896112db565b89519091506001600160a01b031663dc6679c58961354884896130ad565b8988886040518663ffffffff1660e01b815260040161356b959493929190614d38565b602060405180830381600087803b15801561358557600080fd5b505af1158015613599573d6000803e3d6000fd5b505050506040513d601f19601f820116820180604052508101906135bd9190614c33565b9998505050505050505050565b60008060008060006135db86613f68565b909250905060006001600160a01b0383166136005750600090506402540be400613266565b826001600160a01b031663b2fffb046040518163ffffffff1660e01b815260040160206040518083038186803b15801561363957600080fd5b505afa158015613233573d6000803e3d6000fd5b60008061365d8761ffff16612cc0565b905080604001516000141561367c576136798761ffff1661181e565b90505b60405163e937711160e01b8152613707906001600160a01b0388169063e9377111906136b090899089908990600401614d17565b60206040518083038186803b1580156136c857600080fd5b505afa1580156136dc573d6000803e3d6000fd5b505050506040513d601f19601f820116820180604052508101906137009190614c33565b8290612f77565b979650505050505050565b600080600061371f61375b565b6000958652602090815260408087209587529490525050509020546501000000000081046001600160801b031691600160a81b90910460ff1690565b600080610b6b6008612c3b565b60008061ffff841661377f575060009050806137f3565b60006137896141ab565b6001600160a01b038816600090815260209182526040808220898352835280822061ffff891683529092522080549091506001600160501b03600160a01b8204811691600160501b90041685156137ee576137eb6132ba826109f48986611929565b93505b509250505b94509492505050565b600080610b6b6019612c3b565b60006138168560006141b8565b846001600160a01b03167f7c51c6aa77346c54cb051d9e792f9b7bde5c28a9b57e6fb2d2dd727b38438ca960006040516138509190614d66565b60405180910390a2818461ffff16866001600160a01b03167f823b641d46550301006f807a26587634f15bd13749efdc8859734377d5304a3b866040516138979190614d71565b60405180910390a460006138b060008661ffff16614218565b50505090508084136138d0576138c8858583036142c1565b839150613928565b6138db8560006142c1565b828561ffff16876001600160a01b03167f3a717b6924e3ad05b8c7609a2401472af90869b52cc3c9ca69b50100b4be631684880360405161391c9190614d71565b60405180910390a48091505b50949350505050565b6000697fffffffffffffffffff1982128015906139585750697fffffffffffffffffff8213155b61141157600080fd5b600080808060058760600151600581111561397857fe5b1461398a576370a0823160e01b613993565b630ed1279f60e11b5b90508660200151156139af5786516139ac903083614324565b92505b86516139bc908787614436565b8660200151806139d0575060008760800151115b156139e55786516139e2903083614324565b91505b608087015115613a20576000613a03886139fe856113fb565b612f77565b9050613a1288608001516113fb565b811315613a1e57600080fd5b505b866020015115613a4157613a376132ba838561448e565b935050505061137d565b613a37856113fb565b826001600160a01b031663a9059cbb83836040518363ffffffff1660e01b815260040180836001600160a01b0316815260200182815260200192505050600060405180830381600087803b158015613aa157600080fd5b505af1158015613ab5573d6000803e3d6000fd5b50505050610c1d613e56565b825160405163db006a7560e01b8152600091479183916001600160a01b03169063db006a7590613af5908790600401614d71565b602060405180830381600087803b158015613b0f57600080fd5b505af1158015613b23573d6000803e3d6000fd5b505050506040513d601f19601f82011682018060405250810190613b479190614c33565b90508015613b675760405162461bcd60e51b815260040161023d90614e2c565b47613b72818461448e565b935061173f8685612cd3565b6000613b99610ea68560000151613b94856113fb565b613112565b9050613ba36144e5565b548451604051631a4ca37b60e21b81526001600160a01b03909216916369328dec91613bd59185908890600401614cc7565b602060405180830381600087803b158015613bef57600080fd5b505af1158015613c03573d6000803e3d6000fd5b505050506040513d601f19601f82011682018060405250810190613c279190614c33565b509392505050565b82516000908190613c4890306370a0823160e01b614324565b9050600086600001516001600160a01b031663db006a75856040518263ffffffff1660e01b8152600401613c7c9190614d71565b602060405180830381600087803b158015613c9657600080fd5b505af1158015613caa573d6000803e3d6000fd5b505050506040513d601f19601f82011682018060405250810190613cce9190614c33565b90508015613cee5760405162461bcd60e51b815260040161023d90614e2c565b8551600090613d0590306370a0823160e01b614324565b9050613d11818461448e565b9350613d2287600001518786613a4a565b505050949350505050565b60006305f5e10083604001511215613d4e57612db3600161220385856127fb565b610b6883613d5d846001611daa565b6127fb565b600080600585606001516005811115613d7757fe5b14613d89576370a0823160e01b613d92565b630ed1279f60e11b5b90506000613da586600001513084614324565b9050600586606001516005811115613db957fe5b1415613de0576000613dce8661ffff16612cc0565b9050613dda81866144f2565b50613e29565b600186606001516005811115613df257fe5b1415613e0757613e02868561455d565b613e29565b600286606001516005811115613e1957fe5b141561009c57613e0286856145ff565b6000613e3a87600001513085614324565b90506137076132ba828461448e565b600080610b6b6002612c3b565b6000613e6061498a565b3d8015613e745760208114613e7d57600080fd5b60019250613e88565b60206000833e815192505b5081611630576040805162461bcd60e51b8152602060048201526005602482015264045524332360dc1b604482015290519081900360640190fd5b600080610b6b6007612c3b565b6000610dbd613edd6144e5565b5460405163d15e005360e01b81526001600160a01b039091169063d15e005390613f0b908690600401614c75565b60206040518083038186803b158015613f2357600080fd5b505afa158015613f37573d6000803e3d6000fd5b505050506040513d601f19601f820116820180604052508101906132ba9190614c33565b600080610b6b6017612c3b565b6000806000613f75614652565b600094855260205250506040909120546001600160a01b03811692600160a01b90910460ff169150565b6000811215613fad57600080fd5b6000613fba600084614218565b5050509050613fd28282611daa90919063ffffffff16565b9050613fe560008483600080600061465f565b8261ffff167f85170c297762884f47ec6098b74925c795e6d33686b11019b400e33a9b23b5e9836040516140199190614d71565b60405180910390a2505050565b600081121561403457600080fd5b600061403f836147a6565b9050600061404d8285614218565b50505090506140658382611daa90919063ffffffff16565b90506114578285836147cc565b60008061407d6147ea565b60009384526020525050604090205490565b60006276a7008210156140a157600080fd5b506276a7008106900390565b600081600114156140c257506276a700610dc0565b81600214156140d5575062ed4e00610dc0565b81600314156140e957506301da9c00610dc0565b81600414156140fd57506303b53800610dc0565b816005141561411157506309450c00610dc0565b8160061415614125575063128a1800610dc0565b816007141561413957506325143000610dc0565b60405162461bcd60e51b815260040161023d90614eab565b600082820183811015610b68576040805162461bcd60e51b815260206004820152601b60248201527f536166654d6174683a206164646974696f6e206f766572666c6f770000000000604482015290519081900360640190fd5b600080610b6b6018612c3b565b60006141c26131a1565b6001600160a01b038416600090815260208290526040902080549192509061ffff16831561420157815461ffff19166001821761ffff16178255614211565b815461ffff191661fffe82161782555b5050505050565b60008060008060006142286147f7565b6001600160a01b0388166000908152602082815260408083208a8452909152902080546001600160501b0381169650600160501b900463ffffffff169450909150831561429157805461428a90600160701b900466ffffffffffffff16614804565b92506142a6565b8054600160701b900466ffffffffffffff1692505b54600160a81b9004600a90810b900b97939650919450925050565b60008112156142cf57600080fd5b6142e460008361ffff1683600080600061465f565b8161ffff167fd3625f7b5926828151efe19f7ae655488287357d99ebe67e5fb20522ca739c0b826040516143189190614d71565b60405180910390a25050565b604080516001600160a01b0384811660248084019190915283518084039091018152604490920183526020820180516001600160e01b03166001600160e01b0319861617815292518251600094859485948a16939092909182918083835b602083106143a15780518252601f199092019160209182019101614382565b6001836020036101000a038019825116818451168082178552505050505050905001915050600060405180830381855afa9150503d8060008114614401576040519150601f19603f3d011682016040523d82523d6000602084013e614406565b606091505b50915091508161441557600080fd5b80806020019051602081101561442a57600080fd5b50519695505050505050565b604080516323b872dd60e01b81526001600160a01b038481166004830152306024830152604482018490529151918516916323b872dd9160648082019260009290919082900301818387803b158015613aa157600080fd5b60008282111561197e576040805162461bcd60e51b815260206004820152601e60248201527f536166654d6174683a207375627472616374696f6e206f766572666c6f770000604482015290519081900360640190fd5b600080610b6b6013612c3b565b6144fa6144e5565b54825160405163e8eda9df60e01b81526001600160a01b039092169163e8eda9df9161452f9185903090600090600401614cea565b600060405180830381600087803b15801561454957600080fd5b505af1158015611a1d573d6000803e3d6000fd5b815160405163140e25ad60e31b81526000916001600160a01b03169063a0712d689061458d908590600401614d71565b602060405180830381600087803b1580156145a757600080fd5b505af11580156145bb573d6000803e3d6000fd5b505050506040513d601f19601f820116820180604052508101906145df9190614c33565b90508015610c1d5760405162461bcd60e51b815260040161023d90614e0e565b81600001516001600160a01b0316631249c58b826040518263ffffffff1660e01b81526004016000604051808303818588803b15801561463e57600080fd5b505af1158015610e4a573d6000803e3d6000fd5b600080610b6b600f612c3b565b60006146696147f7565b6001600160a01b0388166000908152602082815260408083208a845290915290209091506a7fffffffffffffffffffff1986128015906146b457506a7fffffffffffffffffffff8613155b6146bd57600080fd5b600085121580156146d557506001600160501b038513155b6146de57600080fd5b8361471e5766ffffffffffffff8311156146f757600080fd5b805466ffffffffffffff60701b1916600160701b66ffffffffffffff851602178155614738565b8054600160501b900463ffffffff16841461473857600080fd5b8054600a9690960b6affffffffffffffffffffff16600160a81b026001600160a81b036001600160501b039096166001600160501b031963ffffffff909616600160501b0263ffffffff60501b19909816979097179490941695909517939093169190911790925550505050565b6000806147b1614812565b6000938452602052505060409020546001600160a01b031690565b60008112156147da57600080fd5b610c1d838383600080600061465f565b600080610b6b6009612c3b565b600080610b6b6006612c3b565b600881901c60ff9091161b90565b600080610b6b6003612c3b565b60405180604001604052806002906020820280368337509192915050565b6040518060a0016040528060008152602001600081526020016000815260200160006001600160a01b03168152602001600081525090565b60405180610180016040528060006001600160a01b03168152602001600061ffff168152602001600061ffff168152602001600081526020016000815260200160008152602001600081526020016000815260200160008152602001600081526020016148e061481f565b81526020016148ed614960565b905290565b6040518060e001604052806000815260200160008152602001600015158152602001600081526020016000815260200160008152602001600081525090565b6040805160a0810182526000808252602082018190529181018290529060608201908152602001600081525090565b604051806060016040528060006001600160a01b0316815260200160008152602001600081525090565b60405180602001604052806001906020820280368337509192915050565b80356001600160a01b0381168114610dc057600080fd5b60008083601f8401126149d0578182fd5b50813567ffffffffffffffff8111156149e7578182fd5b6020830191508360208285010111156115de57600080fd5b803563ffffffff81168114610dc057600080fd5b60008060408385031215614a25578182fd5b614a2e836149a8565b91506115db602084016149a8565b600080600080600080600060c0888a031215614a56578283fd5b614a5f886149a8565b9650614a6d602089016149a8565b9550614a7b604089016149a8565b94506060880135935060808801358015158114614a96578384fd5b925060a088013567ffffffffffffffff811115614ab1578283fd5b614abd8a828b016149bf565b989b979a50959850939692959293505050565b60008060008060008060008060e0898b031215614aeb578081fd5b614af4896149a8565b9750614b0260208a016149a8565b9650614b1060408a016149a8565b95506060890135945060808901359350614b2c60a08a016149ff565b925060c089013567ffffffffffffffff811115614b47578182fd5b614b538b828c016149bf565b999c989b5096995094979396929594505050565b60008060008060008060008060e0898b031215614b82578384fd5b614b8b896149a8565b9750614b9960208a016149a8565b9650604089013595506060890135945060808901359350614bbc60a08a016149ff565b925060c089013567ffffffffffffffff811115614b47578283fd5b60008060008060008060008060e0898b031215614bf2578384fd5b614bfb896149a8565b9750614c0960208a016149a8565b96506040890135955060608901359450614c2560808a016149ff565b9350614bbc60a08a016149ff565b600060208284031215614c44578081fd5b5051919050565b60008284528282602086013780602084860101526020601f19601f85011685010190509392505050565b6001600160a01b0391909116815260200190565b600060018060a01b03808a16835280891660208401525086604083015285606083015284608083015260c060a08301526135bd60c083018486614c4b565b6001600160a01b0393841681526020810192909252909116604082015260600190565b6001600160a01b03948516815260208101939093529216604082015261ffff909116606082015260800190565b6001600160a01b039390931683526020830191909152604082015260600190565b600060018060a01b038716825285602083015284604083015260806060830152613707608083018486614c4b565b901515815260200190565b90815260200190565b918252602082015260400190565b9283526020830191909152604082015260600190565b93845260208401929092526040830152606082015260800190565b6020808252600c908201526b155b985d5d1a1bdc9a5e995960a21b604082015260600190565b6020808252601590820152740acc2ead8e840a6d0c2e4cae6409ad2e6dac2e8c6d605b1b604082015260600190565b602080825260049082015263135a5b9d60e21b604082015260600190565b60208082526006908201526552656465656d60d01b604082015260600190565b602080825260169082015275125b9cdd59999a58da595b9d081c995c185e5b595b9d60521b604082015260600190565b60208082526015908201527410d1ce881b9bc81b585c9ad95d1cc81b1a5cdd1959605a1b604082015260600190565b6020808252600d908201526c092dcecc2d8d2c840d2dcc8caf609b1b604082015260600190565b60208082526010908201526f496e76616c6964204d6174757269747960801b604082015260600190565b6020808252600c908201526b4d617820436170616369747960a01b604082015260600190565b6020808252600b908201526a139bdd0814d95d1d1b195960aa1b604082015260600190565b60208082526016908201527510d1ce881b585c9ad95d081a5b99195e08189bdd5b9960521b604082015260600190565b6020808252600f908201526e139bc8149bdb1b08105b1b1bddd959608a1b604082015260600190565b60208082526017908201527f496e73756666696369656e7420436f6c6c61746572616c000000000000000000604082015260600190565b60208082526017908201527f4d757374204c697175696461746520416c6c2044656274000000000000000000604082015260600190565b6020808252600e908201526d1499595b9d1c985b9d0818d85b1b60921b604082015260600190565b6020808252600d908201526c109bdc9c9bddc819985a5b1959609a1b604082015260600190565b6020808252600a90820152694d696e20426f72726f7760b01b604082015260600190565b6020808252600b908201526a092dcecc2d8d2c8408aa8960ab1b604082015260600190565b60208082526013908201527210d1ce881b9bc81b585c9ad95d08199bdd5b99606a1b604082015260600190565b6020808252600c908201526b21b0b73737ba1022b73a32b960a11b604082015260600190565b6020808252600b908201526a11985a5b19590813195b9960aa1b604082015260600190565b60208082526015908201527414dd59999a58da595b9d0810dbdb1b185d195c985b605a1b604082015260600190565b8151815260208083015190820152604080830151908201526060808301516001600160a01b0316908201526080918201519181019190915260a00190565b6001600160801b0391909116815260200190565b61ffff929092168252602082015260400190565b8381526080810160208083018560005b60028110156151e0578151835291830191908301906001016151c3565b50505050826060830152949350505050565b918252151560208201526040019056fea26469706673582212209334278b4a1af37ac0c80bab5a2f01216c4e2cf93bba305d316d557b4c83c09d64736f6c63430007060033",
  "language": "Solidity",
  "natspec": {
    "kind": "dev",
    "methods": {
      "deleverageAccount(address,address,address,uint256,bool,bytes)": {
        "notice": "If an account is below the minimum collateral ratio, this method wil deleverage (liquidate) that account. `depositAmountExternal` in the borrow currency will be transferred from the liquidator and used to offset the account's debt position. The liquidator will receive either vaultShares or cash depending.",
        "params": {
          "account": "the address that will exit the vault",
          "depositAmountExternal": "amount of asset cash to deposit",
          "liquidator": "the address that will receive profits from liquidation",
          "redeemData": "calldata sent to the vault when redeeming liquidator profits",
          "transferSharesToLiquidator": "transfers the shares to the liquidator instead of redeeming them",
          "vault": "the vault to enter"
        },
        "returns": {
          "profitFromLiquidation": "amount of vaultShares or cash received from liquidation"
        }
      },
      "enterVault(address,address,uint256,uint256,uint256,uint32,bytes)": {
        "notice": "Borrows a specified amount of fCash in the vault's borrow currency and deposits it all plus the depositAmountExternal into the vault to mint strategy tokens.",
        "params": {
          "account": "the address that will enter the vault",
          "depositAmountExternal": "some amount of additional collateral in the borrowed currency to be transferred to vault",
          "fCash": "amount to borrow",
          "maturity": "the maturity to borrow at",
          "maxBorrowRate": "maximum interest rate to borrow at",
          "vault": "the vault to enter",
          "vaultData": "additional data to pass to the vault contract"
        },
        "returns": {
          "strategyTokensAdded": "the total strategy tokens added to the maturity, including any tokens from settlement. Allows enterVault to be used by off-chain methods to get an accurate simulation of the strategy tokens minted."
        }
      },
      "exitVault(address,address,address,uint256,uint256,uint32,bytes)": {
        "notice": "Prior to maturity, allows an account to withdraw their position from the vault. Will redeem some number of vault shares to the borrow currency and close the borrow position by lending `fCashToLend`. Any shortfall in cash from lending will be transferred from the account, any excess profits will be transferred to the account. Post maturity, will net off the account's debt against vault cash balances and redeem all remaining strategy tokens back to the borrowed currency and transfer the profits to the account.",
        "params": {
          "account": "the address that will exit the vault",
          "exitVaultData": "passed to the vault during exit",
          "fCashToLend": "amount of fCash to lend",
          "minLendRate": "the minimum rate to lend at",
          "receiver": "the address that will receive profits",
          "vault": "the vault to enter",
          "vaultSharesToRedeem": "amount of vault tokens to exit, only relevant when exiting pre-maturity"
        },
        "returns": {
          "underlyingToReceiver": "amount of underlying tokens returned to the receiver on exit"
        }
      },
      "getVaultAccount(address,address)": {
        "notice": "View Methods *"
      },
      "rollVaultPosition(address,address,uint256,uint256,uint32,uint32,bytes)": {
        "notice": "Re-enters the vault at a longer dated maturity. The account's existing borrow position will be closed and a new borrow position at the specified maturity will be opened. Strategy token holdings will transfer to the longer dated maturity.",
        "params": {
          "account": "the address that will reenter the vault",
          "fCashToBorrow": "amount of fCash to borrow in the next maturity",
          "maturity": "new maturity to borrow at",
          "vault": "the vault to reenter"
        },
        "returns": {
          "strategyTokensAdded": "the total strategy tokens added to the maturity, including any tokens rolled from the previous maturity.. Allows rollVaultPosition to be used by off-chain methods to get an accurate simulation of the strategy tokens minted."
        }
      }
    },
    "version": 1
  },
  "opcodes": "PUSH1 0x80 PUSH1 0x40 MSTORE PUSH1 0x4 CALLDATASIZE LT PUSH2 0x9C JUMPI PUSH1 0x0 CALLDATALOAD PUSH1 0xE0 SHR DUP1 PUSH4 0x82463367 GT PUSH2 0x64 JUMPI DUP1 PUSH4 0x82463367 EQ PUSH2 0x16A JUMPI DUP1 PUSH4 0x8DA5CB5B EQ PUSH2 0x17F JUMPI DUP1 PUSH4 0x95C1A202 EQ PUSH2 0x194 JUMPI DUP1 PUSH4 0x9948315E EQ PUSH2 0x1A7 JUMPI DUP1 PUSH4 0xC025D1A5 EQ PUSH2 0x1C7 JUMPI DUP1 PUSH4 0xC4C96DAE EQ PUSH2 0x1F4 JUMPI PUSH2 0x9C JUMP JUMPDEST DUP1 PUSH4 0x24A3D622 EQ PUSH2 0xA1 JUMPI DUP1 PUSH4 0x450C0E02 EQ PUSH2 0xCC JUMPI DUP1 PUSH4 0x647CC196 EQ PUSH2 0xF9 JUMPI DUP1 PUSH4 0x6CE48F01 EQ PUSH2 0x128 JUMPI DUP1 PUSH4 0x803C25FB EQ PUSH2 0x13B JUMPI JUMPDEST PUSH1 0x0 DUP1 REVERT JUMPDEST CALLVALUE DUP1 ISZERO PUSH2 0xAD JUMPI PUSH1 0x0 DUP1 REVERT JUMPDEST POP PUSH2 0xB6 PUSH2 0x209 JUMP JUMPDEST PUSH1 0x40 MLOAD PUSH2 0xC3 SWAP2 SWAP1 PUSH2 0x4C75 JUMP JUMPDEST PUSH1 0x40 MLOAD DUP1 SWAP2 SUB SWAP1 RETURN JUMPDEST CALLVALUE DUP1 ISZERO PUSH2 0xD8 JUMPI PUSH1 0x0 DUP1 REVERT JUMPDEST POP PUSH2 0xEC PUSH2 0xE7 CALLDATASIZE PUSH1 0x4 PUSH2 0x4BD7 JUMP JUMPDEST PUSH2 0x218 JUMP JUMPDEST PUSH1 0x40 MLOAD PUSH2 0xC3 SWAP2 SWAP1 PUSH2 0x4D71 JUMP JUMPDEST CALLVALUE DUP1 ISZERO PUSH2 0x105 JUMPI PUSH1 0x0 DUP1 REVERT JUMPDEST POP PUSH2 0x119 PUSH2 0x114 CALLDATASIZE PUSH1 0x4 PUSH2 0x4A13 JUMP JUMPDEST PUSH2 0x3DD JUMP JUMPDEST PUSH1 0x40 MLOAD PUSH2 0xC3 SWAP4 SWAP3 SWAP2 SWAP1 PUSH2 0x4D88 JUMP JUMPDEST PUSH2 0xEC PUSH2 0x136 CALLDATASIZE PUSH1 0x4 PUSH2 0x4AD0 JUMP JUMPDEST PUSH2 0x47C JUMP JUMPDEST CALLVALUE DUP1 ISZERO PUSH2 0x147 JUMPI PUSH1 0x0 DUP1 REVERT JUMPDEST POP PUSH2 0x15B PUSH2 0x156 CALLDATASIZE PUSH1 0x4 PUSH2 0x4A13 JUMP JUMPDEST PUSH2 0x6BB JUMP JUMPDEST PUSH1 0x40 MLOAD PUSH2 0xC3 SWAP4 SWAP3 SWAP2 SWAP1 PUSH2 0x51B3 JUMP JUMPDEST CALLVALUE DUP1 ISZERO PUSH2 0x176 JUMPI PUSH1 0x0 DUP1 REVERT JUMPDEST POP PUSH2 0xB6 PUSH2 0x76C JUMP JUMPDEST CALLVALUE DUP1 ISZERO PUSH2 0x18B JUMPI PUSH1 0x0 DUP1 REVERT JUMPDEST POP PUSH2 0xB6 PUSH2 0x77B JUMP JUMPDEST PUSH2 0xEC PUSH2 0x1A2 CALLDATASIZE PUSH1 0x4 PUSH2 0x4B67 JUMP JUMPDEST PUSH2 0x792 JUMP JUMPDEST CALLVALUE DUP1 ISZERO PUSH2 0x1B3 JUMPI PUSH1 0x0 DUP1 REVERT JUMPDEST POP PUSH2 0xEC PUSH2 0x1C2 CALLDATASIZE PUSH1 0x4 PUSH2 0x4A3C JUMP JUMPDEST PUSH2 0x8DC JUMP JUMPDEST CALLVALUE DUP1 ISZERO PUSH2 0x1D3 JUMPI PUSH1 0x0 DUP1 REVERT JUMPDEST POP PUSH2 0x1E7 PUSH2 0x1E2 CALLDATASIZE PUSH1 0x4 PUSH2 0x4A13 JUMP JUMPDEST PUSH2 0xB56 JUMP JUMPDEST PUSH1 0x40 MLOAD PUSH2 0xC3 SWAP2 SWAP1 PUSH2 0x514D JUMP JUMPDEST CALLVALUE DUP1 ISZERO PUSH2 0x200 JUMPI PUSH1 0x0 DUP1 REVERT JUMPDEST POP PUSH2 0xB6 PUSH2 0xB71 JUMP JUMPDEST PUSH1 0x2 SLOAD PUSH1 0x1 PUSH1 0x1 PUSH1 0xA0 SHL SUB AND DUP2 JUMP JUMPDEST PUSH1 0x0 PUSH1 0x2 PUSH1 0xA SLOAD EQ ISZERO PUSH2 0x246 JUMPI PUSH1 0x40 MLOAD PUSH3 0x461BCD PUSH1 0xE5 SHL DUP2 MSTORE PUSH1 0x4 ADD PUSH2 0x23D SWAP1 PUSH2 0x500E JUMP JUMPDEST PUSH1 0x40 MLOAD DUP1 SWAP2 SUB SWAP1 REVERT JUMPDEST PUSH1 0x2 PUSH1 0xA SSTORE PUSH1 0x0 PUSH2 0x256 DUP10 PUSH2 0xB89 JUMP JUMPDEST SWAP1 POP PUSH2 0x264 DUP2 DUP12 PUSH1 0x10 PUSH2 0xBB8 JUMP JUMPDEST PUSH2 0x26F DUP2 PUSH1 0x80 PUSH2 0xC22 JUMP JUMPDEST ISZERO PUSH2 0x27A JUMPI PUSH1 0x1 PUSH1 0xA SSTORE JUMPDEST PUSH1 0x0 PUSH2 0x286 DUP12 DUP12 PUSH2 0xC37 JUMP JUMPDEST SWAP1 POP PUSH2 0x293 DUP3 PUSH1 0x1 PUSH2 0xC22 JUMP JUMPDEST DUP1 ISZERO PUSH2 0x2A5 JUMPI POP PUSH2 0x2A5 DUP3 PUSH1 0x2 PUSH2 0xC22 JUMP JUMPDEST DUP1 ISZERO PUSH2 0x2B4 JUMPI POP DUP1 PUSH1 0x20 ADD MLOAD TIMESTAMP LT JUMPDEST DUP1 ISZERO PUSH2 0x2C3 JUMPI POP DUP8 DUP2 PUSH1 0x20 ADD MLOAD LT JUMPDEST DUP1 ISZERO PUSH2 0x2CF JUMPI POP PUSH1 0x0 DUP10 GT JUMPDEST PUSH2 0x2EB JUMPI PUSH1 0x40 MLOAD PUSH3 0x461BCD PUSH1 0xE5 SHL DUP2 MSTORE PUSH1 0x4 ADD PUSH2 0x23D SWAP1 PUSH2 0x4F77 JUMP JUMPDEST PUSH1 0x0 PUSH2 0x2FF DUP4 PUSH1 0x0 ADD MLOAD DUP4 PUSH1 0x20 ADD MLOAD PUSH2 0xCB5 JUMP JUMPDEST SWAP1 POP PUSH1 0x0 PUSH2 0x31C DUP4 DUP5 PUSH1 0x40 ADD MLOAD DUP5 PUSH2 0xD50 SWAP1 SWAP3 SWAP2 SWAP1 PUSH4 0xFFFFFFFF AND JUMP JUMPDEST SWAP1 POP PUSH2 0x33B DUP5 DUP4 PUSH2 0x330 DUP7 PUSH1 0x0 ADD MLOAD PUSH2 0xDAF JUMP JUMPDEST DUP7 SWAP3 SWAP2 SWAP1 DUP14 TIMESTAMP PUSH2 0xDC5 JUMP JUMPDEST DUP3 MLOAD ISZERO PUSH2 0x35A JUMPI PUSH1 0x40 MLOAD PUSH3 0x461BCD PUSH1 0xE5 SHL DUP2 MSTORE PUSH1 0x4 ADD PUSH2 0x23D SWAP1 PUSH2 0x50F9 JUMP JUMPDEST DUP4 MLOAD PUSH2 0x367 SWAP1 DUP4 SWAP1 PUSH2 0xE53 JUMP JUMPDEST PUSH2 0x379 DUP4 DUP6 DUP13 DUP15 DUP13 DUP13 DUP13 DUP9 PUSH1 0x0 PUSH2 0xFC7 JUMP JUMPDEST SWAP5 POP DUP10 DUP14 PUSH1 0x1 PUSH1 0x1 PUSH1 0xA0 SHL SUB AND DUP14 PUSH1 0x1 PUSH1 0x1 PUSH1 0xA0 SHL SUB AND PUSH32 0x67C1D09E65227D62B788F4C3E6ACE545AC922034D69BD4AA45C53DEC290275BE DUP15 PUSH1 0x40 MLOAD PUSH2 0x3BF SWAP2 SWAP1 PUSH2 0x4D71 JUMP JUMPDEST PUSH1 0x40 MLOAD DUP1 SWAP2 SUB SWAP1 LOG4 POP POP PUSH1 0x1 PUSH1 0xA SSTORE POP SWAP1 SWAP10 SWAP9 POP POP POP POP POP POP POP POP POP JUMP JUMPDEST PUSH1 0x0 DUP1 PUSH1 0x0 DUP1 PUSH2 0x3EC DUP6 PUSH2 0x106A JUMP JUMPDEST SWAP1 POP PUSH1 0x0 PUSH2 0x3FA DUP8 DUP8 PUSH2 0xC37 JUMP JUMPDEST SWAP1 POP PUSH1 0x0 PUSH2 0x40C DUP8 DUP4 PUSH1 0x20 ADD MLOAD PUSH2 0xCB5 JUMP JUMPDEST SWAP1 POP DUP3 PUSH1 0xA0 ADD MLOAD SWAP5 POP DUP1 PUSH1 0x40 ADD MLOAD ISZERO PUSH2 0x42E JUMPI PUSH1 0x1 PUSH1 0x1 PUSH1 0xFF SHL SUB SWAP6 POP PUSH2 0x472 JUMP JUMPDEST PUSH1 0x40 DUP3 ADD MLOAD DUP3 MLOAD PUSH1 0x0 SWAP2 PUSH2 0x448 SWAP2 DUP7 SWAP2 DUP6 SWAP2 DUP14 SWAP2 SWAP1 PUSH2 0x108E JUMP JUMPDEST SWAP1 SWAP8 POP SWAP1 POP DUP6 DUP8 SLT DUP1 ISZERO PUSH2 0x45C JUMPI POP PUSH1 0x0 DUP2 SGT JUMPDEST ISZERO PUSH2 0x470 JUMPI PUSH2 0x46C DUP4 DUP6 DUP4 PUSH2 0x10F6 JUMP JUMPDEST POP SWAP5 POP JUMPDEST POP JUMPDEST POP POP POP SWAP3 POP SWAP3 POP SWAP3 JUMP JUMPDEST PUSH1 0x0 PUSH1 0x2 PUSH1 0xA SLOAD EQ ISZERO PUSH2 0x4A1 JUMPI PUSH1 0x40 MLOAD PUSH3 0x461BCD PUSH1 0xE5 SHL DUP2 MSTORE PUSH1 0x4 ADD PUSH2 0x23D SWAP1 PUSH2 0x500E JUMP JUMPDEST PUSH1 0x2 PUSH1 0xA SSTORE PUSH1 0x0 PUSH2 0x4B1 DUP10 PUSH2 0xB89 JUMP JUMPDEST SWAP1 POP PUSH2 0x4BF DUP2 DUP12 PUSH1 0x8 PUSH2 0xBB8 JUMP JUMPDEST PUSH2 0x4CA DUP2 PUSH1 0x80 PUSH2 0xC22 JUMP JUMPDEST ISZERO PUSH2 0x4D5 JUMPI PUSH1 0x1 PUSH1 0xA SSTORE JUMPDEST PUSH1 0x0 PUSH2 0x4E1 DUP12 DUP12 PUSH2 0xC37 JUMP JUMPDEST SWAP1 POP TIMESTAMP DUP2 PUSH1 0x20 ADD MLOAD GT PUSH2 0x584 JUMPI PUSH1 0x20 DUP2 ADD MLOAD PUSH1 0x0 PUSH2 0x500 DUP4 DUP6 TIMESTAMP PUSH2 0x1205 JUMP JUMPDEST SWAP1 POP PUSH1 0x0 DUP4 PUSH1 0x80 ADD MLOAD SGT ISZERO PUSH2 0x52B JUMPI PUSH2 0x522 DUP12 DUP6 PUSH1 0x40 ADD MLOAD DUP6 PUSH1 0x80 ADD MLOAD PUSH2 0x12DB JUMP JUMPDEST POP PUSH1 0x0 PUSH1 0x80 DUP5 ADD MSTORE JUMPDEST PUSH2 0x53A DUP5 DUP5 DUP14 DUP5 DUP7 DUP13 DUP13 PUSH2 0x1384 JUMP JUMPDEST SWAP5 POP DUP2 DUP14 PUSH1 0x1 PUSH1 0x1 PUSH1 0xA0 SHL SUB AND DUP14 PUSH1 0x1 PUSH1 0x1 PUSH1 0xA0 SHL SUB AND PUSH32 0x8255EE71B1BEE16AE1F9FF6C76FE18682AF74350EF6C49DBA972AAB969A7E67C PUSH1 0x40 MLOAD PUSH1 0x40 MLOAD DUP1 SWAP2 SUB SWAP1 LOG4 POP POP PUSH2 0x680 JUMP JUMPDEST PUSH1 0x0 PUSH2 0x598 DUP4 PUSH1 0x0 ADD MLOAD DUP4 PUSH1 0x20 ADD MLOAD PUSH2 0xCB5 JUMP JUMPDEST SWAP1 POP PUSH2 0x5B3 DUP4 DUP3 PUSH2 0x5A8 DUP12 PUSH2 0x13FB JUMP JUMPDEST DUP6 SWAP3 SWAP2 SWAP1 DUP12 TIMESTAMP PUSH2 0xDC5 JUMP JUMPDEST PUSH1 0x0 PUSH2 0x5C0 DUP3 DUP5 DUP13 PUSH2 0xD50 JUMP JUMPDEST SWAP1 POP PUSH1 0x0 DUP4 PUSH1 0x80 ADD MLOAD SGT ISZERO PUSH2 0x5EB JUMPI PUSH2 0x5E2 DUP12 DUP6 PUSH1 0x40 ADD MLOAD DUP6 PUSH1 0x80 ADD MLOAD PUSH2 0x12DB JUMP JUMPDEST POP PUSH1 0x0 PUSH1 0x80 DUP5 ADD MSTORE JUMPDEST DUP1 ISZERO PUSH2 0x609 JUMPI DUP2 MLOAD PUSH2 0x606 SWAP1 DUP6 SWAP1 DUP6 SWAP1 DUP15 SWAP1 DUP6 SWAP1 DUP13 DUP13 PUSH2 0x1384 JUMP JUMPDEST SWAP5 POP JUMPDEST DUP3 MLOAD PUSH1 0x0 SGT ISZERO PUSH2 0x61E JUMPI PUSH2 0x61E DUP5 DUP4 DUP6 PUSH2 0x1415 JUMP JUMPDEST DUP4 MLOAD PUSH2 0x62B SWAP1 DUP4 SWAP1 PUSH2 0xE53 JUMP JUMPDEST DUP2 PUSH1 0x0 ADD MLOAD DUP14 PUSH1 0x1 PUSH1 0x1 PUSH1 0xA0 SHL SUB AND DUP14 PUSH1 0x1 PUSH1 0x1 PUSH1 0xA0 SHL SUB AND PUSH32 0x5FA4D63D84BBCBB86063028AC3AD93F61E31764BE1DE668FC3B3DC6FE930E82F DUP13 DUP15 PUSH1 0x40 MLOAD PUSH2 0x675 SWAP3 SWAP2 SWAP1 PUSH2 0x4D7A JUMP JUMPDEST PUSH1 0x40 MLOAD DUP1 SWAP2 SUB SWAP1 LOG4 POP POP JUMPDEST DUP1 MLOAD ISZERO DUP1 ISZERO PUSH2 0x691 JUMPI POP PUSH1 0x40 DUP2 ADD MLOAD ISZERO JUMPDEST ISZERO PUSH2 0x69E JUMPI PUSH1 0x0 PUSH1 0x20 DUP3 ADD MSTORE JUMPDEST PUSH2 0x6A8 DUP2 DUP4 PUSH2 0x145D JUMP JUMPDEST POP POP PUSH1 0x1 PUSH1 0xA SSTORE SWAP9 SWAP8 POP POP POP POP POP POP POP POP JUMP JUMPDEST PUSH1 0x0 PUSH2 0x6C5 PUSH2 0x481F JUMP JUMPDEST PUSH1 0x0 DUP1 PUSH2 0x6D0 PUSH2 0x157E JUMP JUMPDEST PUSH1 0x1 PUSH1 0x1 PUSH1 0xA0 SHL SUB DUP8 DUP2 AND PUSH1 0x0 SWAP1 DUP2 MSTORE PUSH1 0x20 SWAP3 DUP4 MSTORE PUSH1 0x40 DUP1 DUP3 KECCAK256 SWAP3 DUP10 AND DUP3 MSTORE SWAP2 DUP4 MSTORE SWAP1 DUP2 KECCAK256 DUP1 SLOAD PUSH1 0x1 PUSH1 0x1 PUSH1 0x50 SHL SUB PUSH5 0x100000000 DUP3 DIV DUP2 AND DUP9 MSTORE PUSH1 0x1 PUSH1 0x70 SHL DUP3 DIV AND SWAP4 DUP8 ADD SWAP4 SWAP1 SWAP4 MSTORE PUSH4 0xFFFFFFFF SWAP1 SWAP3 AND SWAP6 POP SWAP1 SWAP2 POP PUSH2 0x731 DUP8 DUP8 PUSH2 0xC37 JUMP JUMPDEST SWAP1 POP PUSH1 0x0 PUSH2 0x743 DUP8 DUP4 PUSH1 0x20 ADD MLOAD PUSH2 0xCB5 JUMP JUMPDEST SWAP1 POP PUSH2 0x75C DUP3 PUSH1 0x40 ADD MLOAD DUP3 PUSH2 0x158B SWAP1 SWAP2 SWAP1 PUSH4 0xFFFFFFFF AND JUMP JUMPDEST SWAP1 POP DUP1 SWAP5 POP POP POP POP POP SWAP3 POP SWAP3 POP SWAP3 JUMP JUMPDEST PUSH1 0x1 SLOAD PUSH1 0x1 PUSH1 0x1 PUSH1 0xA0 SHL SUB AND DUP2 JUMP JUMPDEST PUSH1 0x0 SLOAD PUSH5 0x100000000 SWAP1 DIV PUSH1 0x1 PUSH1 0x1 PUSH1 0xA0 SHL SUB AND DUP2 JUMP JUMPDEST PUSH1 0x0 PUSH1 0x2 PUSH1 0xA SLOAD EQ ISZERO PUSH2 0x7B7 JUMPI PUSH1 0x40 MLOAD PUSH3 0x461BCD PUSH1 0xE5 SHL DUP2 MSTORE PUSH1 0x4 ADD PUSH2 0x23D SWAP1 PUSH2 0x500E JUMP JUMPDEST PUSH1 0x2 PUSH1 0xA SSTORE PUSH2 0x7C5 DUP10 PUSH2 0x15E5 JUMP JUMPDEST PUSH1 0x0 PUSH2 0x7D0 DUP10 PUSH2 0xB89 JUMP JUMPDEST SWAP1 POP PUSH2 0x7DE DUP2 DUP12 PUSH1 0x4 PUSH2 0xBB8 JUMP JUMPDEST PUSH2 0x7E9 DUP2 PUSH1 0x80 PUSH2 0xC22 JUMP JUMPDEST ISZERO PUSH2 0x7F4 JUMPI PUSH1 0x1 PUSH1 0xA SSTORE JUMPDEST PUSH2 0x7FF DUP2 PUSH1 0x1 PUSH2 0xC22 JUMP JUMPDEST PUSH2 0x81B JUMPI PUSH1 0x40 MLOAD PUSH3 0x461BCD PUSH1 0xE5 SHL DUP2 MSTORE PUSH1 0x4 ADD PUSH2 0x23D SWAP1 PUSH2 0x50D3 JUMP JUMPDEST DUP7 TIMESTAMP LT PUSH2 0x83A JUMPI PUSH1 0x40 MLOAD PUSH3 0x461BCD PUSH1 0xE5 SHL DUP2 MSTORE PUSH1 0x4 ADD PUSH2 0x23D SWAP1 PUSH2 0x50D3 JUMP JUMPDEST PUSH1 0x0 PUSH2 0x846 DUP12 DUP12 PUSH2 0xC37 JUMP JUMPDEST SWAP1 POP PUSH1 0x0 DUP2 PUSH1 0x20 ADD MLOAD PUSH1 0x0 EQ ISZERO DUP1 ISZERO PUSH2 0x863 JUMPI POP TIMESTAMP DUP3 PUSH1 0x20 ADD MLOAD GT ISZERO JUMPDEST ISZERO PUSH2 0x876 JUMPI PUSH2 0x873 DUP3 DUP5 TIMESTAMP PUSH2 0x1205 JUMP JUMPDEST SWAP1 POP JUMPDEST PUSH1 0x0 PUSH2 0x883 DUP5 DUP15 DUP14 PUSH2 0x1634 JUMP JUMPDEST SWAP1 POP PUSH2 0x896 DUP4 DUP6 DUP13 DUP13 DUP13 DUP13 DUP13 DUP10 DUP10 PUSH2 0xFC7 JUMP JUMPDEST SWAP5 POP DUP10 DUP14 PUSH1 0x1 PUSH1 0x1 PUSH1 0xA0 SHL SUB AND DUP14 PUSH1 0x1 PUSH1 0x1 PUSH1 0xA0 SHL SUB AND PUSH32 0x7E1A5E400898C4BB3CFC62F61A71F4369EC78F0E778A31286892B7D2C0D044F2 DUP13 PUSH1 0x40 MLOAD PUSH2 0x3BF SWAP2 SWAP1 PUSH2 0x4D71 JUMP JUMPDEST PUSH1 0x0 PUSH1 0x2 PUSH1 0xA SLOAD EQ ISZERO PUSH2 0x901 JUMPI PUSH1 0x40 MLOAD PUSH3 0x461BCD PUSH1 0xE5 SHL DUP2 MSTORE PUSH1 0x4 ADD PUSH2 0x23D SWAP1 PUSH2 0x500E JUMP JUMPDEST PUSH1 0x2 PUSH1 0xA SSTORE PUSH1 0x0 PUSH2 0x913 DUP10 DUP10 DUP10 PUSH2 0x1749 JUMP JUMPDEST SWAP1 POP PUSH1 0x0 PUSH2 0x921 DUP11 DUP11 PUSH2 0xC37 JUMP JUMPDEST SWAP1 POP PUSH1 0x0 PUSH2 0x933 DUP11 DUP4 PUSH1 0x20 ADD MLOAD PUSH2 0xCB5 JUMP JUMPDEST SWAP1 POP DUP2 PUSH1 0x20 ADD MLOAD TIMESTAMP LT PUSH2 0x945 JUMPI PUSH1 0x0 DUP1 REVERT JUMPDEST PUSH1 0x0 DUP1 PUSH2 0x969 DUP4 DUP15 DUP7 PUSH1 0x40 ADD MLOAD DUP8 PUSH1 0x0 ADD MLOAD DUP10 PUSH2 0x108E SWAP1 SWAP5 SWAP4 SWAP3 SWAP2 SWAP1 PUSH4 0xFFFFFFFF AND JUMP JUMPDEST SWAP2 POP SWAP2 POP DUP5 PUSH1 0xA0 ADD MLOAD DUP3 SLT PUSH2 0x990 JUMPI PUSH1 0x40 MLOAD PUSH3 0x461BCD PUSH1 0xE5 SHL DUP2 MSTORE PUSH1 0x4 ADD PUSH2 0x23D SWAP1 PUSH2 0x511E JUMP JUMPDEST PUSH1 0x0 PUSH2 0x9A3 DUP7 PUSH1 0x40 ADD MLOAD PUSH2 0xFFFF AND PUSH2 0x181E JUMP JUMPDEST SWAP1 POP PUSH2 0x9B3 DUP13 DUP3 DUP8 DUP10 DUP16 DUP8 PUSH2 0x1831 JUMP JUMPDEST PUSH1 0x0 PUSH2 0x9FA PUSH4 0x3B9ACA00 PUSH2 0x9F4 PUSH2 0x9C9 DUP7 PUSH2 0x191A JUMP JUMPDEST PUSH2 0x9F4 DUP11 PUSH1 0x40 ADD MLOAD PUSH2 0x9EE PUSH2 0x9E1 DUP15 PUSH1 0xC0 ADD MLOAD PUSH2 0x191A JUMP JUMPDEST PUSH2 0x9EE DUP15 PUSH1 0x80 ADD MLOAD PUSH2 0x191A JUMP JUMPDEST SWAP1 PUSH2 0x1929 JUMP JUMPDEST SWAP1 PUSH2 0x1950 JUMP JUMPDEST PUSH1 0x40 DUP8 ADD MLOAD SWAP1 SWAP2 POP PUSH2 0xA0C SWAP1 DUP3 PUSH2 0x196F JUMP JUMPDEST PUSH1 0x40 DUP8 ADD MSTORE PUSH1 0x80 DUP7 ADD MLOAD PUSH2 0x160 DUP9 ADD MLOAD PUSH1 0x0 SWAP2 PUSH2 0xA29 SWAP2 SWAP1 PUSH2 0x1984 JUMP JUMPDEST SWAP1 POP PUSH2 0xA48 DUP9 DUP8 DUP4 PUSH2 0xA3E DUP12 PUSH1 0x80 ADD MLOAD PUSH2 0xDAF JUMP JUMPDEST DUP12 SWAP4 SWAP3 SWAP2 SWAP1 PUSH2 0x19B7 JUMP JUMPDEST DUP7 MLOAD PUSH1 0x0 SLT ISZERO PUSH2 0xA57 JUMPI PUSH1 0x0 DUP8 MSTORE JUMPDEST DUP16 PUSH1 0x1 PUSH1 0x1 PUSH1 0xA0 SHL SUB AND DUP16 PUSH1 0x1 PUSH1 0x1 PUSH1 0xA0 SHL SUB AND PUSH32 0x5B4676A4ED91C52FD6C4A759AEC8A3561B67499C52870FC58000A8EB54FEC301 DUP5 DUP5 PUSH1 0x40 MLOAD PUSH2 0xA9C SWAP3 SWAP2 SWAP1 PUSH2 0x4D7A JUMP JUMPDEST PUSH1 0x40 MLOAD DUP1 SWAP2 SUB SWAP1 LOG3 POP PUSH2 0xAAF DUP7 DUP9 PUSH2 0x145D JUMP JUMPDEST DUP13 PUSH1 0x1 PUSH1 0x1 PUSH1 0xA0 SHL SUB AND DUP16 PUSH1 0x1 PUSH1 0x1 PUSH1 0xA0 SHL SUB AND DUP16 PUSH1 0x1 PUSH1 0x1 PUSH1 0xA0 SHL SUB AND PUSH32 0x1745A2FE0D7C484EA79432A82F950EAC6916ADC499A0223D2EBDADCDB210F2A DUP5 DUP16 PUSH1 0x40 MLOAD PUSH2 0xAFE SWAP3 SWAP2 SWAP1 PUSH2 0x51F2 JUMP JUMPDEST PUSH1 0x40 MLOAD DUP1 SWAP2 SUB SWAP1 LOG4 DUP11 ISZERO PUSH2 0xB37 JUMPI DUP7 MLOAD PUSH2 0xB19 SWAP1 DUP7 SWAP1 PUSH2 0xE53 JUMP JUMPDEST PUSH2 0xB29 DUP14 DUP9 DUP4 DUP10 PUSH1 0x20 ADD MLOAD PUSH2 0x1A25 JUMP JUMPDEST SWAP8 POP POP POP POP POP POP POP POP PUSH2 0xB46 JUMP JUMPDEST PUSH2 0xB29 DUP14 DUP9 DUP8 DUP5 DUP15 DUP15 DUP9 PUSH2 0x1A99 JUMP JUMPDEST PUSH1 0x1 PUSH1 0xA SSTORE SWAP8 SWAP7 POP POP POP POP POP POP POP JUMP JUMPDEST PUSH2 0xB5E PUSH2 0x483D JUMP JUMPDEST PUSH2 0xB68 DUP4 DUP4 PUSH2 0xC37 JUMP JUMPDEST SWAP1 POP JUMPDEST SWAP3 SWAP2 POP POP JUMP JUMPDEST PUSH20 0x0 SWAP1 JUMP JUMPDEST PUSH2 0xB91 PUSH2 0x4875 JUMP JUMPDEST PUSH2 0xB9A DUP3 PUSH2 0x1B6F JUMP JUMPDEST SWAP1 POP PUSH2 0xBAD DUP2 PUSH1 0x40 ADD MLOAD PUSH2 0xFFFF AND PUSH2 0x1CED JUMP JUMPDEST PUSH2 0x160 DUP3 ADD MSTORE SWAP2 SWAP1 POP JUMP JUMPDEST PUSH2 0xBC2 DUP4 DUP3 PUSH2 0xC22 JUMP JUMPDEST ISZERO PUSH2 0xBF5 JUMPI DUP3 MLOAD PUSH1 0x1 PUSH1 0x1 PUSH1 0xA0 SHL SUB AND CALLER EQ PUSH2 0xBF0 JUMPI PUSH1 0x40 MLOAD PUSH3 0x461BCD PUSH1 0xE5 SHL DUP2 MSTORE PUSH1 0x4 ADD PUSH2 0x23D SWAP1 PUSH2 0x4DB9 JUMP JUMPDEST PUSH2 0xC1D JUMP JUMPDEST PUSH1 0x1 PUSH1 0x1 PUSH1 0xA0 SHL SUB DUP3 AND CALLER EQ PUSH2 0xC1D JUMPI PUSH1 0x40 MLOAD PUSH3 0x461BCD PUSH1 0xE5 SHL DUP2 MSTORE PUSH1 0x4 ADD PUSH2 0x23D SWAP1 PUSH2 0x4DB9 JUMP JUMPDEST POP POP POP JUMP JUMPDEST PUSH1 0x20 SWAP2 SWAP1 SWAP2 ADD MLOAD DUP2 AND PUSH2 0xFFFF SWAP1 DUP2 AND SWAP2 AND EQ SWAP1 JUMP JUMPDEST PUSH2 0xC3F PUSH2 0x483D JUMP JUMPDEST PUSH1 0x0 PUSH2 0xC49 PUSH2 0x1D39 JUMP JUMPDEST PUSH1 0x1 PUSH1 0x1 PUSH1 0xA0 SHL SUB SWAP5 DUP6 AND PUSH1 0x0 DUP2 DUP2 MSTORE PUSH1 0x20 SWAP3 DUP4 MSTORE PUSH1 0x40 DUP1 DUP3 KECCAK256 SWAP7 SWAP1 SWAP8 AND DUP2 MSTORE SWAP5 DUP3 MSTORE DUP6 DUP6 KECCAK256 SLOAD PUSH1 0x1 PUSH1 0x1 PUSH1 0x50 SHL SUB DUP1 DUP3 AND DUP8 SUB DUP7 MSTORE PUSH4 0xFFFFFFFF PUSH1 0x1 PUSH1 0xA0 SHL DUP4 DIV AND SWAP4 DUP7 ADD SWAP4 SWAP1 SWAP4 MSTORE PUSH1 0x1 PUSH1 0x50 SHL SWAP1 DIV SWAP1 SWAP2 AND SWAP5 DUP4 ADD SWAP5 SWAP1 SWAP5 MSTORE POP PUSH1 0x60 DUP2 ADD SWAP3 SWAP1 SWAP3 MSTORE PUSH1 0x80 DUP3 ADD MSTORE SWAP1 JUMP JUMPDEST PUSH2 0xCBD PUSH2 0x48F2 JUMP JUMPDEST PUSH1 0x0 PUSH2 0xCC7 PUSH2 0x1D46 JUMP JUMPDEST PUSH1 0x1 PUSH1 0x1 PUSH1 0xA0 SHL SUB SWAP1 SWAP5 AND PUSH1 0x0 SWAP1 DUP2 MSTORE PUSH1 0x20 SWAP5 DUP6 MSTORE PUSH1 0x40 DUP1 DUP3 KECCAK256 DUP6 DUP4 MSTORE DUP7 MSTORE DUP1 DUP3 KECCAK256 SWAP5 DUP5 MSTORE DUP5 SLOAD PUSH1 0x1 PUSH1 0x1 PUSH1 0x50 SHL SUB DUP1 DUP3 AND SWAP1 SWAP4 SUB SWAP7 DUP6 ADD SWAP7 SWAP1 SWAP7 MSTORE PUSH1 0xFF PUSH1 0x1 PUSH1 0xF0 SHL DUP8 DIV AND ISZERO ISZERO SWAP1 DUP5 ADD MSTORE PUSH1 0x1 PUSH1 0x50 SHL DUP1 DUP7 DIV DUP3 AND PUSH1 0x80 DUP6 ADD MSTORE PUSH1 0x1 SWAP1 SWAP5 ADD SLOAD DUP1 DUP3 AND PUSH1 0xA0 DUP6 ADD MSTORE PUSH1 0x1 PUSH1 0xA0 SHL SWAP1 SWAP6 DIV AND PUSH1 0x60 DUP4 ADD MSTORE POP SWAP2 DIV PUSH1 0x9 SWAP1 DUP2 SIGNEXTEND SWAP1 SIGNEXTEND PUSH1 0xC0 DUP3 ADD MSTORE SWAP1 JUMP JUMPDEST DUP3 MLOAD PUSH1 0x20 DUP4 ADD MLOAD PUSH1 0x0 SWAP2 EQ PUSH2 0xD64 JUMPI PUSH1 0x0 DUP1 REVERT JUMPDEST PUSH1 0x40 DUP4 ADD MLOAD PUSH2 0xD73 SWAP1 DUP4 PUSH2 0x196F JUMP JUMPDEST PUSH1 0x40 DUP5 ADD MSTORE PUSH1 0x0 PUSH2 0xD84 DUP6 DUP5 PUSH2 0x1D53 JUMP JUMPDEST SWAP3 POP SWAP1 POP PUSH2 0xD9F PUSH2 0xD94 DUP3 PUSH2 0x13FB JUMP JUMPDEST PUSH1 0x80 DUP7 ADD MLOAD SWAP1 PUSH2 0x1DAA JUMP JUMPDEST PUSH1 0x80 SWAP1 SWAP5 ADD SWAP4 SWAP1 SWAP4 MSTORE SWAP4 SWAP3 POP POP POP JUMP JUMPDEST PUSH1 0x0 PUSH2 0xDBD PUSH1 0x0 NOT DUP4 PUSH2 0x1DC0 JUMP JUMPDEST SWAP1 POP JUMPDEST SWAP2 SWAP1 POP JUMP JUMPDEST DUP6 MLOAD PUSH1 0x0 SWAP1 PUSH2 0xDD4 SWAP1 DUP6 PUSH2 0x1DAA JUMP JUMPDEST SGT ISZERO PUSH2 0xDDF JUMPI PUSH1 0x0 DUP1 REVERT JUMPDEST DUP6 PUSH1 0x20 ADD MLOAD DUP2 LT PUSH2 0xDEF JUMPI PUSH1 0x0 DUP1 REVERT JUMPDEST PUSH1 0x0 PUSH2 0xE0C DUP7 PUSH1 0x40 ADD MLOAD DUP9 PUSH1 0x20 ADD MLOAD DUP7 DUP7 DUP11 PUSH2 0x100 ADD MLOAD DUP8 PUSH2 0x1E0E JUMP JUMPDEST SWAP1 POP DUP1 PUSH2 0xE2F JUMPI PUSH2 0x160 DUP7 ADD MLOAD PUSH2 0xE2C SWAP1 PUSH2 0xE27 SWAP1 DUP7 PUSH2 0x1F1D JUMP JUMPDEST PUSH2 0xDAF JUMP JUMPDEST SWAP1 POP JUMPDEST PUSH1 0x0 DUP2 SGT ISZERO PUSH2 0xE3D JUMPI PUSH1 0x0 DUP1 REVERT JUMPDEST PUSH2 0xE4A DUP8 DUP8 DUP8 DUP8 DUP6 PUSH2 0x19B7 JUMP JUMPDEST POP POP POP POP POP POP POP JUMP JUMPDEST PUSH1 0x0 PUSH2 0xE5D PUSH2 0x1D46 JUMP JUMPDEST PUSH1 0x1 PUSH1 0x1 PUSH1 0xA0 SHL SUB DUP4 AND PUSH1 0x0 SWAP1 DUP2 MSTORE PUSH1 0x20 DUP3 DUP2 MSTORE PUSH1 0x40 DUP1 DUP4 KECCAK256 DUP8 MLOAD DUP5 MSTORE SWAP1 SWAP2 MSTORE SWAP1 DUP2 SWAP1 KECCAK256 SWAP1 DUP6 ADD MLOAD SWAP2 SWAP3 POP SWAP1 ISZERO PUSH2 0xE93 JUMPI PUSH1 0x0 DUP1 REVERT JUMPDEST PUSH2 0xEB0 PUSH2 0xEAB PUSH2 0xEA6 DUP7 PUSH1 0x20 ADD MLOAD PUSH2 0xDAF JUMP JUMPDEST PUSH2 0x191A JUMP JUMPDEST PUSH2 0x1F48 JUMP JUMPDEST DUP2 SLOAD PUSH1 0x1 PUSH1 0x1 PUSH1 0x50 SHL SUB NOT AND PUSH1 0x1 PUSH1 0x1 PUSH1 0x50 SHL SUB SWAP2 SWAP1 SWAP2 AND OR DUP2 SSTORE PUSH1 0x80 DUP5 ADD MLOAD PUSH2 0xED9 SWAP1 PUSH2 0x1F48 JUMP JUMPDEST DUP2 SLOAD PUSH1 0x1 PUSH1 0x1 PUSH1 0x50 SHL SUB SWAP2 SWAP1 SWAP2 AND PUSH1 0x1 PUSH1 0x50 SHL MUL PUSH1 0x1 PUSH1 0x50 SHL PUSH1 0x1 PUSH1 0xA0 SHL SUB NOT SWAP1 SWAP2 AND OR DUP2 SSTORE PUSH1 0xA0 DUP5 ADD MLOAD PUSH2 0xF0D SWAP1 PUSH2 0x1F48 JUMP JUMPDEST PUSH1 0x1 DUP3 ADD DUP1 SLOAD PUSH1 0x1 PUSH1 0x1 PUSH1 0x50 SHL SUB NOT AND PUSH1 0x1 PUSH1 0x1 PUSH1 0x50 SHL SUB SWAP3 SWAP1 SWAP3 AND SWAP2 SWAP1 SWAP2 OR SWAP1 SSTORE PUSH1 0x60 DUP5 ADD MLOAD PUSH2 0xF3D SWAP1 PUSH2 0x1F48 JUMP JUMPDEST DUP2 SLOAD PUSH1 0x1 PUSH1 0x1 PUSH1 0x50 SHL SUB SWAP2 SWAP1 SWAP2 AND PUSH1 0x1 PUSH1 0xA0 SHL MUL PUSH10 0xFFFFFFFFFFFFFFFFFFFF PUSH1 0xA0 SHL NOT SWAP1 SWAP2 AND OR DUP2 SSTORE DUP4 MLOAD PUSH1 0x20 DUP6 ADD MLOAD PUSH1 0x80 DUP7 ADD MLOAD PUSH1 0xA0 DUP8 ADD MLOAD PUSH1 0x60 DUP9 ADD MLOAD PUSH1 0x40 MLOAD PUSH1 0x1 PUSH1 0x1 PUSH1 0xA0 SHL SUB DUP10 AND SWAP5 PUSH32 0x3A0FDAECF7B5DA75A56077F5B1C8FBC88F9B08E9D0C4DB31EB34E25BC6700CDE SWAP5 PUSH2 0xFB9 SWAP5 SWAP2 SWAP4 SWAP1 SWAP3 PUSH2 0x4D9E JUMP JUMPDEST PUSH1 0x40 MLOAD DUP1 SWAP2 SUB SWAP1 LOG3 POP POP POP POP JUMP JUMPDEST PUSH1 0x0 DUP8 DUP11 PUSH1 0x20 ADD MLOAD EQ DUP1 PUSH2 0xFDA JUMPI POP DUP10 MLOAD ISZERO JUMPDEST PUSH2 0xFE3 JUMPI PUSH1 0x0 DUP1 REVERT JUMPDEST PUSH1 0x0 PUSH2 0xFF3 DUP11 PUSH1 0x0 ADD MLOAD DUP11 PUSH2 0xCB5 JUMP JUMPDEST SWAP1 POP DUP8 ISZERO PUSH2 0x1019 JUMPI PUSH2 0x1014 DUP12 DUP12 DUP4 DUP13 PUSH2 0x100E PUSH2 0xE27 DUP15 PUSH2 0x13FB JUMP JUMPDEST DUP13 PUSH2 0x1F5E JUMP JUMPDEST PUSH2 0x1030 JUMP JUMPDEST PUSH2 0x102E DUP11 PUSH1 0x40 ADD MLOAD DUP11 DUP13 PUSH2 0x100 ADD MLOAD TIMESTAMP PUSH2 0x1FEE JUMP JUMPDEST POP JUMPDEST PUSH2 0x103F DUP2 DUP13 DUP13 DUP8 DUP8 DUP12 DUP12 PUSH2 0x205D JUMP JUMPDEST SWAP2 POP PUSH2 0x104B DUP12 DUP12 PUSH2 0x145D JUMP JUMPDEST DUP8 ISZERO PUSH2 0x105C JUMPI PUSH2 0x105C DUP11 DUP3 DUP14 PUSH2 0x1415 JUMP JUMPDEST POP SWAP10 SWAP9 POP POP POP POP POP POP POP POP POP JUMP JUMPDEST PUSH2 0x1072 PUSH2 0x4875 JUMP JUMPDEST PUSH2 0x107B DUP3 PUSH2 0x1B6F JUMP JUMPDEST SWAP1 POP PUSH2 0xBAD DUP2 PUSH1 0x40 ADD MLOAD PUSH2 0xFFFF AND PUSH2 0x2194 JUMP JUMPDEST PUSH1 0x0 DUP1 PUSH2 0x109D DUP7 DUP9 DUP8 DUP8 PUSH2 0x21AA JUMP JUMPDEST SWAP1 POP PUSH1 0x0 PUSH2 0x10B9 PUSH2 0x10AD DUP6 PUSH2 0xDAF JUMP JUMPDEST PUSH2 0x160 DUP11 ADD MLOAD SWAP1 PUSH2 0x1F1D JUMP JUMPDEST SWAP1 POP PUSH1 0x0 PUSH2 0x10C7 DUP4 DUP4 PUSH2 0x2215 JUMP JUMPDEST SWAP1 POP DUP2 PUSH2 0x10DD JUMPI PUSH1 0x1 PUSH1 0x1 PUSH1 0xFF SHL SUB SWAP4 POP PUSH2 0x10EA JUMP JUMPDEST PUSH2 0x10E7 DUP2 DUP4 PUSH2 0x222B JUMP JUMPDEST SWAP4 POP JUMPDEST POP POP SWAP6 POP SWAP6 SWAP4 POP POP POP POP JUMP JUMPDEST PUSH1 0x0 DUP1 PUSH1 0x0 PUSH2 0x1117 PUSH4 0x3B9ACA00 DUP7 PUSH2 0x120 ADD MLOAD PUSH2 0x1DAA SWAP1 SWAP2 SWAP1 PUSH4 0xFFFFFFFF AND JUMP JUMPDEST SWAP1 POP PUSH1 0x0 PUSH2 0x1137 PUSH2 0x112B DUP9 PUSH1 0x0 ADD MLOAD PUSH2 0xDAF JUMP JUMPDEST PUSH2 0x160 DUP9 ADD MLOAD SWAP1 PUSH2 0x1F1D JUMP JUMPDEST SWAP1 POP PUSH2 0x116D PUSH2 0x1153 DUP8 PUSH1 0xC0 ADD MLOAD DUP5 PUSH2 0x2215 SWAP1 SWAP2 SWAP1 PUSH4 0xFFFFFFFF AND JUMP JUMPDEST PUSH2 0x1167 DUP8 PUSH2 0x1161 DUP6 DUP8 PUSH2 0x2244 JUMP JUMPDEST SWAP1 PUSH2 0x2215 JUMP JUMPDEST SWAP1 PUSH2 0x222B JUMP JUMPDEST SWAP4 POP PUSH1 0x0 PUSH2 0x117B DUP3 DUP7 PUSH2 0x2215 JUMP JUMPDEST SWAP1 POP PUSH1 0x0 PUSH2 0x119B DUP9 PUSH1 0x60 ADD MLOAD DUP10 PUSH2 0x160 ADD MLOAD PUSH2 0x1F1D SWAP1 SWAP2 SWAP1 PUSH4 0xFFFFFFFF AND JUMP JUMPDEST SWAP1 POP PUSH2 0x11A7 DUP4 DUP3 PUSH2 0x2215 JUMP JUMPDEST SWAP5 POP DUP1 DUP3 SLT ISZERO PUSH2 0x11B5 JUMPI DUP3 SWAP6 POP JUMPDEST PUSH1 0x0 PUSH2 0x11D8 DUP9 PUSH2 0x11D2 DUP12 PUSH1 0xC0 ADD MLOAD DUP11 PUSH2 0x1DC0 SWAP1 SWAP2 SWAP1 PUSH4 0xFFFFFFFF AND JUMP JUMPDEST SWAP1 PUSH2 0x2259 JUMP JUMPDEST SWAP1 POP PUSH4 0x3B9ACA00 DUP2 SLT PUSH2 0x11F8 JUMPI PUSH1 0xC0 DUP10 ADD MLOAD PUSH2 0x11F5 SWAP1 DUP10 SWAP1 PUSH2 0x222B JUMP JUMPDEST SWAP7 POP JUMPDEST POP POP POP POP POP SWAP4 POP SWAP4 SWAP2 POP POP JUMP JUMPDEST PUSH1 0x0 DUP1 PUSH2 0x121A DUP5 PUSH1 0x0 ADD MLOAD DUP7 PUSH1 0x20 ADD MLOAD PUSH2 0xCB5 JUMP JUMPDEST SWAP1 POP DUP1 PUSH1 0x40 ADD MLOAD PUSH2 0x123D JUMPI PUSH1 0x40 MLOAD PUSH3 0x461BCD PUSH1 0xE5 SHL DUP2 MSTORE PUSH1 0x4 ADD PUSH2 0x23D SWAP1 PUSH2 0x4F22 JUMP JUMPDEST PUSH1 0x0 PUSH2 0x1256 DUP6 PUSH1 0x40 ADD MLOAD PUSH2 0xFFFF AND DUP8 PUSH1 0x20 ADD MLOAD DUP7 PUSH2 0x228A JUMP JUMPDEST SWAP1 POP PUSH1 0x0 PUSH2 0x127D PUSH4 0x5F5E100 PUSH2 0x11D2 DUP6 PUSH1 0xC0 ADD MLOAD PUSH2 0x1277 DUP8 PUSH1 0xA0 ADD MLOAD PUSH2 0x13FB JUMP JUMPDEST SWAP1 PUSH2 0x1DC0 JUMP JUMPDEST SWAP1 POP PUSH1 0x0 PUSH2 0x128E DUP9 DUP6 DUP10 DUP7 DUP7 PUSH2 0x23FA JUMP JUMPDEST SWAP1 POP PUSH1 0x0 PUSH2 0x129F DUP9 DUP7 DUP7 DUP6 DUP8 PUSH2 0x25C3 JUMP JUMPDEST PUSH1 0x0 DUP12 MSTORE PUSH1 0x80 DUP12 ADD MLOAD SWAP1 SWAP8 POP SWAP1 SWAP2 POP PUSH2 0x12B8 SWAP1 DUP3 PUSH2 0x1DAA JUMP JUMPDEST PUSH1 0x80 DUP11 ADD MSTORE POP POP PUSH1 0x0 PUSH1 0x40 DUP9 ADD DUP2 SWAP1 MSTORE PUSH1 0x20 SWAP1 SWAP8 ADD SWAP7 SWAP1 SWAP7 MSTORE POP SWAP1 SWAP5 SWAP4 POP POP POP POP JUMP JUMPDEST PUSH1 0x0 DUP2 PUSH2 0x12EA JUMPI POP PUSH1 0x0 PUSH2 0x137D JUMP JUMPDEST PUSH1 0x0 DUP3 SGT PUSH2 0x12F7 JUMPI PUSH1 0x0 DUP1 REVERT JUMPDEST PUSH1 0x0 PUSH2 0x1306 DUP5 PUSH2 0xFFFF AND PUSH2 0x181E JUMP JUMPDEST SWAP1 POP PUSH1 0x0 PUSH2 0x1314 DUP3 DUP6 PUSH2 0x27FB JUMP JUMPDEST SWAP1 POP PUSH1 0x4 DUP3 PUSH1 0x60 ADD MLOAD PUSH1 0x5 DUP2 GT ISZERO PUSH2 0x1328 JUMPI INVALID JUMPDEST EQ ISZERO PUSH2 0x1356 JUMPI PUSH2 0x134F PUSH2 0xEA6 PUSH2 0xE27 DUP9 DUP9 PUSH2 0xFFFF AND PUSH2 0x1346 DUP7 PUSH2 0xDAF JUMP JUMPDEST DUP8 SWAP3 SWAP2 SWAP1 PUSH2 0x2833 JUMP JUMPDEST SWAP3 POP PUSH2 0x137A JUMP JUMPDEST PUSH2 0x1377 PUSH2 0xEA6 PUSH2 0xE27 DUP8 PUSH2 0xFFFF AND DUP10 PUSH2 0x136E DUP7 PUSH2 0x191A JUMP JUMPDEST DUP8 SWAP3 SWAP2 SWAP1 PUSH2 0x28DB JUMP JUMPDEST SWAP3 POP JUMPDEST POP POP JUMPDEST SWAP4 SWAP3 POP POP POP JUMP JUMPDEST PUSH1 0x0 DUP1 DUP8 PUSH1 0x80 ADD MLOAD SGT ISZERO PUSH2 0x1397 JUMPI PUSH1 0x0 DUP1 REVERT JUMPDEST PUSH2 0x13E3 DUP9 PUSH1 0x40 MLOAD DUP1 PUSH1 0xA0 ADD PUSH1 0x40 MSTORE DUP1 DUP11 PUSH1 0x60 ADD MLOAD PUSH1 0x1 PUSH1 0x1 PUSH1 0xA0 SHL SUB AND DUP2 MSTORE PUSH1 0x20 ADD DUP10 PUSH1 0x1 PUSH1 0x1 PUSH1 0xA0 SHL SUB AND DUP2 MSTORE PUSH1 0x20 ADD DUP9 DUP2 MSTORE PUSH1 0x20 ADD DUP8 DUP2 MSTORE PUSH1 0x20 ADD DUP11 PUSH1 0x80 ADD MLOAD DUP2 MSTORE POP DUP6 DUP6 PUSH2 0x297B JUMP JUMPDEST PUSH1 0x0 PUSH1 0x80 SWAP1 SWAP10 ADD SWAP9 SWAP1 SWAP9 MSTORE POP SWAP6 SWAP8 SWAP7 POP POP POP POP POP POP POP JUMP JUMPDEST PUSH1 0x0 PUSH1 0x1 PUSH1 0x1 PUSH1 0xFF SHL SUB DUP3 GT ISZERO PUSH2 0x1411 JUMPI PUSH1 0x0 DUP1 REVERT JUMPDEST POP SWAP1 JUMP JUMPDEST PUSH1 0x0 PUSH2 0x1430 DUP5 DUP5 DUP5 PUSH1 0x60 ADD MLOAD DUP6 PUSH1 0x40 ADD MLOAD DUP7 PUSH1 0x0 ADD MLOAD PUSH2 0x108E JUMP JUMPDEST POP SWAP1 POP DUP1 DUP5 PUSH1 0xA0 ADD MLOAD SGT ISZERO PUSH2 0x1457 JUMPI PUSH1 0x40 MLOAD PUSH3 0x461BCD PUSH1 0xE5 SHL DUP2 MSTORE PUSH1 0x4 ADD PUSH2 0x23D SWAP1 PUSH2 0x4FA0 JUMP JUMPDEST POP POP POP POP JUMP JUMPDEST PUSH1 0x0 PUSH2 0x1467 PUSH2 0x1D39 JUMP JUMPDEST PUSH1 0x60 DUP5 ADD MLOAD PUSH1 0x1 PUSH1 0x1 PUSH1 0xA0 SHL SUB SWAP1 DUP2 AND PUSH1 0x0 SWAP1 DUP2 MSTORE PUSH1 0x20 DUP4 DUP2 MSTORE PUSH1 0x40 DUP1 DUP4 KECCAK256 DUP8 MLOAD SWAP1 SWAP5 AND DUP4 MSTORE SWAP3 SWAP1 MSTORE KECCAK256 PUSH1 0x80 DUP6 ADD MLOAD SWAP2 SWAP3 POP SWAP1 ISZERO PUSH2 0x14A4 JUMPI PUSH1 0x0 DUP1 REVERT JUMPDEST PUSH1 0x60 DUP4 ADD MLOAD DUP5 MLOAD PUSH2 0x14B4 SWAP1 PUSH2 0xDAF JUMP JUMPDEST SLT ISZERO PUSH2 0x14E9 JUMPI DUP4 MLOAD ISZERO DUP1 PUSH2 0x14CD JUMPI POP PUSH1 0x1 DUP5 PUSH1 0x40 ADD MLOAD GT ISZERO JUMPDEST PUSH2 0x14E9 JUMPI PUSH1 0x40 MLOAD PUSH3 0x461BCD PUSH1 0xE5 SHL DUP2 MSTORE PUSH1 0x4 ADD PUSH2 0x23D SWAP1 PUSH2 0x505D JUMP JUMPDEST PUSH2 0x14FC PUSH2 0xEAB PUSH2 0xEA6 DUP7 PUSH1 0x0 ADD MLOAD PUSH2 0xDAF JUMP JUMPDEST DUP2 SLOAD PUSH1 0x1 PUSH1 0x1 PUSH1 0x50 SHL SUB NOT AND PUSH1 0x1 PUSH1 0x1 PUSH1 0x50 SHL SUB SWAP2 SWAP1 SWAP2 AND OR DUP2 SSTORE PUSH1 0x40 DUP5 ADD MLOAD PUSH2 0x1525 SWAP1 PUSH2 0x1F48 JUMP JUMPDEST DUP2 SLOAD PUSH1 0x1 PUSH1 0x1 PUSH1 0x50 SHL SUB SWAP2 SWAP1 SWAP2 AND PUSH1 0x1 PUSH1 0x50 SHL MUL PUSH1 0x1 PUSH1 0x50 SHL PUSH1 0x1 PUSH1 0xA0 SHL SUB NOT SWAP1 SWAP2 AND OR DUP2 SSTORE PUSH1 0x20 DUP5 ADD MLOAD PUSH2 0x1559 SWAP1 PUSH2 0x2C28 JUMP JUMPDEST DUP2 SLOAD PUSH4 0xFFFFFFFF SWAP2 SWAP1 SWAP2 AND PUSH1 0x1 PUSH1 0xA0 SHL MUL PUSH4 0xFFFFFFFF PUSH1 0xA0 SHL NOT SWAP1 SWAP2 AND OR SWAP1 SSTORE POP POP POP JUMP JUMPDEST PUSH1 0x0 DUP1 PUSH2 0xB6B PUSH1 0x1A PUSH2 0x2C3B JUMP JUMPDEST PUSH1 0x0 DUP1 PUSH1 0x0 DUP5 PUSH1 0x60 ADD MLOAD GT ISZERO PUSH2 0x15DE JUMPI PUSH2 0x15BA DUP5 PUSH1 0x60 ADD MLOAD PUSH2 0x9F4 DUP7 PUSH1 0x80 ADD MLOAD DUP7 PUSH2 0x1929 SWAP1 SWAP2 SWAP1 PUSH4 0xFFFFFFFF AND JUMP JUMPDEST SWAP2 POP PUSH2 0x15DB DUP5 PUSH1 0x60 ADD MLOAD PUSH2 0x9F4 DUP7 PUSH1 0xA0 ADD MLOAD DUP7 PUSH2 0x1929 SWAP1 SWAP2 SWAP1 PUSH4 0xFFFFFFFF AND JUMP JUMPDEST SWAP1 POP JUMPDEST SWAP3 POP SWAP3 SWAP1 POP JUMP JUMPDEST PUSH1 0x1 PUSH1 0x1 PUSH1 0xA0 SHL SUB DUP2 AND PUSH2 0x15F8 JUMPI PUSH1 0x0 DUP1 REVERT JUMPDEST PUSH1 0x1 PUSH1 0x1 PUSH1 0xA0 SHL SUB DUP2 AND ADDRESS EQ ISZERO PUSH2 0x160E JUMPI PUSH1 0x0 DUP1 REVERT JUMPDEST PUSH1 0x0 PUSH2 0x1619 DUP3 PUSH2 0x2C54 JUMP JUMPDEST POP POP POP POP PUSH2 0xFFFF AND SWAP1 POP DUP1 PUSH1 0x0 EQ PUSH2 0x1630 JUMPI PUSH1 0x0 DUP1 REVERT JUMPDEST POP POP JUMP JUMPDEST PUSH1 0x0 DUP2 PUSH2 0x1643 JUMPI POP PUSH1 0x0 PUSH2 0x137D JUMP JUMPDEST PUSH1 0x0 PUSH2 0x1656 DUP6 PUSH1 0x40 ADD MLOAD PUSH2 0xFFFF AND PUSH2 0x181E JUMP JUMPDEST SWAP1 POP PUSH1 0x0 PUSH1 0x4 DUP3 PUSH1 0x60 ADD MLOAD PUSH1 0x5 DUP2 GT ISZERO PUSH2 0x166C JUMPI INVALID JUMPDEST EQ PUSH2 0x1687 JUMPI PUSH2 0x1682 DUP7 PUSH1 0x40 ADD MLOAD PUSH2 0xFFFF AND PUSH2 0x2CC0 JUMP JUMPDEST PUSH2 0x1689 JUMP JUMPDEST DUP2 JUMPDEST DUP7 MLOAD SWAP1 SWAP2 POP PUSH1 0x3 DUP3 PUSH1 0x60 ADD MLOAD PUSH1 0x5 DUP2 GT ISZERO PUSH2 0x16A0 JUMPI INVALID JUMPDEST EQ ISZERO PUSH2 0x16DA JUMPI DUP5 CALLVALUE EQ PUSH2 0x16C5 JUMPI PUSH1 0x40 MLOAD PUSH3 0x461BCD PUSH1 0xE5 SHL DUP2 MSTORE PUSH1 0x4 ADD PUSH2 0x23D SWAP1 PUSH2 0x5081 JUMP JUMPDEST PUSH2 0x16CF DUP2 CALLVALUE PUSH2 0x2CD3 JUMP JUMPDEST CALLVALUE SWAP4 POP POP POP POP PUSH2 0x137D JUMP JUMPDEST DUP2 PUSH1 0x20 ADD MLOAD ISZERO PUSH2 0x1726 JUMPI PUSH1 0x0 PUSH2 0x16F0 DUP4 DUP4 PUSH2 0x2D09 JUMP JUMPDEST SWAP1 POP PUSH2 0x1702 DUP4 PUSH1 0x0 ADD MLOAD DUP9 DUP5 DUP10 PUSH2 0x2DBA JUMP JUMPDEST PUSH1 0x0 PUSH2 0x170E DUP5 DUP5 PUSH2 0x2D09 JUMP JUMPDEST SWAP1 POP PUSH2 0x171A DUP2 DUP4 PUSH2 0x196F JUMP JUMPDEST SWAP6 POP POP POP POP POP POP PUSH2 0x137D JUMP JUMPDEST DUP2 MLOAD PUSH2 0x1734 SWAP1 DUP8 DUP4 DUP9 PUSH2 0x2DBA JUMP JUMPDEST DUP5 SWAP4 POP POP POP POP PUSH2 0x137D JUMP JUMPDEST POP POP POP SWAP4 SWAP3 POP POP POP JUMP JUMPDEST PUSH2 0x1751 PUSH2 0x4875 JUMP JUMPDEST PUSH2 0x175A DUP4 PUSH2 0xB89 JUMP JUMPDEST SWAP1 POP PUSH2 0x1767 DUP2 PUSH1 0x80 PUSH2 0xC22 JUMP JUMPDEST ISZERO PUSH2 0x1772 JUMPI PUSH1 0x1 PUSH1 0xA SSTORE JUMPDEST PUSH2 0x177D DUP2 PUSH1 0x20 PUSH2 0xC22 JUMP JUMPDEST ISZERO PUSH2 0x17AF JUMPI CALLER PUSH1 0x1 PUSH1 0x1 PUSH1 0xA0 SHL SUB DUP5 AND EQ PUSH2 0x17AA JUMPI PUSH1 0x40 MLOAD PUSH3 0x461BCD PUSH1 0xE5 SHL DUP2 MSTORE PUSH1 0x4 ADD PUSH2 0x23D SWAP1 PUSH2 0x4DB9 JUMP JUMPDEST PUSH2 0x17D7 JUMP JUMPDEST CALLER PUSH1 0x1 PUSH1 0x1 PUSH1 0xA0 SHL SUB DUP4 AND EQ PUSH2 0x17D7 JUMPI PUSH1 0x40 MLOAD PUSH3 0x461BCD PUSH1 0xE5 SHL DUP2 MSTORE PUSH1 0x4 ADD PUSH2 0x23D SWAP1 PUSH2 0x4DB9 JUMP JUMPDEST PUSH1 0x1 PUSH1 0x1 PUSH1 0xA0 SHL SUB DUP5 AND CALLER EQ DUP1 ISZERO SWAP1 PUSH2 0x1802 JUMPI POP DUP2 PUSH1 0x1 PUSH1 0x1 PUSH1 0xA0 SHL SUB AND DUP5 PUSH1 0x1 PUSH1 0x1 PUSH1 0xA0 SHL SUB AND EQ ISZERO JUMPDEST PUSH2 0x137D JUMPI PUSH1 0x40 MLOAD PUSH3 0x461BCD PUSH1 0xE5 SHL DUP2 MSTORE PUSH1 0x4 ADD PUSH2 0x23D SWAP1 PUSH2 0x4DB9 JUMP JUMPDEST PUSH2 0x1826 PUSH2 0x4931 JUMP JUMPDEST PUSH2 0xDBD DUP3 PUSH1 0x0 PUSH2 0x2E42 JUMP JUMPDEST PUSH1 0x0 PUSH2 0x183C DUP4 PUSH2 0x13FB JUMP JUMPDEST SWAP1 POP PUSH1 0x5 DUP7 PUSH1 0x60 ADD MLOAD PUSH1 0x5 DUP2 GT ISZERO PUSH2 0x1850 JUMPI INVALID JUMPDEST EQ ISZERO PUSH2 0x186B JUMPI PUSH2 0x1868 DUP5 PUSH1 0x40 ADD MLOAD PUSH2 0xFFFF AND DUP3 PUSH2 0x2EF0 JUMP JUMPDEST SWAP1 POP JUMPDEST PUSH1 0x0 DUP1 PUSH2 0x1879 DUP8 DUP8 DUP7 PUSH2 0x10F6 JUMP JUMPDEST SWAP2 POP SWAP2 POP PUSH1 0x0 DUP3 SGT PUSH2 0x188A JUMPI PUSH1 0x0 DUP1 REVERT JUMPDEST PUSH1 0x0 PUSH2 0x1896 DUP10 DUP5 PUSH2 0x27FB JUMP JUMPDEST SWAP1 POP DUP1 DUP5 SLT ISZERO PUSH2 0x18CD JUMPI PUSH2 0x18AA DUP10 DUP4 PUSH2 0x27FB JUMP JUMPDEST DUP5 SLT PUSH2 0x18C8 JUMPI PUSH1 0x40 MLOAD PUSH3 0x461BCD PUSH1 0xE5 SHL DUP2 MSTORE PUSH1 0x4 ADD PUSH2 0x23D SWAP1 PUSH2 0x4FD7 JUMP JUMPDEST PUSH2 0x18D1 JUMP JUMPDEST DUP1 SWAP4 POP JUMPDEST PUSH1 0x40 DUP8 ADD MLOAD PUSH1 0x0 SWAP1 PUSH2 0x18EB SWAP1 DUP12 SWAP1 DUP14 SWAP1 PUSH2 0xFFFF AND DUP9 PUSH2 0x2833 JUMP JUMPDEST SWAP1 POP PUSH2 0x1905 PUSH2 0x18FA DUP12 DUP4 PUSH2 0x2F77 JUMP JUMPDEST PUSH1 0x80 DUP12 ADD MLOAD SWAP1 PUSH2 0x1DAA JUMP JUMPDEST PUSH1 0x80 SWAP1 SWAP10 ADD SWAP9 SWAP1 SWAP9 MSTORE POP POP POP POP POP POP POP POP POP POP JUMP JUMPDEST PUSH1 0x0 DUP1 DUP3 SLT ISZERO PUSH2 0x1411 JUMPI PUSH1 0x0 DUP1 REVERT JUMPDEST PUSH1 0x0 DUP3 PUSH2 0x1938 JUMPI POP PUSH1 0x0 PUSH2 0xB6B JUMP JUMPDEST DUP3 DUP3 MUL DUP3 DUP5 DUP3 DUP2 PUSH2 0x1945 JUMPI INVALID JUMPDEST DIV EQ PUSH2 0xB68 JUMPI PUSH1 0x0 DUP1 REVERT JUMPDEST PUSH1 0x0 DUP1 DUP3 GT PUSH2 0x195E JUMPI PUSH1 0x0 DUP1 REVERT JUMPDEST DUP2 DUP4 DUP2 PUSH2 0x1967 JUMPI INVALID JUMPDEST DIV SWAP4 SWAP3 POP POP POP JUMP JUMPDEST PUSH1 0x0 DUP3 DUP3 GT ISZERO PUSH2 0x197E JUMPI PUSH1 0x0 DUP1 REVERT JUMPDEST POP SWAP1 SUB SWAP1 JUMP JUMPDEST PUSH1 0x0 DUP1 PUSH2 0x19AF DUP5 PUSH1 0x40 ADD MLOAD PUSH2 0x11D2 PUSH5 0x2540BE400 PUSH2 0x11D2 DUP8 DUP10 PUSH1 0x20 ADD MLOAD PUSH2 0x1DC0 SWAP1 SWAP2 SWAP1 PUSH4 0xFFFFFFFF AND JUMP JUMPDEST SWAP5 SWAP4 POP POP POP POP JUMP JUMPDEST PUSH1 0x80 DUP6 ADD MLOAD PUSH2 0x19C6 SWAP1 DUP3 PUSH2 0x1DAA JUMP JUMPDEST PUSH1 0x80 DUP7 ADD MSTORE DUP5 MLOAD PUSH2 0x19D7 SWAP1 DUP4 PUSH2 0x1DAA JUMP JUMPDEST DUP1 DUP7 MSTORE PUSH1 0x0 SLT ISZERO PUSH2 0x19E7 JUMPI PUSH1 0x0 DUP1 REVERT JUMPDEST PUSH1 0x20 DUP4 ADD MLOAD PUSH2 0x19F6 SWAP1 DUP4 PUSH2 0x1DAA JUMP JUMPDEST PUSH1 0x20 DUP5 ADD DUP2 SWAP1 MSTORE PUSH1 0x0 SLT ISZERO PUSH2 0x1A0A JUMPI PUSH1 0x0 DUP1 REVERT JUMPDEST PUSH2 0x1A1D DUP5 PUSH1 0x0 ADD MLOAD DUP6 PUSH1 0x40 ADD MLOAD DUP5 PUSH2 0x2FA7 JUMP JUMPDEST POP POP POP POP POP POP JUMP JUMPDEST PUSH1 0x0 DUP1 PUSH2 0x1A36 DUP7 DUP7 PUSH1 0x0 ADD MLOAD PUSH2 0xC37 JUMP JUMPDEST SWAP1 POP DUP1 PUSH1 0x20 ADD MLOAD PUSH1 0x0 EQ DUP1 PUSH2 0x1A4E JUMPI POP DUP3 DUP2 PUSH1 0x20 ADD MLOAD EQ JUMPDEST PUSH2 0x1A6A JUMPI PUSH1 0x40 MLOAD PUSH3 0x461BCD PUSH1 0xE5 SHL DUP2 MSTORE PUSH1 0x4 ADD PUSH2 0x23D SWAP1 PUSH2 0x4DDF JUMP JUMPDEST PUSH1 0x20 DUP2 ADD DUP4 SWAP1 MSTORE PUSH1 0x40 DUP2 ADD MLOAD PUSH2 0x1A80 SWAP1 DUP6 PUSH2 0x30AD JUMP JUMPDEST PUSH1 0x40 DUP3 ADD MSTORE PUSH2 0x1A8F DUP2 DUP7 PUSH2 0x145D JUMP JUMPDEST POP SWAP2 SWAP5 SWAP4 POP POP POP POP JUMP JUMPDEST PUSH1 0x0 DUP1 DUP1 PUSH2 0x1AA7 DUP9 DUP9 PUSH2 0x1D53 JUMP JUMPDEST DUP10 MLOAD SWAP2 SWAP4 POP SWAP2 POP PUSH1 0x0 SWAP1 PUSH2 0x1AC2 SWAP1 DUP12 SWAP1 DUP14 SWAP1 DUP6 SWAP1 DUP12 DUP12 PUSH2 0x30BF JUMP JUMPDEST SWAP1 POP PUSH2 0x1AD7 PUSH2 0x1AD0 DUP5 PUSH2 0x13FB JUMP JUMPDEST DUP3 SWAP1 PUSH2 0x1DAA JUMP JUMPDEST DUP11 MLOAD SWAP1 SWAP2 POP PUSH2 0x1AE7 SWAP1 DUP11 SWAP1 PUSH2 0xE53 JUMP JUMPDEST PUSH1 0x0 PUSH2 0x1B12 DUP13 DUP13 PUSH1 0x40 ADD MLOAD PUSH2 0xFFFF AND PUSH2 0x1B09 PUSH2 0x1B02 DUP7 PUSH2 0xDAF JUMP JUMPDEST DUP11 SWAP1 PUSH2 0x27FB JUMP JUMPDEST DUP10 SWAP3 SWAP2 SWAP1 PUSH2 0x2833 JUMP JUMPDEST SWAP1 POP PUSH1 0x5 DUP7 PUSH1 0x60 ADD MLOAD PUSH1 0x5 DUP2 GT ISZERO PUSH2 0x1B26 JUMPI INVALID JUMPDEST EQ ISZERO PUSH2 0x1B53 JUMPI PUSH1 0x0 PUSH2 0x1B3F DUP13 PUSH1 0x40 ADD MLOAD PUSH2 0xFFFF AND PUSH2 0x2CC0 JUMP JUMPDEST SWAP1 POP PUSH2 0x1B4F DUP2 PUSH1 0x0 ADD MLOAD DUP4 PUSH2 0x3112 JUMP JUMPDEST SWAP2 POP POP JUMPDEST PUSH2 0x1B5F PUSH2 0xEA6 DUP3 PUSH2 0xDAF JUMP JUMPDEST SWAP13 SWAP12 POP POP POP POP POP POP POP POP POP POP POP POP JUMP JUMPDEST PUSH2 0x1B77 PUSH2 0x4875 JUMP JUMPDEST PUSH1 0x0 PUSH2 0x1B81 PUSH2 0x31A1 JUMP JUMPDEST PUSH1 0x1 PUSH1 0x1 PUSH1 0xA0 SHL SUB DUP5 AND PUSH1 0x0 DUP2 DUP2 MSTORE PUSH1 0x20 DUP4 DUP2 MSTORE PUSH1 0x40 SWAP2 DUP3 SWAP1 KECCAK256 SWAP3 DUP7 MSTORE DUP3 SLOAD PUSH2 0xFFFF DUP1 DUP3 AND SWAP3 DUP9 ADD SWAP3 SWAP1 SWAP3 MSTORE PUSH3 0x10000 DUP2 DIV SWAP1 SWAP2 AND SWAP2 DUP7 ADD SWAP2 SWAP1 SWAP2 MSTORE SWAP2 SWAP3 POP SWAP1 PUSH2 0x1BE2 SWAP1 PUSH4 0xFFFFFFFF PUSH5 0x100000000 SWAP1 SWAP2 DIV DUP2 AND SWAP1 PUSH4 0x5F5E100 SWAP1 PUSH2 0x1DC0 AND JUMP JUMPDEST PUSH1 0x60 DUP5 ADD MSTORE DUP1 SLOAD PUSH2 0x1C00 SWAP1 PUSH1 0x1 PUSH1 0x50 SHL SWAP1 DIV PUSH1 0xFF AND PUSH3 0x7A120 PUSH2 0x1929 JUMP JUMPDEST PUSH1 0x80 DUP5 ADD MSTORE DUP1 SLOAD PUSH2 0x1C24 SWAP1 PUSH9 0x10000000000000000 SWAP1 DIV PUSH2 0xFFFF AND PUSH3 0x186A0 PUSH2 0x1929 JUMP JUMPDEST PUSH1 0xA0 DUP5 ADD MSTORE DUP1 SLOAD PUSH2 0x1C43 SWAP1 PUSH1 0x1 PUSH1 0x70 SHL SWAP1 DIV PUSH2 0xFFFF AND PUSH3 0x186A0 PUSH2 0x1929 JUMP JUMPDEST PUSH2 0x120 DUP5 ADD MSTORE DUP1 SLOAD PUSH1 0x64 SWAP1 PUSH1 0xFF PUSH1 0x1 PUSH1 0x58 SHL SWAP1 SWAP2 DIV AND PUSH4 0x3B9ACA00 MUL SDIV PUSH1 0xC0 DUP5 ADD MSTORE DUP1 SLOAD PUSH1 0x1 PUSH1 0x60 SHL DUP2 DIV PUSH1 0xFF SWAP1 DUP2 AND PUSH1 0xE0 DUP7 ADD MSTORE PUSH1 0x1 PUSH1 0x68 SHL SWAP1 SWAP2 DIV AND PUSH2 0x100 DUP5 ADD MSTORE PUSH1 0x40 DUP1 MLOAD DUP1 DUP3 ADD SWAP2 DUP3 SWAP1 MSTORE SWAP1 PUSH1 0x1 DUP4 ADD SWAP1 PUSH1 0x2 SWAP1 DUP3 PUSH1 0x0 DUP6 JUMPDEST DUP3 DUP3 SWAP1 SLOAD SWAP1 PUSH2 0x100 EXP SWAP1 DIV PUSH2 0xFFFF AND PUSH2 0xFFFF AND DUP2 MSTORE PUSH1 0x20 ADD SWAP1 PUSH1 0x2 ADD SWAP1 PUSH1 0x20 DUP3 PUSH1 0x1 ADD DIV SWAP3 DUP4 ADD SWAP3 PUSH1 0x1 SUB DUP3 MUL SWAP2 POP DUP1 DUP5 GT PUSH2 0x1CA0 JUMPI SWAP1 POP POP POP POP POP POP DUP4 PUSH2 0x140 ADD DUP2 SWAP1 MSTORE POP POP POP SWAP2 SWAP1 POP JUMP JUMPDEST PUSH2 0x1CF5 PUSH2 0x4960 JUMP JUMPDEST PUSH1 0x0 DUP1 PUSH1 0x0 PUSH2 0x1D03 DUP6 PUSH2 0x31AE JUMP JUMPDEST PUSH1 0x40 DUP1 MLOAD PUSH1 0x60 DUP2 ADD DUP3 MSTORE PUSH1 0x1 PUSH1 0x1 PUSH1 0xA0 SHL SUB SWAP1 SWAP4 AND DUP4 MSTORE PUSH1 0x20 DUP4 ADD SWAP4 SWAP1 SWAP4 MSTORE PUSH1 0xFF AND PUSH1 0xA EXP SWAP2 DUP2 ADD SWAP2 SWAP1 SWAP2 MSTORE SWAP4 POP POP POP POP SWAP2 SWAP1 POP JUMP JUMPDEST PUSH1 0x0 DUP1 PUSH2 0xB6B PUSH1 0x16 PUSH2 0x2C3B JUMP JUMPDEST PUSH1 0x0 DUP1 PUSH2 0xB6B PUSH1 0x15 PUSH2 0x2C3B JUMP JUMPDEST PUSH1 0x0 DUP1 PUSH2 0x1D60 DUP5 DUP5 PUSH2 0x158B JUMP JUMPDEST PUSH1 0x80 DUP7 ADD MLOAD SWAP2 SWAP4 POP SWAP2 POP PUSH2 0x1D74 SWAP1 DUP4 PUSH2 0x196F JUMP JUMPDEST PUSH1 0x80 DUP6 ADD MSTORE PUSH1 0xA0 DUP5 ADD MLOAD PUSH2 0x1D88 SWAP1 DUP3 PUSH2 0x196F JUMP JUMPDEST PUSH1 0xA0 DUP6 ADD MSTORE PUSH1 0x60 DUP5 ADD MLOAD PUSH2 0x1D9C SWAP1 DUP5 PUSH2 0x196F JUMP JUMPDEST PUSH1 0x60 SWAP1 SWAP5 ADD SWAP4 SWAP1 SWAP4 MSTORE SWAP3 SWAP1 POP JUMP JUMPDEST DUP2 DUP2 ADD DUP3 DUP2 SLT ISZERO PUSH1 0x0 DUP4 SLT ISZERO EQ PUSH2 0xB6B JUMPI PUSH1 0x0 DUP1 REVERT JUMPDEST DUP2 DUP2 MUL PUSH1 0x0 NOT DUP4 EQ ISZERO PUSH2 0x1DF0 JUMPI DUP2 ISZERO DUP1 PUSH2 0x1DE2 JUMPI POP DUP3 DUP3 DUP3 DUP2 PUSH2 0x1DDF JUMPI INVALID JUMPDEST SDIV EQ JUMPDEST PUSH2 0x1DEB JUMPI PUSH1 0x0 DUP1 REVERT JUMPDEST PUSH2 0xB6B JUMP JUMPDEST DUP3 ISZERO DUP1 PUSH2 0x1E05 JUMPI POP DUP2 DUP4 DUP3 DUP2 PUSH2 0x1E02 JUMPI INVALID JUMPDEST SDIV EQ JUMPDEST PUSH2 0xB6B JUMPI PUSH1 0x0 DUP1 REVERT JUMPDEST PUSH1 0x0 DUP1 PUSH2 0x1E1D DUP9 DUP9 DUP7 DUP7 PUSH2 0x1FEE JUMP JUMPDEST SWAP1 POP PUSH1 0x0 PUSH2 0x1E2A DUP8 PUSH2 0x3271 JUMP JUMPDEST SWAP1 POP PUSH11 0xFFFFFFFFFFFFFFFFFFFFFF DUP2 LT PUSH2 0x1E43 JUMPI PUSH1 0x0 DUP1 REVERT JUMPDEST PUSH1 0x0 PUSH1 0x78 DUP8 PUSH4 0xFFFFFFFF AND SWAP1 SHL PUSH1 0x98 DUP4 SWAP1 SHL PUSH1 0xF0 DUP6 SWAP1 SHL PUSH1 0xF8 PUSH1 0x0 DUP13 SGT PUSH2 0x1E6B JUMPI PUSH1 0x1 PUSH2 0x1E6E JUMP JUMPDEST PUSH1 0x0 JUMPDEST PUSH1 0x5 DUP2 GT ISZERO PUSH2 0x1E79 JUMPI INVALID JUMPDEST PUSH1 0xFF AND SWAP1 SHL OR OR OR PUSH1 0x0 SHL SWAP1 POP PUSH20 0x0 PUSH4 0xE50F349E DUP12 DUP4 PUSH1 0x40 MLOAD DUP4 PUSH4 0xFFFFFFFF AND PUSH1 0xE0 SHL DUP2 MSTORE PUSH1 0x4 ADD PUSH2 0x1EBF SWAP3 SWAP2 SWAP1 PUSH2 0x519F JUMP JUMPDEST PUSH1 0x20 PUSH1 0x40 MLOAD DUP1 DUP4 SUB DUP2 DUP7 DUP1 EXTCODESIZE ISZERO DUP1 ISZERO PUSH2 0x1ED7 JUMPI PUSH1 0x0 DUP1 REVERT JUMPDEST POP GAS DELEGATECALL ISZERO DUP1 ISZERO PUSH2 0x1EEB JUMPI RETURNDATASIZE PUSH1 0x0 DUP1 RETURNDATACOPY RETURNDATASIZE PUSH1 0x0 REVERT JUMPDEST POP POP POP POP PUSH1 0x40 MLOAD RETURNDATASIZE PUSH1 0x1F NOT PUSH1 0x1F DUP3 ADD AND DUP3 ADD DUP1 PUSH1 0x40 MSTORE POP DUP2 ADD SWAP1 PUSH2 0x1F0F SWAP2 SWAP1 PUSH2 0x4C33 JUMP JUMPDEST SWAP11 SWAP10 POP POP POP POP POP POP POP POP POP POP JUMP JUMPDEST PUSH1 0x0 DUP1 PUSH2 0x19AF DUP5 PUSH1 0x20 ADD MLOAD PUSH2 0x11D2 DUP7 PUSH1 0x40 ADD MLOAD PUSH2 0x1277 PUSH5 0x2540BE400 DUP9 PUSH2 0x1DC0 SWAP1 SWAP2 SWAP1 PUSH4 0xFFFFFFFF AND JUMP JUMPDEST PUSH1 0x0 PUSH1 0x1 PUSH1 0x1 PUSH1 0x50 SHL SUB DUP3 GT ISZERO PUSH2 0x1411 JUMPI PUSH1 0x0 DUP1 REVERT JUMPDEST PUSH1 0x0 DUP3 SLT PUSH2 0x1F6B JUMPI PUSH1 0x0 DUP1 REVERT JUMPDEST PUSH1 0x0 PUSH2 0x1F84 DUP7 PUSH1 0x40 ADD MLOAD DUP6 DUP6 DUP6 DUP11 PUSH2 0x100 ADD MLOAD TIMESTAMP PUSH2 0x1E0E JUMP JUMPDEST SWAP1 POP PUSH1 0x0 DUP2 SGT PUSH2 0x1FA6 JUMPI PUSH1 0x40 MLOAD PUSH3 0x461BCD PUSH1 0xE5 SHL DUP2 MSTORE PUSH1 0x4 ADD PUSH2 0x23D SWAP1 PUSH2 0x5036 JUMP JUMPDEST PUSH2 0x1FB3 DUP8 DUP8 DUP8 DUP7 DUP6 PUSH2 0x19B7 JUMP JUMPDEST DUP7 MLOAD PUSH2 0x1FBE SWAP1 PUSH2 0xDAF JUMP JUMPDEST DUP7 PUSH1 0x60 ADD MLOAD SGT ISZERO PUSH2 0x1FE1 JUMPI PUSH1 0x40 MLOAD PUSH3 0x461BCD PUSH1 0xE5 SHL DUP2 MSTORE PUSH1 0x4 ADD PUSH2 0x23D SWAP1 PUSH2 0x505D JUMP JUMPDEST PUSH2 0xE4A DUP7 DUP9 DUP6 DUP8 TIMESTAMP PUSH2 0x3292 JUMP JUMPDEST PUSH1 0x0 DUP1 PUSH1 0x0 PUSH2 0x2000 DUP8 PUSH2 0xFFFF AND PUSH2 0x33B8 JUMP JUMPDEST SWAP1 POP PUSH2 0x2010 DUP2 PUSH1 0xFF AND DUP8 DUP7 PUSH2 0x33CE JUMP JUMPDEST SWAP1 SWAP4 POP SWAP2 POP DUP5 DUP4 GT ISZERO PUSH2 0x2035 JUMPI PUSH1 0x40 MLOAD PUSH3 0x461BCD PUSH1 0xE5 SHL DUP2 MSTORE PUSH1 0x4 ADD PUSH2 0x23D SWAP1 PUSH2 0x4ED2 JUMP JUMPDEST DUP2 ISZERO PUSH2 0x2053 JUMPI PUSH1 0x40 MLOAD PUSH3 0x461BCD PUSH1 0xE5 SHL DUP2 MSTORE PUSH1 0x4 ADD PUSH2 0x23D SWAP1 PUSH2 0x4ED2 JUMP JUMPDEST POP POP SWAP5 SWAP4 POP POP POP POP JUMP JUMPDEST PUSH1 0x0 DUP8 PUSH1 0x80 ADD MLOAD PUSH1 0x0 EQ PUSH2 0x2070 JUMPI PUSH1 0x0 DUP1 REVERT JUMPDEST PUSH1 0x0 DUP8 PUSH1 0x80 ADD MLOAD SLT ISZERO PUSH2 0x2082 JUMPI PUSH1 0x0 DUP1 REVERT JUMPDEST DUP8 MLOAD PUSH1 0x20 DUP9 ADD MLOAD LT ISZERO PUSH2 0x20AA JUMPI PUSH1 0x40 DUP8 ADD MLOAD ISZERO PUSH2 0x209E JUMPI PUSH1 0x0 DUP1 REVERT JUMPDEST DUP8 MLOAD PUSH1 0x20 DUP9 ADD MSTORE PUSH2 0x20BB JUMP JUMPDEST DUP8 MLOAD PUSH1 0x20 DUP9 ADD MLOAD EQ PUSH2 0x20BB JUMPI PUSH1 0x0 DUP1 REVERT JUMPDEST PUSH1 0x0 DUP6 ISZERO PUSH2 0x20D6 JUMPI PUSH2 0x20D3 DUP10 DUP10 DUP9 DUP11 PUSH1 0x0 ADD MLOAD PUSH2 0x3496 JUMP JUMPDEST SWAP1 POP JUMPDEST PUSH1 0x60 DUP9 ADD MLOAD PUSH1 0x80 DUP10 ADD MLOAD DUP11 MLOAD PUSH1 0x0 SWAP3 PUSH2 0x20F3 SWAP3 DUP12 SWAP3 DUP11 DUP11 DUP11 PUSH2 0x3514 JUMP JUMPDEST SWAP1 POP PUSH2 0x210F PUSH2 0x2108 DUP12 DUP12 DUP5 DUP13 PUSH1 0x0 ADD MLOAD PUSH2 0x3496 JUMP JUMPDEST DUP4 SWAP1 PUSH2 0x30AD JUMP JUMPDEST SWAP2 POP DUP9 PUSH1 0x60 ADD MLOAD PUSH1 0x1 PUSH1 0x1 PUSH1 0xA0 SHL SUB AND DUP11 PUSH1 0x0 ADD MLOAD DUP10 PUSH1 0x0 ADD MLOAD PUSH1 0x1 PUSH1 0x1 PUSH1 0xA0 SHL SUB AND PUSH32 0x87D46C761BDD82B4A559098BEEB0D5B8FA8C0E2AA3607704FE0757618E85E24D PUSH2 0x216A DUP11 DUP15 PUSH1 0x80 ADD MLOAD PUSH2 0x30AD SWAP1 SWAP2 SWAP1 PUSH4 0xFFFFFFFF AND JUMP JUMPDEST DUP12 DUP8 PUSH1 0x40 MLOAD PUSH2 0x217B SWAP4 SWAP3 SWAP2 SWAP1 PUSH2 0x4D88 JUMP JUMPDEST PUSH1 0x40 MLOAD DUP1 SWAP2 SUB SWAP1 LOG4 PUSH1 0x0 PUSH1 0x80 DUP11 ADD MSTORE PUSH2 0x1F0F DUP8 DUP3 PUSH2 0x30AD JUMP JUMPDEST PUSH2 0x219C PUSH2 0x4960 JUMP JUMPDEST PUSH1 0x0 DUP1 PUSH1 0x0 PUSH2 0x1D03 DUP6 PUSH2 0x35CA JUMP JUMPDEST PUSH1 0x0 DUP2 PUSH2 0x21B9 JUMPI POP PUSH1 0x0 PUSH2 0x19AF JUMP JUMPDEST PUSH1 0x0 DUP1 PUSH2 0x21C6 DUP8 DUP6 PUSH2 0x158B JUMP JUMPDEST SWAP2 POP SWAP2 POP PUSH1 0x0 PUSH2 0x21E5 DUP8 PUSH1 0x40 ADD MLOAD DUP9 PUSH1 0x0 ADD MLOAD DUP9 DUP6 DUP13 PUSH1 0x0 ADD MLOAD PUSH2 0x364D JUMP JUMPDEST SWAP1 POP PUSH2 0x2209 PUSH2 0x21F3 DUP5 PUSH2 0x13FB JUMP JUMPDEST PUSH2 0x160 DUP10 ADD MLOAD PUSH2 0x2203 SWAP1 DUP5 PUSH2 0x1F1D JUMP JUMPDEST SWAP1 PUSH2 0x1DAA JUMP JUMPDEST SWAP9 SWAP8 POP POP POP POP POP POP POP POP JUMP JUMPDEST DUP1 DUP3 SUB DUP3 DUP2 SGT ISZERO PUSH1 0x0 DUP4 SLT ISZERO EQ PUSH2 0xB6B JUMPI PUSH1 0x0 DUP1 REVERT JUMPDEST PUSH1 0x0 PUSH2 0xB68 PUSH2 0x223E DUP5 PUSH4 0x3B9ACA00 PUSH2 0x1DC0 JUMP JUMPDEST DUP4 PUSH2 0x2259 JUMP JUMPDEST PUSH1 0x0 PUSH2 0xB68 PUSH2 0x2253 DUP5 DUP5 PUSH2 0x1DC0 JUMP JUMPDEST PUSH4 0x3B9ACA00 JUMPDEST PUSH1 0x0 DUP2 PUSH1 0x0 NOT EQ DUP1 ISZERO PUSH2 0x226F JUMPI POP PUSH1 0x1 PUSH1 0xFF SHL DUP4 EQ JUMPDEST ISZERO PUSH2 0x2279 JUMPI PUSH1 0x0 DUP1 REVERT JUMPDEST DUP2 DUP4 DUP2 PUSH2 0x2282 JUMPI INVALID JUMPDEST SDIV SWAP4 SWAP3 POP POP POP JUMP JUMPDEST PUSH2 0x2292 PUSH2 0x4960 JUMP JUMPDEST PUSH1 0x0 DUP1 PUSH2 0x229F DUP7 DUP7 PUSH2 0x3712 JUMP JUMPDEST SWAP2 POP SWAP2 POP DUP2 PUSH1 0x0 EQ ISZERO PUSH2 0x23CF JUMPI PUSH1 0x0 PUSH2 0x22B7 DUP8 PUSH2 0x31AE JUMP JUMPDEST SWAP2 SWAP5 POP SWAP1 SWAP3 POP SWAP1 POP PUSH1 0x1 PUSH1 0x1 PUSH1 0xA0 SHL SUB DUP2 AND ISZERO PUSH2 0x23CD JUMPI PUSH1 0x0 PUSH2 0x22D8 PUSH2 0x375B JUMP JUMPDEST SWAP1 POP DUP6 PUSH1 0x0 LT DUP1 ISZERO PUSH2 0x22EA JUMPI POP DUP6 DUP8 GT ISZERO JUMPDEST DUP1 ISZERO PUSH2 0x22FB JUMPI POP PUSH5 0xFFFFFFFFFF DUP7 GT ISZERO JUMPDEST PUSH2 0x2304 JUMPI PUSH1 0x0 DUP1 REVERT JUMPDEST DUP4 PUSH1 0x0 SLT DUP1 ISZERO PUSH2 0x231B JUMPI POP PUSH1 0x1 PUSH1 0x1 PUSH1 0x80 SHL SUB DUP5 SGT ISZERO JUMPDEST PUSH2 0x2324 JUMPI PUSH1 0x0 DUP1 REVERT JUMPDEST PUSH1 0x0 DUP9 DUP2 MSTORE PUSH1 0x20 DUP3 DUP2 MSTORE PUSH1 0x40 DUP1 DUP4 KECCAK256 DUP11 DUP5 MSTORE SWAP1 SWAP2 MSTORE SWAP1 DUP2 SWAP1 KECCAK256 DUP1 SLOAD PUSH5 0xFFFFFFFFFF NOT AND PUSH5 0xFFFFFFFFFF DUP10 AND OR PUSH21 0xFFFFFFFFFFFFFFFFFFFFFFFFFFFFFFFF0000000000 NOT AND PUSH6 0x10000000000 PUSH1 0x1 PUSH1 0x1 PUSH1 0x80 SHL SUB DUP9 AND MUL OR PUSH1 0xFF PUSH1 0xA8 SHL NOT AND PUSH1 0x1 PUSH1 0xA8 SHL PUSH1 0xFF DUP8 AND MUL OR DUP2 SSTORE SWAP1 MLOAD DUP9 SWAP1 DUP11 SWAP1 PUSH32 0xFDFA6885701E2F1F42E4187B9231CF81C1FE23671EF64FA46F34DDB56C1DC18 SWAP1 PUSH2 0x23C2 SWAP1 DUP10 SWAP1 PUSH2 0x518B JUMP JUMPDEST PUSH1 0x40 MLOAD DUP1 SWAP2 SUB SWAP1 LOG3 POP POP JUMPDEST POP JUMPDEST PUSH1 0x40 DUP1 MLOAD PUSH1 0x60 DUP2 ADD DUP3 MSTORE PUSH1 0x0 DUP2 MSTORE PUSH1 0x20 DUP2 ADD SWAP4 SWAP1 SWAP4 MSTORE PUSH1 0xFF SWAP1 SWAP2 AND PUSH1 0xA EXP SWAP1 DUP3 ADD MSTORE SWAP1 POP SWAP4 SWAP3 POP POP POP JUMP JUMPDEST PUSH1 0x0 DUP1 PUSH2 0x241E PUSH2 0x2417 PUSH2 0x2410 DUP9 PUSH1 0x80 ADD MLOAD PUSH2 0x13FB JUMP JUMPDEST DUP7 SWAP1 PUSH2 0x1984 JUMP JUMPDEST DUP5 SWAP1 PUSH2 0x1DAA JUMP JUMPDEST PUSH2 0x140 DUP7 ADD MLOAD MLOAD SWAP1 SWAP2 POP PUSH2 0xFFFF AND ISZERO ISZERO DUP1 PUSH2 0x2445 JUMPI POP PUSH2 0x140 DUP6 ADD MLOAD PUSH1 0x20 ADD MLOAD PUSH2 0xFFFF AND ISZERO ISZERO JUMPDEST ISZERO PUSH2 0x2559 JUMPI PUSH1 0x0 PUSH2 0x2454 PUSH2 0x157E JUMP JUMPDEST PUSH1 0x60 DUP10 ADD MLOAD PUSH1 0x1 PUSH1 0x1 PUSH1 0xA0 SHL SUB SWAP1 DUP2 AND PUSH1 0x0 SWAP1 DUP2 MSTORE PUSH1 0x20 SWAP3 DUP4 MSTORE PUSH1 0x40 DUP1 DUP3 KECCAK256 DUP11 MLOAD SWAP1 SWAP4 AND DUP3 MSTORE SWAP2 SWAP1 SWAP3 MSTORE DUP2 KECCAK256 DUP8 MLOAD DUP10 MLOAD PUSH2 0x140 DUP11 ADD MLOAD MLOAD DUP4 SLOAD SWAP4 SWAP6 POP DUP5 SWAP4 PUSH2 0x24AF SWAP4 SWAP3 SWAP2 SWAP1 PUSH5 0x100000000 SWAP1 DIV PUSH1 0x1 PUSH1 0x1 PUSH1 0x50 SHL SUB AND PUSH2 0x3768 JUMP JUMPDEST SWAP1 SWAP3 POP SWAP1 POP PUSH2 0x24BE DUP5 DUP4 PUSH2 0x1DAA JUMP JUMPDEST SWAP4 POP PUSH2 0x24CA DUP6 DUP3 PUSH2 0x2215 JUMP JUMPDEST DUP9 MLOAD DUP11 MLOAD PUSH2 0x140 DUP12 ADD MLOAD PUSH1 0x20 ADD MLOAD DUP7 SLOAD SWAP4 SWAP9 POP PUSH2 0x24F6 SWAP4 PUSH1 0x1 PUSH1 0x70 SHL SWAP1 DIV PUSH1 0x1 PUSH1 0x1 PUSH1 0x50 SHL SUB AND PUSH2 0x3768 JUMP JUMPDEST SWAP1 SWAP3 POP SWAP1 POP PUSH2 0x2505 DUP5 DUP4 PUSH2 0x1DAA JUMP JUMPDEST SWAP4 POP PUSH2 0x2511 DUP6 DUP3 PUSH2 0x2215 JUMP JUMPDEST SWAP5 POP PUSH2 0x251B PUSH2 0x157E JUMP JUMPDEST PUSH1 0x60 DUP12 ADD MLOAD PUSH1 0x1 PUSH1 0x1 PUSH1 0xA0 SHL SUB SWAP1 DUP2 AND PUSH1 0x0 SWAP1 DUP2 MSTORE PUSH1 0x20 SWAP3 DUP4 MSTORE PUSH1 0x40 DUP1 DUP3 KECCAK256 DUP13 MLOAD SWAP1 SWAP4 AND DUP3 MSTORE SWAP2 SWAP1 SWAP3 MSTORE SWAP1 KECCAK256 DUP1 SLOAD PUSH1 0x1 PUSH1 0x1 PUSH1 0xC0 SHL SUB NOT AND SWAP1 SSTORE POP POP POP JUMPDEST PUSH2 0x258C PUSH2 0x2585 DUP9 PUSH1 0x0 ADD MLOAD PUSH2 0x2203 PUSH2 0x2574 DUP11 PUSH1 0x60 ADD MLOAD PUSH2 0x13FB JUMP JUMPDEST PUSH2 0x11D2 DUP7 PUSH2 0x1277 DUP15 PUSH1 0x40 ADD MLOAD PUSH2 0x13FB JUMP JUMPDEST DUP4 SWAP1 PUSH2 0x1DAA JUMP JUMPDEST SWAP2 POP PUSH1 0x0 DUP3 SLT ISZERO PUSH2 0x25B9 JUMPI PUSH2 0x25AF PUSH2 0x25A4 DUP6 DUP5 PUSH2 0x1F1D JUMP JUMPDEST PUSH1 0x80 DUP10 ADD MLOAD SWAP1 PUSH2 0x1DAA JUMP JUMPDEST PUSH1 0x80 DUP9 ADD MSTORE PUSH1 0x0 SWAP2 POP JUMPDEST POP SWAP6 SWAP5 POP POP POP POP POP JUMP JUMPDEST PUSH1 0x0 DUP1 PUSH1 0x0 PUSH2 0x25EF PUSH2 0x25E2 DUP9 PUSH1 0x20 ADD MLOAD DUP9 PUSH2 0x1F1D SWAP1 SWAP2 SWAP1 PUSH4 0xFFFFFFFF AND JUMP JUMPDEST PUSH2 0x2203 DUP10 PUSH1 0x80 ADD MLOAD PUSH2 0x13FB JUMP JUMPDEST SWAP1 POP PUSH1 0x0 PUSH2 0x2601 DUP6 PUSH2 0x2203 DUP10 DUP6 PUSH2 0x1984 JUMP JUMPDEST SWAP1 POP PUSH2 0x2621 PUSH2 0xEA6 DUP3 PUSH2 0x11D2 PUSH2 0x261A DUP13 PUSH1 0xA0 ADD MLOAD PUSH2 0x13FB JUMP JUMPDEST DUP11 SWAP1 PUSH2 0x1DC0 JUMP JUMPDEST SWAP3 POP PUSH2 0x2631 DUP2 PUSH2 0x11D2 DUP9 DUP6 PUSH2 0x1DC0 JUMP JUMPDEST SWAP4 POP POP POP PUSH1 0x0 PUSH2 0x263F PUSH2 0x37FC JUMP JUMPDEST DUP9 MLOAD PUSH1 0x1 PUSH1 0x1 PUSH1 0xA0 SHL SUB AND PUSH1 0x0 SWAP1 DUP2 MSTORE PUSH1 0x20 SWAP2 DUP3 MSTORE PUSH1 0x40 DUP1 DUP3 KECCAK256 DUP11 MLOAD DUP4 MSTORE SWAP1 SWAP3 MSTORE KECCAK256 DUP1 SLOAD SWAP1 SWAP2 POP PUSH1 0x1 PUSH1 0x1 PUSH1 0x50 SHL SUB DUP2 AND SWAP1 PUSH1 0x1 PUSH1 0x50 SHL SWAP1 DIV PUSH1 0x9 SWAP1 DUP2 SIGNEXTEND SWAP1 SIGNEXTEND DUP4 DUP3 LT ISZERO PUSH2 0x26C3 JUMPI PUSH2 0x26B6 PUSH2 0x26AF PUSH2 0x26A8 PUSH4 0x5F5E100 PUSH2 0x11D2 DUP14 PUSH1 0xC0 ADD MLOAD PUSH2 0x1277 DUP9 DUP12 SUB PUSH2 0x13FB JUMP JUMPDEST DUP11 SWAP1 PUSH2 0x1F1D JUMP JUMPDEST DUP7 SWAP1 PUSH2 0x1DAA JUMP JUMPDEST SWAP5 POP SWAP1 SWAP3 POP PUSH1 0x0 SWAP1 PUSH2 0x26C9 JUMP JUMPDEST DUP4 DUP3 SUB SWAP2 POP JUMPDEST DUP3 SLOAD PUSH1 0x1 PUSH1 0x1 PUSH1 0x50 SHL SUB NOT AND PUSH1 0x1 PUSH1 0x1 PUSH1 0x50 SHL SUB DUP4 AND OR DUP4 SSTORE PUSH1 0x0 DUP6 SLT ISZERO PUSH2 0x26F0 JUMPI PUSH1 0x0 DUP1 REVERT JUMPDEST DUP5 DUP2 SLT ISZERO PUSH2 0x2763 JUMPI PUSH1 0x0 DUP1 DUP3 SGT PUSH2 0x2707 JUMPI DUP6 PUSH2 0x270B JUMP JUMPDEST DUP2 DUP7 SUB JUMPDEST SWAP1 POP PUSH1 0x0 PUSH2 0x2727 DUP13 PUSH1 0x0 ADD MLOAD DUP14 PUSH1 0x40 ADD MLOAD DUP5 DUP15 PUSH1 0x0 ADD MLOAD PUSH2 0x3809 JUMP JUMPDEST SWAP1 POP PUSH1 0x0 DUP4 SGT ISZERO PUSH2 0x2758 JUMPI PUSH2 0x273C DUP4 DUP3 PUSH2 0x1DAA JUMP JUMPDEST DUP6 SLOAD PUSH1 0x1 PUSH1 0x50 SHL PUSH1 0x1 PUSH1 0xA0 SHL SUB NOT AND DUP7 SSTORE SWAP7 POP PUSH1 0x0 SWAP3 POP PUSH2 0x275C JUMP JUMPDEST DUP1 SWAP7 POP JUMPDEST POP POP PUSH2 0x27A2 JUMP JUMPDEST PUSH2 0x276D DUP2 DUP7 PUSH2 0x2215 JUMP JUMPDEST SWAP1 POP PUSH2 0x2778 DUP2 PUSH2 0x3931 JUMP JUMPDEST DUP4 SLOAD PUSH1 0x9 SWAP2 SWAP1 SWAP2 SIGNEXTEND PUSH1 0x1 PUSH1 0x1 PUSH1 0x50 SHL SUB AND PUSH1 0x1 PUSH1 0x50 SHL MUL PUSH1 0x1 PUSH1 0x50 SHL PUSH1 0x1 PUSH1 0xA0 SHL SUB NOT SWAP1 SWAP2 AND OR DUP4 SSTORE JUMPDEST DUP9 PUSH1 0x0 ADD MLOAD DUP11 PUSH1 0x0 ADD MLOAD PUSH1 0x1 PUSH1 0x1 PUSH1 0xA0 SHL SUB AND PUSH32 0xF5B347A56F0B5140F05EEC05FF743978670A56685689FDC2C3193D71CFAC31A9 DUP4 DUP6 PUSH1 0x40 MLOAD PUSH2 0x27E6 SWAP3 SWAP2 SWAP1 PUSH2 0x4D7A JUMP JUMPDEST PUSH1 0x40 MLOAD DUP1 SWAP2 SUB SWAP1 LOG3 POP POP POP SWAP6 POP SWAP6 SWAP4 POP POP POP POP JUMP JUMPDEST PUSH1 0x0 PUSH4 0x5F5E100 DUP4 PUSH1 0x40 ADD MLOAD EQ ISZERO PUSH2 0x2814 JUMPI POP DUP1 PUSH2 0xB6B JUMP JUMPDEST PUSH2 0xB68 PUSH4 0x5F5E100 PUSH2 0x11D2 DUP6 PUSH1 0x40 ADD MLOAD DUP6 PUSH2 0x1DC0 SWAP1 SWAP2 SWAP1 PUSH4 0xFFFFFFFF AND JUMP JUMPDEST DUP1 PUSH1 0x5 DUP6 PUSH1 0x60 ADD MLOAD PUSH1 0x5 DUP2 GT ISZERO PUSH2 0x2846 JUMPI INVALID JUMPDEST EQ ISZERO PUSH2 0x286B JUMPI PUSH1 0x0 PUSH2 0x2857 DUP5 PUSH2 0x2CC0 JUMP JUMPDEST SWAP1 POP PUSH2 0x2867 DUP2 PUSH1 0x0 ADD MLOAD DUP5 PUSH2 0x3112 JUMP JUMPDEST SWAP3 POP POP JUMPDEST PUSH1 0x0 DUP3 SGT ISZERO PUSH2 0x2897 JUMPI PUSH1 0x0 PUSH2 0x2881 DUP7 DUP7 DUP6 PUSH2 0x3961 JUMP JUMPDEST SWAP1 POP DUP6 PUSH1 0x20 ADD MLOAD ISZERO PUSH2 0x2891 JUMPI DUP1 SWAP2 POP JUMPDEST POP PUSH2 0x19AF JUMP JUMPDEST PUSH1 0x3 DUP6 PUSH1 0x60 ADD MLOAD PUSH1 0x5 DUP2 GT ISZERO PUSH2 0x28A9 JUMPI INVALID JUMPDEST EQ ISZERO PUSH2 0x28C6 JUMPI PUSH2 0x28C1 DUP5 PUSH2 0x28BC DUP5 PUSH2 0xDAF JUMP JUMPDEST PUSH2 0x2CD3 JUMP JUMPDEST PUSH2 0x19AF JUMP JUMPDEST DUP5 MLOAD PUSH2 0x19AF SWAP1 DUP6 PUSH2 0x28D6 DUP6 PUSH2 0xDAF JUMP JUMPDEST PUSH2 0x3A4A JUMP JUMPDEST PUSH1 0x0 DUP1 PUSH1 0x2 DUP7 PUSH1 0x60 ADD MLOAD PUSH1 0x5 DUP2 GT ISZERO PUSH2 0x28F0 JUMPI INVALID JUMPDEST EQ ISZERO PUSH2 0x2908 JUMPI PUSH2 0x2901 DUP7 DUP6 DUP6 PUSH2 0x3AC1 JUMP JUMPDEST SWAP1 POP PUSH2 0x2965 JUMP JUMPDEST PUSH1 0x0 PUSH2 0x2913 DUP7 PUSH2 0x2CC0 JUMP JUMPDEST SWAP1 POP PUSH1 0x5 DUP8 PUSH1 0x60 ADD MLOAD PUSH1 0x5 DUP2 GT ISZERO PUSH2 0x2927 JUMPI INVALID JUMPDEST EQ ISZERO PUSH2 0x293F JUMPI PUSH2 0x2938 DUP2 DUP7 DUP7 PUSH2 0x3B7E JUMP JUMPDEST SWAP2 POP PUSH2 0x2963 JUMP JUMPDEST PUSH1 0x1 DUP8 PUSH1 0x60 ADD MLOAD PUSH1 0x5 DUP2 GT ISZERO PUSH2 0x2951 JUMPI INVALID JUMPDEST EQ ISZERO PUSH2 0x9C JUMPI PUSH2 0x2938 DUP8 DUP3 DUP8 DUP8 PUSH2 0x3C2F JUMP JUMPDEST POP JUMPDEST PUSH2 0x2971 PUSH2 0xE27 DUP3 PUSH2 0x13FB JUMP JUMPDEST SWAP7 SWAP6 POP POP POP POP POP POP JUMP JUMPDEST PUSH1 0x0 DUP1 PUSH1 0x0 PUSH2 0x2991 DUP8 PUSH1 0x40 ADD MLOAD PUSH2 0xFFFF AND PUSH2 0x181E JUMP JUMPDEST SWAP1 POP PUSH1 0x0 PUSH1 0x4 DUP3 PUSH1 0x60 ADD MLOAD PUSH1 0x5 DUP2 GT ISZERO PUSH2 0x29A7 JUMPI INVALID JUMPDEST EQ PUSH2 0x29C2 JUMPI PUSH2 0x29BD DUP9 PUSH1 0x40 ADD MLOAD PUSH2 0xFFFF AND PUSH2 0x2CC0 JUMP JUMPDEST PUSH2 0x29C4 JUMP JUMPDEST DUP2 JUMPDEST SWAP1 POP PUSH1 0x0 DUP1 DUP9 PUSH1 0x80 ADD MLOAD SLT ISZERO PUSH2 0x2A37 JUMPI PUSH1 0x4 DUP4 PUSH1 0x60 ADD MLOAD PUSH1 0x5 DUP2 GT ISZERO PUSH2 0x29E6 JUMPI INVALID JUMPDEST EQ ISZERO PUSH2 0x2A03 JUMPI PUSH2 0x29FC PUSH2 0xEA6 DUP10 PUSH1 0x80 ADD MLOAD PUSH2 0xDAF JUMP JUMPDEST SWAP1 POP PUSH2 0x2A37 JUMP JUMPDEST PUSH1 0x0 PUSH2 0x2A24 PUSH2 0xE27 DUP11 PUSH1 0x80 ADD MLOAD DUP13 PUSH2 0x160 ADD MLOAD PUSH2 0x1984 SWAP1 SWAP2 SWAP1 PUSH4 0xFFFFFFFF AND JUMP JUMPDEST SWAP1 POP PUSH2 0x2A33 PUSH2 0xEA6 DUP5 DUP4 PUSH2 0x3D2D JUMP JUMPDEST SWAP2 POP POP JUMPDEST PUSH1 0x40 DUP9 ADD MLOAD PUSH1 0x0 SWAP1 ISZERO PUSH2 0x2B0F JUMPI PUSH1 0x0 PUSH2 0x2A50 DUP5 ADDRESS PUSH2 0x2D09 JUMP JUMPDEST SWAP1 POP DUP11 PUSH1 0x0 ADD MLOAD PUSH1 0x1 PUSH1 0x1 PUSH1 0xA0 SHL SUB AND PUSH4 0x44F05108 DUP12 PUSH1 0x0 ADD MLOAD DUP13 PUSH1 0x20 ADD MLOAD DUP14 PUSH1 0x40 ADD MLOAD DUP15 PUSH1 0x60 ADD MLOAD DUP9 DUP16 DUP16 PUSH1 0x40 MLOAD DUP9 PUSH4 0xFFFFFFFF AND PUSH1 0xE0 SHL DUP2 MSTORE PUSH1 0x4 ADD PUSH2 0x2A9E SWAP8 SWAP7 SWAP6 SWAP5 SWAP4 SWAP3 SWAP2 SWAP1 PUSH2 0x4C89 JUMP JUMPDEST PUSH1 0x20 PUSH1 0x40 MLOAD DUP1 DUP4 SUB DUP2 PUSH1 0x0 DUP8 DUP1 EXTCODESIZE ISZERO DUP1 ISZERO PUSH2 0x2AB8 JUMPI PUSH1 0x0 DUP1 REVERT JUMPDEST POP GAS CALL ISZERO DUP1 ISZERO PUSH2 0x2ACC JUMPI RETURNDATASIZE PUSH1 0x0 DUP1 RETURNDATACOPY RETURNDATASIZE PUSH1 0x0 REVERT JUMPDEST POP POP POP POP PUSH1 0x40 MLOAD RETURNDATASIZE PUSH1 0x1F NOT PUSH1 0x1F DUP3 ADD AND DUP3 ADD DUP1 PUSH1 0x40 MSTORE POP DUP2 ADD SWAP1 PUSH2 0x2AF0 SWAP2 SWAP1 PUSH2 0x4C33 JUMP JUMPDEST SWAP6 POP PUSH1 0x0 PUSH2 0x2AFE DUP6 ADDRESS PUSH2 0x2D09 JUMP JUMPDEST SWAP1 POP PUSH2 0x2B0A DUP2 DUP4 PUSH2 0x196F JUMP JUMPDEST SWAP3 POP POP POP JUMPDEST DUP2 DUP2 LT ISZERO PUSH2 0x2BAA JUMPI DUP1 DUP3 SUB PUSH1 0x3 DUP5 PUSH1 0x60 ADD MLOAD PUSH1 0x5 DUP2 GT ISZERO PUSH2 0x2B2C JUMPI INVALID JUMPDEST EQ ISZERO PUSH2 0x2B6A JUMPI CALLVALUE DUP2 GT ISZERO PUSH2 0x2B52 JUMPI PUSH1 0x40 MLOAD PUSH3 0x461BCD PUSH1 0xE5 SHL DUP2 MSTORE PUSH1 0x4 ADD PUSH2 0x23D SWAP1 PUSH2 0x4E4C JUMP JUMPDEST PUSH2 0x2B62 DUP11 PUSH1 0x0 ADD MLOAD DUP3 CALLVALUE SUB PUSH2 0x2CD3 JUMP JUMPDEST DUP3 SWAP2 POP PUSH2 0x2BA8 JUMP JUMPDEST PUSH1 0x0 PUSH2 0x2B8F DUP12 PUSH1 0x0 ADD MLOAD DUP14 PUSH1 0x40 ADD MLOAD PUSH2 0xFFFF AND PUSH2 0x2B86 DUP6 PUSH2 0x13FB JUMP JUMPDEST DUP9 SWAP3 SWAP2 SWAP1 PUSH2 0x2833 JUMP JUMPDEST SWAP1 POP PUSH2 0x2BA4 PUSH2 0x2B9D DUP3 PUSH2 0x191A JUMP JUMPDEST DUP5 SWAP1 PUSH2 0x30AD JUMP JUMPDEST SWAP3 POP POP JUMPDEST POP JUMPDEST DUP2 DUP2 LT ISZERO PUSH2 0x2BCA JUMPI PUSH1 0x40 MLOAD PUSH3 0x461BCD PUSH1 0xE5 SHL DUP2 MSTORE PUSH1 0x4 ADD PUSH2 0x23D SWAP1 PUSH2 0x4E4C JUMP JUMPDEST PUSH1 0x0 PUSH1 0x4 DUP6 PUSH1 0x60 ADD MLOAD PUSH1 0x5 DUP2 GT ISZERO PUSH2 0x2BDE JUMPI INVALID JUMPDEST EQ ISZERO PUSH2 0x2BF4 JUMPI PUSH2 0x2BED DUP3 PUSH2 0x13FB JUMP JUMPDEST SWAP1 POP PUSH2 0x2C0E JUMP JUMPDEST DUP2 ISZERO PUSH2 0x2C0E JUMPI PUSH1 0x40 DUP12 ADD MLOAD PUSH2 0x2C0B SWAP1 DUP7 SWAP1 DUP5 PUSH2 0x3D62 JUMP JUMPDEST SWAP1 POP JUMPDEST PUSH2 0x2C18 DUP6 DUP3 PUSH2 0x2F77 JUMP JUMPDEST SWAP7 POP POP POP POP POP POP SWAP5 POP SWAP5 SWAP3 POP POP POP JUMP JUMPDEST PUSH1 0x0 PUSH4 0xFFFFFFFF DUP3 GT ISZERO PUSH2 0x1411 JUMPI PUSH1 0x0 DUP1 REVERT JUMPDEST PUSH1 0x0 PUSH3 0xF4240 DUP3 PUSH1 0x1A DUP2 GT ISZERO PUSH2 0x2C4D JUMPI INVALID JUMPDEST ADD SWAP3 SWAP2 POP POP JUMP JUMPDEST PUSH1 0x0 DUP1 PUSH1 0x0 DUP1 PUSH1 0x0 DUP1 PUSH2 0x2C65 PUSH2 0x3E49 JUMP JUMPDEST PUSH1 0x1 PUSH1 0x1 PUSH1 0xA0 SHL SUB SWAP1 SWAP8 AND PUSH1 0x0 SWAP1 DUP2 MSTORE PUSH1 0x20 SWAP8 SWAP1 SWAP8 MSTORE POP POP PUSH1 0x40 SWAP1 SWAP5 KECCAK256 SLOAD PUSH2 0xFFFF DUP2 AND SWAP6 PUSH4 0xFFFFFFFF PUSH3 0x10000 DUP4 DIV DUP2 AND SWAP7 POP PUSH7 0x1000000000000 DUP4 DIV AND SWAP5 POP PUSH1 0xFF PUSH1 0x1 PUSH1 0x50 SHL DUP4 DIV AND SWAP4 POP PUSH1 0x1 PUSH1 0x58 SHL SWAP1 SWAP2 DIV PUSH1 0xD8 SHL SWAP2 POP JUMP JUMPDEST PUSH2 0x2CC8 PUSH2 0x4931 JUMP JUMPDEST PUSH2 0xDBD DUP3 PUSH1 0x1 PUSH2 0x2E42 JUMP JUMPDEST PUSH1 0x40 MLOAD PUSH1 0x1 PUSH1 0x1 PUSH1 0xA0 SHL SUB DUP4 AND SWAP1 DUP3 ISZERO PUSH2 0x8FC MUL SWAP1 DUP4 SWAP1 PUSH1 0x0 DUP2 DUP2 DUP2 DUP6 DUP9 DUP9 CALL SWAP4 POP POP POP POP ISZERO DUP1 ISZERO PUSH2 0xC1D JUMPI RETURNDATASIZE PUSH1 0x0 DUP1 RETURNDATACOPY RETURNDATASIZE PUSH1 0x0 REVERT JUMPDEST PUSH1 0x0 PUSH1 0x3 DUP4 PUSH1 0x60 ADD MLOAD PUSH1 0x5 DUP2 GT ISZERO PUSH2 0x2D1D JUMPI INVALID JUMPDEST EQ ISZERO PUSH2 0x2D34 JUMPI POP PUSH1 0x1 PUSH1 0x1 PUSH1 0xA0 SHL SUB DUP2 AND BALANCE PUSH2 0xB6B JUMP JUMPDEST DUP3 MLOAD PUSH1 0x40 MLOAD PUSH4 0x70A08231 PUSH1 0xE0 SHL DUP2 MSTORE PUSH1 0x1 PUSH1 0x1 PUSH1 0xA0 SHL SUB SWAP1 SWAP2 AND SWAP1 PUSH4 0x70A08231 SWAP1 PUSH2 0x2D63 SWAP1 DUP6 SWAP1 PUSH1 0x4 ADD PUSH2 0x4C75 JUMP JUMPDEST PUSH1 0x20 PUSH1 0x40 MLOAD DUP1 DUP4 SUB DUP2 DUP7 DUP1 EXTCODESIZE ISZERO DUP1 ISZERO PUSH2 0x2D7B JUMPI PUSH1 0x0 DUP1 REVERT JUMPDEST POP GAS STATICCALL ISZERO DUP1 ISZERO PUSH2 0x2D8F JUMPI RETURNDATASIZE PUSH1 0x0 DUP1 RETURNDATACOPY RETURNDATASIZE PUSH1 0x0 REVERT JUMPDEST POP POP POP POP PUSH1 0x40 MLOAD RETURNDATASIZE PUSH1 0x1F NOT PUSH1 0x1F DUP3 ADD AND DUP3 ADD DUP1 PUSH1 0x40 MSTORE POP DUP2 ADD SWAP1 PUSH2 0x2DB3 SWAP2 SWAP1 PUSH2 0x4C33 JUMP JUMPDEST SWAP1 POP PUSH2 0xB6B JUMP JUMPDEST DUP4 PUSH1 0x1 PUSH1 0x1 PUSH1 0xA0 SHL SUB AND PUSH4 0x23B872DD DUP5 DUP5 DUP5 PUSH1 0x40 MLOAD DUP5 PUSH4 0xFFFFFFFF AND PUSH1 0xE0 SHL DUP2 MSTORE PUSH1 0x4 ADD DUP1 DUP5 PUSH1 0x1 PUSH1 0x1 PUSH1 0xA0 SHL SUB AND DUP2 MSTORE PUSH1 0x20 ADD DUP4 PUSH1 0x1 PUSH1 0x1 PUSH1 0xA0 SHL SUB AND DUP2 MSTORE PUSH1 0x20 ADD DUP3 DUP2 MSTORE PUSH1 0x20 ADD SWAP4 POP POP POP POP PUSH1 0x0 PUSH1 0x40 MLOAD DUP1 DUP4 SUB DUP2 PUSH1 0x0 DUP8 DUP1 EXTCODESIZE ISZERO DUP1 ISZERO PUSH2 0x2E22 JUMPI PUSH1 0x0 DUP1 REVERT JUMPDEST POP GAS CALL ISZERO DUP1 ISZERO PUSH2 0x2E36 JUMPI RETURNDATASIZE PUSH1 0x0 DUP1 RETURNDATACOPY RETURNDATASIZE PUSH1 0x0 REVERT JUMPDEST POP POP POP POP PUSH2 0x1457 PUSH2 0x3E56 JUMP JUMPDEST PUSH2 0x2E4A PUSH2 0x4931 JUMP JUMPDEST PUSH1 0x0 PUSH2 0x2E54 PUSH2 0x3EC3 JUMP JUMPDEST PUSH1 0x0 DUP6 DUP2 MSTORE PUSH1 0x20 DUP3 DUP2 MSTORE PUSH1 0x40 DUP1 DUP4 KECCAK256 DUP8 ISZERO ISZERO DUP5 MSTORE DUP3 MSTORE SWAP2 DUP3 SWAP1 KECCAK256 DUP3 MLOAD PUSH1 0xA0 DUP2 ADD DUP5 MSTORE DUP2 SLOAD PUSH1 0x1 PUSH1 0x1 PUSH1 0xA0 SHL SUB DUP2 AND DUP3 MSTORE PUSH1 0xFF PUSH1 0x1 PUSH1 0xA0 SHL DUP3 DIV DUP2 AND ISZERO ISZERO SWAP5 DUP4 ADD SWAP5 SWAP1 SWAP5 MSTORE PUSH1 0x1 PUSH1 0xB0 SHL DUP2 DIV DUP5 AND PUSH1 0xA EXP SWAP5 DUP3 ADD SWAP5 SWAP1 SWAP5 MSTORE SWAP4 SWAP5 POP SWAP3 SWAP2 PUSH1 0x60 DUP4 ADD SWAP2 PUSH1 0x1 PUSH1 0xA8 SHL SWAP1 SWAP2 DIV AND PUSH1 0x5 DUP2 GT ISZERO PUSH2 0x2EC9 JUMPI INVALID JUMPDEST DUP2 MSTORE SWAP2 SLOAD PUSH1 0x1 PUSH1 0xB8 SHL SWAP1 DIV PUSH9 0xFFFFFFFFFFFFFFFFFF AND PUSH1 0x20 SWAP1 SWAP3 ADD SWAP2 SWAP1 SWAP2 MSTORE SWAP5 SWAP4 POP POP POP POP JUMP JUMPDEST PUSH1 0x0 DUP2 PUSH2 0x2EFF JUMPI POP PUSH1 0x0 PUSH2 0xB6B JUMP JUMPDEST PUSH1 0x0 DUP3 SGT PUSH2 0x2F0C JUMPI PUSH1 0x0 DUP1 REVERT JUMPDEST PUSH1 0x0 PUSH2 0x2F17 DUP5 PUSH2 0x2CC0 JUMP JUMPDEST SWAP1 POP PUSH1 0x0 PUSH2 0x2F28 DUP3 PUSH1 0x0 ADD MLOAD PUSH2 0x3ED0 JUMP JUMPDEST SWAP1 POP PUSH1 0x2 DUP2 SDIV PUSH12 0x33B2E3C9FD0803CE8000000 PUSH1 0x1 PUSH1 0x1 PUSH1 0xFF SHL SUB DUP3 SWAP1 SUB SDIV DUP6 SGT ISZERO PUSH2 0x2F53 JUMPI PUSH1 0x0 DUP1 REVERT JUMPDEST DUP2 DUP2 PUSH12 0x33B2E3C9FD0803CE8000000 DUP8 MUL ADD DUP2 PUSH2 0x2F6C JUMPI INVALID JUMPDEST SDIV SWAP7 SWAP6 POP POP POP POP POP POP JUMP JUMPDEST PUSH1 0x0 PUSH4 0x5F5E100 DUP4 PUSH1 0x40 ADD MLOAD EQ ISZERO PUSH2 0x2F90 JUMPI POP DUP1 PUSH2 0xB6B JUMP JUMPDEST PUSH1 0x40 DUP4 ADD MLOAD PUSH2 0xB68 SWAP1 PUSH2 0x11D2 DUP5 PUSH4 0x5F5E100 PUSH2 0x1DC0 JUMP JUMPDEST PUSH1 0x0 DUP1 PUSH2 0x2FB2 PUSH2 0x3F5B JUMP JUMPDEST PUSH1 0x1 PUSH1 0x1 PUSH1 0xA0 SHL SUB DUP7 AND PUSH1 0x0 SWAP1 DUP2 MSTORE PUSH1 0x20 SWAP2 DUP3 MSTORE PUSH1 0x40 DUP1 DUP3 KECCAK256 PUSH2 0xFFFF DUP9 AND DUP4 MSTORE SWAP1 SWAP3 MSTORE KECCAK256 DUP1 SLOAD SWAP1 SWAP2 POP PUSH2 0x2FF5 SWAP1 PUSH1 0x1 PUSH1 0x50 SHL SWAP1 DIV PUSH1 0x1 PUSH1 0x1 PUSH1 0x50 SHL SUB AND DUP5 PUSH2 0x2215 JUMP JUMPDEST SWAP2 POP PUSH1 0x0 DUP4 SLT ISZERO PUSH2 0x302A JUMPI DUP1 SLOAD PUSH1 0x1 PUSH1 0x1 PUSH1 0x50 SHL SUB AND DUP3 SGT ISZERO PUSH2 0x302A JUMPI PUSH1 0x40 MLOAD PUSH3 0x461BCD PUSH1 0xE5 SHL DUP2 MSTORE PUSH1 0x4 ADD PUSH2 0x23D SWAP1 PUSH2 0x4EFC JUMP JUMPDEST PUSH2 0x3036 PUSH2 0xEAB DUP4 PUSH2 0x191A JUMP JUMPDEST DUP2 SLOAD PUSH1 0x1 PUSH1 0x1 PUSH1 0x50 SHL SUB SWAP2 SWAP1 SWAP2 AND PUSH1 0x1 PUSH1 0x50 SHL MUL PUSH1 0x1 PUSH1 0x50 SHL PUSH1 0x1 PUSH1 0xA0 SHL SUB NOT SWAP1 SWAP2 AND OR DUP2 SSTORE PUSH1 0x40 MLOAD PUSH2 0xFFFF DUP6 AND SWAP1 PUSH1 0x1 PUSH1 0x1 PUSH1 0xA0 SHL SUB DUP8 AND SWAP1 PUSH32 0x20478EF460E49D010960D4F3FFF35D8DAE385443ABFAC09035D6A2CCBCD834C4 SWAP1 PUSH2 0x309D SWAP1 DUP7 SWAP1 PUSH2 0x4D71 JUMP JUMPDEST PUSH1 0x40 MLOAD DUP1 SWAP2 SUB SWAP1 LOG3 POP SWAP4 SWAP3 POP POP POP JUMP JUMPDEST PUSH1 0x0 DUP3 DUP3 ADD DUP4 DUP2 LT ISZERO PUSH2 0xB68 JUMPI PUSH1 0x0 DUP1 REVERT JUMPDEST PUSH1 0x0 PUSH2 0x3106 DUP8 PUSH1 0x40 MLOAD DUP1 PUSH1 0xA0 ADD PUSH1 0x40 MSTORE DUP1 DUP10 PUSH1 0x1 PUSH1 0x1 PUSH1 0xA0 SHL SUB AND DUP2 MSTORE PUSH1 0x20 ADD DUP10 PUSH1 0x1 PUSH1 0x1 PUSH1 0xA0 SHL SUB AND DUP2 MSTORE PUSH1 0x20 ADD DUP9 DUP2 MSTORE PUSH1 0x20 ADD DUP8 DUP2 MSTORE PUSH1 0x20 ADD PUSH1 0x0 DUP2 MSTORE POP DUP6 DUP6 PUSH2 0x297B JUMP JUMPDEST POP SWAP8 SWAP7 POP POP POP POP POP POP POP JUMP JUMPDEST PUSH1 0x0 DUP2 PUSH2 0x3121 JUMPI POP PUSH1 0x0 PUSH2 0xB6B JUMP JUMPDEST PUSH1 0x0 PUSH2 0x312C DUP5 PUSH2 0x3ED0 JUMP JUMPDEST SWAP1 POP PUSH1 0x0 PUSH2 0x3139 DUP5 PUSH2 0x3271 JUMP JUMPDEST SWAP1 POP DUP2 PUSH12 0x19D971E4FE8401E74000001 PUSH1 0x1 PUSH1 0xFF SHL SUB DUP2 PUSH2 0x3156 JUMPI INVALID JUMPDEST SDIV DUP2 SGT ISZERO PUSH2 0x3163 JUMPI PUSH1 0x0 DUP1 REVERT JUMPDEST PUSH12 0x33B2E3C9FD0803CE8000000 PUSH12 0x19D971E4FE8401E74000000 DUP4 DUP4 MUL ADD SDIV PUSH1 0x0 DUP6 SGT PUSH2 0x3198 JUMPI PUSH2 0x3193 DUP2 PUSH2 0xDAF JUMP JUMPDEST PUSH2 0x2971 JUMP JUMPDEST SWAP6 SWAP5 POP POP POP POP POP JUMP JUMPDEST PUSH1 0x0 DUP1 PUSH2 0xB6B PUSH1 0x14 PUSH2 0x2C3B JUMP JUMPDEST PUSH1 0x0 DUP1 PUSH1 0x0 DUP1 PUSH1 0x0 PUSH2 0x31BF DUP7 PUSH2 0x3F68 JUMP JUMPDEST SWAP1 SWAP3 POP SWAP1 POP PUSH1 0x0 PUSH1 0x1 PUSH1 0x1 PUSH1 0xA0 SHL SUB DUP4 AND PUSH2 0x31E4 JUMPI POP PUSH1 0x0 SWAP1 POP PUSH5 0x2540BE400 PUSH2 0x3266 JUMP JUMPDEST DUP3 PUSH1 0x1 PUSH1 0x1 PUSH1 0xA0 SHL SUB AND PUSH4 0x1EE10833 PUSH1 0x40 MLOAD DUP2 PUSH4 0xFFFFFFFF AND PUSH1 0xE0 SHL DUP2 MSTORE PUSH1 0x4 ADD PUSH1 0x20 PUSH1 0x40 MLOAD DUP1 DUP4 SUB DUP2 PUSH1 0x0 DUP8 DUP1 EXTCODESIZE ISZERO DUP1 ISZERO PUSH2 0x321F JUMPI PUSH1 0x0 DUP1 REVERT JUMPDEST POP GAS CALL ISZERO DUP1 ISZERO PUSH2 0x3233 JUMPI RETURNDATASIZE PUSH1 0x0 DUP1 RETURNDATACOPY RETURNDATASIZE PUSH1 0x0 REVERT JUMPDEST POP POP POP POP PUSH1 0x40 MLOAD RETURNDATASIZE PUSH1 0x1F NOT PUSH1 0x1F DUP3 ADD AND DUP3 ADD DUP1 PUSH1 0x40 MSTORE POP DUP2 ADD SWAP1 PUSH2 0x3257 SWAP2 SWAP1 PUSH2 0x4C33 JUMP JUMPDEST SWAP1 POP PUSH1 0x0 DUP2 SGT PUSH2 0x3266 JUMPI PUSH1 0x0 DUP1 REVERT JUMPDEST SWAP7 SWAP2 SWAP6 POP SWAP4 POP SWAP2 POP POP JUMP JUMPDEST PUSH1 0x0 DUP1 DUP3 SLT ISZERO PUSH2 0x328B JUMPI PUSH2 0x3284 DUP3 PUSH2 0xDAF JUMP JUMPDEST SWAP1 POP PUSH2 0xDC0 JUMP JUMPDEST POP DUP1 PUSH2 0xDC0 JUMP JUMPDEST PUSH1 0x0 DUP4 SGT ISZERO PUSH2 0x32A0 JUMPI PUSH1 0x0 DUP1 REVERT JUMPDEST PUSH1 0x0 PUSH2 0x32CA PUSH4 0x1DA9C00 PUSH2 0x11D2 PUSH2 0x32BF PUSH2 0x32BA DUP8 DUP8 PUSH2 0x196F JUMP JUMPDEST PUSH2 0x13FB JUMP JUMPDEST PUSH1 0x80 DUP11 ADD MLOAD SWAP1 PUSH2 0x1DC0 JUMP JUMPDEST SWAP1 POP PUSH1 0x0 PUSH2 0x32F0 PUSH2 0x32E4 DUP4 PUSH2 0x32DE DUP9 PUSH2 0xDAF JUMP JUMPDEST SWAP1 PUSH2 0x2244 JUMP JUMPDEST PUSH2 0x160 DUP10 ADD MLOAD SWAP1 PUSH2 0x1F1D JUMP JUMPDEST SWAP1 POP PUSH1 0x0 PUSH2 0x3310 PUSH1 0x64 PUSH2 0x11D2 DUP11 PUSH1 0xE0 ADD MLOAD DUP6 PUSH2 0x1DC0 SWAP1 SWAP2 SWAP1 PUSH4 0xFFFFFFFF AND JUMP JUMPDEST SWAP1 POP PUSH1 0x0 PUSH2 0x331E DUP4 DUP4 PUSH2 0x2215 JUMP JUMPDEST SWAP1 POP PUSH2 0x3332 DUP10 PUSH1 0x40 ADD MLOAD PUSH2 0xFFFF AND DUP4 PUSH2 0x3F9F JUMP JUMPDEST PUSH2 0x3344 DUP10 PUSH1 0x40 ADD MLOAD PUSH2 0xFFFF AND DUP3 PUSH2 0x4026 JUMP JUMPDEST PUSH1 0x80 DUP9 ADD MLOAD PUSH2 0x3353 SWAP1 DUP5 PUSH2 0x2215 JUMP JUMPDEST DUP9 PUSH1 0x80 ADD DUP2 DUP2 MSTORE POP POP DUP6 DUP10 PUSH1 0x40 ADD MLOAD PUSH2 0xFFFF AND DUP11 PUSH1 0x0 ADD MLOAD PUSH1 0x1 PUSH1 0x1 PUSH1 0xA0 SHL SUB AND PUSH32 0x7456CB4B7C3068832FB334A03D3CD8E440286BAD834CB9E332DF05AE6792CFBB DUP6 DUP6 PUSH1 0x40 MLOAD PUSH2 0x33A5 SWAP3 SWAP2 SWAP1 PUSH2 0x4D7A JUMP JUMPDEST PUSH1 0x40 MLOAD DUP1 SWAP2 SUB SWAP1 LOG4 POP POP POP POP POP POP POP POP POP JUMP JUMPDEST PUSH1 0x0 DUP1 PUSH2 0x33C4 DUP4 PUSH2 0x4072 JUMP JUMPDEST PUSH1 0xFF AND SWAP4 SWAP3 POP POP POP JUMP JUMPDEST PUSH1 0x0 DUP1 PUSH1 0x0 DUP6 GT PUSH2 0x33F1 JUMPI PUSH1 0x40 MLOAD PUSH3 0x461BCD PUSH1 0xE5 SHL DUP2 MSTORE PUSH1 0x4 ADD PUSH2 0x23D SWAP1 PUSH2 0x4E7C JUMP JUMPDEST PUSH1 0x7 DUP6 GT ISZERO PUSH2 0x3412 JUMPI PUSH1 0x40 MLOAD PUSH3 0x461BCD PUSH1 0xE5 SHL DUP2 MSTORE PUSH1 0x4 ADD PUSH2 0x23D SWAP1 PUSH2 0x4F47 JUMP JUMPDEST PUSH1 0x0 PUSH2 0x341D DUP5 PUSH2 0x408F JUMP JUMPDEST SWAP1 POP PUSH1 0x1 JUMPDEST DUP7 DUP2 GT PUSH2 0x3475 JUMPI PUSH1 0x0 PUSH2 0x343E PUSH2 0x3437 DUP4 PUSH2 0x40AD JUMP JUMPDEST DUP5 SWAP1 PUSH2 0x4151 JUMP JUMPDEST SWAP1 POP DUP7 DUP2 EQ ISZERO PUSH2 0x3456 JUMPI POP SWAP3 POP PUSH1 0x0 SWAP2 POP PUSH2 0x348E SWAP1 POP JUMP JUMPDEST DUP7 DUP2 GT ISZERO PUSH2 0x346C JUMPI POP SWAP3 POP PUSH1 0x1 SWAP2 POP PUSH2 0x348E SWAP1 POP JUMP JUMPDEST POP PUSH1 0x1 ADD PUSH2 0x3422 JUMP JUMPDEST POP PUSH1 0x40 MLOAD PUSH3 0x461BCD PUSH1 0xE5 SHL DUP2 MSTORE PUSH1 0x4 ADD PUSH2 0x23D SWAP1 PUSH2 0x50A6 JUMP JUMPDEST SWAP4 POP SWAP4 SWAP2 POP POP JUMP JUMPDEST PUSH1 0x0 DUP5 PUSH1 0xA0 ADD MLOAD PUSH1 0x0 EQ ISZERO PUSH2 0x34AC JUMPI POP DUP2 PUSH2 0x34CE JUMP JUMPDEST PUSH2 0x34CB DUP6 PUSH1 0xA0 ADD MLOAD PUSH2 0x9F4 DUP8 PUSH1 0x60 ADD MLOAD DUP7 PUSH2 0x1929 SWAP1 SWAP2 SWAP1 PUSH4 0xFFFFFFFF AND JUMP JUMPDEST SWAP1 POP JUMPDEST PUSH1 0xA0 DUP6 ADD MLOAD PUSH2 0x34DD SWAP1 DUP5 PUSH2 0x30AD JUMP JUMPDEST PUSH1 0xA0 DUP7 ADD MSTORE PUSH1 0x60 DUP6 ADD MLOAD PUSH2 0x34F1 SWAP1 DUP3 PUSH2 0x30AD JUMP JUMPDEST PUSH1 0x60 DUP7 ADD MSTORE PUSH1 0x40 DUP5 ADD MLOAD PUSH2 0x3505 SWAP1 DUP3 PUSH2 0x30AD JUMP JUMPDEST PUSH1 0x40 DUP6 ADD MSTORE PUSH2 0x19AF DUP6 DUP4 PUSH2 0xE53 JUMP JUMPDEST PUSH1 0x0 DUP1 PUSH2 0x352A DUP10 PUSH1 0x0 ADD MLOAD DUP11 PUSH1 0x40 ADD MLOAD DUP10 PUSH2 0x12DB JUMP JUMPDEST DUP10 MLOAD SWAP1 SWAP2 POP PUSH1 0x1 PUSH1 0x1 PUSH1 0xA0 SHL SUB AND PUSH4 0xDC6679C5 DUP10 PUSH2 0x3548 DUP5 DUP10 PUSH2 0x30AD JUMP JUMPDEST DUP10 DUP9 DUP9 PUSH1 0x40 MLOAD DUP7 PUSH4 0xFFFFFFFF AND PUSH1 0xE0 SHL DUP2 MSTORE PUSH1 0x4 ADD PUSH2 0x356B SWAP6 SWAP5 SWAP4 SWAP3 SWAP2 SWAP1 PUSH2 0x4D38 JUMP JUMPDEST PUSH1 0x20 PUSH1 0x40 MLOAD DUP1 DUP4 SUB DUP2 PUSH1 0x0 DUP8 DUP1 EXTCODESIZE ISZERO DUP1 ISZERO PUSH2 0x3585 JUMPI PUSH1 0x0 DUP1 REVERT JUMPDEST POP GAS CALL ISZERO DUP1 ISZERO PUSH2 0x3599 JUMPI RETURNDATASIZE PUSH1 0x0 DUP1 RETURNDATACOPY RETURNDATASIZE PUSH1 0x0 REVERT JUMPDEST POP POP POP POP PUSH1 0x40 MLOAD RETURNDATASIZE PUSH1 0x1F NOT PUSH1 0x1F DUP3 ADD AND DUP3 ADD DUP1 PUSH1 0x40 MSTORE POP DUP2 ADD SWAP1 PUSH2 0x35BD SWAP2 SWAP1 PUSH2 0x4C33 JUMP JUMPDEST SWAP10 SWAP9 POP POP POP POP POP POP POP POP POP JUMP JUMPDEST PUSH1 0x0 DUP1 PUSH1 0x0 DUP1 PUSH1 0x0 PUSH2 0x35DB DUP7 PUSH2 0x3F68 JUMP JUMPDEST SWAP1 SWAP3 POP SWAP1 POP PUSH1 0x0 PUSH1 0x1 PUSH1 0x1 PUSH1 0xA0 SHL SUB DUP4 AND PUSH2 0x3600 JUMPI POP PUSH1 0x0 SWAP1 POP PUSH5 0x2540BE400 PUSH2 0x3266 JUMP JUMPDEST DUP3 PUSH1 0x1 PUSH1 0x1 PUSH1 0xA0 SHL SUB AND PUSH4 0xB2FFFB04 PUSH1 0x40 MLOAD DUP2 PUSH4 0xFFFFFFFF AND PUSH1 0xE0 SHL DUP2 MSTORE PUSH1 0x4 ADD PUSH1 0x20 PUSH1 0x40 MLOAD DUP1 DUP4 SUB DUP2 DUP7 DUP1 EXTCODESIZE ISZERO DUP1 ISZERO PUSH2 0x3639 JUMPI PUSH1 0x0 DUP1 REVERT JUMPDEST POP GAS STATICCALL ISZERO DUP1 ISZERO PUSH2 0x3233 JUMPI RETURNDATASIZE PUSH1 0x0 DUP1 RETURNDATACOPY RETURNDATASIZE PUSH1 0x0 REVERT JUMPDEST PUSH1 0x0 DUP1 PUSH2 0x365D DUP8 PUSH2 0xFFFF AND PUSH2 0x2CC0 JUMP JUMPDEST SWAP1 POP DUP1 PUSH1 0x40 ADD MLOAD PUSH1 0x0 EQ ISZERO PUSH2 0x367C JUMPI PUSH2 0x3679 DUP8 PUSH2 0xFFFF AND PUSH2 0x181E JUMP JUMPDEST SWAP1 POP JUMPDEST PUSH1 0x40 MLOAD PUSH4 0xE9377111 PUSH1 0xE0 SHL DUP2 MSTORE PUSH2 0x3707 SWAP1 PUSH1 0x1 PUSH1 0x1 PUSH1 0xA0 SHL SUB DUP9 AND SWAP1 PUSH4 0xE9377111 SWAP1 PUSH2 0x36B0 SWAP1 DUP10 SWAP1 DUP10 SWAP1 DUP10 SWAP1 PUSH1 0x4 ADD PUSH2 0x4D17 JUMP JUMPDEST PUSH1 0x20 PUSH1 0x40 MLOAD DUP1 DUP4 SUB DUP2 DUP7 DUP1 EXTCODESIZE ISZERO DUP1 ISZERO PUSH2 0x36C8 JUMPI PUSH1 0x0 DUP1 REVERT JUMPDEST POP GAS STATICCALL ISZERO DUP1 ISZERO PUSH2 0x36DC JUMPI RETURNDATASIZE PUSH1 0x0 DUP1 RETURNDATACOPY RETURNDATASIZE PUSH1 0x0 REVERT JUMPDEST POP POP POP POP PUSH1 0x40 MLOAD RETURNDATASIZE PUSH1 0x1F NOT PUSH1 0x1F DUP3 ADD AND DUP3 ADD DUP1 PUSH1 0x40 MSTORE POP DUP2 ADD SWAP1 PUSH2 0x3700 SWAP2 SWAP1 PUSH2 0x4C33 JUMP JUMPDEST DUP3 SWAP1 PUSH2 0x2F77 JUMP JUMPDEST SWAP8 SWAP7 POP POP POP POP POP POP POP JUMP JUMPDEST PUSH1 0x0 DUP1 PUSH1 0x0 PUSH2 0x371F PUSH2 0x375B JUMP JUMPDEST PUSH1 0x0 SWAP6 DUP7 MSTORE PUSH1 0x20 SWAP1 DUP2 MSTORE PUSH1 0x40 DUP1 DUP8 KECCAK256 SWAP6 DUP8 MSTORE SWAP5 SWAP1 MSTORE POP POP POP SWAP1 KECCAK256 SLOAD PUSH6 0x10000000000 DUP2 DIV PUSH1 0x1 PUSH1 0x1 PUSH1 0x80 SHL SUB AND SWAP2 PUSH1 0x1 PUSH1 0xA8 SHL SWAP1 SWAP2 DIV PUSH1 0xFF AND SWAP1 JUMP JUMPDEST PUSH1 0x0 DUP1 PUSH2 0xB6B PUSH1 0x8 PUSH2 0x2C3B JUMP JUMPDEST PUSH1 0x0 DUP1 PUSH2 0xFFFF DUP5 AND PUSH2 0x377F JUMPI POP PUSH1 0x0 SWAP1 POP DUP1 PUSH2 0x37F3 JUMP JUMPDEST PUSH1 0x0 PUSH2 0x3789 PUSH2 0x41AB JUMP JUMPDEST PUSH1 0x1 PUSH1 0x1 PUSH1 0xA0 SHL SUB DUP9 AND PUSH1 0x0 SWAP1 DUP2 MSTORE PUSH1 0x20 SWAP2 DUP3 MSTORE PUSH1 0x40 DUP1 DUP3 KECCAK256 DUP10 DUP4 MSTORE DUP4 MSTORE DUP1 DUP3 KECCAK256 PUSH2 0xFFFF DUP10 AND DUP4 MSTORE SWAP1 SWAP3 MSTORE KECCAK256 DUP1 SLOAD SWAP1 SWAP2 POP PUSH1 0x1 PUSH1 0x1 PUSH1 0x50 SHL SUB PUSH1 0x1 PUSH1 0xA0 SHL DUP3 DIV DUP2 AND SWAP2 PUSH1 0x1 PUSH1 0x50 SHL SWAP1 DIV AND DUP6 ISZERO PUSH2 0x37EE JUMPI PUSH2 0x37EB PUSH2 0x32BA DUP3 PUSH2 0x9F4 DUP10 DUP7 PUSH2 0x1929 JUMP JUMPDEST SWAP4 POP JUMPDEST POP SWAP3 POP POP JUMPDEST SWAP5 POP SWAP5 SWAP3 POP POP POP JUMP JUMPDEST PUSH1 0x0 DUP1 PUSH2 0xB6B PUSH1 0x19 PUSH2 0x2C3B JUMP JUMPDEST PUSH1 0x0 PUSH2 0x3816 DUP6 PUSH1 0x0 PUSH2 0x41B8 JUMP JUMPDEST DUP5 PUSH1 0x1 PUSH1 0x1 PUSH1 0xA0 SHL SUB AND PUSH32 0x7C51C6AA77346C54CB051D9E792F9B7BDE5C28A9B57E6FB2D2DD727B38438CA9 PUSH1 0x0 PUSH1 0x40 MLOAD PUSH2 0x3850 SWAP2 SWAP1 PUSH2 0x4D66 JUMP JUMPDEST PUSH1 0x40 MLOAD DUP1 SWAP2 SUB SWAP1 LOG2 DUP2 DUP5 PUSH2 0xFFFF AND DUP7 PUSH1 0x1 PUSH1 0x1 PUSH1 0xA0 SHL SUB AND PUSH32 0x823B641D46550301006F807A26587634F15BD13749EFDC8859734377D5304A3B DUP7 PUSH1 0x40 MLOAD PUSH2 0x3897 SWAP2 SWAP1 PUSH2 0x4D71 JUMP JUMPDEST PUSH1 0x40 MLOAD DUP1 SWAP2 SUB SWAP1 LOG4 PUSH1 0x0 PUSH2 0x38B0 PUSH1 0x0 DUP7 PUSH2 0xFFFF AND PUSH2 0x4218 JUMP JUMPDEST POP POP POP SWAP1 POP DUP1 DUP5 SGT PUSH2 0x38D0 JUMPI PUSH2 0x38C8 DUP6 DUP6 DUP4 SUB PUSH2 0x42C1 JUMP JUMPDEST DUP4 SWAP2 POP PUSH2 0x3928 JUMP JUMPDEST PUSH2 0x38DB DUP6 PUSH1 0x0 PUSH2 0x42C1 JUMP JUMPDEST DUP3 DUP6 PUSH2 0xFFFF AND DUP8 PUSH1 0x1 PUSH1 0x1 PUSH1 0xA0 SHL SUB AND PUSH32 0x3A717B6924E3AD05B8C7609A2401472AF90869B52CC3C9CA69B50100B4BE6316 DUP5 DUP9 SUB PUSH1 0x40 MLOAD PUSH2 0x391C SWAP2 SWAP1 PUSH2 0x4D71 JUMP JUMPDEST PUSH1 0x40 MLOAD DUP1 SWAP2 SUB SWAP1 LOG4 DUP1 SWAP2 POP JUMPDEST POP SWAP5 SWAP4 POP POP POP POP JUMP JUMPDEST PUSH1 0x0 PUSH10 0x7FFFFFFFFFFFFFFFFFFF NOT DUP3 SLT DUP1 ISZERO SWAP1 PUSH2 0x3958 JUMPI POP PUSH10 0x7FFFFFFFFFFFFFFFFFFF DUP3 SGT ISZERO JUMPDEST PUSH2 0x1411 JUMPI PUSH1 0x0 DUP1 REVERT JUMPDEST PUSH1 0x0 DUP1 DUP1 DUP1 PUSH1 0x5 DUP8 PUSH1 0x60 ADD MLOAD PUSH1 0x5 DUP2 GT ISZERO PUSH2 0x3978 JUMPI INVALID JUMPDEST EQ PUSH2 0x398A JUMPI PUSH4 0x70A08231 PUSH1 0xE0 SHL PUSH2 0x3993 JUMP JUMPDEST PUSH4 0xED1279F PUSH1 0xE1 SHL JUMPDEST SWAP1 POP DUP7 PUSH1 0x20 ADD MLOAD ISZERO PUSH2 0x39AF JUMPI DUP7 MLOAD PUSH2 0x39AC SWAP1 ADDRESS DUP4 PUSH2 0x4324 JUMP JUMPDEST SWAP3 POP JUMPDEST DUP7 MLOAD PUSH2 0x39BC SWAP1 DUP8 DUP8 PUSH2 0x4436 JUMP JUMPDEST DUP7 PUSH1 0x20 ADD MLOAD DUP1 PUSH2 0x39D0 JUMPI POP PUSH1 0x0 DUP8 PUSH1 0x80 ADD MLOAD GT JUMPDEST ISZERO PUSH2 0x39E5 JUMPI DUP7 MLOAD PUSH2 0x39E2 SWAP1 ADDRESS DUP4 PUSH2 0x4324 JUMP JUMPDEST SWAP2 POP JUMPDEST PUSH1 0x80 DUP8 ADD MLOAD ISZERO PUSH2 0x3A20 JUMPI PUSH1 0x0 PUSH2 0x3A03 DUP9 PUSH2 0x39FE DUP6 PUSH2 0x13FB JUMP JUMPDEST PUSH2 0x2F77 JUMP JUMPDEST SWAP1 POP PUSH2 0x3A12 DUP9 PUSH1 0x80 ADD MLOAD PUSH2 0x13FB JUMP JUMPDEST DUP2 SGT ISZERO PUSH2 0x3A1E JUMPI PUSH1 0x0 DUP1 REVERT JUMPDEST POP JUMPDEST DUP7 PUSH1 0x20 ADD MLOAD ISZERO PUSH2 0x3A41 JUMPI PUSH2 0x3A37 PUSH2 0x32BA DUP4 DUP6 PUSH2 0x448E JUMP JUMPDEST SWAP4 POP POP POP POP PUSH2 0x137D JUMP JUMPDEST PUSH2 0x3A37 DUP6 PUSH2 0x13FB JUMP JUMPDEST DUP3 PUSH1 0x1 PUSH1 0x1 PUSH1 0xA0 SHL SUB AND PUSH4 0xA9059CBB DUP4 DUP4 PUSH1 0x40 MLOAD DUP4 PUSH4 0xFFFFFFFF AND PUSH1 0xE0 SHL DUP2 MSTORE PUSH1 0x4 ADD DUP1 DUP4 PUSH1 0x1 PUSH1 0x1 PUSH1 0xA0 SHL SUB AND DUP2 MSTORE PUSH1 0x20 ADD DUP3 DUP2 MSTORE PUSH1 0x20 ADD SWAP3 POP POP POP PUSH1 0x0 PUSH1 0x40 MLOAD DUP1 DUP4 SUB DUP2 PUSH1 0x0 DUP8 DUP1 EXTCODESIZE ISZERO DUP1 ISZERO PUSH2 0x3AA1 JUMPI PUSH1 0x0 DUP1 REVERT JUMPDEST POP GAS CALL ISZERO DUP1 ISZERO PUSH2 0x3AB5 JUMPI RETURNDATASIZE PUSH1 0x0 DUP1 RETURNDATACOPY RETURNDATASIZE PUSH1 0x0 REVERT JUMPDEST POP POP POP POP PUSH2 0xC1D PUSH2 0x3E56 JUMP JUMPDEST DUP3 MLOAD PUSH1 0x40 MLOAD PUSH4 0xDB006A75 PUSH1 0xE0 SHL DUP2 MSTORE PUSH1 0x0 SWAP2 SELFBALANCE SWAP2 DUP4 SWAP2 PUSH1 0x1 PUSH1 0x1 PUSH1 0xA0 SHL SUB AND SWAP1 PUSH4 0xDB006A75 SWAP1 PUSH2 0x3AF5 SWAP1 DUP8 SWAP1 PUSH1 0x4 ADD PUSH2 0x4D71 JUMP JUMPDEST PUSH1 0x20 PUSH1 0x40 MLOAD DUP1 DUP4 SUB DUP2 PUSH1 0x0 DUP8 DUP1 EXTCODESIZE ISZERO DUP1 ISZERO PUSH2 0x3B0F JUMPI PUSH1 0x0 DUP1 REVERT JUMPDEST POP GAS CALL ISZERO DUP1 ISZERO PUSH2 0x3B23 JUMPI RETURNDATASIZE PUSH1 0x0 DUP1 RETURNDATACOPY RETURNDATASIZE PUSH1 0x0 REVERT JUMPDEST POP POP POP POP PUSH1 0x40 MLOAD RETURNDATASIZE PUSH1 0x1F NOT PUSH1 0x1F DUP3 ADD AND DUP3 ADD DUP1 PUSH1 0x40 MSTORE POP DUP2 ADD SWAP1 PUSH2 0x3B47 SWAP2 SWAP1 PUSH2 0x4C33 JUMP JUMPDEST SWAP1 POP DUP1 ISZERO PUSH2 0x3B67 JUMPI PUSH1 0x40 MLOAD PUSH3 0x461BCD PUSH1 0xE5 SHL DUP2 MSTORE PUSH1 0x4 ADD PUSH2 0x23D SWAP1 PUSH2 0x4E2C JUMP JUMPDEST SELFBALANCE PUSH2 0x3B72 DUP2 DUP5 PUSH2 0x448E JUMP JUMPDEST SWAP4 POP PUSH2 0x173F DUP7 DUP6 PUSH2 0x2CD3 JUMP JUMPDEST PUSH1 0x0 PUSH2 0x3B99 PUSH2 0xEA6 DUP6 PUSH1 0x0 ADD MLOAD PUSH2 0x3B94 DUP6 PUSH2 0x13FB JUMP JUMPDEST PUSH2 0x3112 JUMP JUMPDEST SWAP1 POP PUSH2 0x3BA3 PUSH2 0x44E5 JUMP JUMPDEST SLOAD DUP5 MLOAD PUSH1 0x40 MLOAD PUSH4 0x1A4CA37B PUSH1 0xE2 SHL DUP2 MSTORE PUSH1 0x1 PUSH1 0x1 PUSH1 0xA0 SHL SUB SWAP1 SWAP3 AND SWAP2 PUSH4 0x69328DEC SWAP2 PUSH2 0x3BD5 SWAP2 DUP6 SWAP1 DUP9 SWAP1 PUSH1 0x4 ADD PUSH2 0x4CC7 JUMP JUMPDEST PUSH1 0x20 PUSH1 0x40 MLOAD DUP1 DUP4 SUB DUP2 PUSH1 0x0 DUP8 DUP1 EXTCODESIZE ISZERO DUP1 ISZERO PUSH2 0x3BEF JUMPI PUSH1 0x0 DUP1 REVERT JUMPDEST POP GAS CALL ISZERO DUP1 ISZERO PUSH2 0x3C03 JUMPI RETURNDATASIZE PUSH1 0x0 DUP1 RETURNDATACOPY RETURNDATASIZE PUSH1 0x0 REVERT JUMPDEST POP POP POP POP PUSH1 0x40 MLOAD RETURNDATASIZE PUSH1 0x1F NOT PUSH1 0x1F DUP3 ADD AND DUP3 ADD DUP1 PUSH1 0x40 MSTORE POP DUP2 ADD SWAP1 PUSH2 0x3C27 SWAP2 SWAP1 PUSH2 0x4C33 JUMP JUMPDEST POP SWAP4 SWAP3 POP POP POP JUMP JUMPDEST DUP3 MLOAD PUSH1 0x0 SWAP1 DUP2 SWAP1 PUSH2 0x3C48 SWAP1 ADDRESS PUSH4 0x70A08231 PUSH1 0xE0 SHL PUSH2 0x4324 JUMP JUMPDEST SWAP1 POP PUSH1 0x0 DUP7 PUSH1 0x0 ADD MLOAD PUSH1 0x1 PUSH1 0x1 PUSH1 0xA0 SHL SUB AND PUSH4 0xDB006A75 DUP6 PUSH1 0x40 MLOAD DUP3 PUSH4 0xFFFFFFFF AND PUSH1 0xE0 SHL DUP2 MSTORE PUSH1 0x4 ADD PUSH2 0x3C7C SWAP2 SWAP1 PUSH2 0x4D71 JUMP JUMPDEST PUSH1 0x20 PUSH1 0x40 MLOAD DUP1 DUP4 SUB DUP2 PUSH1 0x0 DUP8 DUP1 EXTCODESIZE ISZERO DUP1 ISZERO PUSH2 0x3C96 JUMPI PUSH1 0x0 DUP1 REVERT JUMPDEST POP GAS CALL ISZERO DUP1 ISZERO PUSH2 0x3CAA JUMPI RETURNDATASIZE PUSH1 0x0 DUP1 RETURNDATACOPY RETURNDATASIZE PUSH1 0x0 REVERT JUMPDEST POP POP POP POP PUSH1 0x40 MLOAD RETURNDATASIZE PUSH1 0x1F NOT PUSH1 0x1F DUP3 ADD AND DUP3 ADD DUP1 PUSH1 0x40 MSTORE POP DUP2 ADD SWAP1 PUSH2 0x3CCE SWAP2 SWAP1 PUSH2 0x4C33 JUMP JUMPDEST SWAP1 POP DUP1 ISZERO PUSH2 0x3CEE JUMPI PUSH1 0x40 MLOAD PUSH3 0x461BCD PUSH1 0xE5 SHL DUP2 MSTORE PUSH1 0x4 ADD PUSH2 0x23D SWAP1 PUSH2 0x4E2C JUMP JUMPDEST DUP6 MLOAD PUSH1 0x0 SWAP1 PUSH2 0x3D05 SWAP1 ADDRESS PUSH4 0x70A08231 PUSH1 0xE0 SHL PUSH2 0x4324 JUMP JUMPDEST SWAP1 POP PUSH2 0x3D11 DUP2 DUP5 PUSH2 0x448E JUMP JUMPDEST SWAP4 POP PUSH2 0x3D22 DUP8 PUSH1 0x0 ADD MLOAD DUP8 DUP7 PUSH2 0x3A4A JUMP JUMPDEST POP POP POP SWAP5 SWAP4 POP POP POP POP JUMP JUMPDEST PUSH1 0x0 PUSH4 0x5F5E100 DUP4 PUSH1 0x40 ADD MLOAD SLT ISZERO PUSH2 0x3D4E JUMPI PUSH2 0x2DB3 PUSH1 0x1 PUSH2 0x2203 DUP6 DUP6 PUSH2 0x27FB JUMP JUMPDEST PUSH2 0xB68 DUP4 PUSH2 0x3D5D DUP5 PUSH1 0x1 PUSH2 0x1DAA JUMP JUMPDEST PUSH2 0x27FB JUMP JUMPDEST PUSH1 0x0 DUP1 PUSH1 0x5 DUP6 PUSH1 0x60 ADD MLOAD PUSH1 0x5 DUP2 GT ISZERO PUSH2 0x3D77 JUMPI INVALID JUMPDEST EQ PUSH2 0x3D89 JUMPI PUSH4 0x70A08231 PUSH1 0xE0 SHL PUSH2 0x3D92 JUMP JUMPDEST PUSH4 0xED1279F PUSH1 0xE1 SHL JUMPDEST SWAP1 POP PUSH1 0x0 PUSH2 0x3DA5 DUP7 PUSH1 0x0 ADD MLOAD ADDRESS DUP5 PUSH2 0x4324 JUMP JUMPDEST SWAP1 POP PUSH1 0x5 DUP7 PUSH1 0x60 ADD MLOAD PUSH1 0x5 DUP2 GT ISZERO PUSH2 0x3DB9 JUMPI INVALID JUMPDEST EQ ISZERO PUSH2 0x3DE0 JUMPI PUSH1 0x0 PUSH2 0x3DCE DUP7 PUSH2 0xFFFF AND PUSH2 0x2CC0 JUMP JUMPDEST SWAP1 POP PUSH2 0x3DDA DUP2 DUP7 PUSH2 0x44F2 JUMP JUMPDEST POP PUSH2 0x3E29 JUMP JUMPDEST PUSH1 0x1 DUP7 PUSH1 0x60 ADD MLOAD PUSH1 0x5 DUP2 GT ISZERO PUSH2 0x3DF2 JUMPI INVALID JUMPDEST EQ ISZERO PUSH2 0x3E07 JUMPI PUSH2 0x3E02 DUP7 DUP6 PUSH2 0x455D JUMP JUMPDEST PUSH2 0x3E29 JUMP JUMPDEST PUSH1 0x2 DUP7 PUSH1 0x60 ADD MLOAD PUSH1 0x5 DUP2 GT ISZERO PUSH2 0x3E19 JUMPI INVALID JUMPDEST EQ ISZERO PUSH2 0x9C JUMPI PUSH2 0x3E02 DUP7 DUP6 PUSH2 0x45FF JUMP JUMPDEST PUSH1 0x0 PUSH2 0x3E3A DUP8 PUSH1 0x0 ADD MLOAD ADDRESS DUP6 PUSH2 0x4324 JUMP JUMPDEST SWAP1 POP PUSH2 0x3707 PUSH2 0x32BA DUP3 DUP5 PUSH2 0x448E JUMP JUMPDEST PUSH1 0x0 DUP1 PUSH2 0xB6B PUSH1 0x2 PUSH2 0x2C3B JUMP JUMPDEST PUSH1 0x0 PUSH2 0x3E60 PUSH2 0x498A JUMP JUMPDEST RETURNDATASIZE DUP1 ISZERO PUSH2 0x3E74 JUMPI PUSH1 0x20 DUP2 EQ PUSH2 0x3E7D JUMPI PUSH1 0x0 DUP1 REVERT JUMPDEST PUSH1 0x1 SWAP3 POP PUSH2 0x3E88 JUMP JUMPDEST PUSH1 0x20 PUSH1 0x0 DUP4 RETURNDATACOPY DUP2 MLOAD SWAP3 POP JUMPDEST POP DUP2 PUSH2 0x1630 JUMPI PUSH1 0x40 DUP1 MLOAD PUSH3 0x461BCD PUSH1 0xE5 SHL DUP2 MSTORE PUSH1 0x20 PUSH1 0x4 DUP3 ADD MSTORE PUSH1 0x5 PUSH1 0x24 DUP3 ADD MSTORE PUSH5 0x455243323 PUSH1 0xDC SHL PUSH1 0x44 DUP3 ADD MSTORE SWAP1 MLOAD SWAP1 DUP2 SWAP1 SUB PUSH1 0x64 ADD SWAP1 REVERT JUMPDEST PUSH1 0x0 DUP1 PUSH2 0xB6B PUSH1 0x7 PUSH2 0x2C3B JUMP JUMPDEST PUSH1 0x0 PUSH2 0xDBD PUSH2 0x3EDD PUSH2 0x44E5 JUMP JUMPDEST SLOAD PUSH1 0x40 MLOAD PUSH4 0xD15E0053 PUSH1 0xE0 SHL DUP2 MSTORE PUSH1 0x1 PUSH1 0x1 PUSH1 0xA0 SHL SUB SWAP1 SWAP2 AND SWAP1 PUSH4 0xD15E0053 SWAP1 PUSH2 0x3F0B SWAP1 DUP7 SWAP1 PUSH1 0x4 ADD PUSH2 0x4C75 JUMP JUMPDEST PUSH1 0x20 PUSH1 0x40 MLOAD DUP1 DUP4 SUB DUP2 DUP7 DUP1 EXTCODESIZE ISZERO DUP1 ISZERO PUSH2 0x3F23 JUMPI PUSH1 0x0 DUP1 REVERT JUMPDEST POP GAS STATICCALL ISZERO DUP1 ISZERO PUSH2 0x3F37 JUMPI RETURNDATASIZE PUSH1 0x0 DUP1 RETURNDATACOPY RETURNDATASIZE PUSH1 0x0 REVERT JUMPDEST POP POP POP POP PUSH1 0x40 MLOAD RETURNDATASIZE PUSH1 0x1F NOT PUSH1 0x1F DUP3 ADD AND DUP3 ADD DUP1 PUSH1 0x40 MSTORE POP DUP2 ADD SWAP1 PUSH2 0x32BA SWAP2 SWAP1 PUSH2 0x4C33 JUMP JUMPDEST PUSH1 0x0 DUP1 PUSH2 0xB6B PUSH1 0x17 PUSH2 0x2C3B JUMP JUMPDEST PUSH1 0x0 DUP1 PUSH1 0x0 PUSH2 0x3F75 PUSH2 0x4652 JUMP JUMPDEST PUSH1 0x0 SWAP5 DUP6 MSTORE PUSH1 0x20 MSTORE POP POP PUSH1 0x40 SWAP1 SWAP2 KECCAK256 SLOAD PUSH1 0x1 PUSH1 0x1 PUSH1 0xA0 SHL SUB DUP2 AND SWAP3 PUSH1 0x1 PUSH1 0xA0 SHL SWAP1 SWAP2 DIV PUSH1 0xFF AND SWAP2 POP JUMP JUMPDEST PUSH1 0x0 DUP2 SLT ISZERO PUSH2 0x3FAD JUMPI PUSH1 0x0 DUP1 REVERT JUMPDEST PUSH1 0x0 PUSH2 0x3FBA PUSH1 0x0 DUP5 PUSH2 0x4218 JUMP JUMPDEST POP POP POP SWAP1 POP PUSH2 0x3FD2 DUP3 DUP3 PUSH2 0x1DAA SWAP1 SWAP2 SWAP1 PUSH4 0xFFFFFFFF AND JUMP JUMPDEST SWAP1 POP PUSH2 0x3FE5 PUSH1 0x0 DUP5 DUP4 PUSH1 0x0 DUP1 PUSH1 0x0 PUSH2 0x465F JUMP JUMPDEST DUP3 PUSH2 0xFFFF AND PUSH32 0x85170C297762884F47EC6098B74925C795E6D33686B11019B400E33A9B23B5E9 DUP4 PUSH1 0x40 MLOAD PUSH2 0x4019 SWAP2 SWAP1 PUSH2 0x4D71 JUMP JUMPDEST PUSH1 0x40 MLOAD DUP1 SWAP2 SUB SWAP1 LOG2 POP POP POP JUMP JUMPDEST PUSH1 0x0 DUP2 SLT ISZERO PUSH2 0x4034 JUMPI PUSH1 0x0 DUP1 REVERT JUMPDEST PUSH1 0x0 PUSH2 0x403F DUP4 PUSH2 0x47A6 JUMP JUMPDEST SWAP1 POP PUSH1 0x0 PUSH2 0x404D DUP3 DUP6 PUSH2 0x4218 JUMP JUMPDEST POP POP POP SWAP1 POP PUSH2 0x4065 DUP4 DUP3 PUSH2 0x1DAA SWAP1 SWAP2 SWAP1 PUSH4 0xFFFFFFFF AND JUMP JUMPDEST SWAP1 POP PUSH2 0x1457 DUP3 DUP6 DUP4 PUSH2 0x47CC JUMP JUMPDEST PUSH1 0x0 DUP1 PUSH2 0x407D PUSH2 0x47EA JUMP JUMPDEST PUSH1 0x0 SWAP4 DUP5 MSTORE PUSH1 0x20 MSTORE POP POP PUSH1 0x40 SWAP1 KECCAK256 SLOAD SWAP1 JUMP JUMPDEST PUSH1 0x0 PUSH3 0x76A700 DUP3 LT ISZERO PUSH2 0x40A1 JUMPI PUSH1 0x0 DUP1 REVERT JUMPDEST POP PUSH3 0x76A700 DUP2 MOD SWAP1 SUB SWAP1 JUMP JUMPDEST PUSH1 0x0 DUP2 PUSH1 0x1 EQ ISZERO PUSH2 0x40C2 JUMPI POP PUSH3 0x76A700 PUSH2 0xDC0 JUMP JUMPDEST DUP2 PUSH1 0x2 EQ ISZERO PUSH2 0x40D5 JUMPI POP PUSH3 0xED4E00 PUSH2 0xDC0 JUMP JUMPDEST DUP2 PUSH1 0x3 EQ ISZERO PUSH2 0x40E9 JUMPI POP PUSH4 0x1DA9C00 PUSH2 0xDC0 JUMP JUMPDEST DUP2 PUSH1 0x4 EQ ISZERO PUSH2 0x40FD JUMPI POP PUSH4 0x3B53800 PUSH2 0xDC0 JUMP JUMPDEST DUP2 PUSH1 0x5 EQ ISZERO PUSH2 0x4111 JUMPI POP PUSH4 0x9450C00 PUSH2 0xDC0 JUMP JUMPDEST DUP2 PUSH1 0x6 EQ ISZERO PUSH2 0x4125 JUMPI POP PUSH4 0x128A1800 PUSH2 0xDC0 JUMP JUMPDEST DUP2 PUSH1 0x7 EQ ISZERO PUSH2 0x4139 JUMPI POP PUSH4 0x25143000 PUSH2 0xDC0 JUMP JUMPDEST PUSH1 0x40 MLOAD PUSH3 0x461BCD PUSH1 0xE5 SHL DUP2 MSTORE PUSH1 0x4 ADD PUSH2 0x23D SWAP1 PUSH2 0x4EAB JUMP JUMPDEST PUSH1 0x0 DUP3 DUP3 ADD DUP4 DUP2 LT ISZERO PUSH2 0xB68 JUMPI PUSH1 0x40 DUP1 MLOAD PUSH3 0x461BCD PUSH1 0xE5 SHL DUP2 MSTORE PUSH1 0x20 PUSH1 0x4 DUP3 ADD MSTORE PUSH1 0x1B PUSH1 0x24 DUP3 ADD MSTORE PUSH32 0x536166654D6174683A206164646974696F6E206F766572666C6F770000000000 PUSH1 0x44 DUP3 ADD MSTORE SWAP1 MLOAD SWAP1 DUP2 SWAP1 SUB PUSH1 0x64 ADD SWAP1 REVERT JUMPDEST PUSH1 0x0 DUP1 PUSH2 0xB6B PUSH1 0x18 PUSH2 0x2C3B JUMP JUMPDEST PUSH1 0x0 PUSH2 0x41C2 PUSH2 0x31A1 JUMP JUMPDEST PUSH1 0x1 PUSH1 0x1 PUSH1 0xA0 SHL SUB DUP5 AND PUSH1 0x0 SWAP1 DUP2 MSTORE PUSH1 0x20 DUP3 SWAP1 MSTORE PUSH1 0x40 SWAP1 KECCAK256 DUP1 SLOAD SWAP2 SWAP3 POP SWAP1 PUSH2 0xFFFF AND DUP4 ISZERO PUSH2 0x4201 JUMPI DUP2 SLOAD PUSH2 0xFFFF NOT AND PUSH1 0x1 DUP3 OR PUSH2 0xFFFF AND OR DUP3 SSTORE PUSH2 0x4211 JUMP JUMPDEST DUP2 SLOAD PUSH2 0xFFFF NOT AND PUSH2 0xFFFE DUP3 AND OR DUP3 SSTORE JUMPDEST POP POP POP POP POP JUMP JUMPDEST PUSH1 0x0 DUP1 PUSH1 0x0 DUP1 PUSH1 0x0 PUSH2 0x4228 PUSH2 0x47F7 JUMP JUMPDEST PUSH1 0x1 PUSH1 0x1 PUSH1 0xA0 SHL SUB DUP9 AND PUSH1 0x0 SWAP1 DUP2 MSTORE PUSH1 0x20 DUP3 DUP2 MSTORE PUSH1 0x40 DUP1 DUP4 KECCAK256 DUP11 DUP5 MSTORE SWAP1 SWAP2 MSTORE SWAP1 KECCAK256 DUP1 SLOAD PUSH1 0x1 PUSH1 0x1 PUSH1 0x50 SHL SUB DUP2 AND SWAP7 POP PUSH1 0x1 PUSH1 0x50 SHL SWAP1 DIV PUSH4 0xFFFFFFFF AND SWAP5 POP SWAP1 SWAP2 POP DUP4 ISZERO PUSH2 0x4291 JUMPI DUP1 SLOAD PUSH2 0x428A SWAP1 PUSH1 0x1 PUSH1 0x70 SHL SWAP1 DIV PUSH7 0xFFFFFFFFFFFFFF AND PUSH2 0x4804 JUMP JUMPDEST SWAP3 POP PUSH2 0x42A6 JUMP JUMPDEST DUP1 SLOAD PUSH1 0x1 PUSH1 0x70 SHL SWAP1 DIV PUSH7 0xFFFFFFFFFFFFFF AND SWAP3 POP JUMPDEST SLOAD PUSH1 0x1 PUSH1 0xA8 SHL SWAP1 DIV PUSH1 0xA SWAP1 DUP2 SIGNEXTEND SWAP1 SIGNEXTEND SWAP8 SWAP4 SWAP7 POP SWAP2 SWAP5 POP SWAP3 POP POP JUMP JUMPDEST PUSH1 0x0 DUP2 SLT ISZERO PUSH2 0x42CF JUMPI PUSH1 0x0 DUP1 REVERT JUMPDEST PUSH2 0x42E4 PUSH1 0x0 DUP4 PUSH2 0xFFFF AND DUP4 PUSH1 0x0 DUP1 PUSH1 0x0 PUSH2 0x465F JUMP JUMPDEST DUP2 PUSH2 0xFFFF AND PUSH32 0xD3625F7B5926828151EFE19F7AE655488287357D99EBE67E5FB20522CA739C0B DUP3 PUSH1 0x40 MLOAD PUSH2 0x4318 SWAP2 SWAP1 PUSH2 0x4D71 JUMP JUMPDEST PUSH1 0x40 MLOAD DUP1 SWAP2 SUB SWAP1 LOG2 POP POP JUMP JUMPDEST PUSH1 0x40 DUP1 MLOAD PUSH1 0x1 PUSH1 0x1 PUSH1 0xA0 SHL SUB DUP5 DUP2 AND PUSH1 0x24 DUP1 DUP5 ADD SWAP2 SWAP1 SWAP2 MSTORE DUP4 MLOAD DUP1 DUP5 SUB SWAP1 SWAP2 ADD DUP2 MSTORE PUSH1 0x44 SWAP1 SWAP3 ADD DUP4 MSTORE PUSH1 0x20 DUP3 ADD DUP1 MLOAD PUSH1 0x1 PUSH1 0x1 PUSH1 0xE0 SHL SUB AND PUSH1 0x1 PUSH1 0x1 PUSH1 0xE0 SHL SUB NOT DUP7 AND OR DUP2 MSTORE SWAP3 MLOAD DUP3 MLOAD PUSH1 0x0 SWAP5 DUP6 SWAP5 DUP6 SWAP5 DUP11 AND SWAP4 SWAP1 SWAP3 SWAP1 SWAP2 DUP3 SWAP2 DUP1 DUP4 DUP4 JUMPDEST PUSH1 0x20 DUP4 LT PUSH2 0x43A1 JUMPI DUP1 MLOAD DUP3 MSTORE PUSH1 0x1F NOT SWAP1 SWAP3 ADD SWAP2 PUSH1 0x20 SWAP2 DUP3 ADD SWAP2 ADD PUSH2 0x4382 JUMP JUMPDEST PUSH1 0x1 DUP4 PUSH1 0x20 SUB PUSH2 0x100 EXP SUB DUP1 NOT DUP3 MLOAD AND DUP2 DUP5 MLOAD AND DUP1 DUP3 OR DUP6 MSTORE POP POP POP POP POP POP SWAP1 POP ADD SWAP2 POP POP PUSH1 0x0 PUSH1 0x40 MLOAD DUP1 DUP4 SUB DUP2 DUP6 GAS STATICCALL SWAP2 POP POP RETURNDATASIZE DUP1 PUSH1 0x0 DUP2 EQ PUSH2 0x4401 JUMPI PUSH1 0x40 MLOAD SWAP2 POP PUSH1 0x1F NOT PUSH1 0x3F RETURNDATASIZE ADD AND DUP3 ADD PUSH1 0x40 MSTORE RETURNDATASIZE DUP3 MSTORE RETURNDATASIZE PUSH1 0x0 PUSH1 0x20 DUP5 ADD RETURNDATACOPY PUSH2 0x4406 JUMP JUMPDEST PUSH1 0x60 SWAP2 POP JUMPDEST POP SWAP2 POP SWAP2 POP DUP2 PUSH2 0x4415 JUMPI PUSH1 0x0 DUP1 REVERT JUMPDEST DUP1 DUP1 PUSH1 0x20 ADD SWAP1 MLOAD PUSH1 0x20 DUP2 LT ISZERO PUSH2 0x442A JUMPI PUSH1 0x0 DUP1 REVERT JUMPDEST POP MLOAD SWAP7 SWAP6 POP POP POP POP POP POP JUMP JUMPDEST PUSH1 0x40 DUP1 MLOAD PUSH4 0x23B872DD PUSH1 0xE0 SHL DUP2 MSTORE PUSH1 0x1 PUSH1 0x1 PUSH1 0xA0 SHL SUB DUP5 DUP2 AND PUSH1 0x4 DUP4 ADD MSTORE ADDRESS PUSH1 0x24 DUP4 ADD MSTORE PUSH1 0x44 DUP3 ADD DUP5 SWAP1 MSTORE SWAP2 MLOAD SWAP2 DUP6 AND SWAP2 PUSH4 0x23B872DD SWAP2 PUSH1 0x64 DUP1 DUP3 ADD SWAP3 PUSH1 0x0 SWAP3 SWAP1 SWAP2 SWAP1 DUP3 SWAP1 SUB ADD DUP2 DUP4 DUP8 DUP1 EXTCODESIZE ISZERO DUP1 ISZERO PUSH2 0x3AA1 JUMPI PUSH1 0x0 DUP1 REVERT JUMPDEST PUSH1 0x0 DUP3 DUP3 GT ISZERO PUSH2 0x197E JUMPI PUSH1 0x40 DUP1 MLOAD PUSH3 0x461BCD PUSH1 0xE5 SHL DUP2 MSTORE PUSH1 0x20 PUSH1 0x4 DUP3 ADD MSTORE PUSH1 0x1E PUSH1 0x24 DUP3 ADD MSTORE PUSH32 0x536166654D6174683A207375627472616374696F6E206F766572666C6F770000 PUSH1 0x44 DUP3 ADD MSTORE SWAP1 MLOAD SWAP1 DUP2 SWAP1 SUB PUSH1 0x64 ADD SWAP1 REVERT JUMPDEST PUSH1 0x0 DUP1 PUSH2 0xB6B PUSH1 0x13 PUSH2 0x2C3B JUMP JUMPDEST PUSH2 0x44FA PUSH2 0x44E5 JUMP JUMPDEST SLOAD DUP3 MLOAD PUSH1 0x40 MLOAD PUSH4 0xE8EDA9DF PUSH1 0xE0 SHL DUP2 MSTORE PUSH1 0x1 PUSH1 0x1 PUSH1 0xA0 SHL SUB SWAP1 SWAP3 AND SWAP2 PUSH4 0xE8EDA9DF SWAP2 PUSH2 0x452F SWAP2 DUP6 SWAP1 ADDRESS SWAP1 PUSH1 0x0 SWAP1 PUSH1 0x4 ADD PUSH2 0x4CEA JUMP JUMPDEST PUSH1 0x0 PUSH1 0x40 MLOAD DUP1 DUP4 SUB DUP2 PUSH1 0x0 DUP8 DUP1 EXTCODESIZE ISZERO DUP1 ISZERO PUSH2 0x4549 JUMPI PUSH1 0x0 DUP1 REVERT JUMPDEST POP GAS CALL ISZERO DUP1 ISZERO PUSH2 0x1A1D JUMPI RETURNDATASIZE PUSH1 0x0 DUP1 RETURNDATACOPY RETURNDATASIZE PUSH1 0x0 REVERT JUMPDEST DUP2 MLOAD PUSH1 0x40 MLOAD PUSH4 0x140E25AD PUSH1 0xE3 SHL DUP2 MSTORE PUSH1 0x0 SWAP2 PUSH1 0x1 PUSH1 0x1 PUSH1 0xA0 SHL SUB AND SWAP1 PUSH4 0xA0712D68 SWAP1 PUSH2 0x458D SWAP1 DUP6 SWAP1 PUSH1 0x4 ADD PUSH2 0x4D71 JUMP JUMPDEST PUSH1 0x20 PUSH1 0x40 MLOAD DUP1 DUP4 SUB DUP2 PUSH1 0x0 DUP8 DUP1 EXTCODESIZE ISZERO DUP1 ISZERO PUSH2 0x45A7 JUMPI PUSH1 0x0 DUP1 REVERT JUMPDEST POP GAS CALL ISZERO DUP1 ISZERO PUSH2 0x45BB JUMPI RETURNDATASIZE PUSH1 0x0 DUP1 RETURNDATACOPY RETURNDATASIZE PUSH1 0x0 REVERT JUMPDEST POP POP POP POP PUSH1 0x40 MLOAD RETURNDATASIZE PUSH1 0x1F NOT PUSH1 0x1F DUP3 ADD AND DUP3 ADD DUP1 PUSH1 0x40 MSTORE POP DUP2 ADD SWAP1 PUSH2 0x45DF SWAP2 SWAP1 PUSH2 0x4C33 JUMP JUMPDEST SWAP1 POP DUP1 ISZERO PUSH2 0xC1D JUMPI PUSH1 0x40 MLOAD PUSH3 0x461BCD PUSH1 0xE5 SHL DUP2 MSTORE PUSH1 0x4 ADD PUSH2 0x23D SWAP1 PUSH2 0x4E0E JUMP JUMPDEST DUP2 PUSH1 0x0 ADD MLOAD PUSH1 0x1 PUSH1 0x1 PUSH1 0xA0 SHL SUB AND PUSH4 0x1249C58B DUP3 PUSH1 0x40 MLOAD DUP3 PUSH4 0xFFFFFFFF AND PUSH1 0xE0 SHL DUP2 MSTORE PUSH1 0x4 ADD PUSH1 0x0 PUSH1 0x40 MLOAD DUP1 DUP4 SUB DUP2 DUP6 DUP9 DUP1 EXTCODESIZE ISZERO DUP1 ISZERO PUSH2 0x463E JUMPI PUSH1 0x0 DUP1 REVERT JUMPDEST POP GAS CALL ISZERO DUP1 ISZERO PUSH2 0xE4A JUMPI RETURNDATASIZE PUSH1 0x0 DUP1 RETURNDATACOPY RETURNDATASIZE PUSH1 0x0 REVERT JUMPDEST PUSH1 0x0 DUP1 PUSH2 0xB6B PUSH1 0xF PUSH2 0x2C3B JUMP JUMPDEST PUSH1 0x0 PUSH2 0x4669 PUSH2 0x47F7 JUMP JUMPDEST PUSH1 0x1 PUSH1 0x1 PUSH1 0xA0 SHL SUB DUP9 AND PUSH1 0x0 SWAP1 DUP2 MSTORE PUSH1 0x20 DUP3 DUP2 MSTORE PUSH1 0x40 DUP1 DUP4 KECCAK256 DUP11 DUP5 MSTORE SWAP1 SWAP2 MSTORE SWAP1 KECCAK256 SWAP1 SWAP2 POP PUSH11 0x7FFFFFFFFFFFFFFFFFFFFF NOT DUP7 SLT DUP1 ISZERO SWAP1 PUSH2 0x46B4 JUMPI POP PUSH11 0x7FFFFFFFFFFFFFFFFFFFFF DUP7 SGT ISZERO JUMPDEST PUSH2 0x46BD JUMPI PUSH1 0x0 DUP1 REVERT JUMPDEST PUSH1 0x0 DUP6 SLT ISZERO DUP1 ISZERO PUSH2 0x46D5 JUMPI POP PUSH1 0x1 PUSH1 0x1 PUSH1 0x50 SHL SUB DUP6 SGT ISZERO JUMPDEST PUSH2 0x46DE JUMPI PUSH1 0x0 DUP1 REVERT JUMPDEST DUP4 PUSH2 0x471E JUMPI PUSH7 0xFFFFFFFFFFFFFF DUP4 GT ISZERO PUSH2 0x46F7 JUMPI PUSH1 0x0 DUP1 REVERT JUMPDEST DUP1 SLOAD PUSH7 0xFFFFFFFFFFFFFF PUSH1 0x70 SHL NOT AND PUSH1 0x1 PUSH1 0x70 SHL PUSH7 0xFFFFFFFFFFFFFF DUP6 AND MUL OR DUP2 SSTORE PUSH2 0x4738 JUMP JUMPDEST DUP1 SLOAD PUSH1 0x1 PUSH1 0x50 SHL SWAP1 DIV PUSH4 0xFFFFFFFF AND DUP5 EQ PUSH2 0x4738 JUMPI PUSH1 0x0 DUP1 REVERT JUMPDEST DUP1 SLOAD PUSH1 0xA SWAP7 SWAP1 SWAP7 SIGNEXTEND PUSH11 0xFFFFFFFFFFFFFFFFFFFFFF AND PUSH1 0x1 PUSH1 0xA8 SHL MUL PUSH1 0x1 PUSH1 0x1 PUSH1 0xA8 SHL SUB PUSH1 0x1 PUSH1 0x1 PUSH1 0x50 SHL SUB SWAP1 SWAP7 AND PUSH1 0x1 PUSH1 0x1 PUSH1 0x50 SHL SUB NOT PUSH4 0xFFFFFFFF SWAP1 SWAP7 AND PUSH1 0x1 PUSH1 0x50 SHL MUL PUSH4 0xFFFFFFFF PUSH1 0x50 SHL NOT SWAP1 SWAP9 AND SWAP8 SWAP1 SWAP8 OR SWAP5 SWAP1 SWAP5 AND SWAP6 SWAP1 SWAP6 OR SWAP4 SWAP1 SWAP4 AND SWAP2 SWAP1 SWAP2 OR SWAP1 SWAP3 SSTORE POP POP POP POP JUMP JUMPDEST PUSH1 0x0 DUP1 PUSH2 0x47B1 PUSH2 0x4812 JUMP JUMPDEST PUSH1 0x0 SWAP4 DUP5 MSTORE PUSH1 0x20 MSTORE POP POP PUSH1 0x40 SWAP1 KECCAK256 SLOAD PUSH1 0x1 PUSH1 0x1 PUSH1 0xA0 SHL SUB AND SWAP1 JUMP JUMPDEST PUSH1 0x0 DUP2 SLT ISZERO PUSH2 0x47DA JUMPI PUSH1 0x0 DUP1 REVERT JUMPDEST PUSH2 0xC1D DUP4 DUP4 DUP4 PUSH1 0x0 DUP1 PUSH1 0x0 PUSH2 0x465F JUMP JUMPDEST PUSH1 0x0 DUP1 PUSH2 0xB6B PUSH1 0x9 PUSH2 0x2C3B JUMP JUMPDEST PUSH1 0x0 DUP1 PUSH2 0xB6B PUSH1 0x6 PUSH2 0x2C3B JUMP JUMPDEST PUSH1 0x8 DUP2 SWAP1 SHR PUSH1 0xFF SWAP1 SWAP2 AND SHL SWAP1 JUMP JUMPDEST PUSH1 0x0 DUP1 PUSH2 0xB6B PUSH1 0x3 PUSH2 0x2C3B JUMP JUMPDEST PUSH1 0x40 MLOAD DUP1 PUSH1 0x40 ADD PUSH1 0x40 MSTORE DUP1 PUSH1 0x2 SWAP1 PUSH1 0x20 DUP3 MUL DUP1 CALLDATASIZE DUP4 CALLDATACOPY POP SWAP2 SWAP3 SWAP2 POP POP JUMP JUMPDEST PUSH1 0x40 MLOAD DUP1 PUSH1 0xA0 ADD PUSH1 0x40 MSTORE DUP1 PUSH1 0x0 DUP2 MSTORE PUSH1 0x20 ADD PUSH1 0x0 DUP2 MSTORE PUSH1 0x20 ADD PUSH1 0x0 DUP2 MSTORE PUSH1 0x20 ADD PUSH1 0x0 PUSH1 0x1 PUSH1 0x1 PUSH1 0xA0 SHL SUB AND DUP2 MSTORE PUSH1 0x20 ADD PUSH1 0x0 DUP2 MSTORE POP SWAP1 JUMP JUMPDEST PUSH1 0x40 MLOAD DUP1 PUSH2 0x180 ADD PUSH1 0x40 MSTORE DUP1 PUSH1 0x0 PUSH1 0x1 PUSH1 0x1 PUSH1 0xA0 SHL SUB AND DUP2 MSTORE PUSH1 0x20 ADD PUSH1 0x0 PUSH2 0xFFFF AND DUP2 MSTORE PUSH1 0x20 ADD PUSH1 0x0 PUSH2 0xFFFF AND DUP2 MSTORE PUSH1 0x20 ADD PUSH1 0x0 DUP2 MSTORE PUSH1 0x20 ADD PUSH1 0x0 DUP2 MSTORE PUSH1 0x20 ADD PUSH1 0x0 DUP2 MSTORE PUSH1 0x20 ADD PUSH1 0x0 DUP2 MSTORE PUSH1 0x20 ADD PUSH1 0x0 DUP2 MSTORE PUSH1 0x20 ADD PUSH1 0x0 DUP2 MSTORE PUSH1 0x20 ADD PUSH1 0x0 DUP2 MSTORE PUSH1 0x20 ADD PUSH2 0x48E0 PUSH2 0x481F JUMP JUMPDEST DUP2 MSTORE PUSH1 0x20 ADD PUSH2 0x48ED PUSH2 0x4960 JUMP JUMPDEST SWAP1 MSTORE SWAP1 JUMP JUMPDEST PUSH1 0x40 MLOAD DUP1 PUSH1 0xE0 ADD PUSH1 0x40 MSTORE DUP1 PUSH1 0x0 DUP2 MSTORE PUSH1 0x20 ADD PUSH1 0x0 DUP2 MSTORE PUSH1 0x20 ADD PUSH1 0x0 ISZERO ISZERO DUP2 MSTORE PUSH1 0x20 ADD PUSH1 0x0 DUP2 MSTORE PUSH1 0x20 ADD PUSH1 0x0 DUP2 MSTORE PUSH1 0x20 ADD PUSH1 0x0 DUP2 MSTORE PUSH1 0x20 ADD PUSH1 0x0 DUP2 MSTORE POP SWAP1 JUMP JUMPDEST PUSH1 0x40 DUP1 MLOAD PUSH1 0xA0 DUP2 ADD DUP3 MSTORE PUSH1 0x0 DUP1 DUP3 MSTORE PUSH1 0x20 DUP3 ADD DUP2 SWAP1 MSTORE SWAP2 DUP2 ADD DUP3 SWAP1 MSTORE SWAP1 PUSH1 0x60 DUP3 ADD SWAP1 DUP2 MSTORE PUSH1 0x20 ADD PUSH1 0x0 DUP2 MSTORE POP SWAP1 JUMP JUMPDEST PUSH1 0x40 MLOAD DUP1 PUSH1 0x60 ADD PUSH1 0x40 MSTORE DUP1 PUSH1 0x0 PUSH1 0x1 PUSH1 0x1 PUSH1 0xA0 SHL SUB AND DUP2 MSTORE PUSH1 0x20 ADD PUSH1 0x0 DUP2 MSTORE PUSH1 0x20 ADD PUSH1 0x0 DUP2 MSTORE POP SWAP1 JUMP JUMPDEST PUSH1 0x40 MLOAD DUP1 PUSH1 0x20 ADD PUSH1 0x40 MSTORE DUP1 PUSH1 0x1 SWAP1 PUSH1 0x20 DUP3 MUL DUP1 CALLDATASIZE DUP4 CALLDATACOPY POP SWAP2 SWAP3 SWAP2 POP POP JUMP JUMPDEST DUP1 CALLDATALOAD PUSH1 0x1 PUSH1 0x1 PUSH1 0xA0 SHL SUB DUP2 AND DUP2 EQ PUSH2 0xDC0 JUMPI PUSH1 0x0 DUP1 REVERT JUMPDEST PUSH1 0x0 DUP1 DUP4 PUSH1 0x1F DUP5 ADD SLT PUSH2 0x49D0 JUMPI DUP2 DUP3 REVERT JUMPDEST POP DUP2 CALLDATALOAD PUSH8 0xFFFFFFFFFFFFFFFF DUP2 GT ISZERO PUSH2 0x49E7 JUMPI DUP2 DUP3 REVERT JUMPDEST PUSH1 0x20 DUP4 ADD SWAP2 POP DUP4 PUSH1 0x20 DUP3 DUP6 ADD ADD GT ISZERO PUSH2 0x15DE JUMPI PUSH1 0x0 DUP1 REVERT JUMPDEST DUP1 CALLDATALOAD PUSH4 0xFFFFFFFF DUP2 AND DUP2 EQ PUSH2 0xDC0 JUMPI PUSH1 0x0 DUP1 REVERT JUMPDEST PUSH1 0x0 DUP1 PUSH1 0x40 DUP4 DUP6 SUB SLT ISZERO PUSH2 0x4A25 JUMPI DUP2 DUP3 REVERT JUMPDEST PUSH2 0x4A2E DUP4 PUSH2 0x49A8 JUMP JUMPDEST SWAP2 POP PUSH2 0x15DB PUSH1 0x20 DUP5 ADD PUSH2 0x49A8 JUMP JUMPDEST PUSH1 0x0 DUP1 PUSH1 0x0 DUP1 PUSH1 0x0 DUP1 PUSH1 0x0 PUSH1 0xC0 DUP9 DUP11 SUB SLT ISZERO PUSH2 0x4A56 JUMPI DUP3 DUP4 REVERT JUMPDEST PUSH2 0x4A5F DUP9 PUSH2 0x49A8 JUMP JUMPDEST SWAP7 POP PUSH2 0x4A6D PUSH1 0x20 DUP10 ADD PUSH2 0x49A8 JUMP JUMPDEST SWAP6 POP PUSH2 0x4A7B PUSH1 0x40 DUP10 ADD PUSH2 0x49A8 JUMP JUMPDEST SWAP5 POP PUSH1 0x60 DUP9 ADD CALLDATALOAD SWAP4 POP PUSH1 0x80 DUP9 ADD CALLDATALOAD DUP1 ISZERO ISZERO DUP2 EQ PUSH2 0x4A96 JUMPI DUP4 DUP5 REVERT JUMPDEST SWAP3 POP PUSH1 0xA0 DUP9 ADD CALLDATALOAD PUSH8 0xFFFFFFFFFFFFFFFF DUP2 GT ISZERO PUSH2 0x4AB1 JUMPI DUP3 DUP4 REVERT JUMPDEST PUSH2 0x4ABD DUP11 DUP3 DUP12 ADD PUSH2 0x49BF JUMP JUMPDEST SWAP9 SWAP12 SWAP8 SWAP11 POP SWAP6 SWAP9 POP SWAP4 SWAP7 SWAP3 SWAP6 SWAP3 SWAP4 POP POP POP JUMP JUMPDEST PUSH1 0x0 DUP1 PUSH1 0x0 DUP1 PUSH1 0x0 DUP1 PUSH1 0x0 DUP1 PUSH1 0xE0 DUP10 DUP12 SUB SLT ISZERO PUSH2 0x4AEB JUMPI DUP1 DUP2 REVERT JUMPDEST PUSH2 0x4AF4 DUP10 PUSH2 0x49A8 JUMP JUMPDEST SWAP8 POP PUSH2 0x4B02 PUSH1 0x20 DUP11 ADD PUSH2 0x49A8 JUMP JUMPDEST SWAP7 POP PUSH2 0x4B10 PUSH1 0x40 DUP11 ADD PUSH2 0x49A8 JUMP JUMPDEST SWAP6 POP PUSH1 0x60 DUP10 ADD CALLDATALOAD SWAP5 POP PUSH1 0x80 DUP10 ADD CALLDATALOAD SWAP4 POP PUSH2 0x4B2C PUSH1 0xA0 DUP11 ADD PUSH2 0x49FF JUMP JUMPDEST SWAP3 POP PUSH1 0xC0 DUP10 ADD CALLDATALOAD PUSH8 0xFFFFFFFFFFFFFFFF DUP2 GT ISZERO PUSH2 0x4B47 JUMPI DUP2 DUP3 REVERT JUMPDEST PUSH2 0x4B53 DUP12 DUP3 DUP13 ADD PUSH2 0x49BF JUMP JUMPDEST SWAP10 SWAP13 SWAP9 SWAP12 POP SWAP7 SWAP10 POP SWAP5 SWAP8 SWAP4 SWAP7 SWAP3 SWAP6 SWAP5 POP POP POP JUMP JUMPDEST PUSH1 0x0 DUP1 PUSH1 0x0 DUP1 PUSH1 0x0 DUP1 PUSH1 0x0 DUP1 PUSH1 0xE0 DUP10 DUP12 SUB SLT ISZERO PUSH2 0x4B82 JUMPI DUP4 DUP5 REVERT JUMPDEST PUSH2 0x4B8B DUP10 PUSH2 0x49A8 JUMP JUMPDEST SWAP8 POP PUSH2 0x4B99 PUSH1 0x20 DUP11 ADD PUSH2 0x49A8 JUMP JUMPDEST SWAP7 POP PUSH1 0x40 DUP10 ADD CALLDATALOAD SWAP6 POP PUSH1 0x60 DUP10 ADD CALLDATALOAD SWAP5 POP PUSH1 0x80 DUP10 ADD CALLDATALOAD SWAP4 POP PUSH2 0x4BBC PUSH1 0xA0 DUP11 ADD PUSH2 0x49FF JUMP JUMPDEST SWAP3 POP PUSH1 0xC0 DUP10 ADD CALLDATALOAD PUSH8 0xFFFFFFFFFFFFFFFF DUP2 GT ISZERO PUSH2 0x4B47 JUMPI DUP3 DUP4 REVERT JUMPDEST PUSH1 0x0 DUP1 PUSH1 0x0 DUP1 PUSH1 0x0 DUP1 PUSH1 0x0 DUP1 PUSH1 0xE0 DUP10 DUP12 SUB SLT ISZERO PUSH2 0x4BF2 JUMPI DUP4 DUP5 REVERT JUMPDEST PUSH2 0x4BFB DUP10 PUSH2 0x49A8 JUMP JUMPDEST SWAP8 POP PUSH2 0x4C09 PUSH1 0x20 DUP11 ADD PUSH2 0x49A8 JUMP JUMPDEST SWAP7 POP PUSH1 0x40 DUP10 ADD CALLDATALOAD SWAP6 POP PUSH1 0x60 DUP10 ADD CALLDATALOAD SWAP5 POP PUSH2 0x4C25 PUSH1 0x80 DUP11 ADD PUSH2 0x49FF JUMP JUMPDEST SWAP4 POP PUSH2 0x4BBC PUSH1 0xA0 DUP11 ADD PUSH2 0x49FF JUMP JUMPDEST PUSH1 0x0 PUSH1 0x20 DUP3 DUP5 SUB SLT ISZERO PUSH2 0x4C44 JUMPI DUP1 DUP2 REVERT JUMPDEST POP MLOAD SWAP2 SWAP1 POP JUMP JUMPDEST PUSH1 0x0 DUP3 DUP5 MSTORE DUP3 DUP3 PUSH1 0x20 DUP7 ADD CALLDATACOPY DUP1 PUSH1 0x20 DUP5 DUP7 ADD ADD MSTORE PUSH1 0x20 PUSH1 0x1F NOT PUSH1 0x1F DUP6 ADD AND DUP6 ADD ADD SWAP1 POP SWAP4 SWAP3 POP POP POP JUMP JUMPDEST PUSH1 0x1 PUSH1 0x1 PUSH1 0xA0 SHL SUB SWAP2 SWAP1 SWAP2 AND DUP2 MSTORE PUSH1 0x20 ADD SWAP1 JUMP JUMPDEST PUSH1 0x0 PUSH1 0x1 DUP1 PUSH1 0xA0 SHL SUB DUP1 DUP11 AND DUP4 MSTORE DUP1 DUP10 AND PUSH1 0x20 DUP5 ADD MSTORE POP DUP7 PUSH1 0x40 DUP4 ADD MSTORE DUP6 PUSH1 0x60 DUP4 ADD MSTORE DUP5 PUSH1 0x80 DUP4 ADD MSTORE PUSH1 0xC0 PUSH1 0xA0 DUP4 ADD MSTORE PUSH2 0x35BD PUSH1 0xC0 DUP4 ADD DUP5 DUP7 PUSH2 0x4C4B JUMP JUMPDEST PUSH1 0x1 PUSH1 0x1 PUSH1 0xA0 SHL SUB SWAP4 DUP5 AND DUP2 MSTORE PUSH1 0x20 DUP2 ADD SWAP3 SWAP1 SWAP3 MSTORE SWAP1 SWAP2 AND PUSH1 0x40 DUP3 ADD MSTORE PUSH1 0x60 ADD SWAP1 JUMP JUMPDEST PUSH1 0x1 PUSH1 0x1 PUSH1 0xA0 SHL SUB SWAP5 DUP6 AND DUP2 MSTORE PUSH1 0x20 DUP2 ADD SWAP4 SWAP1 SWAP4 MSTORE SWAP3 AND PUSH1 0x40 DUP3 ADD MSTORE PUSH2 0xFFFF SWAP1 SWAP2 AND PUSH1 0x60 DUP3 ADD MSTORE PUSH1 0x80 ADD SWAP1 JUMP JUMPDEST PUSH1 0x1 PUSH1 0x1 PUSH1 0xA0 SHL SUB SWAP4 SWAP1 SWAP4 AND DUP4 MSTORE PUSH1 0x20 DUP4 ADD SWAP2 SWAP1 SWAP2 MSTORE PUSH1 0x40 DUP3 ADD MSTORE PUSH1 0x60 ADD SWAP1 JUMP JUMPDEST PUSH1 0x0 PUSH1 0x1 DUP1 PUSH1 0xA0 SHL SUB DUP8 AND DUP3 MSTORE DUP6 PUSH1 0x20 DUP4 ADD MSTORE DUP5 PUSH1 0x40 DUP4 ADD MSTORE PUSH1 0x80 PUSH1 0x60 DUP4 ADD MSTORE PUSH2 0x3707 PUSH1 0x80 DUP4 ADD DUP5 DUP7 PUSH2 0x4C4B JUMP JUMPDEST SWAP1 ISZERO ISZERO DUP2 MSTORE PUSH1 0x20 ADD SWAP1 JUMP JUMPDEST SWAP1 DUP2 MSTORE PUSH1 0x20 ADD SWAP1 JUMP JUMPDEST SWAP2 DUP3 MSTORE PUSH1 0x20 DUP3 ADD MSTORE PUSH1 0x40 ADD SWAP1 JUMP JUMPDEST SWAP3 DUP4 MSTORE PUSH1 0x20 DUP4 ADD SWAP2 SWAP1 SWAP2 MSTORE PUSH1 0x40 DUP3 ADD MSTORE PUSH1 0x60 ADD SWAP1 JUMP JUMPDEST SWAP4 DUP5 MSTORE PUSH1 0x20 DUP5 ADD SWAP3 SWAP1 SWAP3 MSTORE PUSH1 0x40 DUP4 ADD MSTORE PUSH1 0x60 DUP3 ADD MSTORE PUSH1 0x80 ADD SWAP1 JUMP JUMPDEST PUSH1 0x20 DUP1 DUP3 MSTORE PUSH1 0xC SWAP1 DUP3 ADD MSTORE PUSH12 0x155B985D5D1A1BDC9A5E9959 PUSH1 0xA2 SHL PUSH1 0x40 DUP3 ADD MSTORE PUSH1 0x60 ADD SWAP1 JUMP JUMPDEST PUSH1 0x20 DUP1 DUP3 MSTORE PUSH1 0x15 SWAP1 DUP3 ADD MSTORE PUSH21 0xACC2EAD8E840A6D0C2E4CAE6409AD2E6DAC2E8C6D PUSH1 0x5B SHL PUSH1 0x40 DUP3 ADD MSTORE PUSH1 0x60 ADD SWAP1 JUMP JUMPDEST PUSH1 0x20 DUP1 DUP3 MSTORE PUSH1 0x4 SWAP1 DUP3 ADD MSTORE PUSH4 0x135A5B9D PUSH1 0xE2 SHL PUSH1 0x40 DUP3 ADD MSTORE PUSH1 0x60 ADD SWAP1 JUMP JUMPDEST PUSH1 0x20 DUP1 DUP3 MSTORE PUSH1 0x6 SWAP1 DUP3 ADD MSTORE PUSH6 0x52656465656D PUSH1 0xD0 SHL PUSH1 0x40 DUP3 ADD MSTORE PUSH1 0x60 ADD SWAP1 JUMP JUMPDEST PUSH1 0x20 DUP1 DUP3 MSTORE PUSH1 0x16 SWAP1 DUP3 ADD MSTORE PUSH22 0x125B9CDD59999A58DA595B9D081C995C185E5B595B9D PUSH1 0x52 SHL PUSH1 0x40 DUP3 ADD MSTORE PUSH1 0x60 ADD SWAP1 JUMP JUMPDEST PUSH1 0x20 DUP1 DUP3 MSTORE PUSH1 0x15 SWAP1 DUP3 ADD MSTORE PUSH21 0x10D1CE881B9BC81B585C9AD95D1CC81B1A5CDD1959 PUSH1 0x5A SHL PUSH1 0x40 DUP3 ADD MSTORE PUSH1 0x60 ADD SWAP1 JUMP JUMPDEST PUSH1 0x20 DUP1 DUP3 MSTORE PUSH1 0xD SWAP1 DUP3 ADD MSTORE PUSH13 0x92DCECC2D8D2C840D2DCC8CAF PUSH1 0x9B SHL PUSH1 0x40 DUP3 ADD MSTORE PUSH1 0x60 ADD SWAP1 JUMP JUMPDEST PUSH1 0x20 DUP1 DUP3 MSTORE PUSH1 0x10 SWAP1 DUP3 ADD MSTORE PUSH16 0x496E76616C6964204D61747572697479 PUSH1 0x80 SHL PUSH1 0x40 DUP3 ADD MSTORE PUSH1 0x60 ADD SWAP1 JUMP JUMPDEST PUSH1 0x20 DUP1 DUP3 MSTORE PUSH1 0xC SWAP1 DUP3 ADD MSTORE PUSH12 0x4D6178204361706163697479 PUSH1 0xA0 SHL PUSH1 0x40 DUP3 ADD MSTORE PUSH1 0x60 ADD SWAP1 JUMP JUMPDEST PUSH1 0x20 DUP1 DUP3 MSTORE PUSH1 0xB SWAP1 DUP3 ADD MSTORE PUSH11 0x139BDD0814D95D1D1B1959 PUSH1 0xAA SHL PUSH1 0x40 DUP3 ADD MSTORE PUSH1 0x60 ADD SWAP1 JUMP JUMPDEST PUSH1 0x20 DUP1 DUP3 MSTORE PUSH1 0x16 SWAP1 DUP3 ADD MSTORE PUSH22 0x10D1CE881B585C9AD95D081A5B99195E08189BDD5B99 PUSH1 0x52 SHL PUSH1 0x40 DUP3 ADD MSTORE PUSH1 0x60 ADD SWAP1 JUMP JUMPDEST PUSH1 0x20 DUP1 DUP3 MSTORE PUSH1 0xF SWAP1 DUP3 ADD MSTORE PUSH15 0x139BC8149BDB1B08105B1B1BDDD959 PUSH1 0x8A SHL PUSH1 0x40 DUP3 ADD MSTORE PUSH1 0x60 ADD SWAP1 JUMP JUMPDEST PUSH1 0x20 DUP1 DUP3 MSTORE PUSH1 0x17 SWAP1 DUP3 ADD MSTORE PUSH32 0x496E73756666696369656E7420436F6C6C61746572616C000000000000000000 PUSH1 0x40 DUP3 ADD MSTORE PUSH1 0x60 ADD SWAP1 JUMP JUMPDEST PUSH1 0x20 DUP1 DUP3 MSTORE PUSH1 0x17 SWAP1 DUP3 ADD MSTORE PUSH32 0x4D757374204C697175696461746520416C6C2044656274000000000000000000 PUSH1 0x40 DUP3 ADD MSTORE PUSH1 0x60 ADD SWAP1 JUMP JUMPDEST PUSH1 0x20 DUP1 DUP3 MSTORE PUSH1 0xE SWAP1 DUP3 ADD MSTORE PUSH14 0x1499595B9D1C985B9D0818D85B1B PUSH1 0x92 SHL PUSH1 0x40 DUP3 ADD MSTORE PUSH1 0x60 ADD SWAP1 JUMP JUMPDEST PUSH1 0x20 DUP1 DUP3 MSTORE PUSH1 0xD SWAP1 DUP3 ADD MSTORE PUSH13 0x109BDC9C9BDDC819985A5B1959 PUSH1 0x9A SHL PUSH1 0x40 DUP3 ADD MSTORE PUSH1 0x60 ADD SWAP1 JUMP JUMPDEST PUSH1 0x20 DUP1 DUP3 MSTORE PUSH1 0xA SWAP1 DUP3 ADD MSTORE PUSH10 0x4D696E20426F72726F77 PUSH1 0xB0 SHL PUSH1 0x40 DUP3 ADD MSTORE PUSH1 0x60 ADD SWAP1 JUMP JUMPDEST PUSH1 0x20 DUP1 DUP3 MSTORE PUSH1 0xB SWAP1 DUP3 ADD MSTORE PUSH11 0x92DCECC2D8D2C8408AA89 PUSH1 0xAB SHL PUSH1 0x40 DUP3 ADD MSTORE PUSH1 0x60 ADD SWAP1 JUMP JUMPDEST PUSH1 0x20 DUP1 DUP3 MSTORE PUSH1 0x13 SWAP1 DUP3 ADD MSTORE PUSH19 0x10D1CE881B9BC81B585C9AD95D08199BDD5B99 PUSH1 0x6A SHL PUSH1 0x40 DUP3 ADD MSTORE PUSH1 0x60 ADD SWAP1 JUMP JUMPDEST PUSH1 0x20 DUP1 DUP3 MSTORE PUSH1 0xC SWAP1 DUP3 ADD MSTORE PUSH12 0x21B0B73737BA1022B73A32B9 PUSH1 0xA1 SHL PUSH1 0x40 DUP3 ADD MSTORE PUSH1 0x60 ADD SWAP1 JUMP JUMPDEST PUSH1 0x20 DUP1 DUP3 MSTORE PUSH1 0xB SWAP1 DUP3 ADD MSTORE PUSH11 0x11985A5B19590813195B99 PUSH1 0xAA SHL PUSH1 0x40 DUP3 ADD MSTORE PUSH1 0x60 ADD SWAP1 JUMP JUMPDEST PUSH1 0x20 DUP1 DUP3 MSTORE PUSH1 0x15 SWAP1 DUP3 ADD MSTORE PUSH21 0x14DD59999A58DA595B9D0810DBDB1B185D195C985B PUSH1 0x5A SHL PUSH1 0x40 DUP3 ADD MSTORE PUSH1 0x60 ADD SWAP1 JUMP JUMPDEST DUP2 MLOAD DUP2 MSTORE PUSH1 0x20 DUP1 DUP4 ADD MLOAD SWAP1 DUP3 ADD MSTORE PUSH1 0x40 DUP1 DUP4 ADD MLOAD SWAP1 DUP3 ADD MSTORE PUSH1 0x60 DUP1 DUP4 ADD MLOAD PUSH1 0x1 PUSH1 0x1 PUSH1 0xA0 SHL SUB AND SWAP1 DUP3 ADD MSTORE PUSH1 0x80 SWAP2 DUP3 ADD MLOAD SWAP2 DUP2 ADD SWAP2 SWAP1 SWAP2 MSTORE PUSH1 0xA0 ADD SWAP1 JUMP JUMPDEST PUSH1 0x1 PUSH1 0x1 PUSH1 0x80 SHL SUB SWAP2 SWAP1 SWAP2 AND DUP2 MSTORE PUSH1 0x20 ADD SWAP1 JUMP JUMPDEST PUSH2 0xFFFF SWAP3 SWAP1 SWAP3 AND DUP3 MSTORE PUSH1 0x20 DUP3 ADD MSTORE PUSH1 0x40 ADD SWAP1 JUMP JUMPDEST DUP4 DUP2 MSTORE PUSH1 0x80 DUP2 ADD PUSH1 0x20 DUP1 DUP4 ADD DUP6 PUSH1 0x0 JUMPDEST PUSH1 0x2 DUP2 LT ISZERO PUSH2 0x51E0 JUMPI DUP2 MLOAD DUP4 MSTORE SWAP2 DUP4 ADD SWAP2 SWAP1 DUP4 ADD SWAP1 PUSH1 0x1 ADD PUSH2 0x51C3 JUMP JUMPDEST POP POP POP POP DUP3 PUSH1 0x60 DUP4 ADD MSTORE SWAP5 SWAP4 POP POP POP POP JUMP JUMPDEST SWAP2 DUP3 MSTORE ISZERO ISZERO PUSH1 0x20 DUP3 ADD MSTORE PUSH1 0x40 ADD SWAP1 JUMP INVALID LOG2 PUSH5 0x6970667358 0x22 SLT KECCAK256 SWAP4 CALLVALUE 0x27 DUP12 0x4A BYTE RETURN PUSH27 0xC0C80BAB5A2F01216C4E2CF93BBA305D316D557B4C83C09D64736F PUSH13 0x63430007060033000000000000 ",
  "sha1": "71f61ceba3386ec0e401a9c4b53535cea994204a",
  "source": "// SPDX-License-Identifier: GPL-3.0-only\npragma solidity =0.7.6;\npragma abicoder v2;\n\nimport {ActionGuards} from \"./ActionGuards.sol\";\nimport {IVaultAccountAction} from \"../../../../interfaces/notional/IVaultController.sol\";\nimport \"../../internal/vaults/VaultConfiguration.sol\";\nimport \"../../internal/vaults/VaultAccount.sol\";\nimport {VaultStateLib, VaultState} from \"../../internal/vaults/VaultState.sol\";\nimport {TokenHandler, Token, AaveHandler} from \"../../internal/balances/TokenHandler.sol\";\n\ncontract VaultAccountAction is ActionGuards, IVaultAccountAction {\n    using VaultConfiguration for VaultConfig;\n    using VaultAccountLib for VaultAccount;\n    using VaultStateLib for VaultState;\n    using AssetRate for AssetRateParameters;\n    using TokenHandler for Token;\n    using SafeInt256 for int256;\n    using SafeUint256 for uint256;\n\n    /// @notice Borrows a specified amount of fCash in the vault's borrow currency and deposits it\n    /// all plus the depositAmountExternal into the vault to mint strategy tokens.\n    /// @param account the address that will enter the vault\n    /// @param vault the vault to enter\n    /// @param depositAmountExternal some amount of additional collateral in the borrowed currency\n    /// to be transferred to vault\n    /// @param maturity the maturity to borrow at\n    /// @param fCash amount to borrow\n    /// @param maxBorrowRate maximum interest rate to borrow at\n    /// @param vaultData additional data to pass to the vault contract\n    /// @return strategyTokensAdded the total strategy tokens added to the maturity, including any tokens\n    /// from settlement. Allows enterVault to be used by off-chain methods to get an accurate simulation\n    /// of the strategy tokens minted.\n    function enterVault(\n        address account,\n        address vault,\n        uint256 depositAmountExternal,\n        uint256 maturity,\n        uint256 fCash,\n        uint32 maxBorrowRate,\n        bytes calldata vaultData\n    ) external payable override nonReentrant returns (uint256 strategyTokensAdded) { \n        // Ensure that system level accounts cannot enter vaults\n        requireValidAccount(account);\n        VaultConfig memory vaultConfig = VaultConfiguration.getVaultConfigStateful(vault);\n        vaultConfig.authorizeCaller(account, VaultConfiguration.ONLY_VAULT_ENTRY);\n\n        // If the vault allows further re-entrancy then set the status back to the default\n        if (vaultConfig.getFlag(VaultConfiguration.ALLOW_REENTRANCY)) {\n            reentrancyStatus = _NOT_ENTERED;\n        }\n\n        // Vaults cannot be entered if they are paused or matured\n        require(vaultConfig.getFlag(VaultConfiguration.ENABLED), \"Cannot Enter\");\n        require(block.timestamp < maturity, \"Cannot Enter\");\n        VaultAccount memory vaultAccount = VaultAccountLib.getVaultAccount(account, vault);\n\n        uint256 strategyTokens;\n        if (vaultAccount.maturity != 0 && vaultAccount.maturity <= block.timestamp) {\n            // These strategy tokens will be transferred to the new maturity\n            strategyTokens = vaultAccount.settleVaultAccount(vaultConfig, block.timestamp);\n        }\n\n        // Deposits some amount of underlying tokens into the vault directly to serve as additional collateral when\n        // entering the vault.\n        uint256 additionalUnderlyingExternal = vaultConfig.transferUnderlyingToVaultDirect(account, depositAmountExternal);\n        strategyTokensAdded = vaultAccount.borrowAndEnterVault(\n            vaultConfig, maturity, fCash, maxBorrowRate, vaultData, strategyTokens, additionalUnderlyingExternal\n        );\n\n        emit VaultEnterPosition(vault, account, maturity, fCash);\n    }\n\n    /// @notice Re-enters the vault at a longer dated maturity. The account's existing borrow position will be closed\n    /// and a new borrow position at the specified maturity will be opened. Strategy token holdings will transfer to\n    /// the longer dated maturity.\n    /// @param account the address that will reenter the vault\n    /// @param vault the vault to reenter\n    /// @param fCashToBorrow amount of fCash to borrow in the next maturity\n    /// @param maturity new maturity to borrow at\n    /// @return strategyTokensAdded the total strategy tokens added to the maturity, including any tokens\n    /// rolled from the previous maturity.. Allows rollVaultPosition to be used by off-chain methods to get\n    /// an accurate simulation of the strategy tokens minted.\n    function rollVaultPosition(\n        address account,\n        address vault,\n        uint256 fCashToBorrow,\n        uint256 maturity,\n        uint32 minLendRate,\n        uint32 maxBorrowRate,\n        bytes calldata enterVaultData\n    ) external override nonReentrant returns (uint256 strategyTokensAdded) {\n        VaultConfig memory vaultConfig = VaultConfiguration.getVaultConfigStateful(vault);\n        vaultConfig.authorizeCaller(account, VaultConfiguration.ONLY_VAULT_ROLL);\n\n        // If the vault allows further re-entrancy then set the status back to the default\n        if (vaultConfig.getFlag(VaultConfiguration.ALLOW_REENTRANCY)) {\n            reentrancyStatus = _NOT_ENTERED;\n        }\n\n        VaultAccount memory vaultAccount = VaultAccountLib.getVaultAccount(account, vault);\n        // Cannot roll unless all of these requirements are met\n        require(\n            vaultConfig.getFlag(VaultConfiguration.ENABLED) &&\n            vaultConfig.getFlag(VaultConfiguration.ALLOW_ROLL_POSITION) &&\n            block.timestamp < vaultAccount.maturity && // cannot have matured yet\n            vaultAccount.maturity < maturity && // new maturity must be forward in time\n            fCashToBorrow > 0, // must borrow into the next maturity, if not, then they should just exit\n            \"No Roll Allowed\"\n        );\n\n        VaultState memory vaultState = VaultStateLib.getVaultState(vaultConfig.vault, vaultAccount.maturity);\n        // Exit the maturity pool by removing all the vault shares. All of the strategy tokens will be\n        // re-deposited into the new maturity\n        uint256 strategyTokens = vaultState.exitMaturity(vaultAccount, vaultAccount.vaultShares);\n\n        // Exit the vault first and debit the temporary cash balance with the cost to exit\n        vaultAccount.lendToExitVault(\n            vaultConfig,\n            vaultState,\n            vaultAccount.fCash.neg(), // must fully exit the fCash position\n            minLendRate,\n            block.timestamp\n        );\n\n        // This should never be the case for a healthy vault account due to the mechanics of exiting the vault\n        // above but we check it for safety here.\n        require(vaultAccount.fCash == 0, \"Failed Lend\");\n        vaultState.setVaultState(vaultConfig.vault);\n\n        // Enters the vault at the longer dated maturity\n        strategyTokensAdded = vaultAccount.borrowAndEnterVault(\n            vaultConfig,\n            maturity, // This is the new maturity to enter\n            fCashToBorrow,\n            maxBorrowRate,\n            enterVaultData,\n            strategyTokens,\n            0 // No additional tokens deposited in this method\n        );\n\n        emit VaultRollPosition(vault, account, maturity, fCashToBorrow);\n    }\n\n    /// @notice Prior to maturity, allows an account to withdraw their position from the vault. Will\n    /// redeem some number of vault shares to the borrow currency and close the borrow position by\n    /// lending `fCashToLend`. Any shortfall in cash from lending will be transferred from the account,\n    /// any excess profits will be transferred to the account.\n    /// Post maturity, will net off the account's debt against vault cash balances and redeem all remaining\n    /// strategy tokens back to the borrowed currency and transfer the profits to the account.\n    /// @param account the address that will exit the vault\n    /// @param vault the vault to enter\n    /// @param receiver the address that will receive profits\n    /// @param vaultSharesToRedeem amount of vault tokens to exit, only relevant when exiting pre-maturity\n    /// @param fCashToLend amount of fCash to lend\n    /// @param minLendRate the minimum rate to lend at\n    /// @param exitVaultData passed to the vault during exit\n    /// @return underlyingToReceiver amount of underlying tokens returned to the receiver on exit\n    function exitVault(\n        address account,\n        address vault,\n        address receiver,\n        uint256 vaultSharesToRedeem,\n        uint256 fCashToLend,\n        uint32 minLendRate,\n        bytes calldata exitVaultData\n    ) external payable override nonReentrant returns (uint256 underlyingToReceiver) {\n        VaultConfig memory vaultConfig = VaultConfiguration.getVaultConfigStateful(vault);\n        vaultConfig.authorizeCaller(account, VaultConfiguration.ONLY_VAULT_EXIT);\n\n        // If the vault allows further re-entrancy then set the status back to the default\n        if (vaultConfig.getFlag(VaultConfiguration.ALLOW_REENTRANCY)) {\n            reentrancyStatus = _NOT_ENTERED;\n        }\n\n        VaultAccount memory vaultAccount = VaultAccountLib.getVaultAccount(account, vault);\n\n        if (vaultAccount.maturity <= block.timestamp) {\n            // Save this off because settleVaultAccount will clear the maturity\n            uint256 maturity = vaultAccount.maturity;\n            // Past maturity, an account will be settled instead\n            uint256 strategyTokens = vaultAccount.settleVaultAccount(vaultConfig, block.timestamp);\n\n            if (vaultAccount.tempCashBalance > 0) {\n                // Transfer asset cash back to the account\n                VaultConfiguration.transferFromNotional(\n                    receiver, vaultConfig.borrowCurrencyId, vaultAccount.tempCashBalance\n                );\n                vaultAccount.tempCashBalance = 0;\n            }\n\n            // Redeems all strategy tokens and any profits are sent back to the account, it is possible for temp\n            // cash balance to be negative here if the account is insolvent\n            underlyingToReceiver = vaultConfig.redeemWithDebtRepayment(\n                vaultAccount, receiver, strategyTokens, maturity, exitVaultData\n            );\n            emit VaultExitPostMaturity(vault, account, maturity);\n        } else {\n            VaultState memory vaultState = VaultStateLib.getVaultState(vaultConfig.vault, vaultAccount.maturity);\n            // Puts a negative cash balance on the vault's temporary cash balance\n            vaultAccount.lendToExitVault(\n                vaultConfig, vaultState, fCashToLend.toInt(), minLendRate, block.timestamp\n            );\n\n            uint256 strategyTokens = vaultState.exitMaturity(vaultAccount, vaultSharesToRedeem);\n\n            if (vaultAccount.tempCashBalance > 0) {\n                // Transfer asset cash back to the account, this is possible if there is asset cash\n                // when the vault exits the maturity\n                VaultConfiguration.transferFromNotional(\n                    receiver, vaultConfig.borrowCurrencyId, vaultAccount.tempCashBalance\n                );\n                vaultAccount.tempCashBalance = 0;\n            }\n\n            if (strategyTokens > 0) {\n                underlyingToReceiver = vaultConfig.redeemWithDebtRepayment(\n                    vaultAccount, receiver, strategyTokens, vaultState.maturity, exitVaultData\n                );\n            }\n\n            if (vaultAccount.fCash < 0) {\n                // It's possible that the user redeems more vault shares than they lend (it is not always the case\n                // that they will be increasing their collateral ratio here, so we check that this is the case).\n                vaultConfig.checkCollateralRatio(vaultState, vaultAccount);\n            }\n\n            // Set the vault state after redemption completes\n            vaultState.setVaultState(vaultConfig.vault);\n            emit VaultExitPreMaturity(vault, account, vaultState.maturity, fCashToLend, vaultSharesToRedeem);\n        }\n\n        if (vaultAccount.fCash == 0 && vaultAccount.vaultShares == 0) {\n            // If the account has no position in the vault at this point, set the maturity to zero as well\n            vaultAccount.maturity = 0;\n        }\n        vaultAccount.setVaultAccount(vaultConfig);\n    }\n\n    /// @notice If an account is below the minimum collateral ratio, this method wil deleverage (liquidate)\n    /// that account. `depositAmountExternal` in the borrow currency will be transferred from the liquidator\n    /// and used to offset the account's debt position. The liquidator will receive either vaultShares or\n    /// cash depending.\n    /// @param account the address that will exit the vault\n    /// @param vault the vault to enter\n    /// @param liquidator the address that will receive profits from liquidation\n    /// @param depositAmountExternal amount of asset cash to deposit\n    /// @param transferSharesToLiquidator transfers the shares to the liquidator instead of redeeming them\n    /// @param redeemData calldata sent to the vault when redeeming liquidator profits\n    /// @return profitFromLiquidation amount of vaultShares or cash received from liquidation\n    function deleverageAccount(\n        address account,\n        address vault,\n        address liquidator,\n        uint256 depositAmountExternal,\n        bool transferSharesToLiquidator,\n        bytes calldata redeemData\n    ) external nonReentrant override returns (uint256 profitFromLiquidation) {\n        VaultConfig memory vaultConfig = _authenticateDeleverage(account, vault, liquidator);\n        VaultAccount memory vaultAccount = VaultAccountLib.getVaultAccount(account, vault);\n        VaultState memory vaultState = VaultStateLib.getVaultState(vault, vaultAccount.maturity);\n\n        // Check that the account has an active position. After maturity, accounts will be settled instead.\n        require(block.timestamp < vaultAccount.maturity);\n\n        // Check that the collateral ratio is below the minimum allowed\n        (int256 collateralRatio, int256 vaultShareValue) = vaultConfig.calculateCollateralRatio(\n            vaultState, account, vaultAccount.vaultShares, vaultAccount.fCash\n        );\n        require(collateralRatio < vaultConfig.minCollateralRatio , \"Sufficient Collateral\");\n\n        Token memory assetToken = TokenHandler.getAssetToken(vaultConfig.borrowCurrencyId);\n        // This will deposit some amount of cash into vaultAccount.tempCashBalance\n        _depositLiquidatorAmount(\n            liquidator, assetToken, vaultAccount, vaultConfig, depositAmountExternal, vaultShareValue\n        );\n\n        // The liquidator will purchase vault shares from the vault account at discount. The calculation is:\n        // (cashDeposited / assetCashValueOfShares) * liquidationRate * vaultShares\n        //      where cashDeposited / assetCashValueOfShares represents the share of the total vault share\n        //      value the liquidator has deposited\n        //      and liquidationRate is a percentage greater than 100% that represents their bonus\n        uint256 vaultSharesToLiquidator;\n        {\n            vaultSharesToLiquidator = vaultAccount.tempCashBalance.toUint()\n                .mul(vaultConfig.liquidationRate.toUint())\n                .mul(vaultAccount.vaultShares)\n                .div(vaultShareValue.toUint())\n                .div(uint256(Constants.RATE_PRECISION));\n        }\n\n        vaultAccount.vaultShares = vaultAccount.vaultShares.sub(vaultSharesToLiquidator);\n        // The liquidated account will lend to exit their position at a zero interest rate and forgo any future interest\n        // from asset tokens. Trading on the AMM during liquidation is risky and lending at a zero interest rate is more\n        // costly to the the liquidated account but is safer from a protocol perspective. This can be seen as a protocol\n        // level liquidation fee.\n        {\n            int256 fCashToReduce = vaultConfig.assetRate.convertToUnderlying(vaultAccount.tempCashBalance);\n            vaultAccount.updateAccountfCash(vaultConfig, vaultState, fCashToReduce, vaultAccount.tempCashBalance.neg());\n            // _calculateLiquidatorDeposit should ensure that we only ever lend up to a zero balance, but in the\n            // case of any off by one issues we clear the fCash balance by down to zero.\n            if (vaultAccount.fCash > 0) vaultAccount.fCash = 0;\n            emit VaultDeleverageAccount(vault, account, vaultSharesToLiquidator, fCashToReduce);\n        }\n\n        // Sets the liquidated account account\n        vaultAccount.setVaultAccount(vaultConfig);\n\n        // Redeems the vault shares for asset cash and transfers it to the designated address\n        emit VaultLiquidatorProfit(vault, account, liquidator, vaultSharesToLiquidator, transferSharesToLiquidator);\n        if (transferSharesToLiquidator) {\n            vaultState.setVaultState(vaultConfig.vault);\n            return _transferLiquidatorProfits(liquidator, vaultConfig, vaultSharesToLiquidator, vaultAccount.maturity);\n        } else {\n            return _redeemLiquidatorProfits(\n                liquidator, vaultConfig, vaultState, vaultSharesToLiquidator, redeemData, assetToken\n            );\n        }\n    }\n\n    /// @notice Authenticates a call to the deleverage method\n    function _authenticateDeleverage(\n        address account,\n        address vault,\n        address liquidator\n    ) private returns (VaultConfig memory vaultConfig) {\n        vaultConfig = VaultConfiguration.getVaultConfigStateful(vault);\n        // If the vault allows further re-entrancy then set the status back to the default\n        if (vaultConfig.getFlag(VaultConfiguration.ALLOW_REENTRANCY)) {\n            reentrancyStatus = _NOT_ENTERED;\n        }\n\n        // Authorization rules for deleveraging\n        if (vaultConfig.getFlag(VaultConfiguration.ONLY_VAULT_DELEVERAGE)) {\n            require(msg.sender == vault, \"Unauthorized\");\n        } else {\n            require(msg.sender == liquidator, \"Unauthorized\");\n        }\n\n        // Cannot liquidate self, if a vault needs to deleverage itself as a whole it has other methods \n        // in VaultAction to do so.\n        require(account != msg.sender && account != liquidator, \"Unauthorized\");\n    }\n\n    /// @notice Calculates the amount the liquidator must deposit and then transfers it into Notional,\n    /// crediting the account's temporary cash balance. Deposits must be in the form of asset cash.\n    function _depositLiquidatorAmount(\n        address liquidator,\n        Token memory assetToken,\n        VaultAccount memory vaultAccount,\n        VaultConfig memory vaultConfig,\n        uint256 _depositAmountExternal,\n        int256 vaultShareValue\n    ) private {\n        int256 depositAmountExternal = _depositAmountExternal.toInt();\n        if (assetToken.tokenType == TokenType.aToken) {\n            // Handles special accounting requirements for aTokens\n            depositAmountExternal = AaveHandler.convertToScaledBalanceExternal(\n                vaultConfig.borrowCurrencyId, depositAmountExternal\n            );\n        }\n\n        // Calculates the maximum deleverage amount\n        (\n            int256 maxLiquidatorDepositAssetCash,\n            int256 debtOutstandingAboveMinBorrow\n        ) = vaultAccount.calculateDeleverageAmount(vaultConfig, vaultShareValue);\n        // Catch potential edge cases where this is negative due to insolvency inside the vault itself\n        require(maxLiquidatorDepositAssetCash > 0);\n        // For aTokens this amount is in scaled balance external precision (the same as depositAmountExternal)\n        int256 maxLiquidatorDepositExternal = assetToken.convertToExternal(maxLiquidatorDepositAssetCash);\n\n        // NOTE: deposit amount external is always positive in this method\n        if (depositAmountExternal < maxLiquidatorDepositExternal) {\n            // If liquidating past the debt outstanding above the min borrow, then the entire debt outstanding\n            // must be liquidated (that is set to maxLiquidatorDepositExternal)\n            require(depositAmountExternal < assetToken.convertToExternal(debtOutstandingAboveMinBorrow), \"Must Liquidate All Debt\");\n        } else {\n            // In the other case, limit the deposited amount to the maximum\n            depositAmountExternal = maxLiquidatorDepositExternal;\n        }\n\n        // Transfers the amount of asset tokens into Notional and credit it to the account's temp cash balance\n        int256 assetAmountExternalTransferred = assetToken.transfer(\n            liquidator, vaultConfig.borrowCurrencyId, depositAmountExternal\n        );\n\n        vaultAccount.tempCashBalance = vaultAccount.tempCashBalance.add(\n            assetToken.convertToInternal(assetAmountExternalTransferred)\n        );\n    }\n\n    /// @notice Transfers liquidator profits in the form of vault shares to be returned to the liquidator\n    function _transferLiquidatorProfits(\n        address receiver,\n        VaultConfig memory vaultConfig,\n        uint256 vaultSharesToLiquidator,\n        uint256 maturity\n    ) private returns (uint256) {\n        // Liquidator will receive vault shares that they can redeem by calling exitVault. If the liquidator has a\n        // leveraged position on then their collateral ratio will increase\n        VaultAccount memory liquidator = VaultAccountLib.getVaultAccount(receiver, vaultConfig.vault);\n        // The liquidator must be able to receive the vault shares (i.e. not be in the vault at all or be in the\n        // vault at the same maturity). If the liquidator has fCash in the current maturity then their collateral\n        // ratio will increase as a result of the liquidation, no need to check their collateral position.\n        require(liquidator.maturity == 0 || liquidator.maturity == maturity, \"Vault Shares Mismatch\"); // dev: has vault shares\n        liquidator.maturity = maturity;\n        liquidator.vaultShares = liquidator.vaultShares.add(vaultSharesToLiquidator);\n        liquidator.setVaultAccount(vaultConfig);\n\n        return vaultSharesToLiquidator;\n    }\n\n    /// @notice Redeems liquidator profits back to asset cash and transfers it to the liquidator\n    function _redeemLiquidatorProfits(\n        address liquidator,\n        VaultConfig memory vaultConfig,\n        VaultState memory vaultState,\n        uint256 vaultShares,\n        bytes calldata redeemData,\n        Token memory assetToken\n    ) private returns (uint256) {\n        (uint256 assetCash, uint256 strategyTokens) = vaultState.exitMaturityDirect(vaultShares);\n        int256 assetCashInternal = vaultConfig.redeemWithoutDebtRepayment(\n            liquidator, strategyTokens, vaultState.maturity, redeemData\n        );\n        assetCashInternal = assetCashInternal.add(assetCash.toInt());\n\n        // Set the vault state after redemption completes\n        vaultState.setVaultState(vaultConfig.vault);\n\n        // Returns a negative amount to signify assets have left the protocol. For aTokens this is the scaled\n        // balance external.\n        int256 actualTransferExternal = assetToken.transfer(\n            liquidator, vaultConfig.borrowCurrencyId, assetToken.convertToExternal(assetCashInternal.neg())\n        );\n\n        if (assetToken.tokenType == TokenType.aToken) {\n            // Convert this back to aToken balanceOf amount to return back to the liquidator\n            Token memory underlyingToken = TokenHandler.getUnderlyingToken(vaultConfig.borrowCurrencyId);\n            actualTransferExternal = AaveHandler.convertFromScaledBalanceExternal(\n                underlyingToken.tokenAddress, actualTransferExternal\n            );\n        }\n\n        // actualTransferExternal is negative to signify assets have left the protocol\n        return actualTransferExternal.neg().toUint();\n    }\n\n    /** View Methods **/\n    function getVaultAccount(address account, address vault) external override view returns (VaultAccount memory) {\n        return VaultAccountLib.getVaultAccount(account, vault);\n    }\n\n    function getVaultAccountDebtShares(\n        address account,\n        address vault\n    ) external override view returns (\n        uint256 debtSharesMaturity,\n        uint256[2] memory accountDebtShares,\n        uint256 accountStrategyTokens\n    ) {\n        VaultAccountSecondaryDebtShareStorage storage s = \n            LibStorage.getVaultAccountSecondaryDebtShare()[account][vault];\n        debtSharesMaturity = s.maturity;\n        accountDebtShares[0] = s.accountDebtSharesOne;\n        accountDebtShares[1] = s.accountDebtSharesTwo;\n\n        VaultAccount memory vaultAccount = VaultAccountLib.getVaultAccount(account, vault);\n        VaultState memory vaultState = VaultStateLib.getVaultState(vault, vaultAccount.maturity);\n        (/* */, accountStrategyTokens) = vaultState.getPoolShare(vaultAccount.vaultShares);\n    }\n\n    function getVaultAccountCollateralRatio(address account, address vault) external override view returns (\n        int256 collateralRatio,\n        int256 minCollateralRatio,\n        int256 maxLiquidatorDepositAssetCash\n    ) {\n        VaultConfig memory vaultConfig = VaultConfiguration.getVaultConfigView(vault);\n        VaultAccount memory vaultAccount = VaultAccountLib.getVaultAccount(account, vault);\n        VaultState memory vaultState = VaultStateLib.getVaultState(vault, vaultAccount.maturity);\n        minCollateralRatio = vaultConfig.minCollateralRatio;\n\n        if (vaultState.isSettled) {\n            // In this case, the maturity has been settled and although the vault account says that it has\n            // some fCash balance it does not actually owe any debt anymore.\n            collateralRatio = type(int256).max;\n        } else {\n            int256 vaultShareValue;\n            (collateralRatio, vaultShareValue) = vaultConfig.calculateCollateralRatio(\n                vaultState, account, vaultAccount.vaultShares, vaultAccount.fCash\n            );\n\n            // Calculates liquidation factors if the account is eligible\n            if (collateralRatio < minCollateralRatio && vaultShareValue > 0) {\n                (maxLiquidatorDepositAssetCash, /* */) = vaultAccount.calculateDeleverageAmount(\n                    vaultConfig, vaultShareValue\n                );\n            }\n        }\n    }\n\n    function getLibInfo() external pure returns (address) {\n        return address(TradingAction);\n    }\n}\n",
  "sourcePath": "contracts/external/actions/VaultAccountAction.sol",
  "type": "contract"
}