{
  "abi": [
    {
      "anonymous": false,
      "inputs": [
        {
          "indexed": true,
          "internalType": "address",
          "name": "vault",
          "type": "address"
        },
        {
          "indexed": true,
          "internalType": "uint16",
          "name": "currencyId",
          "type": "uint16"
        },
        {
          "indexed": true,
          "internalType": "uint256",
          "name": "maturity",
          "type": "uint256"
        },
        {
          "indexed": false,
          "internalType": "int256",
          "name": "shortfall",
          "type": "int256"
        }
      ],
      "name": "ProtocolInsolvency",
      "type": "event"
    },
    {
      "anonymous": false,
      "inputs": [
        {
          "indexed": true,
          "internalType": "address",
          "name": "vault",
          "type": "address"
        },
        {
          "indexed": true,
          "internalType": "uint16",
          "name": "currencyId",
          "type": "uint16"
        },
        {
          "indexed": false,
          "internalType": "uint256",
          "name": "totalUsedBorrowCapacity",
          "type": "uint256"
        }
      ],
      "name": "VaultBorrowCapacityChange",
      "type": "event"
    },
    {
      "anonymous": false,
      "inputs": [
        {
          "indexed": true,
          "internalType": "address",
          "name": "vault",
          "type": "address"
        },
        {
          "indexed": true,
          "internalType": "uint16",
          "name": "currencyId",
          "type": "uint16"
        },
        {
          "indexed": true,
          "internalType": "uint256",
          "name": "maturity",
          "type": "uint256"
        },
        {
          "indexed": false,
          "internalType": "int256",
          "name": "reserveFee",
          "type": "int256"
        },
        {
          "indexed": false,
          "internalType": "int256",
          "name": "nTokenFee",
          "type": "int256"
        }
      ],
      "name": "VaultFeeAccrued",
      "type": "event"
    },
    {
      "anonymous": false,
      "inputs": [
        {
          "indexed": true,
          "internalType": "address",
          "name": "vault",
          "type": "address"
        },
        {
          "indexed": true,
          "internalType": "uint256",
          "name": "maturity",
          "type": "uint256"
        },
        {
          "indexed": false,
          "internalType": "uint256",
          "name": "assetCashDeposited",
          "type": "uint256"
        },
        {
          "indexed": false,
          "internalType": "uint256",
          "name": "strategyTokensMinted",
          "type": "uint256"
        }
      ],
      "name": "VaultMintStrategyToken",
      "type": "event"
    },
    {
      "anonymous": false,
      "inputs": [
        {
          "indexed": true,
          "internalType": "address",
          "name": "vault",
          "type": "address"
        },
        {
          "indexed": false,
          "internalType": "bool",
          "name": "enabled",
          "type": "bool"
        }
      ],
      "name": "VaultPauseStatus",
      "type": "event"
    },
    {
      "anonymous": false,
      "inputs": [
        {
          "indexed": true,
          "internalType": "address",
          "name": "vault",
          "type": "address"
        },
        {
          "indexed": true,
          "internalType": "uint256",
          "name": "maturity",
          "type": "uint256"
        },
        {
          "indexed": false,
          "internalType": "int256",
          "name": "assetCashReceived",
          "type": "int256"
        },
        {
          "indexed": false,
          "internalType": "uint256",
          "name": "strategyTokensRedeemed",
          "type": "uint256"
        }
      ],
      "name": "VaultRedeemStrategyToken",
      "type": "event"
    },
    {
      "anonymous": false,
      "inputs": [
        {
          "indexed": true,
          "internalType": "address",
          "name": "vault",
          "type": "address"
        },
        {
          "indexed": true,
          "internalType": "address",
          "name": "account",
          "type": "address"
        },
        {
          "indexed": true,
          "internalType": "uint16",
          "name": "currencyId",
          "type": "uint16"
        },
        {
          "indexed": false,
          "internalType": "uint256",
          "name": "maturity",
          "type": "uint256"
        },
        {
          "indexed": false,
          "internalType": "uint256",
          "name": "debtSharesRepaid",
          "type": "uint256"
        },
        {
          "indexed": false,
          "internalType": "uint256",
          "name": "fCashLent",
          "type": "uint256"
        }
      ],
      "name": "VaultRepaySecondaryBorrow",
      "type": "event"
    },
    {
      "anonymous": false,
      "inputs": [
        {
          "indexed": true,
          "internalType": "address",
          "name": "vault",
          "type": "address"
        },
        {
          "indexed": true,
          "internalType": "address",
          "name": "account",
          "type": "address"
        },
        {
          "indexed": true,
          "internalType": "uint16",
          "name": "currencyId",
          "type": "uint16"
        },
        {
          "indexed": false,
          "internalType": "uint256",
          "name": "maturity",
          "type": "uint256"
        },
        {
          "indexed": false,
          "internalType": "uint256",
          "name": "debtSharesMinted",
          "type": "uint256"
        },
        {
          "indexed": false,
          "internalType": "uint256",
          "name": "fCashBorrowed",
          "type": "uint256"
        }
      ],
      "name": "VaultSecondaryBorrow",
      "type": "event"
    },
    {
      "anonymous": false,
      "inputs": [
        {
          "indexed": true,
          "internalType": "address",
          "name": "vault",
          "type": "address"
        },
        {
          "indexed": true,
          "internalType": "uint256",
          "name": "maturity",
          "type": "uint256"
        },
        {
          "indexed": false,
          "internalType": "int256",
          "name": "totalfCash",
          "type": "int256"
        },
        {
          "indexed": false,
          "internalType": "uint256",
          "name": "totalAssetCash",
          "type": "uint256"
        },
        {
          "indexed": false,
          "internalType": "uint256",
          "name": "totalStrategyTokens",
          "type": "uint256"
        },
        {
          "indexed": false,
          "internalType": "uint256",
          "name": "totalVaultShares",
          "type": "uint256"
        },
        {
          "indexed": false,
          "internalType": "int256",
          "name": "strategyTokenValue",
          "type": "int256"
        }
      ],
      "name": "VaultSettled",
      "type": "event"
    },
    {
      "anonymous": false,
      "inputs": [
        {
          "indexed": true,
          "internalType": "address",
          "name": "vault",
          "type": "address"
        },
        {
          "indexed": true,
          "internalType": "uint256",
          "name": "maturity",
          "type": "uint256"
        },
        {
          "indexed": false,
          "internalType": "int256",
          "name": "remainingAssetCash",
          "type": "int256"
        },
        {
          "indexed": false,
          "internalType": "uint256",
          "name": "remainingStrategyTokens",
          "type": "uint256"
        }
      ],
      "name": "VaultSettledAssetsRemaining",
      "type": "event"
    },
    {
      "anonymous": false,
      "inputs": [
        {
          "indexed": true,
          "internalType": "address",
          "name": "vault",
          "type": "address"
        },
        {
          "indexed": true,
          "internalType": "uint16",
          "name": "currencyId",
          "type": "uint16"
        },
        {
          "indexed": true,
          "internalType": "uint256",
          "name": "maturity",
          "type": "uint256"
        },
        {
          "indexed": false,
          "internalType": "int256",
          "name": "shortfall",
          "type": "int256"
        }
      ],
      "name": "VaultShortfall",
      "type": "event"
    },
    {
      "anonymous": false,
      "inputs": [
        {
          "indexed": true,
          "internalType": "address",
          "name": "vault",
          "type": "address"
        },
        {
          "indexed": true,
          "internalType": "uint256",
          "name": "maturity",
          "type": "uint256"
        },
        {
          "indexed": false,
          "internalType": "int256",
          "name": "totalfCash",
          "type": "int256"
        },
        {
          "indexed": false,
          "internalType": "uint256",
          "name": "totalAssetCash",
          "type": "uint256"
        },
        {
          "indexed": false,
          "internalType": "uint256",
          "name": "totalStrategyTokens",
          "type": "uint256"
        },
        {
          "indexed": false,
          "internalType": "uint256",
          "name": "totalVaultShares",
          "type": "uint256"
        }
      ],
      "name": "VaultStateUpdate",
      "type": "event"
    },
    {
      "anonymous": false,
      "inputs": [
        {
          "indexed": true,
          "internalType": "address",
          "name": "vault",
          "type": "address"
        },
        {
          "indexed": true,
          "internalType": "uint16",
          "name": "currencyId",
          "type": "uint16"
        },
        {
          "indexed": false,
          "internalType": "uint80",
          "name": "maxSecondaryBorrowCapacity",
          "type": "uint80"
        }
      ],
      "name": "VaultUpdateSecondaryBorrowCapacity",
      "type": "event"
    },
    {
      "anonymous": false,
      "inputs": [
        {
          "indexed": true,
          "internalType": "address",
          "name": "vault",
          "type": "address"
        },
        {
          "indexed": false,
          "internalType": "bool",
          "name": "enabled",
          "type": "bool"
        },
        {
          "indexed": false,
          "internalType": "uint80",
          "name": "maxPrimaryBorrowCapacity",
          "type": "uint80"
        }
      ],
      "name": "VaultUpdated",
      "type": "event"
    },
    {
      "inputs": [
        {
          "internalType": "address",
          "name": "account",
          "type": "address"
        },
        {
          "internalType": "uint256",
          "name": "maturity",
          "type": "uint256"
        },
        {
          "internalType": "uint256[2]",
          "name": "fCashToBorrow",
          "type": "uint256[2]"
        },
        {
          "internalType": "uint32[2]",
          "name": "maxBorrowRate",
          "type": "uint32[2]"
        },
        {
          "internalType": "uint32[2]",
          "name": "minRollLendRate",
          "type": "uint32[2]"
        }
      ],
      "name": "borrowSecondaryCurrencyToVault",
      "outputs": [
        {
          "internalType": "uint256[2]",
          "name": "underlyingTokensTransferred",
          "type": "uint256[2]"
        }
      ],
      "stateMutability": "nonpayable",
      "type": "function"
    },
    {
      "inputs": [
        {
          "internalType": "uint256",
          "name": "maturity",
          "type": "uint256"
        },
        {
          "internalType": "uint256",
          "name": "assetCashInternal",
          "type": "uint256"
        },
        {
          "internalType": "bytes",
          "name": "vaultData",
          "type": "bytes"
        }
      ],
      "name": "depositVaultCashToStrategyTokens",
      "outputs": [],
      "stateMutability": "nonpayable",
      "type": "function"
    },
    {
      "inputs": [
        {
          "internalType": "address",
          "name": "vault",
          "type": "address"
        },
        {
          "internalType": "uint16",
          "name": "currencyId",
          "type": "uint16"
        }
      ],
      "name": "getBorrowCapacity",
      "outputs": [
        {
          "internalType": "uint256",
          "name": "totalUsedBorrowCapacity",
          "type": "uint256"
        },
        {
          "internalType": "uint256",
          "name": "maxBorrowCapacity",
          "type": "uint256"
        }
      ],
      "stateMutability": "view",
      "type": "function"
    },
    {
      "inputs": [
        {
          "internalType": "address",
          "name": "vault",
          "type": "address"
        },
        {
          "internalType": "uint256",
          "name": "maturity",
          "type": "uint256"
        }
      ],
      "name": "getCashRequiredToSettle",
      "outputs": [
        {
          "internalType": "int256",
          "name": "assetCashRequiredToSettle",
          "type": "int256"
        },
        {
          "internalType": "int256",
          "name": "underlyingCashRequiredToSettle",
          "type": "int256"
        }
      ],
      "stateMutability": "view",
      "type": "function"
    },
    {
      "inputs": [],
      "name": "getLibInfo",
      "outputs": [
        {
          "internalType": "address",
          "name": "",
          "type": "address"
        }
      ],
      "stateMutability": "pure",
      "type": "function"
    },
    {
      "inputs": [
        {
          "internalType": "address",
          "name": "vault",
          "type": "address"
        },
        {
          "internalType": "uint16",
          "name": "currencyId",
          "type": "uint16"
        },
        {
          "internalType": "uint256",
          "name": "maturity",
          "type": "uint256"
        }
      ],
      "name": "getSecondaryBorrow",
      "outputs": [
        {
          "internalType": "uint256",
          "name": "totalfCashBorrowed",
          "type": "uint256"
        },
        {
          "internalType": "uint256",
          "name": "totalAccountDebtShares",
          "type": "uint256"
        }
      ],
      "stateMutability": "view",
      "type": "function"
    },
    {
      "inputs": [
        {
          "internalType": "address",
          "name": "vault",
          "type": "address"
        }
      ],
      "name": "getVaultConfig",
      "outputs": [
        {
          "components": [
            {
              "internalType": "address",
              "name": "vault",
              "type": "address"
            },
            {
              "internalType": "uint16",
              "name": "flags",
              "type": "uint16"
            },
            {
              "internalType": "uint16",
              "name": "borrowCurrencyId",
              "type": "uint16"
            },
            {
              "internalType": "int256",
              "name": "minAccountBorrowSize",
              "type": "int256"
            },
            {
              "internalType": "int256",
              "name": "feeRate",
              "type": "int256"
            },
            {
              "internalType": "int256",
              "name": "minCollateralRatio",
              "type": "int256"
            },
            {
              "internalType": "int256",
              "name": "liquidationRate",
              "type": "int256"
            },
            {
              "internalType": "int256",
              "name": "reserveFeeShare",
              "type": "int256"
            },
            {
              "internalType": "uint256",
              "name": "maxBorrowMarketIndex",
              "type": "uint256"
            },
            {
              "internalType": "int256",
              "name": "maxDeleverageCollateralRatio",
              "type": "int256"
            },
            {
              "internalType": "uint16[2]",
              "name": "secondaryBorrowCurrencies",
              "type": "uint16[2]"
            },
            {
              "components": [
                {
                  "internalType": "contract AssetRateAdapter",
                  "name": "rateOracle",
                  "type": "address"
                },
                {
                  "internalType": "int256",
                  "name": "rate",
                  "type": "int256"
                },
                {
                  "internalType": "int256",
                  "name": "underlyingDecimals",
                  "type": "int256"
                }
              ],
              "internalType": "struct AssetRateParameters",
              "name": "assetRate",
              "type": "tuple"
            }
          ],
          "internalType": "struct VaultConfig",
          "name": "vaultConfig",
          "type": "tuple"
        }
      ],
      "stateMutability": "view",
      "type": "function"
    },
    {
      "inputs": [
        {
          "internalType": "address",
          "name": "vault",
          "type": "address"
        },
        {
          "internalType": "uint256",
          "name": "maturity",
          "type": "uint256"
        }
      ],
      "name": "getVaultState",
      "outputs": [
        {
          "components": [
            {
              "internalType": "uint256",
              "name": "maturity",
              "type": "uint256"
            },
            {
              "internalType": "int256",
              "name": "totalfCash",
              "type": "int256"
            },
            {
              "internalType": "bool",
              "name": "isSettled",
              "type": "bool"
            },
            {
              "internalType": "uint256",
              "name": "totalVaultShares",
              "type": "uint256"
            },
            {
              "internalType": "uint256",
              "name": "totalAssetCash",
              "type": "uint256"
            },
            {
              "internalType": "uint256",
              "name": "totalStrategyTokens",
              "type": "uint256"
            },
            {
              "internalType": "int256",
              "name": "settlementStrategyTokenValue",
              "type": "int256"
            }
          ],
          "internalType": "struct VaultState",
          "name": "vaultState",
          "type": "tuple"
        }
      ],
      "stateMutability": "view",
      "type": "function"
    },
    {
      "inputs": [],
      "name": "owner",
      "outputs": [
        {
          "internalType": "address",
          "name": "",
          "type": "address"
        }
      ],
      "stateMutability": "view",
      "type": "function"
    },
    {
      "inputs": [],
      "name": "pauseGuardian",
      "outputs": [
        {
          "internalType": "address",
          "name": "",
          "type": "address"
        }
      ],
      "stateMutability": "view",
      "type": "function"
    },
    {
      "inputs": [],
      "name": "pauseRouter",
      "outputs": [
        {
          "internalType": "address",
          "name": "",
          "type": "address"
        }
      ],
      "stateMutability": "view",
      "type": "function"
    },
    {
      "inputs": [
        {
          "internalType": "uint256",
          "name": "maturity",
          "type": "uint256"
        },
        {
          "internalType": "uint256",
          "name": "strategyTokensToRedeem",
          "type": "uint256"
        },
        {
          "internalType": "bytes",
          "name": "vaultData",
          "type": "bytes"
        }
      ],
      "name": "redeemStrategyTokensToCash",
      "outputs": [
        {
          "internalType": "int256",
          "name": "assetCashRequiredToSettle",
          "type": "int256"
        },
        {
          "internalType": "int256",
          "name": "underlyingCashRequiredToSettle",
          "type": "int256"
        }
      ],
      "stateMutability": "nonpayable",
      "type": "function"
    },
    {
      "inputs": [
        {
          "internalType": "address",
          "name": "vaultAddress",
          "type": "address"
        },
        {
          "internalType": "uint80",
          "name": "maxVaultBorrowCapacity",
          "type": "uint80"
        },
        {
          "internalType": "uint256",
          "name": "maturity",
          "type": "uint256"
        },
        {
          "internalType": "uint256",
          "name": "strategyTokensToRedeem",
          "type": "uint256"
        },
        {
          "internalType": "bytes",
          "name": "vaultData",
          "type": "bytes"
        }
      ],
      "name": "reduceMaxBorrowCapacity",
      "outputs": [],
      "stateMutability": "nonpayable",
      "type": "function"
    },
    {
      "inputs": [
        {
          "internalType": "address",
          "name": "account",
          "type": "address"
        },
        {
          "internalType": "uint16",
          "name": "currencyId",
          "type": "uint16"
        },
        {
          "internalType": "uint256",
          "name": "maturity",
          "type": "uint256"
        },
        {
          "internalType": "uint256",
          "name": "debtSharesToRepay",
          "type": "uint256"
        },
        {
          "internalType": "uint32",
          "name": "minLendRate",
          "type": "uint32"
        },
        {
          "internalType": "bytes",
          "name": "callbackData",
          "type": "bytes"
        }
      ],
      "name": "repaySecondaryCurrencyFromVault",
      "outputs": [
        {
          "internalType": "bytes",
          "name": "returnData",
          "type": "bytes"
        }
      ],
      "stateMutability": "nonpayable",
      "type": "function"
    },
    {
      "inputs": [
        {
          "internalType": "address",
          "name": "vaultAddress",
          "type": "address"
        },
        {
          "internalType": "bool",
          "name": "enable",
          "type": "bool"
        }
      ],
      "name": "setVaultPauseStatus",
      "outputs": [],
      "stateMutability": "nonpayable",
      "type": "function"
    },
    {
      "inputs": [
        {
          "internalType": "address",
          "name": "vault",
          "type": "address"
        },
        {
          "internalType": "uint256",
          "name": "maturity",
          "type": "uint256"
        }
      ],
      "name": "settleVault",
      "outputs": [],
      "stateMutability": "nonpayable",
      "type": "function"
    },
    {
      "inputs": [
        {
          "internalType": "address",
          "name": "vaultAddress",
          "type": "address"
        },
        {
          "internalType": "uint16",
          "name": "secondaryCurrencyId",
          "type": "uint16"
        },
        {
          "internalType": "uint80",
          "name": "maxBorrowCapacity",
          "type": "uint80"
        }
      ],
      "name": "updateSecondaryBorrowCapacity",
      "outputs": [],
      "stateMutability": "nonpayable",
      "type": "function"
    },
    {
      "inputs": [
        {
          "internalType": "address",
          "name": "vaultAddress",
          "type": "address"
        },
        {
          "components": [
            {
              "internalType": "uint16",
              "name": "flags",
              "type": "uint16"
            },
            {
              "internalType": "uint16",
              "name": "borrowCurrencyId",
              "type": "uint16"
            },
            {
              "internalType": "uint32",
              "name": "minAccountBorrowSize",
              "type": "uint32"
            },
            {
              "internalType": "uint16",
              "name": "minCollateralRatioBPS",
              "type": "uint16"
            },
            {
              "internalType": "uint8",
              "name": "feeRate5BPS",
              "type": "uint8"
            },
            {
              "internalType": "uint8",
              "name": "liquidationRate",
              "type": "uint8"
            },
            {
              "internalType": "uint8",
              "name": "reserveFeeShare",
              "type": "uint8"
            },
            {
              "internalType": "uint8",
              "name": "maxBorrowMarketIndex",
              "type": "uint8"
            },
            {
              "internalType": "uint16",
              "name": "maxDeleverageCollateralRatioBPS",
              "type": "uint16"
            },
            {
              "internalType": "uint16[2]",
              "name": "secondaryBorrowCurrencies",
              "type": "uint16[2]"
            }
          ],
          "internalType": "struct VaultConfigStorage",
          "name": "vaultConfig",
          "type": "tuple"
        },
        {
          "internalType": "uint80",
          "name": "maxPrimaryBorrowCapacity",
          "type": "uint80"
        }
      ],
      "name": "updateVault",
      "outputs": [],
      "stateMutability": "nonpayable",
      "type": "function"
    }
  ],
  "bytecode": "608060405234801561001057600080fd5b506151d3806100206000396000f3fe608060405234801561001057600080fd5b50600436106101165760003560e01c806382463367116100a2578063c4c96dae11610071578063c4c96dae1461023e578063d04c16ac14610246578063d6ddeb9a14610259578063de1eb9a31461026c578063ee01436b1461028c57610116565b806382463367146102085780638da5cb5b14610210578063a14db57c14610218578063b3c475461461022b57610116565b806331572281116100e9578063315722811461018157806350e4f223146101a157806356f428c4146101c157806367515776146101d45780636c346c09146101f557610116565b80630bc08cdc1461011b57806324a3d62214610144578063291afdf314610159578063295e6b7f1461016e575b600080fd5b61012e610129366004614537565b61029f565b60405161013b919061490c565b60405180910390f35b61014c61045d565b60405161013b91906147e6565b61016c6101673660046144d3565b61046c565b005b61016c61017c36600461450e565b610588565b61019461018f36600461450e565b6107c8565b60405161013b9190614e4c565b6101b46101af366004614448565b6107e1565b60405161013b9190614961565b61016c6101cf366004614355565b6109a4565b6101e76101e23660046143df565b610a24565b60405161013b92919061499d565b6101e761020336600461450e565b610a74565b61014c610aaf565b61014c610abe565b6101e761022636600461440a565b610ad4565b61016c61023936600461438f565b610b2e565b61014c610be6565b61016c6102543660046146cf565b610bfe565b61016c610267366004614598565b610d70565b61027f61027a36600461433b565b610e22565b60405161013b9190614d98565b6101e761029a3660046146cf565b610e39565b6102a761416b565b60006102b233610e8b565b90506102bf816001610eba565b6102e45760405162461bcd60e51b81526004016102db90614a72565b60405180910390fd5b610140810151805161ffff161515806103045750602081015161ffff1615155b61030d57600080fd5b61031561416b565b610320836002610eba565b801561033557506001600160a01b0389163314155b156103fa576000610344610ecf565b6001600160a01b03808c1660009081526020928352604080822088519093168252919092529020805490915063ffffffff1680156103f75789811061038857600080fd5b6103c5858c866000602002015185548590600160201b90046001600160501b03168c60005b6020020160208101906103c09190614720565b610edc565b8352602084015182546103f19187918e91908590600160701b90046001600160501b03168c60016103ad565b60208401525b50505b815181516104279185918c91908c908c358c60005b6020020160208101906104229190614720565b610f11565b84526020828101518282015161044b9286928d9290918d91908d01358c600161040f565b60208501525091979650505050505050565b6002546001600160a01b031681565b600054600160201b90046001600160a01b0316331461049d5760405162461bcd60e51b81526004016102db90614cab565b60006104a884610e8b565b905060006104b98461ffff16610f8b565b905060006104ca8561ffff16610fa3565b905081602001511580156104e057508060200151155b6104e957600080fd5b6101408301515161ffff8681169116148061051357506101408301516020015161ffff8681169116145b61052f5760405162461bcd60e51b81526004016102db90614c81565b61053a868686610fb6565b8461ffff16866001600160a01b03167f8f868f60e49b80b48ee5de8b7bc703cfc4b5c826a05d3ea1b00cf4159c155a90866040516105789190614eda565b60405180910390a3505050505050565b6002600a5414156105ab5760405162461bcd60e51b81526004016102db90614d17565b6002600a5560006105bb83610e8b565b90506105c98133604061100a565b60006105d58484611074565b90504283111580156105e957506040810151155b6106055760405162461bcd60e51b81526004016102db90614c04565b600061061a836040015161ffff16854261110f565b9050600061063d610638610631856020015161127f565b849061128d565b6112cc565b905060006106496112df565b6001600160a01b038816600090815260209182526040808220898352909252206101408601515190915061ffff16156106bc576101408501515161ffff166000908152602082905260409020546001600160501b0316156106bc5760405162461bcd60e51b81526004016102db90614af6565b6101408501516020015161ffff16156107135761014085015160209081015161ffff1660009081529082905260409020546001600160501b0316156107135760405162461bcd60e51b81526004016102db90614af6565b81846080015110156107915760a0840151156107415760405162461bcd60e51b81526004016102db90614a47565b6000610752856080015184036112ec565b9050600061076d61063888600001518960400151858c611302565b608087015190915061077f908261142a565b608087015261078e868a61143c565b50505b6107ac8786604001516107a7876020015161127f565b6115ab565b506107ba84868589426116b1565b50506001600a555050505050565b6107d0614189565b6107da8383611074565b9392505050565b606060006107ee33610e8b565b90506107fb816001610eba565b6108175760405162461bcd60e51b81526004016102db90614a72565b6000610827828b8b8b8b8b611877565b50905060006108398a61ffff16610f8b565b905060008060048360600151600581111561085057fe5b14610867576108628c61ffff16610fa3565b610869565b825b9050600061089a61063861089361088e888a61016001516119fb90919063ffffffff16565b61127f565b8490611a26565b905060006108a88330611a62565b8351604051637efbe0e760e11b8152919250339163fdf7c1ce916108d49186908f908f90600401614895565b600060405180830381600087803b1580156108ee57600080fd5b505af1158015610902573d6000803e3d6000fd5b505050506040513d6000823e601f3d908101601f1916820160405261092a919081019061460e565b975060006109388430611a62565b90506109448183611b0c565b9450828510156109665760405162461bcd60e51b81526004016102db90614d3f565b5060049250610973915050565b8260600151600581111561098357fe5b1461099557610993828c83611b21565b505b50505050979650505050505050565b600054600160201b90046001600160a01b031633146109d55760405162461bcd60e51b81526004016102db90614cab565b6109df8282611c08565b816001600160a01b03167f7c51c6aa77346c54cb051d9e792f9b7bde5c28a9b57e6fb2d2dd727b38438ca982604051610a18919061493d565b60405180910390a25050565b6000806000610a31611c68565b6001600160a01b0390951660009081526020958652604080822061ffff9096168252949095525050509020546001600160501b03600160501b8204811692911690565b6000806000610a8285611c75565b90506000610a94826000015186611074565b9050610aa1828287611c99565b9350935050505b9250929050565b6001546001600160a01b031681565b600054600160201b90046001600160a01b031681565b6000806000610ae16112df565b6001600160a01b0390961660009081526020968752604080822095825294875284812061ffff90961681529490955250509020546001600160501b0380821693600160501b909204169150565b600054600160201b90046001600160a01b03163314610b5f5760405162461bcd60e51b81526004016102db90614cab565b610b698383611d52565b610b8383610b7d60408501602086016146b3565b83610fb6565b6000600180610b9560208601866146b3565b1661ffff16149050836001600160a01b03167fb441d7ca09abc712b4504256717707ce40e8d43895266b46abf9cd58619c07dc8284604051610bd8929190614948565b60405180910390a250505050565b73__TradingAction_________________________90565b6002600a541415610c215760405162461bcd60e51b81526004016102db90614d17565b6002600a556000610c3133610e8b565b9050610c3e816001610eba565b610c5a5760405162461bcd60e51b81526004016102db90614a72565b610c65816080610eba565b15610c70576001600a555b6000610c7c3387611074565b90506000610c9e8360000151610c91886112ec565b8591908a60008a8a611f57565b6080830151909150610cb09087611b0c565b608083015260a0820151610cc4908261142a565b60a0830152610cd3823361143c565b6000610cf68333856060015186602001518861200090949392919063ffffffff16565b509050808460a001511315610d1d5760405162461bcd60e51b81526004016102db90614ce0565b87336001600160a01b03167fbba43506b1f3723add796bf603adde56bc018392a95775b9f76c31213b4161bb8985604051610d5992919061499d565b60405180910390a350506001600a55505050505050565b600054600160201b90046001600160a01b03163314610da15760405162461bcd60e51b81526004016102db90614cab565b6000610dac87610e8b565b9050610dbd87826040015188610fb6565b610dca8186868686612068565b50506001600160a01b0387167fb441d7ca09abc712b4504256717707ce40e8d43895266b46abf9cd58619c07dc610e02836001610eba565b88604051610e11929190614948565b60405180910390a250505050505050565b610e2a6141c8565b610e3382611c75565b92915050565b6000806000610e4733610e8b565b9050610e54816001610eba565b610e705760405162461bcd60e51b81526004016102db90614a72565b610e7d8188888888612068565b925092505094509492505050565b610e936141c8565b610e9c8261217c565b9050610eaf816040015161ffff166122f9565b610160820152919050565b60209190910151811661ffff90811691161490565b600080610e33601a612345565b600061ffff851615801590610ef057508215155b15610f0757610f03878787878787611877565b5090505b9695505050505050565b600061ffff86161580610f22575082155b15610f2f57506000610f80565b6000610f3f89898989888861235e565b509050610f4c81866124ce565b90506000811215610f6f5760405162461bcd60e51b81526004016102db90614bcd565b8851610f7c9088836124e4565b9150505b979650505050505050565b610f93614245565b610e3382600061258c565b919050565b610fab614245565b610e3382600161258c565b6000610fc0611c68565b6001600160a01b0390941660009081526020948552604080822061ffff90951682529390945250912080546001600160501b039092166001600160501b0319909216919091179055565b6110148382610eba565b156110475782516001600160a01b031633146110425760405162461bcd60e51b81526004016102db90614a92565b61106f565b6001600160a01b038216331461106f5760405162461bcd60e51b81526004016102db90614a92565b505050565b61107c614189565b600061108661263a565b6001600160a01b03909416600090815260209485526040808220858352865280822094845284546001600160501b038082169093039685019690965260ff600160f01b870416151590840152600160501b8086048216608085015260019094015480821660a0850152600160a01b909504166060830152509104600990810b900b60c082015290565b611117614274565b6000806111248686612647565b91509150816000141561125457600061113c87612690565b91945090925090506001600160a01b0381161561125257600061115d612753565b905085600010801561116f5750858711155b8015611180575064ffffffffff8611155b61118957600080fd5b8360001280156111a057506001600160801b038413155b6111a957600080fd5b6000888152602082815260408083208a845290915290819020805464ffffffffff191664ffffffffff89161774ffffffffffffffffffffffffffffffff00000000001916650100000000006001600160801b038816021760ff60a81b1916600160a81b60ff871602178155905188908a907f0fdfa6885701e2f1f42e4187b9231cf81c1fe23671ef64fa46f34ddb56c1dc1890611247908990614e9c565b60405180910390a350505b505b6040805160608101825260008152602081019390935260ff909116600a0a9082015290509392505050565b6000610e3360001983612760565b6000806112c484602001516112be86604001516112b86402540be4008861276090919063ffffffff16565b90612760565b906127ae565b949350505050565b6000808212156112db57600080fd5b5090565b600080610e336018612345565b60006001600160ff1b038211156112db57600080fd5b600061130f856000611c08565b846001600160a01b03167f7c51c6aa77346c54cb051d9e792f9b7bde5c28a9b57e6fb2d2dd727b38438ca96000604051611349919061493d565b60405180910390a2818461ffff16866001600160a01b03167f823b641d46550301006f807a26587634f15bd13749efdc8859734377d5304a3b866040516113909190614994565b60405180910390a460006113a960008661ffff166127df565b50505090508084136113c9576113c185858303612888565b839150611421565b6113d4856000612888565b828561ffff16876001600160a01b03167f3a717b6924e3ad05b8c7609a2401472af90869b52cc3c9ca69b50100b4be63168488036040516114159190614994565b60405180910390a48091505b50949350505050565b6000828201838110156107da57600080fd5b600061144661263a565b6001600160a01b038316600090815260208281526040808320875184529091529081902090850151919250901561147c57600080fd5b61149461148f610638866020015161127f565b6128df565b81546001600160501b0319166001600160501b039190911617815560808401516114bd906128df565b81546001600160501b0391909116600160501b02600160501b600160a01b031990911617815560a08401516114f1906128df565b6001820180546001600160501b0319166001600160501b03929092169190911790556060840151611521906128df565b81546001600160501b0391909116600160a01b0269ffffffffffffffffffff60a01b1990911617815583516020850151608086015160a087015160608801516040516001600160a01b038916947f3a0fdaecf7b5da75a56077f5b1c8fbc88f9b08e9d0c4db31eb34e25bc6700cde9461159d94919390926149ab565b60405180910390a350505050565b6000806115b6611c68565b6001600160a01b03861660009081526020918252604080822061ffff881683529092522080549091506115f990600160501b90046001600160501b0316846128f5565b9150600083121561162e5780546001600160501b031682131561162e5760405162461bcd60e51b81526004016102db90614c2b565b61163a61148f836112cc565b81546001600160501b0391909116600160501b02600160501b600160a01b031990911617815560405161ffff8516906001600160a01b038716907f20478ef460e49d010960d4f3fff35d8dae385443abfac09035d6a2ccbcd834c4906116a1908690614994565b60405180910390a3509392505050565b60006116bb61263a565b85516001600160a01b03166000908152602082815260408083208784529091529020805491925090600160f01b900460ff16156116f757600080fd5b8284111561170457600080fd5b6040860151865160009161171e91806305f5e1008961290b565b825460ff60f01b1916600160f01b178355905061173a816129d2565b82600101600a6101000a8154816001600160501b03021916908360090b6001600160501b03160217905550600061176f612a02565b88516001600160a01b031660009081526020918252604080822089835283529020600185015481546001600160501b0319166001600160501b03909116178155908a01519091506117e1906117dc906117c9908a9061128d565b6117d68c608001516112ec565b906124ce565b6129d2565b815460099190910b6001600160501b0316600160501b02600160501b600160a01b03199091161781558851885160208b015160808c015160a08d015160608e01516040516001600160a01b03909516947fe66a863186dba5a66d19d3d91a66b76a7cbfdefd0d8c29c662274b13febb166e94611864949093909290918a906149c6565b60405180910390a3505050505050505050565b60008060006118846112df565b89516001600160a01b0316600090815260209182526040808220898352835280822061ffff8b1683529092522080549091506001600160501b0380821691600160501b9004166118e66118e1826118db8a86612a0f565b90612a36565b6112ec565b93508a600001516001600160a01b03168a6001600160a01b0316146119505761191261148f8289611b0c565b83546001600160501b0391909116600160501b02600160501b600160a01b03199091161783556119508b8b8b8b61194b61088e8d6112ec565b612a55565b8a5161195d908a866115ab565b5061196b61148f8386611b0c565b83546001600160501b0319166001600160501b03919091161783556119938b8a8a878a612bdd565b94508861ffff168a6001600160a01b03168c600001516001600160a01b03167f38db3b2568ca34833805148705b1440a4f80962ce663ba509811abc652de434a8b8b896040516119e593929190614ec4565b60405180910390a4505050965096945050505050565b6000806112c484604001516112be6402540be4006112be87896020015161276090919063ffffffff16565b60006305f5e10083604001511215611a4e57611a4760016117d68585612caa565b9050610e33565b6107da83611a5d8460016124ce565b612caa565b6000600383606001516005811115611a7657fe5b1415611a8d57506001600160a01b03811631610e33565b82516040516370a0823160e01b81526001600160a01b03909116906370a0823190611abc9085906004016147e6565b60206040518083038186803b158015611ad457600080fd5b505afa158015611ae8573d6000803e3d6000fd5b505050506040513d601f19601f82011682018060405250810190611a47919061469b565b600082821115611b1b57600080fd5b50900390565b600080600585606001516005811115611b3657fe5b14611b48576370a0823160e01b611b51565b630ed1279f60e11b5b90506000611b6486600001513084612ce2565b9050600586606001516005811115611b7857fe5b1415611b9f576000611b8d8661ffff16610fa3565b9050611b998186612df4565b50611be8565b600186606001516005811115611bb157fe5b1415611bc657611bc18685612e67565b611be8565b600286606001516005811115611bd857fe5b141561011657611bc18685612f09565b6000611bf987600001513085612ce2565b9050610f806118e18284612f5c565b6000611c12612fb3565b6001600160a01b038416600090815260208290526040902080549192509061ffff168315611c5157815461ffff19166001821761ffff16178255611c61565b815461ffff191661fffe82161782555b5050505050565b600080610e336017612345565b611c7d6141c8565b611c868261217c565b9050610eaf816040015161ffff16612fc0565b6000806000611cb0866040015161ffff1685612fd6565b90506000611cd761088e611cc788608001516112ec565b60208901516117d690869061128d565b90506000611cec886040015161ffff16610f8b565b9050611cf88183612caa565b9450600481606001516005811115611d0c57fe5b1415611d1a57849350611d47565b6000611d2d896040015161ffff16610fa3565b9050611d43611d3c85856119fb565b8290611a26565b9450505b505050935093915050565b6000611d5c612fb3565b9050611d6e60c0830160a0840161473c565b60ff1660641315611d7e57600080fd5b6064611d9060e0840160c0850161473c565b60ff161315611d9e57600080fd5b611daf610100830160e0840161473c565b60ff16611dbb57600080fd5b611dcd610120830161010084016146b3565b61ffff16611de160808401606085016146b3565b61ffff1610611def57600080fd5b611e01610140830161012084016146b3565b61ffff16611e1560408401602085016146b3565b61ffff161415611e2457600080fd5b611e36610160830161014084016146b3565b61ffff16611e4a60408401602085016146b3565b61ffff161415611e5957600080fd5b611e6b610140830161012084016146b3565b61ffff1615801590611e915750611e8a610160830161014084016146b3565b61ffff1615155b15611ecd57611ea8610160830161014084016146b3565b61ffff16611ebe610140840161012085016146b3565b61ffff161415611ecd57600080fd5b6000611eeb611ee260408501602086016146b3565b61ffff16610f8b565b90506000611f0b611f0260408601602087016146b3565b61ffff16610fa3565b90508160200151158015611f2157508060200151155b611f2a57600080fd5b6001600160a01b03851660009081526020849052604090208490611f4e8282614fa3565b50505050505050565b600080611f6d89600001518a60400151896124e4565b89519091506001600160a01b031663dc6679c589611f8b848961142a565b8988886040518663ffffffff1660e01b8152600401611fae9594939291906148de565b602060405180830381600087803b158015611fc857600080fd5b505af1158015611fdc573d6000803e3d6000fd5b505050506040513d601f19601f82011682018060405250810190610f7c919061469b565b60008061200f86888787613033565b9050600061202b61201f8561127f565b6101608a01519061128d565b9050600061203983836128f5565b90508161204f576001600160ff1b03935061205c565b6120598183613098565b93505b50509550959350505050565b6000806002600a54141561208e5760405162461bcd60e51b81526004016102db90614d17565b6002600a5561209e876080610eba565b156120a9576001600a555b60006120b9886000015188611074565b88519091506000906120d0908a90898b8a8a6130b1565b9050600081136120df57600080fd5b60808201516120ee908261142a565b608083015260a08201516121029088611b0c565b60a0830152885161211490839061143c565b8789600001516001600160a01b03167fb2f70c3fe73b5aee7e8c59b77222111306f1e4d7170f8fa1c09979bb847eb9d9838a60405161215492919061499d565b60405180910390a361216789838a611c99565b6001600a55909a909950975050505050505050565b6121846141c8565b600061218e612fb3565b6001600160a01b03841660008181526020838152604091829020928652825461ffff8082169288019290925262010000810490911691860191909152919250906121ee9063ffffffff600160201b9091048116906305f5e1009061276016565b6060840152805461220c90600160501b900460ff166207a120612a0f565b608084015280546122309068010000000000000000900461ffff16620186a0612a0f565b60a0840152805461224f90600160701b900461ffff16620186a0612a0f565b610120840152805460649060ff600160581b90910416633b9aca00020560c08401528054600160601b810460ff90811660e0860152600160681b909104166101008401526040805180820191829052906001830190600290826000855b82829054906101000a900461ffff1661ffff16815260200190600201906020826001010492830192600103820291508084116122ac57905050505050508361014001819052505050919050565b612301614274565b600080600061230f85612690565b604080516060810182526001600160a01b039093168352602083019390935260ff16600a0a918101919091529350505050919050565b6000620f424082601a81111561235757fe5b0192915050565b6000806123768860000151876107a761088e886112ec565b5060006123816112df565b89516001600160a01b039081166000908152602092835260408082208a8352845280822061ffff8c1683529093529190912080548b519193506001600160501b0380821693600160501b90920416918b821691161461243c57816123e7578693506123f8565b6123f5826118db8984612a0f565b93505b6124088b8b8b8b61194b896112ec565b61241561148f828661142a565b83546001600160501b0391909116600160501b02600160501b600160a01b03199091161783555b61244961148f838961142a565b83546001600160501b0319166001600160501b039190911617835561247c8b8a8a61247661088e8c6112ec565b8a612bdd565b94508861ffff168a6001600160a01b03168c600001516001600160a01b03167fa119a38e8bbbf2cbe78427cb9e63ef28678b56e3ceecc10bda7c00503ea947398b888c6040516119e593929190614ec4565b81810182811215600083121514610e3357600080fd5b6000816124f3575060006107da565b6000821361250057600080fd5b600061250f8461ffff16610f8b565b9050600061251d8285612caa565b905060048260600151600581111561253157fe5b141561255f5761255861063861088e888861ffff1661254f8661127f565b879291906130f8565b9250612583565b61258061063861088e8761ffff1689612577866112cc565b879291906131a0565b92505b50509392505050565b612594614245565b600061259e613236565b6000858152602082815260408083208715158452825291829020825160a08101845281546001600160a01b038116825260ff600160a01b82048116151594830194909452600160b01b81048416600a0a9482019490945293945092916060830191600160a81b90910416600581111561261357fe5b81529154600160b81b900468ffffffffffffffffff16602090920191909152949350505050565b600080610e336015612345565b6000806000612654612753565b6000958652602090815260408087209587529490525050509020546501000000000081046001600160801b031691600160a81b90910460ff1690565b60008060008060006126a186613243565b909250905060006001600160a01b0383166126c65750600090506402540be400612748565b826001600160a01b0316631ee108336040518163ffffffff1660e01b8152600401602060405180830381600087803b15801561270157600080fd5b505af1158015612715573d6000803e3d6000fd5b505050506040513d601f19601f82011682018060405250810190612739919061469b565b90506000811361274857600080fd5b969195509350915050565b600080610e336008612345565b8181026000198314156127905781158061278257508282828161277f57fe5b05145b61278b57600080fd5b610e33565b8215806127a55750818382816127a257fe5b05145b610e3357600080fd5b6000816000191480156127c45750600160ff1b83145b156127ce57600080fd5b8183816127d757fe5b059392505050565b60008060008060006127ef61327a565b6001600160a01b0388166000908152602082815260408083208a8452909152902080546001600160501b0381169650600160501b900463ffffffff169450909150831561285857805461285190600160701b900466ffffffffffffff16613287565b925061286d565b8054600160701b900466ffffffffffffff1692505b54600160a81b9004600a90810b900b97939650919450925050565b600081121561289657600080fd5b6128ab60008361ffff16836000806000613295565b8161ffff167fd3625f7b5926828151efe19f7ae655488287357d99ebe67e5fb20522ca739c0b82604051610a189190614994565b60006001600160501b038211156112db57600080fd5b80820382811315600083121514610e3357600080fd5b60008061291b8761ffff16610fa3565b905080604001516000141561293a576129378761ffff16610f8b565b90505b60405163e937711160e01b81526129c5906001600160a01b0388169063e93771119061296e908990899089906004016148bd565b60206040518083038186803b15801561298657600080fd5b505afa15801561299a573d6000803e3d6000fd5b505050506040513d601f19601f820116820180604052508101906129be919061469b565b82906133dc565b9150505b95945050505050565b6000697fffffffffffffffffff1982128015906129f95750697fffffffffffffffffff8213155b6112db57600080fd5b600080610e336019612345565b600082612a1e57506000610e33565b82820282848281612a2b57fe5b04146107da57600080fd5b6000808211612a4457600080fd5b818381612a4d57fe5b049392505050565b6000612a5f610ecf565b6001600160a01b038087166000908152602092835260408082208a519093168252919092529020805490915063ffffffff1683811480612a9d575080155b612ab95760405162461bcd60e51b81526004016102db906149e9565b815461014088015151600160201b82046001600160501b0390811692600160701b9004169061ffff88811691161415612b3357612af682866124ce565b9150612b0461148f836112cc565b84546001600160501b0391909116600160201b026dffffffffffffffffffff0000000019909116178455612b8d565b6101408901516020015161ffff8881169116141561011657612b5581866124ce565b9050612b6361148f826112cc565b84546001600160501b0391909116600160701b0269ffffffffffffffffffff60701b199091161784555b81158015612b99575080155b15612bae57835463ffffffff19168455612bd2565b82612bd257612bbc8661340c565b845463ffffffff191663ffffffff919091161784555b505050505050505050565b6000856040015161ffff168561ffff161415612bf857600080fd5b82612c05575060006129c9565b428411612c42576000831215612c1a57600080fd5b6000612c2b8661ffff16864261110f565b9050612c3a61088e828661128d565b9150506129c9565b612c55858585858a61010001514261341f565b9050600083138015612c65575080155b15612c8157610160860151612c7e9061088e908561128d565b90505b60008312156129c957600081136129c95760405162461bcd60e51b81526004016102db90614a20565b60006305f5e10083604001511415612cc3575080610e33565b6107da6305f5e1006112be85604001518561276090919063ffffffff16565b604080516001600160a01b0384811660248084019190915283518084039091018152604490920183526020820180516001600160e01b03166001600160e01b0319861617815292518251600094859485948a16939092909182918083835b60208310612d5f5780518252601f199092019160209182019101612d40565b6001836020036101000a038019825116818451168082178552505050505050905001915050600060405180830381855afa9150503d8060008114612dbf576040519150601f19603f3d011682016040523d82523d6000602084013e612dc4565b606091505b509150915081612dd357600080fd5b808060200190516020811015612de857600080fd5b50519695505050505050565b612dfc61352e565b54825160405163e8eda9df60e01b81526001600160a01b039092169163e8eda9df91612e319185903090600090600401614868565b600060405180830381600087803b158015612e4b57600080fd5b505af1158015612e5f573d6000803e3d6000fd5b505050505050565b815160405163140e25ad60e31b81526000916001600160a01b03169063a0712d6890612e97908590600401614994565b602060405180830381600087803b158015612eb157600080fd5b505af1158015612ec5573d6000803e3d6000fd5b505050506040513d601f19601f82011682018060405250810190612ee9919061469b565b9050801561106f5760405162461bcd60e51b81526004016102db90614ab8565b81600001516001600160a01b0316631249c58b826040518263ffffffff1660e01b81526004016000604051808303818588803b158015612f4857600080fd5b505af1158015611f4e573d6000803e3d6000fd5b600082821115611b1b576040805162461bcd60e51b815260206004820152601e60248201527f536166654d6174683a207375627472616374696f6e206f766572666c6f770000604482015290519081900360640190fd5b600080610e336014612345565b612fc8614274565b600080600061230f8561353b565b612fde614274565b600080612feb8585612647565b915091508160001415613009576130018561353b565b919350909150505b6040805160608101825260008152602081019390935260ff909116600a0a90820152905092915050565b600081613042575060006112c4565b60008061304f87856135be565b91509150600061306e8760400151886000015188858c6000015161290b565b905061308c61307c846112ec565b6101608901516117d6908461128d565b98975050505050505050565b60006107da6130ab84633b9aca00612760565b836127ae565b6000610f03876040518060a00160405280896001600160a01b03168152602001896001600160a01b0316815260200188815260200187815260200160008152508585613617565b8060058560600151600581111561310b57fe5b141561313057600061311c84610fa3565b905061312c8160000151846138c4565b9250505b600082131561315c57600061314686868561394a565b9050856020015115613156578091505b506112c4565b60038560600151600581111561316e57fe5b141561318b57613186846131818461127f565b613a3d565b6112c4565b84516112c4908561319b8561127f565b613a73565b6000806002866060015160058111156131b557fe5b14156131cd576131c6868585613aea565b905061322a565b60006131d886610fa3565b90506005876060015160058111156131ec57fe5b1415613204576131fd818686613ba7565b9150613228565b60018760600151600581111561321657fe5b1415610116576131fd87828787613c58565b505b610f0761088e826112ec565b600080610e336007612345565b6000806000613250613d56565b600094855260205250506040909120546001600160a01b03811692600160a01b90910460ff169150565b600080610e336006612345565b600881901c60ff9091161b90565b600061329f61327a565b6001600160a01b0388166000908152602082815260408083208a845290915290209091506a7fffffffffffffffffffff1986128015906132ea57506a7fffffffffffffffffffff8613155b6132f357600080fd5b6000851215801561330b57506001600160501b038513155b61331457600080fd5b836133545766ffffffffffffff83111561332d57600080fd5b805466ffffffffffffff60701b1916600160701b66ffffffffffffff85160217815561336e565b8054600160501b900463ffffffff16841461336e57600080fd5b8054600a9690960b6affffffffffffffffffffff16600160a81b026001600160a81b036001600160501b039096166001600160501b031963ffffffff909616600160501b0263ffffffff60501b19909816979097179490941695909517939093169190911790925550505050565b60006305f5e100836040015114156133f5575080610e33565b60408301516107da906112be846305f5e100612760565b600063ffffffff8211156112db57600080fd5b60008061342e88888686613d63565b9050600061343b87613dd2565b90506affffffffffffffffffffff811061345457600080fd5b600060788763ffffffff16901b609883901b60f085901b60f860008c1361347c57600161347f565b60005b600581111561348a57fe5b60ff16901b17171760001b905073__TradingAction_________________________63e50f349e8b836040518363ffffffff1660e01b81526004016134d0929190614eb0565b60206040518083038186803b1580156134e857600080fd5b505af41580156134fc573d6000803e3d6000fd5b505050506040513d601f19601f82011682018060405250810190613520919061469b565b9a9950505050505050505050565b600080610e336013612345565b600080600080600061354c86613243565b909250905060006001600160a01b0383166135715750600090506402540be400612748565b826001600160a01b031663b2fffb046040518163ffffffff1660e01b815260040160206040518083038186803b1580156135aa57600080fd5b505afa158015612715573d6000803e3d6000fd5b600080600084606001511115610aa8576135ed84606001516118db866080015186612a0f90919063ffffffff16565b915061360e84606001516118db8660a0015186612a0f90919063ffffffff16565b90509250929050565b600080600061362d876040015161ffff16610f8b565b9050600060048260600151600581111561364357fe5b1461365e57613659886040015161ffff16610fa3565b613660565b815b9050600080886080015112156136d35760048360600151600581111561368257fe5b141561369f57613698610638896080015161127f565b90506136d3565b60006136c061088e8a608001518c61016001516119fb90919063ffffffff16565b90506136cf6106388483611a26565b9150505b6040880151600090156137ab5760006136ec8430611a62565b90508a600001516001600160a01b03166344f051088b600001518c602001518d604001518e60600151888f8f6040518863ffffffff1660e01b815260040161373a97969594939291906147fa565b602060405180830381600087803b15801561375457600080fd5b505af1158015613768573d6000803e3d6000fd5b505050506040513d601f19601f8201168201806040525081019061378c919061469b565b9550600061379a8530611a62565b90506137a68183611b0c565b925050505b81811015613846578082036003846060015160058111156137c857fe5b141561380657348111156137ee5760405162461bcd60e51b81526004016102db90614b1d565b6137fe8a60000151823403613a3d565b829150613844565b600061382b8b600001518d6040015161ffff16613822856112ec565b889291906130f8565b9050613840613839826112cc565b849061142a565b9250505b505b818110156138665760405162461bcd60e51b81526004016102db90614b1d565b600060048560600151600581111561387a57fe5b141561389057613889826112ec565b90506138aa565b81156138aa5760408b01516138a790869084611b21565b90505b6138b485826133dc565b9650505050505094509492505050565b6000816138d357506000610e33565b60006138de84613df3565b905060006138eb84613dd2565b9050816b019d971e4fe8401e74000001600160ff1b038161390857fe5b0581131561391557600080fd5b6b033b2e3c9fd0803ce80000006b019d971e4fe8401e740000008383020105600085136129c9576139458161127f565b610f07565b600080808060058760600151600581111561396157fe5b14613973576370a0823160e01b61397c565b630ed1279f60e11b5b9050866020015115613998578651613995903083612ce2565b92505b86516139a5908787613e7e565b8660200151806139b9575060008760800151115b156139ce5786516139cb903083612ce2565b91505b608087015115613a095760006139ec886139e7856112ec565b6133dc565b90506139fb88608001516112ec565b811315613a0757600080fd5b505b866020015115613a2a57613a206118e18385612f5c565b93505050506107da565b613a20856112ec565b5050509392505050565b6040516001600160a01b0383169082156108fc029083906000818181858888f1935050505015801561106f573d6000803e3d6000fd5b826001600160a01b031663a9059cbb83836040518363ffffffff1660e01b815260040180836001600160a01b0316815260200182815260200192505050600060405180830381600087803b158015613aca57600080fd5b505af1158015613ade573d6000803e3d6000fd5b5050505061106f613ed6565b825160405163db006a7560e01b8152600091479183916001600160a01b03169063db006a7590613b1e908790600401614994565b602060405180830381600087803b158015613b3857600080fd5b505af1158015613b4c573d6000803e3d6000fd5b505050506040513d601f19601f82011682018060405250810190613b70919061469b565b90508015613b905760405162461bcd60e51b81526004016102db90614ad6565b47613b9b8184612f5c565b9350613a338685613a3d565b6000613bc26106388560000151613bbd856112ec565b6138c4565b9050613bcc61352e565b548451604051631a4ca37b60e21b81526001600160a01b03909216916369328dec91613bfe9185908890600401614845565b602060405180830381600087803b158015613c1857600080fd5b505af1158015613c2c573d6000803e3d6000fd5b505050506040513d601f19601f82011682018060405250810190613c50919061469b565b509392505050565b82516000908190613c7190306370a0823160e01b612ce2565b9050600086600001516001600160a01b031663db006a75856040518263ffffffff1660e01b8152600401613ca59190614994565b602060405180830381600087803b158015613cbf57600080fd5b505af1158015613cd3573d6000803e3d6000fd5b505050506040513d601f19601f82011682018060405250810190613cf7919061469b565b90508015613d175760405162461bcd60e51b81526004016102db90614ad6565b8551600090613d2e90306370a0823160e01b612ce2565b9050613d3a8184612f5c565b9350613d4b87600001518786613a73565b505050949350505050565b600080610e33600f612345565b6000806000613d758761ffff16613f47565b9050613d858160ff168786613f5d565b909350915084831115613daa5760405162461bcd60e51b81526004016102db90614ba3565b8115613dc85760405162461bcd60e51b81526004016102db90614ba3565b5050949350505050565b600080821215613dec57613de58261127f565b9050610f9e565b5080610f9e565b6000610e33613e0061352e565b5460405163d15e005360e01b81526001600160a01b039091169063d15e005390613e2e9086906004016147e6565b60206040518083038186803b158015613e4657600080fd5b505afa158015613e5a573d6000803e3d6000fd5b505050506040513d601f19601f820116820180604052508101906118e1919061469b565b604080516323b872dd60e01b81526001600160a01b038481166004830152306024830152604482018490529151918516916323b872dd9160648082019260009290919082900301818387803b158015613aca57600080fd5b6000613ee061429e565b3d8015613ef45760208114613efd57600080fd5b60019250613f08565b60206000833e815192505b5081613f43576040805162461bcd60e51b8152602060048201526005602482015264045524332360dc1b604482015290519081900360640190fd5b5050565b600080613f5383614025565b60ff169392505050565b60008060008511613f805760405162461bcd60e51b81526004016102db90614b4d565b6007851115613fa15760405162461bcd60e51b81526004016102db90614c51565b6000613fac84614042565b905060015b868111614004576000613fcd613fc683614060565b8490614104565b905086811415613fe5575092506000915061401d9050565b86811115613ffb575092506001915061401d9050565b50600101613fb1565b5060405162461bcd60e51b81526004016102db90614d6b565b935093915050565b60008061403061415e565b60009384526020525050604090205490565b60006276a70082101561405457600080fd5b506276a7008106900390565b6000816001141561407557506276a700610f9e565b8160021415614088575062ed4e00610f9e565b816003141561409c57506301da9c00610f9e565b81600414156140b057506303b53800610f9e565b81600514156140c457506309450c00610f9e565b81600614156140d8575063128a1800610f9e565b81600714156140ec57506325143000610f9e565b60405162461bcd60e51b81526004016102db90614b7c565b6000828201838110156107da576040805162461bcd60e51b815260206004820152601b60248201527f536166654d6174683a206164646974696f6e206f766572666c6f770000000000604482015290519081900360640190fd5b600080610e336009612345565b60405180604001604052806002906020820280368337509192915050565b6040518060e001604052806000815260200160008152602001600015158152602001600081526020016000815260200160008152602001600081525090565b60405180610180016040528060006001600160a01b03168152602001600061ffff168152602001600061ffff1681526020016000815260200160008152602001600081526020016000815260200160008152602001600081526020016000815260200161423361416b565b8152602001614240614274565b905290565b6040805160a0810182526000808252602082018190529181018290529060608201908152602001600081525090565b604051806060016040528060006001600160a01b0316815260200160008152602001600081525090565b60405180602001604052806001906020820280368337509192915050565b80356001600160a01b0381168114610f9e57600080fd5b8060408101831015610e3357600080fd5b60008083601f8401126142f5578182fd5b50813567ffffffffffffffff81111561430c578182fd5b602083019150836020828501011115610aa857600080fd5b80356001600160501b0381168114610f9e57600080fd5b60006020828403121561434c578081fd5b6107da826142bc565b60008060408385031215614367578081fd5b614370836142bc565b915060208301358015158114614384578182fd5b809150509250929050565b60008060008385036101a08112156143a5578182fd5b6143ae856142bc565b9350610160601f19820112156143c2578182fd5b506020840191506143d66101808501614324565b90509250925092565b600080604083850312156143f1578182fd5b6143fa836142bc565b9150602083013561438481615169565b60008060006060848603121561441e578283fd5b614427846142bc565b9250602084013561443781615169565b929592945050506040919091013590565b600080600080600080600060c0888a031215614462578283fd5b61446b886142bc565b9650602088013561447b81615169565b9550604088013594506060880135935060808801356144998161517c565b925060a088013567ffffffffffffffff8111156144b4578283fd5b6144c08a828b016142e4565b989b979a50959850939692959293505050565b6000806000606084860312156144e7578283fd5b6144f0846142bc565b9250602084013561450081615169565b91506143d660408501614324565b60008060408385031215614520578182fd5b614529836142bc565b946020939093013593505050565b6000806000806000610100868803121561454f578081fd5b614558866142bc565b94506020860135935061456e87604088016142d3565b925061457d87608088016142d3565b915061458c8760c088016142d3565b90509295509295909350565b60008060008060008060a087890312156145b0578384fd5b6145b9876142bc565b95506145c760208801614324565b94506040870135935060608701359250608087013567ffffffffffffffff8111156145f0578283fd5b6145fc89828a016142e4565b979a9699509497509295939492505050565b60006020828403121561461f578081fd5b815167ffffffffffffffff80821115614636578283fd5b818401915084601f830112614649578283fd5b81518181111561465557fe5b604051601f8201601f19168101602001838111828210171561467357fe5b60405281815283820160200187101561468a578485fd5b610f07826020830160208701614f50565b6000602082840312156146ac578081fd5b5051919050565b6000602082840312156146c4578081fd5b81356107da81615169565b600080600080606085870312156146e4578182fd5b8435935060208501359250604085013567ffffffffffffffff811115614708578283fd5b614714878288016142e4565b95989497509550505050565b600060208284031215614731578081fd5b81356107da8161517c565b60006020828403121561474d578081fd5b81356107da8161518e565b6001600160a01b03169052565b8060005b600281101561478c57815161ffff16845260209384019390910190600101614769565b50505050565b60008284528282602086013780602084860101526020601f19601f85011685010190509392505050565b80516001600160a01b0316825260208082015190830152604090810151910152565b61ffff169052565b6001600160a01b0391909116815260200190565b600060018060a01b03808a16835280891660208401525086604083015285606083015284608083015260c060a083015261483860c083018486614792565b9998505050505050505050565b6001600160a01b0393841681526020810192909252909116604082015260600190565b6001600160a01b03948516815260208101939093529216604082015261ffff909116606082015260800190565b600060018060a01b038616825284602083015260606040830152610f07606083018486614792565b6001600160a01b039390931683526020830191909152604082015260600190565b600060018060a01b038716825285602083015284604083015260806060830152610f80608083018486614792565b60408101818360005b6002811015614934578151835260209283019290910190600101614915565b50505092915050565b901515815260200190565b91151582526001600160501b0316602082015260400190565b6000602082528251806020840152614980816040850160208701614f50565b601f01601f19169190910160400192915050565b90815260200190565b918252602082015260400190565b93845260208401929092526040830152606082015260800190565b948552602085019390935260408401919091526060830152608082015260a00190565b6020808252601a908201527f496e76616c6964205365636f6e64617279204d61747572697479000000000000604082015260600190565b6020808252600d908201526c109bdc9c9bddc811985a5b1959609a1b604082015260600190565b60208082526011908201527052656465656d20616c6c20746f6b656e7360781b604082015260600190565b60208082526006908201526514185d5cd95960d21b604082015260600190565b6020808252600c908201526b155b985d5d1a1bdc9a5e995960a21b604082015260600190565b602080825260049082015263135a5b9d60e21b604082015260600190565b60208082526006908201526552656465656d60d01b604082015260600190565b6020808252600d908201526c556e7061696420426f72726f7760981b604082015260600190565b602080825260169082015275125b9cdd59999a58da595b9d081c995c185e5b595b9d60521b604082015260600190565b60208082526015908201527410d1ce881b9bc81b585c9ad95d1cc81b1a5cdd1959605a1b604082015260600190565b6020808252600d908201526c092dcecc2d8d2c840d2dcc8caf609b1b604082015260600190565b60208082526010908201526f496e76616c6964204d6174757269747960801b604082015260600190565b6020808252601d908201527f496e73756666696369656e74205365636f6e6461727920426f72726f77000000604082015260600190565b6020808252600d908201526c43616e6e6f7420536574746c6560981b604082015260600190565b6020808252600c908201526b4d617820436170616369747960a01b604082015260600190565b60208082526016908201527510d1ce881b585c9ad95d081a5b99195e08189bdd5b9960521b604082015260600190565b60208082526010908201526f496e76616c69642043757272656e637960801b604082015260600190565b6020808252818101527f4f776e61626c653a2063616c6c6572206973206e6f7420746865206f776e6572604082015260600190565b60208082526017908201527f496e73756666696369656e7420436f6c6c61746572616c000000000000000000604082015260600190565b6020808252600e908201526d1499595b9d1c985b9d0818d85b1b60921b604082015260600190565b602080825260129082015271496e73756666696369656e7420526570617960701b604082015260600190565b60208082526013908201527210d1ce881b9bc81b585c9ad95d08199bdd5b99606a1b604082015260600190565b60006101e082019050614dac828451614758565b6020830151614dbe60208401826147de565b506040830151614dd160408401826147de565b50606083015160608301526080830151608083015260a083015160a083015260c083015160c083015260e083015160e083015261010080840151818401525061012080840151818401525061014080840151614e2f82850182614765565b5050610160830151614e456101808401826147bc565b5092915050565b600060e0820190508251825260208301516020830152604083015115156040830152606083015160608301526080830151608083015260a083015160a083015260c083015160c083015292915050565b6001600160801b0391909116815260200190565b61ffff929092168252602082015260400190565b9283526020830191909152604082015260600190565b6001600160501b0391909116815260200190565b81816000805b6002808210614f035750612e5f565b8435614f0e81615169565b845461ffff6008860281811b801990931693909116901b161784556020949094019390910190601e821115614f4857600091506001830192505b600101614ef4565b60005b83811015614f6b578181015183820152602001614f53565b8381111561478c5750506000910152565b60008135610e3381615169565b60008135610e338161517c565b60008135610e338161518e565b8135614fae81615169565b61ffff811661ffff1983541617825550614fd3614fcd60208401614f7c565b8261510b565b614fe8614fe260408401614f89565b82615127565b614ffd614ff760608401614f7c565b8261514b565b61501261500c60808401614f96565b82615078565b61502761502160a08401614f96565b82615095565b61503c61503660c08401614f96565b826150b2565b61505161504b60e08401614f96565b826150cf565b6150676150616101008401614f7c565b826150ec565b613f43610120830160018301614eee565b805460ff60501b191660509290921b60ff60501b16919091179055565b805460ff60581b191660589290921b60ff60581b16919091179055565b805460ff60601b191660609290921b60ff60601b16919091179055565b805460ff60681b191660689290921b60ff60681b16919091179055565b805461ffff60701b191660709290921b61ffff60701b16919091179055565b805463ffff00008360101b1663ffff0000198216178255505050565b805467ffffffff000000008360201b1667ffffffff00000000198216178255505050565b805461ffff60401b8360401b1661ffff60401b198216178255505050565b61ffff8116811461517957600080fd5b50565b63ffffffff8116811461517957600080fd5b60ff8116811461517957600080fdfea2646970667358221220ab94f8fd47226df7a604b629b42713c3a0f62760ef0e0b9931e428866fbc9b6464736f6c63430007060033",
  "bytecodeSha1": "24a2d4595b4a9ec8cb34b62d8538931627283cac",
  "compiler": {
    "evm_version": "istanbul",
    "optimizer": {
      "enabled": true,
      "runs": 200
    },
    "version": "0.7.6+commit.7338295f"
  },
  "contractName": "VaultAction",
  "deployedBytecode": "608060405234801561001057600080fd5b50600436106101165760003560e01c806382463367116100a2578063c4c96dae11610071578063c4c96dae1461023e578063d04c16ac14610246578063d6ddeb9a14610259578063de1eb9a31461026c578063ee01436b1461028c57610116565b806382463367146102085780638da5cb5b14610210578063a14db57c14610218578063b3c475461461022b57610116565b806331572281116100e9578063315722811461018157806350e4f223146101a157806356f428c4146101c157806367515776146101d45780636c346c09146101f557610116565b80630bc08cdc1461011b57806324a3d62214610144578063291afdf314610159578063295e6b7f1461016e575b600080fd5b61012e610129366004614537565b61029f565b60405161013b919061490c565b60405180910390f35b61014c61045d565b60405161013b91906147e6565b61016c6101673660046144d3565b61046c565b005b61016c61017c36600461450e565b610588565b61019461018f36600461450e565b6107c8565b60405161013b9190614e4c565b6101b46101af366004614448565b6107e1565b60405161013b9190614961565b61016c6101cf366004614355565b6109a4565b6101e76101e23660046143df565b610a24565b60405161013b92919061499d565b6101e761020336600461450e565b610a74565b61014c610aaf565b61014c610abe565b6101e761022636600461440a565b610ad4565b61016c61023936600461438f565b610b2e565b61014c610be6565b61016c6102543660046146cf565b610bfe565b61016c610267366004614598565b610d70565b61027f61027a36600461433b565b610e22565b60405161013b9190614d98565b6101e761029a3660046146cf565b610e39565b6102a761416b565b60006102b233610e8b565b90506102bf816001610eba565b6102e45760405162461bcd60e51b81526004016102db90614a72565b60405180910390fd5b610140810151805161ffff161515806103045750602081015161ffff1615155b61030d57600080fd5b61031561416b565b610320836002610eba565b801561033557506001600160a01b0389163314155b156103fa576000610344610ecf565b6001600160a01b03808c1660009081526020928352604080822088519093168252919092529020805490915063ffffffff1680156103f75789811061038857600080fd5b6103c5858c866000602002015185548590600160201b90046001600160501b03168c60005b6020020160208101906103c09190614720565b610edc565b8352602084015182546103f19187918e91908590600160701b90046001600160501b03168c60016103ad565b60208401525b50505b815181516104279185918c91908c908c358c60005b6020020160208101906104229190614720565b610f11565b84526020828101518282015161044b9286928d9290918d91908d01358c600161040f565b60208501525091979650505050505050565b6002546001600160a01b031681565b600054600160201b90046001600160a01b0316331461049d5760405162461bcd60e51b81526004016102db90614cab565b60006104a884610e8b565b905060006104b98461ffff16610f8b565b905060006104ca8561ffff16610fa3565b905081602001511580156104e057508060200151155b6104e957600080fd5b6101408301515161ffff8681169116148061051357506101408301516020015161ffff8681169116145b61052f5760405162461bcd60e51b81526004016102db90614c81565b61053a868686610fb6565b8461ffff16866001600160a01b03167f8f868f60e49b80b48ee5de8b7bc703cfc4b5c826a05d3ea1b00cf4159c155a90866040516105789190614eda565b60405180910390a3505050505050565b6002600a5414156105ab5760405162461bcd60e51b81526004016102db90614d17565b6002600a5560006105bb83610e8b565b90506105c98133604061100a565b60006105d58484611074565b90504283111580156105e957506040810151155b6106055760405162461bcd60e51b81526004016102db90614c04565b600061061a836040015161ffff16854261110f565b9050600061063d610638610631856020015161127f565b849061128d565b6112cc565b905060006106496112df565b6001600160a01b038816600090815260209182526040808220898352909252206101408601515190915061ffff16156106bc576101408501515161ffff166000908152602082905260409020546001600160501b0316156106bc5760405162461bcd60e51b81526004016102db90614af6565b6101408501516020015161ffff16156107135761014085015160209081015161ffff1660009081529082905260409020546001600160501b0316156107135760405162461bcd60e51b81526004016102db90614af6565b81846080015110156107915760a0840151156107415760405162461bcd60e51b81526004016102db90614a47565b6000610752856080015184036112ec565b9050600061076d61063888600001518960400151858c611302565b608087015190915061077f908261142a565b608087015261078e868a61143c565b50505b6107ac8786604001516107a7876020015161127f565b6115ab565b506107ba84868589426116b1565b50506001600a555050505050565b6107d0614189565b6107da8383611074565b9392505050565b606060006107ee33610e8b565b90506107fb816001610eba565b6108175760405162461bcd60e51b81526004016102db90614a72565b6000610827828b8b8b8b8b611877565b50905060006108398a61ffff16610f8b565b905060008060048360600151600581111561085057fe5b14610867576108628c61ffff16610fa3565b610869565b825b9050600061089a61063861089361088e888a61016001516119fb90919063ffffffff16565b61127f565b8490611a26565b905060006108a88330611a62565b8351604051637efbe0e760e11b8152919250339163fdf7c1ce916108d49186908f908f90600401614895565b600060405180830381600087803b1580156108ee57600080fd5b505af1158015610902573d6000803e3d6000fd5b505050506040513d6000823e601f3d908101601f1916820160405261092a919081019061460e565b975060006109388430611a62565b90506109448183611b0c565b9450828510156109665760405162461bcd60e51b81526004016102db90614d3f565b5060049250610973915050565b8260600151600581111561098357fe5b1461099557610993828c83611b21565b505b50505050979650505050505050565b600054600160201b90046001600160a01b031633146109d55760405162461bcd60e51b81526004016102db90614cab565b6109df8282611c08565b816001600160a01b03167f7c51c6aa77346c54cb051d9e792f9b7bde5c28a9b57e6fb2d2dd727b38438ca982604051610a18919061493d565b60405180910390a25050565b6000806000610a31611c68565b6001600160a01b0390951660009081526020958652604080822061ffff9096168252949095525050509020546001600160501b03600160501b8204811692911690565b6000806000610a8285611c75565b90506000610a94826000015186611074565b9050610aa1828287611c99565b9350935050505b9250929050565b6001546001600160a01b031681565b600054600160201b90046001600160a01b031681565b6000806000610ae16112df565b6001600160a01b0390961660009081526020968752604080822095825294875284812061ffff90961681529490955250509020546001600160501b0380821693600160501b909204169150565b600054600160201b90046001600160a01b03163314610b5f5760405162461bcd60e51b81526004016102db90614cab565b610b698383611d52565b610b8383610b7d60408501602086016146b3565b83610fb6565b6000600180610b9560208601866146b3565b1661ffff16149050836001600160a01b03167fb441d7ca09abc712b4504256717707ce40e8d43895266b46abf9cd58619c07dc8284604051610bd8929190614948565b60405180910390a250505050565b73__$7ac922d04bd7a1b42c7f6e5f1dd89a70af$__90565b6002600a541415610c215760405162461bcd60e51b81526004016102db90614d17565b6002600a556000610c3133610e8b565b9050610c3e816001610eba565b610c5a5760405162461bcd60e51b81526004016102db90614a72565b610c65816080610eba565b15610c70576001600a555b6000610c7c3387611074565b90506000610c9e8360000151610c91886112ec565b8591908a60008a8a611f57565b6080830151909150610cb09087611b0c565b608083015260a0820151610cc4908261142a565b60a0830152610cd3823361143c565b6000610cf68333856060015186602001518861200090949392919063ffffffff16565b509050808460a001511315610d1d5760405162461bcd60e51b81526004016102db90614ce0565b87336001600160a01b03167fbba43506b1f3723add796bf603adde56bc018392a95775b9f76c31213b4161bb8985604051610d5992919061499d565b60405180910390a350506001600a55505050505050565b600054600160201b90046001600160a01b03163314610da15760405162461bcd60e51b81526004016102db90614cab565b6000610dac87610e8b565b9050610dbd87826040015188610fb6565b610dca8186868686612068565b50506001600160a01b0387167fb441d7ca09abc712b4504256717707ce40e8d43895266b46abf9cd58619c07dc610e02836001610eba565b88604051610e11929190614948565b60405180910390a250505050505050565b610e2a6141c8565b610e3382611c75565b92915050565b6000806000610e4733610e8b565b9050610e54816001610eba565b610e705760405162461bcd60e51b81526004016102db90614a72565b610e7d8188888888612068565b925092505094509492505050565b610e936141c8565b610e9c8261217c565b9050610eaf816040015161ffff166122f9565b610160820152919050565b60209190910151811661ffff90811691161490565b600080610e33601a612345565b600061ffff851615801590610ef057508215155b15610f0757610f03878787878787611877565b5090505b9695505050505050565b600061ffff86161580610f22575082155b15610f2f57506000610f80565b6000610f3f89898989888861235e565b509050610f4c81866124ce565b90506000811215610f6f5760405162461bcd60e51b81526004016102db90614bcd565b8851610f7c9088836124e4565b9150505b979650505050505050565b610f93614245565b610e3382600061258c565b919050565b610fab614245565b610e3382600161258c565b6000610fc0611c68565b6001600160a01b0390941660009081526020948552604080822061ffff90951682529390945250912080546001600160501b039092166001600160501b0319909216919091179055565b6110148382610eba565b156110475782516001600160a01b031633146110425760405162461bcd60e51b81526004016102db90614a92565b61106f565b6001600160a01b038216331461106f5760405162461bcd60e51b81526004016102db90614a92565b505050565b61107c614189565b600061108661263a565b6001600160a01b03909416600090815260209485526040808220858352865280822094845284546001600160501b038082169093039685019690965260ff600160f01b870416151590840152600160501b8086048216608085015260019094015480821660a0850152600160a01b909504166060830152509104600990810b900b60c082015290565b611117614274565b6000806111248686612647565b91509150816000141561125457600061113c87612690565b91945090925090506001600160a01b0381161561125257600061115d612753565b905085600010801561116f5750858711155b8015611180575064ffffffffff8611155b61118957600080fd5b8360001280156111a057506001600160801b038413155b6111a957600080fd5b6000888152602082815260408083208a845290915290819020805464ffffffffff191664ffffffffff89161774ffffffffffffffffffffffffffffffff00000000001916650100000000006001600160801b038816021760ff60a81b1916600160a81b60ff871602178155905188908a907f0fdfa6885701e2f1f42e4187b9231cf81c1fe23671ef64fa46f34ddb56c1dc1890611247908990614e9c565b60405180910390a350505b505b6040805160608101825260008152602081019390935260ff909116600a0a9082015290509392505050565b6000610e3360001983612760565b6000806112c484602001516112be86604001516112b86402540be4008861276090919063ffffffff16565b90612760565b906127ae565b949350505050565b6000808212156112db57600080fd5b5090565b600080610e336018612345565b60006001600160ff1b038211156112db57600080fd5b600061130f856000611c08565b846001600160a01b03167f7c51c6aa77346c54cb051d9e792f9b7bde5c28a9b57e6fb2d2dd727b38438ca96000604051611349919061493d565b60405180910390a2818461ffff16866001600160a01b03167f823b641d46550301006f807a26587634f15bd13749efdc8859734377d5304a3b866040516113909190614994565b60405180910390a460006113a960008661ffff166127df565b50505090508084136113c9576113c185858303612888565b839150611421565b6113d4856000612888565b828561ffff16876001600160a01b03167f3a717b6924e3ad05b8c7609a2401472af90869b52cc3c9ca69b50100b4be63168488036040516114159190614994565b60405180910390a48091505b50949350505050565b6000828201838110156107da57600080fd5b600061144661263a565b6001600160a01b038316600090815260208281526040808320875184529091529081902090850151919250901561147c57600080fd5b61149461148f610638866020015161127f565b6128df565b81546001600160501b0319166001600160501b039190911617815560808401516114bd906128df565b81546001600160501b0391909116600160501b02600160501b600160a01b031990911617815560a08401516114f1906128df565b6001820180546001600160501b0319166001600160501b03929092169190911790556060840151611521906128df565b81546001600160501b0391909116600160a01b0269ffffffffffffffffffff60a01b1990911617815583516020850151608086015160a087015160608801516040516001600160a01b038916947f3a0fdaecf7b5da75a56077f5b1c8fbc88f9b08e9d0c4db31eb34e25bc6700cde9461159d94919390926149ab565b60405180910390a350505050565b6000806115b6611c68565b6001600160a01b03861660009081526020918252604080822061ffff881683529092522080549091506115f990600160501b90046001600160501b0316846128f5565b9150600083121561162e5780546001600160501b031682131561162e5760405162461bcd60e51b81526004016102db90614c2b565b61163a61148f836112cc565b81546001600160501b0391909116600160501b02600160501b600160a01b031990911617815560405161ffff8516906001600160a01b038716907f20478ef460e49d010960d4f3fff35d8dae385443abfac09035d6a2ccbcd834c4906116a1908690614994565b60405180910390a3509392505050565b60006116bb61263a565b85516001600160a01b03166000908152602082815260408083208784529091529020805491925090600160f01b900460ff16156116f757600080fd5b8284111561170457600080fd5b6040860151865160009161171e91806305f5e1008961290b565b825460ff60f01b1916600160f01b178355905061173a816129d2565b82600101600a6101000a8154816001600160501b03021916908360090b6001600160501b03160217905550600061176f612a02565b88516001600160a01b031660009081526020918252604080822089835283529020600185015481546001600160501b0319166001600160501b03909116178155908a01519091506117e1906117dc906117c9908a9061128d565b6117d68c608001516112ec565b906124ce565b6129d2565b815460099190910b6001600160501b0316600160501b02600160501b600160a01b03199091161781558851885160208b015160808c015160a08d015160608e01516040516001600160a01b03909516947fe66a863186dba5a66d19d3d91a66b76a7cbfdefd0d8c29c662274b13febb166e94611864949093909290918a906149c6565b60405180910390a3505050505050505050565b60008060006118846112df565b89516001600160a01b0316600090815260209182526040808220898352835280822061ffff8b1683529092522080549091506001600160501b0380821691600160501b9004166118e66118e1826118db8a86612a0f565b90612a36565b6112ec565b93508a600001516001600160a01b03168a6001600160a01b0316146119505761191261148f8289611b0c565b83546001600160501b0391909116600160501b02600160501b600160a01b03199091161783556119508b8b8b8b61194b61088e8d6112ec565b612a55565b8a5161195d908a866115ab565b5061196b61148f8386611b0c565b83546001600160501b0319166001600160501b03919091161783556119938b8a8a878a612bdd565b94508861ffff168a6001600160a01b03168c600001516001600160a01b03167f38db3b2568ca34833805148705b1440a4f80962ce663ba509811abc652de434a8b8b896040516119e593929190614ec4565b60405180910390a4505050965096945050505050565b6000806112c484604001516112be6402540be4006112be87896020015161276090919063ffffffff16565b60006305f5e10083604001511215611a4e57611a4760016117d68585612caa565b9050610e33565b6107da83611a5d8460016124ce565b612caa565b6000600383606001516005811115611a7657fe5b1415611a8d57506001600160a01b03811631610e33565b82516040516370a0823160e01b81526001600160a01b03909116906370a0823190611abc9085906004016147e6565b60206040518083038186803b158015611ad457600080fd5b505afa158015611ae8573d6000803e3d6000fd5b505050506040513d601f19601f82011682018060405250810190611a47919061469b565b600082821115611b1b57600080fd5b50900390565b600080600585606001516005811115611b3657fe5b14611b48576370a0823160e01b611b51565b630ed1279f60e11b5b90506000611b6486600001513084612ce2565b9050600586606001516005811115611b7857fe5b1415611b9f576000611b8d8661ffff16610fa3565b9050611b998186612df4565b50611be8565b600186606001516005811115611bb157fe5b1415611bc657611bc18685612e67565b611be8565b600286606001516005811115611bd857fe5b141561011657611bc18685612f09565b6000611bf987600001513085612ce2565b9050610f806118e18284612f5c565b6000611c12612fb3565b6001600160a01b038416600090815260208290526040902080549192509061ffff168315611c5157815461ffff19166001821761ffff16178255611c61565b815461ffff191661fffe82161782555b5050505050565b600080610e336017612345565b611c7d6141c8565b611c868261217c565b9050610eaf816040015161ffff16612fc0565b6000806000611cb0866040015161ffff1685612fd6565b90506000611cd761088e611cc788608001516112ec565b60208901516117d690869061128d565b90506000611cec886040015161ffff16610f8b565b9050611cf88183612caa565b9450600481606001516005811115611d0c57fe5b1415611d1a57849350611d47565b6000611d2d896040015161ffff16610fa3565b9050611d43611d3c85856119fb565b8290611a26565b9450505b505050935093915050565b6000611d5c612fb3565b9050611d6e60c0830160a0840161473c565b60ff1660641315611d7e57600080fd5b6064611d9060e0840160c0850161473c565b60ff161315611d9e57600080fd5b611daf610100830160e0840161473c565b60ff16611dbb57600080fd5b611dcd610120830161010084016146b3565b61ffff16611de160808401606085016146b3565b61ffff1610611def57600080fd5b611e01610140830161012084016146b3565b61ffff16611e1560408401602085016146b3565b61ffff161415611e2457600080fd5b611e36610160830161014084016146b3565b61ffff16611e4a60408401602085016146b3565b61ffff161415611e5957600080fd5b611e6b610140830161012084016146b3565b61ffff1615801590611e915750611e8a610160830161014084016146b3565b61ffff1615155b15611ecd57611ea8610160830161014084016146b3565b61ffff16611ebe610140840161012085016146b3565b61ffff161415611ecd57600080fd5b6000611eeb611ee260408501602086016146b3565b61ffff16610f8b565b90506000611f0b611f0260408601602087016146b3565b61ffff16610fa3565b90508160200151158015611f2157508060200151155b611f2a57600080fd5b6001600160a01b03851660009081526020849052604090208490611f4e8282614fa3565b50505050505050565b600080611f6d89600001518a60400151896124e4565b89519091506001600160a01b031663dc6679c589611f8b848961142a565b8988886040518663ffffffff1660e01b8152600401611fae9594939291906148de565b602060405180830381600087803b158015611fc857600080fd5b505af1158015611fdc573d6000803e3d6000fd5b505050506040513d601f19601f82011682018060405250810190610f7c919061469b565b60008061200f86888787613033565b9050600061202b61201f8561127f565b6101608a01519061128d565b9050600061203983836128f5565b90508161204f576001600160ff1b03935061205c565b6120598183613098565b93505b50509550959350505050565b6000806002600a54141561208e5760405162461bcd60e51b81526004016102db90614d17565b6002600a5561209e876080610eba565b156120a9576001600a555b60006120b9886000015188611074565b88519091506000906120d0908a90898b8a8a6130b1565b9050600081136120df57600080fd5b60808201516120ee908261142a565b608083015260a08201516121029088611b0c565b60a0830152885161211490839061143c565b8789600001516001600160a01b03167fb2f70c3fe73b5aee7e8c59b77222111306f1e4d7170f8fa1c09979bb847eb9d9838a60405161215492919061499d565b60405180910390a361216789838a611c99565b6001600a55909a909950975050505050505050565b6121846141c8565b600061218e612fb3565b6001600160a01b03841660008181526020838152604091829020928652825461ffff8082169288019290925262010000810490911691860191909152919250906121ee9063ffffffff600160201b9091048116906305f5e1009061276016565b6060840152805461220c90600160501b900460ff166207a120612a0f565b608084015280546122309068010000000000000000900461ffff16620186a0612a0f565b60a0840152805461224f90600160701b900461ffff16620186a0612a0f565b610120840152805460649060ff600160581b90910416633b9aca00020560c08401528054600160601b810460ff90811660e0860152600160681b909104166101008401526040805180820191829052906001830190600290826000855b82829054906101000a900461ffff1661ffff16815260200190600201906020826001010492830192600103820291508084116122ac57905050505050508361014001819052505050919050565b612301614274565b600080600061230f85612690565b604080516060810182526001600160a01b039093168352602083019390935260ff16600a0a918101919091529350505050919050565b6000620f424082601a81111561235757fe5b0192915050565b6000806123768860000151876107a761088e886112ec565b5060006123816112df565b89516001600160a01b039081166000908152602092835260408082208a8352845280822061ffff8c1683529093529190912080548b519193506001600160501b0380821693600160501b90920416918b821691161461243c57816123e7578693506123f8565b6123f5826118db8984612a0f565b93505b6124088b8b8b8b61194b896112ec565b61241561148f828661142a565b83546001600160501b0391909116600160501b02600160501b600160a01b03199091161783555b61244961148f838961142a565b83546001600160501b0319166001600160501b039190911617835561247c8b8a8a61247661088e8c6112ec565b8a612bdd565b94508861ffff168a6001600160a01b03168c600001516001600160a01b03167fa119a38e8bbbf2cbe78427cb9e63ef28678b56e3ceecc10bda7c00503ea947398b888c6040516119e593929190614ec4565b81810182811215600083121514610e3357600080fd5b6000816124f3575060006107da565b6000821361250057600080fd5b600061250f8461ffff16610f8b565b9050600061251d8285612caa565b905060048260600151600581111561253157fe5b141561255f5761255861063861088e888861ffff1661254f8661127f565b879291906130f8565b9250612583565b61258061063861088e8761ffff1689612577866112cc565b879291906131a0565b92505b50509392505050565b612594614245565b600061259e613236565b6000858152602082815260408083208715158452825291829020825160a08101845281546001600160a01b038116825260ff600160a01b82048116151594830194909452600160b01b81048416600a0a9482019490945293945092916060830191600160a81b90910416600581111561261357fe5b81529154600160b81b900468ffffffffffffffffff16602090920191909152949350505050565b600080610e336015612345565b6000806000612654612753565b6000958652602090815260408087209587529490525050509020546501000000000081046001600160801b031691600160a81b90910460ff1690565b60008060008060006126a186613243565b909250905060006001600160a01b0383166126c65750600090506402540be400612748565b826001600160a01b0316631ee108336040518163ffffffff1660e01b8152600401602060405180830381600087803b15801561270157600080fd5b505af1158015612715573d6000803e3d6000fd5b505050506040513d601f19601f82011682018060405250810190612739919061469b565b90506000811361274857600080fd5b969195509350915050565b600080610e336008612345565b8181026000198314156127905781158061278257508282828161277f57fe5b05145b61278b57600080fd5b610e33565b8215806127a55750818382816127a257fe5b05145b610e3357600080fd5b6000816000191480156127c45750600160ff1b83145b156127ce57600080fd5b8183816127d757fe5b059392505050565b60008060008060006127ef61327a565b6001600160a01b0388166000908152602082815260408083208a8452909152902080546001600160501b0381169650600160501b900463ffffffff169450909150831561285857805461285190600160701b900466ffffffffffffff16613287565b925061286d565b8054600160701b900466ffffffffffffff1692505b54600160a81b9004600a90810b900b97939650919450925050565b600081121561289657600080fd5b6128ab60008361ffff16836000806000613295565b8161ffff167fd3625f7b5926828151efe19f7ae655488287357d99ebe67e5fb20522ca739c0b82604051610a189190614994565b60006001600160501b038211156112db57600080fd5b80820382811315600083121514610e3357600080fd5b60008061291b8761ffff16610fa3565b905080604001516000141561293a576129378761ffff16610f8b565b90505b60405163e937711160e01b81526129c5906001600160a01b0388169063e93771119061296e908990899089906004016148bd565b60206040518083038186803b15801561298657600080fd5b505afa15801561299a573d6000803e3d6000fd5b505050506040513d601f19601f820116820180604052508101906129be919061469b565b82906133dc565b9150505b95945050505050565b6000697fffffffffffffffffff1982128015906129f95750697fffffffffffffffffff8213155b6112db57600080fd5b600080610e336019612345565b600082612a1e57506000610e33565b82820282848281612a2b57fe5b04146107da57600080fd5b6000808211612a4457600080fd5b818381612a4d57fe5b049392505050565b6000612a5f610ecf565b6001600160a01b038087166000908152602092835260408082208a519093168252919092529020805490915063ffffffff1683811480612a9d575080155b612ab95760405162461bcd60e51b81526004016102db906149e9565b815461014088015151600160201b82046001600160501b0390811692600160701b9004169061ffff88811691161415612b3357612af682866124ce565b9150612b0461148f836112cc565b84546001600160501b0391909116600160201b026dffffffffffffffffffff0000000019909116178455612b8d565b6101408901516020015161ffff8881169116141561011657612b5581866124ce565b9050612b6361148f826112cc565b84546001600160501b0391909116600160701b0269ffffffffffffffffffff60701b199091161784555b81158015612b99575080155b15612bae57835463ffffffff19168455612bd2565b82612bd257612bbc8661340c565b845463ffffffff191663ffffffff919091161784555b505050505050505050565b6000856040015161ffff168561ffff161415612bf857600080fd5b82612c05575060006129c9565b428411612c42576000831215612c1a57600080fd5b6000612c2b8661ffff16864261110f565b9050612c3a61088e828661128d565b9150506129c9565b612c55858585858a61010001514261341f565b9050600083138015612c65575080155b15612c8157610160860151612c7e9061088e908561128d565b90505b60008312156129c957600081136129c95760405162461bcd60e51b81526004016102db90614a20565b60006305f5e10083604001511415612cc3575080610e33565b6107da6305f5e1006112be85604001518561276090919063ffffffff16565b604080516001600160a01b0384811660248084019190915283518084039091018152604490920183526020820180516001600160e01b03166001600160e01b0319861617815292518251600094859485948a16939092909182918083835b60208310612d5f5780518252601f199092019160209182019101612d40565b6001836020036101000a038019825116818451168082178552505050505050905001915050600060405180830381855afa9150503d8060008114612dbf576040519150601f19603f3d011682016040523d82523d6000602084013e612dc4565b606091505b509150915081612dd357600080fd5b808060200190516020811015612de857600080fd5b50519695505050505050565b612dfc61352e565b54825160405163e8eda9df60e01b81526001600160a01b039092169163e8eda9df91612e319185903090600090600401614868565b600060405180830381600087803b158015612e4b57600080fd5b505af1158015612e5f573d6000803e3d6000fd5b505050505050565b815160405163140e25ad60e31b81526000916001600160a01b03169063a0712d6890612e97908590600401614994565b602060405180830381600087803b158015612eb157600080fd5b505af1158015612ec5573d6000803e3d6000fd5b505050506040513d601f19601f82011682018060405250810190612ee9919061469b565b9050801561106f5760405162461bcd60e51b81526004016102db90614ab8565b81600001516001600160a01b0316631249c58b826040518263ffffffff1660e01b81526004016000604051808303818588803b158015612f4857600080fd5b505af1158015611f4e573d6000803e3d6000fd5b600082821115611b1b576040805162461bcd60e51b815260206004820152601e60248201527f536166654d6174683a207375627472616374696f6e206f766572666c6f770000604482015290519081900360640190fd5b600080610e336014612345565b612fc8614274565b600080600061230f8561353b565b612fde614274565b600080612feb8585612647565b915091508160001415613009576130018561353b565b919350909150505b6040805160608101825260008152602081019390935260ff909116600a0a90820152905092915050565b600081613042575060006112c4565b60008061304f87856135be565b91509150600061306e8760400151886000015188858c6000015161290b565b905061308c61307c846112ec565b6101608901516117d6908461128d565b98975050505050505050565b60006107da6130ab84633b9aca00612760565b836127ae565b6000610f03876040518060a00160405280896001600160a01b03168152602001896001600160a01b0316815260200188815260200187815260200160008152508585613617565b8060058560600151600581111561310b57fe5b141561313057600061311c84610fa3565b905061312c8160000151846138c4565b9250505b600082131561315c57600061314686868561394a565b9050856020015115613156578091505b506112c4565b60038560600151600581111561316e57fe5b141561318b57613186846131818461127f565b613a3d565b6112c4565b84516112c4908561319b8561127f565b613a73565b6000806002866060015160058111156131b557fe5b14156131cd576131c6868585613aea565b905061322a565b60006131d886610fa3565b90506005876060015160058111156131ec57fe5b1415613204576131fd818686613ba7565b9150613228565b60018760600151600581111561321657fe5b1415610116576131fd87828787613c58565b505b610f0761088e826112ec565b600080610e336007612345565b6000806000613250613d56565b600094855260205250506040909120546001600160a01b03811692600160a01b90910460ff169150565b600080610e336006612345565b600881901c60ff9091161b90565b600061329f61327a565b6001600160a01b0388166000908152602082815260408083208a845290915290209091506a7fffffffffffffffffffff1986128015906132ea57506a7fffffffffffffffffffff8613155b6132f357600080fd5b6000851215801561330b57506001600160501b038513155b61331457600080fd5b836133545766ffffffffffffff83111561332d57600080fd5b805466ffffffffffffff60701b1916600160701b66ffffffffffffff85160217815561336e565b8054600160501b900463ffffffff16841461336e57600080fd5b8054600a9690960b6affffffffffffffffffffff16600160a81b026001600160a81b036001600160501b039096166001600160501b031963ffffffff909616600160501b0263ffffffff60501b19909816979097179490941695909517939093169190911790925550505050565b60006305f5e100836040015114156133f5575080610e33565b60408301516107da906112be846305f5e100612760565b600063ffffffff8211156112db57600080fd5b60008061342e88888686613d63565b9050600061343b87613dd2565b90506affffffffffffffffffffff811061345457600080fd5b600060788763ffffffff16901b609883901b60f085901b60f860008c1361347c57600161347f565b60005b600581111561348a57fe5b60ff16901b17171760001b905073__$7ac922d04bd7a1b42c7f6e5f1dd89a70af$__63e50f349e8b836040518363ffffffff1660e01b81526004016134d0929190614eb0565b60206040518083038186803b1580156134e857600080fd5b505af41580156134fc573d6000803e3d6000fd5b505050506040513d601f19601f82011682018060405250810190613520919061469b565b9a9950505050505050505050565b600080610e336013612345565b600080600080600061354c86613243565b909250905060006001600160a01b0383166135715750600090506402540be400612748565b826001600160a01b031663b2fffb046040518163ffffffff1660e01b815260040160206040518083038186803b1580156135aa57600080fd5b505afa158015612715573d6000803e3d6000fd5b600080600084606001511115610aa8576135ed84606001516118db866080015186612a0f90919063ffffffff16565b915061360e84606001516118db8660a0015186612a0f90919063ffffffff16565b90509250929050565b600080600061362d876040015161ffff16610f8b565b9050600060048260600151600581111561364357fe5b1461365e57613659886040015161ffff16610fa3565b613660565b815b9050600080886080015112156136d35760048360600151600581111561368257fe5b141561369f57613698610638896080015161127f565b90506136d3565b60006136c061088e8a608001518c61016001516119fb90919063ffffffff16565b90506136cf6106388483611a26565b9150505b6040880151600090156137ab5760006136ec8430611a62565b90508a600001516001600160a01b03166344f051088b600001518c602001518d604001518e60600151888f8f6040518863ffffffff1660e01b815260040161373a97969594939291906147fa565b602060405180830381600087803b15801561375457600080fd5b505af1158015613768573d6000803e3d6000fd5b505050506040513d601f19601f8201168201806040525081019061378c919061469b565b9550600061379a8530611a62565b90506137a68183611b0c565b925050505b81811015613846578082036003846060015160058111156137c857fe5b141561380657348111156137ee5760405162461bcd60e51b81526004016102db90614b1d565b6137fe8a60000151823403613a3d565b829150613844565b600061382b8b600001518d6040015161ffff16613822856112ec565b889291906130f8565b9050613840613839826112cc565b849061142a565b9250505b505b818110156138665760405162461bcd60e51b81526004016102db90614b1d565b600060048560600151600581111561387a57fe5b141561389057613889826112ec565b90506138aa565b81156138aa5760408b01516138a790869084611b21565b90505b6138b485826133dc565b9650505050505094509492505050565b6000816138d357506000610e33565b60006138de84613df3565b905060006138eb84613dd2565b9050816b019d971e4fe8401e74000001600160ff1b038161390857fe5b0581131561391557600080fd5b6b033b2e3c9fd0803ce80000006b019d971e4fe8401e740000008383020105600085136129c9576139458161127f565b610f07565b600080808060058760600151600581111561396157fe5b14613973576370a0823160e01b61397c565b630ed1279f60e11b5b9050866020015115613998578651613995903083612ce2565b92505b86516139a5908787613e7e565b8660200151806139b9575060008760800151115b156139ce5786516139cb903083612ce2565b91505b608087015115613a095760006139ec886139e7856112ec565b6133dc565b90506139fb88608001516112ec565b811315613a0757600080fd5b505b866020015115613a2a57613a206118e18385612f5c565b93505050506107da565b613a20856112ec565b5050509392505050565b6040516001600160a01b0383169082156108fc029083906000818181858888f1935050505015801561106f573d6000803e3d6000fd5b826001600160a01b031663a9059cbb83836040518363ffffffff1660e01b815260040180836001600160a01b0316815260200182815260200192505050600060405180830381600087803b158015613aca57600080fd5b505af1158015613ade573d6000803e3d6000fd5b5050505061106f613ed6565b825160405163db006a7560e01b8152600091479183916001600160a01b03169063db006a7590613b1e908790600401614994565b602060405180830381600087803b158015613b3857600080fd5b505af1158015613b4c573d6000803e3d6000fd5b505050506040513d601f19601f82011682018060405250810190613b70919061469b565b90508015613b905760405162461bcd60e51b81526004016102db90614ad6565b47613b9b8184612f5c565b9350613a338685613a3d565b6000613bc26106388560000151613bbd856112ec565b6138c4565b9050613bcc61352e565b548451604051631a4ca37b60e21b81526001600160a01b03909216916369328dec91613bfe9185908890600401614845565b602060405180830381600087803b158015613c1857600080fd5b505af1158015613c2c573d6000803e3d6000fd5b505050506040513d601f19601f82011682018060405250810190613c50919061469b565b509392505050565b82516000908190613c7190306370a0823160e01b612ce2565b9050600086600001516001600160a01b031663db006a75856040518263ffffffff1660e01b8152600401613ca59190614994565b602060405180830381600087803b158015613cbf57600080fd5b505af1158015613cd3573d6000803e3d6000fd5b505050506040513d601f19601f82011682018060405250810190613cf7919061469b565b90508015613d175760405162461bcd60e51b81526004016102db90614ad6565b8551600090613d2e90306370a0823160e01b612ce2565b9050613d3a8184612f5c565b9350613d4b87600001518786613a73565b505050949350505050565b600080610e33600f612345565b6000806000613d758761ffff16613f47565b9050613d858160ff168786613f5d565b909350915084831115613daa5760405162461bcd60e51b81526004016102db90614ba3565b8115613dc85760405162461bcd60e51b81526004016102db90614ba3565b5050949350505050565b600080821215613dec57613de58261127f565b9050610f9e565b5080610f9e565b6000610e33613e0061352e565b5460405163d15e005360e01b81526001600160a01b039091169063d15e005390613e2e9086906004016147e6565b60206040518083038186803b158015613e4657600080fd5b505afa158015613e5a573d6000803e3d6000fd5b505050506040513d601f19601f820116820180604052508101906118e1919061469b565b604080516323b872dd60e01b81526001600160a01b038481166004830152306024830152604482018490529151918516916323b872dd9160648082019260009290919082900301818387803b158015613aca57600080fd5b6000613ee061429e565b3d8015613ef45760208114613efd57600080fd5b60019250613f08565b60206000833e815192505b5081613f43576040805162461bcd60e51b8152602060048201526005602482015264045524332360dc1b604482015290519081900360640190fd5b5050565b600080613f5383614025565b60ff169392505050565b60008060008511613f805760405162461bcd60e51b81526004016102db90614b4d565b6007851115613fa15760405162461bcd60e51b81526004016102db90614c51565b6000613fac84614042565b905060015b868111614004576000613fcd613fc683614060565b8490614104565b905086811415613fe5575092506000915061401d9050565b86811115613ffb575092506001915061401d9050565b50600101613fb1565b5060405162461bcd60e51b81526004016102db90614d6b565b935093915050565b60008061403061415e565b60009384526020525050604090205490565b60006276a70082101561405457600080fd5b506276a7008106900390565b6000816001141561407557506276a700610f9e565b8160021415614088575062ed4e00610f9e565b816003141561409c57506301da9c00610f9e565b81600414156140b057506303b53800610f9e565b81600514156140c457506309450c00610f9e565b81600614156140d8575063128a1800610f9e565b81600714156140ec57506325143000610f9e565b60405162461bcd60e51b81526004016102db90614b7c565b6000828201838110156107da576040805162461bcd60e51b815260206004820152601b60248201527f536166654d6174683a206164646974696f6e206f766572666c6f770000000000604482015290519081900360640190fd5b600080610e336009612345565b60405180604001604052806002906020820280368337509192915050565b6040518060e001604052806000815260200160008152602001600015158152602001600081526020016000815260200160008152602001600081525090565b60405180610180016040528060006001600160a01b03168152602001600061ffff168152602001600061ffff1681526020016000815260200160008152602001600081526020016000815260200160008152602001600081526020016000815260200161423361416b565b8152602001614240614274565b905290565b6040805160a0810182526000808252602082018190529181018290529060608201908152602001600081525090565b604051806060016040528060006001600160a01b0316815260200160008152602001600081525090565b60405180602001604052806001906020820280368337509192915050565b80356001600160a01b0381168114610f9e57600080fd5b8060408101831015610e3357600080fd5b60008083601f8401126142f5578182fd5b50813567ffffffffffffffff81111561430c578182fd5b602083019150836020828501011115610aa857600080fd5b80356001600160501b0381168114610f9e57600080fd5b60006020828403121561434c578081fd5b6107da826142bc565b60008060408385031215614367578081fd5b614370836142bc565b915060208301358015158114614384578182fd5b809150509250929050565b60008060008385036101a08112156143a5578182fd5b6143ae856142bc565b9350610160601f19820112156143c2578182fd5b506020840191506143d66101808501614324565b90509250925092565b600080604083850312156143f1578182fd5b6143fa836142bc565b9150602083013561438481615169565b60008060006060848603121561441e578283fd5b614427846142bc565b9250602084013561443781615169565b929592945050506040919091013590565b600080600080600080600060c0888a031215614462578283fd5b61446b886142bc565b9650602088013561447b81615169565b9550604088013594506060880135935060808801356144998161517c565b925060a088013567ffffffffffffffff8111156144b4578283fd5b6144c08a828b016142e4565b989b979a50959850939692959293505050565b6000806000606084860312156144e7578283fd5b6144f0846142bc565b9250602084013561450081615169565b91506143d660408501614324565b60008060408385031215614520578182fd5b614529836142bc565b946020939093013593505050565b6000806000806000610100868803121561454f578081fd5b614558866142bc565b94506020860135935061456e87604088016142d3565b925061457d87608088016142d3565b915061458c8760c088016142d3565b90509295509295909350565b60008060008060008060a087890312156145b0578384fd5b6145b9876142bc565b95506145c760208801614324565b94506040870135935060608701359250608087013567ffffffffffffffff8111156145f0578283fd5b6145fc89828a016142e4565b979a9699509497509295939492505050565b60006020828403121561461f578081fd5b815167ffffffffffffffff80821115614636578283fd5b818401915084601f830112614649578283fd5b81518181111561465557fe5b604051601f8201601f19168101602001838111828210171561467357fe5b60405281815283820160200187101561468a578485fd5b610f07826020830160208701614f50565b6000602082840312156146ac578081fd5b5051919050565b6000602082840312156146c4578081fd5b81356107da81615169565b600080600080606085870312156146e4578182fd5b8435935060208501359250604085013567ffffffffffffffff811115614708578283fd5b614714878288016142e4565b95989497509550505050565b600060208284031215614731578081fd5b81356107da8161517c565b60006020828403121561474d578081fd5b81356107da8161518e565b6001600160a01b03169052565b8060005b600281101561478c57815161ffff16845260209384019390910190600101614769565b50505050565b60008284528282602086013780602084860101526020601f19601f85011685010190509392505050565b80516001600160a01b0316825260208082015190830152604090810151910152565b61ffff169052565b6001600160a01b0391909116815260200190565b600060018060a01b03808a16835280891660208401525086604083015285606083015284608083015260c060a083015261483860c083018486614792565b9998505050505050505050565b6001600160a01b0393841681526020810192909252909116604082015260600190565b6001600160a01b03948516815260208101939093529216604082015261ffff909116606082015260800190565b600060018060a01b038616825284602083015260606040830152610f07606083018486614792565b6001600160a01b039390931683526020830191909152604082015260600190565b600060018060a01b038716825285602083015284604083015260806060830152610f80608083018486614792565b60408101818360005b6002811015614934578151835260209283019290910190600101614915565b50505092915050565b901515815260200190565b91151582526001600160501b0316602082015260400190565b6000602082528251806020840152614980816040850160208701614f50565b601f01601f19169190910160400192915050565b90815260200190565b918252602082015260400190565b93845260208401929092526040830152606082015260800190565b948552602085019390935260408401919091526060830152608082015260a00190565b6020808252601a908201527f496e76616c6964205365636f6e64617279204d61747572697479000000000000604082015260600190565b6020808252600d908201526c109bdc9c9bddc811985a5b1959609a1b604082015260600190565b60208082526011908201527052656465656d20616c6c20746f6b656e7360781b604082015260600190565b60208082526006908201526514185d5cd95960d21b604082015260600190565b6020808252600c908201526b155b985d5d1a1bdc9a5e995960a21b604082015260600190565b602080825260049082015263135a5b9d60e21b604082015260600190565b60208082526006908201526552656465656d60d01b604082015260600190565b6020808252600d908201526c556e7061696420426f72726f7760981b604082015260600190565b602080825260169082015275125b9cdd59999a58da595b9d081c995c185e5b595b9d60521b604082015260600190565b60208082526015908201527410d1ce881b9bc81b585c9ad95d1cc81b1a5cdd1959605a1b604082015260600190565b6020808252600d908201526c092dcecc2d8d2c840d2dcc8caf609b1b604082015260600190565b60208082526010908201526f496e76616c6964204d6174757269747960801b604082015260600190565b6020808252601d908201527f496e73756666696369656e74205365636f6e6461727920426f72726f77000000604082015260600190565b6020808252600d908201526c43616e6e6f7420536574746c6560981b604082015260600190565b6020808252600c908201526b4d617820436170616369747960a01b604082015260600190565b60208082526016908201527510d1ce881b585c9ad95d081a5b99195e08189bdd5b9960521b604082015260600190565b60208082526010908201526f496e76616c69642043757272656e637960801b604082015260600190565b6020808252818101527f4f776e61626c653a2063616c6c6572206973206e6f7420746865206f776e6572604082015260600190565b60208082526017908201527f496e73756666696369656e7420436f6c6c61746572616c000000000000000000604082015260600190565b6020808252600e908201526d1499595b9d1c985b9d0818d85b1b60921b604082015260600190565b602080825260129082015271496e73756666696369656e7420526570617960701b604082015260600190565b60208082526013908201527210d1ce881b9bc81b585c9ad95d08199bdd5b99606a1b604082015260600190565b60006101e082019050614dac828451614758565b6020830151614dbe60208401826147de565b506040830151614dd160408401826147de565b50606083015160608301526080830151608083015260a083015160a083015260c083015160c083015260e083015160e083015261010080840151818401525061012080840151818401525061014080840151614e2f82850182614765565b5050610160830151614e456101808401826147bc565b5092915050565b600060e0820190508251825260208301516020830152604083015115156040830152606083015160608301526080830151608083015260a083015160a083015260c083015160c083015292915050565b6001600160801b0391909116815260200190565b61ffff929092168252602082015260400190565b9283526020830191909152604082015260600190565b6001600160501b0391909116815260200190565b81816000805b6002808210614f035750612e5f565b8435614f0e81615169565b845461ffff6008860281811b801990931693909116901b161784556020949094019390910190601e821115614f4857600091506001830192505b600101614ef4565b60005b83811015614f6b578181015183820152602001614f53565b8381111561478c5750506000910152565b60008135610e3381615169565b60008135610e338161517c565b60008135610e338161518e565b8135614fae81615169565b61ffff811661ffff1983541617825550614fd3614fcd60208401614f7c565b8261510b565b614fe8614fe260408401614f89565b82615127565b614ffd614ff760608401614f7c565b8261514b565b61501261500c60808401614f96565b82615078565b61502761502160a08401614f96565b82615095565b61503c61503660c08401614f96565b826150b2565b61505161504b60e08401614f96565b826150cf565b6150676150616101008401614f7c565b826150ec565b613f43610120830160018301614eee565b805460ff60501b191660509290921b60ff60501b16919091179055565b805460ff60581b191660589290921b60ff60581b16919091179055565b805460ff60601b191660609290921b60ff60601b16919091179055565b805460ff60681b191660689290921b60ff60681b16919091179055565b805461ffff60701b191660709290921b61ffff60701b16919091179055565b805463ffff00008360101b1663ffff0000198216178255505050565b805467ffffffff000000008360201b1667ffffffff00000000198216178255505050565b805461ffff60401b8360401b1661ffff60401b198216178255505050565b61ffff8116811461517957600080fd5b50565b63ffffffff8116811461517957600080fd5b60ff8116811461517957600080fdfea2646970667358221220ab94f8fd47226df7a604b629b42713c3a0f62760ef0e0b9931e428866fbc9b6464736f6c63430007060033",
  "language": "Solidity",
  "natspec": {
    "kind": "dev",
    "methods": {
      "borrowSecondaryCurrencyToVault(address,uint256,uint256[2],uint32[2],uint32[2])": {
        "notice": "Allows a vault to borrow a secondary currency if it is whitelisted to do so",
        "params": {
          "account": "account that is borrowing the secondary currency",
          "fCashToBorrow": "fCash to borrow for the first and second secondary currencies",
          "maturity": "the maturity to borrow at",
          "maxBorrowRate": "maximum borrow rate for the first and second secondary currencies",
          "minRollLendRate": "max roll lend rate for the first and second borrow currencies"
        },
        "returns": {
          "underlyingTokensTransferred": "amount of tokens transferred back to the vault"
        }
      },
      "depositVaultCashToStrategyTokens(uint256,uint256,bytes)": {
        "notice": "Strategy vaults can call this method to deposit asset cash into strategy tokens.",
        "params": {
          "assetCashInternal": "the number of asset cash tokens to deposit (external)",
          "maturity": "the maturity of the vault where the redemption will take place",
          "vaultData": "arbitrary data to pass back to the vault for deposit"
        }
      },
      "getCashRequiredToSettle(address,uint256)": {
        "notice": "View method to get the current amount of cash remaining to settle the vault"
      },
      "getVaultConfig(address)": {
        "notice": "View Methods *"
      },
      "getVaultState(address,uint256)": {
        "notice": "View method to get vault state"
      },
      "redeemStrategyTokensToCash(uint256,uint256,bytes)": {
        "notice": "Strategy vaults can call this method to redeem strategy tokens to cash and hold them as asset cash within the pool. This should typically be used during settlement but can also be used for vault-wide deleveraging.",
        "params": {
          "maturity": "the maturity of the vault where the redemption will take place",
          "strategyTokensToRedeem": "the number of strategy tokens redeemed",
          "vaultData": "arbitrary data to pass back to the vault"
        },
        "returns": {
          "assetCashRequiredToSettle": "amount of asset cash still remaining to settle the debt",
          "underlyingCashRequiredToSettle": "amount of underlying cash still remaining to settle the debt"
        }
      },
      "reduceMaxBorrowCapacity(address,uint80,uint256,uint256,bytes)": {
        "notice": "Allows the owner to reduce the max borrow capacity on the vault and force the redemption of strategy tokens to cash to reduce the overall risk of the vault. This method is intended to be used in emergencies to mitigate insolvency risk. The effect of this method will mean that the overall max borrow capacity is reduced, the total used capacity will be unchanged (redeemStrategyTokensToCash does not do any lending to reduce the outstanding fCash), and accounts will be locked out of entering the maturity which was targeted by this method. Other maturities for that vault may still be entered depending on whether or not the vault is above or below the max vault borrow capacity.",
        "params": {
          "maturity": "the maturity to redeem tokens in, will generally be either the current maturity or the next maturity.",
          "maxVaultBorrowCapacity": "the new max vault borrow capacity on the primary currency",
          "strategyTokensToRedeem": "how many tokens we would want to redeem in the maturity",
          "vaultAddress": "address of the vault",
          "vaultData": "vault data to pass to the vault"
        }
      },
      "repaySecondaryCurrencyFromVault(address,uint16,uint256,uint256,uint32,bytes)": {
        "notice": "Allows a vault to repay a secondary currency that it has borrowed. Will be executed via a callback which will request that the vault repay a specific amount of underlying tokens.",
        "params": {
          "account": "account that is repaying the secondary currency",
          "currencyId": "currency id of the secondary currency",
          "debtSharesToRepay": "amount of debt shares to repay (used to calculate fCashToLend)",
          "maturity": "the maturity to lend at",
          "minLendRate": "minimum lend rate"
        },
        "returns": {
          "returnData": "arbitrary return data to pass back to the vault"
        }
      },
      "setVaultPauseStatus(address,bool)": {
        "notice": "Enables or disables a vault. If a vault is disabled, no one can enter the vault but exits are still possible.",
        "params": {
          "enable": "true if the vault should be enabled immediately",
          "vaultAddress": "address of deployed vault"
        }
      },
      "settleVault(address,uint256)": {
        "notice": "Settles a vault and sets the final settlement rates",
        "params": {
          "maturity": "the maturity of the vault",
          "vault": "the vault to settle"
        }
      },
      "updateSecondaryBorrowCapacity(address,uint16,uint80)": {
        "notice": "Whitelists a secondary borrow currency for a vault, vaults can borrow up to the capacity using the `borrowSecondaryCurrencyToVault` and `repaySecondaryCurrencyToVault` methods. Vaults that use a secondary currency must ALWAYS repay the secondary debt during redemption and handle accounting for the secondary currency themselves.",
        "params": {
          "maxBorrowCapacity": "maximum borrow capacity",
          "secondaryCurrencyId": "struct of vault configuration",
          "vaultAddress": "address of deployed vault"
        }
      },
      "updateVault(address,(uint16,uint16,uint32,uint16,uint8,uint8,uint8,uint8,uint16,uint16[2]),uint80)": {
        "notice": "Updates or lists a deployed vault along with its configuration.",
        "params": {
          "maxPrimaryBorrowCapacity": "maximum borrow capacity",
          "vaultAddress": "address of deployed vault",
          "vaultConfig": "struct of vault configuration"
        }
      }
    },
    "version": 1
  },
  "opcodes": "PUSH1 0x80 PUSH1 0x40 MSTORE CALLVALUE DUP1 ISZERO PUSH2 0x10 JUMPI PUSH1 0x0 DUP1 REVERT JUMPDEST POP PUSH1 0x4 CALLDATASIZE LT PUSH2 0x116 JUMPI PUSH1 0x0 CALLDATALOAD PUSH1 0xE0 SHR DUP1 PUSH4 0x82463367 GT PUSH2 0xA2 JUMPI DUP1 PUSH4 0xC4C96DAE GT PUSH2 0x71 JUMPI DUP1 PUSH4 0xC4C96DAE EQ PUSH2 0x23E JUMPI DUP1 PUSH4 0xD04C16AC EQ PUSH2 0x246 JUMPI DUP1 PUSH4 0xD6DDEB9A EQ PUSH2 0x259 JUMPI DUP1 PUSH4 0xDE1EB9A3 EQ PUSH2 0x26C JUMPI DUP1 PUSH4 0xEE01436B EQ PUSH2 0x28C JUMPI PUSH2 0x116 JUMP JUMPDEST DUP1 PUSH4 0x82463367 EQ PUSH2 0x208 JUMPI DUP1 PUSH4 0x8DA5CB5B EQ PUSH2 0x210 JUMPI DUP1 PUSH4 0xA14DB57C EQ PUSH2 0x218 JUMPI DUP1 PUSH4 0xB3C47546 EQ PUSH2 0x22B JUMPI PUSH2 0x116 JUMP JUMPDEST DUP1 PUSH4 0x31572281 GT PUSH2 0xE9 JUMPI DUP1 PUSH4 0x31572281 EQ PUSH2 0x181 JUMPI DUP1 PUSH4 0x50E4F223 EQ PUSH2 0x1A1 JUMPI DUP1 PUSH4 0x56F428C4 EQ PUSH2 0x1C1 JUMPI DUP1 PUSH4 0x67515776 EQ PUSH2 0x1D4 JUMPI DUP1 PUSH4 0x6C346C09 EQ PUSH2 0x1F5 JUMPI PUSH2 0x116 JUMP JUMPDEST DUP1 PUSH4 0xBC08CDC EQ PUSH2 0x11B JUMPI DUP1 PUSH4 0x24A3D622 EQ PUSH2 0x144 JUMPI DUP1 PUSH4 0x291AFDF3 EQ PUSH2 0x159 JUMPI DUP1 PUSH4 0x295E6B7F EQ PUSH2 0x16E JUMPI JUMPDEST PUSH1 0x0 DUP1 REVERT JUMPDEST PUSH2 0x12E PUSH2 0x129 CALLDATASIZE PUSH1 0x4 PUSH2 0x4537 JUMP JUMPDEST PUSH2 0x29F JUMP JUMPDEST PUSH1 0x40 MLOAD PUSH2 0x13B SWAP2 SWAP1 PUSH2 0x490C JUMP JUMPDEST PUSH1 0x40 MLOAD DUP1 SWAP2 SUB SWAP1 RETURN JUMPDEST PUSH2 0x14C PUSH2 0x45D JUMP JUMPDEST PUSH1 0x40 MLOAD PUSH2 0x13B SWAP2 SWAP1 PUSH2 0x47E6 JUMP JUMPDEST PUSH2 0x16C PUSH2 0x167 CALLDATASIZE PUSH1 0x4 PUSH2 0x44D3 JUMP JUMPDEST PUSH2 0x46C JUMP JUMPDEST STOP JUMPDEST PUSH2 0x16C PUSH2 0x17C CALLDATASIZE PUSH1 0x4 PUSH2 0x450E JUMP JUMPDEST PUSH2 0x588 JUMP JUMPDEST PUSH2 0x194 PUSH2 0x18F CALLDATASIZE PUSH1 0x4 PUSH2 0x450E JUMP JUMPDEST PUSH2 0x7C8 JUMP JUMPDEST PUSH1 0x40 MLOAD PUSH2 0x13B SWAP2 SWAP1 PUSH2 0x4E4C JUMP JUMPDEST PUSH2 0x1B4 PUSH2 0x1AF CALLDATASIZE PUSH1 0x4 PUSH2 0x4448 JUMP JUMPDEST PUSH2 0x7E1 JUMP JUMPDEST PUSH1 0x40 MLOAD PUSH2 0x13B SWAP2 SWAP1 PUSH2 0x4961 JUMP JUMPDEST PUSH2 0x16C PUSH2 0x1CF CALLDATASIZE PUSH1 0x4 PUSH2 0x4355 JUMP JUMPDEST PUSH2 0x9A4 JUMP JUMPDEST PUSH2 0x1E7 PUSH2 0x1E2 CALLDATASIZE PUSH1 0x4 PUSH2 0x43DF JUMP JUMPDEST PUSH2 0xA24 JUMP JUMPDEST PUSH1 0x40 MLOAD PUSH2 0x13B SWAP3 SWAP2 SWAP1 PUSH2 0x499D JUMP JUMPDEST PUSH2 0x1E7 PUSH2 0x203 CALLDATASIZE PUSH1 0x4 PUSH2 0x450E JUMP JUMPDEST PUSH2 0xA74 JUMP JUMPDEST PUSH2 0x14C PUSH2 0xAAF JUMP JUMPDEST PUSH2 0x14C PUSH2 0xABE JUMP JUMPDEST PUSH2 0x1E7 PUSH2 0x226 CALLDATASIZE PUSH1 0x4 PUSH2 0x440A JUMP JUMPDEST PUSH2 0xAD4 JUMP JUMPDEST PUSH2 0x16C PUSH2 0x239 CALLDATASIZE PUSH1 0x4 PUSH2 0x438F JUMP JUMPDEST PUSH2 0xB2E JUMP JUMPDEST PUSH2 0x14C PUSH2 0xBE6 JUMP JUMPDEST PUSH2 0x16C PUSH2 0x254 CALLDATASIZE PUSH1 0x4 PUSH2 0x46CF JUMP JUMPDEST PUSH2 0xBFE JUMP JUMPDEST PUSH2 0x16C PUSH2 0x267 CALLDATASIZE PUSH1 0x4 PUSH2 0x4598 JUMP JUMPDEST PUSH2 0xD70 JUMP JUMPDEST PUSH2 0x27F PUSH2 0x27A CALLDATASIZE PUSH1 0x4 PUSH2 0x433B JUMP JUMPDEST PUSH2 0xE22 JUMP JUMPDEST PUSH1 0x40 MLOAD PUSH2 0x13B SWAP2 SWAP1 PUSH2 0x4D98 JUMP JUMPDEST PUSH2 0x1E7 PUSH2 0x29A CALLDATASIZE PUSH1 0x4 PUSH2 0x46CF JUMP JUMPDEST PUSH2 0xE39 JUMP JUMPDEST PUSH2 0x2A7 PUSH2 0x416B JUMP JUMPDEST PUSH1 0x0 PUSH2 0x2B2 CALLER PUSH2 0xE8B JUMP JUMPDEST SWAP1 POP PUSH2 0x2BF DUP2 PUSH1 0x1 PUSH2 0xEBA JUMP JUMPDEST PUSH2 0x2E4 JUMPI PUSH1 0x40 MLOAD PUSH3 0x461BCD PUSH1 0xE5 SHL DUP2 MSTORE PUSH1 0x4 ADD PUSH2 0x2DB SWAP1 PUSH2 0x4A72 JUMP JUMPDEST PUSH1 0x40 MLOAD DUP1 SWAP2 SUB SWAP1 REVERT JUMPDEST PUSH2 0x140 DUP2 ADD MLOAD DUP1 MLOAD PUSH2 0xFFFF AND ISZERO ISZERO DUP1 PUSH2 0x304 JUMPI POP PUSH1 0x20 DUP2 ADD MLOAD PUSH2 0xFFFF AND ISZERO ISZERO JUMPDEST PUSH2 0x30D JUMPI PUSH1 0x0 DUP1 REVERT JUMPDEST PUSH2 0x315 PUSH2 0x416B JUMP JUMPDEST PUSH2 0x320 DUP4 PUSH1 0x2 PUSH2 0xEBA JUMP JUMPDEST DUP1 ISZERO PUSH2 0x335 JUMPI POP PUSH1 0x1 PUSH1 0x1 PUSH1 0xA0 SHL SUB DUP10 AND CALLER EQ ISZERO JUMPDEST ISZERO PUSH2 0x3FA JUMPI PUSH1 0x0 PUSH2 0x344 PUSH2 0xECF JUMP JUMPDEST PUSH1 0x1 PUSH1 0x1 PUSH1 0xA0 SHL SUB DUP1 DUP13 AND PUSH1 0x0 SWAP1 DUP2 MSTORE PUSH1 0x20 SWAP3 DUP4 MSTORE PUSH1 0x40 DUP1 DUP3 KECCAK256 DUP9 MLOAD SWAP1 SWAP4 AND DUP3 MSTORE SWAP2 SWAP1 SWAP3 MSTORE SWAP1 KECCAK256 DUP1 SLOAD SWAP1 SWAP2 POP PUSH4 0xFFFFFFFF AND DUP1 ISZERO PUSH2 0x3F7 JUMPI DUP10 DUP2 LT PUSH2 0x388 JUMPI PUSH1 0x0 DUP1 REVERT JUMPDEST PUSH2 0x3C5 DUP6 DUP13 DUP7 PUSH1 0x0 PUSH1 0x20 MUL ADD MLOAD DUP6 SLOAD DUP6 SWAP1 PUSH1 0x1 PUSH1 0x20 SHL SWAP1 DIV PUSH1 0x1 PUSH1 0x1 PUSH1 0x50 SHL SUB AND DUP13 PUSH1 0x0 JUMPDEST PUSH1 0x20 MUL ADD PUSH1 0x20 DUP2 ADD SWAP1 PUSH2 0x3C0 SWAP2 SWAP1 PUSH2 0x4720 JUMP JUMPDEST PUSH2 0xEDC JUMP JUMPDEST DUP4 MSTORE PUSH1 0x20 DUP5 ADD MLOAD DUP3 SLOAD PUSH2 0x3F1 SWAP2 DUP8 SWAP2 DUP15 SWAP2 SWAP1 DUP6 SWAP1 PUSH1 0x1 PUSH1 0x70 SHL SWAP1 DIV PUSH1 0x1 PUSH1 0x1 PUSH1 0x50 SHL SUB AND DUP13 PUSH1 0x1 PUSH2 0x3AD JUMP JUMPDEST PUSH1 0x20 DUP5 ADD MSTORE JUMPDEST POP POP JUMPDEST DUP2 MLOAD DUP2 MLOAD PUSH2 0x427 SWAP2 DUP6 SWAP2 DUP13 SWAP2 SWAP1 DUP13 SWAP1 DUP13 CALLDATALOAD DUP13 PUSH1 0x0 JUMPDEST PUSH1 0x20 MUL ADD PUSH1 0x20 DUP2 ADD SWAP1 PUSH2 0x422 SWAP2 SWAP1 PUSH2 0x4720 JUMP JUMPDEST PUSH2 0xF11 JUMP JUMPDEST DUP5 MSTORE PUSH1 0x20 DUP3 DUP2 ADD MLOAD DUP3 DUP3 ADD MLOAD PUSH2 0x44B SWAP3 DUP7 SWAP3 DUP14 SWAP3 SWAP1 SWAP2 DUP14 SWAP2 SWAP1 DUP14 ADD CALLDATALOAD DUP13 PUSH1 0x1 PUSH2 0x40F JUMP JUMPDEST PUSH1 0x20 DUP6 ADD MSTORE POP SWAP2 SWAP8 SWAP7 POP POP POP POP POP POP POP JUMP JUMPDEST PUSH1 0x2 SLOAD PUSH1 0x1 PUSH1 0x1 PUSH1 0xA0 SHL SUB AND DUP2 JUMP JUMPDEST PUSH1 0x0 SLOAD PUSH1 0x1 PUSH1 0x20 SHL SWAP1 DIV PUSH1 0x1 PUSH1 0x1 PUSH1 0xA0 SHL SUB AND CALLER EQ PUSH2 0x49D JUMPI PUSH1 0x40 MLOAD PUSH3 0x461BCD PUSH1 0xE5 SHL DUP2 MSTORE PUSH1 0x4 ADD PUSH2 0x2DB SWAP1 PUSH2 0x4CAB JUMP JUMPDEST PUSH1 0x0 PUSH2 0x4A8 DUP5 PUSH2 0xE8B JUMP JUMPDEST SWAP1 POP PUSH1 0x0 PUSH2 0x4B9 DUP5 PUSH2 0xFFFF AND PUSH2 0xF8B JUMP JUMPDEST SWAP1 POP PUSH1 0x0 PUSH2 0x4CA DUP6 PUSH2 0xFFFF AND PUSH2 0xFA3 JUMP JUMPDEST SWAP1 POP DUP2 PUSH1 0x20 ADD MLOAD ISZERO DUP1 ISZERO PUSH2 0x4E0 JUMPI POP DUP1 PUSH1 0x20 ADD MLOAD ISZERO JUMPDEST PUSH2 0x4E9 JUMPI PUSH1 0x0 DUP1 REVERT JUMPDEST PUSH2 0x140 DUP4 ADD MLOAD MLOAD PUSH2 0xFFFF DUP7 DUP2 AND SWAP2 AND EQ DUP1 PUSH2 0x513 JUMPI POP PUSH2 0x140 DUP4 ADD MLOAD PUSH1 0x20 ADD MLOAD PUSH2 0xFFFF DUP7 DUP2 AND SWAP2 AND EQ JUMPDEST PUSH2 0x52F JUMPI PUSH1 0x40 MLOAD PUSH3 0x461BCD PUSH1 0xE5 SHL DUP2 MSTORE PUSH1 0x4 ADD PUSH2 0x2DB SWAP1 PUSH2 0x4C81 JUMP JUMPDEST PUSH2 0x53A DUP7 DUP7 DUP7 PUSH2 0xFB6 JUMP JUMPDEST DUP5 PUSH2 0xFFFF AND DUP7 PUSH1 0x1 PUSH1 0x1 PUSH1 0xA0 SHL SUB AND PUSH32 0x8F868F60E49B80B48EE5DE8B7BC703CFC4B5C826A05D3EA1B00CF4159C155A90 DUP7 PUSH1 0x40 MLOAD PUSH2 0x578 SWAP2 SWAP1 PUSH2 0x4EDA JUMP JUMPDEST PUSH1 0x40 MLOAD DUP1 SWAP2 SUB SWAP1 LOG3 POP POP POP POP POP POP JUMP JUMPDEST PUSH1 0x2 PUSH1 0xA SLOAD EQ ISZERO PUSH2 0x5AB JUMPI PUSH1 0x40 MLOAD PUSH3 0x461BCD PUSH1 0xE5 SHL DUP2 MSTORE PUSH1 0x4 ADD PUSH2 0x2DB SWAP1 PUSH2 0x4D17 JUMP JUMPDEST PUSH1 0x2 PUSH1 0xA SSTORE PUSH1 0x0 PUSH2 0x5BB DUP4 PUSH2 0xE8B JUMP JUMPDEST SWAP1 POP PUSH2 0x5C9 DUP2 CALLER PUSH1 0x40 PUSH2 0x100A JUMP JUMPDEST PUSH1 0x0 PUSH2 0x5D5 DUP5 DUP5 PUSH2 0x1074 JUMP JUMPDEST SWAP1 POP TIMESTAMP DUP4 GT ISZERO DUP1 ISZERO PUSH2 0x5E9 JUMPI POP PUSH1 0x40 DUP2 ADD MLOAD ISZERO JUMPDEST PUSH2 0x605 JUMPI PUSH1 0x40 MLOAD PUSH3 0x461BCD PUSH1 0xE5 SHL DUP2 MSTORE PUSH1 0x4 ADD PUSH2 0x2DB SWAP1 PUSH2 0x4C04 JUMP JUMPDEST PUSH1 0x0 PUSH2 0x61A DUP4 PUSH1 0x40 ADD MLOAD PUSH2 0xFFFF AND DUP6 TIMESTAMP PUSH2 0x110F JUMP JUMPDEST SWAP1 POP PUSH1 0x0 PUSH2 0x63D PUSH2 0x638 PUSH2 0x631 DUP6 PUSH1 0x20 ADD MLOAD PUSH2 0x127F JUMP JUMPDEST DUP5 SWAP1 PUSH2 0x128D JUMP JUMPDEST PUSH2 0x12CC JUMP JUMPDEST SWAP1 POP PUSH1 0x0 PUSH2 0x649 PUSH2 0x12DF JUMP JUMPDEST PUSH1 0x1 PUSH1 0x1 PUSH1 0xA0 SHL SUB DUP9 AND PUSH1 0x0 SWAP1 DUP2 MSTORE PUSH1 0x20 SWAP2 DUP3 MSTORE PUSH1 0x40 DUP1 DUP3 KECCAK256 DUP10 DUP4 MSTORE SWAP1 SWAP3 MSTORE KECCAK256 PUSH2 0x140 DUP7 ADD MLOAD MLOAD SWAP1 SWAP2 POP PUSH2 0xFFFF AND ISZERO PUSH2 0x6BC JUMPI PUSH2 0x140 DUP6 ADD MLOAD MLOAD PUSH2 0xFFFF AND PUSH1 0x0 SWAP1 DUP2 MSTORE PUSH1 0x20 DUP3 SWAP1 MSTORE PUSH1 0x40 SWAP1 KECCAK256 SLOAD PUSH1 0x1 PUSH1 0x1 PUSH1 0x50 SHL SUB AND ISZERO PUSH2 0x6BC JUMPI PUSH1 0x40 MLOAD PUSH3 0x461BCD PUSH1 0xE5 SHL DUP2 MSTORE PUSH1 0x4 ADD PUSH2 0x2DB SWAP1 PUSH2 0x4AF6 JUMP JUMPDEST PUSH2 0x140 DUP6 ADD MLOAD PUSH1 0x20 ADD MLOAD PUSH2 0xFFFF AND ISZERO PUSH2 0x713 JUMPI PUSH2 0x140 DUP6 ADD MLOAD PUSH1 0x20 SWAP1 DUP2 ADD MLOAD PUSH2 0xFFFF AND PUSH1 0x0 SWAP1 DUP2 MSTORE SWAP1 DUP3 SWAP1 MSTORE PUSH1 0x40 SWAP1 KECCAK256 SLOAD PUSH1 0x1 PUSH1 0x1 PUSH1 0x50 SHL SUB AND ISZERO PUSH2 0x713 JUMPI PUSH1 0x40 MLOAD PUSH3 0x461BCD PUSH1 0xE5 SHL DUP2 MSTORE PUSH1 0x4 ADD PUSH2 0x2DB SWAP1 PUSH2 0x4AF6 JUMP JUMPDEST DUP2 DUP5 PUSH1 0x80 ADD MLOAD LT ISZERO PUSH2 0x791 JUMPI PUSH1 0xA0 DUP5 ADD MLOAD ISZERO PUSH2 0x741 JUMPI PUSH1 0x40 MLOAD PUSH3 0x461BCD PUSH1 0xE5 SHL DUP2 MSTORE PUSH1 0x4 ADD PUSH2 0x2DB SWAP1 PUSH2 0x4A47 JUMP JUMPDEST PUSH1 0x0 PUSH2 0x752 DUP6 PUSH1 0x80 ADD MLOAD DUP5 SUB PUSH2 0x12EC JUMP JUMPDEST SWAP1 POP PUSH1 0x0 PUSH2 0x76D PUSH2 0x638 DUP9 PUSH1 0x0 ADD MLOAD DUP10 PUSH1 0x40 ADD MLOAD DUP6 DUP13 PUSH2 0x1302 JUMP JUMPDEST PUSH1 0x80 DUP8 ADD MLOAD SWAP1 SWAP2 POP PUSH2 0x77F SWAP1 DUP3 PUSH2 0x142A JUMP JUMPDEST PUSH1 0x80 DUP8 ADD MSTORE PUSH2 0x78E DUP7 DUP11 PUSH2 0x143C JUMP JUMPDEST POP POP JUMPDEST PUSH2 0x7AC DUP8 DUP7 PUSH1 0x40 ADD MLOAD PUSH2 0x7A7 DUP8 PUSH1 0x20 ADD MLOAD PUSH2 0x127F JUMP JUMPDEST PUSH2 0x15AB JUMP JUMPDEST POP PUSH2 0x7BA DUP5 DUP7 DUP6 DUP10 TIMESTAMP PUSH2 0x16B1 JUMP JUMPDEST POP POP PUSH1 0x1 PUSH1 0xA SSTORE POP POP POP POP POP JUMP JUMPDEST PUSH2 0x7D0 PUSH2 0x4189 JUMP JUMPDEST PUSH2 0x7DA DUP4 DUP4 PUSH2 0x1074 JUMP JUMPDEST SWAP4 SWAP3 POP POP POP JUMP JUMPDEST PUSH1 0x60 PUSH1 0x0 PUSH2 0x7EE CALLER PUSH2 0xE8B JUMP JUMPDEST SWAP1 POP PUSH2 0x7FB DUP2 PUSH1 0x1 PUSH2 0xEBA JUMP JUMPDEST PUSH2 0x817 JUMPI PUSH1 0x40 MLOAD PUSH3 0x461BCD PUSH1 0xE5 SHL DUP2 MSTORE PUSH1 0x4 ADD PUSH2 0x2DB SWAP1 PUSH2 0x4A72 JUMP JUMPDEST PUSH1 0x0 PUSH2 0x827 DUP3 DUP12 DUP12 DUP12 DUP12 DUP12 PUSH2 0x1877 JUMP JUMPDEST POP SWAP1 POP PUSH1 0x0 PUSH2 0x839 DUP11 PUSH2 0xFFFF AND PUSH2 0xF8B JUMP JUMPDEST SWAP1 POP PUSH1 0x0 DUP1 PUSH1 0x4 DUP4 PUSH1 0x60 ADD MLOAD PUSH1 0x5 DUP2 GT ISZERO PUSH2 0x850 JUMPI INVALID JUMPDEST EQ PUSH2 0x867 JUMPI PUSH2 0x862 DUP13 PUSH2 0xFFFF AND PUSH2 0xFA3 JUMP JUMPDEST PUSH2 0x869 JUMP JUMPDEST DUP3 JUMPDEST SWAP1 POP PUSH1 0x0 PUSH2 0x89A PUSH2 0x638 PUSH2 0x893 PUSH2 0x88E DUP9 DUP11 PUSH2 0x160 ADD MLOAD PUSH2 0x19FB SWAP1 SWAP2 SWAP1 PUSH4 0xFFFFFFFF AND JUMP JUMPDEST PUSH2 0x127F JUMP JUMPDEST DUP5 SWAP1 PUSH2 0x1A26 JUMP JUMPDEST SWAP1 POP PUSH1 0x0 PUSH2 0x8A8 DUP4 ADDRESS PUSH2 0x1A62 JUMP JUMPDEST DUP4 MLOAD PUSH1 0x40 MLOAD PUSH4 0x7EFBE0E7 PUSH1 0xE1 SHL DUP2 MSTORE SWAP2 SWAP3 POP CALLER SWAP2 PUSH4 0xFDF7C1CE SWAP2 PUSH2 0x8D4 SWAP2 DUP7 SWAP1 DUP16 SWAP1 DUP16 SWAP1 PUSH1 0x4 ADD PUSH2 0x4895 JUMP JUMPDEST PUSH1 0x0 PUSH1 0x40 MLOAD DUP1 DUP4 SUB DUP2 PUSH1 0x0 DUP8 DUP1 EXTCODESIZE ISZERO DUP1 ISZERO PUSH2 0x8EE JUMPI PUSH1 0x0 DUP1 REVERT JUMPDEST POP GAS CALL ISZERO DUP1 ISZERO PUSH2 0x902 JUMPI RETURNDATASIZE PUSH1 0x0 DUP1 RETURNDATACOPY RETURNDATASIZE PUSH1 0x0 REVERT JUMPDEST POP POP POP POP PUSH1 0x40 MLOAD RETURNDATASIZE PUSH1 0x0 DUP3 RETURNDATACOPY PUSH1 0x1F RETURNDATASIZE SWAP1 DUP2 ADD PUSH1 0x1F NOT AND DUP3 ADD PUSH1 0x40 MSTORE PUSH2 0x92A SWAP2 SWAP1 DUP2 ADD SWAP1 PUSH2 0x460E JUMP JUMPDEST SWAP8 POP PUSH1 0x0 PUSH2 0x938 DUP5 ADDRESS PUSH2 0x1A62 JUMP JUMPDEST SWAP1 POP PUSH2 0x944 DUP2 DUP4 PUSH2 0x1B0C JUMP JUMPDEST SWAP5 POP DUP3 DUP6 LT ISZERO PUSH2 0x966 JUMPI PUSH1 0x40 MLOAD PUSH3 0x461BCD PUSH1 0xE5 SHL DUP2 MSTORE PUSH1 0x4 ADD PUSH2 0x2DB SWAP1 PUSH2 0x4D3F JUMP JUMPDEST POP PUSH1 0x4 SWAP3 POP PUSH2 0x973 SWAP2 POP POP JUMP JUMPDEST DUP3 PUSH1 0x60 ADD MLOAD PUSH1 0x5 DUP2 GT ISZERO PUSH2 0x983 JUMPI INVALID JUMPDEST EQ PUSH2 0x995 JUMPI PUSH2 0x993 DUP3 DUP13 DUP4 PUSH2 0x1B21 JUMP JUMPDEST POP JUMPDEST POP POP POP POP SWAP8 SWAP7 POP POP POP POP POP POP POP JUMP JUMPDEST PUSH1 0x0 SLOAD PUSH1 0x1 PUSH1 0x20 SHL SWAP1 DIV PUSH1 0x1 PUSH1 0x1 PUSH1 0xA0 SHL SUB AND CALLER EQ PUSH2 0x9D5 JUMPI PUSH1 0x40 MLOAD PUSH3 0x461BCD PUSH1 0xE5 SHL DUP2 MSTORE PUSH1 0x4 ADD PUSH2 0x2DB SWAP1 PUSH2 0x4CAB JUMP JUMPDEST PUSH2 0x9DF DUP3 DUP3 PUSH2 0x1C08 JUMP JUMPDEST DUP2 PUSH1 0x1 PUSH1 0x1 PUSH1 0xA0 SHL SUB AND PUSH32 0x7C51C6AA77346C54CB051D9E792F9B7BDE5C28A9B57E6FB2D2DD727B38438CA9 DUP3 PUSH1 0x40 MLOAD PUSH2 0xA18 SWAP2 SWAP1 PUSH2 0x493D JUMP JUMPDEST PUSH1 0x40 MLOAD DUP1 SWAP2 SUB SWAP1 LOG2 POP POP JUMP JUMPDEST PUSH1 0x0 DUP1 PUSH1 0x0 PUSH2 0xA31 PUSH2 0x1C68 JUMP JUMPDEST PUSH1 0x1 PUSH1 0x1 PUSH1 0xA0 SHL SUB SWAP1 SWAP6 AND PUSH1 0x0 SWAP1 DUP2 MSTORE PUSH1 0x20 SWAP6 DUP7 MSTORE PUSH1 0x40 DUP1 DUP3 KECCAK256 PUSH2 0xFFFF SWAP1 SWAP7 AND DUP3 MSTORE SWAP5 SWAP1 SWAP6 MSTORE POP POP POP SWAP1 KECCAK256 SLOAD PUSH1 0x1 PUSH1 0x1 PUSH1 0x50 SHL SUB PUSH1 0x1 PUSH1 0x50 SHL DUP3 DIV DUP2 AND SWAP3 SWAP2 AND SWAP1 JUMP JUMPDEST PUSH1 0x0 DUP1 PUSH1 0x0 PUSH2 0xA82 DUP6 PUSH2 0x1C75 JUMP JUMPDEST SWAP1 POP PUSH1 0x0 PUSH2 0xA94 DUP3 PUSH1 0x0 ADD MLOAD DUP7 PUSH2 0x1074 JUMP JUMPDEST SWAP1 POP PUSH2 0xAA1 DUP3 DUP3 DUP8 PUSH2 0x1C99 JUMP JUMPDEST SWAP4 POP SWAP4 POP POP POP JUMPDEST SWAP3 POP SWAP3 SWAP1 POP JUMP JUMPDEST PUSH1 0x1 SLOAD PUSH1 0x1 PUSH1 0x1 PUSH1 0xA0 SHL SUB AND DUP2 JUMP JUMPDEST PUSH1 0x0 SLOAD PUSH1 0x1 PUSH1 0x20 SHL SWAP1 DIV PUSH1 0x1 PUSH1 0x1 PUSH1 0xA0 SHL SUB AND DUP2 JUMP JUMPDEST PUSH1 0x0 DUP1 PUSH1 0x0 PUSH2 0xAE1 PUSH2 0x12DF JUMP JUMPDEST PUSH1 0x1 PUSH1 0x1 PUSH1 0xA0 SHL SUB SWAP1 SWAP7 AND PUSH1 0x0 SWAP1 DUP2 MSTORE PUSH1 0x20 SWAP7 DUP8 MSTORE PUSH1 0x40 DUP1 DUP3 KECCAK256 SWAP6 DUP3 MSTORE SWAP5 DUP8 MSTORE DUP5 DUP2 KECCAK256 PUSH2 0xFFFF SWAP1 SWAP7 AND DUP2 MSTORE SWAP5 SWAP1 SWAP6 MSTORE POP POP SWAP1 KECCAK256 SLOAD PUSH1 0x1 PUSH1 0x1 PUSH1 0x50 SHL SUB DUP1 DUP3 AND SWAP4 PUSH1 0x1 PUSH1 0x50 SHL SWAP1 SWAP3 DIV AND SWAP2 POP JUMP JUMPDEST PUSH1 0x0 SLOAD PUSH1 0x1 PUSH1 0x20 SHL SWAP1 DIV PUSH1 0x1 PUSH1 0x1 PUSH1 0xA0 SHL SUB AND CALLER EQ PUSH2 0xB5F JUMPI PUSH1 0x40 MLOAD PUSH3 0x461BCD PUSH1 0xE5 SHL DUP2 MSTORE PUSH1 0x4 ADD PUSH2 0x2DB SWAP1 PUSH2 0x4CAB JUMP JUMPDEST PUSH2 0xB69 DUP4 DUP4 PUSH2 0x1D52 JUMP JUMPDEST PUSH2 0xB83 DUP4 PUSH2 0xB7D PUSH1 0x40 DUP6 ADD PUSH1 0x20 DUP7 ADD PUSH2 0x46B3 JUMP JUMPDEST DUP4 PUSH2 0xFB6 JUMP JUMPDEST PUSH1 0x0 PUSH1 0x1 DUP1 PUSH2 0xB95 PUSH1 0x20 DUP7 ADD DUP7 PUSH2 0x46B3 JUMP JUMPDEST AND PUSH2 0xFFFF AND EQ SWAP1 POP DUP4 PUSH1 0x1 PUSH1 0x1 PUSH1 0xA0 SHL SUB AND PUSH32 0xB441D7CA09ABC712B4504256717707CE40E8D43895266B46ABF9CD58619C07DC DUP3 DUP5 PUSH1 0x40 MLOAD PUSH2 0xBD8 SWAP3 SWAP2 SWAP1 PUSH2 0x4948 JUMP JUMPDEST PUSH1 0x40 MLOAD DUP1 SWAP2 SUB SWAP1 LOG2 POP POP POP POP JUMP JUMPDEST PUSH20 0x0 SWAP1 JUMP JUMPDEST PUSH1 0x2 PUSH1 0xA SLOAD EQ ISZERO PUSH2 0xC21 JUMPI PUSH1 0x40 MLOAD PUSH3 0x461BCD PUSH1 0xE5 SHL DUP2 MSTORE PUSH1 0x4 ADD PUSH2 0x2DB SWAP1 PUSH2 0x4D17 JUMP JUMPDEST PUSH1 0x2 PUSH1 0xA SSTORE PUSH1 0x0 PUSH2 0xC31 CALLER PUSH2 0xE8B JUMP JUMPDEST SWAP1 POP PUSH2 0xC3E DUP2 PUSH1 0x1 PUSH2 0xEBA JUMP JUMPDEST PUSH2 0xC5A JUMPI PUSH1 0x40 MLOAD PUSH3 0x461BCD PUSH1 0xE5 SHL DUP2 MSTORE PUSH1 0x4 ADD PUSH2 0x2DB SWAP1 PUSH2 0x4A72 JUMP JUMPDEST PUSH2 0xC65 DUP2 PUSH1 0x80 PUSH2 0xEBA JUMP JUMPDEST ISZERO PUSH2 0xC70 JUMPI PUSH1 0x1 PUSH1 0xA SSTORE JUMPDEST PUSH1 0x0 PUSH2 0xC7C CALLER DUP8 PUSH2 0x1074 JUMP JUMPDEST SWAP1 POP PUSH1 0x0 PUSH2 0xC9E DUP4 PUSH1 0x0 ADD MLOAD PUSH2 0xC91 DUP9 PUSH2 0x12EC JUMP JUMPDEST DUP6 SWAP2 SWAP1 DUP11 PUSH1 0x0 DUP11 DUP11 PUSH2 0x1F57 JUMP JUMPDEST PUSH1 0x80 DUP4 ADD MLOAD SWAP1 SWAP2 POP PUSH2 0xCB0 SWAP1 DUP8 PUSH2 0x1B0C JUMP JUMPDEST PUSH1 0x80 DUP4 ADD MSTORE PUSH1 0xA0 DUP3 ADD MLOAD PUSH2 0xCC4 SWAP1 DUP3 PUSH2 0x142A JUMP JUMPDEST PUSH1 0xA0 DUP4 ADD MSTORE PUSH2 0xCD3 DUP3 CALLER PUSH2 0x143C JUMP JUMPDEST PUSH1 0x0 PUSH2 0xCF6 DUP4 CALLER DUP6 PUSH1 0x60 ADD MLOAD DUP7 PUSH1 0x20 ADD MLOAD DUP9 PUSH2 0x2000 SWAP1 SWAP5 SWAP4 SWAP3 SWAP2 SWAP1 PUSH4 0xFFFFFFFF AND JUMP JUMPDEST POP SWAP1 POP DUP1 DUP5 PUSH1 0xA0 ADD MLOAD SGT ISZERO PUSH2 0xD1D JUMPI PUSH1 0x40 MLOAD PUSH3 0x461BCD PUSH1 0xE5 SHL DUP2 MSTORE PUSH1 0x4 ADD PUSH2 0x2DB SWAP1 PUSH2 0x4CE0 JUMP JUMPDEST DUP8 CALLER PUSH1 0x1 PUSH1 0x1 PUSH1 0xA0 SHL SUB AND PUSH32 0xBBA43506B1F3723ADD796BF603ADDE56BC018392A95775B9F76C31213B4161BB DUP10 DUP6 PUSH1 0x40 MLOAD PUSH2 0xD59 SWAP3 SWAP2 SWAP1 PUSH2 0x499D JUMP JUMPDEST PUSH1 0x40 MLOAD DUP1 SWAP2 SUB SWAP1 LOG3 POP POP PUSH1 0x1 PUSH1 0xA SSTORE POP POP POP POP POP POP JUMP JUMPDEST PUSH1 0x0 SLOAD PUSH1 0x1 PUSH1 0x20 SHL SWAP1 DIV PUSH1 0x1 PUSH1 0x1 PUSH1 0xA0 SHL SUB AND CALLER EQ PUSH2 0xDA1 JUMPI PUSH1 0x40 MLOAD PUSH3 0x461BCD PUSH1 0xE5 SHL DUP2 MSTORE PUSH1 0x4 ADD PUSH2 0x2DB SWAP1 PUSH2 0x4CAB JUMP JUMPDEST PUSH1 0x0 PUSH2 0xDAC DUP8 PUSH2 0xE8B JUMP JUMPDEST SWAP1 POP PUSH2 0xDBD DUP8 DUP3 PUSH1 0x40 ADD MLOAD DUP9 PUSH2 0xFB6 JUMP JUMPDEST PUSH2 0xDCA DUP2 DUP7 DUP7 DUP7 DUP7 PUSH2 0x2068 JUMP JUMPDEST POP POP PUSH1 0x1 PUSH1 0x1 PUSH1 0xA0 SHL SUB DUP8 AND PUSH32 0xB441D7CA09ABC712B4504256717707CE40E8D43895266B46ABF9CD58619C07DC PUSH2 0xE02 DUP4 PUSH1 0x1 PUSH2 0xEBA JUMP JUMPDEST DUP9 PUSH1 0x40 MLOAD PUSH2 0xE11 SWAP3 SWAP2 SWAP1 PUSH2 0x4948 JUMP JUMPDEST PUSH1 0x40 MLOAD DUP1 SWAP2 SUB SWAP1 LOG2 POP POP POP POP POP POP POP JUMP JUMPDEST PUSH2 0xE2A PUSH2 0x41C8 JUMP JUMPDEST PUSH2 0xE33 DUP3 PUSH2 0x1C75 JUMP JUMPDEST SWAP3 SWAP2 POP POP JUMP JUMPDEST PUSH1 0x0 DUP1 PUSH1 0x0 PUSH2 0xE47 CALLER PUSH2 0xE8B JUMP JUMPDEST SWAP1 POP PUSH2 0xE54 DUP2 PUSH1 0x1 PUSH2 0xEBA JUMP JUMPDEST PUSH2 0xE70 JUMPI PUSH1 0x40 MLOAD PUSH3 0x461BCD PUSH1 0xE5 SHL DUP2 MSTORE PUSH1 0x4 ADD PUSH2 0x2DB SWAP1 PUSH2 0x4A72 JUMP JUMPDEST PUSH2 0xE7D DUP2 DUP9 DUP9 DUP9 DUP9 PUSH2 0x2068 JUMP JUMPDEST SWAP3 POP SWAP3 POP POP SWAP5 POP SWAP5 SWAP3 POP POP POP JUMP JUMPDEST PUSH2 0xE93 PUSH2 0x41C8 JUMP JUMPDEST PUSH2 0xE9C DUP3 PUSH2 0x217C JUMP JUMPDEST SWAP1 POP PUSH2 0xEAF DUP2 PUSH1 0x40 ADD MLOAD PUSH2 0xFFFF AND PUSH2 0x22F9 JUMP JUMPDEST PUSH2 0x160 DUP3 ADD MSTORE SWAP2 SWAP1 POP JUMP JUMPDEST PUSH1 0x20 SWAP2 SWAP1 SWAP2 ADD MLOAD DUP2 AND PUSH2 0xFFFF SWAP1 DUP2 AND SWAP2 AND EQ SWAP1 JUMP JUMPDEST PUSH1 0x0 DUP1 PUSH2 0xE33 PUSH1 0x1A PUSH2 0x2345 JUMP JUMPDEST PUSH1 0x0 PUSH2 0xFFFF DUP6 AND ISZERO DUP1 ISZERO SWAP1 PUSH2 0xEF0 JUMPI POP DUP3 ISZERO ISZERO JUMPDEST ISZERO PUSH2 0xF07 JUMPI PUSH2 0xF03 DUP8 DUP8 DUP8 DUP8 DUP8 DUP8 PUSH2 0x1877 JUMP JUMPDEST POP SWAP1 POP JUMPDEST SWAP7 SWAP6 POP POP POP POP POP POP JUMP JUMPDEST PUSH1 0x0 PUSH2 0xFFFF DUP7 AND ISZERO DUP1 PUSH2 0xF22 JUMPI POP DUP3 ISZERO JUMPDEST ISZERO PUSH2 0xF2F JUMPI POP PUSH1 0x0 PUSH2 0xF80 JUMP JUMPDEST PUSH1 0x0 PUSH2 0xF3F DUP10 DUP10 DUP10 DUP10 DUP9 DUP9 PUSH2 0x235E JUMP JUMPDEST POP SWAP1 POP PUSH2 0xF4C DUP2 DUP7 PUSH2 0x24CE JUMP JUMPDEST SWAP1 POP PUSH1 0x0 DUP2 SLT ISZERO PUSH2 0xF6F JUMPI PUSH1 0x40 MLOAD PUSH3 0x461BCD PUSH1 0xE5 SHL DUP2 MSTORE PUSH1 0x4 ADD PUSH2 0x2DB SWAP1 PUSH2 0x4BCD JUMP JUMPDEST DUP9 MLOAD PUSH2 0xF7C SWAP1 DUP9 DUP4 PUSH2 0x24E4 JUMP JUMPDEST SWAP2 POP POP JUMPDEST SWAP8 SWAP7 POP POP POP POP POP POP POP JUMP JUMPDEST PUSH2 0xF93 PUSH2 0x4245 JUMP JUMPDEST PUSH2 0xE33 DUP3 PUSH1 0x0 PUSH2 0x258C JUMP JUMPDEST SWAP2 SWAP1 POP JUMP JUMPDEST PUSH2 0xFAB PUSH2 0x4245 JUMP JUMPDEST PUSH2 0xE33 DUP3 PUSH1 0x1 PUSH2 0x258C JUMP JUMPDEST PUSH1 0x0 PUSH2 0xFC0 PUSH2 0x1C68 JUMP JUMPDEST PUSH1 0x1 PUSH1 0x1 PUSH1 0xA0 SHL SUB SWAP1 SWAP5 AND PUSH1 0x0 SWAP1 DUP2 MSTORE PUSH1 0x20 SWAP5 DUP6 MSTORE PUSH1 0x40 DUP1 DUP3 KECCAK256 PUSH2 0xFFFF SWAP1 SWAP6 AND DUP3 MSTORE SWAP4 SWAP1 SWAP5 MSTORE POP SWAP2 KECCAK256 DUP1 SLOAD PUSH1 0x1 PUSH1 0x1 PUSH1 0x50 SHL SUB SWAP1 SWAP3 AND PUSH1 0x1 PUSH1 0x1 PUSH1 0x50 SHL SUB NOT SWAP1 SWAP3 AND SWAP2 SWAP1 SWAP2 OR SWAP1 SSTORE JUMP JUMPDEST PUSH2 0x1014 DUP4 DUP3 PUSH2 0xEBA JUMP JUMPDEST ISZERO PUSH2 0x1047 JUMPI DUP3 MLOAD PUSH1 0x1 PUSH1 0x1 PUSH1 0xA0 SHL SUB AND CALLER EQ PUSH2 0x1042 JUMPI PUSH1 0x40 MLOAD PUSH3 0x461BCD PUSH1 0xE5 SHL DUP2 MSTORE PUSH1 0x4 ADD PUSH2 0x2DB SWAP1 PUSH2 0x4A92 JUMP JUMPDEST PUSH2 0x106F JUMP JUMPDEST PUSH1 0x1 PUSH1 0x1 PUSH1 0xA0 SHL SUB DUP3 AND CALLER EQ PUSH2 0x106F JUMPI PUSH1 0x40 MLOAD PUSH3 0x461BCD PUSH1 0xE5 SHL DUP2 MSTORE PUSH1 0x4 ADD PUSH2 0x2DB SWAP1 PUSH2 0x4A92 JUMP JUMPDEST POP POP POP JUMP JUMPDEST PUSH2 0x107C PUSH2 0x4189 JUMP JUMPDEST PUSH1 0x0 PUSH2 0x1086 PUSH2 0x263A JUMP JUMPDEST PUSH1 0x1 PUSH1 0x1 PUSH1 0xA0 SHL SUB SWAP1 SWAP5 AND PUSH1 0x0 SWAP1 DUP2 MSTORE PUSH1 0x20 SWAP5 DUP6 MSTORE PUSH1 0x40 DUP1 DUP3 KECCAK256 DUP6 DUP4 MSTORE DUP7 MSTORE DUP1 DUP3 KECCAK256 SWAP5 DUP5 MSTORE DUP5 SLOAD PUSH1 0x1 PUSH1 0x1 PUSH1 0x50 SHL SUB DUP1 DUP3 AND SWAP1 SWAP4 SUB SWAP7 DUP6 ADD SWAP7 SWAP1 SWAP7 MSTORE PUSH1 0xFF PUSH1 0x1 PUSH1 0xF0 SHL DUP8 DIV AND ISZERO ISZERO SWAP1 DUP5 ADD MSTORE PUSH1 0x1 PUSH1 0x50 SHL DUP1 DUP7 DIV DUP3 AND PUSH1 0x80 DUP6 ADD MSTORE PUSH1 0x1 SWAP1 SWAP5 ADD SLOAD DUP1 DUP3 AND PUSH1 0xA0 DUP6 ADD MSTORE PUSH1 0x1 PUSH1 0xA0 SHL SWAP1 SWAP6 DIV AND PUSH1 0x60 DUP4 ADD MSTORE POP SWAP2 DIV PUSH1 0x9 SWAP1 DUP2 SIGNEXTEND SWAP1 SIGNEXTEND PUSH1 0xC0 DUP3 ADD MSTORE SWAP1 JUMP JUMPDEST PUSH2 0x1117 PUSH2 0x4274 JUMP JUMPDEST PUSH1 0x0 DUP1 PUSH2 0x1124 DUP7 DUP7 PUSH2 0x2647 JUMP JUMPDEST SWAP2 POP SWAP2 POP DUP2 PUSH1 0x0 EQ ISZERO PUSH2 0x1254 JUMPI PUSH1 0x0 PUSH2 0x113C DUP8 PUSH2 0x2690 JUMP JUMPDEST SWAP2 SWAP5 POP SWAP1 SWAP3 POP SWAP1 POP PUSH1 0x1 PUSH1 0x1 PUSH1 0xA0 SHL SUB DUP2 AND ISZERO PUSH2 0x1252 JUMPI PUSH1 0x0 PUSH2 0x115D PUSH2 0x2753 JUMP JUMPDEST SWAP1 POP DUP6 PUSH1 0x0 LT DUP1 ISZERO PUSH2 0x116F JUMPI POP DUP6 DUP8 GT ISZERO JUMPDEST DUP1 ISZERO PUSH2 0x1180 JUMPI POP PUSH5 0xFFFFFFFFFF DUP7 GT ISZERO JUMPDEST PUSH2 0x1189 JUMPI PUSH1 0x0 DUP1 REVERT JUMPDEST DUP4 PUSH1 0x0 SLT DUP1 ISZERO PUSH2 0x11A0 JUMPI POP PUSH1 0x1 PUSH1 0x1 PUSH1 0x80 SHL SUB DUP5 SGT ISZERO JUMPDEST PUSH2 0x11A9 JUMPI PUSH1 0x0 DUP1 REVERT JUMPDEST PUSH1 0x0 DUP9 DUP2 MSTORE PUSH1 0x20 DUP3 DUP2 MSTORE PUSH1 0x40 DUP1 DUP4 KECCAK256 DUP11 DUP5 MSTORE SWAP1 SWAP2 MSTORE SWAP1 DUP2 SWAP1 KECCAK256 DUP1 SLOAD PUSH5 0xFFFFFFFFFF NOT AND PUSH5 0xFFFFFFFFFF DUP10 AND OR PUSH21 0xFFFFFFFFFFFFFFFFFFFFFFFFFFFFFFFF0000000000 NOT AND PUSH6 0x10000000000 PUSH1 0x1 PUSH1 0x1 PUSH1 0x80 SHL SUB DUP9 AND MUL OR PUSH1 0xFF PUSH1 0xA8 SHL NOT AND PUSH1 0x1 PUSH1 0xA8 SHL PUSH1 0xFF DUP8 AND MUL OR DUP2 SSTORE SWAP1 MLOAD DUP9 SWAP1 DUP11 SWAP1 PUSH32 0xFDFA6885701E2F1F42E4187B9231CF81C1FE23671EF64FA46F34DDB56C1DC18 SWAP1 PUSH2 0x1247 SWAP1 DUP10 SWAP1 PUSH2 0x4E9C JUMP JUMPDEST PUSH1 0x40 MLOAD DUP1 SWAP2 SUB SWAP1 LOG3 POP POP JUMPDEST POP JUMPDEST PUSH1 0x40 DUP1 MLOAD PUSH1 0x60 DUP2 ADD DUP3 MSTORE PUSH1 0x0 DUP2 MSTORE PUSH1 0x20 DUP2 ADD SWAP4 SWAP1 SWAP4 MSTORE PUSH1 0xFF SWAP1 SWAP2 AND PUSH1 0xA EXP SWAP1 DUP3 ADD MSTORE SWAP1 POP SWAP4 SWAP3 POP POP POP JUMP JUMPDEST PUSH1 0x0 PUSH2 0xE33 PUSH1 0x0 NOT DUP4 PUSH2 0x2760 JUMP JUMPDEST PUSH1 0x0 DUP1 PUSH2 0x12C4 DUP5 PUSH1 0x20 ADD MLOAD PUSH2 0x12BE DUP7 PUSH1 0x40 ADD MLOAD PUSH2 0x12B8 PUSH5 0x2540BE400 DUP9 PUSH2 0x2760 SWAP1 SWAP2 SWAP1 PUSH4 0xFFFFFFFF AND JUMP JUMPDEST SWAP1 PUSH2 0x2760 JUMP JUMPDEST SWAP1 PUSH2 0x27AE JUMP JUMPDEST SWAP5 SWAP4 POP POP POP POP JUMP JUMPDEST PUSH1 0x0 DUP1 DUP3 SLT ISZERO PUSH2 0x12DB JUMPI PUSH1 0x0 DUP1 REVERT JUMPDEST POP SWAP1 JUMP JUMPDEST PUSH1 0x0 DUP1 PUSH2 0xE33 PUSH1 0x18 PUSH2 0x2345 JUMP JUMPDEST PUSH1 0x0 PUSH1 0x1 PUSH1 0x1 PUSH1 0xFF SHL SUB DUP3 GT ISZERO PUSH2 0x12DB JUMPI PUSH1 0x0 DUP1 REVERT JUMPDEST PUSH1 0x0 PUSH2 0x130F DUP6 PUSH1 0x0 PUSH2 0x1C08 JUMP JUMPDEST DUP5 PUSH1 0x1 PUSH1 0x1 PUSH1 0xA0 SHL SUB AND PUSH32 0x7C51C6AA77346C54CB051D9E792F9B7BDE5C28A9B57E6FB2D2DD727B38438CA9 PUSH1 0x0 PUSH1 0x40 MLOAD PUSH2 0x1349 SWAP2 SWAP1 PUSH2 0x493D JUMP JUMPDEST PUSH1 0x40 MLOAD DUP1 SWAP2 SUB SWAP1 LOG2 DUP2 DUP5 PUSH2 0xFFFF AND DUP7 PUSH1 0x1 PUSH1 0x1 PUSH1 0xA0 SHL SUB AND PUSH32 0x823B641D46550301006F807A26587634F15BD13749EFDC8859734377D5304A3B DUP7 PUSH1 0x40 MLOAD PUSH2 0x1390 SWAP2 SWAP1 PUSH2 0x4994 JUMP JUMPDEST PUSH1 0x40 MLOAD DUP1 SWAP2 SUB SWAP1 LOG4 PUSH1 0x0 PUSH2 0x13A9 PUSH1 0x0 DUP7 PUSH2 0xFFFF AND PUSH2 0x27DF JUMP JUMPDEST POP POP POP SWAP1 POP DUP1 DUP5 SGT PUSH2 0x13C9 JUMPI PUSH2 0x13C1 DUP6 DUP6 DUP4 SUB PUSH2 0x2888 JUMP JUMPDEST DUP4 SWAP2 POP PUSH2 0x1421 JUMP JUMPDEST PUSH2 0x13D4 DUP6 PUSH1 0x0 PUSH2 0x2888 JUMP JUMPDEST DUP3 DUP6 PUSH2 0xFFFF AND DUP8 PUSH1 0x1 PUSH1 0x1 PUSH1 0xA0 SHL SUB AND PUSH32 0x3A717B6924E3AD05B8C7609A2401472AF90869B52CC3C9CA69B50100B4BE6316 DUP5 DUP9 SUB PUSH1 0x40 MLOAD PUSH2 0x1415 SWAP2 SWAP1 PUSH2 0x4994 JUMP JUMPDEST PUSH1 0x40 MLOAD DUP1 SWAP2 SUB SWAP1 LOG4 DUP1 SWAP2 POP JUMPDEST POP SWAP5 SWAP4 POP POP POP POP JUMP JUMPDEST PUSH1 0x0 DUP3 DUP3 ADD DUP4 DUP2 LT ISZERO PUSH2 0x7DA JUMPI PUSH1 0x0 DUP1 REVERT JUMPDEST PUSH1 0x0 PUSH2 0x1446 PUSH2 0x263A JUMP JUMPDEST PUSH1 0x1 PUSH1 0x1 PUSH1 0xA0 SHL SUB DUP4 AND PUSH1 0x0 SWAP1 DUP2 MSTORE PUSH1 0x20 DUP3 DUP2 MSTORE PUSH1 0x40 DUP1 DUP4 KECCAK256 DUP8 MLOAD DUP5 MSTORE SWAP1 SWAP2 MSTORE SWAP1 DUP2 SWAP1 KECCAK256 SWAP1 DUP6 ADD MLOAD SWAP2 SWAP3 POP SWAP1 ISZERO PUSH2 0x147C JUMPI PUSH1 0x0 DUP1 REVERT JUMPDEST PUSH2 0x1494 PUSH2 0x148F PUSH2 0x638 DUP7 PUSH1 0x20 ADD MLOAD PUSH2 0x127F JUMP JUMPDEST PUSH2 0x28DF JUMP JUMPDEST DUP2 SLOAD PUSH1 0x1 PUSH1 0x1 PUSH1 0x50 SHL SUB NOT AND PUSH1 0x1 PUSH1 0x1 PUSH1 0x50 SHL SUB SWAP2 SWAP1 SWAP2 AND OR DUP2 SSTORE PUSH1 0x80 DUP5 ADD MLOAD PUSH2 0x14BD SWAP1 PUSH2 0x28DF JUMP JUMPDEST DUP2 SLOAD PUSH1 0x1 PUSH1 0x1 PUSH1 0x50 SHL SUB SWAP2 SWAP1 SWAP2 AND PUSH1 0x1 PUSH1 0x50 SHL MUL PUSH1 0x1 PUSH1 0x50 SHL PUSH1 0x1 PUSH1 0xA0 SHL SUB NOT SWAP1 SWAP2 AND OR DUP2 SSTORE PUSH1 0xA0 DUP5 ADD MLOAD PUSH2 0x14F1 SWAP1 PUSH2 0x28DF JUMP JUMPDEST PUSH1 0x1 DUP3 ADD DUP1 SLOAD PUSH1 0x1 PUSH1 0x1 PUSH1 0x50 SHL SUB NOT AND PUSH1 0x1 PUSH1 0x1 PUSH1 0x50 SHL SUB SWAP3 SWAP1 SWAP3 AND SWAP2 SWAP1 SWAP2 OR SWAP1 SSTORE PUSH1 0x60 DUP5 ADD MLOAD PUSH2 0x1521 SWAP1 PUSH2 0x28DF JUMP JUMPDEST DUP2 SLOAD PUSH1 0x1 PUSH1 0x1 PUSH1 0x50 SHL SUB SWAP2 SWAP1 SWAP2 AND PUSH1 0x1 PUSH1 0xA0 SHL MUL PUSH10 0xFFFFFFFFFFFFFFFFFFFF PUSH1 0xA0 SHL NOT SWAP1 SWAP2 AND OR DUP2 SSTORE DUP4 MLOAD PUSH1 0x20 DUP6 ADD MLOAD PUSH1 0x80 DUP7 ADD MLOAD PUSH1 0xA0 DUP8 ADD MLOAD PUSH1 0x60 DUP9 ADD MLOAD PUSH1 0x40 MLOAD PUSH1 0x1 PUSH1 0x1 PUSH1 0xA0 SHL SUB DUP10 AND SWAP5 PUSH32 0x3A0FDAECF7B5DA75A56077F5B1C8FBC88F9B08E9D0C4DB31EB34E25BC6700CDE SWAP5 PUSH2 0x159D SWAP5 SWAP2 SWAP4 SWAP1 SWAP3 PUSH2 0x49AB JUMP JUMPDEST PUSH1 0x40 MLOAD DUP1 SWAP2 SUB SWAP1 LOG3 POP POP POP POP JUMP JUMPDEST PUSH1 0x0 DUP1 PUSH2 0x15B6 PUSH2 0x1C68 JUMP JUMPDEST PUSH1 0x1 PUSH1 0x1 PUSH1 0xA0 SHL SUB DUP7 AND PUSH1 0x0 SWAP1 DUP2 MSTORE PUSH1 0x20 SWAP2 DUP3 MSTORE PUSH1 0x40 DUP1 DUP3 KECCAK256 PUSH2 0xFFFF DUP9 AND DUP4 MSTORE SWAP1 SWAP3 MSTORE KECCAK256 DUP1 SLOAD SWAP1 SWAP2 POP PUSH2 0x15F9 SWAP1 PUSH1 0x1 PUSH1 0x50 SHL SWAP1 DIV PUSH1 0x1 PUSH1 0x1 PUSH1 0x50 SHL SUB AND DUP5 PUSH2 0x28F5 JUMP JUMPDEST SWAP2 POP PUSH1 0x0 DUP4 SLT ISZERO PUSH2 0x162E JUMPI DUP1 SLOAD PUSH1 0x1 PUSH1 0x1 PUSH1 0x50 SHL SUB AND DUP3 SGT ISZERO PUSH2 0x162E JUMPI PUSH1 0x40 MLOAD PUSH3 0x461BCD PUSH1 0xE5 SHL DUP2 MSTORE PUSH1 0x4 ADD PUSH2 0x2DB SWAP1 PUSH2 0x4C2B JUMP JUMPDEST PUSH2 0x163A PUSH2 0x148F DUP4 PUSH2 0x12CC JUMP JUMPDEST DUP2 SLOAD PUSH1 0x1 PUSH1 0x1 PUSH1 0x50 SHL SUB SWAP2 SWAP1 SWAP2 AND PUSH1 0x1 PUSH1 0x50 SHL MUL PUSH1 0x1 PUSH1 0x50 SHL PUSH1 0x1 PUSH1 0xA0 SHL SUB NOT SWAP1 SWAP2 AND OR DUP2 SSTORE PUSH1 0x40 MLOAD PUSH2 0xFFFF DUP6 AND SWAP1 PUSH1 0x1 PUSH1 0x1 PUSH1 0xA0 SHL SUB DUP8 AND SWAP1 PUSH32 0x20478EF460E49D010960D4F3FFF35D8DAE385443ABFAC09035D6A2CCBCD834C4 SWAP1 PUSH2 0x16A1 SWAP1 DUP7 SWAP1 PUSH2 0x4994 JUMP JUMPDEST PUSH1 0x40 MLOAD DUP1 SWAP2 SUB SWAP1 LOG3 POP SWAP4 SWAP3 POP POP POP JUMP JUMPDEST PUSH1 0x0 PUSH2 0x16BB PUSH2 0x263A JUMP JUMPDEST DUP6 MLOAD PUSH1 0x1 PUSH1 0x1 PUSH1 0xA0 SHL SUB AND PUSH1 0x0 SWAP1 DUP2 MSTORE PUSH1 0x20 DUP3 DUP2 MSTORE PUSH1 0x40 DUP1 DUP4 KECCAK256 DUP8 DUP5 MSTORE SWAP1 SWAP2 MSTORE SWAP1 KECCAK256 DUP1 SLOAD SWAP2 SWAP3 POP SWAP1 PUSH1 0x1 PUSH1 0xF0 SHL SWAP1 DIV PUSH1 0xFF AND ISZERO PUSH2 0x16F7 JUMPI PUSH1 0x0 DUP1 REVERT JUMPDEST DUP3 DUP5 GT ISZERO PUSH2 0x1704 JUMPI PUSH1 0x0 DUP1 REVERT JUMPDEST PUSH1 0x40 DUP7 ADD MLOAD DUP7 MLOAD PUSH1 0x0 SWAP2 PUSH2 0x171E SWAP2 DUP1 PUSH4 0x5F5E100 DUP10 PUSH2 0x290B JUMP JUMPDEST DUP3 SLOAD PUSH1 0xFF PUSH1 0xF0 SHL NOT AND PUSH1 0x1 PUSH1 0xF0 SHL OR DUP4 SSTORE SWAP1 POP PUSH2 0x173A DUP2 PUSH2 0x29D2 JUMP JUMPDEST DUP3 PUSH1 0x1 ADD PUSH1 0xA PUSH2 0x100 EXP DUP2 SLOAD DUP2 PUSH1 0x1 PUSH1 0x1 PUSH1 0x50 SHL SUB MUL NOT AND SWAP1 DUP4 PUSH1 0x9 SIGNEXTEND PUSH1 0x1 PUSH1 0x1 PUSH1 0x50 SHL SUB AND MUL OR SWAP1 SSTORE POP PUSH1 0x0 PUSH2 0x176F PUSH2 0x2A02 JUMP JUMPDEST DUP9 MLOAD PUSH1 0x1 PUSH1 0x1 PUSH1 0xA0 SHL SUB AND PUSH1 0x0 SWAP1 DUP2 MSTORE PUSH1 0x20 SWAP2 DUP3 MSTORE PUSH1 0x40 DUP1 DUP3 KECCAK256 DUP10 DUP4 MSTORE DUP4 MSTORE SWAP1 KECCAK256 PUSH1 0x1 DUP6 ADD SLOAD DUP2 SLOAD PUSH1 0x1 PUSH1 0x1 PUSH1 0x50 SHL SUB NOT AND PUSH1 0x1 PUSH1 0x1 PUSH1 0x50 SHL SUB SWAP1 SWAP2 AND OR DUP2 SSTORE SWAP1 DUP11 ADD MLOAD SWAP1 SWAP2 POP PUSH2 0x17E1 SWAP1 PUSH2 0x17DC SWAP1 PUSH2 0x17C9 SWAP1 DUP11 SWAP1 PUSH2 0x128D JUMP JUMPDEST PUSH2 0x17D6 DUP13 PUSH1 0x80 ADD MLOAD PUSH2 0x12EC JUMP JUMPDEST SWAP1 PUSH2 0x24CE JUMP JUMPDEST PUSH2 0x29D2 JUMP JUMPDEST DUP2 SLOAD PUSH1 0x9 SWAP2 SWAP1 SWAP2 SIGNEXTEND PUSH1 0x1 PUSH1 0x1 PUSH1 0x50 SHL SUB AND PUSH1 0x1 PUSH1 0x50 SHL MUL PUSH1 0x1 PUSH1 0x50 SHL PUSH1 0x1 PUSH1 0xA0 SHL SUB NOT SWAP1 SWAP2 AND OR DUP2 SSTORE DUP9 MLOAD DUP9 MLOAD PUSH1 0x20 DUP12 ADD MLOAD PUSH1 0x80 DUP13 ADD MLOAD PUSH1 0xA0 DUP14 ADD MLOAD PUSH1 0x60 DUP15 ADD MLOAD PUSH1 0x40 MLOAD PUSH1 0x1 PUSH1 0x1 PUSH1 0xA0 SHL SUB SWAP1 SWAP6 AND SWAP5 PUSH32 0xE66A863186DBA5A66D19D3D91A66B76A7CBFDEFD0D8C29C662274B13FEBB166E SWAP5 PUSH2 0x1864 SWAP5 SWAP1 SWAP4 SWAP1 SWAP3 SWAP1 SWAP2 DUP11 SWAP1 PUSH2 0x49C6 JUMP JUMPDEST PUSH1 0x40 MLOAD DUP1 SWAP2 SUB SWAP1 LOG3 POP POP POP POP POP POP POP POP POP JUMP JUMPDEST PUSH1 0x0 DUP1 PUSH1 0x0 PUSH2 0x1884 PUSH2 0x12DF JUMP JUMPDEST DUP10 MLOAD PUSH1 0x1 PUSH1 0x1 PUSH1 0xA0 SHL SUB AND PUSH1 0x0 SWAP1 DUP2 MSTORE PUSH1 0x20 SWAP2 DUP3 MSTORE PUSH1 0x40 DUP1 DUP3 KECCAK256 DUP10 DUP4 MSTORE DUP4 MSTORE DUP1 DUP3 KECCAK256 PUSH2 0xFFFF DUP12 AND DUP4 MSTORE SWAP1 SWAP3 MSTORE KECCAK256 DUP1 SLOAD SWAP1 SWAP2 POP PUSH1 0x1 PUSH1 0x1 PUSH1 0x50 SHL SUB DUP1 DUP3 AND SWAP2 PUSH1 0x1 PUSH1 0x50 SHL SWAP1 DIV AND PUSH2 0x18E6 PUSH2 0x18E1 DUP3 PUSH2 0x18DB DUP11 DUP7 PUSH2 0x2A0F JUMP JUMPDEST SWAP1 PUSH2 0x2A36 JUMP JUMPDEST PUSH2 0x12EC JUMP JUMPDEST SWAP4 POP DUP11 PUSH1 0x0 ADD MLOAD PUSH1 0x1 PUSH1 0x1 PUSH1 0xA0 SHL SUB AND DUP11 PUSH1 0x1 PUSH1 0x1 PUSH1 0xA0 SHL SUB AND EQ PUSH2 0x1950 JUMPI PUSH2 0x1912 PUSH2 0x148F DUP3 DUP10 PUSH2 0x1B0C JUMP JUMPDEST DUP4 SLOAD PUSH1 0x1 PUSH1 0x1 PUSH1 0x50 SHL SUB SWAP2 SWAP1 SWAP2 AND PUSH1 0x1 PUSH1 0x50 SHL MUL PUSH1 0x1 PUSH1 0x50 SHL PUSH1 0x1 PUSH1 0xA0 SHL SUB NOT SWAP1 SWAP2 AND OR DUP4 SSTORE PUSH2 0x1950 DUP12 DUP12 DUP12 DUP12 PUSH2 0x194B PUSH2 0x88E DUP14 PUSH2 0x12EC JUMP JUMPDEST PUSH2 0x2A55 JUMP JUMPDEST DUP11 MLOAD PUSH2 0x195D SWAP1 DUP11 DUP7 PUSH2 0x15AB JUMP JUMPDEST POP PUSH2 0x196B PUSH2 0x148F DUP4 DUP7 PUSH2 0x1B0C JUMP JUMPDEST DUP4 SLOAD PUSH1 0x1 PUSH1 0x1 PUSH1 0x50 SHL SUB NOT AND PUSH1 0x1 PUSH1 0x1 PUSH1 0x50 SHL SUB SWAP2 SWAP1 SWAP2 AND OR DUP4 SSTORE PUSH2 0x1993 DUP12 DUP11 DUP11 DUP8 DUP11 PUSH2 0x2BDD JUMP JUMPDEST SWAP5 POP DUP9 PUSH2 0xFFFF AND DUP11 PUSH1 0x1 PUSH1 0x1 PUSH1 0xA0 SHL SUB AND DUP13 PUSH1 0x0 ADD MLOAD PUSH1 0x1 PUSH1 0x1 PUSH1 0xA0 SHL SUB AND PUSH32 0x38DB3B2568CA34833805148705B1440A4F80962CE663BA509811ABC652DE434A DUP12 DUP12 DUP10 PUSH1 0x40 MLOAD PUSH2 0x19E5 SWAP4 SWAP3 SWAP2 SWAP1 PUSH2 0x4EC4 JUMP JUMPDEST PUSH1 0x40 MLOAD DUP1 SWAP2 SUB SWAP1 LOG4 POP POP POP SWAP7 POP SWAP7 SWAP5 POP POP POP POP POP JUMP JUMPDEST PUSH1 0x0 DUP1 PUSH2 0x12C4 DUP5 PUSH1 0x40 ADD MLOAD PUSH2 0x12BE PUSH5 0x2540BE400 PUSH2 0x12BE DUP8 DUP10 PUSH1 0x20 ADD MLOAD PUSH2 0x2760 SWAP1 SWAP2 SWAP1 PUSH4 0xFFFFFFFF AND JUMP JUMPDEST PUSH1 0x0 PUSH4 0x5F5E100 DUP4 PUSH1 0x40 ADD MLOAD SLT ISZERO PUSH2 0x1A4E JUMPI PUSH2 0x1A47 PUSH1 0x1 PUSH2 0x17D6 DUP6 DUP6 PUSH2 0x2CAA JUMP JUMPDEST SWAP1 POP PUSH2 0xE33 JUMP JUMPDEST PUSH2 0x7DA DUP4 PUSH2 0x1A5D DUP5 PUSH1 0x1 PUSH2 0x24CE JUMP JUMPDEST PUSH2 0x2CAA JUMP JUMPDEST PUSH1 0x0 PUSH1 0x3 DUP4 PUSH1 0x60 ADD MLOAD PUSH1 0x5 DUP2 GT ISZERO PUSH2 0x1A76 JUMPI INVALID JUMPDEST EQ ISZERO PUSH2 0x1A8D JUMPI POP PUSH1 0x1 PUSH1 0x1 PUSH1 0xA0 SHL SUB DUP2 AND BALANCE PUSH2 0xE33 JUMP JUMPDEST DUP3 MLOAD PUSH1 0x40 MLOAD PUSH4 0x70A08231 PUSH1 0xE0 SHL DUP2 MSTORE PUSH1 0x1 PUSH1 0x1 PUSH1 0xA0 SHL SUB SWAP1 SWAP2 AND SWAP1 PUSH4 0x70A08231 SWAP1 PUSH2 0x1ABC SWAP1 DUP6 SWAP1 PUSH1 0x4 ADD PUSH2 0x47E6 JUMP JUMPDEST PUSH1 0x20 PUSH1 0x40 MLOAD DUP1 DUP4 SUB DUP2 DUP7 DUP1 EXTCODESIZE ISZERO DUP1 ISZERO PUSH2 0x1AD4 JUMPI PUSH1 0x0 DUP1 REVERT JUMPDEST POP GAS STATICCALL ISZERO DUP1 ISZERO PUSH2 0x1AE8 JUMPI RETURNDATASIZE PUSH1 0x0 DUP1 RETURNDATACOPY RETURNDATASIZE PUSH1 0x0 REVERT JUMPDEST POP POP POP POP PUSH1 0x40 MLOAD RETURNDATASIZE PUSH1 0x1F NOT PUSH1 0x1F DUP3 ADD AND DUP3 ADD DUP1 PUSH1 0x40 MSTORE POP DUP2 ADD SWAP1 PUSH2 0x1A47 SWAP2 SWAP1 PUSH2 0x469B JUMP JUMPDEST PUSH1 0x0 DUP3 DUP3 GT ISZERO PUSH2 0x1B1B JUMPI PUSH1 0x0 DUP1 REVERT JUMPDEST POP SWAP1 SUB SWAP1 JUMP JUMPDEST PUSH1 0x0 DUP1 PUSH1 0x5 DUP6 PUSH1 0x60 ADD MLOAD PUSH1 0x5 DUP2 GT ISZERO PUSH2 0x1B36 JUMPI INVALID JUMPDEST EQ PUSH2 0x1B48 JUMPI PUSH4 0x70A08231 PUSH1 0xE0 SHL PUSH2 0x1B51 JUMP JUMPDEST PUSH4 0xED1279F PUSH1 0xE1 SHL JUMPDEST SWAP1 POP PUSH1 0x0 PUSH2 0x1B64 DUP7 PUSH1 0x0 ADD MLOAD ADDRESS DUP5 PUSH2 0x2CE2 JUMP JUMPDEST SWAP1 POP PUSH1 0x5 DUP7 PUSH1 0x60 ADD MLOAD PUSH1 0x5 DUP2 GT ISZERO PUSH2 0x1B78 JUMPI INVALID JUMPDEST EQ ISZERO PUSH2 0x1B9F JUMPI PUSH1 0x0 PUSH2 0x1B8D DUP7 PUSH2 0xFFFF AND PUSH2 0xFA3 JUMP JUMPDEST SWAP1 POP PUSH2 0x1B99 DUP2 DUP7 PUSH2 0x2DF4 JUMP JUMPDEST POP PUSH2 0x1BE8 JUMP JUMPDEST PUSH1 0x1 DUP7 PUSH1 0x60 ADD MLOAD PUSH1 0x5 DUP2 GT ISZERO PUSH2 0x1BB1 JUMPI INVALID JUMPDEST EQ ISZERO PUSH2 0x1BC6 JUMPI PUSH2 0x1BC1 DUP7 DUP6 PUSH2 0x2E67 JUMP JUMPDEST PUSH2 0x1BE8 JUMP JUMPDEST PUSH1 0x2 DUP7 PUSH1 0x60 ADD MLOAD PUSH1 0x5 DUP2 GT ISZERO PUSH2 0x1BD8 JUMPI INVALID JUMPDEST EQ ISZERO PUSH2 0x116 JUMPI PUSH2 0x1BC1 DUP7 DUP6 PUSH2 0x2F09 JUMP JUMPDEST PUSH1 0x0 PUSH2 0x1BF9 DUP8 PUSH1 0x0 ADD MLOAD ADDRESS DUP6 PUSH2 0x2CE2 JUMP JUMPDEST SWAP1 POP PUSH2 0xF80 PUSH2 0x18E1 DUP3 DUP5 PUSH2 0x2F5C JUMP JUMPDEST PUSH1 0x0 PUSH2 0x1C12 PUSH2 0x2FB3 JUMP JUMPDEST PUSH1 0x1 PUSH1 0x1 PUSH1 0xA0 SHL SUB DUP5 AND PUSH1 0x0 SWAP1 DUP2 MSTORE PUSH1 0x20 DUP3 SWAP1 MSTORE PUSH1 0x40 SWAP1 KECCAK256 DUP1 SLOAD SWAP2 SWAP3 POP SWAP1 PUSH2 0xFFFF AND DUP4 ISZERO PUSH2 0x1C51 JUMPI DUP2 SLOAD PUSH2 0xFFFF NOT AND PUSH1 0x1 DUP3 OR PUSH2 0xFFFF AND OR DUP3 SSTORE PUSH2 0x1C61 JUMP JUMPDEST DUP2 SLOAD PUSH2 0xFFFF NOT AND PUSH2 0xFFFE DUP3 AND OR DUP3 SSTORE JUMPDEST POP POP POP POP POP JUMP JUMPDEST PUSH1 0x0 DUP1 PUSH2 0xE33 PUSH1 0x17 PUSH2 0x2345 JUMP JUMPDEST PUSH2 0x1C7D PUSH2 0x41C8 JUMP JUMPDEST PUSH2 0x1C86 DUP3 PUSH2 0x217C JUMP JUMPDEST SWAP1 POP PUSH2 0xEAF DUP2 PUSH1 0x40 ADD MLOAD PUSH2 0xFFFF AND PUSH2 0x2FC0 JUMP JUMPDEST PUSH1 0x0 DUP1 PUSH1 0x0 PUSH2 0x1CB0 DUP7 PUSH1 0x40 ADD MLOAD PUSH2 0xFFFF AND DUP6 PUSH2 0x2FD6 JUMP JUMPDEST SWAP1 POP PUSH1 0x0 PUSH2 0x1CD7 PUSH2 0x88E PUSH2 0x1CC7 DUP9 PUSH1 0x80 ADD MLOAD PUSH2 0x12EC JUMP JUMPDEST PUSH1 0x20 DUP10 ADD MLOAD PUSH2 0x17D6 SWAP1 DUP7 SWAP1 PUSH2 0x128D JUMP JUMPDEST SWAP1 POP PUSH1 0x0 PUSH2 0x1CEC DUP9 PUSH1 0x40 ADD MLOAD PUSH2 0xFFFF AND PUSH2 0xF8B JUMP JUMPDEST SWAP1 POP PUSH2 0x1CF8 DUP2 DUP4 PUSH2 0x2CAA JUMP JUMPDEST SWAP5 POP PUSH1 0x4 DUP2 PUSH1 0x60 ADD MLOAD PUSH1 0x5 DUP2 GT ISZERO PUSH2 0x1D0C JUMPI INVALID JUMPDEST EQ ISZERO PUSH2 0x1D1A JUMPI DUP5 SWAP4 POP PUSH2 0x1D47 JUMP JUMPDEST PUSH1 0x0 PUSH2 0x1D2D DUP10 PUSH1 0x40 ADD MLOAD PUSH2 0xFFFF AND PUSH2 0xFA3 JUMP JUMPDEST SWAP1 POP PUSH2 0x1D43 PUSH2 0x1D3C DUP6 DUP6 PUSH2 0x19FB JUMP JUMPDEST DUP3 SWAP1 PUSH2 0x1A26 JUMP JUMPDEST SWAP5 POP POP JUMPDEST POP POP POP SWAP4 POP SWAP4 SWAP2 POP POP JUMP JUMPDEST PUSH1 0x0 PUSH2 0x1D5C PUSH2 0x2FB3 JUMP JUMPDEST SWAP1 POP PUSH2 0x1D6E PUSH1 0xC0 DUP4 ADD PUSH1 0xA0 DUP5 ADD PUSH2 0x473C JUMP JUMPDEST PUSH1 0xFF AND PUSH1 0x64 SGT ISZERO PUSH2 0x1D7E JUMPI PUSH1 0x0 DUP1 REVERT JUMPDEST PUSH1 0x64 PUSH2 0x1D90 PUSH1 0xE0 DUP5 ADD PUSH1 0xC0 DUP6 ADD PUSH2 0x473C JUMP JUMPDEST PUSH1 0xFF AND SGT ISZERO PUSH2 0x1D9E JUMPI PUSH1 0x0 DUP1 REVERT JUMPDEST PUSH2 0x1DAF PUSH2 0x100 DUP4 ADD PUSH1 0xE0 DUP5 ADD PUSH2 0x473C JUMP JUMPDEST PUSH1 0xFF AND PUSH2 0x1DBB JUMPI PUSH1 0x0 DUP1 REVERT JUMPDEST PUSH2 0x1DCD PUSH2 0x120 DUP4 ADD PUSH2 0x100 DUP5 ADD PUSH2 0x46B3 JUMP JUMPDEST PUSH2 0xFFFF AND PUSH2 0x1DE1 PUSH1 0x80 DUP5 ADD PUSH1 0x60 DUP6 ADD PUSH2 0x46B3 JUMP JUMPDEST PUSH2 0xFFFF AND LT PUSH2 0x1DEF JUMPI PUSH1 0x0 DUP1 REVERT JUMPDEST PUSH2 0x1E01 PUSH2 0x140 DUP4 ADD PUSH2 0x120 DUP5 ADD PUSH2 0x46B3 JUMP JUMPDEST PUSH2 0xFFFF AND PUSH2 0x1E15 PUSH1 0x40 DUP5 ADD PUSH1 0x20 DUP6 ADD PUSH2 0x46B3 JUMP JUMPDEST PUSH2 0xFFFF AND EQ ISZERO PUSH2 0x1E24 JUMPI PUSH1 0x0 DUP1 REVERT JUMPDEST PUSH2 0x1E36 PUSH2 0x160 DUP4 ADD PUSH2 0x140 DUP5 ADD PUSH2 0x46B3 JUMP JUMPDEST PUSH2 0xFFFF AND PUSH2 0x1E4A PUSH1 0x40 DUP5 ADD PUSH1 0x20 DUP6 ADD PUSH2 0x46B3 JUMP JUMPDEST PUSH2 0xFFFF AND EQ ISZERO PUSH2 0x1E59 JUMPI PUSH1 0x0 DUP1 REVERT JUMPDEST PUSH2 0x1E6B PUSH2 0x140 DUP4 ADD PUSH2 0x120 DUP5 ADD PUSH2 0x46B3 JUMP JUMPDEST PUSH2 0xFFFF AND ISZERO DUP1 ISZERO SWAP1 PUSH2 0x1E91 JUMPI POP PUSH2 0x1E8A PUSH2 0x160 DUP4 ADD PUSH2 0x140 DUP5 ADD PUSH2 0x46B3 JUMP JUMPDEST PUSH2 0xFFFF AND ISZERO ISZERO JUMPDEST ISZERO PUSH2 0x1ECD JUMPI PUSH2 0x1EA8 PUSH2 0x160 DUP4 ADD PUSH2 0x140 DUP5 ADD PUSH2 0x46B3 JUMP JUMPDEST PUSH2 0xFFFF AND PUSH2 0x1EBE PUSH2 0x140 DUP5 ADD PUSH2 0x120 DUP6 ADD PUSH2 0x46B3 JUMP JUMPDEST PUSH2 0xFFFF AND EQ ISZERO PUSH2 0x1ECD JUMPI PUSH1 0x0 DUP1 REVERT JUMPDEST PUSH1 0x0 PUSH2 0x1EEB PUSH2 0x1EE2 PUSH1 0x40 DUP6 ADD PUSH1 0x20 DUP7 ADD PUSH2 0x46B3 JUMP JUMPDEST PUSH2 0xFFFF AND PUSH2 0xF8B JUMP JUMPDEST SWAP1 POP PUSH1 0x0 PUSH2 0x1F0B PUSH2 0x1F02 PUSH1 0x40 DUP7 ADD PUSH1 0x20 DUP8 ADD PUSH2 0x46B3 JUMP JUMPDEST PUSH2 0xFFFF AND PUSH2 0xFA3 JUMP JUMPDEST SWAP1 POP DUP2 PUSH1 0x20 ADD MLOAD ISZERO DUP1 ISZERO PUSH2 0x1F21 JUMPI POP DUP1 PUSH1 0x20 ADD MLOAD ISZERO JUMPDEST PUSH2 0x1F2A JUMPI PUSH1 0x0 DUP1 REVERT JUMPDEST PUSH1 0x1 PUSH1 0x1 PUSH1 0xA0 SHL SUB DUP6 AND PUSH1 0x0 SWAP1 DUP2 MSTORE PUSH1 0x20 DUP5 SWAP1 MSTORE PUSH1 0x40 SWAP1 KECCAK256 DUP5 SWAP1 PUSH2 0x1F4E DUP3 DUP3 PUSH2 0x4FA3 JUMP JUMPDEST POP POP POP POP POP POP POP JUMP JUMPDEST PUSH1 0x0 DUP1 PUSH2 0x1F6D DUP10 PUSH1 0x0 ADD MLOAD DUP11 PUSH1 0x40 ADD MLOAD DUP10 PUSH2 0x24E4 JUMP JUMPDEST DUP10 MLOAD SWAP1 SWAP2 POP PUSH1 0x1 PUSH1 0x1 PUSH1 0xA0 SHL SUB AND PUSH4 0xDC6679C5 DUP10 PUSH2 0x1F8B DUP5 DUP10 PUSH2 0x142A JUMP JUMPDEST DUP10 DUP9 DUP9 PUSH1 0x40 MLOAD DUP7 PUSH4 0xFFFFFFFF AND PUSH1 0xE0 SHL DUP2 MSTORE PUSH1 0x4 ADD PUSH2 0x1FAE SWAP6 SWAP5 SWAP4 SWAP3 SWAP2 SWAP1 PUSH2 0x48DE JUMP JUMPDEST PUSH1 0x20 PUSH1 0x40 MLOAD DUP1 DUP4 SUB DUP2 PUSH1 0x0 DUP8 DUP1 EXTCODESIZE ISZERO DUP1 ISZERO PUSH2 0x1FC8 JUMPI PUSH1 0x0 DUP1 REVERT JUMPDEST POP GAS CALL ISZERO DUP1 ISZERO PUSH2 0x1FDC JUMPI RETURNDATASIZE PUSH1 0x0 DUP1 RETURNDATACOPY RETURNDATASIZE PUSH1 0x0 REVERT JUMPDEST POP POP POP POP PUSH1 0x40 MLOAD RETURNDATASIZE PUSH1 0x1F NOT PUSH1 0x1F DUP3 ADD AND DUP3 ADD DUP1 PUSH1 0x40 MSTORE POP DUP2 ADD SWAP1 PUSH2 0xF7C SWAP2 SWAP1 PUSH2 0x469B JUMP JUMPDEST PUSH1 0x0 DUP1 PUSH2 0x200F DUP7 DUP9 DUP8 DUP8 PUSH2 0x3033 JUMP JUMPDEST SWAP1 POP PUSH1 0x0 PUSH2 0x202B PUSH2 0x201F DUP6 PUSH2 0x127F JUMP JUMPDEST PUSH2 0x160 DUP11 ADD MLOAD SWAP1 PUSH2 0x128D JUMP JUMPDEST SWAP1 POP PUSH1 0x0 PUSH2 0x2039 DUP4 DUP4 PUSH2 0x28F5 JUMP JUMPDEST SWAP1 POP DUP2 PUSH2 0x204F JUMPI PUSH1 0x1 PUSH1 0x1 PUSH1 0xFF SHL SUB SWAP4 POP PUSH2 0x205C JUMP JUMPDEST PUSH2 0x2059 DUP2 DUP4 PUSH2 0x3098 JUMP JUMPDEST SWAP4 POP JUMPDEST POP POP SWAP6 POP SWAP6 SWAP4 POP POP POP POP JUMP JUMPDEST PUSH1 0x0 DUP1 PUSH1 0x2 PUSH1 0xA SLOAD EQ ISZERO PUSH2 0x208E JUMPI PUSH1 0x40 MLOAD PUSH3 0x461BCD PUSH1 0xE5 SHL DUP2 MSTORE PUSH1 0x4 ADD PUSH2 0x2DB SWAP1 PUSH2 0x4D17 JUMP JUMPDEST PUSH1 0x2 PUSH1 0xA SSTORE PUSH2 0x209E DUP8 PUSH1 0x80 PUSH2 0xEBA JUMP JUMPDEST ISZERO PUSH2 0x20A9 JUMPI PUSH1 0x1 PUSH1 0xA SSTORE JUMPDEST PUSH1 0x0 PUSH2 0x20B9 DUP9 PUSH1 0x0 ADD MLOAD DUP9 PUSH2 0x1074 JUMP JUMPDEST DUP9 MLOAD SWAP1 SWAP2 POP PUSH1 0x0 SWAP1 PUSH2 0x20D0 SWAP1 DUP11 SWAP1 DUP10 DUP12 DUP11 DUP11 PUSH2 0x30B1 JUMP JUMPDEST SWAP1 POP PUSH1 0x0 DUP2 SGT PUSH2 0x20DF JUMPI PUSH1 0x0 DUP1 REVERT JUMPDEST PUSH1 0x80 DUP3 ADD MLOAD PUSH2 0x20EE SWAP1 DUP3 PUSH2 0x142A JUMP JUMPDEST PUSH1 0x80 DUP4 ADD MSTORE PUSH1 0xA0 DUP3 ADD MLOAD PUSH2 0x2102 SWAP1 DUP9 PUSH2 0x1B0C JUMP JUMPDEST PUSH1 0xA0 DUP4 ADD MSTORE DUP9 MLOAD PUSH2 0x2114 SWAP1 DUP4 SWAP1 PUSH2 0x143C JUMP JUMPDEST DUP8 DUP10 PUSH1 0x0 ADD MLOAD PUSH1 0x1 PUSH1 0x1 PUSH1 0xA0 SHL SUB AND PUSH32 0xB2F70C3FE73B5AEE7E8C59B77222111306F1E4D7170F8FA1C09979BB847EB9D9 DUP4 DUP11 PUSH1 0x40 MLOAD PUSH2 0x2154 SWAP3 SWAP2 SWAP1 PUSH2 0x499D JUMP JUMPDEST PUSH1 0x40 MLOAD DUP1 SWAP2 SUB SWAP1 LOG3 PUSH2 0x2167 DUP10 DUP4 DUP11 PUSH2 0x1C99 JUMP JUMPDEST PUSH1 0x1 PUSH1 0xA SSTORE SWAP1 SWAP11 SWAP1 SWAP10 POP SWAP8 POP POP POP POP POP POP POP POP JUMP JUMPDEST PUSH2 0x2184 PUSH2 0x41C8 JUMP JUMPDEST PUSH1 0x0 PUSH2 0x218E PUSH2 0x2FB3 JUMP JUMPDEST PUSH1 0x1 PUSH1 0x1 PUSH1 0xA0 SHL SUB DUP5 AND PUSH1 0x0 DUP2 DUP2 MSTORE PUSH1 0x20 DUP4 DUP2 MSTORE PUSH1 0x40 SWAP2 DUP3 SWAP1 KECCAK256 SWAP3 DUP7 MSTORE DUP3 SLOAD PUSH2 0xFFFF DUP1 DUP3 AND SWAP3 DUP9 ADD SWAP3 SWAP1 SWAP3 MSTORE PUSH3 0x10000 DUP2 DIV SWAP1 SWAP2 AND SWAP2 DUP7 ADD SWAP2 SWAP1 SWAP2 MSTORE SWAP2 SWAP3 POP SWAP1 PUSH2 0x21EE SWAP1 PUSH4 0xFFFFFFFF PUSH1 0x1 PUSH1 0x20 SHL SWAP1 SWAP2 DIV DUP2 AND SWAP1 PUSH4 0x5F5E100 SWAP1 PUSH2 0x2760 AND JUMP JUMPDEST PUSH1 0x60 DUP5 ADD MSTORE DUP1 SLOAD PUSH2 0x220C SWAP1 PUSH1 0x1 PUSH1 0x50 SHL SWAP1 DIV PUSH1 0xFF AND PUSH3 0x7A120 PUSH2 0x2A0F JUMP JUMPDEST PUSH1 0x80 DUP5 ADD MSTORE DUP1 SLOAD PUSH2 0x2230 SWAP1 PUSH9 0x10000000000000000 SWAP1 DIV PUSH2 0xFFFF AND PUSH3 0x186A0 PUSH2 0x2A0F JUMP JUMPDEST PUSH1 0xA0 DUP5 ADD MSTORE DUP1 SLOAD PUSH2 0x224F SWAP1 PUSH1 0x1 PUSH1 0x70 SHL SWAP1 DIV PUSH2 0xFFFF AND PUSH3 0x186A0 PUSH2 0x2A0F JUMP JUMPDEST PUSH2 0x120 DUP5 ADD MSTORE DUP1 SLOAD PUSH1 0x64 SWAP1 PUSH1 0xFF PUSH1 0x1 PUSH1 0x58 SHL SWAP1 SWAP2 DIV AND PUSH4 0x3B9ACA00 MUL SDIV PUSH1 0xC0 DUP5 ADD MSTORE DUP1 SLOAD PUSH1 0x1 PUSH1 0x60 SHL DUP2 DIV PUSH1 0xFF SWAP1 DUP2 AND PUSH1 0xE0 DUP7 ADD MSTORE PUSH1 0x1 PUSH1 0x68 SHL SWAP1 SWAP2 DIV AND PUSH2 0x100 DUP5 ADD MSTORE PUSH1 0x40 DUP1 MLOAD DUP1 DUP3 ADD SWAP2 DUP3 SWAP1 MSTORE SWAP1 PUSH1 0x1 DUP4 ADD SWAP1 PUSH1 0x2 SWAP1 DUP3 PUSH1 0x0 DUP6 JUMPDEST DUP3 DUP3 SWAP1 SLOAD SWAP1 PUSH2 0x100 EXP SWAP1 DIV PUSH2 0xFFFF AND PUSH2 0xFFFF AND DUP2 MSTORE PUSH1 0x20 ADD SWAP1 PUSH1 0x2 ADD SWAP1 PUSH1 0x20 DUP3 PUSH1 0x1 ADD DIV SWAP3 DUP4 ADD SWAP3 PUSH1 0x1 SUB DUP3 MUL SWAP2 POP DUP1 DUP5 GT PUSH2 0x22AC JUMPI SWAP1 POP POP POP POP POP POP DUP4 PUSH2 0x140 ADD DUP2 SWAP1 MSTORE POP POP POP SWAP2 SWAP1 POP JUMP JUMPDEST PUSH2 0x2301 PUSH2 0x4274 JUMP JUMPDEST PUSH1 0x0 DUP1 PUSH1 0x0 PUSH2 0x230F DUP6 PUSH2 0x2690 JUMP JUMPDEST PUSH1 0x40 DUP1 MLOAD PUSH1 0x60 DUP2 ADD DUP3 MSTORE PUSH1 0x1 PUSH1 0x1 PUSH1 0xA0 SHL SUB SWAP1 SWAP4 AND DUP4 MSTORE PUSH1 0x20 DUP4 ADD SWAP4 SWAP1 SWAP4 MSTORE PUSH1 0xFF AND PUSH1 0xA EXP SWAP2 DUP2 ADD SWAP2 SWAP1 SWAP2 MSTORE SWAP4 POP POP POP POP SWAP2 SWAP1 POP JUMP JUMPDEST PUSH1 0x0 PUSH3 0xF4240 DUP3 PUSH1 0x1A DUP2 GT ISZERO PUSH2 0x2357 JUMPI INVALID JUMPDEST ADD SWAP3 SWAP2 POP POP JUMP JUMPDEST PUSH1 0x0 DUP1 PUSH2 0x2376 DUP9 PUSH1 0x0 ADD MLOAD DUP8 PUSH2 0x7A7 PUSH2 0x88E DUP9 PUSH2 0x12EC JUMP JUMPDEST POP PUSH1 0x0 PUSH2 0x2381 PUSH2 0x12DF JUMP JUMPDEST DUP10 MLOAD PUSH1 0x1 PUSH1 0x1 PUSH1 0xA0 SHL SUB SWAP1 DUP2 AND PUSH1 0x0 SWAP1 DUP2 MSTORE PUSH1 0x20 SWAP3 DUP4 MSTORE PUSH1 0x40 DUP1 DUP3 KECCAK256 DUP11 DUP4 MSTORE DUP5 MSTORE DUP1 DUP3 KECCAK256 PUSH2 0xFFFF DUP13 AND DUP4 MSTORE SWAP1 SWAP4 MSTORE SWAP2 SWAP1 SWAP2 KECCAK256 DUP1 SLOAD DUP12 MLOAD SWAP2 SWAP4 POP PUSH1 0x1 PUSH1 0x1 PUSH1 0x50 SHL SUB DUP1 DUP3 AND SWAP4 PUSH1 0x1 PUSH1 0x50 SHL SWAP1 SWAP3 DIV AND SWAP2 DUP12 DUP3 AND SWAP2 AND EQ PUSH2 0x243C JUMPI DUP2 PUSH2 0x23E7 JUMPI DUP7 SWAP4 POP PUSH2 0x23F8 JUMP JUMPDEST PUSH2 0x23F5 DUP3 PUSH2 0x18DB DUP10 DUP5 PUSH2 0x2A0F JUMP JUMPDEST SWAP4 POP JUMPDEST PUSH2 0x2408 DUP12 DUP12 DUP12 DUP12 PUSH2 0x194B DUP10 PUSH2 0x12EC JUMP JUMPDEST PUSH2 0x2415 PUSH2 0x148F DUP3 DUP7 PUSH2 0x142A JUMP JUMPDEST DUP4 SLOAD PUSH1 0x1 PUSH1 0x1 PUSH1 0x50 SHL SUB SWAP2 SWAP1 SWAP2 AND PUSH1 0x1 PUSH1 0x50 SHL MUL PUSH1 0x1 PUSH1 0x50 SHL PUSH1 0x1 PUSH1 0xA0 SHL SUB NOT SWAP1 SWAP2 AND OR DUP4 SSTORE JUMPDEST PUSH2 0x2449 PUSH2 0x148F DUP4 DUP10 PUSH2 0x142A JUMP JUMPDEST DUP4 SLOAD PUSH1 0x1 PUSH1 0x1 PUSH1 0x50 SHL SUB NOT AND PUSH1 0x1 PUSH1 0x1 PUSH1 0x50 SHL SUB SWAP2 SWAP1 SWAP2 AND OR DUP4 SSTORE PUSH2 0x247C DUP12 DUP11 DUP11 PUSH2 0x2476 PUSH2 0x88E DUP13 PUSH2 0x12EC JUMP JUMPDEST DUP11 PUSH2 0x2BDD JUMP JUMPDEST SWAP5 POP DUP9 PUSH2 0xFFFF AND DUP11 PUSH1 0x1 PUSH1 0x1 PUSH1 0xA0 SHL SUB AND DUP13 PUSH1 0x0 ADD MLOAD PUSH1 0x1 PUSH1 0x1 PUSH1 0xA0 SHL SUB AND PUSH32 0xA119A38E8BBBF2CBE78427CB9E63EF28678B56E3CEECC10BDA7C00503EA94739 DUP12 DUP9 DUP13 PUSH1 0x40 MLOAD PUSH2 0x19E5 SWAP4 SWAP3 SWAP2 SWAP1 PUSH2 0x4EC4 JUMP JUMPDEST DUP2 DUP2 ADD DUP3 DUP2 SLT ISZERO PUSH1 0x0 DUP4 SLT ISZERO EQ PUSH2 0xE33 JUMPI PUSH1 0x0 DUP1 REVERT JUMPDEST PUSH1 0x0 DUP2 PUSH2 0x24F3 JUMPI POP PUSH1 0x0 PUSH2 0x7DA JUMP JUMPDEST PUSH1 0x0 DUP3 SGT PUSH2 0x2500 JUMPI PUSH1 0x0 DUP1 REVERT JUMPDEST PUSH1 0x0 PUSH2 0x250F DUP5 PUSH2 0xFFFF AND PUSH2 0xF8B JUMP JUMPDEST SWAP1 POP PUSH1 0x0 PUSH2 0x251D DUP3 DUP6 PUSH2 0x2CAA JUMP JUMPDEST SWAP1 POP PUSH1 0x4 DUP3 PUSH1 0x60 ADD MLOAD PUSH1 0x5 DUP2 GT ISZERO PUSH2 0x2531 JUMPI INVALID JUMPDEST EQ ISZERO PUSH2 0x255F JUMPI PUSH2 0x2558 PUSH2 0x638 PUSH2 0x88E DUP9 DUP9 PUSH2 0xFFFF AND PUSH2 0x254F DUP7 PUSH2 0x127F JUMP JUMPDEST DUP8 SWAP3 SWAP2 SWAP1 PUSH2 0x30F8 JUMP JUMPDEST SWAP3 POP PUSH2 0x2583 JUMP JUMPDEST PUSH2 0x2580 PUSH2 0x638 PUSH2 0x88E DUP8 PUSH2 0xFFFF AND DUP10 PUSH2 0x2577 DUP7 PUSH2 0x12CC JUMP JUMPDEST DUP8 SWAP3 SWAP2 SWAP1 PUSH2 0x31A0 JUMP JUMPDEST SWAP3 POP JUMPDEST POP POP SWAP4 SWAP3 POP POP POP JUMP JUMPDEST PUSH2 0x2594 PUSH2 0x4245 JUMP JUMPDEST PUSH1 0x0 PUSH2 0x259E PUSH2 0x3236 JUMP JUMPDEST PUSH1 0x0 DUP6 DUP2 MSTORE PUSH1 0x20 DUP3 DUP2 MSTORE PUSH1 0x40 DUP1 DUP4 KECCAK256 DUP8 ISZERO ISZERO DUP5 MSTORE DUP3 MSTORE SWAP2 DUP3 SWAP1 KECCAK256 DUP3 MLOAD PUSH1 0xA0 DUP2 ADD DUP5 MSTORE DUP2 SLOAD PUSH1 0x1 PUSH1 0x1 PUSH1 0xA0 SHL SUB DUP2 AND DUP3 MSTORE PUSH1 0xFF PUSH1 0x1 PUSH1 0xA0 SHL DUP3 DIV DUP2 AND ISZERO ISZERO SWAP5 DUP4 ADD SWAP5 SWAP1 SWAP5 MSTORE PUSH1 0x1 PUSH1 0xB0 SHL DUP2 DIV DUP5 AND PUSH1 0xA EXP SWAP5 DUP3 ADD SWAP5 SWAP1 SWAP5 MSTORE SWAP4 SWAP5 POP SWAP3 SWAP2 PUSH1 0x60 DUP4 ADD SWAP2 PUSH1 0x1 PUSH1 0xA8 SHL SWAP1 SWAP2 DIV AND PUSH1 0x5 DUP2 GT ISZERO PUSH2 0x2613 JUMPI INVALID JUMPDEST DUP2 MSTORE SWAP2 SLOAD PUSH1 0x1 PUSH1 0xB8 SHL SWAP1 DIV PUSH9 0xFFFFFFFFFFFFFFFFFF AND PUSH1 0x20 SWAP1 SWAP3 ADD SWAP2 SWAP1 SWAP2 MSTORE SWAP5 SWAP4 POP POP POP POP JUMP JUMPDEST PUSH1 0x0 DUP1 PUSH2 0xE33 PUSH1 0x15 PUSH2 0x2345 JUMP JUMPDEST PUSH1 0x0 DUP1 PUSH1 0x0 PUSH2 0x2654 PUSH2 0x2753 JUMP JUMPDEST PUSH1 0x0 SWAP6 DUP7 MSTORE PUSH1 0x20 SWAP1 DUP2 MSTORE PUSH1 0x40 DUP1 DUP8 KECCAK256 SWAP6 DUP8 MSTORE SWAP5 SWAP1 MSTORE POP POP POP SWAP1 KECCAK256 SLOAD PUSH6 0x10000000000 DUP2 DIV PUSH1 0x1 PUSH1 0x1 PUSH1 0x80 SHL SUB AND SWAP2 PUSH1 0x1 PUSH1 0xA8 SHL SWAP1 SWAP2 DIV PUSH1 0xFF AND SWAP1 JUMP JUMPDEST PUSH1 0x0 DUP1 PUSH1 0x0 DUP1 PUSH1 0x0 PUSH2 0x26A1 DUP7 PUSH2 0x3243 JUMP JUMPDEST SWAP1 SWAP3 POP SWAP1 POP PUSH1 0x0 PUSH1 0x1 PUSH1 0x1 PUSH1 0xA0 SHL SUB DUP4 AND PUSH2 0x26C6 JUMPI POP PUSH1 0x0 SWAP1 POP PUSH5 0x2540BE400 PUSH2 0x2748 JUMP JUMPDEST DUP3 PUSH1 0x1 PUSH1 0x1 PUSH1 0xA0 SHL SUB AND PUSH4 0x1EE10833 PUSH1 0x40 MLOAD DUP2 PUSH4 0xFFFFFFFF AND PUSH1 0xE0 SHL DUP2 MSTORE PUSH1 0x4 ADD PUSH1 0x20 PUSH1 0x40 MLOAD DUP1 DUP4 SUB DUP2 PUSH1 0x0 DUP8 DUP1 EXTCODESIZE ISZERO DUP1 ISZERO PUSH2 0x2701 JUMPI PUSH1 0x0 DUP1 REVERT JUMPDEST POP GAS CALL ISZERO DUP1 ISZERO PUSH2 0x2715 JUMPI RETURNDATASIZE PUSH1 0x0 DUP1 RETURNDATACOPY RETURNDATASIZE PUSH1 0x0 REVERT JUMPDEST POP POP POP POP PUSH1 0x40 MLOAD RETURNDATASIZE PUSH1 0x1F NOT PUSH1 0x1F DUP3 ADD AND DUP3 ADD DUP1 PUSH1 0x40 MSTORE POP DUP2 ADD SWAP1 PUSH2 0x2739 SWAP2 SWAP1 PUSH2 0x469B JUMP JUMPDEST SWAP1 POP PUSH1 0x0 DUP2 SGT PUSH2 0x2748 JUMPI PUSH1 0x0 DUP1 REVERT JUMPDEST SWAP7 SWAP2 SWAP6 POP SWAP4 POP SWAP2 POP POP JUMP JUMPDEST PUSH1 0x0 DUP1 PUSH2 0xE33 PUSH1 0x8 PUSH2 0x2345 JUMP JUMPDEST DUP2 DUP2 MUL PUSH1 0x0 NOT DUP4 EQ ISZERO PUSH2 0x2790 JUMPI DUP2 ISZERO DUP1 PUSH2 0x2782 JUMPI POP DUP3 DUP3 DUP3 DUP2 PUSH2 0x277F JUMPI INVALID JUMPDEST SDIV EQ JUMPDEST PUSH2 0x278B JUMPI PUSH1 0x0 DUP1 REVERT JUMPDEST PUSH2 0xE33 JUMP JUMPDEST DUP3 ISZERO DUP1 PUSH2 0x27A5 JUMPI POP DUP2 DUP4 DUP3 DUP2 PUSH2 0x27A2 JUMPI INVALID JUMPDEST SDIV EQ JUMPDEST PUSH2 0xE33 JUMPI PUSH1 0x0 DUP1 REVERT JUMPDEST PUSH1 0x0 DUP2 PUSH1 0x0 NOT EQ DUP1 ISZERO PUSH2 0x27C4 JUMPI POP PUSH1 0x1 PUSH1 0xFF SHL DUP4 EQ JUMPDEST ISZERO PUSH2 0x27CE JUMPI PUSH1 0x0 DUP1 REVERT JUMPDEST DUP2 DUP4 DUP2 PUSH2 0x27D7 JUMPI INVALID JUMPDEST SDIV SWAP4 SWAP3 POP POP POP JUMP JUMPDEST PUSH1 0x0 DUP1 PUSH1 0x0 DUP1 PUSH1 0x0 PUSH2 0x27EF PUSH2 0x327A JUMP JUMPDEST PUSH1 0x1 PUSH1 0x1 PUSH1 0xA0 SHL SUB DUP9 AND PUSH1 0x0 SWAP1 DUP2 MSTORE PUSH1 0x20 DUP3 DUP2 MSTORE PUSH1 0x40 DUP1 DUP4 KECCAK256 DUP11 DUP5 MSTORE SWAP1 SWAP2 MSTORE SWAP1 KECCAK256 DUP1 SLOAD PUSH1 0x1 PUSH1 0x1 PUSH1 0x50 SHL SUB DUP2 AND SWAP7 POP PUSH1 0x1 PUSH1 0x50 SHL SWAP1 DIV PUSH4 0xFFFFFFFF AND SWAP5 POP SWAP1 SWAP2 POP DUP4 ISZERO PUSH2 0x2858 JUMPI DUP1 SLOAD PUSH2 0x2851 SWAP1 PUSH1 0x1 PUSH1 0x70 SHL SWAP1 DIV PUSH7 0xFFFFFFFFFFFFFF AND PUSH2 0x3287 JUMP JUMPDEST SWAP3 POP PUSH2 0x286D JUMP JUMPDEST DUP1 SLOAD PUSH1 0x1 PUSH1 0x70 SHL SWAP1 DIV PUSH7 0xFFFFFFFFFFFFFF AND SWAP3 POP JUMPDEST SLOAD PUSH1 0x1 PUSH1 0xA8 SHL SWAP1 DIV PUSH1 0xA SWAP1 DUP2 SIGNEXTEND SWAP1 SIGNEXTEND SWAP8 SWAP4 SWAP7 POP SWAP2 SWAP5 POP SWAP3 POP POP JUMP JUMPDEST PUSH1 0x0 DUP2 SLT ISZERO PUSH2 0x2896 JUMPI PUSH1 0x0 DUP1 REVERT JUMPDEST PUSH2 0x28AB PUSH1 0x0 DUP4 PUSH2 0xFFFF AND DUP4 PUSH1 0x0 DUP1 PUSH1 0x0 PUSH2 0x3295 JUMP JUMPDEST DUP2 PUSH2 0xFFFF AND PUSH32 0xD3625F7B5926828151EFE19F7AE655488287357D99EBE67E5FB20522CA739C0B DUP3 PUSH1 0x40 MLOAD PUSH2 0xA18 SWAP2 SWAP1 PUSH2 0x4994 JUMP JUMPDEST PUSH1 0x0 PUSH1 0x1 PUSH1 0x1 PUSH1 0x50 SHL SUB DUP3 GT ISZERO PUSH2 0x12DB JUMPI PUSH1 0x0 DUP1 REVERT JUMPDEST DUP1 DUP3 SUB DUP3 DUP2 SGT ISZERO PUSH1 0x0 DUP4 SLT ISZERO EQ PUSH2 0xE33 JUMPI PUSH1 0x0 DUP1 REVERT JUMPDEST PUSH1 0x0 DUP1 PUSH2 0x291B DUP8 PUSH2 0xFFFF AND PUSH2 0xFA3 JUMP JUMPDEST SWAP1 POP DUP1 PUSH1 0x40 ADD MLOAD PUSH1 0x0 EQ ISZERO PUSH2 0x293A JUMPI PUSH2 0x2937 DUP8 PUSH2 0xFFFF AND PUSH2 0xF8B JUMP JUMPDEST SWAP1 POP JUMPDEST PUSH1 0x40 MLOAD PUSH4 0xE9377111 PUSH1 0xE0 SHL DUP2 MSTORE PUSH2 0x29C5 SWAP1 PUSH1 0x1 PUSH1 0x1 PUSH1 0xA0 SHL SUB DUP9 AND SWAP1 PUSH4 0xE9377111 SWAP1 PUSH2 0x296E SWAP1 DUP10 SWAP1 DUP10 SWAP1 DUP10 SWAP1 PUSH1 0x4 ADD PUSH2 0x48BD JUMP JUMPDEST PUSH1 0x20 PUSH1 0x40 MLOAD DUP1 DUP4 SUB DUP2 DUP7 DUP1 EXTCODESIZE ISZERO DUP1 ISZERO PUSH2 0x2986 JUMPI PUSH1 0x0 DUP1 REVERT JUMPDEST POP GAS STATICCALL ISZERO DUP1 ISZERO PUSH2 0x299A JUMPI RETURNDATASIZE PUSH1 0x0 DUP1 RETURNDATACOPY RETURNDATASIZE PUSH1 0x0 REVERT JUMPDEST POP POP POP POP PUSH1 0x40 MLOAD RETURNDATASIZE PUSH1 0x1F NOT PUSH1 0x1F DUP3 ADD AND DUP3 ADD DUP1 PUSH1 0x40 MSTORE POP DUP2 ADD SWAP1 PUSH2 0x29BE SWAP2 SWAP1 PUSH2 0x469B JUMP JUMPDEST DUP3 SWAP1 PUSH2 0x33DC JUMP JUMPDEST SWAP2 POP POP JUMPDEST SWAP6 SWAP5 POP POP POP POP POP JUMP JUMPDEST PUSH1 0x0 PUSH10 0x7FFFFFFFFFFFFFFFFFFF NOT DUP3 SLT DUP1 ISZERO SWAP1 PUSH2 0x29F9 JUMPI POP PUSH10 0x7FFFFFFFFFFFFFFFFFFF DUP3 SGT ISZERO JUMPDEST PUSH2 0x12DB JUMPI PUSH1 0x0 DUP1 REVERT JUMPDEST PUSH1 0x0 DUP1 PUSH2 0xE33 PUSH1 0x19 PUSH2 0x2345 JUMP JUMPDEST PUSH1 0x0 DUP3 PUSH2 0x2A1E JUMPI POP PUSH1 0x0 PUSH2 0xE33 JUMP JUMPDEST DUP3 DUP3 MUL DUP3 DUP5 DUP3 DUP2 PUSH2 0x2A2B JUMPI INVALID JUMPDEST DIV EQ PUSH2 0x7DA JUMPI PUSH1 0x0 DUP1 REVERT JUMPDEST PUSH1 0x0 DUP1 DUP3 GT PUSH2 0x2A44 JUMPI PUSH1 0x0 DUP1 REVERT JUMPDEST DUP2 DUP4 DUP2 PUSH2 0x2A4D JUMPI INVALID JUMPDEST DIV SWAP4 SWAP3 POP POP POP JUMP JUMPDEST PUSH1 0x0 PUSH2 0x2A5F PUSH2 0xECF JUMP JUMPDEST PUSH1 0x1 PUSH1 0x1 PUSH1 0xA0 SHL SUB DUP1 DUP8 AND PUSH1 0x0 SWAP1 DUP2 MSTORE PUSH1 0x20 SWAP3 DUP4 MSTORE PUSH1 0x40 DUP1 DUP3 KECCAK256 DUP11 MLOAD SWAP1 SWAP4 AND DUP3 MSTORE SWAP2 SWAP1 SWAP3 MSTORE SWAP1 KECCAK256 DUP1 SLOAD SWAP1 SWAP2 POP PUSH4 0xFFFFFFFF AND DUP4 DUP2 EQ DUP1 PUSH2 0x2A9D JUMPI POP DUP1 ISZERO JUMPDEST PUSH2 0x2AB9 JUMPI PUSH1 0x40 MLOAD PUSH3 0x461BCD PUSH1 0xE5 SHL DUP2 MSTORE PUSH1 0x4 ADD PUSH2 0x2DB SWAP1 PUSH2 0x49E9 JUMP JUMPDEST DUP2 SLOAD PUSH2 0x140 DUP9 ADD MLOAD MLOAD PUSH1 0x1 PUSH1 0x20 SHL DUP3 DIV PUSH1 0x1 PUSH1 0x1 PUSH1 0x50 SHL SUB SWAP1 DUP2 AND SWAP3 PUSH1 0x1 PUSH1 0x70 SHL SWAP1 DIV AND SWAP1 PUSH2 0xFFFF DUP9 DUP2 AND SWAP2 AND EQ ISZERO PUSH2 0x2B33 JUMPI PUSH2 0x2AF6 DUP3 DUP7 PUSH2 0x24CE JUMP JUMPDEST SWAP2 POP PUSH2 0x2B04 PUSH2 0x148F DUP4 PUSH2 0x12CC JUMP JUMPDEST DUP5 SLOAD PUSH1 0x1 PUSH1 0x1 PUSH1 0x50 SHL SUB SWAP2 SWAP1 SWAP2 AND PUSH1 0x1 PUSH1 0x20 SHL MUL PUSH14 0xFFFFFFFFFFFFFFFFFFFF00000000 NOT SWAP1 SWAP2 AND OR DUP5 SSTORE PUSH2 0x2B8D JUMP JUMPDEST PUSH2 0x140 DUP10 ADD MLOAD PUSH1 0x20 ADD MLOAD PUSH2 0xFFFF DUP9 DUP2 AND SWAP2 AND EQ ISZERO PUSH2 0x116 JUMPI PUSH2 0x2B55 DUP2 DUP7 PUSH2 0x24CE JUMP JUMPDEST SWAP1 POP PUSH2 0x2B63 PUSH2 0x148F DUP3 PUSH2 0x12CC JUMP JUMPDEST DUP5 SLOAD PUSH1 0x1 PUSH1 0x1 PUSH1 0x50 SHL SUB SWAP2 SWAP1 SWAP2 AND PUSH1 0x1 PUSH1 0x70 SHL MUL PUSH10 0xFFFFFFFFFFFFFFFFFFFF PUSH1 0x70 SHL NOT SWAP1 SWAP2 AND OR DUP5 SSTORE JUMPDEST DUP2 ISZERO DUP1 ISZERO PUSH2 0x2B99 JUMPI POP DUP1 ISZERO JUMPDEST ISZERO PUSH2 0x2BAE JUMPI DUP4 SLOAD PUSH4 0xFFFFFFFF NOT AND DUP5 SSTORE PUSH2 0x2BD2 JUMP JUMPDEST DUP3 PUSH2 0x2BD2 JUMPI PUSH2 0x2BBC DUP7 PUSH2 0x340C JUMP JUMPDEST DUP5 SLOAD PUSH4 0xFFFFFFFF NOT AND PUSH4 0xFFFFFFFF SWAP2 SWAP1 SWAP2 AND OR DUP5 SSTORE JUMPDEST POP POP POP POP POP POP POP POP POP JUMP JUMPDEST PUSH1 0x0 DUP6 PUSH1 0x40 ADD MLOAD PUSH2 0xFFFF AND DUP6 PUSH2 0xFFFF AND EQ ISZERO PUSH2 0x2BF8 JUMPI PUSH1 0x0 DUP1 REVERT JUMPDEST DUP3 PUSH2 0x2C05 JUMPI POP PUSH1 0x0 PUSH2 0x29C9 JUMP JUMPDEST TIMESTAMP DUP5 GT PUSH2 0x2C42 JUMPI PUSH1 0x0 DUP4 SLT ISZERO PUSH2 0x2C1A JUMPI PUSH1 0x0 DUP1 REVERT JUMPDEST PUSH1 0x0 PUSH2 0x2C2B DUP7 PUSH2 0xFFFF AND DUP7 TIMESTAMP PUSH2 0x110F JUMP JUMPDEST SWAP1 POP PUSH2 0x2C3A PUSH2 0x88E DUP3 DUP7 PUSH2 0x128D JUMP JUMPDEST SWAP2 POP POP PUSH2 0x29C9 JUMP JUMPDEST PUSH2 0x2C55 DUP6 DUP6 DUP6 DUP6 DUP11 PUSH2 0x100 ADD MLOAD TIMESTAMP PUSH2 0x341F JUMP JUMPDEST SWAP1 POP PUSH1 0x0 DUP4 SGT DUP1 ISZERO PUSH2 0x2C65 JUMPI POP DUP1 ISZERO JUMPDEST ISZERO PUSH2 0x2C81 JUMPI PUSH2 0x160 DUP7 ADD MLOAD PUSH2 0x2C7E SWAP1 PUSH2 0x88E SWAP1 DUP6 PUSH2 0x128D JUMP JUMPDEST SWAP1 POP JUMPDEST PUSH1 0x0 DUP4 SLT ISZERO PUSH2 0x29C9 JUMPI PUSH1 0x0 DUP2 SGT PUSH2 0x29C9 JUMPI PUSH1 0x40 MLOAD PUSH3 0x461BCD PUSH1 0xE5 SHL DUP2 MSTORE PUSH1 0x4 ADD PUSH2 0x2DB SWAP1 PUSH2 0x4A20 JUMP JUMPDEST PUSH1 0x0 PUSH4 0x5F5E100 DUP4 PUSH1 0x40 ADD MLOAD EQ ISZERO PUSH2 0x2CC3 JUMPI POP DUP1 PUSH2 0xE33 JUMP JUMPDEST PUSH2 0x7DA PUSH4 0x5F5E100 PUSH2 0x12BE DUP6 PUSH1 0x40 ADD MLOAD DUP6 PUSH2 0x2760 SWAP1 SWAP2 SWAP1 PUSH4 0xFFFFFFFF AND JUMP JUMPDEST PUSH1 0x40 DUP1 MLOAD PUSH1 0x1 PUSH1 0x1 PUSH1 0xA0 SHL SUB DUP5 DUP2 AND PUSH1 0x24 DUP1 DUP5 ADD SWAP2 SWAP1 SWAP2 MSTORE DUP4 MLOAD DUP1 DUP5 SUB SWAP1 SWAP2 ADD DUP2 MSTORE PUSH1 0x44 SWAP1 SWAP3 ADD DUP4 MSTORE PUSH1 0x20 DUP3 ADD DUP1 MLOAD PUSH1 0x1 PUSH1 0x1 PUSH1 0xE0 SHL SUB AND PUSH1 0x1 PUSH1 0x1 PUSH1 0xE0 SHL SUB NOT DUP7 AND OR DUP2 MSTORE SWAP3 MLOAD DUP3 MLOAD PUSH1 0x0 SWAP5 DUP6 SWAP5 DUP6 SWAP5 DUP11 AND SWAP4 SWAP1 SWAP3 SWAP1 SWAP2 DUP3 SWAP2 DUP1 DUP4 DUP4 JUMPDEST PUSH1 0x20 DUP4 LT PUSH2 0x2D5F JUMPI DUP1 MLOAD DUP3 MSTORE PUSH1 0x1F NOT SWAP1 SWAP3 ADD SWAP2 PUSH1 0x20 SWAP2 DUP3 ADD SWAP2 ADD PUSH2 0x2D40 JUMP JUMPDEST PUSH1 0x1 DUP4 PUSH1 0x20 SUB PUSH2 0x100 EXP SUB DUP1 NOT DUP3 MLOAD AND DUP2 DUP5 MLOAD AND DUP1 DUP3 OR DUP6 MSTORE POP POP POP POP POP POP SWAP1 POP ADD SWAP2 POP POP PUSH1 0x0 PUSH1 0x40 MLOAD DUP1 DUP4 SUB DUP2 DUP6 GAS STATICCALL SWAP2 POP POP RETURNDATASIZE DUP1 PUSH1 0x0 DUP2 EQ PUSH2 0x2DBF JUMPI PUSH1 0x40 MLOAD SWAP2 POP PUSH1 0x1F NOT PUSH1 0x3F RETURNDATASIZE ADD AND DUP3 ADD PUSH1 0x40 MSTORE RETURNDATASIZE DUP3 MSTORE RETURNDATASIZE PUSH1 0x0 PUSH1 0x20 DUP5 ADD RETURNDATACOPY PUSH2 0x2DC4 JUMP JUMPDEST PUSH1 0x60 SWAP2 POP JUMPDEST POP SWAP2 POP SWAP2 POP DUP2 PUSH2 0x2DD3 JUMPI PUSH1 0x0 DUP1 REVERT JUMPDEST DUP1 DUP1 PUSH1 0x20 ADD SWAP1 MLOAD PUSH1 0x20 DUP2 LT ISZERO PUSH2 0x2DE8 JUMPI PUSH1 0x0 DUP1 REVERT JUMPDEST POP MLOAD SWAP7 SWAP6 POP POP POP POP POP POP JUMP JUMPDEST PUSH2 0x2DFC PUSH2 0x352E JUMP JUMPDEST SLOAD DUP3 MLOAD PUSH1 0x40 MLOAD PUSH4 0xE8EDA9DF PUSH1 0xE0 SHL DUP2 MSTORE PUSH1 0x1 PUSH1 0x1 PUSH1 0xA0 SHL SUB SWAP1 SWAP3 AND SWAP2 PUSH4 0xE8EDA9DF SWAP2 PUSH2 0x2E31 SWAP2 DUP6 SWAP1 ADDRESS SWAP1 PUSH1 0x0 SWAP1 PUSH1 0x4 ADD PUSH2 0x4868 JUMP JUMPDEST PUSH1 0x0 PUSH1 0x40 MLOAD DUP1 DUP4 SUB DUP2 PUSH1 0x0 DUP8 DUP1 EXTCODESIZE ISZERO DUP1 ISZERO PUSH2 0x2E4B JUMPI PUSH1 0x0 DUP1 REVERT JUMPDEST POP GAS CALL ISZERO DUP1 ISZERO PUSH2 0x2E5F JUMPI RETURNDATASIZE PUSH1 0x0 DUP1 RETURNDATACOPY RETURNDATASIZE PUSH1 0x0 REVERT JUMPDEST POP POP POP POP POP POP JUMP JUMPDEST DUP2 MLOAD PUSH1 0x40 MLOAD PUSH4 0x140E25AD PUSH1 0xE3 SHL DUP2 MSTORE PUSH1 0x0 SWAP2 PUSH1 0x1 PUSH1 0x1 PUSH1 0xA0 SHL SUB AND SWAP1 PUSH4 0xA0712D68 SWAP1 PUSH2 0x2E97 SWAP1 DUP6 SWAP1 PUSH1 0x4 ADD PUSH2 0x4994 JUMP JUMPDEST PUSH1 0x20 PUSH1 0x40 MLOAD DUP1 DUP4 SUB DUP2 PUSH1 0x0 DUP8 DUP1 EXTCODESIZE ISZERO DUP1 ISZERO PUSH2 0x2EB1 JUMPI PUSH1 0x0 DUP1 REVERT JUMPDEST POP GAS CALL ISZERO DUP1 ISZERO PUSH2 0x2EC5 JUMPI RETURNDATASIZE PUSH1 0x0 DUP1 RETURNDATACOPY RETURNDATASIZE PUSH1 0x0 REVERT JUMPDEST POP POP POP POP PUSH1 0x40 MLOAD RETURNDATASIZE PUSH1 0x1F NOT PUSH1 0x1F DUP3 ADD AND DUP3 ADD DUP1 PUSH1 0x40 MSTORE POP DUP2 ADD SWAP1 PUSH2 0x2EE9 SWAP2 SWAP1 PUSH2 0x469B JUMP JUMPDEST SWAP1 POP DUP1 ISZERO PUSH2 0x106F JUMPI PUSH1 0x40 MLOAD PUSH3 0x461BCD PUSH1 0xE5 SHL DUP2 MSTORE PUSH1 0x4 ADD PUSH2 0x2DB SWAP1 PUSH2 0x4AB8 JUMP JUMPDEST DUP2 PUSH1 0x0 ADD MLOAD PUSH1 0x1 PUSH1 0x1 PUSH1 0xA0 SHL SUB AND PUSH4 0x1249C58B DUP3 PUSH1 0x40 MLOAD DUP3 PUSH4 0xFFFFFFFF AND PUSH1 0xE0 SHL DUP2 MSTORE PUSH1 0x4 ADD PUSH1 0x0 PUSH1 0x40 MLOAD DUP1 DUP4 SUB DUP2 DUP6 DUP9 DUP1 EXTCODESIZE ISZERO DUP1 ISZERO PUSH2 0x2F48 JUMPI PUSH1 0x0 DUP1 REVERT JUMPDEST POP GAS CALL ISZERO DUP1 ISZERO PUSH2 0x1F4E JUMPI RETURNDATASIZE PUSH1 0x0 DUP1 RETURNDATACOPY RETURNDATASIZE PUSH1 0x0 REVERT JUMPDEST PUSH1 0x0 DUP3 DUP3 GT ISZERO PUSH2 0x1B1B JUMPI PUSH1 0x40 DUP1 MLOAD PUSH3 0x461BCD PUSH1 0xE5 SHL DUP2 MSTORE PUSH1 0x20 PUSH1 0x4 DUP3 ADD MSTORE PUSH1 0x1E PUSH1 0x24 DUP3 ADD MSTORE PUSH32 0x536166654D6174683A207375627472616374696F6E206F766572666C6F770000 PUSH1 0x44 DUP3 ADD MSTORE SWAP1 MLOAD SWAP1 DUP2 SWAP1 SUB PUSH1 0x64 ADD SWAP1 REVERT JUMPDEST PUSH1 0x0 DUP1 PUSH2 0xE33 PUSH1 0x14 PUSH2 0x2345 JUMP JUMPDEST PUSH2 0x2FC8 PUSH2 0x4274 JUMP JUMPDEST PUSH1 0x0 DUP1 PUSH1 0x0 PUSH2 0x230F DUP6 PUSH2 0x353B JUMP JUMPDEST PUSH2 0x2FDE PUSH2 0x4274 JUMP JUMPDEST PUSH1 0x0 DUP1 PUSH2 0x2FEB DUP6 DUP6 PUSH2 0x2647 JUMP JUMPDEST SWAP2 POP SWAP2 POP DUP2 PUSH1 0x0 EQ ISZERO PUSH2 0x3009 JUMPI PUSH2 0x3001 DUP6 PUSH2 0x353B JUMP JUMPDEST SWAP2 SWAP4 POP SWAP1 SWAP2 POP POP JUMPDEST PUSH1 0x40 DUP1 MLOAD PUSH1 0x60 DUP2 ADD DUP3 MSTORE PUSH1 0x0 DUP2 MSTORE PUSH1 0x20 DUP2 ADD SWAP4 SWAP1 SWAP4 MSTORE PUSH1 0xFF SWAP1 SWAP2 AND PUSH1 0xA EXP SWAP1 DUP3 ADD MSTORE SWAP1 POP SWAP3 SWAP2 POP POP JUMP JUMPDEST PUSH1 0x0 DUP2 PUSH2 0x3042 JUMPI POP PUSH1 0x0 PUSH2 0x12C4 JUMP JUMPDEST PUSH1 0x0 DUP1 PUSH2 0x304F DUP8 DUP6 PUSH2 0x35BE JUMP JUMPDEST SWAP2 POP SWAP2 POP PUSH1 0x0 PUSH2 0x306E DUP8 PUSH1 0x40 ADD MLOAD DUP9 PUSH1 0x0 ADD MLOAD DUP9 DUP6 DUP13 PUSH1 0x0 ADD MLOAD PUSH2 0x290B JUMP JUMPDEST SWAP1 POP PUSH2 0x308C PUSH2 0x307C DUP5 PUSH2 0x12EC JUMP JUMPDEST PUSH2 0x160 DUP10 ADD MLOAD PUSH2 0x17D6 SWAP1 DUP5 PUSH2 0x128D JUMP JUMPDEST SWAP9 SWAP8 POP POP POP POP POP POP POP POP JUMP JUMPDEST PUSH1 0x0 PUSH2 0x7DA PUSH2 0x30AB DUP5 PUSH4 0x3B9ACA00 PUSH2 0x2760 JUMP JUMPDEST DUP4 PUSH2 0x27AE JUMP JUMPDEST PUSH1 0x0 PUSH2 0xF03 DUP8 PUSH1 0x40 MLOAD DUP1 PUSH1 0xA0 ADD PUSH1 0x40 MSTORE DUP1 DUP10 PUSH1 0x1 PUSH1 0x1 PUSH1 0xA0 SHL SUB AND DUP2 MSTORE PUSH1 0x20 ADD DUP10 PUSH1 0x1 PUSH1 0x1 PUSH1 0xA0 SHL SUB AND DUP2 MSTORE PUSH1 0x20 ADD DUP9 DUP2 MSTORE PUSH1 0x20 ADD DUP8 DUP2 MSTORE PUSH1 0x20 ADD PUSH1 0x0 DUP2 MSTORE POP DUP6 DUP6 PUSH2 0x3617 JUMP JUMPDEST DUP1 PUSH1 0x5 DUP6 PUSH1 0x60 ADD MLOAD PUSH1 0x5 DUP2 GT ISZERO PUSH2 0x310B JUMPI INVALID JUMPDEST EQ ISZERO PUSH2 0x3130 JUMPI PUSH1 0x0 PUSH2 0x311C DUP5 PUSH2 0xFA3 JUMP JUMPDEST SWAP1 POP PUSH2 0x312C DUP2 PUSH1 0x0 ADD MLOAD DUP5 PUSH2 0x38C4 JUMP JUMPDEST SWAP3 POP POP JUMPDEST PUSH1 0x0 DUP3 SGT ISZERO PUSH2 0x315C JUMPI PUSH1 0x0 PUSH2 0x3146 DUP7 DUP7 DUP6 PUSH2 0x394A JUMP JUMPDEST SWAP1 POP DUP6 PUSH1 0x20 ADD MLOAD ISZERO PUSH2 0x3156 JUMPI DUP1 SWAP2 POP JUMPDEST POP PUSH2 0x12C4 JUMP JUMPDEST PUSH1 0x3 DUP6 PUSH1 0x60 ADD MLOAD PUSH1 0x5 DUP2 GT ISZERO PUSH2 0x316E JUMPI INVALID JUMPDEST EQ ISZERO PUSH2 0x318B JUMPI PUSH2 0x3186 DUP5 PUSH2 0x3181 DUP5 PUSH2 0x127F JUMP JUMPDEST PUSH2 0x3A3D JUMP JUMPDEST PUSH2 0x12C4 JUMP JUMPDEST DUP5 MLOAD PUSH2 0x12C4 SWAP1 DUP6 PUSH2 0x319B DUP6 PUSH2 0x127F JUMP JUMPDEST PUSH2 0x3A73 JUMP JUMPDEST PUSH1 0x0 DUP1 PUSH1 0x2 DUP7 PUSH1 0x60 ADD MLOAD PUSH1 0x5 DUP2 GT ISZERO PUSH2 0x31B5 JUMPI INVALID JUMPDEST EQ ISZERO PUSH2 0x31CD JUMPI PUSH2 0x31C6 DUP7 DUP6 DUP6 PUSH2 0x3AEA JUMP JUMPDEST SWAP1 POP PUSH2 0x322A JUMP JUMPDEST PUSH1 0x0 PUSH2 0x31D8 DUP7 PUSH2 0xFA3 JUMP JUMPDEST SWAP1 POP PUSH1 0x5 DUP8 PUSH1 0x60 ADD MLOAD PUSH1 0x5 DUP2 GT ISZERO PUSH2 0x31EC JUMPI INVALID JUMPDEST EQ ISZERO PUSH2 0x3204 JUMPI PUSH2 0x31FD DUP2 DUP7 DUP7 PUSH2 0x3BA7 JUMP JUMPDEST SWAP2 POP PUSH2 0x3228 JUMP JUMPDEST PUSH1 0x1 DUP8 PUSH1 0x60 ADD MLOAD PUSH1 0x5 DUP2 GT ISZERO PUSH2 0x3216 JUMPI INVALID JUMPDEST EQ ISZERO PUSH2 0x116 JUMPI PUSH2 0x31FD DUP8 DUP3 DUP8 DUP8 PUSH2 0x3C58 JUMP JUMPDEST POP JUMPDEST PUSH2 0xF07 PUSH2 0x88E DUP3 PUSH2 0x12EC JUMP JUMPDEST PUSH1 0x0 DUP1 PUSH2 0xE33 PUSH1 0x7 PUSH2 0x2345 JUMP JUMPDEST PUSH1 0x0 DUP1 PUSH1 0x0 PUSH2 0x3250 PUSH2 0x3D56 JUMP JUMPDEST PUSH1 0x0 SWAP5 DUP6 MSTORE PUSH1 0x20 MSTORE POP POP PUSH1 0x40 SWAP1 SWAP2 KECCAK256 SLOAD PUSH1 0x1 PUSH1 0x1 PUSH1 0xA0 SHL SUB DUP2 AND SWAP3 PUSH1 0x1 PUSH1 0xA0 SHL SWAP1 SWAP2 DIV PUSH1 0xFF AND SWAP2 POP JUMP JUMPDEST PUSH1 0x0 DUP1 PUSH2 0xE33 PUSH1 0x6 PUSH2 0x2345 JUMP JUMPDEST PUSH1 0x8 DUP2 SWAP1 SHR PUSH1 0xFF SWAP1 SWAP2 AND SHL SWAP1 JUMP JUMPDEST PUSH1 0x0 PUSH2 0x329F PUSH2 0x327A JUMP JUMPDEST PUSH1 0x1 PUSH1 0x1 PUSH1 0xA0 SHL SUB DUP9 AND PUSH1 0x0 SWAP1 DUP2 MSTORE PUSH1 0x20 DUP3 DUP2 MSTORE PUSH1 0x40 DUP1 DUP4 KECCAK256 DUP11 DUP5 MSTORE SWAP1 SWAP2 MSTORE SWAP1 KECCAK256 SWAP1 SWAP2 POP PUSH11 0x7FFFFFFFFFFFFFFFFFFFFF NOT DUP7 SLT DUP1 ISZERO SWAP1 PUSH2 0x32EA JUMPI POP PUSH11 0x7FFFFFFFFFFFFFFFFFFFFF DUP7 SGT ISZERO JUMPDEST PUSH2 0x32F3 JUMPI PUSH1 0x0 DUP1 REVERT JUMPDEST PUSH1 0x0 DUP6 SLT ISZERO DUP1 ISZERO PUSH2 0x330B JUMPI POP PUSH1 0x1 PUSH1 0x1 PUSH1 0x50 SHL SUB DUP6 SGT ISZERO JUMPDEST PUSH2 0x3314 JUMPI PUSH1 0x0 DUP1 REVERT JUMPDEST DUP4 PUSH2 0x3354 JUMPI PUSH7 0xFFFFFFFFFFFFFF DUP4 GT ISZERO PUSH2 0x332D JUMPI PUSH1 0x0 DUP1 REVERT JUMPDEST DUP1 SLOAD PUSH7 0xFFFFFFFFFFFFFF PUSH1 0x70 SHL NOT AND PUSH1 0x1 PUSH1 0x70 SHL PUSH7 0xFFFFFFFFFFFFFF DUP6 AND MUL OR DUP2 SSTORE PUSH2 0x336E JUMP JUMPDEST DUP1 SLOAD PUSH1 0x1 PUSH1 0x50 SHL SWAP1 DIV PUSH4 0xFFFFFFFF AND DUP5 EQ PUSH2 0x336E JUMPI PUSH1 0x0 DUP1 REVERT JUMPDEST DUP1 SLOAD PUSH1 0xA SWAP7 SWAP1 SWAP7 SIGNEXTEND PUSH11 0xFFFFFFFFFFFFFFFFFFFFFF AND PUSH1 0x1 PUSH1 0xA8 SHL MUL PUSH1 0x1 PUSH1 0x1 PUSH1 0xA8 SHL SUB PUSH1 0x1 PUSH1 0x1 PUSH1 0x50 SHL SUB SWAP1 SWAP7 AND PUSH1 0x1 PUSH1 0x1 PUSH1 0x50 SHL SUB NOT PUSH4 0xFFFFFFFF SWAP1 SWAP7 AND PUSH1 0x1 PUSH1 0x50 SHL MUL PUSH4 0xFFFFFFFF PUSH1 0x50 SHL NOT SWAP1 SWAP9 AND SWAP8 SWAP1 SWAP8 OR SWAP5 SWAP1 SWAP5 AND SWAP6 SWAP1 SWAP6 OR SWAP4 SWAP1 SWAP4 AND SWAP2 SWAP1 SWAP2 OR SWAP1 SWAP3 SSTORE POP POP POP POP JUMP JUMPDEST PUSH1 0x0 PUSH4 0x5F5E100 DUP4 PUSH1 0x40 ADD MLOAD EQ ISZERO PUSH2 0x33F5 JUMPI POP DUP1 PUSH2 0xE33 JUMP JUMPDEST PUSH1 0x40 DUP4 ADD MLOAD PUSH2 0x7DA SWAP1 PUSH2 0x12BE DUP5 PUSH4 0x5F5E100 PUSH2 0x2760 JUMP JUMPDEST PUSH1 0x0 PUSH4 0xFFFFFFFF DUP3 GT ISZERO PUSH2 0x12DB JUMPI PUSH1 0x0 DUP1 REVERT JUMPDEST PUSH1 0x0 DUP1 PUSH2 0x342E DUP9 DUP9 DUP7 DUP7 PUSH2 0x3D63 JUMP JUMPDEST SWAP1 POP PUSH1 0x0 PUSH2 0x343B DUP8 PUSH2 0x3DD2 JUMP JUMPDEST SWAP1 POP PUSH11 0xFFFFFFFFFFFFFFFFFFFFFF DUP2 LT PUSH2 0x3454 JUMPI PUSH1 0x0 DUP1 REVERT JUMPDEST PUSH1 0x0 PUSH1 0x78 DUP8 PUSH4 0xFFFFFFFF AND SWAP1 SHL PUSH1 0x98 DUP4 SWAP1 SHL PUSH1 0xF0 DUP6 SWAP1 SHL PUSH1 0xF8 PUSH1 0x0 DUP13 SGT PUSH2 0x347C JUMPI PUSH1 0x1 PUSH2 0x347F JUMP JUMPDEST PUSH1 0x0 JUMPDEST PUSH1 0x5 DUP2 GT ISZERO PUSH2 0x348A JUMPI INVALID JUMPDEST PUSH1 0xFF AND SWAP1 SHL OR OR OR PUSH1 0x0 SHL SWAP1 POP PUSH20 0x0 PUSH4 0xE50F349E DUP12 DUP4 PUSH1 0x40 MLOAD DUP4 PUSH4 0xFFFFFFFF AND PUSH1 0xE0 SHL DUP2 MSTORE PUSH1 0x4 ADD PUSH2 0x34D0 SWAP3 SWAP2 SWAP1 PUSH2 0x4EB0 JUMP JUMPDEST PUSH1 0x20 PUSH1 0x40 MLOAD DUP1 DUP4 SUB DUP2 DUP7 DUP1 EXTCODESIZE ISZERO DUP1 ISZERO PUSH2 0x34E8 JUMPI PUSH1 0x0 DUP1 REVERT JUMPDEST POP GAS DELEGATECALL ISZERO DUP1 ISZERO PUSH2 0x34FC JUMPI RETURNDATASIZE PUSH1 0x0 DUP1 RETURNDATACOPY RETURNDATASIZE PUSH1 0x0 REVERT JUMPDEST POP POP POP POP PUSH1 0x40 MLOAD RETURNDATASIZE PUSH1 0x1F NOT PUSH1 0x1F DUP3 ADD AND DUP3 ADD DUP1 PUSH1 0x40 MSTORE POP DUP2 ADD SWAP1 PUSH2 0x3520 SWAP2 SWAP1 PUSH2 0x469B JUMP JUMPDEST SWAP11 SWAP10 POP POP POP POP POP POP POP POP POP POP JUMP JUMPDEST PUSH1 0x0 DUP1 PUSH2 0xE33 PUSH1 0x13 PUSH2 0x2345 JUMP JUMPDEST PUSH1 0x0 DUP1 PUSH1 0x0 DUP1 PUSH1 0x0 PUSH2 0x354C DUP7 PUSH2 0x3243 JUMP JUMPDEST SWAP1 SWAP3 POP SWAP1 POP PUSH1 0x0 PUSH1 0x1 PUSH1 0x1 PUSH1 0xA0 SHL SUB DUP4 AND PUSH2 0x3571 JUMPI POP PUSH1 0x0 SWAP1 POP PUSH5 0x2540BE400 PUSH2 0x2748 JUMP JUMPDEST DUP3 PUSH1 0x1 PUSH1 0x1 PUSH1 0xA0 SHL SUB AND PUSH4 0xB2FFFB04 PUSH1 0x40 MLOAD DUP2 PUSH4 0xFFFFFFFF AND PUSH1 0xE0 SHL DUP2 MSTORE PUSH1 0x4 ADD PUSH1 0x20 PUSH1 0x40 MLOAD DUP1 DUP4 SUB DUP2 DUP7 DUP1 EXTCODESIZE ISZERO DUP1 ISZERO PUSH2 0x35AA JUMPI PUSH1 0x0 DUP1 REVERT JUMPDEST POP GAS STATICCALL ISZERO DUP1 ISZERO PUSH2 0x2715 JUMPI RETURNDATASIZE PUSH1 0x0 DUP1 RETURNDATACOPY RETURNDATASIZE PUSH1 0x0 REVERT JUMPDEST PUSH1 0x0 DUP1 PUSH1 0x0 DUP5 PUSH1 0x60 ADD MLOAD GT ISZERO PUSH2 0xAA8 JUMPI PUSH2 0x35ED DUP5 PUSH1 0x60 ADD MLOAD PUSH2 0x18DB DUP7 PUSH1 0x80 ADD MLOAD DUP7 PUSH2 0x2A0F SWAP1 SWAP2 SWAP1 PUSH4 0xFFFFFFFF AND JUMP JUMPDEST SWAP2 POP PUSH2 0x360E DUP5 PUSH1 0x60 ADD MLOAD PUSH2 0x18DB DUP7 PUSH1 0xA0 ADD MLOAD DUP7 PUSH2 0x2A0F SWAP1 SWAP2 SWAP1 PUSH4 0xFFFFFFFF AND JUMP JUMPDEST SWAP1 POP SWAP3 POP SWAP3 SWAP1 POP JUMP JUMPDEST PUSH1 0x0 DUP1 PUSH1 0x0 PUSH2 0x362D DUP8 PUSH1 0x40 ADD MLOAD PUSH2 0xFFFF AND PUSH2 0xF8B JUMP JUMPDEST SWAP1 POP PUSH1 0x0 PUSH1 0x4 DUP3 PUSH1 0x60 ADD MLOAD PUSH1 0x5 DUP2 GT ISZERO PUSH2 0x3643 JUMPI INVALID JUMPDEST EQ PUSH2 0x365E JUMPI PUSH2 0x3659 DUP9 PUSH1 0x40 ADD MLOAD PUSH2 0xFFFF AND PUSH2 0xFA3 JUMP JUMPDEST PUSH2 0x3660 JUMP JUMPDEST DUP2 JUMPDEST SWAP1 POP PUSH1 0x0 DUP1 DUP9 PUSH1 0x80 ADD MLOAD SLT ISZERO PUSH2 0x36D3 JUMPI PUSH1 0x4 DUP4 PUSH1 0x60 ADD MLOAD PUSH1 0x5 DUP2 GT ISZERO PUSH2 0x3682 JUMPI INVALID JUMPDEST EQ ISZERO PUSH2 0x369F JUMPI PUSH2 0x3698 PUSH2 0x638 DUP10 PUSH1 0x80 ADD MLOAD PUSH2 0x127F JUMP JUMPDEST SWAP1 POP PUSH2 0x36D3 JUMP JUMPDEST PUSH1 0x0 PUSH2 0x36C0 PUSH2 0x88E DUP11 PUSH1 0x80 ADD MLOAD DUP13 PUSH2 0x160 ADD MLOAD PUSH2 0x19FB SWAP1 SWAP2 SWAP1 PUSH4 0xFFFFFFFF AND JUMP JUMPDEST SWAP1 POP PUSH2 0x36CF PUSH2 0x638 DUP5 DUP4 PUSH2 0x1A26 JUMP JUMPDEST SWAP2 POP POP JUMPDEST PUSH1 0x40 DUP9 ADD MLOAD PUSH1 0x0 SWAP1 ISZERO PUSH2 0x37AB JUMPI PUSH1 0x0 PUSH2 0x36EC DUP5 ADDRESS PUSH2 0x1A62 JUMP JUMPDEST SWAP1 POP DUP11 PUSH1 0x0 ADD MLOAD PUSH1 0x1 PUSH1 0x1 PUSH1 0xA0 SHL SUB AND PUSH4 0x44F05108 DUP12 PUSH1 0x0 ADD MLOAD DUP13 PUSH1 0x20 ADD MLOAD DUP14 PUSH1 0x40 ADD MLOAD DUP15 PUSH1 0x60 ADD MLOAD DUP9 DUP16 DUP16 PUSH1 0x40 MLOAD DUP9 PUSH4 0xFFFFFFFF AND PUSH1 0xE0 SHL DUP2 MSTORE PUSH1 0x4 ADD PUSH2 0x373A SWAP8 SWAP7 SWAP6 SWAP5 SWAP4 SWAP3 SWAP2 SWAP1 PUSH2 0x47FA JUMP JUMPDEST PUSH1 0x20 PUSH1 0x40 MLOAD DUP1 DUP4 SUB DUP2 PUSH1 0x0 DUP8 DUP1 EXTCODESIZE ISZERO DUP1 ISZERO PUSH2 0x3754 JUMPI PUSH1 0x0 DUP1 REVERT JUMPDEST POP GAS CALL ISZERO DUP1 ISZERO PUSH2 0x3768 JUMPI RETURNDATASIZE PUSH1 0x0 DUP1 RETURNDATACOPY RETURNDATASIZE PUSH1 0x0 REVERT JUMPDEST POP POP POP POP PUSH1 0x40 MLOAD RETURNDATASIZE PUSH1 0x1F NOT PUSH1 0x1F DUP3 ADD AND DUP3 ADD DUP1 PUSH1 0x40 MSTORE POP DUP2 ADD SWAP1 PUSH2 0x378C SWAP2 SWAP1 PUSH2 0x469B JUMP JUMPDEST SWAP6 POP PUSH1 0x0 PUSH2 0x379A DUP6 ADDRESS PUSH2 0x1A62 JUMP JUMPDEST SWAP1 POP PUSH2 0x37A6 DUP2 DUP4 PUSH2 0x1B0C JUMP JUMPDEST SWAP3 POP POP POP JUMPDEST DUP2 DUP2 LT ISZERO PUSH2 0x3846 JUMPI DUP1 DUP3 SUB PUSH1 0x3 DUP5 PUSH1 0x60 ADD MLOAD PUSH1 0x5 DUP2 GT ISZERO PUSH2 0x37C8 JUMPI INVALID JUMPDEST EQ ISZERO PUSH2 0x3806 JUMPI CALLVALUE DUP2 GT ISZERO PUSH2 0x37EE JUMPI PUSH1 0x40 MLOAD PUSH3 0x461BCD PUSH1 0xE5 SHL DUP2 MSTORE PUSH1 0x4 ADD PUSH2 0x2DB SWAP1 PUSH2 0x4B1D JUMP JUMPDEST PUSH2 0x37FE DUP11 PUSH1 0x0 ADD MLOAD DUP3 CALLVALUE SUB PUSH2 0x3A3D JUMP JUMPDEST DUP3 SWAP2 POP PUSH2 0x3844 JUMP JUMPDEST PUSH1 0x0 PUSH2 0x382B DUP12 PUSH1 0x0 ADD MLOAD DUP14 PUSH1 0x40 ADD MLOAD PUSH2 0xFFFF AND PUSH2 0x3822 DUP6 PUSH2 0x12EC JUMP JUMPDEST DUP9 SWAP3 SWAP2 SWAP1 PUSH2 0x30F8 JUMP JUMPDEST SWAP1 POP PUSH2 0x3840 PUSH2 0x3839 DUP3 PUSH2 0x12CC JUMP JUMPDEST DUP5 SWAP1 PUSH2 0x142A JUMP JUMPDEST SWAP3 POP POP JUMPDEST POP JUMPDEST DUP2 DUP2 LT ISZERO PUSH2 0x3866 JUMPI PUSH1 0x40 MLOAD PUSH3 0x461BCD PUSH1 0xE5 SHL DUP2 MSTORE PUSH1 0x4 ADD PUSH2 0x2DB SWAP1 PUSH2 0x4B1D JUMP JUMPDEST PUSH1 0x0 PUSH1 0x4 DUP6 PUSH1 0x60 ADD MLOAD PUSH1 0x5 DUP2 GT ISZERO PUSH2 0x387A JUMPI INVALID JUMPDEST EQ ISZERO PUSH2 0x3890 JUMPI PUSH2 0x3889 DUP3 PUSH2 0x12EC JUMP JUMPDEST SWAP1 POP PUSH2 0x38AA JUMP JUMPDEST DUP2 ISZERO PUSH2 0x38AA JUMPI PUSH1 0x40 DUP12 ADD MLOAD PUSH2 0x38A7 SWAP1 DUP7 SWAP1 DUP5 PUSH2 0x1B21 JUMP JUMPDEST SWAP1 POP JUMPDEST PUSH2 0x38B4 DUP6 DUP3 PUSH2 0x33DC JUMP JUMPDEST SWAP7 POP POP POP POP POP POP SWAP5 POP SWAP5 SWAP3 POP POP POP JUMP JUMPDEST PUSH1 0x0 DUP2 PUSH2 0x38D3 JUMPI POP PUSH1 0x0 PUSH2 0xE33 JUMP JUMPDEST PUSH1 0x0 PUSH2 0x38DE DUP5 PUSH2 0x3DF3 JUMP JUMPDEST SWAP1 POP PUSH1 0x0 PUSH2 0x38EB DUP5 PUSH2 0x3DD2 JUMP JUMPDEST SWAP1 POP DUP2 PUSH12 0x19D971E4FE8401E74000001 PUSH1 0x1 PUSH1 0xFF SHL SUB DUP2 PUSH2 0x3908 JUMPI INVALID JUMPDEST SDIV DUP2 SGT ISZERO PUSH2 0x3915 JUMPI PUSH1 0x0 DUP1 REVERT JUMPDEST PUSH12 0x33B2E3C9FD0803CE8000000 PUSH12 0x19D971E4FE8401E74000000 DUP4 DUP4 MUL ADD SDIV PUSH1 0x0 DUP6 SGT PUSH2 0x29C9 JUMPI PUSH2 0x3945 DUP2 PUSH2 0x127F JUMP JUMPDEST PUSH2 0xF07 JUMP JUMPDEST PUSH1 0x0 DUP1 DUP1 DUP1 PUSH1 0x5 DUP8 PUSH1 0x60 ADD MLOAD PUSH1 0x5 DUP2 GT ISZERO PUSH2 0x3961 JUMPI INVALID JUMPDEST EQ PUSH2 0x3973 JUMPI PUSH4 0x70A08231 PUSH1 0xE0 SHL PUSH2 0x397C JUMP JUMPDEST PUSH4 0xED1279F PUSH1 0xE1 SHL JUMPDEST SWAP1 POP DUP7 PUSH1 0x20 ADD MLOAD ISZERO PUSH2 0x3998 JUMPI DUP7 MLOAD PUSH2 0x3995 SWAP1 ADDRESS DUP4 PUSH2 0x2CE2 JUMP JUMPDEST SWAP3 POP JUMPDEST DUP7 MLOAD PUSH2 0x39A5 SWAP1 DUP8 DUP8 PUSH2 0x3E7E JUMP JUMPDEST DUP7 PUSH1 0x20 ADD MLOAD DUP1 PUSH2 0x39B9 JUMPI POP PUSH1 0x0 DUP8 PUSH1 0x80 ADD MLOAD GT JUMPDEST ISZERO PUSH2 0x39CE JUMPI DUP7 MLOAD PUSH2 0x39CB SWAP1 ADDRESS DUP4 PUSH2 0x2CE2 JUMP JUMPDEST SWAP2 POP JUMPDEST PUSH1 0x80 DUP8 ADD MLOAD ISZERO PUSH2 0x3A09 JUMPI PUSH1 0x0 PUSH2 0x39EC DUP9 PUSH2 0x39E7 DUP6 PUSH2 0x12EC JUMP JUMPDEST PUSH2 0x33DC JUMP JUMPDEST SWAP1 POP PUSH2 0x39FB DUP9 PUSH1 0x80 ADD MLOAD PUSH2 0x12EC JUMP JUMPDEST DUP2 SGT ISZERO PUSH2 0x3A07 JUMPI PUSH1 0x0 DUP1 REVERT JUMPDEST POP JUMPDEST DUP7 PUSH1 0x20 ADD MLOAD ISZERO PUSH2 0x3A2A JUMPI PUSH2 0x3A20 PUSH2 0x18E1 DUP4 DUP6 PUSH2 0x2F5C JUMP JUMPDEST SWAP4 POP POP POP POP PUSH2 0x7DA JUMP JUMPDEST PUSH2 0x3A20 DUP6 PUSH2 0x12EC JUMP JUMPDEST POP POP POP SWAP4 SWAP3 POP POP POP JUMP JUMPDEST PUSH1 0x40 MLOAD PUSH1 0x1 PUSH1 0x1 PUSH1 0xA0 SHL SUB DUP4 AND SWAP1 DUP3 ISZERO PUSH2 0x8FC MUL SWAP1 DUP4 SWAP1 PUSH1 0x0 DUP2 DUP2 DUP2 DUP6 DUP9 DUP9 CALL SWAP4 POP POP POP POP ISZERO DUP1 ISZERO PUSH2 0x106F JUMPI RETURNDATASIZE PUSH1 0x0 DUP1 RETURNDATACOPY RETURNDATASIZE PUSH1 0x0 REVERT JUMPDEST DUP3 PUSH1 0x1 PUSH1 0x1 PUSH1 0xA0 SHL SUB AND PUSH4 0xA9059CBB DUP4 DUP4 PUSH1 0x40 MLOAD DUP4 PUSH4 0xFFFFFFFF AND PUSH1 0xE0 SHL DUP2 MSTORE PUSH1 0x4 ADD DUP1 DUP4 PUSH1 0x1 PUSH1 0x1 PUSH1 0xA0 SHL SUB AND DUP2 MSTORE PUSH1 0x20 ADD DUP3 DUP2 MSTORE PUSH1 0x20 ADD SWAP3 POP POP POP PUSH1 0x0 PUSH1 0x40 MLOAD DUP1 DUP4 SUB DUP2 PUSH1 0x0 DUP8 DUP1 EXTCODESIZE ISZERO DUP1 ISZERO PUSH2 0x3ACA JUMPI PUSH1 0x0 DUP1 REVERT JUMPDEST POP GAS CALL ISZERO DUP1 ISZERO PUSH2 0x3ADE JUMPI RETURNDATASIZE PUSH1 0x0 DUP1 RETURNDATACOPY RETURNDATASIZE PUSH1 0x0 REVERT JUMPDEST POP POP POP POP PUSH2 0x106F PUSH2 0x3ED6 JUMP JUMPDEST DUP3 MLOAD PUSH1 0x40 MLOAD PUSH4 0xDB006A75 PUSH1 0xE0 SHL DUP2 MSTORE PUSH1 0x0 SWAP2 SELFBALANCE SWAP2 DUP4 SWAP2 PUSH1 0x1 PUSH1 0x1 PUSH1 0xA0 SHL SUB AND SWAP1 PUSH4 0xDB006A75 SWAP1 PUSH2 0x3B1E SWAP1 DUP8 SWAP1 PUSH1 0x4 ADD PUSH2 0x4994 JUMP JUMPDEST PUSH1 0x20 PUSH1 0x40 MLOAD DUP1 DUP4 SUB DUP2 PUSH1 0x0 DUP8 DUP1 EXTCODESIZE ISZERO DUP1 ISZERO PUSH2 0x3B38 JUMPI PUSH1 0x0 DUP1 REVERT JUMPDEST POP GAS CALL ISZERO DUP1 ISZERO PUSH2 0x3B4C JUMPI RETURNDATASIZE PUSH1 0x0 DUP1 RETURNDATACOPY RETURNDATASIZE PUSH1 0x0 REVERT JUMPDEST POP POP POP POP PUSH1 0x40 MLOAD RETURNDATASIZE PUSH1 0x1F NOT PUSH1 0x1F DUP3 ADD AND DUP3 ADD DUP1 PUSH1 0x40 MSTORE POP DUP2 ADD SWAP1 PUSH2 0x3B70 SWAP2 SWAP1 PUSH2 0x469B JUMP JUMPDEST SWAP1 POP DUP1 ISZERO PUSH2 0x3B90 JUMPI PUSH1 0x40 MLOAD PUSH3 0x461BCD PUSH1 0xE5 SHL DUP2 MSTORE PUSH1 0x4 ADD PUSH2 0x2DB SWAP1 PUSH2 0x4AD6 JUMP JUMPDEST SELFBALANCE PUSH2 0x3B9B DUP2 DUP5 PUSH2 0x2F5C JUMP JUMPDEST SWAP4 POP PUSH2 0x3A33 DUP7 DUP6 PUSH2 0x3A3D JUMP JUMPDEST PUSH1 0x0 PUSH2 0x3BC2 PUSH2 0x638 DUP6 PUSH1 0x0 ADD MLOAD PUSH2 0x3BBD DUP6 PUSH2 0x12EC JUMP JUMPDEST PUSH2 0x38C4 JUMP JUMPDEST SWAP1 POP PUSH2 0x3BCC PUSH2 0x352E JUMP JUMPDEST SLOAD DUP5 MLOAD PUSH1 0x40 MLOAD PUSH4 0x1A4CA37B PUSH1 0xE2 SHL DUP2 MSTORE PUSH1 0x1 PUSH1 0x1 PUSH1 0xA0 SHL SUB SWAP1 SWAP3 AND SWAP2 PUSH4 0x69328DEC SWAP2 PUSH2 0x3BFE SWAP2 DUP6 SWAP1 DUP9 SWAP1 PUSH1 0x4 ADD PUSH2 0x4845 JUMP JUMPDEST PUSH1 0x20 PUSH1 0x40 MLOAD DUP1 DUP4 SUB DUP2 PUSH1 0x0 DUP8 DUP1 EXTCODESIZE ISZERO DUP1 ISZERO PUSH2 0x3C18 JUMPI PUSH1 0x0 DUP1 REVERT JUMPDEST POP GAS CALL ISZERO DUP1 ISZERO PUSH2 0x3C2C JUMPI RETURNDATASIZE PUSH1 0x0 DUP1 RETURNDATACOPY RETURNDATASIZE PUSH1 0x0 REVERT JUMPDEST POP POP POP POP PUSH1 0x40 MLOAD RETURNDATASIZE PUSH1 0x1F NOT PUSH1 0x1F DUP3 ADD AND DUP3 ADD DUP1 PUSH1 0x40 MSTORE POP DUP2 ADD SWAP1 PUSH2 0x3C50 SWAP2 SWAP1 PUSH2 0x469B JUMP JUMPDEST POP SWAP4 SWAP3 POP POP POP JUMP JUMPDEST DUP3 MLOAD PUSH1 0x0 SWAP1 DUP2 SWAP1 PUSH2 0x3C71 SWAP1 ADDRESS PUSH4 0x70A08231 PUSH1 0xE0 SHL PUSH2 0x2CE2 JUMP JUMPDEST SWAP1 POP PUSH1 0x0 DUP7 PUSH1 0x0 ADD MLOAD PUSH1 0x1 PUSH1 0x1 PUSH1 0xA0 SHL SUB AND PUSH4 0xDB006A75 DUP6 PUSH1 0x40 MLOAD DUP3 PUSH4 0xFFFFFFFF AND PUSH1 0xE0 SHL DUP2 MSTORE PUSH1 0x4 ADD PUSH2 0x3CA5 SWAP2 SWAP1 PUSH2 0x4994 JUMP JUMPDEST PUSH1 0x20 PUSH1 0x40 MLOAD DUP1 DUP4 SUB DUP2 PUSH1 0x0 DUP8 DUP1 EXTCODESIZE ISZERO DUP1 ISZERO PUSH2 0x3CBF JUMPI PUSH1 0x0 DUP1 REVERT JUMPDEST POP GAS CALL ISZERO DUP1 ISZERO PUSH2 0x3CD3 JUMPI RETURNDATASIZE PUSH1 0x0 DUP1 RETURNDATACOPY RETURNDATASIZE PUSH1 0x0 REVERT JUMPDEST POP POP POP POP PUSH1 0x40 MLOAD RETURNDATASIZE PUSH1 0x1F NOT PUSH1 0x1F DUP3 ADD AND DUP3 ADD DUP1 PUSH1 0x40 MSTORE POP DUP2 ADD SWAP1 PUSH2 0x3CF7 SWAP2 SWAP1 PUSH2 0x469B JUMP JUMPDEST SWAP1 POP DUP1 ISZERO PUSH2 0x3D17 JUMPI PUSH1 0x40 MLOAD PUSH3 0x461BCD PUSH1 0xE5 SHL DUP2 MSTORE PUSH1 0x4 ADD PUSH2 0x2DB SWAP1 PUSH2 0x4AD6 JUMP JUMPDEST DUP6 MLOAD PUSH1 0x0 SWAP1 PUSH2 0x3D2E SWAP1 ADDRESS PUSH4 0x70A08231 PUSH1 0xE0 SHL PUSH2 0x2CE2 JUMP JUMPDEST SWAP1 POP PUSH2 0x3D3A DUP2 DUP5 PUSH2 0x2F5C JUMP JUMPDEST SWAP4 POP PUSH2 0x3D4B DUP8 PUSH1 0x0 ADD MLOAD DUP8 DUP7 PUSH2 0x3A73 JUMP JUMPDEST POP POP POP SWAP5 SWAP4 POP POP POP POP JUMP JUMPDEST PUSH1 0x0 DUP1 PUSH2 0xE33 PUSH1 0xF PUSH2 0x2345 JUMP JUMPDEST PUSH1 0x0 DUP1 PUSH1 0x0 PUSH2 0x3D75 DUP8 PUSH2 0xFFFF AND PUSH2 0x3F47 JUMP JUMPDEST SWAP1 POP PUSH2 0x3D85 DUP2 PUSH1 0xFF AND DUP8 DUP7 PUSH2 0x3F5D JUMP JUMPDEST SWAP1 SWAP4 POP SWAP2 POP DUP5 DUP4 GT ISZERO PUSH2 0x3DAA JUMPI PUSH1 0x40 MLOAD PUSH3 0x461BCD PUSH1 0xE5 SHL DUP2 MSTORE PUSH1 0x4 ADD PUSH2 0x2DB SWAP1 PUSH2 0x4BA3 JUMP JUMPDEST DUP2 ISZERO PUSH2 0x3DC8 JUMPI PUSH1 0x40 MLOAD PUSH3 0x461BCD PUSH1 0xE5 SHL DUP2 MSTORE PUSH1 0x4 ADD PUSH2 0x2DB SWAP1 PUSH2 0x4BA3 JUMP JUMPDEST POP POP SWAP5 SWAP4 POP POP POP POP JUMP JUMPDEST PUSH1 0x0 DUP1 DUP3 SLT ISZERO PUSH2 0x3DEC JUMPI PUSH2 0x3DE5 DUP3 PUSH2 0x127F JUMP JUMPDEST SWAP1 POP PUSH2 0xF9E JUMP JUMPDEST POP DUP1 PUSH2 0xF9E JUMP JUMPDEST PUSH1 0x0 PUSH2 0xE33 PUSH2 0x3E00 PUSH2 0x352E JUMP JUMPDEST SLOAD PUSH1 0x40 MLOAD PUSH4 0xD15E0053 PUSH1 0xE0 SHL DUP2 MSTORE PUSH1 0x1 PUSH1 0x1 PUSH1 0xA0 SHL SUB SWAP1 SWAP2 AND SWAP1 PUSH4 0xD15E0053 SWAP1 PUSH2 0x3E2E SWAP1 DUP7 SWAP1 PUSH1 0x4 ADD PUSH2 0x47E6 JUMP JUMPDEST PUSH1 0x20 PUSH1 0x40 MLOAD DUP1 DUP4 SUB DUP2 DUP7 DUP1 EXTCODESIZE ISZERO DUP1 ISZERO PUSH2 0x3E46 JUMPI PUSH1 0x0 DUP1 REVERT JUMPDEST POP GAS STATICCALL ISZERO DUP1 ISZERO PUSH2 0x3E5A JUMPI RETURNDATASIZE PUSH1 0x0 DUP1 RETURNDATACOPY RETURNDATASIZE PUSH1 0x0 REVERT JUMPDEST POP POP POP POP PUSH1 0x40 MLOAD RETURNDATASIZE PUSH1 0x1F NOT PUSH1 0x1F DUP3 ADD AND DUP3 ADD DUP1 PUSH1 0x40 MSTORE POP DUP2 ADD SWAP1 PUSH2 0x18E1 SWAP2 SWAP1 PUSH2 0x469B JUMP JUMPDEST PUSH1 0x40 DUP1 MLOAD PUSH4 0x23B872DD PUSH1 0xE0 SHL DUP2 MSTORE PUSH1 0x1 PUSH1 0x1 PUSH1 0xA0 SHL SUB DUP5 DUP2 AND PUSH1 0x4 DUP4 ADD MSTORE ADDRESS PUSH1 0x24 DUP4 ADD MSTORE PUSH1 0x44 DUP3 ADD DUP5 SWAP1 MSTORE SWAP2 MLOAD SWAP2 DUP6 AND SWAP2 PUSH4 0x23B872DD SWAP2 PUSH1 0x64 DUP1 DUP3 ADD SWAP3 PUSH1 0x0 SWAP3 SWAP1 SWAP2 SWAP1 DUP3 SWAP1 SUB ADD DUP2 DUP4 DUP8 DUP1 EXTCODESIZE ISZERO DUP1 ISZERO PUSH2 0x3ACA JUMPI PUSH1 0x0 DUP1 REVERT JUMPDEST PUSH1 0x0 PUSH2 0x3EE0 PUSH2 0x429E JUMP JUMPDEST RETURNDATASIZE DUP1 ISZERO PUSH2 0x3EF4 JUMPI PUSH1 0x20 DUP2 EQ PUSH2 0x3EFD JUMPI PUSH1 0x0 DUP1 REVERT JUMPDEST PUSH1 0x1 SWAP3 POP PUSH2 0x3F08 JUMP JUMPDEST PUSH1 0x20 PUSH1 0x0 DUP4 RETURNDATACOPY DUP2 MLOAD SWAP3 POP JUMPDEST POP DUP2 PUSH2 0x3F43 JUMPI PUSH1 0x40 DUP1 MLOAD PUSH3 0x461BCD PUSH1 0xE5 SHL DUP2 MSTORE PUSH1 0x20 PUSH1 0x4 DUP3 ADD MSTORE PUSH1 0x5 PUSH1 0x24 DUP3 ADD MSTORE PUSH5 0x455243323 PUSH1 0xDC SHL PUSH1 0x44 DUP3 ADD MSTORE SWAP1 MLOAD SWAP1 DUP2 SWAP1 SUB PUSH1 0x64 ADD SWAP1 REVERT JUMPDEST POP POP JUMP JUMPDEST PUSH1 0x0 DUP1 PUSH2 0x3F53 DUP4 PUSH2 0x4025 JUMP JUMPDEST PUSH1 0xFF AND SWAP4 SWAP3 POP POP POP JUMP JUMPDEST PUSH1 0x0 DUP1 PUSH1 0x0 DUP6 GT PUSH2 0x3F80 JUMPI PUSH1 0x40 MLOAD PUSH3 0x461BCD PUSH1 0xE5 SHL DUP2 MSTORE PUSH1 0x4 ADD PUSH2 0x2DB SWAP1 PUSH2 0x4B4D JUMP JUMPDEST PUSH1 0x7 DUP6 GT ISZERO PUSH2 0x3FA1 JUMPI PUSH1 0x40 MLOAD PUSH3 0x461BCD PUSH1 0xE5 SHL DUP2 MSTORE PUSH1 0x4 ADD PUSH2 0x2DB SWAP1 PUSH2 0x4C51 JUMP JUMPDEST PUSH1 0x0 PUSH2 0x3FAC DUP5 PUSH2 0x4042 JUMP JUMPDEST SWAP1 POP PUSH1 0x1 JUMPDEST DUP7 DUP2 GT PUSH2 0x4004 JUMPI PUSH1 0x0 PUSH2 0x3FCD PUSH2 0x3FC6 DUP4 PUSH2 0x4060 JUMP JUMPDEST DUP5 SWAP1 PUSH2 0x4104 JUMP JUMPDEST SWAP1 POP DUP7 DUP2 EQ ISZERO PUSH2 0x3FE5 JUMPI POP SWAP3 POP PUSH1 0x0 SWAP2 POP PUSH2 0x401D SWAP1 POP JUMP JUMPDEST DUP7 DUP2 GT ISZERO PUSH2 0x3FFB JUMPI POP SWAP3 POP PUSH1 0x1 SWAP2 POP PUSH2 0x401D SWAP1 POP JUMP JUMPDEST POP PUSH1 0x1 ADD PUSH2 0x3FB1 JUMP JUMPDEST POP PUSH1 0x40 MLOAD PUSH3 0x461BCD PUSH1 0xE5 SHL DUP2 MSTORE PUSH1 0x4 ADD PUSH2 0x2DB SWAP1 PUSH2 0x4D6B JUMP JUMPDEST SWAP4 POP SWAP4 SWAP2 POP POP JUMP JUMPDEST PUSH1 0x0 DUP1 PUSH2 0x4030 PUSH2 0x415E JUMP JUMPDEST PUSH1 0x0 SWAP4 DUP5 MSTORE PUSH1 0x20 MSTORE POP POP PUSH1 0x40 SWAP1 KECCAK256 SLOAD SWAP1 JUMP JUMPDEST PUSH1 0x0 PUSH3 0x76A700 DUP3 LT ISZERO PUSH2 0x4054 JUMPI PUSH1 0x0 DUP1 REVERT JUMPDEST POP PUSH3 0x76A700 DUP2 MOD SWAP1 SUB SWAP1 JUMP JUMPDEST PUSH1 0x0 DUP2 PUSH1 0x1 EQ ISZERO PUSH2 0x4075 JUMPI POP PUSH3 0x76A700 PUSH2 0xF9E JUMP JUMPDEST DUP2 PUSH1 0x2 EQ ISZERO PUSH2 0x4088 JUMPI POP PUSH3 0xED4E00 PUSH2 0xF9E JUMP JUMPDEST DUP2 PUSH1 0x3 EQ ISZERO PUSH2 0x409C JUMPI POP PUSH4 0x1DA9C00 PUSH2 0xF9E JUMP JUMPDEST DUP2 PUSH1 0x4 EQ ISZERO PUSH2 0x40B0 JUMPI POP PUSH4 0x3B53800 PUSH2 0xF9E JUMP JUMPDEST DUP2 PUSH1 0x5 EQ ISZERO PUSH2 0x40C4 JUMPI POP PUSH4 0x9450C00 PUSH2 0xF9E JUMP JUMPDEST DUP2 PUSH1 0x6 EQ ISZERO PUSH2 0x40D8 JUMPI POP PUSH4 0x128A1800 PUSH2 0xF9E JUMP JUMPDEST DUP2 PUSH1 0x7 EQ ISZERO PUSH2 0x40EC JUMPI POP PUSH4 0x25143000 PUSH2 0xF9E JUMP JUMPDEST PUSH1 0x40 MLOAD PUSH3 0x461BCD PUSH1 0xE5 SHL DUP2 MSTORE PUSH1 0x4 ADD PUSH2 0x2DB SWAP1 PUSH2 0x4B7C JUMP JUMPDEST PUSH1 0x0 DUP3 DUP3 ADD DUP4 DUP2 LT ISZERO PUSH2 0x7DA JUMPI PUSH1 0x40 DUP1 MLOAD PUSH3 0x461BCD PUSH1 0xE5 SHL DUP2 MSTORE PUSH1 0x20 PUSH1 0x4 DUP3 ADD MSTORE PUSH1 0x1B PUSH1 0x24 DUP3 ADD MSTORE PUSH32 0x536166654D6174683A206164646974696F6E206F766572666C6F770000000000 PUSH1 0x44 DUP3 ADD MSTORE SWAP1 MLOAD SWAP1 DUP2 SWAP1 SUB PUSH1 0x64 ADD SWAP1 REVERT JUMPDEST PUSH1 0x0 DUP1 PUSH2 0xE33 PUSH1 0x9 PUSH2 0x2345 JUMP JUMPDEST PUSH1 0x40 MLOAD DUP1 PUSH1 0x40 ADD PUSH1 0x40 MSTORE DUP1 PUSH1 0x2 SWAP1 PUSH1 0x20 DUP3 MUL DUP1 CALLDATASIZE DUP4 CALLDATACOPY POP SWAP2 SWAP3 SWAP2 POP POP JUMP JUMPDEST PUSH1 0x40 MLOAD DUP1 PUSH1 0xE0 ADD PUSH1 0x40 MSTORE DUP1 PUSH1 0x0 DUP2 MSTORE PUSH1 0x20 ADD PUSH1 0x0 DUP2 MSTORE PUSH1 0x20 ADD PUSH1 0x0 ISZERO ISZERO DUP2 MSTORE PUSH1 0x20 ADD PUSH1 0x0 DUP2 MSTORE PUSH1 0x20 ADD PUSH1 0x0 DUP2 MSTORE PUSH1 0x20 ADD PUSH1 0x0 DUP2 MSTORE PUSH1 0x20 ADD PUSH1 0x0 DUP2 MSTORE POP SWAP1 JUMP JUMPDEST PUSH1 0x40 MLOAD DUP1 PUSH2 0x180 ADD PUSH1 0x40 MSTORE DUP1 PUSH1 0x0 PUSH1 0x1 PUSH1 0x1 PUSH1 0xA0 SHL SUB AND DUP2 MSTORE PUSH1 0x20 ADD PUSH1 0x0 PUSH2 0xFFFF AND DUP2 MSTORE PUSH1 0x20 ADD PUSH1 0x0 PUSH2 0xFFFF AND DUP2 MSTORE PUSH1 0x20 ADD PUSH1 0x0 DUP2 MSTORE PUSH1 0x20 ADD PUSH1 0x0 DUP2 MSTORE PUSH1 0x20 ADD PUSH1 0x0 DUP2 MSTORE PUSH1 0x20 ADD PUSH1 0x0 DUP2 MSTORE PUSH1 0x20 ADD PUSH1 0x0 DUP2 MSTORE PUSH1 0x20 ADD PUSH1 0x0 DUP2 MSTORE PUSH1 0x20 ADD PUSH1 0x0 DUP2 MSTORE PUSH1 0x20 ADD PUSH2 0x4233 PUSH2 0x416B JUMP JUMPDEST DUP2 MSTORE PUSH1 0x20 ADD PUSH2 0x4240 PUSH2 0x4274 JUMP JUMPDEST SWAP1 MSTORE SWAP1 JUMP JUMPDEST PUSH1 0x40 DUP1 MLOAD PUSH1 0xA0 DUP2 ADD DUP3 MSTORE PUSH1 0x0 DUP1 DUP3 MSTORE PUSH1 0x20 DUP3 ADD DUP2 SWAP1 MSTORE SWAP2 DUP2 ADD DUP3 SWAP1 MSTORE SWAP1 PUSH1 0x60 DUP3 ADD SWAP1 DUP2 MSTORE PUSH1 0x20 ADD PUSH1 0x0 DUP2 MSTORE POP SWAP1 JUMP JUMPDEST PUSH1 0x40 MLOAD DUP1 PUSH1 0x60 ADD PUSH1 0x40 MSTORE DUP1 PUSH1 0x0 PUSH1 0x1 PUSH1 0x1 PUSH1 0xA0 SHL SUB AND DUP2 MSTORE PUSH1 0x20 ADD PUSH1 0x0 DUP2 MSTORE PUSH1 0x20 ADD PUSH1 0x0 DUP2 MSTORE POP SWAP1 JUMP JUMPDEST PUSH1 0x40 MLOAD DUP1 PUSH1 0x20 ADD PUSH1 0x40 MSTORE DUP1 PUSH1 0x1 SWAP1 PUSH1 0x20 DUP3 MUL DUP1 CALLDATASIZE DUP4 CALLDATACOPY POP SWAP2 SWAP3 SWAP2 POP POP JUMP JUMPDEST DUP1 CALLDATALOAD PUSH1 0x1 PUSH1 0x1 PUSH1 0xA0 SHL SUB DUP2 AND DUP2 EQ PUSH2 0xF9E JUMPI PUSH1 0x0 DUP1 REVERT JUMPDEST DUP1 PUSH1 0x40 DUP2 ADD DUP4 LT ISZERO PUSH2 0xE33 JUMPI PUSH1 0x0 DUP1 REVERT JUMPDEST PUSH1 0x0 DUP1 DUP4 PUSH1 0x1F DUP5 ADD SLT PUSH2 0x42F5 JUMPI DUP2 DUP3 REVERT JUMPDEST POP DUP2 CALLDATALOAD PUSH8 0xFFFFFFFFFFFFFFFF DUP2 GT ISZERO PUSH2 0x430C JUMPI DUP2 DUP3 REVERT JUMPDEST PUSH1 0x20 DUP4 ADD SWAP2 POP DUP4 PUSH1 0x20 DUP3 DUP6 ADD ADD GT ISZERO PUSH2 0xAA8 JUMPI PUSH1 0x0 DUP1 REVERT JUMPDEST DUP1 CALLDATALOAD PUSH1 0x1 PUSH1 0x1 PUSH1 0x50 SHL SUB DUP2 AND DUP2 EQ PUSH2 0xF9E JUMPI PUSH1 0x0 DUP1 REVERT JUMPDEST PUSH1 0x0 PUSH1 0x20 DUP3 DUP5 SUB SLT ISZERO PUSH2 0x434C JUMPI DUP1 DUP2 REVERT JUMPDEST PUSH2 0x7DA DUP3 PUSH2 0x42BC JUMP JUMPDEST PUSH1 0x0 DUP1 PUSH1 0x40 DUP4 DUP6 SUB SLT ISZERO PUSH2 0x4367 JUMPI DUP1 DUP2 REVERT JUMPDEST PUSH2 0x4370 DUP4 PUSH2 0x42BC JUMP JUMPDEST SWAP2 POP PUSH1 0x20 DUP4 ADD CALLDATALOAD DUP1 ISZERO ISZERO DUP2 EQ PUSH2 0x4384 JUMPI DUP2 DUP3 REVERT JUMPDEST DUP1 SWAP2 POP POP SWAP3 POP SWAP3 SWAP1 POP JUMP JUMPDEST PUSH1 0x0 DUP1 PUSH1 0x0 DUP4 DUP6 SUB PUSH2 0x1A0 DUP2 SLT ISZERO PUSH2 0x43A5 JUMPI DUP2 DUP3 REVERT JUMPDEST PUSH2 0x43AE DUP6 PUSH2 0x42BC JUMP JUMPDEST SWAP4 POP PUSH2 0x160 PUSH1 0x1F NOT DUP3 ADD SLT ISZERO PUSH2 0x43C2 JUMPI DUP2 DUP3 REVERT JUMPDEST POP PUSH1 0x20 DUP5 ADD SWAP2 POP PUSH2 0x43D6 PUSH2 0x180 DUP6 ADD PUSH2 0x4324 JUMP JUMPDEST SWAP1 POP SWAP3 POP SWAP3 POP SWAP3 JUMP JUMPDEST PUSH1 0x0 DUP1 PUSH1 0x40 DUP4 DUP6 SUB SLT ISZERO PUSH2 0x43F1 JUMPI DUP2 DUP3 REVERT JUMPDEST PUSH2 0x43FA DUP4 PUSH2 0x42BC JUMP JUMPDEST SWAP2 POP PUSH1 0x20 DUP4 ADD CALLDATALOAD PUSH2 0x4384 DUP2 PUSH2 0x5169 JUMP JUMPDEST PUSH1 0x0 DUP1 PUSH1 0x0 PUSH1 0x60 DUP5 DUP7 SUB SLT ISZERO PUSH2 0x441E JUMPI DUP3 DUP4 REVERT JUMPDEST PUSH2 0x4427 DUP5 PUSH2 0x42BC JUMP JUMPDEST SWAP3 POP PUSH1 0x20 DUP5 ADD CALLDATALOAD PUSH2 0x4437 DUP2 PUSH2 0x5169 JUMP JUMPDEST SWAP3 SWAP6 SWAP3 SWAP5 POP POP POP PUSH1 0x40 SWAP2 SWAP1 SWAP2 ADD CALLDATALOAD SWAP1 JUMP JUMPDEST PUSH1 0x0 DUP1 PUSH1 0x0 DUP1 PUSH1 0x0 DUP1 PUSH1 0x0 PUSH1 0xC0 DUP9 DUP11 SUB SLT ISZERO PUSH2 0x4462 JUMPI DUP3 DUP4 REVERT JUMPDEST PUSH2 0x446B DUP9 PUSH2 0x42BC JUMP JUMPDEST SWAP7 POP PUSH1 0x20 DUP9 ADD CALLDATALOAD PUSH2 0x447B DUP2 PUSH2 0x5169 JUMP JUMPDEST SWAP6 POP PUSH1 0x40 DUP9 ADD CALLDATALOAD SWAP5 POP PUSH1 0x60 DUP9 ADD CALLDATALOAD SWAP4 POP PUSH1 0x80 DUP9 ADD CALLDATALOAD PUSH2 0x4499 DUP2 PUSH2 0x517C JUMP JUMPDEST SWAP3 POP PUSH1 0xA0 DUP9 ADD CALLDATALOAD PUSH8 0xFFFFFFFFFFFFFFFF DUP2 GT ISZERO PUSH2 0x44B4 JUMPI DUP3 DUP4 REVERT JUMPDEST PUSH2 0x44C0 DUP11 DUP3 DUP12 ADD PUSH2 0x42E4 JUMP JUMPDEST SWAP9 SWAP12 SWAP8 SWAP11 POP SWAP6 SWAP9 POP SWAP4 SWAP7 SWAP3 SWAP6 SWAP3 SWAP4 POP POP POP JUMP JUMPDEST PUSH1 0x0 DUP1 PUSH1 0x0 PUSH1 0x60 DUP5 DUP7 SUB SLT ISZERO PUSH2 0x44E7 JUMPI DUP3 DUP4 REVERT JUMPDEST PUSH2 0x44F0 DUP5 PUSH2 0x42BC JUMP JUMPDEST SWAP3 POP PUSH1 0x20 DUP5 ADD CALLDATALOAD PUSH2 0x4500 DUP2 PUSH2 0x5169 JUMP JUMPDEST SWAP2 POP PUSH2 0x43D6 PUSH1 0x40 DUP6 ADD PUSH2 0x4324 JUMP JUMPDEST PUSH1 0x0 DUP1 PUSH1 0x40 DUP4 DUP6 SUB SLT ISZERO PUSH2 0x4520 JUMPI DUP2 DUP3 REVERT JUMPDEST PUSH2 0x4529 DUP4 PUSH2 0x42BC JUMP JUMPDEST SWAP5 PUSH1 0x20 SWAP4 SWAP1 SWAP4 ADD CALLDATALOAD SWAP4 POP POP POP JUMP JUMPDEST PUSH1 0x0 DUP1 PUSH1 0x0 DUP1 PUSH1 0x0 PUSH2 0x100 DUP7 DUP9 SUB SLT ISZERO PUSH2 0x454F JUMPI DUP1 DUP2 REVERT JUMPDEST PUSH2 0x4558 DUP7 PUSH2 0x42BC JUMP JUMPDEST SWAP5 POP PUSH1 0x20 DUP7 ADD CALLDATALOAD SWAP4 POP PUSH2 0x456E DUP8 PUSH1 0x40 DUP9 ADD PUSH2 0x42D3 JUMP JUMPDEST SWAP3 POP PUSH2 0x457D DUP8 PUSH1 0x80 DUP9 ADD PUSH2 0x42D3 JUMP JUMPDEST SWAP2 POP PUSH2 0x458C DUP8 PUSH1 0xC0 DUP9 ADD PUSH2 0x42D3 JUMP JUMPDEST SWAP1 POP SWAP3 SWAP6 POP SWAP3 SWAP6 SWAP1 SWAP4 POP JUMP JUMPDEST PUSH1 0x0 DUP1 PUSH1 0x0 DUP1 PUSH1 0x0 DUP1 PUSH1 0xA0 DUP8 DUP10 SUB SLT ISZERO PUSH2 0x45B0 JUMPI DUP4 DUP5 REVERT JUMPDEST PUSH2 0x45B9 DUP8 PUSH2 0x42BC JUMP JUMPDEST SWAP6 POP PUSH2 0x45C7 PUSH1 0x20 DUP9 ADD PUSH2 0x4324 JUMP JUMPDEST SWAP5 POP PUSH1 0x40 DUP8 ADD CALLDATALOAD SWAP4 POP PUSH1 0x60 DUP8 ADD CALLDATALOAD SWAP3 POP PUSH1 0x80 DUP8 ADD CALLDATALOAD PUSH8 0xFFFFFFFFFFFFFFFF DUP2 GT ISZERO PUSH2 0x45F0 JUMPI DUP3 DUP4 REVERT JUMPDEST PUSH2 0x45FC DUP10 DUP3 DUP11 ADD PUSH2 0x42E4 JUMP JUMPDEST SWAP8 SWAP11 SWAP7 SWAP10 POP SWAP5 SWAP8 POP SWAP3 SWAP6 SWAP4 SWAP5 SWAP3 POP POP POP JUMP JUMPDEST PUSH1 0x0 PUSH1 0x20 DUP3 DUP5 SUB SLT ISZERO PUSH2 0x461F JUMPI DUP1 DUP2 REVERT JUMPDEST DUP2 MLOAD PUSH8 0xFFFFFFFFFFFFFFFF DUP1 DUP3 GT ISZERO PUSH2 0x4636 JUMPI DUP3 DUP4 REVERT JUMPDEST DUP2 DUP5 ADD SWAP2 POP DUP5 PUSH1 0x1F DUP4 ADD SLT PUSH2 0x4649 JUMPI DUP3 DUP4 REVERT JUMPDEST DUP2 MLOAD DUP2 DUP2 GT ISZERO PUSH2 0x4655 JUMPI INVALID JUMPDEST PUSH1 0x40 MLOAD PUSH1 0x1F DUP3 ADD PUSH1 0x1F NOT AND DUP2 ADD PUSH1 0x20 ADD DUP4 DUP2 GT DUP3 DUP3 LT OR ISZERO PUSH2 0x4673 JUMPI INVALID JUMPDEST PUSH1 0x40 MSTORE DUP2 DUP2 MSTORE DUP4 DUP3 ADD PUSH1 0x20 ADD DUP8 LT ISZERO PUSH2 0x468A JUMPI DUP5 DUP6 REVERT JUMPDEST PUSH2 0xF07 DUP3 PUSH1 0x20 DUP4 ADD PUSH1 0x20 DUP8 ADD PUSH2 0x4F50 JUMP JUMPDEST PUSH1 0x0 PUSH1 0x20 DUP3 DUP5 SUB SLT ISZERO PUSH2 0x46AC JUMPI DUP1 DUP2 REVERT JUMPDEST POP MLOAD SWAP2 SWAP1 POP JUMP JUMPDEST PUSH1 0x0 PUSH1 0x20 DUP3 DUP5 SUB SLT ISZERO PUSH2 0x46C4 JUMPI DUP1 DUP2 REVERT JUMPDEST DUP2 CALLDATALOAD PUSH2 0x7DA DUP2 PUSH2 0x5169 JUMP JUMPDEST PUSH1 0x0 DUP1 PUSH1 0x0 DUP1 PUSH1 0x60 DUP6 DUP8 SUB SLT ISZERO PUSH2 0x46E4 JUMPI DUP2 DUP3 REVERT JUMPDEST DUP5 CALLDATALOAD SWAP4 POP PUSH1 0x20 DUP6 ADD CALLDATALOAD SWAP3 POP PUSH1 0x40 DUP6 ADD CALLDATALOAD PUSH8 0xFFFFFFFFFFFFFFFF DUP2 GT ISZERO PUSH2 0x4708 JUMPI DUP3 DUP4 REVERT JUMPDEST PUSH2 0x4714 DUP8 DUP3 DUP9 ADD PUSH2 0x42E4 JUMP JUMPDEST SWAP6 SWAP9 SWAP5 SWAP8 POP SWAP6 POP POP POP POP JUMP JUMPDEST PUSH1 0x0 PUSH1 0x20 DUP3 DUP5 SUB SLT ISZERO PUSH2 0x4731 JUMPI DUP1 DUP2 REVERT JUMPDEST DUP2 CALLDATALOAD PUSH2 0x7DA DUP2 PUSH2 0x517C JUMP JUMPDEST PUSH1 0x0 PUSH1 0x20 DUP3 DUP5 SUB SLT ISZERO PUSH2 0x474D JUMPI DUP1 DUP2 REVERT JUMPDEST DUP2 CALLDATALOAD PUSH2 0x7DA DUP2 PUSH2 0x518E JUMP JUMPDEST PUSH1 0x1 PUSH1 0x1 PUSH1 0xA0 SHL SUB AND SWAP1 MSTORE JUMP JUMPDEST DUP1 PUSH1 0x0 JUMPDEST PUSH1 0x2 DUP2 LT ISZERO PUSH2 0x478C JUMPI DUP2 MLOAD PUSH2 0xFFFF AND DUP5 MSTORE PUSH1 0x20 SWAP4 DUP5 ADD SWAP4 SWAP1 SWAP2 ADD SWAP1 PUSH1 0x1 ADD PUSH2 0x4769 JUMP JUMPDEST POP POP POP POP JUMP JUMPDEST PUSH1 0x0 DUP3 DUP5 MSTORE DUP3 DUP3 PUSH1 0x20 DUP7 ADD CALLDATACOPY DUP1 PUSH1 0x20 DUP5 DUP7 ADD ADD MSTORE PUSH1 0x20 PUSH1 0x1F NOT PUSH1 0x1F DUP6 ADD AND DUP6 ADD ADD SWAP1 POP SWAP4 SWAP3 POP POP POP JUMP JUMPDEST DUP1 MLOAD PUSH1 0x1 PUSH1 0x1 PUSH1 0xA0 SHL SUB AND DUP3 MSTORE PUSH1 0x20 DUP1 DUP3 ADD MLOAD SWAP1 DUP4 ADD MSTORE PUSH1 0x40 SWAP1 DUP2 ADD MLOAD SWAP2 ADD MSTORE JUMP JUMPDEST PUSH2 0xFFFF AND SWAP1 MSTORE JUMP JUMPDEST PUSH1 0x1 PUSH1 0x1 PUSH1 0xA0 SHL SUB SWAP2 SWAP1 SWAP2 AND DUP2 MSTORE PUSH1 0x20 ADD SWAP1 JUMP JUMPDEST PUSH1 0x0 PUSH1 0x1 DUP1 PUSH1 0xA0 SHL SUB DUP1 DUP11 AND DUP4 MSTORE DUP1 DUP10 AND PUSH1 0x20 DUP5 ADD MSTORE POP DUP7 PUSH1 0x40 DUP4 ADD MSTORE DUP6 PUSH1 0x60 DUP4 ADD MSTORE DUP5 PUSH1 0x80 DUP4 ADD MSTORE PUSH1 0xC0 PUSH1 0xA0 DUP4 ADD MSTORE PUSH2 0x4838 PUSH1 0xC0 DUP4 ADD DUP5 DUP7 PUSH2 0x4792 JUMP JUMPDEST SWAP10 SWAP9 POP POP POP POP POP POP POP POP POP JUMP JUMPDEST PUSH1 0x1 PUSH1 0x1 PUSH1 0xA0 SHL SUB SWAP4 DUP5 AND DUP2 MSTORE PUSH1 0x20 DUP2 ADD SWAP3 SWAP1 SWAP3 MSTORE SWAP1 SWAP2 AND PUSH1 0x40 DUP3 ADD MSTORE PUSH1 0x60 ADD SWAP1 JUMP JUMPDEST PUSH1 0x1 PUSH1 0x1 PUSH1 0xA0 SHL SUB SWAP5 DUP6 AND DUP2 MSTORE PUSH1 0x20 DUP2 ADD SWAP4 SWAP1 SWAP4 MSTORE SWAP3 AND PUSH1 0x40 DUP3 ADD MSTORE PUSH2 0xFFFF SWAP1 SWAP2 AND PUSH1 0x60 DUP3 ADD MSTORE PUSH1 0x80 ADD SWAP1 JUMP JUMPDEST PUSH1 0x0 PUSH1 0x1 DUP1 PUSH1 0xA0 SHL SUB DUP7 AND DUP3 MSTORE DUP5 PUSH1 0x20 DUP4 ADD MSTORE PUSH1 0x60 PUSH1 0x40 DUP4 ADD MSTORE PUSH2 0xF07 PUSH1 0x60 DUP4 ADD DUP5 DUP7 PUSH2 0x4792 JUMP JUMPDEST PUSH1 0x1 PUSH1 0x1 PUSH1 0xA0 SHL SUB SWAP4 SWAP1 SWAP4 AND DUP4 MSTORE PUSH1 0x20 DUP4 ADD SWAP2 SWAP1 SWAP2 MSTORE PUSH1 0x40 DUP3 ADD MSTORE PUSH1 0x60 ADD SWAP1 JUMP JUMPDEST PUSH1 0x0 PUSH1 0x1 DUP1 PUSH1 0xA0 SHL SUB DUP8 AND DUP3 MSTORE DUP6 PUSH1 0x20 DUP4 ADD MSTORE DUP5 PUSH1 0x40 DUP4 ADD MSTORE PUSH1 0x80 PUSH1 0x60 DUP4 ADD MSTORE PUSH2 0xF80 PUSH1 0x80 DUP4 ADD DUP5 DUP7 PUSH2 0x4792 JUMP JUMPDEST PUSH1 0x40 DUP2 ADD DUP2 DUP4 PUSH1 0x0 JUMPDEST PUSH1 0x2 DUP2 LT ISZERO PUSH2 0x4934 JUMPI DUP2 MLOAD DUP4 MSTORE PUSH1 0x20 SWAP3 DUP4 ADD SWAP3 SWAP1 SWAP2 ADD SWAP1 PUSH1 0x1 ADD PUSH2 0x4915 JUMP JUMPDEST POP POP POP SWAP3 SWAP2 POP POP JUMP JUMPDEST SWAP1 ISZERO ISZERO DUP2 MSTORE PUSH1 0x20 ADD SWAP1 JUMP JUMPDEST SWAP2 ISZERO ISZERO DUP3 MSTORE PUSH1 0x1 PUSH1 0x1 PUSH1 0x50 SHL SUB AND PUSH1 0x20 DUP3 ADD MSTORE PUSH1 0x40 ADD SWAP1 JUMP JUMPDEST PUSH1 0x0 PUSH1 0x20 DUP3 MSTORE DUP3 MLOAD DUP1 PUSH1 0x20 DUP5 ADD MSTORE PUSH2 0x4980 DUP2 PUSH1 0x40 DUP6 ADD PUSH1 0x20 DUP8 ADD PUSH2 0x4F50 JUMP JUMPDEST PUSH1 0x1F ADD PUSH1 0x1F NOT AND SWAP2 SWAP1 SWAP2 ADD PUSH1 0x40 ADD SWAP3 SWAP2 POP POP JUMP JUMPDEST SWAP1 DUP2 MSTORE PUSH1 0x20 ADD SWAP1 JUMP JUMPDEST SWAP2 DUP3 MSTORE PUSH1 0x20 DUP3 ADD MSTORE PUSH1 0x40 ADD SWAP1 JUMP JUMPDEST SWAP4 DUP5 MSTORE PUSH1 0x20 DUP5 ADD SWAP3 SWAP1 SWAP3 MSTORE PUSH1 0x40 DUP4 ADD MSTORE PUSH1 0x60 DUP3 ADD MSTORE PUSH1 0x80 ADD SWAP1 JUMP JUMPDEST SWAP5 DUP6 MSTORE PUSH1 0x20 DUP6 ADD SWAP4 SWAP1 SWAP4 MSTORE PUSH1 0x40 DUP5 ADD SWAP2 SWAP1 SWAP2 MSTORE PUSH1 0x60 DUP4 ADD MSTORE PUSH1 0x80 DUP3 ADD MSTORE PUSH1 0xA0 ADD SWAP1 JUMP JUMPDEST PUSH1 0x20 DUP1 DUP3 MSTORE PUSH1 0x1A SWAP1 DUP3 ADD MSTORE PUSH32 0x496E76616C6964205365636F6E64617279204D61747572697479000000000000 PUSH1 0x40 DUP3 ADD MSTORE PUSH1 0x60 ADD SWAP1 JUMP JUMPDEST PUSH1 0x20 DUP1 DUP3 MSTORE PUSH1 0xD SWAP1 DUP3 ADD MSTORE PUSH13 0x109BDC9C9BDDC811985A5B1959 PUSH1 0x9A SHL PUSH1 0x40 DUP3 ADD MSTORE PUSH1 0x60 ADD SWAP1 JUMP JUMPDEST PUSH1 0x20 DUP1 DUP3 MSTORE PUSH1 0x11 SWAP1 DUP3 ADD MSTORE PUSH17 0x52656465656D20616C6C20746F6B656E73 PUSH1 0x78 SHL PUSH1 0x40 DUP3 ADD MSTORE PUSH1 0x60 ADD SWAP1 JUMP JUMPDEST PUSH1 0x20 DUP1 DUP3 MSTORE PUSH1 0x6 SWAP1 DUP3 ADD MSTORE PUSH6 0x14185D5CD959 PUSH1 0xD2 SHL PUSH1 0x40 DUP3 ADD MSTORE PUSH1 0x60 ADD SWAP1 JUMP JUMPDEST PUSH1 0x20 DUP1 DUP3 MSTORE PUSH1 0xC SWAP1 DUP3 ADD MSTORE PUSH12 0x155B985D5D1A1BDC9A5E9959 PUSH1 0xA2 SHL PUSH1 0x40 DUP3 ADD MSTORE PUSH1 0x60 ADD SWAP1 JUMP JUMPDEST PUSH1 0x20 DUP1 DUP3 MSTORE PUSH1 0x4 SWAP1 DUP3 ADD MSTORE PUSH4 0x135A5B9D PUSH1 0xE2 SHL PUSH1 0x40 DUP3 ADD MSTORE PUSH1 0x60 ADD SWAP1 JUMP JUMPDEST PUSH1 0x20 DUP1 DUP3 MSTORE PUSH1 0x6 SWAP1 DUP3 ADD MSTORE PUSH6 0x52656465656D PUSH1 0xD0 SHL PUSH1 0x40 DUP3 ADD MSTORE PUSH1 0x60 ADD SWAP1 JUMP JUMPDEST PUSH1 0x20 DUP1 DUP3 MSTORE PUSH1 0xD SWAP1 DUP3 ADD MSTORE PUSH13 0x556E7061696420426F72726F77 PUSH1 0x98 SHL PUSH1 0x40 DUP3 ADD MSTORE PUSH1 0x60 ADD SWAP1 JUMP JUMPDEST PUSH1 0x20 DUP1 DUP3 MSTORE PUSH1 0x16 SWAP1 DUP3 ADD MSTORE PUSH22 0x125B9CDD59999A58DA595B9D081C995C185E5B595B9D PUSH1 0x52 SHL PUSH1 0x40 DUP3 ADD MSTORE PUSH1 0x60 ADD SWAP1 JUMP JUMPDEST PUSH1 0x20 DUP1 DUP3 MSTORE PUSH1 0x15 SWAP1 DUP3 ADD MSTORE PUSH21 0x10D1CE881B9BC81B585C9AD95D1CC81B1A5CDD1959 PUSH1 0x5A SHL PUSH1 0x40 DUP3 ADD MSTORE PUSH1 0x60 ADD SWAP1 JUMP JUMPDEST PUSH1 0x20 DUP1 DUP3 MSTORE PUSH1 0xD SWAP1 DUP3 ADD MSTORE PUSH13 0x92DCECC2D8D2C840D2DCC8CAF PUSH1 0x9B SHL PUSH1 0x40 DUP3 ADD MSTORE PUSH1 0x60 ADD SWAP1 JUMP JUMPDEST PUSH1 0x20 DUP1 DUP3 MSTORE PUSH1 0x10 SWAP1 DUP3 ADD MSTORE PUSH16 0x496E76616C6964204D61747572697479 PUSH1 0x80 SHL PUSH1 0x40 DUP3 ADD MSTORE PUSH1 0x60 ADD SWAP1 JUMP JUMPDEST PUSH1 0x20 DUP1 DUP3 MSTORE PUSH1 0x1D SWAP1 DUP3 ADD MSTORE PUSH32 0x496E73756666696369656E74205365636F6E6461727920426F72726F77000000 PUSH1 0x40 DUP3 ADD MSTORE PUSH1 0x60 ADD SWAP1 JUMP JUMPDEST PUSH1 0x20 DUP1 DUP3 MSTORE PUSH1 0xD SWAP1 DUP3 ADD MSTORE PUSH13 0x43616E6E6F7420536574746C65 PUSH1 0x98 SHL PUSH1 0x40 DUP3 ADD MSTORE PUSH1 0x60 ADD SWAP1 JUMP JUMPDEST PUSH1 0x20 DUP1 DUP3 MSTORE PUSH1 0xC SWAP1 DUP3 ADD MSTORE PUSH12 0x4D6178204361706163697479 PUSH1 0xA0 SHL PUSH1 0x40 DUP3 ADD MSTORE PUSH1 0x60 ADD SWAP1 JUMP JUMPDEST PUSH1 0x20 DUP1 DUP3 MSTORE PUSH1 0x16 SWAP1 DUP3 ADD MSTORE PUSH22 0x10D1CE881B585C9AD95D081A5B99195E08189BDD5B99 PUSH1 0x52 SHL PUSH1 0x40 DUP3 ADD MSTORE PUSH1 0x60 ADD SWAP1 JUMP JUMPDEST PUSH1 0x20 DUP1 DUP3 MSTORE PUSH1 0x10 SWAP1 DUP3 ADD MSTORE PUSH16 0x496E76616C69642043757272656E6379 PUSH1 0x80 SHL PUSH1 0x40 DUP3 ADD MSTORE PUSH1 0x60 ADD SWAP1 JUMP JUMPDEST PUSH1 0x20 DUP1 DUP3 MSTORE DUP2 DUP2 ADD MSTORE PUSH32 0x4F776E61626C653A2063616C6C6572206973206E6F7420746865206F776E6572 PUSH1 0x40 DUP3 ADD MSTORE PUSH1 0x60 ADD SWAP1 JUMP JUMPDEST PUSH1 0x20 DUP1 DUP3 MSTORE PUSH1 0x17 SWAP1 DUP3 ADD MSTORE PUSH32 0x496E73756666696369656E7420436F6C6C61746572616C000000000000000000 PUSH1 0x40 DUP3 ADD MSTORE PUSH1 0x60 ADD SWAP1 JUMP JUMPDEST PUSH1 0x20 DUP1 DUP3 MSTORE PUSH1 0xE SWAP1 DUP3 ADD MSTORE PUSH14 0x1499595B9D1C985B9D0818D85B1B PUSH1 0x92 SHL PUSH1 0x40 DUP3 ADD MSTORE PUSH1 0x60 ADD SWAP1 JUMP JUMPDEST PUSH1 0x20 DUP1 DUP3 MSTORE PUSH1 0x12 SWAP1 DUP3 ADD MSTORE PUSH18 0x496E73756666696369656E74205265706179 PUSH1 0x70 SHL PUSH1 0x40 DUP3 ADD MSTORE PUSH1 0x60 ADD SWAP1 JUMP JUMPDEST PUSH1 0x20 DUP1 DUP3 MSTORE PUSH1 0x13 SWAP1 DUP3 ADD MSTORE PUSH19 0x10D1CE881B9BC81B585C9AD95D08199BDD5B99 PUSH1 0x6A SHL PUSH1 0x40 DUP3 ADD MSTORE PUSH1 0x60 ADD SWAP1 JUMP JUMPDEST PUSH1 0x0 PUSH2 0x1E0 DUP3 ADD SWAP1 POP PUSH2 0x4DAC DUP3 DUP5 MLOAD PUSH2 0x4758 JUMP JUMPDEST PUSH1 0x20 DUP4 ADD MLOAD PUSH2 0x4DBE PUSH1 0x20 DUP5 ADD DUP3 PUSH2 0x47DE JUMP JUMPDEST POP PUSH1 0x40 DUP4 ADD MLOAD PUSH2 0x4DD1 PUSH1 0x40 DUP5 ADD DUP3 PUSH2 0x47DE JUMP JUMPDEST POP PUSH1 0x60 DUP4 ADD MLOAD PUSH1 0x60 DUP4 ADD MSTORE PUSH1 0x80 DUP4 ADD MLOAD PUSH1 0x80 DUP4 ADD MSTORE PUSH1 0xA0 DUP4 ADD MLOAD PUSH1 0xA0 DUP4 ADD MSTORE PUSH1 0xC0 DUP4 ADD MLOAD PUSH1 0xC0 DUP4 ADD MSTORE PUSH1 0xE0 DUP4 ADD MLOAD PUSH1 0xE0 DUP4 ADD MSTORE PUSH2 0x100 DUP1 DUP5 ADD MLOAD DUP2 DUP5 ADD MSTORE POP PUSH2 0x120 DUP1 DUP5 ADD MLOAD DUP2 DUP5 ADD MSTORE POP PUSH2 0x140 DUP1 DUP5 ADD MLOAD PUSH2 0x4E2F DUP3 DUP6 ADD DUP3 PUSH2 0x4765 JUMP JUMPDEST POP POP PUSH2 0x160 DUP4 ADD MLOAD PUSH2 0x4E45 PUSH2 0x180 DUP5 ADD DUP3 PUSH2 0x47BC JUMP JUMPDEST POP SWAP3 SWAP2 POP POP JUMP JUMPDEST PUSH1 0x0 PUSH1 0xE0 DUP3 ADD SWAP1 POP DUP3 MLOAD DUP3 MSTORE PUSH1 0x20 DUP4 ADD MLOAD PUSH1 0x20 DUP4 ADD MSTORE PUSH1 0x40 DUP4 ADD MLOAD ISZERO ISZERO PUSH1 0x40 DUP4 ADD MSTORE PUSH1 0x60 DUP4 ADD MLOAD PUSH1 0x60 DUP4 ADD MSTORE PUSH1 0x80 DUP4 ADD MLOAD PUSH1 0x80 DUP4 ADD MSTORE PUSH1 0xA0 DUP4 ADD MLOAD PUSH1 0xA0 DUP4 ADD MSTORE PUSH1 0xC0 DUP4 ADD MLOAD PUSH1 0xC0 DUP4 ADD MSTORE SWAP3 SWAP2 POP POP JUMP JUMPDEST PUSH1 0x1 PUSH1 0x1 PUSH1 0x80 SHL SUB SWAP2 SWAP1 SWAP2 AND DUP2 MSTORE PUSH1 0x20 ADD SWAP1 JUMP JUMPDEST PUSH2 0xFFFF SWAP3 SWAP1 SWAP3 AND DUP3 MSTORE PUSH1 0x20 DUP3 ADD MSTORE PUSH1 0x40 ADD SWAP1 JUMP JUMPDEST SWAP3 DUP4 MSTORE PUSH1 0x20 DUP4 ADD SWAP2 SWAP1 SWAP2 MSTORE PUSH1 0x40 DUP3 ADD MSTORE PUSH1 0x60 ADD SWAP1 JUMP JUMPDEST PUSH1 0x1 PUSH1 0x1 PUSH1 0x50 SHL SUB SWAP2 SWAP1 SWAP2 AND DUP2 MSTORE PUSH1 0x20 ADD SWAP1 JUMP JUMPDEST DUP2 DUP2 PUSH1 0x0 DUP1 JUMPDEST PUSH1 0x2 DUP1 DUP3 LT PUSH2 0x4F03 JUMPI POP PUSH2 0x2E5F JUMP JUMPDEST DUP5 CALLDATALOAD PUSH2 0x4F0E DUP2 PUSH2 0x5169 JUMP JUMPDEST DUP5 SLOAD PUSH2 0xFFFF PUSH1 0x8 DUP7 MUL DUP2 DUP2 SHL DUP1 NOT SWAP1 SWAP4 AND SWAP4 SWAP1 SWAP2 AND SWAP1 SHL AND OR DUP5 SSTORE PUSH1 0x20 SWAP5 SWAP1 SWAP5 ADD SWAP4 SWAP1 SWAP2 ADD SWAP1 PUSH1 0x1E DUP3 GT ISZERO PUSH2 0x4F48 JUMPI PUSH1 0x0 SWAP2 POP PUSH1 0x1 DUP4 ADD SWAP3 POP JUMPDEST PUSH1 0x1 ADD PUSH2 0x4EF4 JUMP JUMPDEST PUSH1 0x0 JUMPDEST DUP4 DUP2 LT ISZERO PUSH2 0x4F6B JUMPI DUP2 DUP2 ADD MLOAD DUP4 DUP3 ADD MSTORE PUSH1 0x20 ADD PUSH2 0x4F53 JUMP JUMPDEST DUP4 DUP2 GT ISZERO PUSH2 0x478C JUMPI POP POP PUSH1 0x0 SWAP2 ADD MSTORE JUMP JUMPDEST PUSH1 0x0 DUP2 CALLDATALOAD PUSH2 0xE33 DUP2 PUSH2 0x5169 JUMP JUMPDEST PUSH1 0x0 DUP2 CALLDATALOAD PUSH2 0xE33 DUP2 PUSH2 0x517C JUMP JUMPDEST PUSH1 0x0 DUP2 CALLDATALOAD PUSH2 0xE33 DUP2 PUSH2 0x518E JUMP JUMPDEST DUP2 CALLDATALOAD PUSH2 0x4FAE DUP2 PUSH2 0x5169 JUMP JUMPDEST PUSH2 0xFFFF DUP2 AND PUSH2 0xFFFF NOT DUP4 SLOAD AND OR DUP3 SSTORE POP PUSH2 0x4FD3 PUSH2 0x4FCD PUSH1 0x20 DUP5 ADD PUSH2 0x4F7C JUMP JUMPDEST DUP3 PUSH2 0x510B JUMP JUMPDEST PUSH2 0x4FE8 PUSH2 0x4FE2 PUSH1 0x40 DUP5 ADD PUSH2 0x4F89 JUMP JUMPDEST DUP3 PUSH2 0x5127 JUMP JUMPDEST PUSH2 0x4FFD PUSH2 0x4FF7 PUSH1 0x60 DUP5 ADD PUSH2 0x4F7C JUMP JUMPDEST DUP3 PUSH2 0x514B JUMP JUMPDEST PUSH2 0x5012 PUSH2 0x500C PUSH1 0x80 DUP5 ADD PUSH2 0x4F96 JUMP JUMPDEST DUP3 PUSH2 0x5078 JUMP JUMPDEST PUSH2 0x5027 PUSH2 0x5021 PUSH1 0xA0 DUP5 ADD PUSH2 0x4F96 JUMP JUMPDEST DUP3 PUSH2 0x5095 JUMP JUMPDEST PUSH2 0x503C PUSH2 0x5036 PUSH1 0xC0 DUP5 ADD PUSH2 0x4F96 JUMP JUMPDEST DUP3 PUSH2 0x50B2 JUMP JUMPDEST PUSH2 0x5051 PUSH2 0x504B PUSH1 0xE0 DUP5 ADD PUSH2 0x4F96 JUMP JUMPDEST DUP3 PUSH2 0x50CF JUMP JUMPDEST PUSH2 0x5067 PUSH2 0x5061 PUSH2 0x100 DUP5 ADD PUSH2 0x4F7C JUMP JUMPDEST DUP3 PUSH2 0x50EC JUMP JUMPDEST PUSH2 0x3F43 PUSH2 0x120 DUP4 ADD PUSH1 0x1 DUP4 ADD PUSH2 0x4EEE JUMP JUMPDEST DUP1 SLOAD PUSH1 0xFF PUSH1 0x50 SHL NOT AND PUSH1 0x50 SWAP3 SWAP1 SWAP3 SHL PUSH1 0xFF PUSH1 0x50 SHL AND SWAP2 SWAP1 SWAP2 OR SWAP1 SSTORE JUMP JUMPDEST DUP1 SLOAD PUSH1 0xFF PUSH1 0x58 SHL NOT AND PUSH1 0x58 SWAP3 SWAP1 SWAP3 SHL PUSH1 0xFF PUSH1 0x58 SHL AND SWAP2 SWAP1 SWAP2 OR SWAP1 SSTORE JUMP JUMPDEST DUP1 SLOAD PUSH1 0xFF PUSH1 0x60 SHL NOT AND PUSH1 0x60 SWAP3 SWAP1 SWAP3 SHL PUSH1 0xFF PUSH1 0x60 SHL AND SWAP2 SWAP1 SWAP2 OR SWAP1 SSTORE JUMP JUMPDEST DUP1 SLOAD PUSH1 0xFF PUSH1 0x68 SHL NOT AND PUSH1 0x68 SWAP3 SWAP1 SWAP3 SHL PUSH1 0xFF PUSH1 0x68 SHL AND SWAP2 SWAP1 SWAP2 OR SWAP1 SSTORE JUMP JUMPDEST DUP1 SLOAD PUSH2 0xFFFF PUSH1 0x70 SHL NOT AND PUSH1 0x70 SWAP3 SWAP1 SWAP3 SHL PUSH2 0xFFFF PUSH1 0x70 SHL AND SWAP2 SWAP1 SWAP2 OR SWAP1 SSTORE JUMP JUMPDEST DUP1 SLOAD PUSH4 0xFFFF0000 DUP4 PUSH1 0x10 SHL AND PUSH4 0xFFFF0000 NOT DUP3 AND OR DUP3 SSTORE POP POP POP JUMP JUMPDEST DUP1 SLOAD PUSH8 0xFFFFFFFF00000000 DUP4 PUSH1 0x20 SHL AND PUSH8 0xFFFFFFFF00000000 NOT DUP3 AND OR DUP3 SSTORE POP POP POP JUMP JUMPDEST DUP1 SLOAD PUSH2 0xFFFF PUSH1 0x40 SHL DUP4 PUSH1 0x40 SHL AND PUSH2 0xFFFF PUSH1 0x40 SHL NOT DUP3 AND OR DUP3 SSTORE POP POP POP JUMP JUMPDEST PUSH2 0xFFFF DUP2 AND DUP2 EQ PUSH2 0x5179 JUMPI PUSH1 0x0 DUP1 REVERT JUMPDEST POP JUMP JUMPDEST PUSH4 0xFFFFFFFF DUP2 AND DUP2 EQ PUSH2 0x5179 JUMPI PUSH1 0x0 DUP1 REVERT JUMPDEST PUSH1 0xFF DUP2 AND DUP2 EQ PUSH2 0x5179 JUMPI PUSH1 0x0 DUP1 REVERT INVALID LOG2 PUSH5 0x6970667358 0x22 SLT KECCAK256 0xAB SWAP5 0xF8 REVERT SELFBALANCE 0x22 PUSH14 0xF7A604B629B42713C3A0F62760EF 0xE SIGNEXTEND SWAP10 BALANCE 0xE4 0x28 DUP7 PUSH16 0xBC9B6464736F6C634300070600330000 ",
  "sha1": "379cb6cb185c38bb85529cc31b74dba228bcf037",
  "source": "// SPDX-License-Identifier: GPL-3.0-only\npragma solidity =0.7.6;\npragma abicoder v2;\n\nimport {ActionGuards} from \"./ActionGuards.sol\";\nimport {IVaultAction} from \"../../../../interfaces/notional/IVaultController.sol\";\nimport \"../../internal/vaults/VaultConfiguration.sol\";\nimport \"../../internal/vaults/VaultAccount.sol\";\nimport {VaultStateLib, VaultState} from \"../../internal/vaults/VaultState.sol\";\n\nimport {LibStorage} from \"../../global/LibStorage.sol\";\nimport {SafeUint256} from \"../../math/SafeUint256.sol\";\n\ncontract VaultAction is ActionGuards, IVaultAction {\n    using VaultConfiguration for VaultConfig;\n    using VaultAccountLib for VaultAccount;\n    using VaultStateLib for VaultState;\n    using AssetRate for AssetRateParameters;\n    using TokenHandler for Token;\n    using SafeInt256 for int256;\n    using SafeUint256 for uint256;\n\n    /// @notice Updates or lists a deployed vault along with its configuration.\n    /// @param vaultAddress address of deployed vault\n    /// @param vaultConfig struct of vault configuration\n    /// @param maxPrimaryBorrowCapacity maximum borrow capacity\n    function updateVault(\n        address vaultAddress,\n        VaultConfigStorage calldata vaultConfig,\n        uint80 maxPrimaryBorrowCapacity\n    ) external override onlyOwner {\n        VaultConfiguration.setVaultConfig(vaultAddress, vaultConfig);\n        VaultConfiguration.setMaxBorrowCapacity(vaultAddress, vaultConfig.borrowCurrencyId, maxPrimaryBorrowCapacity);\n        bool enabled = (vaultConfig.flags & VaultConfiguration.ENABLED) == VaultConfiguration.ENABLED;\n        emit VaultUpdated(vaultAddress, enabled, maxPrimaryBorrowCapacity);\n    }\n\n    /// @notice Enables or disables a vault. If a vault is disabled, no one can enter\n    /// the vault but exits are still possible.\n    /// @param vaultAddress address of deployed vault\n    /// @param enable true if the vault should be enabled immediately\n    function setVaultPauseStatus(\n        address vaultAddress,\n        bool enable\n    ) external override onlyOwner {\n        VaultConfiguration.setVaultEnabledStatus(vaultAddress, enable);\n        emit VaultPauseStatus(vaultAddress, enable);\n    }\n\n    /// @notice Whitelists a secondary borrow currency for a vault, vaults can borrow up to the capacity\n    /// using the `borrowSecondaryCurrencyToVault` and `repaySecondaryCurrencyToVault` methods. Vaults that\n    /// use a secondary currency must ALWAYS repay the secondary debt during redemption and handle accounting\n    /// for the secondary currency themselves.\n    /// @param vaultAddress address of deployed vault\n    /// @param secondaryCurrencyId struct of vault configuration\n    /// @param maxBorrowCapacity maximum borrow capacity\n    function updateSecondaryBorrowCapacity(\n        address vaultAddress,\n        uint16 secondaryCurrencyId,\n        uint80 maxBorrowCapacity\n    ) external override onlyOwner {\n        VaultConfig memory vaultConfig = VaultConfiguration.getVaultConfigStateful(vaultAddress);\n        // Tokens with transfer fees create lots of issues with vault mechanics, we prevent them\n        // from being listed here.\n        Token memory assetToken = TokenHandler.getAssetToken(secondaryCurrencyId);\n        Token memory underlyingToken = TokenHandler.getUnderlyingToken(secondaryCurrencyId);\n        require(!assetToken.hasTransferFee && !underlyingToken.hasTransferFee); \n\n        // The secondary borrow currency must be white listed on the configuration before we can set a max\n        // capacity.\n        require(\n            secondaryCurrencyId == vaultConfig.secondaryBorrowCurrencies[0] ||\n            secondaryCurrencyId == vaultConfig.secondaryBorrowCurrencies[1],\n            \"Invalid Currency\"\n        );\n\n        VaultConfiguration.setMaxBorrowCapacity(vaultAddress, secondaryCurrencyId, maxBorrowCapacity);\n        emit VaultUpdateSecondaryBorrowCapacity(vaultAddress, secondaryCurrencyId, maxBorrowCapacity);\n    }\n\n    /// @notice Allows the owner to reduce the max borrow capacity on the vault and force\n    /// the redemption of strategy tokens to cash to reduce the overall risk of the vault.\n    /// This method is intended to be used in emergencies to mitigate insolvency risk. The effect\n    /// of this method will mean that the overall max borrow capacity is reduced, the total used\n    /// capacity will be unchanged (redeemStrategyTokensToCash does not do any lending to reduce\n    /// the outstanding fCash), and accounts will be locked out of entering the maturity which was\n    /// targeted by this method. Other maturities for that vault may still be entered depending on\n    /// whether or not the vault is above or below the max vault borrow capacity.\n    /// @param vaultAddress address of the vault\n    /// @param maxVaultBorrowCapacity the new max vault borrow capacity on the primary currency\n    /// @param maturity the maturity to redeem tokens in, will generally be either the current\n    /// maturity or the next maturity.\n    /// @param strategyTokensToRedeem how many tokens we would want to redeem in the maturity\n    /// @param vaultData vault data to pass to the vault\n    function reduceMaxBorrowCapacity(\n        address vaultAddress,\n        uint80 maxVaultBorrowCapacity,\n        uint256 maturity,\n        uint256 strategyTokensToRedeem,\n        bytes calldata vaultData\n    ) external override onlyOwner {\n        VaultConfig memory vaultConfig = VaultConfiguration.getVaultConfigStateful(vaultAddress);\n        VaultConfiguration.setMaxBorrowCapacity(vaultAddress, vaultConfig.borrowCurrencyId, maxVaultBorrowCapacity);\n\n        // Redeems strategy tokens to be held against fCash debt\n        _redeemStrategyTokensToCashInternal(vaultConfig, maturity, strategyTokensToRedeem, vaultData);\n\n        emit VaultUpdated(vaultAddress, vaultConfig.getFlag(VaultConfiguration.ENABLED), maxVaultBorrowCapacity);\n    }\n\n    /// @notice Strategy vaults can call this method to redeem strategy tokens to cash and hold them\n    /// as asset cash within the pool. This should typically be used during settlement but can also be\n    /// used for vault-wide deleveraging.\n    /// @param maturity the maturity of the vault where the redemption will take place\n    /// @param strategyTokensToRedeem the number of strategy tokens redeemed\n    /// @param vaultData arbitrary data to pass back to the vault\n    /// @return assetCashRequiredToSettle amount of asset cash still remaining to settle the debt\n    /// @return underlyingCashRequiredToSettle amount of underlying cash still remaining to settle the debt\n    function redeemStrategyTokensToCash(\n        uint256 maturity,\n        uint256 strategyTokensToRedeem,\n        bytes calldata vaultData\n    ) external override returns (int256 assetCashRequiredToSettle, int256 underlyingCashRequiredToSettle) {\n        // NOTE: this call must come from the vault itself\n        VaultConfig memory vaultConfig = VaultConfiguration.getVaultConfigStateful(msg.sender);\n        // NOTE: if the msg.sender is not the vault itself this will revert\n        require(vaultConfig.getFlag(VaultConfiguration.ENABLED), \"Paused\");\n        return _redeemStrategyTokensToCashInternal(vaultConfig, maturity, strategyTokensToRedeem, vaultData);\n    }\n\n    /// @notice Redeems strategy tokens to cash\n    function _redeemStrategyTokensToCashInternal(\n        VaultConfig memory vaultConfig,\n        uint256 maturity,\n        uint256 strategyTokensToRedeem,\n        bytes calldata vaultData\n    ) private nonReentrant returns (int256 assetCashRequiredToSettle, int256 underlyingCashRequiredToSettle) {\n        // If the vault allows further re-entrancy then set the status back to the default\n        if (vaultConfig.getFlag(VaultConfiguration.ALLOW_REENTRANCY)) {\n            reentrancyStatus = _NOT_ENTERED;\n        }\n\n        VaultState memory vaultState = VaultStateLib.getVaultState(vaultConfig.vault, maturity);\n        int256 assetCashReceived = vaultConfig.redeemWithoutDebtRepayment(\n            vaultConfig.vault, strategyTokensToRedeem, maturity, vaultData\n        );\n        require(assetCashReceived > 0);\n\n        vaultState.totalAssetCash = vaultState.totalAssetCash.add(uint256(assetCashReceived));\n        vaultState.totalStrategyTokens = vaultState.totalStrategyTokens.sub(strategyTokensToRedeem);\n        vaultState.setVaultState(vaultConfig.vault);\n\n        emit VaultRedeemStrategyToken(vaultConfig.vault, maturity, assetCashReceived, strategyTokensToRedeem);\n        return _getCashRequiredToSettle(vaultConfig, vaultState, maturity);\n    }\n\n    /// @notice Strategy vaults can call this method to deposit asset cash into strategy tokens.\n    /// @param maturity the maturity of the vault where the redemption will take place\n    /// @param assetCashInternal the number of asset cash tokens to deposit (external)\n    /// @param vaultData arbitrary data to pass back to the vault for deposit\n    function depositVaultCashToStrategyTokens(\n        uint256 maturity,\n        uint256 assetCashInternal,\n        bytes calldata vaultData\n    ) external override nonReentrant {\n        VaultConfig memory vaultConfig = VaultConfiguration.getVaultConfigStateful(msg.sender);\n        // NOTE: if the msg.sender is not the vault itself this will revert\n        require(vaultConfig.getFlag(VaultConfiguration.ENABLED), \"Paused\");\n\n        // If the vault allows further re-entrancy then set the status back to the default\n        if (vaultConfig.getFlag(VaultConfiguration.ALLOW_REENTRANCY)) {\n            reentrancyStatus = _NOT_ENTERED;\n        }\n\n        VaultState memory vaultState = VaultStateLib.getVaultState(msg.sender, maturity);\n        uint256 strategyTokensMinted = vaultConfig.deposit(\n            vaultConfig.vault, assetCashInternal.toInt(), maturity, 0, vaultData\n        );\n\n        vaultState.totalAssetCash = vaultState.totalAssetCash.sub(assetCashInternal);\n        vaultState.totalStrategyTokens = vaultState.totalStrategyTokens.add(strategyTokensMinted);\n        vaultState.setVaultState(msg.sender);\n\n        // When exchanging asset cash for strategy tokens we will decrease the vault's collateral, ensure that\n        // we don't go under the configured minimum here.\n        (int256 collateralRatio, /* */) = vaultConfig.calculateCollateralRatio(\n            vaultState, msg.sender, vaultState.totalVaultShares, vaultState.totalfCash\n        );\n        require(vaultConfig.minCollateralRatio <= collateralRatio, \"Insufficient Collateral\");\n        emit VaultMintStrategyToken(msg.sender, maturity, assetCashInternal, strategyTokensMinted);\n    }\n\n    /// @notice Allows a vault to borrow a secondary currency if it is whitelisted to do so\n    /// @param account account that is borrowing the secondary currency\n    /// @param maturity the maturity to borrow at\n    /// @param fCashToBorrow fCash to borrow for the first and second secondary currencies\n    /// @param maxBorrowRate maximum borrow rate for the first and second secondary currencies\n    /// @param minRollLendRate max roll lend rate for the first and second borrow currencies\n    /// @return underlyingTokensTransferred amount of tokens transferred back to the vault\n    function borrowSecondaryCurrencyToVault(\n        address account,\n        uint256 maturity,\n        uint256[2] calldata fCashToBorrow,\n        uint32[2] calldata maxBorrowRate,\n        uint32[2] calldata minRollLendRate\n    ) external override returns (uint256[2] memory underlyingTokensTransferred) {\n        // This method call must come from the vault\n        VaultConfig memory vaultConfig = VaultConfiguration.getVaultConfigStateful(msg.sender);\n        // This also ensures that the caller is an actual vault\n        require(vaultConfig.getFlag(VaultConfiguration.ENABLED), \"Paused\");\n        uint16[2] memory currencies = vaultConfig.secondaryBorrowCurrencies;\n        require(currencies[0] != 0 || currencies[1] != 0);\n        \n        // If the borrower is rolling their primary debt forward, we need to check that here and roll\n        // their secondary debt forward in the same manner (simulate lending and then borrow more in\n        // a longer dated maturity to repay their borrowing).\n        int256[2] memory costToRepay;\n        if (vaultConfig.getFlag(VaultConfiguration.ALLOW_ROLL_POSITION) && account != msg.sender) {\n            // If in here, the vault allows rolling and we are working with an individual account\n            VaultAccountSecondaryDebtShareStorage storage s = \n                LibStorage.getVaultAccountSecondaryDebtShare()[account][vaultConfig.vault];\n            uint256 accountMaturity = s.maturity;\n\n            if (accountMaturity != 0) {\n                // Cannot roll to a shorter term maturity\n                require(accountMaturity < maturity);\n                costToRepay[0] = _repayDuringRoll(\n                    vaultConfig, account, currencies[0], accountMaturity, s.accountDebtSharesOne, minRollLendRate[0]\n                );\n                costToRepay[1] = _repayDuringRoll(\n                    vaultConfig, account, currencies[1], accountMaturity, s.accountDebtSharesTwo, minRollLendRate[1]\n                );\n            }\n        }\n\n        underlyingTokensTransferred[0] = _borrowAndTransfer(\n            vaultConfig, account, currencies[0], maturity, costToRepay[0], fCashToBorrow[0], maxBorrowRate[0]\n        );\n        underlyingTokensTransferred[1] = _borrowAndTransfer(\n            vaultConfig, account, currencies[1], maturity, costToRepay[1], fCashToBorrow[1], maxBorrowRate[1]\n        );\n    }\n\n    function _repayDuringRoll(\n        VaultConfig memory vaultConfig,\n        address account,\n        uint16 currencyId,\n        uint256 maturity,\n        uint256 accountDebtShares,\n        uint32 minLendRate\n    ) private returns (int256 costToRepay) {\n        if (currencyId != 0 && accountDebtShares != 0) {\n            (costToRepay, /* */) = vaultConfig.repaySecondaryBorrow(\n                account, currencyId, maturity, accountDebtShares, minLendRate\n            );\n        }\n    }\n\n    function _borrowAndTransfer(\n        VaultConfig memory vaultConfig,\n        address account,\n        uint16 currencyId,\n        uint256 maturity,\n        int256 costToRepay,\n        uint256 fCashToBorrow,\n        uint32 maxBorrowRate\n    ) private returns (uint256 underlyingTokensTransferred) {\n        if (currencyId == 0 || fCashToBorrow == 0) return 0;\n\n        (int256 netBorrowedCash, /* */) = vaultConfig.increaseSecondaryBorrow(\n            account, currencyId, maturity, fCashToBorrow, maxBorrowRate\n        );\n\n        netBorrowedCash = netBorrowedCash.add(costToRepay);\n        require(netBorrowedCash >= 0, \"Insufficient Secondary Borrow\");\n\n        underlyingTokensTransferred = VaultConfiguration.transferFromNotional(\n            vaultConfig.vault, currencyId, netBorrowedCash\n        );\n    }\n\n    /// @notice Allows a vault to repay a secondary currency that it has borrowed. Will be executed via a callback\n    /// which will request that the vault repay a specific amount of underlying tokens.\n    /// @param account account that is repaying the secondary currency\n    /// @param currencyId currency id of the secondary currency\n    /// @param maturity the maturity to lend at\n    /// @param debtSharesToRepay amount of debt shares to repay (used to calculate fCashToLend)\n    /// @param minLendRate minimum lend rate\n    /// @return returnData arbitrary return data to pass back to the vault\n    function repaySecondaryCurrencyFromVault(\n        address account,\n        uint16 currencyId,\n        uint256 maturity,\n        uint256 debtSharesToRepay,\n        uint32 minLendRate,\n        bytes calldata callbackData\n    ) external override returns (bytes memory returnData) {\n        // This method call must come from the vault\n        VaultConfig memory vaultConfig = VaultConfiguration.getVaultConfigStateful(msg.sender);\n        require(vaultConfig.getFlag(VaultConfiguration.ENABLED), \"Paused\");\n\n        (int256 netAssetCash, /* */) = vaultConfig.repaySecondaryBorrow(\n            account, currencyId, maturity, debtSharesToRepay, minLendRate\n        );\n\n        Token memory assetToken = TokenHandler.getAssetToken(currencyId);\n        // The vault MUST return exactly this amount of underlying tokens to the vault in the callback. We use\n        // a callback here because it is more precise and gas efficient than calculating netAssetCash twice\n        uint256 balanceTransferred;\n        {\n            // If the asset token is NonMintable then the underlying is the same object.\n            Token memory underlyingToken = assetToken.tokenType == TokenType.NonMintable ? \n                assetToken :\n                TokenHandler.getUnderlyingToken(currencyId);\n\n            uint256 underlyingExternalToRepay = underlyingToken.convertToUnderlyingExternalWithAdjustment(\n                vaultConfig.assetRate.convertToUnderlying(netAssetCash).neg()\n            ).toUint();\n\n            uint256 balanceBefore = underlyingToken.balanceOf(address(this));\n            // Tells the vault will redeem the strategy token amount and transfer asset tokens back to Notional\n            returnData = IStrategyVault(msg.sender).repaySecondaryBorrowCallback(\n                underlyingToken.tokenAddress, underlyingExternalToRepay, callbackData\n            );\n            uint256 balanceAfter = underlyingToken.balanceOf(address(this));\n            balanceTransferred = balanceAfter.sub(balanceBefore);\n            require(balanceTransferred >= underlyingExternalToRepay, \"Insufficient Repay\");\n        }\n\n        // NonMintable tokens do not require minting\n        if (assetToken.tokenType != TokenType.NonMintable) {\n            assetToken.mint(currencyId, balanceTransferred);\n        }\n    }\n\n    /// @notice Settles a vault and sets the final settlement rates\n    /// @param vault the vault to settle\n    /// @param maturity the maturity of the vault\n    function settleVault(address vault, uint256 maturity) external override nonReentrant {\n        VaultConfig memory vaultConfig = VaultConfiguration.getVaultConfigStateful(vault);\n        // Allow anyone to call this method unless it must be authorized by the vault. Generally speaking,\n        // as long as there is sufficient cash on the vault we should be able to settle\n        vaultConfig.authorizeCaller(msg.sender, VaultConfiguration.ONLY_VAULT_SETTLE);\n\n        VaultState memory vaultState = VaultStateLib.getVaultState(vault, maturity);\n        // Ensure that we are past maturity and the vault is able to settle\n        require(maturity <= block.timestamp && vaultState.isSettled == false, \"Cannot Settle\");\n\n        AssetRateParameters memory settlementRate = AssetRate.buildSettlementRateStateful(\n            vaultConfig.borrowCurrencyId,\n            maturity,\n            block.timestamp\n        );\n\n        // This is how much it costs in asset cash to settle the pooled portion of the vault\n        uint256 assetCashRequiredToSettle = settlementRate.convertFromUnderlying(\n            vaultState.totalfCash.neg()\n        ).toUint();\n\n        // Validate that all secondary currencies have been paid off.\n        mapping(uint256 => VaultSecondaryBorrowStorage) storage perCurrencyBalance =\n            LibStorage.getVaultSecondaryBorrow()[vault][maturity];\n        if (vaultConfig.secondaryBorrowCurrencies[0] != 0) {\n            require(perCurrencyBalance[vaultConfig.secondaryBorrowCurrencies[0]].totalfCashBorrowed == 0, \"Unpaid Borrow\");\n        }\n        if (vaultConfig.secondaryBorrowCurrencies[1] != 0) {\n            require(perCurrencyBalance[vaultConfig.secondaryBorrowCurrencies[1]].totalfCashBorrowed == 0, \"Unpaid Borrow\");\n        }\n\n        if (vaultState.totalAssetCash < assetCashRequiredToSettle) {\n            // Don't allow the pooled portion of the vault to have a cash shortfall unless all\n            // strategy tokens have been redeemed to asset cash.\n            require(vaultState.totalStrategyTokens == 0, \"Redeem all tokens\");\n\n            // After this point, we have a cash shortfall and will need to resolve it.\n            // Underflow checked above\n            int256 assetCashShortfall = (assetCashRequiredToSettle - vaultState.totalAssetCash).toInt();\n            uint256 assetCashRaised = VaultConfiguration.resolveShortfallWithReserve(\n                vaultConfig.vault, vaultConfig.borrowCurrencyId, assetCashShortfall, maturity\n            ).toUint();\n\n            vaultState.totalAssetCash = vaultState.totalAssetCash.add(assetCashRaised);\n            vaultState.setVaultState(vault);\n        }\n\n        // Clears the used borrow capacity regardless of the insolvency state of the vault. Since vaults are\n        // automatically paused in the case of any shortfall, no accounts will be able to enter regardless\n        // but we still want to maintain proper accounting of the borrow capacity.\n        VaultConfiguration.updateUsedBorrowCapacity(vault, vaultConfig.borrowCurrencyId, vaultState.totalfCash.neg());\n        vaultState.setSettledVaultState(vaultConfig, settlementRate, maturity, block.timestamp);\n    }\n\n    /** View Methods **/\n    function getVaultConfig(\n        address vault\n    ) external view override returns (VaultConfig memory vaultConfig) {\n        vaultConfig = VaultConfiguration.getVaultConfigView(vault);\n    }\n\n    function getVaultState(\n        address vault,\n        uint256 maturity\n    ) external view override returns (VaultState memory vaultState) {\n        vaultState = VaultStateLib.getVaultState(vault, maturity);\n    }\n\n    function getBorrowCapacity(\n        address vault,\n        uint16 currencyId\n    ) external view override returns (\n        uint256 totalUsedBorrowCapacity,\n        uint256 maxBorrowCapacity\n    ) {\n        VaultBorrowCapacityStorage storage cap = LibStorage.getVaultBorrowCapacity()[vault][currencyId];\n        totalUsedBorrowCapacity = cap.totalUsedBorrowCapacity;\n        maxBorrowCapacity = cap.maxBorrowCapacity;\n    }\n\n    function getSecondaryBorrow(address vault, uint16 currencyId, uint256 maturity) \n        external view override returns (uint256 totalfCashBorrowed, uint256 totalAccountDebtShares) {\n        VaultSecondaryBorrowStorage storage balance = \n            LibStorage.getVaultSecondaryBorrow()[vault][maturity][currencyId];\n        totalfCashBorrowed = balance.totalfCashBorrowed;\n        totalAccountDebtShares = balance.totalAccountDebtShares;\n    }\n\n    function getCashRequiredToSettle(\n        address vault,\n        uint256 maturity\n    ) external view override returns (\n        int256 assetCashRequiredToSettle,\n        int256 underlyingCashRequiredToSettle\n    ) {\n        VaultConfig memory vaultConfig = VaultConfiguration.getVaultConfigView(vault);\n        VaultState memory vaultState = VaultStateLib.getVaultState(vaultConfig.vault, maturity);\n        return _getCashRequiredToSettle(vaultConfig, vaultState, maturity);\n    }\n\n    function _getCashRequiredToSettle(\n        VaultConfig memory vaultConfig,\n        VaultState memory vaultState,\n        uint256 maturity\n    ) private view returns (\n        int256 assetCashRequiredToSettle,\n        int256 underlyingCashRequiredToSettle\n    ) {\n        // If this is prior to maturity, it will return the current asset rate. After maturity it will\n        // return the settlement rate.\n        AssetRateParameters memory ar = AssetRate.buildSettlementRateView(vaultConfig.borrowCurrencyId, maturity);\n        \n        // If this is a positive number, there is more cash remaining to be settled.\n        // If this is a negative number, there is more cash than required to repay the debt\n        int256 assetCashInternal = ar.convertFromUnderlying(vaultState.totalfCash)\n            .add(vaultState.totalAssetCash.toInt())\n            .neg();\n\n        Token memory assetToken = TokenHandler.getAssetToken(vaultConfig.borrowCurrencyId);\n        // If the asset token is NonMintable then the underlying is the same object.\n        assetCashRequiredToSettle = assetToken.convertToExternal(assetCashInternal);\n\n        if (assetToken.tokenType == TokenType.NonMintable) {\n            // In this case both values are the same, there is no underlying token\n            underlyingCashRequiredToSettle = assetCashRequiredToSettle;\n        } else {\n            Token memory underlyingToken = TokenHandler.getUnderlyingToken(vaultConfig.borrowCurrencyId);\n            underlyingCashRequiredToSettle = underlyingToken.convertToUnderlyingExternalWithAdjustment(\n                ar.convertToUnderlying(assetCashInternal)\n            );\n        }\n    }\n\n    function getLibInfo() external pure returns (address) {\n        return address(TradingAction);\n    }\n}",
  "sourcePath": "contracts/external/actions/VaultAction.sol",
  "type": "contract"
}