{
  "abi": [
    {
      "inputs": [
        {
          "internalType": "address",
          "name": "account",
          "type": "address"
        },
        {
          "internalType": "address",
          "name": "vault",
          "type": "address"
        },
        {
          "internalType": "address",
          "name": "liquidator",
          "type": "address"
        },
        {
          "internalType": "uint256",
          "name": "depositAmountExternal",
          "type": "uint256"
        },
        {
          "internalType": "bool",
          "name": "transferSharesToLiquidator",
          "type": "bool"
        },
        {
          "internalType": "bytes",
          "name": "redeemData",
          "type": "bytes"
        }
      ],
      "name": "deleverageAccount",
      "outputs": [
        {
          "internalType": "uint256",
          "name": "profitFromLiquidation",
          "type": "uint256"
        }
      ],
      "stateMutability": "nonpayable",
      "type": "function"
    },
    {
      "inputs": [
        {
          "internalType": "address",
          "name": "account",
          "type": "address"
        },
        {
          "internalType": "address",
          "name": "vault",
          "type": "address"
        },
        {
          "internalType": "uint256",
          "name": "depositAmountExternal",
          "type": "uint256"
        },
        {
          "internalType": "uint256",
          "name": "maturity",
          "type": "uint256"
        },
        {
          "internalType": "uint256",
          "name": "fCash",
          "type": "uint256"
        },
        {
          "internalType": "uint32",
          "name": "maxBorrowRate",
          "type": "uint32"
        },
        {
          "internalType": "bytes",
          "name": "vaultData",
          "type": "bytes"
        }
      ],
      "name": "enterVault",
      "outputs": [],
      "stateMutability": "payable",
      "type": "function"
    },
    {
      "inputs": [
        {
          "internalType": "address",
          "name": "account",
          "type": "address"
        },
        {
          "internalType": "address",
          "name": "vault",
          "type": "address"
        },
        {
          "internalType": "address",
          "name": "receiver",
          "type": "address"
        },
        {
          "internalType": "uint256",
          "name": "vaultSharesToRedeem",
          "type": "uint256"
        },
        {
          "internalType": "uint256",
          "name": "fCashToLend",
          "type": "uint256"
        },
        {
          "internalType": "uint32",
          "name": "minLendRate",
          "type": "uint32"
        },
        {
          "internalType": "bytes",
          "name": "exitVaultData",
          "type": "bytes"
        }
      ],
      "name": "exitVault",
      "outputs": [],
      "stateMutability": "payable",
      "type": "function"
    },
    {
      "inputs": [],
      "name": "getLibInfo",
      "outputs": [
        {
          "internalType": "address",
          "name": "",
          "type": "address"
        }
      ],
      "stateMutability": "pure",
      "type": "function"
    },
    {
      "inputs": [
        {
          "internalType": "address",
          "name": "account",
          "type": "address"
        },
        {
          "internalType": "address",
          "name": "vault",
          "type": "address"
        }
      ],
      "name": "getVaultAccount",
      "outputs": [
        {
          "components": [
            {
              "internalType": "int256",
              "name": "fCash",
              "type": "int256"
            },
            {
              "internalType": "uint256",
              "name": "maturity",
              "type": "uint256"
            },
            {
              "internalType": "uint256",
              "name": "vaultShares",
              "type": "uint256"
            },
            {
              "internalType": "address",
              "name": "account",
              "type": "address"
            },
            {
              "internalType": "int256",
              "name": "tempCashBalance",
              "type": "int256"
            }
          ],
          "internalType": "struct VaultAccount",
          "name": "",
          "type": "tuple"
        }
      ],
      "stateMutability": "view",
      "type": "function"
    },
    {
      "inputs": [
        {
          "internalType": "address",
          "name": "account",
          "type": "address"
        },
        {
          "internalType": "address",
          "name": "vault",
          "type": "address"
        }
      ],
      "name": "getVaultAccountCollateralRatio",
      "outputs": [
        {
          "internalType": "int256",
          "name": "collateralRatio",
          "type": "int256"
        },
        {
          "internalType": "int256",
          "name": "minCollateralRatio",
          "type": "int256"
        },
        {
          "internalType": "int256",
          "name": "maxLiquidatorDepositAssetCash",
          "type": "int256"
        },
        {
          "internalType": "bool",
          "name": "mustLiquidateFull",
          "type": "bool"
        }
      ],
      "stateMutability": "view",
      "type": "function"
    },
    {
      "inputs": [
        {
          "internalType": "address",
          "name": "account",
          "type": "address"
        },
        {
          "internalType": "address",
          "name": "vault",
          "type": "address"
        }
      ],
      "name": "getVaultAccountMaturity",
      "outputs": [
        {
          "internalType": "uint256",
          "name": "",
          "type": "uint256"
        }
      ],
      "stateMutability": "view",
      "type": "function"
    },
    {
      "inputs": [],
      "name": "owner",
      "outputs": [
        {
          "internalType": "address",
          "name": "",
          "type": "address"
        }
      ],
      "stateMutability": "view",
      "type": "function"
    },
    {
      "inputs": [],
      "name": "pauseGuardian",
      "outputs": [
        {
          "internalType": "address",
          "name": "",
          "type": "address"
        }
      ],
      "stateMutability": "view",
      "type": "function"
    },
    {
      "inputs": [],
      "name": "pauseRouter",
      "outputs": [
        {
          "internalType": "address",
          "name": "",
          "type": "address"
        }
      ],
      "stateMutability": "view",
      "type": "function"
    },
    {
      "inputs": [
        {
          "internalType": "address",
          "name": "account",
          "type": "address"
        },
        {
          "internalType": "address",
          "name": "vault",
          "type": "address"
        },
        {
          "internalType": "uint256",
          "name": "fCashToBorrow",
          "type": "uint256"
        },
        {
          "internalType": "uint256",
          "name": "maturity",
          "type": "uint256"
        },
        {
          "internalType": "uint32",
          "name": "minLendRate",
          "type": "uint32"
        },
        {
          "internalType": "uint32",
          "name": "maxBorrowRate",
          "type": "uint32"
        },
        {
          "internalType": "bytes",
          "name": "enterVaultData",
          "type": "bytes"
        }
      ],
      "name": "rollVaultPosition",
      "outputs": [],
      "stateMutability": "nonpayable",
      "type": "function"
    }
  ],
  "bytecode": "608060405234801561001057600080fd5b50614a0b806100206000396000f3fe60806040526004361061009c5760003560e01c80638246336711610064578063824633671461015e5780638da5cb5b1461017357806395c1a202146101885780639948315e1461019b578063c025d1a5146101bb578063c4c96dae146101e85761009c565b80630c09ff56146100a157806324a3d622146100d7578063450c0e02146100f9578063647cc1961461011b5780636ce48f011461014b575b600080fd5b3480156100ad57600080fd5b506100c16100bc366004614281565b6101fd565b6040516100ce91906145df565b60405180910390f35b3480156100e357600080fd5b506100ec61021e565b6040516100ce91906144e3565b34801561010557600080fd5b50610119610114366004614445565b61022d565b005b34801561012757600080fd5b5061013b610136366004614281565b61039f565b6040516100ce94939291906145e8565b61011961015936600461433e565b610438565b34801561016a57600080fd5b506100ec6105dc565b34801561017f57600080fd5b506100ec6105eb565b6101196101963660046143d5565b610602565b3480156101a757600080fd5b506100c16101b63660046142aa565b610704565b3480156101c757600080fd5b506101db6101d6366004614281565b6108da565b6040516100ce919061496f565b3480156101f457600080fd5b506100ec6108f6565b60006102118361020c8461090e565b61091f565b6020015190505b92915050565b6002546001600160a01b031681565b6002600a5414156102595760405162461bcd60e51b815260040161025090614830565b60405180910390fd5b6002600a5560006102698861099e565b9050610277818a60106109cd565b610282816080610a37565b1561028d576001600a555b60006102998a8361091f565b90506102a6826001610a37565b80156102b857506102b8826002610a37565b80156102c75750806020015142105b80156102d65750868160200151105b80156102e25750600088115b6102fe5760405162461bcd60e51b815260040161025090614799565b600061031283600001518360200151610a4c565b9050600061032f83846040015184610ae79092919063ffffffff16565b905061034e84836103438660000151610b46565b869291908c42610b59565b82511561036d5760405162461bcd60e51b81526004016102509061491b565b835161037a908390610be7565b61038c83858b8d8b8b8b886000610cff565b50506001600a5550505050505050505050565b60008060008060006103b086610d8d565b905060006103be888361091f565b905060006103d0888360200151610a4c565b90508260a0015195508060400151156103f2576001600160ff1b03965061042c565b6040820151825160009161040c91869185918e9190610db1565b90985090508688121561042a57610424838583610e19565b90965094505b505b50505092959194509250565b6002600a54141561045b5760405162461bcd60e51b815260040161025090614830565b6002600a55600061046b8861099e565b9050610479818a60086109cd565b610484816080610a37565b1561048f576001600a555b600061049b8a8361091f565b9050428160200151116104fb57602081015160006104ba838542610edc565b90506000836080015113156104e5576104dc8a85604001518560800151610fb7565b50600060808401525b6104f484848c84868b8b61105f565b50506105a3565b600061050f83600001518360200151610a4c565b905061052a838261051f8a6110d1565b859291908a42610b59565b871561057f57600061053d82848b610ae7565b90506000836080015113156105685761055f8a85604001518560800151610fb7565b50600060808401525b815161057d90859085908d9085908b8b61105f565b505b815160001315610594576105948382846110eb565b82516105a1908290610be7565b505b80511580156105b457506040810151155b156105c157600060208201525b6105cb8183611133565b50506001600a555050505050505050565b6001546001600160a01b031681565b60005464010000000090046001600160a01b031681565b6002600a5414156106255760405162461bcd60e51b815260040161025090614830565b6002600a5561063388611247565b600061063e8861099e565b905061064c818a60046109cd565b610657816080610a37565b15610662576001600a555b61066d816001610a37565b6106895760405162461bcd60e51b8152600401610250906148f5565b8542106106a85760405162461bcd60e51b8152600401610250906148f5565b60006106b48a8361091f565b9050600081602001516000141580156106d1575042826020015111155b156106e4576106e1828442610edc565b90505b60006106f1848d8c611296565b905061038c83858b8b8b8b8b8989610cff565b60006002600a5414156107295760405162461bcd60e51b815260040161025090614830565b6002600a55600061073b8989896113ab565b905060006107498a8361091f565b9050600061075b8a8360200151610a4c565b90508160200151421061076d57600080fd5b600080610791838e8660400151876000015189610db190949392919063ffffffff16565b915091508460a0015182126107b85760405162461bcd60e51b815260040161025090614940565b60006107cb866040015161ffff16611453565b90506107db8c8287898f87611466565b6000610822633b9aca0061081c6107f186611539565b61081c8a604001516108166108098e60c00151611539565b6108168e60800151611539565b90611548565b9061156f565b6040870151909150610834908261158e565b6040870152608086015161016088015160009161085191906115a3565b90506108708887836108668b60800151610b46565b8b939291906115d6565b86516000121561087f57600087525b5061088a8688611133565b8a156108bb57865161089d908690610be7565b6108ad8d88838960200151611644565b9750505050505050506108ca565b6108ad8d8887848e8e886116b4565b6001600a55979650505050505050565b6108e2614086565b6108ef8361020c8461090e565b9392505050565b73__TradingAction_________________________90565b6109166140be565b6102188261178a565b610927614086565b6000610931611909565b6001600160a01b0394851660008181526020928352604080822096519097168152948252858520546001600160501b038082168703865263ffffffff600160a01b83041693860193909352600160501b900490911694830194909452506060810192909252608082015290565b6109a66140be565b6109af8261178a565b90506109c2816040015161ffff16611916565b610160820152919050565b6109d78382610a37565b15610a0a5782516001600160a01b03163314610a055760405162461bcd60e51b815260040161025090614605565b610a32565b6001600160a01b0382163314610a325760405162461bcd60e51b815260040161025090614605565b505050565b60209190910151811661ffff90811691161490565b610a5461413b565b6000610a5e611962565b6001600160a01b03909416600090815260209485526040808220858352865280822094845284546001600160501b038082169093039685019690965260ff600160f01b870416151590840152600160501b8086048216608085015260019094015480821660a0850152600160a01b909504166060830152509104600990810b900b60c082015290565b8251602083015160009114610afb57600080fd5b6040830151610b0a908361158e565b60408401526000610b1b858461196f565b92509050610b36610b2b826110d1565b6080860151906119c6565b6080909401939093529392505050565b6000610218600019836119dc565b919050565b8551600090610b6890856119c6565b1315610b7357600080fd5b85602001518110610b8357600080fd5b6000610ba08660400151886020015186868a610100015187611a2a565b905080610bc357610160860151610bc090610bbb9086611b5c565b610b46565b90505b6000811315610bd157600080fd5b610bde87878787856115d6565b50505050505050565b6000610bf1611962565b6001600160a01b0383166000908152602082815260408083208751845290915290819020908501519192509015610c2757600080fd5b610c44610c3f610c3a8660200151610b46565b611539565b611b87565b81546001600160501b0319166001600160501b03919091161781556080840151610c6d90611b87565b81546001600160501b0391909116600160501b02600160501b600160a01b031990911617815560a0840151610ca190611b87565b6001820180546001600160501b0319166001600160501b03929092169190911790556060840151610cd190611b87565b81546001600160501b0391909116600160a01b0269ffffffffffffffffffff60a01b19909116179055505050565b8689602001511480610d1057508851155b610d1957600080fd5b6000610d29896000015189610a4c565b90508615610d4a57610d4a8a8a838b610d44610bbb8d6110d1565b8b611b9d565b610d59818b8b86868a8a611c44565b8851610d66908290610be7565b610d708a8a611133565b8615610d8157610d8189828c6110eb565b50505050505050505050565b610d956140be565b610d9e8261178a565b90506109c2816040015161ffff16611d4b565b600080610dc086888787611d61565b90506000610ddc610dd085610b46565b6101608a015190611b5c565b90506000610dea8383611dcc565b905081610e00576001600160ff1b039350610e0d565b610e0a8183611de2565b93505b50509550959350505050565b6000806000610e3a633b9aca008661012001516119c690919063ffffffff16565b90506000610e5a610e4e8860000151610b46565b61016088015190611b5c565b9050610e90610e768760c0015184611dcc90919063ffffffff16565b610e8a87610e848587611dfb565b90611dcc565b90611de2565b93506000610e9e8286611dcc565b90506000610ebe8860600151896101600151611b5c90919063ffffffff16565b905080821215610ed057829550600194505b50505050935093915050565b600080610ef184600001518660200151610a4c565b90508060400151610f145760405162461bcd60e51b815260040161025090614744565b6000610f2d856040015161ffff16876020015186611e14565b90506000610f5a6305f5e100610f548560c00151610f4e8760a001516110d1565b906119dc565b90611f84565b90506000610f6a88858585611fb5565b90506000610f7b888686858761203a565b60008b5260808b0151909750909150610f9490826119c6565b60808a015250506000604088018190526020909701969096525090949350505050565b600081610fc6575060006108ef565b60008213610fd357600080fd5b6000610fe28461ffff16611453565b90506000610ff08285612224565b905060048260600151600581111561100457fe5b14156110325761102b610c3a610bbb888861ffff1661102286610b46565b8792919061225c565b9250611056565b611053610c3a610bbb8761ffff168961104a86611539565b87929190612304565b92505b50509392505050565b60008660800151131561107157600080fd5b6110bd876040518060a0016040528089606001516001600160a01b03168152602001886001600160a01b03168152602001878152602001868152602001896080015181525084846123a4565b505060006080909501949094525050505050565b60006001600160ff1b038211156110e757600080fd5b5090565b60006111068484846060015185604001518660000151610db1565b509050808460a00151131561112d5760405162461bcd60e51b8152600401610250906147c2565b50505050565b600061113d611909565b60608401516001600160a01b0390811660009081526020838152604080832087519094168352929052206080850151919250901561117a57600080fd5b835115806111965750835161118e90610b46565b836060015113155b6111b25760405162461bcd60e51b81526004016102509061487f565b6111c5610c3f610c3a8660000151610b46565b81546001600160501b0319166001600160501b039190911617815560408401516111ee90611b87565b81546001600160501b0391909116600160501b02600160501b600160a01b031990911617815560208401516112229061262a565b815463ffffffff91909116600160a01b0263ffffffff60a01b19909116179055505050565b6001600160a01b03811661125a57600080fd5b6001600160a01b03811630141561127057600080fd5b600061127b8261263d565b5050505061ffff1690508060001461129257600080fd5b5050565b6000816112a5575060006108ef565b60006112b8856040015161ffff16611453565b905060006004826060015160058111156112ce57fe5b146112e9576112e4866040015161ffff166126a9565b6112eb565b815b865190915060038260600151600581111561130257fe5b141561133c578434146113275760405162461bcd60e51b8152600401610250906148a3565b61133181346126bc565b3493505050506108ef565b81602001511561138857600061135283836126f2565b905061136483600001518884896127a3565b600061137084846126f2565b905061137c818361158e565b955050505050506108ef565b8151611396908783886127a3565b8493505050506108ef565b5050509392505050565b6113b36140be565b6113bc8361099e565b90506113c9816080610a37565b156113d4576001600a555b6113df816020610a37565b1561140c57336001600160a01b0384161461140c5760405162461bcd60e51b815260040161025090614605565b6001600160a01b03841633148015906114375750816001600160a01b0316846001600160a01b031614155b6108ef5760405162461bcd60e51b815260040161025090614605565b61145b61417a565b61021882600061282b565b6000611471836110d1565b905060058660600151600581111561148557fe5b14156114a05761149d846040015161ffff16826128d9565b90505b6000806114ae878786610e19565b909250905060006114bf8984612224565b9050808412156114ec5781156114e75760405162461bcd60e51b8152600401610250906147f9565b6114f0565b8093505b604087015160009061150a908b908d9061ffff168861225c565b90506115246115198b83612960565b60808b0151906119c6565b60809099019890985250505050505050505050565b6000808212156110e757600080fd5b60008261155757506000610218565b8282028284828161156457fe5b04146108ef57600080fd5b600080821161157d57600080fd5b81838161158657fe5b049392505050565b60008282111561159d57600080fd5b50900390565b6000806115ce8460400151610f546402540be400610f548789602001516119dc90919063ffffffff16565b949350505050565b60808501516115e590826119c6565b608086015284516115f690836119c6565b8086526000121561160657600080fd5b602083015161161590836119c6565b602084018190526000121561162957600080fd5b61163c8460000151856040015184612990565b505050505050565b600080611651868661091f565b90508060200151600014806116695750828160200151145b6116855760405162461bcd60e51b81526004016102509061462b565b60208101839052604081015161169b9085612a4c565b60408201526116aa8186611133565b5091949350505050565b600080806116c2888861196f565b895191935091506000906116dd908b908d9085908b8b612a5e565b90506116f26116eb846110d1565b82906119c6565b8a51909150611702908a90610be7565b600061172d8c8c6040015161ffff1661172461171d86610b46565b8a90612224565b8992919061225c565b905060058660600151600581111561174157fe5b141561176e57600061175a8c6040015161ffff166126a9565b905061176a816000015183612ab0565b9150505b61177a610c3a82610b46565b9c9b505050505050505050505050565b6117926140be565b600061179c612b3f565b6001600160a01b03841660008181526020838152604091829020928652825461ffff8082169288019290925262010000810490911691860191909152919250906117fd9063ffffffff6401000000009091048116906305f5e100906119dc16565b6060840152805461181b90600160501b900460ff166207a120611548565b6080840152805461183f9068010000000000000000900461ffff16620186a0611548565b60a0840152805461185e90600160701b900461ffff16620186a0611548565b610120840152805460649060ff600160581b90910416633b9aca00020560c08401528054600160601b810460ff90811660e0860152600160681b90910416610100840152604080516060810191829052906001830190600390826000855b82829054906101000a900461ffff1661ffff16815260200190600201906020826001010492830192600103820291508084116118bc57905050505050508361014001819052505050919050565b6000806102186016612b48565b61191e6141a9565b600080600061192c85612b61565b604080516060810182526001600160a01b039093168352602083019390935260ff16600a0a918101919091529350505050919050565b6000806102186015612b48565b60008061197c8484612c24565b60808601519193509150611990908361158e565b608085015260a08401516119a4908261158e565b60a085015260608401516119b8908461158e565b606090940193909352929050565b8181018281121560008312151461021857600080fd5b818102600019831415611a0c578115806119fe5750828282816119fb57fe5b05145b611a0757600080fd5b610218565b821580611a21575081838281611a1e57fe5b05145b61021857600080fd5b600080611a3a8861ffff16612c70565b9050838160ff161115611a4c57600080fd5b600080611a5d8360ff168a87612c86565b915091508015611a6c57600080fd5b6000611a7789612d4e565b90506affffffffffffffffffffff8110611a9057600080fd5b600060788963ffffffff16901b609883901b60f086901b60f860008e13611ab8576001611abb565b60005b6005811115611ac657fe5b60ff16901b17171760001b905073__TradingAction_________________________63e50f349e8d836040518363ffffffff1660e01b8152600401611b0c9291906149c1565b60206040518083038186803b158015611b2457600080fd5b505af4158015611b38573d6000803e3d6000fd5b505050506040513d601f19601f8201168201806040525081019061177a91906144a1565b6000806115ce8460200151610f548660400151610f4e6402540be400886119dc90919063ffffffff16565b60006001600160501b038211156110e757600080fd5b60008212611baa57600080fd5b6000611bc386604001518585858a610100015142611a2a565b905060008113611be55760405162461bcd60e51b815260040161025090614858565b611bf287878786856115d6565b8651611bfd90610b46565b86606001511315611c205760405162461bcd60e51b81526004016102509061487f565b6000611c2c854261158e565b9050611c3a87898684612d6f565b5050505050505050565b608087015115611c5357600080fd5b600086608001511215611c6557600080fd5b865160208701511015611c8d57604086015115611c8157600080fd5b86516020870152611c9e565b8651602087015114611c9e57600080fd5b606086015160808701518851611cc392611cbc928992888888612e2d565b8590612a4c565b600060808801819052606089015191955090611ce0575083611d02565b611cff8860a0015161081c8a606001518861154890919063ffffffff16565b90505b60a0880151611d119086612a4c565b60a08901526060880151611d259082612a4c565b60608901526040870151611d399082612a4c565b60409097019690965250505050505050565b611d536141a9565b600080600061192c85612ee3565b600081611d70575060006115ce565b600080611d7d8785612c24565b915091506000611d9c8760400151886000015188858c60000151612f66565b9050611dc0611daa846110d1565b610160890151611dba9084611b5c565b906119c6565b98975050505050505050565b8082038281131560008312151461021857600080fd5b60006108ef611df584633b9aca006119dc565b83611f84565b60006108ef611e0a84846119dc565b633b9aca00611f84565b611e1c6141a9565b600080611e298686613020565b915091508160001415611f59576000611e4187612b61565b91945090925090506001600160a01b03811615611f57576000611e62613069565b9050856000108015611e745750858711155b8015611e85575064ffffffffff8611155b611e8e57600080fd5b836000128015611ea557506001600160801b038413155b611eae57600080fd5b6000888152602082815260408083208a845290915290819020805464ffffffffff191664ffffffffff89161774ffffffffffffffffffffffffffffffff00000000001916650100000000006001600160801b038816021760ff60a81b1916600160a81b60ff871602178155905188908a907f0fdfa6885701e2f1f42e4187b9231cf81c1fe23671ef64fa46f34ddb56c1dc1890611f4c9089906149ad565b60405180910390a350505b505b6040805160608101825260008152602081019390935260ff909116600a0a9082015290509392505050565b600081600019148015611f9a5750600160ff1b83145b15611fa457600080fd5b818381611fad57fe5b059392505050565b600080611fd9611fd2611fcb87608001516110d1565b86906115a3565b84906119c6565b90506120048660000151611dba611ff388606001516110d1565b610f5485610f4e8c604001516110d1565b915060008212156120315761202761201c8584611b5c565b6080880151906119c6565b6080870152600091505b50949350505050565b6000806000612066612059886020015188611b5c90919063ffffffff16565b611dba89608001516110d1565b9050600061207885611dba89856115a3565b9050612098610c3a82610f546120918c60a001516110d1565b8a906119dc565b92506120a881610f5488856119dc565b9350505060006120b6613076565b88516001600160a01b03166000908152602091825260408082208a5183529092522080549091506001600160501b03811690600160501b9004600990810b900b838210156121475761212d61212661211f6305f5e100610f548d60c00151610f4e888b036110d1565b8a90611b5c565b86906119c6565b83546001600160501b031916845594509092508290612163565b82546001600160501b0319168483036001600160501b03161783555b600085121561217157600080fd5b848112156121db576000808213612188578561218c565b8186035b905060006121a38c600001518d6040015184613083565b905060008313156121d0576121b883826119c6565b8554600160501b600160a01b031916865596506121d4565b8096505b5050612217565b6121ed6121e88287611dcc565b6131a8565b835460099190910b6001600160501b0316600160501b02600160501b600160a01b03199091161783555b5050509550959350505050565b60006305f5e1008360400151141561223d575080610218565b6108ef6305f5e100610f548560400151856119dc90919063ffffffff16565b8060058560600151600581111561226f57fe5b1415612294576000612280846126a9565b9050612290816000015184612ab0565b9250505b60008213156122c05760006122aa8686856131d8565b90508560200151156122ba578091505b506115ce565b6003856060015160058111156122d257fe5b14156122ef576122ea846122e584610b46565b6126bc565b6115ce565b84516115ce90856122ff85610b46565b6132c6565b60008060028660600151600581111561231957fe5b14156123315761232a86858561333d565b905061238e565b600061233c866126a9565b905060058760600151600581111561235057fe5b1415612368576123618186866133fa565b915061238c565b60018760600151600581111561237a57fe5b141561009c57612361878287876134a3565b505b61239a610bbb826110d1565b9695505050505050565b6000806123b8866040015161ffff16611453565b905060006004826060015160058111156123ce57fe5b146123e9576123e4876040015161ffff166126a9565b6123eb565b815b90506000808760800151121561245e5760048360600151600581111561240d57fe5b141561242a57612423610c3a8860800151610b46565b905061245e565b600061244b610bbb89608001518b61016001516115a390919063ffffffff16565b905061245a610c3a84836135a1565b9150505b60408701516000901561251d57600061247784306126f2565b905089600001516001600160a01b03166344f051088a600001518b602001518c604001518d60600151888e8e6040518863ffffffff1660e01b81526004016124c597969594939291906144f7565b600060405180830381600087803b1580156124df57600080fd5b505af11580156124f3573d6000803e3d6000fd5b50505050600061250c30866126f290919063ffffffff16565b9050612518818361158e565b925050505b818110156125b85780820360038460600151600581111561253a57fe5b141561257857348111156125605760405162461bcd60e51b815260040161025090614698565b61257089600001518234036126bc565b8291506125b6565b600061259d8a600001518c6040015161ffff16612594856110d1565b8892919061225c565b90506125b26125ab82611539565b8490612a4c565b9250505b505b818110156125d85760405162461bcd60e51b815260040161025090614698565b60006004856060015160058111156125ec57fe5b146126075760408a0151612602908690846135d6565b612610565b612610826110d1565b905061261c8582612960565b9a9950505050505050505050565b600063ffffffff8211156110e757600080fd5b60008060008060008061264e6136bd565b6001600160a01b039097166000908152602097909752505060409094205461ffff81169563ffffffff620100008304811696506601000000000000830416945060ff600160501b8304169350600160581b90910460d81b9150565b6126b161417a565b61021882600161282b565b6040516001600160a01b0383169082156108fc029083906000818181858888f19350505050158015610a32573d6000803e3d6000fd5b600060038360600151600581111561270657fe5b141561271d57506001600160a01b03811631610218565b82516040516370a0823160e01b81526001600160a01b03909116906370a082319061274c9085906004016144e3565b60206040518083038186803b15801561276457600080fd5b505afa158015612778573d6000803e3d6000fd5b505050506040513d601f19601f8201168201806040525081019061279c91906144a1565b9050610218565b836001600160a01b03166323b872dd8484846040518463ffffffff1660e01b815260040180846001600160a01b03168152602001836001600160a01b031681526020018281526020019350505050600060405180830381600087803b15801561280b57600080fd5b505af115801561281f573d6000803e3d6000fd5b5050505061112d6136ca565b61283361417a565b600061283d613737565b6000858152602082815260408083208715158452825291829020825160a08101845281546001600160a01b038116825260ff600160a01b82048116151594830194909452600160b01b81048416600a0a9482019490945293945092916060830191600160a81b9091041660058111156128b257fe5b81529154600160b81b900468ffffffffffffffffff16602090920191909152949350505050565b6000816128e857506000610218565b600082136128f557600080fd5b6000612900846126a9565b905060006129118260000151613744565b9050600281056b033b2e3c9fd0803ce80000006001600160ff1b038290030585131561293c57600080fd5b81816b033b2e3c9fd0803ce80000008702018161295557fe5b059695505050505050565b60006305f5e10083604001511415612979575080610218565b60408301516108ef90610f54846305f5e1006119dc565b60008061299b6137cf565b6001600160a01b03861660009081526020918252604080822061ffff881683529092522080549091506129de90600160501b90046001600160501b031684611dcc565b91506000831215612a135780546001600160501b0316821315612a135760405162461bcd60e51b81526004016102509061471e565b612a1f610c3f83611539565b81546001600160501b0391909116600160501b02600160501b600160a01b03199091161790559392505050565b6000828201838110156108ef57600080fd5b6000612aa5876040518060a00160405280896001600160a01b03168152602001896001600160a01b03168152602001888152602001878152602001600081525085856123a4565b979650505050505050565b600081612abf57506000610218565b6000612aca84613744565b90506000612ad784612d4e565b9050816b019d971e4fe8401e74000001600160ff1b0381612af457fe5b05811315612b0157600080fd5b6b033b2e3c9fd0803ce80000006b019d971e4fe8401e74000000838302010560008513612b3657612b3181610b46565b61239a565b95945050505050565b60008061021860145b6000620f4240826019811115612b5a57fe5b0192915050565b6000806000806000612b72866137dc565b909250905060006001600160a01b038316612b975750600090506402540be400612c19565b826001600160a01b0316631ee108336040518163ffffffff1660e01b8152600401602060405180830381600087803b158015612bd257600080fd5b505af1158015612be6573d6000803e3d6000fd5b505050506040513d601f19601f82011682018060405250810190612c0a91906144a1565b905060008113612c1957600080fd5b969195509350915050565b600080612c46846060015161081c86608001518661154890919063ffffffff16565b9150612c67846060015161081c8660a001518661154890919063ffffffff16565b90509250929050565b600080612c7c83613813565b60ff169392505050565b60008060008511612ca95760405162461bcd60e51b8152600401610250906146c8565b6007851115612cca5760405162461bcd60e51b815260040161025090614769565b6000612cd584613830565b905060015b868111612d2d576000612cf6612cef8361384e565b84906138f2565b905086811415612d0e5750925060009150612d469050565b86811115612d245750925060019150612d469050565b50600101612cda565b5060405162461bcd60e51b8152600401610250906148c8565b935093915050565b600080821215612d6857612d6182610b46565b9050610b54565b5080610b54565b6000821315612d7d57600080fd5b6000612d9e6301da9c00610f54612d93856110d1565b6080890151906119dc565b90506000612db8610e4e83612db287610b46565b90611dfb565b90506000612dd86064610f548960e00151856119dc90919063ffffffff16565b90506000612de68383611dcc565b9050612dfa886040015161ffff168361394c565b612e0c886040015161ffff16826139d3565b6080870151612e1b9084611dcc565b60809097019690965250505050505050565b600080612e4389600001518a6040015189610fb7565b89519091506001600160a01b031663dc6679c589612e618489612a4c565b8988886040518663ffffffff1660e01b8152600401612e849594939291906145a6565b602060405180830381600087803b158015612e9e57600080fd5b505af1158015612eb2573d6000803e3d6000fd5b505050506040513d601f19601f82011682018060405250810190612ed691906144a1565b9998505050505050505050565b6000806000806000612ef4866137dc565b909250905060006001600160a01b038316612f195750600090506402540be400612c19565b826001600160a01b031663b2fffb046040518163ffffffff1660e01b815260040160206040518083038186803b158015612f5257600080fd5b505afa158015612be6573d6000803e3d6000fd5b600080612f768761ffff166126a9565b9050806040015160001415612f9557612f928761ffff16611453565b90505b60405163e937711160e01b8152612aa5906001600160a01b0388169063e937711190612fc990899089908990600401614585565b60206040518083038186803b158015612fe157600080fd5b505afa158015612ff5573d6000803e3d6000fd5b505050506040513d601f19601f8201168201806040525081019061301991906144a1565b8290612960565b600080600061302d613069565b6000958652602090815260408087209587529490525050509020546501000000000081046001600160801b031691600160a81b90910460ff1690565b6000806102186008612b48565b6000806102186019612b48565b6000613090846000613a1f565b836001600160a01b03167f7c51c6aa77346c54cb051d9e792f9b7bde5c28a9b57e6fb2d2dd727b38438ca960006040516130ca91906145d4565b60405180910390a2836001600160a01b03168361ffff167f49f3652d4bd58df659a52593175facf1a718295f3f4bea635367f06d424a89588460405161311091906145df565b60405180910390a3600061312960008561ffff16613a7f565b50505090508083136131495761314184848303613b28565b8291506131a0565b613154846000613b28565b846001600160a01b03168461ffff167f9982ba522274fa0cc3ee3b56025595a76649b07f4b8a39f0bd8e546ca0f9646f83860360405161319491906145df565b60405180910390a38091505b509392505050565b6000697fffffffffffffffffff1982128015906131cf5750697fffffffffffffffffff8213155b6110e757600080fd5b60008080806005876060015160058111156131ef57fe5b14613201576370a0823160e01b61320a565b630ed1279f60e11b5b9050866020015115613226578651613223903083613b8b565b92505b8651613233908787613c9d565b866020015180613247575060008760800151115b1561325c578651613259903083613b8b565b91505b60808701511561329757600061327a88613275856110d1565b612960565b905061328988608001516110d1565b81131561329557600080fd5b505b8660200151156132bd576132b36132ae8385613cf5565b6110d1565b93505050506108ef565b6132b3856110d1565b826001600160a01b031663a9059cbb83836040518363ffffffff1660e01b815260040180836001600160a01b0316815260200182815260200192505050600060405180830381600087803b15801561331d57600080fd5b505af1158015613331573d6000803e3d6000fd5b50505050610a326136ca565b825160405163db006a7560e01b8152600091479183916001600160a01b03169063db006a75906133719087906004016145df565b602060405180830381600087803b15801561338b57600080fd5b505af115801561339f573d6000803e3d6000fd5b505050506040513d601f19601f820116820180604052508101906133c391906144a1565b905080156133e35760405162461bcd60e51b815260040161025090614678565b476133ee8184613cf5565b93506113a186856126bc565b6000613415610c3a8560000151613410856110d1565b612ab0565b905061341f613d4c565b548451604051631a4ca37b60e21b81526001600160a01b03909216916369328dec916134519185908890600401614535565b602060405180830381600087803b15801561346b57600080fd5b505af115801561347f573d6000803e3d6000fd5b505050506040513d601f19601f820116820180604052508101906131a091906144a1565b825160009081906134bc90306370a0823160e01b613b8b565b9050600086600001516001600160a01b031663db006a75856040518263ffffffff1660e01b81526004016134f091906145df565b602060405180830381600087803b15801561350a57600080fd5b505af115801561351e573d6000803e3d6000fd5b505050506040513d601f19601f8201168201806040525081019061354291906144a1565b905080156135625760405162461bcd60e51b815260040161025090614678565b855160009061357990306370a0823160e01b613b8b565b90506135858184613cf5565b9350613596876000015187866132c6565b505050949350505050565b60006305f5e100836040015112156135c25761279c6001611dba8585612224565b6108ef836135d18460016119c6565b612224565b6000806005856060015160058111156135eb57fe5b146135fd576370a0823160e01b613606565b630ed1279f60e11b5b9050600061361986600001513084613b8b565b905060058660600151600581111561362d57fe5b14156136545760006136428661ffff166126a9565b905061364e8186613d59565b5061369d565b60018660600151600581111561366657fe5b141561367b576136768685613dc4565b61369d565b60028660600151600581111561368d57fe5b141561009c576136768685613e66565b60006136ae87600001513085613b8b565b9050612aa56132ae8284613cf5565b6000806102186002612b48565b60006136d46141d3565b3d80156136e857602081146136f157600080fd5b600192506136fc565b60206000833e815192505b5081611292576040805162461bcd60e51b8152602060048201526005602482015264045524332360dc1b604482015290519081900360640190fd5b6000806102186007612b48565b6000610218613751613d4c565b5460405163d15e005360e01b81526001600160a01b039091169063d15e00539061377f9086906004016144e3565b60206040518083038186803b15801561379757600080fd5b505afa1580156137ab573d6000803e3d6000fd5b505050506040513d601f19601f820116820180604052508101906132ae91906144a1565b6000806102186017612b48565b60008060006137e9613eb9565b600094855260205250506040909120546001600160a01b03811692600160a01b90910460ff169150565b60008061381e613ec6565b60009384526020525050604090205490565b60006276a70082101561384257600080fd5b506276a7008106900390565b6000816001141561386357506276a700610b54565b8160021415613876575062ed4e00610b54565b816003141561388a57506301da9c00610b54565b816004141561389e57506303b53800610b54565b81600514156138b257506309450c00610b54565b81600614156138c6575063128a1800610b54565b81600714156138da57506325143000610b54565b60405162461bcd60e51b8152600401610250906146f7565b6000828201838110156108ef576040805162461bcd60e51b815260206004820152601b60248201527f536166654d6174683a206164646974696f6e206f766572666c6f770000000000604482015290519081900360640190fd5b600081121561395a57600080fd5b6000613967600084613a7f565b505050905061397f82826119c690919063ffffffff16565b9050613992600084836000806000613ed3565b8261ffff167f85170c297762884f47ec6098b74925c795e6d33686b11019b400e33a9b23b5e9836040516139c691906145df565b60405180910390a2505050565b60008112156139e157600080fd5b60006139ec8361401a565b905060006139fa8285613a7f565b5050509050613a1283826119c690919063ffffffff16565b905061112d828583614040565b6000613a29612b3f565b6001600160a01b038416600090815260208290526040902080549192509061ffff168315613a6857815461ffff19166001821761ffff16178255613a78565b815461ffff191661fffe82161782555b5050505050565b6000806000806000613a8f61405e565b6001600160a01b0388166000908152602082815260408083208a8452909152902080546001600160501b0381169650600160501b900463ffffffff1694509091508315613af8578054613af190600160701b900466ffffffffffffff1661406b565b9250613b0d565b8054600160701b900466ffffffffffffff1692505b54600160a81b9004600a90810b900b97939650919450925050565b6000811215613b3657600080fd5b613b4b60008361ffff16836000806000613ed3565b8161ffff167fd3625f7b5926828151efe19f7ae655488287357d99ebe67e5fb20522ca739c0b82604051613b7f91906145df565b60405180910390a25050565b604080516001600160a01b0384811660248084019190915283518084039091018152604490920183526020820180516001600160e01b03166001600160e01b0319861617815292518251600094859485948a16939092909182918083835b60208310613c085780518252601f199092019160209182019101613be9565b6001836020036101000a038019825116818451168082178552505050505050905001915050600060405180830381855afa9150503d8060008114613c68576040519150601f19603f3d011682016040523d82523d6000602084013e613c6d565b606091505b509150915081613c7c57600080fd5b808060200190516020811015613c9157600080fd5b50519695505050505050565b604080516323b872dd60e01b81526001600160a01b038481166004830152306024830152604482018490529151918516916323b872dd9160648082019260009290919082900301818387803b15801561331d57600080fd5b60008282111561159d576040805162461bcd60e51b815260206004820152601e60248201527f536166654d6174683a207375627472616374696f6e206f766572666c6f770000604482015290519081900360640190fd5b6000806102186013612b48565b613d61613d4c565b54825160405163e8eda9df60e01b81526001600160a01b039092169163e8eda9df91613d969185903090600090600401614558565b600060405180830381600087803b158015613db057600080fd5b505af115801561163c573d6000803e3d6000fd5b815160405163140e25ad60e31b81526000916001600160a01b03169063a0712d6890613df49085906004016145df565b602060405180830381600087803b158015613e0e57600080fd5b505af1158015613e22573d6000803e3d6000fd5b505050506040513d601f19601f82011682018060405250810190613e4691906144a1565b90508015610a325760405162461bcd60e51b81526004016102509061465a565b81600001516001600160a01b0316631249c58b826040518263ffffffff1660e01b81526004016000604051808303818588803b158015613ea557600080fd5b505af1158015610bde573d6000803e3d6000fd5b600080610218600f612b48565b6000806102186009612b48565b6000613edd61405e565b6001600160a01b0388166000908152602082815260408083208a845290915290209091506a7fffffffffffffffffffff198612801590613f2857506a7fffffffffffffffffffff8613155b613f3157600080fd5b60008512158015613f4957506001600160501b038513155b613f5257600080fd5b83613f925766ffffffffffffff831115613f6b57600080fd5b805466ffffffffffffff60701b1916600160701b66ffffffffffffff851602178155613fac565b8054600160501b900463ffffffff168414613fac57600080fd5b8054600a9690960b6affffffffffffffffffffff16600160a81b026001600160a81b036001600160501b039096166001600160501b031963ffffffff909616600160501b0263ffffffff60501b19909816979097179490941695909517939093169190911790925550505050565b600080614025614079565b6000938452602052505060409020546001600160a01b031690565b600081121561404e57600080fd5b610a328383836000806000613ed3565b6000806102186006612b48565b600881901c60ff9091161b90565b6000806102186003612b48565b6040518060a0016040528060008152602001600081526020016000815260200160006001600160a01b03168152602001600081525090565b60405180610180016040528060006001600160a01b03168152602001600061ffff168152602001600061ffff168152602001600081526020016000815260200160008152602001600081526020016000815260200160008152602001600081526020016141296141f1565b81526020016141366141a9565b905290565b6040518060e001604052806000815260200160008152602001600015158152602001600081526020016000815260200160008152602001600081525090565b6040805160a0810182526000808252602082018190529181018290529060608201908152602001600081525090565b604051806060016040528060006001600160a01b0316815260200160008152602001600081525090565b60405180602001604052806001906020820280368337509192915050565b60405180606001604052806003906020820280368337509192915050565b80356001600160a01b0381168114610b5457600080fd5b60008083601f840112614237578182fd5b50813567ffffffffffffffff81111561424e578182fd5b60208301915083602082850101111561426657600080fd5b9250929050565b803563ffffffff81168114610b5457600080fd5b60008060408385031215614293578182fd5b61429c8361420f565b9150612c676020840161420f565b600080600080600080600060c0888a0312156142c4578283fd5b6142cd8861420f565b96506142db6020890161420f565b95506142e96040890161420f565b94506060880135935060808801358015158114614304578384fd5b925060a088013567ffffffffffffffff81111561431f578283fd5b61432b8a828b01614226565b989b979a50959850939692959293505050565b60008060008060008060008060e0898b031215614359578081fd5b6143628961420f565b975061437060208a0161420f565b965061437e60408a0161420f565b9550606089013594506080890135935061439a60a08a0161426d565b925060c089013567ffffffffffffffff8111156143b5578182fd5b6143c18b828c01614226565b999c989b5096995094979396929594505050565b60008060008060008060008060e0898b0312156143f0578384fd5b6143f98961420f565b975061440760208a0161420f565b965060408901359550606089013594506080890135935061442a60a08a0161426d565b925060c089013567ffffffffffffffff8111156143b5578283fd5b60008060008060008060008060e0898b031215614460578384fd5b6144698961420f565b975061447760208a0161420f565b9650604089013595506060890135945061449360808a0161426d565b935061442a60a08a0161426d565b6000602082840312156144b2578081fd5b5051919050565b60008284528282602086013780602084860101526020601f19601f85011685010190509392505050565b6001600160a01b0391909116815260200190565b600060018060a01b03808a16835280891660208401525086604083015285606083015284608083015260c060a0830152612ed660c0830184866144b9565b6001600160a01b0393841681526020810192909252909116604082015260600190565b6001600160a01b03948516815260208101939093529216604082015261ffff909116606082015260800190565b6001600160a01b039390931683526020830191909152604082015260600190565b600060018060a01b038716825285602083015284604083015260806060830152612aa56080830184866144b9565b901515815260200190565b90815260200190565b938452602084019290925260408301521515606082015260800190565b6020808252600c908201526b155b985d5d1a1bdc9a5e995960a21b604082015260600190565b6020808252601590820152740acc2ead8e840a6d0c2e4cae6409ad2e6dac2e8c6d605b1b604082015260600190565b602080825260049082015263135a5b9d60e21b604082015260600190565b60208082526006908201526552656465656d60d01b604082015260600190565b602080825260169082015275125b9cdd59999a58da595b9d081c995c185e5b595b9d60521b604082015260600190565b60208082526015908201527410d1ce881b9bc81b585c9ad95d1cc81b1a5cdd1959605a1b604082015260600190565b6020808252600d908201526c092dcecc2d8d2c840d2dcc8caf609b1b604082015260600190565b6020808252600c908201526b4d617820436170616369747960a01b604082015260600190565b6020808252600b908201526a139bdd0814d95d1d1b195960aa1b604082015260600190565b60208082526016908201527510d1ce881b585c9ad95d081a5b99195e08189bdd5b9960521b604082015260600190565b6020808252600f908201526e139bc8149bdb1b08105b1b1bddd959608a1b604082015260600190565b60208082526017908201527f496e73756666696369656e7420436f6c6c61746572616c000000000000000000604082015260600190565b60208082526017908201527f4d757374204c697175696461746520416c6c2044656274000000000000000000604082015260600190565b6020808252600e908201526d1499595b9d1c985b9d0818d85b1b60921b604082015260600190565b6020808252600d908201526c109bdc9c9bddc819985a5b1959609a1b604082015260600190565b6020808252600a90820152694d696e20426f72726f7760b01b604082015260600190565b6020808252600b908201526a092dcecc2d8d2c8408aa8960ab1b604082015260600190565b60208082526013908201527210d1ce881b9bc81b585c9ad95d08199bdd5b99606a1b604082015260600190565b6020808252600c908201526b21b0b73737ba1022b73a32b960a11b604082015260600190565b6020808252600b908201526a11985a5b19590813195b9960aa1b604082015260600190565b60208082526015908201527414dd59999a58da595b9d0810dbdb1b185d195c985b605a1b604082015260600190565b8151815260208083015190820152604080830151908201526060808301516001600160a01b0316908201526080918201519181019190915260a00190565b6001600160801b0391909116815260200190565b61ffff92909216825260208201526040019056fea2646970667358221220e96b650d47fa083fad4c946a80cd951e13451da6062b710425a6baddfe0a45b464736f6c63430007060033",
  "bytecodeSha1": "8b1734e6769cb2b78d308e84b7bb51064f09a8eb",
  "compiler": {
    "evm_version": "istanbul",
    "optimizer": {
      "enabled": true,
      "runs": 200
    },
    "version": "0.7.6+commit.7338295f"
  },
  "contractName": "VaultAccountAction",
  "deployedBytecode": "60806040526004361061009c5760003560e01c80638246336711610064578063824633671461015e5780638da5cb5b1461017357806395c1a202146101885780639948315e1461019b578063c025d1a5146101bb578063c4c96dae146101e85761009c565b80630c09ff56146100a157806324a3d622146100d7578063450c0e02146100f9578063647cc1961461011b5780636ce48f011461014b575b600080fd5b3480156100ad57600080fd5b506100c16100bc366004614281565b6101fd565b6040516100ce91906145df565b60405180910390f35b3480156100e357600080fd5b506100ec61021e565b6040516100ce91906144e3565b34801561010557600080fd5b50610119610114366004614445565b61022d565b005b34801561012757600080fd5b5061013b610136366004614281565b61039f565b6040516100ce94939291906145e8565b61011961015936600461433e565b610438565b34801561016a57600080fd5b506100ec6105dc565b34801561017f57600080fd5b506100ec6105eb565b6101196101963660046143d5565b610602565b3480156101a757600080fd5b506100c16101b63660046142aa565b610704565b3480156101c757600080fd5b506101db6101d6366004614281565b6108da565b6040516100ce919061496f565b3480156101f457600080fd5b506100ec6108f6565b60006102118361020c8461090e565b61091f565b6020015190505b92915050565b6002546001600160a01b031681565b6002600a5414156102595760405162461bcd60e51b815260040161025090614830565b60405180910390fd5b6002600a5560006102698861099e565b9050610277818a60106109cd565b610282816080610a37565b1561028d576001600a555b60006102998a8361091f565b90506102a6826001610a37565b80156102b857506102b8826002610a37565b80156102c75750806020015142105b80156102d65750868160200151105b80156102e25750600088115b6102fe5760405162461bcd60e51b815260040161025090614799565b600061031283600001518360200151610a4c565b9050600061032f83846040015184610ae79092919063ffffffff16565b905061034e84836103438660000151610b46565b869291908c42610b59565b82511561036d5760405162461bcd60e51b81526004016102509061491b565b835161037a908390610be7565b61038c83858b8d8b8b8b886000610cff565b50506001600a5550505050505050505050565b60008060008060006103b086610d8d565b905060006103be888361091f565b905060006103d0888360200151610a4c565b90508260a0015195508060400151156103f2576001600160ff1b03965061042c565b6040820151825160009161040c91869185918e9190610db1565b90985090508688121561042a57610424838583610e19565b90965094505b505b50505092959194509250565b6002600a54141561045b5760405162461bcd60e51b815260040161025090614830565b6002600a55600061046b8861099e565b9050610479818a60086109cd565b610484816080610a37565b1561048f576001600a555b600061049b8a8361091f565b9050428160200151116104fb57602081015160006104ba838542610edc565b90506000836080015113156104e5576104dc8a85604001518560800151610fb7565b50600060808401525b6104f484848c84868b8b61105f565b50506105a3565b600061050f83600001518360200151610a4c565b905061052a838261051f8a6110d1565b859291908a42610b59565b871561057f57600061053d82848b610ae7565b90506000836080015113156105685761055f8a85604001518560800151610fb7565b50600060808401525b815161057d90859085908d9085908b8b61105f565b505b815160001315610594576105948382846110eb565b82516105a1908290610be7565b505b80511580156105b457506040810151155b156105c157600060208201525b6105cb8183611133565b50506001600a555050505050505050565b6001546001600160a01b031681565b60005464010000000090046001600160a01b031681565b6002600a5414156106255760405162461bcd60e51b815260040161025090614830565b6002600a5561063388611247565b600061063e8861099e565b905061064c818a60046109cd565b610657816080610a37565b15610662576001600a555b61066d816001610a37565b6106895760405162461bcd60e51b8152600401610250906148f5565b8542106106a85760405162461bcd60e51b8152600401610250906148f5565b60006106b48a8361091f565b9050600081602001516000141580156106d1575042826020015111155b156106e4576106e1828442610edc565b90505b60006106f1848d8c611296565b905061038c83858b8b8b8b8b8989610cff565b60006002600a5414156107295760405162461bcd60e51b815260040161025090614830565b6002600a55600061073b8989896113ab565b905060006107498a8361091f565b9050600061075b8a8360200151610a4c565b90508160200151421061076d57600080fd5b600080610791838e8660400151876000015189610db190949392919063ffffffff16565b915091508460a0015182126107b85760405162461bcd60e51b815260040161025090614940565b60006107cb866040015161ffff16611453565b90506107db8c8287898f87611466565b6000610822633b9aca0061081c6107f186611539565b61081c8a604001516108166108098e60c00151611539565b6108168e60800151611539565b90611548565b9061156f565b6040870151909150610834908261158e565b6040870152608086015161016088015160009161085191906115a3565b90506108708887836108668b60800151610b46565b8b939291906115d6565b86516000121561087f57600087525b5061088a8688611133565b8a156108bb57865161089d908690610be7565b6108ad8d88838960200151611644565b9750505050505050506108ca565b6108ad8d8887848e8e886116b4565b6001600a55979650505050505050565b6108e2614086565b6108ef8361020c8461090e565b9392505050565b73__$7ac922d04bd7a1b42c7f6e5f1dd89a70af$__90565b6109166140be565b6102188261178a565b610927614086565b6000610931611909565b6001600160a01b0394851660008181526020928352604080822096519097168152948252858520546001600160501b038082168703865263ffffffff600160a01b83041693860193909352600160501b900490911694830194909452506060810192909252608082015290565b6109a66140be565b6109af8261178a565b90506109c2816040015161ffff16611916565b610160820152919050565b6109d78382610a37565b15610a0a5782516001600160a01b03163314610a055760405162461bcd60e51b815260040161025090614605565b610a32565b6001600160a01b0382163314610a325760405162461bcd60e51b815260040161025090614605565b505050565b60209190910151811661ffff90811691161490565b610a5461413b565b6000610a5e611962565b6001600160a01b03909416600090815260209485526040808220858352865280822094845284546001600160501b038082169093039685019690965260ff600160f01b870416151590840152600160501b8086048216608085015260019094015480821660a0850152600160a01b909504166060830152509104600990810b900b60c082015290565b8251602083015160009114610afb57600080fd5b6040830151610b0a908361158e565b60408401526000610b1b858461196f565b92509050610b36610b2b826110d1565b6080860151906119c6565b6080909401939093529392505050565b6000610218600019836119dc565b919050565b8551600090610b6890856119c6565b1315610b7357600080fd5b85602001518110610b8357600080fd5b6000610ba08660400151886020015186868a610100015187611a2a565b905080610bc357610160860151610bc090610bbb9086611b5c565b610b46565b90505b6000811315610bd157600080fd5b610bde87878787856115d6565b50505050505050565b6000610bf1611962565b6001600160a01b0383166000908152602082815260408083208751845290915290819020908501519192509015610c2757600080fd5b610c44610c3f610c3a8660200151610b46565b611539565b611b87565b81546001600160501b0319166001600160501b03919091161781556080840151610c6d90611b87565b81546001600160501b0391909116600160501b02600160501b600160a01b031990911617815560a0840151610ca190611b87565b6001820180546001600160501b0319166001600160501b03929092169190911790556060840151610cd190611b87565b81546001600160501b0391909116600160a01b0269ffffffffffffffffffff60a01b19909116179055505050565b8689602001511480610d1057508851155b610d1957600080fd5b6000610d29896000015189610a4c565b90508615610d4a57610d4a8a8a838b610d44610bbb8d6110d1565b8b611b9d565b610d59818b8b86868a8a611c44565b8851610d66908290610be7565b610d708a8a611133565b8615610d8157610d8189828c6110eb565b50505050505050505050565b610d956140be565b610d9e8261178a565b90506109c2816040015161ffff16611d4b565b600080610dc086888787611d61565b90506000610ddc610dd085610b46565b6101608a015190611b5c565b90506000610dea8383611dcc565b905081610e00576001600160ff1b039350610e0d565b610e0a8183611de2565b93505b50509550959350505050565b6000806000610e3a633b9aca008661012001516119c690919063ffffffff16565b90506000610e5a610e4e8860000151610b46565b61016088015190611b5c565b9050610e90610e768760c0015184611dcc90919063ffffffff16565b610e8a87610e848587611dfb565b90611dcc565b90611de2565b93506000610e9e8286611dcc565b90506000610ebe8860600151896101600151611b5c90919063ffffffff16565b905080821215610ed057829550600194505b50505050935093915050565b600080610ef184600001518660200151610a4c565b90508060400151610f145760405162461bcd60e51b815260040161025090614744565b6000610f2d856040015161ffff16876020015186611e14565b90506000610f5a6305f5e100610f548560c00151610f4e8760a001516110d1565b906119dc565b90611f84565b90506000610f6a88858585611fb5565b90506000610f7b888686858761203a565b60008b5260808b0151909750909150610f9490826119c6565b60808a015250506000604088018190526020909701969096525090949350505050565b600081610fc6575060006108ef565b60008213610fd357600080fd5b6000610fe28461ffff16611453565b90506000610ff08285612224565b905060048260600151600581111561100457fe5b14156110325761102b610c3a610bbb888861ffff1661102286610b46565b8792919061225c565b9250611056565b611053610c3a610bbb8761ffff168961104a86611539565b87929190612304565b92505b50509392505050565b60008660800151131561107157600080fd5b6110bd876040518060a0016040528089606001516001600160a01b03168152602001886001600160a01b03168152602001878152602001868152602001896080015181525084846123a4565b505060006080909501949094525050505050565b60006001600160ff1b038211156110e757600080fd5b5090565b60006111068484846060015185604001518660000151610db1565b509050808460a00151131561112d5760405162461bcd60e51b8152600401610250906147c2565b50505050565b600061113d611909565b60608401516001600160a01b0390811660009081526020838152604080832087519094168352929052206080850151919250901561117a57600080fd5b835115806111965750835161118e90610b46565b836060015113155b6111b25760405162461bcd60e51b81526004016102509061487f565b6111c5610c3f610c3a8660000151610b46565b81546001600160501b0319166001600160501b039190911617815560408401516111ee90611b87565b81546001600160501b0391909116600160501b02600160501b600160a01b031990911617815560208401516112229061262a565b815463ffffffff91909116600160a01b0263ffffffff60a01b19909116179055505050565b6001600160a01b03811661125a57600080fd5b6001600160a01b03811630141561127057600080fd5b600061127b8261263d565b5050505061ffff1690508060001461129257600080fd5b5050565b6000816112a5575060006108ef565b60006112b8856040015161ffff16611453565b905060006004826060015160058111156112ce57fe5b146112e9576112e4866040015161ffff166126a9565b6112eb565b815b865190915060038260600151600581111561130257fe5b141561133c578434146113275760405162461bcd60e51b8152600401610250906148a3565b61133181346126bc565b3493505050506108ef565b81602001511561138857600061135283836126f2565b905061136483600001518884896127a3565b600061137084846126f2565b905061137c818361158e565b955050505050506108ef565b8151611396908783886127a3565b8493505050506108ef565b5050509392505050565b6113b36140be565b6113bc8361099e565b90506113c9816080610a37565b156113d4576001600a555b6113df816020610a37565b1561140c57336001600160a01b0384161461140c5760405162461bcd60e51b815260040161025090614605565b6001600160a01b03841633148015906114375750816001600160a01b0316846001600160a01b031614155b6108ef5760405162461bcd60e51b815260040161025090614605565b61145b61417a565b61021882600061282b565b6000611471836110d1565b905060058660600151600581111561148557fe5b14156114a05761149d846040015161ffff16826128d9565b90505b6000806114ae878786610e19565b909250905060006114bf8984612224565b9050808412156114ec5781156114e75760405162461bcd60e51b8152600401610250906147f9565b6114f0565b8093505b604087015160009061150a908b908d9061ffff168861225c565b90506115246115198b83612960565b60808b0151906119c6565b60809099019890985250505050505050505050565b6000808212156110e757600080fd5b60008261155757506000610218565b8282028284828161156457fe5b04146108ef57600080fd5b600080821161157d57600080fd5b81838161158657fe5b049392505050565b60008282111561159d57600080fd5b50900390565b6000806115ce8460400151610f546402540be400610f548789602001516119dc90919063ffffffff16565b949350505050565b60808501516115e590826119c6565b608086015284516115f690836119c6565b8086526000121561160657600080fd5b602083015161161590836119c6565b602084018190526000121561162957600080fd5b61163c8460000151856040015184612990565b505050505050565b600080611651868661091f565b90508060200151600014806116695750828160200151145b6116855760405162461bcd60e51b81526004016102509061462b565b60208101839052604081015161169b9085612a4c565b60408201526116aa8186611133565b5091949350505050565b600080806116c2888861196f565b895191935091506000906116dd908b908d9085908b8b612a5e565b90506116f26116eb846110d1565b82906119c6565b8a51909150611702908a90610be7565b600061172d8c8c6040015161ffff1661172461171d86610b46565b8a90612224565b8992919061225c565b905060058660600151600581111561174157fe5b141561176e57600061175a8c6040015161ffff166126a9565b905061176a816000015183612ab0565b9150505b61177a610c3a82610b46565b9c9b505050505050505050505050565b6117926140be565b600061179c612b3f565b6001600160a01b03841660008181526020838152604091829020928652825461ffff8082169288019290925262010000810490911691860191909152919250906117fd9063ffffffff6401000000009091048116906305f5e100906119dc16565b6060840152805461181b90600160501b900460ff166207a120611548565b6080840152805461183f9068010000000000000000900461ffff16620186a0611548565b60a0840152805461185e90600160701b900461ffff16620186a0611548565b610120840152805460649060ff600160581b90910416633b9aca00020560c08401528054600160601b810460ff90811660e0860152600160681b90910416610100840152604080516060810191829052906001830190600390826000855b82829054906101000a900461ffff1661ffff16815260200190600201906020826001010492830192600103820291508084116118bc57905050505050508361014001819052505050919050565b6000806102186016612b48565b61191e6141a9565b600080600061192c85612b61565b604080516060810182526001600160a01b039093168352602083019390935260ff16600a0a918101919091529350505050919050565b6000806102186015612b48565b60008061197c8484612c24565b60808601519193509150611990908361158e565b608085015260a08401516119a4908261158e565b60a085015260608401516119b8908461158e565b606090940193909352929050565b8181018281121560008312151461021857600080fd5b818102600019831415611a0c578115806119fe5750828282816119fb57fe5b05145b611a0757600080fd5b610218565b821580611a21575081838281611a1e57fe5b05145b61021857600080fd5b600080611a3a8861ffff16612c70565b9050838160ff161115611a4c57600080fd5b600080611a5d8360ff168a87612c86565b915091508015611a6c57600080fd5b6000611a7789612d4e565b90506affffffffffffffffffffff8110611a9057600080fd5b600060788963ffffffff16901b609883901b60f086901b60f860008e13611ab8576001611abb565b60005b6005811115611ac657fe5b60ff16901b17171760001b905073__$7ac922d04bd7a1b42c7f6e5f1dd89a70af$__63e50f349e8d836040518363ffffffff1660e01b8152600401611b0c9291906149c1565b60206040518083038186803b158015611b2457600080fd5b505af4158015611b38573d6000803e3d6000fd5b505050506040513d601f19601f8201168201806040525081019061177a91906144a1565b6000806115ce8460200151610f548660400151610f4e6402540be400886119dc90919063ffffffff16565b60006001600160501b038211156110e757600080fd5b60008212611baa57600080fd5b6000611bc386604001518585858a610100015142611a2a565b905060008113611be55760405162461bcd60e51b815260040161025090614858565b611bf287878786856115d6565b8651611bfd90610b46565b86606001511315611c205760405162461bcd60e51b81526004016102509061487f565b6000611c2c854261158e565b9050611c3a87898684612d6f565b5050505050505050565b608087015115611c5357600080fd5b600086608001511215611c6557600080fd5b865160208701511015611c8d57604086015115611c8157600080fd5b86516020870152611c9e565b8651602087015114611c9e57600080fd5b606086015160808701518851611cc392611cbc928992888888612e2d565b8590612a4c565b600060808801819052606089015191955090611ce0575083611d02565b611cff8860a0015161081c8a606001518861154890919063ffffffff16565b90505b60a0880151611d119086612a4c565b60a08901526060880151611d259082612a4c565b60608901526040870151611d399082612a4c565b60409097019690965250505050505050565b611d536141a9565b600080600061192c85612ee3565b600081611d70575060006115ce565b600080611d7d8785612c24565b915091506000611d9c8760400151886000015188858c60000151612f66565b9050611dc0611daa846110d1565b610160890151611dba9084611b5c565b906119c6565b98975050505050505050565b8082038281131560008312151461021857600080fd5b60006108ef611df584633b9aca006119dc565b83611f84565b60006108ef611e0a84846119dc565b633b9aca00611f84565b611e1c6141a9565b600080611e298686613020565b915091508160001415611f59576000611e4187612b61565b91945090925090506001600160a01b03811615611f57576000611e62613069565b9050856000108015611e745750858711155b8015611e85575064ffffffffff8611155b611e8e57600080fd5b836000128015611ea557506001600160801b038413155b611eae57600080fd5b6000888152602082815260408083208a845290915290819020805464ffffffffff191664ffffffffff89161774ffffffffffffffffffffffffffffffff00000000001916650100000000006001600160801b038816021760ff60a81b1916600160a81b60ff871602178155905188908a907f0fdfa6885701e2f1f42e4187b9231cf81c1fe23671ef64fa46f34ddb56c1dc1890611f4c9089906149ad565b60405180910390a350505b505b6040805160608101825260008152602081019390935260ff909116600a0a9082015290509392505050565b600081600019148015611f9a5750600160ff1b83145b15611fa457600080fd5b818381611fad57fe5b059392505050565b600080611fd9611fd2611fcb87608001516110d1565b86906115a3565b84906119c6565b90506120048660000151611dba611ff388606001516110d1565b610f5485610f4e8c604001516110d1565b915060008212156120315761202761201c8584611b5c565b6080880151906119c6565b6080870152600091505b50949350505050565b6000806000612066612059886020015188611b5c90919063ffffffff16565b611dba89608001516110d1565b9050600061207885611dba89856115a3565b9050612098610c3a82610f546120918c60a001516110d1565b8a906119dc565b92506120a881610f5488856119dc565b9350505060006120b6613076565b88516001600160a01b03166000908152602091825260408082208a5183529092522080549091506001600160501b03811690600160501b9004600990810b900b838210156121475761212d61212661211f6305f5e100610f548d60c00151610f4e888b036110d1565b8a90611b5c565b86906119c6565b83546001600160501b031916845594509092508290612163565b82546001600160501b0319168483036001600160501b03161783555b600085121561217157600080fd5b848112156121db576000808213612188578561218c565b8186035b905060006121a38c600001518d6040015184613083565b905060008313156121d0576121b883826119c6565b8554600160501b600160a01b031916865596506121d4565b8096505b5050612217565b6121ed6121e88287611dcc565b6131a8565b835460099190910b6001600160501b0316600160501b02600160501b600160a01b03199091161783555b5050509550959350505050565b60006305f5e1008360400151141561223d575080610218565b6108ef6305f5e100610f548560400151856119dc90919063ffffffff16565b8060058560600151600581111561226f57fe5b1415612294576000612280846126a9565b9050612290816000015184612ab0565b9250505b60008213156122c05760006122aa8686856131d8565b90508560200151156122ba578091505b506115ce565b6003856060015160058111156122d257fe5b14156122ef576122ea846122e584610b46565b6126bc565b6115ce565b84516115ce90856122ff85610b46565b6132c6565b60008060028660600151600581111561231957fe5b14156123315761232a86858561333d565b905061238e565b600061233c866126a9565b905060058760600151600581111561235057fe5b1415612368576123618186866133fa565b915061238c565b60018760600151600581111561237a57fe5b141561009c57612361878287876134a3565b505b61239a610bbb826110d1565b9695505050505050565b6000806123b8866040015161ffff16611453565b905060006004826060015160058111156123ce57fe5b146123e9576123e4876040015161ffff166126a9565b6123eb565b815b90506000808760800151121561245e5760048360600151600581111561240d57fe5b141561242a57612423610c3a8860800151610b46565b905061245e565b600061244b610bbb89608001518b61016001516115a390919063ffffffff16565b905061245a610c3a84836135a1565b9150505b60408701516000901561251d57600061247784306126f2565b905089600001516001600160a01b03166344f051088a600001518b602001518c604001518d60600151888e8e6040518863ffffffff1660e01b81526004016124c597969594939291906144f7565b600060405180830381600087803b1580156124df57600080fd5b505af11580156124f3573d6000803e3d6000fd5b50505050600061250c30866126f290919063ffffffff16565b9050612518818361158e565b925050505b818110156125b85780820360038460600151600581111561253a57fe5b141561257857348111156125605760405162461bcd60e51b815260040161025090614698565b61257089600001518234036126bc565b8291506125b6565b600061259d8a600001518c6040015161ffff16612594856110d1565b8892919061225c565b90506125b26125ab82611539565b8490612a4c565b9250505b505b818110156125d85760405162461bcd60e51b815260040161025090614698565b60006004856060015160058111156125ec57fe5b146126075760408a0151612602908690846135d6565b612610565b612610826110d1565b905061261c8582612960565b9a9950505050505050505050565b600063ffffffff8211156110e757600080fd5b60008060008060008061264e6136bd565b6001600160a01b039097166000908152602097909752505060409094205461ffff81169563ffffffff620100008304811696506601000000000000830416945060ff600160501b8304169350600160581b90910460d81b9150565b6126b161417a565b61021882600161282b565b6040516001600160a01b0383169082156108fc029083906000818181858888f19350505050158015610a32573d6000803e3d6000fd5b600060038360600151600581111561270657fe5b141561271d57506001600160a01b03811631610218565b82516040516370a0823160e01b81526001600160a01b03909116906370a082319061274c9085906004016144e3565b60206040518083038186803b15801561276457600080fd5b505afa158015612778573d6000803e3d6000fd5b505050506040513d601f19601f8201168201806040525081019061279c91906144a1565b9050610218565b836001600160a01b03166323b872dd8484846040518463ffffffff1660e01b815260040180846001600160a01b03168152602001836001600160a01b031681526020018281526020019350505050600060405180830381600087803b15801561280b57600080fd5b505af115801561281f573d6000803e3d6000fd5b5050505061112d6136ca565b61283361417a565b600061283d613737565b6000858152602082815260408083208715158452825291829020825160a08101845281546001600160a01b038116825260ff600160a01b82048116151594830194909452600160b01b81048416600a0a9482019490945293945092916060830191600160a81b9091041660058111156128b257fe5b81529154600160b81b900468ffffffffffffffffff16602090920191909152949350505050565b6000816128e857506000610218565b600082136128f557600080fd5b6000612900846126a9565b905060006129118260000151613744565b9050600281056b033b2e3c9fd0803ce80000006001600160ff1b038290030585131561293c57600080fd5b81816b033b2e3c9fd0803ce80000008702018161295557fe5b059695505050505050565b60006305f5e10083604001511415612979575080610218565b60408301516108ef90610f54846305f5e1006119dc565b60008061299b6137cf565b6001600160a01b03861660009081526020918252604080822061ffff881683529092522080549091506129de90600160501b90046001600160501b031684611dcc565b91506000831215612a135780546001600160501b0316821315612a135760405162461bcd60e51b81526004016102509061471e565b612a1f610c3f83611539565b81546001600160501b0391909116600160501b02600160501b600160a01b03199091161790559392505050565b6000828201838110156108ef57600080fd5b6000612aa5876040518060a00160405280896001600160a01b03168152602001896001600160a01b03168152602001888152602001878152602001600081525085856123a4565b979650505050505050565b600081612abf57506000610218565b6000612aca84613744565b90506000612ad784612d4e565b9050816b019d971e4fe8401e74000001600160ff1b0381612af457fe5b05811315612b0157600080fd5b6b033b2e3c9fd0803ce80000006b019d971e4fe8401e74000000838302010560008513612b3657612b3181610b46565b61239a565b95945050505050565b60008061021860145b6000620f4240826019811115612b5a57fe5b0192915050565b6000806000806000612b72866137dc565b909250905060006001600160a01b038316612b975750600090506402540be400612c19565b826001600160a01b0316631ee108336040518163ffffffff1660e01b8152600401602060405180830381600087803b158015612bd257600080fd5b505af1158015612be6573d6000803e3d6000fd5b505050506040513d601f19601f82011682018060405250810190612c0a91906144a1565b905060008113612c1957600080fd5b969195509350915050565b600080612c46846060015161081c86608001518661154890919063ffffffff16565b9150612c67846060015161081c8660a001518661154890919063ffffffff16565b90509250929050565b600080612c7c83613813565b60ff169392505050565b60008060008511612ca95760405162461bcd60e51b8152600401610250906146c8565b6007851115612cca5760405162461bcd60e51b815260040161025090614769565b6000612cd584613830565b905060015b868111612d2d576000612cf6612cef8361384e565b84906138f2565b905086811415612d0e5750925060009150612d469050565b86811115612d245750925060019150612d469050565b50600101612cda565b5060405162461bcd60e51b8152600401610250906148c8565b935093915050565b600080821215612d6857612d6182610b46565b9050610b54565b5080610b54565b6000821315612d7d57600080fd5b6000612d9e6301da9c00610f54612d93856110d1565b6080890151906119dc565b90506000612db8610e4e83612db287610b46565b90611dfb565b90506000612dd86064610f548960e00151856119dc90919063ffffffff16565b90506000612de68383611dcc565b9050612dfa886040015161ffff168361394c565b612e0c886040015161ffff16826139d3565b6080870151612e1b9084611dcc565b60809097019690965250505050505050565b600080612e4389600001518a6040015189610fb7565b89519091506001600160a01b031663dc6679c589612e618489612a4c565b8988886040518663ffffffff1660e01b8152600401612e849594939291906145a6565b602060405180830381600087803b158015612e9e57600080fd5b505af1158015612eb2573d6000803e3d6000fd5b505050506040513d601f19601f82011682018060405250810190612ed691906144a1565b9998505050505050505050565b6000806000806000612ef4866137dc565b909250905060006001600160a01b038316612f195750600090506402540be400612c19565b826001600160a01b031663b2fffb046040518163ffffffff1660e01b815260040160206040518083038186803b158015612f5257600080fd5b505afa158015612be6573d6000803e3d6000fd5b600080612f768761ffff166126a9565b9050806040015160001415612f9557612f928761ffff16611453565b90505b60405163e937711160e01b8152612aa5906001600160a01b0388169063e937711190612fc990899089908990600401614585565b60206040518083038186803b158015612fe157600080fd5b505afa158015612ff5573d6000803e3d6000fd5b505050506040513d601f19601f8201168201806040525081019061301991906144a1565b8290612960565b600080600061302d613069565b6000958652602090815260408087209587529490525050509020546501000000000081046001600160801b031691600160a81b90910460ff1690565b6000806102186008612b48565b6000806102186019612b48565b6000613090846000613a1f565b836001600160a01b03167f7c51c6aa77346c54cb051d9e792f9b7bde5c28a9b57e6fb2d2dd727b38438ca960006040516130ca91906145d4565b60405180910390a2836001600160a01b03168361ffff167f49f3652d4bd58df659a52593175facf1a718295f3f4bea635367f06d424a89588460405161311091906145df565b60405180910390a3600061312960008561ffff16613a7f565b50505090508083136131495761314184848303613b28565b8291506131a0565b613154846000613b28565b846001600160a01b03168461ffff167f9982ba522274fa0cc3ee3b56025595a76649b07f4b8a39f0bd8e546ca0f9646f83860360405161319491906145df565b60405180910390a38091505b509392505050565b6000697fffffffffffffffffff1982128015906131cf5750697fffffffffffffffffff8213155b6110e757600080fd5b60008080806005876060015160058111156131ef57fe5b14613201576370a0823160e01b61320a565b630ed1279f60e11b5b9050866020015115613226578651613223903083613b8b565b92505b8651613233908787613c9d565b866020015180613247575060008760800151115b1561325c578651613259903083613b8b565b91505b60808701511561329757600061327a88613275856110d1565b612960565b905061328988608001516110d1565b81131561329557600080fd5b505b8660200151156132bd576132b36132ae8385613cf5565b6110d1565b93505050506108ef565b6132b3856110d1565b826001600160a01b031663a9059cbb83836040518363ffffffff1660e01b815260040180836001600160a01b0316815260200182815260200192505050600060405180830381600087803b15801561331d57600080fd5b505af1158015613331573d6000803e3d6000fd5b50505050610a326136ca565b825160405163db006a7560e01b8152600091479183916001600160a01b03169063db006a75906133719087906004016145df565b602060405180830381600087803b15801561338b57600080fd5b505af115801561339f573d6000803e3d6000fd5b505050506040513d601f19601f820116820180604052508101906133c391906144a1565b905080156133e35760405162461bcd60e51b815260040161025090614678565b476133ee8184613cf5565b93506113a186856126bc565b6000613415610c3a8560000151613410856110d1565b612ab0565b905061341f613d4c565b548451604051631a4ca37b60e21b81526001600160a01b03909216916369328dec916134519185908890600401614535565b602060405180830381600087803b15801561346b57600080fd5b505af115801561347f573d6000803e3d6000fd5b505050506040513d601f19601f820116820180604052508101906131a091906144a1565b825160009081906134bc90306370a0823160e01b613b8b565b9050600086600001516001600160a01b031663db006a75856040518263ffffffff1660e01b81526004016134f091906145df565b602060405180830381600087803b15801561350a57600080fd5b505af115801561351e573d6000803e3d6000fd5b505050506040513d601f19601f8201168201806040525081019061354291906144a1565b905080156135625760405162461bcd60e51b815260040161025090614678565b855160009061357990306370a0823160e01b613b8b565b90506135858184613cf5565b9350613596876000015187866132c6565b505050949350505050565b60006305f5e100836040015112156135c25761279c6001611dba8585612224565b6108ef836135d18460016119c6565b612224565b6000806005856060015160058111156135eb57fe5b146135fd576370a0823160e01b613606565b630ed1279f60e11b5b9050600061361986600001513084613b8b565b905060058660600151600581111561362d57fe5b14156136545760006136428661ffff166126a9565b905061364e8186613d59565b5061369d565b60018660600151600581111561366657fe5b141561367b576136768685613dc4565b61369d565b60028660600151600581111561368d57fe5b141561009c576136768685613e66565b60006136ae87600001513085613b8b565b9050612aa56132ae8284613cf5565b6000806102186002612b48565b60006136d46141d3565b3d80156136e857602081146136f157600080fd5b600192506136fc565b60206000833e815192505b5081611292576040805162461bcd60e51b8152602060048201526005602482015264045524332360dc1b604482015290519081900360640190fd5b6000806102186007612b48565b6000610218613751613d4c565b5460405163d15e005360e01b81526001600160a01b039091169063d15e00539061377f9086906004016144e3565b60206040518083038186803b15801561379757600080fd5b505afa1580156137ab573d6000803e3d6000fd5b505050506040513d601f19601f820116820180604052508101906132ae91906144a1565b6000806102186017612b48565b60008060006137e9613eb9565b600094855260205250506040909120546001600160a01b03811692600160a01b90910460ff169150565b60008061381e613ec6565b60009384526020525050604090205490565b60006276a70082101561384257600080fd5b506276a7008106900390565b6000816001141561386357506276a700610b54565b8160021415613876575062ed4e00610b54565b816003141561388a57506301da9c00610b54565b816004141561389e57506303b53800610b54565b81600514156138b257506309450c00610b54565b81600614156138c6575063128a1800610b54565b81600714156138da57506325143000610b54565b60405162461bcd60e51b8152600401610250906146f7565b6000828201838110156108ef576040805162461bcd60e51b815260206004820152601b60248201527f536166654d6174683a206164646974696f6e206f766572666c6f770000000000604482015290519081900360640190fd5b600081121561395a57600080fd5b6000613967600084613a7f565b505050905061397f82826119c690919063ffffffff16565b9050613992600084836000806000613ed3565b8261ffff167f85170c297762884f47ec6098b74925c795e6d33686b11019b400e33a9b23b5e9836040516139c691906145df565b60405180910390a2505050565b60008112156139e157600080fd5b60006139ec8361401a565b905060006139fa8285613a7f565b5050509050613a1283826119c690919063ffffffff16565b905061112d828583614040565b6000613a29612b3f565b6001600160a01b038416600090815260208290526040902080549192509061ffff168315613a6857815461ffff19166001821761ffff16178255613a78565b815461ffff191661fffe82161782555b5050505050565b6000806000806000613a8f61405e565b6001600160a01b0388166000908152602082815260408083208a8452909152902080546001600160501b0381169650600160501b900463ffffffff1694509091508315613af8578054613af190600160701b900466ffffffffffffff1661406b565b9250613b0d565b8054600160701b900466ffffffffffffff1692505b54600160a81b9004600a90810b900b97939650919450925050565b6000811215613b3657600080fd5b613b4b60008361ffff16836000806000613ed3565b8161ffff167fd3625f7b5926828151efe19f7ae655488287357d99ebe67e5fb20522ca739c0b82604051613b7f91906145df565b60405180910390a25050565b604080516001600160a01b0384811660248084019190915283518084039091018152604490920183526020820180516001600160e01b03166001600160e01b0319861617815292518251600094859485948a16939092909182918083835b60208310613c085780518252601f199092019160209182019101613be9565b6001836020036101000a038019825116818451168082178552505050505050905001915050600060405180830381855afa9150503d8060008114613c68576040519150601f19603f3d011682016040523d82523d6000602084013e613c6d565b606091505b509150915081613c7c57600080fd5b808060200190516020811015613c9157600080fd5b50519695505050505050565b604080516323b872dd60e01b81526001600160a01b038481166004830152306024830152604482018490529151918516916323b872dd9160648082019260009290919082900301818387803b15801561331d57600080fd5b60008282111561159d576040805162461bcd60e51b815260206004820152601e60248201527f536166654d6174683a207375627472616374696f6e206f766572666c6f770000604482015290519081900360640190fd5b6000806102186013612b48565b613d61613d4c565b54825160405163e8eda9df60e01b81526001600160a01b039092169163e8eda9df91613d969185903090600090600401614558565b600060405180830381600087803b158015613db057600080fd5b505af115801561163c573d6000803e3d6000fd5b815160405163140e25ad60e31b81526000916001600160a01b03169063a0712d6890613df49085906004016145df565b602060405180830381600087803b158015613e0e57600080fd5b505af1158015613e22573d6000803e3d6000fd5b505050506040513d601f19601f82011682018060405250810190613e4691906144a1565b90508015610a325760405162461bcd60e51b81526004016102509061465a565b81600001516001600160a01b0316631249c58b826040518263ffffffff1660e01b81526004016000604051808303818588803b158015613ea557600080fd5b505af1158015610bde573d6000803e3d6000fd5b600080610218600f612b48565b6000806102186009612b48565b6000613edd61405e565b6001600160a01b0388166000908152602082815260408083208a845290915290209091506a7fffffffffffffffffffff198612801590613f2857506a7fffffffffffffffffffff8613155b613f3157600080fd5b60008512158015613f4957506001600160501b038513155b613f5257600080fd5b83613f925766ffffffffffffff831115613f6b57600080fd5b805466ffffffffffffff60701b1916600160701b66ffffffffffffff851602178155613fac565b8054600160501b900463ffffffff168414613fac57600080fd5b8054600a9690960b6affffffffffffffffffffff16600160a81b026001600160a81b036001600160501b039096166001600160501b031963ffffffff909616600160501b0263ffffffff60501b19909816979097179490941695909517939093169190911790925550505050565b600080614025614079565b6000938452602052505060409020546001600160a01b031690565b600081121561404e57600080fd5b610a328383836000806000613ed3565b6000806102186006612b48565b600881901c60ff9091161b90565b6000806102186003612b48565b6040518060a0016040528060008152602001600081526020016000815260200160006001600160a01b03168152602001600081525090565b60405180610180016040528060006001600160a01b03168152602001600061ffff168152602001600061ffff168152602001600081526020016000815260200160008152602001600081526020016000815260200160008152602001600081526020016141296141f1565b81526020016141366141a9565b905290565b6040518060e001604052806000815260200160008152602001600015158152602001600081526020016000815260200160008152602001600081525090565b6040805160a0810182526000808252602082018190529181018290529060608201908152602001600081525090565b604051806060016040528060006001600160a01b0316815260200160008152602001600081525090565b60405180602001604052806001906020820280368337509192915050565b60405180606001604052806003906020820280368337509192915050565b80356001600160a01b0381168114610b5457600080fd5b60008083601f840112614237578182fd5b50813567ffffffffffffffff81111561424e578182fd5b60208301915083602082850101111561426657600080fd5b9250929050565b803563ffffffff81168114610b5457600080fd5b60008060408385031215614293578182fd5b61429c8361420f565b9150612c676020840161420f565b600080600080600080600060c0888a0312156142c4578283fd5b6142cd8861420f565b96506142db6020890161420f565b95506142e96040890161420f565b94506060880135935060808801358015158114614304578384fd5b925060a088013567ffffffffffffffff81111561431f578283fd5b61432b8a828b01614226565b989b979a50959850939692959293505050565b60008060008060008060008060e0898b031215614359578081fd5b6143628961420f565b975061437060208a0161420f565b965061437e60408a0161420f565b9550606089013594506080890135935061439a60a08a0161426d565b925060c089013567ffffffffffffffff8111156143b5578182fd5b6143c18b828c01614226565b999c989b5096995094979396929594505050565b60008060008060008060008060e0898b0312156143f0578384fd5b6143f98961420f565b975061440760208a0161420f565b965060408901359550606089013594506080890135935061442a60a08a0161426d565b925060c089013567ffffffffffffffff8111156143b5578283fd5b60008060008060008060008060e0898b031215614460578384fd5b6144698961420f565b975061447760208a0161420f565b9650604089013595506060890135945061449360808a0161426d565b935061442a60a08a0161426d565b6000602082840312156144b2578081fd5b5051919050565b60008284528282602086013780602084860101526020601f19601f85011685010190509392505050565b6001600160a01b0391909116815260200190565b600060018060a01b03808a16835280891660208401525086604083015285606083015284608083015260c060a0830152612ed660c0830184866144b9565b6001600160a01b0393841681526020810192909252909116604082015260600190565b6001600160a01b03948516815260208101939093529216604082015261ffff909116606082015260800190565b6001600160a01b039390931683526020830191909152604082015260600190565b600060018060a01b038716825285602083015284604083015260806060830152612aa56080830184866144b9565b901515815260200190565b90815260200190565b938452602084019290925260408301521515606082015260800190565b6020808252600c908201526b155b985d5d1a1bdc9a5e995960a21b604082015260600190565b6020808252601590820152740acc2ead8e840a6d0c2e4cae6409ad2e6dac2e8c6d605b1b604082015260600190565b602080825260049082015263135a5b9d60e21b604082015260600190565b60208082526006908201526552656465656d60d01b604082015260600190565b602080825260169082015275125b9cdd59999a58da595b9d081c995c185e5b595b9d60521b604082015260600190565b60208082526015908201527410d1ce881b9bc81b585c9ad95d1cc81b1a5cdd1959605a1b604082015260600190565b6020808252600d908201526c092dcecc2d8d2c840d2dcc8caf609b1b604082015260600190565b6020808252600c908201526b4d617820436170616369747960a01b604082015260600190565b6020808252600b908201526a139bdd0814d95d1d1b195960aa1b604082015260600190565b60208082526016908201527510d1ce881b585c9ad95d081a5b99195e08189bdd5b9960521b604082015260600190565b6020808252600f908201526e139bc8149bdb1b08105b1b1bddd959608a1b604082015260600190565b60208082526017908201527f496e73756666696369656e7420436f6c6c61746572616c000000000000000000604082015260600190565b60208082526017908201527f4d757374204c697175696461746520416c6c2044656274000000000000000000604082015260600190565b6020808252600e908201526d1499595b9d1c985b9d0818d85b1b60921b604082015260600190565b6020808252600d908201526c109bdc9c9bddc819985a5b1959609a1b604082015260600190565b6020808252600a90820152694d696e20426f72726f7760b01b604082015260600190565b6020808252600b908201526a092dcecc2d8d2c8408aa8960ab1b604082015260600190565b60208082526013908201527210d1ce881b9bc81b585c9ad95d08199bdd5b99606a1b604082015260600190565b6020808252600c908201526b21b0b73737ba1022b73a32b960a11b604082015260600190565b6020808252600b908201526a11985a5b19590813195b9960aa1b604082015260600190565b60208082526015908201527414dd59999a58da595b9d0810dbdb1b185d195c985b605a1b604082015260600190565b8151815260208083015190820152604080830151908201526060808301516001600160a01b0316908201526080918201519181019190915260a00190565b6001600160801b0391909116815260200190565b61ffff92909216825260208201526040019056fea2646970667358221220e96b650d47fa083fad4c946a80cd951e13451da6062b710425a6baddfe0a45b464736f6c63430007060033",
  "language": "Solidity",
  "natspec": {
    "kind": "dev",
    "methods": {
      "deleverageAccount(address,address,address,uint256,bool,bytes)": {
        "notice": "If an account is below the minimum collateral ratio, this method wil deleverage (liquidate) that account. `depositAmountExternal` in the borrow currency will be transferred from the liquidator and used to offset the account's debt position. The liquidator will receive either vaultShares or cash depending.",
        "params": {
          "account": "the address that will exit the vault",
          "depositAmountExternal": "amount of asset cash to deposit",
          "liquidator": "the address that will receive profits from liquidation",
          "redeemData": "calldata sent to the vault when redeeming liquidator profits",
          "transferSharesToLiquidator": "transfers the shares to the liquidator instead of redeeming them",
          "vault": "the vault to enter"
        },
        "returns": {
          "profitFromLiquidation": "amount of vaultShares or cash received from liquidation"
        }
      },
      "enterVault(address,address,uint256,uint256,uint256,uint32,bytes)": {
        "notice": "Borrows a specified amount of fCash in the vault's borrow currency and deposits it all plus the depositAmountExternal into the vault to mint strategy tokens.",
        "params": {
          "account": "the address that will enter the vault",
          "depositAmountExternal": "some amount of additional collateral in the borrowed currency to be transferred to vault",
          "fCash": "amount to borrow",
          "maturity": "the maturity to borrow at",
          "maxBorrowRate": "maximum interest rate to borrow at",
          "vault": "the vault to enter",
          "vaultData": "additional data to pass to the vault contract"
        }
      },
      "exitVault(address,address,address,uint256,uint256,uint32,bytes)": {
        "notice": "Prior to maturity, allows an account to withdraw their position from the vault. Will redeem some number of vault shares to the borrow currency and close the borrow position by lending `fCashToLend`. Any shortfall in cash from lending will be transferred from the account, any excess profits will be transferred to the account. Post maturity, will net off the account's debt against vault cash balances and redeem all remaining strategy tokens back to the borrowed currency and transfer the profits to the account.",
        "params": {
          "account": "the address that will exit the vault",
          "exitVaultData": "passed to the vault during exit",
          "fCashToLend": "amount of fCash to lend",
          "minLendRate": "the minimum rate to lend at",
          "receiver": "the address that will receive profits",
          "vault": "the vault to enter",
          "vaultSharesToRedeem": "amount of vault tokens to exit, only relevant when exiting pre-maturity"
        }
      },
      "getVaultAccount(address,address)": {
        "notice": "View Methods *"
      },
      "rollVaultPosition(address,address,uint256,uint256,uint32,uint32,bytes)": {
        "notice": "Re-enters the vault at a longer dated maturity. The account's existing borrow position will be closed and a new borrow position at the specified maturity will be opened. Strategy token holdings will transfer to the longer dated maturity.",
        "params": {
          "account": "the address that will reenter the vault",
          "fCashToBorrow": "amount of fCash to borrow in the next maturity",
          "maturity": "new maturity to borrow at",
          "vault": "the vault to reenter"
        }
      }
    },
    "version": 1
  },
  "opcodes": "PUSH1 0x80 PUSH1 0x40 MSTORE PUSH1 0x4 CALLDATASIZE LT PUSH2 0x9C JUMPI PUSH1 0x0 CALLDATALOAD PUSH1 0xE0 SHR DUP1 PUSH4 0x82463367 GT PUSH2 0x64 JUMPI DUP1 PUSH4 0x82463367 EQ PUSH2 0x15E JUMPI DUP1 PUSH4 0x8DA5CB5B EQ PUSH2 0x173 JUMPI DUP1 PUSH4 0x95C1A202 EQ PUSH2 0x188 JUMPI DUP1 PUSH4 0x9948315E EQ PUSH2 0x19B JUMPI DUP1 PUSH4 0xC025D1A5 EQ PUSH2 0x1BB JUMPI DUP1 PUSH4 0xC4C96DAE EQ PUSH2 0x1E8 JUMPI PUSH2 0x9C JUMP JUMPDEST DUP1 PUSH4 0xC09FF56 EQ PUSH2 0xA1 JUMPI DUP1 PUSH4 0x24A3D622 EQ PUSH2 0xD7 JUMPI DUP1 PUSH4 0x450C0E02 EQ PUSH2 0xF9 JUMPI DUP1 PUSH4 0x647CC196 EQ PUSH2 0x11B JUMPI DUP1 PUSH4 0x6CE48F01 EQ PUSH2 0x14B JUMPI JUMPDEST PUSH1 0x0 DUP1 REVERT JUMPDEST CALLVALUE DUP1 ISZERO PUSH2 0xAD JUMPI PUSH1 0x0 DUP1 REVERT JUMPDEST POP PUSH2 0xC1 PUSH2 0xBC CALLDATASIZE PUSH1 0x4 PUSH2 0x4281 JUMP JUMPDEST PUSH2 0x1FD JUMP JUMPDEST PUSH1 0x40 MLOAD PUSH2 0xCE SWAP2 SWAP1 PUSH2 0x45DF JUMP JUMPDEST PUSH1 0x40 MLOAD DUP1 SWAP2 SUB SWAP1 RETURN JUMPDEST CALLVALUE DUP1 ISZERO PUSH2 0xE3 JUMPI PUSH1 0x0 DUP1 REVERT JUMPDEST POP PUSH2 0xEC PUSH2 0x21E JUMP JUMPDEST PUSH1 0x40 MLOAD PUSH2 0xCE SWAP2 SWAP1 PUSH2 0x44E3 JUMP JUMPDEST CALLVALUE DUP1 ISZERO PUSH2 0x105 JUMPI PUSH1 0x0 DUP1 REVERT JUMPDEST POP PUSH2 0x119 PUSH2 0x114 CALLDATASIZE PUSH1 0x4 PUSH2 0x4445 JUMP JUMPDEST PUSH2 0x22D JUMP JUMPDEST STOP JUMPDEST CALLVALUE DUP1 ISZERO PUSH2 0x127 JUMPI PUSH1 0x0 DUP1 REVERT JUMPDEST POP PUSH2 0x13B PUSH2 0x136 CALLDATASIZE PUSH1 0x4 PUSH2 0x4281 JUMP JUMPDEST PUSH2 0x39F JUMP JUMPDEST PUSH1 0x40 MLOAD PUSH2 0xCE SWAP5 SWAP4 SWAP3 SWAP2 SWAP1 PUSH2 0x45E8 JUMP JUMPDEST PUSH2 0x119 PUSH2 0x159 CALLDATASIZE PUSH1 0x4 PUSH2 0x433E JUMP JUMPDEST PUSH2 0x438 JUMP JUMPDEST CALLVALUE DUP1 ISZERO PUSH2 0x16A JUMPI PUSH1 0x0 DUP1 REVERT JUMPDEST POP PUSH2 0xEC PUSH2 0x5DC JUMP JUMPDEST CALLVALUE DUP1 ISZERO PUSH2 0x17F JUMPI PUSH1 0x0 DUP1 REVERT JUMPDEST POP PUSH2 0xEC PUSH2 0x5EB JUMP JUMPDEST PUSH2 0x119 PUSH2 0x196 CALLDATASIZE PUSH1 0x4 PUSH2 0x43D5 JUMP JUMPDEST PUSH2 0x602 JUMP JUMPDEST CALLVALUE DUP1 ISZERO PUSH2 0x1A7 JUMPI PUSH1 0x0 DUP1 REVERT JUMPDEST POP PUSH2 0xC1 PUSH2 0x1B6 CALLDATASIZE PUSH1 0x4 PUSH2 0x42AA JUMP JUMPDEST PUSH2 0x704 JUMP JUMPDEST CALLVALUE DUP1 ISZERO PUSH2 0x1C7 JUMPI PUSH1 0x0 DUP1 REVERT JUMPDEST POP PUSH2 0x1DB PUSH2 0x1D6 CALLDATASIZE PUSH1 0x4 PUSH2 0x4281 JUMP JUMPDEST PUSH2 0x8DA JUMP JUMPDEST PUSH1 0x40 MLOAD PUSH2 0xCE SWAP2 SWAP1 PUSH2 0x496F JUMP JUMPDEST CALLVALUE DUP1 ISZERO PUSH2 0x1F4 JUMPI PUSH1 0x0 DUP1 REVERT JUMPDEST POP PUSH2 0xEC PUSH2 0x8F6 JUMP JUMPDEST PUSH1 0x0 PUSH2 0x211 DUP4 PUSH2 0x20C DUP5 PUSH2 0x90E JUMP JUMPDEST PUSH2 0x91F JUMP JUMPDEST PUSH1 0x20 ADD MLOAD SWAP1 POP JUMPDEST SWAP3 SWAP2 POP POP JUMP JUMPDEST PUSH1 0x2 SLOAD PUSH1 0x1 PUSH1 0x1 PUSH1 0xA0 SHL SUB AND DUP2 JUMP JUMPDEST PUSH1 0x2 PUSH1 0xA SLOAD EQ ISZERO PUSH2 0x259 JUMPI PUSH1 0x40 MLOAD PUSH3 0x461BCD PUSH1 0xE5 SHL DUP2 MSTORE PUSH1 0x4 ADD PUSH2 0x250 SWAP1 PUSH2 0x4830 JUMP JUMPDEST PUSH1 0x40 MLOAD DUP1 SWAP2 SUB SWAP1 REVERT JUMPDEST PUSH1 0x2 PUSH1 0xA SSTORE PUSH1 0x0 PUSH2 0x269 DUP9 PUSH2 0x99E JUMP JUMPDEST SWAP1 POP PUSH2 0x277 DUP2 DUP11 PUSH1 0x10 PUSH2 0x9CD JUMP JUMPDEST PUSH2 0x282 DUP2 PUSH1 0x80 PUSH2 0xA37 JUMP JUMPDEST ISZERO PUSH2 0x28D JUMPI PUSH1 0x1 PUSH1 0xA SSTORE JUMPDEST PUSH1 0x0 PUSH2 0x299 DUP11 DUP4 PUSH2 0x91F JUMP JUMPDEST SWAP1 POP PUSH2 0x2A6 DUP3 PUSH1 0x1 PUSH2 0xA37 JUMP JUMPDEST DUP1 ISZERO PUSH2 0x2B8 JUMPI POP PUSH2 0x2B8 DUP3 PUSH1 0x2 PUSH2 0xA37 JUMP JUMPDEST DUP1 ISZERO PUSH2 0x2C7 JUMPI POP DUP1 PUSH1 0x20 ADD MLOAD TIMESTAMP LT JUMPDEST DUP1 ISZERO PUSH2 0x2D6 JUMPI POP DUP7 DUP2 PUSH1 0x20 ADD MLOAD LT JUMPDEST DUP1 ISZERO PUSH2 0x2E2 JUMPI POP PUSH1 0x0 DUP9 GT JUMPDEST PUSH2 0x2FE JUMPI PUSH1 0x40 MLOAD PUSH3 0x461BCD PUSH1 0xE5 SHL DUP2 MSTORE PUSH1 0x4 ADD PUSH2 0x250 SWAP1 PUSH2 0x4799 JUMP JUMPDEST PUSH1 0x0 PUSH2 0x312 DUP4 PUSH1 0x0 ADD MLOAD DUP4 PUSH1 0x20 ADD MLOAD PUSH2 0xA4C JUMP JUMPDEST SWAP1 POP PUSH1 0x0 PUSH2 0x32F DUP4 DUP5 PUSH1 0x40 ADD MLOAD DUP5 PUSH2 0xAE7 SWAP1 SWAP3 SWAP2 SWAP1 PUSH4 0xFFFFFFFF AND JUMP JUMPDEST SWAP1 POP PUSH2 0x34E DUP5 DUP4 PUSH2 0x343 DUP7 PUSH1 0x0 ADD MLOAD PUSH2 0xB46 JUMP JUMPDEST DUP7 SWAP3 SWAP2 SWAP1 DUP13 TIMESTAMP PUSH2 0xB59 JUMP JUMPDEST DUP3 MLOAD ISZERO PUSH2 0x36D JUMPI PUSH1 0x40 MLOAD PUSH3 0x461BCD PUSH1 0xE5 SHL DUP2 MSTORE PUSH1 0x4 ADD PUSH2 0x250 SWAP1 PUSH2 0x491B JUMP JUMPDEST DUP4 MLOAD PUSH2 0x37A SWAP1 DUP4 SWAP1 PUSH2 0xBE7 JUMP JUMPDEST PUSH2 0x38C DUP4 DUP6 DUP12 DUP14 DUP12 DUP12 DUP12 DUP9 PUSH1 0x0 PUSH2 0xCFF JUMP JUMPDEST POP POP PUSH1 0x1 PUSH1 0xA SSTORE POP POP POP POP POP POP POP POP POP POP JUMP JUMPDEST PUSH1 0x0 DUP1 PUSH1 0x0 DUP1 PUSH1 0x0 PUSH2 0x3B0 DUP7 PUSH2 0xD8D JUMP JUMPDEST SWAP1 POP PUSH1 0x0 PUSH2 0x3BE DUP9 DUP4 PUSH2 0x91F JUMP JUMPDEST SWAP1 POP PUSH1 0x0 PUSH2 0x3D0 DUP9 DUP4 PUSH1 0x20 ADD MLOAD PUSH2 0xA4C JUMP JUMPDEST SWAP1 POP DUP3 PUSH1 0xA0 ADD MLOAD SWAP6 POP DUP1 PUSH1 0x40 ADD MLOAD ISZERO PUSH2 0x3F2 JUMPI PUSH1 0x1 PUSH1 0x1 PUSH1 0xFF SHL SUB SWAP7 POP PUSH2 0x42C JUMP JUMPDEST PUSH1 0x40 DUP3 ADD MLOAD DUP3 MLOAD PUSH1 0x0 SWAP2 PUSH2 0x40C SWAP2 DUP7 SWAP2 DUP6 SWAP2 DUP15 SWAP2 SWAP1 PUSH2 0xDB1 JUMP JUMPDEST SWAP1 SWAP9 POP SWAP1 POP DUP7 DUP9 SLT ISZERO PUSH2 0x42A JUMPI PUSH2 0x424 DUP4 DUP6 DUP4 PUSH2 0xE19 JUMP JUMPDEST SWAP1 SWAP7 POP SWAP5 POP JUMPDEST POP JUMPDEST POP POP POP SWAP3 SWAP6 SWAP2 SWAP5 POP SWAP3 POP JUMP JUMPDEST PUSH1 0x2 PUSH1 0xA SLOAD EQ ISZERO PUSH2 0x45B JUMPI PUSH1 0x40 MLOAD PUSH3 0x461BCD PUSH1 0xE5 SHL DUP2 MSTORE PUSH1 0x4 ADD PUSH2 0x250 SWAP1 PUSH2 0x4830 JUMP JUMPDEST PUSH1 0x2 PUSH1 0xA SSTORE PUSH1 0x0 PUSH2 0x46B DUP9 PUSH2 0x99E JUMP JUMPDEST SWAP1 POP PUSH2 0x479 DUP2 DUP11 PUSH1 0x8 PUSH2 0x9CD JUMP JUMPDEST PUSH2 0x484 DUP2 PUSH1 0x80 PUSH2 0xA37 JUMP JUMPDEST ISZERO PUSH2 0x48F JUMPI PUSH1 0x1 PUSH1 0xA SSTORE JUMPDEST PUSH1 0x0 PUSH2 0x49B DUP11 DUP4 PUSH2 0x91F JUMP JUMPDEST SWAP1 POP TIMESTAMP DUP2 PUSH1 0x20 ADD MLOAD GT PUSH2 0x4FB JUMPI PUSH1 0x20 DUP2 ADD MLOAD PUSH1 0x0 PUSH2 0x4BA DUP4 DUP6 TIMESTAMP PUSH2 0xEDC JUMP JUMPDEST SWAP1 POP PUSH1 0x0 DUP4 PUSH1 0x80 ADD MLOAD SGT ISZERO PUSH2 0x4E5 JUMPI PUSH2 0x4DC DUP11 DUP6 PUSH1 0x40 ADD MLOAD DUP6 PUSH1 0x80 ADD MLOAD PUSH2 0xFB7 JUMP JUMPDEST POP PUSH1 0x0 PUSH1 0x80 DUP5 ADD MSTORE JUMPDEST PUSH2 0x4F4 DUP5 DUP5 DUP13 DUP5 DUP7 DUP12 DUP12 PUSH2 0x105F JUMP JUMPDEST POP POP PUSH2 0x5A3 JUMP JUMPDEST PUSH1 0x0 PUSH2 0x50F DUP4 PUSH1 0x0 ADD MLOAD DUP4 PUSH1 0x20 ADD MLOAD PUSH2 0xA4C JUMP JUMPDEST SWAP1 POP PUSH2 0x52A DUP4 DUP3 PUSH2 0x51F DUP11 PUSH2 0x10D1 JUMP JUMPDEST DUP6 SWAP3 SWAP2 SWAP1 DUP11 TIMESTAMP PUSH2 0xB59 JUMP JUMPDEST DUP8 ISZERO PUSH2 0x57F JUMPI PUSH1 0x0 PUSH2 0x53D DUP3 DUP5 DUP12 PUSH2 0xAE7 JUMP JUMPDEST SWAP1 POP PUSH1 0x0 DUP4 PUSH1 0x80 ADD MLOAD SGT ISZERO PUSH2 0x568 JUMPI PUSH2 0x55F DUP11 DUP6 PUSH1 0x40 ADD MLOAD DUP6 PUSH1 0x80 ADD MLOAD PUSH2 0xFB7 JUMP JUMPDEST POP PUSH1 0x0 PUSH1 0x80 DUP5 ADD MSTORE JUMPDEST DUP2 MLOAD PUSH2 0x57D SWAP1 DUP6 SWAP1 DUP6 SWAP1 DUP14 SWAP1 DUP6 SWAP1 DUP12 DUP12 PUSH2 0x105F JUMP JUMPDEST POP JUMPDEST DUP2 MLOAD PUSH1 0x0 SGT ISZERO PUSH2 0x594 JUMPI PUSH2 0x594 DUP4 DUP3 DUP5 PUSH2 0x10EB JUMP JUMPDEST DUP3 MLOAD PUSH2 0x5A1 SWAP1 DUP3 SWAP1 PUSH2 0xBE7 JUMP JUMPDEST POP JUMPDEST DUP1 MLOAD ISZERO DUP1 ISZERO PUSH2 0x5B4 JUMPI POP PUSH1 0x40 DUP2 ADD MLOAD ISZERO JUMPDEST ISZERO PUSH2 0x5C1 JUMPI PUSH1 0x0 PUSH1 0x20 DUP3 ADD MSTORE JUMPDEST PUSH2 0x5CB DUP2 DUP4 PUSH2 0x1133 JUMP JUMPDEST POP POP PUSH1 0x1 PUSH1 0xA SSTORE POP POP POP POP POP POP POP POP JUMP JUMPDEST PUSH1 0x1 SLOAD PUSH1 0x1 PUSH1 0x1 PUSH1 0xA0 SHL SUB AND DUP2 JUMP JUMPDEST PUSH1 0x0 SLOAD PUSH5 0x100000000 SWAP1 DIV PUSH1 0x1 PUSH1 0x1 PUSH1 0xA0 SHL SUB AND DUP2 JUMP JUMPDEST PUSH1 0x2 PUSH1 0xA SLOAD EQ ISZERO PUSH2 0x625 JUMPI PUSH1 0x40 MLOAD PUSH3 0x461BCD PUSH1 0xE5 SHL DUP2 MSTORE PUSH1 0x4 ADD PUSH2 0x250 SWAP1 PUSH2 0x4830 JUMP JUMPDEST PUSH1 0x2 PUSH1 0xA SSTORE PUSH2 0x633 DUP9 PUSH2 0x1247 JUMP JUMPDEST PUSH1 0x0 PUSH2 0x63E DUP9 PUSH2 0x99E JUMP JUMPDEST SWAP1 POP PUSH2 0x64C DUP2 DUP11 PUSH1 0x4 PUSH2 0x9CD JUMP JUMPDEST PUSH2 0x657 DUP2 PUSH1 0x80 PUSH2 0xA37 JUMP JUMPDEST ISZERO PUSH2 0x662 JUMPI PUSH1 0x1 PUSH1 0xA SSTORE JUMPDEST PUSH2 0x66D DUP2 PUSH1 0x1 PUSH2 0xA37 JUMP JUMPDEST PUSH2 0x689 JUMPI PUSH1 0x40 MLOAD PUSH3 0x461BCD PUSH1 0xE5 SHL DUP2 MSTORE PUSH1 0x4 ADD PUSH2 0x250 SWAP1 PUSH2 0x48F5 JUMP JUMPDEST DUP6 TIMESTAMP LT PUSH2 0x6A8 JUMPI PUSH1 0x40 MLOAD PUSH3 0x461BCD PUSH1 0xE5 SHL DUP2 MSTORE PUSH1 0x4 ADD PUSH2 0x250 SWAP1 PUSH2 0x48F5 JUMP JUMPDEST PUSH1 0x0 PUSH2 0x6B4 DUP11 DUP4 PUSH2 0x91F JUMP JUMPDEST SWAP1 POP PUSH1 0x0 DUP2 PUSH1 0x20 ADD MLOAD PUSH1 0x0 EQ ISZERO DUP1 ISZERO PUSH2 0x6D1 JUMPI POP TIMESTAMP DUP3 PUSH1 0x20 ADD MLOAD GT ISZERO JUMPDEST ISZERO PUSH2 0x6E4 JUMPI PUSH2 0x6E1 DUP3 DUP5 TIMESTAMP PUSH2 0xEDC JUMP JUMPDEST SWAP1 POP JUMPDEST PUSH1 0x0 PUSH2 0x6F1 DUP5 DUP14 DUP13 PUSH2 0x1296 JUMP JUMPDEST SWAP1 POP PUSH2 0x38C DUP4 DUP6 DUP12 DUP12 DUP12 DUP12 DUP12 DUP10 DUP10 PUSH2 0xCFF JUMP JUMPDEST PUSH1 0x0 PUSH1 0x2 PUSH1 0xA SLOAD EQ ISZERO PUSH2 0x729 JUMPI PUSH1 0x40 MLOAD PUSH3 0x461BCD PUSH1 0xE5 SHL DUP2 MSTORE PUSH1 0x4 ADD PUSH2 0x250 SWAP1 PUSH2 0x4830 JUMP JUMPDEST PUSH1 0x2 PUSH1 0xA SSTORE PUSH1 0x0 PUSH2 0x73B DUP10 DUP10 DUP10 PUSH2 0x13AB JUMP JUMPDEST SWAP1 POP PUSH1 0x0 PUSH2 0x749 DUP11 DUP4 PUSH2 0x91F JUMP JUMPDEST SWAP1 POP PUSH1 0x0 PUSH2 0x75B DUP11 DUP4 PUSH1 0x20 ADD MLOAD PUSH2 0xA4C JUMP JUMPDEST SWAP1 POP DUP2 PUSH1 0x20 ADD MLOAD TIMESTAMP LT PUSH2 0x76D JUMPI PUSH1 0x0 DUP1 REVERT JUMPDEST PUSH1 0x0 DUP1 PUSH2 0x791 DUP4 DUP15 DUP7 PUSH1 0x40 ADD MLOAD DUP8 PUSH1 0x0 ADD MLOAD DUP10 PUSH2 0xDB1 SWAP1 SWAP5 SWAP4 SWAP3 SWAP2 SWAP1 PUSH4 0xFFFFFFFF AND JUMP JUMPDEST SWAP2 POP SWAP2 POP DUP5 PUSH1 0xA0 ADD MLOAD DUP3 SLT PUSH2 0x7B8 JUMPI PUSH1 0x40 MLOAD PUSH3 0x461BCD PUSH1 0xE5 SHL DUP2 MSTORE PUSH1 0x4 ADD PUSH2 0x250 SWAP1 PUSH2 0x4940 JUMP JUMPDEST PUSH1 0x0 PUSH2 0x7CB DUP7 PUSH1 0x40 ADD MLOAD PUSH2 0xFFFF AND PUSH2 0x1453 JUMP JUMPDEST SWAP1 POP PUSH2 0x7DB DUP13 DUP3 DUP8 DUP10 DUP16 DUP8 PUSH2 0x1466 JUMP JUMPDEST PUSH1 0x0 PUSH2 0x822 PUSH4 0x3B9ACA00 PUSH2 0x81C PUSH2 0x7F1 DUP7 PUSH2 0x1539 JUMP JUMPDEST PUSH2 0x81C DUP11 PUSH1 0x40 ADD MLOAD PUSH2 0x816 PUSH2 0x809 DUP15 PUSH1 0xC0 ADD MLOAD PUSH2 0x1539 JUMP JUMPDEST PUSH2 0x816 DUP15 PUSH1 0x80 ADD MLOAD PUSH2 0x1539 JUMP JUMPDEST SWAP1 PUSH2 0x1548 JUMP JUMPDEST SWAP1 PUSH2 0x156F JUMP JUMPDEST PUSH1 0x40 DUP8 ADD MLOAD SWAP1 SWAP2 POP PUSH2 0x834 SWAP1 DUP3 PUSH2 0x158E JUMP JUMPDEST PUSH1 0x40 DUP8 ADD MSTORE PUSH1 0x80 DUP7 ADD MLOAD PUSH2 0x160 DUP9 ADD MLOAD PUSH1 0x0 SWAP2 PUSH2 0x851 SWAP2 SWAP1 PUSH2 0x15A3 JUMP JUMPDEST SWAP1 POP PUSH2 0x870 DUP9 DUP8 DUP4 PUSH2 0x866 DUP12 PUSH1 0x80 ADD MLOAD PUSH2 0xB46 JUMP JUMPDEST DUP12 SWAP4 SWAP3 SWAP2 SWAP1 PUSH2 0x15D6 JUMP JUMPDEST DUP7 MLOAD PUSH1 0x0 SLT ISZERO PUSH2 0x87F JUMPI PUSH1 0x0 DUP8 MSTORE JUMPDEST POP PUSH2 0x88A DUP7 DUP9 PUSH2 0x1133 JUMP JUMPDEST DUP11 ISZERO PUSH2 0x8BB JUMPI DUP7 MLOAD PUSH2 0x89D SWAP1 DUP7 SWAP1 PUSH2 0xBE7 JUMP JUMPDEST PUSH2 0x8AD DUP14 DUP9 DUP4 DUP10 PUSH1 0x20 ADD MLOAD PUSH2 0x1644 JUMP JUMPDEST SWAP8 POP POP POP POP POP POP POP POP PUSH2 0x8CA JUMP JUMPDEST PUSH2 0x8AD DUP14 DUP9 DUP8 DUP5 DUP15 DUP15 DUP9 PUSH2 0x16B4 JUMP JUMPDEST PUSH1 0x1 PUSH1 0xA SSTORE SWAP8 SWAP7 POP POP POP POP POP POP POP JUMP JUMPDEST PUSH2 0x8E2 PUSH2 0x4086 JUMP JUMPDEST PUSH2 0x8EF DUP4 PUSH2 0x20C DUP5 PUSH2 0x90E JUMP JUMPDEST SWAP4 SWAP3 POP POP POP JUMP JUMPDEST PUSH20 0x0 SWAP1 JUMP JUMPDEST PUSH2 0x916 PUSH2 0x40BE JUMP JUMPDEST PUSH2 0x218 DUP3 PUSH2 0x178A JUMP JUMPDEST PUSH2 0x927 PUSH2 0x4086 JUMP JUMPDEST PUSH1 0x0 PUSH2 0x931 PUSH2 0x1909 JUMP JUMPDEST PUSH1 0x1 PUSH1 0x1 PUSH1 0xA0 SHL SUB SWAP5 DUP6 AND PUSH1 0x0 DUP2 DUP2 MSTORE PUSH1 0x20 SWAP3 DUP4 MSTORE PUSH1 0x40 DUP1 DUP3 KECCAK256 SWAP7 MLOAD SWAP1 SWAP8 AND DUP2 MSTORE SWAP5 DUP3 MSTORE DUP6 DUP6 KECCAK256 SLOAD PUSH1 0x1 PUSH1 0x1 PUSH1 0x50 SHL SUB DUP1 DUP3 AND DUP8 SUB DUP7 MSTORE PUSH4 0xFFFFFFFF PUSH1 0x1 PUSH1 0xA0 SHL DUP4 DIV AND SWAP4 DUP7 ADD SWAP4 SWAP1 SWAP4 MSTORE PUSH1 0x1 PUSH1 0x50 SHL SWAP1 DIV SWAP1 SWAP2 AND SWAP5 DUP4 ADD SWAP5 SWAP1 SWAP5 MSTORE POP PUSH1 0x60 DUP2 ADD SWAP3 SWAP1 SWAP3 MSTORE PUSH1 0x80 DUP3 ADD MSTORE SWAP1 JUMP JUMPDEST PUSH2 0x9A6 PUSH2 0x40BE JUMP JUMPDEST PUSH2 0x9AF DUP3 PUSH2 0x178A JUMP JUMPDEST SWAP1 POP PUSH2 0x9C2 DUP2 PUSH1 0x40 ADD MLOAD PUSH2 0xFFFF AND PUSH2 0x1916 JUMP JUMPDEST PUSH2 0x160 DUP3 ADD MSTORE SWAP2 SWAP1 POP JUMP JUMPDEST PUSH2 0x9D7 DUP4 DUP3 PUSH2 0xA37 JUMP JUMPDEST ISZERO PUSH2 0xA0A JUMPI DUP3 MLOAD PUSH1 0x1 PUSH1 0x1 PUSH1 0xA0 SHL SUB AND CALLER EQ PUSH2 0xA05 JUMPI PUSH1 0x40 MLOAD PUSH3 0x461BCD PUSH1 0xE5 SHL DUP2 MSTORE PUSH1 0x4 ADD PUSH2 0x250 SWAP1 PUSH2 0x4605 JUMP JUMPDEST PUSH2 0xA32 JUMP JUMPDEST PUSH1 0x1 PUSH1 0x1 PUSH1 0xA0 SHL SUB DUP3 AND CALLER EQ PUSH2 0xA32 JUMPI PUSH1 0x40 MLOAD PUSH3 0x461BCD PUSH1 0xE5 SHL DUP2 MSTORE PUSH1 0x4 ADD PUSH2 0x250 SWAP1 PUSH2 0x4605 JUMP JUMPDEST POP POP POP JUMP JUMPDEST PUSH1 0x20 SWAP2 SWAP1 SWAP2 ADD MLOAD DUP2 AND PUSH2 0xFFFF SWAP1 DUP2 AND SWAP2 AND EQ SWAP1 JUMP JUMPDEST PUSH2 0xA54 PUSH2 0x413B JUMP JUMPDEST PUSH1 0x0 PUSH2 0xA5E PUSH2 0x1962 JUMP JUMPDEST PUSH1 0x1 PUSH1 0x1 PUSH1 0xA0 SHL SUB SWAP1 SWAP5 AND PUSH1 0x0 SWAP1 DUP2 MSTORE PUSH1 0x20 SWAP5 DUP6 MSTORE PUSH1 0x40 DUP1 DUP3 KECCAK256 DUP6 DUP4 MSTORE DUP7 MSTORE DUP1 DUP3 KECCAK256 SWAP5 DUP5 MSTORE DUP5 SLOAD PUSH1 0x1 PUSH1 0x1 PUSH1 0x50 SHL SUB DUP1 DUP3 AND SWAP1 SWAP4 SUB SWAP7 DUP6 ADD SWAP7 SWAP1 SWAP7 MSTORE PUSH1 0xFF PUSH1 0x1 PUSH1 0xF0 SHL DUP8 DIV AND ISZERO ISZERO SWAP1 DUP5 ADD MSTORE PUSH1 0x1 PUSH1 0x50 SHL DUP1 DUP7 DIV DUP3 AND PUSH1 0x80 DUP6 ADD MSTORE PUSH1 0x1 SWAP1 SWAP5 ADD SLOAD DUP1 DUP3 AND PUSH1 0xA0 DUP6 ADD MSTORE PUSH1 0x1 PUSH1 0xA0 SHL SWAP1 SWAP6 DIV AND PUSH1 0x60 DUP4 ADD MSTORE POP SWAP2 DIV PUSH1 0x9 SWAP1 DUP2 SIGNEXTEND SWAP1 SIGNEXTEND PUSH1 0xC0 DUP3 ADD MSTORE SWAP1 JUMP JUMPDEST DUP3 MLOAD PUSH1 0x20 DUP4 ADD MLOAD PUSH1 0x0 SWAP2 EQ PUSH2 0xAFB JUMPI PUSH1 0x0 DUP1 REVERT JUMPDEST PUSH1 0x40 DUP4 ADD MLOAD PUSH2 0xB0A SWAP1 DUP4 PUSH2 0x158E JUMP JUMPDEST PUSH1 0x40 DUP5 ADD MSTORE PUSH1 0x0 PUSH2 0xB1B DUP6 DUP5 PUSH2 0x196F JUMP JUMPDEST SWAP3 POP SWAP1 POP PUSH2 0xB36 PUSH2 0xB2B DUP3 PUSH2 0x10D1 JUMP JUMPDEST PUSH1 0x80 DUP7 ADD MLOAD SWAP1 PUSH2 0x19C6 JUMP JUMPDEST PUSH1 0x80 SWAP1 SWAP5 ADD SWAP4 SWAP1 SWAP4 MSTORE SWAP4 SWAP3 POP POP POP JUMP JUMPDEST PUSH1 0x0 PUSH2 0x218 PUSH1 0x0 NOT DUP4 PUSH2 0x19DC JUMP JUMPDEST SWAP2 SWAP1 POP JUMP JUMPDEST DUP6 MLOAD PUSH1 0x0 SWAP1 PUSH2 0xB68 SWAP1 DUP6 PUSH2 0x19C6 JUMP JUMPDEST SGT ISZERO PUSH2 0xB73 JUMPI PUSH1 0x0 DUP1 REVERT JUMPDEST DUP6 PUSH1 0x20 ADD MLOAD DUP2 LT PUSH2 0xB83 JUMPI PUSH1 0x0 DUP1 REVERT JUMPDEST PUSH1 0x0 PUSH2 0xBA0 DUP7 PUSH1 0x40 ADD MLOAD DUP9 PUSH1 0x20 ADD MLOAD DUP7 DUP7 DUP11 PUSH2 0x100 ADD MLOAD DUP8 PUSH2 0x1A2A JUMP JUMPDEST SWAP1 POP DUP1 PUSH2 0xBC3 JUMPI PUSH2 0x160 DUP7 ADD MLOAD PUSH2 0xBC0 SWAP1 PUSH2 0xBBB SWAP1 DUP7 PUSH2 0x1B5C JUMP JUMPDEST PUSH2 0xB46 JUMP JUMPDEST SWAP1 POP JUMPDEST PUSH1 0x0 DUP2 SGT ISZERO PUSH2 0xBD1 JUMPI PUSH1 0x0 DUP1 REVERT JUMPDEST PUSH2 0xBDE DUP8 DUP8 DUP8 DUP8 DUP6 PUSH2 0x15D6 JUMP JUMPDEST POP POP POP POP POP POP POP JUMP JUMPDEST PUSH1 0x0 PUSH2 0xBF1 PUSH2 0x1962 JUMP JUMPDEST PUSH1 0x1 PUSH1 0x1 PUSH1 0xA0 SHL SUB DUP4 AND PUSH1 0x0 SWAP1 DUP2 MSTORE PUSH1 0x20 DUP3 DUP2 MSTORE PUSH1 0x40 DUP1 DUP4 KECCAK256 DUP8 MLOAD DUP5 MSTORE SWAP1 SWAP2 MSTORE SWAP1 DUP2 SWAP1 KECCAK256 SWAP1 DUP6 ADD MLOAD SWAP2 SWAP3 POP SWAP1 ISZERO PUSH2 0xC27 JUMPI PUSH1 0x0 DUP1 REVERT JUMPDEST PUSH2 0xC44 PUSH2 0xC3F PUSH2 0xC3A DUP7 PUSH1 0x20 ADD MLOAD PUSH2 0xB46 JUMP JUMPDEST PUSH2 0x1539 JUMP JUMPDEST PUSH2 0x1B87 JUMP JUMPDEST DUP2 SLOAD PUSH1 0x1 PUSH1 0x1 PUSH1 0x50 SHL SUB NOT AND PUSH1 0x1 PUSH1 0x1 PUSH1 0x50 SHL SUB SWAP2 SWAP1 SWAP2 AND OR DUP2 SSTORE PUSH1 0x80 DUP5 ADD MLOAD PUSH2 0xC6D SWAP1 PUSH2 0x1B87 JUMP JUMPDEST DUP2 SLOAD PUSH1 0x1 PUSH1 0x1 PUSH1 0x50 SHL SUB SWAP2 SWAP1 SWAP2 AND PUSH1 0x1 PUSH1 0x50 SHL MUL PUSH1 0x1 PUSH1 0x50 SHL PUSH1 0x1 PUSH1 0xA0 SHL SUB NOT SWAP1 SWAP2 AND OR DUP2 SSTORE PUSH1 0xA0 DUP5 ADD MLOAD PUSH2 0xCA1 SWAP1 PUSH2 0x1B87 JUMP JUMPDEST PUSH1 0x1 DUP3 ADD DUP1 SLOAD PUSH1 0x1 PUSH1 0x1 PUSH1 0x50 SHL SUB NOT AND PUSH1 0x1 PUSH1 0x1 PUSH1 0x50 SHL SUB SWAP3 SWAP1 SWAP3 AND SWAP2 SWAP1 SWAP2 OR SWAP1 SSTORE PUSH1 0x60 DUP5 ADD MLOAD PUSH2 0xCD1 SWAP1 PUSH2 0x1B87 JUMP JUMPDEST DUP2 SLOAD PUSH1 0x1 PUSH1 0x1 PUSH1 0x50 SHL SUB SWAP2 SWAP1 SWAP2 AND PUSH1 0x1 PUSH1 0xA0 SHL MUL PUSH10 0xFFFFFFFFFFFFFFFFFFFF PUSH1 0xA0 SHL NOT SWAP1 SWAP2 AND OR SWAP1 SSTORE POP POP POP JUMP JUMPDEST DUP7 DUP10 PUSH1 0x20 ADD MLOAD EQ DUP1 PUSH2 0xD10 JUMPI POP DUP9 MLOAD ISZERO JUMPDEST PUSH2 0xD19 JUMPI PUSH1 0x0 DUP1 REVERT JUMPDEST PUSH1 0x0 PUSH2 0xD29 DUP10 PUSH1 0x0 ADD MLOAD DUP10 PUSH2 0xA4C JUMP JUMPDEST SWAP1 POP DUP7 ISZERO PUSH2 0xD4A JUMPI PUSH2 0xD4A DUP11 DUP11 DUP4 DUP12 PUSH2 0xD44 PUSH2 0xBBB DUP14 PUSH2 0x10D1 JUMP JUMPDEST DUP12 PUSH2 0x1B9D JUMP JUMPDEST PUSH2 0xD59 DUP2 DUP12 DUP12 DUP7 DUP7 DUP11 DUP11 PUSH2 0x1C44 JUMP JUMPDEST DUP9 MLOAD PUSH2 0xD66 SWAP1 DUP3 SWAP1 PUSH2 0xBE7 JUMP JUMPDEST PUSH2 0xD70 DUP11 DUP11 PUSH2 0x1133 JUMP JUMPDEST DUP7 ISZERO PUSH2 0xD81 JUMPI PUSH2 0xD81 DUP10 DUP3 DUP13 PUSH2 0x10EB JUMP JUMPDEST POP POP POP POP POP POP POP POP POP POP JUMP JUMPDEST PUSH2 0xD95 PUSH2 0x40BE JUMP JUMPDEST PUSH2 0xD9E DUP3 PUSH2 0x178A JUMP JUMPDEST SWAP1 POP PUSH2 0x9C2 DUP2 PUSH1 0x40 ADD MLOAD PUSH2 0xFFFF AND PUSH2 0x1D4B JUMP JUMPDEST PUSH1 0x0 DUP1 PUSH2 0xDC0 DUP7 DUP9 DUP8 DUP8 PUSH2 0x1D61 JUMP JUMPDEST SWAP1 POP PUSH1 0x0 PUSH2 0xDDC PUSH2 0xDD0 DUP6 PUSH2 0xB46 JUMP JUMPDEST PUSH2 0x160 DUP11 ADD MLOAD SWAP1 PUSH2 0x1B5C JUMP JUMPDEST SWAP1 POP PUSH1 0x0 PUSH2 0xDEA DUP4 DUP4 PUSH2 0x1DCC JUMP JUMPDEST SWAP1 POP DUP2 PUSH2 0xE00 JUMPI PUSH1 0x1 PUSH1 0x1 PUSH1 0xFF SHL SUB SWAP4 POP PUSH2 0xE0D JUMP JUMPDEST PUSH2 0xE0A DUP2 DUP4 PUSH2 0x1DE2 JUMP JUMPDEST SWAP4 POP JUMPDEST POP POP SWAP6 POP SWAP6 SWAP4 POP POP POP POP JUMP JUMPDEST PUSH1 0x0 DUP1 PUSH1 0x0 PUSH2 0xE3A PUSH4 0x3B9ACA00 DUP7 PUSH2 0x120 ADD MLOAD PUSH2 0x19C6 SWAP1 SWAP2 SWAP1 PUSH4 0xFFFFFFFF AND JUMP JUMPDEST SWAP1 POP PUSH1 0x0 PUSH2 0xE5A PUSH2 0xE4E DUP9 PUSH1 0x0 ADD MLOAD PUSH2 0xB46 JUMP JUMPDEST PUSH2 0x160 DUP9 ADD MLOAD SWAP1 PUSH2 0x1B5C JUMP JUMPDEST SWAP1 POP PUSH2 0xE90 PUSH2 0xE76 DUP8 PUSH1 0xC0 ADD MLOAD DUP5 PUSH2 0x1DCC SWAP1 SWAP2 SWAP1 PUSH4 0xFFFFFFFF AND JUMP JUMPDEST PUSH2 0xE8A DUP8 PUSH2 0xE84 DUP6 DUP8 PUSH2 0x1DFB JUMP JUMPDEST SWAP1 PUSH2 0x1DCC JUMP JUMPDEST SWAP1 PUSH2 0x1DE2 JUMP JUMPDEST SWAP4 POP PUSH1 0x0 PUSH2 0xE9E DUP3 DUP7 PUSH2 0x1DCC JUMP JUMPDEST SWAP1 POP PUSH1 0x0 PUSH2 0xEBE DUP9 PUSH1 0x60 ADD MLOAD DUP10 PUSH2 0x160 ADD MLOAD PUSH2 0x1B5C SWAP1 SWAP2 SWAP1 PUSH4 0xFFFFFFFF AND JUMP JUMPDEST SWAP1 POP DUP1 DUP3 SLT ISZERO PUSH2 0xED0 JUMPI DUP3 SWAP6 POP PUSH1 0x1 SWAP5 POP JUMPDEST POP POP POP POP SWAP4 POP SWAP4 SWAP2 POP POP JUMP JUMPDEST PUSH1 0x0 DUP1 PUSH2 0xEF1 DUP5 PUSH1 0x0 ADD MLOAD DUP7 PUSH1 0x20 ADD MLOAD PUSH2 0xA4C JUMP JUMPDEST SWAP1 POP DUP1 PUSH1 0x40 ADD MLOAD PUSH2 0xF14 JUMPI PUSH1 0x40 MLOAD PUSH3 0x461BCD PUSH1 0xE5 SHL DUP2 MSTORE PUSH1 0x4 ADD PUSH2 0x250 SWAP1 PUSH2 0x4744 JUMP JUMPDEST PUSH1 0x0 PUSH2 0xF2D DUP6 PUSH1 0x40 ADD MLOAD PUSH2 0xFFFF AND DUP8 PUSH1 0x20 ADD MLOAD DUP7 PUSH2 0x1E14 JUMP JUMPDEST SWAP1 POP PUSH1 0x0 PUSH2 0xF5A PUSH4 0x5F5E100 PUSH2 0xF54 DUP6 PUSH1 0xC0 ADD MLOAD PUSH2 0xF4E DUP8 PUSH1 0xA0 ADD MLOAD PUSH2 0x10D1 JUMP JUMPDEST SWAP1 PUSH2 0x19DC JUMP JUMPDEST SWAP1 PUSH2 0x1F84 JUMP JUMPDEST SWAP1 POP PUSH1 0x0 PUSH2 0xF6A DUP9 DUP6 DUP6 DUP6 PUSH2 0x1FB5 JUMP JUMPDEST SWAP1 POP PUSH1 0x0 PUSH2 0xF7B DUP9 DUP7 DUP7 DUP6 DUP8 PUSH2 0x203A JUMP JUMPDEST PUSH1 0x0 DUP12 MSTORE PUSH1 0x80 DUP12 ADD MLOAD SWAP1 SWAP8 POP SWAP1 SWAP2 POP PUSH2 0xF94 SWAP1 DUP3 PUSH2 0x19C6 JUMP JUMPDEST PUSH1 0x80 DUP11 ADD MSTORE POP POP PUSH1 0x0 PUSH1 0x40 DUP9 ADD DUP2 SWAP1 MSTORE PUSH1 0x20 SWAP1 SWAP8 ADD SWAP7 SWAP1 SWAP7 MSTORE POP SWAP1 SWAP5 SWAP4 POP POP POP POP JUMP JUMPDEST PUSH1 0x0 DUP2 PUSH2 0xFC6 JUMPI POP PUSH1 0x0 PUSH2 0x8EF JUMP JUMPDEST PUSH1 0x0 DUP3 SGT PUSH2 0xFD3 JUMPI PUSH1 0x0 DUP1 REVERT JUMPDEST PUSH1 0x0 PUSH2 0xFE2 DUP5 PUSH2 0xFFFF AND PUSH2 0x1453 JUMP JUMPDEST SWAP1 POP PUSH1 0x0 PUSH2 0xFF0 DUP3 DUP6 PUSH2 0x2224 JUMP JUMPDEST SWAP1 POP PUSH1 0x4 DUP3 PUSH1 0x60 ADD MLOAD PUSH1 0x5 DUP2 GT ISZERO PUSH2 0x1004 JUMPI INVALID JUMPDEST EQ ISZERO PUSH2 0x1032 JUMPI PUSH2 0x102B PUSH2 0xC3A PUSH2 0xBBB DUP9 DUP9 PUSH2 0xFFFF AND PUSH2 0x1022 DUP7 PUSH2 0xB46 JUMP JUMPDEST DUP8 SWAP3 SWAP2 SWAP1 PUSH2 0x225C JUMP JUMPDEST SWAP3 POP PUSH2 0x1056 JUMP JUMPDEST PUSH2 0x1053 PUSH2 0xC3A PUSH2 0xBBB DUP8 PUSH2 0xFFFF AND DUP10 PUSH2 0x104A DUP7 PUSH2 0x1539 JUMP JUMPDEST DUP8 SWAP3 SWAP2 SWAP1 PUSH2 0x2304 JUMP JUMPDEST SWAP3 POP JUMPDEST POP POP SWAP4 SWAP3 POP POP POP JUMP JUMPDEST PUSH1 0x0 DUP7 PUSH1 0x80 ADD MLOAD SGT ISZERO PUSH2 0x1071 JUMPI PUSH1 0x0 DUP1 REVERT JUMPDEST PUSH2 0x10BD DUP8 PUSH1 0x40 MLOAD DUP1 PUSH1 0xA0 ADD PUSH1 0x40 MSTORE DUP1 DUP10 PUSH1 0x60 ADD MLOAD PUSH1 0x1 PUSH1 0x1 PUSH1 0xA0 SHL SUB AND DUP2 MSTORE PUSH1 0x20 ADD DUP9 PUSH1 0x1 PUSH1 0x1 PUSH1 0xA0 SHL SUB AND DUP2 MSTORE PUSH1 0x20 ADD DUP8 DUP2 MSTORE PUSH1 0x20 ADD DUP7 DUP2 MSTORE PUSH1 0x20 ADD DUP10 PUSH1 0x80 ADD MLOAD DUP2 MSTORE POP DUP5 DUP5 PUSH2 0x23A4 JUMP JUMPDEST POP POP PUSH1 0x0 PUSH1 0x80 SWAP1 SWAP6 ADD SWAP5 SWAP1 SWAP5 MSTORE POP POP POP POP POP JUMP JUMPDEST PUSH1 0x0 PUSH1 0x1 PUSH1 0x1 PUSH1 0xFF SHL SUB DUP3 GT ISZERO PUSH2 0x10E7 JUMPI PUSH1 0x0 DUP1 REVERT JUMPDEST POP SWAP1 JUMP JUMPDEST PUSH1 0x0 PUSH2 0x1106 DUP5 DUP5 DUP5 PUSH1 0x60 ADD MLOAD DUP6 PUSH1 0x40 ADD MLOAD DUP7 PUSH1 0x0 ADD MLOAD PUSH2 0xDB1 JUMP JUMPDEST POP SWAP1 POP DUP1 DUP5 PUSH1 0xA0 ADD MLOAD SGT ISZERO PUSH2 0x112D JUMPI PUSH1 0x40 MLOAD PUSH3 0x461BCD PUSH1 0xE5 SHL DUP2 MSTORE PUSH1 0x4 ADD PUSH2 0x250 SWAP1 PUSH2 0x47C2 JUMP JUMPDEST POP POP POP POP JUMP JUMPDEST PUSH1 0x0 PUSH2 0x113D PUSH2 0x1909 JUMP JUMPDEST PUSH1 0x60 DUP5 ADD MLOAD PUSH1 0x1 PUSH1 0x1 PUSH1 0xA0 SHL SUB SWAP1 DUP2 AND PUSH1 0x0 SWAP1 DUP2 MSTORE PUSH1 0x20 DUP4 DUP2 MSTORE PUSH1 0x40 DUP1 DUP4 KECCAK256 DUP8 MLOAD SWAP1 SWAP5 AND DUP4 MSTORE SWAP3 SWAP1 MSTORE KECCAK256 PUSH1 0x80 DUP6 ADD MLOAD SWAP2 SWAP3 POP SWAP1 ISZERO PUSH2 0x117A JUMPI PUSH1 0x0 DUP1 REVERT JUMPDEST DUP4 MLOAD ISZERO DUP1 PUSH2 0x1196 JUMPI POP DUP4 MLOAD PUSH2 0x118E SWAP1 PUSH2 0xB46 JUMP JUMPDEST DUP4 PUSH1 0x60 ADD MLOAD SGT ISZERO JUMPDEST PUSH2 0x11B2 JUMPI PUSH1 0x40 MLOAD PUSH3 0x461BCD PUSH1 0xE5 SHL DUP2 MSTORE PUSH1 0x4 ADD PUSH2 0x250 SWAP1 PUSH2 0x487F JUMP JUMPDEST PUSH2 0x11C5 PUSH2 0xC3F PUSH2 0xC3A DUP7 PUSH1 0x0 ADD MLOAD PUSH2 0xB46 JUMP JUMPDEST DUP2 SLOAD PUSH1 0x1 PUSH1 0x1 PUSH1 0x50 SHL SUB NOT AND PUSH1 0x1 PUSH1 0x1 PUSH1 0x50 SHL SUB SWAP2 SWAP1 SWAP2 AND OR DUP2 SSTORE PUSH1 0x40 DUP5 ADD MLOAD PUSH2 0x11EE SWAP1 PUSH2 0x1B87 JUMP JUMPDEST DUP2 SLOAD PUSH1 0x1 PUSH1 0x1 PUSH1 0x50 SHL SUB SWAP2 SWAP1 SWAP2 AND PUSH1 0x1 PUSH1 0x50 SHL MUL PUSH1 0x1 PUSH1 0x50 SHL PUSH1 0x1 PUSH1 0xA0 SHL SUB NOT SWAP1 SWAP2 AND OR DUP2 SSTORE PUSH1 0x20 DUP5 ADD MLOAD PUSH2 0x1222 SWAP1 PUSH2 0x262A JUMP JUMPDEST DUP2 SLOAD PUSH4 0xFFFFFFFF SWAP2 SWAP1 SWAP2 AND PUSH1 0x1 PUSH1 0xA0 SHL MUL PUSH4 0xFFFFFFFF PUSH1 0xA0 SHL NOT SWAP1 SWAP2 AND OR SWAP1 SSTORE POP POP POP JUMP JUMPDEST PUSH1 0x1 PUSH1 0x1 PUSH1 0xA0 SHL SUB DUP2 AND PUSH2 0x125A JUMPI PUSH1 0x0 DUP1 REVERT JUMPDEST PUSH1 0x1 PUSH1 0x1 PUSH1 0xA0 SHL SUB DUP2 AND ADDRESS EQ ISZERO PUSH2 0x1270 JUMPI PUSH1 0x0 DUP1 REVERT JUMPDEST PUSH1 0x0 PUSH2 0x127B DUP3 PUSH2 0x263D JUMP JUMPDEST POP POP POP POP PUSH2 0xFFFF AND SWAP1 POP DUP1 PUSH1 0x0 EQ PUSH2 0x1292 JUMPI PUSH1 0x0 DUP1 REVERT JUMPDEST POP POP JUMP JUMPDEST PUSH1 0x0 DUP2 PUSH2 0x12A5 JUMPI POP PUSH1 0x0 PUSH2 0x8EF JUMP JUMPDEST PUSH1 0x0 PUSH2 0x12B8 DUP6 PUSH1 0x40 ADD MLOAD PUSH2 0xFFFF AND PUSH2 0x1453 JUMP JUMPDEST SWAP1 POP PUSH1 0x0 PUSH1 0x4 DUP3 PUSH1 0x60 ADD MLOAD PUSH1 0x5 DUP2 GT ISZERO PUSH2 0x12CE JUMPI INVALID JUMPDEST EQ PUSH2 0x12E9 JUMPI PUSH2 0x12E4 DUP7 PUSH1 0x40 ADD MLOAD PUSH2 0xFFFF AND PUSH2 0x26A9 JUMP JUMPDEST PUSH2 0x12EB JUMP JUMPDEST DUP2 JUMPDEST DUP7 MLOAD SWAP1 SWAP2 POP PUSH1 0x3 DUP3 PUSH1 0x60 ADD MLOAD PUSH1 0x5 DUP2 GT ISZERO PUSH2 0x1302 JUMPI INVALID JUMPDEST EQ ISZERO PUSH2 0x133C JUMPI DUP5 CALLVALUE EQ PUSH2 0x1327 JUMPI PUSH1 0x40 MLOAD PUSH3 0x461BCD PUSH1 0xE5 SHL DUP2 MSTORE PUSH1 0x4 ADD PUSH2 0x250 SWAP1 PUSH2 0x48A3 JUMP JUMPDEST PUSH2 0x1331 DUP2 CALLVALUE PUSH2 0x26BC JUMP JUMPDEST CALLVALUE SWAP4 POP POP POP POP PUSH2 0x8EF JUMP JUMPDEST DUP2 PUSH1 0x20 ADD MLOAD ISZERO PUSH2 0x1388 JUMPI PUSH1 0x0 PUSH2 0x1352 DUP4 DUP4 PUSH2 0x26F2 JUMP JUMPDEST SWAP1 POP PUSH2 0x1364 DUP4 PUSH1 0x0 ADD MLOAD DUP9 DUP5 DUP10 PUSH2 0x27A3 JUMP JUMPDEST PUSH1 0x0 PUSH2 0x1370 DUP5 DUP5 PUSH2 0x26F2 JUMP JUMPDEST SWAP1 POP PUSH2 0x137C DUP2 DUP4 PUSH2 0x158E JUMP JUMPDEST SWAP6 POP POP POP POP POP POP PUSH2 0x8EF JUMP JUMPDEST DUP2 MLOAD PUSH2 0x1396 SWAP1 DUP8 DUP4 DUP9 PUSH2 0x27A3 JUMP JUMPDEST DUP5 SWAP4 POP POP POP POP PUSH2 0x8EF JUMP JUMPDEST POP POP POP SWAP4 SWAP3 POP POP POP JUMP JUMPDEST PUSH2 0x13B3 PUSH2 0x40BE JUMP JUMPDEST PUSH2 0x13BC DUP4 PUSH2 0x99E JUMP JUMPDEST SWAP1 POP PUSH2 0x13C9 DUP2 PUSH1 0x80 PUSH2 0xA37 JUMP JUMPDEST ISZERO PUSH2 0x13D4 JUMPI PUSH1 0x1 PUSH1 0xA SSTORE JUMPDEST PUSH2 0x13DF DUP2 PUSH1 0x20 PUSH2 0xA37 JUMP JUMPDEST ISZERO PUSH2 0x140C JUMPI CALLER PUSH1 0x1 PUSH1 0x1 PUSH1 0xA0 SHL SUB DUP5 AND EQ PUSH2 0x140C JUMPI PUSH1 0x40 MLOAD PUSH3 0x461BCD PUSH1 0xE5 SHL DUP2 MSTORE PUSH1 0x4 ADD PUSH2 0x250 SWAP1 PUSH2 0x4605 JUMP JUMPDEST PUSH1 0x1 PUSH1 0x1 PUSH1 0xA0 SHL SUB DUP5 AND CALLER EQ DUP1 ISZERO SWAP1 PUSH2 0x1437 JUMPI POP DUP2 PUSH1 0x1 PUSH1 0x1 PUSH1 0xA0 SHL SUB AND DUP5 PUSH1 0x1 PUSH1 0x1 PUSH1 0xA0 SHL SUB AND EQ ISZERO JUMPDEST PUSH2 0x8EF JUMPI PUSH1 0x40 MLOAD PUSH3 0x461BCD PUSH1 0xE5 SHL DUP2 MSTORE PUSH1 0x4 ADD PUSH2 0x250 SWAP1 PUSH2 0x4605 JUMP JUMPDEST PUSH2 0x145B PUSH2 0x417A JUMP JUMPDEST PUSH2 0x218 DUP3 PUSH1 0x0 PUSH2 0x282B JUMP JUMPDEST PUSH1 0x0 PUSH2 0x1471 DUP4 PUSH2 0x10D1 JUMP JUMPDEST SWAP1 POP PUSH1 0x5 DUP7 PUSH1 0x60 ADD MLOAD PUSH1 0x5 DUP2 GT ISZERO PUSH2 0x1485 JUMPI INVALID JUMPDEST EQ ISZERO PUSH2 0x14A0 JUMPI PUSH2 0x149D DUP5 PUSH1 0x40 ADD MLOAD PUSH2 0xFFFF AND DUP3 PUSH2 0x28D9 JUMP JUMPDEST SWAP1 POP JUMPDEST PUSH1 0x0 DUP1 PUSH2 0x14AE DUP8 DUP8 DUP7 PUSH2 0xE19 JUMP JUMPDEST SWAP1 SWAP3 POP SWAP1 POP PUSH1 0x0 PUSH2 0x14BF DUP10 DUP5 PUSH2 0x2224 JUMP JUMPDEST SWAP1 POP DUP1 DUP5 SLT ISZERO PUSH2 0x14EC JUMPI DUP2 ISZERO PUSH2 0x14E7 JUMPI PUSH1 0x40 MLOAD PUSH3 0x461BCD PUSH1 0xE5 SHL DUP2 MSTORE PUSH1 0x4 ADD PUSH2 0x250 SWAP1 PUSH2 0x47F9 JUMP JUMPDEST PUSH2 0x14F0 JUMP JUMPDEST DUP1 SWAP4 POP JUMPDEST PUSH1 0x40 DUP8 ADD MLOAD PUSH1 0x0 SWAP1 PUSH2 0x150A SWAP1 DUP12 SWAP1 DUP14 SWAP1 PUSH2 0xFFFF AND DUP9 PUSH2 0x225C JUMP JUMPDEST SWAP1 POP PUSH2 0x1524 PUSH2 0x1519 DUP12 DUP4 PUSH2 0x2960 JUMP JUMPDEST PUSH1 0x80 DUP12 ADD MLOAD SWAP1 PUSH2 0x19C6 JUMP JUMPDEST PUSH1 0x80 SWAP1 SWAP10 ADD SWAP9 SWAP1 SWAP9 MSTORE POP POP POP POP POP POP POP POP POP POP JUMP JUMPDEST PUSH1 0x0 DUP1 DUP3 SLT ISZERO PUSH2 0x10E7 JUMPI PUSH1 0x0 DUP1 REVERT JUMPDEST PUSH1 0x0 DUP3 PUSH2 0x1557 JUMPI POP PUSH1 0x0 PUSH2 0x218 JUMP JUMPDEST DUP3 DUP3 MUL DUP3 DUP5 DUP3 DUP2 PUSH2 0x1564 JUMPI INVALID JUMPDEST DIV EQ PUSH2 0x8EF JUMPI PUSH1 0x0 DUP1 REVERT JUMPDEST PUSH1 0x0 DUP1 DUP3 GT PUSH2 0x157D JUMPI PUSH1 0x0 DUP1 REVERT JUMPDEST DUP2 DUP4 DUP2 PUSH2 0x1586 JUMPI INVALID JUMPDEST DIV SWAP4 SWAP3 POP POP POP JUMP JUMPDEST PUSH1 0x0 DUP3 DUP3 GT ISZERO PUSH2 0x159D JUMPI PUSH1 0x0 DUP1 REVERT JUMPDEST POP SWAP1 SUB SWAP1 JUMP JUMPDEST PUSH1 0x0 DUP1 PUSH2 0x15CE DUP5 PUSH1 0x40 ADD MLOAD PUSH2 0xF54 PUSH5 0x2540BE400 PUSH2 0xF54 DUP8 DUP10 PUSH1 0x20 ADD MLOAD PUSH2 0x19DC SWAP1 SWAP2 SWAP1 PUSH4 0xFFFFFFFF AND JUMP JUMPDEST SWAP5 SWAP4 POP POP POP POP JUMP JUMPDEST PUSH1 0x80 DUP6 ADD MLOAD PUSH2 0x15E5 SWAP1 DUP3 PUSH2 0x19C6 JUMP JUMPDEST PUSH1 0x80 DUP7 ADD MSTORE DUP5 MLOAD PUSH2 0x15F6 SWAP1 DUP4 PUSH2 0x19C6 JUMP JUMPDEST DUP1 DUP7 MSTORE PUSH1 0x0 SLT ISZERO PUSH2 0x1606 JUMPI PUSH1 0x0 DUP1 REVERT JUMPDEST PUSH1 0x20 DUP4 ADD MLOAD PUSH2 0x1615 SWAP1 DUP4 PUSH2 0x19C6 JUMP JUMPDEST PUSH1 0x20 DUP5 ADD DUP2 SWAP1 MSTORE PUSH1 0x0 SLT ISZERO PUSH2 0x1629 JUMPI PUSH1 0x0 DUP1 REVERT JUMPDEST PUSH2 0x163C DUP5 PUSH1 0x0 ADD MLOAD DUP6 PUSH1 0x40 ADD MLOAD DUP5 PUSH2 0x2990 JUMP JUMPDEST POP POP POP POP POP POP JUMP JUMPDEST PUSH1 0x0 DUP1 PUSH2 0x1651 DUP7 DUP7 PUSH2 0x91F JUMP JUMPDEST SWAP1 POP DUP1 PUSH1 0x20 ADD MLOAD PUSH1 0x0 EQ DUP1 PUSH2 0x1669 JUMPI POP DUP3 DUP2 PUSH1 0x20 ADD MLOAD EQ JUMPDEST PUSH2 0x1685 JUMPI PUSH1 0x40 MLOAD PUSH3 0x461BCD PUSH1 0xE5 SHL DUP2 MSTORE PUSH1 0x4 ADD PUSH2 0x250 SWAP1 PUSH2 0x462B JUMP JUMPDEST PUSH1 0x20 DUP2 ADD DUP4 SWAP1 MSTORE PUSH1 0x40 DUP2 ADD MLOAD PUSH2 0x169B SWAP1 DUP6 PUSH2 0x2A4C JUMP JUMPDEST PUSH1 0x40 DUP3 ADD MSTORE PUSH2 0x16AA DUP2 DUP7 PUSH2 0x1133 JUMP JUMPDEST POP SWAP2 SWAP5 SWAP4 POP POP POP POP JUMP JUMPDEST PUSH1 0x0 DUP1 DUP1 PUSH2 0x16C2 DUP9 DUP9 PUSH2 0x196F JUMP JUMPDEST DUP10 MLOAD SWAP2 SWAP4 POP SWAP2 POP PUSH1 0x0 SWAP1 PUSH2 0x16DD SWAP1 DUP12 SWAP1 DUP14 SWAP1 DUP6 SWAP1 DUP12 DUP12 PUSH2 0x2A5E JUMP JUMPDEST SWAP1 POP PUSH2 0x16F2 PUSH2 0x16EB DUP5 PUSH2 0x10D1 JUMP JUMPDEST DUP3 SWAP1 PUSH2 0x19C6 JUMP JUMPDEST DUP11 MLOAD SWAP1 SWAP2 POP PUSH2 0x1702 SWAP1 DUP11 SWAP1 PUSH2 0xBE7 JUMP JUMPDEST PUSH1 0x0 PUSH2 0x172D DUP13 DUP13 PUSH1 0x40 ADD MLOAD PUSH2 0xFFFF AND PUSH2 0x1724 PUSH2 0x171D DUP7 PUSH2 0xB46 JUMP JUMPDEST DUP11 SWAP1 PUSH2 0x2224 JUMP JUMPDEST DUP10 SWAP3 SWAP2 SWAP1 PUSH2 0x225C JUMP JUMPDEST SWAP1 POP PUSH1 0x5 DUP7 PUSH1 0x60 ADD MLOAD PUSH1 0x5 DUP2 GT ISZERO PUSH2 0x1741 JUMPI INVALID JUMPDEST EQ ISZERO PUSH2 0x176E JUMPI PUSH1 0x0 PUSH2 0x175A DUP13 PUSH1 0x40 ADD MLOAD PUSH2 0xFFFF AND PUSH2 0x26A9 JUMP JUMPDEST SWAP1 POP PUSH2 0x176A DUP2 PUSH1 0x0 ADD MLOAD DUP4 PUSH2 0x2AB0 JUMP JUMPDEST SWAP2 POP POP JUMPDEST PUSH2 0x177A PUSH2 0xC3A DUP3 PUSH2 0xB46 JUMP JUMPDEST SWAP13 SWAP12 POP POP POP POP POP POP POP POP POP POP POP POP JUMP JUMPDEST PUSH2 0x1792 PUSH2 0x40BE JUMP JUMPDEST PUSH1 0x0 PUSH2 0x179C PUSH2 0x2B3F JUMP JUMPDEST PUSH1 0x1 PUSH1 0x1 PUSH1 0xA0 SHL SUB DUP5 AND PUSH1 0x0 DUP2 DUP2 MSTORE PUSH1 0x20 DUP4 DUP2 MSTORE PUSH1 0x40 SWAP2 DUP3 SWAP1 KECCAK256 SWAP3 DUP7 MSTORE DUP3 SLOAD PUSH2 0xFFFF DUP1 DUP3 AND SWAP3 DUP9 ADD SWAP3 SWAP1 SWAP3 MSTORE PUSH3 0x10000 DUP2 DIV SWAP1 SWAP2 AND SWAP2 DUP7 ADD SWAP2 SWAP1 SWAP2 MSTORE SWAP2 SWAP3 POP SWAP1 PUSH2 0x17FD SWAP1 PUSH4 0xFFFFFFFF PUSH5 0x100000000 SWAP1 SWAP2 DIV DUP2 AND SWAP1 PUSH4 0x5F5E100 SWAP1 PUSH2 0x19DC AND JUMP JUMPDEST PUSH1 0x60 DUP5 ADD MSTORE DUP1 SLOAD PUSH2 0x181B SWAP1 PUSH1 0x1 PUSH1 0x50 SHL SWAP1 DIV PUSH1 0xFF AND PUSH3 0x7A120 PUSH2 0x1548 JUMP JUMPDEST PUSH1 0x80 DUP5 ADD MSTORE DUP1 SLOAD PUSH2 0x183F SWAP1 PUSH9 0x10000000000000000 SWAP1 DIV PUSH2 0xFFFF AND PUSH3 0x186A0 PUSH2 0x1548 JUMP JUMPDEST PUSH1 0xA0 DUP5 ADD MSTORE DUP1 SLOAD PUSH2 0x185E SWAP1 PUSH1 0x1 PUSH1 0x70 SHL SWAP1 DIV PUSH2 0xFFFF AND PUSH3 0x186A0 PUSH2 0x1548 JUMP JUMPDEST PUSH2 0x120 DUP5 ADD MSTORE DUP1 SLOAD PUSH1 0x64 SWAP1 PUSH1 0xFF PUSH1 0x1 PUSH1 0x58 SHL SWAP1 SWAP2 DIV AND PUSH4 0x3B9ACA00 MUL SDIV PUSH1 0xC0 DUP5 ADD MSTORE DUP1 SLOAD PUSH1 0x1 PUSH1 0x60 SHL DUP2 DIV PUSH1 0xFF SWAP1 DUP2 AND PUSH1 0xE0 DUP7 ADD MSTORE PUSH1 0x1 PUSH1 0x68 SHL SWAP1 SWAP2 DIV AND PUSH2 0x100 DUP5 ADD MSTORE PUSH1 0x40 DUP1 MLOAD PUSH1 0x60 DUP2 ADD SWAP2 DUP3 SWAP1 MSTORE SWAP1 PUSH1 0x1 DUP4 ADD SWAP1 PUSH1 0x3 SWAP1 DUP3 PUSH1 0x0 DUP6 JUMPDEST DUP3 DUP3 SWAP1 SLOAD SWAP1 PUSH2 0x100 EXP SWAP1 DIV PUSH2 0xFFFF AND PUSH2 0xFFFF AND DUP2 MSTORE PUSH1 0x20 ADD SWAP1 PUSH1 0x2 ADD SWAP1 PUSH1 0x20 DUP3 PUSH1 0x1 ADD DIV SWAP3 DUP4 ADD SWAP3 PUSH1 0x1 SUB DUP3 MUL SWAP2 POP DUP1 DUP5 GT PUSH2 0x18BC JUMPI SWAP1 POP POP POP POP POP POP DUP4 PUSH2 0x140 ADD DUP2 SWAP1 MSTORE POP POP POP SWAP2 SWAP1 POP JUMP JUMPDEST PUSH1 0x0 DUP1 PUSH2 0x218 PUSH1 0x16 PUSH2 0x2B48 JUMP JUMPDEST PUSH2 0x191E PUSH2 0x41A9 JUMP JUMPDEST PUSH1 0x0 DUP1 PUSH1 0x0 PUSH2 0x192C DUP6 PUSH2 0x2B61 JUMP JUMPDEST PUSH1 0x40 DUP1 MLOAD PUSH1 0x60 DUP2 ADD DUP3 MSTORE PUSH1 0x1 PUSH1 0x1 PUSH1 0xA0 SHL SUB SWAP1 SWAP4 AND DUP4 MSTORE PUSH1 0x20 DUP4 ADD SWAP4 SWAP1 SWAP4 MSTORE PUSH1 0xFF AND PUSH1 0xA EXP SWAP2 DUP2 ADD SWAP2 SWAP1 SWAP2 MSTORE SWAP4 POP POP POP POP SWAP2 SWAP1 POP JUMP JUMPDEST PUSH1 0x0 DUP1 PUSH2 0x218 PUSH1 0x15 PUSH2 0x2B48 JUMP JUMPDEST PUSH1 0x0 DUP1 PUSH2 0x197C DUP5 DUP5 PUSH2 0x2C24 JUMP JUMPDEST PUSH1 0x80 DUP7 ADD MLOAD SWAP2 SWAP4 POP SWAP2 POP PUSH2 0x1990 SWAP1 DUP4 PUSH2 0x158E JUMP JUMPDEST PUSH1 0x80 DUP6 ADD MSTORE PUSH1 0xA0 DUP5 ADD MLOAD PUSH2 0x19A4 SWAP1 DUP3 PUSH2 0x158E JUMP JUMPDEST PUSH1 0xA0 DUP6 ADD MSTORE PUSH1 0x60 DUP5 ADD MLOAD PUSH2 0x19B8 SWAP1 DUP5 PUSH2 0x158E JUMP JUMPDEST PUSH1 0x60 SWAP1 SWAP5 ADD SWAP4 SWAP1 SWAP4 MSTORE SWAP3 SWAP1 POP JUMP JUMPDEST DUP2 DUP2 ADD DUP3 DUP2 SLT ISZERO PUSH1 0x0 DUP4 SLT ISZERO EQ PUSH2 0x218 JUMPI PUSH1 0x0 DUP1 REVERT JUMPDEST DUP2 DUP2 MUL PUSH1 0x0 NOT DUP4 EQ ISZERO PUSH2 0x1A0C JUMPI DUP2 ISZERO DUP1 PUSH2 0x19FE JUMPI POP DUP3 DUP3 DUP3 DUP2 PUSH2 0x19FB JUMPI INVALID JUMPDEST SDIV EQ JUMPDEST PUSH2 0x1A07 JUMPI PUSH1 0x0 DUP1 REVERT JUMPDEST PUSH2 0x218 JUMP JUMPDEST DUP3 ISZERO DUP1 PUSH2 0x1A21 JUMPI POP DUP2 DUP4 DUP3 DUP2 PUSH2 0x1A1E JUMPI INVALID JUMPDEST SDIV EQ JUMPDEST PUSH2 0x218 JUMPI PUSH1 0x0 DUP1 REVERT JUMPDEST PUSH1 0x0 DUP1 PUSH2 0x1A3A DUP9 PUSH2 0xFFFF AND PUSH2 0x2C70 JUMP JUMPDEST SWAP1 POP DUP4 DUP2 PUSH1 0xFF AND GT ISZERO PUSH2 0x1A4C JUMPI PUSH1 0x0 DUP1 REVERT JUMPDEST PUSH1 0x0 DUP1 PUSH2 0x1A5D DUP4 PUSH1 0xFF AND DUP11 DUP8 PUSH2 0x2C86 JUMP JUMPDEST SWAP2 POP SWAP2 POP DUP1 ISZERO PUSH2 0x1A6C JUMPI PUSH1 0x0 DUP1 REVERT JUMPDEST PUSH1 0x0 PUSH2 0x1A77 DUP10 PUSH2 0x2D4E JUMP JUMPDEST SWAP1 POP PUSH11 0xFFFFFFFFFFFFFFFFFFFFFF DUP2 LT PUSH2 0x1A90 JUMPI PUSH1 0x0 DUP1 REVERT JUMPDEST PUSH1 0x0 PUSH1 0x78 DUP10 PUSH4 0xFFFFFFFF AND SWAP1 SHL PUSH1 0x98 DUP4 SWAP1 SHL PUSH1 0xF0 DUP7 SWAP1 SHL PUSH1 0xF8 PUSH1 0x0 DUP15 SGT PUSH2 0x1AB8 JUMPI PUSH1 0x1 PUSH2 0x1ABB JUMP JUMPDEST PUSH1 0x0 JUMPDEST PUSH1 0x5 DUP2 GT ISZERO PUSH2 0x1AC6 JUMPI INVALID JUMPDEST PUSH1 0xFF AND SWAP1 SHL OR OR OR PUSH1 0x0 SHL SWAP1 POP PUSH20 0x0 PUSH4 0xE50F349E DUP14 DUP4 PUSH1 0x40 MLOAD DUP4 PUSH4 0xFFFFFFFF AND PUSH1 0xE0 SHL DUP2 MSTORE PUSH1 0x4 ADD PUSH2 0x1B0C SWAP3 SWAP2 SWAP1 PUSH2 0x49C1 JUMP JUMPDEST PUSH1 0x20 PUSH1 0x40 MLOAD DUP1 DUP4 SUB DUP2 DUP7 DUP1 EXTCODESIZE ISZERO DUP1 ISZERO PUSH2 0x1B24 JUMPI PUSH1 0x0 DUP1 REVERT JUMPDEST POP GAS DELEGATECALL ISZERO DUP1 ISZERO PUSH2 0x1B38 JUMPI RETURNDATASIZE PUSH1 0x0 DUP1 RETURNDATACOPY RETURNDATASIZE PUSH1 0x0 REVERT JUMPDEST POP POP POP POP PUSH1 0x40 MLOAD RETURNDATASIZE PUSH1 0x1F NOT PUSH1 0x1F DUP3 ADD AND DUP3 ADD DUP1 PUSH1 0x40 MSTORE POP DUP2 ADD SWAP1 PUSH2 0x177A SWAP2 SWAP1 PUSH2 0x44A1 JUMP JUMPDEST PUSH1 0x0 DUP1 PUSH2 0x15CE DUP5 PUSH1 0x20 ADD MLOAD PUSH2 0xF54 DUP7 PUSH1 0x40 ADD MLOAD PUSH2 0xF4E PUSH5 0x2540BE400 DUP9 PUSH2 0x19DC SWAP1 SWAP2 SWAP1 PUSH4 0xFFFFFFFF AND JUMP JUMPDEST PUSH1 0x0 PUSH1 0x1 PUSH1 0x1 PUSH1 0x50 SHL SUB DUP3 GT ISZERO PUSH2 0x10E7 JUMPI PUSH1 0x0 DUP1 REVERT JUMPDEST PUSH1 0x0 DUP3 SLT PUSH2 0x1BAA JUMPI PUSH1 0x0 DUP1 REVERT JUMPDEST PUSH1 0x0 PUSH2 0x1BC3 DUP7 PUSH1 0x40 ADD MLOAD DUP6 DUP6 DUP6 DUP11 PUSH2 0x100 ADD MLOAD TIMESTAMP PUSH2 0x1A2A JUMP JUMPDEST SWAP1 POP PUSH1 0x0 DUP2 SGT PUSH2 0x1BE5 JUMPI PUSH1 0x40 MLOAD PUSH3 0x461BCD PUSH1 0xE5 SHL DUP2 MSTORE PUSH1 0x4 ADD PUSH2 0x250 SWAP1 PUSH2 0x4858 JUMP JUMPDEST PUSH2 0x1BF2 DUP8 DUP8 DUP8 DUP7 DUP6 PUSH2 0x15D6 JUMP JUMPDEST DUP7 MLOAD PUSH2 0x1BFD SWAP1 PUSH2 0xB46 JUMP JUMPDEST DUP7 PUSH1 0x60 ADD MLOAD SGT ISZERO PUSH2 0x1C20 JUMPI PUSH1 0x40 MLOAD PUSH3 0x461BCD PUSH1 0xE5 SHL DUP2 MSTORE PUSH1 0x4 ADD PUSH2 0x250 SWAP1 PUSH2 0x487F JUMP JUMPDEST PUSH1 0x0 PUSH2 0x1C2C DUP6 TIMESTAMP PUSH2 0x158E JUMP JUMPDEST SWAP1 POP PUSH2 0x1C3A DUP8 DUP10 DUP7 DUP5 PUSH2 0x2D6F JUMP JUMPDEST POP POP POP POP POP POP POP POP JUMP JUMPDEST PUSH1 0x80 DUP8 ADD MLOAD ISZERO PUSH2 0x1C53 JUMPI PUSH1 0x0 DUP1 REVERT JUMPDEST PUSH1 0x0 DUP7 PUSH1 0x80 ADD MLOAD SLT ISZERO PUSH2 0x1C65 JUMPI PUSH1 0x0 DUP1 REVERT JUMPDEST DUP7 MLOAD PUSH1 0x20 DUP8 ADD MLOAD LT ISZERO PUSH2 0x1C8D JUMPI PUSH1 0x40 DUP7 ADD MLOAD ISZERO PUSH2 0x1C81 JUMPI PUSH1 0x0 DUP1 REVERT JUMPDEST DUP7 MLOAD PUSH1 0x20 DUP8 ADD MSTORE PUSH2 0x1C9E JUMP JUMPDEST DUP7 MLOAD PUSH1 0x20 DUP8 ADD MLOAD EQ PUSH2 0x1C9E JUMPI PUSH1 0x0 DUP1 REVERT JUMPDEST PUSH1 0x60 DUP7 ADD MLOAD PUSH1 0x80 DUP8 ADD MLOAD DUP9 MLOAD PUSH2 0x1CC3 SWAP3 PUSH2 0x1CBC SWAP3 DUP10 SWAP3 DUP9 DUP9 DUP9 PUSH2 0x2E2D JUMP JUMPDEST DUP6 SWAP1 PUSH2 0x2A4C JUMP JUMPDEST PUSH1 0x0 PUSH1 0x80 DUP9 ADD DUP2 SWAP1 MSTORE PUSH1 0x60 DUP10 ADD MLOAD SWAP2 SWAP6 POP SWAP1 PUSH2 0x1CE0 JUMPI POP DUP4 PUSH2 0x1D02 JUMP JUMPDEST PUSH2 0x1CFF DUP9 PUSH1 0xA0 ADD MLOAD PUSH2 0x81C DUP11 PUSH1 0x60 ADD MLOAD DUP9 PUSH2 0x1548 SWAP1 SWAP2 SWAP1 PUSH4 0xFFFFFFFF AND JUMP JUMPDEST SWAP1 POP JUMPDEST PUSH1 0xA0 DUP9 ADD MLOAD PUSH2 0x1D11 SWAP1 DUP7 PUSH2 0x2A4C JUMP JUMPDEST PUSH1 0xA0 DUP10 ADD MSTORE PUSH1 0x60 DUP9 ADD MLOAD PUSH2 0x1D25 SWAP1 DUP3 PUSH2 0x2A4C JUMP JUMPDEST PUSH1 0x60 DUP10 ADD MSTORE PUSH1 0x40 DUP8 ADD MLOAD PUSH2 0x1D39 SWAP1 DUP3 PUSH2 0x2A4C JUMP JUMPDEST PUSH1 0x40 SWAP1 SWAP8 ADD SWAP7 SWAP1 SWAP7 MSTORE POP POP POP POP POP POP POP JUMP JUMPDEST PUSH2 0x1D53 PUSH2 0x41A9 JUMP JUMPDEST PUSH1 0x0 DUP1 PUSH1 0x0 PUSH2 0x192C DUP6 PUSH2 0x2EE3 JUMP JUMPDEST PUSH1 0x0 DUP2 PUSH2 0x1D70 JUMPI POP PUSH1 0x0 PUSH2 0x15CE JUMP JUMPDEST PUSH1 0x0 DUP1 PUSH2 0x1D7D DUP8 DUP6 PUSH2 0x2C24 JUMP JUMPDEST SWAP2 POP SWAP2 POP PUSH1 0x0 PUSH2 0x1D9C DUP8 PUSH1 0x40 ADD MLOAD DUP9 PUSH1 0x0 ADD MLOAD DUP9 DUP6 DUP13 PUSH1 0x0 ADD MLOAD PUSH2 0x2F66 JUMP JUMPDEST SWAP1 POP PUSH2 0x1DC0 PUSH2 0x1DAA DUP5 PUSH2 0x10D1 JUMP JUMPDEST PUSH2 0x160 DUP10 ADD MLOAD PUSH2 0x1DBA SWAP1 DUP5 PUSH2 0x1B5C JUMP JUMPDEST SWAP1 PUSH2 0x19C6 JUMP JUMPDEST SWAP9 SWAP8 POP POP POP POP POP POP POP POP JUMP JUMPDEST DUP1 DUP3 SUB DUP3 DUP2 SGT ISZERO PUSH1 0x0 DUP4 SLT ISZERO EQ PUSH2 0x218 JUMPI PUSH1 0x0 DUP1 REVERT JUMPDEST PUSH1 0x0 PUSH2 0x8EF PUSH2 0x1DF5 DUP5 PUSH4 0x3B9ACA00 PUSH2 0x19DC JUMP JUMPDEST DUP4 PUSH2 0x1F84 JUMP JUMPDEST PUSH1 0x0 PUSH2 0x8EF PUSH2 0x1E0A DUP5 DUP5 PUSH2 0x19DC JUMP JUMPDEST PUSH4 0x3B9ACA00 PUSH2 0x1F84 JUMP JUMPDEST PUSH2 0x1E1C PUSH2 0x41A9 JUMP JUMPDEST PUSH1 0x0 DUP1 PUSH2 0x1E29 DUP7 DUP7 PUSH2 0x3020 JUMP JUMPDEST SWAP2 POP SWAP2 POP DUP2 PUSH1 0x0 EQ ISZERO PUSH2 0x1F59 JUMPI PUSH1 0x0 PUSH2 0x1E41 DUP8 PUSH2 0x2B61 JUMP JUMPDEST SWAP2 SWAP5 POP SWAP1 SWAP3 POP SWAP1 POP PUSH1 0x1 PUSH1 0x1 PUSH1 0xA0 SHL SUB DUP2 AND ISZERO PUSH2 0x1F57 JUMPI PUSH1 0x0 PUSH2 0x1E62 PUSH2 0x3069 JUMP JUMPDEST SWAP1 POP DUP6 PUSH1 0x0 LT DUP1 ISZERO PUSH2 0x1E74 JUMPI POP DUP6 DUP8 GT ISZERO JUMPDEST DUP1 ISZERO PUSH2 0x1E85 JUMPI POP PUSH5 0xFFFFFFFFFF DUP7 GT ISZERO JUMPDEST PUSH2 0x1E8E JUMPI PUSH1 0x0 DUP1 REVERT JUMPDEST DUP4 PUSH1 0x0 SLT DUP1 ISZERO PUSH2 0x1EA5 JUMPI POP PUSH1 0x1 PUSH1 0x1 PUSH1 0x80 SHL SUB DUP5 SGT ISZERO JUMPDEST PUSH2 0x1EAE JUMPI PUSH1 0x0 DUP1 REVERT JUMPDEST PUSH1 0x0 DUP9 DUP2 MSTORE PUSH1 0x20 DUP3 DUP2 MSTORE PUSH1 0x40 DUP1 DUP4 KECCAK256 DUP11 DUP5 MSTORE SWAP1 SWAP2 MSTORE SWAP1 DUP2 SWAP1 KECCAK256 DUP1 SLOAD PUSH5 0xFFFFFFFFFF NOT AND PUSH5 0xFFFFFFFFFF DUP10 AND OR PUSH21 0xFFFFFFFFFFFFFFFFFFFFFFFFFFFFFFFF0000000000 NOT AND PUSH6 0x10000000000 PUSH1 0x1 PUSH1 0x1 PUSH1 0x80 SHL SUB DUP9 AND MUL OR PUSH1 0xFF PUSH1 0xA8 SHL NOT AND PUSH1 0x1 PUSH1 0xA8 SHL PUSH1 0xFF DUP8 AND MUL OR DUP2 SSTORE SWAP1 MLOAD DUP9 SWAP1 DUP11 SWAP1 PUSH32 0xFDFA6885701E2F1F42E4187B9231CF81C1FE23671EF64FA46F34DDB56C1DC18 SWAP1 PUSH2 0x1F4C SWAP1 DUP10 SWAP1 PUSH2 0x49AD JUMP JUMPDEST PUSH1 0x40 MLOAD DUP1 SWAP2 SUB SWAP1 LOG3 POP POP JUMPDEST POP JUMPDEST PUSH1 0x40 DUP1 MLOAD PUSH1 0x60 DUP2 ADD DUP3 MSTORE PUSH1 0x0 DUP2 MSTORE PUSH1 0x20 DUP2 ADD SWAP4 SWAP1 SWAP4 MSTORE PUSH1 0xFF SWAP1 SWAP2 AND PUSH1 0xA EXP SWAP1 DUP3 ADD MSTORE SWAP1 POP SWAP4 SWAP3 POP POP POP JUMP JUMPDEST PUSH1 0x0 DUP2 PUSH1 0x0 NOT EQ DUP1 ISZERO PUSH2 0x1F9A JUMPI POP PUSH1 0x1 PUSH1 0xFF SHL DUP4 EQ JUMPDEST ISZERO PUSH2 0x1FA4 JUMPI PUSH1 0x0 DUP1 REVERT JUMPDEST DUP2 DUP4 DUP2 PUSH2 0x1FAD JUMPI INVALID JUMPDEST SDIV SWAP4 SWAP3 POP POP POP JUMP JUMPDEST PUSH1 0x0 DUP1 PUSH2 0x1FD9 PUSH2 0x1FD2 PUSH2 0x1FCB DUP8 PUSH1 0x80 ADD MLOAD PUSH2 0x10D1 JUMP JUMPDEST DUP7 SWAP1 PUSH2 0x15A3 JUMP JUMPDEST DUP5 SWAP1 PUSH2 0x19C6 JUMP JUMPDEST SWAP1 POP PUSH2 0x2004 DUP7 PUSH1 0x0 ADD MLOAD PUSH2 0x1DBA PUSH2 0x1FF3 DUP9 PUSH1 0x60 ADD MLOAD PUSH2 0x10D1 JUMP JUMPDEST PUSH2 0xF54 DUP6 PUSH2 0xF4E DUP13 PUSH1 0x40 ADD MLOAD PUSH2 0x10D1 JUMP JUMPDEST SWAP2 POP PUSH1 0x0 DUP3 SLT ISZERO PUSH2 0x2031 JUMPI PUSH2 0x2027 PUSH2 0x201C DUP6 DUP5 PUSH2 0x1B5C JUMP JUMPDEST PUSH1 0x80 DUP9 ADD MLOAD SWAP1 PUSH2 0x19C6 JUMP JUMPDEST PUSH1 0x80 DUP8 ADD MSTORE PUSH1 0x0 SWAP2 POP JUMPDEST POP SWAP5 SWAP4 POP POP POP POP JUMP JUMPDEST PUSH1 0x0 DUP1 PUSH1 0x0 PUSH2 0x2066 PUSH2 0x2059 DUP9 PUSH1 0x20 ADD MLOAD DUP9 PUSH2 0x1B5C SWAP1 SWAP2 SWAP1 PUSH4 0xFFFFFFFF AND JUMP JUMPDEST PUSH2 0x1DBA DUP10 PUSH1 0x80 ADD MLOAD PUSH2 0x10D1 JUMP JUMPDEST SWAP1 POP PUSH1 0x0 PUSH2 0x2078 DUP6 PUSH2 0x1DBA DUP10 DUP6 PUSH2 0x15A3 JUMP JUMPDEST SWAP1 POP PUSH2 0x2098 PUSH2 0xC3A DUP3 PUSH2 0xF54 PUSH2 0x2091 DUP13 PUSH1 0xA0 ADD MLOAD PUSH2 0x10D1 JUMP JUMPDEST DUP11 SWAP1 PUSH2 0x19DC JUMP JUMPDEST SWAP3 POP PUSH2 0x20A8 DUP2 PUSH2 0xF54 DUP9 DUP6 PUSH2 0x19DC JUMP JUMPDEST SWAP4 POP POP POP PUSH1 0x0 PUSH2 0x20B6 PUSH2 0x3076 JUMP JUMPDEST DUP9 MLOAD PUSH1 0x1 PUSH1 0x1 PUSH1 0xA0 SHL SUB AND PUSH1 0x0 SWAP1 DUP2 MSTORE PUSH1 0x20 SWAP2 DUP3 MSTORE PUSH1 0x40 DUP1 DUP3 KECCAK256 DUP11 MLOAD DUP4 MSTORE SWAP1 SWAP3 MSTORE KECCAK256 DUP1 SLOAD SWAP1 SWAP2 POP PUSH1 0x1 PUSH1 0x1 PUSH1 0x50 SHL SUB DUP2 AND SWAP1 PUSH1 0x1 PUSH1 0x50 SHL SWAP1 DIV PUSH1 0x9 SWAP1 DUP2 SIGNEXTEND SWAP1 SIGNEXTEND DUP4 DUP3 LT ISZERO PUSH2 0x2147 JUMPI PUSH2 0x212D PUSH2 0x2126 PUSH2 0x211F PUSH4 0x5F5E100 PUSH2 0xF54 DUP14 PUSH1 0xC0 ADD MLOAD PUSH2 0xF4E DUP9 DUP12 SUB PUSH2 0x10D1 JUMP JUMPDEST DUP11 SWAP1 PUSH2 0x1B5C JUMP JUMPDEST DUP7 SWAP1 PUSH2 0x19C6 JUMP JUMPDEST DUP4 SLOAD PUSH1 0x1 PUSH1 0x1 PUSH1 0x50 SHL SUB NOT AND DUP5 SSTORE SWAP5 POP SWAP1 SWAP3 POP DUP3 SWAP1 PUSH2 0x2163 JUMP JUMPDEST DUP3 SLOAD PUSH1 0x1 PUSH1 0x1 PUSH1 0x50 SHL SUB NOT AND DUP5 DUP4 SUB PUSH1 0x1 PUSH1 0x1 PUSH1 0x50 SHL SUB AND OR DUP4 SSTORE JUMPDEST PUSH1 0x0 DUP6 SLT ISZERO PUSH2 0x2171 JUMPI PUSH1 0x0 DUP1 REVERT JUMPDEST DUP5 DUP2 SLT ISZERO PUSH2 0x21DB JUMPI PUSH1 0x0 DUP1 DUP3 SGT PUSH2 0x2188 JUMPI DUP6 PUSH2 0x218C JUMP JUMPDEST DUP2 DUP7 SUB JUMPDEST SWAP1 POP PUSH1 0x0 PUSH2 0x21A3 DUP13 PUSH1 0x0 ADD MLOAD DUP14 PUSH1 0x40 ADD MLOAD DUP5 PUSH2 0x3083 JUMP JUMPDEST SWAP1 POP PUSH1 0x0 DUP4 SGT ISZERO PUSH2 0x21D0 JUMPI PUSH2 0x21B8 DUP4 DUP3 PUSH2 0x19C6 JUMP JUMPDEST DUP6 SLOAD PUSH1 0x1 PUSH1 0x50 SHL PUSH1 0x1 PUSH1 0xA0 SHL SUB NOT AND DUP7 SSTORE SWAP7 POP PUSH2 0x21D4 JUMP JUMPDEST DUP1 SWAP7 POP JUMPDEST POP POP PUSH2 0x2217 JUMP JUMPDEST PUSH2 0x21ED PUSH2 0x21E8 DUP3 DUP8 PUSH2 0x1DCC JUMP JUMPDEST PUSH2 0x31A8 JUMP JUMPDEST DUP4 SLOAD PUSH1 0x9 SWAP2 SWAP1 SWAP2 SIGNEXTEND PUSH1 0x1 PUSH1 0x1 PUSH1 0x50 SHL SUB AND PUSH1 0x1 PUSH1 0x50 SHL MUL PUSH1 0x1 PUSH1 0x50 SHL PUSH1 0x1 PUSH1 0xA0 SHL SUB NOT SWAP1 SWAP2 AND OR DUP4 SSTORE JUMPDEST POP POP POP SWAP6 POP SWAP6 SWAP4 POP POP POP POP JUMP JUMPDEST PUSH1 0x0 PUSH4 0x5F5E100 DUP4 PUSH1 0x40 ADD MLOAD EQ ISZERO PUSH2 0x223D JUMPI POP DUP1 PUSH2 0x218 JUMP JUMPDEST PUSH2 0x8EF PUSH4 0x5F5E100 PUSH2 0xF54 DUP6 PUSH1 0x40 ADD MLOAD DUP6 PUSH2 0x19DC SWAP1 SWAP2 SWAP1 PUSH4 0xFFFFFFFF AND JUMP JUMPDEST DUP1 PUSH1 0x5 DUP6 PUSH1 0x60 ADD MLOAD PUSH1 0x5 DUP2 GT ISZERO PUSH2 0x226F JUMPI INVALID JUMPDEST EQ ISZERO PUSH2 0x2294 JUMPI PUSH1 0x0 PUSH2 0x2280 DUP5 PUSH2 0x26A9 JUMP JUMPDEST SWAP1 POP PUSH2 0x2290 DUP2 PUSH1 0x0 ADD MLOAD DUP5 PUSH2 0x2AB0 JUMP JUMPDEST SWAP3 POP POP JUMPDEST PUSH1 0x0 DUP3 SGT ISZERO PUSH2 0x22C0 JUMPI PUSH1 0x0 PUSH2 0x22AA DUP7 DUP7 DUP6 PUSH2 0x31D8 JUMP JUMPDEST SWAP1 POP DUP6 PUSH1 0x20 ADD MLOAD ISZERO PUSH2 0x22BA JUMPI DUP1 SWAP2 POP JUMPDEST POP PUSH2 0x15CE JUMP JUMPDEST PUSH1 0x3 DUP6 PUSH1 0x60 ADD MLOAD PUSH1 0x5 DUP2 GT ISZERO PUSH2 0x22D2 JUMPI INVALID JUMPDEST EQ ISZERO PUSH2 0x22EF JUMPI PUSH2 0x22EA DUP5 PUSH2 0x22E5 DUP5 PUSH2 0xB46 JUMP JUMPDEST PUSH2 0x26BC JUMP JUMPDEST PUSH2 0x15CE JUMP JUMPDEST DUP5 MLOAD PUSH2 0x15CE SWAP1 DUP6 PUSH2 0x22FF DUP6 PUSH2 0xB46 JUMP JUMPDEST PUSH2 0x32C6 JUMP JUMPDEST PUSH1 0x0 DUP1 PUSH1 0x2 DUP7 PUSH1 0x60 ADD MLOAD PUSH1 0x5 DUP2 GT ISZERO PUSH2 0x2319 JUMPI INVALID JUMPDEST EQ ISZERO PUSH2 0x2331 JUMPI PUSH2 0x232A DUP7 DUP6 DUP6 PUSH2 0x333D JUMP JUMPDEST SWAP1 POP PUSH2 0x238E JUMP JUMPDEST PUSH1 0x0 PUSH2 0x233C DUP7 PUSH2 0x26A9 JUMP JUMPDEST SWAP1 POP PUSH1 0x5 DUP8 PUSH1 0x60 ADD MLOAD PUSH1 0x5 DUP2 GT ISZERO PUSH2 0x2350 JUMPI INVALID JUMPDEST EQ ISZERO PUSH2 0x2368 JUMPI PUSH2 0x2361 DUP2 DUP7 DUP7 PUSH2 0x33FA JUMP JUMPDEST SWAP2 POP PUSH2 0x238C JUMP JUMPDEST PUSH1 0x1 DUP8 PUSH1 0x60 ADD MLOAD PUSH1 0x5 DUP2 GT ISZERO PUSH2 0x237A JUMPI INVALID JUMPDEST EQ ISZERO PUSH2 0x9C JUMPI PUSH2 0x2361 DUP8 DUP3 DUP8 DUP8 PUSH2 0x34A3 JUMP JUMPDEST POP JUMPDEST PUSH2 0x239A PUSH2 0xBBB DUP3 PUSH2 0x10D1 JUMP JUMPDEST SWAP7 SWAP6 POP POP POP POP POP POP JUMP JUMPDEST PUSH1 0x0 DUP1 PUSH2 0x23B8 DUP7 PUSH1 0x40 ADD MLOAD PUSH2 0xFFFF AND PUSH2 0x1453 JUMP JUMPDEST SWAP1 POP PUSH1 0x0 PUSH1 0x4 DUP3 PUSH1 0x60 ADD MLOAD PUSH1 0x5 DUP2 GT ISZERO PUSH2 0x23CE JUMPI INVALID JUMPDEST EQ PUSH2 0x23E9 JUMPI PUSH2 0x23E4 DUP8 PUSH1 0x40 ADD MLOAD PUSH2 0xFFFF AND PUSH2 0x26A9 JUMP JUMPDEST PUSH2 0x23EB JUMP JUMPDEST DUP2 JUMPDEST SWAP1 POP PUSH1 0x0 DUP1 DUP8 PUSH1 0x80 ADD MLOAD SLT ISZERO PUSH2 0x245E JUMPI PUSH1 0x4 DUP4 PUSH1 0x60 ADD MLOAD PUSH1 0x5 DUP2 GT ISZERO PUSH2 0x240D JUMPI INVALID JUMPDEST EQ ISZERO PUSH2 0x242A JUMPI PUSH2 0x2423 PUSH2 0xC3A DUP9 PUSH1 0x80 ADD MLOAD PUSH2 0xB46 JUMP JUMPDEST SWAP1 POP PUSH2 0x245E JUMP JUMPDEST PUSH1 0x0 PUSH2 0x244B PUSH2 0xBBB DUP10 PUSH1 0x80 ADD MLOAD DUP12 PUSH2 0x160 ADD MLOAD PUSH2 0x15A3 SWAP1 SWAP2 SWAP1 PUSH4 0xFFFFFFFF AND JUMP JUMPDEST SWAP1 POP PUSH2 0x245A PUSH2 0xC3A DUP5 DUP4 PUSH2 0x35A1 JUMP JUMPDEST SWAP2 POP POP JUMPDEST PUSH1 0x40 DUP8 ADD MLOAD PUSH1 0x0 SWAP1 ISZERO PUSH2 0x251D JUMPI PUSH1 0x0 PUSH2 0x2477 DUP5 ADDRESS PUSH2 0x26F2 JUMP JUMPDEST SWAP1 POP DUP10 PUSH1 0x0 ADD MLOAD PUSH1 0x1 PUSH1 0x1 PUSH1 0xA0 SHL SUB AND PUSH4 0x44F05108 DUP11 PUSH1 0x0 ADD MLOAD DUP12 PUSH1 0x20 ADD MLOAD DUP13 PUSH1 0x40 ADD MLOAD DUP14 PUSH1 0x60 ADD MLOAD DUP9 DUP15 DUP15 PUSH1 0x40 MLOAD DUP9 PUSH4 0xFFFFFFFF AND PUSH1 0xE0 SHL DUP2 MSTORE PUSH1 0x4 ADD PUSH2 0x24C5 SWAP8 SWAP7 SWAP6 SWAP5 SWAP4 SWAP3 SWAP2 SWAP1 PUSH2 0x44F7 JUMP JUMPDEST PUSH1 0x0 PUSH1 0x40 MLOAD DUP1 DUP4 SUB DUP2 PUSH1 0x0 DUP8 DUP1 EXTCODESIZE ISZERO DUP1 ISZERO PUSH2 0x24DF JUMPI PUSH1 0x0 DUP1 REVERT JUMPDEST POP GAS CALL ISZERO DUP1 ISZERO PUSH2 0x24F3 JUMPI RETURNDATASIZE PUSH1 0x0 DUP1 RETURNDATACOPY RETURNDATASIZE PUSH1 0x0 REVERT JUMPDEST POP POP POP POP PUSH1 0x0 PUSH2 0x250C ADDRESS DUP7 PUSH2 0x26F2 SWAP1 SWAP2 SWAP1 PUSH4 0xFFFFFFFF AND JUMP JUMPDEST SWAP1 POP PUSH2 0x2518 DUP2 DUP4 PUSH2 0x158E JUMP JUMPDEST SWAP3 POP POP POP JUMPDEST DUP2 DUP2 LT ISZERO PUSH2 0x25B8 JUMPI DUP1 DUP3 SUB PUSH1 0x3 DUP5 PUSH1 0x60 ADD MLOAD PUSH1 0x5 DUP2 GT ISZERO PUSH2 0x253A JUMPI INVALID JUMPDEST EQ ISZERO PUSH2 0x2578 JUMPI CALLVALUE DUP2 GT ISZERO PUSH2 0x2560 JUMPI PUSH1 0x40 MLOAD PUSH3 0x461BCD PUSH1 0xE5 SHL DUP2 MSTORE PUSH1 0x4 ADD PUSH2 0x250 SWAP1 PUSH2 0x4698 JUMP JUMPDEST PUSH2 0x2570 DUP10 PUSH1 0x0 ADD MLOAD DUP3 CALLVALUE SUB PUSH2 0x26BC JUMP JUMPDEST DUP3 SWAP2 POP PUSH2 0x25B6 JUMP JUMPDEST PUSH1 0x0 PUSH2 0x259D DUP11 PUSH1 0x0 ADD MLOAD DUP13 PUSH1 0x40 ADD MLOAD PUSH2 0xFFFF AND PUSH2 0x2594 DUP6 PUSH2 0x10D1 JUMP JUMPDEST DUP9 SWAP3 SWAP2 SWAP1 PUSH2 0x225C JUMP JUMPDEST SWAP1 POP PUSH2 0x25B2 PUSH2 0x25AB DUP3 PUSH2 0x1539 JUMP JUMPDEST DUP5 SWAP1 PUSH2 0x2A4C JUMP JUMPDEST SWAP3 POP POP JUMPDEST POP JUMPDEST DUP2 DUP2 LT ISZERO PUSH2 0x25D8 JUMPI PUSH1 0x40 MLOAD PUSH3 0x461BCD PUSH1 0xE5 SHL DUP2 MSTORE PUSH1 0x4 ADD PUSH2 0x250 SWAP1 PUSH2 0x4698 JUMP JUMPDEST PUSH1 0x0 PUSH1 0x4 DUP6 PUSH1 0x60 ADD MLOAD PUSH1 0x5 DUP2 GT ISZERO PUSH2 0x25EC JUMPI INVALID JUMPDEST EQ PUSH2 0x2607 JUMPI PUSH1 0x40 DUP11 ADD MLOAD PUSH2 0x2602 SWAP1 DUP7 SWAP1 DUP5 PUSH2 0x35D6 JUMP JUMPDEST PUSH2 0x2610 JUMP JUMPDEST PUSH2 0x2610 DUP3 PUSH2 0x10D1 JUMP JUMPDEST SWAP1 POP PUSH2 0x261C DUP6 DUP3 PUSH2 0x2960 JUMP JUMPDEST SWAP11 SWAP10 POP POP POP POP POP POP POP POP POP POP JUMP JUMPDEST PUSH1 0x0 PUSH4 0xFFFFFFFF DUP3 GT ISZERO PUSH2 0x10E7 JUMPI PUSH1 0x0 DUP1 REVERT JUMPDEST PUSH1 0x0 DUP1 PUSH1 0x0 DUP1 PUSH1 0x0 DUP1 PUSH2 0x264E PUSH2 0x36BD JUMP JUMPDEST PUSH1 0x1 PUSH1 0x1 PUSH1 0xA0 SHL SUB SWAP1 SWAP8 AND PUSH1 0x0 SWAP1 DUP2 MSTORE PUSH1 0x20 SWAP8 SWAP1 SWAP8 MSTORE POP POP PUSH1 0x40 SWAP1 SWAP5 KECCAK256 SLOAD PUSH2 0xFFFF DUP2 AND SWAP6 PUSH4 0xFFFFFFFF PUSH3 0x10000 DUP4 DIV DUP2 AND SWAP7 POP PUSH7 0x1000000000000 DUP4 DIV AND SWAP5 POP PUSH1 0xFF PUSH1 0x1 PUSH1 0x50 SHL DUP4 DIV AND SWAP4 POP PUSH1 0x1 PUSH1 0x58 SHL SWAP1 SWAP2 DIV PUSH1 0xD8 SHL SWAP2 POP JUMP JUMPDEST PUSH2 0x26B1 PUSH2 0x417A JUMP JUMPDEST PUSH2 0x218 DUP3 PUSH1 0x1 PUSH2 0x282B JUMP JUMPDEST PUSH1 0x40 MLOAD PUSH1 0x1 PUSH1 0x1 PUSH1 0xA0 SHL SUB DUP4 AND SWAP1 DUP3 ISZERO PUSH2 0x8FC MUL SWAP1 DUP4 SWAP1 PUSH1 0x0 DUP2 DUP2 DUP2 DUP6 DUP9 DUP9 CALL SWAP4 POP POP POP POP ISZERO DUP1 ISZERO PUSH2 0xA32 JUMPI RETURNDATASIZE PUSH1 0x0 DUP1 RETURNDATACOPY RETURNDATASIZE PUSH1 0x0 REVERT JUMPDEST PUSH1 0x0 PUSH1 0x3 DUP4 PUSH1 0x60 ADD MLOAD PUSH1 0x5 DUP2 GT ISZERO PUSH2 0x2706 JUMPI INVALID JUMPDEST EQ ISZERO PUSH2 0x271D JUMPI POP PUSH1 0x1 PUSH1 0x1 PUSH1 0xA0 SHL SUB DUP2 AND BALANCE PUSH2 0x218 JUMP JUMPDEST DUP3 MLOAD PUSH1 0x40 MLOAD PUSH4 0x70A08231 PUSH1 0xE0 SHL DUP2 MSTORE PUSH1 0x1 PUSH1 0x1 PUSH1 0xA0 SHL SUB SWAP1 SWAP2 AND SWAP1 PUSH4 0x70A08231 SWAP1 PUSH2 0x274C SWAP1 DUP6 SWAP1 PUSH1 0x4 ADD PUSH2 0x44E3 JUMP JUMPDEST PUSH1 0x20 PUSH1 0x40 MLOAD DUP1 DUP4 SUB DUP2 DUP7 DUP1 EXTCODESIZE ISZERO DUP1 ISZERO PUSH2 0x2764 JUMPI PUSH1 0x0 DUP1 REVERT JUMPDEST POP GAS STATICCALL ISZERO DUP1 ISZERO PUSH2 0x2778 JUMPI RETURNDATASIZE PUSH1 0x0 DUP1 RETURNDATACOPY RETURNDATASIZE PUSH1 0x0 REVERT JUMPDEST POP POP POP POP PUSH1 0x40 MLOAD RETURNDATASIZE PUSH1 0x1F NOT PUSH1 0x1F DUP3 ADD AND DUP3 ADD DUP1 PUSH1 0x40 MSTORE POP DUP2 ADD SWAP1 PUSH2 0x279C SWAP2 SWAP1 PUSH2 0x44A1 JUMP JUMPDEST SWAP1 POP PUSH2 0x218 JUMP JUMPDEST DUP4 PUSH1 0x1 PUSH1 0x1 PUSH1 0xA0 SHL SUB AND PUSH4 0x23B872DD DUP5 DUP5 DUP5 PUSH1 0x40 MLOAD DUP5 PUSH4 0xFFFFFFFF AND PUSH1 0xE0 SHL DUP2 MSTORE PUSH1 0x4 ADD DUP1 DUP5 PUSH1 0x1 PUSH1 0x1 PUSH1 0xA0 SHL SUB AND DUP2 MSTORE PUSH1 0x20 ADD DUP4 PUSH1 0x1 PUSH1 0x1 PUSH1 0xA0 SHL SUB AND DUP2 MSTORE PUSH1 0x20 ADD DUP3 DUP2 MSTORE PUSH1 0x20 ADD SWAP4 POP POP POP POP PUSH1 0x0 PUSH1 0x40 MLOAD DUP1 DUP4 SUB DUP2 PUSH1 0x0 DUP8 DUP1 EXTCODESIZE ISZERO DUP1 ISZERO PUSH2 0x280B JUMPI PUSH1 0x0 DUP1 REVERT JUMPDEST POP GAS CALL ISZERO DUP1 ISZERO PUSH2 0x281F JUMPI RETURNDATASIZE PUSH1 0x0 DUP1 RETURNDATACOPY RETURNDATASIZE PUSH1 0x0 REVERT JUMPDEST POP POP POP POP PUSH2 0x112D PUSH2 0x36CA JUMP JUMPDEST PUSH2 0x2833 PUSH2 0x417A JUMP JUMPDEST PUSH1 0x0 PUSH2 0x283D PUSH2 0x3737 JUMP JUMPDEST PUSH1 0x0 DUP6 DUP2 MSTORE PUSH1 0x20 DUP3 DUP2 MSTORE PUSH1 0x40 DUP1 DUP4 KECCAK256 DUP8 ISZERO ISZERO DUP5 MSTORE DUP3 MSTORE SWAP2 DUP3 SWAP1 KECCAK256 DUP3 MLOAD PUSH1 0xA0 DUP2 ADD DUP5 MSTORE DUP2 SLOAD PUSH1 0x1 PUSH1 0x1 PUSH1 0xA0 SHL SUB DUP2 AND DUP3 MSTORE PUSH1 0xFF PUSH1 0x1 PUSH1 0xA0 SHL DUP3 DIV DUP2 AND ISZERO ISZERO SWAP5 DUP4 ADD SWAP5 SWAP1 SWAP5 MSTORE PUSH1 0x1 PUSH1 0xB0 SHL DUP2 DIV DUP5 AND PUSH1 0xA EXP SWAP5 DUP3 ADD SWAP5 SWAP1 SWAP5 MSTORE SWAP4 SWAP5 POP SWAP3 SWAP2 PUSH1 0x60 DUP4 ADD SWAP2 PUSH1 0x1 PUSH1 0xA8 SHL SWAP1 SWAP2 DIV AND PUSH1 0x5 DUP2 GT ISZERO PUSH2 0x28B2 JUMPI INVALID JUMPDEST DUP2 MSTORE SWAP2 SLOAD PUSH1 0x1 PUSH1 0xB8 SHL SWAP1 DIV PUSH9 0xFFFFFFFFFFFFFFFFFF AND PUSH1 0x20 SWAP1 SWAP3 ADD SWAP2 SWAP1 SWAP2 MSTORE SWAP5 SWAP4 POP POP POP POP JUMP JUMPDEST PUSH1 0x0 DUP2 PUSH2 0x28E8 JUMPI POP PUSH1 0x0 PUSH2 0x218 JUMP JUMPDEST PUSH1 0x0 DUP3 SGT PUSH2 0x28F5 JUMPI PUSH1 0x0 DUP1 REVERT JUMPDEST PUSH1 0x0 PUSH2 0x2900 DUP5 PUSH2 0x26A9 JUMP JUMPDEST SWAP1 POP PUSH1 0x0 PUSH2 0x2911 DUP3 PUSH1 0x0 ADD MLOAD PUSH2 0x3744 JUMP JUMPDEST SWAP1 POP PUSH1 0x2 DUP2 SDIV PUSH12 0x33B2E3C9FD0803CE8000000 PUSH1 0x1 PUSH1 0x1 PUSH1 0xFF SHL SUB DUP3 SWAP1 SUB SDIV DUP6 SGT ISZERO PUSH2 0x293C JUMPI PUSH1 0x0 DUP1 REVERT JUMPDEST DUP2 DUP2 PUSH12 0x33B2E3C9FD0803CE8000000 DUP8 MUL ADD DUP2 PUSH2 0x2955 JUMPI INVALID JUMPDEST SDIV SWAP7 SWAP6 POP POP POP POP POP POP JUMP JUMPDEST PUSH1 0x0 PUSH4 0x5F5E100 DUP4 PUSH1 0x40 ADD MLOAD EQ ISZERO PUSH2 0x2979 JUMPI POP DUP1 PUSH2 0x218 JUMP JUMPDEST PUSH1 0x40 DUP4 ADD MLOAD PUSH2 0x8EF SWAP1 PUSH2 0xF54 DUP5 PUSH4 0x5F5E100 PUSH2 0x19DC JUMP JUMPDEST PUSH1 0x0 DUP1 PUSH2 0x299B PUSH2 0x37CF JUMP JUMPDEST PUSH1 0x1 PUSH1 0x1 PUSH1 0xA0 SHL SUB DUP7 AND PUSH1 0x0 SWAP1 DUP2 MSTORE PUSH1 0x20 SWAP2 DUP3 MSTORE PUSH1 0x40 DUP1 DUP3 KECCAK256 PUSH2 0xFFFF DUP9 AND DUP4 MSTORE SWAP1 SWAP3 MSTORE KECCAK256 DUP1 SLOAD SWAP1 SWAP2 POP PUSH2 0x29DE SWAP1 PUSH1 0x1 PUSH1 0x50 SHL SWAP1 DIV PUSH1 0x1 PUSH1 0x1 PUSH1 0x50 SHL SUB AND DUP5 PUSH2 0x1DCC JUMP JUMPDEST SWAP2 POP PUSH1 0x0 DUP4 SLT ISZERO PUSH2 0x2A13 JUMPI DUP1 SLOAD PUSH1 0x1 PUSH1 0x1 PUSH1 0x50 SHL SUB AND DUP3 SGT ISZERO PUSH2 0x2A13 JUMPI PUSH1 0x40 MLOAD PUSH3 0x461BCD PUSH1 0xE5 SHL DUP2 MSTORE PUSH1 0x4 ADD PUSH2 0x250 SWAP1 PUSH2 0x471E JUMP JUMPDEST PUSH2 0x2A1F PUSH2 0xC3F DUP4 PUSH2 0x1539 JUMP JUMPDEST DUP2 SLOAD PUSH1 0x1 PUSH1 0x1 PUSH1 0x50 SHL SUB SWAP2 SWAP1 SWAP2 AND PUSH1 0x1 PUSH1 0x50 SHL MUL PUSH1 0x1 PUSH1 0x50 SHL PUSH1 0x1 PUSH1 0xA0 SHL SUB NOT SWAP1 SWAP2 AND OR SWAP1 SSTORE SWAP4 SWAP3 POP POP POP JUMP JUMPDEST PUSH1 0x0 DUP3 DUP3 ADD DUP4 DUP2 LT ISZERO PUSH2 0x8EF JUMPI PUSH1 0x0 DUP1 REVERT JUMPDEST PUSH1 0x0 PUSH2 0x2AA5 DUP8 PUSH1 0x40 MLOAD DUP1 PUSH1 0xA0 ADD PUSH1 0x40 MSTORE DUP1 DUP10 PUSH1 0x1 PUSH1 0x1 PUSH1 0xA0 SHL SUB AND DUP2 MSTORE PUSH1 0x20 ADD DUP10 PUSH1 0x1 PUSH1 0x1 PUSH1 0xA0 SHL SUB AND DUP2 MSTORE PUSH1 0x20 ADD DUP9 DUP2 MSTORE PUSH1 0x20 ADD DUP8 DUP2 MSTORE PUSH1 0x20 ADD PUSH1 0x0 DUP2 MSTORE POP DUP6 DUP6 PUSH2 0x23A4 JUMP JUMPDEST SWAP8 SWAP7 POP POP POP POP POP POP POP JUMP JUMPDEST PUSH1 0x0 DUP2 PUSH2 0x2ABF JUMPI POP PUSH1 0x0 PUSH2 0x218 JUMP JUMPDEST PUSH1 0x0 PUSH2 0x2ACA DUP5 PUSH2 0x3744 JUMP JUMPDEST SWAP1 POP PUSH1 0x0 PUSH2 0x2AD7 DUP5 PUSH2 0x2D4E JUMP JUMPDEST SWAP1 POP DUP2 PUSH12 0x19D971E4FE8401E74000001 PUSH1 0x1 PUSH1 0xFF SHL SUB DUP2 PUSH2 0x2AF4 JUMPI INVALID JUMPDEST SDIV DUP2 SGT ISZERO PUSH2 0x2B01 JUMPI PUSH1 0x0 DUP1 REVERT JUMPDEST PUSH12 0x33B2E3C9FD0803CE8000000 PUSH12 0x19D971E4FE8401E74000000 DUP4 DUP4 MUL ADD SDIV PUSH1 0x0 DUP6 SGT PUSH2 0x2B36 JUMPI PUSH2 0x2B31 DUP2 PUSH2 0xB46 JUMP JUMPDEST PUSH2 0x239A JUMP JUMPDEST SWAP6 SWAP5 POP POP POP POP POP JUMP JUMPDEST PUSH1 0x0 DUP1 PUSH2 0x218 PUSH1 0x14 JUMPDEST PUSH1 0x0 PUSH3 0xF4240 DUP3 PUSH1 0x19 DUP2 GT ISZERO PUSH2 0x2B5A JUMPI INVALID JUMPDEST ADD SWAP3 SWAP2 POP POP JUMP JUMPDEST PUSH1 0x0 DUP1 PUSH1 0x0 DUP1 PUSH1 0x0 PUSH2 0x2B72 DUP7 PUSH2 0x37DC JUMP JUMPDEST SWAP1 SWAP3 POP SWAP1 POP PUSH1 0x0 PUSH1 0x1 PUSH1 0x1 PUSH1 0xA0 SHL SUB DUP4 AND PUSH2 0x2B97 JUMPI POP PUSH1 0x0 SWAP1 POP PUSH5 0x2540BE400 PUSH2 0x2C19 JUMP JUMPDEST DUP3 PUSH1 0x1 PUSH1 0x1 PUSH1 0xA0 SHL SUB AND PUSH4 0x1EE10833 PUSH1 0x40 MLOAD DUP2 PUSH4 0xFFFFFFFF AND PUSH1 0xE0 SHL DUP2 MSTORE PUSH1 0x4 ADD PUSH1 0x20 PUSH1 0x40 MLOAD DUP1 DUP4 SUB DUP2 PUSH1 0x0 DUP8 DUP1 EXTCODESIZE ISZERO DUP1 ISZERO PUSH2 0x2BD2 JUMPI PUSH1 0x0 DUP1 REVERT JUMPDEST POP GAS CALL ISZERO DUP1 ISZERO PUSH2 0x2BE6 JUMPI RETURNDATASIZE PUSH1 0x0 DUP1 RETURNDATACOPY RETURNDATASIZE PUSH1 0x0 REVERT JUMPDEST POP POP POP POP PUSH1 0x40 MLOAD RETURNDATASIZE PUSH1 0x1F NOT PUSH1 0x1F DUP3 ADD AND DUP3 ADD DUP1 PUSH1 0x40 MSTORE POP DUP2 ADD SWAP1 PUSH2 0x2C0A SWAP2 SWAP1 PUSH2 0x44A1 JUMP JUMPDEST SWAP1 POP PUSH1 0x0 DUP2 SGT PUSH2 0x2C19 JUMPI PUSH1 0x0 DUP1 REVERT JUMPDEST SWAP7 SWAP2 SWAP6 POP SWAP4 POP SWAP2 POP POP JUMP JUMPDEST PUSH1 0x0 DUP1 PUSH2 0x2C46 DUP5 PUSH1 0x60 ADD MLOAD PUSH2 0x81C DUP7 PUSH1 0x80 ADD MLOAD DUP7 PUSH2 0x1548 SWAP1 SWAP2 SWAP1 PUSH4 0xFFFFFFFF AND JUMP JUMPDEST SWAP2 POP PUSH2 0x2C67 DUP5 PUSH1 0x60 ADD MLOAD PUSH2 0x81C DUP7 PUSH1 0xA0 ADD MLOAD DUP7 PUSH2 0x1548 SWAP1 SWAP2 SWAP1 PUSH4 0xFFFFFFFF AND JUMP JUMPDEST SWAP1 POP SWAP3 POP SWAP3 SWAP1 POP JUMP JUMPDEST PUSH1 0x0 DUP1 PUSH2 0x2C7C DUP4 PUSH2 0x3813 JUMP JUMPDEST PUSH1 0xFF AND SWAP4 SWAP3 POP POP POP JUMP JUMPDEST PUSH1 0x0 DUP1 PUSH1 0x0 DUP6 GT PUSH2 0x2CA9 JUMPI PUSH1 0x40 MLOAD PUSH3 0x461BCD PUSH1 0xE5 SHL DUP2 MSTORE PUSH1 0x4 ADD PUSH2 0x250 SWAP1 PUSH2 0x46C8 JUMP JUMPDEST PUSH1 0x7 DUP6 GT ISZERO PUSH2 0x2CCA JUMPI PUSH1 0x40 MLOAD PUSH3 0x461BCD PUSH1 0xE5 SHL DUP2 MSTORE PUSH1 0x4 ADD PUSH2 0x250 SWAP1 PUSH2 0x4769 JUMP JUMPDEST PUSH1 0x0 PUSH2 0x2CD5 DUP5 PUSH2 0x3830 JUMP JUMPDEST SWAP1 POP PUSH1 0x1 JUMPDEST DUP7 DUP2 GT PUSH2 0x2D2D JUMPI PUSH1 0x0 PUSH2 0x2CF6 PUSH2 0x2CEF DUP4 PUSH2 0x384E JUMP JUMPDEST DUP5 SWAP1 PUSH2 0x38F2 JUMP JUMPDEST SWAP1 POP DUP7 DUP2 EQ ISZERO PUSH2 0x2D0E JUMPI POP SWAP3 POP PUSH1 0x0 SWAP2 POP PUSH2 0x2D46 SWAP1 POP JUMP JUMPDEST DUP7 DUP2 GT ISZERO PUSH2 0x2D24 JUMPI POP SWAP3 POP PUSH1 0x1 SWAP2 POP PUSH2 0x2D46 SWAP1 POP JUMP JUMPDEST POP PUSH1 0x1 ADD PUSH2 0x2CDA JUMP JUMPDEST POP PUSH1 0x40 MLOAD PUSH3 0x461BCD PUSH1 0xE5 SHL DUP2 MSTORE PUSH1 0x4 ADD PUSH2 0x250 SWAP1 PUSH2 0x48C8 JUMP JUMPDEST SWAP4 POP SWAP4 SWAP2 POP POP JUMP JUMPDEST PUSH1 0x0 DUP1 DUP3 SLT ISZERO PUSH2 0x2D68 JUMPI PUSH2 0x2D61 DUP3 PUSH2 0xB46 JUMP JUMPDEST SWAP1 POP PUSH2 0xB54 JUMP JUMPDEST POP DUP1 PUSH2 0xB54 JUMP JUMPDEST PUSH1 0x0 DUP3 SGT ISZERO PUSH2 0x2D7D JUMPI PUSH1 0x0 DUP1 REVERT JUMPDEST PUSH1 0x0 PUSH2 0x2D9E PUSH4 0x1DA9C00 PUSH2 0xF54 PUSH2 0x2D93 DUP6 PUSH2 0x10D1 JUMP JUMPDEST PUSH1 0x80 DUP10 ADD MLOAD SWAP1 PUSH2 0x19DC JUMP JUMPDEST SWAP1 POP PUSH1 0x0 PUSH2 0x2DB8 PUSH2 0xE4E DUP4 PUSH2 0x2DB2 DUP8 PUSH2 0xB46 JUMP JUMPDEST SWAP1 PUSH2 0x1DFB JUMP JUMPDEST SWAP1 POP PUSH1 0x0 PUSH2 0x2DD8 PUSH1 0x64 PUSH2 0xF54 DUP10 PUSH1 0xE0 ADD MLOAD DUP6 PUSH2 0x19DC SWAP1 SWAP2 SWAP1 PUSH4 0xFFFFFFFF AND JUMP JUMPDEST SWAP1 POP PUSH1 0x0 PUSH2 0x2DE6 DUP4 DUP4 PUSH2 0x1DCC JUMP JUMPDEST SWAP1 POP PUSH2 0x2DFA DUP9 PUSH1 0x40 ADD MLOAD PUSH2 0xFFFF AND DUP4 PUSH2 0x394C JUMP JUMPDEST PUSH2 0x2E0C DUP9 PUSH1 0x40 ADD MLOAD PUSH2 0xFFFF AND DUP3 PUSH2 0x39D3 JUMP JUMPDEST PUSH1 0x80 DUP8 ADD MLOAD PUSH2 0x2E1B SWAP1 DUP5 PUSH2 0x1DCC JUMP JUMPDEST PUSH1 0x80 SWAP1 SWAP8 ADD SWAP7 SWAP1 SWAP7 MSTORE POP POP POP POP POP POP POP JUMP JUMPDEST PUSH1 0x0 DUP1 PUSH2 0x2E43 DUP10 PUSH1 0x0 ADD MLOAD DUP11 PUSH1 0x40 ADD MLOAD DUP10 PUSH2 0xFB7 JUMP JUMPDEST DUP10 MLOAD SWAP1 SWAP2 POP PUSH1 0x1 PUSH1 0x1 PUSH1 0xA0 SHL SUB AND PUSH4 0xDC6679C5 DUP10 PUSH2 0x2E61 DUP5 DUP10 PUSH2 0x2A4C JUMP JUMPDEST DUP10 DUP9 DUP9 PUSH1 0x40 MLOAD DUP7 PUSH4 0xFFFFFFFF AND PUSH1 0xE0 SHL DUP2 MSTORE PUSH1 0x4 ADD PUSH2 0x2E84 SWAP6 SWAP5 SWAP4 SWAP3 SWAP2 SWAP1 PUSH2 0x45A6 JUMP JUMPDEST PUSH1 0x20 PUSH1 0x40 MLOAD DUP1 DUP4 SUB DUP2 PUSH1 0x0 DUP8 DUP1 EXTCODESIZE ISZERO DUP1 ISZERO PUSH2 0x2E9E JUMPI PUSH1 0x0 DUP1 REVERT JUMPDEST POP GAS CALL ISZERO DUP1 ISZERO PUSH2 0x2EB2 JUMPI RETURNDATASIZE PUSH1 0x0 DUP1 RETURNDATACOPY RETURNDATASIZE PUSH1 0x0 REVERT JUMPDEST POP POP POP POP PUSH1 0x40 MLOAD RETURNDATASIZE PUSH1 0x1F NOT PUSH1 0x1F DUP3 ADD AND DUP3 ADD DUP1 PUSH1 0x40 MSTORE POP DUP2 ADD SWAP1 PUSH2 0x2ED6 SWAP2 SWAP1 PUSH2 0x44A1 JUMP JUMPDEST SWAP10 SWAP9 POP POP POP POP POP POP POP POP POP JUMP JUMPDEST PUSH1 0x0 DUP1 PUSH1 0x0 DUP1 PUSH1 0x0 PUSH2 0x2EF4 DUP7 PUSH2 0x37DC JUMP JUMPDEST SWAP1 SWAP3 POP SWAP1 POP PUSH1 0x0 PUSH1 0x1 PUSH1 0x1 PUSH1 0xA0 SHL SUB DUP4 AND PUSH2 0x2F19 JUMPI POP PUSH1 0x0 SWAP1 POP PUSH5 0x2540BE400 PUSH2 0x2C19 JUMP JUMPDEST DUP3 PUSH1 0x1 PUSH1 0x1 PUSH1 0xA0 SHL SUB AND PUSH4 0xB2FFFB04 PUSH1 0x40 MLOAD DUP2 PUSH4 0xFFFFFFFF AND PUSH1 0xE0 SHL DUP2 MSTORE PUSH1 0x4 ADD PUSH1 0x20 PUSH1 0x40 MLOAD DUP1 DUP4 SUB DUP2 DUP7 DUP1 EXTCODESIZE ISZERO DUP1 ISZERO PUSH2 0x2F52 JUMPI PUSH1 0x0 DUP1 REVERT JUMPDEST POP GAS STATICCALL ISZERO DUP1 ISZERO PUSH2 0x2BE6 JUMPI RETURNDATASIZE PUSH1 0x0 DUP1 RETURNDATACOPY RETURNDATASIZE PUSH1 0x0 REVERT JUMPDEST PUSH1 0x0 DUP1 PUSH2 0x2F76 DUP8 PUSH2 0xFFFF AND PUSH2 0x26A9 JUMP JUMPDEST SWAP1 POP DUP1 PUSH1 0x40 ADD MLOAD PUSH1 0x0 EQ ISZERO PUSH2 0x2F95 JUMPI PUSH2 0x2F92 DUP8 PUSH2 0xFFFF AND PUSH2 0x1453 JUMP JUMPDEST SWAP1 POP JUMPDEST PUSH1 0x40 MLOAD PUSH4 0xE9377111 PUSH1 0xE0 SHL DUP2 MSTORE PUSH2 0x2AA5 SWAP1 PUSH1 0x1 PUSH1 0x1 PUSH1 0xA0 SHL SUB DUP9 AND SWAP1 PUSH4 0xE9377111 SWAP1 PUSH2 0x2FC9 SWAP1 DUP10 SWAP1 DUP10 SWAP1 DUP10 SWAP1 PUSH1 0x4 ADD PUSH2 0x4585 JUMP JUMPDEST PUSH1 0x20 PUSH1 0x40 MLOAD DUP1 DUP4 SUB DUP2 DUP7 DUP1 EXTCODESIZE ISZERO DUP1 ISZERO PUSH2 0x2FE1 JUMPI PUSH1 0x0 DUP1 REVERT JUMPDEST POP GAS STATICCALL ISZERO DUP1 ISZERO PUSH2 0x2FF5 JUMPI RETURNDATASIZE PUSH1 0x0 DUP1 RETURNDATACOPY RETURNDATASIZE PUSH1 0x0 REVERT JUMPDEST POP POP POP POP PUSH1 0x40 MLOAD RETURNDATASIZE PUSH1 0x1F NOT PUSH1 0x1F DUP3 ADD AND DUP3 ADD DUP1 PUSH1 0x40 MSTORE POP DUP2 ADD SWAP1 PUSH2 0x3019 SWAP2 SWAP1 PUSH2 0x44A1 JUMP JUMPDEST DUP3 SWAP1 PUSH2 0x2960 JUMP JUMPDEST PUSH1 0x0 DUP1 PUSH1 0x0 PUSH2 0x302D PUSH2 0x3069 JUMP JUMPDEST PUSH1 0x0 SWAP6 DUP7 MSTORE PUSH1 0x20 SWAP1 DUP2 MSTORE PUSH1 0x40 DUP1 DUP8 KECCAK256 SWAP6 DUP8 MSTORE SWAP5 SWAP1 MSTORE POP POP POP SWAP1 KECCAK256 SLOAD PUSH6 0x10000000000 DUP2 DIV PUSH1 0x1 PUSH1 0x1 PUSH1 0x80 SHL SUB AND SWAP2 PUSH1 0x1 PUSH1 0xA8 SHL SWAP1 SWAP2 DIV PUSH1 0xFF AND SWAP1 JUMP JUMPDEST PUSH1 0x0 DUP1 PUSH2 0x218 PUSH1 0x8 PUSH2 0x2B48 JUMP JUMPDEST PUSH1 0x0 DUP1 PUSH2 0x218 PUSH1 0x19 PUSH2 0x2B48 JUMP JUMPDEST PUSH1 0x0 PUSH2 0x3090 DUP5 PUSH1 0x0 PUSH2 0x3A1F JUMP JUMPDEST DUP4 PUSH1 0x1 PUSH1 0x1 PUSH1 0xA0 SHL SUB AND PUSH32 0x7C51C6AA77346C54CB051D9E792F9B7BDE5C28A9B57E6FB2D2DD727B38438CA9 PUSH1 0x0 PUSH1 0x40 MLOAD PUSH2 0x30CA SWAP2 SWAP1 PUSH2 0x45D4 JUMP JUMPDEST PUSH1 0x40 MLOAD DUP1 SWAP2 SUB SWAP1 LOG2 DUP4 PUSH1 0x1 PUSH1 0x1 PUSH1 0xA0 SHL SUB AND DUP4 PUSH2 0xFFFF AND PUSH32 0x49F3652D4BD58DF659A52593175FACF1A718295F3F4BEA635367F06D424A8958 DUP5 PUSH1 0x40 MLOAD PUSH2 0x3110 SWAP2 SWAP1 PUSH2 0x45DF JUMP JUMPDEST PUSH1 0x40 MLOAD DUP1 SWAP2 SUB SWAP1 LOG3 PUSH1 0x0 PUSH2 0x3129 PUSH1 0x0 DUP6 PUSH2 0xFFFF AND PUSH2 0x3A7F JUMP JUMPDEST POP POP POP SWAP1 POP DUP1 DUP4 SGT PUSH2 0x3149 JUMPI PUSH2 0x3141 DUP5 DUP5 DUP4 SUB PUSH2 0x3B28 JUMP JUMPDEST DUP3 SWAP2 POP PUSH2 0x31A0 JUMP JUMPDEST PUSH2 0x3154 DUP5 PUSH1 0x0 PUSH2 0x3B28 JUMP JUMPDEST DUP5 PUSH1 0x1 PUSH1 0x1 PUSH1 0xA0 SHL SUB AND DUP5 PUSH2 0xFFFF AND PUSH32 0x9982BA522274FA0CC3EE3B56025595A76649B07F4B8A39F0BD8E546CA0F9646F DUP4 DUP7 SUB PUSH1 0x40 MLOAD PUSH2 0x3194 SWAP2 SWAP1 PUSH2 0x45DF JUMP JUMPDEST PUSH1 0x40 MLOAD DUP1 SWAP2 SUB SWAP1 LOG3 DUP1 SWAP2 POP JUMPDEST POP SWAP4 SWAP3 POP POP POP JUMP JUMPDEST PUSH1 0x0 PUSH10 0x7FFFFFFFFFFFFFFFFFFF NOT DUP3 SLT DUP1 ISZERO SWAP1 PUSH2 0x31CF JUMPI POP PUSH10 0x7FFFFFFFFFFFFFFFFFFF DUP3 SGT ISZERO JUMPDEST PUSH2 0x10E7 JUMPI PUSH1 0x0 DUP1 REVERT JUMPDEST PUSH1 0x0 DUP1 DUP1 DUP1 PUSH1 0x5 DUP8 PUSH1 0x60 ADD MLOAD PUSH1 0x5 DUP2 GT ISZERO PUSH2 0x31EF JUMPI INVALID JUMPDEST EQ PUSH2 0x3201 JUMPI PUSH4 0x70A08231 PUSH1 0xE0 SHL PUSH2 0x320A JUMP JUMPDEST PUSH4 0xED1279F PUSH1 0xE1 SHL JUMPDEST SWAP1 POP DUP7 PUSH1 0x20 ADD MLOAD ISZERO PUSH2 0x3226 JUMPI DUP7 MLOAD PUSH2 0x3223 SWAP1 ADDRESS DUP4 PUSH2 0x3B8B JUMP JUMPDEST SWAP3 POP JUMPDEST DUP7 MLOAD PUSH2 0x3233 SWAP1 DUP8 DUP8 PUSH2 0x3C9D JUMP JUMPDEST DUP7 PUSH1 0x20 ADD MLOAD DUP1 PUSH2 0x3247 JUMPI POP PUSH1 0x0 DUP8 PUSH1 0x80 ADD MLOAD GT JUMPDEST ISZERO PUSH2 0x325C JUMPI DUP7 MLOAD PUSH2 0x3259 SWAP1 ADDRESS DUP4 PUSH2 0x3B8B JUMP JUMPDEST SWAP2 POP JUMPDEST PUSH1 0x80 DUP8 ADD MLOAD ISZERO PUSH2 0x3297 JUMPI PUSH1 0x0 PUSH2 0x327A DUP9 PUSH2 0x3275 DUP6 PUSH2 0x10D1 JUMP JUMPDEST PUSH2 0x2960 JUMP JUMPDEST SWAP1 POP PUSH2 0x3289 DUP9 PUSH1 0x80 ADD MLOAD PUSH2 0x10D1 JUMP JUMPDEST DUP2 SGT ISZERO PUSH2 0x3295 JUMPI PUSH1 0x0 DUP1 REVERT JUMPDEST POP JUMPDEST DUP7 PUSH1 0x20 ADD MLOAD ISZERO PUSH2 0x32BD JUMPI PUSH2 0x32B3 PUSH2 0x32AE DUP4 DUP6 PUSH2 0x3CF5 JUMP JUMPDEST PUSH2 0x10D1 JUMP JUMPDEST SWAP4 POP POP POP POP PUSH2 0x8EF JUMP JUMPDEST PUSH2 0x32B3 DUP6 PUSH2 0x10D1 JUMP JUMPDEST DUP3 PUSH1 0x1 PUSH1 0x1 PUSH1 0xA0 SHL SUB AND PUSH4 0xA9059CBB DUP4 DUP4 PUSH1 0x40 MLOAD DUP4 PUSH4 0xFFFFFFFF AND PUSH1 0xE0 SHL DUP2 MSTORE PUSH1 0x4 ADD DUP1 DUP4 PUSH1 0x1 PUSH1 0x1 PUSH1 0xA0 SHL SUB AND DUP2 MSTORE PUSH1 0x20 ADD DUP3 DUP2 MSTORE PUSH1 0x20 ADD SWAP3 POP POP POP PUSH1 0x0 PUSH1 0x40 MLOAD DUP1 DUP4 SUB DUP2 PUSH1 0x0 DUP8 DUP1 EXTCODESIZE ISZERO DUP1 ISZERO PUSH2 0x331D JUMPI PUSH1 0x0 DUP1 REVERT JUMPDEST POP GAS CALL ISZERO DUP1 ISZERO PUSH2 0x3331 JUMPI RETURNDATASIZE PUSH1 0x0 DUP1 RETURNDATACOPY RETURNDATASIZE PUSH1 0x0 REVERT JUMPDEST POP POP POP POP PUSH2 0xA32 PUSH2 0x36CA JUMP JUMPDEST DUP3 MLOAD PUSH1 0x40 MLOAD PUSH4 0xDB006A75 PUSH1 0xE0 SHL DUP2 MSTORE PUSH1 0x0 SWAP2 SELFBALANCE SWAP2 DUP4 SWAP2 PUSH1 0x1 PUSH1 0x1 PUSH1 0xA0 SHL SUB AND SWAP1 PUSH4 0xDB006A75 SWAP1 PUSH2 0x3371 SWAP1 DUP8 SWAP1 PUSH1 0x4 ADD PUSH2 0x45DF JUMP JUMPDEST PUSH1 0x20 PUSH1 0x40 MLOAD DUP1 DUP4 SUB DUP2 PUSH1 0x0 DUP8 DUP1 EXTCODESIZE ISZERO DUP1 ISZERO PUSH2 0x338B JUMPI PUSH1 0x0 DUP1 REVERT JUMPDEST POP GAS CALL ISZERO DUP1 ISZERO PUSH2 0x339F JUMPI RETURNDATASIZE PUSH1 0x0 DUP1 RETURNDATACOPY RETURNDATASIZE PUSH1 0x0 REVERT JUMPDEST POP POP POP POP PUSH1 0x40 MLOAD RETURNDATASIZE PUSH1 0x1F NOT PUSH1 0x1F DUP3 ADD AND DUP3 ADD DUP1 PUSH1 0x40 MSTORE POP DUP2 ADD SWAP1 PUSH2 0x33C3 SWAP2 SWAP1 PUSH2 0x44A1 JUMP JUMPDEST SWAP1 POP DUP1 ISZERO PUSH2 0x33E3 JUMPI PUSH1 0x40 MLOAD PUSH3 0x461BCD PUSH1 0xE5 SHL DUP2 MSTORE PUSH1 0x4 ADD PUSH2 0x250 SWAP1 PUSH2 0x4678 JUMP JUMPDEST SELFBALANCE PUSH2 0x33EE DUP2 DUP5 PUSH2 0x3CF5 JUMP JUMPDEST SWAP4 POP PUSH2 0x13A1 DUP7 DUP6 PUSH2 0x26BC JUMP JUMPDEST PUSH1 0x0 PUSH2 0x3415 PUSH2 0xC3A DUP6 PUSH1 0x0 ADD MLOAD PUSH2 0x3410 DUP6 PUSH2 0x10D1 JUMP JUMPDEST PUSH2 0x2AB0 JUMP JUMPDEST SWAP1 POP PUSH2 0x341F PUSH2 0x3D4C JUMP JUMPDEST SLOAD DUP5 MLOAD PUSH1 0x40 MLOAD PUSH4 0x1A4CA37B PUSH1 0xE2 SHL DUP2 MSTORE PUSH1 0x1 PUSH1 0x1 PUSH1 0xA0 SHL SUB SWAP1 SWAP3 AND SWAP2 PUSH4 0x69328DEC SWAP2 PUSH2 0x3451 SWAP2 DUP6 SWAP1 DUP9 SWAP1 PUSH1 0x4 ADD PUSH2 0x4535 JUMP JUMPDEST PUSH1 0x20 PUSH1 0x40 MLOAD DUP1 DUP4 SUB DUP2 PUSH1 0x0 DUP8 DUP1 EXTCODESIZE ISZERO DUP1 ISZERO PUSH2 0x346B JUMPI PUSH1 0x0 DUP1 REVERT JUMPDEST POP GAS CALL ISZERO DUP1 ISZERO PUSH2 0x347F JUMPI RETURNDATASIZE PUSH1 0x0 DUP1 RETURNDATACOPY RETURNDATASIZE PUSH1 0x0 REVERT JUMPDEST POP POP POP POP PUSH1 0x40 MLOAD RETURNDATASIZE PUSH1 0x1F NOT PUSH1 0x1F DUP3 ADD AND DUP3 ADD DUP1 PUSH1 0x40 MSTORE POP DUP2 ADD SWAP1 PUSH2 0x31A0 SWAP2 SWAP1 PUSH2 0x44A1 JUMP JUMPDEST DUP3 MLOAD PUSH1 0x0 SWAP1 DUP2 SWAP1 PUSH2 0x34BC SWAP1 ADDRESS PUSH4 0x70A08231 PUSH1 0xE0 SHL PUSH2 0x3B8B JUMP JUMPDEST SWAP1 POP PUSH1 0x0 DUP7 PUSH1 0x0 ADD MLOAD PUSH1 0x1 PUSH1 0x1 PUSH1 0xA0 SHL SUB AND PUSH4 0xDB006A75 DUP6 PUSH1 0x40 MLOAD DUP3 PUSH4 0xFFFFFFFF AND PUSH1 0xE0 SHL DUP2 MSTORE PUSH1 0x4 ADD PUSH2 0x34F0 SWAP2 SWAP1 PUSH2 0x45DF JUMP JUMPDEST PUSH1 0x20 PUSH1 0x40 MLOAD DUP1 DUP4 SUB DUP2 PUSH1 0x0 DUP8 DUP1 EXTCODESIZE ISZERO DUP1 ISZERO PUSH2 0x350A JUMPI PUSH1 0x0 DUP1 REVERT JUMPDEST POP GAS CALL ISZERO DUP1 ISZERO PUSH2 0x351E JUMPI RETURNDATASIZE PUSH1 0x0 DUP1 RETURNDATACOPY RETURNDATASIZE PUSH1 0x0 REVERT JUMPDEST POP POP POP POP PUSH1 0x40 MLOAD RETURNDATASIZE PUSH1 0x1F NOT PUSH1 0x1F DUP3 ADD AND DUP3 ADD DUP1 PUSH1 0x40 MSTORE POP DUP2 ADD SWAP1 PUSH2 0x3542 SWAP2 SWAP1 PUSH2 0x44A1 JUMP JUMPDEST SWAP1 POP DUP1 ISZERO PUSH2 0x3562 JUMPI PUSH1 0x40 MLOAD PUSH3 0x461BCD PUSH1 0xE5 SHL DUP2 MSTORE PUSH1 0x4 ADD PUSH2 0x250 SWAP1 PUSH2 0x4678 JUMP JUMPDEST DUP6 MLOAD PUSH1 0x0 SWAP1 PUSH2 0x3579 SWAP1 ADDRESS PUSH4 0x70A08231 PUSH1 0xE0 SHL PUSH2 0x3B8B JUMP JUMPDEST SWAP1 POP PUSH2 0x3585 DUP2 DUP5 PUSH2 0x3CF5 JUMP JUMPDEST SWAP4 POP PUSH2 0x3596 DUP8 PUSH1 0x0 ADD MLOAD DUP8 DUP7 PUSH2 0x32C6 JUMP JUMPDEST POP POP POP SWAP5 SWAP4 POP POP POP POP JUMP JUMPDEST PUSH1 0x0 PUSH4 0x5F5E100 DUP4 PUSH1 0x40 ADD MLOAD SLT ISZERO PUSH2 0x35C2 JUMPI PUSH2 0x279C PUSH1 0x1 PUSH2 0x1DBA DUP6 DUP6 PUSH2 0x2224 JUMP JUMPDEST PUSH2 0x8EF DUP4 PUSH2 0x35D1 DUP5 PUSH1 0x1 PUSH2 0x19C6 JUMP JUMPDEST PUSH2 0x2224 JUMP JUMPDEST PUSH1 0x0 DUP1 PUSH1 0x5 DUP6 PUSH1 0x60 ADD MLOAD PUSH1 0x5 DUP2 GT ISZERO PUSH2 0x35EB JUMPI INVALID JUMPDEST EQ PUSH2 0x35FD JUMPI PUSH4 0x70A08231 PUSH1 0xE0 SHL PUSH2 0x3606 JUMP JUMPDEST PUSH4 0xED1279F PUSH1 0xE1 SHL JUMPDEST SWAP1 POP PUSH1 0x0 PUSH2 0x3619 DUP7 PUSH1 0x0 ADD MLOAD ADDRESS DUP5 PUSH2 0x3B8B JUMP JUMPDEST SWAP1 POP PUSH1 0x5 DUP7 PUSH1 0x60 ADD MLOAD PUSH1 0x5 DUP2 GT ISZERO PUSH2 0x362D JUMPI INVALID JUMPDEST EQ ISZERO PUSH2 0x3654 JUMPI PUSH1 0x0 PUSH2 0x3642 DUP7 PUSH2 0xFFFF AND PUSH2 0x26A9 JUMP JUMPDEST SWAP1 POP PUSH2 0x364E DUP2 DUP7 PUSH2 0x3D59 JUMP JUMPDEST POP PUSH2 0x369D JUMP JUMPDEST PUSH1 0x1 DUP7 PUSH1 0x60 ADD MLOAD PUSH1 0x5 DUP2 GT ISZERO PUSH2 0x3666 JUMPI INVALID JUMPDEST EQ ISZERO PUSH2 0x367B JUMPI PUSH2 0x3676 DUP7 DUP6 PUSH2 0x3DC4 JUMP JUMPDEST PUSH2 0x369D JUMP JUMPDEST PUSH1 0x2 DUP7 PUSH1 0x60 ADD MLOAD PUSH1 0x5 DUP2 GT ISZERO PUSH2 0x368D JUMPI INVALID JUMPDEST EQ ISZERO PUSH2 0x9C JUMPI PUSH2 0x3676 DUP7 DUP6 PUSH2 0x3E66 JUMP JUMPDEST PUSH1 0x0 PUSH2 0x36AE DUP8 PUSH1 0x0 ADD MLOAD ADDRESS DUP6 PUSH2 0x3B8B JUMP JUMPDEST SWAP1 POP PUSH2 0x2AA5 PUSH2 0x32AE DUP3 DUP5 PUSH2 0x3CF5 JUMP JUMPDEST PUSH1 0x0 DUP1 PUSH2 0x218 PUSH1 0x2 PUSH2 0x2B48 JUMP JUMPDEST PUSH1 0x0 PUSH2 0x36D4 PUSH2 0x41D3 JUMP JUMPDEST RETURNDATASIZE DUP1 ISZERO PUSH2 0x36E8 JUMPI PUSH1 0x20 DUP2 EQ PUSH2 0x36F1 JUMPI PUSH1 0x0 DUP1 REVERT JUMPDEST PUSH1 0x1 SWAP3 POP PUSH2 0x36FC JUMP JUMPDEST PUSH1 0x20 PUSH1 0x0 DUP4 RETURNDATACOPY DUP2 MLOAD SWAP3 POP JUMPDEST POP DUP2 PUSH2 0x1292 JUMPI PUSH1 0x40 DUP1 MLOAD PUSH3 0x461BCD PUSH1 0xE5 SHL DUP2 MSTORE PUSH1 0x20 PUSH1 0x4 DUP3 ADD MSTORE PUSH1 0x5 PUSH1 0x24 DUP3 ADD MSTORE PUSH5 0x455243323 PUSH1 0xDC SHL PUSH1 0x44 DUP3 ADD MSTORE SWAP1 MLOAD SWAP1 DUP2 SWAP1 SUB PUSH1 0x64 ADD SWAP1 REVERT JUMPDEST PUSH1 0x0 DUP1 PUSH2 0x218 PUSH1 0x7 PUSH2 0x2B48 JUMP JUMPDEST PUSH1 0x0 PUSH2 0x218 PUSH2 0x3751 PUSH2 0x3D4C JUMP JUMPDEST SLOAD PUSH1 0x40 MLOAD PUSH4 0xD15E0053 PUSH1 0xE0 SHL DUP2 MSTORE PUSH1 0x1 PUSH1 0x1 PUSH1 0xA0 SHL SUB SWAP1 SWAP2 AND SWAP1 PUSH4 0xD15E0053 SWAP1 PUSH2 0x377F SWAP1 DUP7 SWAP1 PUSH1 0x4 ADD PUSH2 0x44E3 JUMP JUMPDEST PUSH1 0x20 PUSH1 0x40 MLOAD DUP1 DUP4 SUB DUP2 DUP7 DUP1 EXTCODESIZE ISZERO DUP1 ISZERO PUSH2 0x3797 JUMPI PUSH1 0x0 DUP1 REVERT JUMPDEST POP GAS STATICCALL ISZERO DUP1 ISZERO PUSH2 0x37AB JUMPI RETURNDATASIZE PUSH1 0x0 DUP1 RETURNDATACOPY RETURNDATASIZE PUSH1 0x0 REVERT JUMPDEST POP POP POP POP PUSH1 0x40 MLOAD RETURNDATASIZE PUSH1 0x1F NOT PUSH1 0x1F DUP3 ADD AND DUP3 ADD DUP1 PUSH1 0x40 MSTORE POP DUP2 ADD SWAP1 PUSH2 0x32AE SWAP2 SWAP1 PUSH2 0x44A1 JUMP JUMPDEST PUSH1 0x0 DUP1 PUSH2 0x218 PUSH1 0x17 PUSH2 0x2B48 JUMP JUMPDEST PUSH1 0x0 DUP1 PUSH1 0x0 PUSH2 0x37E9 PUSH2 0x3EB9 JUMP JUMPDEST PUSH1 0x0 SWAP5 DUP6 MSTORE PUSH1 0x20 MSTORE POP POP PUSH1 0x40 SWAP1 SWAP2 KECCAK256 SLOAD PUSH1 0x1 PUSH1 0x1 PUSH1 0xA0 SHL SUB DUP2 AND SWAP3 PUSH1 0x1 PUSH1 0xA0 SHL SWAP1 SWAP2 DIV PUSH1 0xFF AND SWAP2 POP JUMP JUMPDEST PUSH1 0x0 DUP1 PUSH2 0x381E PUSH2 0x3EC6 JUMP JUMPDEST PUSH1 0x0 SWAP4 DUP5 MSTORE PUSH1 0x20 MSTORE POP POP PUSH1 0x40 SWAP1 KECCAK256 SLOAD SWAP1 JUMP JUMPDEST PUSH1 0x0 PUSH3 0x76A700 DUP3 LT ISZERO PUSH2 0x3842 JUMPI PUSH1 0x0 DUP1 REVERT JUMPDEST POP PUSH3 0x76A700 DUP2 MOD SWAP1 SUB SWAP1 JUMP JUMPDEST PUSH1 0x0 DUP2 PUSH1 0x1 EQ ISZERO PUSH2 0x3863 JUMPI POP PUSH3 0x76A700 PUSH2 0xB54 JUMP JUMPDEST DUP2 PUSH1 0x2 EQ ISZERO PUSH2 0x3876 JUMPI POP PUSH3 0xED4E00 PUSH2 0xB54 JUMP JUMPDEST DUP2 PUSH1 0x3 EQ ISZERO PUSH2 0x388A JUMPI POP PUSH4 0x1DA9C00 PUSH2 0xB54 JUMP JUMPDEST DUP2 PUSH1 0x4 EQ ISZERO PUSH2 0x389E JUMPI POP PUSH4 0x3B53800 PUSH2 0xB54 JUMP JUMPDEST DUP2 PUSH1 0x5 EQ ISZERO PUSH2 0x38B2 JUMPI POP PUSH4 0x9450C00 PUSH2 0xB54 JUMP JUMPDEST DUP2 PUSH1 0x6 EQ ISZERO PUSH2 0x38C6 JUMPI POP PUSH4 0x128A1800 PUSH2 0xB54 JUMP JUMPDEST DUP2 PUSH1 0x7 EQ ISZERO PUSH2 0x38DA JUMPI POP PUSH4 0x25143000 PUSH2 0xB54 JUMP JUMPDEST PUSH1 0x40 MLOAD PUSH3 0x461BCD PUSH1 0xE5 SHL DUP2 MSTORE PUSH1 0x4 ADD PUSH2 0x250 SWAP1 PUSH2 0x46F7 JUMP JUMPDEST PUSH1 0x0 DUP3 DUP3 ADD DUP4 DUP2 LT ISZERO PUSH2 0x8EF JUMPI PUSH1 0x40 DUP1 MLOAD PUSH3 0x461BCD PUSH1 0xE5 SHL DUP2 MSTORE PUSH1 0x20 PUSH1 0x4 DUP3 ADD MSTORE PUSH1 0x1B PUSH1 0x24 DUP3 ADD MSTORE PUSH32 0x536166654D6174683A206164646974696F6E206F766572666C6F770000000000 PUSH1 0x44 DUP3 ADD MSTORE SWAP1 MLOAD SWAP1 DUP2 SWAP1 SUB PUSH1 0x64 ADD SWAP1 REVERT JUMPDEST PUSH1 0x0 DUP2 SLT ISZERO PUSH2 0x395A JUMPI PUSH1 0x0 DUP1 REVERT JUMPDEST PUSH1 0x0 PUSH2 0x3967 PUSH1 0x0 DUP5 PUSH2 0x3A7F JUMP JUMPDEST POP POP POP SWAP1 POP PUSH2 0x397F DUP3 DUP3 PUSH2 0x19C6 SWAP1 SWAP2 SWAP1 PUSH4 0xFFFFFFFF AND JUMP JUMPDEST SWAP1 POP PUSH2 0x3992 PUSH1 0x0 DUP5 DUP4 PUSH1 0x0 DUP1 PUSH1 0x0 PUSH2 0x3ED3 JUMP JUMPDEST DUP3 PUSH2 0xFFFF AND PUSH32 0x85170C297762884F47EC6098B74925C795E6D33686B11019B400E33A9B23B5E9 DUP4 PUSH1 0x40 MLOAD PUSH2 0x39C6 SWAP2 SWAP1 PUSH2 0x45DF JUMP JUMPDEST PUSH1 0x40 MLOAD DUP1 SWAP2 SUB SWAP1 LOG2 POP POP POP JUMP JUMPDEST PUSH1 0x0 DUP2 SLT ISZERO PUSH2 0x39E1 JUMPI PUSH1 0x0 DUP1 REVERT JUMPDEST PUSH1 0x0 PUSH2 0x39EC DUP4 PUSH2 0x401A JUMP JUMPDEST SWAP1 POP PUSH1 0x0 PUSH2 0x39FA DUP3 DUP6 PUSH2 0x3A7F JUMP JUMPDEST POP POP POP SWAP1 POP PUSH2 0x3A12 DUP4 DUP3 PUSH2 0x19C6 SWAP1 SWAP2 SWAP1 PUSH4 0xFFFFFFFF AND JUMP JUMPDEST SWAP1 POP PUSH2 0x112D DUP3 DUP6 DUP4 PUSH2 0x4040 JUMP JUMPDEST PUSH1 0x0 PUSH2 0x3A29 PUSH2 0x2B3F JUMP JUMPDEST PUSH1 0x1 PUSH1 0x1 PUSH1 0xA0 SHL SUB DUP5 AND PUSH1 0x0 SWAP1 DUP2 MSTORE PUSH1 0x20 DUP3 SWAP1 MSTORE PUSH1 0x40 SWAP1 KECCAK256 DUP1 SLOAD SWAP2 SWAP3 POP SWAP1 PUSH2 0xFFFF AND DUP4 ISZERO PUSH2 0x3A68 JUMPI DUP2 SLOAD PUSH2 0xFFFF NOT AND PUSH1 0x1 DUP3 OR PUSH2 0xFFFF AND OR DUP3 SSTORE PUSH2 0x3A78 JUMP JUMPDEST DUP2 SLOAD PUSH2 0xFFFF NOT AND PUSH2 0xFFFE DUP3 AND OR DUP3 SSTORE JUMPDEST POP POP POP POP POP JUMP JUMPDEST PUSH1 0x0 DUP1 PUSH1 0x0 DUP1 PUSH1 0x0 PUSH2 0x3A8F PUSH2 0x405E JUMP JUMPDEST PUSH1 0x1 PUSH1 0x1 PUSH1 0xA0 SHL SUB DUP9 AND PUSH1 0x0 SWAP1 DUP2 MSTORE PUSH1 0x20 DUP3 DUP2 MSTORE PUSH1 0x40 DUP1 DUP4 KECCAK256 DUP11 DUP5 MSTORE SWAP1 SWAP2 MSTORE SWAP1 KECCAK256 DUP1 SLOAD PUSH1 0x1 PUSH1 0x1 PUSH1 0x50 SHL SUB DUP2 AND SWAP7 POP PUSH1 0x1 PUSH1 0x50 SHL SWAP1 DIV PUSH4 0xFFFFFFFF AND SWAP5 POP SWAP1 SWAP2 POP DUP4 ISZERO PUSH2 0x3AF8 JUMPI DUP1 SLOAD PUSH2 0x3AF1 SWAP1 PUSH1 0x1 PUSH1 0x70 SHL SWAP1 DIV PUSH7 0xFFFFFFFFFFFFFF AND PUSH2 0x406B JUMP JUMPDEST SWAP3 POP PUSH2 0x3B0D JUMP JUMPDEST DUP1 SLOAD PUSH1 0x1 PUSH1 0x70 SHL SWAP1 DIV PUSH7 0xFFFFFFFFFFFFFF AND SWAP3 POP JUMPDEST SLOAD PUSH1 0x1 PUSH1 0xA8 SHL SWAP1 DIV PUSH1 0xA SWAP1 DUP2 SIGNEXTEND SWAP1 SIGNEXTEND SWAP8 SWAP4 SWAP7 POP SWAP2 SWAP5 POP SWAP3 POP POP JUMP JUMPDEST PUSH1 0x0 DUP2 SLT ISZERO PUSH2 0x3B36 JUMPI PUSH1 0x0 DUP1 REVERT JUMPDEST PUSH2 0x3B4B PUSH1 0x0 DUP4 PUSH2 0xFFFF AND DUP4 PUSH1 0x0 DUP1 PUSH1 0x0 PUSH2 0x3ED3 JUMP JUMPDEST DUP2 PUSH2 0xFFFF AND PUSH32 0xD3625F7B5926828151EFE19F7AE655488287357D99EBE67E5FB20522CA739C0B DUP3 PUSH1 0x40 MLOAD PUSH2 0x3B7F SWAP2 SWAP1 PUSH2 0x45DF JUMP JUMPDEST PUSH1 0x40 MLOAD DUP1 SWAP2 SUB SWAP1 LOG2 POP POP JUMP JUMPDEST PUSH1 0x40 DUP1 MLOAD PUSH1 0x1 PUSH1 0x1 PUSH1 0xA0 SHL SUB DUP5 DUP2 AND PUSH1 0x24 DUP1 DUP5 ADD SWAP2 SWAP1 SWAP2 MSTORE DUP4 MLOAD DUP1 DUP5 SUB SWAP1 SWAP2 ADD DUP2 MSTORE PUSH1 0x44 SWAP1 SWAP3 ADD DUP4 MSTORE PUSH1 0x20 DUP3 ADD DUP1 MLOAD PUSH1 0x1 PUSH1 0x1 PUSH1 0xE0 SHL SUB AND PUSH1 0x1 PUSH1 0x1 PUSH1 0xE0 SHL SUB NOT DUP7 AND OR DUP2 MSTORE SWAP3 MLOAD DUP3 MLOAD PUSH1 0x0 SWAP5 DUP6 SWAP5 DUP6 SWAP5 DUP11 AND SWAP4 SWAP1 SWAP3 SWAP1 SWAP2 DUP3 SWAP2 DUP1 DUP4 DUP4 JUMPDEST PUSH1 0x20 DUP4 LT PUSH2 0x3C08 JUMPI DUP1 MLOAD DUP3 MSTORE PUSH1 0x1F NOT SWAP1 SWAP3 ADD SWAP2 PUSH1 0x20 SWAP2 DUP3 ADD SWAP2 ADD PUSH2 0x3BE9 JUMP JUMPDEST PUSH1 0x1 DUP4 PUSH1 0x20 SUB PUSH2 0x100 EXP SUB DUP1 NOT DUP3 MLOAD AND DUP2 DUP5 MLOAD AND DUP1 DUP3 OR DUP6 MSTORE POP POP POP POP POP POP SWAP1 POP ADD SWAP2 POP POP PUSH1 0x0 PUSH1 0x40 MLOAD DUP1 DUP4 SUB DUP2 DUP6 GAS STATICCALL SWAP2 POP POP RETURNDATASIZE DUP1 PUSH1 0x0 DUP2 EQ PUSH2 0x3C68 JUMPI PUSH1 0x40 MLOAD SWAP2 POP PUSH1 0x1F NOT PUSH1 0x3F RETURNDATASIZE ADD AND DUP3 ADD PUSH1 0x40 MSTORE RETURNDATASIZE DUP3 MSTORE RETURNDATASIZE PUSH1 0x0 PUSH1 0x20 DUP5 ADD RETURNDATACOPY PUSH2 0x3C6D JUMP JUMPDEST PUSH1 0x60 SWAP2 POP JUMPDEST POP SWAP2 POP SWAP2 POP DUP2 PUSH2 0x3C7C JUMPI PUSH1 0x0 DUP1 REVERT JUMPDEST DUP1 DUP1 PUSH1 0x20 ADD SWAP1 MLOAD PUSH1 0x20 DUP2 LT ISZERO PUSH2 0x3C91 JUMPI PUSH1 0x0 DUP1 REVERT JUMPDEST POP MLOAD SWAP7 SWAP6 POP POP POP POP POP POP JUMP JUMPDEST PUSH1 0x40 DUP1 MLOAD PUSH4 0x23B872DD PUSH1 0xE0 SHL DUP2 MSTORE PUSH1 0x1 PUSH1 0x1 PUSH1 0xA0 SHL SUB DUP5 DUP2 AND PUSH1 0x4 DUP4 ADD MSTORE ADDRESS PUSH1 0x24 DUP4 ADD MSTORE PUSH1 0x44 DUP3 ADD DUP5 SWAP1 MSTORE SWAP2 MLOAD SWAP2 DUP6 AND SWAP2 PUSH4 0x23B872DD SWAP2 PUSH1 0x64 DUP1 DUP3 ADD SWAP3 PUSH1 0x0 SWAP3 SWAP1 SWAP2 SWAP1 DUP3 SWAP1 SUB ADD DUP2 DUP4 DUP8 DUP1 EXTCODESIZE ISZERO DUP1 ISZERO PUSH2 0x331D JUMPI PUSH1 0x0 DUP1 REVERT JUMPDEST PUSH1 0x0 DUP3 DUP3 GT ISZERO PUSH2 0x159D JUMPI PUSH1 0x40 DUP1 MLOAD PUSH3 0x461BCD PUSH1 0xE5 SHL DUP2 MSTORE PUSH1 0x20 PUSH1 0x4 DUP3 ADD MSTORE PUSH1 0x1E PUSH1 0x24 DUP3 ADD MSTORE PUSH32 0x536166654D6174683A207375627472616374696F6E206F766572666C6F770000 PUSH1 0x44 DUP3 ADD MSTORE SWAP1 MLOAD SWAP1 DUP2 SWAP1 SUB PUSH1 0x64 ADD SWAP1 REVERT JUMPDEST PUSH1 0x0 DUP1 PUSH2 0x218 PUSH1 0x13 PUSH2 0x2B48 JUMP JUMPDEST PUSH2 0x3D61 PUSH2 0x3D4C JUMP JUMPDEST SLOAD DUP3 MLOAD PUSH1 0x40 MLOAD PUSH4 0xE8EDA9DF PUSH1 0xE0 SHL DUP2 MSTORE PUSH1 0x1 PUSH1 0x1 PUSH1 0xA0 SHL SUB SWAP1 SWAP3 AND SWAP2 PUSH4 0xE8EDA9DF SWAP2 PUSH2 0x3D96 SWAP2 DUP6 SWAP1 ADDRESS SWAP1 PUSH1 0x0 SWAP1 PUSH1 0x4 ADD PUSH2 0x4558 JUMP JUMPDEST PUSH1 0x0 PUSH1 0x40 MLOAD DUP1 DUP4 SUB DUP2 PUSH1 0x0 DUP8 DUP1 EXTCODESIZE ISZERO DUP1 ISZERO PUSH2 0x3DB0 JUMPI PUSH1 0x0 DUP1 REVERT JUMPDEST POP GAS CALL ISZERO DUP1 ISZERO PUSH2 0x163C JUMPI RETURNDATASIZE PUSH1 0x0 DUP1 RETURNDATACOPY RETURNDATASIZE PUSH1 0x0 REVERT JUMPDEST DUP2 MLOAD PUSH1 0x40 MLOAD PUSH4 0x140E25AD PUSH1 0xE3 SHL DUP2 MSTORE PUSH1 0x0 SWAP2 PUSH1 0x1 PUSH1 0x1 PUSH1 0xA0 SHL SUB AND SWAP1 PUSH4 0xA0712D68 SWAP1 PUSH2 0x3DF4 SWAP1 DUP6 SWAP1 PUSH1 0x4 ADD PUSH2 0x45DF JUMP JUMPDEST PUSH1 0x20 PUSH1 0x40 MLOAD DUP1 DUP4 SUB DUP2 PUSH1 0x0 DUP8 DUP1 EXTCODESIZE ISZERO DUP1 ISZERO PUSH2 0x3E0E JUMPI PUSH1 0x0 DUP1 REVERT JUMPDEST POP GAS CALL ISZERO DUP1 ISZERO PUSH2 0x3E22 JUMPI RETURNDATASIZE PUSH1 0x0 DUP1 RETURNDATACOPY RETURNDATASIZE PUSH1 0x0 REVERT JUMPDEST POP POP POP POP PUSH1 0x40 MLOAD RETURNDATASIZE PUSH1 0x1F NOT PUSH1 0x1F DUP3 ADD AND DUP3 ADD DUP1 PUSH1 0x40 MSTORE POP DUP2 ADD SWAP1 PUSH2 0x3E46 SWAP2 SWAP1 PUSH2 0x44A1 JUMP JUMPDEST SWAP1 POP DUP1 ISZERO PUSH2 0xA32 JUMPI PUSH1 0x40 MLOAD PUSH3 0x461BCD PUSH1 0xE5 SHL DUP2 MSTORE PUSH1 0x4 ADD PUSH2 0x250 SWAP1 PUSH2 0x465A JUMP JUMPDEST DUP2 PUSH1 0x0 ADD MLOAD PUSH1 0x1 PUSH1 0x1 PUSH1 0xA0 SHL SUB AND PUSH4 0x1249C58B DUP3 PUSH1 0x40 MLOAD DUP3 PUSH4 0xFFFFFFFF AND PUSH1 0xE0 SHL DUP2 MSTORE PUSH1 0x4 ADD PUSH1 0x0 PUSH1 0x40 MLOAD DUP1 DUP4 SUB DUP2 DUP6 DUP9 DUP1 EXTCODESIZE ISZERO DUP1 ISZERO PUSH2 0x3EA5 JUMPI PUSH1 0x0 DUP1 REVERT JUMPDEST POP GAS CALL ISZERO DUP1 ISZERO PUSH2 0xBDE JUMPI RETURNDATASIZE PUSH1 0x0 DUP1 RETURNDATACOPY RETURNDATASIZE PUSH1 0x0 REVERT JUMPDEST PUSH1 0x0 DUP1 PUSH2 0x218 PUSH1 0xF PUSH2 0x2B48 JUMP JUMPDEST PUSH1 0x0 DUP1 PUSH2 0x218 PUSH1 0x9 PUSH2 0x2B48 JUMP JUMPDEST PUSH1 0x0 PUSH2 0x3EDD PUSH2 0x405E JUMP JUMPDEST PUSH1 0x1 PUSH1 0x1 PUSH1 0xA0 SHL SUB DUP9 AND PUSH1 0x0 SWAP1 DUP2 MSTORE PUSH1 0x20 DUP3 DUP2 MSTORE PUSH1 0x40 DUP1 DUP4 KECCAK256 DUP11 DUP5 MSTORE SWAP1 SWAP2 MSTORE SWAP1 KECCAK256 SWAP1 SWAP2 POP PUSH11 0x7FFFFFFFFFFFFFFFFFFFFF NOT DUP7 SLT DUP1 ISZERO SWAP1 PUSH2 0x3F28 JUMPI POP PUSH11 0x7FFFFFFFFFFFFFFFFFFFFF DUP7 SGT ISZERO JUMPDEST PUSH2 0x3F31 JUMPI PUSH1 0x0 DUP1 REVERT JUMPDEST PUSH1 0x0 DUP6 SLT ISZERO DUP1 ISZERO PUSH2 0x3F49 JUMPI POP PUSH1 0x1 PUSH1 0x1 PUSH1 0x50 SHL SUB DUP6 SGT ISZERO JUMPDEST PUSH2 0x3F52 JUMPI PUSH1 0x0 DUP1 REVERT JUMPDEST DUP4 PUSH2 0x3F92 JUMPI PUSH7 0xFFFFFFFFFFFFFF DUP4 GT ISZERO PUSH2 0x3F6B JUMPI PUSH1 0x0 DUP1 REVERT JUMPDEST DUP1 SLOAD PUSH7 0xFFFFFFFFFFFFFF PUSH1 0x70 SHL NOT AND PUSH1 0x1 PUSH1 0x70 SHL PUSH7 0xFFFFFFFFFFFFFF DUP6 AND MUL OR DUP2 SSTORE PUSH2 0x3FAC JUMP JUMPDEST DUP1 SLOAD PUSH1 0x1 PUSH1 0x50 SHL SWAP1 DIV PUSH4 0xFFFFFFFF AND DUP5 EQ PUSH2 0x3FAC JUMPI PUSH1 0x0 DUP1 REVERT JUMPDEST DUP1 SLOAD PUSH1 0xA SWAP7 SWAP1 SWAP7 SIGNEXTEND PUSH11 0xFFFFFFFFFFFFFFFFFFFFFF AND PUSH1 0x1 PUSH1 0xA8 SHL MUL PUSH1 0x1 PUSH1 0x1 PUSH1 0xA8 SHL SUB PUSH1 0x1 PUSH1 0x1 PUSH1 0x50 SHL SUB SWAP1 SWAP7 AND PUSH1 0x1 PUSH1 0x1 PUSH1 0x50 SHL SUB NOT PUSH4 0xFFFFFFFF SWAP1 SWAP7 AND PUSH1 0x1 PUSH1 0x50 SHL MUL PUSH4 0xFFFFFFFF PUSH1 0x50 SHL NOT SWAP1 SWAP9 AND SWAP8 SWAP1 SWAP8 OR SWAP5 SWAP1 SWAP5 AND SWAP6 SWAP1 SWAP6 OR SWAP4 SWAP1 SWAP4 AND SWAP2 SWAP1 SWAP2 OR SWAP1 SWAP3 SSTORE POP POP POP POP JUMP JUMPDEST PUSH1 0x0 DUP1 PUSH2 0x4025 PUSH2 0x4079 JUMP JUMPDEST PUSH1 0x0 SWAP4 DUP5 MSTORE PUSH1 0x20 MSTORE POP POP PUSH1 0x40 SWAP1 KECCAK256 SLOAD PUSH1 0x1 PUSH1 0x1 PUSH1 0xA0 SHL SUB AND SWAP1 JUMP JUMPDEST PUSH1 0x0 DUP2 SLT ISZERO PUSH2 0x404E JUMPI PUSH1 0x0 DUP1 REVERT JUMPDEST PUSH2 0xA32 DUP4 DUP4 DUP4 PUSH1 0x0 DUP1 PUSH1 0x0 PUSH2 0x3ED3 JUMP JUMPDEST PUSH1 0x0 DUP1 PUSH2 0x218 PUSH1 0x6 PUSH2 0x2B48 JUMP JUMPDEST PUSH1 0x8 DUP2 SWAP1 SHR PUSH1 0xFF SWAP1 SWAP2 AND SHL SWAP1 JUMP JUMPDEST PUSH1 0x0 DUP1 PUSH2 0x218 PUSH1 0x3 PUSH2 0x2B48 JUMP JUMPDEST PUSH1 0x40 MLOAD DUP1 PUSH1 0xA0 ADD PUSH1 0x40 MSTORE DUP1 PUSH1 0x0 DUP2 MSTORE PUSH1 0x20 ADD PUSH1 0x0 DUP2 MSTORE PUSH1 0x20 ADD PUSH1 0x0 DUP2 MSTORE PUSH1 0x20 ADD PUSH1 0x0 PUSH1 0x1 PUSH1 0x1 PUSH1 0xA0 SHL SUB AND DUP2 MSTORE PUSH1 0x20 ADD PUSH1 0x0 DUP2 MSTORE POP SWAP1 JUMP JUMPDEST PUSH1 0x40 MLOAD DUP1 PUSH2 0x180 ADD PUSH1 0x40 MSTORE DUP1 PUSH1 0x0 PUSH1 0x1 PUSH1 0x1 PUSH1 0xA0 SHL SUB AND DUP2 MSTORE PUSH1 0x20 ADD PUSH1 0x0 PUSH2 0xFFFF AND DUP2 MSTORE PUSH1 0x20 ADD PUSH1 0x0 PUSH2 0xFFFF AND DUP2 MSTORE PUSH1 0x20 ADD PUSH1 0x0 DUP2 MSTORE PUSH1 0x20 ADD PUSH1 0x0 DUP2 MSTORE PUSH1 0x20 ADD PUSH1 0x0 DUP2 MSTORE PUSH1 0x20 ADD PUSH1 0x0 DUP2 MSTORE PUSH1 0x20 ADD PUSH1 0x0 DUP2 MSTORE PUSH1 0x20 ADD PUSH1 0x0 DUP2 MSTORE PUSH1 0x20 ADD PUSH1 0x0 DUP2 MSTORE PUSH1 0x20 ADD PUSH2 0x4129 PUSH2 0x41F1 JUMP JUMPDEST DUP2 MSTORE PUSH1 0x20 ADD PUSH2 0x4136 PUSH2 0x41A9 JUMP JUMPDEST SWAP1 MSTORE SWAP1 JUMP JUMPDEST PUSH1 0x40 MLOAD DUP1 PUSH1 0xE0 ADD PUSH1 0x40 MSTORE DUP1 PUSH1 0x0 DUP2 MSTORE PUSH1 0x20 ADD PUSH1 0x0 DUP2 MSTORE PUSH1 0x20 ADD PUSH1 0x0 ISZERO ISZERO DUP2 MSTORE PUSH1 0x20 ADD PUSH1 0x0 DUP2 MSTORE PUSH1 0x20 ADD PUSH1 0x0 DUP2 MSTORE PUSH1 0x20 ADD PUSH1 0x0 DUP2 MSTORE PUSH1 0x20 ADD PUSH1 0x0 DUP2 MSTORE POP SWAP1 JUMP JUMPDEST PUSH1 0x40 DUP1 MLOAD PUSH1 0xA0 DUP2 ADD DUP3 MSTORE PUSH1 0x0 DUP1 DUP3 MSTORE PUSH1 0x20 DUP3 ADD DUP2 SWAP1 MSTORE SWAP2 DUP2 ADD DUP3 SWAP1 MSTORE SWAP1 PUSH1 0x60 DUP3 ADD SWAP1 DUP2 MSTORE PUSH1 0x20 ADD PUSH1 0x0 DUP2 MSTORE POP SWAP1 JUMP JUMPDEST PUSH1 0x40 MLOAD DUP1 PUSH1 0x60 ADD PUSH1 0x40 MSTORE DUP1 PUSH1 0x0 PUSH1 0x1 PUSH1 0x1 PUSH1 0xA0 SHL SUB AND DUP2 MSTORE PUSH1 0x20 ADD PUSH1 0x0 DUP2 MSTORE PUSH1 0x20 ADD PUSH1 0x0 DUP2 MSTORE POP SWAP1 JUMP JUMPDEST PUSH1 0x40 MLOAD DUP1 PUSH1 0x20 ADD PUSH1 0x40 MSTORE DUP1 PUSH1 0x1 SWAP1 PUSH1 0x20 DUP3 MUL DUP1 CALLDATASIZE DUP4 CALLDATACOPY POP SWAP2 SWAP3 SWAP2 POP POP JUMP JUMPDEST PUSH1 0x40 MLOAD DUP1 PUSH1 0x60 ADD PUSH1 0x40 MSTORE DUP1 PUSH1 0x3 SWAP1 PUSH1 0x20 DUP3 MUL DUP1 CALLDATASIZE DUP4 CALLDATACOPY POP SWAP2 SWAP3 SWAP2 POP POP JUMP JUMPDEST DUP1 CALLDATALOAD PUSH1 0x1 PUSH1 0x1 PUSH1 0xA0 SHL SUB DUP2 AND DUP2 EQ PUSH2 0xB54 JUMPI PUSH1 0x0 DUP1 REVERT JUMPDEST PUSH1 0x0 DUP1 DUP4 PUSH1 0x1F DUP5 ADD SLT PUSH2 0x4237 JUMPI DUP2 DUP3 REVERT JUMPDEST POP DUP2 CALLDATALOAD PUSH8 0xFFFFFFFFFFFFFFFF DUP2 GT ISZERO PUSH2 0x424E JUMPI DUP2 DUP3 REVERT JUMPDEST PUSH1 0x20 DUP4 ADD SWAP2 POP DUP4 PUSH1 0x20 DUP3 DUP6 ADD ADD GT ISZERO PUSH2 0x4266 JUMPI PUSH1 0x0 DUP1 REVERT JUMPDEST SWAP3 POP SWAP3 SWAP1 POP JUMP JUMPDEST DUP1 CALLDATALOAD PUSH4 0xFFFFFFFF DUP2 AND DUP2 EQ PUSH2 0xB54 JUMPI PUSH1 0x0 DUP1 REVERT JUMPDEST PUSH1 0x0 DUP1 PUSH1 0x40 DUP4 DUP6 SUB SLT ISZERO PUSH2 0x4293 JUMPI DUP2 DUP3 REVERT JUMPDEST PUSH2 0x429C DUP4 PUSH2 0x420F JUMP JUMPDEST SWAP2 POP PUSH2 0x2C67 PUSH1 0x20 DUP5 ADD PUSH2 0x420F JUMP JUMPDEST PUSH1 0x0 DUP1 PUSH1 0x0 DUP1 PUSH1 0x0 DUP1 PUSH1 0x0 PUSH1 0xC0 DUP9 DUP11 SUB SLT ISZERO PUSH2 0x42C4 JUMPI DUP3 DUP4 REVERT JUMPDEST PUSH2 0x42CD DUP9 PUSH2 0x420F JUMP JUMPDEST SWAP7 POP PUSH2 0x42DB PUSH1 0x20 DUP10 ADD PUSH2 0x420F JUMP JUMPDEST SWAP6 POP PUSH2 0x42E9 PUSH1 0x40 DUP10 ADD PUSH2 0x420F JUMP JUMPDEST SWAP5 POP PUSH1 0x60 DUP9 ADD CALLDATALOAD SWAP4 POP PUSH1 0x80 DUP9 ADD CALLDATALOAD DUP1 ISZERO ISZERO DUP2 EQ PUSH2 0x4304 JUMPI DUP4 DUP5 REVERT JUMPDEST SWAP3 POP PUSH1 0xA0 DUP9 ADD CALLDATALOAD PUSH8 0xFFFFFFFFFFFFFFFF DUP2 GT ISZERO PUSH2 0x431F JUMPI DUP3 DUP4 REVERT JUMPDEST PUSH2 0x432B DUP11 DUP3 DUP12 ADD PUSH2 0x4226 JUMP JUMPDEST SWAP9 SWAP12 SWAP8 SWAP11 POP SWAP6 SWAP9 POP SWAP4 SWAP7 SWAP3 SWAP6 SWAP3 SWAP4 POP POP POP JUMP JUMPDEST PUSH1 0x0 DUP1 PUSH1 0x0 DUP1 PUSH1 0x0 DUP1 PUSH1 0x0 DUP1 PUSH1 0xE0 DUP10 DUP12 SUB SLT ISZERO PUSH2 0x4359 JUMPI DUP1 DUP2 REVERT JUMPDEST PUSH2 0x4362 DUP10 PUSH2 0x420F JUMP JUMPDEST SWAP8 POP PUSH2 0x4370 PUSH1 0x20 DUP11 ADD PUSH2 0x420F JUMP JUMPDEST SWAP7 POP PUSH2 0x437E PUSH1 0x40 DUP11 ADD PUSH2 0x420F JUMP JUMPDEST SWAP6 POP PUSH1 0x60 DUP10 ADD CALLDATALOAD SWAP5 POP PUSH1 0x80 DUP10 ADD CALLDATALOAD SWAP4 POP PUSH2 0x439A PUSH1 0xA0 DUP11 ADD PUSH2 0x426D JUMP JUMPDEST SWAP3 POP PUSH1 0xC0 DUP10 ADD CALLDATALOAD PUSH8 0xFFFFFFFFFFFFFFFF DUP2 GT ISZERO PUSH2 0x43B5 JUMPI DUP2 DUP3 REVERT JUMPDEST PUSH2 0x43C1 DUP12 DUP3 DUP13 ADD PUSH2 0x4226 JUMP JUMPDEST SWAP10 SWAP13 SWAP9 SWAP12 POP SWAP7 SWAP10 POP SWAP5 SWAP8 SWAP4 SWAP7 SWAP3 SWAP6 SWAP5 POP POP POP JUMP JUMPDEST PUSH1 0x0 DUP1 PUSH1 0x0 DUP1 PUSH1 0x0 DUP1 PUSH1 0x0 DUP1 PUSH1 0xE0 DUP10 DUP12 SUB SLT ISZERO PUSH2 0x43F0 JUMPI DUP4 DUP5 REVERT JUMPDEST PUSH2 0x43F9 DUP10 PUSH2 0x420F JUMP JUMPDEST SWAP8 POP PUSH2 0x4407 PUSH1 0x20 DUP11 ADD PUSH2 0x420F JUMP JUMPDEST SWAP7 POP PUSH1 0x40 DUP10 ADD CALLDATALOAD SWAP6 POP PUSH1 0x60 DUP10 ADD CALLDATALOAD SWAP5 POP PUSH1 0x80 DUP10 ADD CALLDATALOAD SWAP4 POP PUSH2 0x442A PUSH1 0xA0 DUP11 ADD PUSH2 0x426D JUMP JUMPDEST SWAP3 POP PUSH1 0xC0 DUP10 ADD CALLDATALOAD PUSH8 0xFFFFFFFFFFFFFFFF DUP2 GT ISZERO PUSH2 0x43B5 JUMPI DUP3 DUP4 REVERT JUMPDEST PUSH1 0x0 DUP1 PUSH1 0x0 DUP1 PUSH1 0x0 DUP1 PUSH1 0x0 DUP1 PUSH1 0xE0 DUP10 DUP12 SUB SLT ISZERO PUSH2 0x4460 JUMPI DUP4 DUP5 REVERT JUMPDEST PUSH2 0x4469 DUP10 PUSH2 0x420F JUMP JUMPDEST SWAP8 POP PUSH2 0x4477 PUSH1 0x20 DUP11 ADD PUSH2 0x420F JUMP JUMPDEST SWAP7 POP PUSH1 0x40 DUP10 ADD CALLDATALOAD SWAP6 POP PUSH1 0x60 DUP10 ADD CALLDATALOAD SWAP5 POP PUSH2 0x4493 PUSH1 0x80 DUP11 ADD PUSH2 0x426D JUMP JUMPDEST SWAP4 POP PUSH2 0x442A PUSH1 0xA0 DUP11 ADD PUSH2 0x426D JUMP JUMPDEST PUSH1 0x0 PUSH1 0x20 DUP3 DUP5 SUB SLT ISZERO PUSH2 0x44B2 JUMPI DUP1 DUP2 REVERT JUMPDEST POP MLOAD SWAP2 SWAP1 POP JUMP JUMPDEST PUSH1 0x0 DUP3 DUP5 MSTORE DUP3 DUP3 PUSH1 0x20 DUP7 ADD CALLDATACOPY DUP1 PUSH1 0x20 DUP5 DUP7 ADD ADD MSTORE PUSH1 0x20 PUSH1 0x1F NOT PUSH1 0x1F DUP6 ADD AND DUP6 ADD ADD SWAP1 POP SWAP4 SWAP3 POP POP POP JUMP JUMPDEST PUSH1 0x1 PUSH1 0x1 PUSH1 0xA0 SHL SUB SWAP2 SWAP1 SWAP2 AND DUP2 MSTORE PUSH1 0x20 ADD SWAP1 JUMP JUMPDEST PUSH1 0x0 PUSH1 0x1 DUP1 PUSH1 0xA0 SHL SUB DUP1 DUP11 AND DUP4 MSTORE DUP1 DUP10 AND PUSH1 0x20 DUP5 ADD MSTORE POP DUP7 PUSH1 0x40 DUP4 ADD MSTORE DUP6 PUSH1 0x60 DUP4 ADD MSTORE DUP5 PUSH1 0x80 DUP4 ADD MSTORE PUSH1 0xC0 PUSH1 0xA0 DUP4 ADD MSTORE PUSH2 0x2ED6 PUSH1 0xC0 DUP4 ADD DUP5 DUP7 PUSH2 0x44B9 JUMP JUMPDEST PUSH1 0x1 PUSH1 0x1 PUSH1 0xA0 SHL SUB SWAP4 DUP5 AND DUP2 MSTORE PUSH1 0x20 DUP2 ADD SWAP3 SWAP1 SWAP3 MSTORE SWAP1 SWAP2 AND PUSH1 0x40 DUP3 ADD MSTORE PUSH1 0x60 ADD SWAP1 JUMP JUMPDEST PUSH1 0x1 PUSH1 0x1 PUSH1 0xA0 SHL SUB SWAP5 DUP6 AND DUP2 MSTORE PUSH1 0x20 DUP2 ADD SWAP4 SWAP1 SWAP4 MSTORE SWAP3 AND PUSH1 0x40 DUP3 ADD MSTORE PUSH2 0xFFFF SWAP1 SWAP2 AND PUSH1 0x60 DUP3 ADD MSTORE PUSH1 0x80 ADD SWAP1 JUMP JUMPDEST PUSH1 0x1 PUSH1 0x1 PUSH1 0xA0 SHL SUB SWAP4 SWAP1 SWAP4 AND DUP4 MSTORE PUSH1 0x20 DUP4 ADD SWAP2 SWAP1 SWAP2 MSTORE PUSH1 0x40 DUP3 ADD MSTORE PUSH1 0x60 ADD SWAP1 JUMP JUMPDEST PUSH1 0x0 PUSH1 0x1 DUP1 PUSH1 0xA0 SHL SUB DUP8 AND DUP3 MSTORE DUP6 PUSH1 0x20 DUP4 ADD MSTORE DUP5 PUSH1 0x40 DUP4 ADD MSTORE PUSH1 0x80 PUSH1 0x60 DUP4 ADD MSTORE PUSH2 0x2AA5 PUSH1 0x80 DUP4 ADD DUP5 DUP7 PUSH2 0x44B9 JUMP JUMPDEST SWAP1 ISZERO ISZERO DUP2 MSTORE PUSH1 0x20 ADD SWAP1 JUMP JUMPDEST SWAP1 DUP2 MSTORE PUSH1 0x20 ADD SWAP1 JUMP JUMPDEST SWAP4 DUP5 MSTORE PUSH1 0x20 DUP5 ADD SWAP3 SWAP1 SWAP3 MSTORE PUSH1 0x40 DUP4 ADD MSTORE ISZERO ISZERO PUSH1 0x60 DUP3 ADD MSTORE PUSH1 0x80 ADD SWAP1 JUMP JUMPDEST PUSH1 0x20 DUP1 DUP3 MSTORE PUSH1 0xC SWAP1 DUP3 ADD MSTORE PUSH12 0x155B985D5D1A1BDC9A5E9959 PUSH1 0xA2 SHL PUSH1 0x40 DUP3 ADD MSTORE PUSH1 0x60 ADD SWAP1 JUMP JUMPDEST PUSH1 0x20 DUP1 DUP3 MSTORE PUSH1 0x15 SWAP1 DUP3 ADD MSTORE PUSH21 0xACC2EAD8E840A6D0C2E4CAE6409AD2E6DAC2E8C6D PUSH1 0x5B SHL PUSH1 0x40 DUP3 ADD MSTORE PUSH1 0x60 ADD SWAP1 JUMP JUMPDEST PUSH1 0x20 DUP1 DUP3 MSTORE PUSH1 0x4 SWAP1 DUP3 ADD MSTORE PUSH4 0x135A5B9D PUSH1 0xE2 SHL PUSH1 0x40 DUP3 ADD MSTORE PUSH1 0x60 ADD SWAP1 JUMP JUMPDEST PUSH1 0x20 DUP1 DUP3 MSTORE PUSH1 0x6 SWAP1 DUP3 ADD MSTORE PUSH6 0x52656465656D PUSH1 0xD0 SHL PUSH1 0x40 DUP3 ADD MSTORE PUSH1 0x60 ADD SWAP1 JUMP JUMPDEST PUSH1 0x20 DUP1 DUP3 MSTORE PUSH1 0x16 SWAP1 DUP3 ADD MSTORE PUSH22 0x125B9CDD59999A58DA595B9D081C995C185E5B595B9D PUSH1 0x52 SHL PUSH1 0x40 DUP3 ADD MSTORE PUSH1 0x60 ADD SWAP1 JUMP JUMPDEST PUSH1 0x20 DUP1 DUP3 MSTORE PUSH1 0x15 SWAP1 DUP3 ADD MSTORE PUSH21 0x10D1CE881B9BC81B585C9AD95D1CC81B1A5CDD1959 PUSH1 0x5A SHL PUSH1 0x40 DUP3 ADD MSTORE PUSH1 0x60 ADD SWAP1 JUMP JUMPDEST PUSH1 0x20 DUP1 DUP3 MSTORE PUSH1 0xD SWAP1 DUP3 ADD MSTORE PUSH13 0x92DCECC2D8D2C840D2DCC8CAF PUSH1 0x9B SHL PUSH1 0x40 DUP3 ADD MSTORE PUSH1 0x60 ADD SWAP1 JUMP JUMPDEST PUSH1 0x20 DUP1 DUP3 MSTORE PUSH1 0xC SWAP1 DUP3 ADD MSTORE PUSH12 0x4D6178204361706163697479 PUSH1 0xA0 SHL PUSH1 0x40 DUP3 ADD MSTORE PUSH1 0x60 ADD SWAP1 JUMP JUMPDEST PUSH1 0x20 DUP1 DUP3 MSTORE PUSH1 0xB SWAP1 DUP3 ADD MSTORE PUSH11 0x139BDD0814D95D1D1B1959 PUSH1 0xAA SHL PUSH1 0x40 DUP3 ADD MSTORE PUSH1 0x60 ADD SWAP1 JUMP JUMPDEST PUSH1 0x20 DUP1 DUP3 MSTORE PUSH1 0x16 SWAP1 DUP3 ADD MSTORE PUSH22 0x10D1CE881B585C9AD95D081A5B99195E08189BDD5B99 PUSH1 0x52 SHL PUSH1 0x40 DUP3 ADD MSTORE PUSH1 0x60 ADD SWAP1 JUMP JUMPDEST PUSH1 0x20 DUP1 DUP3 MSTORE PUSH1 0xF SWAP1 DUP3 ADD MSTORE PUSH15 0x139BC8149BDB1B08105B1B1BDDD959 PUSH1 0x8A SHL PUSH1 0x40 DUP3 ADD MSTORE PUSH1 0x60 ADD SWAP1 JUMP JUMPDEST PUSH1 0x20 DUP1 DUP3 MSTORE PUSH1 0x17 SWAP1 DUP3 ADD MSTORE PUSH32 0x496E73756666696369656E7420436F6C6C61746572616C000000000000000000 PUSH1 0x40 DUP3 ADD MSTORE PUSH1 0x60 ADD SWAP1 JUMP JUMPDEST PUSH1 0x20 DUP1 DUP3 MSTORE PUSH1 0x17 SWAP1 DUP3 ADD MSTORE PUSH32 0x4D757374204C697175696461746520416C6C2044656274000000000000000000 PUSH1 0x40 DUP3 ADD MSTORE PUSH1 0x60 ADD SWAP1 JUMP JUMPDEST PUSH1 0x20 DUP1 DUP3 MSTORE PUSH1 0xE SWAP1 DUP3 ADD MSTORE PUSH14 0x1499595B9D1C985B9D0818D85B1B PUSH1 0x92 SHL PUSH1 0x40 DUP3 ADD MSTORE PUSH1 0x60 ADD SWAP1 JUMP JUMPDEST PUSH1 0x20 DUP1 DUP3 MSTORE PUSH1 0xD SWAP1 DUP3 ADD MSTORE PUSH13 0x109BDC9C9BDDC819985A5B1959 PUSH1 0x9A SHL PUSH1 0x40 DUP3 ADD MSTORE PUSH1 0x60 ADD SWAP1 JUMP JUMPDEST PUSH1 0x20 DUP1 DUP3 MSTORE PUSH1 0xA SWAP1 DUP3 ADD MSTORE PUSH10 0x4D696E20426F72726F77 PUSH1 0xB0 SHL PUSH1 0x40 DUP3 ADD MSTORE PUSH1 0x60 ADD SWAP1 JUMP JUMPDEST PUSH1 0x20 DUP1 DUP3 MSTORE PUSH1 0xB SWAP1 DUP3 ADD MSTORE PUSH11 0x92DCECC2D8D2C8408AA89 PUSH1 0xAB SHL PUSH1 0x40 DUP3 ADD MSTORE PUSH1 0x60 ADD SWAP1 JUMP JUMPDEST PUSH1 0x20 DUP1 DUP3 MSTORE PUSH1 0x13 SWAP1 DUP3 ADD MSTORE PUSH19 0x10D1CE881B9BC81B585C9AD95D08199BDD5B99 PUSH1 0x6A SHL PUSH1 0x40 DUP3 ADD MSTORE PUSH1 0x60 ADD SWAP1 JUMP JUMPDEST PUSH1 0x20 DUP1 DUP3 MSTORE PUSH1 0xC SWAP1 DUP3 ADD MSTORE PUSH12 0x21B0B73737BA1022B73A32B9 PUSH1 0xA1 SHL PUSH1 0x40 DUP3 ADD MSTORE PUSH1 0x60 ADD SWAP1 JUMP JUMPDEST PUSH1 0x20 DUP1 DUP3 MSTORE PUSH1 0xB SWAP1 DUP3 ADD MSTORE PUSH11 0x11985A5B19590813195B99 PUSH1 0xAA SHL PUSH1 0x40 DUP3 ADD MSTORE PUSH1 0x60 ADD SWAP1 JUMP JUMPDEST PUSH1 0x20 DUP1 DUP3 MSTORE PUSH1 0x15 SWAP1 DUP3 ADD MSTORE PUSH21 0x14DD59999A58DA595B9D0810DBDB1B185D195C985B PUSH1 0x5A SHL PUSH1 0x40 DUP3 ADD MSTORE PUSH1 0x60 ADD SWAP1 JUMP JUMPDEST DUP2 MLOAD DUP2 MSTORE PUSH1 0x20 DUP1 DUP4 ADD MLOAD SWAP1 DUP3 ADD MSTORE PUSH1 0x40 DUP1 DUP4 ADD MLOAD SWAP1 DUP3 ADD MSTORE PUSH1 0x60 DUP1 DUP4 ADD MLOAD PUSH1 0x1 PUSH1 0x1 PUSH1 0xA0 SHL SUB AND SWAP1 DUP3 ADD MSTORE PUSH1 0x80 SWAP2 DUP3 ADD MLOAD SWAP2 DUP2 ADD SWAP2 SWAP1 SWAP2 MSTORE PUSH1 0xA0 ADD SWAP1 JUMP JUMPDEST PUSH1 0x1 PUSH1 0x1 PUSH1 0x80 SHL SUB SWAP2 SWAP1 SWAP2 AND DUP2 MSTORE PUSH1 0x20 ADD SWAP1 JUMP JUMPDEST PUSH2 0xFFFF SWAP3 SWAP1 SWAP3 AND DUP3 MSTORE PUSH1 0x20 DUP3 ADD MSTORE PUSH1 0x40 ADD SWAP1 JUMP INVALID LOG2 PUSH5 0x6970667358 0x22 SLT KECCAK256 0xE9 PUSH12 0x650D47FA083FAD4C946A80CD SWAP6 0x1E SGT GASLIMIT SAR 0xA6 MOD 0x2B PUSH18 0x425A6BADDFE0A45B464736F6C6343000706 STOP CALLER ",
  "sha1": "7fef3c350d8c7fc743b95c6b1ef0b073dd312da4",
  "source": "// SPDX-License-Identifier: GPL-3.0-only\npragma solidity =0.7.6;\npragma abicoder v2;\n\nimport {ActionGuards} from \"./ActionGuards.sol\";\nimport {IVaultAccountAction} from \"../../../../interfaces/notional/IVaultController.sol\";\nimport \"../../internal/vaults/VaultConfiguration.sol\";\nimport \"../../internal/vaults/VaultAccount.sol\";\nimport {VaultStateLib, VaultState} from \"../../internal/vaults/VaultState.sol\";\nimport {TokenHandler, Token, AaveHandler} from \"../../internal/balances/TokenHandler.sol\";\n\ncontract VaultAccountAction is ActionGuards, IVaultAccountAction {\n    using VaultConfiguration for VaultConfig;\n    using VaultAccountLib for VaultAccount;\n    using VaultStateLib for VaultState;\n    using AssetRate for AssetRateParameters;\n    using TokenHandler for Token;\n    using SafeInt256 for int256;\n    using SafeUint256 for uint256;\n\n    /// @notice Borrows a specified amount of fCash in the vault's borrow currency and deposits it\n    /// all plus the depositAmountExternal into the vault to mint strategy tokens.\n    /// @param account the address that will enter the vault\n    /// @param vault the vault to enter\n    /// @param depositAmountExternal some amount of additional collateral in the borrowed currency\n    /// to be transferred to vault\n    /// @param maturity the maturity to borrow at\n    /// @param fCash amount to borrow\n    /// @param maxBorrowRate maximum interest rate to borrow at\n    /// @param vaultData additional data to pass to the vault contract\n    function enterVault(\n        address account,\n        address vault,\n        uint256 depositAmountExternal,\n        uint256 maturity,\n        uint256 fCash,\n        uint32 maxBorrowRate,\n        bytes calldata vaultData\n    ) external payable override nonReentrant { \n        // Ensure that system level accounts cannot enter vaults\n        requireValidAccount(account);\n        VaultConfig memory vaultConfig = VaultConfiguration.getVaultConfigStateful(vault);\n        vaultConfig.authorizeCaller(account, VaultConfiguration.ONLY_VAULT_ENTRY);\n\n        // If the vault allows further re-entrancy then set the status back to the default\n        if (vaultConfig.getFlag(VaultConfiguration.ALLOW_REENTRANCY)) {\n            reentrancyStatus = _NOT_ENTERED;\n        }\n\n        // Vaults cannot be entered if they are paused or matured\n        require(vaultConfig.getFlag(VaultConfiguration.ENABLED), \"Cannot Enter\");\n        require(block.timestamp < maturity, \"Cannot Enter\");\n        VaultAccount memory vaultAccount = VaultAccountLib.getVaultAccount(account, vaultConfig);\n\n        uint256 strategyTokens;\n        if (vaultAccount.maturity != 0 && vaultAccount.maturity <= block.timestamp) {\n            // These strategy tokens will be transferred to the new maturity\n            strategyTokens = vaultAccount.settleVaultAccount(vaultConfig, block.timestamp);\n        }\n\n        // Deposits some amount of underlying tokens into the vault directly to serve as additional collateral when\n        // entering the vault.\n        uint256 additionalUnderlyingExternal = vaultConfig.transferUnderlyingToVaultDirect(account, depositAmountExternal);\n        vaultAccount.borrowAndEnterVault(\n            vaultConfig, maturity, fCash, maxBorrowRate, vaultData, strategyTokens, additionalUnderlyingExternal\n        );\n    }\n\n    /// @notice Re-enters the vault at a longer dated maturity. The account's existing borrow position will be closed\n    /// and a new borrow position at the specified maturity will be opened. Strategy token holdings will transfer to\n    /// the longer dated maturity.\n    /// @param account the address that will reenter the vault\n    /// @param vault the vault to reenter\n    /// @param fCashToBorrow amount of fCash to borrow in the next maturity\n    /// @param maturity new maturity to borrow at\n    function rollVaultPosition(\n        address account,\n        address vault,\n        uint256 fCashToBorrow,\n        uint256 maturity,\n        uint32 minLendRate,\n        uint32 maxBorrowRate,\n        bytes calldata enterVaultData\n    ) external override nonReentrant {\n        VaultConfig memory vaultConfig = VaultConfiguration.getVaultConfigStateful(vault);\n        vaultConfig.authorizeCaller(account, VaultConfiguration.ONLY_VAULT_ROLL);\n\n        // If the vault allows further re-entrancy then set the status back to the default\n        if (vaultConfig.getFlag(VaultConfiguration.ALLOW_REENTRANCY)) {\n            reentrancyStatus = _NOT_ENTERED;\n        }\n\n        VaultAccount memory vaultAccount = VaultAccountLib.getVaultAccount(account, vaultConfig);\n        // Cannot roll unless all of these requirements are met\n        require(\n            vaultConfig.getFlag(VaultConfiguration.ENABLED) &&\n            vaultConfig.getFlag(VaultConfiguration.ALLOW_ROLL_POSITION) &&\n            block.timestamp < vaultAccount.maturity && // cannot have matured yet\n            vaultAccount.maturity < maturity && // new maturity must be forward in time\n            fCashToBorrow > 0, // must borrow into the next maturity, if not, then they should just exit\n            \"No Roll Allowed\"\n        );\n\n        VaultState memory vaultState = VaultStateLib.getVaultState(vaultConfig.vault, vaultAccount.maturity);\n        // Exit the maturity pool by removing all the vault shares. All of the strategy tokens will be\n        // re-deposited into the new maturity\n        uint256 strategyTokens = vaultState.exitMaturity(vaultAccount, vaultAccount.vaultShares);\n\n        // Exit the vault first and debit the temporary cash balance with the cost to exit\n        vaultAccount.lendToExitVault(\n            vaultConfig,\n            vaultState,\n            vaultAccount.fCash.neg(), // must fully exit the fCash position\n            minLendRate,\n            block.timestamp\n        );\n\n        // This should never be the case for a healthy vault account due to the mechanics of exiting the vault\n        // above but we check it for safety here.\n        require(vaultAccount.fCash == 0, \"Failed Lend\");\n        vaultState.setVaultState(vaultConfig.vault);\n\n        // Enters the vault at the longer dated maturity\n        vaultAccount.borrowAndEnterVault(\n            vaultConfig,\n            maturity, // This is the new maturity to enter\n            fCashToBorrow,\n            maxBorrowRate,\n            enterVaultData,\n            strategyTokens,\n            0 // No additional tokens deposited in this method\n        );\n    }\n\n    /// @notice Prior to maturity, allows an account to withdraw their position from the vault. Will\n    /// redeem some number of vault shares to the borrow currency and close the borrow position by\n    /// lending `fCashToLend`. Any shortfall in cash from lending will be transferred from the account,\n    /// any excess profits will be transferred to the account.\n    /// Post maturity, will net off the account's debt against vault cash balances and redeem all remaining\n    /// strategy tokens back to the borrowed currency and transfer the profits to the account.\n    /// @param account the address that will exit the vault\n    /// @param vault the vault to enter\n    /// @param receiver the address that will receive profits\n    /// @param vaultSharesToRedeem amount of vault tokens to exit, only relevant when exiting pre-maturity\n    /// @param fCashToLend amount of fCash to lend\n    /// @param minLendRate the minimum rate to lend at\n    /// @param exitVaultData passed to the vault during exit\n    function exitVault(\n        address account,\n        address vault,\n        address receiver,\n        uint256 vaultSharesToRedeem,\n        uint256 fCashToLend,\n        uint32 minLendRate,\n        bytes calldata exitVaultData\n    ) external payable override nonReentrant { \n        VaultConfig memory vaultConfig = VaultConfiguration.getVaultConfigStateful(vault);\n        vaultConfig.authorizeCaller(account, VaultConfiguration.ONLY_VAULT_EXIT);\n\n        // If the vault allows further re-entrancy then set the status back to the default\n        if (vaultConfig.getFlag(VaultConfiguration.ALLOW_REENTRANCY)) {\n            reentrancyStatus = _NOT_ENTERED;\n        }\n\n        VaultAccount memory vaultAccount = VaultAccountLib.getVaultAccount(account, vaultConfig);\n\n        if (vaultAccount.maturity <= block.timestamp) {\n            // Save this off because settleVaultAccount will clear the maturity\n            uint256 maturity = vaultAccount.maturity;\n            // Past maturity, an account will be settled instead\n            uint256 strategyTokens = vaultAccount.settleVaultAccount(vaultConfig, block.timestamp);\n\n            if (vaultAccount.tempCashBalance > 0) {\n                // Transfer asset cash back to the account\n                VaultConfiguration.transferFromNotional(\n                    receiver, vaultConfig.borrowCurrencyId, vaultAccount.tempCashBalance\n                );\n                vaultAccount.tempCashBalance = 0;\n            }\n\n            // Redeems all strategy tokens and any profits are sent back to the account, it is possible for temp\n            // cash balance to be negative here if the account is insolvent\n            vaultConfig.redeemWithDebtRepayment(vaultAccount, receiver, strategyTokens, maturity, exitVaultData);\n        } else {\n            VaultState memory vaultState = VaultStateLib.getVaultState(vaultConfig.vault, vaultAccount.maturity);\n            // Puts a negative cash balance on the vault's temporary cash balance\n            vaultAccount.lendToExitVault(\n                vaultConfig, vaultState, fCashToLend.toInt(), minLendRate, block.timestamp\n            );\n\n            if (vaultSharesToRedeem > 0) {\n                // When an account exits the maturity it may get some asset cash credited to its temp\n                // cash balance and it will sell the strategy tokens it has a claim on.\n                uint256 strategyTokens = vaultState.exitMaturity(vaultAccount, vaultSharesToRedeem);\n\n                if (vaultAccount.tempCashBalance > 0) {\n                    // Transfer asset cash back to the account, this is possible if there is asset cash\n                    // when the vault exits the maturity\n                    VaultConfiguration.transferFromNotional(\n                        receiver, vaultConfig.borrowCurrencyId, vaultAccount.tempCashBalance\n                    );\n                    vaultAccount.tempCashBalance = 0;\n                }\n\n                vaultConfig.redeemWithDebtRepayment(\n                    vaultAccount, receiver, strategyTokens, vaultState.maturity, exitVaultData\n                );\n            }\n\n            if (vaultAccount.fCash < 0) {\n                // It's possible that the user redeems more vault shares than they lend (it is not always the case\n                // that they will be increasing their collateral ratio here, so we check that this is the case).\n                vaultConfig.checkCollateralRatio(vaultState, vaultAccount);\n            }\n\n            vaultState.setVaultState(vaultConfig.vault);\n        }\n\n        if (vaultAccount.fCash == 0 && vaultAccount.vaultShares == 0) {\n            // If the account has no position in the vault at this point, set the maturity to zero as well\n            vaultAccount.maturity = 0;\n        }\n        vaultAccount.setVaultAccount(vaultConfig);\n    }\n\n    /// @notice If an account is below the minimum collateral ratio, this method wil deleverage (liquidate)\n    /// that account. `depositAmountExternal` in the borrow currency will be transferred from the liquidator\n    /// and used to offset the account's debt position. The liquidator will receive either vaultShares or\n    /// cash depending.\n    /// @param account the address that will exit the vault\n    /// @param vault the vault to enter\n    /// @param liquidator the address that will receive profits from liquidation\n    /// @param depositAmountExternal amount of asset cash to deposit\n    /// @param transferSharesToLiquidator transfers the shares to the liquidator instead of redeeming them\n    /// @param redeemData calldata sent to the vault when redeeming liquidator profits\n    /// @return profitFromLiquidation amount of vaultShares or cash received from liquidation\n    function deleverageAccount(\n        address account,\n        address vault,\n        address liquidator,\n        uint256 depositAmountExternal,\n        bool transferSharesToLiquidator,\n        bytes calldata redeemData\n    ) external nonReentrant override returns (uint256 profitFromLiquidation) {\n        VaultConfig memory vaultConfig = _authenticateDeleverage(account, vault, liquidator);\n        VaultAccount memory vaultAccount = VaultAccountLib.getVaultAccount(account, vaultConfig);\n        VaultState memory vaultState = VaultStateLib.getVaultState(vault, vaultAccount.maturity);\n\n        // Check that the account has an active position. After maturity, accounts will be settled instead.\n        require(block.timestamp < vaultAccount.maturity);\n\n        // Check that the collateral ratio is below the minimum allowed\n        (int256 collateralRatio, int256 vaultShareValue) = vaultConfig.calculateCollateralRatio(\n            vaultState, account, vaultAccount.vaultShares, vaultAccount.fCash\n        );\n        require(collateralRatio < vaultConfig.minCollateralRatio , \"Sufficient Collateral\");\n\n        Token memory assetToken = TokenHandler.getAssetToken(vaultConfig.borrowCurrencyId);\n        // This will deposit some amount of cash into vaultAccount.tempCashBalance\n        _depositLiquidatorAmount(\n            liquidator, assetToken, vaultAccount, vaultConfig, depositAmountExternal, vaultShareValue\n        );\n\n        // The liquidator will purchase vault shares from the vault account at discount. The calculation is:\n        // (cashDeposited / assetCashValueOfShares) * liquidationRate * vaultShares\n        //      where cashDeposited / assetCashValueOfShares represents the share of the total vault share\n        //      value the liquidator has deposited\n        //      and liquidationRate is a percentage greater than 100% that represents their bonus\n        uint256 vaultSharesToLiquidator;\n        {\n            vaultSharesToLiquidator = vaultAccount.tempCashBalance.toUint()\n                .mul(vaultConfig.liquidationRate.toUint())\n                .mul(vaultAccount.vaultShares)\n                .div(vaultShareValue.toUint())\n                .div(uint256(Constants.RATE_PRECISION));\n        }\n\n        vaultAccount.vaultShares = vaultAccount.vaultShares.sub(vaultSharesToLiquidator);\n        // The liquidated account will lend to exit their position at a zero interest rate and forgo any future interest\n        // from asset tokens. Trading on the AMM during liquidation is risky and lending at a zero interest rate is more\n        // costly to the the liquidated account but is safer from a protocol perspective. This can be seen as a protocol\n        // level liquidation fee.\n        {\n            int256 fCashToReduce = vaultConfig.assetRate.convertToUnderlying(vaultAccount.tempCashBalance);\n            vaultAccount.updateAccountfCash(vaultConfig, vaultState, fCashToReduce, vaultAccount.tempCashBalance.neg());\n            // _calculateLiquidatorDeposit should ensure that we only ever lend up to a zero balance, but in the\n            // case of any off by one issues we clear the fCash balance by down to zero.\n            if (vaultAccount.fCash > 0) vaultAccount.fCash = 0;\n        }\n\n        // Sets the liquidated account account\n        vaultAccount.setVaultAccount(vaultConfig);\n\n        // Redeems the vault shares for asset cash and transfers it to the designated address\n        if (transferSharesToLiquidator) {\n            vaultState.setVaultState(vaultConfig.vault);\n            return _transferLiquidatorProfits(liquidator, vaultConfig, vaultSharesToLiquidator, vaultAccount.maturity);\n        } else {\n            return _redeemLiquidatorProfits(\n                liquidator, vaultConfig, vaultState, vaultSharesToLiquidator, redeemData, assetToken\n            );\n        }\n    }\n\n    /// @notice Authenticates a call to the deleverage method\n    function _authenticateDeleverage(\n        address account,\n        address vault,\n        address liquidator\n    ) private returns (VaultConfig memory vaultConfig) {\n        vaultConfig = VaultConfiguration.getVaultConfigStateful(vault);\n        // If the vault allows further re-entrancy then set the status back to the default\n        if (vaultConfig.getFlag(VaultConfiguration.ALLOW_REENTRANCY)) {\n            reentrancyStatus = _NOT_ENTERED;\n        }\n\n        // Authorization rules for deleveraging\n        if (vaultConfig.getFlag(VaultConfiguration.ONLY_VAULT_DELEVERAGE)) {\n            require(msg.sender == vault, \"Unauthorized\");\n        }\n\n        // Cannot liquidate self, if a vault needs to deleverage itself as a whole it has other methods \n        // in VaultAction to do so.\n        require(account != msg.sender && account != liquidator, \"Unauthorized\");\n    }\n\n    /// @notice Calculates the amount the liquidator must deposit and then transfers it into Notional,\n    /// crediting the account's temporary cash balance. Deposits must be in the form of asset cash.\n    function _depositLiquidatorAmount(\n        address liquidator,\n        Token memory assetToken,\n        VaultAccount memory vaultAccount,\n        VaultConfig memory vaultConfig,\n        uint256 _depositAmountExternal,\n        int256 vaultShareValue\n    ) private {\n        int256 depositAmountExternal = _depositAmountExternal.toInt();\n        if (assetToken.tokenType == TokenType.aToken) {\n            // Handles special accounting requirements for aTokens\n            depositAmountExternal = AaveHandler.convertToScaledBalanceExternal(\n                vaultConfig.borrowCurrencyId, depositAmountExternal\n            );\n        }\n\n        // Calculates the maximum deleverage amount\n        (int256 maxLiquidatorDepositAssetCash, bool mustLiquidateFull) = vaultAccount.calculateDeleverageAmount(\n            vaultConfig, vaultShareValue\n        );\n        // For aTokens this amount is in scaled balance external precision (the same as depositAmountExternal)\n        int256 maxLiquidatorDepositExternal = assetToken.convertToExternal(maxLiquidatorDepositAssetCash);\n\n        // NOTE: deposit amount external is always positive in this method\n        if (depositAmountExternal < maxLiquidatorDepositExternal) {\n            // If this flag is set, the liquidator must deposit more cash in order to liquidate the account\n            // down to a zero fCash balance because it will fall under the minimum borrowing limit.\n            require(!mustLiquidateFull, \"Must Liquidate All Debt\");\n        } else {\n            // In the other case, limit the deposited amount to the maximum\n            depositAmountExternal = maxLiquidatorDepositExternal;\n        }\n\n        // Transfers the amount of asset tokens into Notional and credit it to the account's temp cash balance\n        int256 assetAmountExternalTransferred = assetToken.transfer(\n            liquidator, vaultConfig.borrowCurrencyId, depositAmountExternal\n        );\n\n        vaultAccount.tempCashBalance = vaultAccount.tempCashBalance.add(\n            assetToken.convertToInternal(assetAmountExternalTransferred)\n        );\n    }\n\n    /// @notice Transfers liquidator profits in the form of vault shares to be returned to the liquidator\n    function _transferLiquidatorProfits(\n        address receiver,\n        VaultConfig memory vaultConfig,\n        uint256 vaultSharesToLiquidator,\n        uint256 maturity\n    ) private returns (uint256) {\n        // Liquidator will receive vault shares that they can redeem by calling exitVault. If the liquidator has a\n        // leveraged position on then their collateral ratio will increase\n        VaultAccount memory liquidator = VaultAccountLib.getVaultAccount(receiver, vaultConfig);\n        // The liquidator must be able to receive the vault shares (i.e. not be in the vault at all or be in the\n        // vault at the same maturity). If the liquidator has fCash in the current maturity then their collateral\n        // ratio will increase as a result of the liquidation, no need to check their collateral position.\n        require(liquidator.maturity == 0 || liquidator.maturity == maturity, \"Vault Shares Mismatch\"); // dev: has vault shares\n        liquidator.maturity = maturity;\n        liquidator.vaultShares = liquidator.vaultShares.add(vaultSharesToLiquidator);\n        liquidator.setVaultAccount(vaultConfig);\n\n        return vaultSharesToLiquidator;\n    }\n\n    /// @notice Redeems liquidator profits back to asset cash and transfers it to the liquidator\n    function _redeemLiquidatorProfits(\n        address liquidator,\n        VaultConfig memory vaultConfig,\n        VaultState memory vaultState,\n        uint256 vaultShares,\n        bytes calldata redeemData,\n        Token memory assetToken\n    ) private returns (uint256) {\n        (uint256 assetCash, uint256 strategyTokens) = vaultState.exitMaturityDirect(vaultShares);\n        int256 assetCashInternal = vaultConfig.redeemWithoutDebtRepayment(\n            liquidator, strategyTokens, vaultState.maturity, redeemData\n        );\n        assetCashInternal = assetCashInternal.add(assetCash.toInt());\n\n        vaultState.setVaultState(vaultConfig.vault);\n\n        // Returns a negative amount to signify assets have left the protocol. For aTokens this is the scaled\n        // balance external.\n        int256 actualTransferExternal = assetToken.transfer(\n            liquidator, vaultConfig.borrowCurrencyId, assetToken.convertToExternal(assetCashInternal.neg())\n        );\n\n        if (assetToken.tokenType == TokenType.aToken) {\n            // Convert this back to aToken balanceOf amount to return back to the liquidator\n            Token memory underlyingToken = TokenHandler.getUnderlyingToken(vaultConfig.borrowCurrencyId);\n            actualTransferExternal = AaveHandler.convertFromScaledBalanceExternal(\n                underlyingToken.tokenAddress, actualTransferExternal\n            );\n        }\n\n        // actualTransferExternal is negative to signify assets have left the protocol\n        return actualTransferExternal.neg().toUint();\n    }\n\n    /** View Methods **/\n    function getVaultAccount(address account, address vault) external override view returns (VaultAccount memory) {\n        return VaultAccountLib.getVaultAccount(account, VaultConfiguration.getVaultConfigNoAssetRate(vault));\n    }\n\n    function getVaultAccountMaturity(address account, address vault) external override view returns (uint256) {\n        return VaultAccountLib.getVaultAccount(account, VaultConfiguration.getVaultConfigNoAssetRate(vault)).maturity;\n    }\n\n    function getVaultAccountCollateralRatio(address account, address vault) external override view returns (\n        int256 collateralRatio,\n        int256 minCollateralRatio,\n        int256 maxLiquidatorDepositAssetCash,\n        bool mustLiquidateFull\n    ) {\n        VaultConfig memory vaultConfig = VaultConfiguration.getVaultConfigView(vault);\n        VaultAccount memory vaultAccount = VaultAccountLib.getVaultAccount(account, vaultConfig);\n        VaultState memory vaultState = VaultStateLib.getVaultState(vault, vaultAccount.maturity);\n        minCollateralRatio = vaultConfig.minCollateralRatio;\n\n        if (vaultState.isSettled) {\n            // In this case, the maturity has been settled and although the vault account says that it has\n            // some fCash balance it does not actually owe any debt anymore.\n            collateralRatio = type(int256).max;\n        } else {\n            int256 vaultShareValue;\n            (collateralRatio, vaultShareValue) = vaultConfig.calculateCollateralRatio(\n                vaultState, account, vaultAccount.vaultShares, vaultAccount.fCash\n            );\n\n            // Calculates liquidation factors if the account is eligible\n            if (collateralRatio < minCollateralRatio) {\n                (maxLiquidatorDepositAssetCash, mustLiquidateFull) = vaultAccount.calculateDeleverageAmount(\n                    vaultConfig, vaultShareValue\n                );\n            }\n        }\n    }\n\n    function getLibInfo() external pure returns (address) {\n        return address(TradingAction);\n    }\n}\n",
  "sourcePath": "contracts/external/actions/VaultAccountAction.sol",
  "type": "contract"
}