{
  "abi": [
    {
      "anonymous": false,
      "inputs": [
        {
          "indexed": true,
          "internalType": "address",
          "name": "vault",
          "type": "address"
        },
        {
          "indexed": true,
          "internalType": "uint16",
          "name": "currencyId",
          "type": "uint16"
        },
        {
          "indexed": false,
          "internalType": "int256",
          "name": "shortfall",
          "type": "int256"
        }
      ],
      "name": "ProtocolInsolvency",
      "type": "event"
    },
    {
      "anonymous": false,
      "inputs": [
        {
          "indexed": true,
          "internalType": "address",
          "name": "vault",
          "type": "address"
        },
        {
          "indexed": true,
          "internalType": "uint16",
          "name": "currencyId",
          "type": "uint16"
        },
        {
          "indexed": false,
          "internalType": "uint256",
          "name": "totalUsedBorrowCapacity",
          "type": "uint256"
        }
      ],
      "name": "VaultBorrowCapacityChange",
      "type": "event"
    },
    {
      "anonymous": false,
      "inputs": [
        {
          "indexed": true,
          "internalType": "address",
          "name": "vault",
          "type": "address"
        },
        {
          "indexed": true,
          "internalType": "uint16",
          "name": "currencyId",
          "type": "uint16"
        },
        {
          "indexed": false,
          "internalType": "int256",
          "name": "reserveFee",
          "type": "int256"
        },
        {
          "indexed": false,
          "internalType": "int256",
          "name": "nTokenFee",
          "type": "int256"
        }
      ],
      "name": "VaultFeeAccrued",
      "type": "event"
    },
    {
      "anonymous": false,
      "inputs": [
        {
          "indexed": true,
          "internalType": "address",
          "name": "vault",
          "type": "address"
        },
        {
          "indexed": true,
          "internalType": "uint256",
          "name": "maturity",
          "type": "uint256"
        },
        {
          "indexed": false,
          "internalType": "uint256",
          "name": "assetCashDeposited",
          "type": "uint256"
        },
        {
          "indexed": false,
          "internalType": "uint256",
          "name": "strategyTokensMinted",
          "type": "uint256"
        }
      ],
      "name": "VaultMintStrategyToken",
      "type": "event"
    },
    {
      "anonymous": false,
      "inputs": [
        {
          "indexed": true,
          "internalType": "address",
          "name": "vault",
          "type": "address"
        },
        {
          "indexed": false,
          "internalType": "bool",
          "name": "enabled",
          "type": "bool"
        }
      ],
      "name": "VaultPauseStatus",
      "type": "event"
    },
    {
      "anonymous": false,
      "inputs": [
        {
          "indexed": true,
          "internalType": "address",
          "name": "vault",
          "type": "address"
        },
        {
          "indexed": true,
          "internalType": "uint256",
          "name": "maturity",
          "type": "uint256"
        },
        {
          "indexed": false,
          "internalType": "int256",
          "name": "assetCashReceived",
          "type": "int256"
        },
        {
          "indexed": false,
          "internalType": "uint256",
          "name": "strategyTokensRedeemed",
          "type": "uint256"
        }
      ],
      "name": "VaultRedeemStrategyToken",
      "type": "event"
    },
    {
      "anonymous": false,
      "inputs": [
        {
          "indexed": true,
          "internalType": "address",
          "name": "vault",
          "type": "address"
        },
        {
          "indexed": true,
          "internalType": "address",
          "name": "account",
          "type": "address"
        },
        {
          "indexed": true,
          "internalType": "uint16",
          "name": "currencyId",
          "type": "uint16"
        },
        {
          "indexed": false,
          "internalType": "uint256",
          "name": "debtSharesRepaid",
          "type": "uint256"
        },
        {
          "indexed": false,
          "internalType": "uint256",
          "name": "fCashLent",
          "type": "uint256"
        }
      ],
      "name": "VaultRepaySecondaryBorrow",
      "type": "event"
    },
    {
      "anonymous": false,
      "inputs": [
        {
          "indexed": true,
          "internalType": "address",
          "name": "vault",
          "type": "address"
        },
        {
          "indexed": true,
          "internalType": "address",
          "name": "account",
          "type": "address"
        },
        {
          "indexed": true,
          "internalType": "uint16",
          "name": "currencyId",
          "type": "uint16"
        },
        {
          "indexed": false,
          "internalType": "uint256",
          "name": "debtSharesMinted",
          "type": "uint256"
        },
        {
          "indexed": false,
          "internalType": "uint256",
          "name": "fCashBorrowed",
          "type": "uint256"
        }
      ],
      "name": "VaultSecondaryBorrow",
      "type": "event"
    },
    {
      "anonymous": false,
      "inputs": [
        {
          "indexed": true,
          "internalType": "address",
          "name": "vault",
          "type": "address"
        },
        {
          "indexed": true,
          "internalType": "uint256",
          "name": "maturity",
          "type": "uint256"
        },
        {
          "indexed": false,
          "internalType": "int256",
          "name": "totalfCash",
          "type": "int256"
        },
        {
          "indexed": false,
          "internalType": "uint256",
          "name": "totalAssetCash",
          "type": "uint256"
        },
        {
          "indexed": false,
          "internalType": "uint256",
          "name": "totalStrategyTokens",
          "type": "uint256"
        },
        {
          "indexed": false,
          "internalType": "uint256",
          "name": "totalVaultShares",
          "type": "uint256"
        },
        {
          "indexed": false,
          "internalType": "int256",
          "name": "strategyTokenValue",
          "type": "int256"
        }
      ],
      "name": "VaultSettled",
      "type": "event"
    },
    {
      "anonymous": false,
      "inputs": [
        {
          "indexed": true,
          "internalType": "address",
          "name": "vault",
          "type": "address"
        },
        {
          "indexed": true,
          "internalType": "uint256",
          "name": "maturity",
          "type": "uint256"
        },
        {
          "indexed": false,
          "internalType": "int256",
          "name": "remainingAssetCash",
          "type": "int256"
        },
        {
          "indexed": false,
          "internalType": "uint256",
          "name": "remainingStrategyTokens",
          "type": "uint256"
        }
      ],
      "name": "VaultSettledAssetsRemaining",
      "type": "event"
    },
    {
      "anonymous": false,
      "inputs": [
        {
          "indexed": true,
          "internalType": "address",
          "name": "vault",
          "type": "address"
        },
        {
          "indexed": true,
          "internalType": "uint16",
          "name": "currencyId",
          "type": "uint16"
        },
        {
          "indexed": false,
          "internalType": "int256",
          "name": "shortfall",
          "type": "int256"
        }
      ],
      "name": "VaultShortfall",
      "type": "event"
    },
    {
      "anonymous": false,
      "inputs": [
        {
          "indexed": true,
          "internalType": "address",
          "name": "vault",
          "type": "address"
        },
        {
          "indexed": true,
          "internalType": "uint256",
          "name": "maturity",
          "type": "uint256"
        },
        {
          "indexed": false,
          "internalType": "int256",
          "name": "totalfCash",
          "type": "int256"
        },
        {
          "indexed": false,
          "internalType": "uint256",
          "name": "totalAssetCash",
          "type": "uint256"
        },
        {
          "indexed": false,
          "internalType": "uint256",
          "name": "totalStrategyTokens",
          "type": "uint256"
        },
        {
          "indexed": false,
          "internalType": "uint256",
          "name": "totalVaultShares",
          "type": "uint256"
        }
      ],
      "name": "VaultStateUpdate",
      "type": "event"
    },
    {
      "anonymous": false,
      "inputs": [
        {
          "indexed": true,
          "internalType": "address",
          "name": "vault",
          "type": "address"
        },
        {
          "indexed": true,
          "internalType": "uint16",
          "name": "currencyId",
          "type": "uint16"
        },
        {
          "indexed": false,
          "internalType": "uint80",
          "name": "maxSecondaryBorrowCapacity",
          "type": "uint80"
        }
      ],
      "name": "VaultUpdateSecondaryBorrowCapacity",
      "type": "event"
    },
    {
      "anonymous": false,
      "inputs": [
        {
          "indexed": true,
          "internalType": "address",
          "name": "vault",
          "type": "address"
        },
        {
          "indexed": false,
          "internalType": "bool",
          "name": "enabled",
          "type": "bool"
        },
        {
          "indexed": false,
          "internalType": "uint80",
          "name": "maxPrimaryBorrowCapacity",
          "type": "uint80"
        }
      ],
      "name": "VaultUpdated",
      "type": "event"
    },
    {
      "inputs": [
        {
          "internalType": "address",
          "name": "account",
          "type": "address"
        },
        {
          "internalType": "uint256",
          "name": "maturity",
          "type": "uint256"
        },
        {
          "internalType": "uint256[2]",
          "name": "fCashToBorrow",
          "type": "uint256[2]"
        },
        {
          "internalType": "uint32[2]",
          "name": "maxBorrowRate",
          "type": "uint32[2]"
        },
        {
          "internalType": "uint32[2]",
          "name": "minRollLendRate",
          "type": "uint32[2]"
        }
      ],
      "name": "borrowSecondaryCurrencyToVault",
      "outputs": [
        {
          "internalType": "uint256[2]",
          "name": "underlyingTokensTransferred",
          "type": "uint256[2]"
        }
      ],
      "stateMutability": "nonpayable",
      "type": "function"
    },
    {
      "inputs": [
        {
          "internalType": "uint256",
          "name": "maturity",
          "type": "uint256"
        },
        {
          "internalType": "uint256",
          "name": "assetCashInternal",
          "type": "uint256"
        },
        {
          "internalType": "bytes",
          "name": "vaultData",
          "type": "bytes"
        }
      ],
      "name": "depositVaultCashToStrategyTokens",
      "outputs": [],
      "stateMutability": "nonpayable",
      "type": "function"
    },
    {
      "inputs": [
        {
          "internalType": "address",
          "name": "vault",
          "type": "address"
        },
        {
          "internalType": "uint16",
          "name": "currencyId",
          "type": "uint16"
        }
      ],
      "name": "getBorrowCapacity",
      "outputs": [
        {
          "internalType": "uint256",
          "name": "totalUsedBorrowCapacity",
          "type": "uint256"
        },
        {
          "internalType": "uint256",
          "name": "maxBorrowCapacity",
          "type": "uint256"
        }
      ],
      "stateMutability": "view",
      "type": "function"
    },
    {
      "inputs": [
        {
          "internalType": "address",
          "name": "vault",
          "type": "address"
        },
        {
          "internalType": "uint256",
          "name": "maturity",
          "type": "uint256"
        }
      ],
      "name": "getCashRequiredToSettle",
      "outputs": [
        {
          "internalType": "int256",
          "name": "assetCashRequiredToSettle",
          "type": "int256"
        },
        {
          "internalType": "int256",
          "name": "underlyingCashRequiredToSettle",
          "type": "int256"
        }
      ],
      "stateMutability": "view",
      "type": "function"
    },
    {
      "inputs": [],
      "name": "getLibInfo",
      "outputs": [
        {
          "internalType": "address",
          "name": "",
          "type": "address"
        }
      ],
      "stateMutability": "pure",
      "type": "function"
    },
    {
      "inputs": [
        {
          "internalType": "address",
          "name": "vault",
          "type": "address"
        },
        {
          "internalType": "uint16",
          "name": "currencyId",
          "type": "uint16"
        },
        {
          "internalType": "uint256",
          "name": "maturity",
          "type": "uint256"
        }
      ],
      "name": "getSecondaryBorrow",
      "outputs": [
        {
          "internalType": "uint256",
          "name": "totalfCashBorrowed",
          "type": "uint256"
        },
        {
          "internalType": "uint256",
          "name": "totalAccountDebtShares",
          "type": "uint256"
        }
      ],
      "stateMutability": "view",
      "type": "function"
    },
    {
      "inputs": [
        {
          "internalType": "address",
          "name": "vault",
          "type": "address"
        }
      ],
      "name": "getVaultConfig",
      "outputs": [
        {
          "components": [
            {
              "internalType": "address",
              "name": "vault",
              "type": "address"
            },
            {
              "internalType": "uint16",
              "name": "flags",
              "type": "uint16"
            },
            {
              "internalType": "uint16",
              "name": "borrowCurrencyId",
              "type": "uint16"
            },
            {
              "internalType": "int256",
              "name": "minAccountBorrowSize",
              "type": "int256"
            },
            {
              "internalType": "int256",
              "name": "feeRate",
              "type": "int256"
            },
            {
              "internalType": "int256",
              "name": "minCollateralRatio",
              "type": "int256"
            },
            {
              "internalType": "int256",
              "name": "liquidationRate",
              "type": "int256"
            },
            {
              "internalType": "int256",
              "name": "reserveFeeShare",
              "type": "int256"
            },
            {
              "internalType": "uint256",
              "name": "maxBorrowMarketIndex",
              "type": "uint256"
            },
            {
              "internalType": "int256",
              "name": "maxDeleverageCollateralRatio",
              "type": "int256"
            },
            {
              "internalType": "uint16[2]",
              "name": "secondaryBorrowCurrencies",
              "type": "uint16[2]"
            },
            {
              "components": [
                {
                  "internalType": "contract AssetRateAdapter",
                  "name": "rateOracle",
                  "type": "address"
                },
                {
                  "internalType": "int256",
                  "name": "rate",
                  "type": "int256"
                },
                {
                  "internalType": "int256",
                  "name": "underlyingDecimals",
                  "type": "int256"
                }
              ],
              "internalType": "struct AssetRateParameters",
              "name": "assetRate",
              "type": "tuple"
            }
          ],
          "internalType": "struct VaultConfig",
          "name": "vaultConfig",
          "type": "tuple"
        }
      ],
      "stateMutability": "view",
      "type": "function"
    },
    {
      "inputs": [
        {
          "internalType": "address",
          "name": "vault",
          "type": "address"
        },
        {
          "internalType": "uint256",
          "name": "maturity",
          "type": "uint256"
        }
      ],
      "name": "getVaultState",
      "outputs": [
        {
          "components": [
            {
              "internalType": "uint256",
              "name": "maturity",
              "type": "uint256"
            },
            {
              "internalType": "int256",
              "name": "totalfCash",
              "type": "int256"
            },
            {
              "internalType": "bool",
              "name": "isSettled",
              "type": "bool"
            },
            {
              "internalType": "uint256",
              "name": "totalVaultShares",
              "type": "uint256"
            },
            {
              "internalType": "uint256",
              "name": "totalAssetCash",
              "type": "uint256"
            },
            {
              "internalType": "uint256",
              "name": "totalStrategyTokens",
              "type": "uint256"
            },
            {
              "internalType": "int256",
              "name": "settlementStrategyTokenValue",
              "type": "int256"
            }
          ],
          "internalType": "struct VaultState",
          "name": "vaultState",
          "type": "tuple"
        }
      ],
      "stateMutability": "view",
      "type": "function"
    },
    {
      "inputs": [],
      "name": "owner",
      "outputs": [
        {
          "internalType": "address",
          "name": "",
          "type": "address"
        }
      ],
      "stateMutability": "view",
      "type": "function"
    },
    {
      "inputs": [],
      "name": "pauseGuardian",
      "outputs": [
        {
          "internalType": "address",
          "name": "",
          "type": "address"
        }
      ],
      "stateMutability": "view",
      "type": "function"
    },
    {
      "inputs": [],
      "name": "pauseRouter",
      "outputs": [
        {
          "internalType": "address",
          "name": "",
          "type": "address"
        }
      ],
      "stateMutability": "view",
      "type": "function"
    },
    {
      "inputs": [
        {
          "internalType": "uint256",
          "name": "maturity",
          "type": "uint256"
        },
        {
          "internalType": "uint256",
          "name": "strategyTokensToRedeem",
          "type": "uint256"
        },
        {
          "internalType": "bytes",
          "name": "vaultData",
          "type": "bytes"
        }
      ],
      "name": "redeemStrategyTokensToCash",
      "outputs": [
        {
          "internalType": "int256",
          "name": "assetCashRequiredToSettle",
          "type": "int256"
        },
        {
          "internalType": "int256",
          "name": "underlyingCashRequiredToSettle",
          "type": "int256"
        }
      ],
      "stateMutability": "nonpayable",
      "type": "function"
    },
    {
      "inputs": [
        {
          "internalType": "address",
          "name": "vaultAddress",
          "type": "address"
        },
        {
          "internalType": "uint80",
          "name": "maxVaultBorrowCapacity",
          "type": "uint80"
        },
        {
          "internalType": "uint256",
          "name": "maturity",
          "type": "uint256"
        },
        {
          "internalType": "uint256",
          "name": "strategyTokensToRedeem",
          "type": "uint256"
        },
        {
          "internalType": "bytes",
          "name": "vaultData",
          "type": "bytes"
        }
      ],
      "name": "reduceMaxBorrowCapacity",
      "outputs": [],
      "stateMutability": "nonpayable",
      "type": "function"
    },
    {
      "inputs": [
        {
          "internalType": "address",
          "name": "account",
          "type": "address"
        },
        {
          "internalType": "uint16",
          "name": "currencyId",
          "type": "uint16"
        },
        {
          "internalType": "uint256",
          "name": "maturity",
          "type": "uint256"
        },
        {
          "internalType": "uint256",
          "name": "debtSharesToRepay",
          "type": "uint256"
        },
        {
          "internalType": "uint32",
          "name": "minLendRate",
          "type": "uint32"
        },
        {
          "internalType": "bytes",
          "name": "callbackData",
          "type": "bytes"
        }
      ],
      "name": "repaySecondaryCurrencyFromVault",
      "outputs": [
        {
          "internalType": "bytes",
          "name": "returnData",
          "type": "bytes"
        }
      ],
      "stateMutability": "nonpayable",
      "type": "function"
    },
    {
      "inputs": [
        {
          "internalType": "address",
          "name": "vaultAddress",
          "type": "address"
        },
        {
          "internalType": "bool",
          "name": "enable",
          "type": "bool"
        }
      ],
      "name": "setVaultPauseStatus",
      "outputs": [],
      "stateMutability": "nonpayable",
      "type": "function"
    },
    {
      "inputs": [
        {
          "internalType": "address",
          "name": "vault",
          "type": "address"
        },
        {
          "internalType": "uint256",
          "name": "maturity",
          "type": "uint256"
        }
      ],
      "name": "settleVault",
      "outputs": [],
      "stateMutability": "nonpayable",
      "type": "function"
    },
    {
      "inputs": [
        {
          "internalType": "address",
          "name": "vaultAddress",
          "type": "address"
        },
        {
          "internalType": "uint16",
          "name": "secondaryCurrencyId",
          "type": "uint16"
        },
        {
          "internalType": "uint80",
          "name": "maxBorrowCapacity",
          "type": "uint80"
        }
      ],
      "name": "updateSecondaryBorrowCapacity",
      "outputs": [],
      "stateMutability": "nonpayable",
      "type": "function"
    },
    {
      "inputs": [
        {
          "internalType": "address",
          "name": "vaultAddress",
          "type": "address"
        },
        {
          "components": [
            {
              "internalType": "uint16",
              "name": "flags",
              "type": "uint16"
            },
            {
              "internalType": "uint16",
              "name": "borrowCurrencyId",
              "type": "uint16"
            },
            {
              "internalType": "uint32",
              "name": "minAccountBorrowSize",
              "type": "uint32"
            },
            {
              "internalType": "uint16",
              "name": "minCollateralRatioBPS",
              "type": "uint16"
            },
            {
              "internalType": "uint8",
              "name": "feeRate5BPS",
              "type": "uint8"
            },
            {
              "internalType": "uint8",
              "name": "liquidationRate",
              "type": "uint8"
            },
            {
              "internalType": "uint8",
              "name": "reserveFeeShare",
              "type": "uint8"
            },
            {
              "internalType": "uint8",
              "name": "maxBorrowMarketIndex",
              "type": "uint8"
            },
            {
              "internalType": "uint16",
              "name": "maxDeleverageCollateralRatioBPS",
              "type": "uint16"
            },
            {
              "internalType": "uint16[2]",
              "name": "secondaryBorrowCurrencies",
              "type": "uint16[2]"
            }
          ],
          "internalType": "struct VaultConfigStorage",
          "name": "vaultConfig",
          "type": "tuple"
        },
        {
          "internalType": "uint80",
          "name": "maxPrimaryBorrowCapacity",
          "type": "uint80"
        }
      ],
      "name": "updateVault",
      "outputs": [],
      "stateMutability": "nonpayable",
      "type": "function"
    }
  ],
  "bytecode": "608060405234801561001057600080fd5b5061514a806100206000396000f3fe608060405234801561001057600080fd5b50600436106101165760003560e01c806382463367116100a2578063c4c96dae11610071578063c4c96dae1461023e578063d04c16ac14610246578063d6ddeb9a14610259578063de1eb9a31461026c578063ee01436b1461028c57610116565b806382463367146102085780638da5cb5b14610210578063a14db57c14610218578063b3c475461461022b57610116565b806331572281116100e9578063315722811461018157806350e4f223146101a157806356f428c4146101c157806367515776146101d45780636c346c09146101f557610116565b80630bc08cdc1461011b57806324a3d62214610144578063291afdf314610159578063295e6b7f1461016e575b600080fd5b61012e6101293660046144fb565b61029f565b60405161013b91906148c3565b60405180910390f35b61014c61045e565b60405161013b91906147aa565b61016c610167366004614497565b61046d565b005b61016c61017c3660046144d2565b610589565b61019461018f3660046144d2565b6107c8565b60405161013b9190614dd9565b6101b46101af36600461440c565b6107e1565b60405161013b9190614918565b61016c6101cf366004614319565b6109b3565b6101e76101e23660046143a3565b610a33565b60405161013b929190614954565b6101e76102033660046144d2565b610a83565b61014c610abe565b61014c610acd565b6101e76102263660046143ce565b610ae3565b61016c610239366004614353565b610b3d565b61014c610bf5565b61016c610254366004614693565b610c0d565b61016c61026736600461455c565b610d95565b61027f61027a3660046142ff565b610e47565b60405161013b9190614d25565b6101e761029a366004614693565b610e5e565b6102a761412f565b60006102b233610eb0565b90506102bf816001610edf565b6102e45760405162461bcd60e51b81526004016102db90614a29565b60405180910390fd5b610140810151805161ffff16158015906103055750602081015161ffff1615155b61030e57600080fd5b61031661412f565b610321836002610edf565b801561033657506001600160a01b0389163314155b156103fb576000610345610ef4565b6001600160a01b03808c1660009081526020928352604080822088519093168252919092529020805490915063ffffffff1680156103f85789811061038957600080fd5b6103c6858c866000602002015185548590600160201b90046001600160501b03168c60005b6020020160208101906103c191906146e4565b610f01565b8352602084015182546103f29187918e91908590600160701b90046001600160501b03168c60016103ae565b60208401525b50505b815181516104289185918c91908c908c358c60005b60200201602081019061042391906146e4565b610f36565b84526020828101518282015161044c9286928d9290918d91908d01358c6001610410565b60208501525091979650505050505050565b6002546001600160a01b031681565b600054600160201b90046001600160a01b0316331461049e5760405162461bcd60e51b81526004016102db90614c38565b60006104a984610eb0565b905060006104ba8461ffff16610fb4565b905060006104cb8561ffff16610fcc565b905081602001511580156104e157508060200151155b6104ea57600080fd5b6101408301515161ffff8681169116148061051457506101408301516020015161ffff8681169116145b6105305760405162461bcd60e51b81526004016102db90614c0e565b61053b868686610fdf565b8461ffff16866001600160a01b03167f8f868f60e49b80b48ee5de8b7bc703cfc4b5c826a05d3ea1b00cf4159c155a90866040516105799190614e51565b60405180910390a3505050505050565b6002600a5414156105ac5760405162461bcd60e51b81526004016102db90614ca4565b6002600a5560006105bc83610eb0565b90506105ca81336040611033565b60006105d6848461109d565b90504283111580156105ea57506040810151155b6106065760405162461bcd60e51b81526004016102db90614b91565b600061061b836040015161ffff168542611138565b9050600061063e61063961063285602001516112a8565b84906112b6565b6112f5565b9050600061064a611308565b6001600160a01b038816600090815260209182526040808220898352909252206101408601515190915061ffff16156106bd576101408501515161ffff166000908152602082905260409020546001600160501b0316156106bd5760405162461bcd60e51b81526004016102db90614aad565b6101408501516020015161ffff16156107145761014085015160209081015161ffff1660009081529082905260409020546001600160501b0316156107145760405162461bcd60e51b81526004016102db90614aad565b81846080015110156107915760a0840151156107425760405162461bcd60e51b81526004016102db906149fe565b600061075385608001518403611315565b9050600061076d610639886000015189604001518561132b565b608087015190915061077f9082611450565b608087015261078e868a611462565b50505b6107ac8786604001516107a787602001516112a8565b6115d1565b506107ba84868589426116d7565b50506001600a555050505050565b6107d061414d565b6107da838361109d565b9392505050565b606060006107ee33610eb0565b90506107fb816001610edf565b6108175760405162461bcd60e51b81526004016102db90614a29565b600080610828838c8c8c8c8c61189d565b91509150600061083b8b61ffff16610fb4565b905060008060048360600151600581111561085257fe5b14610869576108648d61ffff16610fcc565b61086b565b825b9050600061089c610639610895610890898b6101600151611a1f90919063ffffffff16565b6112a8565b8490611a4a565b905060006108aa8330611a86565b9050336001600160a01b031663fdf7c1ce8460000151848e8e6040518563ffffffff1660e01b81526004016108e2949392919061484c565b600060405180830381600087803b1580156108fc57600080fd5b505af1158015610910573d6000803e3d6000fd5b505050506040513d6000823e601f3d908101601f1916820160405261093891908101906145d2565b985060006109468430611a86565b90506109528183611b30565b9450828510156109745760405162461bcd60e51b81526004016102db90614ccc565b5060049250610981915050565b8260600151600581111561099157fe5b146109a3576109a1828d83611b45565b505b5050505050979650505050505050565b600054600160201b90046001600160a01b031633146109e45760405162461bcd60e51b81526004016102db90614c38565b6109ee8282611c2c565b816001600160a01b03167f7c51c6aa77346c54cb051d9e792f9b7bde5c28a9b57e6fb2d2dd727b38438ca982604051610a2791906148f4565b60405180910390a25050565b6000806000610a40611c8c565b6001600160a01b0390951660009081526020958652604080822061ffff9096168252949095525050509020546001600160501b03600160501b8204811692911690565b6000806000610a9185611c99565b90506000610aa382600001518661109d565b9050610ab0828287611cbd565b9350935050505b9250929050565b6001546001600160a01b031681565b600054600160201b90046001600160a01b031681565b6000806000610af0611308565b6001600160a01b0390961660009081526020968752604080822095825294875284812061ffff90961681529490955250509020546001600160501b0380821693600160501b909204169150565b600054600160201b90046001600160a01b03163314610b6e5760405162461bcd60e51b81526004016102db90614c38565b610b788383611d76565b610b9283610b8c6040850160208601614677565b83610fdf565b6000600180610ba46020860186614677565b1661ffff16149050836001600160a01b03167fb441d7ca09abc712b4504256717707ce40e8d43895266b46abf9cd58619c07dc8284604051610be79291906148ff565b60405180910390a250505050565b73__TradingAction_________________________90565b6002600a541415610c305760405162461bcd60e51b81526004016102db90614ca4565b6002600a556000610c4033610eb0565b9050610c4d816001610edf565b610c695760405162461bcd60e51b81526004016102db90614a29565b610c74816080610edf565b15610c7f576001600a555b6000610c8b338761109d565b90506000610ca0836040015161ffff16610fb4565b90506000610cc28460000151610cb589611315565b8691908b60008b8b611f7b565b6080840151909150610cd49088611b30565b608084015260a0830151610ce89082611450565b60a0840152610cf78333611462565b6000610d1a8433866060015187602001518961203190949392919063ffffffff16565b509050808560a001511315610d415760405162461bcd60e51b81526004016102db90614c6d565b88336001600160a01b03167fbba43506b1f3723add796bf603adde56bc018392a95775b9f76c31213b4161bb8a85604051610d7d929190614954565b60405180910390a350506001600a5550505050505050565b600054600160201b90046001600160a01b03163314610dc65760405162461bcd60e51b81526004016102db90614c38565b6000610dd187610eb0565b9050610de287826040015188610fdf565b610def8186868686612099565b50506001600160a01b0387167fb441d7ca09abc712b4504256717707ce40e8d43895266b46abf9cd58619c07dc610e27836001610edf565b88604051610e369291906148ff565b60405180910390a250505050505050565b610e4f61418c565b610e5882611c99565b92915050565b6000806000610e6c33610eb0565b9050610e79816001610edf565b610e955760405162461bcd60e51b81526004016102db90614a29565b610ea28188888888612099565b925092505094509492505050565b610eb861418c565b610ec1826121ad565b9050610ed4816040015161ffff1661232a565b610160820152919050565b60209190910151811661ffff90811691161490565b600080610e58601a612376565b600061ffff851615801590610f1557508215155b15610f2c57610f2887878787878761189d565b5090505b9695505050505050565b600061ffff86161580610f47575082155b15610f5457506000610fa9565b600080610f658a8a8a8a898961238f565b9092509050610f7482876124fd565b91506000821215610f975760405162461bcd60e51b81526004016102db90614b5a565b8951610fa4908984612513565b925050505b979650505050505050565b610fbc614209565b610e588260006125bb565b919050565b610fd4614209565b610e588260016125bb565b6000610fe9611c8c565b6001600160a01b0390941660009081526020948552604080822061ffff90951682529390945250912080546001600160501b039092166001600160501b0319909216919091179055565b61103d8382610edf565b156110705782516001600160a01b0316331461106b5760405162461bcd60e51b81526004016102db90614a49565b611098565b6001600160a01b03821633146110985760405162461bcd60e51b81526004016102db90614a49565b505050565b6110a561414d565b60006110af612669565b6001600160a01b03909416600090815260209485526040808220858352865280822094845284546001600160501b038082169093039685019690965260ff600160f01b870416151590840152600160501b8086048216608085015260019094015480821660a0850152600160a01b909504166060830152509104600990810b900b60c082015290565b611140614238565b60008061114d8686612676565b91509150816000141561127d576000611165876126bf565b91945090925090506001600160a01b0381161561127b576000611186612782565b90508560001080156111985750858711155b80156111a9575064ffffffffff8611155b6111b257600080fd5b8360001280156111c957506001600160801b038413155b6111d257600080fd5b6000888152602082815260408083208a845290915290819020805464ffffffffff191664ffffffffff89161774ffffffffffffffffffffffffffffffff00000000001916650100000000006001600160801b038816021760ff60a81b1916600160a81b60ff871602178155905188908a907f0fdfa6885701e2f1f42e4187b9231cf81c1fe23671ef64fa46f34ddb56c1dc1890611270908990614e29565b60405180910390a350505b505b6040805160608101825260008152602081019390935260ff909116600a0a9082015290509392505050565b6000610e586000198361278f565b6000806112ed84602001516112e786604001516112e16402540be4008861278f90919063ffffffff16565b9061278f565b906127dd565b949350505050565b60008082121561130457600080fd5b5090565b600080610e586018612376565b60006001600160ff1b0382111561130457600080fd5b6000611338846000611c2c565b836001600160a01b03167f7c51c6aa77346c54cb051d9e792f9b7bde5c28a9b57e6fb2d2dd727b38438ca9600060405161137291906148f4565b60405180910390a28261ffff16846001600160a01b03167fc6525e68251be388040a5488ac0c1bbae9e15b03af12e7eb84fc2e7ff2b46384846040516113b8919061494b565b60405180910390a360006113d160008561ffff1661280e565b50505090508083136113f1576113e9848483036128b7565b829150611448565b6113fc8460006128b7565b8361ffff16856001600160a01b03167fc83c39f2d248d6443025da5caee781f1d927fb0c59598b7c6084738fe7113e2283860360405161143c919061494b565b60405180910390a38091505b509392505050565b6000828201838110156107da57600080fd5b600061146c612669565b6001600160a01b03831660009081526020828152604080832087518452909152908190209085015191925090156114a257600080fd5b6114ba6114b561063986602001516112a8565b61290e565b81546001600160501b0319166001600160501b039190911617815560808401516114e39061290e565b81546001600160501b0391909116600160501b02600160501b600160a01b031990911617815560a08401516115179061290e565b6001820180546001600160501b0319166001600160501b039290921691909117905560608401516115479061290e565b81546001600160501b0391909116600160a01b0269ffffffffffffffffffff60a01b1990911617815583516020850151608086015160a087015160608801516040516001600160a01b038916947f3a0fdaecf7b5da75a56077f5b1c8fbc88f9b08e9d0c4db31eb34e25bc6700cde946115c39491939092614962565b60405180910390a350505050565b6000806115dc611c8c565b6001600160a01b03861660009081526020918252604080822061ffff8816835290925220805490915061161f90600160501b90046001600160501b031684612924565b915060008312156116545780546001600160501b03168213156116545760405162461bcd60e51b81526004016102db90614bb8565b6116606114b5836112f5565b81546001600160501b0391909116600160501b02600160501b600160a01b031990911617815560405161ffff8516906001600160a01b038716907f20478ef460e49d010960d4f3fff35d8dae385443abfac09035d6a2ccbcd834c4906116c790869061494b565b60405180910390a3509392505050565b60006116e1612669565b85516001600160a01b03166000908152602082815260408083208784529091529020805491925090600160f01b900460ff161561171d57600080fd5b8284111561172a57600080fd5b6040860151865160009161174491806305f5e1008961293a565b825460ff60f01b1916600160f01b178355905061176081612a01565b82600101600a6101000a8154816001600160501b03021916908360090b6001600160501b031602179055506000611795612a31565b88516001600160a01b031660009081526020918252604080822089835283529020600185015481546001600160501b0319166001600160501b03909116178155908a015190915061180790611802906117ef908a906112b6565b6117fc8c60800151611315565b906124fd565b612a01565b815460099190910b6001600160501b0316600160501b02600160501b600160a01b03199091161781558851885160208b015160808c015160a08d015160608e01516040516001600160a01b03909516947fe66a863186dba5a66d19d3d91a66b76a7cbfdefd0d8c29c662274b13febb166e9461188a949093909290918a9061497d565b60405180910390a3505050505050505050565b60008060006118aa611308565b89516001600160a01b0316600090815260209182526040808220898352835280822061ffff8b1683529092522080549091506001600160501b0380821691600160501b90041661190c611907826119018a86612a3e565b90612a65565b611315565b93508a600001516001600160a01b03168a6001600160a01b031614611976576119386114b58289611b30565b83546001600160501b0391909116600160501b02600160501b600160a01b03199091161783556119768b8b8b8b6119716108908d611315565b612a84565b8a51611983908a866115d1565b506119916114b58386611b30565b83546001600160501b0319166001600160501b03919091161783556119b98b8a8a878a612c0c565b94508861ffff168a6001600160a01b03168c600001516001600160a01b03167fe600bdb35f19bee41e408c7eb7a5274715d195849a3773c90dec48e2ff9513d78a88604051611a09929190614954565b60405180910390a4505050965096945050505050565b6000806112ed84604001516112e76402540be4006112e787896020015161278f90919063ffffffff16565b60006305f5e10083604001511215611a7257611a6b60016117fc8585612cd9565b9050610e58565b6107da83611a818460016124fd565b612cd9565b6000600383606001516005811115611a9a57fe5b1415611ab157506001600160a01b03811631610e58565b82516040516370a0823160e01b81526001600160a01b03909116906370a0823190611ae09085906004016147aa565b60206040518083038186803b158015611af857600080fd5b505afa158015611b0c573d6000803e3d6000fd5b505050506040513d601f19601f82011682018060405250810190611a6b919061465f565b600082821115611b3f57600080fd5b50900390565b600080600585606001516005811115611b5a57fe5b14611b6c576370a0823160e01b611b75565b630ed1279f60e11b5b90506000611b8886600001513084612d11565b9050600586606001516005811115611b9c57fe5b1415611bc3576000611bb18661ffff16610fcc565b9050611bbd8186612e23565b50611c0c565b600186606001516005811115611bd557fe5b1415611bea57611be58685612e96565b611c0c565b600286606001516005811115611bfc57fe5b141561011657611be58685612f38565b6000611c1d87600001513085612d11565b9050610fa96119078284612f8b565b6000611c36612fe2565b6001600160a01b038416600090815260208290526040902080549192509061ffff168315611c7557815461ffff19166001821761ffff16178255611c85565b815461ffff191661fffe82161782555b5050505050565b600080610e586017612376565b611ca161418c565b611caa826121ad565b9050610ed4816040015161ffff16612fef565b6000806000611cd4866040015161ffff1685613005565b90506000611cfb610890611ceb8860800151611315565b60208901516117fc9086906112b6565b90506000611d10886040015161ffff16610fb4565b9050611d1c8183612cd9565b9450600481606001516005811115611d3057fe5b1415611d3e57849350611d6b565b6000611d51896040015161ffff16610fcc565b9050611d67611d608585611a1f565b8290611a4a565b9450505b505050935093915050565b6000611d80612fe2565b9050611d9260c0830160a08401614700565b60ff1660641315611da257600080fd5b6064611db460e0840160c08501614700565b60ff161315611dc257600080fd5b611dd3610100830160e08401614700565b60ff16611ddf57600080fd5b611df161012083016101008401614677565b61ffff16611e056080840160608501614677565b61ffff1610611e1357600080fd5b611e2561014083016101208401614677565b61ffff16611e396040840160208501614677565b61ffff161415611e4857600080fd5b611e5a61016083016101408401614677565b61ffff16611e6e6040840160208501614677565b61ffff161415611e7d57600080fd5b611e8f61014083016101208401614677565b61ffff1615801590611eb55750611eae61016083016101408401614677565b61ffff1615155b15611ef157611ecc61016083016101408401614677565b61ffff16611ee261014084016101208501614677565b61ffff161415611ef157600080fd5b6000611f0f611f066040850160208601614677565b61ffff16610fb4565b90506000611f2f611f266040860160208701614677565b61ffff16610fcc565b90508160200151158015611f4557508060200151155b611f4e57600080fd5b6001600160a01b03851660009081526020849052604090208490611f728282614f1a565b50505050505050565b600080611f9189600001518a6040015189612513565b89519091506001600160a01b031663dc6679c589611faf8489611450565b8988886040518663ffffffff1660e01b8152600401611fd2959493929190614895565b602060405180830381600087803b158015611fec57600080fd5b505af1158015612000573d6000803e3d6000fd5b505050506040513d601f19601f82011682018060405250810190612024919061465f565b9998505050505050505050565b60008061204086888787613062565b9050600061205c612050856112a8565b6101608a0151906112b6565b9050600061206a8383612924565b905081612080576001600160ff1b03935061208d565b61208a81836130c7565b93505b50509550959350505050565b6000806002600a5414156120bf5760405162461bcd60e51b81526004016102db90614ca4565b6002600a556120cf876080610edf565b156120da576001600a555b60006120ea88600001518861109d565b8851909150600090612101908a90898b8a8a6130e0565b90506000811361211057600080fd5b608082015161211f9082611450565b608083015260a08201516121339088611b30565b60a08301528851612145908390611462565b8789600001516001600160a01b03167fb2f70c3fe73b5aee7e8c59b77222111306f1e4d7170f8fa1c09979bb847eb9d9838a604051612185929190614954565b60405180910390a361219889838a611cbd565b6001600a55909a909950975050505050505050565b6121b561418c565b60006121bf612fe2565b6001600160a01b03841660008181526020838152604091829020928652825461ffff80821692880192909252620100008104909116918601919091529192509061221f9063ffffffff600160201b9091048116906305f5e1009061278f16565b6060840152805461223d90600160501b900460ff166207a120612a3e565b608084015280546122619068010000000000000000900461ffff16620186a0612a3e565b60a0840152805461228090600160701b900461ffff16620186a0612a3e565b610120840152805460649060ff600160581b90910416633b9aca00020560c08401528054600160601b810460ff90811660e0860152600160681b909104166101008401526040805180820191829052906001830190600290826000855b82829054906101000a900461ffff1661ffff16815260200190600201906020826001010492830192600103820291508084116122dd57905050505050508361014001819052505050919050565b612332614238565b6000806000612340856126bf565b604080516060810182526001600160a01b039093168352602083019390935260ff16600a0a918101919091529350505050919050565b6000620f424082601a81111561238857fe5b0192915050565b6000806123a78860000151876107a761089088611315565b5060006123b2611308565b89516001600160a01b039081166000908152602092835260408082208a8352845280822061ffff8c1683529093529190912080548b519193506001600160501b0380821693600160501b90920416918b821691161461246d578161241857869350612429565b612426826119018984612a3e565b93505b6124398b8b8b8b61197189611315565b6124466114b58286611450565b83546001600160501b0391909116600160501b02600160501b600160a01b03199091161783555b61247a6114b58389611450565b83546001600160501b0319166001600160501b03919091161783556124ad8b8a8a6124a76108908c611315565b8a612c0c565b94508861ffff168a6001600160a01b03168c600001516001600160a01b03167fcfc1b6b346eef069f620fb8d8f016e1f3332f659a5efda8f7637051b7c121171878b604051611a09929190614954565b81810182811215600083121514610e5857600080fd5b600081612522575060006107da565b6000821361252f57600080fd5b600061253e8461ffff16610fb4565b9050600061254c8285612cd9565b905060048260600151600581111561256057fe5b141561258e57612587610639610890888861ffff1661257e866112a8565b87929190613127565b92506125b2565b6125af6106396108908761ffff16896125a6866112f5565b879291906131cf565b92505b50509392505050565b6125c3614209565b60006125cd613265565b6000858152602082815260408083208715158452825291829020825160a08101845281546001600160a01b038116825260ff600160a01b82048116151594830194909452600160b01b81048416600a0a9482019490945293945092916060830191600160a81b90910416600581111561264257fe5b81529154600160b81b900468ffffffffffffffffff16602090920191909152949350505050565b600080610e586015612376565b6000806000612683612782565b6000958652602090815260408087209587529490525050509020546501000000000081046001600160801b031691600160a81b90910460ff1690565b60008060008060006126d086613272565b909250905060006001600160a01b0383166126f55750600090506402540be400612777565b826001600160a01b0316631ee108336040518163ffffffff1660e01b8152600401602060405180830381600087803b15801561273057600080fd5b505af1158015612744573d6000803e3d6000fd5b505050506040513d601f19601f82011682018060405250810190612768919061465f565b90506000811361277757600080fd5b969195509350915050565b600080610e586008612376565b8181026000198314156127bf578115806127b15750828282816127ae57fe5b05145b6127ba57600080fd5b610e58565b8215806127d45750818382816127d157fe5b05145b610e5857600080fd5b6000816000191480156127f35750600160ff1b83145b156127fd57600080fd5b81838161280657fe5b059392505050565b600080600080600061281e6132a9565b6001600160a01b0388166000908152602082815260408083208a8452909152902080546001600160501b0381169650600160501b900463ffffffff169450909150831561288757805461288090600160701b900466ffffffffffffff166132b6565b925061289c565b8054600160701b900466ffffffffffffff1692505b54600160a81b9004600a90810b900b97939650919450925050565b60008112156128c557600080fd5b6128da60008361ffff168360008060006132c4565b8161ffff167fd3625f7b5926828151efe19f7ae655488287357d99ebe67e5fb20522ca739c0b82604051610a27919061494b565b60006001600160501b0382111561130457600080fd5b80820382811315600083121514610e5857600080fd5b60008061294a8761ffff16610fcc565b9050806040015160001415612969576129668761ffff16610fb4565b90505b60405163e937711160e01b81526129f4906001600160a01b0388169063e93771119061299d90899089908990600401614874565b60206040518083038186803b1580156129b557600080fd5b505afa1580156129c9573d6000803e3d6000fd5b505050506040513d601f19601f820116820180604052508101906129ed919061465f565b829061340b565b9150505b95945050505050565b6000697fffffffffffffffffff198212801590612a285750697fffffffffffffffffff8213155b61130457600080fd5b600080610e586019612376565b600082612a4d57506000610e58565b82820282848281612a5a57fe5b04146107da57600080fd5b6000808211612a7357600080fd5b818381612a7c57fe5b049392505050565b6000612a8e610ef4565b6001600160a01b038087166000908152602092835260408082208a519093168252919092529020805490915063ffffffff1683811480612acc575080155b612ae85760405162461bcd60e51b81526004016102db906149a0565b815461014088015151600160201b82046001600160501b0390811692600160701b9004169061ffff88811691161415612b6257612b2582866124fd565b9150612b336114b5836112f5565b84546001600160501b0391909116600160201b026dffffffffffffffffffff0000000019909116178455612bbc565b6101408901516020015161ffff8881169116141561011657612b8481866124fd565b9050612b926114b5826112f5565b84546001600160501b0391909116600160701b0269ffffffffffffffffffff60701b199091161784555b81158015612bc8575080155b15612bdd57835463ffffffff19168455612c01565b82612c0157612beb8661343b565b845463ffffffff191663ffffffff919091161784555b505050505050505050565b6000856040015161ffff168561ffff161415612c2757600080fd5b82612c34575060006129f8565b428411612c71576000831215612c4957600080fd5b6000612c5a8661ffff168642611138565b9050612c6961089082866112b6565b9150506129f8565b612c84858585858a61010001514261344e565b9050600083138015612c94575080155b15612cb057610160860151612cad9061089090856112b6565b90505b60008312156129f857600081136129f85760405162461bcd60e51b81526004016102db906149d7565b60006305f5e10083604001511415612cf2575080610e58565b6107da6305f5e1006112e785604001518561278f90919063ffffffff16565b604080516001600160a01b0384811660248084019190915283518084039091018152604490920183526020820180516001600160e01b03166001600160e01b0319861617815292518251600094859485948a16939092909182918083835b60208310612d8e5780518252601f199092019160209182019101612d6f565b6001836020036101000a038019825116818451168082178552505050505050905001915050600060405180830381855afa9150503d8060008114612dee576040519150601f19603f3d011682016040523d82523d6000602084013e612df3565b606091505b509150915081612e0257600080fd5b808060200190516020811015612e1757600080fd5b50519695505050505050565b612e2b613590565b54825160405163e8eda9df60e01b81526001600160a01b039092169163e8eda9df91612e60918590309060009060040161481f565b600060405180830381600087803b158015612e7a57600080fd5b505af1158015612e8e573d6000803e3d6000fd5b505050505050565b815160405163140e25ad60e31b81526000916001600160a01b03169063a0712d6890612ec690859060040161494b565b602060405180830381600087803b158015612ee057600080fd5b505af1158015612ef4573d6000803e3d6000fd5b505050506040513d601f19601f82011682018060405250810190612f18919061465f565b905080156110985760405162461bcd60e51b81526004016102db90614a6f565b81600001516001600160a01b0316631249c58b826040518263ffffffff1660e01b81526004016000604051808303818588803b158015612f7757600080fd5b505af1158015611f72573d6000803e3d6000fd5b600082821115611b3f576040805162461bcd60e51b815260206004820152601e60248201527f536166654d6174683a207375627472616374696f6e206f766572666c6f770000604482015290519081900360640190fd5b600080610e586014612376565b612ff7614238565b60008060006123408561359d565b61300d614238565b60008061301a8585612676565b915091508160001415613038576130308561359d565b919350909150505b6040805160608101825260008152602081019390935260ff909116600a0a90820152905092915050565b600081613071575060006112ed565b60008061307e8785613620565b91509150600061309d8760400151886000015188858c6000015161293a565b90506130bb6130ab84611315565b6101608901516117fc90846112b6565b98975050505050505050565b60006107da6130da84633b9aca0061278f565b836127dd565b6000610fa9876040518060a00160405280896001600160a01b03168152602001896001600160a01b0316815260200188815260200187815260200160008152508585613679565b8060058560600151600581111561313a57fe5b141561315f57600061314b84610fcc565b905061315b8160000151846138ff565b9250505b600082131561318b576000613175868685613985565b9050856020015115613185578091505b506112ed565b60038560600151600581111561319d57fe5b14156131ba576131b5846131b0846112a8565b613a78565b6112ed565b84516112ed90856131ca856112a8565b613aae565b6000806002866060015160058111156131e457fe5b14156131fc576131f5868585613b25565b9050613259565b600061320786610fcc565b905060058760600151600581111561321b57fe5b14156132335761322c818686613be2565b9150613257565b60018760600151600581111561324557fe5b14156101165761322c87828787613c8b565b505b610f2c61089082611315565b600080610e586007612376565b600080600061327f613d89565b600094855260205250506040909120546001600160a01b03811692600160a01b90910460ff169150565b600080610e586006612376565b600881901c60ff9091161b90565b60006132ce6132a9565b6001600160a01b0388166000908152602082815260408083208a845290915290209091506a7fffffffffffffffffffff19861280159061331957506a7fffffffffffffffffffff8613155b61332257600080fd5b6000851215801561333a57506001600160501b038513155b61334357600080fd5b836133835766ffffffffffffff83111561335c57600080fd5b805466ffffffffffffff60701b1916600160701b66ffffffffffffff85160217815561339d565b8054600160501b900463ffffffff16841461339d57600080fd5b8054600a9690960b6affffffffffffffffffffff16600160a81b026001600160a81b036001600160501b039096166001600160501b031963ffffffff909616600160501b0263ffffffff60501b19909816979097179490941695909517939093169190911790925550505050565b60006305f5e10083604001511415613424575080610e58565b60408301516107da906112e7846305f5e10061278f565b600063ffffffff82111561130457600080fd5b60008061345e8861ffff16613d96565b9050838160ff16111561347057600080fd5b6000806134818360ff168a87613dac565b91509150801561349057600080fd5b600061349b89613e74565b90506affffffffffffffffffffff81106134b457600080fd5b600060788963ffffffff16901b609883901b60f086901b60f860008e136134dc5760016134df565b60005b60058111156134ea57fe5b60ff16901b17171760001b905073__TradingAction_________________________63e50f349e8d836040518363ffffffff1660e01b8152600401613530929190614e3d565b60206040518083038186803b15801561354857600080fd5b505af415801561355c573d6000803e3d6000fd5b505050506040513d601f19601f82011682018060405250810190613580919061465f565b9c9b505050505050505050505050565b600080610e586013612376565b60008060008060006135ae86613272565b909250905060006001600160a01b0383166135d35750600090506402540be400612777565b826001600160a01b031663b2fffb046040518163ffffffff1660e01b815260040160206040518083038186803b15801561360c57600080fd5b505afa158015612744573d6000803e3d6000fd5b600080600084606001511115610ab75761364f8460600151611901866080015186612a3e90919063ffffffff16565b915061367084606001516119018660a0015186612a3e90919063ffffffff16565b90509250929050565b60008061368d866040015161ffff16610fb4565b905060006004826060015160058111156136a357fe5b146136be576136b9876040015161ffff16610fcc565b6136c0565b815b905060008087608001511215613733576004836060015160058111156136e257fe5b14156136ff576136f861063988608001516112a8565b9050613733565b600061372061089089608001518b6101600151611a1f90919063ffffffff16565b905061372f6106398483611a4a565b9150505b6040870151600090156137f257600061374c8430611a86565b905089600001516001600160a01b03166344f051088a600001518b602001518c604001518d60600151888e8e6040518863ffffffff1660e01b815260040161379a97969594939291906147be565b600060405180830381600087803b1580156137b457600080fd5b505af11580156137c8573d6000803e3d6000fd5b5050505060006137e13086611a8690919063ffffffff16565b90506137ed8183611b30565b925050505b8181101561388d5780820360038460600151600581111561380f57fe5b141561384d57348111156138355760405162461bcd60e51b81526004016102db90614ad4565b6138458960000151823403613a78565b82915061388b565b60006138728a600001518c6040015161ffff1661386985611315565b88929190613127565b9050613887613880826112f5565b8490611450565b9250505b505b818110156138ad5760405162461bcd60e51b81526004016102db90614ad4565b60006004856060015160058111156138c157fe5b146138dc5760408a01516138d790869084611b45565b6138e5565b6138e582611315565b90506138f1858261340b565b9a9950505050505050505050565b60008161390e57506000610e58565b600061391984613e95565b9050600061392684613e74565b9050816b019d971e4fe8401e74000001600160ff1b038161394357fe5b0581131561395057600080fd5b6b033b2e3c9fd0803ce80000006b019d971e4fe8401e740000008383020105600085136129f857613980816112a8565b610f2c565b600080808060058760600151600581111561399c57fe5b146139ae576370a0823160e01b6139b7565b630ed1279f60e11b5b90508660200151156139d35786516139d0903083612d11565b92505b86516139e0908787613f20565b8660200151806139f4575060008760800151115b15613a09578651613a06903083612d11565b91505b608087015115613a44576000613a2788613a2285611315565b61340b565b9050613a368860800151611315565b811315613a4257600080fd5b505b866020015115613a6557613a5b6119078385612f8b565b93505050506107da565b613a5b85611315565b5050509392505050565b6040516001600160a01b0383169082156108fc029083906000818181858888f19350505050158015611098573d6000803e3d6000fd5b826001600160a01b031663a9059cbb83836040518363ffffffff1660e01b815260040180836001600160a01b0316815260200182815260200192505050600060405180830381600087803b158015613b0557600080fd5b505af1158015613b19573d6000803e3d6000fd5b50505050611098613f78565b825160405163db006a7560e01b8152600091479183916001600160a01b03169063db006a7590613b5990879060040161494b565b602060405180830381600087803b158015613b7357600080fd5b505af1158015613b87573d6000803e3d6000fd5b505050506040513d601f19601f82011682018060405250810190613bab919061465f565b90508015613bcb5760405162461bcd60e51b81526004016102db90614a8d565b47613bd68184612f8b565b9350613a6e8685613a78565b6000613bfd6106398560000151613bf885611315565b6138ff565b9050613c07613590565b548451604051631a4ca37b60e21b81526001600160a01b03909216916369328dec91613c3991859088906004016147fc565b602060405180830381600087803b158015613c5357600080fd5b505af1158015613c67573d6000803e3d6000fd5b505050506040513d601f19601f82011682018060405250810190611448919061465f565b82516000908190613ca490306370a0823160e01b612d11565b9050600086600001516001600160a01b031663db006a75856040518263ffffffff1660e01b8152600401613cd8919061494b565b602060405180830381600087803b158015613cf257600080fd5b505af1158015613d06573d6000803e3d6000fd5b505050506040513d601f19601f82011682018060405250810190613d2a919061465f565b90508015613d4a5760405162461bcd60e51b81526004016102db90614a8d565b8551600090613d6190306370a0823160e01b612d11565b9050613d6d8184612f8b565b9350613d7e87600001518786613aae565b505050949350505050565b600080610e58600f612376565b600080613da283613fe9565b60ff169392505050565b60008060008511613dcf5760405162461bcd60e51b81526004016102db90614b04565b6007851115613df05760405162461bcd60e51b81526004016102db90614bde565b6000613dfb84614006565b905060015b868111613e53576000613e1c613e1583614024565b84906140c8565b905086811415613e345750925060009150613e6c9050565b86811115613e4a5750925060019150613e6c9050565b50600101613e00565b5060405162461bcd60e51b81526004016102db90614cf8565b935093915050565b600080821215613e8e57613e87826112a8565b9050610fc7565b5080610fc7565b6000610e58613ea2613590565b5460405163d15e005360e01b81526001600160a01b039091169063d15e005390613ed09086906004016147aa565b60206040518083038186803b158015613ee857600080fd5b505afa158015613efc573d6000803e3d6000fd5b505050506040513d601f19601f82011682018060405250810190611907919061465f565b604080516323b872dd60e01b81526001600160a01b038481166004830152306024830152604482018490529151918516916323b872dd9160648082019260009290919082900301818387803b158015613b0557600080fd5b6000613f82614262565b3d8015613f965760208114613f9f57600080fd5b60019250613faa565b60206000833e815192505b5081613fe5576040805162461bcd60e51b8152602060048201526005602482015264045524332360dc1b604482015290519081900360640190fd5b5050565b600080613ff4614122565b60009384526020525050604090205490565b60006276a70082101561401857600080fd5b506276a7008106900390565b6000816001141561403957506276a700610fc7565b816002141561404c575062ed4e00610fc7565b816003141561406057506301da9c00610fc7565b816004141561407457506303b53800610fc7565b816005141561408857506309450c00610fc7565b816006141561409c575063128a1800610fc7565b81600714156140b057506325143000610fc7565b60405162461bcd60e51b81526004016102db90614b33565b6000828201838110156107da576040805162461bcd60e51b815260206004820152601b60248201527f536166654d6174683a206164646974696f6e206f766572666c6f770000000000604482015290519081900360640190fd5b600080610e586009612376565b60405180604001604052806002906020820280368337509192915050565b6040518060e001604052806000815260200160008152602001600015158152602001600081526020016000815260200160008152602001600081525090565b60405180610180016040528060006001600160a01b03168152602001600061ffff168152602001600061ffff168152602001600081526020016000815260200160008152602001600081526020016000815260200160008152602001600081526020016141f761412f565b8152602001614204614238565b905290565b6040805160a0810182526000808252602082018190529181018290529060608201908152602001600081525090565b604051806060016040528060006001600160a01b0316815260200160008152602001600081525090565b60405180602001604052806001906020820280368337509192915050565b80356001600160a01b0381168114610fc757600080fd5b8060408101831015610e5857600080fd5b60008083601f8401126142b9578182fd5b50813567ffffffffffffffff8111156142d0578182fd5b602083019150836020828501011115610ab757600080fd5b80356001600160501b0381168114610fc757600080fd5b600060208284031215614310578081fd5b6107da82614280565b6000806040838503121561432b578081fd5b61433483614280565b915060208301358015158114614348578182fd5b809150509250929050565b60008060008385036101a0811215614369578182fd5b61437285614280565b9350610160601f1982011215614386578182fd5b5060208401915061439a61018085016142e8565b90509250925092565b600080604083850312156143b5578182fd5b6143be83614280565b91506020830135614348816150e0565b6000806000606084860312156143e2578283fd5b6143eb84614280565b925060208401356143fb816150e0565b929592945050506040919091013590565b600080600080600080600060c0888a031215614426578283fd5b61442f88614280565b9650602088013561443f816150e0565b95506040880135945060608801359350608088013561445d816150f3565b925060a088013567ffffffffffffffff811115614478578283fd5b6144848a828b016142a8565b989b979a50959850939692959293505050565b6000806000606084860312156144ab578283fd5b6144b484614280565b925060208401356144c4816150e0565b915061439a604085016142e8565b600080604083850312156144e4578182fd5b6144ed83614280565b946020939093013593505050565b60008060008060006101008688031215614513578081fd5b61451c86614280565b9450602086013593506145328760408801614297565b92506145418760808801614297565b91506145508760c08801614297565b90509295509295909350565b60008060008060008060a08789031215614574578384fd5b61457d87614280565b955061458b602088016142e8565b94506040870135935060608701359250608087013567ffffffffffffffff8111156145b4578283fd5b6145c089828a016142a8565b979a9699509497509295939492505050565b6000602082840312156145e3578081fd5b815167ffffffffffffffff808211156145fa578283fd5b818401915084601f83011261460d578283fd5b81518181111561461957fe5b604051601f8201601f19168101602001838111828210171561463757fe5b60405281815283820160200187101561464e578485fd5b610f2c826020830160208701614ec7565b600060208284031215614670578081fd5b5051919050565b600060208284031215614688578081fd5b81356107da816150e0565b600080600080606085870312156146a8578182fd5b8435935060208501359250604085013567ffffffffffffffff8111156146cc578283fd5b6146d8878288016142a8565b95989497509550505050565b6000602082840312156146f5578081fd5b81356107da816150f3565b600060208284031215614711578081fd5b81356107da81615105565b6001600160a01b03169052565b8060005b600281101561475057815161ffff1684526020938401939091019060010161472d565b50505050565b60008284528282602086013780602084860101526020601f19601f85011685010190509392505050565b80516001600160a01b0316825260208082015190830152604090810151910152565b61ffff169052565b6001600160a01b0391909116815260200190565b600060018060a01b03808a16835280891660208401525086604083015285606083015284608083015260c060a083015261202460c083018486614756565b6001600160a01b0393841681526020810192909252909116604082015260600190565b6001600160a01b03948516815260208101939093529216604082015261ffff909116606082015260800190565b600060018060a01b038616825284602083015260606040830152610f2c606083018486614756565b6001600160a01b039390931683526020830191909152604082015260600190565b600060018060a01b038716825285602083015284604083015260806060830152610fa9608083018486614756565b60408101818360005b60028110156148eb5781518352602092830192909101906001016148cc565b50505092915050565b901515815260200190565b91151582526001600160501b0316602082015260400190565b6000602082528251806020840152614937816040850160208701614ec7565b601f01601f19169190910160400192915050565b90815260200190565b918252602082015260400190565b93845260208401929092526040830152606082015260800190565b948552602085019390935260408401919091526060830152608082015260a00190565b6020808252601a908201527f496e76616c6964205365636f6e64617279204d61747572697479000000000000604082015260600190565b6020808252600d908201526c109bdc9c9bddc811985a5b1959609a1b604082015260600190565b60208082526011908201527052656465656d20616c6c20746f6b656e7360781b604082015260600190565b60208082526006908201526514185d5cd95960d21b604082015260600190565b6020808252600c908201526b155b985d5d1a1bdc9a5e995960a21b604082015260600190565b602080825260049082015263135a5b9d60e21b604082015260600190565b60208082526006908201526552656465656d60d01b604082015260600190565b6020808252600d908201526c556e7061696420426f72726f7760981b604082015260600190565b602080825260169082015275125b9cdd59999a58da595b9d081c995c185e5b595b9d60521b604082015260600190565b60208082526015908201527410d1ce881b9bc81b585c9ad95d1cc81b1a5cdd1959605a1b604082015260600190565b6020808252600d908201526c092dcecc2d8d2c840d2dcc8caf609b1b604082015260600190565b6020808252601d908201527f496e73756666696369656e74205365636f6e6461727920426f72726f77000000604082015260600190565b6020808252600d908201526c43616e6e6f7420536574746c6560981b604082015260600190565b6020808252600c908201526b4d617820436170616369747960a01b604082015260600190565b60208082526016908201527510d1ce881b585c9ad95d081a5b99195e08189bdd5b9960521b604082015260600190565b60208082526010908201526f496e76616c69642043757272656e637960801b604082015260600190565b6020808252818101527f4f776e61626c653a2063616c6c6572206973206e6f7420746865206f776e6572604082015260600190565b60208082526017908201527f496e73756666696369656e7420436f6c6c61746572616c000000000000000000604082015260600190565b6020808252600e908201526d1499595b9d1c985b9d0818d85b1b60921b604082015260600190565b602080825260129082015271496e73756666696369656e7420526570617960701b604082015260600190565b60208082526013908201527210d1ce881b9bc81b585c9ad95d08199bdd5b99606a1b604082015260600190565b60006101e082019050614d3982845161471c565b6020830151614d4b60208401826147a2565b506040830151614d5e60408401826147a2565b50606083015160608301526080830151608083015260a083015160a083015260c083015160c083015260e083015160e083015261010080840151818401525061012080840151818401525061014080840151614dbc82850182614729565b5050610160830151614dd2610180840182614780565b5092915050565b600060e0820190508251825260208301516020830152604083015115156040830152606083015160608301526080830151608083015260a083015160a083015260c083015160c083015292915050565b6001600160801b0391909116815260200190565b61ffff929092168252602082015260400190565b6001600160501b0391909116815260200190565b81816000805b6002808210614e7a5750612e8e565b8435614e85816150e0565b845461ffff6008860281811b801990931693909116901b161784556020949094019390910190601e821115614ebf57600091506001830192505b600101614e6b565b60005b83811015614ee2578181015183820152602001614eca565b838111156147505750506000910152565b60008135610e58816150e0565b60008135610e58816150f3565b60008135610e5881615105565b8135614f25816150e0565b61ffff811661ffff1983541617825550614f4a614f4460208401614ef3565b82615082565b614f5f614f5960408401614f00565b8261509e565b614f74614f6e60608401614ef3565b826150c2565b614f89614f8360808401614f0d565b82614fef565b614f9e614f9860a08401614f0d565b8261500c565b614fb3614fad60c08401614f0d565b82615029565b614fc8614fc260e08401614f0d565b82615046565b614fde614fd86101008401614ef3565b82615063565b613fe5610120830160018301614e65565b805460ff60501b191660509290921b60ff60501b16919091179055565b805460ff60581b191660589290921b60ff60581b16919091179055565b805460ff60601b191660609290921b60ff60601b16919091179055565b805460ff60681b191660689290921b60ff60681b16919091179055565b805461ffff60701b191660709290921b61ffff60701b16919091179055565b805463ffff00008360101b1663ffff0000198216178255505050565b805467ffffffff000000008360201b1667ffffffff00000000198216178255505050565b805461ffff60401b8360401b1661ffff60401b198216178255505050565b61ffff811681146150f057600080fd5b50565b63ffffffff811681146150f057600080fd5b60ff811681146150f057600080fdfea2646970667358221220a3cd8d24411dc61fcfb2d6f3e67eb65fc7bfc5a1fb701c87e548163ab8835f1a64736f6c63430007060033",
  "bytecodeSha1": "14b7c2f9adde9bab4f69f174b2b69e8c3a753548",
  "compiler": {
    "evm_version": "istanbul",
    "optimizer": {
      "enabled": true,
      "runs": 200
    },
    "version": "0.7.6+commit.7338295f"
  },
  "contractName": "VaultAction",
  "deployedBytecode": "608060405234801561001057600080fd5b50600436106101165760003560e01c806382463367116100a2578063c4c96dae11610071578063c4c96dae1461023e578063d04c16ac14610246578063d6ddeb9a14610259578063de1eb9a31461026c578063ee01436b1461028c57610116565b806382463367146102085780638da5cb5b14610210578063a14db57c14610218578063b3c475461461022b57610116565b806331572281116100e9578063315722811461018157806350e4f223146101a157806356f428c4146101c157806367515776146101d45780636c346c09146101f557610116565b80630bc08cdc1461011b57806324a3d62214610144578063291afdf314610159578063295e6b7f1461016e575b600080fd5b61012e6101293660046144fb565b61029f565b60405161013b91906148c3565b60405180910390f35b61014c61045e565b60405161013b91906147aa565b61016c610167366004614497565b61046d565b005b61016c61017c3660046144d2565b610589565b61019461018f3660046144d2565b6107c8565b60405161013b9190614dd9565b6101b46101af36600461440c565b6107e1565b60405161013b9190614918565b61016c6101cf366004614319565b6109b3565b6101e76101e23660046143a3565b610a33565b60405161013b929190614954565b6101e76102033660046144d2565b610a83565b61014c610abe565b61014c610acd565b6101e76102263660046143ce565b610ae3565b61016c610239366004614353565b610b3d565b61014c610bf5565b61016c610254366004614693565b610c0d565b61016c61026736600461455c565b610d95565b61027f61027a3660046142ff565b610e47565b60405161013b9190614d25565b6101e761029a366004614693565b610e5e565b6102a761412f565b60006102b233610eb0565b90506102bf816001610edf565b6102e45760405162461bcd60e51b81526004016102db90614a29565b60405180910390fd5b610140810151805161ffff16158015906103055750602081015161ffff1615155b61030e57600080fd5b61031661412f565b610321836002610edf565b801561033657506001600160a01b0389163314155b156103fb576000610345610ef4565b6001600160a01b03808c1660009081526020928352604080822088519093168252919092529020805490915063ffffffff1680156103f85789811061038957600080fd5b6103c6858c866000602002015185548590600160201b90046001600160501b03168c60005b6020020160208101906103c191906146e4565b610f01565b8352602084015182546103f29187918e91908590600160701b90046001600160501b03168c60016103ae565b60208401525b50505b815181516104289185918c91908c908c358c60005b60200201602081019061042391906146e4565b610f36565b84526020828101518282015161044c9286928d9290918d91908d01358c6001610410565b60208501525091979650505050505050565b6002546001600160a01b031681565b600054600160201b90046001600160a01b0316331461049e5760405162461bcd60e51b81526004016102db90614c38565b60006104a984610eb0565b905060006104ba8461ffff16610fb4565b905060006104cb8561ffff16610fcc565b905081602001511580156104e157508060200151155b6104ea57600080fd5b6101408301515161ffff8681169116148061051457506101408301516020015161ffff8681169116145b6105305760405162461bcd60e51b81526004016102db90614c0e565b61053b868686610fdf565b8461ffff16866001600160a01b03167f8f868f60e49b80b48ee5de8b7bc703cfc4b5c826a05d3ea1b00cf4159c155a90866040516105799190614e51565b60405180910390a3505050505050565b6002600a5414156105ac5760405162461bcd60e51b81526004016102db90614ca4565b6002600a5560006105bc83610eb0565b90506105ca81336040611033565b60006105d6848461109d565b90504283111580156105ea57506040810151155b6106065760405162461bcd60e51b81526004016102db90614b91565b600061061b836040015161ffff168542611138565b9050600061063e61063961063285602001516112a8565b84906112b6565b6112f5565b9050600061064a611308565b6001600160a01b038816600090815260209182526040808220898352909252206101408601515190915061ffff16156106bd576101408501515161ffff166000908152602082905260409020546001600160501b0316156106bd5760405162461bcd60e51b81526004016102db90614aad565b6101408501516020015161ffff16156107145761014085015160209081015161ffff1660009081529082905260409020546001600160501b0316156107145760405162461bcd60e51b81526004016102db90614aad565b81846080015110156107915760a0840151156107425760405162461bcd60e51b81526004016102db906149fe565b600061075385608001518403611315565b9050600061076d610639886000015189604001518561132b565b608087015190915061077f9082611450565b608087015261078e868a611462565b50505b6107ac8786604001516107a787602001516112a8565b6115d1565b506107ba84868589426116d7565b50506001600a555050505050565b6107d061414d565b6107da838361109d565b9392505050565b606060006107ee33610eb0565b90506107fb816001610edf565b6108175760405162461bcd60e51b81526004016102db90614a29565b600080610828838c8c8c8c8c61189d565b91509150600061083b8b61ffff16610fb4565b905060008060048360600151600581111561085257fe5b14610869576108648d61ffff16610fcc565b61086b565b825b9050600061089c610639610895610890898b6101600151611a1f90919063ffffffff16565b6112a8565b8490611a4a565b905060006108aa8330611a86565b9050336001600160a01b031663fdf7c1ce8460000151848e8e6040518563ffffffff1660e01b81526004016108e2949392919061484c565b600060405180830381600087803b1580156108fc57600080fd5b505af1158015610910573d6000803e3d6000fd5b505050506040513d6000823e601f3d908101601f1916820160405261093891908101906145d2565b985060006109468430611a86565b90506109528183611b30565b9450828510156109745760405162461bcd60e51b81526004016102db90614ccc565b5060049250610981915050565b8260600151600581111561099157fe5b146109a3576109a1828d83611b45565b505b5050505050979650505050505050565b600054600160201b90046001600160a01b031633146109e45760405162461bcd60e51b81526004016102db90614c38565b6109ee8282611c2c565b816001600160a01b03167f7c51c6aa77346c54cb051d9e792f9b7bde5c28a9b57e6fb2d2dd727b38438ca982604051610a2791906148f4565b60405180910390a25050565b6000806000610a40611c8c565b6001600160a01b0390951660009081526020958652604080822061ffff9096168252949095525050509020546001600160501b03600160501b8204811692911690565b6000806000610a9185611c99565b90506000610aa382600001518661109d565b9050610ab0828287611cbd565b9350935050505b9250929050565b6001546001600160a01b031681565b600054600160201b90046001600160a01b031681565b6000806000610af0611308565b6001600160a01b0390961660009081526020968752604080822095825294875284812061ffff90961681529490955250509020546001600160501b0380821693600160501b909204169150565b600054600160201b90046001600160a01b03163314610b6e5760405162461bcd60e51b81526004016102db90614c38565b610b788383611d76565b610b9283610b8c6040850160208601614677565b83610fdf565b6000600180610ba46020860186614677565b1661ffff16149050836001600160a01b03167fb441d7ca09abc712b4504256717707ce40e8d43895266b46abf9cd58619c07dc8284604051610be79291906148ff565b60405180910390a250505050565b73__$7ac922d04bd7a1b42c7f6e5f1dd89a70af$__90565b6002600a541415610c305760405162461bcd60e51b81526004016102db90614ca4565b6002600a556000610c4033610eb0565b9050610c4d816001610edf565b610c695760405162461bcd60e51b81526004016102db90614a29565b610c74816080610edf565b15610c7f576001600a555b6000610c8b338761109d565b90506000610ca0836040015161ffff16610fb4565b90506000610cc28460000151610cb589611315565b8691908b60008b8b611f7b565b6080840151909150610cd49088611b30565b608084015260a0830151610ce89082611450565b60a0840152610cf78333611462565b6000610d1a8433866060015187602001518961203190949392919063ffffffff16565b509050808560a001511315610d415760405162461bcd60e51b81526004016102db90614c6d565b88336001600160a01b03167fbba43506b1f3723add796bf603adde56bc018392a95775b9f76c31213b4161bb8a85604051610d7d929190614954565b60405180910390a350506001600a5550505050505050565b600054600160201b90046001600160a01b03163314610dc65760405162461bcd60e51b81526004016102db90614c38565b6000610dd187610eb0565b9050610de287826040015188610fdf565b610def8186868686612099565b50506001600160a01b0387167fb441d7ca09abc712b4504256717707ce40e8d43895266b46abf9cd58619c07dc610e27836001610edf565b88604051610e369291906148ff565b60405180910390a250505050505050565b610e4f61418c565b610e5882611c99565b92915050565b6000806000610e6c33610eb0565b9050610e79816001610edf565b610e955760405162461bcd60e51b81526004016102db90614a29565b610ea28188888888612099565b925092505094509492505050565b610eb861418c565b610ec1826121ad565b9050610ed4816040015161ffff1661232a565b610160820152919050565b60209190910151811661ffff90811691161490565b600080610e58601a612376565b600061ffff851615801590610f1557508215155b15610f2c57610f2887878787878761189d565b5090505b9695505050505050565b600061ffff86161580610f47575082155b15610f5457506000610fa9565b600080610f658a8a8a8a898961238f565b9092509050610f7482876124fd565b91506000821215610f975760405162461bcd60e51b81526004016102db90614b5a565b8951610fa4908984612513565b925050505b979650505050505050565b610fbc614209565b610e588260006125bb565b919050565b610fd4614209565b610e588260016125bb565b6000610fe9611c8c565b6001600160a01b0390941660009081526020948552604080822061ffff90951682529390945250912080546001600160501b039092166001600160501b0319909216919091179055565b61103d8382610edf565b156110705782516001600160a01b0316331461106b5760405162461bcd60e51b81526004016102db90614a49565b611098565b6001600160a01b03821633146110985760405162461bcd60e51b81526004016102db90614a49565b505050565b6110a561414d565b60006110af612669565b6001600160a01b03909416600090815260209485526040808220858352865280822094845284546001600160501b038082169093039685019690965260ff600160f01b870416151590840152600160501b8086048216608085015260019094015480821660a0850152600160a01b909504166060830152509104600990810b900b60c082015290565b611140614238565b60008061114d8686612676565b91509150816000141561127d576000611165876126bf565b91945090925090506001600160a01b0381161561127b576000611186612782565b90508560001080156111985750858711155b80156111a9575064ffffffffff8611155b6111b257600080fd5b8360001280156111c957506001600160801b038413155b6111d257600080fd5b6000888152602082815260408083208a845290915290819020805464ffffffffff191664ffffffffff89161774ffffffffffffffffffffffffffffffff00000000001916650100000000006001600160801b038816021760ff60a81b1916600160a81b60ff871602178155905188908a907f0fdfa6885701e2f1f42e4187b9231cf81c1fe23671ef64fa46f34ddb56c1dc1890611270908990614e29565b60405180910390a350505b505b6040805160608101825260008152602081019390935260ff909116600a0a9082015290509392505050565b6000610e586000198361278f565b6000806112ed84602001516112e786604001516112e16402540be4008861278f90919063ffffffff16565b9061278f565b906127dd565b949350505050565b60008082121561130457600080fd5b5090565b600080610e586018612376565b60006001600160ff1b0382111561130457600080fd5b6000611338846000611c2c565b836001600160a01b03167f7c51c6aa77346c54cb051d9e792f9b7bde5c28a9b57e6fb2d2dd727b38438ca9600060405161137291906148f4565b60405180910390a28261ffff16846001600160a01b03167fc6525e68251be388040a5488ac0c1bbae9e15b03af12e7eb84fc2e7ff2b46384846040516113b8919061494b565b60405180910390a360006113d160008561ffff1661280e565b50505090508083136113f1576113e9848483036128b7565b829150611448565b6113fc8460006128b7565b8361ffff16856001600160a01b03167fc83c39f2d248d6443025da5caee781f1d927fb0c59598b7c6084738fe7113e2283860360405161143c919061494b565b60405180910390a38091505b509392505050565b6000828201838110156107da57600080fd5b600061146c612669565b6001600160a01b03831660009081526020828152604080832087518452909152908190209085015191925090156114a257600080fd5b6114ba6114b561063986602001516112a8565b61290e565b81546001600160501b0319166001600160501b039190911617815560808401516114e39061290e565b81546001600160501b0391909116600160501b02600160501b600160a01b031990911617815560a08401516115179061290e565b6001820180546001600160501b0319166001600160501b039290921691909117905560608401516115479061290e565b81546001600160501b0391909116600160a01b0269ffffffffffffffffffff60a01b1990911617815583516020850151608086015160a087015160608801516040516001600160a01b038916947f3a0fdaecf7b5da75a56077f5b1c8fbc88f9b08e9d0c4db31eb34e25bc6700cde946115c39491939092614962565b60405180910390a350505050565b6000806115dc611c8c565b6001600160a01b03861660009081526020918252604080822061ffff8816835290925220805490915061161f90600160501b90046001600160501b031684612924565b915060008312156116545780546001600160501b03168213156116545760405162461bcd60e51b81526004016102db90614bb8565b6116606114b5836112f5565b81546001600160501b0391909116600160501b02600160501b600160a01b031990911617815560405161ffff8516906001600160a01b038716907f20478ef460e49d010960d4f3fff35d8dae385443abfac09035d6a2ccbcd834c4906116c790869061494b565b60405180910390a3509392505050565b60006116e1612669565b85516001600160a01b03166000908152602082815260408083208784529091529020805491925090600160f01b900460ff161561171d57600080fd5b8284111561172a57600080fd5b6040860151865160009161174491806305f5e1008961293a565b825460ff60f01b1916600160f01b178355905061176081612a01565b82600101600a6101000a8154816001600160501b03021916908360090b6001600160501b031602179055506000611795612a31565b88516001600160a01b031660009081526020918252604080822089835283529020600185015481546001600160501b0319166001600160501b03909116178155908a015190915061180790611802906117ef908a906112b6565b6117fc8c60800151611315565b906124fd565b612a01565b815460099190910b6001600160501b0316600160501b02600160501b600160a01b03199091161781558851885160208b015160808c015160a08d015160608e01516040516001600160a01b03909516947fe66a863186dba5a66d19d3d91a66b76a7cbfdefd0d8c29c662274b13febb166e9461188a949093909290918a9061497d565b60405180910390a3505050505050505050565b60008060006118aa611308565b89516001600160a01b0316600090815260209182526040808220898352835280822061ffff8b1683529092522080549091506001600160501b0380821691600160501b90041661190c611907826119018a86612a3e565b90612a65565b611315565b93508a600001516001600160a01b03168a6001600160a01b031614611976576119386114b58289611b30565b83546001600160501b0391909116600160501b02600160501b600160a01b03199091161783556119768b8b8b8b6119716108908d611315565b612a84565b8a51611983908a866115d1565b506119916114b58386611b30565b83546001600160501b0319166001600160501b03919091161783556119b98b8a8a878a612c0c565b94508861ffff168a6001600160a01b03168c600001516001600160a01b03167fe600bdb35f19bee41e408c7eb7a5274715d195849a3773c90dec48e2ff9513d78a88604051611a09929190614954565b60405180910390a4505050965096945050505050565b6000806112ed84604001516112e76402540be4006112e787896020015161278f90919063ffffffff16565b60006305f5e10083604001511215611a7257611a6b60016117fc8585612cd9565b9050610e58565b6107da83611a818460016124fd565b612cd9565b6000600383606001516005811115611a9a57fe5b1415611ab157506001600160a01b03811631610e58565b82516040516370a0823160e01b81526001600160a01b03909116906370a0823190611ae09085906004016147aa565b60206040518083038186803b158015611af857600080fd5b505afa158015611b0c573d6000803e3d6000fd5b505050506040513d601f19601f82011682018060405250810190611a6b919061465f565b600082821115611b3f57600080fd5b50900390565b600080600585606001516005811115611b5a57fe5b14611b6c576370a0823160e01b611b75565b630ed1279f60e11b5b90506000611b8886600001513084612d11565b9050600586606001516005811115611b9c57fe5b1415611bc3576000611bb18661ffff16610fcc565b9050611bbd8186612e23565b50611c0c565b600186606001516005811115611bd557fe5b1415611bea57611be58685612e96565b611c0c565b600286606001516005811115611bfc57fe5b141561011657611be58685612f38565b6000611c1d87600001513085612d11565b9050610fa96119078284612f8b565b6000611c36612fe2565b6001600160a01b038416600090815260208290526040902080549192509061ffff168315611c7557815461ffff19166001821761ffff16178255611c85565b815461ffff191661fffe82161782555b5050505050565b600080610e586017612376565b611ca161418c565b611caa826121ad565b9050610ed4816040015161ffff16612fef565b6000806000611cd4866040015161ffff1685613005565b90506000611cfb610890611ceb8860800151611315565b60208901516117fc9086906112b6565b90506000611d10886040015161ffff16610fb4565b9050611d1c8183612cd9565b9450600481606001516005811115611d3057fe5b1415611d3e57849350611d6b565b6000611d51896040015161ffff16610fcc565b9050611d67611d608585611a1f565b8290611a4a565b9450505b505050935093915050565b6000611d80612fe2565b9050611d9260c0830160a08401614700565b60ff1660641315611da257600080fd5b6064611db460e0840160c08501614700565b60ff161315611dc257600080fd5b611dd3610100830160e08401614700565b60ff16611ddf57600080fd5b611df161012083016101008401614677565b61ffff16611e056080840160608501614677565b61ffff1610611e1357600080fd5b611e2561014083016101208401614677565b61ffff16611e396040840160208501614677565b61ffff161415611e4857600080fd5b611e5a61016083016101408401614677565b61ffff16611e6e6040840160208501614677565b61ffff161415611e7d57600080fd5b611e8f61014083016101208401614677565b61ffff1615801590611eb55750611eae61016083016101408401614677565b61ffff1615155b15611ef157611ecc61016083016101408401614677565b61ffff16611ee261014084016101208501614677565b61ffff161415611ef157600080fd5b6000611f0f611f066040850160208601614677565b61ffff16610fb4565b90506000611f2f611f266040860160208701614677565b61ffff16610fcc565b90508160200151158015611f4557508060200151155b611f4e57600080fd5b6001600160a01b03851660009081526020849052604090208490611f728282614f1a565b50505050505050565b600080611f9189600001518a6040015189612513565b89519091506001600160a01b031663dc6679c589611faf8489611450565b8988886040518663ffffffff1660e01b8152600401611fd2959493929190614895565b602060405180830381600087803b158015611fec57600080fd5b505af1158015612000573d6000803e3d6000fd5b505050506040513d601f19601f82011682018060405250810190612024919061465f565b9998505050505050505050565b60008061204086888787613062565b9050600061205c612050856112a8565b6101608a0151906112b6565b9050600061206a8383612924565b905081612080576001600160ff1b03935061208d565b61208a81836130c7565b93505b50509550959350505050565b6000806002600a5414156120bf5760405162461bcd60e51b81526004016102db90614ca4565b6002600a556120cf876080610edf565b156120da576001600a555b60006120ea88600001518861109d565b8851909150600090612101908a90898b8a8a6130e0565b90506000811361211057600080fd5b608082015161211f9082611450565b608083015260a08201516121339088611b30565b60a08301528851612145908390611462565b8789600001516001600160a01b03167fb2f70c3fe73b5aee7e8c59b77222111306f1e4d7170f8fa1c09979bb847eb9d9838a604051612185929190614954565b60405180910390a361219889838a611cbd565b6001600a55909a909950975050505050505050565b6121b561418c565b60006121bf612fe2565b6001600160a01b03841660008181526020838152604091829020928652825461ffff80821692880192909252620100008104909116918601919091529192509061221f9063ffffffff600160201b9091048116906305f5e1009061278f16565b6060840152805461223d90600160501b900460ff166207a120612a3e565b608084015280546122619068010000000000000000900461ffff16620186a0612a3e565b60a0840152805461228090600160701b900461ffff16620186a0612a3e565b610120840152805460649060ff600160581b90910416633b9aca00020560c08401528054600160601b810460ff90811660e0860152600160681b909104166101008401526040805180820191829052906001830190600290826000855b82829054906101000a900461ffff1661ffff16815260200190600201906020826001010492830192600103820291508084116122dd57905050505050508361014001819052505050919050565b612332614238565b6000806000612340856126bf565b604080516060810182526001600160a01b039093168352602083019390935260ff16600a0a918101919091529350505050919050565b6000620f424082601a81111561238857fe5b0192915050565b6000806123a78860000151876107a761089088611315565b5060006123b2611308565b89516001600160a01b039081166000908152602092835260408082208a8352845280822061ffff8c1683529093529190912080548b519193506001600160501b0380821693600160501b90920416918b821691161461246d578161241857869350612429565b612426826119018984612a3e565b93505b6124398b8b8b8b61197189611315565b6124466114b58286611450565b83546001600160501b0391909116600160501b02600160501b600160a01b03199091161783555b61247a6114b58389611450565b83546001600160501b0319166001600160501b03919091161783556124ad8b8a8a6124a76108908c611315565b8a612c0c565b94508861ffff168a6001600160a01b03168c600001516001600160a01b03167fcfc1b6b346eef069f620fb8d8f016e1f3332f659a5efda8f7637051b7c121171878b604051611a09929190614954565b81810182811215600083121514610e5857600080fd5b600081612522575060006107da565b6000821361252f57600080fd5b600061253e8461ffff16610fb4565b9050600061254c8285612cd9565b905060048260600151600581111561256057fe5b141561258e57612587610639610890888861ffff1661257e866112a8565b87929190613127565b92506125b2565b6125af6106396108908761ffff16896125a6866112f5565b879291906131cf565b92505b50509392505050565b6125c3614209565b60006125cd613265565b6000858152602082815260408083208715158452825291829020825160a08101845281546001600160a01b038116825260ff600160a01b82048116151594830194909452600160b01b81048416600a0a9482019490945293945092916060830191600160a81b90910416600581111561264257fe5b81529154600160b81b900468ffffffffffffffffff16602090920191909152949350505050565b600080610e586015612376565b6000806000612683612782565b6000958652602090815260408087209587529490525050509020546501000000000081046001600160801b031691600160a81b90910460ff1690565b60008060008060006126d086613272565b909250905060006001600160a01b0383166126f55750600090506402540be400612777565b826001600160a01b0316631ee108336040518163ffffffff1660e01b8152600401602060405180830381600087803b15801561273057600080fd5b505af1158015612744573d6000803e3d6000fd5b505050506040513d601f19601f82011682018060405250810190612768919061465f565b90506000811361277757600080fd5b969195509350915050565b600080610e586008612376565b8181026000198314156127bf578115806127b15750828282816127ae57fe5b05145b6127ba57600080fd5b610e58565b8215806127d45750818382816127d157fe5b05145b610e5857600080fd5b6000816000191480156127f35750600160ff1b83145b156127fd57600080fd5b81838161280657fe5b059392505050565b600080600080600061281e6132a9565b6001600160a01b0388166000908152602082815260408083208a8452909152902080546001600160501b0381169650600160501b900463ffffffff169450909150831561288757805461288090600160701b900466ffffffffffffff166132b6565b925061289c565b8054600160701b900466ffffffffffffff1692505b54600160a81b9004600a90810b900b97939650919450925050565b60008112156128c557600080fd5b6128da60008361ffff168360008060006132c4565b8161ffff167fd3625f7b5926828151efe19f7ae655488287357d99ebe67e5fb20522ca739c0b82604051610a27919061494b565b60006001600160501b0382111561130457600080fd5b80820382811315600083121514610e5857600080fd5b60008061294a8761ffff16610fcc565b9050806040015160001415612969576129668761ffff16610fb4565b90505b60405163e937711160e01b81526129f4906001600160a01b0388169063e93771119061299d90899089908990600401614874565b60206040518083038186803b1580156129b557600080fd5b505afa1580156129c9573d6000803e3d6000fd5b505050506040513d601f19601f820116820180604052508101906129ed919061465f565b829061340b565b9150505b95945050505050565b6000697fffffffffffffffffff198212801590612a285750697fffffffffffffffffff8213155b61130457600080fd5b600080610e586019612376565b600082612a4d57506000610e58565b82820282848281612a5a57fe5b04146107da57600080fd5b6000808211612a7357600080fd5b818381612a7c57fe5b049392505050565b6000612a8e610ef4565b6001600160a01b038087166000908152602092835260408082208a519093168252919092529020805490915063ffffffff1683811480612acc575080155b612ae85760405162461bcd60e51b81526004016102db906149a0565b815461014088015151600160201b82046001600160501b0390811692600160701b9004169061ffff88811691161415612b6257612b2582866124fd565b9150612b336114b5836112f5565b84546001600160501b0391909116600160201b026dffffffffffffffffffff0000000019909116178455612bbc565b6101408901516020015161ffff8881169116141561011657612b8481866124fd565b9050612b926114b5826112f5565b84546001600160501b0391909116600160701b0269ffffffffffffffffffff60701b199091161784555b81158015612bc8575080155b15612bdd57835463ffffffff19168455612c01565b82612c0157612beb8661343b565b845463ffffffff191663ffffffff919091161784555b505050505050505050565b6000856040015161ffff168561ffff161415612c2757600080fd5b82612c34575060006129f8565b428411612c71576000831215612c4957600080fd5b6000612c5a8661ffff168642611138565b9050612c6961089082866112b6565b9150506129f8565b612c84858585858a61010001514261344e565b9050600083138015612c94575080155b15612cb057610160860151612cad9061089090856112b6565b90505b60008312156129f857600081136129f85760405162461bcd60e51b81526004016102db906149d7565b60006305f5e10083604001511415612cf2575080610e58565b6107da6305f5e1006112e785604001518561278f90919063ffffffff16565b604080516001600160a01b0384811660248084019190915283518084039091018152604490920183526020820180516001600160e01b03166001600160e01b0319861617815292518251600094859485948a16939092909182918083835b60208310612d8e5780518252601f199092019160209182019101612d6f565b6001836020036101000a038019825116818451168082178552505050505050905001915050600060405180830381855afa9150503d8060008114612dee576040519150601f19603f3d011682016040523d82523d6000602084013e612df3565b606091505b509150915081612e0257600080fd5b808060200190516020811015612e1757600080fd5b50519695505050505050565b612e2b613590565b54825160405163e8eda9df60e01b81526001600160a01b039092169163e8eda9df91612e60918590309060009060040161481f565b600060405180830381600087803b158015612e7a57600080fd5b505af1158015612e8e573d6000803e3d6000fd5b505050505050565b815160405163140e25ad60e31b81526000916001600160a01b03169063a0712d6890612ec690859060040161494b565b602060405180830381600087803b158015612ee057600080fd5b505af1158015612ef4573d6000803e3d6000fd5b505050506040513d601f19601f82011682018060405250810190612f18919061465f565b905080156110985760405162461bcd60e51b81526004016102db90614a6f565b81600001516001600160a01b0316631249c58b826040518263ffffffff1660e01b81526004016000604051808303818588803b158015612f7757600080fd5b505af1158015611f72573d6000803e3d6000fd5b600082821115611b3f576040805162461bcd60e51b815260206004820152601e60248201527f536166654d6174683a207375627472616374696f6e206f766572666c6f770000604482015290519081900360640190fd5b600080610e586014612376565b612ff7614238565b60008060006123408561359d565b61300d614238565b60008061301a8585612676565b915091508160001415613038576130308561359d565b919350909150505b6040805160608101825260008152602081019390935260ff909116600a0a90820152905092915050565b600081613071575060006112ed565b60008061307e8785613620565b91509150600061309d8760400151886000015188858c6000015161293a565b90506130bb6130ab84611315565b6101608901516117fc90846112b6565b98975050505050505050565b60006107da6130da84633b9aca0061278f565b836127dd565b6000610fa9876040518060a00160405280896001600160a01b03168152602001896001600160a01b0316815260200188815260200187815260200160008152508585613679565b8060058560600151600581111561313a57fe5b141561315f57600061314b84610fcc565b905061315b8160000151846138ff565b9250505b600082131561318b576000613175868685613985565b9050856020015115613185578091505b506112ed565b60038560600151600581111561319d57fe5b14156131ba576131b5846131b0846112a8565b613a78565b6112ed565b84516112ed90856131ca856112a8565b613aae565b6000806002866060015160058111156131e457fe5b14156131fc576131f5868585613b25565b9050613259565b600061320786610fcc565b905060058760600151600581111561321b57fe5b14156132335761322c818686613be2565b9150613257565b60018760600151600581111561324557fe5b14156101165761322c87828787613c8b565b505b610f2c61089082611315565b600080610e586007612376565b600080600061327f613d89565b600094855260205250506040909120546001600160a01b03811692600160a01b90910460ff169150565b600080610e586006612376565b600881901c60ff9091161b90565b60006132ce6132a9565b6001600160a01b0388166000908152602082815260408083208a845290915290209091506a7fffffffffffffffffffff19861280159061331957506a7fffffffffffffffffffff8613155b61332257600080fd5b6000851215801561333a57506001600160501b038513155b61334357600080fd5b836133835766ffffffffffffff83111561335c57600080fd5b805466ffffffffffffff60701b1916600160701b66ffffffffffffff85160217815561339d565b8054600160501b900463ffffffff16841461339d57600080fd5b8054600a9690960b6affffffffffffffffffffff16600160a81b026001600160a81b036001600160501b039096166001600160501b031963ffffffff909616600160501b0263ffffffff60501b19909816979097179490941695909517939093169190911790925550505050565b60006305f5e10083604001511415613424575080610e58565b60408301516107da906112e7846305f5e10061278f565b600063ffffffff82111561130457600080fd5b60008061345e8861ffff16613d96565b9050838160ff16111561347057600080fd5b6000806134818360ff168a87613dac565b91509150801561349057600080fd5b600061349b89613e74565b90506affffffffffffffffffffff81106134b457600080fd5b600060788963ffffffff16901b609883901b60f086901b60f860008e136134dc5760016134df565b60005b60058111156134ea57fe5b60ff16901b17171760001b905073__$7ac922d04bd7a1b42c7f6e5f1dd89a70af$__63e50f349e8d836040518363ffffffff1660e01b8152600401613530929190614e3d565b60206040518083038186803b15801561354857600080fd5b505af415801561355c573d6000803e3d6000fd5b505050506040513d601f19601f82011682018060405250810190613580919061465f565b9c9b505050505050505050505050565b600080610e586013612376565b60008060008060006135ae86613272565b909250905060006001600160a01b0383166135d35750600090506402540be400612777565b826001600160a01b031663b2fffb046040518163ffffffff1660e01b815260040160206040518083038186803b15801561360c57600080fd5b505afa158015612744573d6000803e3d6000fd5b600080600084606001511115610ab75761364f8460600151611901866080015186612a3e90919063ffffffff16565b915061367084606001516119018660a0015186612a3e90919063ffffffff16565b90509250929050565b60008061368d866040015161ffff16610fb4565b905060006004826060015160058111156136a357fe5b146136be576136b9876040015161ffff16610fcc565b6136c0565b815b905060008087608001511215613733576004836060015160058111156136e257fe5b14156136ff576136f861063988608001516112a8565b9050613733565b600061372061089089608001518b6101600151611a1f90919063ffffffff16565b905061372f6106398483611a4a565b9150505b6040870151600090156137f257600061374c8430611a86565b905089600001516001600160a01b03166344f051088a600001518b602001518c604001518d60600151888e8e6040518863ffffffff1660e01b815260040161379a97969594939291906147be565b600060405180830381600087803b1580156137b457600080fd5b505af11580156137c8573d6000803e3d6000fd5b5050505060006137e13086611a8690919063ffffffff16565b90506137ed8183611b30565b925050505b8181101561388d5780820360038460600151600581111561380f57fe5b141561384d57348111156138355760405162461bcd60e51b81526004016102db90614ad4565b6138458960000151823403613a78565b82915061388b565b60006138728a600001518c6040015161ffff1661386985611315565b88929190613127565b9050613887613880826112f5565b8490611450565b9250505b505b818110156138ad5760405162461bcd60e51b81526004016102db90614ad4565b60006004856060015160058111156138c157fe5b146138dc5760408a01516138d790869084611b45565b6138e5565b6138e582611315565b90506138f1858261340b565b9a9950505050505050505050565b60008161390e57506000610e58565b600061391984613e95565b9050600061392684613e74565b9050816b019d971e4fe8401e74000001600160ff1b038161394357fe5b0581131561395057600080fd5b6b033b2e3c9fd0803ce80000006b019d971e4fe8401e740000008383020105600085136129f857613980816112a8565b610f2c565b600080808060058760600151600581111561399c57fe5b146139ae576370a0823160e01b6139b7565b630ed1279f60e11b5b90508660200151156139d35786516139d0903083612d11565b92505b86516139e0908787613f20565b8660200151806139f4575060008760800151115b15613a09578651613a06903083612d11565b91505b608087015115613a44576000613a2788613a2285611315565b61340b565b9050613a368860800151611315565b811315613a4257600080fd5b505b866020015115613a6557613a5b6119078385612f8b565b93505050506107da565b613a5b85611315565b5050509392505050565b6040516001600160a01b0383169082156108fc029083906000818181858888f19350505050158015611098573d6000803e3d6000fd5b826001600160a01b031663a9059cbb83836040518363ffffffff1660e01b815260040180836001600160a01b0316815260200182815260200192505050600060405180830381600087803b158015613b0557600080fd5b505af1158015613b19573d6000803e3d6000fd5b50505050611098613f78565b825160405163db006a7560e01b8152600091479183916001600160a01b03169063db006a7590613b5990879060040161494b565b602060405180830381600087803b158015613b7357600080fd5b505af1158015613b87573d6000803e3d6000fd5b505050506040513d601f19601f82011682018060405250810190613bab919061465f565b90508015613bcb5760405162461bcd60e51b81526004016102db90614a8d565b47613bd68184612f8b565b9350613a6e8685613a78565b6000613bfd6106398560000151613bf885611315565b6138ff565b9050613c07613590565b548451604051631a4ca37b60e21b81526001600160a01b03909216916369328dec91613c3991859088906004016147fc565b602060405180830381600087803b158015613c5357600080fd5b505af1158015613c67573d6000803e3d6000fd5b505050506040513d601f19601f82011682018060405250810190611448919061465f565b82516000908190613ca490306370a0823160e01b612d11565b9050600086600001516001600160a01b031663db006a75856040518263ffffffff1660e01b8152600401613cd8919061494b565b602060405180830381600087803b158015613cf257600080fd5b505af1158015613d06573d6000803e3d6000fd5b505050506040513d601f19601f82011682018060405250810190613d2a919061465f565b90508015613d4a5760405162461bcd60e51b81526004016102db90614a8d565b8551600090613d6190306370a0823160e01b612d11565b9050613d6d8184612f8b565b9350613d7e87600001518786613aae565b505050949350505050565b600080610e58600f612376565b600080613da283613fe9565b60ff169392505050565b60008060008511613dcf5760405162461bcd60e51b81526004016102db90614b04565b6007851115613df05760405162461bcd60e51b81526004016102db90614bde565b6000613dfb84614006565b905060015b868111613e53576000613e1c613e1583614024565b84906140c8565b905086811415613e345750925060009150613e6c9050565b86811115613e4a5750925060019150613e6c9050565b50600101613e00565b5060405162461bcd60e51b81526004016102db90614cf8565b935093915050565b600080821215613e8e57613e87826112a8565b9050610fc7565b5080610fc7565b6000610e58613ea2613590565b5460405163d15e005360e01b81526001600160a01b039091169063d15e005390613ed09086906004016147aa565b60206040518083038186803b158015613ee857600080fd5b505afa158015613efc573d6000803e3d6000fd5b505050506040513d601f19601f82011682018060405250810190611907919061465f565b604080516323b872dd60e01b81526001600160a01b038481166004830152306024830152604482018490529151918516916323b872dd9160648082019260009290919082900301818387803b158015613b0557600080fd5b6000613f82614262565b3d8015613f965760208114613f9f57600080fd5b60019250613faa565b60206000833e815192505b5081613fe5576040805162461bcd60e51b8152602060048201526005602482015264045524332360dc1b604482015290519081900360640190fd5b5050565b600080613ff4614122565b60009384526020525050604090205490565b60006276a70082101561401857600080fd5b506276a7008106900390565b6000816001141561403957506276a700610fc7565b816002141561404c575062ed4e00610fc7565b816003141561406057506301da9c00610fc7565b816004141561407457506303b53800610fc7565b816005141561408857506309450c00610fc7565b816006141561409c575063128a1800610fc7565b81600714156140b057506325143000610fc7565b60405162461bcd60e51b81526004016102db90614b33565b6000828201838110156107da576040805162461bcd60e51b815260206004820152601b60248201527f536166654d6174683a206164646974696f6e206f766572666c6f770000000000604482015290519081900360640190fd5b600080610e586009612376565b60405180604001604052806002906020820280368337509192915050565b6040518060e001604052806000815260200160008152602001600015158152602001600081526020016000815260200160008152602001600081525090565b60405180610180016040528060006001600160a01b03168152602001600061ffff168152602001600061ffff168152602001600081526020016000815260200160008152602001600081526020016000815260200160008152602001600081526020016141f761412f565b8152602001614204614238565b905290565b6040805160a0810182526000808252602082018190529181018290529060608201908152602001600081525090565b604051806060016040528060006001600160a01b0316815260200160008152602001600081525090565b60405180602001604052806001906020820280368337509192915050565b80356001600160a01b0381168114610fc757600080fd5b8060408101831015610e5857600080fd5b60008083601f8401126142b9578182fd5b50813567ffffffffffffffff8111156142d0578182fd5b602083019150836020828501011115610ab757600080fd5b80356001600160501b0381168114610fc757600080fd5b600060208284031215614310578081fd5b6107da82614280565b6000806040838503121561432b578081fd5b61433483614280565b915060208301358015158114614348578182fd5b809150509250929050565b60008060008385036101a0811215614369578182fd5b61437285614280565b9350610160601f1982011215614386578182fd5b5060208401915061439a61018085016142e8565b90509250925092565b600080604083850312156143b5578182fd5b6143be83614280565b91506020830135614348816150e0565b6000806000606084860312156143e2578283fd5b6143eb84614280565b925060208401356143fb816150e0565b929592945050506040919091013590565b600080600080600080600060c0888a031215614426578283fd5b61442f88614280565b9650602088013561443f816150e0565b95506040880135945060608801359350608088013561445d816150f3565b925060a088013567ffffffffffffffff811115614478578283fd5b6144848a828b016142a8565b989b979a50959850939692959293505050565b6000806000606084860312156144ab578283fd5b6144b484614280565b925060208401356144c4816150e0565b915061439a604085016142e8565b600080604083850312156144e4578182fd5b6144ed83614280565b946020939093013593505050565b60008060008060006101008688031215614513578081fd5b61451c86614280565b9450602086013593506145328760408801614297565b92506145418760808801614297565b91506145508760c08801614297565b90509295509295909350565b60008060008060008060a08789031215614574578384fd5b61457d87614280565b955061458b602088016142e8565b94506040870135935060608701359250608087013567ffffffffffffffff8111156145b4578283fd5b6145c089828a016142a8565b979a9699509497509295939492505050565b6000602082840312156145e3578081fd5b815167ffffffffffffffff808211156145fa578283fd5b818401915084601f83011261460d578283fd5b81518181111561461957fe5b604051601f8201601f19168101602001838111828210171561463757fe5b60405281815283820160200187101561464e578485fd5b610f2c826020830160208701614ec7565b600060208284031215614670578081fd5b5051919050565b600060208284031215614688578081fd5b81356107da816150e0565b600080600080606085870312156146a8578182fd5b8435935060208501359250604085013567ffffffffffffffff8111156146cc578283fd5b6146d8878288016142a8565b95989497509550505050565b6000602082840312156146f5578081fd5b81356107da816150f3565b600060208284031215614711578081fd5b81356107da81615105565b6001600160a01b03169052565b8060005b600281101561475057815161ffff1684526020938401939091019060010161472d565b50505050565b60008284528282602086013780602084860101526020601f19601f85011685010190509392505050565b80516001600160a01b0316825260208082015190830152604090810151910152565b61ffff169052565b6001600160a01b0391909116815260200190565b600060018060a01b03808a16835280891660208401525086604083015285606083015284608083015260c060a083015261202460c083018486614756565b6001600160a01b0393841681526020810192909252909116604082015260600190565b6001600160a01b03948516815260208101939093529216604082015261ffff909116606082015260800190565b600060018060a01b038616825284602083015260606040830152610f2c606083018486614756565b6001600160a01b039390931683526020830191909152604082015260600190565b600060018060a01b038716825285602083015284604083015260806060830152610fa9608083018486614756565b60408101818360005b60028110156148eb5781518352602092830192909101906001016148cc565b50505092915050565b901515815260200190565b91151582526001600160501b0316602082015260400190565b6000602082528251806020840152614937816040850160208701614ec7565b601f01601f19169190910160400192915050565b90815260200190565b918252602082015260400190565b93845260208401929092526040830152606082015260800190565b948552602085019390935260408401919091526060830152608082015260a00190565b6020808252601a908201527f496e76616c6964205365636f6e64617279204d61747572697479000000000000604082015260600190565b6020808252600d908201526c109bdc9c9bddc811985a5b1959609a1b604082015260600190565b60208082526011908201527052656465656d20616c6c20746f6b656e7360781b604082015260600190565b60208082526006908201526514185d5cd95960d21b604082015260600190565b6020808252600c908201526b155b985d5d1a1bdc9a5e995960a21b604082015260600190565b602080825260049082015263135a5b9d60e21b604082015260600190565b60208082526006908201526552656465656d60d01b604082015260600190565b6020808252600d908201526c556e7061696420426f72726f7760981b604082015260600190565b602080825260169082015275125b9cdd59999a58da595b9d081c995c185e5b595b9d60521b604082015260600190565b60208082526015908201527410d1ce881b9bc81b585c9ad95d1cc81b1a5cdd1959605a1b604082015260600190565b6020808252600d908201526c092dcecc2d8d2c840d2dcc8caf609b1b604082015260600190565b6020808252601d908201527f496e73756666696369656e74205365636f6e6461727920426f72726f77000000604082015260600190565b6020808252600d908201526c43616e6e6f7420536574746c6560981b604082015260600190565b6020808252600c908201526b4d617820436170616369747960a01b604082015260600190565b60208082526016908201527510d1ce881b585c9ad95d081a5b99195e08189bdd5b9960521b604082015260600190565b60208082526010908201526f496e76616c69642043757272656e637960801b604082015260600190565b6020808252818101527f4f776e61626c653a2063616c6c6572206973206e6f7420746865206f776e6572604082015260600190565b60208082526017908201527f496e73756666696369656e7420436f6c6c61746572616c000000000000000000604082015260600190565b6020808252600e908201526d1499595b9d1c985b9d0818d85b1b60921b604082015260600190565b602080825260129082015271496e73756666696369656e7420526570617960701b604082015260600190565b60208082526013908201527210d1ce881b9bc81b585c9ad95d08199bdd5b99606a1b604082015260600190565b60006101e082019050614d3982845161471c565b6020830151614d4b60208401826147a2565b506040830151614d5e60408401826147a2565b50606083015160608301526080830151608083015260a083015160a083015260c083015160c083015260e083015160e083015261010080840151818401525061012080840151818401525061014080840151614dbc82850182614729565b5050610160830151614dd2610180840182614780565b5092915050565b600060e0820190508251825260208301516020830152604083015115156040830152606083015160608301526080830151608083015260a083015160a083015260c083015160c083015292915050565b6001600160801b0391909116815260200190565b61ffff929092168252602082015260400190565b6001600160501b0391909116815260200190565b81816000805b6002808210614e7a5750612e8e565b8435614e85816150e0565b845461ffff6008860281811b801990931693909116901b161784556020949094019390910190601e821115614ebf57600091506001830192505b600101614e6b565b60005b83811015614ee2578181015183820152602001614eca565b838111156147505750506000910152565b60008135610e58816150e0565b60008135610e58816150f3565b60008135610e5881615105565b8135614f25816150e0565b61ffff811661ffff1983541617825550614f4a614f4460208401614ef3565b82615082565b614f5f614f5960408401614f00565b8261509e565b614f74614f6e60608401614ef3565b826150c2565b614f89614f8360808401614f0d565b82614fef565b614f9e614f9860a08401614f0d565b8261500c565b614fb3614fad60c08401614f0d565b82615029565b614fc8614fc260e08401614f0d565b82615046565b614fde614fd86101008401614ef3565b82615063565b613fe5610120830160018301614e65565b805460ff60501b191660509290921b60ff60501b16919091179055565b805460ff60581b191660589290921b60ff60581b16919091179055565b805460ff60601b191660609290921b60ff60601b16919091179055565b805460ff60681b191660689290921b60ff60681b16919091179055565b805461ffff60701b191660709290921b61ffff60701b16919091179055565b805463ffff00008360101b1663ffff0000198216178255505050565b805467ffffffff000000008360201b1667ffffffff00000000198216178255505050565b805461ffff60401b8360401b1661ffff60401b198216178255505050565b61ffff811681146150f057600080fd5b50565b63ffffffff811681146150f057600080fd5b60ff811681146150f057600080fdfea2646970667358221220a3cd8d24411dc61fcfb2d6f3e67eb65fc7bfc5a1fb701c87e548163ab8835f1a64736f6c63430007060033",
  "language": "Solidity",
  "natspec": {
    "kind": "dev",
    "methods": {
      "borrowSecondaryCurrencyToVault(address,uint256,uint256[2],uint32[2],uint32[2])": {
        "notice": "Allows a vault to borrow a secondary currency if it is whitelisted to do so",
        "params": {
          "account": "account that is borrowing the secondary currency",
          "fCashToBorrow": "fCash to borrow for the first and second secondary currencies",
          "maturity": "the maturity to borrow at",
          "maxBorrowRate": "maximum borrow rate for the first and second secondary currencies",
          "minRollLendRate": "max roll lend rate for the first and second borrow currencies"
        },
        "returns": {
          "underlyingTokensTransferred": "amount of tokens transferred back to the vault"
        }
      },
      "depositVaultCashToStrategyTokens(uint256,uint256,bytes)": {
        "notice": "Strategy vaults can call this method to deposit asset cash into strategy tokens.",
        "params": {
          "assetCashInternal": "the number of asset cash tokens to deposit (external)",
          "maturity": "the maturity of the vault where the redemption will take place",
          "vaultData": "arbitrary data to pass back to the vault for deposit"
        }
      },
      "getCashRequiredToSettle(address,uint256)": {
        "notice": "View method to get the current amount of cash remaining to settle the vault"
      },
      "getVaultConfig(address)": {
        "notice": "View Methods *"
      },
      "getVaultState(address,uint256)": {
        "notice": "View method to get vault state"
      },
      "redeemStrategyTokensToCash(uint256,uint256,bytes)": {
        "notice": "Strategy vaults can call this method to redeem strategy tokens to cash and hold them as asset cash within the pool. This should typically be used during settlement but can also be used for vault-wide deleveraging.",
        "params": {
          "maturity": "the maturity of the vault where the redemption will take place",
          "strategyTokensToRedeem": "the number of strategy tokens redeemed",
          "vaultData": "arbitrary data to pass back to the vault"
        },
        "returns": {
          "assetCashRequiredToSettle": "amount of asset cash still remaining to settle the debt",
          "underlyingCashRequiredToSettle": "amount of underlying cash still remaining to settle the debt"
        }
      },
      "reduceMaxBorrowCapacity(address,uint80,uint256,uint256,bytes)": {
        "notice": "Allows the owner to reduce the max borrow capacity on the vault and force the redemption of strategy tokens to cash to reduce the overall risk of the vault. This method is intended to be used in emergencies to mitigate insolvency risk. The effect of this method will mean that the overall max borrow capacity is reduced, the total used capacity will be unchanged (redeemStrategyTokensToCash does not do any lending to reduce the outstanding fCash), and accounts will be locked out of entering the maturity which was targeted by this method. Other maturities for that vault may still be entered depending on whether or not the vault is above or below the max vault borrow capacity.",
        "params": {
          "maturity": "the maturity to redeem tokens in, will generally be either the current maturity or the next maturity.",
          "maxVaultBorrowCapacity": "the new max vault borrow capacity on the primary currency",
          "strategyTokensToRedeem": "how many tokens we would want to redeem in the maturity",
          "vaultAddress": "address of the vault",
          "vaultData": "vault data to pass to the vault"
        }
      },
      "repaySecondaryCurrencyFromVault(address,uint16,uint256,uint256,uint32,bytes)": {
        "notice": "Allows a vault to repay a secondary currency that it has borrowed. Will be executed via a callback which will request that the vault repay a specific amount of underlying tokens.",
        "params": {
          "account": "account that is repaying the secondary currency",
          "currencyId": "currency id of the secondary currency",
          "debtSharesToRepay": "amount of debt shares to repay (used to calculate fCashToLend)",
          "maturity": "the maturity to lend at",
          "minLendRate": "minimum lend rate"
        },
        "returns": {
          "returnData": "arbitrary return data to pass back to the vault"
        }
      },
      "setVaultPauseStatus(address,bool)": {
        "notice": "Enables or disables a vault. If a vault is disabled, no one can enter the vault but exits are still possible.",
        "params": {
          "enable": "true if the vault should be enabled immediately",
          "vaultAddress": "address of deployed vault"
        }
      },
      "settleVault(address,uint256)": {
        "notice": "Settles a vault and sets the final settlement rates",
        "params": {
          "maturity": "the maturity of the vault",
          "vault": "the vault to settle"
        }
      },
      "updateSecondaryBorrowCapacity(address,uint16,uint80)": {
        "notice": "Whitelists a secondary borrow currency for a vault, vaults can borrow up to the capacity using the `borrowSecondaryCurrencyToVault` and `repaySecondaryCurrencyToVault` methods. Vaults that use a secondary currency must ALWAYS repay the secondary debt during redemption and handle accounting for the secondary currency themselves.",
        "params": {
          "maxBorrowCapacity": "maximum borrow capacity",
          "secondaryCurrencyId": "struct of vault configuration",
          "vaultAddress": "address of deployed vault"
        }
      },
      "updateVault(address,(uint16,uint16,uint32,uint16,uint8,uint8,uint8,uint8,uint16,uint16[2]),uint80)": {
        "notice": "Updates or lists a deployed vault along with its configuration.",
        "params": {
          "maxPrimaryBorrowCapacity": "maximum borrow capacity",
          "vaultAddress": "address of deployed vault",
          "vaultConfig": "struct of vault configuration"
        }
      }
    },
    "version": 1
  },
  "opcodes": "PUSH1 0x80 PUSH1 0x40 MSTORE CALLVALUE DUP1 ISZERO PUSH2 0x10 JUMPI PUSH1 0x0 DUP1 REVERT JUMPDEST POP PUSH1 0x4 CALLDATASIZE LT PUSH2 0x116 JUMPI PUSH1 0x0 CALLDATALOAD PUSH1 0xE0 SHR DUP1 PUSH4 0x82463367 GT PUSH2 0xA2 JUMPI DUP1 PUSH4 0xC4C96DAE GT PUSH2 0x71 JUMPI DUP1 PUSH4 0xC4C96DAE EQ PUSH2 0x23E JUMPI DUP1 PUSH4 0xD04C16AC EQ PUSH2 0x246 JUMPI DUP1 PUSH4 0xD6DDEB9A EQ PUSH2 0x259 JUMPI DUP1 PUSH4 0xDE1EB9A3 EQ PUSH2 0x26C JUMPI DUP1 PUSH4 0xEE01436B EQ PUSH2 0x28C JUMPI PUSH2 0x116 JUMP JUMPDEST DUP1 PUSH4 0x82463367 EQ PUSH2 0x208 JUMPI DUP1 PUSH4 0x8DA5CB5B EQ PUSH2 0x210 JUMPI DUP1 PUSH4 0xA14DB57C EQ PUSH2 0x218 JUMPI DUP1 PUSH4 0xB3C47546 EQ PUSH2 0x22B JUMPI PUSH2 0x116 JUMP JUMPDEST DUP1 PUSH4 0x31572281 GT PUSH2 0xE9 JUMPI DUP1 PUSH4 0x31572281 EQ PUSH2 0x181 JUMPI DUP1 PUSH4 0x50E4F223 EQ PUSH2 0x1A1 JUMPI DUP1 PUSH4 0x56F428C4 EQ PUSH2 0x1C1 JUMPI DUP1 PUSH4 0x67515776 EQ PUSH2 0x1D4 JUMPI DUP1 PUSH4 0x6C346C09 EQ PUSH2 0x1F5 JUMPI PUSH2 0x116 JUMP JUMPDEST DUP1 PUSH4 0xBC08CDC EQ PUSH2 0x11B JUMPI DUP1 PUSH4 0x24A3D622 EQ PUSH2 0x144 JUMPI DUP1 PUSH4 0x291AFDF3 EQ PUSH2 0x159 JUMPI DUP1 PUSH4 0x295E6B7F EQ PUSH2 0x16E JUMPI JUMPDEST PUSH1 0x0 DUP1 REVERT JUMPDEST PUSH2 0x12E PUSH2 0x129 CALLDATASIZE PUSH1 0x4 PUSH2 0x44FB JUMP JUMPDEST PUSH2 0x29F JUMP JUMPDEST PUSH1 0x40 MLOAD PUSH2 0x13B SWAP2 SWAP1 PUSH2 0x48C3 JUMP JUMPDEST PUSH1 0x40 MLOAD DUP1 SWAP2 SUB SWAP1 RETURN JUMPDEST PUSH2 0x14C PUSH2 0x45E JUMP JUMPDEST PUSH1 0x40 MLOAD PUSH2 0x13B SWAP2 SWAP1 PUSH2 0x47AA JUMP JUMPDEST PUSH2 0x16C PUSH2 0x167 CALLDATASIZE PUSH1 0x4 PUSH2 0x4497 JUMP JUMPDEST PUSH2 0x46D JUMP JUMPDEST STOP JUMPDEST PUSH2 0x16C PUSH2 0x17C CALLDATASIZE PUSH1 0x4 PUSH2 0x44D2 JUMP JUMPDEST PUSH2 0x589 JUMP JUMPDEST PUSH2 0x194 PUSH2 0x18F CALLDATASIZE PUSH1 0x4 PUSH2 0x44D2 JUMP JUMPDEST PUSH2 0x7C8 JUMP JUMPDEST PUSH1 0x40 MLOAD PUSH2 0x13B SWAP2 SWAP1 PUSH2 0x4DD9 JUMP JUMPDEST PUSH2 0x1B4 PUSH2 0x1AF CALLDATASIZE PUSH1 0x4 PUSH2 0x440C JUMP JUMPDEST PUSH2 0x7E1 JUMP JUMPDEST PUSH1 0x40 MLOAD PUSH2 0x13B SWAP2 SWAP1 PUSH2 0x4918 JUMP JUMPDEST PUSH2 0x16C PUSH2 0x1CF CALLDATASIZE PUSH1 0x4 PUSH2 0x4319 JUMP JUMPDEST PUSH2 0x9B3 JUMP JUMPDEST PUSH2 0x1E7 PUSH2 0x1E2 CALLDATASIZE PUSH1 0x4 PUSH2 0x43A3 JUMP JUMPDEST PUSH2 0xA33 JUMP JUMPDEST PUSH1 0x40 MLOAD PUSH2 0x13B SWAP3 SWAP2 SWAP1 PUSH2 0x4954 JUMP JUMPDEST PUSH2 0x1E7 PUSH2 0x203 CALLDATASIZE PUSH1 0x4 PUSH2 0x44D2 JUMP JUMPDEST PUSH2 0xA83 JUMP JUMPDEST PUSH2 0x14C PUSH2 0xABE JUMP JUMPDEST PUSH2 0x14C PUSH2 0xACD JUMP JUMPDEST PUSH2 0x1E7 PUSH2 0x226 CALLDATASIZE PUSH1 0x4 PUSH2 0x43CE JUMP JUMPDEST PUSH2 0xAE3 JUMP JUMPDEST PUSH2 0x16C PUSH2 0x239 CALLDATASIZE PUSH1 0x4 PUSH2 0x4353 JUMP JUMPDEST PUSH2 0xB3D JUMP JUMPDEST PUSH2 0x14C PUSH2 0xBF5 JUMP JUMPDEST PUSH2 0x16C PUSH2 0x254 CALLDATASIZE PUSH1 0x4 PUSH2 0x4693 JUMP JUMPDEST PUSH2 0xC0D JUMP JUMPDEST PUSH2 0x16C PUSH2 0x267 CALLDATASIZE PUSH1 0x4 PUSH2 0x455C JUMP JUMPDEST PUSH2 0xD95 JUMP JUMPDEST PUSH2 0x27F PUSH2 0x27A CALLDATASIZE PUSH1 0x4 PUSH2 0x42FF JUMP JUMPDEST PUSH2 0xE47 JUMP JUMPDEST PUSH1 0x40 MLOAD PUSH2 0x13B SWAP2 SWAP1 PUSH2 0x4D25 JUMP JUMPDEST PUSH2 0x1E7 PUSH2 0x29A CALLDATASIZE PUSH1 0x4 PUSH2 0x4693 JUMP JUMPDEST PUSH2 0xE5E JUMP JUMPDEST PUSH2 0x2A7 PUSH2 0x412F JUMP JUMPDEST PUSH1 0x0 PUSH2 0x2B2 CALLER PUSH2 0xEB0 JUMP JUMPDEST SWAP1 POP PUSH2 0x2BF DUP2 PUSH1 0x1 PUSH2 0xEDF JUMP JUMPDEST PUSH2 0x2E4 JUMPI PUSH1 0x40 MLOAD PUSH3 0x461BCD PUSH1 0xE5 SHL DUP2 MSTORE PUSH1 0x4 ADD PUSH2 0x2DB SWAP1 PUSH2 0x4A29 JUMP JUMPDEST PUSH1 0x40 MLOAD DUP1 SWAP2 SUB SWAP1 REVERT JUMPDEST PUSH2 0x140 DUP2 ADD MLOAD DUP1 MLOAD PUSH2 0xFFFF AND ISZERO DUP1 ISZERO SWAP1 PUSH2 0x305 JUMPI POP PUSH1 0x20 DUP2 ADD MLOAD PUSH2 0xFFFF AND ISZERO ISZERO JUMPDEST PUSH2 0x30E JUMPI PUSH1 0x0 DUP1 REVERT JUMPDEST PUSH2 0x316 PUSH2 0x412F JUMP JUMPDEST PUSH2 0x321 DUP4 PUSH1 0x2 PUSH2 0xEDF JUMP JUMPDEST DUP1 ISZERO PUSH2 0x336 JUMPI POP PUSH1 0x1 PUSH1 0x1 PUSH1 0xA0 SHL SUB DUP10 AND CALLER EQ ISZERO JUMPDEST ISZERO PUSH2 0x3FB JUMPI PUSH1 0x0 PUSH2 0x345 PUSH2 0xEF4 JUMP JUMPDEST PUSH1 0x1 PUSH1 0x1 PUSH1 0xA0 SHL SUB DUP1 DUP13 AND PUSH1 0x0 SWAP1 DUP2 MSTORE PUSH1 0x20 SWAP3 DUP4 MSTORE PUSH1 0x40 DUP1 DUP3 KECCAK256 DUP9 MLOAD SWAP1 SWAP4 AND DUP3 MSTORE SWAP2 SWAP1 SWAP3 MSTORE SWAP1 KECCAK256 DUP1 SLOAD SWAP1 SWAP2 POP PUSH4 0xFFFFFFFF AND DUP1 ISZERO PUSH2 0x3F8 JUMPI DUP10 DUP2 LT PUSH2 0x389 JUMPI PUSH1 0x0 DUP1 REVERT JUMPDEST PUSH2 0x3C6 DUP6 DUP13 DUP7 PUSH1 0x0 PUSH1 0x20 MUL ADD MLOAD DUP6 SLOAD DUP6 SWAP1 PUSH1 0x1 PUSH1 0x20 SHL SWAP1 DIV PUSH1 0x1 PUSH1 0x1 PUSH1 0x50 SHL SUB AND DUP13 PUSH1 0x0 JUMPDEST PUSH1 0x20 MUL ADD PUSH1 0x20 DUP2 ADD SWAP1 PUSH2 0x3C1 SWAP2 SWAP1 PUSH2 0x46E4 JUMP JUMPDEST PUSH2 0xF01 JUMP JUMPDEST DUP4 MSTORE PUSH1 0x20 DUP5 ADD MLOAD DUP3 SLOAD PUSH2 0x3F2 SWAP2 DUP8 SWAP2 DUP15 SWAP2 SWAP1 DUP6 SWAP1 PUSH1 0x1 PUSH1 0x70 SHL SWAP1 DIV PUSH1 0x1 PUSH1 0x1 PUSH1 0x50 SHL SUB AND DUP13 PUSH1 0x1 PUSH2 0x3AE JUMP JUMPDEST PUSH1 0x20 DUP5 ADD MSTORE JUMPDEST POP POP JUMPDEST DUP2 MLOAD DUP2 MLOAD PUSH2 0x428 SWAP2 DUP6 SWAP2 DUP13 SWAP2 SWAP1 DUP13 SWAP1 DUP13 CALLDATALOAD DUP13 PUSH1 0x0 JUMPDEST PUSH1 0x20 MUL ADD PUSH1 0x20 DUP2 ADD SWAP1 PUSH2 0x423 SWAP2 SWAP1 PUSH2 0x46E4 JUMP JUMPDEST PUSH2 0xF36 JUMP JUMPDEST DUP5 MSTORE PUSH1 0x20 DUP3 DUP2 ADD MLOAD DUP3 DUP3 ADD MLOAD PUSH2 0x44C SWAP3 DUP7 SWAP3 DUP14 SWAP3 SWAP1 SWAP2 DUP14 SWAP2 SWAP1 DUP14 ADD CALLDATALOAD DUP13 PUSH1 0x1 PUSH2 0x410 JUMP JUMPDEST PUSH1 0x20 DUP6 ADD MSTORE POP SWAP2 SWAP8 SWAP7 POP POP POP POP POP POP POP JUMP JUMPDEST PUSH1 0x2 SLOAD PUSH1 0x1 PUSH1 0x1 PUSH1 0xA0 SHL SUB AND DUP2 JUMP JUMPDEST PUSH1 0x0 SLOAD PUSH1 0x1 PUSH1 0x20 SHL SWAP1 DIV PUSH1 0x1 PUSH1 0x1 PUSH1 0xA0 SHL SUB AND CALLER EQ PUSH2 0x49E JUMPI PUSH1 0x40 MLOAD PUSH3 0x461BCD PUSH1 0xE5 SHL DUP2 MSTORE PUSH1 0x4 ADD PUSH2 0x2DB SWAP1 PUSH2 0x4C38 JUMP JUMPDEST PUSH1 0x0 PUSH2 0x4A9 DUP5 PUSH2 0xEB0 JUMP JUMPDEST SWAP1 POP PUSH1 0x0 PUSH2 0x4BA DUP5 PUSH2 0xFFFF AND PUSH2 0xFB4 JUMP JUMPDEST SWAP1 POP PUSH1 0x0 PUSH2 0x4CB DUP6 PUSH2 0xFFFF AND PUSH2 0xFCC JUMP JUMPDEST SWAP1 POP DUP2 PUSH1 0x20 ADD MLOAD ISZERO DUP1 ISZERO PUSH2 0x4E1 JUMPI POP DUP1 PUSH1 0x20 ADD MLOAD ISZERO JUMPDEST PUSH2 0x4EA JUMPI PUSH1 0x0 DUP1 REVERT JUMPDEST PUSH2 0x140 DUP4 ADD MLOAD MLOAD PUSH2 0xFFFF DUP7 DUP2 AND SWAP2 AND EQ DUP1 PUSH2 0x514 JUMPI POP PUSH2 0x140 DUP4 ADD MLOAD PUSH1 0x20 ADD MLOAD PUSH2 0xFFFF DUP7 DUP2 AND SWAP2 AND EQ JUMPDEST PUSH2 0x530 JUMPI PUSH1 0x40 MLOAD PUSH3 0x461BCD PUSH1 0xE5 SHL DUP2 MSTORE PUSH1 0x4 ADD PUSH2 0x2DB SWAP1 PUSH2 0x4C0E JUMP JUMPDEST PUSH2 0x53B DUP7 DUP7 DUP7 PUSH2 0xFDF JUMP JUMPDEST DUP5 PUSH2 0xFFFF AND DUP7 PUSH1 0x1 PUSH1 0x1 PUSH1 0xA0 SHL SUB AND PUSH32 0x8F868F60E49B80B48EE5DE8B7BC703CFC4B5C826A05D3EA1B00CF4159C155A90 DUP7 PUSH1 0x40 MLOAD PUSH2 0x579 SWAP2 SWAP1 PUSH2 0x4E51 JUMP JUMPDEST PUSH1 0x40 MLOAD DUP1 SWAP2 SUB SWAP1 LOG3 POP POP POP POP POP POP JUMP JUMPDEST PUSH1 0x2 PUSH1 0xA SLOAD EQ ISZERO PUSH2 0x5AC JUMPI PUSH1 0x40 MLOAD PUSH3 0x461BCD PUSH1 0xE5 SHL DUP2 MSTORE PUSH1 0x4 ADD PUSH2 0x2DB SWAP1 PUSH2 0x4CA4 JUMP JUMPDEST PUSH1 0x2 PUSH1 0xA SSTORE PUSH1 0x0 PUSH2 0x5BC DUP4 PUSH2 0xEB0 JUMP JUMPDEST SWAP1 POP PUSH2 0x5CA DUP2 CALLER PUSH1 0x40 PUSH2 0x1033 JUMP JUMPDEST PUSH1 0x0 PUSH2 0x5D6 DUP5 DUP5 PUSH2 0x109D JUMP JUMPDEST SWAP1 POP TIMESTAMP DUP4 GT ISZERO DUP1 ISZERO PUSH2 0x5EA JUMPI POP PUSH1 0x40 DUP2 ADD MLOAD ISZERO JUMPDEST PUSH2 0x606 JUMPI PUSH1 0x40 MLOAD PUSH3 0x461BCD PUSH1 0xE5 SHL DUP2 MSTORE PUSH1 0x4 ADD PUSH2 0x2DB SWAP1 PUSH2 0x4B91 JUMP JUMPDEST PUSH1 0x0 PUSH2 0x61B DUP4 PUSH1 0x40 ADD MLOAD PUSH2 0xFFFF AND DUP6 TIMESTAMP PUSH2 0x1138 JUMP JUMPDEST SWAP1 POP PUSH1 0x0 PUSH2 0x63E PUSH2 0x639 PUSH2 0x632 DUP6 PUSH1 0x20 ADD MLOAD PUSH2 0x12A8 JUMP JUMPDEST DUP5 SWAP1 PUSH2 0x12B6 JUMP JUMPDEST PUSH2 0x12F5 JUMP JUMPDEST SWAP1 POP PUSH1 0x0 PUSH2 0x64A PUSH2 0x1308 JUMP JUMPDEST PUSH1 0x1 PUSH1 0x1 PUSH1 0xA0 SHL SUB DUP9 AND PUSH1 0x0 SWAP1 DUP2 MSTORE PUSH1 0x20 SWAP2 DUP3 MSTORE PUSH1 0x40 DUP1 DUP3 KECCAK256 DUP10 DUP4 MSTORE SWAP1 SWAP3 MSTORE KECCAK256 PUSH2 0x140 DUP7 ADD MLOAD MLOAD SWAP1 SWAP2 POP PUSH2 0xFFFF AND ISZERO PUSH2 0x6BD JUMPI PUSH2 0x140 DUP6 ADD MLOAD MLOAD PUSH2 0xFFFF AND PUSH1 0x0 SWAP1 DUP2 MSTORE PUSH1 0x20 DUP3 SWAP1 MSTORE PUSH1 0x40 SWAP1 KECCAK256 SLOAD PUSH1 0x1 PUSH1 0x1 PUSH1 0x50 SHL SUB AND ISZERO PUSH2 0x6BD JUMPI PUSH1 0x40 MLOAD PUSH3 0x461BCD PUSH1 0xE5 SHL DUP2 MSTORE PUSH1 0x4 ADD PUSH2 0x2DB SWAP1 PUSH2 0x4AAD JUMP JUMPDEST PUSH2 0x140 DUP6 ADD MLOAD PUSH1 0x20 ADD MLOAD PUSH2 0xFFFF AND ISZERO PUSH2 0x714 JUMPI PUSH2 0x140 DUP6 ADD MLOAD PUSH1 0x20 SWAP1 DUP2 ADD MLOAD PUSH2 0xFFFF AND PUSH1 0x0 SWAP1 DUP2 MSTORE SWAP1 DUP3 SWAP1 MSTORE PUSH1 0x40 SWAP1 KECCAK256 SLOAD PUSH1 0x1 PUSH1 0x1 PUSH1 0x50 SHL SUB AND ISZERO PUSH2 0x714 JUMPI PUSH1 0x40 MLOAD PUSH3 0x461BCD PUSH1 0xE5 SHL DUP2 MSTORE PUSH1 0x4 ADD PUSH2 0x2DB SWAP1 PUSH2 0x4AAD JUMP JUMPDEST DUP2 DUP5 PUSH1 0x80 ADD MLOAD LT ISZERO PUSH2 0x791 JUMPI PUSH1 0xA0 DUP5 ADD MLOAD ISZERO PUSH2 0x742 JUMPI PUSH1 0x40 MLOAD PUSH3 0x461BCD PUSH1 0xE5 SHL DUP2 MSTORE PUSH1 0x4 ADD PUSH2 0x2DB SWAP1 PUSH2 0x49FE JUMP JUMPDEST PUSH1 0x0 PUSH2 0x753 DUP6 PUSH1 0x80 ADD MLOAD DUP5 SUB PUSH2 0x1315 JUMP JUMPDEST SWAP1 POP PUSH1 0x0 PUSH2 0x76D PUSH2 0x639 DUP9 PUSH1 0x0 ADD MLOAD DUP10 PUSH1 0x40 ADD MLOAD DUP6 PUSH2 0x132B JUMP JUMPDEST PUSH1 0x80 DUP8 ADD MLOAD SWAP1 SWAP2 POP PUSH2 0x77F SWAP1 DUP3 PUSH2 0x1450 JUMP JUMPDEST PUSH1 0x80 DUP8 ADD MSTORE PUSH2 0x78E DUP7 DUP11 PUSH2 0x1462 JUMP JUMPDEST POP POP JUMPDEST PUSH2 0x7AC DUP8 DUP7 PUSH1 0x40 ADD MLOAD PUSH2 0x7A7 DUP8 PUSH1 0x20 ADD MLOAD PUSH2 0x12A8 JUMP JUMPDEST PUSH2 0x15D1 JUMP JUMPDEST POP PUSH2 0x7BA DUP5 DUP7 DUP6 DUP10 TIMESTAMP PUSH2 0x16D7 JUMP JUMPDEST POP POP PUSH1 0x1 PUSH1 0xA SSTORE POP POP POP POP POP JUMP JUMPDEST PUSH2 0x7D0 PUSH2 0x414D JUMP JUMPDEST PUSH2 0x7DA DUP4 DUP4 PUSH2 0x109D JUMP JUMPDEST SWAP4 SWAP3 POP POP POP JUMP JUMPDEST PUSH1 0x60 PUSH1 0x0 PUSH2 0x7EE CALLER PUSH2 0xEB0 JUMP JUMPDEST SWAP1 POP PUSH2 0x7FB DUP2 PUSH1 0x1 PUSH2 0xEDF JUMP JUMPDEST PUSH2 0x817 JUMPI PUSH1 0x40 MLOAD PUSH3 0x461BCD PUSH1 0xE5 SHL DUP2 MSTORE PUSH1 0x4 ADD PUSH2 0x2DB SWAP1 PUSH2 0x4A29 JUMP JUMPDEST PUSH1 0x0 DUP1 PUSH2 0x828 DUP4 DUP13 DUP13 DUP13 DUP13 DUP13 PUSH2 0x189D JUMP JUMPDEST SWAP2 POP SWAP2 POP PUSH1 0x0 PUSH2 0x83B DUP12 PUSH2 0xFFFF AND PUSH2 0xFB4 JUMP JUMPDEST SWAP1 POP PUSH1 0x0 DUP1 PUSH1 0x4 DUP4 PUSH1 0x60 ADD MLOAD PUSH1 0x5 DUP2 GT ISZERO PUSH2 0x852 JUMPI INVALID JUMPDEST EQ PUSH2 0x869 JUMPI PUSH2 0x864 DUP14 PUSH2 0xFFFF AND PUSH2 0xFCC JUMP JUMPDEST PUSH2 0x86B JUMP JUMPDEST DUP3 JUMPDEST SWAP1 POP PUSH1 0x0 PUSH2 0x89C PUSH2 0x639 PUSH2 0x895 PUSH2 0x890 DUP10 DUP12 PUSH2 0x160 ADD MLOAD PUSH2 0x1A1F SWAP1 SWAP2 SWAP1 PUSH4 0xFFFFFFFF AND JUMP JUMPDEST PUSH2 0x12A8 JUMP JUMPDEST DUP5 SWAP1 PUSH2 0x1A4A JUMP JUMPDEST SWAP1 POP PUSH1 0x0 PUSH2 0x8AA DUP4 ADDRESS PUSH2 0x1A86 JUMP JUMPDEST SWAP1 POP CALLER PUSH1 0x1 PUSH1 0x1 PUSH1 0xA0 SHL SUB AND PUSH4 0xFDF7C1CE DUP5 PUSH1 0x0 ADD MLOAD DUP5 DUP15 DUP15 PUSH1 0x40 MLOAD DUP6 PUSH4 0xFFFFFFFF AND PUSH1 0xE0 SHL DUP2 MSTORE PUSH1 0x4 ADD PUSH2 0x8E2 SWAP5 SWAP4 SWAP3 SWAP2 SWAP1 PUSH2 0x484C JUMP JUMPDEST PUSH1 0x0 PUSH1 0x40 MLOAD DUP1 DUP4 SUB DUP2 PUSH1 0x0 DUP8 DUP1 EXTCODESIZE ISZERO DUP1 ISZERO PUSH2 0x8FC JUMPI PUSH1 0x0 DUP1 REVERT JUMPDEST POP GAS CALL ISZERO DUP1 ISZERO PUSH2 0x910 JUMPI RETURNDATASIZE PUSH1 0x0 DUP1 RETURNDATACOPY RETURNDATASIZE PUSH1 0x0 REVERT JUMPDEST POP POP POP POP PUSH1 0x40 MLOAD RETURNDATASIZE PUSH1 0x0 DUP3 RETURNDATACOPY PUSH1 0x1F RETURNDATASIZE SWAP1 DUP2 ADD PUSH1 0x1F NOT AND DUP3 ADD PUSH1 0x40 MSTORE PUSH2 0x938 SWAP2 SWAP1 DUP2 ADD SWAP1 PUSH2 0x45D2 JUMP JUMPDEST SWAP9 POP PUSH1 0x0 PUSH2 0x946 DUP5 ADDRESS PUSH2 0x1A86 JUMP JUMPDEST SWAP1 POP PUSH2 0x952 DUP2 DUP4 PUSH2 0x1B30 JUMP JUMPDEST SWAP5 POP DUP3 DUP6 LT ISZERO PUSH2 0x974 JUMPI PUSH1 0x40 MLOAD PUSH3 0x461BCD PUSH1 0xE5 SHL DUP2 MSTORE PUSH1 0x4 ADD PUSH2 0x2DB SWAP1 PUSH2 0x4CCC JUMP JUMPDEST POP PUSH1 0x4 SWAP3 POP PUSH2 0x981 SWAP2 POP POP JUMP JUMPDEST DUP3 PUSH1 0x60 ADD MLOAD PUSH1 0x5 DUP2 GT ISZERO PUSH2 0x991 JUMPI INVALID JUMPDEST EQ PUSH2 0x9A3 JUMPI PUSH2 0x9A1 DUP3 DUP14 DUP4 PUSH2 0x1B45 JUMP JUMPDEST POP JUMPDEST POP POP POP POP POP SWAP8 SWAP7 POP POP POP POP POP POP POP JUMP JUMPDEST PUSH1 0x0 SLOAD PUSH1 0x1 PUSH1 0x20 SHL SWAP1 DIV PUSH1 0x1 PUSH1 0x1 PUSH1 0xA0 SHL SUB AND CALLER EQ PUSH2 0x9E4 JUMPI PUSH1 0x40 MLOAD PUSH3 0x461BCD PUSH1 0xE5 SHL DUP2 MSTORE PUSH1 0x4 ADD PUSH2 0x2DB SWAP1 PUSH2 0x4C38 JUMP JUMPDEST PUSH2 0x9EE DUP3 DUP3 PUSH2 0x1C2C JUMP JUMPDEST DUP2 PUSH1 0x1 PUSH1 0x1 PUSH1 0xA0 SHL SUB AND PUSH32 0x7C51C6AA77346C54CB051D9E792F9B7BDE5C28A9B57E6FB2D2DD727B38438CA9 DUP3 PUSH1 0x40 MLOAD PUSH2 0xA27 SWAP2 SWAP1 PUSH2 0x48F4 JUMP JUMPDEST PUSH1 0x40 MLOAD DUP1 SWAP2 SUB SWAP1 LOG2 POP POP JUMP JUMPDEST PUSH1 0x0 DUP1 PUSH1 0x0 PUSH2 0xA40 PUSH2 0x1C8C JUMP JUMPDEST PUSH1 0x1 PUSH1 0x1 PUSH1 0xA0 SHL SUB SWAP1 SWAP6 AND PUSH1 0x0 SWAP1 DUP2 MSTORE PUSH1 0x20 SWAP6 DUP7 MSTORE PUSH1 0x40 DUP1 DUP3 KECCAK256 PUSH2 0xFFFF SWAP1 SWAP7 AND DUP3 MSTORE SWAP5 SWAP1 SWAP6 MSTORE POP POP POP SWAP1 KECCAK256 SLOAD PUSH1 0x1 PUSH1 0x1 PUSH1 0x50 SHL SUB PUSH1 0x1 PUSH1 0x50 SHL DUP3 DIV DUP2 AND SWAP3 SWAP2 AND SWAP1 JUMP JUMPDEST PUSH1 0x0 DUP1 PUSH1 0x0 PUSH2 0xA91 DUP6 PUSH2 0x1C99 JUMP JUMPDEST SWAP1 POP PUSH1 0x0 PUSH2 0xAA3 DUP3 PUSH1 0x0 ADD MLOAD DUP7 PUSH2 0x109D JUMP JUMPDEST SWAP1 POP PUSH2 0xAB0 DUP3 DUP3 DUP8 PUSH2 0x1CBD JUMP JUMPDEST SWAP4 POP SWAP4 POP POP POP JUMPDEST SWAP3 POP SWAP3 SWAP1 POP JUMP JUMPDEST PUSH1 0x1 SLOAD PUSH1 0x1 PUSH1 0x1 PUSH1 0xA0 SHL SUB AND DUP2 JUMP JUMPDEST PUSH1 0x0 SLOAD PUSH1 0x1 PUSH1 0x20 SHL SWAP1 DIV PUSH1 0x1 PUSH1 0x1 PUSH1 0xA0 SHL SUB AND DUP2 JUMP JUMPDEST PUSH1 0x0 DUP1 PUSH1 0x0 PUSH2 0xAF0 PUSH2 0x1308 JUMP JUMPDEST PUSH1 0x1 PUSH1 0x1 PUSH1 0xA0 SHL SUB SWAP1 SWAP7 AND PUSH1 0x0 SWAP1 DUP2 MSTORE PUSH1 0x20 SWAP7 DUP8 MSTORE PUSH1 0x40 DUP1 DUP3 KECCAK256 SWAP6 DUP3 MSTORE SWAP5 DUP8 MSTORE DUP5 DUP2 KECCAK256 PUSH2 0xFFFF SWAP1 SWAP7 AND DUP2 MSTORE SWAP5 SWAP1 SWAP6 MSTORE POP POP SWAP1 KECCAK256 SLOAD PUSH1 0x1 PUSH1 0x1 PUSH1 0x50 SHL SUB DUP1 DUP3 AND SWAP4 PUSH1 0x1 PUSH1 0x50 SHL SWAP1 SWAP3 DIV AND SWAP2 POP JUMP JUMPDEST PUSH1 0x0 SLOAD PUSH1 0x1 PUSH1 0x20 SHL SWAP1 DIV PUSH1 0x1 PUSH1 0x1 PUSH1 0xA0 SHL SUB AND CALLER EQ PUSH2 0xB6E JUMPI PUSH1 0x40 MLOAD PUSH3 0x461BCD PUSH1 0xE5 SHL DUP2 MSTORE PUSH1 0x4 ADD PUSH2 0x2DB SWAP1 PUSH2 0x4C38 JUMP JUMPDEST PUSH2 0xB78 DUP4 DUP4 PUSH2 0x1D76 JUMP JUMPDEST PUSH2 0xB92 DUP4 PUSH2 0xB8C PUSH1 0x40 DUP6 ADD PUSH1 0x20 DUP7 ADD PUSH2 0x4677 JUMP JUMPDEST DUP4 PUSH2 0xFDF JUMP JUMPDEST PUSH1 0x0 PUSH1 0x1 DUP1 PUSH2 0xBA4 PUSH1 0x20 DUP7 ADD DUP7 PUSH2 0x4677 JUMP JUMPDEST AND PUSH2 0xFFFF AND EQ SWAP1 POP DUP4 PUSH1 0x1 PUSH1 0x1 PUSH1 0xA0 SHL SUB AND PUSH32 0xB441D7CA09ABC712B4504256717707CE40E8D43895266B46ABF9CD58619C07DC DUP3 DUP5 PUSH1 0x40 MLOAD PUSH2 0xBE7 SWAP3 SWAP2 SWAP1 PUSH2 0x48FF JUMP JUMPDEST PUSH1 0x40 MLOAD DUP1 SWAP2 SUB SWAP1 LOG2 POP POP POP POP JUMP JUMPDEST PUSH20 0x0 SWAP1 JUMP JUMPDEST PUSH1 0x2 PUSH1 0xA SLOAD EQ ISZERO PUSH2 0xC30 JUMPI PUSH1 0x40 MLOAD PUSH3 0x461BCD PUSH1 0xE5 SHL DUP2 MSTORE PUSH1 0x4 ADD PUSH2 0x2DB SWAP1 PUSH2 0x4CA4 JUMP JUMPDEST PUSH1 0x2 PUSH1 0xA SSTORE PUSH1 0x0 PUSH2 0xC40 CALLER PUSH2 0xEB0 JUMP JUMPDEST SWAP1 POP PUSH2 0xC4D DUP2 PUSH1 0x1 PUSH2 0xEDF JUMP JUMPDEST PUSH2 0xC69 JUMPI PUSH1 0x40 MLOAD PUSH3 0x461BCD PUSH1 0xE5 SHL DUP2 MSTORE PUSH1 0x4 ADD PUSH2 0x2DB SWAP1 PUSH2 0x4A29 JUMP JUMPDEST PUSH2 0xC74 DUP2 PUSH1 0x80 PUSH2 0xEDF JUMP JUMPDEST ISZERO PUSH2 0xC7F JUMPI PUSH1 0x1 PUSH1 0xA SSTORE JUMPDEST PUSH1 0x0 PUSH2 0xC8B CALLER DUP8 PUSH2 0x109D JUMP JUMPDEST SWAP1 POP PUSH1 0x0 PUSH2 0xCA0 DUP4 PUSH1 0x40 ADD MLOAD PUSH2 0xFFFF AND PUSH2 0xFB4 JUMP JUMPDEST SWAP1 POP PUSH1 0x0 PUSH2 0xCC2 DUP5 PUSH1 0x0 ADD MLOAD PUSH2 0xCB5 DUP10 PUSH2 0x1315 JUMP JUMPDEST DUP7 SWAP2 SWAP1 DUP12 PUSH1 0x0 DUP12 DUP12 PUSH2 0x1F7B JUMP JUMPDEST PUSH1 0x80 DUP5 ADD MLOAD SWAP1 SWAP2 POP PUSH2 0xCD4 SWAP1 DUP9 PUSH2 0x1B30 JUMP JUMPDEST PUSH1 0x80 DUP5 ADD MSTORE PUSH1 0xA0 DUP4 ADD MLOAD PUSH2 0xCE8 SWAP1 DUP3 PUSH2 0x1450 JUMP JUMPDEST PUSH1 0xA0 DUP5 ADD MSTORE PUSH2 0xCF7 DUP4 CALLER PUSH2 0x1462 JUMP JUMPDEST PUSH1 0x0 PUSH2 0xD1A DUP5 CALLER DUP7 PUSH1 0x60 ADD MLOAD DUP8 PUSH1 0x20 ADD MLOAD DUP10 PUSH2 0x2031 SWAP1 SWAP5 SWAP4 SWAP3 SWAP2 SWAP1 PUSH4 0xFFFFFFFF AND JUMP JUMPDEST POP SWAP1 POP DUP1 DUP6 PUSH1 0xA0 ADD MLOAD SGT ISZERO PUSH2 0xD41 JUMPI PUSH1 0x40 MLOAD PUSH3 0x461BCD PUSH1 0xE5 SHL DUP2 MSTORE PUSH1 0x4 ADD PUSH2 0x2DB SWAP1 PUSH2 0x4C6D JUMP JUMPDEST DUP9 CALLER PUSH1 0x1 PUSH1 0x1 PUSH1 0xA0 SHL SUB AND PUSH32 0xBBA43506B1F3723ADD796BF603ADDE56BC018392A95775B9F76C31213B4161BB DUP11 DUP6 PUSH1 0x40 MLOAD PUSH2 0xD7D SWAP3 SWAP2 SWAP1 PUSH2 0x4954 JUMP JUMPDEST PUSH1 0x40 MLOAD DUP1 SWAP2 SUB SWAP1 LOG3 POP POP PUSH1 0x1 PUSH1 0xA SSTORE POP POP POP POP POP POP POP JUMP JUMPDEST PUSH1 0x0 SLOAD PUSH1 0x1 PUSH1 0x20 SHL SWAP1 DIV PUSH1 0x1 PUSH1 0x1 PUSH1 0xA0 SHL SUB AND CALLER EQ PUSH2 0xDC6 JUMPI PUSH1 0x40 MLOAD PUSH3 0x461BCD PUSH1 0xE5 SHL DUP2 MSTORE PUSH1 0x4 ADD PUSH2 0x2DB SWAP1 PUSH2 0x4C38 JUMP JUMPDEST PUSH1 0x0 PUSH2 0xDD1 DUP8 PUSH2 0xEB0 JUMP JUMPDEST SWAP1 POP PUSH2 0xDE2 DUP8 DUP3 PUSH1 0x40 ADD MLOAD DUP9 PUSH2 0xFDF JUMP JUMPDEST PUSH2 0xDEF DUP2 DUP7 DUP7 DUP7 DUP7 PUSH2 0x2099 JUMP JUMPDEST POP POP PUSH1 0x1 PUSH1 0x1 PUSH1 0xA0 SHL SUB DUP8 AND PUSH32 0xB441D7CA09ABC712B4504256717707CE40E8D43895266B46ABF9CD58619C07DC PUSH2 0xE27 DUP4 PUSH1 0x1 PUSH2 0xEDF JUMP JUMPDEST DUP9 PUSH1 0x40 MLOAD PUSH2 0xE36 SWAP3 SWAP2 SWAP1 PUSH2 0x48FF JUMP JUMPDEST PUSH1 0x40 MLOAD DUP1 SWAP2 SUB SWAP1 LOG2 POP POP POP POP POP POP POP JUMP JUMPDEST PUSH2 0xE4F PUSH2 0x418C JUMP JUMPDEST PUSH2 0xE58 DUP3 PUSH2 0x1C99 JUMP JUMPDEST SWAP3 SWAP2 POP POP JUMP JUMPDEST PUSH1 0x0 DUP1 PUSH1 0x0 PUSH2 0xE6C CALLER PUSH2 0xEB0 JUMP JUMPDEST SWAP1 POP PUSH2 0xE79 DUP2 PUSH1 0x1 PUSH2 0xEDF JUMP JUMPDEST PUSH2 0xE95 JUMPI PUSH1 0x40 MLOAD PUSH3 0x461BCD PUSH1 0xE5 SHL DUP2 MSTORE PUSH1 0x4 ADD PUSH2 0x2DB SWAP1 PUSH2 0x4A29 JUMP JUMPDEST PUSH2 0xEA2 DUP2 DUP9 DUP9 DUP9 DUP9 PUSH2 0x2099 JUMP JUMPDEST SWAP3 POP SWAP3 POP POP SWAP5 POP SWAP5 SWAP3 POP POP POP JUMP JUMPDEST PUSH2 0xEB8 PUSH2 0x418C JUMP JUMPDEST PUSH2 0xEC1 DUP3 PUSH2 0x21AD JUMP JUMPDEST SWAP1 POP PUSH2 0xED4 DUP2 PUSH1 0x40 ADD MLOAD PUSH2 0xFFFF AND PUSH2 0x232A JUMP JUMPDEST PUSH2 0x160 DUP3 ADD MSTORE SWAP2 SWAP1 POP JUMP JUMPDEST PUSH1 0x20 SWAP2 SWAP1 SWAP2 ADD MLOAD DUP2 AND PUSH2 0xFFFF SWAP1 DUP2 AND SWAP2 AND EQ SWAP1 JUMP JUMPDEST PUSH1 0x0 DUP1 PUSH2 0xE58 PUSH1 0x1A PUSH2 0x2376 JUMP JUMPDEST PUSH1 0x0 PUSH2 0xFFFF DUP6 AND ISZERO DUP1 ISZERO SWAP1 PUSH2 0xF15 JUMPI POP DUP3 ISZERO ISZERO JUMPDEST ISZERO PUSH2 0xF2C JUMPI PUSH2 0xF28 DUP8 DUP8 DUP8 DUP8 DUP8 DUP8 PUSH2 0x189D JUMP JUMPDEST POP SWAP1 POP JUMPDEST SWAP7 SWAP6 POP POP POP POP POP POP JUMP JUMPDEST PUSH1 0x0 PUSH2 0xFFFF DUP7 AND ISZERO DUP1 PUSH2 0xF47 JUMPI POP DUP3 ISZERO JUMPDEST ISZERO PUSH2 0xF54 JUMPI POP PUSH1 0x0 PUSH2 0xFA9 JUMP JUMPDEST PUSH1 0x0 DUP1 PUSH2 0xF65 DUP11 DUP11 DUP11 DUP11 DUP10 DUP10 PUSH2 0x238F JUMP JUMPDEST SWAP1 SWAP3 POP SWAP1 POP PUSH2 0xF74 DUP3 DUP8 PUSH2 0x24FD JUMP JUMPDEST SWAP2 POP PUSH1 0x0 DUP3 SLT ISZERO PUSH2 0xF97 JUMPI PUSH1 0x40 MLOAD PUSH3 0x461BCD PUSH1 0xE5 SHL DUP2 MSTORE PUSH1 0x4 ADD PUSH2 0x2DB SWAP1 PUSH2 0x4B5A JUMP JUMPDEST DUP10 MLOAD PUSH2 0xFA4 SWAP1 DUP10 DUP5 PUSH2 0x2513 JUMP JUMPDEST SWAP3 POP POP POP JUMPDEST SWAP8 SWAP7 POP POP POP POP POP POP POP JUMP JUMPDEST PUSH2 0xFBC PUSH2 0x4209 JUMP JUMPDEST PUSH2 0xE58 DUP3 PUSH1 0x0 PUSH2 0x25BB JUMP JUMPDEST SWAP2 SWAP1 POP JUMP JUMPDEST PUSH2 0xFD4 PUSH2 0x4209 JUMP JUMPDEST PUSH2 0xE58 DUP3 PUSH1 0x1 PUSH2 0x25BB JUMP JUMPDEST PUSH1 0x0 PUSH2 0xFE9 PUSH2 0x1C8C JUMP JUMPDEST PUSH1 0x1 PUSH1 0x1 PUSH1 0xA0 SHL SUB SWAP1 SWAP5 AND PUSH1 0x0 SWAP1 DUP2 MSTORE PUSH1 0x20 SWAP5 DUP6 MSTORE PUSH1 0x40 DUP1 DUP3 KECCAK256 PUSH2 0xFFFF SWAP1 SWAP6 AND DUP3 MSTORE SWAP4 SWAP1 SWAP5 MSTORE POP SWAP2 KECCAK256 DUP1 SLOAD PUSH1 0x1 PUSH1 0x1 PUSH1 0x50 SHL SUB SWAP1 SWAP3 AND PUSH1 0x1 PUSH1 0x1 PUSH1 0x50 SHL SUB NOT SWAP1 SWAP3 AND SWAP2 SWAP1 SWAP2 OR SWAP1 SSTORE JUMP JUMPDEST PUSH2 0x103D DUP4 DUP3 PUSH2 0xEDF JUMP JUMPDEST ISZERO PUSH2 0x1070 JUMPI DUP3 MLOAD PUSH1 0x1 PUSH1 0x1 PUSH1 0xA0 SHL SUB AND CALLER EQ PUSH2 0x106B JUMPI PUSH1 0x40 MLOAD PUSH3 0x461BCD PUSH1 0xE5 SHL DUP2 MSTORE PUSH1 0x4 ADD PUSH2 0x2DB SWAP1 PUSH2 0x4A49 JUMP JUMPDEST PUSH2 0x1098 JUMP JUMPDEST PUSH1 0x1 PUSH1 0x1 PUSH1 0xA0 SHL SUB DUP3 AND CALLER EQ PUSH2 0x1098 JUMPI PUSH1 0x40 MLOAD PUSH3 0x461BCD PUSH1 0xE5 SHL DUP2 MSTORE PUSH1 0x4 ADD PUSH2 0x2DB SWAP1 PUSH2 0x4A49 JUMP JUMPDEST POP POP POP JUMP JUMPDEST PUSH2 0x10A5 PUSH2 0x414D JUMP JUMPDEST PUSH1 0x0 PUSH2 0x10AF PUSH2 0x2669 JUMP JUMPDEST PUSH1 0x1 PUSH1 0x1 PUSH1 0xA0 SHL SUB SWAP1 SWAP5 AND PUSH1 0x0 SWAP1 DUP2 MSTORE PUSH1 0x20 SWAP5 DUP6 MSTORE PUSH1 0x40 DUP1 DUP3 KECCAK256 DUP6 DUP4 MSTORE DUP7 MSTORE DUP1 DUP3 KECCAK256 SWAP5 DUP5 MSTORE DUP5 SLOAD PUSH1 0x1 PUSH1 0x1 PUSH1 0x50 SHL SUB DUP1 DUP3 AND SWAP1 SWAP4 SUB SWAP7 DUP6 ADD SWAP7 SWAP1 SWAP7 MSTORE PUSH1 0xFF PUSH1 0x1 PUSH1 0xF0 SHL DUP8 DIV AND ISZERO ISZERO SWAP1 DUP5 ADD MSTORE PUSH1 0x1 PUSH1 0x50 SHL DUP1 DUP7 DIV DUP3 AND PUSH1 0x80 DUP6 ADD MSTORE PUSH1 0x1 SWAP1 SWAP5 ADD SLOAD DUP1 DUP3 AND PUSH1 0xA0 DUP6 ADD MSTORE PUSH1 0x1 PUSH1 0xA0 SHL SWAP1 SWAP6 DIV AND PUSH1 0x60 DUP4 ADD MSTORE POP SWAP2 DIV PUSH1 0x9 SWAP1 DUP2 SIGNEXTEND SWAP1 SIGNEXTEND PUSH1 0xC0 DUP3 ADD MSTORE SWAP1 JUMP JUMPDEST PUSH2 0x1140 PUSH2 0x4238 JUMP JUMPDEST PUSH1 0x0 DUP1 PUSH2 0x114D DUP7 DUP7 PUSH2 0x2676 JUMP JUMPDEST SWAP2 POP SWAP2 POP DUP2 PUSH1 0x0 EQ ISZERO PUSH2 0x127D JUMPI PUSH1 0x0 PUSH2 0x1165 DUP8 PUSH2 0x26BF JUMP JUMPDEST SWAP2 SWAP5 POP SWAP1 SWAP3 POP SWAP1 POP PUSH1 0x1 PUSH1 0x1 PUSH1 0xA0 SHL SUB DUP2 AND ISZERO PUSH2 0x127B JUMPI PUSH1 0x0 PUSH2 0x1186 PUSH2 0x2782 JUMP JUMPDEST SWAP1 POP DUP6 PUSH1 0x0 LT DUP1 ISZERO PUSH2 0x1198 JUMPI POP DUP6 DUP8 GT ISZERO JUMPDEST DUP1 ISZERO PUSH2 0x11A9 JUMPI POP PUSH5 0xFFFFFFFFFF DUP7 GT ISZERO JUMPDEST PUSH2 0x11B2 JUMPI PUSH1 0x0 DUP1 REVERT JUMPDEST DUP4 PUSH1 0x0 SLT DUP1 ISZERO PUSH2 0x11C9 JUMPI POP PUSH1 0x1 PUSH1 0x1 PUSH1 0x80 SHL SUB DUP5 SGT ISZERO JUMPDEST PUSH2 0x11D2 JUMPI PUSH1 0x0 DUP1 REVERT JUMPDEST PUSH1 0x0 DUP9 DUP2 MSTORE PUSH1 0x20 DUP3 DUP2 MSTORE PUSH1 0x40 DUP1 DUP4 KECCAK256 DUP11 DUP5 MSTORE SWAP1 SWAP2 MSTORE SWAP1 DUP2 SWAP1 KECCAK256 DUP1 SLOAD PUSH5 0xFFFFFFFFFF NOT AND PUSH5 0xFFFFFFFFFF DUP10 AND OR PUSH21 0xFFFFFFFFFFFFFFFFFFFFFFFFFFFFFFFF0000000000 NOT AND PUSH6 0x10000000000 PUSH1 0x1 PUSH1 0x1 PUSH1 0x80 SHL SUB DUP9 AND MUL OR PUSH1 0xFF PUSH1 0xA8 SHL NOT AND PUSH1 0x1 PUSH1 0xA8 SHL PUSH1 0xFF DUP8 AND MUL OR DUP2 SSTORE SWAP1 MLOAD DUP9 SWAP1 DUP11 SWAP1 PUSH32 0xFDFA6885701E2F1F42E4187B9231CF81C1FE23671EF64FA46F34DDB56C1DC18 SWAP1 PUSH2 0x1270 SWAP1 DUP10 SWAP1 PUSH2 0x4E29 JUMP JUMPDEST PUSH1 0x40 MLOAD DUP1 SWAP2 SUB SWAP1 LOG3 POP POP JUMPDEST POP JUMPDEST PUSH1 0x40 DUP1 MLOAD PUSH1 0x60 DUP2 ADD DUP3 MSTORE PUSH1 0x0 DUP2 MSTORE PUSH1 0x20 DUP2 ADD SWAP4 SWAP1 SWAP4 MSTORE PUSH1 0xFF SWAP1 SWAP2 AND PUSH1 0xA EXP SWAP1 DUP3 ADD MSTORE SWAP1 POP SWAP4 SWAP3 POP POP POP JUMP JUMPDEST PUSH1 0x0 PUSH2 0xE58 PUSH1 0x0 NOT DUP4 PUSH2 0x278F JUMP JUMPDEST PUSH1 0x0 DUP1 PUSH2 0x12ED DUP5 PUSH1 0x20 ADD MLOAD PUSH2 0x12E7 DUP7 PUSH1 0x40 ADD MLOAD PUSH2 0x12E1 PUSH5 0x2540BE400 DUP9 PUSH2 0x278F SWAP1 SWAP2 SWAP1 PUSH4 0xFFFFFFFF AND JUMP JUMPDEST SWAP1 PUSH2 0x278F JUMP JUMPDEST SWAP1 PUSH2 0x27DD JUMP JUMPDEST SWAP5 SWAP4 POP POP POP POP JUMP JUMPDEST PUSH1 0x0 DUP1 DUP3 SLT ISZERO PUSH2 0x1304 JUMPI PUSH1 0x0 DUP1 REVERT JUMPDEST POP SWAP1 JUMP JUMPDEST PUSH1 0x0 DUP1 PUSH2 0xE58 PUSH1 0x18 PUSH2 0x2376 JUMP JUMPDEST PUSH1 0x0 PUSH1 0x1 PUSH1 0x1 PUSH1 0xFF SHL SUB DUP3 GT ISZERO PUSH2 0x1304 JUMPI PUSH1 0x0 DUP1 REVERT JUMPDEST PUSH1 0x0 PUSH2 0x1338 DUP5 PUSH1 0x0 PUSH2 0x1C2C JUMP JUMPDEST DUP4 PUSH1 0x1 PUSH1 0x1 PUSH1 0xA0 SHL SUB AND PUSH32 0x7C51C6AA77346C54CB051D9E792F9B7BDE5C28A9B57E6FB2D2DD727B38438CA9 PUSH1 0x0 PUSH1 0x40 MLOAD PUSH2 0x1372 SWAP2 SWAP1 PUSH2 0x48F4 JUMP JUMPDEST PUSH1 0x40 MLOAD DUP1 SWAP2 SUB SWAP1 LOG2 DUP3 PUSH2 0xFFFF AND DUP5 PUSH1 0x1 PUSH1 0x1 PUSH1 0xA0 SHL SUB AND PUSH32 0xC6525E68251BE388040A5488AC0C1BBAE9E15B03AF12E7EB84FC2E7FF2B46384 DUP5 PUSH1 0x40 MLOAD PUSH2 0x13B8 SWAP2 SWAP1 PUSH2 0x494B JUMP JUMPDEST PUSH1 0x40 MLOAD DUP1 SWAP2 SUB SWAP1 LOG3 PUSH1 0x0 PUSH2 0x13D1 PUSH1 0x0 DUP6 PUSH2 0xFFFF AND PUSH2 0x280E JUMP JUMPDEST POP POP POP SWAP1 POP DUP1 DUP4 SGT PUSH2 0x13F1 JUMPI PUSH2 0x13E9 DUP5 DUP5 DUP4 SUB PUSH2 0x28B7 JUMP JUMPDEST DUP3 SWAP2 POP PUSH2 0x1448 JUMP JUMPDEST PUSH2 0x13FC DUP5 PUSH1 0x0 PUSH2 0x28B7 JUMP JUMPDEST DUP4 PUSH2 0xFFFF AND DUP6 PUSH1 0x1 PUSH1 0x1 PUSH1 0xA0 SHL SUB AND PUSH32 0xC83C39F2D248D6443025DA5CAEE781F1D927FB0C59598B7C6084738FE7113E22 DUP4 DUP7 SUB PUSH1 0x40 MLOAD PUSH2 0x143C SWAP2 SWAP1 PUSH2 0x494B JUMP JUMPDEST PUSH1 0x40 MLOAD DUP1 SWAP2 SUB SWAP1 LOG3 DUP1 SWAP2 POP JUMPDEST POP SWAP4 SWAP3 POP POP POP JUMP JUMPDEST PUSH1 0x0 DUP3 DUP3 ADD DUP4 DUP2 LT ISZERO PUSH2 0x7DA JUMPI PUSH1 0x0 DUP1 REVERT JUMPDEST PUSH1 0x0 PUSH2 0x146C PUSH2 0x2669 JUMP JUMPDEST PUSH1 0x1 PUSH1 0x1 PUSH1 0xA0 SHL SUB DUP4 AND PUSH1 0x0 SWAP1 DUP2 MSTORE PUSH1 0x20 DUP3 DUP2 MSTORE PUSH1 0x40 DUP1 DUP4 KECCAK256 DUP8 MLOAD DUP5 MSTORE SWAP1 SWAP2 MSTORE SWAP1 DUP2 SWAP1 KECCAK256 SWAP1 DUP6 ADD MLOAD SWAP2 SWAP3 POP SWAP1 ISZERO PUSH2 0x14A2 JUMPI PUSH1 0x0 DUP1 REVERT JUMPDEST PUSH2 0x14BA PUSH2 0x14B5 PUSH2 0x639 DUP7 PUSH1 0x20 ADD MLOAD PUSH2 0x12A8 JUMP JUMPDEST PUSH2 0x290E JUMP JUMPDEST DUP2 SLOAD PUSH1 0x1 PUSH1 0x1 PUSH1 0x50 SHL SUB NOT AND PUSH1 0x1 PUSH1 0x1 PUSH1 0x50 SHL SUB SWAP2 SWAP1 SWAP2 AND OR DUP2 SSTORE PUSH1 0x80 DUP5 ADD MLOAD PUSH2 0x14E3 SWAP1 PUSH2 0x290E JUMP JUMPDEST DUP2 SLOAD PUSH1 0x1 PUSH1 0x1 PUSH1 0x50 SHL SUB SWAP2 SWAP1 SWAP2 AND PUSH1 0x1 PUSH1 0x50 SHL MUL PUSH1 0x1 PUSH1 0x50 SHL PUSH1 0x1 PUSH1 0xA0 SHL SUB NOT SWAP1 SWAP2 AND OR DUP2 SSTORE PUSH1 0xA0 DUP5 ADD MLOAD PUSH2 0x1517 SWAP1 PUSH2 0x290E JUMP JUMPDEST PUSH1 0x1 DUP3 ADD DUP1 SLOAD PUSH1 0x1 PUSH1 0x1 PUSH1 0x50 SHL SUB NOT AND PUSH1 0x1 PUSH1 0x1 PUSH1 0x50 SHL SUB SWAP3 SWAP1 SWAP3 AND SWAP2 SWAP1 SWAP2 OR SWAP1 SSTORE PUSH1 0x60 DUP5 ADD MLOAD PUSH2 0x1547 SWAP1 PUSH2 0x290E JUMP JUMPDEST DUP2 SLOAD PUSH1 0x1 PUSH1 0x1 PUSH1 0x50 SHL SUB SWAP2 SWAP1 SWAP2 AND PUSH1 0x1 PUSH1 0xA0 SHL MUL PUSH10 0xFFFFFFFFFFFFFFFFFFFF PUSH1 0xA0 SHL NOT SWAP1 SWAP2 AND OR DUP2 SSTORE DUP4 MLOAD PUSH1 0x20 DUP6 ADD MLOAD PUSH1 0x80 DUP7 ADD MLOAD PUSH1 0xA0 DUP8 ADD MLOAD PUSH1 0x60 DUP9 ADD MLOAD PUSH1 0x40 MLOAD PUSH1 0x1 PUSH1 0x1 PUSH1 0xA0 SHL SUB DUP10 AND SWAP5 PUSH32 0x3A0FDAECF7B5DA75A56077F5B1C8FBC88F9B08E9D0C4DB31EB34E25BC6700CDE SWAP5 PUSH2 0x15C3 SWAP5 SWAP2 SWAP4 SWAP1 SWAP3 PUSH2 0x4962 JUMP JUMPDEST PUSH1 0x40 MLOAD DUP1 SWAP2 SUB SWAP1 LOG3 POP POP POP POP JUMP JUMPDEST PUSH1 0x0 DUP1 PUSH2 0x15DC PUSH2 0x1C8C JUMP JUMPDEST PUSH1 0x1 PUSH1 0x1 PUSH1 0xA0 SHL SUB DUP7 AND PUSH1 0x0 SWAP1 DUP2 MSTORE PUSH1 0x20 SWAP2 DUP3 MSTORE PUSH1 0x40 DUP1 DUP3 KECCAK256 PUSH2 0xFFFF DUP9 AND DUP4 MSTORE SWAP1 SWAP3 MSTORE KECCAK256 DUP1 SLOAD SWAP1 SWAP2 POP PUSH2 0x161F SWAP1 PUSH1 0x1 PUSH1 0x50 SHL SWAP1 DIV PUSH1 0x1 PUSH1 0x1 PUSH1 0x50 SHL SUB AND DUP5 PUSH2 0x2924 JUMP JUMPDEST SWAP2 POP PUSH1 0x0 DUP4 SLT ISZERO PUSH2 0x1654 JUMPI DUP1 SLOAD PUSH1 0x1 PUSH1 0x1 PUSH1 0x50 SHL SUB AND DUP3 SGT ISZERO PUSH2 0x1654 JUMPI PUSH1 0x40 MLOAD PUSH3 0x461BCD PUSH1 0xE5 SHL DUP2 MSTORE PUSH1 0x4 ADD PUSH2 0x2DB SWAP1 PUSH2 0x4BB8 JUMP JUMPDEST PUSH2 0x1660 PUSH2 0x14B5 DUP4 PUSH2 0x12F5 JUMP JUMPDEST DUP2 SLOAD PUSH1 0x1 PUSH1 0x1 PUSH1 0x50 SHL SUB SWAP2 SWAP1 SWAP2 AND PUSH1 0x1 PUSH1 0x50 SHL MUL PUSH1 0x1 PUSH1 0x50 SHL PUSH1 0x1 PUSH1 0xA0 SHL SUB NOT SWAP1 SWAP2 AND OR DUP2 SSTORE PUSH1 0x40 MLOAD PUSH2 0xFFFF DUP6 AND SWAP1 PUSH1 0x1 PUSH1 0x1 PUSH1 0xA0 SHL SUB DUP8 AND SWAP1 PUSH32 0x20478EF460E49D010960D4F3FFF35D8DAE385443ABFAC09035D6A2CCBCD834C4 SWAP1 PUSH2 0x16C7 SWAP1 DUP7 SWAP1 PUSH2 0x494B JUMP JUMPDEST PUSH1 0x40 MLOAD DUP1 SWAP2 SUB SWAP1 LOG3 POP SWAP4 SWAP3 POP POP POP JUMP JUMPDEST PUSH1 0x0 PUSH2 0x16E1 PUSH2 0x2669 JUMP JUMPDEST DUP6 MLOAD PUSH1 0x1 PUSH1 0x1 PUSH1 0xA0 SHL SUB AND PUSH1 0x0 SWAP1 DUP2 MSTORE PUSH1 0x20 DUP3 DUP2 MSTORE PUSH1 0x40 DUP1 DUP4 KECCAK256 DUP8 DUP5 MSTORE SWAP1 SWAP2 MSTORE SWAP1 KECCAK256 DUP1 SLOAD SWAP2 SWAP3 POP SWAP1 PUSH1 0x1 PUSH1 0xF0 SHL SWAP1 DIV PUSH1 0xFF AND ISZERO PUSH2 0x171D JUMPI PUSH1 0x0 DUP1 REVERT JUMPDEST DUP3 DUP5 GT ISZERO PUSH2 0x172A JUMPI PUSH1 0x0 DUP1 REVERT JUMPDEST PUSH1 0x40 DUP7 ADD MLOAD DUP7 MLOAD PUSH1 0x0 SWAP2 PUSH2 0x1744 SWAP2 DUP1 PUSH4 0x5F5E100 DUP10 PUSH2 0x293A JUMP JUMPDEST DUP3 SLOAD PUSH1 0xFF PUSH1 0xF0 SHL NOT AND PUSH1 0x1 PUSH1 0xF0 SHL OR DUP4 SSTORE SWAP1 POP PUSH2 0x1760 DUP2 PUSH2 0x2A01 JUMP JUMPDEST DUP3 PUSH1 0x1 ADD PUSH1 0xA PUSH2 0x100 EXP DUP2 SLOAD DUP2 PUSH1 0x1 PUSH1 0x1 PUSH1 0x50 SHL SUB MUL NOT AND SWAP1 DUP4 PUSH1 0x9 SIGNEXTEND PUSH1 0x1 PUSH1 0x1 PUSH1 0x50 SHL SUB AND MUL OR SWAP1 SSTORE POP PUSH1 0x0 PUSH2 0x1795 PUSH2 0x2A31 JUMP JUMPDEST DUP9 MLOAD PUSH1 0x1 PUSH1 0x1 PUSH1 0xA0 SHL SUB AND PUSH1 0x0 SWAP1 DUP2 MSTORE PUSH1 0x20 SWAP2 DUP3 MSTORE PUSH1 0x40 DUP1 DUP3 KECCAK256 DUP10 DUP4 MSTORE DUP4 MSTORE SWAP1 KECCAK256 PUSH1 0x1 DUP6 ADD SLOAD DUP2 SLOAD PUSH1 0x1 PUSH1 0x1 PUSH1 0x50 SHL SUB NOT AND PUSH1 0x1 PUSH1 0x1 PUSH1 0x50 SHL SUB SWAP1 SWAP2 AND OR DUP2 SSTORE SWAP1 DUP11 ADD MLOAD SWAP1 SWAP2 POP PUSH2 0x1807 SWAP1 PUSH2 0x1802 SWAP1 PUSH2 0x17EF SWAP1 DUP11 SWAP1 PUSH2 0x12B6 JUMP JUMPDEST PUSH2 0x17FC DUP13 PUSH1 0x80 ADD MLOAD PUSH2 0x1315 JUMP JUMPDEST SWAP1 PUSH2 0x24FD JUMP JUMPDEST PUSH2 0x2A01 JUMP JUMPDEST DUP2 SLOAD PUSH1 0x9 SWAP2 SWAP1 SWAP2 SIGNEXTEND PUSH1 0x1 PUSH1 0x1 PUSH1 0x50 SHL SUB AND PUSH1 0x1 PUSH1 0x50 SHL MUL PUSH1 0x1 PUSH1 0x50 SHL PUSH1 0x1 PUSH1 0xA0 SHL SUB NOT SWAP1 SWAP2 AND OR DUP2 SSTORE DUP9 MLOAD DUP9 MLOAD PUSH1 0x20 DUP12 ADD MLOAD PUSH1 0x80 DUP13 ADD MLOAD PUSH1 0xA0 DUP14 ADD MLOAD PUSH1 0x60 DUP15 ADD MLOAD PUSH1 0x40 MLOAD PUSH1 0x1 PUSH1 0x1 PUSH1 0xA0 SHL SUB SWAP1 SWAP6 AND SWAP5 PUSH32 0xE66A863186DBA5A66D19D3D91A66B76A7CBFDEFD0D8C29C662274B13FEBB166E SWAP5 PUSH2 0x188A SWAP5 SWAP1 SWAP4 SWAP1 SWAP3 SWAP1 SWAP2 DUP11 SWAP1 PUSH2 0x497D JUMP JUMPDEST PUSH1 0x40 MLOAD DUP1 SWAP2 SUB SWAP1 LOG3 POP POP POP POP POP POP POP POP POP JUMP JUMPDEST PUSH1 0x0 DUP1 PUSH1 0x0 PUSH2 0x18AA PUSH2 0x1308 JUMP JUMPDEST DUP10 MLOAD PUSH1 0x1 PUSH1 0x1 PUSH1 0xA0 SHL SUB AND PUSH1 0x0 SWAP1 DUP2 MSTORE PUSH1 0x20 SWAP2 DUP3 MSTORE PUSH1 0x40 DUP1 DUP3 KECCAK256 DUP10 DUP4 MSTORE DUP4 MSTORE DUP1 DUP3 KECCAK256 PUSH2 0xFFFF DUP12 AND DUP4 MSTORE SWAP1 SWAP3 MSTORE KECCAK256 DUP1 SLOAD SWAP1 SWAP2 POP PUSH1 0x1 PUSH1 0x1 PUSH1 0x50 SHL SUB DUP1 DUP3 AND SWAP2 PUSH1 0x1 PUSH1 0x50 SHL SWAP1 DIV AND PUSH2 0x190C PUSH2 0x1907 DUP3 PUSH2 0x1901 DUP11 DUP7 PUSH2 0x2A3E JUMP JUMPDEST SWAP1 PUSH2 0x2A65 JUMP JUMPDEST PUSH2 0x1315 JUMP JUMPDEST SWAP4 POP DUP11 PUSH1 0x0 ADD MLOAD PUSH1 0x1 PUSH1 0x1 PUSH1 0xA0 SHL SUB AND DUP11 PUSH1 0x1 PUSH1 0x1 PUSH1 0xA0 SHL SUB AND EQ PUSH2 0x1976 JUMPI PUSH2 0x1938 PUSH2 0x14B5 DUP3 DUP10 PUSH2 0x1B30 JUMP JUMPDEST DUP4 SLOAD PUSH1 0x1 PUSH1 0x1 PUSH1 0x50 SHL SUB SWAP2 SWAP1 SWAP2 AND PUSH1 0x1 PUSH1 0x50 SHL MUL PUSH1 0x1 PUSH1 0x50 SHL PUSH1 0x1 PUSH1 0xA0 SHL SUB NOT SWAP1 SWAP2 AND OR DUP4 SSTORE PUSH2 0x1976 DUP12 DUP12 DUP12 DUP12 PUSH2 0x1971 PUSH2 0x890 DUP14 PUSH2 0x1315 JUMP JUMPDEST PUSH2 0x2A84 JUMP JUMPDEST DUP11 MLOAD PUSH2 0x1983 SWAP1 DUP11 DUP7 PUSH2 0x15D1 JUMP JUMPDEST POP PUSH2 0x1991 PUSH2 0x14B5 DUP4 DUP7 PUSH2 0x1B30 JUMP JUMPDEST DUP4 SLOAD PUSH1 0x1 PUSH1 0x1 PUSH1 0x50 SHL SUB NOT AND PUSH1 0x1 PUSH1 0x1 PUSH1 0x50 SHL SUB SWAP2 SWAP1 SWAP2 AND OR DUP4 SSTORE PUSH2 0x19B9 DUP12 DUP11 DUP11 DUP8 DUP11 PUSH2 0x2C0C JUMP JUMPDEST SWAP5 POP DUP9 PUSH2 0xFFFF AND DUP11 PUSH1 0x1 PUSH1 0x1 PUSH1 0xA0 SHL SUB AND DUP13 PUSH1 0x0 ADD MLOAD PUSH1 0x1 PUSH1 0x1 PUSH1 0xA0 SHL SUB AND PUSH32 0xE600BDB35F19BEE41E408C7EB7A5274715D195849A3773C90DEC48E2FF9513D7 DUP11 DUP9 PUSH1 0x40 MLOAD PUSH2 0x1A09 SWAP3 SWAP2 SWAP1 PUSH2 0x4954 JUMP JUMPDEST PUSH1 0x40 MLOAD DUP1 SWAP2 SUB SWAP1 LOG4 POP POP POP SWAP7 POP SWAP7 SWAP5 POP POP POP POP POP JUMP JUMPDEST PUSH1 0x0 DUP1 PUSH2 0x12ED DUP5 PUSH1 0x40 ADD MLOAD PUSH2 0x12E7 PUSH5 0x2540BE400 PUSH2 0x12E7 DUP8 DUP10 PUSH1 0x20 ADD MLOAD PUSH2 0x278F SWAP1 SWAP2 SWAP1 PUSH4 0xFFFFFFFF AND JUMP JUMPDEST PUSH1 0x0 PUSH4 0x5F5E100 DUP4 PUSH1 0x40 ADD MLOAD SLT ISZERO PUSH2 0x1A72 JUMPI PUSH2 0x1A6B PUSH1 0x1 PUSH2 0x17FC DUP6 DUP6 PUSH2 0x2CD9 JUMP JUMPDEST SWAP1 POP PUSH2 0xE58 JUMP JUMPDEST PUSH2 0x7DA DUP4 PUSH2 0x1A81 DUP5 PUSH1 0x1 PUSH2 0x24FD JUMP JUMPDEST PUSH2 0x2CD9 JUMP JUMPDEST PUSH1 0x0 PUSH1 0x3 DUP4 PUSH1 0x60 ADD MLOAD PUSH1 0x5 DUP2 GT ISZERO PUSH2 0x1A9A JUMPI INVALID JUMPDEST EQ ISZERO PUSH2 0x1AB1 JUMPI POP PUSH1 0x1 PUSH1 0x1 PUSH1 0xA0 SHL SUB DUP2 AND BALANCE PUSH2 0xE58 JUMP JUMPDEST DUP3 MLOAD PUSH1 0x40 MLOAD PUSH4 0x70A08231 PUSH1 0xE0 SHL DUP2 MSTORE PUSH1 0x1 PUSH1 0x1 PUSH1 0xA0 SHL SUB SWAP1 SWAP2 AND SWAP1 PUSH4 0x70A08231 SWAP1 PUSH2 0x1AE0 SWAP1 DUP6 SWAP1 PUSH1 0x4 ADD PUSH2 0x47AA JUMP JUMPDEST PUSH1 0x20 PUSH1 0x40 MLOAD DUP1 DUP4 SUB DUP2 DUP7 DUP1 EXTCODESIZE ISZERO DUP1 ISZERO PUSH2 0x1AF8 JUMPI PUSH1 0x0 DUP1 REVERT JUMPDEST POP GAS STATICCALL ISZERO DUP1 ISZERO PUSH2 0x1B0C JUMPI RETURNDATASIZE PUSH1 0x0 DUP1 RETURNDATACOPY RETURNDATASIZE PUSH1 0x0 REVERT JUMPDEST POP POP POP POP PUSH1 0x40 MLOAD RETURNDATASIZE PUSH1 0x1F NOT PUSH1 0x1F DUP3 ADD AND DUP3 ADD DUP1 PUSH1 0x40 MSTORE POP DUP2 ADD SWAP1 PUSH2 0x1A6B SWAP2 SWAP1 PUSH2 0x465F JUMP JUMPDEST PUSH1 0x0 DUP3 DUP3 GT ISZERO PUSH2 0x1B3F JUMPI PUSH1 0x0 DUP1 REVERT JUMPDEST POP SWAP1 SUB SWAP1 JUMP JUMPDEST PUSH1 0x0 DUP1 PUSH1 0x5 DUP6 PUSH1 0x60 ADD MLOAD PUSH1 0x5 DUP2 GT ISZERO PUSH2 0x1B5A JUMPI INVALID JUMPDEST EQ PUSH2 0x1B6C JUMPI PUSH4 0x70A08231 PUSH1 0xE0 SHL PUSH2 0x1B75 JUMP JUMPDEST PUSH4 0xED1279F PUSH1 0xE1 SHL JUMPDEST SWAP1 POP PUSH1 0x0 PUSH2 0x1B88 DUP7 PUSH1 0x0 ADD MLOAD ADDRESS DUP5 PUSH2 0x2D11 JUMP JUMPDEST SWAP1 POP PUSH1 0x5 DUP7 PUSH1 0x60 ADD MLOAD PUSH1 0x5 DUP2 GT ISZERO PUSH2 0x1B9C JUMPI INVALID JUMPDEST EQ ISZERO PUSH2 0x1BC3 JUMPI PUSH1 0x0 PUSH2 0x1BB1 DUP7 PUSH2 0xFFFF AND PUSH2 0xFCC JUMP JUMPDEST SWAP1 POP PUSH2 0x1BBD DUP2 DUP7 PUSH2 0x2E23 JUMP JUMPDEST POP PUSH2 0x1C0C JUMP JUMPDEST PUSH1 0x1 DUP7 PUSH1 0x60 ADD MLOAD PUSH1 0x5 DUP2 GT ISZERO PUSH2 0x1BD5 JUMPI INVALID JUMPDEST EQ ISZERO PUSH2 0x1BEA JUMPI PUSH2 0x1BE5 DUP7 DUP6 PUSH2 0x2E96 JUMP JUMPDEST PUSH2 0x1C0C JUMP JUMPDEST PUSH1 0x2 DUP7 PUSH1 0x60 ADD MLOAD PUSH1 0x5 DUP2 GT ISZERO PUSH2 0x1BFC JUMPI INVALID JUMPDEST EQ ISZERO PUSH2 0x116 JUMPI PUSH2 0x1BE5 DUP7 DUP6 PUSH2 0x2F38 JUMP JUMPDEST PUSH1 0x0 PUSH2 0x1C1D DUP8 PUSH1 0x0 ADD MLOAD ADDRESS DUP6 PUSH2 0x2D11 JUMP JUMPDEST SWAP1 POP PUSH2 0xFA9 PUSH2 0x1907 DUP3 DUP5 PUSH2 0x2F8B JUMP JUMPDEST PUSH1 0x0 PUSH2 0x1C36 PUSH2 0x2FE2 JUMP JUMPDEST PUSH1 0x1 PUSH1 0x1 PUSH1 0xA0 SHL SUB DUP5 AND PUSH1 0x0 SWAP1 DUP2 MSTORE PUSH1 0x20 DUP3 SWAP1 MSTORE PUSH1 0x40 SWAP1 KECCAK256 DUP1 SLOAD SWAP2 SWAP3 POP SWAP1 PUSH2 0xFFFF AND DUP4 ISZERO PUSH2 0x1C75 JUMPI DUP2 SLOAD PUSH2 0xFFFF NOT AND PUSH1 0x1 DUP3 OR PUSH2 0xFFFF AND OR DUP3 SSTORE PUSH2 0x1C85 JUMP JUMPDEST DUP2 SLOAD PUSH2 0xFFFF NOT AND PUSH2 0xFFFE DUP3 AND OR DUP3 SSTORE JUMPDEST POP POP POP POP POP JUMP JUMPDEST PUSH1 0x0 DUP1 PUSH2 0xE58 PUSH1 0x17 PUSH2 0x2376 JUMP JUMPDEST PUSH2 0x1CA1 PUSH2 0x418C JUMP JUMPDEST PUSH2 0x1CAA DUP3 PUSH2 0x21AD JUMP JUMPDEST SWAP1 POP PUSH2 0xED4 DUP2 PUSH1 0x40 ADD MLOAD PUSH2 0xFFFF AND PUSH2 0x2FEF JUMP JUMPDEST PUSH1 0x0 DUP1 PUSH1 0x0 PUSH2 0x1CD4 DUP7 PUSH1 0x40 ADD MLOAD PUSH2 0xFFFF AND DUP6 PUSH2 0x3005 JUMP JUMPDEST SWAP1 POP PUSH1 0x0 PUSH2 0x1CFB PUSH2 0x890 PUSH2 0x1CEB DUP9 PUSH1 0x80 ADD MLOAD PUSH2 0x1315 JUMP JUMPDEST PUSH1 0x20 DUP10 ADD MLOAD PUSH2 0x17FC SWAP1 DUP7 SWAP1 PUSH2 0x12B6 JUMP JUMPDEST SWAP1 POP PUSH1 0x0 PUSH2 0x1D10 DUP9 PUSH1 0x40 ADD MLOAD PUSH2 0xFFFF AND PUSH2 0xFB4 JUMP JUMPDEST SWAP1 POP PUSH2 0x1D1C DUP2 DUP4 PUSH2 0x2CD9 JUMP JUMPDEST SWAP5 POP PUSH1 0x4 DUP2 PUSH1 0x60 ADD MLOAD PUSH1 0x5 DUP2 GT ISZERO PUSH2 0x1D30 JUMPI INVALID JUMPDEST EQ ISZERO PUSH2 0x1D3E JUMPI DUP5 SWAP4 POP PUSH2 0x1D6B JUMP JUMPDEST PUSH1 0x0 PUSH2 0x1D51 DUP10 PUSH1 0x40 ADD MLOAD PUSH2 0xFFFF AND PUSH2 0xFCC JUMP JUMPDEST SWAP1 POP PUSH2 0x1D67 PUSH2 0x1D60 DUP6 DUP6 PUSH2 0x1A1F JUMP JUMPDEST DUP3 SWAP1 PUSH2 0x1A4A JUMP JUMPDEST SWAP5 POP POP JUMPDEST POP POP POP SWAP4 POP SWAP4 SWAP2 POP POP JUMP JUMPDEST PUSH1 0x0 PUSH2 0x1D80 PUSH2 0x2FE2 JUMP JUMPDEST SWAP1 POP PUSH2 0x1D92 PUSH1 0xC0 DUP4 ADD PUSH1 0xA0 DUP5 ADD PUSH2 0x4700 JUMP JUMPDEST PUSH1 0xFF AND PUSH1 0x64 SGT ISZERO PUSH2 0x1DA2 JUMPI PUSH1 0x0 DUP1 REVERT JUMPDEST PUSH1 0x64 PUSH2 0x1DB4 PUSH1 0xE0 DUP5 ADD PUSH1 0xC0 DUP6 ADD PUSH2 0x4700 JUMP JUMPDEST PUSH1 0xFF AND SGT ISZERO PUSH2 0x1DC2 JUMPI PUSH1 0x0 DUP1 REVERT JUMPDEST PUSH2 0x1DD3 PUSH2 0x100 DUP4 ADD PUSH1 0xE0 DUP5 ADD PUSH2 0x4700 JUMP JUMPDEST PUSH1 0xFF AND PUSH2 0x1DDF JUMPI PUSH1 0x0 DUP1 REVERT JUMPDEST PUSH2 0x1DF1 PUSH2 0x120 DUP4 ADD PUSH2 0x100 DUP5 ADD PUSH2 0x4677 JUMP JUMPDEST PUSH2 0xFFFF AND PUSH2 0x1E05 PUSH1 0x80 DUP5 ADD PUSH1 0x60 DUP6 ADD PUSH2 0x4677 JUMP JUMPDEST PUSH2 0xFFFF AND LT PUSH2 0x1E13 JUMPI PUSH1 0x0 DUP1 REVERT JUMPDEST PUSH2 0x1E25 PUSH2 0x140 DUP4 ADD PUSH2 0x120 DUP5 ADD PUSH2 0x4677 JUMP JUMPDEST PUSH2 0xFFFF AND PUSH2 0x1E39 PUSH1 0x40 DUP5 ADD PUSH1 0x20 DUP6 ADD PUSH2 0x4677 JUMP JUMPDEST PUSH2 0xFFFF AND EQ ISZERO PUSH2 0x1E48 JUMPI PUSH1 0x0 DUP1 REVERT JUMPDEST PUSH2 0x1E5A PUSH2 0x160 DUP4 ADD PUSH2 0x140 DUP5 ADD PUSH2 0x4677 JUMP JUMPDEST PUSH2 0xFFFF AND PUSH2 0x1E6E PUSH1 0x40 DUP5 ADD PUSH1 0x20 DUP6 ADD PUSH2 0x4677 JUMP JUMPDEST PUSH2 0xFFFF AND EQ ISZERO PUSH2 0x1E7D JUMPI PUSH1 0x0 DUP1 REVERT JUMPDEST PUSH2 0x1E8F PUSH2 0x140 DUP4 ADD PUSH2 0x120 DUP5 ADD PUSH2 0x4677 JUMP JUMPDEST PUSH2 0xFFFF AND ISZERO DUP1 ISZERO SWAP1 PUSH2 0x1EB5 JUMPI POP PUSH2 0x1EAE PUSH2 0x160 DUP4 ADD PUSH2 0x140 DUP5 ADD PUSH2 0x4677 JUMP JUMPDEST PUSH2 0xFFFF AND ISZERO ISZERO JUMPDEST ISZERO PUSH2 0x1EF1 JUMPI PUSH2 0x1ECC PUSH2 0x160 DUP4 ADD PUSH2 0x140 DUP5 ADD PUSH2 0x4677 JUMP JUMPDEST PUSH2 0xFFFF AND PUSH2 0x1EE2 PUSH2 0x140 DUP5 ADD PUSH2 0x120 DUP6 ADD PUSH2 0x4677 JUMP JUMPDEST PUSH2 0xFFFF AND EQ ISZERO PUSH2 0x1EF1 JUMPI PUSH1 0x0 DUP1 REVERT JUMPDEST PUSH1 0x0 PUSH2 0x1F0F PUSH2 0x1F06 PUSH1 0x40 DUP6 ADD PUSH1 0x20 DUP7 ADD PUSH2 0x4677 JUMP JUMPDEST PUSH2 0xFFFF AND PUSH2 0xFB4 JUMP JUMPDEST SWAP1 POP PUSH1 0x0 PUSH2 0x1F2F PUSH2 0x1F26 PUSH1 0x40 DUP7 ADD PUSH1 0x20 DUP8 ADD PUSH2 0x4677 JUMP JUMPDEST PUSH2 0xFFFF AND PUSH2 0xFCC JUMP JUMPDEST SWAP1 POP DUP2 PUSH1 0x20 ADD MLOAD ISZERO DUP1 ISZERO PUSH2 0x1F45 JUMPI POP DUP1 PUSH1 0x20 ADD MLOAD ISZERO JUMPDEST PUSH2 0x1F4E JUMPI PUSH1 0x0 DUP1 REVERT JUMPDEST PUSH1 0x1 PUSH1 0x1 PUSH1 0xA0 SHL SUB DUP6 AND PUSH1 0x0 SWAP1 DUP2 MSTORE PUSH1 0x20 DUP5 SWAP1 MSTORE PUSH1 0x40 SWAP1 KECCAK256 DUP5 SWAP1 PUSH2 0x1F72 DUP3 DUP3 PUSH2 0x4F1A JUMP JUMPDEST POP POP POP POP POP POP POP JUMP JUMPDEST PUSH1 0x0 DUP1 PUSH2 0x1F91 DUP10 PUSH1 0x0 ADD MLOAD DUP11 PUSH1 0x40 ADD MLOAD DUP10 PUSH2 0x2513 JUMP JUMPDEST DUP10 MLOAD SWAP1 SWAP2 POP PUSH1 0x1 PUSH1 0x1 PUSH1 0xA0 SHL SUB AND PUSH4 0xDC6679C5 DUP10 PUSH2 0x1FAF DUP5 DUP10 PUSH2 0x1450 JUMP JUMPDEST DUP10 DUP9 DUP9 PUSH1 0x40 MLOAD DUP7 PUSH4 0xFFFFFFFF AND PUSH1 0xE0 SHL DUP2 MSTORE PUSH1 0x4 ADD PUSH2 0x1FD2 SWAP6 SWAP5 SWAP4 SWAP3 SWAP2 SWAP1 PUSH2 0x4895 JUMP JUMPDEST PUSH1 0x20 PUSH1 0x40 MLOAD DUP1 DUP4 SUB DUP2 PUSH1 0x0 DUP8 DUP1 EXTCODESIZE ISZERO DUP1 ISZERO PUSH2 0x1FEC JUMPI PUSH1 0x0 DUP1 REVERT JUMPDEST POP GAS CALL ISZERO DUP1 ISZERO PUSH2 0x2000 JUMPI RETURNDATASIZE PUSH1 0x0 DUP1 RETURNDATACOPY RETURNDATASIZE PUSH1 0x0 REVERT JUMPDEST POP POP POP POP PUSH1 0x40 MLOAD RETURNDATASIZE PUSH1 0x1F NOT PUSH1 0x1F DUP3 ADD AND DUP3 ADD DUP1 PUSH1 0x40 MSTORE POP DUP2 ADD SWAP1 PUSH2 0x2024 SWAP2 SWAP1 PUSH2 0x465F JUMP JUMPDEST SWAP10 SWAP9 POP POP POP POP POP POP POP POP POP JUMP JUMPDEST PUSH1 0x0 DUP1 PUSH2 0x2040 DUP7 DUP9 DUP8 DUP8 PUSH2 0x3062 JUMP JUMPDEST SWAP1 POP PUSH1 0x0 PUSH2 0x205C PUSH2 0x2050 DUP6 PUSH2 0x12A8 JUMP JUMPDEST PUSH2 0x160 DUP11 ADD MLOAD SWAP1 PUSH2 0x12B6 JUMP JUMPDEST SWAP1 POP PUSH1 0x0 PUSH2 0x206A DUP4 DUP4 PUSH2 0x2924 JUMP JUMPDEST SWAP1 POP DUP2 PUSH2 0x2080 JUMPI PUSH1 0x1 PUSH1 0x1 PUSH1 0xFF SHL SUB SWAP4 POP PUSH2 0x208D JUMP JUMPDEST PUSH2 0x208A DUP2 DUP4 PUSH2 0x30C7 JUMP JUMPDEST SWAP4 POP JUMPDEST POP POP SWAP6 POP SWAP6 SWAP4 POP POP POP POP JUMP JUMPDEST PUSH1 0x0 DUP1 PUSH1 0x2 PUSH1 0xA SLOAD EQ ISZERO PUSH2 0x20BF JUMPI PUSH1 0x40 MLOAD PUSH3 0x461BCD PUSH1 0xE5 SHL DUP2 MSTORE PUSH1 0x4 ADD PUSH2 0x2DB SWAP1 PUSH2 0x4CA4 JUMP JUMPDEST PUSH1 0x2 PUSH1 0xA SSTORE PUSH2 0x20CF DUP8 PUSH1 0x80 PUSH2 0xEDF JUMP JUMPDEST ISZERO PUSH2 0x20DA JUMPI PUSH1 0x1 PUSH1 0xA SSTORE JUMPDEST PUSH1 0x0 PUSH2 0x20EA DUP9 PUSH1 0x0 ADD MLOAD DUP9 PUSH2 0x109D JUMP JUMPDEST DUP9 MLOAD SWAP1 SWAP2 POP PUSH1 0x0 SWAP1 PUSH2 0x2101 SWAP1 DUP11 SWAP1 DUP10 DUP12 DUP11 DUP11 PUSH2 0x30E0 JUMP JUMPDEST SWAP1 POP PUSH1 0x0 DUP2 SGT PUSH2 0x2110 JUMPI PUSH1 0x0 DUP1 REVERT JUMPDEST PUSH1 0x80 DUP3 ADD MLOAD PUSH2 0x211F SWAP1 DUP3 PUSH2 0x1450 JUMP JUMPDEST PUSH1 0x80 DUP4 ADD MSTORE PUSH1 0xA0 DUP3 ADD MLOAD PUSH2 0x2133 SWAP1 DUP9 PUSH2 0x1B30 JUMP JUMPDEST PUSH1 0xA0 DUP4 ADD MSTORE DUP9 MLOAD PUSH2 0x2145 SWAP1 DUP4 SWAP1 PUSH2 0x1462 JUMP JUMPDEST DUP8 DUP10 PUSH1 0x0 ADD MLOAD PUSH1 0x1 PUSH1 0x1 PUSH1 0xA0 SHL SUB AND PUSH32 0xB2F70C3FE73B5AEE7E8C59B77222111306F1E4D7170F8FA1C09979BB847EB9D9 DUP4 DUP11 PUSH1 0x40 MLOAD PUSH2 0x2185 SWAP3 SWAP2 SWAP1 PUSH2 0x4954 JUMP JUMPDEST PUSH1 0x40 MLOAD DUP1 SWAP2 SUB SWAP1 LOG3 PUSH2 0x2198 DUP10 DUP4 DUP11 PUSH2 0x1CBD JUMP JUMPDEST PUSH1 0x1 PUSH1 0xA SSTORE SWAP1 SWAP11 SWAP1 SWAP10 POP SWAP8 POP POP POP POP POP POP POP POP JUMP JUMPDEST PUSH2 0x21B5 PUSH2 0x418C JUMP JUMPDEST PUSH1 0x0 PUSH2 0x21BF PUSH2 0x2FE2 JUMP JUMPDEST PUSH1 0x1 PUSH1 0x1 PUSH1 0xA0 SHL SUB DUP5 AND PUSH1 0x0 DUP2 DUP2 MSTORE PUSH1 0x20 DUP4 DUP2 MSTORE PUSH1 0x40 SWAP2 DUP3 SWAP1 KECCAK256 SWAP3 DUP7 MSTORE DUP3 SLOAD PUSH2 0xFFFF DUP1 DUP3 AND SWAP3 DUP9 ADD SWAP3 SWAP1 SWAP3 MSTORE PUSH3 0x10000 DUP2 DIV SWAP1 SWAP2 AND SWAP2 DUP7 ADD SWAP2 SWAP1 SWAP2 MSTORE SWAP2 SWAP3 POP SWAP1 PUSH2 0x221F SWAP1 PUSH4 0xFFFFFFFF PUSH1 0x1 PUSH1 0x20 SHL SWAP1 SWAP2 DIV DUP2 AND SWAP1 PUSH4 0x5F5E100 SWAP1 PUSH2 0x278F AND JUMP JUMPDEST PUSH1 0x60 DUP5 ADD MSTORE DUP1 SLOAD PUSH2 0x223D SWAP1 PUSH1 0x1 PUSH1 0x50 SHL SWAP1 DIV PUSH1 0xFF AND PUSH3 0x7A120 PUSH2 0x2A3E JUMP JUMPDEST PUSH1 0x80 DUP5 ADD MSTORE DUP1 SLOAD PUSH2 0x2261 SWAP1 PUSH9 0x10000000000000000 SWAP1 DIV PUSH2 0xFFFF AND PUSH3 0x186A0 PUSH2 0x2A3E JUMP JUMPDEST PUSH1 0xA0 DUP5 ADD MSTORE DUP1 SLOAD PUSH2 0x2280 SWAP1 PUSH1 0x1 PUSH1 0x70 SHL SWAP1 DIV PUSH2 0xFFFF AND PUSH3 0x186A0 PUSH2 0x2A3E JUMP JUMPDEST PUSH2 0x120 DUP5 ADD MSTORE DUP1 SLOAD PUSH1 0x64 SWAP1 PUSH1 0xFF PUSH1 0x1 PUSH1 0x58 SHL SWAP1 SWAP2 DIV AND PUSH4 0x3B9ACA00 MUL SDIV PUSH1 0xC0 DUP5 ADD MSTORE DUP1 SLOAD PUSH1 0x1 PUSH1 0x60 SHL DUP2 DIV PUSH1 0xFF SWAP1 DUP2 AND PUSH1 0xE0 DUP7 ADD MSTORE PUSH1 0x1 PUSH1 0x68 SHL SWAP1 SWAP2 DIV AND PUSH2 0x100 DUP5 ADD MSTORE PUSH1 0x40 DUP1 MLOAD DUP1 DUP3 ADD SWAP2 DUP3 SWAP1 MSTORE SWAP1 PUSH1 0x1 DUP4 ADD SWAP1 PUSH1 0x2 SWAP1 DUP3 PUSH1 0x0 DUP6 JUMPDEST DUP3 DUP3 SWAP1 SLOAD SWAP1 PUSH2 0x100 EXP SWAP1 DIV PUSH2 0xFFFF AND PUSH2 0xFFFF AND DUP2 MSTORE PUSH1 0x20 ADD SWAP1 PUSH1 0x2 ADD SWAP1 PUSH1 0x20 DUP3 PUSH1 0x1 ADD DIV SWAP3 DUP4 ADD SWAP3 PUSH1 0x1 SUB DUP3 MUL SWAP2 POP DUP1 DUP5 GT PUSH2 0x22DD JUMPI SWAP1 POP POP POP POP POP POP DUP4 PUSH2 0x140 ADD DUP2 SWAP1 MSTORE POP POP POP SWAP2 SWAP1 POP JUMP JUMPDEST PUSH2 0x2332 PUSH2 0x4238 JUMP JUMPDEST PUSH1 0x0 DUP1 PUSH1 0x0 PUSH2 0x2340 DUP6 PUSH2 0x26BF JUMP JUMPDEST PUSH1 0x40 DUP1 MLOAD PUSH1 0x60 DUP2 ADD DUP3 MSTORE PUSH1 0x1 PUSH1 0x1 PUSH1 0xA0 SHL SUB SWAP1 SWAP4 AND DUP4 MSTORE PUSH1 0x20 DUP4 ADD SWAP4 SWAP1 SWAP4 MSTORE PUSH1 0xFF AND PUSH1 0xA EXP SWAP2 DUP2 ADD SWAP2 SWAP1 SWAP2 MSTORE SWAP4 POP POP POP POP SWAP2 SWAP1 POP JUMP JUMPDEST PUSH1 0x0 PUSH3 0xF4240 DUP3 PUSH1 0x1A DUP2 GT ISZERO PUSH2 0x2388 JUMPI INVALID JUMPDEST ADD SWAP3 SWAP2 POP POP JUMP JUMPDEST PUSH1 0x0 DUP1 PUSH2 0x23A7 DUP9 PUSH1 0x0 ADD MLOAD DUP8 PUSH2 0x7A7 PUSH2 0x890 DUP9 PUSH2 0x1315 JUMP JUMPDEST POP PUSH1 0x0 PUSH2 0x23B2 PUSH2 0x1308 JUMP JUMPDEST DUP10 MLOAD PUSH1 0x1 PUSH1 0x1 PUSH1 0xA0 SHL SUB SWAP1 DUP2 AND PUSH1 0x0 SWAP1 DUP2 MSTORE PUSH1 0x20 SWAP3 DUP4 MSTORE PUSH1 0x40 DUP1 DUP3 KECCAK256 DUP11 DUP4 MSTORE DUP5 MSTORE DUP1 DUP3 KECCAK256 PUSH2 0xFFFF DUP13 AND DUP4 MSTORE SWAP1 SWAP4 MSTORE SWAP2 SWAP1 SWAP2 KECCAK256 DUP1 SLOAD DUP12 MLOAD SWAP2 SWAP4 POP PUSH1 0x1 PUSH1 0x1 PUSH1 0x50 SHL SUB DUP1 DUP3 AND SWAP4 PUSH1 0x1 PUSH1 0x50 SHL SWAP1 SWAP3 DIV AND SWAP2 DUP12 DUP3 AND SWAP2 AND EQ PUSH2 0x246D JUMPI DUP2 PUSH2 0x2418 JUMPI DUP7 SWAP4 POP PUSH2 0x2429 JUMP JUMPDEST PUSH2 0x2426 DUP3 PUSH2 0x1901 DUP10 DUP5 PUSH2 0x2A3E JUMP JUMPDEST SWAP4 POP JUMPDEST PUSH2 0x2439 DUP12 DUP12 DUP12 DUP12 PUSH2 0x1971 DUP10 PUSH2 0x1315 JUMP JUMPDEST PUSH2 0x2446 PUSH2 0x14B5 DUP3 DUP7 PUSH2 0x1450 JUMP JUMPDEST DUP4 SLOAD PUSH1 0x1 PUSH1 0x1 PUSH1 0x50 SHL SUB SWAP2 SWAP1 SWAP2 AND PUSH1 0x1 PUSH1 0x50 SHL MUL PUSH1 0x1 PUSH1 0x50 SHL PUSH1 0x1 PUSH1 0xA0 SHL SUB NOT SWAP1 SWAP2 AND OR DUP4 SSTORE JUMPDEST PUSH2 0x247A PUSH2 0x14B5 DUP4 DUP10 PUSH2 0x1450 JUMP JUMPDEST DUP4 SLOAD PUSH1 0x1 PUSH1 0x1 PUSH1 0x50 SHL SUB NOT AND PUSH1 0x1 PUSH1 0x1 PUSH1 0x50 SHL SUB SWAP2 SWAP1 SWAP2 AND OR DUP4 SSTORE PUSH2 0x24AD DUP12 DUP11 DUP11 PUSH2 0x24A7 PUSH2 0x890 DUP13 PUSH2 0x1315 JUMP JUMPDEST DUP11 PUSH2 0x2C0C JUMP JUMPDEST SWAP5 POP DUP9 PUSH2 0xFFFF AND DUP11 PUSH1 0x1 PUSH1 0x1 PUSH1 0xA0 SHL SUB AND DUP13 PUSH1 0x0 ADD MLOAD PUSH1 0x1 PUSH1 0x1 PUSH1 0xA0 SHL SUB AND PUSH32 0xCFC1B6B346EEF069F620FB8D8F016E1F3332F659A5EFDA8F7637051B7C121171 DUP8 DUP12 PUSH1 0x40 MLOAD PUSH2 0x1A09 SWAP3 SWAP2 SWAP1 PUSH2 0x4954 JUMP JUMPDEST DUP2 DUP2 ADD DUP3 DUP2 SLT ISZERO PUSH1 0x0 DUP4 SLT ISZERO EQ PUSH2 0xE58 JUMPI PUSH1 0x0 DUP1 REVERT JUMPDEST PUSH1 0x0 DUP2 PUSH2 0x2522 JUMPI POP PUSH1 0x0 PUSH2 0x7DA JUMP JUMPDEST PUSH1 0x0 DUP3 SGT PUSH2 0x252F JUMPI PUSH1 0x0 DUP1 REVERT JUMPDEST PUSH1 0x0 PUSH2 0x253E DUP5 PUSH2 0xFFFF AND PUSH2 0xFB4 JUMP JUMPDEST SWAP1 POP PUSH1 0x0 PUSH2 0x254C DUP3 DUP6 PUSH2 0x2CD9 JUMP JUMPDEST SWAP1 POP PUSH1 0x4 DUP3 PUSH1 0x60 ADD MLOAD PUSH1 0x5 DUP2 GT ISZERO PUSH2 0x2560 JUMPI INVALID JUMPDEST EQ ISZERO PUSH2 0x258E JUMPI PUSH2 0x2587 PUSH2 0x639 PUSH2 0x890 DUP9 DUP9 PUSH2 0xFFFF AND PUSH2 0x257E DUP7 PUSH2 0x12A8 JUMP JUMPDEST DUP8 SWAP3 SWAP2 SWAP1 PUSH2 0x3127 JUMP JUMPDEST SWAP3 POP PUSH2 0x25B2 JUMP JUMPDEST PUSH2 0x25AF PUSH2 0x639 PUSH2 0x890 DUP8 PUSH2 0xFFFF AND DUP10 PUSH2 0x25A6 DUP7 PUSH2 0x12F5 JUMP JUMPDEST DUP8 SWAP3 SWAP2 SWAP1 PUSH2 0x31CF JUMP JUMPDEST SWAP3 POP JUMPDEST POP POP SWAP4 SWAP3 POP POP POP JUMP JUMPDEST PUSH2 0x25C3 PUSH2 0x4209 JUMP JUMPDEST PUSH1 0x0 PUSH2 0x25CD PUSH2 0x3265 JUMP JUMPDEST PUSH1 0x0 DUP6 DUP2 MSTORE PUSH1 0x20 DUP3 DUP2 MSTORE PUSH1 0x40 DUP1 DUP4 KECCAK256 DUP8 ISZERO ISZERO DUP5 MSTORE DUP3 MSTORE SWAP2 DUP3 SWAP1 KECCAK256 DUP3 MLOAD PUSH1 0xA0 DUP2 ADD DUP5 MSTORE DUP2 SLOAD PUSH1 0x1 PUSH1 0x1 PUSH1 0xA0 SHL SUB DUP2 AND DUP3 MSTORE PUSH1 0xFF PUSH1 0x1 PUSH1 0xA0 SHL DUP3 DIV DUP2 AND ISZERO ISZERO SWAP5 DUP4 ADD SWAP5 SWAP1 SWAP5 MSTORE PUSH1 0x1 PUSH1 0xB0 SHL DUP2 DIV DUP5 AND PUSH1 0xA EXP SWAP5 DUP3 ADD SWAP5 SWAP1 SWAP5 MSTORE SWAP4 SWAP5 POP SWAP3 SWAP2 PUSH1 0x60 DUP4 ADD SWAP2 PUSH1 0x1 PUSH1 0xA8 SHL SWAP1 SWAP2 DIV AND PUSH1 0x5 DUP2 GT ISZERO PUSH2 0x2642 JUMPI INVALID JUMPDEST DUP2 MSTORE SWAP2 SLOAD PUSH1 0x1 PUSH1 0xB8 SHL SWAP1 DIV PUSH9 0xFFFFFFFFFFFFFFFFFF AND PUSH1 0x20 SWAP1 SWAP3 ADD SWAP2 SWAP1 SWAP2 MSTORE SWAP5 SWAP4 POP POP POP POP JUMP JUMPDEST PUSH1 0x0 DUP1 PUSH2 0xE58 PUSH1 0x15 PUSH2 0x2376 JUMP JUMPDEST PUSH1 0x0 DUP1 PUSH1 0x0 PUSH2 0x2683 PUSH2 0x2782 JUMP JUMPDEST PUSH1 0x0 SWAP6 DUP7 MSTORE PUSH1 0x20 SWAP1 DUP2 MSTORE PUSH1 0x40 DUP1 DUP8 KECCAK256 SWAP6 DUP8 MSTORE SWAP5 SWAP1 MSTORE POP POP POP SWAP1 KECCAK256 SLOAD PUSH6 0x10000000000 DUP2 DIV PUSH1 0x1 PUSH1 0x1 PUSH1 0x80 SHL SUB AND SWAP2 PUSH1 0x1 PUSH1 0xA8 SHL SWAP1 SWAP2 DIV PUSH1 0xFF AND SWAP1 JUMP JUMPDEST PUSH1 0x0 DUP1 PUSH1 0x0 DUP1 PUSH1 0x0 PUSH2 0x26D0 DUP7 PUSH2 0x3272 JUMP JUMPDEST SWAP1 SWAP3 POP SWAP1 POP PUSH1 0x0 PUSH1 0x1 PUSH1 0x1 PUSH1 0xA0 SHL SUB DUP4 AND PUSH2 0x26F5 JUMPI POP PUSH1 0x0 SWAP1 POP PUSH5 0x2540BE400 PUSH2 0x2777 JUMP JUMPDEST DUP3 PUSH1 0x1 PUSH1 0x1 PUSH1 0xA0 SHL SUB AND PUSH4 0x1EE10833 PUSH1 0x40 MLOAD DUP2 PUSH4 0xFFFFFFFF AND PUSH1 0xE0 SHL DUP2 MSTORE PUSH1 0x4 ADD PUSH1 0x20 PUSH1 0x40 MLOAD DUP1 DUP4 SUB DUP2 PUSH1 0x0 DUP8 DUP1 EXTCODESIZE ISZERO DUP1 ISZERO PUSH2 0x2730 JUMPI PUSH1 0x0 DUP1 REVERT JUMPDEST POP GAS CALL ISZERO DUP1 ISZERO PUSH2 0x2744 JUMPI RETURNDATASIZE PUSH1 0x0 DUP1 RETURNDATACOPY RETURNDATASIZE PUSH1 0x0 REVERT JUMPDEST POP POP POP POP PUSH1 0x40 MLOAD RETURNDATASIZE PUSH1 0x1F NOT PUSH1 0x1F DUP3 ADD AND DUP3 ADD DUP1 PUSH1 0x40 MSTORE POP DUP2 ADD SWAP1 PUSH2 0x2768 SWAP2 SWAP1 PUSH2 0x465F JUMP JUMPDEST SWAP1 POP PUSH1 0x0 DUP2 SGT PUSH2 0x2777 JUMPI PUSH1 0x0 DUP1 REVERT JUMPDEST SWAP7 SWAP2 SWAP6 POP SWAP4 POP SWAP2 POP POP JUMP JUMPDEST PUSH1 0x0 DUP1 PUSH2 0xE58 PUSH1 0x8 PUSH2 0x2376 JUMP JUMPDEST DUP2 DUP2 MUL PUSH1 0x0 NOT DUP4 EQ ISZERO PUSH2 0x27BF JUMPI DUP2 ISZERO DUP1 PUSH2 0x27B1 JUMPI POP DUP3 DUP3 DUP3 DUP2 PUSH2 0x27AE JUMPI INVALID JUMPDEST SDIV EQ JUMPDEST PUSH2 0x27BA JUMPI PUSH1 0x0 DUP1 REVERT JUMPDEST PUSH2 0xE58 JUMP JUMPDEST DUP3 ISZERO DUP1 PUSH2 0x27D4 JUMPI POP DUP2 DUP4 DUP3 DUP2 PUSH2 0x27D1 JUMPI INVALID JUMPDEST SDIV EQ JUMPDEST PUSH2 0xE58 JUMPI PUSH1 0x0 DUP1 REVERT JUMPDEST PUSH1 0x0 DUP2 PUSH1 0x0 NOT EQ DUP1 ISZERO PUSH2 0x27F3 JUMPI POP PUSH1 0x1 PUSH1 0xFF SHL DUP4 EQ JUMPDEST ISZERO PUSH2 0x27FD JUMPI PUSH1 0x0 DUP1 REVERT JUMPDEST DUP2 DUP4 DUP2 PUSH2 0x2806 JUMPI INVALID JUMPDEST SDIV SWAP4 SWAP3 POP POP POP JUMP JUMPDEST PUSH1 0x0 DUP1 PUSH1 0x0 DUP1 PUSH1 0x0 PUSH2 0x281E PUSH2 0x32A9 JUMP JUMPDEST PUSH1 0x1 PUSH1 0x1 PUSH1 0xA0 SHL SUB DUP9 AND PUSH1 0x0 SWAP1 DUP2 MSTORE PUSH1 0x20 DUP3 DUP2 MSTORE PUSH1 0x40 DUP1 DUP4 KECCAK256 DUP11 DUP5 MSTORE SWAP1 SWAP2 MSTORE SWAP1 KECCAK256 DUP1 SLOAD PUSH1 0x1 PUSH1 0x1 PUSH1 0x50 SHL SUB DUP2 AND SWAP7 POP PUSH1 0x1 PUSH1 0x50 SHL SWAP1 DIV PUSH4 0xFFFFFFFF AND SWAP5 POP SWAP1 SWAP2 POP DUP4 ISZERO PUSH2 0x2887 JUMPI DUP1 SLOAD PUSH2 0x2880 SWAP1 PUSH1 0x1 PUSH1 0x70 SHL SWAP1 DIV PUSH7 0xFFFFFFFFFFFFFF AND PUSH2 0x32B6 JUMP JUMPDEST SWAP3 POP PUSH2 0x289C JUMP JUMPDEST DUP1 SLOAD PUSH1 0x1 PUSH1 0x70 SHL SWAP1 DIV PUSH7 0xFFFFFFFFFFFFFF AND SWAP3 POP JUMPDEST SLOAD PUSH1 0x1 PUSH1 0xA8 SHL SWAP1 DIV PUSH1 0xA SWAP1 DUP2 SIGNEXTEND SWAP1 SIGNEXTEND SWAP8 SWAP4 SWAP7 POP SWAP2 SWAP5 POP SWAP3 POP POP JUMP JUMPDEST PUSH1 0x0 DUP2 SLT ISZERO PUSH2 0x28C5 JUMPI PUSH1 0x0 DUP1 REVERT JUMPDEST PUSH2 0x28DA PUSH1 0x0 DUP4 PUSH2 0xFFFF AND DUP4 PUSH1 0x0 DUP1 PUSH1 0x0 PUSH2 0x32C4 JUMP JUMPDEST DUP2 PUSH2 0xFFFF AND PUSH32 0xD3625F7B5926828151EFE19F7AE655488287357D99EBE67E5FB20522CA739C0B DUP3 PUSH1 0x40 MLOAD PUSH2 0xA27 SWAP2 SWAP1 PUSH2 0x494B JUMP JUMPDEST PUSH1 0x0 PUSH1 0x1 PUSH1 0x1 PUSH1 0x50 SHL SUB DUP3 GT ISZERO PUSH2 0x1304 JUMPI PUSH1 0x0 DUP1 REVERT JUMPDEST DUP1 DUP3 SUB DUP3 DUP2 SGT ISZERO PUSH1 0x0 DUP4 SLT ISZERO EQ PUSH2 0xE58 JUMPI PUSH1 0x0 DUP1 REVERT JUMPDEST PUSH1 0x0 DUP1 PUSH2 0x294A DUP8 PUSH2 0xFFFF AND PUSH2 0xFCC JUMP JUMPDEST SWAP1 POP DUP1 PUSH1 0x40 ADD MLOAD PUSH1 0x0 EQ ISZERO PUSH2 0x2969 JUMPI PUSH2 0x2966 DUP8 PUSH2 0xFFFF AND PUSH2 0xFB4 JUMP JUMPDEST SWAP1 POP JUMPDEST PUSH1 0x40 MLOAD PUSH4 0xE9377111 PUSH1 0xE0 SHL DUP2 MSTORE PUSH2 0x29F4 SWAP1 PUSH1 0x1 PUSH1 0x1 PUSH1 0xA0 SHL SUB DUP9 AND SWAP1 PUSH4 0xE9377111 SWAP1 PUSH2 0x299D SWAP1 DUP10 SWAP1 DUP10 SWAP1 DUP10 SWAP1 PUSH1 0x4 ADD PUSH2 0x4874 JUMP JUMPDEST PUSH1 0x20 PUSH1 0x40 MLOAD DUP1 DUP4 SUB DUP2 DUP7 DUP1 EXTCODESIZE ISZERO DUP1 ISZERO PUSH2 0x29B5 JUMPI PUSH1 0x0 DUP1 REVERT JUMPDEST POP GAS STATICCALL ISZERO DUP1 ISZERO PUSH2 0x29C9 JUMPI RETURNDATASIZE PUSH1 0x0 DUP1 RETURNDATACOPY RETURNDATASIZE PUSH1 0x0 REVERT JUMPDEST POP POP POP POP PUSH1 0x40 MLOAD RETURNDATASIZE PUSH1 0x1F NOT PUSH1 0x1F DUP3 ADD AND DUP3 ADD DUP1 PUSH1 0x40 MSTORE POP DUP2 ADD SWAP1 PUSH2 0x29ED SWAP2 SWAP1 PUSH2 0x465F JUMP JUMPDEST DUP3 SWAP1 PUSH2 0x340B JUMP JUMPDEST SWAP2 POP POP JUMPDEST SWAP6 SWAP5 POP POP POP POP POP JUMP JUMPDEST PUSH1 0x0 PUSH10 0x7FFFFFFFFFFFFFFFFFFF NOT DUP3 SLT DUP1 ISZERO SWAP1 PUSH2 0x2A28 JUMPI POP PUSH10 0x7FFFFFFFFFFFFFFFFFFF DUP3 SGT ISZERO JUMPDEST PUSH2 0x1304 JUMPI PUSH1 0x0 DUP1 REVERT JUMPDEST PUSH1 0x0 DUP1 PUSH2 0xE58 PUSH1 0x19 PUSH2 0x2376 JUMP JUMPDEST PUSH1 0x0 DUP3 PUSH2 0x2A4D JUMPI POP PUSH1 0x0 PUSH2 0xE58 JUMP JUMPDEST DUP3 DUP3 MUL DUP3 DUP5 DUP3 DUP2 PUSH2 0x2A5A JUMPI INVALID JUMPDEST DIV EQ PUSH2 0x7DA JUMPI PUSH1 0x0 DUP1 REVERT JUMPDEST PUSH1 0x0 DUP1 DUP3 GT PUSH2 0x2A73 JUMPI PUSH1 0x0 DUP1 REVERT JUMPDEST DUP2 DUP4 DUP2 PUSH2 0x2A7C JUMPI INVALID JUMPDEST DIV SWAP4 SWAP3 POP POP POP JUMP JUMPDEST PUSH1 0x0 PUSH2 0x2A8E PUSH2 0xEF4 JUMP JUMPDEST PUSH1 0x1 PUSH1 0x1 PUSH1 0xA0 SHL SUB DUP1 DUP8 AND PUSH1 0x0 SWAP1 DUP2 MSTORE PUSH1 0x20 SWAP3 DUP4 MSTORE PUSH1 0x40 DUP1 DUP3 KECCAK256 DUP11 MLOAD SWAP1 SWAP4 AND DUP3 MSTORE SWAP2 SWAP1 SWAP3 MSTORE SWAP1 KECCAK256 DUP1 SLOAD SWAP1 SWAP2 POP PUSH4 0xFFFFFFFF AND DUP4 DUP2 EQ DUP1 PUSH2 0x2ACC JUMPI POP DUP1 ISZERO JUMPDEST PUSH2 0x2AE8 JUMPI PUSH1 0x40 MLOAD PUSH3 0x461BCD PUSH1 0xE5 SHL DUP2 MSTORE PUSH1 0x4 ADD PUSH2 0x2DB SWAP1 PUSH2 0x49A0 JUMP JUMPDEST DUP2 SLOAD PUSH2 0x140 DUP9 ADD MLOAD MLOAD PUSH1 0x1 PUSH1 0x20 SHL DUP3 DIV PUSH1 0x1 PUSH1 0x1 PUSH1 0x50 SHL SUB SWAP1 DUP2 AND SWAP3 PUSH1 0x1 PUSH1 0x70 SHL SWAP1 DIV AND SWAP1 PUSH2 0xFFFF DUP9 DUP2 AND SWAP2 AND EQ ISZERO PUSH2 0x2B62 JUMPI PUSH2 0x2B25 DUP3 DUP7 PUSH2 0x24FD JUMP JUMPDEST SWAP2 POP PUSH2 0x2B33 PUSH2 0x14B5 DUP4 PUSH2 0x12F5 JUMP JUMPDEST DUP5 SLOAD PUSH1 0x1 PUSH1 0x1 PUSH1 0x50 SHL SUB SWAP2 SWAP1 SWAP2 AND PUSH1 0x1 PUSH1 0x20 SHL MUL PUSH14 0xFFFFFFFFFFFFFFFFFFFF00000000 NOT SWAP1 SWAP2 AND OR DUP5 SSTORE PUSH2 0x2BBC JUMP JUMPDEST PUSH2 0x140 DUP10 ADD MLOAD PUSH1 0x20 ADD MLOAD PUSH2 0xFFFF DUP9 DUP2 AND SWAP2 AND EQ ISZERO PUSH2 0x116 JUMPI PUSH2 0x2B84 DUP2 DUP7 PUSH2 0x24FD JUMP JUMPDEST SWAP1 POP PUSH2 0x2B92 PUSH2 0x14B5 DUP3 PUSH2 0x12F5 JUMP JUMPDEST DUP5 SLOAD PUSH1 0x1 PUSH1 0x1 PUSH1 0x50 SHL SUB SWAP2 SWAP1 SWAP2 AND PUSH1 0x1 PUSH1 0x70 SHL MUL PUSH10 0xFFFFFFFFFFFFFFFFFFFF PUSH1 0x70 SHL NOT SWAP1 SWAP2 AND OR DUP5 SSTORE JUMPDEST DUP2 ISZERO DUP1 ISZERO PUSH2 0x2BC8 JUMPI POP DUP1 ISZERO JUMPDEST ISZERO PUSH2 0x2BDD JUMPI DUP4 SLOAD PUSH4 0xFFFFFFFF NOT AND DUP5 SSTORE PUSH2 0x2C01 JUMP JUMPDEST DUP3 PUSH2 0x2C01 JUMPI PUSH2 0x2BEB DUP7 PUSH2 0x343B JUMP JUMPDEST DUP5 SLOAD PUSH4 0xFFFFFFFF NOT AND PUSH4 0xFFFFFFFF SWAP2 SWAP1 SWAP2 AND OR DUP5 SSTORE JUMPDEST POP POP POP POP POP POP POP POP POP JUMP JUMPDEST PUSH1 0x0 DUP6 PUSH1 0x40 ADD MLOAD PUSH2 0xFFFF AND DUP6 PUSH2 0xFFFF AND EQ ISZERO PUSH2 0x2C27 JUMPI PUSH1 0x0 DUP1 REVERT JUMPDEST DUP3 PUSH2 0x2C34 JUMPI POP PUSH1 0x0 PUSH2 0x29F8 JUMP JUMPDEST TIMESTAMP DUP5 GT PUSH2 0x2C71 JUMPI PUSH1 0x0 DUP4 SLT ISZERO PUSH2 0x2C49 JUMPI PUSH1 0x0 DUP1 REVERT JUMPDEST PUSH1 0x0 PUSH2 0x2C5A DUP7 PUSH2 0xFFFF AND DUP7 TIMESTAMP PUSH2 0x1138 JUMP JUMPDEST SWAP1 POP PUSH2 0x2C69 PUSH2 0x890 DUP3 DUP7 PUSH2 0x12B6 JUMP JUMPDEST SWAP2 POP POP PUSH2 0x29F8 JUMP JUMPDEST PUSH2 0x2C84 DUP6 DUP6 DUP6 DUP6 DUP11 PUSH2 0x100 ADD MLOAD TIMESTAMP PUSH2 0x344E JUMP JUMPDEST SWAP1 POP PUSH1 0x0 DUP4 SGT DUP1 ISZERO PUSH2 0x2C94 JUMPI POP DUP1 ISZERO JUMPDEST ISZERO PUSH2 0x2CB0 JUMPI PUSH2 0x160 DUP7 ADD MLOAD PUSH2 0x2CAD SWAP1 PUSH2 0x890 SWAP1 DUP6 PUSH2 0x12B6 JUMP JUMPDEST SWAP1 POP JUMPDEST PUSH1 0x0 DUP4 SLT ISZERO PUSH2 0x29F8 JUMPI PUSH1 0x0 DUP2 SGT PUSH2 0x29F8 JUMPI PUSH1 0x40 MLOAD PUSH3 0x461BCD PUSH1 0xE5 SHL DUP2 MSTORE PUSH1 0x4 ADD PUSH2 0x2DB SWAP1 PUSH2 0x49D7 JUMP JUMPDEST PUSH1 0x0 PUSH4 0x5F5E100 DUP4 PUSH1 0x40 ADD MLOAD EQ ISZERO PUSH2 0x2CF2 JUMPI POP DUP1 PUSH2 0xE58 JUMP JUMPDEST PUSH2 0x7DA PUSH4 0x5F5E100 PUSH2 0x12E7 DUP6 PUSH1 0x40 ADD MLOAD DUP6 PUSH2 0x278F SWAP1 SWAP2 SWAP1 PUSH4 0xFFFFFFFF AND JUMP JUMPDEST PUSH1 0x40 DUP1 MLOAD PUSH1 0x1 PUSH1 0x1 PUSH1 0xA0 SHL SUB DUP5 DUP2 AND PUSH1 0x24 DUP1 DUP5 ADD SWAP2 SWAP1 SWAP2 MSTORE DUP4 MLOAD DUP1 DUP5 SUB SWAP1 SWAP2 ADD DUP2 MSTORE PUSH1 0x44 SWAP1 SWAP3 ADD DUP4 MSTORE PUSH1 0x20 DUP3 ADD DUP1 MLOAD PUSH1 0x1 PUSH1 0x1 PUSH1 0xE0 SHL SUB AND PUSH1 0x1 PUSH1 0x1 PUSH1 0xE0 SHL SUB NOT DUP7 AND OR DUP2 MSTORE SWAP3 MLOAD DUP3 MLOAD PUSH1 0x0 SWAP5 DUP6 SWAP5 DUP6 SWAP5 DUP11 AND SWAP4 SWAP1 SWAP3 SWAP1 SWAP2 DUP3 SWAP2 DUP1 DUP4 DUP4 JUMPDEST PUSH1 0x20 DUP4 LT PUSH2 0x2D8E JUMPI DUP1 MLOAD DUP3 MSTORE PUSH1 0x1F NOT SWAP1 SWAP3 ADD SWAP2 PUSH1 0x20 SWAP2 DUP3 ADD SWAP2 ADD PUSH2 0x2D6F JUMP JUMPDEST PUSH1 0x1 DUP4 PUSH1 0x20 SUB PUSH2 0x100 EXP SUB DUP1 NOT DUP3 MLOAD AND DUP2 DUP5 MLOAD AND DUP1 DUP3 OR DUP6 MSTORE POP POP POP POP POP POP SWAP1 POP ADD SWAP2 POP POP PUSH1 0x0 PUSH1 0x40 MLOAD DUP1 DUP4 SUB DUP2 DUP6 GAS STATICCALL SWAP2 POP POP RETURNDATASIZE DUP1 PUSH1 0x0 DUP2 EQ PUSH2 0x2DEE JUMPI PUSH1 0x40 MLOAD SWAP2 POP PUSH1 0x1F NOT PUSH1 0x3F RETURNDATASIZE ADD AND DUP3 ADD PUSH1 0x40 MSTORE RETURNDATASIZE DUP3 MSTORE RETURNDATASIZE PUSH1 0x0 PUSH1 0x20 DUP5 ADD RETURNDATACOPY PUSH2 0x2DF3 JUMP JUMPDEST PUSH1 0x60 SWAP2 POP JUMPDEST POP SWAP2 POP SWAP2 POP DUP2 PUSH2 0x2E02 JUMPI PUSH1 0x0 DUP1 REVERT JUMPDEST DUP1 DUP1 PUSH1 0x20 ADD SWAP1 MLOAD PUSH1 0x20 DUP2 LT ISZERO PUSH2 0x2E17 JUMPI PUSH1 0x0 DUP1 REVERT JUMPDEST POP MLOAD SWAP7 SWAP6 POP POP POP POP POP POP JUMP JUMPDEST PUSH2 0x2E2B PUSH2 0x3590 JUMP JUMPDEST SLOAD DUP3 MLOAD PUSH1 0x40 MLOAD PUSH4 0xE8EDA9DF PUSH1 0xE0 SHL DUP2 MSTORE PUSH1 0x1 PUSH1 0x1 PUSH1 0xA0 SHL SUB SWAP1 SWAP3 AND SWAP2 PUSH4 0xE8EDA9DF SWAP2 PUSH2 0x2E60 SWAP2 DUP6 SWAP1 ADDRESS SWAP1 PUSH1 0x0 SWAP1 PUSH1 0x4 ADD PUSH2 0x481F JUMP JUMPDEST PUSH1 0x0 PUSH1 0x40 MLOAD DUP1 DUP4 SUB DUP2 PUSH1 0x0 DUP8 DUP1 EXTCODESIZE ISZERO DUP1 ISZERO PUSH2 0x2E7A JUMPI PUSH1 0x0 DUP1 REVERT JUMPDEST POP GAS CALL ISZERO DUP1 ISZERO PUSH2 0x2E8E JUMPI RETURNDATASIZE PUSH1 0x0 DUP1 RETURNDATACOPY RETURNDATASIZE PUSH1 0x0 REVERT JUMPDEST POP POP POP POP POP POP JUMP JUMPDEST DUP2 MLOAD PUSH1 0x40 MLOAD PUSH4 0x140E25AD PUSH1 0xE3 SHL DUP2 MSTORE PUSH1 0x0 SWAP2 PUSH1 0x1 PUSH1 0x1 PUSH1 0xA0 SHL SUB AND SWAP1 PUSH4 0xA0712D68 SWAP1 PUSH2 0x2EC6 SWAP1 DUP6 SWAP1 PUSH1 0x4 ADD PUSH2 0x494B JUMP JUMPDEST PUSH1 0x20 PUSH1 0x40 MLOAD DUP1 DUP4 SUB DUP2 PUSH1 0x0 DUP8 DUP1 EXTCODESIZE ISZERO DUP1 ISZERO PUSH2 0x2EE0 JUMPI PUSH1 0x0 DUP1 REVERT JUMPDEST POP GAS CALL ISZERO DUP1 ISZERO PUSH2 0x2EF4 JUMPI RETURNDATASIZE PUSH1 0x0 DUP1 RETURNDATACOPY RETURNDATASIZE PUSH1 0x0 REVERT JUMPDEST POP POP POP POP PUSH1 0x40 MLOAD RETURNDATASIZE PUSH1 0x1F NOT PUSH1 0x1F DUP3 ADD AND DUP3 ADD DUP1 PUSH1 0x40 MSTORE POP DUP2 ADD SWAP1 PUSH2 0x2F18 SWAP2 SWAP1 PUSH2 0x465F JUMP JUMPDEST SWAP1 POP DUP1 ISZERO PUSH2 0x1098 JUMPI PUSH1 0x40 MLOAD PUSH3 0x461BCD PUSH1 0xE5 SHL DUP2 MSTORE PUSH1 0x4 ADD PUSH2 0x2DB SWAP1 PUSH2 0x4A6F JUMP JUMPDEST DUP2 PUSH1 0x0 ADD MLOAD PUSH1 0x1 PUSH1 0x1 PUSH1 0xA0 SHL SUB AND PUSH4 0x1249C58B DUP3 PUSH1 0x40 MLOAD DUP3 PUSH4 0xFFFFFFFF AND PUSH1 0xE0 SHL DUP2 MSTORE PUSH1 0x4 ADD PUSH1 0x0 PUSH1 0x40 MLOAD DUP1 DUP4 SUB DUP2 DUP6 DUP9 DUP1 EXTCODESIZE ISZERO DUP1 ISZERO PUSH2 0x2F77 JUMPI PUSH1 0x0 DUP1 REVERT JUMPDEST POP GAS CALL ISZERO DUP1 ISZERO PUSH2 0x1F72 JUMPI RETURNDATASIZE PUSH1 0x0 DUP1 RETURNDATACOPY RETURNDATASIZE PUSH1 0x0 REVERT JUMPDEST PUSH1 0x0 DUP3 DUP3 GT ISZERO PUSH2 0x1B3F JUMPI PUSH1 0x40 DUP1 MLOAD PUSH3 0x461BCD PUSH1 0xE5 SHL DUP2 MSTORE PUSH1 0x20 PUSH1 0x4 DUP3 ADD MSTORE PUSH1 0x1E PUSH1 0x24 DUP3 ADD MSTORE PUSH32 0x536166654D6174683A207375627472616374696F6E206F766572666C6F770000 PUSH1 0x44 DUP3 ADD MSTORE SWAP1 MLOAD SWAP1 DUP2 SWAP1 SUB PUSH1 0x64 ADD SWAP1 REVERT JUMPDEST PUSH1 0x0 DUP1 PUSH2 0xE58 PUSH1 0x14 PUSH2 0x2376 JUMP JUMPDEST PUSH2 0x2FF7 PUSH2 0x4238 JUMP JUMPDEST PUSH1 0x0 DUP1 PUSH1 0x0 PUSH2 0x2340 DUP6 PUSH2 0x359D JUMP JUMPDEST PUSH2 0x300D PUSH2 0x4238 JUMP JUMPDEST PUSH1 0x0 DUP1 PUSH2 0x301A DUP6 DUP6 PUSH2 0x2676 JUMP JUMPDEST SWAP2 POP SWAP2 POP DUP2 PUSH1 0x0 EQ ISZERO PUSH2 0x3038 JUMPI PUSH2 0x3030 DUP6 PUSH2 0x359D JUMP JUMPDEST SWAP2 SWAP4 POP SWAP1 SWAP2 POP POP JUMPDEST PUSH1 0x40 DUP1 MLOAD PUSH1 0x60 DUP2 ADD DUP3 MSTORE PUSH1 0x0 DUP2 MSTORE PUSH1 0x20 DUP2 ADD SWAP4 SWAP1 SWAP4 MSTORE PUSH1 0xFF SWAP1 SWAP2 AND PUSH1 0xA EXP SWAP1 DUP3 ADD MSTORE SWAP1 POP SWAP3 SWAP2 POP POP JUMP JUMPDEST PUSH1 0x0 DUP2 PUSH2 0x3071 JUMPI POP PUSH1 0x0 PUSH2 0x12ED JUMP JUMPDEST PUSH1 0x0 DUP1 PUSH2 0x307E DUP8 DUP6 PUSH2 0x3620 JUMP JUMPDEST SWAP2 POP SWAP2 POP PUSH1 0x0 PUSH2 0x309D DUP8 PUSH1 0x40 ADD MLOAD DUP9 PUSH1 0x0 ADD MLOAD DUP9 DUP6 DUP13 PUSH1 0x0 ADD MLOAD PUSH2 0x293A JUMP JUMPDEST SWAP1 POP PUSH2 0x30BB PUSH2 0x30AB DUP5 PUSH2 0x1315 JUMP JUMPDEST PUSH2 0x160 DUP10 ADD MLOAD PUSH2 0x17FC SWAP1 DUP5 PUSH2 0x12B6 JUMP JUMPDEST SWAP9 SWAP8 POP POP POP POP POP POP POP POP JUMP JUMPDEST PUSH1 0x0 PUSH2 0x7DA PUSH2 0x30DA DUP5 PUSH4 0x3B9ACA00 PUSH2 0x278F JUMP JUMPDEST DUP4 PUSH2 0x27DD JUMP JUMPDEST PUSH1 0x0 PUSH2 0xFA9 DUP8 PUSH1 0x40 MLOAD DUP1 PUSH1 0xA0 ADD PUSH1 0x40 MSTORE DUP1 DUP10 PUSH1 0x1 PUSH1 0x1 PUSH1 0xA0 SHL SUB AND DUP2 MSTORE PUSH1 0x20 ADD DUP10 PUSH1 0x1 PUSH1 0x1 PUSH1 0xA0 SHL SUB AND DUP2 MSTORE PUSH1 0x20 ADD DUP9 DUP2 MSTORE PUSH1 0x20 ADD DUP8 DUP2 MSTORE PUSH1 0x20 ADD PUSH1 0x0 DUP2 MSTORE POP DUP6 DUP6 PUSH2 0x3679 JUMP JUMPDEST DUP1 PUSH1 0x5 DUP6 PUSH1 0x60 ADD MLOAD PUSH1 0x5 DUP2 GT ISZERO PUSH2 0x313A JUMPI INVALID JUMPDEST EQ ISZERO PUSH2 0x315F JUMPI PUSH1 0x0 PUSH2 0x314B DUP5 PUSH2 0xFCC JUMP JUMPDEST SWAP1 POP PUSH2 0x315B DUP2 PUSH1 0x0 ADD MLOAD DUP5 PUSH2 0x38FF JUMP JUMPDEST SWAP3 POP POP JUMPDEST PUSH1 0x0 DUP3 SGT ISZERO PUSH2 0x318B JUMPI PUSH1 0x0 PUSH2 0x3175 DUP7 DUP7 DUP6 PUSH2 0x3985 JUMP JUMPDEST SWAP1 POP DUP6 PUSH1 0x20 ADD MLOAD ISZERO PUSH2 0x3185 JUMPI DUP1 SWAP2 POP JUMPDEST POP PUSH2 0x12ED JUMP JUMPDEST PUSH1 0x3 DUP6 PUSH1 0x60 ADD MLOAD PUSH1 0x5 DUP2 GT ISZERO PUSH2 0x319D JUMPI INVALID JUMPDEST EQ ISZERO PUSH2 0x31BA JUMPI PUSH2 0x31B5 DUP5 PUSH2 0x31B0 DUP5 PUSH2 0x12A8 JUMP JUMPDEST PUSH2 0x3A78 JUMP JUMPDEST PUSH2 0x12ED JUMP JUMPDEST DUP5 MLOAD PUSH2 0x12ED SWAP1 DUP6 PUSH2 0x31CA DUP6 PUSH2 0x12A8 JUMP JUMPDEST PUSH2 0x3AAE JUMP JUMPDEST PUSH1 0x0 DUP1 PUSH1 0x2 DUP7 PUSH1 0x60 ADD MLOAD PUSH1 0x5 DUP2 GT ISZERO PUSH2 0x31E4 JUMPI INVALID JUMPDEST EQ ISZERO PUSH2 0x31FC JUMPI PUSH2 0x31F5 DUP7 DUP6 DUP6 PUSH2 0x3B25 JUMP JUMPDEST SWAP1 POP PUSH2 0x3259 JUMP JUMPDEST PUSH1 0x0 PUSH2 0x3207 DUP7 PUSH2 0xFCC JUMP JUMPDEST SWAP1 POP PUSH1 0x5 DUP8 PUSH1 0x60 ADD MLOAD PUSH1 0x5 DUP2 GT ISZERO PUSH2 0x321B JUMPI INVALID JUMPDEST EQ ISZERO PUSH2 0x3233 JUMPI PUSH2 0x322C DUP2 DUP7 DUP7 PUSH2 0x3BE2 JUMP JUMPDEST SWAP2 POP PUSH2 0x3257 JUMP JUMPDEST PUSH1 0x1 DUP8 PUSH1 0x60 ADD MLOAD PUSH1 0x5 DUP2 GT ISZERO PUSH2 0x3245 JUMPI INVALID JUMPDEST EQ ISZERO PUSH2 0x116 JUMPI PUSH2 0x322C DUP8 DUP3 DUP8 DUP8 PUSH2 0x3C8B JUMP JUMPDEST POP JUMPDEST PUSH2 0xF2C PUSH2 0x890 DUP3 PUSH2 0x1315 JUMP JUMPDEST PUSH1 0x0 DUP1 PUSH2 0xE58 PUSH1 0x7 PUSH2 0x2376 JUMP JUMPDEST PUSH1 0x0 DUP1 PUSH1 0x0 PUSH2 0x327F PUSH2 0x3D89 JUMP JUMPDEST PUSH1 0x0 SWAP5 DUP6 MSTORE PUSH1 0x20 MSTORE POP POP PUSH1 0x40 SWAP1 SWAP2 KECCAK256 SLOAD PUSH1 0x1 PUSH1 0x1 PUSH1 0xA0 SHL SUB DUP2 AND SWAP3 PUSH1 0x1 PUSH1 0xA0 SHL SWAP1 SWAP2 DIV PUSH1 0xFF AND SWAP2 POP JUMP JUMPDEST PUSH1 0x0 DUP1 PUSH2 0xE58 PUSH1 0x6 PUSH2 0x2376 JUMP JUMPDEST PUSH1 0x8 DUP2 SWAP1 SHR PUSH1 0xFF SWAP1 SWAP2 AND SHL SWAP1 JUMP JUMPDEST PUSH1 0x0 PUSH2 0x32CE PUSH2 0x32A9 JUMP JUMPDEST PUSH1 0x1 PUSH1 0x1 PUSH1 0xA0 SHL SUB DUP9 AND PUSH1 0x0 SWAP1 DUP2 MSTORE PUSH1 0x20 DUP3 DUP2 MSTORE PUSH1 0x40 DUP1 DUP4 KECCAK256 DUP11 DUP5 MSTORE SWAP1 SWAP2 MSTORE SWAP1 KECCAK256 SWAP1 SWAP2 POP PUSH11 0x7FFFFFFFFFFFFFFFFFFFFF NOT DUP7 SLT DUP1 ISZERO SWAP1 PUSH2 0x3319 JUMPI POP PUSH11 0x7FFFFFFFFFFFFFFFFFFFFF DUP7 SGT ISZERO JUMPDEST PUSH2 0x3322 JUMPI PUSH1 0x0 DUP1 REVERT JUMPDEST PUSH1 0x0 DUP6 SLT ISZERO DUP1 ISZERO PUSH2 0x333A JUMPI POP PUSH1 0x1 PUSH1 0x1 PUSH1 0x50 SHL SUB DUP6 SGT ISZERO JUMPDEST PUSH2 0x3343 JUMPI PUSH1 0x0 DUP1 REVERT JUMPDEST DUP4 PUSH2 0x3383 JUMPI PUSH7 0xFFFFFFFFFFFFFF DUP4 GT ISZERO PUSH2 0x335C JUMPI PUSH1 0x0 DUP1 REVERT JUMPDEST DUP1 SLOAD PUSH7 0xFFFFFFFFFFFFFF PUSH1 0x70 SHL NOT AND PUSH1 0x1 PUSH1 0x70 SHL PUSH7 0xFFFFFFFFFFFFFF DUP6 AND MUL OR DUP2 SSTORE PUSH2 0x339D JUMP JUMPDEST DUP1 SLOAD PUSH1 0x1 PUSH1 0x50 SHL SWAP1 DIV PUSH4 0xFFFFFFFF AND DUP5 EQ PUSH2 0x339D JUMPI PUSH1 0x0 DUP1 REVERT JUMPDEST DUP1 SLOAD PUSH1 0xA SWAP7 SWAP1 SWAP7 SIGNEXTEND PUSH11 0xFFFFFFFFFFFFFFFFFFFFFF AND PUSH1 0x1 PUSH1 0xA8 SHL MUL PUSH1 0x1 PUSH1 0x1 PUSH1 0xA8 SHL SUB PUSH1 0x1 PUSH1 0x1 PUSH1 0x50 SHL SUB SWAP1 SWAP7 AND PUSH1 0x1 PUSH1 0x1 PUSH1 0x50 SHL SUB NOT PUSH4 0xFFFFFFFF SWAP1 SWAP7 AND PUSH1 0x1 PUSH1 0x50 SHL MUL PUSH4 0xFFFFFFFF PUSH1 0x50 SHL NOT SWAP1 SWAP9 AND SWAP8 SWAP1 SWAP8 OR SWAP5 SWAP1 SWAP5 AND SWAP6 SWAP1 SWAP6 OR SWAP4 SWAP1 SWAP4 AND SWAP2 SWAP1 SWAP2 OR SWAP1 SWAP3 SSTORE POP POP POP POP JUMP JUMPDEST PUSH1 0x0 PUSH4 0x5F5E100 DUP4 PUSH1 0x40 ADD MLOAD EQ ISZERO PUSH2 0x3424 JUMPI POP DUP1 PUSH2 0xE58 JUMP JUMPDEST PUSH1 0x40 DUP4 ADD MLOAD PUSH2 0x7DA SWAP1 PUSH2 0x12E7 DUP5 PUSH4 0x5F5E100 PUSH2 0x278F JUMP JUMPDEST PUSH1 0x0 PUSH4 0xFFFFFFFF DUP3 GT ISZERO PUSH2 0x1304 JUMPI PUSH1 0x0 DUP1 REVERT JUMPDEST PUSH1 0x0 DUP1 PUSH2 0x345E DUP9 PUSH2 0xFFFF AND PUSH2 0x3D96 JUMP JUMPDEST SWAP1 POP DUP4 DUP2 PUSH1 0xFF AND GT ISZERO PUSH2 0x3470 JUMPI PUSH1 0x0 DUP1 REVERT JUMPDEST PUSH1 0x0 DUP1 PUSH2 0x3481 DUP4 PUSH1 0xFF AND DUP11 DUP8 PUSH2 0x3DAC JUMP JUMPDEST SWAP2 POP SWAP2 POP DUP1 ISZERO PUSH2 0x3490 JUMPI PUSH1 0x0 DUP1 REVERT JUMPDEST PUSH1 0x0 PUSH2 0x349B DUP10 PUSH2 0x3E74 JUMP JUMPDEST SWAP1 POP PUSH11 0xFFFFFFFFFFFFFFFFFFFFFF DUP2 LT PUSH2 0x34B4 JUMPI PUSH1 0x0 DUP1 REVERT JUMPDEST PUSH1 0x0 PUSH1 0x78 DUP10 PUSH4 0xFFFFFFFF AND SWAP1 SHL PUSH1 0x98 DUP4 SWAP1 SHL PUSH1 0xF0 DUP7 SWAP1 SHL PUSH1 0xF8 PUSH1 0x0 DUP15 SGT PUSH2 0x34DC JUMPI PUSH1 0x1 PUSH2 0x34DF JUMP JUMPDEST PUSH1 0x0 JUMPDEST PUSH1 0x5 DUP2 GT ISZERO PUSH2 0x34EA JUMPI INVALID JUMPDEST PUSH1 0xFF AND SWAP1 SHL OR OR OR PUSH1 0x0 SHL SWAP1 POP PUSH20 0x0 PUSH4 0xE50F349E DUP14 DUP4 PUSH1 0x40 MLOAD DUP4 PUSH4 0xFFFFFFFF AND PUSH1 0xE0 SHL DUP2 MSTORE PUSH1 0x4 ADD PUSH2 0x3530 SWAP3 SWAP2 SWAP1 PUSH2 0x4E3D JUMP JUMPDEST PUSH1 0x20 PUSH1 0x40 MLOAD DUP1 DUP4 SUB DUP2 DUP7 DUP1 EXTCODESIZE ISZERO DUP1 ISZERO PUSH2 0x3548 JUMPI PUSH1 0x0 DUP1 REVERT JUMPDEST POP GAS DELEGATECALL ISZERO DUP1 ISZERO PUSH2 0x355C JUMPI RETURNDATASIZE PUSH1 0x0 DUP1 RETURNDATACOPY RETURNDATASIZE PUSH1 0x0 REVERT JUMPDEST POP POP POP POP PUSH1 0x40 MLOAD RETURNDATASIZE PUSH1 0x1F NOT PUSH1 0x1F DUP3 ADD AND DUP3 ADD DUP1 PUSH1 0x40 MSTORE POP DUP2 ADD SWAP1 PUSH2 0x3580 SWAP2 SWAP1 PUSH2 0x465F JUMP JUMPDEST SWAP13 SWAP12 POP POP POP POP POP POP POP POP POP POP POP POP JUMP JUMPDEST PUSH1 0x0 DUP1 PUSH2 0xE58 PUSH1 0x13 PUSH2 0x2376 JUMP JUMPDEST PUSH1 0x0 DUP1 PUSH1 0x0 DUP1 PUSH1 0x0 PUSH2 0x35AE DUP7 PUSH2 0x3272 JUMP JUMPDEST SWAP1 SWAP3 POP SWAP1 POP PUSH1 0x0 PUSH1 0x1 PUSH1 0x1 PUSH1 0xA0 SHL SUB DUP4 AND PUSH2 0x35D3 JUMPI POP PUSH1 0x0 SWAP1 POP PUSH5 0x2540BE400 PUSH2 0x2777 JUMP JUMPDEST DUP3 PUSH1 0x1 PUSH1 0x1 PUSH1 0xA0 SHL SUB AND PUSH4 0xB2FFFB04 PUSH1 0x40 MLOAD DUP2 PUSH4 0xFFFFFFFF AND PUSH1 0xE0 SHL DUP2 MSTORE PUSH1 0x4 ADD PUSH1 0x20 PUSH1 0x40 MLOAD DUP1 DUP4 SUB DUP2 DUP7 DUP1 EXTCODESIZE ISZERO DUP1 ISZERO PUSH2 0x360C JUMPI PUSH1 0x0 DUP1 REVERT JUMPDEST POP GAS STATICCALL ISZERO DUP1 ISZERO PUSH2 0x2744 JUMPI RETURNDATASIZE PUSH1 0x0 DUP1 RETURNDATACOPY RETURNDATASIZE PUSH1 0x0 REVERT JUMPDEST PUSH1 0x0 DUP1 PUSH1 0x0 DUP5 PUSH1 0x60 ADD MLOAD GT ISZERO PUSH2 0xAB7 JUMPI PUSH2 0x364F DUP5 PUSH1 0x60 ADD MLOAD PUSH2 0x1901 DUP7 PUSH1 0x80 ADD MLOAD DUP7 PUSH2 0x2A3E SWAP1 SWAP2 SWAP1 PUSH4 0xFFFFFFFF AND JUMP JUMPDEST SWAP2 POP PUSH2 0x3670 DUP5 PUSH1 0x60 ADD MLOAD PUSH2 0x1901 DUP7 PUSH1 0xA0 ADD MLOAD DUP7 PUSH2 0x2A3E SWAP1 SWAP2 SWAP1 PUSH4 0xFFFFFFFF AND JUMP JUMPDEST SWAP1 POP SWAP3 POP SWAP3 SWAP1 POP JUMP JUMPDEST PUSH1 0x0 DUP1 PUSH2 0x368D DUP7 PUSH1 0x40 ADD MLOAD PUSH2 0xFFFF AND PUSH2 0xFB4 JUMP JUMPDEST SWAP1 POP PUSH1 0x0 PUSH1 0x4 DUP3 PUSH1 0x60 ADD MLOAD PUSH1 0x5 DUP2 GT ISZERO PUSH2 0x36A3 JUMPI INVALID JUMPDEST EQ PUSH2 0x36BE JUMPI PUSH2 0x36B9 DUP8 PUSH1 0x40 ADD MLOAD PUSH2 0xFFFF AND PUSH2 0xFCC JUMP JUMPDEST PUSH2 0x36C0 JUMP JUMPDEST DUP2 JUMPDEST SWAP1 POP PUSH1 0x0 DUP1 DUP8 PUSH1 0x80 ADD MLOAD SLT ISZERO PUSH2 0x3733 JUMPI PUSH1 0x4 DUP4 PUSH1 0x60 ADD MLOAD PUSH1 0x5 DUP2 GT ISZERO PUSH2 0x36E2 JUMPI INVALID JUMPDEST EQ ISZERO PUSH2 0x36FF JUMPI PUSH2 0x36F8 PUSH2 0x639 DUP9 PUSH1 0x80 ADD MLOAD PUSH2 0x12A8 JUMP JUMPDEST SWAP1 POP PUSH2 0x3733 JUMP JUMPDEST PUSH1 0x0 PUSH2 0x3720 PUSH2 0x890 DUP10 PUSH1 0x80 ADD MLOAD DUP12 PUSH2 0x160 ADD MLOAD PUSH2 0x1A1F SWAP1 SWAP2 SWAP1 PUSH4 0xFFFFFFFF AND JUMP JUMPDEST SWAP1 POP PUSH2 0x372F PUSH2 0x639 DUP5 DUP4 PUSH2 0x1A4A JUMP JUMPDEST SWAP2 POP POP JUMPDEST PUSH1 0x40 DUP8 ADD MLOAD PUSH1 0x0 SWAP1 ISZERO PUSH2 0x37F2 JUMPI PUSH1 0x0 PUSH2 0x374C DUP5 ADDRESS PUSH2 0x1A86 JUMP JUMPDEST SWAP1 POP DUP10 PUSH1 0x0 ADD MLOAD PUSH1 0x1 PUSH1 0x1 PUSH1 0xA0 SHL SUB AND PUSH4 0x44F05108 DUP11 PUSH1 0x0 ADD MLOAD DUP12 PUSH1 0x20 ADD MLOAD DUP13 PUSH1 0x40 ADD MLOAD DUP14 PUSH1 0x60 ADD MLOAD DUP9 DUP15 DUP15 PUSH1 0x40 MLOAD DUP9 PUSH4 0xFFFFFFFF AND PUSH1 0xE0 SHL DUP2 MSTORE PUSH1 0x4 ADD PUSH2 0x379A SWAP8 SWAP7 SWAP6 SWAP5 SWAP4 SWAP3 SWAP2 SWAP1 PUSH2 0x47BE JUMP JUMPDEST PUSH1 0x0 PUSH1 0x40 MLOAD DUP1 DUP4 SUB DUP2 PUSH1 0x0 DUP8 DUP1 EXTCODESIZE ISZERO DUP1 ISZERO PUSH2 0x37B4 JUMPI PUSH1 0x0 DUP1 REVERT JUMPDEST POP GAS CALL ISZERO DUP1 ISZERO PUSH2 0x37C8 JUMPI RETURNDATASIZE PUSH1 0x0 DUP1 RETURNDATACOPY RETURNDATASIZE PUSH1 0x0 REVERT JUMPDEST POP POP POP POP PUSH1 0x0 PUSH2 0x37E1 ADDRESS DUP7 PUSH2 0x1A86 SWAP1 SWAP2 SWAP1 PUSH4 0xFFFFFFFF AND JUMP JUMPDEST SWAP1 POP PUSH2 0x37ED DUP2 DUP4 PUSH2 0x1B30 JUMP JUMPDEST SWAP3 POP POP POP JUMPDEST DUP2 DUP2 LT ISZERO PUSH2 0x388D JUMPI DUP1 DUP3 SUB PUSH1 0x3 DUP5 PUSH1 0x60 ADD MLOAD PUSH1 0x5 DUP2 GT ISZERO PUSH2 0x380F JUMPI INVALID JUMPDEST EQ ISZERO PUSH2 0x384D JUMPI CALLVALUE DUP2 GT ISZERO PUSH2 0x3835 JUMPI PUSH1 0x40 MLOAD PUSH3 0x461BCD PUSH1 0xE5 SHL DUP2 MSTORE PUSH1 0x4 ADD PUSH2 0x2DB SWAP1 PUSH2 0x4AD4 JUMP JUMPDEST PUSH2 0x3845 DUP10 PUSH1 0x0 ADD MLOAD DUP3 CALLVALUE SUB PUSH2 0x3A78 JUMP JUMPDEST DUP3 SWAP2 POP PUSH2 0x388B JUMP JUMPDEST PUSH1 0x0 PUSH2 0x3872 DUP11 PUSH1 0x0 ADD MLOAD DUP13 PUSH1 0x40 ADD MLOAD PUSH2 0xFFFF AND PUSH2 0x3869 DUP6 PUSH2 0x1315 JUMP JUMPDEST DUP9 SWAP3 SWAP2 SWAP1 PUSH2 0x3127 JUMP JUMPDEST SWAP1 POP PUSH2 0x3887 PUSH2 0x3880 DUP3 PUSH2 0x12F5 JUMP JUMPDEST DUP5 SWAP1 PUSH2 0x1450 JUMP JUMPDEST SWAP3 POP POP JUMPDEST POP JUMPDEST DUP2 DUP2 LT ISZERO PUSH2 0x38AD JUMPI PUSH1 0x40 MLOAD PUSH3 0x461BCD PUSH1 0xE5 SHL DUP2 MSTORE PUSH1 0x4 ADD PUSH2 0x2DB SWAP1 PUSH2 0x4AD4 JUMP JUMPDEST PUSH1 0x0 PUSH1 0x4 DUP6 PUSH1 0x60 ADD MLOAD PUSH1 0x5 DUP2 GT ISZERO PUSH2 0x38C1 JUMPI INVALID JUMPDEST EQ PUSH2 0x38DC JUMPI PUSH1 0x40 DUP11 ADD MLOAD PUSH2 0x38D7 SWAP1 DUP7 SWAP1 DUP5 PUSH2 0x1B45 JUMP JUMPDEST PUSH2 0x38E5 JUMP JUMPDEST PUSH2 0x38E5 DUP3 PUSH2 0x1315 JUMP JUMPDEST SWAP1 POP PUSH2 0x38F1 DUP6 DUP3 PUSH2 0x340B JUMP JUMPDEST SWAP11 SWAP10 POP POP POP POP POP POP POP POP POP POP JUMP JUMPDEST PUSH1 0x0 DUP2 PUSH2 0x390E JUMPI POP PUSH1 0x0 PUSH2 0xE58 JUMP JUMPDEST PUSH1 0x0 PUSH2 0x3919 DUP5 PUSH2 0x3E95 JUMP JUMPDEST SWAP1 POP PUSH1 0x0 PUSH2 0x3926 DUP5 PUSH2 0x3E74 JUMP JUMPDEST SWAP1 POP DUP2 PUSH12 0x19D971E4FE8401E74000001 PUSH1 0x1 PUSH1 0xFF SHL SUB DUP2 PUSH2 0x3943 JUMPI INVALID JUMPDEST SDIV DUP2 SGT ISZERO PUSH2 0x3950 JUMPI PUSH1 0x0 DUP1 REVERT JUMPDEST PUSH12 0x33B2E3C9FD0803CE8000000 PUSH12 0x19D971E4FE8401E74000000 DUP4 DUP4 MUL ADD SDIV PUSH1 0x0 DUP6 SGT PUSH2 0x29F8 JUMPI PUSH2 0x3980 DUP2 PUSH2 0x12A8 JUMP JUMPDEST PUSH2 0xF2C JUMP JUMPDEST PUSH1 0x0 DUP1 DUP1 DUP1 PUSH1 0x5 DUP8 PUSH1 0x60 ADD MLOAD PUSH1 0x5 DUP2 GT ISZERO PUSH2 0x399C JUMPI INVALID JUMPDEST EQ PUSH2 0x39AE JUMPI PUSH4 0x70A08231 PUSH1 0xE0 SHL PUSH2 0x39B7 JUMP JUMPDEST PUSH4 0xED1279F PUSH1 0xE1 SHL JUMPDEST SWAP1 POP DUP7 PUSH1 0x20 ADD MLOAD ISZERO PUSH2 0x39D3 JUMPI DUP7 MLOAD PUSH2 0x39D0 SWAP1 ADDRESS DUP4 PUSH2 0x2D11 JUMP JUMPDEST SWAP3 POP JUMPDEST DUP7 MLOAD PUSH2 0x39E0 SWAP1 DUP8 DUP8 PUSH2 0x3F20 JUMP JUMPDEST DUP7 PUSH1 0x20 ADD MLOAD DUP1 PUSH2 0x39F4 JUMPI POP PUSH1 0x0 DUP8 PUSH1 0x80 ADD MLOAD GT JUMPDEST ISZERO PUSH2 0x3A09 JUMPI DUP7 MLOAD PUSH2 0x3A06 SWAP1 ADDRESS DUP4 PUSH2 0x2D11 JUMP JUMPDEST SWAP2 POP JUMPDEST PUSH1 0x80 DUP8 ADD MLOAD ISZERO PUSH2 0x3A44 JUMPI PUSH1 0x0 PUSH2 0x3A27 DUP9 PUSH2 0x3A22 DUP6 PUSH2 0x1315 JUMP JUMPDEST PUSH2 0x340B JUMP JUMPDEST SWAP1 POP PUSH2 0x3A36 DUP9 PUSH1 0x80 ADD MLOAD PUSH2 0x1315 JUMP JUMPDEST DUP2 SGT ISZERO PUSH2 0x3A42 JUMPI PUSH1 0x0 DUP1 REVERT JUMPDEST POP JUMPDEST DUP7 PUSH1 0x20 ADD MLOAD ISZERO PUSH2 0x3A65 JUMPI PUSH2 0x3A5B PUSH2 0x1907 DUP4 DUP6 PUSH2 0x2F8B JUMP JUMPDEST SWAP4 POP POP POP POP PUSH2 0x7DA JUMP JUMPDEST PUSH2 0x3A5B DUP6 PUSH2 0x1315 JUMP JUMPDEST POP POP POP SWAP4 SWAP3 POP POP POP JUMP JUMPDEST PUSH1 0x40 MLOAD PUSH1 0x1 PUSH1 0x1 PUSH1 0xA0 SHL SUB DUP4 AND SWAP1 DUP3 ISZERO PUSH2 0x8FC MUL SWAP1 DUP4 SWAP1 PUSH1 0x0 DUP2 DUP2 DUP2 DUP6 DUP9 DUP9 CALL SWAP4 POP POP POP POP ISZERO DUP1 ISZERO PUSH2 0x1098 JUMPI RETURNDATASIZE PUSH1 0x0 DUP1 RETURNDATACOPY RETURNDATASIZE PUSH1 0x0 REVERT JUMPDEST DUP3 PUSH1 0x1 PUSH1 0x1 PUSH1 0xA0 SHL SUB AND PUSH4 0xA9059CBB DUP4 DUP4 PUSH1 0x40 MLOAD DUP4 PUSH4 0xFFFFFFFF AND PUSH1 0xE0 SHL DUP2 MSTORE PUSH1 0x4 ADD DUP1 DUP4 PUSH1 0x1 PUSH1 0x1 PUSH1 0xA0 SHL SUB AND DUP2 MSTORE PUSH1 0x20 ADD DUP3 DUP2 MSTORE PUSH1 0x20 ADD SWAP3 POP POP POP PUSH1 0x0 PUSH1 0x40 MLOAD DUP1 DUP4 SUB DUP2 PUSH1 0x0 DUP8 DUP1 EXTCODESIZE ISZERO DUP1 ISZERO PUSH2 0x3B05 JUMPI PUSH1 0x0 DUP1 REVERT JUMPDEST POP GAS CALL ISZERO DUP1 ISZERO PUSH2 0x3B19 JUMPI RETURNDATASIZE PUSH1 0x0 DUP1 RETURNDATACOPY RETURNDATASIZE PUSH1 0x0 REVERT JUMPDEST POP POP POP POP PUSH2 0x1098 PUSH2 0x3F78 JUMP JUMPDEST DUP3 MLOAD PUSH1 0x40 MLOAD PUSH4 0xDB006A75 PUSH1 0xE0 SHL DUP2 MSTORE PUSH1 0x0 SWAP2 SELFBALANCE SWAP2 DUP4 SWAP2 PUSH1 0x1 PUSH1 0x1 PUSH1 0xA0 SHL SUB AND SWAP1 PUSH4 0xDB006A75 SWAP1 PUSH2 0x3B59 SWAP1 DUP8 SWAP1 PUSH1 0x4 ADD PUSH2 0x494B JUMP JUMPDEST PUSH1 0x20 PUSH1 0x40 MLOAD DUP1 DUP4 SUB DUP2 PUSH1 0x0 DUP8 DUP1 EXTCODESIZE ISZERO DUP1 ISZERO PUSH2 0x3B73 JUMPI PUSH1 0x0 DUP1 REVERT JUMPDEST POP GAS CALL ISZERO DUP1 ISZERO PUSH2 0x3B87 JUMPI RETURNDATASIZE PUSH1 0x0 DUP1 RETURNDATACOPY RETURNDATASIZE PUSH1 0x0 REVERT JUMPDEST POP POP POP POP PUSH1 0x40 MLOAD RETURNDATASIZE PUSH1 0x1F NOT PUSH1 0x1F DUP3 ADD AND DUP3 ADD DUP1 PUSH1 0x40 MSTORE POP DUP2 ADD SWAP1 PUSH2 0x3BAB SWAP2 SWAP1 PUSH2 0x465F JUMP JUMPDEST SWAP1 POP DUP1 ISZERO PUSH2 0x3BCB JUMPI PUSH1 0x40 MLOAD PUSH3 0x461BCD PUSH1 0xE5 SHL DUP2 MSTORE PUSH1 0x4 ADD PUSH2 0x2DB SWAP1 PUSH2 0x4A8D JUMP JUMPDEST SELFBALANCE PUSH2 0x3BD6 DUP2 DUP5 PUSH2 0x2F8B JUMP JUMPDEST SWAP4 POP PUSH2 0x3A6E DUP7 DUP6 PUSH2 0x3A78 JUMP JUMPDEST PUSH1 0x0 PUSH2 0x3BFD PUSH2 0x639 DUP6 PUSH1 0x0 ADD MLOAD PUSH2 0x3BF8 DUP6 PUSH2 0x1315 JUMP JUMPDEST PUSH2 0x38FF JUMP JUMPDEST SWAP1 POP PUSH2 0x3C07 PUSH2 0x3590 JUMP JUMPDEST SLOAD DUP5 MLOAD PUSH1 0x40 MLOAD PUSH4 0x1A4CA37B PUSH1 0xE2 SHL DUP2 MSTORE PUSH1 0x1 PUSH1 0x1 PUSH1 0xA0 SHL SUB SWAP1 SWAP3 AND SWAP2 PUSH4 0x69328DEC SWAP2 PUSH2 0x3C39 SWAP2 DUP6 SWAP1 DUP9 SWAP1 PUSH1 0x4 ADD PUSH2 0x47FC JUMP JUMPDEST PUSH1 0x20 PUSH1 0x40 MLOAD DUP1 DUP4 SUB DUP2 PUSH1 0x0 DUP8 DUP1 EXTCODESIZE ISZERO DUP1 ISZERO PUSH2 0x3C53 JUMPI PUSH1 0x0 DUP1 REVERT JUMPDEST POP GAS CALL ISZERO DUP1 ISZERO PUSH2 0x3C67 JUMPI RETURNDATASIZE PUSH1 0x0 DUP1 RETURNDATACOPY RETURNDATASIZE PUSH1 0x0 REVERT JUMPDEST POP POP POP POP PUSH1 0x40 MLOAD RETURNDATASIZE PUSH1 0x1F NOT PUSH1 0x1F DUP3 ADD AND DUP3 ADD DUP1 PUSH1 0x40 MSTORE POP DUP2 ADD SWAP1 PUSH2 0x1448 SWAP2 SWAP1 PUSH2 0x465F JUMP JUMPDEST DUP3 MLOAD PUSH1 0x0 SWAP1 DUP2 SWAP1 PUSH2 0x3CA4 SWAP1 ADDRESS PUSH4 0x70A08231 PUSH1 0xE0 SHL PUSH2 0x2D11 JUMP JUMPDEST SWAP1 POP PUSH1 0x0 DUP7 PUSH1 0x0 ADD MLOAD PUSH1 0x1 PUSH1 0x1 PUSH1 0xA0 SHL SUB AND PUSH4 0xDB006A75 DUP6 PUSH1 0x40 MLOAD DUP3 PUSH4 0xFFFFFFFF AND PUSH1 0xE0 SHL DUP2 MSTORE PUSH1 0x4 ADD PUSH2 0x3CD8 SWAP2 SWAP1 PUSH2 0x494B JUMP JUMPDEST PUSH1 0x20 PUSH1 0x40 MLOAD DUP1 DUP4 SUB DUP2 PUSH1 0x0 DUP8 DUP1 EXTCODESIZE ISZERO DUP1 ISZERO PUSH2 0x3CF2 JUMPI PUSH1 0x0 DUP1 REVERT JUMPDEST POP GAS CALL ISZERO DUP1 ISZERO PUSH2 0x3D06 JUMPI RETURNDATASIZE PUSH1 0x0 DUP1 RETURNDATACOPY RETURNDATASIZE PUSH1 0x0 REVERT JUMPDEST POP POP POP POP PUSH1 0x40 MLOAD RETURNDATASIZE PUSH1 0x1F NOT PUSH1 0x1F DUP3 ADD AND DUP3 ADD DUP1 PUSH1 0x40 MSTORE POP DUP2 ADD SWAP1 PUSH2 0x3D2A SWAP2 SWAP1 PUSH2 0x465F JUMP JUMPDEST SWAP1 POP DUP1 ISZERO PUSH2 0x3D4A JUMPI PUSH1 0x40 MLOAD PUSH3 0x461BCD PUSH1 0xE5 SHL DUP2 MSTORE PUSH1 0x4 ADD PUSH2 0x2DB SWAP1 PUSH2 0x4A8D JUMP JUMPDEST DUP6 MLOAD PUSH1 0x0 SWAP1 PUSH2 0x3D61 SWAP1 ADDRESS PUSH4 0x70A08231 PUSH1 0xE0 SHL PUSH2 0x2D11 JUMP JUMPDEST SWAP1 POP PUSH2 0x3D6D DUP2 DUP5 PUSH2 0x2F8B JUMP JUMPDEST SWAP4 POP PUSH2 0x3D7E DUP8 PUSH1 0x0 ADD MLOAD DUP8 DUP7 PUSH2 0x3AAE JUMP JUMPDEST POP POP POP SWAP5 SWAP4 POP POP POP POP JUMP JUMPDEST PUSH1 0x0 DUP1 PUSH2 0xE58 PUSH1 0xF PUSH2 0x2376 JUMP JUMPDEST PUSH1 0x0 DUP1 PUSH2 0x3DA2 DUP4 PUSH2 0x3FE9 JUMP JUMPDEST PUSH1 0xFF AND SWAP4 SWAP3 POP POP POP JUMP JUMPDEST PUSH1 0x0 DUP1 PUSH1 0x0 DUP6 GT PUSH2 0x3DCF JUMPI PUSH1 0x40 MLOAD PUSH3 0x461BCD PUSH1 0xE5 SHL DUP2 MSTORE PUSH1 0x4 ADD PUSH2 0x2DB SWAP1 PUSH2 0x4B04 JUMP JUMPDEST PUSH1 0x7 DUP6 GT ISZERO PUSH2 0x3DF0 JUMPI PUSH1 0x40 MLOAD PUSH3 0x461BCD PUSH1 0xE5 SHL DUP2 MSTORE PUSH1 0x4 ADD PUSH2 0x2DB SWAP1 PUSH2 0x4BDE JUMP JUMPDEST PUSH1 0x0 PUSH2 0x3DFB DUP5 PUSH2 0x4006 JUMP JUMPDEST SWAP1 POP PUSH1 0x1 JUMPDEST DUP7 DUP2 GT PUSH2 0x3E53 JUMPI PUSH1 0x0 PUSH2 0x3E1C PUSH2 0x3E15 DUP4 PUSH2 0x4024 JUMP JUMPDEST DUP5 SWAP1 PUSH2 0x40C8 JUMP JUMPDEST SWAP1 POP DUP7 DUP2 EQ ISZERO PUSH2 0x3E34 JUMPI POP SWAP3 POP PUSH1 0x0 SWAP2 POP PUSH2 0x3E6C SWAP1 POP JUMP JUMPDEST DUP7 DUP2 GT ISZERO PUSH2 0x3E4A JUMPI POP SWAP3 POP PUSH1 0x1 SWAP2 POP PUSH2 0x3E6C SWAP1 POP JUMP JUMPDEST POP PUSH1 0x1 ADD PUSH2 0x3E00 JUMP JUMPDEST POP PUSH1 0x40 MLOAD PUSH3 0x461BCD PUSH1 0xE5 SHL DUP2 MSTORE PUSH1 0x4 ADD PUSH2 0x2DB SWAP1 PUSH2 0x4CF8 JUMP JUMPDEST SWAP4 POP SWAP4 SWAP2 POP POP JUMP JUMPDEST PUSH1 0x0 DUP1 DUP3 SLT ISZERO PUSH2 0x3E8E JUMPI PUSH2 0x3E87 DUP3 PUSH2 0x12A8 JUMP JUMPDEST SWAP1 POP PUSH2 0xFC7 JUMP JUMPDEST POP DUP1 PUSH2 0xFC7 JUMP JUMPDEST PUSH1 0x0 PUSH2 0xE58 PUSH2 0x3EA2 PUSH2 0x3590 JUMP JUMPDEST SLOAD PUSH1 0x40 MLOAD PUSH4 0xD15E0053 PUSH1 0xE0 SHL DUP2 MSTORE PUSH1 0x1 PUSH1 0x1 PUSH1 0xA0 SHL SUB SWAP1 SWAP2 AND SWAP1 PUSH4 0xD15E0053 SWAP1 PUSH2 0x3ED0 SWAP1 DUP7 SWAP1 PUSH1 0x4 ADD PUSH2 0x47AA JUMP JUMPDEST PUSH1 0x20 PUSH1 0x40 MLOAD DUP1 DUP4 SUB DUP2 DUP7 DUP1 EXTCODESIZE ISZERO DUP1 ISZERO PUSH2 0x3EE8 JUMPI PUSH1 0x0 DUP1 REVERT JUMPDEST POP GAS STATICCALL ISZERO DUP1 ISZERO PUSH2 0x3EFC JUMPI RETURNDATASIZE PUSH1 0x0 DUP1 RETURNDATACOPY RETURNDATASIZE PUSH1 0x0 REVERT JUMPDEST POP POP POP POP PUSH1 0x40 MLOAD RETURNDATASIZE PUSH1 0x1F NOT PUSH1 0x1F DUP3 ADD AND DUP3 ADD DUP1 PUSH1 0x40 MSTORE POP DUP2 ADD SWAP1 PUSH2 0x1907 SWAP2 SWAP1 PUSH2 0x465F JUMP JUMPDEST PUSH1 0x40 DUP1 MLOAD PUSH4 0x23B872DD PUSH1 0xE0 SHL DUP2 MSTORE PUSH1 0x1 PUSH1 0x1 PUSH1 0xA0 SHL SUB DUP5 DUP2 AND PUSH1 0x4 DUP4 ADD MSTORE ADDRESS PUSH1 0x24 DUP4 ADD MSTORE PUSH1 0x44 DUP3 ADD DUP5 SWAP1 MSTORE SWAP2 MLOAD SWAP2 DUP6 AND SWAP2 PUSH4 0x23B872DD SWAP2 PUSH1 0x64 DUP1 DUP3 ADD SWAP3 PUSH1 0x0 SWAP3 SWAP1 SWAP2 SWAP1 DUP3 SWAP1 SUB ADD DUP2 DUP4 DUP8 DUP1 EXTCODESIZE ISZERO DUP1 ISZERO PUSH2 0x3B05 JUMPI PUSH1 0x0 DUP1 REVERT JUMPDEST PUSH1 0x0 PUSH2 0x3F82 PUSH2 0x4262 JUMP JUMPDEST RETURNDATASIZE DUP1 ISZERO PUSH2 0x3F96 JUMPI PUSH1 0x20 DUP2 EQ PUSH2 0x3F9F JUMPI PUSH1 0x0 DUP1 REVERT JUMPDEST PUSH1 0x1 SWAP3 POP PUSH2 0x3FAA JUMP JUMPDEST PUSH1 0x20 PUSH1 0x0 DUP4 RETURNDATACOPY DUP2 MLOAD SWAP3 POP JUMPDEST POP DUP2 PUSH2 0x3FE5 JUMPI PUSH1 0x40 DUP1 MLOAD PUSH3 0x461BCD PUSH1 0xE5 SHL DUP2 MSTORE PUSH1 0x20 PUSH1 0x4 DUP3 ADD MSTORE PUSH1 0x5 PUSH1 0x24 DUP3 ADD MSTORE PUSH5 0x455243323 PUSH1 0xDC SHL PUSH1 0x44 DUP3 ADD MSTORE SWAP1 MLOAD SWAP1 DUP2 SWAP1 SUB PUSH1 0x64 ADD SWAP1 REVERT JUMPDEST POP POP JUMP JUMPDEST PUSH1 0x0 DUP1 PUSH2 0x3FF4 PUSH2 0x4122 JUMP JUMPDEST PUSH1 0x0 SWAP4 DUP5 MSTORE PUSH1 0x20 MSTORE POP POP PUSH1 0x40 SWAP1 KECCAK256 SLOAD SWAP1 JUMP JUMPDEST PUSH1 0x0 PUSH3 0x76A700 DUP3 LT ISZERO PUSH2 0x4018 JUMPI PUSH1 0x0 DUP1 REVERT JUMPDEST POP PUSH3 0x76A700 DUP2 MOD SWAP1 SUB SWAP1 JUMP JUMPDEST PUSH1 0x0 DUP2 PUSH1 0x1 EQ ISZERO PUSH2 0x4039 JUMPI POP PUSH3 0x76A700 PUSH2 0xFC7 JUMP JUMPDEST DUP2 PUSH1 0x2 EQ ISZERO PUSH2 0x404C JUMPI POP PUSH3 0xED4E00 PUSH2 0xFC7 JUMP JUMPDEST DUP2 PUSH1 0x3 EQ ISZERO PUSH2 0x4060 JUMPI POP PUSH4 0x1DA9C00 PUSH2 0xFC7 JUMP JUMPDEST DUP2 PUSH1 0x4 EQ ISZERO PUSH2 0x4074 JUMPI POP PUSH4 0x3B53800 PUSH2 0xFC7 JUMP JUMPDEST DUP2 PUSH1 0x5 EQ ISZERO PUSH2 0x4088 JUMPI POP PUSH4 0x9450C00 PUSH2 0xFC7 JUMP JUMPDEST DUP2 PUSH1 0x6 EQ ISZERO PUSH2 0x409C JUMPI POP PUSH4 0x128A1800 PUSH2 0xFC7 JUMP JUMPDEST DUP2 PUSH1 0x7 EQ ISZERO PUSH2 0x40B0 JUMPI POP PUSH4 0x25143000 PUSH2 0xFC7 JUMP JUMPDEST PUSH1 0x40 MLOAD PUSH3 0x461BCD PUSH1 0xE5 SHL DUP2 MSTORE PUSH1 0x4 ADD PUSH2 0x2DB SWAP1 PUSH2 0x4B33 JUMP JUMPDEST PUSH1 0x0 DUP3 DUP3 ADD DUP4 DUP2 LT ISZERO PUSH2 0x7DA JUMPI PUSH1 0x40 DUP1 MLOAD PUSH3 0x461BCD PUSH1 0xE5 SHL DUP2 MSTORE PUSH1 0x20 PUSH1 0x4 DUP3 ADD MSTORE PUSH1 0x1B PUSH1 0x24 DUP3 ADD MSTORE PUSH32 0x536166654D6174683A206164646974696F6E206F766572666C6F770000000000 PUSH1 0x44 DUP3 ADD MSTORE SWAP1 MLOAD SWAP1 DUP2 SWAP1 SUB PUSH1 0x64 ADD SWAP1 REVERT JUMPDEST PUSH1 0x0 DUP1 PUSH2 0xE58 PUSH1 0x9 PUSH2 0x2376 JUMP JUMPDEST PUSH1 0x40 MLOAD DUP1 PUSH1 0x40 ADD PUSH1 0x40 MSTORE DUP1 PUSH1 0x2 SWAP1 PUSH1 0x20 DUP3 MUL DUP1 CALLDATASIZE DUP4 CALLDATACOPY POP SWAP2 SWAP3 SWAP2 POP POP JUMP JUMPDEST PUSH1 0x40 MLOAD DUP1 PUSH1 0xE0 ADD PUSH1 0x40 MSTORE DUP1 PUSH1 0x0 DUP2 MSTORE PUSH1 0x20 ADD PUSH1 0x0 DUP2 MSTORE PUSH1 0x20 ADD PUSH1 0x0 ISZERO ISZERO DUP2 MSTORE PUSH1 0x20 ADD PUSH1 0x0 DUP2 MSTORE PUSH1 0x20 ADD PUSH1 0x0 DUP2 MSTORE PUSH1 0x20 ADD PUSH1 0x0 DUP2 MSTORE PUSH1 0x20 ADD PUSH1 0x0 DUP2 MSTORE POP SWAP1 JUMP JUMPDEST PUSH1 0x40 MLOAD DUP1 PUSH2 0x180 ADD PUSH1 0x40 MSTORE DUP1 PUSH1 0x0 PUSH1 0x1 PUSH1 0x1 PUSH1 0xA0 SHL SUB AND DUP2 MSTORE PUSH1 0x20 ADD PUSH1 0x0 PUSH2 0xFFFF AND DUP2 MSTORE PUSH1 0x20 ADD PUSH1 0x0 PUSH2 0xFFFF AND DUP2 MSTORE PUSH1 0x20 ADD PUSH1 0x0 DUP2 MSTORE PUSH1 0x20 ADD PUSH1 0x0 DUP2 MSTORE PUSH1 0x20 ADD PUSH1 0x0 DUP2 MSTORE PUSH1 0x20 ADD PUSH1 0x0 DUP2 MSTORE PUSH1 0x20 ADD PUSH1 0x0 DUP2 MSTORE PUSH1 0x20 ADD PUSH1 0x0 DUP2 MSTORE PUSH1 0x20 ADD PUSH1 0x0 DUP2 MSTORE PUSH1 0x20 ADD PUSH2 0x41F7 PUSH2 0x412F JUMP JUMPDEST DUP2 MSTORE PUSH1 0x20 ADD PUSH2 0x4204 PUSH2 0x4238 JUMP JUMPDEST SWAP1 MSTORE SWAP1 JUMP JUMPDEST PUSH1 0x40 DUP1 MLOAD PUSH1 0xA0 DUP2 ADD DUP3 MSTORE PUSH1 0x0 DUP1 DUP3 MSTORE PUSH1 0x20 DUP3 ADD DUP2 SWAP1 MSTORE SWAP2 DUP2 ADD DUP3 SWAP1 MSTORE SWAP1 PUSH1 0x60 DUP3 ADD SWAP1 DUP2 MSTORE PUSH1 0x20 ADD PUSH1 0x0 DUP2 MSTORE POP SWAP1 JUMP JUMPDEST PUSH1 0x40 MLOAD DUP1 PUSH1 0x60 ADD PUSH1 0x40 MSTORE DUP1 PUSH1 0x0 PUSH1 0x1 PUSH1 0x1 PUSH1 0xA0 SHL SUB AND DUP2 MSTORE PUSH1 0x20 ADD PUSH1 0x0 DUP2 MSTORE PUSH1 0x20 ADD PUSH1 0x0 DUP2 MSTORE POP SWAP1 JUMP JUMPDEST PUSH1 0x40 MLOAD DUP1 PUSH1 0x20 ADD PUSH1 0x40 MSTORE DUP1 PUSH1 0x1 SWAP1 PUSH1 0x20 DUP3 MUL DUP1 CALLDATASIZE DUP4 CALLDATACOPY POP SWAP2 SWAP3 SWAP2 POP POP JUMP JUMPDEST DUP1 CALLDATALOAD PUSH1 0x1 PUSH1 0x1 PUSH1 0xA0 SHL SUB DUP2 AND DUP2 EQ PUSH2 0xFC7 JUMPI PUSH1 0x0 DUP1 REVERT JUMPDEST DUP1 PUSH1 0x40 DUP2 ADD DUP4 LT ISZERO PUSH2 0xE58 JUMPI PUSH1 0x0 DUP1 REVERT JUMPDEST PUSH1 0x0 DUP1 DUP4 PUSH1 0x1F DUP5 ADD SLT PUSH2 0x42B9 JUMPI DUP2 DUP3 REVERT JUMPDEST POP DUP2 CALLDATALOAD PUSH8 0xFFFFFFFFFFFFFFFF DUP2 GT ISZERO PUSH2 0x42D0 JUMPI DUP2 DUP3 REVERT JUMPDEST PUSH1 0x20 DUP4 ADD SWAP2 POP DUP4 PUSH1 0x20 DUP3 DUP6 ADD ADD GT ISZERO PUSH2 0xAB7 JUMPI PUSH1 0x0 DUP1 REVERT JUMPDEST DUP1 CALLDATALOAD PUSH1 0x1 PUSH1 0x1 PUSH1 0x50 SHL SUB DUP2 AND DUP2 EQ PUSH2 0xFC7 JUMPI PUSH1 0x0 DUP1 REVERT JUMPDEST PUSH1 0x0 PUSH1 0x20 DUP3 DUP5 SUB SLT ISZERO PUSH2 0x4310 JUMPI DUP1 DUP2 REVERT JUMPDEST PUSH2 0x7DA DUP3 PUSH2 0x4280 JUMP JUMPDEST PUSH1 0x0 DUP1 PUSH1 0x40 DUP4 DUP6 SUB SLT ISZERO PUSH2 0x432B JUMPI DUP1 DUP2 REVERT JUMPDEST PUSH2 0x4334 DUP4 PUSH2 0x4280 JUMP JUMPDEST SWAP2 POP PUSH1 0x20 DUP4 ADD CALLDATALOAD DUP1 ISZERO ISZERO DUP2 EQ PUSH2 0x4348 JUMPI DUP2 DUP3 REVERT JUMPDEST DUP1 SWAP2 POP POP SWAP3 POP SWAP3 SWAP1 POP JUMP JUMPDEST PUSH1 0x0 DUP1 PUSH1 0x0 DUP4 DUP6 SUB PUSH2 0x1A0 DUP2 SLT ISZERO PUSH2 0x4369 JUMPI DUP2 DUP3 REVERT JUMPDEST PUSH2 0x4372 DUP6 PUSH2 0x4280 JUMP JUMPDEST SWAP4 POP PUSH2 0x160 PUSH1 0x1F NOT DUP3 ADD SLT ISZERO PUSH2 0x4386 JUMPI DUP2 DUP3 REVERT JUMPDEST POP PUSH1 0x20 DUP5 ADD SWAP2 POP PUSH2 0x439A PUSH2 0x180 DUP6 ADD PUSH2 0x42E8 JUMP JUMPDEST SWAP1 POP SWAP3 POP SWAP3 POP SWAP3 JUMP JUMPDEST PUSH1 0x0 DUP1 PUSH1 0x40 DUP4 DUP6 SUB SLT ISZERO PUSH2 0x43B5 JUMPI DUP2 DUP3 REVERT JUMPDEST PUSH2 0x43BE DUP4 PUSH2 0x4280 JUMP JUMPDEST SWAP2 POP PUSH1 0x20 DUP4 ADD CALLDATALOAD PUSH2 0x4348 DUP2 PUSH2 0x50E0 JUMP JUMPDEST PUSH1 0x0 DUP1 PUSH1 0x0 PUSH1 0x60 DUP5 DUP7 SUB SLT ISZERO PUSH2 0x43E2 JUMPI DUP3 DUP4 REVERT JUMPDEST PUSH2 0x43EB DUP5 PUSH2 0x4280 JUMP JUMPDEST SWAP3 POP PUSH1 0x20 DUP5 ADD CALLDATALOAD PUSH2 0x43FB DUP2 PUSH2 0x50E0 JUMP JUMPDEST SWAP3 SWAP6 SWAP3 SWAP5 POP POP POP PUSH1 0x40 SWAP2 SWAP1 SWAP2 ADD CALLDATALOAD SWAP1 JUMP JUMPDEST PUSH1 0x0 DUP1 PUSH1 0x0 DUP1 PUSH1 0x0 DUP1 PUSH1 0x0 PUSH1 0xC0 DUP9 DUP11 SUB SLT ISZERO PUSH2 0x4426 JUMPI DUP3 DUP4 REVERT JUMPDEST PUSH2 0x442F DUP9 PUSH2 0x4280 JUMP JUMPDEST SWAP7 POP PUSH1 0x20 DUP9 ADD CALLDATALOAD PUSH2 0x443F DUP2 PUSH2 0x50E0 JUMP JUMPDEST SWAP6 POP PUSH1 0x40 DUP9 ADD CALLDATALOAD SWAP5 POP PUSH1 0x60 DUP9 ADD CALLDATALOAD SWAP4 POP PUSH1 0x80 DUP9 ADD CALLDATALOAD PUSH2 0x445D DUP2 PUSH2 0x50F3 JUMP JUMPDEST SWAP3 POP PUSH1 0xA0 DUP9 ADD CALLDATALOAD PUSH8 0xFFFFFFFFFFFFFFFF DUP2 GT ISZERO PUSH2 0x4478 JUMPI DUP3 DUP4 REVERT JUMPDEST PUSH2 0x4484 DUP11 DUP3 DUP12 ADD PUSH2 0x42A8 JUMP JUMPDEST SWAP9 SWAP12 SWAP8 SWAP11 POP SWAP6 SWAP9 POP SWAP4 SWAP7 SWAP3 SWAP6 SWAP3 SWAP4 POP POP POP JUMP JUMPDEST PUSH1 0x0 DUP1 PUSH1 0x0 PUSH1 0x60 DUP5 DUP7 SUB SLT ISZERO PUSH2 0x44AB JUMPI DUP3 DUP4 REVERT JUMPDEST PUSH2 0x44B4 DUP5 PUSH2 0x4280 JUMP JUMPDEST SWAP3 POP PUSH1 0x20 DUP5 ADD CALLDATALOAD PUSH2 0x44C4 DUP2 PUSH2 0x50E0 JUMP JUMPDEST SWAP2 POP PUSH2 0x439A PUSH1 0x40 DUP6 ADD PUSH2 0x42E8 JUMP JUMPDEST PUSH1 0x0 DUP1 PUSH1 0x40 DUP4 DUP6 SUB SLT ISZERO PUSH2 0x44E4 JUMPI DUP2 DUP3 REVERT JUMPDEST PUSH2 0x44ED DUP4 PUSH2 0x4280 JUMP JUMPDEST SWAP5 PUSH1 0x20 SWAP4 SWAP1 SWAP4 ADD CALLDATALOAD SWAP4 POP POP POP JUMP JUMPDEST PUSH1 0x0 DUP1 PUSH1 0x0 DUP1 PUSH1 0x0 PUSH2 0x100 DUP7 DUP9 SUB SLT ISZERO PUSH2 0x4513 JUMPI DUP1 DUP2 REVERT JUMPDEST PUSH2 0x451C DUP7 PUSH2 0x4280 JUMP JUMPDEST SWAP5 POP PUSH1 0x20 DUP7 ADD CALLDATALOAD SWAP4 POP PUSH2 0x4532 DUP8 PUSH1 0x40 DUP9 ADD PUSH2 0x4297 JUMP JUMPDEST SWAP3 POP PUSH2 0x4541 DUP8 PUSH1 0x80 DUP9 ADD PUSH2 0x4297 JUMP JUMPDEST SWAP2 POP PUSH2 0x4550 DUP8 PUSH1 0xC0 DUP9 ADD PUSH2 0x4297 JUMP JUMPDEST SWAP1 POP SWAP3 SWAP6 POP SWAP3 SWAP6 SWAP1 SWAP4 POP JUMP JUMPDEST PUSH1 0x0 DUP1 PUSH1 0x0 DUP1 PUSH1 0x0 DUP1 PUSH1 0xA0 DUP8 DUP10 SUB SLT ISZERO PUSH2 0x4574 JUMPI DUP4 DUP5 REVERT JUMPDEST PUSH2 0x457D DUP8 PUSH2 0x4280 JUMP JUMPDEST SWAP6 POP PUSH2 0x458B PUSH1 0x20 DUP9 ADD PUSH2 0x42E8 JUMP JUMPDEST SWAP5 POP PUSH1 0x40 DUP8 ADD CALLDATALOAD SWAP4 POP PUSH1 0x60 DUP8 ADD CALLDATALOAD SWAP3 POP PUSH1 0x80 DUP8 ADD CALLDATALOAD PUSH8 0xFFFFFFFFFFFFFFFF DUP2 GT ISZERO PUSH2 0x45B4 JUMPI DUP3 DUP4 REVERT JUMPDEST PUSH2 0x45C0 DUP10 DUP3 DUP11 ADD PUSH2 0x42A8 JUMP JUMPDEST SWAP8 SWAP11 SWAP7 SWAP10 POP SWAP5 SWAP8 POP SWAP3 SWAP6 SWAP4 SWAP5 SWAP3 POP POP POP JUMP JUMPDEST PUSH1 0x0 PUSH1 0x20 DUP3 DUP5 SUB SLT ISZERO PUSH2 0x45E3 JUMPI DUP1 DUP2 REVERT JUMPDEST DUP2 MLOAD PUSH8 0xFFFFFFFFFFFFFFFF DUP1 DUP3 GT ISZERO PUSH2 0x45FA JUMPI DUP3 DUP4 REVERT JUMPDEST DUP2 DUP5 ADD SWAP2 POP DUP5 PUSH1 0x1F DUP4 ADD SLT PUSH2 0x460D JUMPI DUP3 DUP4 REVERT JUMPDEST DUP2 MLOAD DUP2 DUP2 GT ISZERO PUSH2 0x4619 JUMPI INVALID JUMPDEST PUSH1 0x40 MLOAD PUSH1 0x1F DUP3 ADD PUSH1 0x1F NOT AND DUP2 ADD PUSH1 0x20 ADD DUP4 DUP2 GT DUP3 DUP3 LT OR ISZERO PUSH2 0x4637 JUMPI INVALID JUMPDEST PUSH1 0x40 MSTORE DUP2 DUP2 MSTORE DUP4 DUP3 ADD PUSH1 0x20 ADD DUP8 LT ISZERO PUSH2 0x464E JUMPI DUP5 DUP6 REVERT JUMPDEST PUSH2 0xF2C DUP3 PUSH1 0x20 DUP4 ADD PUSH1 0x20 DUP8 ADD PUSH2 0x4EC7 JUMP JUMPDEST PUSH1 0x0 PUSH1 0x20 DUP3 DUP5 SUB SLT ISZERO PUSH2 0x4670 JUMPI DUP1 DUP2 REVERT JUMPDEST POP MLOAD SWAP2 SWAP1 POP JUMP JUMPDEST PUSH1 0x0 PUSH1 0x20 DUP3 DUP5 SUB SLT ISZERO PUSH2 0x4688 JUMPI DUP1 DUP2 REVERT JUMPDEST DUP2 CALLDATALOAD PUSH2 0x7DA DUP2 PUSH2 0x50E0 JUMP JUMPDEST PUSH1 0x0 DUP1 PUSH1 0x0 DUP1 PUSH1 0x60 DUP6 DUP8 SUB SLT ISZERO PUSH2 0x46A8 JUMPI DUP2 DUP3 REVERT JUMPDEST DUP5 CALLDATALOAD SWAP4 POP PUSH1 0x20 DUP6 ADD CALLDATALOAD SWAP3 POP PUSH1 0x40 DUP6 ADD CALLDATALOAD PUSH8 0xFFFFFFFFFFFFFFFF DUP2 GT ISZERO PUSH2 0x46CC JUMPI DUP3 DUP4 REVERT JUMPDEST PUSH2 0x46D8 DUP8 DUP3 DUP9 ADD PUSH2 0x42A8 JUMP JUMPDEST SWAP6 SWAP9 SWAP5 SWAP8 POP SWAP6 POP POP POP POP JUMP JUMPDEST PUSH1 0x0 PUSH1 0x20 DUP3 DUP5 SUB SLT ISZERO PUSH2 0x46F5 JUMPI DUP1 DUP2 REVERT JUMPDEST DUP2 CALLDATALOAD PUSH2 0x7DA DUP2 PUSH2 0x50F3 JUMP JUMPDEST PUSH1 0x0 PUSH1 0x20 DUP3 DUP5 SUB SLT ISZERO PUSH2 0x4711 JUMPI DUP1 DUP2 REVERT JUMPDEST DUP2 CALLDATALOAD PUSH2 0x7DA DUP2 PUSH2 0x5105 JUMP JUMPDEST PUSH1 0x1 PUSH1 0x1 PUSH1 0xA0 SHL SUB AND SWAP1 MSTORE JUMP JUMPDEST DUP1 PUSH1 0x0 JUMPDEST PUSH1 0x2 DUP2 LT ISZERO PUSH2 0x4750 JUMPI DUP2 MLOAD PUSH2 0xFFFF AND DUP5 MSTORE PUSH1 0x20 SWAP4 DUP5 ADD SWAP4 SWAP1 SWAP2 ADD SWAP1 PUSH1 0x1 ADD PUSH2 0x472D JUMP JUMPDEST POP POP POP POP JUMP JUMPDEST PUSH1 0x0 DUP3 DUP5 MSTORE DUP3 DUP3 PUSH1 0x20 DUP7 ADD CALLDATACOPY DUP1 PUSH1 0x20 DUP5 DUP7 ADD ADD MSTORE PUSH1 0x20 PUSH1 0x1F NOT PUSH1 0x1F DUP6 ADD AND DUP6 ADD ADD SWAP1 POP SWAP4 SWAP3 POP POP POP JUMP JUMPDEST DUP1 MLOAD PUSH1 0x1 PUSH1 0x1 PUSH1 0xA0 SHL SUB AND DUP3 MSTORE PUSH1 0x20 DUP1 DUP3 ADD MLOAD SWAP1 DUP4 ADD MSTORE PUSH1 0x40 SWAP1 DUP2 ADD MLOAD SWAP2 ADD MSTORE JUMP JUMPDEST PUSH2 0xFFFF AND SWAP1 MSTORE JUMP JUMPDEST PUSH1 0x1 PUSH1 0x1 PUSH1 0xA0 SHL SUB SWAP2 SWAP1 SWAP2 AND DUP2 MSTORE PUSH1 0x20 ADD SWAP1 JUMP JUMPDEST PUSH1 0x0 PUSH1 0x1 DUP1 PUSH1 0xA0 SHL SUB DUP1 DUP11 AND DUP4 MSTORE DUP1 DUP10 AND PUSH1 0x20 DUP5 ADD MSTORE POP DUP7 PUSH1 0x40 DUP4 ADD MSTORE DUP6 PUSH1 0x60 DUP4 ADD MSTORE DUP5 PUSH1 0x80 DUP4 ADD MSTORE PUSH1 0xC0 PUSH1 0xA0 DUP4 ADD MSTORE PUSH2 0x2024 PUSH1 0xC0 DUP4 ADD DUP5 DUP7 PUSH2 0x4756 JUMP JUMPDEST PUSH1 0x1 PUSH1 0x1 PUSH1 0xA0 SHL SUB SWAP4 DUP5 AND DUP2 MSTORE PUSH1 0x20 DUP2 ADD SWAP3 SWAP1 SWAP3 MSTORE SWAP1 SWAP2 AND PUSH1 0x40 DUP3 ADD MSTORE PUSH1 0x60 ADD SWAP1 JUMP JUMPDEST PUSH1 0x1 PUSH1 0x1 PUSH1 0xA0 SHL SUB SWAP5 DUP6 AND DUP2 MSTORE PUSH1 0x20 DUP2 ADD SWAP4 SWAP1 SWAP4 MSTORE SWAP3 AND PUSH1 0x40 DUP3 ADD MSTORE PUSH2 0xFFFF SWAP1 SWAP2 AND PUSH1 0x60 DUP3 ADD MSTORE PUSH1 0x80 ADD SWAP1 JUMP JUMPDEST PUSH1 0x0 PUSH1 0x1 DUP1 PUSH1 0xA0 SHL SUB DUP7 AND DUP3 MSTORE DUP5 PUSH1 0x20 DUP4 ADD MSTORE PUSH1 0x60 PUSH1 0x40 DUP4 ADD MSTORE PUSH2 0xF2C PUSH1 0x60 DUP4 ADD DUP5 DUP7 PUSH2 0x4756 JUMP JUMPDEST PUSH1 0x1 PUSH1 0x1 PUSH1 0xA0 SHL SUB SWAP4 SWAP1 SWAP4 AND DUP4 MSTORE PUSH1 0x20 DUP4 ADD SWAP2 SWAP1 SWAP2 MSTORE PUSH1 0x40 DUP3 ADD MSTORE PUSH1 0x60 ADD SWAP1 JUMP JUMPDEST PUSH1 0x0 PUSH1 0x1 DUP1 PUSH1 0xA0 SHL SUB DUP8 AND DUP3 MSTORE DUP6 PUSH1 0x20 DUP4 ADD MSTORE DUP5 PUSH1 0x40 DUP4 ADD MSTORE PUSH1 0x80 PUSH1 0x60 DUP4 ADD MSTORE PUSH2 0xFA9 PUSH1 0x80 DUP4 ADD DUP5 DUP7 PUSH2 0x4756 JUMP JUMPDEST PUSH1 0x40 DUP2 ADD DUP2 DUP4 PUSH1 0x0 JUMPDEST PUSH1 0x2 DUP2 LT ISZERO PUSH2 0x48EB JUMPI DUP2 MLOAD DUP4 MSTORE PUSH1 0x20 SWAP3 DUP4 ADD SWAP3 SWAP1 SWAP2 ADD SWAP1 PUSH1 0x1 ADD PUSH2 0x48CC JUMP JUMPDEST POP POP POP SWAP3 SWAP2 POP POP JUMP JUMPDEST SWAP1 ISZERO ISZERO DUP2 MSTORE PUSH1 0x20 ADD SWAP1 JUMP JUMPDEST SWAP2 ISZERO ISZERO DUP3 MSTORE PUSH1 0x1 PUSH1 0x1 PUSH1 0x50 SHL SUB AND PUSH1 0x20 DUP3 ADD MSTORE PUSH1 0x40 ADD SWAP1 JUMP JUMPDEST PUSH1 0x0 PUSH1 0x20 DUP3 MSTORE DUP3 MLOAD DUP1 PUSH1 0x20 DUP5 ADD MSTORE PUSH2 0x4937 DUP2 PUSH1 0x40 DUP6 ADD PUSH1 0x20 DUP8 ADD PUSH2 0x4EC7 JUMP JUMPDEST PUSH1 0x1F ADD PUSH1 0x1F NOT AND SWAP2 SWAP1 SWAP2 ADD PUSH1 0x40 ADD SWAP3 SWAP2 POP POP JUMP JUMPDEST SWAP1 DUP2 MSTORE PUSH1 0x20 ADD SWAP1 JUMP JUMPDEST SWAP2 DUP3 MSTORE PUSH1 0x20 DUP3 ADD MSTORE PUSH1 0x40 ADD SWAP1 JUMP JUMPDEST SWAP4 DUP5 MSTORE PUSH1 0x20 DUP5 ADD SWAP3 SWAP1 SWAP3 MSTORE PUSH1 0x40 DUP4 ADD MSTORE PUSH1 0x60 DUP3 ADD MSTORE PUSH1 0x80 ADD SWAP1 JUMP JUMPDEST SWAP5 DUP6 MSTORE PUSH1 0x20 DUP6 ADD SWAP4 SWAP1 SWAP4 MSTORE PUSH1 0x40 DUP5 ADD SWAP2 SWAP1 SWAP2 MSTORE PUSH1 0x60 DUP4 ADD MSTORE PUSH1 0x80 DUP3 ADD MSTORE PUSH1 0xA0 ADD SWAP1 JUMP JUMPDEST PUSH1 0x20 DUP1 DUP3 MSTORE PUSH1 0x1A SWAP1 DUP3 ADD MSTORE PUSH32 0x496E76616C6964205365636F6E64617279204D61747572697479000000000000 PUSH1 0x40 DUP3 ADD MSTORE PUSH1 0x60 ADD SWAP1 JUMP JUMPDEST PUSH1 0x20 DUP1 DUP3 MSTORE PUSH1 0xD SWAP1 DUP3 ADD MSTORE PUSH13 0x109BDC9C9BDDC811985A5B1959 PUSH1 0x9A SHL PUSH1 0x40 DUP3 ADD MSTORE PUSH1 0x60 ADD SWAP1 JUMP JUMPDEST PUSH1 0x20 DUP1 DUP3 MSTORE PUSH1 0x11 SWAP1 DUP3 ADD MSTORE PUSH17 0x52656465656D20616C6C20746F6B656E73 PUSH1 0x78 SHL PUSH1 0x40 DUP3 ADD MSTORE PUSH1 0x60 ADD SWAP1 JUMP JUMPDEST PUSH1 0x20 DUP1 DUP3 MSTORE PUSH1 0x6 SWAP1 DUP3 ADD MSTORE PUSH6 0x14185D5CD959 PUSH1 0xD2 SHL PUSH1 0x40 DUP3 ADD MSTORE PUSH1 0x60 ADD SWAP1 JUMP JUMPDEST PUSH1 0x20 DUP1 DUP3 MSTORE PUSH1 0xC SWAP1 DUP3 ADD MSTORE PUSH12 0x155B985D5D1A1BDC9A5E9959 PUSH1 0xA2 SHL PUSH1 0x40 DUP3 ADD MSTORE PUSH1 0x60 ADD SWAP1 JUMP JUMPDEST PUSH1 0x20 DUP1 DUP3 MSTORE PUSH1 0x4 SWAP1 DUP3 ADD MSTORE PUSH4 0x135A5B9D PUSH1 0xE2 SHL PUSH1 0x40 DUP3 ADD MSTORE PUSH1 0x60 ADD SWAP1 JUMP JUMPDEST PUSH1 0x20 DUP1 DUP3 MSTORE PUSH1 0x6 SWAP1 DUP3 ADD MSTORE PUSH6 0x52656465656D PUSH1 0xD0 SHL PUSH1 0x40 DUP3 ADD MSTORE PUSH1 0x60 ADD SWAP1 JUMP JUMPDEST PUSH1 0x20 DUP1 DUP3 MSTORE PUSH1 0xD SWAP1 DUP3 ADD MSTORE PUSH13 0x556E7061696420426F72726F77 PUSH1 0x98 SHL PUSH1 0x40 DUP3 ADD MSTORE PUSH1 0x60 ADD SWAP1 JUMP JUMPDEST PUSH1 0x20 DUP1 DUP3 MSTORE PUSH1 0x16 SWAP1 DUP3 ADD MSTORE PUSH22 0x125B9CDD59999A58DA595B9D081C995C185E5B595B9D PUSH1 0x52 SHL PUSH1 0x40 DUP3 ADD MSTORE PUSH1 0x60 ADD SWAP1 JUMP JUMPDEST PUSH1 0x20 DUP1 DUP3 MSTORE PUSH1 0x15 SWAP1 DUP3 ADD MSTORE PUSH21 0x10D1CE881B9BC81B585C9AD95D1CC81B1A5CDD1959 PUSH1 0x5A SHL PUSH1 0x40 DUP3 ADD MSTORE PUSH1 0x60 ADD SWAP1 JUMP JUMPDEST PUSH1 0x20 DUP1 DUP3 MSTORE PUSH1 0xD SWAP1 DUP3 ADD MSTORE PUSH13 0x92DCECC2D8D2C840D2DCC8CAF PUSH1 0x9B SHL PUSH1 0x40 DUP3 ADD MSTORE PUSH1 0x60 ADD SWAP1 JUMP JUMPDEST PUSH1 0x20 DUP1 DUP3 MSTORE PUSH1 0x1D SWAP1 DUP3 ADD MSTORE PUSH32 0x496E73756666696369656E74205365636F6E6461727920426F72726F77000000 PUSH1 0x40 DUP3 ADD MSTORE PUSH1 0x60 ADD SWAP1 JUMP JUMPDEST PUSH1 0x20 DUP1 DUP3 MSTORE PUSH1 0xD SWAP1 DUP3 ADD MSTORE PUSH13 0x43616E6E6F7420536574746C65 PUSH1 0x98 SHL PUSH1 0x40 DUP3 ADD MSTORE PUSH1 0x60 ADD SWAP1 JUMP JUMPDEST PUSH1 0x20 DUP1 DUP3 MSTORE PUSH1 0xC SWAP1 DUP3 ADD MSTORE PUSH12 0x4D6178204361706163697479 PUSH1 0xA0 SHL PUSH1 0x40 DUP3 ADD MSTORE PUSH1 0x60 ADD SWAP1 JUMP JUMPDEST PUSH1 0x20 DUP1 DUP3 MSTORE PUSH1 0x16 SWAP1 DUP3 ADD MSTORE PUSH22 0x10D1CE881B585C9AD95D081A5B99195E08189BDD5B99 PUSH1 0x52 SHL PUSH1 0x40 DUP3 ADD MSTORE PUSH1 0x60 ADD SWAP1 JUMP JUMPDEST PUSH1 0x20 DUP1 DUP3 MSTORE PUSH1 0x10 SWAP1 DUP3 ADD MSTORE PUSH16 0x496E76616C69642043757272656E6379 PUSH1 0x80 SHL PUSH1 0x40 DUP3 ADD MSTORE PUSH1 0x60 ADD SWAP1 JUMP JUMPDEST PUSH1 0x20 DUP1 DUP3 MSTORE DUP2 DUP2 ADD MSTORE PUSH32 0x4F776E61626C653A2063616C6C6572206973206E6F7420746865206F776E6572 PUSH1 0x40 DUP3 ADD MSTORE PUSH1 0x60 ADD SWAP1 JUMP JUMPDEST PUSH1 0x20 DUP1 DUP3 MSTORE PUSH1 0x17 SWAP1 DUP3 ADD MSTORE PUSH32 0x496E73756666696369656E7420436F6C6C61746572616C000000000000000000 PUSH1 0x40 DUP3 ADD MSTORE PUSH1 0x60 ADD SWAP1 JUMP JUMPDEST PUSH1 0x20 DUP1 DUP3 MSTORE PUSH1 0xE SWAP1 DUP3 ADD MSTORE PUSH14 0x1499595B9D1C985B9D0818D85B1B PUSH1 0x92 SHL PUSH1 0x40 DUP3 ADD MSTORE PUSH1 0x60 ADD SWAP1 JUMP JUMPDEST PUSH1 0x20 DUP1 DUP3 MSTORE PUSH1 0x12 SWAP1 DUP3 ADD MSTORE PUSH18 0x496E73756666696369656E74205265706179 PUSH1 0x70 SHL PUSH1 0x40 DUP3 ADD MSTORE PUSH1 0x60 ADD SWAP1 JUMP JUMPDEST PUSH1 0x20 DUP1 DUP3 MSTORE PUSH1 0x13 SWAP1 DUP3 ADD MSTORE PUSH19 0x10D1CE881B9BC81B585C9AD95D08199BDD5B99 PUSH1 0x6A SHL PUSH1 0x40 DUP3 ADD MSTORE PUSH1 0x60 ADD SWAP1 JUMP JUMPDEST PUSH1 0x0 PUSH2 0x1E0 DUP3 ADD SWAP1 POP PUSH2 0x4D39 DUP3 DUP5 MLOAD PUSH2 0x471C JUMP JUMPDEST PUSH1 0x20 DUP4 ADD MLOAD PUSH2 0x4D4B PUSH1 0x20 DUP5 ADD DUP3 PUSH2 0x47A2 JUMP JUMPDEST POP PUSH1 0x40 DUP4 ADD MLOAD PUSH2 0x4D5E PUSH1 0x40 DUP5 ADD DUP3 PUSH2 0x47A2 JUMP JUMPDEST POP PUSH1 0x60 DUP4 ADD MLOAD PUSH1 0x60 DUP4 ADD MSTORE PUSH1 0x80 DUP4 ADD MLOAD PUSH1 0x80 DUP4 ADD MSTORE PUSH1 0xA0 DUP4 ADD MLOAD PUSH1 0xA0 DUP4 ADD MSTORE PUSH1 0xC0 DUP4 ADD MLOAD PUSH1 0xC0 DUP4 ADD MSTORE PUSH1 0xE0 DUP4 ADD MLOAD PUSH1 0xE0 DUP4 ADD MSTORE PUSH2 0x100 DUP1 DUP5 ADD MLOAD DUP2 DUP5 ADD MSTORE POP PUSH2 0x120 DUP1 DUP5 ADD MLOAD DUP2 DUP5 ADD MSTORE POP PUSH2 0x140 DUP1 DUP5 ADD MLOAD PUSH2 0x4DBC DUP3 DUP6 ADD DUP3 PUSH2 0x4729 JUMP JUMPDEST POP POP PUSH2 0x160 DUP4 ADD MLOAD PUSH2 0x4DD2 PUSH2 0x180 DUP5 ADD DUP3 PUSH2 0x4780 JUMP JUMPDEST POP SWAP3 SWAP2 POP POP JUMP JUMPDEST PUSH1 0x0 PUSH1 0xE0 DUP3 ADD SWAP1 POP DUP3 MLOAD DUP3 MSTORE PUSH1 0x20 DUP4 ADD MLOAD PUSH1 0x20 DUP4 ADD MSTORE PUSH1 0x40 DUP4 ADD MLOAD ISZERO ISZERO PUSH1 0x40 DUP4 ADD MSTORE PUSH1 0x60 DUP4 ADD MLOAD PUSH1 0x60 DUP4 ADD MSTORE PUSH1 0x80 DUP4 ADD MLOAD PUSH1 0x80 DUP4 ADD MSTORE PUSH1 0xA0 DUP4 ADD MLOAD PUSH1 0xA0 DUP4 ADD MSTORE PUSH1 0xC0 DUP4 ADD MLOAD PUSH1 0xC0 DUP4 ADD MSTORE SWAP3 SWAP2 POP POP JUMP JUMPDEST PUSH1 0x1 PUSH1 0x1 PUSH1 0x80 SHL SUB SWAP2 SWAP1 SWAP2 AND DUP2 MSTORE PUSH1 0x20 ADD SWAP1 JUMP JUMPDEST PUSH2 0xFFFF SWAP3 SWAP1 SWAP3 AND DUP3 MSTORE PUSH1 0x20 DUP3 ADD MSTORE PUSH1 0x40 ADD SWAP1 JUMP JUMPDEST PUSH1 0x1 PUSH1 0x1 PUSH1 0x50 SHL SUB SWAP2 SWAP1 SWAP2 AND DUP2 MSTORE PUSH1 0x20 ADD SWAP1 JUMP JUMPDEST DUP2 DUP2 PUSH1 0x0 DUP1 JUMPDEST PUSH1 0x2 DUP1 DUP3 LT PUSH2 0x4E7A JUMPI POP PUSH2 0x2E8E JUMP JUMPDEST DUP5 CALLDATALOAD PUSH2 0x4E85 DUP2 PUSH2 0x50E0 JUMP JUMPDEST DUP5 SLOAD PUSH2 0xFFFF PUSH1 0x8 DUP7 MUL DUP2 DUP2 SHL DUP1 NOT SWAP1 SWAP4 AND SWAP4 SWAP1 SWAP2 AND SWAP1 SHL AND OR DUP5 SSTORE PUSH1 0x20 SWAP5 SWAP1 SWAP5 ADD SWAP4 SWAP1 SWAP2 ADD SWAP1 PUSH1 0x1E DUP3 GT ISZERO PUSH2 0x4EBF JUMPI PUSH1 0x0 SWAP2 POP PUSH1 0x1 DUP4 ADD SWAP3 POP JUMPDEST PUSH1 0x1 ADD PUSH2 0x4E6B JUMP JUMPDEST PUSH1 0x0 JUMPDEST DUP4 DUP2 LT ISZERO PUSH2 0x4EE2 JUMPI DUP2 DUP2 ADD MLOAD DUP4 DUP3 ADD MSTORE PUSH1 0x20 ADD PUSH2 0x4ECA JUMP JUMPDEST DUP4 DUP2 GT ISZERO PUSH2 0x4750 JUMPI POP POP PUSH1 0x0 SWAP2 ADD MSTORE JUMP JUMPDEST PUSH1 0x0 DUP2 CALLDATALOAD PUSH2 0xE58 DUP2 PUSH2 0x50E0 JUMP JUMPDEST PUSH1 0x0 DUP2 CALLDATALOAD PUSH2 0xE58 DUP2 PUSH2 0x50F3 JUMP JUMPDEST PUSH1 0x0 DUP2 CALLDATALOAD PUSH2 0xE58 DUP2 PUSH2 0x5105 JUMP JUMPDEST DUP2 CALLDATALOAD PUSH2 0x4F25 DUP2 PUSH2 0x50E0 JUMP JUMPDEST PUSH2 0xFFFF DUP2 AND PUSH2 0xFFFF NOT DUP4 SLOAD AND OR DUP3 SSTORE POP PUSH2 0x4F4A PUSH2 0x4F44 PUSH1 0x20 DUP5 ADD PUSH2 0x4EF3 JUMP JUMPDEST DUP3 PUSH2 0x5082 JUMP JUMPDEST PUSH2 0x4F5F PUSH2 0x4F59 PUSH1 0x40 DUP5 ADD PUSH2 0x4F00 JUMP JUMPDEST DUP3 PUSH2 0x509E JUMP JUMPDEST PUSH2 0x4F74 PUSH2 0x4F6E PUSH1 0x60 DUP5 ADD PUSH2 0x4EF3 JUMP JUMPDEST DUP3 PUSH2 0x50C2 JUMP JUMPDEST PUSH2 0x4F89 PUSH2 0x4F83 PUSH1 0x80 DUP5 ADD PUSH2 0x4F0D JUMP JUMPDEST DUP3 PUSH2 0x4FEF JUMP JUMPDEST PUSH2 0x4F9E PUSH2 0x4F98 PUSH1 0xA0 DUP5 ADD PUSH2 0x4F0D JUMP JUMPDEST DUP3 PUSH2 0x500C JUMP JUMPDEST PUSH2 0x4FB3 PUSH2 0x4FAD PUSH1 0xC0 DUP5 ADD PUSH2 0x4F0D JUMP JUMPDEST DUP3 PUSH2 0x5029 JUMP JUMPDEST PUSH2 0x4FC8 PUSH2 0x4FC2 PUSH1 0xE0 DUP5 ADD PUSH2 0x4F0D JUMP JUMPDEST DUP3 PUSH2 0x5046 JUMP JUMPDEST PUSH2 0x4FDE PUSH2 0x4FD8 PUSH2 0x100 DUP5 ADD PUSH2 0x4EF3 JUMP JUMPDEST DUP3 PUSH2 0x5063 JUMP JUMPDEST PUSH2 0x3FE5 PUSH2 0x120 DUP4 ADD PUSH1 0x1 DUP4 ADD PUSH2 0x4E65 JUMP JUMPDEST DUP1 SLOAD PUSH1 0xFF PUSH1 0x50 SHL NOT AND PUSH1 0x50 SWAP3 SWAP1 SWAP3 SHL PUSH1 0xFF PUSH1 0x50 SHL AND SWAP2 SWAP1 SWAP2 OR SWAP1 SSTORE JUMP JUMPDEST DUP1 SLOAD PUSH1 0xFF PUSH1 0x58 SHL NOT AND PUSH1 0x58 SWAP3 SWAP1 SWAP3 SHL PUSH1 0xFF PUSH1 0x58 SHL AND SWAP2 SWAP1 SWAP2 OR SWAP1 SSTORE JUMP JUMPDEST DUP1 SLOAD PUSH1 0xFF PUSH1 0x60 SHL NOT AND PUSH1 0x60 SWAP3 SWAP1 SWAP3 SHL PUSH1 0xFF PUSH1 0x60 SHL AND SWAP2 SWAP1 SWAP2 OR SWAP1 SSTORE JUMP JUMPDEST DUP1 SLOAD PUSH1 0xFF PUSH1 0x68 SHL NOT AND PUSH1 0x68 SWAP3 SWAP1 SWAP3 SHL PUSH1 0xFF PUSH1 0x68 SHL AND SWAP2 SWAP1 SWAP2 OR SWAP1 SSTORE JUMP JUMPDEST DUP1 SLOAD PUSH2 0xFFFF PUSH1 0x70 SHL NOT AND PUSH1 0x70 SWAP3 SWAP1 SWAP3 SHL PUSH2 0xFFFF PUSH1 0x70 SHL AND SWAP2 SWAP1 SWAP2 OR SWAP1 SSTORE JUMP JUMPDEST DUP1 SLOAD PUSH4 0xFFFF0000 DUP4 PUSH1 0x10 SHL AND PUSH4 0xFFFF0000 NOT DUP3 AND OR DUP3 SSTORE POP POP POP JUMP JUMPDEST DUP1 SLOAD PUSH8 0xFFFFFFFF00000000 DUP4 PUSH1 0x20 SHL AND PUSH8 0xFFFFFFFF00000000 NOT DUP3 AND OR DUP3 SSTORE POP POP POP JUMP JUMPDEST DUP1 SLOAD PUSH2 0xFFFF PUSH1 0x40 SHL DUP4 PUSH1 0x40 SHL AND PUSH2 0xFFFF PUSH1 0x40 SHL NOT DUP3 AND OR DUP3 SSTORE POP POP POP JUMP JUMPDEST PUSH2 0xFFFF DUP2 AND DUP2 EQ PUSH2 0x50F0 JUMPI PUSH1 0x0 DUP1 REVERT JUMPDEST POP JUMP JUMPDEST PUSH4 0xFFFFFFFF DUP2 AND DUP2 EQ PUSH2 0x50F0 JUMPI PUSH1 0x0 DUP1 REVERT JUMPDEST PUSH1 0xFF DUP2 AND DUP2 EQ PUSH2 0x50F0 JUMPI PUSH1 0x0 DUP1 REVERT INVALID LOG2 PUSH5 0x6970667358 0x22 SLT KECCAK256 LOG3 0xCD DUP14 0x24 COINBASE SAR 0xC6 0x1F 0xCF 0xB2 0xD6 RETURN 0xE6 PUSH31 0xB65FC7BFC5A1FB701C87E548163AB8835F1A64736F6C634300070600330000 ",
  "sha1": "ae26284c351c3f341d39da392b66c0ed5b00a722",
  "source": "// SPDX-License-Identifier: GPL-3.0-only\npragma solidity =0.7.6;\npragma abicoder v2;\n\nimport {ActionGuards} from \"./ActionGuards.sol\";\nimport {IVaultAction} from \"../../../../interfaces/notional/IVaultController.sol\";\nimport \"../../internal/vaults/VaultConfiguration.sol\";\nimport \"../../internal/vaults/VaultAccount.sol\";\nimport {VaultStateLib, VaultState} from \"../../internal/vaults/VaultState.sol\";\n\nimport {LibStorage} from \"../../global/LibStorage.sol\";\nimport {SafeUint256} from \"../../math/SafeUint256.sol\";\n\ncontract VaultAction is ActionGuards, IVaultAction {\n    using VaultConfiguration for VaultConfig;\n    using VaultAccountLib for VaultAccount;\n    using VaultStateLib for VaultState;\n    using AssetRate for AssetRateParameters;\n    using TokenHandler for Token;\n    using SafeInt256 for int256;\n    using SafeUint256 for uint256;\n\n    /// @notice Updates or lists a deployed vault along with its configuration.\n    /// @param vaultAddress address of deployed vault\n    /// @param vaultConfig struct of vault configuration\n    /// @param maxPrimaryBorrowCapacity maximum borrow capacity\n    function updateVault(\n        address vaultAddress,\n        VaultConfigStorage calldata vaultConfig,\n        uint80 maxPrimaryBorrowCapacity\n    ) external override onlyOwner {\n        VaultConfiguration.setVaultConfig(vaultAddress, vaultConfig);\n        VaultConfiguration.setMaxBorrowCapacity(vaultAddress, vaultConfig.borrowCurrencyId, maxPrimaryBorrowCapacity);\n        bool enabled = (vaultConfig.flags & VaultConfiguration.ENABLED) == VaultConfiguration.ENABLED;\n        emit VaultUpdated(vaultAddress, enabled, maxPrimaryBorrowCapacity);\n    }\n\n    /// @notice Enables or disables a vault. If a vault is disabled, no one can enter\n    /// the vault but exits are still possible.\n    /// @param vaultAddress address of deployed vault\n    /// @param enable true if the vault should be enabled immediately\n    function setVaultPauseStatus(\n        address vaultAddress,\n        bool enable\n    ) external override onlyOwner {\n        VaultConfiguration.setVaultEnabledStatus(vaultAddress, enable);\n        emit VaultPauseStatus(vaultAddress, enable);\n    }\n\n    /// @notice Whitelists a secondary borrow currency for a vault, vaults can borrow up to the capacity\n    /// using the `borrowSecondaryCurrencyToVault` and `repaySecondaryCurrencyToVault` methods. Vaults that\n    /// use a secondary currency must ALWAYS repay the secondary debt during redemption and handle accounting\n    /// for the secondary currency themselves.\n    /// @param vaultAddress address of deployed vault\n    /// @param secondaryCurrencyId struct of vault configuration\n    /// @param maxBorrowCapacity maximum borrow capacity\n    function updateSecondaryBorrowCapacity(\n        address vaultAddress,\n        uint16 secondaryCurrencyId,\n        uint80 maxBorrowCapacity\n    ) external override onlyOwner {\n        VaultConfig memory vaultConfig = VaultConfiguration.getVaultConfigStateful(vaultAddress);\n        // Tokens with transfer fees create lots of issues with vault mechanics, we prevent them\n        // from being listed here.\n        Token memory assetToken = TokenHandler.getAssetToken(secondaryCurrencyId);\n        Token memory underlyingToken = TokenHandler.getUnderlyingToken(secondaryCurrencyId);\n        require(!assetToken.hasTransferFee && !underlyingToken.hasTransferFee); \n\n        // The secondary borrow currency must be white listed on the configuration before we can set a max\n        // capacity.\n        require(\n            secondaryCurrencyId == vaultConfig.secondaryBorrowCurrencies[0] ||\n            secondaryCurrencyId == vaultConfig.secondaryBorrowCurrencies[1],\n            \"Invalid Currency\"\n        );\n\n        VaultConfiguration.setMaxBorrowCapacity(vaultAddress, secondaryCurrencyId, maxBorrowCapacity);\n        emit VaultUpdateSecondaryBorrowCapacity(vaultAddress, secondaryCurrencyId, maxBorrowCapacity);\n    }\n\n    /// @notice Allows the owner to reduce the max borrow capacity on the vault and force\n    /// the redemption of strategy tokens to cash to reduce the overall risk of the vault.\n    /// This method is intended to be used in emergencies to mitigate insolvency risk. The effect\n    /// of this method will mean that the overall max borrow capacity is reduced, the total used\n    /// capacity will be unchanged (redeemStrategyTokensToCash does not do any lending to reduce\n    /// the outstanding fCash), and accounts will be locked out of entering the maturity which was\n    /// targeted by this method. Other maturities for that vault may still be entered depending on\n    /// whether or not the vault is above or below the max vault borrow capacity.\n    /// @param vaultAddress address of the vault\n    /// @param maxVaultBorrowCapacity the new max vault borrow capacity on the primary currency\n    /// @param maturity the maturity to redeem tokens in, will generally be either the current\n    /// maturity or the next maturity.\n    /// @param strategyTokensToRedeem how many tokens we would want to redeem in the maturity\n    /// @param vaultData vault data to pass to the vault\n    function reduceMaxBorrowCapacity(\n        address vaultAddress,\n        uint80 maxVaultBorrowCapacity,\n        uint256 maturity,\n        uint256 strategyTokensToRedeem,\n        bytes calldata vaultData\n    ) external override onlyOwner {\n        VaultConfig memory vaultConfig = VaultConfiguration.getVaultConfigStateful(vaultAddress);\n        VaultConfiguration.setMaxBorrowCapacity(vaultAddress, vaultConfig.borrowCurrencyId, maxVaultBorrowCapacity);\n\n        // Redeems strategy tokens to be held against fCash debt\n        _redeemStrategyTokensToCashInternal(vaultConfig, maturity, strategyTokensToRedeem, vaultData);\n\n        emit VaultUpdated(vaultAddress, vaultConfig.getFlag(VaultConfiguration.ENABLED), maxVaultBorrowCapacity);\n    }\n\n    /// @notice Strategy vaults can call this method to redeem strategy tokens to cash and hold them\n    /// as asset cash within the pool. This should typically be used during settlement but can also be\n    /// used for vault-wide deleveraging.\n    /// @param maturity the maturity of the vault where the redemption will take place\n    /// @param strategyTokensToRedeem the number of strategy tokens redeemed\n    /// @param vaultData arbitrary data to pass back to the vault\n    /// @return assetCashRequiredToSettle amount of asset cash still remaining to settle the debt\n    /// @return underlyingCashRequiredToSettle amount of underlying cash still remaining to settle the debt\n    function redeemStrategyTokensToCash(\n        uint256 maturity,\n        uint256 strategyTokensToRedeem,\n        bytes calldata vaultData\n    ) external override returns (int256 assetCashRequiredToSettle, int256 underlyingCashRequiredToSettle) {\n        // NOTE: this call must come from the vault itself\n        VaultConfig memory vaultConfig = VaultConfiguration.getVaultConfigStateful(msg.sender);\n        // NOTE: if the msg.sender is not the vault itself this will revert\n        require(vaultConfig.getFlag(VaultConfiguration.ENABLED), \"Paused\");\n        return _redeemStrategyTokensToCashInternal(vaultConfig, maturity, strategyTokensToRedeem, vaultData);\n    }\n\n    /// @notice Redeems strategy tokens to cash\n    function _redeemStrategyTokensToCashInternal(\n        VaultConfig memory vaultConfig,\n        uint256 maturity,\n        uint256 strategyTokensToRedeem,\n        bytes calldata vaultData\n    ) private nonReentrant returns (int256 assetCashRequiredToSettle, int256 underlyingCashRequiredToSettle) {\n        // If the vault allows further re-entrancy then set the status back to the default\n        if (vaultConfig.getFlag(VaultConfiguration.ALLOW_REENTRANCY)) {\n            reentrancyStatus = _NOT_ENTERED;\n        }\n\n        VaultState memory vaultState = VaultStateLib.getVaultState(vaultConfig.vault, maturity);\n        int256 assetCashReceived = vaultConfig.redeemWithoutDebtRepayment(\n            vaultConfig.vault, strategyTokensToRedeem, maturity, vaultData\n        );\n        require(assetCashReceived > 0);\n\n        vaultState.totalAssetCash = vaultState.totalAssetCash.add(uint256(assetCashReceived));\n        vaultState.totalStrategyTokens = vaultState.totalStrategyTokens.sub(strategyTokensToRedeem);\n        vaultState.setVaultState(vaultConfig.vault);\n\n        emit VaultRedeemStrategyToken(vaultConfig.vault, maturity, assetCashReceived, strategyTokensToRedeem);\n        return _getCashRequiredToSettle(vaultConfig, vaultState, maturity);\n    }\n\n    /// @notice Strategy vaults can call this method to deposit asset cash into strategy tokens.\n    /// @param maturity the maturity of the vault where the redemption will take place\n    /// @param assetCashInternal the number of asset cash tokens to deposit (external)\n    /// @param vaultData arbitrary data to pass back to the vault for deposit\n    function depositVaultCashToStrategyTokens(\n        uint256 maturity,\n        uint256 assetCashInternal,\n        bytes calldata vaultData\n    ) external override nonReentrant {\n        VaultConfig memory vaultConfig = VaultConfiguration.getVaultConfigStateful(msg.sender);\n        // NOTE: if the msg.sender is not the vault itself this will revert\n        require(vaultConfig.getFlag(VaultConfiguration.ENABLED), \"Paused\");\n\n        // If the vault allows further re-entrancy then set the status back to the default\n        if (vaultConfig.getFlag(VaultConfiguration.ALLOW_REENTRANCY)) {\n            reentrancyStatus = _NOT_ENTERED;\n        }\n\n        VaultState memory vaultState = VaultStateLib.getVaultState(msg.sender, maturity);\n        Token memory assetToken = TokenHandler.getAssetToken(vaultConfig.borrowCurrencyId);\n\n        uint256 strategyTokensMinted = vaultConfig.deposit(\n            vaultConfig.vault, assetCashInternal.toInt(), maturity, 0, vaultData\n        );\n\n        vaultState.totalAssetCash = vaultState.totalAssetCash.sub(assetCashInternal);\n        vaultState.totalStrategyTokens = vaultState.totalStrategyTokens.add(strategyTokensMinted);\n        vaultState.setVaultState(msg.sender);\n\n        // When exchanging asset cash for strategy tokens we will decrease the vault's collateral, ensure that\n        // we don't go under the configured minimum here.\n        (int256 collateralRatio, /* */) = vaultConfig.calculateCollateralRatio(\n            vaultState, msg.sender, vaultState.totalVaultShares, vaultState.totalfCash\n        );\n        require(vaultConfig.minCollateralRatio <= collateralRatio, \"Insufficient Collateral\");\n        emit VaultMintStrategyToken(msg.sender, maturity, assetCashInternal, strategyTokensMinted);\n    }\n\n    /// @notice Allows a vault to borrow a secondary currency if it is whitelisted to do so\n    /// @param account account that is borrowing the secondary currency\n    /// @param maturity the maturity to borrow at\n    /// @param fCashToBorrow fCash to borrow for the first and second secondary currencies\n    /// @param maxBorrowRate maximum borrow rate for the first and second secondary currencies\n    /// @param minRollLendRate max roll lend rate for the first and second borrow currencies\n    /// @return underlyingTokensTransferred amount of tokens transferred back to the vault\n    function borrowSecondaryCurrencyToVault(\n        address account,\n        uint256 maturity,\n        uint256[2] calldata fCashToBorrow,\n        uint32[2] calldata maxBorrowRate,\n        uint32[2] calldata minRollLendRate\n    ) external override returns (uint256[2] memory underlyingTokensTransferred) {\n        // This method call must come from the vault\n        VaultConfig memory vaultConfig = VaultConfiguration.getVaultConfigStateful(msg.sender);\n        // This also ensures that the caller is an actual vault\n        require(vaultConfig.getFlag(VaultConfiguration.ENABLED), \"Paused\");\n        uint16[2] memory currencies = vaultConfig.secondaryBorrowCurrencies;\n        require(currencies[0] != 0 && currencies[1] != 0);\n        \n        // If the borrower is rolling their primary debt forward, we need to check that here and roll\n        // their secondary debt forward in the same manner (simulate lending and then borrow more in\n        // a longer dated maturity to repay their borrowing).\n        int256[2] memory costToRepay;\n        if (vaultConfig.getFlag(VaultConfiguration.ALLOW_ROLL_POSITION) && account != msg.sender) {\n            // If in here, the vault allows rolling and we are working with an individual account\n            VaultAccountSecondaryDebtShareStorage storage s = \n                LibStorage.getVaultAccountSecondaryDebtShare()[account][vaultConfig.vault];\n            uint256 accountMaturity = s.maturity;\n\n            if (accountMaturity != 0) {\n                // Cannot roll to a shorter term maturity\n                require(accountMaturity < maturity);\n                costToRepay[0] = _repayDuringRoll(\n                    vaultConfig, account, currencies[0], accountMaturity, s.accountDebtSharesOne, minRollLendRate[0]\n                );\n                costToRepay[1] = _repayDuringRoll(\n                    vaultConfig, account, currencies[1], accountMaturity, s.accountDebtSharesTwo, minRollLendRate[1]\n                );\n            }\n        }\n\n        underlyingTokensTransferred[0] = _borrowAndTransfer(\n            vaultConfig, account, currencies[0], maturity, costToRepay[0], fCashToBorrow[0], maxBorrowRate[0]\n        );\n        underlyingTokensTransferred[1] = _borrowAndTransfer(\n            vaultConfig, account, currencies[1], maturity, costToRepay[1], fCashToBorrow[1], maxBorrowRate[1]\n        );\n    }\n\n    function _repayDuringRoll(\n        VaultConfig memory vaultConfig,\n        address account,\n        uint16 currencyId,\n        uint256 maturity,\n        uint256 accountDebtShares,\n        uint32 minLendRate\n    ) private returns (int256 costToRepay) {\n        if (currencyId != 0 && accountDebtShares != 0) {\n            (costToRepay, /* */) = vaultConfig.repaySecondaryBorrow(\n                account, currencyId, maturity, accountDebtShares, minLendRate\n            );\n        }\n    }\n\n    function _borrowAndTransfer(\n        VaultConfig memory vaultConfig,\n        address account,\n        uint16 currencyId,\n        uint256 maturity,\n        int256 costToRepay,\n        uint256 fCashToBorrow,\n        uint32 maxBorrowRate\n    ) private returns (uint256 underlyingTokensTransferred) {\n        if (currencyId == 0 || fCashToBorrow == 0) return 0;\n\n        (int256 netBorrowedCash, uint256 accountDebtShares) = vaultConfig.increaseSecondaryBorrow(\n            account, currencyId, maturity, fCashToBorrow, maxBorrowRate\n        );\n\n        netBorrowedCash = netBorrowedCash.add(costToRepay);\n        require(netBorrowedCash >= 0, \"Insufficient Secondary Borrow\");\n\n        underlyingTokensTransferred = VaultConfiguration.transferFromNotional(\n            vaultConfig.vault, currencyId, netBorrowedCash\n        );\n    }\n\n    /// @notice Allows a vault to repay a secondary currency that it has borrowed. Will be executed via a callback\n    /// which will request that the vault repay a specific amount of underlying tokens.\n    /// @param account account that is repaying the secondary currency\n    /// @param currencyId currency id of the secondary currency\n    /// @param maturity the maturity to lend at\n    /// @param debtSharesToRepay amount of debt shares to repay (used to calculate fCashToLend)\n    /// @param minLendRate minimum lend rate\n    /// @return returnData arbitrary return data to pass back to the vault\n    function repaySecondaryCurrencyFromVault(\n        address account,\n        uint16 currencyId,\n        uint256 maturity,\n        uint256 debtSharesToRepay,\n        uint32 minLendRate,\n        bytes calldata callbackData\n    ) external override returns (bytes memory returnData) {\n        // This method call must come from the vault\n        VaultConfig memory vaultConfig = VaultConfiguration.getVaultConfigStateful(msg.sender);\n        require(vaultConfig.getFlag(VaultConfiguration.ENABLED), \"Paused\");\n\n        (int256 netAssetCash, int256 fCashToLend) = vaultConfig.repaySecondaryBorrow(\n            account, currencyId, maturity, debtSharesToRepay, minLendRate\n        );\n\n        Token memory assetToken = TokenHandler.getAssetToken(currencyId);\n        // The vault MUST return exactly this amount of underlying tokens to the vault in the callback. We use\n        // a callback here because it is more precise and gas efficient than calculating netAssetCash twice\n        uint256 balanceTransferred;\n        {\n            // If the asset token is NonMintable then the underlying is the same object.\n            Token memory underlyingToken = assetToken.tokenType == TokenType.NonMintable ? \n                assetToken :\n                TokenHandler.getUnderlyingToken(currencyId);\n\n            uint256 underlyingExternalToRepay = underlyingToken.convertToUnderlyingExternalWithAdjustment(\n                vaultConfig.assetRate.convertToUnderlying(netAssetCash).neg()\n            ).toUint();\n\n            uint256 balanceBefore = underlyingToken.balanceOf(address(this));\n            // Tells the vault will redeem the strategy token amount and transfer asset tokens back to Notional\n            returnData = IStrategyVault(msg.sender).repaySecondaryBorrowCallback(\n                underlyingToken.tokenAddress, underlyingExternalToRepay, callbackData\n            );\n            uint256 balanceAfter = underlyingToken.balanceOf(address(this));\n            balanceTransferred = balanceAfter.sub(balanceBefore);\n            require(balanceTransferred >= underlyingExternalToRepay, \"Insufficient Repay\");\n        }\n\n        // NonMintable tokens do not require minting\n        if (assetToken.tokenType != TokenType.NonMintable) {\n            assetToken.mint(currencyId, balanceTransferred);\n        }\n    }\n\n    /// @notice Settles a vault and sets the final settlement rates\n    /// @param vault the vault to settle\n    /// @param maturity the maturity of the vault\n    function settleVault(address vault, uint256 maturity) external override nonReentrant {\n        VaultConfig memory vaultConfig = VaultConfiguration.getVaultConfigStateful(vault);\n        // Allow anyone to call this method unless it must be authorized by the vault. Generally speaking,\n        // as long as there is sufficient cash on the vault we should be able to settle\n        vaultConfig.authorizeCaller(msg.sender, VaultConfiguration.ONLY_VAULT_SETTLE);\n\n        VaultState memory vaultState = VaultStateLib.getVaultState(vault, maturity);\n        // Ensure that we are past maturity and the vault is able to settle\n        require(maturity <= block.timestamp && vaultState.isSettled == false, \"Cannot Settle\");\n\n        AssetRateParameters memory settlementRate = AssetRate.buildSettlementRateStateful(\n            vaultConfig.borrowCurrencyId,\n            maturity,\n            block.timestamp\n        );\n\n        // This is how much it costs in asset cash to settle the pooled portion of the vault\n        uint256 assetCashRequiredToSettle = settlementRate.convertFromUnderlying(\n            vaultState.totalfCash.neg()\n        ).toUint();\n\n        // Validate that all secondary currencies have been paid off.\n        mapping(uint256 => VaultSecondaryBorrowStorage) storage perCurrencyBalance =\n            LibStorage.getVaultSecondaryBorrow()[vault][maturity];\n        if (vaultConfig.secondaryBorrowCurrencies[0] != 0) {\n            require(perCurrencyBalance[vaultConfig.secondaryBorrowCurrencies[0]].totalfCashBorrowed == 0, \"Unpaid Borrow\");\n        }\n        if (vaultConfig.secondaryBorrowCurrencies[1] != 0) {\n            require(perCurrencyBalance[vaultConfig.secondaryBorrowCurrencies[1]].totalfCashBorrowed == 0, \"Unpaid Borrow\");\n        }\n\n        if (vaultState.totalAssetCash < assetCashRequiredToSettle) {\n            // Don't allow the pooled portion of the vault to have a cash shortfall unless all\n            // strategy tokens have been redeemed to asset cash.\n            require(vaultState.totalStrategyTokens == 0, \"Redeem all tokens\");\n\n            // After this point, we have a cash shortfall and will need to resolve it.\n            // Underflow checked above\n            int256 assetCashShortfall = (assetCashRequiredToSettle - vaultState.totalAssetCash).toInt();\n            uint256 assetCashRaised = VaultConfiguration.resolveShortfallWithReserve(\n                vaultConfig.vault, vaultConfig.borrowCurrencyId, assetCashShortfall\n            ).toUint();\n\n            vaultState.totalAssetCash = vaultState.totalAssetCash.add(assetCashRaised);\n            vaultState.setVaultState(vault);\n        }\n\n        // Clears the used borrow capacity regardless of the insolvency state of the vault. Since vaults are\n        // automatically paused in the case of any shortfall, no accounts will be able to enter regardless\n        // but we still want to maintain proper accounting of the borrow capacity.\n        VaultConfiguration.updateUsedBorrowCapacity(vault, vaultConfig.borrowCurrencyId, vaultState.totalfCash.neg());\n        vaultState.setSettledVaultState(vaultConfig, settlementRate, maturity, block.timestamp);\n    }\n\n    /** View Methods **/\n    function getVaultConfig(\n        address vault\n    ) external view override returns (VaultConfig memory vaultConfig) {\n        vaultConfig = VaultConfiguration.getVaultConfigView(vault);\n    }\n\n    function getVaultState(\n        address vault,\n        uint256 maturity\n    ) external view override returns (VaultState memory vaultState) {\n        vaultState = VaultStateLib.getVaultState(vault, maturity);\n    }\n\n    function getBorrowCapacity(\n        address vault,\n        uint16 currencyId\n    ) external view override returns (\n        uint256 totalUsedBorrowCapacity,\n        uint256 maxBorrowCapacity\n    ) {\n        VaultBorrowCapacityStorage storage cap = LibStorage.getVaultBorrowCapacity()[vault][currencyId];\n        totalUsedBorrowCapacity = cap.totalUsedBorrowCapacity;\n        maxBorrowCapacity = cap.maxBorrowCapacity;\n    }\n\n    function getSecondaryBorrow(address vault, uint16 currencyId, uint256 maturity) \n        external view override returns (uint256 totalfCashBorrowed, uint256 totalAccountDebtShares) {\n        VaultSecondaryBorrowStorage storage balance = \n            LibStorage.getVaultSecondaryBorrow()[vault][maturity][currencyId];\n        totalfCashBorrowed = balance.totalfCashBorrowed;\n        totalAccountDebtShares = balance.totalAccountDebtShares;\n    }\n\n    function getCashRequiredToSettle(\n        address vault,\n        uint256 maturity\n    ) external view override returns (\n        int256 assetCashRequiredToSettle,\n        int256 underlyingCashRequiredToSettle\n    ) {\n        VaultConfig memory vaultConfig = VaultConfiguration.getVaultConfigView(vault);\n        VaultState memory vaultState = VaultStateLib.getVaultState(vaultConfig.vault, maturity);\n        return _getCashRequiredToSettle(vaultConfig, vaultState, maturity);\n    }\n\n    function _getCashRequiredToSettle(\n        VaultConfig memory vaultConfig,\n        VaultState memory vaultState,\n        uint256 maturity\n    ) private view returns (\n        int256 assetCashRequiredToSettle,\n        int256 underlyingCashRequiredToSettle\n    ) {\n        // If this is prior to maturity, it will return the current asset rate. After maturity it will\n        // return the settlement rate.\n        AssetRateParameters memory ar = AssetRate.buildSettlementRateView(vaultConfig.borrowCurrencyId, maturity);\n        \n        // If this is a positive number, there is more cash remaining to be settled.\n        // If this is a negative number, there is more cash than required to repay the debt\n        int256 assetCashInternal = ar.convertFromUnderlying(vaultState.totalfCash)\n            .add(vaultState.totalAssetCash.toInt())\n            .neg();\n\n        Token memory assetToken = TokenHandler.getAssetToken(vaultConfig.borrowCurrencyId);\n        // If the asset token is NonMintable then the underlying is the same object.\n        assetCashRequiredToSettle = assetToken.convertToExternal(assetCashInternal);\n\n        if (assetToken.tokenType == TokenType.NonMintable) {\n            // In this case both values are the same, there is no underlying token\n            underlyingCashRequiredToSettle = assetCashRequiredToSettle;\n        } else {\n            Token memory underlyingToken = TokenHandler.getUnderlyingToken(vaultConfig.borrowCurrencyId);\n            underlyingCashRequiredToSettle = underlyingToken.convertToUnderlyingExternalWithAdjustment(\n                ar.convertToUnderlying(assetCashInternal)\n            );\n        }\n    }\n\n    function getLibInfo() external pure returns (address) {\n        return address(TradingAction);\n    }\n}",
  "sourcePath": "contracts/external/actions/VaultAction.sol",
  "type": "contract"
}