{
  "abi": [
    {
      "anonymous": false,
      "inputs": [
        {
          "indexed": true,
          "internalType": "uint16",
          "name": "currencyId",
          "type": "uint16"
        },
        {
          "indexed": true,
          "internalType": "address",
          "name": "vault",
          "type": "address"
        },
        {
          "indexed": false,
          "internalType": "int256",
          "name": "shortfall",
          "type": "int256"
        }
      ],
      "name": "ProtocolInsolvency",
      "type": "event"
    },
    {
      "anonymous": false,
      "inputs": [
        {
          "indexed": true,
          "internalType": "address",
          "name": "vault",
          "type": "address"
        },
        {
          "indexed": false,
          "internalType": "bool",
          "name": "enabled",
          "type": "bool"
        }
      ],
      "name": "VaultChange",
      "type": "event"
    },
    {
      "anonymous": false,
      "inputs": [
        {
          "indexed": true,
          "internalType": "address",
          "name": "vault",
          "type": "address"
        },
        {
          "indexed": false,
          "internalType": "bool",
          "name": "enabled",
          "type": "bool"
        }
      ],
      "name": "VaultPauseStatus",
      "type": "event"
    },
    {
      "anonymous": false,
      "inputs": [
        {
          "indexed": true,
          "internalType": "uint16",
          "name": "currencyId",
          "type": "uint16"
        },
        {
          "indexed": true,
          "internalType": "address",
          "name": "vault",
          "type": "address"
        },
        {
          "indexed": false,
          "internalType": "int256",
          "name": "shortfall",
          "type": "int256"
        }
      ],
      "name": "VaultShortfall",
      "type": "event"
    },
    {
      "inputs": [
        {
          "internalType": "uint16",
          "name": "currencyId",
          "type": "uint16"
        },
        {
          "internalType": "uint256",
          "name": "maturity",
          "type": "uint256"
        },
        {
          "internalType": "uint256",
          "name": "fCashToBorrow",
          "type": "uint256"
        },
        {
          "internalType": "uint32",
          "name": "maxBorrowRate",
          "type": "uint32"
        }
      ],
      "name": "borrowSecondaryCurrencyToVault",
      "outputs": [
        {
          "internalType": "uint256",
          "name": "underlyingTokensTransferred",
          "type": "uint256"
        }
      ],
      "stateMutability": "nonpayable",
      "type": "function"
    },
    {
      "inputs": [
        {
          "internalType": "uint256",
          "name": "maturity",
          "type": "uint256"
        },
        {
          "internalType": "uint256",
          "name": "assetCashToDepositExternal",
          "type": "uint256"
        },
        {
          "internalType": "bytes",
          "name": "vaultData",
          "type": "bytes"
        }
      ],
      "name": "depositVaultCashToStrategyTokens",
      "outputs": [],
      "stateMutability": "nonpayable",
      "type": "function"
    },
    {
      "inputs": [
        {
          "internalType": "address",
          "name": "vault",
          "type": "address"
        },
        {
          "internalType": "uint16",
          "name": "currencyId",
          "type": "uint16"
        }
      ],
      "name": "getBorrowCapacity",
      "outputs": [
        {
          "internalType": "uint256",
          "name": "totalUsedBorrowCapacity",
          "type": "uint256"
        },
        {
          "internalType": "uint256",
          "name": "maxBorrowCapacity",
          "type": "uint256"
        }
      ],
      "stateMutability": "view",
      "type": "function"
    },
    {
      "inputs": [
        {
          "internalType": "address",
          "name": "vault",
          "type": "address"
        },
        {
          "internalType": "uint256",
          "name": "maturity",
          "type": "uint256"
        }
      ],
      "name": "getCashRequiredToSettle",
      "outputs": [
        {
          "internalType": "int256",
          "name": "assetCashRequiredToSettle",
          "type": "int256"
        },
        {
          "internalType": "int256",
          "name": "underlyingCashRequiredToSettle",
          "type": "int256"
        }
      ],
      "stateMutability": "view",
      "type": "function"
    },
    {
      "inputs": [],
      "name": "getLibInfo",
      "outputs": [
        {
          "internalType": "address",
          "name": "",
          "type": "address"
        }
      ],
      "stateMutability": "pure",
      "type": "function"
    },
    {
      "inputs": [
        {
          "internalType": "address",
          "name": "vault",
          "type": "address"
        },
        {
          "internalType": "uint16",
          "name": "currencyId",
          "type": "uint16"
        },
        {
          "internalType": "uint256",
          "name": "maturity",
          "type": "uint256"
        }
      ],
      "name": "getSecondaryBorrow",
      "outputs": [
        {
          "internalType": "uint256",
          "name": "totalfCashBorrowed",
          "type": "uint256"
        }
      ],
      "stateMutability": "view",
      "type": "function"
    },
    {
      "inputs": [
        {
          "internalType": "address",
          "name": "vault",
          "type": "address"
        }
      ],
      "name": "getVaultConfig",
      "outputs": [
        {
          "components": [
            {
              "internalType": "address",
              "name": "vault",
              "type": "address"
            },
            {
              "internalType": "uint16",
              "name": "flags",
              "type": "uint16"
            },
            {
              "internalType": "uint16",
              "name": "borrowCurrencyId",
              "type": "uint16"
            },
            {
              "internalType": "int256",
              "name": "minAccountBorrowSize",
              "type": "int256"
            },
            {
              "internalType": "int256",
              "name": "feeRate",
              "type": "int256"
            },
            {
              "internalType": "int256",
              "name": "minCollateralRatio",
              "type": "int256"
            },
            {
              "internalType": "int256",
              "name": "liquidationRate",
              "type": "int256"
            },
            {
              "internalType": "int256",
              "name": "reserveFeeShare",
              "type": "int256"
            },
            {
              "internalType": "uint256",
              "name": "maxBorrowMarketIndex",
              "type": "uint256"
            },
            {
              "internalType": "int256",
              "name": "maxDeleverageCollateralRatio",
              "type": "int256"
            },
            {
              "internalType": "uint16[3]",
              "name": "secondaryBorrowCurrencies",
              "type": "uint16[3]"
            },
            {
              "components": [
                {
                  "internalType": "contract AssetRateAdapter",
                  "name": "rateOracle",
                  "type": "address"
                },
                {
                  "internalType": "int256",
                  "name": "rate",
                  "type": "int256"
                },
                {
                  "internalType": "int256",
                  "name": "underlyingDecimals",
                  "type": "int256"
                }
              ],
              "internalType": "struct AssetRateParameters",
              "name": "assetRate",
              "type": "tuple"
            }
          ],
          "internalType": "struct VaultConfig",
          "name": "vaultConfig",
          "type": "tuple"
        }
      ],
      "stateMutability": "view",
      "type": "function"
    },
    {
      "inputs": [
        {
          "internalType": "address",
          "name": "vault",
          "type": "address"
        },
        {
          "internalType": "uint256",
          "name": "maturity",
          "type": "uint256"
        }
      ],
      "name": "getVaultState",
      "outputs": [
        {
          "components": [
            {
              "internalType": "uint256",
              "name": "maturity",
              "type": "uint256"
            },
            {
              "internalType": "int256",
              "name": "totalfCash",
              "type": "int256"
            },
            {
              "internalType": "bool",
              "name": "isSettled",
              "type": "bool"
            },
            {
              "internalType": "uint256",
              "name": "totalVaultShares",
              "type": "uint256"
            },
            {
              "internalType": "uint256",
              "name": "totalAssetCash",
              "type": "uint256"
            },
            {
              "internalType": "uint256",
              "name": "totalStrategyTokens",
              "type": "uint256"
            },
            {
              "internalType": "int256",
              "name": "settlementStrategyTokenValue",
              "type": "int256"
            }
          ],
          "internalType": "struct VaultState",
          "name": "vaultState",
          "type": "tuple"
        }
      ],
      "stateMutability": "view",
      "type": "function"
    },
    {
      "inputs": [],
      "name": "owner",
      "outputs": [
        {
          "internalType": "address",
          "name": "",
          "type": "address"
        }
      ],
      "stateMutability": "view",
      "type": "function"
    },
    {
      "inputs": [],
      "name": "pauseGuardian",
      "outputs": [
        {
          "internalType": "address",
          "name": "",
          "type": "address"
        }
      ],
      "stateMutability": "view",
      "type": "function"
    },
    {
      "inputs": [],
      "name": "pauseRouter",
      "outputs": [
        {
          "internalType": "address",
          "name": "",
          "type": "address"
        }
      ],
      "stateMutability": "view",
      "type": "function"
    },
    {
      "inputs": [
        {
          "internalType": "uint256",
          "name": "maturity",
          "type": "uint256"
        },
        {
          "internalType": "uint256",
          "name": "strategyTokensToRedeem",
          "type": "uint256"
        },
        {
          "internalType": "bytes",
          "name": "vaultData",
          "type": "bytes"
        }
      ],
      "name": "redeemStrategyTokensToCash",
      "outputs": [
        {
          "internalType": "int256",
          "name": "assetCashRequiredToSettle",
          "type": "int256"
        },
        {
          "internalType": "int256",
          "name": "underlyingCashRequiredToSettle",
          "type": "int256"
        }
      ],
      "stateMutability": "nonpayable",
      "type": "function"
    },
    {
      "inputs": [
        {
          "internalType": "address",
          "name": "vaultAddress",
          "type": "address"
        },
        {
          "internalType": "uint80",
          "name": "maxVaultBorrowCapacity",
          "type": "uint80"
        },
        {
          "internalType": "uint256",
          "name": "maturity",
          "type": "uint256"
        },
        {
          "internalType": "uint256",
          "name": "strategyTokensToRedeem",
          "type": "uint256"
        },
        {
          "internalType": "bytes",
          "name": "vaultData",
          "type": "bytes"
        }
      ],
      "name": "reduceMaxBorrowCapacity",
      "outputs": [],
      "stateMutability": "nonpayable",
      "type": "function"
    },
    {
      "inputs": [
        {
          "internalType": "uint16",
          "name": "currencyId",
          "type": "uint16"
        },
        {
          "internalType": "uint256",
          "name": "maturity",
          "type": "uint256"
        },
        {
          "internalType": "uint256",
          "name": "fCashToLend",
          "type": "uint256"
        },
        {
          "internalType": "uint32",
          "name": "minLendRate",
          "type": "uint32"
        },
        {
          "internalType": "bytes",
          "name": "callbackData",
          "type": "bytes"
        }
      ],
      "name": "repaySecondaryCurrencyFromVault",
      "outputs": [
        {
          "internalType": "bytes",
          "name": "returnData",
          "type": "bytes"
        }
      ],
      "stateMutability": "nonpayable",
      "type": "function"
    },
    {
      "inputs": [
        {
          "internalType": "address",
          "name": "vaultAddress",
          "type": "address"
        },
        {
          "internalType": "bool",
          "name": "enable",
          "type": "bool"
        }
      ],
      "name": "setVaultPauseStatus",
      "outputs": [],
      "stateMutability": "nonpayable",
      "type": "function"
    },
    {
      "inputs": [
        {
          "internalType": "address",
          "name": "vault",
          "type": "address"
        },
        {
          "internalType": "uint256",
          "name": "maturity",
          "type": "uint256"
        }
      ],
      "name": "settleVault",
      "outputs": [],
      "stateMutability": "nonpayable",
      "type": "function"
    },
    {
      "inputs": [
        {
          "internalType": "address",
          "name": "vaultAddress",
          "type": "address"
        },
        {
          "internalType": "uint16",
          "name": "secondaryCurrencyId",
          "type": "uint16"
        },
        {
          "internalType": "uint80",
          "name": "maxBorrowCapacity",
          "type": "uint80"
        }
      ],
      "name": "updateSecondaryBorrowCapacity",
      "outputs": [],
      "stateMutability": "nonpayable",
      "type": "function"
    },
    {
      "inputs": [
        {
          "internalType": "address",
          "name": "vaultAddress",
          "type": "address"
        },
        {
          "components": [
            {
              "internalType": "uint16",
              "name": "flags",
              "type": "uint16"
            },
            {
              "internalType": "uint16",
              "name": "borrowCurrencyId",
              "type": "uint16"
            },
            {
              "internalType": "uint32",
              "name": "minAccountBorrowSize",
              "type": "uint32"
            },
            {
              "internalType": "uint16",
              "name": "minCollateralRatioBPS",
              "type": "uint16"
            },
            {
              "internalType": "uint8",
              "name": "feeRate5BPS",
              "type": "uint8"
            },
            {
              "internalType": "uint8",
              "name": "liquidationRate",
              "type": "uint8"
            },
            {
              "internalType": "uint8",
              "name": "reserveFeeShare",
              "type": "uint8"
            },
            {
              "internalType": "uint8",
              "name": "maxBorrowMarketIndex",
              "type": "uint8"
            },
            {
              "internalType": "uint16",
              "name": "maxDeleverageCollateralRatioBPS",
              "type": "uint16"
            },
            {
              "internalType": "uint16[3]",
              "name": "secondaryBorrowCurrencies",
              "type": "uint16[3]"
            }
          ],
          "internalType": "struct VaultConfigStorage",
          "name": "vaultConfig",
          "type": "tuple"
        },
        {
          "internalType": "uint80",
          "name": "maxPrimaryBorrowCapacity",
          "type": "uint80"
        }
      ],
      "name": "updateVault",
      "outputs": [],
      "stateMutability": "nonpayable",
      "type": "function"
    }
  ],
  "bytecode": "608060405234801561001057600080fd5b506147a0806100206000396000f3fe608060405234801561001057600080fd5b50600436106101165760003560e01c806383e50fb7116100a2578063cce9787611610071578063cce9787614610226578063d04c16ac14610246578063d6ddeb9a14610259578063de1eb9a31461026c578063ee01436b1461028c57610116565b806383e50fb7146101e35780638da5cb5b14610203578063a14db57c1461020b578063c4c96dae1461021e57610116565b806351479e39116100e957806351479e391461018157806356f428c41461019457806367515776146101a75780636c346c09146101c857806382463367146101db57610116565b806324a3d6221461011b578063291afdf314610139578063295e6b7f1461014e5780633157228114610161575b600080fd5b61012361029f565b6040516101309190613f1d565b60405180910390f35b61014c610147366004613be2565b6102ae565b005b61014c61015c366004613c1d565b6103a8565b61017461016f366004613c1d565b61063c565b604051610130919061442d565b61014c61018f366004613b29565b610655565b61014c6101a2366004613aef565b61070c565b6101ba6101b5366004613b79565b61078d565b604051610130929190614055565b6101ba6101d6366004613c1d565b6107dd565b610123610818565b6101f66101f1366004613d7d565b610827565b604051610130919061404c565b610123610884565b6101f6610219366004613ba4565b61089b565b6101236108e7565b610239610234366004613dc6565b6108ff565b6040516101309190614019565b61014c610254366004613e22565b610ae4565b61014c610267366004613c46565b610c3d565b61027f61027a366004613ad5565b610ca3565b6040516101309190614379565b6101ba61029a366004613e22565b610cba565b6002546001600160a01b031681565b60005464010000000090046001600160a01b031633146102e95760405162461bcd60e51b81526004016102e09061428c565b60405180910390fd5b60006102f484610d0d565b905060006103058461ffff16610d3c565b905060006103168561ffff16610d54565b9050816020015115801561032c57508060200151155b61033557600080fd5b6101408301515161ffff8681169116148061035f57506101408301516020015161ffff8681169116145b8061037957506101408301516040015161ffff8681169116145b6103955760405162461bcd60e51b81526004016102e090614262565b6103a0868686610d67565b505050505050565b6002600a5414156103cb5760405162461bcd60e51b81526004016102e0906142f8565b6002600a5560006103db83610d0d565b90506103e981336040610dbb565b60006103f58484610e25565b905042831115801561040957506040810151155b6104255760405162461bcd60e51b81526004016102e0906141e5565b600061043a836040015161ffff168542610ec0565b9050600061045d6104586104518560200151611030565b849061103e565b61107d565b90506000610469611090565b6001600160a01b038816600090815260209182526040808220898352909252206101408601515190915061ffff16156104dc576101408501515161ffff166000908152602082905260409020546001600160501b0316156104dc5760405162461bcd60e51b81526004016102e090614112565b6101408501516020015161ffff16156105335761014085015160209081015161ffff1660009081529082905260409020546001600160501b0316156105335760405162461bcd60e51b81526004016102e090614112565b6101408501516040015161ffff16156105885761014085015160409081015161ffff166000908152602083905220546001600160501b0316156105885760405162461bcd60e51b81526004016102e090614112565b81846080015110156106055760a0840151156105b65760405162461bcd60e51b81526004016102e090614063565b60006105c78560800151840361109d565b905060006105e161045888600001518960400151856110b3565b60808701519091506105f390826111d8565b6080870152610602868a6111ea565b50505b61062087866040015161061b8760200151611030565b611300565b5061062e84868589426113bf565b50506001600a555050505050565b610644613916565b61064e8383610e25565b9392505050565b60005464010000000090046001600160a01b031633146106875760405162461bcd60e51b81526004016102e09061428c565b6106918383611525565b6106ab836106a56040850160208601613d61565b83610d67565b60006001806106bd6020860186613d61565b1661ffff16149050836001600160a01b03167fbe3a36b9889e71d651c5e46a9d6a110c243e04a771bd479378feec68718985aa826040516106fe919061400e565b60405180910390a250505050565b60005464010000000090046001600160a01b0316331461073e5760405162461bcd60e51b81526004016102e09061428c565b61074882826116eb565b816001600160a01b03167f7c51c6aa77346c54cb051d9e792f9b7bde5c28a9b57e6fb2d2dd727b38438ca982604051610781919061400e565b60405180910390a25050565b600080600061079a61174b565b6001600160a01b0390951660009081526020958652604080822061ffff9096168252949095525050509020546001600160501b03600160501b8204811692911690565b60008060006107eb85611758565b905060006107fd826000015186610e25565b905061080a82828761177c565b9350935050505b9250929050565b6001546001600160a01b031681565b6000806000610848878761084261083d8961109d565b611030565b87611835565b915091506000821361086c5760405162461bcd60e51b81526004016102e0906141bf565b80516108799088846118dd565b979650505050505050565b60005464010000000090046001600160a01b031681565b6000806108a6611090565b6001600160a01b0390951660009081526020958652604080822094825293865283812061ffff909516815293909452509020546001600160501b0316919050565b73__TradingAction_________________________90565b606060008061090d8761109d565b9050610917613955565b428911156109445761092761397f565b6109338b8b858b611835565b610160015190945091506109809050565b6109538a61ffff168a42610ec0565b905061096261083d828461103e565b9250610970338b8b85611985565b61097d8a61ffff16611a08565b90505b600061098f8b61ffff16610d3c565b90506000806004836060015160058111156109a657fe5b146109bd576109b88d61ffff16610d54565b6109bf565b825b905060006109dd6104586109d661083d888b611a54565b8490611a7f565b905060006109eb8330611abb565b604051620e8d8d60ea1b81529091503390633a36340090610a149085908f908f906004016144a5565b600060405180830381600087803b158015610a2e57600080fd5b505af1158015610a42573d6000803e3d6000fd5b505050506040513d6000823e601f3d908101601f19168201604052610a6a9190810190613cbc565b98506000610a788430611abb565b9050610a848183611b65565b945082851015610aa65760405162461bcd60e51b81526004016102e090614320565b5060049250610ab3915050565b82606001516005811115610ac357fe5b14610ad557610ad3828d83611b7a565b505b50505050509695505050505050565b6002600a541415610b075760405162461bcd60e51b81526004016102e0906142f8565b6002600a556000610b1733610d0d565b9050610b24816080611c66565b15610b2f576001600a555b610b3a816001611c66565b610b565760405162461bcd60e51b81526004016102e09061408e565b6000610b623387610e25565b90506000610b77836040015161ffff16610d3c565b90506000610b8e610b878861109d565b8390611c7b565b8451909150600090610ba6908690848c858c8c611cab565b9050610bbf610bb48361107d565b608086015190611b65565b608085015260a0840151610bd390826111d8565b60a0850152610be284336111ea565b6000610c058533876060015188602001518a611d6190949392919063ffffffff16565b509050808660a001511315610c2c5760405162461bcd60e51b81526004016102e0906142c1565b50506001600a555050505050505050565b60005464010000000090046001600160a01b03163314610c6f5760405162461bcd60e51b81526004016102e09061428c565b6000610c7a87610d0d565b9050610c8b87826040015188610d67565b610c988186868686611dc9565b505050505050505050565b610cab61397f565b610cb482611758565b92915050565b6000806000610cc833610d0d565b9050610cd5816001611c66565b610cf15760405162461bcd60e51b81526004016102e09061408e565b610cfe8188888888611dc9565b92509250505b94509492505050565b610d1561397f565b610d1e82611e95565b9050610d31816040015161ffff16611a08565b610160820152919050565b610d446139fc565b610cb4826000612014565b919050565b610d5c6139fc565b610cb4826001612014565b6000610d7161174b565b6001600160a01b0390941660009081526020948552604080822061ffff90951682529390945250912080546001600160501b039092166001600160501b0319909216919091179055565b610dc58382611c66565b15610df85782516001600160a01b03163314610df35760405162461bcd60e51b81526004016102e0906140ae565b610e20565b6001600160a01b0382163314610e205760405162461bcd60e51b81526004016102e0906140ae565b505050565b610e2d613916565b6000610e376120c2565b6001600160a01b03909416600090815260209485526040808220858352865280822094845284546001600160501b038082169093039685019690965260ff600160f01b870416151590840152600160501b8086048216608085015260019094015480821660a0850152600160a01b909504166060830152509104600990810b900b60c082015290565b610ec8613955565b600080610ed586866120cf565b915091508160001415611005576000610eed87612118565b91945090925090506001600160a01b03811615611003576000610f0e6121db565b9050856000108015610f205750858711155b8015610f31575064ffffffffff8611155b610f3a57600080fd5b836000128015610f5157506001600160801b038413155b610f5a57600080fd5b6000888152602082815260408083208a845290915290819020805464ffffffffff191664ffffffffff89161774ffffffffffffffffffffffffffffffff00000000001916650100000000006001600160801b038816021760ff60a81b1916600160a81b60ff871602178155905188908a907f0fdfa6885701e2f1f42e4187b9231cf81c1fe23671ef64fa46f34ddb56c1dc1890610ff890899061447d565b60405180910390a350505b505b6040805160608101825260008152602081019390935260ff909116600a0a9082015290509392505050565b6000610cb4600019836121e8565b600080611075846020015161106f86604001516110696402540be400886121e890919063ffffffff16565b906121e8565b90612236565b949350505050565b60008082121561108c57600080fd5b5090565b600080610cb46018612267565b60006001600160ff1b0382111561108c57600080fd5b60006110c08460006116eb565b836001600160a01b03167f7c51c6aa77346c54cb051d9e792f9b7bde5c28a9b57e6fb2d2dd727b38438ca960006040516110fa919061400e565b60405180910390a2836001600160a01b03168361ffff167f49f3652d4bd58df659a52593175facf1a718295f3f4bea635367f06d424a895884604051611140919061404c565b60405180910390a3600061115960008561ffff16612280565b50505090508083136111795761117184848303612329565b8291506111d0565b611184846000612329565b846001600160a01b03168461ffff167f9982ba522274fa0cc3ee3b56025595a76649b07f4b8a39f0bd8e546ca0f9646f8386036040516111c4919061404c565b60405180910390a38091505b509392505050565b60008282018381101561064e57600080fd5b60006111f46120c2565b6001600160a01b038316600090815260208281526040808320875184529091529081902090850151919250901561122a57600080fd5b61124261123d6104588660200151611030565b612380565b81546001600160501b0319166001600160501b0391909116178155608084015161126b90612380565b81546001600160501b0391909116600160501b0269ffffffffffffffffffff60501b1990911617815560a08401516112a290612380565b6001820180546001600160501b0319166001600160501b039290921691909117905560608401516112d290612380565b81546001600160501b0391909116600160a01b0269ffffffffffffffffffff60a01b19909116179055505050565b60008061130b61174b565b6001600160a01b03861660009081526020918252604080822061ffff8816835290925220805490915061134e90600160501b90046001600160501b031684612396565b915060008312156113835780546001600160501b03168213156113835760405162461bcd60e51b81526004016102e09061420c565b61138f61123d8361107d565b81546001600160501b0391909116600160501b0269ffffffffffffffffffff60501b199091161790559392505050565b60006113c96120c2565b85516001600160a01b03166000908152602082815260408083208784529091529020805491925090600160f01b900460ff161561140557600080fd5b8284111561141257600080fd5b6040860151865160009161142c91806305f5e100896123ac565b825460ff60f01b1916600160f01b178355905061144881612466565b82600101600a6101000a8154816001600160501b03021916908360090b6001600160501b03160217905550600061147d612496565b88516001600160a01b031660009081526020918252604080822089835283529020600185015481546001600160501b0319166001600160501b03909116178155908a01519091506114ef906114ea906114d7908a9061103e565b6114e48c6080015161109d565b906124a3565b612466565b815460099190910b6001600160501b0316600160501b0269ffffffffffffffffffff60501b199091161790555050505050505050565b600061152f6124b9565b905061154160c0830160a08401613e73565b60ff166064131561155157600080fd5b606461156360e0840160c08501613e73565b60ff16131561157157600080fd5b611582610100830160e08401613e73565b60ff1661158e57600080fd5b6115a061012083016101008401613d61565b61ffff166115b46080840160608501613d61565b61ffff16106115c257600080fd5b6115d461014083016101208401613d61565b61ffff166115e86040840160208501613d61565b61ffff1614156115f757600080fd5b61160961016083016101408401613d61565b61ffff1661161d6040840160208501613d61565b61ffff16141561162c57600080fd5b61163e61018083016101608401613d61565b61ffff166116526040840160208501613d61565b61ffff16141561166157600080fd5b600061167f6116766040850160208601613d61565b61ffff16610d3c565b9050600061169f6116966040860160208701613d61565b61ffff16610d54565b905081602001511580156116b557508060200151155b6116be57600080fd5b6001600160a01b038516600090815260208490526040902084906116e28282614570565b50505050505050565b60006116f56124b9565b6001600160a01b038416600090815260208290526040902080549192509061ffff16831561173457815461ffff19166001821761ffff16178255611744565b815461ffff191661fffe82161782555b5050505050565b600080610cb46017612267565b61176061397f565b61176982611e95565b9050610d31816040015161ffff166124c6565b6000806000611793866040015161ffff16856124dc565b905060006117ba61083d6117aa886080015161109d565b60208901516114e490869061103e565b905060006117cf886040015161ffff16610d3c565b90506117db8183612539565b94506004816060015160058111156117ef57fe5b14156117fd5784935061182a565b6000611810896040015161ffff16610d54565b905061182661181f8585611a54565b8290611a7f565b9450505b505050935093915050565b600061183f61397f565b61184833610d0d565b9050611855816001611c66565b6118715760405162461bcd60e51b81526004016102e09061408e565b806040015161ffff168661ffff16141561188a57600080fd5b61189633878787611985565b6118a98686868685610100015142612571565b91506000841380156118b9575081155b15610d04576101608101516118d29061083d908661103e565b915094509492505050565b6000816118ec5750600061064e565b600082136118f957600080fd5b60006119088461ffff16610d3c565b905060006119168285612539565b905060048260600151600581111561192a57fe5b14156119585761195161045861083d888861ffff1661194886611030565b879291906126b3565b925061197c565b61197961045861083d8761ffff16896119708661107d565b8792919061275b565b92505b50509392505050565b611990848483611300565b50600061199b611090565b6001600160a01b038616600090815260209182526040808220868352835280822061ffff881683529092522080549091506119e79061123d90610458906001600160501b031685612396565b81546001600160501b0319166001600160501b039190911617905550505050565b611a10613955565b6000806000611a1e85612118565b604080516060810182526001600160a01b039093168352602083019390935260ff16600a0a918101919091529350505050919050565b600080611075846040015161106f6402540be40061106f8789602001516121e890919063ffffffff16565b60006305f5e10083604001511215611aa757611aa060016114e48585612539565b9050610cb4565b61064e83611ab68460016124a3565b612539565b6000600383606001516005811115611acf57fe5b1415611ae657506001600160a01b03811631610cb4565b82516040516370a0823160e01b81526001600160a01b03909116906370a0823190611b15908590600401613f1d565b60206040518083038186803b158015611b2d57600080fd5b505afa158015611b41573d6000803e3d6000fd5b505050506040513d601f19601f82011682018060405250810190611aa09190613d49565b600082821115611b7457600080fd5b50900390565b600080600585606001516005811115611b8f57fe5b14611ba1576370a0823160e01b611baa565b630ed1279f60e11b5b90506000611bbd866000015130846127fb565b9050600586606001516005811115611bd157fe5b1415611bf8576000611be68661ffff16610d54565b9050611bf2818661290d565b50611c41565b600186606001516005811115611c0a57fe5b1415611c1f57611c1a8685612978565b611c41565b600286606001516005811115611c3157fe5b141561011657611c1a8685612a1a565b6000611c52876000015130856127fb565b9050610879611c618284612a6d565b61109d565b60209190910151811661ffff90811691161490565b60006305f5e10083604001511415611c94575080610cb4565b604083015161064e9061106f846305f5e1006121e8565b600080611cc189600001518a60400151896118dd565b89519091506001600160a01b031663dc6679c589611cdf84896111d8565b8988886040518663ffffffff1660e01b8152600401611d02959493929190613fe0565b602060405180830381600087803b158015611d1c57600080fd5b505af1158015611d30573d6000803e3d6000fd5b505050506040513d601f19601f82011682018060405250810190611d549190613d49565b9998505050505050505050565b600080611d7086888787612ac4565b90506000611d8c611d8085611030565b6101608a01519061103e565b90506000611d9a8383612396565b905081611db0576001600160ff1b039350611dbd565b611dba8183612b29565b93505b50509550959350505050565b6000806002600a541415611def5760405162461bcd60e51b81526004016102e0906142f8565b6002600a55611dff876080611c66565b15611e0a576001600a555b6000611e1a886000015188610e25565b8851909150600090611e31908a90898b8a8a612b42565b905060008113611e4057600080fd5b6080820151611e4f90826111d8565b608083015260a0820151611e639088611b65565b60a08301528851611e759083906111ea565b611e8089838a61177c565b6001600a55909a909950975050505050505050565b611e9d61397f565b6000611ea76124b9565b6001600160a01b03841660008181526020838152604091829020928652825461ffff808216928801929092526201000081049091169186019190915291925090611f089063ffffffff6401000000009091048116906305f5e100906121e816565b60608401528054611f2690600160501b900460ff166207a120612b89565b60808401528054611f4a9068010000000000000000900461ffff16620186a0612b89565b60a08401528054611f6990600160701b900461ffff16620186a0612b89565b610120840152805460649060ff600160581b90910416633b9aca00020560c08401528054600160601b810460ff90811660e0860152600160681b90910416610100840152604080516060810191829052906001830190600390826000855b82829054906101000a900461ffff1661ffff1681526020019060020190602082600101049283019260010382029150808411611fc757905050505050508361014001819052505050919050565b61201c6139fc565b6000612026612bb0565b6000858152602082815260408083208715158452825291829020825160a08101845281546001600160a01b038116825260ff600160a01b82048116151594830194909452600160b01b81048416600a0a9482019490945293945092916060830191600160a81b90910416600581111561209b57fe5b81529154600160b81b900468ffffffffffffffffff16602090920191909152949350505050565b600080610cb46015612267565b60008060006120dc6121db565b6000958652602090815260408087209587529490525050509020546501000000000081046001600160801b031691600160a81b90910460ff1690565b600080600080600061212986612bbd565b909250905060006001600160a01b03831661214e5750600090506402540be4006121d0565b826001600160a01b0316631ee108336040518163ffffffff1660e01b8152600401602060405180830381600087803b15801561218957600080fd5b505af115801561219d573d6000803e3d6000fd5b505050506040513d601f19601f820116820180604052508101906121c19190613d49565b9050600081136121d057600080fd5b969195509350915050565b600080610cb46008612267565b8181026000198314156122185781158061220a57508282828161220757fe5b05145b61221357600080fd5b610cb4565b82158061222d57508183828161222a57fe5b05145b610cb457600080fd5b60008160001914801561224c5750600160ff1b83145b1561225657600080fd5b81838161225f57fe5b059392505050565b6000620f424082601981111561227957fe5b0192915050565b6000806000806000612290612bf4565b6001600160a01b0388166000908152602082815260408083208a8452909152902080546001600160501b0381169650600160501b900463ffffffff16945090915083156122f95780546122f290600160701b900466ffffffffffffff16612c01565b925061230e565b8054600160701b900466ffffffffffffff1692505b54600160a81b9004600a90810b900b97939650919450925050565b600081121561233757600080fd5b61234c60008361ffff16836000806000612c0f565b8161ffff167fd3625f7b5926828151efe19f7ae655488287357d99ebe67e5fb20522ca739c0b82604051610781919061404c565b60006001600160501b0382111561108c57600080fd5b80820382811315600083121514610cb457600080fd5b6000806123bc8761ffff16610d54565b90508060400151600014156123db576123d88761ffff16610d3c565b90505b60405163e937711160e01b8152610879906001600160a01b0388169063e93771119061240f90899089908990600401613fbf565b60206040518083038186803b15801561242757600080fd5b505afa15801561243b573d6000803e3d6000fd5b505050506040513d601f19601f8201168201806040525081019061245f9190613d49565b8290611c7b565b6000697fffffffffffffffffff19821280159061248d5750697fffffffffffffffffff8213155b61108c57600080fd5b600080610cb46019612267565b81810182811215600083121514610cb457600080fd5b600080610cb46014612267565b6124ce613955565b6000806000611a1e85612d56565b6124e4613955565b6000806124f185856120cf565b91509150816000141561250f5761250785612d56565b919350909150505b6040805160608101825260008152602081019390935260ff909116600a0a90820152905092915050565b60006305f5e10083604001511415612552575080610cb4565b61064e6305f5e10061106f8560400151856121e890919063ffffffff16565b6000806125818861ffff16612dd9565b9050838160ff16111561259357600080fd5b6000806125a48360ff168a87612def565b9150915080156125b357600080fd5b60006125be89612eb7565b90506affffffffffffffffffffff81106125d757600080fd5b600060788963ffffffff16901b609883901b60f086901b60f860008e136125ff576001612602565b60005b600581111561260d57fe5b60ff16901b17171760001b905073__TradingAction_________________________63e50f349e8d836040518363ffffffff1660e01b8152600401612653929190614491565b60206040518083038186803b15801561266b57600080fd5b505af415801561267f573d6000803e3d6000fd5b505050506040513d601f19601f820116820180604052508101906126a39190613d49565b9c9b505050505050505050505050565b806005856060015160058111156126c657fe5b14156126eb5760006126d784610d54565b90506126e7816000015184612ed8565b9250505b6000821315612717576000612701868685612f67565b9050856020015115612711578091505b50611075565b60038560600151600581111561272957fe5b1415612746576127418461273c84611030565b61305a565b611075565b8451611075908561275685611030565b613090565b60008060028660600151600581111561277057fe5b141561278857612781868585613107565b90506127e5565b600061279386610d54565b90506005876060015160058111156127a757fe5b14156127bf576127b88186866131c4565b91506127e3565b6001876060015160058111156127d157fe5b1415610116576127b88782878761326d565b505b6127f161083d8261109d565b9695505050505050565b604080516001600160a01b0384811660248084019190915283518084039091018152604490920183526020820180516001600160e01b03166001600160e01b0319861617815292518251600094859485948a16939092909182918083835b602083106128785780518252601f199092019160209182019101612859565b6001836020036101000a038019825116818451168082178552505050505050905001915050600060405180830381855afa9150503d80600081146128d8576040519150601f19603f3d011682016040523d82523d6000602084013e6128dd565b606091505b5091509150816128ec57600080fd5b80806020019051602081101561290157600080fd5b50519695505050505050565b61291561336b565b54825160405163e8eda9df60e01b81526001600160a01b039092169163e8eda9df9161294a9185903090600090600401613f92565b600060405180830381600087803b15801561296457600080fd5b505af11580156103a0573d6000803e3d6000fd5b815160405163140e25ad60e31b81526000916001600160a01b03169063a0712d68906129a890859060040161404c565b602060405180830381600087803b1580156129c257600080fd5b505af11580156129d6573d6000803e3d6000fd5b505050506040513d601f19601f820116820180604052508101906129fa9190613d49565b90508015610e205760405162461bcd60e51b81526004016102e0906140d4565b81600001516001600160a01b0316631249c58b826040518263ffffffff1660e01b81526004016000604051808303818588803b158015612a5957600080fd5b505af11580156116e2573d6000803e3d6000fd5b600082821115611b74576040805162461bcd60e51b815260206004820152601e60248201527f536166654d6174683a207375627472616374696f6e206f766572666c6f770000604482015290519081900360640190fd5b600081612ad357506000611075565b600080612ae08785613378565b915091506000612aff8760400151886000015188858c600001516123ac565b9050612b1d612b0d8461109d565b6101608901516114e4908461103e565b98975050505050505050565b600061064e612b3c84633b9aca006121e8565b83612236565b6000610879876040518060a00160405280896001600160a01b03168152602001896001600160a01b03168152602001888152602001878152602001600081525085856133ca565b600082612b9857506000610cb4565b82820282848281612ba557fe5b041461064e57600080fd5b600080610cb46007612267565b6000806000612bca613650565b600094855260205250506040909120546001600160a01b03811692600160a01b90910460ff169150565b600080610cb46006612267565b600881901c60ff9091161b90565b6000612c19612bf4565b6001600160a01b0388166000908152602082815260408083208a845290915290209091506a7fffffffffffffffffffff198612801590612c6457506a7fffffffffffffffffffff8613155b612c6d57600080fd5b60008512158015612c8557506001600160501b038513155b612c8e57600080fd5b83612cce5766ffffffffffffff831115612ca757600080fd5b805466ffffffffffffff60701b1916600160701b66ffffffffffffff851602178155612ce8565b8054600160501b900463ffffffff168414612ce857600080fd5b8054600a9690960b6affffffffffffffffffffff16600160a81b026001600160a81b036001600160501b039096166001600160501b031963ffffffff909616600160501b0263ffffffff60501b19909816979097179490941695909517939093169190911790925550505050565b6000806000806000612d6786612bbd565b909250905060006001600160a01b038316612d8c5750600090506402540be4006121d0565b826001600160a01b031663b2fffb046040518163ffffffff1660e01b815260040160206040518083038186803b158015612dc557600080fd5b505afa15801561219d573d6000803e3d6000fd5b600080612de58361365d565b60ff169392505050565b60008060008511612e125760405162461bcd60e51b81526004016102e090614169565b6007851115612e335760405162461bcd60e51b81526004016102e090614232565b6000612e3e8461367a565b905060015b868111612e96576000612e5f612e5883613698565b849061373c565b905086811415612e775750925060009150612eaf9050565b86811115612e8d5750925060019150612eaf9050565b50600101612e43565b5060405162461bcd60e51b81526004016102e09061434c565b935093915050565b600080821215612ed157612eca82611030565b9050610d4f565b5080610d4f565b600081612ee757506000610cb4565b6000612ef284613796565b90506000612eff84612eb7565b9050816b019d971e4fe8401e74000001600160ff1b0381612f1c57fe5b05811315612f2957600080fd5b6b033b2e3c9fd0803ce80000006b019d971e4fe8401e74000000838302010560008513612f5e57612f5981611030565b6127f1565b95945050505050565b6000808080600587606001516005811115612f7e57fe5b14612f90576370a0823160e01b612f99565b630ed1279f60e11b5b9050866020015115612fb5578651612fb29030836127fb565b92505b8651612fc2908787613821565b866020015180612fd6575060008760800151115b15612feb578651612fe89030836127fb565b91505b608087015115613026576000613009886130048561109d565b611c7b565b9050613018886080015161109d565b81131561302457600080fd5b505b8660200151156130475761303d611c618385612a6d565b935050505061064e565b61303d8561109d565b5050509392505050565b6040516001600160a01b0383169082156108fc029083906000818181858888f19350505050158015610e20573d6000803e3d6000fd5b826001600160a01b031663a9059cbb83836040518363ffffffff1660e01b815260040180836001600160a01b0316815260200182815260200192505050600060405180830381600087803b1580156130e757600080fd5b505af11580156130fb573d6000803e3d6000fd5b50505050610e20613879565b825160405163db006a7560e01b8152600091479183916001600160a01b03169063db006a759061313b90879060040161404c565b602060405180830381600087803b15801561315557600080fd5b505af1158015613169573d6000803e3d6000fd5b505050506040513d601f19601f8201168201806040525081019061318d9190613d49565b905080156131ad5760405162461bcd60e51b81526004016102e0906140f2565b476131b88184612a6d565b9350613050868561305a565b60006131df61045885600001516131da8561109d565b612ed8565b90506131e961336b565b548451604051631a4ca37b60e21b81526001600160a01b03909216916369328dec9161321b9185908890600401613f6f565b602060405180830381600087803b15801561323557600080fd5b505af1158015613249573d6000803e3d6000fd5b505050506040513d601f19601f820116820180604052508101906111d09190613d49565b8251600090819061328690306370a0823160e01b6127fb565b9050600086600001516001600160a01b031663db006a75856040518263ffffffff1660e01b81526004016132ba919061404c565b602060405180830381600087803b1580156132d457600080fd5b505af11580156132e8573d6000803e3d6000fd5b505050506040513d601f19601f8201168201806040525081019061330c9190613d49565b9050801561332c5760405162461bcd60e51b81526004016102e0906140f2565b855160009061334390306370a0823160e01b6127fb565b905061334f8184612a6d565b935061336087600001518786613090565b505050949350505050565b600080610cb46013612267565b6000806133a0846060015161339a866080015186612b8990919063ffffffff16565b906138ea565b91506133c1846060015161339a8660a0015186612b8990919063ffffffff16565b90509250929050565b6000806133de866040015161ffff16610d3c565b905060006004826060015160058111156133f457fe5b1461340f5761340a876040015161ffff16610d54565b613411565b815b9050600080876080015112156134845760048360600151600581111561343357fe5b1415613450576134496104588860800151611030565b9050613484565b600061347161083d89608001518b6101600151611a5490919063ffffffff16565b90506134806104588483611a7f565b9150505b60408701516000901561354357600061349d8430611abb565b905089600001516001600160a01b03166344f051088a600001518b602001518c604001518d60600151888e8e6040518863ffffffff1660e01b81526004016134eb9796959493929190613f31565b600060405180830381600087803b15801561350557600080fd5b505af1158015613519573d6000803e3d6000fd5b5050505060006135323086611abb90919063ffffffff16565b905061353e8183611b65565b925050505b818110156135de5780820360038460600151600581111561356057fe5b141561359e57348111156135865760405162461bcd60e51b81526004016102e090614139565b613596896000015182340361305a565b8291506135dc565b60006135c38a600001518c6040015161ffff166135ba8561109d565b889291906126b3565b90506135d86135d18261107d565b84906111d8565b9250505b505b818110156135fe5760405162461bcd60e51b81526004016102e090614139565b600060048560600151600581111561361257fe5b1461362d5760408a015161362890869084611b7a565b613636565b6136368261109d565b90506136428582611c7b565b9a9950505050505050505050565b600080610cb4600f612267565b600080613668613909565b60009384526020525050604090205490565b60006276a70082101561368c57600080fd5b506276a7008106900390565b600081600114156136ad57506276a700610d4f565b81600214156136c0575062ed4e00610d4f565b81600314156136d457506301da9c00610d4f565b81600414156136e857506303b53800610d4f565b81600514156136fc57506309450c00610d4f565b8160061415613710575063128a1800610d4f565b816007141561372457506325143000610d4f565b60405162461bcd60e51b81526004016102e090614198565b60008282018381101561064e576040805162461bcd60e51b815260206004820152601b60248201527f536166654d6174683a206164646974696f6e206f766572666c6f770000000000604482015290519081900360640190fd5b6000610cb46137a361336b565b5460405163d15e005360e01b81526001600160a01b039091169063d15e0053906137d1908690600401613f1d565b60206040518083038186803b1580156137e957600080fd5b505afa1580156137fd573d6000803e3d6000fd5b505050506040513d601f19601f82011682018060405250810190611c619190613d49565b604080516323b872dd60e01b81526001600160a01b038481166004830152306024830152604482018490529151918516916323b872dd9160648082019260009290919082900301818387803b1580156130e757600080fd5b6000613883613a2b565b3d801561389757602081146138a057600080fd5b600192506138ab565b60206000833e815192505b50816138e6576040805162461bcd60e51b8152602060048201526005602482015264045524332360dc1b604482015290519081900360640190fd5b5050565b60008082116138f857600080fd5b81838161390157fe5b049392505050565b600080610cb46009612267565b6040518060e001604052806000815260200160008152602001600015158152602001600081526020016000815260200160008152602001600081525090565b604051806060016040528060006001600160a01b0316815260200160008152602001600081525090565b60405180610180016040528060006001600160a01b03168152602001600061ffff168152602001600061ffff168152602001600081526020016000815260200160008152602001600081526020016000815260200160008152602001600081526020016139ea613a49565b81526020016139f7613955565b905290565b6040805160a0810182526000808252602082018190529181018290529060608201908152602001600081525090565b60405180602001604052806001906020820280368337509192915050565b60405180606001604052806003906020820280368337509192915050565b80356001600160a01b0381168114610d4f57600080fd5b60008083601f840112613a8f578081fd5b50813567ffffffffffffffff811115613aa6578182fd5b60208301915083602082850101111561081157600080fd5b80356001600160501b0381168114610d4f57600080fd5b600060208284031215613ae6578081fd5b61064e82613a67565b60008060408385031215613b01578081fd5b613b0a83613a67565b915060208301358015158114613b1e578182fd5b809150509250929050565b60008060008385036101c0811215613b3f578182fd5b613b4885613a67565b9350610180601f1982011215613b5c578182fd5b50602084019150613b706101a08501613abe565b90509250925092565b60008060408385031215613b8b578182fd5b613b9483613a67565b91506020830135613b1e81614736565b600080600060608486031215613bb8578283fd5b613bc184613a67565b92506020840135613bd181614736565b929592945050506040919091013590565b600080600060608486031215613bf6578283fd5b613bff84613a67565b92506020840135613c0f81614736565b9150613b7060408501613abe565b60008060408385031215613c2f578182fd5b613c3883613a67565b946020939093013593505050565b60008060008060008060a08789031215613c5e578182fd5b613c6787613a67565b9550613c7560208801613abe565b94506040870135935060608701359250608087013567ffffffffffffffff811115613c9e578283fd5b613caa89828a01613a7e565b979a9699509497509295939492505050565b600060208284031215613ccd578081fd5b815167ffffffffffffffff80821115613ce4578283fd5b818401915084601f830112613cf7578283fd5b815181811115613d0357fe5b604051601f8201601f191681016020018381118282101715613d2157fe5b604052818152838201602001871015613d38578485fd5b6127f182602083016020870161451d565b600060208284031215613d5a578081fd5b5051919050565b600060208284031215613d72578081fd5b813561064e81614736565b60008060008060808587031215613d92578182fd5b8435613d9d81614736565b935060208501359250604085013591506060850135613dbb81614749565b939692955090935050565b60008060008060008060a08789031215613dde578384fd5b8635613de981614736565b955060208701359450604087013593506060870135613e0781614749565b9250608087013567ffffffffffffffff811115613c9e578283fd5b60008060008060608587031215613e37578182fd5b8435935060208501359250604085013567ffffffffffffffff811115613e5b578283fd5b613e6787828801613a7e565b95989497509550505050565b600060208284031215613e84578081fd5b813561064e8161475b565b6001600160a01b03169052565b8060005b6003811015613ec357815161ffff16845260209384019390910190600101613ea0565b50505050565b60008284528282602086013780602084860101526020601f19601f85011685010190509392505050565b80516001600160a01b0316825260208082015190830152604090810151910152565b61ffff169052565b6001600160a01b0391909116815260200190565b600060018060a01b03808a16835280891660208401525086604083015285606083015284608083015260c060a0830152611d5460c083018486613ec9565b6001600160a01b0393841681526020810192909252909116604082015260600190565b6001600160a01b03948516815260208101939093529216604082015261ffff909116606082015260800190565b6001600160a01b039390931683526020830191909152604082015260600190565b600060018060a01b038716825285602083015284604083015260806060830152610879608083018486613ec9565b901515815260200190565b600060208252825180602084015261403881604085016020870161451d565b601f01601f19169190910160400192915050565b90815260200190565b918252602082015260400190565b60208082526011908201527052656465656d20616c6c20746f6b656e7360781b604082015260600190565b60208082526006908201526514185d5cd95960d21b604082015260600190565b6020808252600c908201526b155b985d5d1a1bdc9a5e995960a21b604082015260600190565b602080825260049082015263135a5b9d60e21b604082015260600190565b60208082526006908201526552656465656d60d01b604082015260600190565b6020808252600d908201526c556e7061696420426f72726f7760981b604082015260600190565b602080825260169082015275125b9cdd59999a58da595b9d081c995c185e5b595b9d60521b604082015260600190565b60208082526015908201527410d1ce881b9bc81b585c9ad95d1cc81b1a5cdd1959605a1b604082015260600190565b6020808252600d908201526c092dcecc2d8d2c840d2dcc8caf609b1b604082015260600190565b6020808252600c908201526b151c9859194811985a5b195960a21b604082015260600190565b6020808252600d908201526c43616e6e6f7420536574746c6560981b604082015260600190565b6020808252600c908201526b4d617820436170616369747960a01b604082015260600190565b60208082526016908201527510d1ce881b585c9ad95d081a5b99195e08189bdd5b9960521b604082015260600190565b60208082526010908201526f496e76616c69642043757272656e637960801b604082015260600190565b6020808252818101527f4f776e61626c653a2063616c6c6572206973206e6f7420746865206f776e6572604082015260600190565b60208082526017908201527f496e73756666696369656e7420436f6c6c61746572616c000000000000000000604082015260600190565b6020808252600e908201526d1499595b9d1c985b9d0818d85b1b60921b604082015260600190565b602080825260129082015271496e73756666696369656e7420526570617960701b604082015260600190565b60208082526013908201527210d1ce881b9bc81b585c9ad95d08199bdd5b99606a1b604082015260600190565b60006102008201905061438d828451613e8f565b602083015161439f6020840182613f15565b5060408301516143b26040840182613f15565b50606083015160608301526080830151608083015260a083015160a083015260c083015160c083015260e083015160e08301526101008084015181840152506101208084015181840152506101408084015161441082850182613e9c565b50506101608301516144266101a0840182613ef3565b5092915050565b600060e0820190508251825260208301516020830152604083015115156040830152606083015160608301526080830151608083015260a083015160a083015260c083015160c083015292915050565b6001600160801b0391909116815260200190565b61ffff929092168252602082015260400190565b600084825260406020830152612f5e604083018486613ec9565b81816000805b60038110156103a05783356144d981614736565b835461ffff6008850281811b801990931693909116901b1617835560209390930192600290910190601e82111561451557600091506001830192505b6001016144c5565b60005b83811015614538578181015183820152602001614520565b83811115613ec35750506000910152565b60008135610cb481614736565b60008135610cb481614749565b60008135610cb48161475b565b813561457b81614736565b61ffff811661ffff19835416178255506145a061459a60208401614549565b826146d8565b6145b56145af60408401614556565b826146f4565b6145ca6145c460608401614549565b82614718565b6145df6145d960808401614563565b82614645565b6145f46145ee60a08401614563565b82614662565b61460961460360c08401614563565b8261467f565b61461e61461860e08401614563565b8261469c565b61463461462e6101008401614549565b826146b9565b6138e66101208301600183016144bf565b805460ff60501b191660509290921b60ff60501b16919091179055565b805460ff60581b191660589290921b60ff60581b16919091179055565b805460ff60601b191660609290921b60ff60601b16919091179055565b805460ff60681b191660689290921b60ff60681b16919091179055565b805461ffff60701b191660709290921b61ffff60701b16919091179055565b805463ffff00008360101b1663ffff0000198216178255505050565b805467ffffffff000000008360201b1667ffffffff00000000198216178255505050565b805461ffff60401b8360401b1661ffff60401b198216178255505050565b61ffff8116811461474657600080fd5b50565b63ffffffff8116811461474657600080fd5b60ff8116811461474657600080fdfea264697066735822122052632b3cfc6c34818b40f59d86e7edc5ba41ed9a58ee1884120833ab93fcc7ef64736f6c63430007060033",
  "bytecodeSha1": "3223f5d47bb08de179daaf31d6625dde78f16f59",
  "compiler": {
    "evm_version": "istanbul",
    "optimizer": {
      "enabled": true,
      "runs": 200
    },
    "version": "0.7.6+commit.7338295f"
  },
  "contractName": "VaultAction",
  "deployedBytecode": "608060405234801561001057600080fd5b50600436106101165760003560e01c806383e50fb7116100a2578063cce9787611610071578063cce9787614610226578063d04c16ac14610246578063d6ddeb9a14610259578063de1eb9a31461026c578063ee01436b1461028c57610116565b806383e50fb7146101e35780638da5cb5b14610203578063a14db57c1461020b578063c4c96dae1461021e57610116565b806351479e39116100e957806351479e391461018157806356f428c41461019457806367515776146101a75780636c346c09146101c857806382463367146101db57610116565b806324a3d6221461011b578063291afdf314610139578063295e6b7f1461014e5780633157228114610161575b600080fd5b61012361029f565b6040516101309190613f1d565b60405180910390f35b61014c610147366004613be2565b6102ae565b005b61014c61015c366004613c1d565b6103a8565b61017461016f366004613c1d565b61063c565b604051610130919061442d565b61014c61018f366004613b29565b610655565b61014c6101a2366004613aef565b61070c565b6101ba6101b5366004613b79565b61078d565b604051610130929190614055565b6101ba6101d6366004613c1d565b6107dd565b610123610818565b6101f66101f1366004613d7d565b610827565b604051610130919061404c565b610123610884565b6101f6610219366004613ba4565b61089b565b6101236108e7565b610239610234366004613dc6565b6108ff565b6040516101309190614019565b61014c610254366004613e22565b610ae4565b61014c610267366004613c46565b610c3d565b61027f61027a366004613ad5565b610ca3565b6040516101309190614379565b6101ba61029a366004613e22565b610cba565b6002546001600160a01b031681565b60005464010000000090046001600160a01b031633146102e95760405162461bcd60e51b81526004016102e09061428c565b60405180910390fd5b60006102f484610d0d565b905060006103058461ffff16610d3c565b905060006103168561ffff16610d54565b9050816020015115801561032c57508060200151155b61033557600080fd5b6101408301515161ffff8681169116148061035f57506101408301516020015161ffff8681169116145b8061037957506101408301516040015161ffff8681169116145b6103955760405162461bcd60e51b81526004016102e090614262565b6103a0868686610d67565b505050505050565b6002600a5414156103cb5760405162461bcd60e51b81526004016102e0906142f8565b6002600a5560006103db83610d0d565b90506103e981336040610dbb565b60006103f58484610e25565b905042831115801561040957506040810151155b6104255760405162461bcd60e51b81526004016102e0906141e5565b600061043a836040015161ffff168542610ec0565b9050600061045d6104586104518560200151611030565b849061103e565b61107d565b90506000610469611090565b6001600160a01b038816600090815260209182526040808220898352909252206101408601515190915061ffff16156104dc576101408501515161ffff166000908152602082905260409020546001600160501b0316156104dc5760405162461bcd60e51b81526004016102e090614112565b6101408501516020015161ffff16156105335761014085015160209081015161ffff1660009081529082905260409020546001600160501b0316156105335760405162461bcd60e51b81526004016102e090614112565b6101408501516040015161ffff16156105885761014085015160409081015161ffff166000908152602083905220546001600160501b0316156105885760405162461bcd60e51b81526004016102e090614112565b81846080015110156106055760a0840151156105b65760405162461bcd60e51b81526004016102e090614063565b60006105c78560800151840361109d565b905060006105e161045888600001518960400151856110b3565b60808701519091506105f390826111d8565b6080870152610602868a6111ea565b50505b61062087866040015161061b8760200151611030565b611300565b5061062e84868589426113bf565b50506001600a555050505050565b610644613916565b61064e8383610e25565b9392505050565b60005464010000000090046001600160a01b031633146106875760405162461bcd60e51b81526004016102e09061428c565b6106918383611525565b6106ab836106a56040850160208601613d61565b83610d67565b60006001806106bd6020860186613d61565b1661ffff16149050836001600160a01b03167fbe3a36b9889e71d651c5e46a9d6a110c243e04a771bd479378feec68718985aa826040516106fe919061400e565b60405180910390a250505050565b60005464010000000090046001600160a01b0316331461073e5760405162461bcd60e51b81526004016102e09061428c565b61074882826116eb565b816001600160a01b03167f7c51c6aa77346c54cb051d9e792f9b7bde5c28a9b57e6fb2d2dd727b38438ca982604051610781919061400e565b60405180910390a25050565b600080600061079a61174b565b6001600160a01b0390951660009081526020958652604080822061ffff9096168252949095525050509020546001600160501b03600160501b8204811692911690565b60008060006107eb85611758565b905060006107fd826000015186610e25565b905061080a82828761177c565b9350935050505b9250929050565b6001546001600160a01b031681565b6000806000610848878761084261083d8961109d565b611030565b87611835565b915091506000821361086c5760405162461bcd60e51b81526004016102e0906141bf565b80516108799088846118dd565b979650505050505050565b60005464010000000090046001600160a01b031681565b6000806108a6611090565b6001600160a01b0390951660009081526020958652604080822094825293865283812061ffff909516815293909452509020546001600160501b0316919050565b73__$7ac922d04bd7a1b42c7f6e5f1dd89a70af$__90565b606060008061090d8761109d565b9050610917613955565b428911156109445761092761397f565b6109338b8b858b611835565b610160015190945091506109809050565b6109538a61ffff168a42610ec0565b905061096261083d828461103e565b9250610970338b8b85611985565b61097d8a61ffff16611a08565b90505b600061098f8b61ffff16610d3c565b90506000806004836060015160058111156109a657fe5b146109bd576109b88d61ffff16610d54565b6109bf565b825b905060006109dd6104586109d661083d888b611a54565b8490611a7f565b905060006109eb8330611abb565b604051620e8d8d60ea1b81529091503390633a36340090610a149085908f908f906004016144a5565b600060405180830381600087803b158015610a2e57600080fd5b505af1158015610a42573d6000803e3d6000fd5b505050506040513d6000823e601f3d908101601f19168201604052610a6a9190810190613cbc565b98506000610a788430611abb565b9050610a848183611b65565b945082851015610aa65760405162461bcd60e51b81526004016102e090614320565b5060049250610ab3915050565b82606001516005811115610ac357fe5b14610ad557610ad3828d83611b7a565b505b50505050509695505050505050565b6002600a541415610b075760405162461bcd60e51b81526004016102e0906142f8565b6002600a556000610b1733610d0d565b9050610b24816080611c66565b15610b2f576001600a555b610b3a816001611c66565b610b565760405162461bcd60e51b81526004016102e09061408e565b6000610b623387610e25565b90506000610b77836040015161ffff16610d3c565b90506000610b8e610b878861109d565b8390611c7b565b8451909150600090610ba6908690848c858c8c611cab565b9050610bbf610bb48361107d565b608086015190611b65565b608085015260a0840151610bd390826111d8565b60a0850152610be284336111ea565b6000610c058533876060015188602001518a611d6190949392919063ffffffff16565b509050808660a001511315610c2c5760405162461bcd60e51b81526004016102e0906142c1565b50506001600a555050505050505050565b60005464010000000090046001600160a01b03163314610c6f5760405162461bcd60e51b81526004016102e09061428c565b6000610c7a87610d0d565b9050610c8b87826040015188610d67565b610c988186868686611dc9565b505050505050505050565b610cab61397f565b610cb482611758565b92915050565b6000806000610cc833610d0d565b9050610cd5816001611c66565b610cf15760405162461bcd60e51b81526004016102e09061408e565b610cfe8188888888611dc9565b92509250505b94509492505050565b610d1561397f565b610d1e82611e95565b9050610d31816040015161ffff16611a08565b610160820152919050565b610d446139fc565b610cb4826000612014565b919050565b610d5c6139fc565b610cb4826001612014565b6000610d7161174b565b6001600160a01b0390941660009081526020948552604080822061ffff90951682529390945250912080546001600160501b039092166001600160501b0319909216919091179055565b610dc58382611c66565b15610df85782516001600160a01b03163314610df35760405162461bcd60e51b81526004016102e0906140ae565b610e20565b6001600160a01b0382163314610e205760405162461bcd60e51b81526004016102e0906140ae565b505050565b610e2d613916565b6000610e376120c2565b6001600160a01b03909416600090815260209485526040808220858352865280822094845284546001600160501b038082169093039685019690965260ff600160f01b870416151590840152600160501b8086048216608085015260019094015480821660a0850152600160a01b909504166060830152509104600990810b900b60c082015290565b610ec8613955565b600080610ed586866120cf565b915091508160001415611005576000610eed87612118565b91945090925090506001600160a01b03811615611003576000610f0e6121db565b9050856000108015610f205750858711155b8015610f31575064ffffffffff8611155b610f3a57600080fd5b836000128015610f5157506001600160801b038413155b610f5a57600080fd5b6000888152602082815260408083208a845290915290819020805464ffffffffff191664ffffffffff89161774ffffffffffffffffffffffffffffffff00000000001916650100000000006001600160801b038816021760ff60a81b1916600160a81b60ff871602178155905188908a907f0fdfa6885701e2f1f42e4187b9231cf81c1fe23671ef64fa46f34ddb56c1dc1890610ff890899061447d565b60405180910390a350505b505b6040805160608101825260008152602081019390935260ff909116600a0a9082015290509392505050565b6000610cb4600019836121e8565b600080611075846020015161106f86604001516110696402540be400886121e890919063ffffffff16565b906121e8565b90612236565b949350505050565b60008082121561108c57600080fd5b5090565b600080610cb46018612267565b60006001600160ff1b0382111561108c57600080fd5b60006110c08460006116eb565b836001600160a01b03167f7c51c6aa77346c54cb051d9e792f9b7bde5c28a9b57e6fb2d2dd727b38438ca960006040516110fa919061400e565b60405180910390a2836001600160a01b03168361ffff167f49f3652d4bd58df659a52593175facf1a718295f3f4bea635367f06d424a895884604051611140919061404c565b60405180910390a3600061115960008561ffff16612280565b50505090508083136111795761117184848303612329565b8291506111d0565b611184846000612329565b846001600160a01b03168461ffff167f9982ba522274fa0cc3ee3b56025595a76649b07f4b8a39f0bd8e546ca0f9646f8386036040516111c4919061404c565b60405180910390a38091505b509392505050565b60008282018381101561064e57600080fd5b60006111f46120c2565b6001600160a01b038316600090815260208281526040808320875184529091529081902090850151919250901561122a57600080fd5b61124261123d6104588660200151611030565b612380565b81546001600160501b0319166001600160501b0391909116178155608084015161126b90612380565b81546001600160501b0391909116600160501b0269ffffffffffffffffffff60501b1990911617815560a08401516112a290612380565b6001820180546001600160501b0319166001600160501b039290921691909117905560608401516112d290612380565b81546001600160501b0391909116600160a01b0269ffffffffffffffffffff60a01b19909116179055505050565b60008061130b61174b565b6001600160a01b03861660009081526020918252604080822061ffff8816835290925220805490915061134e90600160501b90046001600160501b031684612396565b915060008312156113835780546001600160501b03168213156113835760405162461bcd60e51b81526004016102e09061420c565b61138f61123d8361107d565b81546001600160501b0391909116600160501b0269ffffffffffffffffffff60501b199091161790559392505050565b60006113c96120c2565b85516001600160a01b03166000908152602082815260408083208784529091529020805491925090600160f01b900460ff161561140557600080fd5b8284111561141257600080fd5b6040860151865160009161142c91806305f5e100896123ac565b825460ff60f01b1916600160f01b178355905061144881612466565b82600101600a6101000a8154816001600160501b03021916908360090b6001600160501b03160217905550600061147d612496565b88516001600160a01b031660009081526020918252604080822089835283529020600185015481546001600160501b0319166001600160501b03909116178155908a01519091506114ef906114ea906114d7908a9061103e565b6114e48c6080015161109d565b906124a3565b612466565b815460099190910b6001600160501b0316600160501b0269ffffffffffffffffffff60501b199091161790555050505050505050565b600061152f6124b9565b905061154160c0830160a08401613e73565b60ff166064131561155157600080fd5b606461156360e0840160c08501613e73565b60ff16131561157157600080fd5b611582610100830160e08401613e73565b60ff1661158e57600080fd5b6115a061012083016101008401613d61565b61ffff166115b46080840160608501613d61565b61ffff16106115c257600080fd5b6115d461014083016101208401613d61565b61ffff166115e86040840160208501613d61565b61ffff1614156115f757600080fd5b61160961016083016101408401613d61565b61ffff1661161d6040840160208501613d61565b61ffff16141561162c57600080fd5b61163e61018083016101608401613d61565b61ffff166116526040840160208501613d61565b61ffff16141561166157600080fd5b600061167f6116766040850160208601613d61565b61ffff16610d3c565b9050600061169f6116966040860160208701613d61565b61ffff16610d54565b905081602001511580156116b557508060200151155b6116be57600080fd5b6001600160a01b038516600090815260208490526040902084906116e28282614570565b50505050505050565b60006116f56124b9565b6001600160a01b038416600090815260208290526040902080549192509061ffff16831561173457815461ffff19166001821761ffff16178255611744565b815461ffff191661fffe82161782555b5050505050565b600080610cb46017612267565b61176061397f565b61176982611e95565b9050610d31816040015161ffff166124c6565b6000806000611793866040015161ffff16856124dc565b905060006117ba61083d6117aa886080015161109d565b60208901516114e490869061103e565b905060006117cf886040015161ffff16610d3c565b90506117db8183612539565b94506004816060015160058111156117ef57fe5b14156117fd5784935061182a565b6000611810896040015161ffff16610d54565b905061182661181f8585611a54565b8290611a7f565b9450505b505050935093915050565b600061183f61397f565b61184833610d0d565b9050611855816001611c66565b6118715760405162461bcd60e51b81526004016102e09061408e565b806040015161ffff168661ffff16141561188a57600080fd5b61189633878787611985565b6118a98686868685610100015142612571565b91506000841380156118b9575081155b15610d04576101608101516118d29061083d908661103e565b915094509492505050565b6000816118ec5750600061064e565b600082136118f957600080fd5b60006119088461ffff16610d3c565b905060006119168285612539565b905060048260600151600581111561192a57fe5b14156119585761195161045861083d888861ffff1661194886611030565b879291906126b3565b925061197c565b61197961045861083d8761ffff16896119708661107d565b8792919061275b565b92505b50509392505050565b611990848483611300565b50600061199b611090565b6001600160a01b038616600090815260209182526040808220868352835280822061ffff881683529092522080549091506119e79061123d90610458906001600160501b031685612396565b81546001600160501b0319166001600160501b039190911617905550505050565b611a10613955565b6000806000611a1e85612118565b604080516060810182526001600160a01b039093168352602083019390935260ff16600a0a918101919091529350505050919050565b600080611075846040015161106f6402540be40061106f8789602001516121e890919063ffffffff16565b60006305f5e10083604001511215611aa757611aa060016114e48585612539565b9050610cb4565b61064e83611ab68460016124a3565b612539565b6000600383606001516005811115611acf57fe5b1415611ae657506001600160a01b03811631610cb4565b82516040516370a0823160e01b81526001600160a01b03909116906370a0823190611b15908590600401613f1d565b60206040518083038186803b158015611b2d57600080fd5b505afa158015611b41573d6000803e3d6000fd5b505050506040513d601f19601f82011682018060405250810190611aa09190613d49565b600082821115611b7457600080fd5b50900390565b600080600585606001516005811115611b8f57fe5b14611ba1576370a0823160e01b611baa565b630ed1279f60e11b5b90506000611bbd866000015130846127fb565b9050600586606001516005811115611bd157fe5b1415611bf8576000611be68661ffff16610d54565b9050611bf2818661290d565b50611c41565b600186606001516005811115611c0a57fe5b1415611c1f57611c1a8685612978565b611c41565b600286606001516005811115611c3157fe5b141561011657611c1a8685612a1a565b6000611c52876000015130856127fb565b9050610879611c618284612a6d565b61109d565b60209190910151811661ffff90811691161490565b60006305f5e10083604001511415611c94575080610cb4565b604083015161064e9061106f846305f5e1006121e8565b600080611cc189600001518a60400151896118dd565b89519091506001600160a01b031663dc6679c589611cdf84896111d8565b8988886040518663ffffffff1660e01b8152600401611d02959493929190613fe0565b602060405180830381600087803b158015611d1c57600080fd5b505af1158015611d30573d6000803e3d6000fd5b505050506040513d601f19601f82011682018060405250810190611d549190613d49565b9998505050505050505050565b600080611d7086888787612ac4565b90506000611d8c611d8085611030565b6101608a01519061103e565b90506000611d9a8383612396565b905081611db0576001600160ff1b039350611dbd565b611dba8183612b29565b93505b50509550959350505050565b6000806002600a541415611def5760405162461bcd60e51b81526004016102e0906142f8565b6002600a55611dff876080611c66565b15611e0a576001600a555b6000611e1a886000015188610e25565b8851909150600090611e31908a90898b8a8a612b42565b905060008113611e4057600080fd5b6080820151611e4f90826111d8565b608083015260a0820151611e639088611b65565b60a08301528851611e759083906111ea565b611e8089838a61177c565b6001600a55909a909950975050505050505050565b611e9d61397f565b6000611ea76124b9565b6001600160a01b03841660008181526020838152604091829020928652825461ffff808216928801929092526201000081049091169186019190915291925090611f089063ffffffff6401000000009091048116906305f5e100906121e816565b60608401528054611f2690600160501b900460ff166207a120612b89565b60808401528054611f4a9068010000000000000000900461ffff16620186a0612b89565b60a08401528054611f6990600160701b900461ffff16620186a0612b89565b610120840152805460649060ff600160581b90910416633b9aca00020560c08401528054600160601b810460ff90811660e0860152600160681b90910416610100840152604080516060810191829052906001830190600390826000855b82829054906101000a900461ffff1661ffff1681526020019060020190602082600101049283019260010382029150808411611fc757905050505050508361014001819052505050919050565b61201c6139fc565b6000612026612bb0565b6000858152602082815260408083208715158452825291829020825160a08101845281546001600160a01b038116825260ff600160a01b82048116151594830194909452600160b01b81048416600a0a9482019490945293945092916060830191600160a81b90910416600581111561209b57fe5b81529154600160b81b900468ffffffffffffffffff16602090920191909152949350505050565b600080610cb46015612267565b60008060006120dc6121db565b6000958652602090815260408087209587529490525050509020546501000000000081046001600160801b031691600160a81b90910460ff1690565b600080600080600061212986612bbd565b909250905060006001600160a01b03831661214e5750600090506402540be4006121d0565b826001600160a01b0316631ee108336040518163ffffffff1660e01b8152600401602060405180830381600087803b15801561218957600080fd5b505af115801561219d573d6000803e3d6000fd5b505050506040513d601f19601f820116820180604052508101906121c19190613d49565b9050600081136121d057600080fd5b969195509350915050565b600080610cb46008612267565b8181026000198314156122185781158061220a57508282828161220757fe5b05145b61221357600080fd5b610cb4565b82158061222d57508183828161222a57fe5b05145b610cb457600080fd5b60008160001914801561224c5750600160ff1b83145b1561225657600080fd5b81838161225f57fe5b059392505050565b6000620f424082601981111561227957fe5b0192915050565b6000806000806000612290612bf4565b6001600160a01b0388166000908152602082815260408083208a8452909152902080546001600160501b0381169650600160501b900463ffffffff16945090915083156122f95780546122f290600160701b900466ffffffffffffff16612c01565b925061230e565b8054600160701b900466ffffffffffffff1692505b54600160a81b9004600a90810b900b97939650919450925050565b600081121561233757600080fd5b61234c60008361ffff16836000806000612c0f565b8161ffff167fd3625f7b5926828151efe19f7ae655488287357d99ebe67e5fb20522ca739c0b82604051610781919061404c565b60006001600160501b0382111561108c57600080fd5b80820382811315600083121514610cb457600080fd5b6000806123bc8761ffff16610d54565b90508060400151600014156123db576123d88761ffff16610d3c565b90505b60405163e937711160e01b8152610879906001600160a01b0388169063e93771119061240f90899089908990600401613fbf565b60206040518083038186803b15801561242757600080fd5b505afa15801561243b573d6000803e3d6000fd5b505050506040513d601f19601f8201168201806040525081019061245f9190613d49565b8290611c7b565b6000697fffffffffffffffffff19821280159061248d5750697fffffffffffffffffff8213155b61108c57600080fd5b600080610cb46019612267565b81810182811215600083121514610cb457600080fd5b600080610cb46014612267565b6124ce613955565b6000806000611a1e85612d56565b6124e4613955565b6000806124f185856120cf565b91509150816000141561250f5761250785612d56565b919350909150505b6040805160608101825260008152602081019390935260ff909116600a0a90820152905092915050565b60006305f5e10083604001511415612552575080610cb4565b61064e6305f5e10061106f8560400151856121e890919063ffffffff16565b6000806125818861ffff16612dd9565b9050838160ff16111561259357600080fd5b6000806125a48360ff168a87612def565b9150915080156125b357600080fd5b60006125be89612eb7565b90506affffffffffffffffffffff81106125d757600080fd5b600060788963ffffffff16901b609883901b60f086901b60f860008e136125ff576001612602565b60005b600581111561260d57fe5b60ff16901b17171760001b905073__$7ac922d04bd7a1b42c7f6e5f1dd89a70af$__63e50f349e8d836040518363ffffffff1660e01b8152600401612653929190614491565b60206040518083038186803b15801561266b57600080fd5b505af415801561267f573d6000803e3d6000fd5b505050506040513d601f19601f820116820180604052508101906126a39190613d49565b9c9b505050505050505050505050565b806005856060015160058111156126c657fe5b14156126eb5760006126d784610d54565b90506126e7816000015184612ed8565b9250505b6000821315612717576000612701868685612f67565b9050856020015115612711578091505b50611075565b60038560600151600581111561272957fe5b1415612746576127418461273c84611030565b61305a565b611075565b8451611075908561275685611030565b613090565b60008060028660600151600581111561277057fe5b141561278857612781868585613107565b90506127e5565b600061279386610d54565b90506005876060015160058111156127a757fe5b14156127bf576127b88186866131c4565b91506127e3565b6001876060015160058111156127d157fe5b1415610116576127b88782878761326d565b505b6127f161083d8261109d565b9695505050505050565b604080516001600160a01b0384811660248084019190915283518084039091018152604490920183526020820180516001600160e01b03166001600160e01b0319861617815292518251600094859485948a16939092909182918083835b602083106128785780518252601f199092019160209182019101612859565b6001836020036101000a038019825116818451168082178552505050505050905001915050600060405180830381855afa9150503d80600081146128d8576040519150601f19603f3d011682016040523d82523d6000602084013e6128dd565b606091505b5091509150816128ec57600080fd5b80806020019051602081101561290157600080fd5b50519695505050505050565b61291561336b565b54825160405163e8eda9df60e01b81526001600160a01b039092169163e8eda9df9161294a9185903090600090600401613f92565b600060405180830381600087803b15801561296457600080fd5b505af11580156103a0573d6000803e3d6000fd5b815160405163140e25ad60e31b81526000916001600160a01b03169063a0712d68906129a890859060040161404c565b602060405180830381600087803b1580156129c257600080fd5b505af11580156129d6573d6000803e3d6000fd5b505050506040513d601f19601f820116820180604052508101906129fa9190613d49565b90508015610e205760405162461bcd60e51b81526004016102e0906140d4565b81600001516001600160a01b0316631249c58b826040518263ffffffff1660e01b81526004016000604051808303818588803b158015612a5957600080fd5b505af11580156116e2573d6000803e3d6000fd5b600082821115611b74576040805162461bcd60e51b815260206004820152601e60248201527f536166654d6174683a207375627472616374696f6e206f766572666c6f770000604482015290519081900360640190fd5b600081612ad357506000611075565b600080612ae08785613378565b915091506000612aff8760400151886000015188858c600001516123ac565b9050612b1d612b0d8461109d565b6101608901516114e4908461103e565b98975050505050505050565b600061064e612b3c84633b9aca006121e8565b83612236565b6000610879876040518060a00160405280896001600160a01b03168152602001896001600160a01b03168152602001888152602001878152602001600081525085856133ca565b600082612b9857506000610cb4565b82820282848281612ba557fe5b041461064e57600080fd5b600080610cb46007612267565b6000806000612bca613650565b600094855260205250506040909120546001600160a01b03811692600160a01b90910460ff169150565b600080610cb46006612267565b600881901c60ff9091161b90565b6000612c19612bf4565b6001600160a01b0388166000908152602082815260408083208a845290915290209091506a7fffffffffffffffffffff198612801590612c6457506a7fffffffffffffffffffff8613155b612c6d57600080fd5b60008512158015612c8557506001600160501b038513155b612c8e57600080fd5b83612cce5766ffffffffffffff831115612ca757600080fd5b805466ffffffffffffff60701b1916600160701b66ffffffffffffff851602178155612ce8565b8054600160501b900463ffffffff168414612ce857600080fd5b8054600a9690960b6affffffffffffffffffffff16600160a81b026001600160a81b036001600160501b039096166001600160501b031963ffffffff909616600160501b0263ffffffff60501b19909816979097179490941695909517939093169190911790925550505050565b6000806000806000612d6786612bbd565b909250905060006001600160a01b038316612d8c5750600090506402540be4006121d0565b826001600160a01b031663b2fffb046040518163ffffffff1660e01b815260040160206040518083038186803b158015612dc557600080fd5b505afa15801561219d573d6000803e3d6000fd5b600080612de58361365d565b60ff169392505050565b60008060008511612e125760405162461bcd60e51b81526004016102e090614169565b6007851115612e335760405162461bcd60e51b81526004016102e090614232565b6000612e3e8461367a565b905060015b868111612e96576000612e5f612e5883613698565b849061373c565b905086811415612e775750925060009150612eaf9050565b86811115612e8d5750925060019150612eaf9050565b50600101612e43565b5060405162461bcd60e51b81526004016102e09061434c565b935093915050565b600080821215612ed157612eca82611030565b9050610d4f565b5080610d4f565b600081612ee757506000610cb4565b6000612ef284613796565b90506000612eff84612eb7565b9050816b019d971e4fe8401e74000001600160ff1b0381612f1c57fe5b05811315612f2957600080fd5b6b033b2e3c9fd0803ce80000006b019d971e4fe8401e74000000838302010560008513612f5e57612f5981611030565b6127f1565b95945050505050565b6000808080600587606001516005811115612f7e57fe5b14612f90576370a0823160e01b612f99565b630ed1279f60e11b5b9050866020015115612fb5578651612fb29030836127fb565b92505b8651612fc2908787613821565b866020015180612fd6575060008760800151115b15612feb578651612fe89030836127fb565b91505b608087015115613026576000613009886130048561109d565b611c7b565b9050613018886080015161109d565b81131561302457600080fd5b505b8660200151156130475761303d611c618385612a6d565b935050505061064e565b61303d8561109d565b5050509392505050565b6040516001600160a01b0383169082156108fc029083906000818181858888f19350505050158015610e20573d6000803e3d6000fd5b826001600160a01b031663a9059cbb83836040518363ffffffff1660e01b815260040180836001600160a01b0316815260200182815260200192505050600060405180830381600087803b1580156130e757600080fd5b505af11580156130fb573d6000803e3d6000fd5b50505050610e20613879565b825160405163db006a7560e01b8152600091479183916001600160a01b03169063db006a759061313b90879060040161404c565b602060405180830381600087803b15801561315557600080fd5b505af1158015613169573d6000803e3d6000fd5b505050506040513d601f19601f8201168201806040525081019061318d9190613d49565b905080156131ad5760405162461bcd60e51b81526004016102e0906140f2565b476131b88184612a6d565b9350613050868561305a565b60006131df61045885600001516131da8561109d565b612ed8565b90506131e961336b565b548451604051631a4ca37b60e21b81526001600160a01b03909216916369328dec9161321b9185908890600401613f6f565b602060405180830381600087803b15801561323557600080fd5b505af1158015613249573d6000803e3d6000fd5b505050506040513d601f19601f820116820180604052508101906111d09190613d49565b8251600090819061328690306370a0823160e01b6127fb565b9050600086600001516001600160a01b031663db006a75856040518263ffffffff1660e01b81526004016132ba919061404c565b602060405180830381600087803b1580156132d457600080fd5b505af11580156132e8573d6000803e3d6000fd5b505050506040513d601f19601f8201168201806040525081019061330c9190613d49565b9050801561332c5760405162461bcd60e51b81526004016102e0906140f2565b855160009061334390306370a0823160e01b6127fb565b905061334f8184612a6d565b935061336087600001518786613090565b505050949350505050565b600080610cb46013612267565b6000806133a0846060015161339a866080015186612b8990919063ffffffff16565b906138ea565b91506133c1846060015161339a8660a0015186612b8990919063ffffffff16565b90509250929050565b6000806133de866040015161ffff16610d3c565b905060006004826060015160058111156133f457fe5b1461340f5761340a876040015161ffff16610d54565b613411565b815b9050600080876080015112156134845760048360600151600581111561343357fe5b1415613450576134496104588860800151611030565b9050613484565b600061347161083d89608001518b6101600151611a5490919063ffffffff16565b90506134806104588483611a7f565b9150505b60408701516000901561354357600061349d8430611abb565b905089600001516001600160a01b03166344f051088a600001518b602001518c604001518d60600151888e8e6040518863ffffffff1660e01b81526004016134eb9796959493929190613f31565b600060405180830381600087803b15801561350557600080fd5b505af1158015613519573d6000803e3d6000fd5b5050505060006135323086611abb90919063ffffffff16565b905061353e8183611b65565b925050505b818110156135de5780820360038460600151600581111561356057fe5b141561359e57348111156135865760405162461bcd60e51b81526004016102e090614139565b613596896000015182340361305a565b8291506135dc565b60006135c38a600001518c6040015161ffff166135ba8561109d565b889291906126b3565b90506135d86135d18261107d565b84906111d8565b9250505b505b818110156135fe5760405162461bcd60e51b81526004016102e090614139565b600060048560600151600581111561361257fe5b1461362d5760408a015161362890869084611b7a565b613636565b6136368261109d565b90506136428582611c7b565b9a9950505050505050505050565b600080610cb4600f612267565b600080613668613909565b60009384526020525050604090205490565b60006276a70082101561368c57600080fd5b506276a7008106900390565b600081600114156136ad57506276a700610d4f565b81600214156136c0575062ed4e00610d4f565b81600314156136d457506301da9c00610d4f565b81600414156136e857506303b53800610d4f565b81600514156136fc57506309450c00610d4f565b8160061415613710575063128a1800610d4f565b816007141561372457506325143000610d4f565b60405162461bcd60e51b81526004016102e090614198565b60008282018381101561064e576040805162461bcd60e51b815260206004820152601b60248201527f536166654d6174683a206164646974696f6e206f766572666c6f770000000000604482015290519081900360640190fd5b6000610cb46137a361336b565b5460405163d15e005360e01b81526001600160a01b039091169063d15e0053906137d1908690600401613f1d565b60206040518083038186803b1580156137e957600080fd5b505afa1580156137fd573d6000803e3d6000fd5b505050506040513d601f19601f82011682018060405250810190611c619190613d49565b604080516323b872dd60e01b81526001600160a01b038481166004830152306024830152604482018490529151918516916323b872dd9160648082019260009290919082900301818387803b1580156130e757600080fd5b6000613883613a2b565b3d801561389757602081146138a057600080fd5b600192506138ab565b60206000833e815192505b50816138e6576040805162461bcd60e51b8152602060048201526005602482015264045524332360dc1b604482015290519081900360640190fd5b5050565b60008082116138f857600080fd5b81838161390157fe5b049392505050565b600080610cb46009612267565b6040518060e001604052806000815260200160008152602001600015158152602001600081526020016000815260200160008152602001600081525090565b604051806060016040528060006001600160a01b0316815260200160008152602001600081525090565b60405180610180016040528060006001600160a01b03168152602001600061ffff168152602001600061ffff168152602001600081526020016000815260200160008152602001600081526020016000815260200160008152602001600081526020016139ea613a49565b81526020016139f7613955565b905290565b6040805160a0810182526000808252602082018190529181018290529060608201908152602001600081525090565b60405180602001604052806001906020820280368337509192915050565b60405180606001604052806003906020820280368337509192915050565b80356001600160a01b0381168114610d4f57600080fd5b60008083601f840112613a8f578081fd5b50813567ffffffffffffffff811115613aa6578182fd5b60208301915083602082850101111561081157600080fd5b80356001600160501b0381168114610d4f57600080fd5b600060208284031215613ae6578081fd5b61064e82613a67565b60008060408385031215613b01578081fd5b613b0a83613a67565b915060208301358015158114613b1e578182fd5b809150509250929050565b60008060008385036101c0811215613b3f578182fd5b613b4885613a67565b9350610180601f1982011215613b5c578182fd5b50602084019150613b706101a08501613abe565b90509250925092565b60008060408385031215613b8b578182fd5b613b9483613a67565b91506020830135613b1e81614736565b600080600060608486031215613bb8578283fd5b613bc184613a67565b92506020840135613bd181614736565b929592945050506040919091013590565b600080600060608486031215613bf6578283fd5b613bff84613a67565b92506020840135613c0f81614736565b9150613b7060408501613abe565b60008060408385031215613c2f578182fd5b613c3883613a67565b946020939093013593505050565b60008060008060008060a08789031215613c5e578182fd5b613c6787613a67565b9550613c7560208801613abe565b94506040870135935060608701359250608087013567ffffffffffffffff811115613c9e578283fd5b613caa89828a01613a7e565b979a9699509497509295939492505050565b600060208284031215613ccd578081fd5b815167ffffffffffffffff80821115613ce4578283fd5b818401915084601f830112613cf7578283fd5b815181811115613d0357fe5b604051601f8201601f191681016020018381118282101715613d2157fe5b604052818152838201602001871015613d38578485fd5b6127f182602083016020870161451d565b600060208284031215613d5a578081fd5b5051919050565b600060208284031215613d72578081fd5b813561064e81614736565b60008060008060808587031215613d92578182fd5b8435613d9d81614736565b935060208501359250604085013591506060850135613dbb81614749565b939692955090935050565b60008060008060008060a08789031215613dde578384fd5b8635613de981614736565b955060208701359450604087013593506060870135613e0781614749565b9250608087013567ffffffffffffffff811115613c9e578283fd5b60008060008060608587031215613e37578182fd5b8435935060208501359250604085013567ffffffffffffffff811115613e5b578283fd5b613e6787828801613a7e565b95989497509550505050565b600060208284031215613e84578081fd5b813561064e8161475b565b6001600160a01b03169052565b8060005b6003811015613ec357815161ffff16845260209384019390910190600101613ea0565b50505050565b60008284528282602086013780602084860101526020601f19601f85011685010190509392505050565b80516001600160a01b0316825260208082015190830152604090810151910152565b61ffff169052565b6001600160a01b0391909116815260200190565b600060018060a01b03808a16835280891660208401525086604083015285606083015284608083015260c060a0830152611d5460c083018486613ec9565b6001600160a01b0393841681526020810192909252909116604082015260600190565b6001600160a01b03948516815260208101939093529216604082015261ffff909116606082015260800190565b6001600160a01b039390931683526020830191909152604082015260600190565b600060018060a01b038716825285602083015284604083015260806060830152610879608083018486613ec9565b901515815260200190565b600060208252825180602084015261403881604085016020870161451d565b601f01601f19169190910160400192915050565b90815260200190565b918252602082015260400190565b60208082526011908201527052656465656d20616c6c20746f6b656e7360781b604082015260600190565b60208082526006908201526514185d5cd95960d21b604082015260600190565b6020808252600c908201526b155b985d5d1a1bdc9a5e995960a21b604082015260600190565b602080825260049082015263135a5b9d60e21b604082015260600190565b60208082526006908201526552656465656d60d01b604082015260600190565b6020808252600d908201526c556e7061696420426f72726f7760981b604082015260600190565b602080825260169082015275125b9cdd59999a58da595b9d081c995c185e5b595b9d60521b604082015260600190565b60208082526015908201527410d1ce881b9bc81b585c9ad95d1cc81b1a5cdd1959605a1b604082015260600190565b6020808252600d908201526c092dcecc2d8d2c840d2dcc8caf609b1b604082015260600190565b6020808252600c908201526b151c9859194811985a5b195960a21b604082015260600190565b6020808252600d908201526c43616e6e6f7420536574746c6560981b604082015260600190565b6020808252600c908201526b4d617820436170616369747960a01b604082015260600190565b60208082526016908201527510d1ce881b585c9ad95d081a5b99195e08189bdd5b9960521b604082015260600190565b60208082526010908201526f496e76616c69642043757272656e637960801b604082015260600190565b6020808252818101527f4f776e61626c653a2063616c6c6572206973206e6f7420746865206f776e6572604082015260600190565b60208082526017908201527f496e73756666696369656e7420436f6c6c61746572616c000000000000000000604082015260600190565b6020808252600e908201526d1499595b9d1c985b9d0818d85b1b60921b604082015260600190565b602080825260129082015271496e73756666696369656e7420526570617960701b604082015260600190565b60208082526013908201527210d1ce881b9bc81b585c9ad95d08199bdd5b99606a1b604082015260600190565b60006102008201905061438d828451613e8f565b602083015161439f6020840182613f15565b5060408301516143b26040840182613f15565b50606083015160608301526080830151608083015260a083015160a083015260c083015160c083015260e083015160e08301526101008084015181840152506101208084015181840152506101408084015161441082850182613e9c565b50506101608301516144266101a0840182613ef3565b5092915050565b600060e0820190508251825260208301516020830152604083015115156040830152606083015160608301526080830151608083015260a083015160a083015260c083015160c083015292915050565b6001600160801b0391909116815260200190565b61ffff929092168252602082015260400190565b600084825260406020830152612f5e604083018486613ec9565b81816000805b60038110156103a05783356144d981614736565b835461ffff6008850281811b801990931693909116901b1617835560209390930192600290910190601e82111561451557600091506001830192505b6001016144c5565b60005b83811015614538578181015183820152602001614520565b83811115613ec35750506000910152565b60008135610cb481614736565b60008135610cb481614749565b60008135610cb48161475b565b813561457b81614736565b61ffff811661ffff19835416178255506145a061459a60208401614549565b826146d8565b6145b56145af60408401614556565b826146f4565b6145ca6145c460608401614549565b82614718565b6145df6145d960808401614563565b82614645565b6145f46145ee60a08401614563565b82614662565b61460961460360c08401614563565b8261467f565b61461e61461860e08401614563565b8261469c565b61463461462e6101008401614549565b826146b9565b6138e66101208301600183016144bf565b805460ff60501b191660509290921b60ff60501b16919091179055565b805460ff60581b191660589290921b60ff60581b16919091179055565b805460ff60601b191660609290921b60ff60601b16919091179055565b805460ff60681b191660689290921b60ff60681b16919091179055565b805461ffff60701b191660709290921b61ffff60701b16919091179055565b805463ffff00008360101b1663ffff0000198216178255505050565b805467ffffffff000000008360201b1667ffffffff00000000198216178255505050565b805461ffff60401b8360401b1661ffff60401b198216178255505050565b61ffff8116811461474657600080fd5b50565b63ffffffff8116811461474657600080fd5b60ff8116811461474657600080fdfea264697066735822122052632b3cfc6c34818b40f59d86e7edc5ba41ed9a58ee1884120833ab93fcc7ef64736f6c63430007060033",
  "language": "Solidity",
  "natspec": {
    "kind": "dev",
    "methods": {
      "borrowSecondaryCurrencyToVault(uint16,uint256,uint256,uint32)": {
        "notice": "Allows a vault to borrow a secondary currency if it is whitelisted to do so",
        "params": {
          "currencyId": "currency id of the secondary currency",
          "fCashToBorrow": "amount of fCash to borrow",
          "maturity": "the maturity to borrow at",
          "maxBorrowRate": "maximum rate annualized rate to borrow"
        },
        "returns": {
          "underlyingTokensTransferred": "amount of tokens transferred back to the vault"
        }
      },
      "depositVaultCashToStrategyTokens(uint256,uint256,bytes)": {
        "notice": "Strategy vaults can call this method to deposit asset cash into strategy tokens.",
        "params": {
          "assetCashToDepositExternal": "the number of asset cash tokens to deposit (external)",
          "maturity": "the maturity of the vault where the redemption will take place",
          "vaultData": "arbitrary data to pass back to the vault for deposit"
        }
      },
      "getCashRequiredToSettle(address,uint256)": {
        "notice": "View method to get the current amount of cash remaining to settle the vault"
      },
      "getVaultConfig(address)": {
        "notice": "View Methods *"
      },
      "getVaultState(address,uint256)": {
        "notice": "View method to get vault state"
      },
      "redeemStrategyTokensToCash(uint256,uint256,bytes)": {
        "notice": "Strategy vaults can call this method to redeem strategy tokens to cash and hold them as asset cash within the pool. This should typically be used during settlement but can also be used for vault-wide deleveraging.",
        "params": {
          "maturity": "the maturity of the vault where the redemption will take place",
          "strategyTokensToRedeem": "the number of strategy tokens redeemed",
          "vaultData": "arbitrary data to pass back to the vault"
        },
        "returns": {
          "assetCashRequiredToSettle": "amount of asset cash still remaining to settle the debt",
          "underlyingCashRequiredToSettle": "amount of underlying cash still remaining to settle the debt"
        }
      },
      "reduceMaxBorrowCapacity(address,uint80,uint256,uint256,bytes)": {
        "notice": "Allows the owner to reduce the max borrow capacity on the vault and force the redemption of strategy tokens to cash to reduce the overall risk of the vault. This method is intended to be used in emergencies to mitigate insolvency risk.",
        "params": {
          "maturity": "the maturity to redeem tokens in, will generally be either the current maturity or the next maturity.",
          "maxVaultBorrowCapacity": "the new max vault borrow capacity on the primary currency",
          "strategyTokensToRedeem": "how many tokens we would want to redeem in the maturity",
          "vaultAddress": "address of the vault",
          "vaultData": "vault data to pass to the vault"
        }
      },
      "repaySecondaryCurrencyFromVault(uint16,uint256,uint256,uint32,bytes)": {
        "notice": "Allows a vault to repay a secondary currency that it has borrowed. Will be executed via a callback which will request that the vault repay a specific amount of underlying tokens.",
        "params": {
          "currencyId": "currency id of the secondary currency",
          "fCashToLend": "amount of fCash to lend",
          "maturity": "the maturity to lend at",
          "minLendRate": "minimum lend rate"
        },
        "returns": {
          "returnData": "arbitrary return data to pass back to the vault"
        }
      },
      "setVaultPauseStatus(address,bool)": {
        "notice": "Enables or disables a vault. If a vault is disabled, no one can enter the vault but exits are still possible.",
        "params": {
          "enable": "true if the vault should be enabled immediately",
          "vaultAddress": "address of deployed vault"
        }
      },
      "settleVault(address,uint256)": {
        "notice": "Settles a vault and sets the final settlement rates",
        "params": {
          "maturity": "the maturity of the vault",
          "vault": "the vault to settle"
        }
      },
      "updateSecondaryBorrowCapacity(address,uint16,uint80)": {
        "notice": "Whitelists a secondary borrow currency for a vault, vaults can borrow up to the capacity using the `borrowSecondaryCurrencyToVault` and `repaySecondaryCurrencyToVault` methods. Vaults that use a secondary currency must ALWAYS repay the secondary debt during redemption and handle accounting for the secondary currency themselves.",
        "params": {
          "maxBorrowCapacity": "maximum borrow capacity",
          "secondaryCurrencyId": "struct of vault configuration",
          "vaultAddress": "address of deployed vault"
        }
      },
      "updateVault(address,(uint16,uint16,uint32,uint16,uint8,uint8,uint8,uint8,uint16,uint16[3]),uint80)": {
        "notice": "Updates or lists a deployed vault along with its configuration.",
        "params": {
          "maxPrimaryBorrowCapacity": "maximum borrow capacity",
          "vaultAddress": "address of deployed vault",
          "vaultConfig": "struct of vault configuration"
        }
      }
    },
    "version": 1
  },
  "opcodes": "PUSH1 0x80 PUSH1 0x40 MSTORE CALLVALUE DUP1 ISZERO PUSH2 0x10 JUMPI PUSH1 0x0 DUP1 REVERT JUMPDEST POP PUSH1 0x4 CALLDATASIZE LT PUSH2 0x116 JUMPI PUSH1 0x0 CALLDATALOAD PUSH1 0xE0 SHR DUP1 PUSH4 0x83E50FB7 GT PUSH2 0xA2 JUMPI DUP1 PUSH4 0xCCE97876 GT PUSH2 0x71 JUMPI DUP1 PUSH4 0xCCE97876 EQ PUSH2 0x226 JUMPI DUP1 PUSH4 0xD04C16AC EQ PUSH2 0x246 JUMPI DUP1 PUSH4 0xD6DDEB9A EQ PUSH2 0x259 JUMPI DUP1 PUSH4 0xDE1EB9A3 EQ PUSH2 0x26C JUMPI DUP1 PUSH4 0xEE01436B EQ PUSH2 0x28C JUMPI PUSH2 0x116 JUMP JUMPDEST DUP1 PUSH4 0x83E50FB7 EQ PUSH2 0x1E3 JUMPI DUP1 PUSH4 0x8DA5CB5B EQ PUSH2 0x203 JUMPI DUP1 PUSH4 0xA14DB57C EQ PUSH2 0x20B JUMPI DUP1 PUSH4 0xC4C96DAE EQ PUSH2 0x21E JUMPI PUSH2 0x116 JUMP JUMPDEST DUP1 PUSH4 0x51479E39 GT PUSH2 0xE9 JUMPI DUP1 PUSH4 0x51479E39 EQ PUSH2 0x181 JUMPI DUP1 PUSH4 0x56F428C4 EQ PUSH2 0x194 JUMPI DUP1 PUSH4 0x67515776 EQ PUSH2 0x1A7 JUMPI DUP1 PUSH4 0x6C346C09 EQ PUSH2 0x1C8 JUMPI DUP1 PUSH4 0x82463367 EQ PUSH2 0x1DB JUMPI PUSH2 0x116 JUMP JUMPDEST DUP1 PUSH4 0x24A3D622 EQ PUSH2 0x11B JUMPI DUP1 PUSH4 0x291AFDF3 EQ PUSH2 0x139 JUMPI DUP1 PUSH4 0x295E6B7F EQ PUSH2 0x14E JUMPI DUP1 PUSH4 0x31572281 EQ PUSH2 0x161 JUMPI JUMPDEST PUSH1 0x0 DUP1 REVERT JUMPDEST PUSH2 0x123 PUSH2 0x29F JUMP JUMPDEST PUSH1 0x40 MLOAD PUSH2 0x130 SWAP2 SWAP1 PUSH2 0x3F1D JUMP JUMPDEST PUSH1 0x40 MLOAD DUP1 SWAP2 SUB SWAP1 RETURN JUMPDEST PUSH2 0x14C PUSH2 0x147 CALLDATASIZE PUSH1 0x4 PUSH2 0x3BE2 JUMP JUMPDEST PUSH2 0x2AE JUMP JUMPDEST STOP JUMPDEST PUSH2 0x14C PUSH2 0x15C CALLDATASIZE PUSH1 0x4 PUSH2 0x3C1D JUMP JUMPDEST PUSH2 0x3A8 JUMP JUMPDEST PUSH2 0x174 PUSH2 0x16F CALLDATASIZE PUSH1 0x4 PUSH2 0x3C1D JUMP JUMPDEST PUSH2 0x63C JUMP JUMPDEST PUSH1 0x40 MLOAD PUSH2 0x130 SWAP2 SWAP1 PUSH2 0x442D JUMP JUMPDEST PUSH2 0x14C PUSH2 0x18F CALLDATASIZE PUSH1 0x4 PUSH2 0x3B29 JUMP JUMPDEST PUSH2 0x655 JUMP JUMPDEST PUSH2 0x14C PUSH2 0x1A2 CALLDATASIZE PUSH1 0x4 PUSH2 0x3AEF JUMP JUMPDEST PUSH2 0x70C JUMP JUMPDEST PUSH2 0x1BA PUSH2 0x1B5 CALLDATASIZE PUSH1 0x4 PUSH2 0x3B79 JUMP JUMPDEST PUSH2 0x78D JUMP JUMPDEST PUSH1 0x40 MLOAD PUSH2 0x130 SWAP3 SWAP2 SWAP1 PUSH2 0x4055 JUMP JUMPDEST PUSH2 0x1BA PUSH2 0x1D6 CALLDATASIZE PUSH1 0x4 PUSH2 0x3C1D JUMP JUMPDEST PUSH2 0x7DD JUMP JUMPDEST PUSH2 0x123 PUSH2 0x818 JUMP JUMPDEST PUSH2 0x1F6 PUSH2 0x1F1 CALLDATASIZE PUSH1 0x4 PUSH2 0x3D7D JUMP JUMPDEST PUSH2 0x827 JUMP JUMPDEST PUSH1 0x40 MLOAD PUSH2 0x130 SWAP2 SWAP1 PUSH2 0x404C JUMP JUMPDEST PUSH2 0x123 PUSH2 0x884 JUMP JUMPDEST PUSH2 0x1F6 PUSH2 0x219 CALLDATASIZE PUSH1 0x4 PUSH2 0x3BA4 JUMP JUMPDEST PUSH2 0x89B JUMP JUMPDEST PUSH2 0x123 PUSH2 0x8E7 JUMP JUMPDEST PUSH2 0x239 PUSH2 0x234 CALLDATASIZE PUSH1 0x4 PUSH2 0x3DC6 JUMP JUMPDEST PUSH2 0x8FF JUMP JUMPDEST PUSH1 0x40 MLOAD PUSH2 0x130 SWAP2 SWAP1 PUSH2 0x4019 JUMP JUMPDEST PUSH2 0x14C PUSH2 0x254 CALLDATASIZE PUSH1 0x4 PUSH2 0x3E22 JUMP JUMPDEST PUSH2 0xAE4 JUMP JUMPDEST PUSH2 0x14C PUSH2 0x267 CALLDATASIZE PUSH1 0x4 PUSH2 0x3C46 JUMP JUMPDEST PUSH2 0xC3D JUMP JUMPDEST PUSH2 0x27F PUSH2 0x27A CALLDATASIZE PUSH1 0x4 PUSH2 0x3AD5 JUMP JUMPDEST PUSH2 0xCA3 JUMP JUMPDEST PUSH1 0x40 MLOAD PUSH2 0x130 SWAP2 SWAP1 PUSH2 0x4379 JUMP JUMPDEST PUSH2 0x1BA PUSH2 0x29A CALLDATASIZE PUSH1 0x4 PUSH2 0x3E22 JUMP JUMPDEST PUSH2 0xCBA JUMP JUMPDEST PUSH1 0x2 SLOAD PUSH1 0x1 PUSH1 0x1 PUSH1 0xA0 SHL SUB AND DUP2 JUMP JUMPDEST PUSH1 0x0 SLOAD PUSH5 0x100000000 SWAP1 DIV PUSH1 0x1 PUSH1 0x1 PUSH1 0xA0 SHL SUB AND CALLER EQ PUSH2 0x2E9 JUMPI PUSH1 0x40 MLOAD PUSH3 0x461BCD PUSH1 0xE5 SHL DUP2 MSTORE PUSH1 0x4 ADD PUSH2 0x2E0 SWAP1 PUSH2 0x428C JUMP JUMPDEST PUSH1 0x40 MLOAD DUP1 SWAP2 SUB SWAP1 REVERT JUMPDEST PUSH1 0x0 PUSH2 0x2F4 DUP5 PUSH2 0xD0D JUMP JUMPDEST SWAP1 POP PUSH1 0x0 PUSH2 0x305 DUP5 PUSH2 0xFFFF AND PUSH2 0xD3C JUMP JUMPDEST SWAP1 POP PUSH1 0x0 PUSH2 0x316 DUP6 PUSH2 0xFFFF AND PUSH2 0xD54 JUMP JUMPDEST SWAP1 POP DUP2 PUSH1 0x20 ADD MLOAD ISZERO DUP1 ISZERO PUSH2 0x32C JUMPI POP DUP1 PUSH1 0x20 ADD MLOAD ISZERO JUMPDEST PUSH2 0x335 JUMPI PUSH1 0x0 DUP1 REVERT JUMPDEST PUSH2 0x140 DUP4 ADD MLOAD MLOAD PUSH2 0xFFFF DUP7 DUP2 AND SWAP2 AND EQ DUP1 PUSH2 0x35F JUMPI POP PUSH2 0x140 DUP4 ADD MLOAD PUSH1 0x20 ADD MLOAD PUSH2 0xFFFF DUP7 DUP2 AND SWAP2 AND EQ JUMPDEST DUP1 PUSH2 0x379 JUMPI POP PUSH2 0x140 DUP4 ADD MLOAD PUSH1 0x40 ADD MLOAD PUSH2 0xFFFF DUP7 DUP2 AND SWAP2 AND EQ JUMPDEST PUSH2 0x395 JUMPI PUSH1 0x40 MLOAD PUSH3 0x461BCD PUSH1 0xE5 SHL DUP2 MSTORE PUSH1 0x4 ADD PUSH2 0x2E0 SWAP1 PUSH2 0x4262 JUMP JUMPDEST PUSH2 0x3A0 DUP7 DUP7 DUP7 PUSH2 0xD67 JUMP JUMPDEST POP POP POP POP POP POP JUMP JUMPDEST PUSH1 0x2 PUSH1 0xA SLOAD EQ ISZERO PUSH2 0x3CB JUMPI PUSH1 0x40 MLOAD PUSH3 0x461BCD PUSH1 0xE5 SHL DUP2 MSTORE PUSH1 0x4 ADD PUSH2 0x2E0 SWAP1 PUSH2 0x42F8 JUMP JUMPDEST PUSH1 0x2 PUSH1 0xA SSTORE PUSH1 0x0 PUSH2 0x3DB DUP4 PUSH2 0xD0D JUMP JUMPDEST SWAP1 POP PUSH2 0x3E9 DUP2 CALLER PUSH1 0x40 PUSH2 0xDBB JUMP JUMPDEST PUSH1 0x0 PUSH2 0x3F5 DUP5 DUP5 PUSH2 0xE25 JUMP JUMPDEST SWAP1 POP TIMESTAMP DUP4 GT ISZERO DUP1 ISZERO PUSH2 0x409 JUMPI POP PUSH1 0x40 DUP2 ADD MLOAD ISZERO JUMPDEST PUSH2 0x425 JUMPI PUSH1 0x40 MLOAD PUSH3 0x461BCD PUSH1 0xE5 SHL DUP2 MSTORE PUSH1 0x4 ADD PUSH2 0x2E0 SWAP1 PUSH2 0x41E5 JUMP JUMPDEST PUSH1 0x0 PUSH2 0x43A DUP4 PUSH1 0x40 ADD MLOAD PUSH2 0xFFFF AND DUP6 TIMESTAMP PUSH2 0xEC0 JUMP JUMPDEST SWAP1 POP PUSH1 0x0 PUSH2 0x45D PUSH2 0x458 PUSH2 0x451 DUP6 PUSH1 0x20 ADD MLOAD PUSH2 0x1030 JUMP JUMPDEST DUP5 SWAP1 PUSH2 0x103E JUMP JUMPDEST PUSH2 0x107D JUMP JUMPDEST SWAP1 POP PUSH1 0x0 PUSH2 0x469 PUSH2 0x1090 JUMP JUMPDEST PUSH1 0x1 PUSH1 0x1 PUSH1 0xA0 SHL SUB DUP9 AND PUSH1 0x0 SWAP1 DUP2 MSTORE PUSH1 0x20 SWAP2 DUP3 MSTORE PUSH1 0x40 DUP1 DUP3 KECCAK256 DUP10 DUP4 MSTORE SWAP1 SWAP3 MSTORE KECCAK256 PUSH2 0x140 DUP7 ADD MLOAD MLOAD SWAP1 SWAP2 POP PUSH2 0xFFFF AND ISZERO PUSH2 0x4DC JUMPI PUSH2 0x140 DUP6 ADD MLOAD MLOAD PUSH2 0xFFFF AND PUSH1 0x0 SWAP1 DUP2 MSTORE PUSH1 0x20 DUP3 SWAP1 MSTORE PUSH1 0x40 SWAP1 KECCAK256 SLOAD PUSH1 0x1 PUSH1 0x1 PUSH1 0x50 SHL SUB AND ISZERO PUSH2 0x4DC JUMPI PUSH1 0x40 MLOAD PUSH3 0x461BCD PUSH1 0xE5 SHL DUP2 MSTORE PUSH1 0x4 ADD PUSH2 0x2E0 SWAP1 PUSH2 0x4112 JUMP JUMPDEST PUSH2 0x140 DUP6 ADD MLOAD PUSH1 0x20 ADD MLOAD PUSH2 0xFFFF AND ISZERO PUSH2 0x533 JUMPI PUSH2 0x140 DUP6 ADD MLOAD PUSH1 0x20 SWAP1 DUP2 ADD MLOAD PUSH2 0xFFFF AND PUSH1 0x0 SWAP1 DUP2 MSTORE SWAP1 DUP3 SWAP1 MSTORE PUSH1 0x40 SWAP1 KECCAK256 SLOAD PUSH1 0x1 PUSH1 0x1 PUSH1 0x50 SHL SUB AND ISZERO PUSH2 0x533 JUMPI PUSH1 0x40 MLOAD PUSH3 0x461BCD PUSH1 0xE5 SHL DUP2 MSTORE PUSH1 0x4 ADD PUSH2 0x2E0 SWAP1 PUSH2 0x4112 JUMP JUMPDEST PUSH2 0x140 DUP6 ADD MLOAD PUSH1 0x40 ADD MLOAD PUSH2 0xFFFF AND ISZERO PUSH2 0x588 JUMPI PUSH2 0x140 DUP6 ADD MLOAD PUSH1 0x40 SWAP1 DUP2 ADD MLOAD PUSH2 0xFFFF AND PUSH1 0x0 SWAP1 DUP2 MSTORE PUSH1 0x20 DUP4 SWAP1 MSTORE KECCAK256 SLOAD PUSH1 0x1 PUSH1 0x1 PUSH1 0x50 SHL SUB AND ISZERO PUSH2 0x588 JUMPI PUSH1 0x40 MLOAD PUSH3 0x461BCD PUSH1 0xE5 SHL DUP2 MSTORE PUSH1 0x4 ADD PUSH2 0x2E0 SWAP1 PUSH2 0x4112 JUMP JUMPDEST DUP2 DUP5 PUSH1 0x80 ADD MLOAD LT ISZERO PUSH2 0x605 JUMPI PUSH1 0xA0 DUP5 ADD MLOAD ISZERO PUSH2 0x5B6 JUMPI PUSH1 0x40 MLOAD PUSH3 0x461BCD PUSH1 0xE5 SHL DUP2 MSTORE PUSH1 0x4 ADD PUSH2 0x2E0 SWAP1 PUSH2 0x4063 JUMP JUMPDEST PUSH1 0x0 PUSH2 0x5C7 DUP6 PUSH1 0x80 ADD MLOAD DUP5 SUB PUSH2 0x109D JUMP JUMPDEST SWAP1 POP PUSH1 0x0 PUSH2 0x5E1 PUSH2 0x458 DUP9 PUSH1 0x0 ADD MLOAD DUP10 PUSH1 0x40 ADD MLOAD DUP6 PUSH2 0x10B3 JUMP JUMPDEST PUSH1 0x80 DUP8 ADD MLOAD SWAP1 SWAP2 POP PUSH2 0x5F3 SWAP1 DUP3 PUSH2 0x11D8 JUMP JUMPDEST PUSH1 0x80 DUP8 ADD MSTORE PUSH2 0x602 DUP7 DUP11 PUSH2 0x11EA JUMP JUMPDEST POP POP JUMPDEST PUSH2 0x620 DUP8 DUP7 PUSH1 0x40 ADD MLOAD PUSH2 0x61B DUP8 PUSH1 0x20 ADD MLOAD PUSH2 0x1030 JUMP JUMPDEST PUSH2 0x1300 JUMP JUMPDEST POP PUSH2 0x62E DUP5 DUP7 DUP6 DUP10 TIMESTAMP PUSH2 0x13BF JUMP JUMPDEST POP POP PUSH1 0x1 PUSH1 0xA SSTORE POP POP POP POP POP JUMP JUMPDEST PUSH2 0x644 PUSH2 0x3916 JUMP JUMPDEST PUSH2 0x64E DUP4 DUP4 PUSH2 0xE25 JUMP JUMPDEST SWAP4 SWAP3 POP POP POP JUMP JUMPDEST PUSH1 0x0 SLOAD PUSH5 0x100000000 SWAP1 DIV PUSH1 0x1 PUSH1 0x1 PUSH1 0xA0 SHL SUB AND CALLER EQ PUSH2 0x687 JUMPI PUSH1 0x40 MLOAD PUSH3 0x461BCD PUSH1 0xE5 SHL DUP2 MSTORE PUSH1 0x4 ADD PUSH2 0x2E0 SWAP1 PUSH2 0x428C JUMP JUMPDEST PUSH2 0x691 DUP4 DUP4 PUSH2 0x1525 JUMP JUMPDEST PUSH2 0x6AB DUP4 PUSH2 0x6A5 PUSH1 0x40 DUP6 ADD PUSH1 0x20 DUP7 ADD PUSH2 0x3D61 JUMP JUMPDEST DUP4 PUSH2 0xD67 JUMP JUMPDEST PUSH1 0x0 PUSH1 0x1 DUP1 PUSH2 0x6BD PUSH1 0x20 DUP7 ADD DUP7 PUSH2 0x3D61 JUMP JUMPDEST AND PUSH2 0xFFFF AND EQ SWAP1 POP DUP4 PUSH1 0x1 PUSH1 0x1 PUSH1 0xA0 SHL SUB AND PUSH32 0xBE3A36B9889E71D651C5E46A9D6A110C243E04A771BD479378FEEC68718985AA DUP3 PUSH1 0x40 MLOAD PUSH2 0x6FE SWAP2 SWAP1 PUSH2 0x400E JUMP JUMPDEST PUSH1 0x40 MLOAD DUP1 SWAP2 SUB SWAP1 LOG2 POP POP POP POP JUMP JUMPDEST PUSH1 0x0 SLOAD PUSH5 0x100000000 SWAP1 DIV PUSH1 0x1 PUSH1 0x1 PUSH1 0xA0 SHL SUB AND CALLER EQ PUSH2 0x73E JUMPI PUSH1 0x40 MLOAD PUSH3 0x461BCD PUSH1 0xE5 SHL DUP2 MSTORE PUSH1 0x4 ADD PUSH2 0x2E0 SWAP1 PUSH2 0x428C JUMP JUMPDEST PUSH2 0x748 DUP3 DUP3 PUSH2 0x16EB JUMP JUMPDEST DUP2 PUSH1 0x1 PUSH1 0x1 PUSH1 0xA0 SHL SUB AND PUSH32 0x7C51C6AA77346C54CB051D9E792F9B7BDE5C28A9B57E6FB2D2DD727B38438CA9 DUP3 PUSH1 0x40 MLOAD PUSH2 0x781 SWAP2 SWAP1 PUSH2 0x400E JUMP JUMPDEST PUSH1 0x40 MLOAD DUP1 SWAP2 SUB SWAP1 LOG2 POP POP JUMP JUMPDEST PUSH1 0x0 DUP1 PUSH1 0x0 PUSH2 0x79A PUSH2 0x174B JUMP JUMPDEST PUSH1 0x1 PUSH1 0x1 PUSH1 0xA0 SHL SUB SWAP1 SWAP6 AND PUSH1 0x0 SWAP1 DUP2 MSTORE PUSH1 0x20 SWAP6 DUP7 MSTORE PUSH1 0x40 DUP1 DUP3 KECCAK256 PUSH2 0xFFFF SWAP1 SWAP7 AND DUP3 MSTORE SWAP5 SWAP1 SWAP6 MSTORE POP POP POP SWAP1 KECCAK256 SLOAD PUSH1 0x1 PUSH1 0x1 PUSH1 0x50 SHL SUB PUSH1 0x1 PUSH1 0x50 SHL DUP3 DIV DUP2 AND SWAP3 SWAP2 AND SWAP1 JUMP JUMPDEST PUSH1 0x0 DUP1 PUSH1 0x0 PUSH2 0x7EB DUP6 PUSH2 0x1758 JUMP JUMPDEST SWAP1 POP PUSH1 0x0 PUSH2 0x7FD DUP3 PUSH1 0x0 ADD MLOAD DUP7 PUSH2 0xE25 JUMP JUMPDEST SWAP1 POP PUSH2 0x80A DUP3 DUP3 DUP8 PUSH2 0x177C JUMP JUMPDEST SWAP4 POP SWAP4 POP POP POP JUMPDEST SWAP3 POP SWAP3 SWAP1 POP JUMP JUMPDEST PUSH1 0x1 SLOAD PUSH1 0x1 PUSH1 0x1 PUSH1 0xA0 SHL SUB AND DUP2 JUMP JUMPDEST PUSH1 0x0 DUP1 PUSH1 0x0 PUSH2 0x848 DUP8 DUP8 PUSH2 0x842 PUSH2 0x83D DUP10 PUSH2 0x109D JUMP JUMPDEST PUSH2 0x1030 JUMP JUMPDEST DUP8 PUSH2 0x1835 JUMP JUMPDEST SWAP2 POP SWAP2 POP PUSH1 0x0 DUP3 SGT PUSH2 0x86C JUMPI PUSH1 0x40 MLOAD PUSH3 0x461BCD PUSH1 0xE5 SHL DUP2 MSTORE PUSH1 0x4 ADD PUSH2 0x2E0 SWAP1 PUSH2 0x41BF JUMP JUMPDEST DUP1 MLOAD PUSH2 0x879 SWAP1 DUP9 DUP5 PUSH2 0x18DD JUMP JUMPDEST SWAP8 SWAP7 POP POP POP POP POP POP POP JUMP JUMPDEST PUSH1 0x0 SLOAD PUSH5 0x100000000 SWAP1 DIV PUSH1 0x1 PUSH1 0x1 PUSH1 0xA0 SHL SUB AND DUP2 JUMP JUMPDEST PUSH1 0x0 DUP1 PUSH2 0x8A6 PUSH2 0x1090 JUMP JUMPDEST PUSH1 0x1 PUSH1 0x1 PUSH1 0xA0 SHL SUB SWAP1 SWAP6 AND PUSH1 0x0 SWAP1 DUP2 MSTORE PUSH1 0x20 SWAP6 DUP7 MSTORE PUSH1 0x40 DUP1 DUP3 KECCAK256 SWAP5 DUP3 MSTORE SWAP4 DUP7 MSTORE DUP4 DUP2 KECCAK256 PUSH2 0xFFFF SWAP1 SWAP6 AND DUP2 MSTORE SWAP4 SWAP1 SWAP5 MSTORE POP SWAP1 KECCAK256 SLOAD PUSH1 0x1 PUSH1 0x1 PUSH1 0x50 SHL SUB AND SWAP2 SWAP1 POP JUMP JUMPDEST PUSH20 0x0 SWAP1 JUMP JUMPDEST PUSH1 0x60 PUSH1 0x0 DUP1 PUSH2 0x90D DUP8 PUSH2 0x109D JUMP JUMPDEST SWAP1 POP PUSH2 0x917 PUSH2 0x3955 JUMP JUMPDEST TIMESTAMP DUP10 GT ISZERO PUSH2 0x944 JUMPI PUSH2 0x927 PUSH2 0x397F JUMP JUMPDEST PUSH2 0x933 DUP12 DUP12 DUP6 DUP12 PUSH2 0x1835 JUMP JUMPDEST PUSH2 0x160 ADD MLOAD SWAP1 SWAP5 POP SWAP2 POP PUSH2 0x980 SWAP1 POP JUMP JUMPDEST PUSH2 0x953 DUP11 PUSH2 0xFFFF AND DUP11 TIMESTAMP PUSH2 0xEC0 JUMP JUMPDEST SWAP1 POP PUSH2 0x962 PUSH2 0x83D DUP3 DUP5 PUSH2 0x103E JUMP JUMPDEST SWAP3 POP PUSH2 0x970 CALLER DUP12 DUP12 DUP6 PUSH2 0x1985 JUMP JUMPDEST PUSH2 0x97D DUP11 PUSH2 0xFFFF AND PUSH2 0x1A08 JUMP JUMPDEST SWAP1 POP JUMPDEST PUSH1 0x0 PUSH2 0x98F DUP12 PUSH2 0xFFFF AND PUSH2 0xD3C JUMP JUMPDEST SWAP1 POP PUSH1 0x0 DUP1 PUSH1 0x4 DUP4 PUSH1 0x60 ADD MLOAD PUSH1 0x5 DUP2 GT ISZERO PUSH2 0x9A6 JUMPI INVALID JUMPDEST EQ PUSH2 0x9BD JUMPI PUSH2 0x9B8 DUP14 PUSH2 0xFFFF AND PUSH2 0xD54 JUMP JUMPDEST PUSH2 0x9BF JUMP JUMPDEST DUP3 JUMPDEST SWAP1 POP PUSH1 0x0 PUSH2 0x9DD PUSH2 0x458 PUSH2 0x9D6 PUSH2 0x83D DUP9 DUP12 PUSH2 0x1A54 JUMP JUMPDEST DUP5 SWAP1 PUSH2 0x1A7F JUMP JUMPDEST SWAP1 POP PUSH1 0x0 PUSH2 0x9EB DUP4 ADDRESS PUSH2 0x1ABB JUMP JUMPDEST PUSH1 0x40 MLOAD PUSH3 0xE8D8D PUSH1 0xEA SHL DUP2 MSTORE SWAP1 SWAP2 POP CALLER SWAP1 PUSH4 0x3A363400 SWAP1 PUSH2 0xA14 SWAP1 DUP6 SWAP1 DUP16 SWAP1 DUP16 SWAP1 PUSH1 0x4 ADD PUSH2 0x44A5 JUMP JUMPDEST PUSH1 0x0 PUSH1 0x40 MLOAD DUP1 DUP4 SUB DUP2 PUSH1 0x0 DUP8 DUP1 EXTCODESIZE ISZERO DUP1 ISZERO PUSH2 0xA2E JUMPI PUSH1 0x0 DUP1 REVERT JUMPDEST POP GAS CALL ISZERO DUP1 ISZERO PUSH2 0xA42 JUMPI RETURNDATASIZE PUSH1 0x0 DUP1 RETURNDATACOPY RETURNDATASIZE PUSH1 0x0 REVERT JUMPDEST POP POP POP POP PUSH1 0x40 MLOAD RETURNDATASIZE PUSH1 0x0 DUP3 RETURNDATACOPY PUSH1 0x1F RETURNDATASIZE SWAP1 DUP2 ADD PUSH1 0x1F NOT AND DUP3 ADD PUSH1 0x40 MSTORE PUSH2 0xA6A SWAP2 SWAP1 DUP2 ADD SWAP1 PUSH2 0x3CBC JUMP JUMPDEST SWAP9 POP PUSH1 0x0 PUSH2 0xA78 DUP5 ADDRESS PUSH2 0x1ABB JUMP JUMPDEST SWAP1 POP PUSH2 0xA84 DUP2 DUP4 PUSH2 0x1B65 JUMP JUMPDEST SWAP5 POP DUP3 DUP6 LT ISZERO PUSH2 0xAA6 JUMPI PUSH1 0x40 MLOAD PUSH3 0x461BCD PUSH1 0xE5 SHL DUP2 MSTORE PUSH1 0x4 ADD PUSH2 0x2E0 SWAP1 PUSH2 0x4320 JUMP JUMPDEST POP PUSH1 0x4 SWAP3 POP PUSH2 0xAB3 SWAP2 POP POP JUMP JUMPDEST DUP3 PUSH1 0x60 ADD MLOAD PUSH1 0x5 DUP2 GT ISZERO PUSH2 0xAC3 JUMPI INVALID JUMPDEST EQ PUSH2 0xAD5 JUMPI PUSH2 0xAD3 DUP3 DUP14 DUP4 PUSH2 0x1B7A JUMP JUMPDEST POP JUMPDEST POP POP POP POP POP SWAP7 SWAP6 POP POP POP POP POP POP JUMP JUMPDEST PUSH1 0x2 PUSH1 0xA SLOAD EQ ISZERO PUSH2 0xB07 JUMPI PUSH1 0x40 MLOAD PUSH3 0x461BCD PUSH1 0xE5 SHL DUP2 MSTORE PUSH1 0x4 ADD PUSH2 0x2E0 SWAP1 PUSH2 0x42F8 JUMP JUMPDEST PUSH1 0x2 PUSH1 0xA SSTORE PUSH1 0x0 PUSH2 0xB17 CALLER PUSH2 0xD0D JUMP JUMPDEST SWAP1 POP PUSH2 0xB24 DUP2 PUSH1 0x80 PUSH2 0x1C66 JUMP JUMPDEST ISZERO PUSH2 0xB2F JUMPI PUSH1 0x1 PUSH1 0xA SSTORE JUMPDEST PUSH2 0xB3A DUP2 PUSH1 0x1 PUSH2 0x1C66 JUMP JUMPDEST PUSH2 0xB56 JUMPI PUSH1 0x40 MLOAD PUSH3 0x461BCD PUSH1 0xE5 SHL DUP2 MSTORE PUSH1 0x4 ADD PUSH2 0x2E0 SWAP1 PUSH2 0x408E JUMP JUMPDEST PUSH1 0x0 PUSH2 0xB62 CALLER DUP8 PUSH2 0xE25 JUMP JUMPDEST SWAP1 POP PUSH1 0x0 PUSH2 0xB77 DUP4 PUSH1 0x40 ADD MLOAD PUSH2 0xFFFF AND PUSH2 0xD3C JUMP JUMPDEST SWAP1 POP PUSH1 0x0 PUSH2 0xB8E PUSH2 0xB87 DUP9 PUSH2 0x109D JUMP JUMPDEST DUP4 SWAP1 PUSH2 0x1C7B JUMP JUMPDEST DUP5 MLOAD SWAP1 SWAP2 POP PUSH1 0x0 SWAP1 PUSH2 0xBA6 SWAP1 DUP7 SWAP1 DUP5 DUP13 DUP6 DUP13 DUP13 PUSH2 0x1CAB JUMP JUMPDEST SWAP1 POP PUSH2 0xBBF PUSH2 0xBB4 DUP4 PUSH2 0x107D JUMP JUMPDEST PUSH1 0x80 DUP7 ADD MLOAD SWAP1 PUSH2 0x1B65 JUMP JUMPDEST PUSH1 0x80 DUP6 ADD MSTORE PUSH1 0xA0 DUP5 ADD MLOAD PUSH2 0xBD3 SWAP1 DUP3 PUSH2 0x11D8 JUMP JUMPDEST PUSH1 0xA0 DUP6 ADD MSTORE PUSH2 0xBE2 DUP5 CALLER PUSH2 0x11EA JUMP JUMPDEST PUSH1 0x0 PUSH2 0xC05 DUP6 CALLER DUP8 PUSH1 0x60 ADD MLOAD DUP9 PUSH1 0x20 ADD MLOAD DUP11 PUSH2 0x1D61 SWAP1 SWAP5 SWAP4 SWAP3 SWAP2 SWAP1 PUSH4 0xFFFFFFFF AND JUMP JUMPDEST POP SWAP1 POP DUP1 DUP7 PUSH1 0xA0 ADD MLOAD SGT ISZERO PUSH2 0xC2C JUMPI PUSH1 0x40 MLOAD PUSH3 0x461BCD PUSH1 0xE5 SHL DUP2 MSTORE PUSH1 0x4 ADD PUSH2 0x2E0 SWAP1 PUSH2 0x42C1 JUMP JUMPDEST POP POP PUSH1 0x1 PUSH1 0xA SSTORE POP POP POP POP POP POP POP POP JUMP JUMPDEST PUSH1 0x0 SLOAD PUSH5 0x100000000 SWAP1 DIV PUSH1 0x1 PUSH1 0x1 PUSH1 0xA0 SHL SUB AND CALLER EQ PUSH2 0xC6F JUMPI PUSH1 0x40 MLOAD PUSH3 0x461BCD PUSH1 0xE5 SHL DUP2 MSTORE PUSH1 0x4 ADD PUSH2 0x2E0 SWAP1 PUSH2 0x428C JUMP JUMPDEST PUSH1 0x0 PUSH2 0xC7A DUP8 PUSH2 0xD0D JUMP JUMPDEST SWAP1 POP PUSH2 0xC8B DUP8 DUP3 PUSH1 0x40 ADD MLOAD DUP9 PUSH2 0xD67 JUMP JUMPDEST PUSH2 0xC98 DUP2 DUP7 DUP7 DUP7 DUP7 PUSH2 0x1DC9 JUMP JUMPDEST POP POP POP POP POP POP POP POP POP JUMP JUMPDEST PUSH2 0xCAB PUSH2 0x397F JUMP JUMPDEST PUSH2 0xCB4 DUP3 PUSH2 0x1758 JUMP JUMPDEST SWAP3 SWAP2 POP POP JUMP JUMPDEST PUSH1 0x0 DUP1 PUSH1 0x0 PUSH2 0xCC8 CALLER PUSH2 0xD0D JUMP JUMPDEST SWAP1 POP PUSH2 0xCD5 DUP2 PUSH1 0x1 PUSH2 0x1C66 JUMP JUMPDEST PUSH2 0xCF1 JUMPI PUSH1 0x40 MLOAD PUSH3 0x461BCD PUSH1 0xE5 SHL DUP2 MSTORE PUSH1 0x4 ADD PUSH2 0x2E0 SWAP1 PUSH2 0x408E JUMP JUMPDEST PUSH2 0xCFE DUP2 DUP9 DUP9 DUP9 DUP9 PUSH2 0x1DC9 JUMP JUMPDEST SWAP3 POP SWAP3 POP POP JUMPDEST SWAP5 POP SWAP5 SWAP3 POP POP POP JUMP JUMPDEST PUSH2 0xD15 PUSH2 0x397F JUMP JUMPDEST PUSH2 0xD1E DUP3 PUSH2 0x1E95 JUMP JUMPDEST SWAP1 POP PUSH2 0xD31 DUP2 PUSH1 0x40 ADD MLOAD PUSH2 0xFFFF AND PUSH2 0x1A08 JUMP JUMPDEST PUSH2 0x160 DUP3 ADD MSTORE SWAP2 SWAP1 POP JUMP JUMPDEST PUSH2 0xD44 PUSH2 0x39FC JUMP JUMPDEST PUSH2 0xCB4 DUP3 PUSH1 0x0 PUSH2 0x2014 JUMP JUMPDEST SWAP2 SWAP1 POP JUMP JUMPDEST PUSH2 0xD5C PUSH2 0x39FC JUMP JUMPDEST PUSH2 0xCB4 DUP3 PUSH1 0x1 PUSH2 0x2014 JUMP JUMPDEST PUSH1 0x0 PUSH2 0xD71 PUSH2 0x174B JUMP JUMPDEST PUSH1 0x1 PUSH1 0x1 PUSH1 0xA0 SHL SUB SWAP1 SWAP5 AND PUSH1 0x0 SWAP1 DUP2 MSTORE PUSH1 0x20 SWAP5 DUP6 MSTORE PUSH1 0x40 DUP1 DUP3 KECCAK256 PUSH2 0xFFFF SWAP1 SWAP6 AND DUP3 MSTORE SWAP4 SWAP1 SWAP5 MSTORE POP SWAP2 KECCAK256 DUP1 SLOAD PUSH1 0x1 PUSH1 0x1 PUSH1 0x50 SHL SUB SWAP1 SWAP3 AND PUSH1 0x1 PUSH1 0x1 PUSH1 0x50 SHL SUB NOT SWAP1 SWAP3 AND SWAP2 SWAP1 SWAP2 OR SWAP1 SSTORE JUMP JUMPDEST PUSH2 0xDC5 DUP4 DUP3 PUSH2 0x1C66 JUMP JUMPDEST ISZERO PUSH2 0xDF8 JUMPI DUP3 MLOAD PUSH1 0x1 PUSH1 0x1 PUSH1 0xA0 SHL SUB AND CALLER EQ PUSH2 0xDF3 JUMPI PUSH1 0x40 MLOAD PUSH3 0x461BCD PUSH1 0xE5 SHL DUP2 MSTORE PUSH1 0x4 ADD PUSH2 0x2E0 SWAP1 PUSH2 0x40AE JUMP JUMPDEST PUSH2 0xE20 JUMP JUMPDEST PUSH1 0x1 PUSH1 0x1 PUSH1 0xA0 SHL SUB DUP3 AND CALLER EQ PUSH2 0xE20 JUMPI PUSH1 0x40 MLOAD PUSH3 0x461BCD PUSH1 0xE5 SHL DUP2 MSTORE PUSH1 0x4 ADD PUSH2 0x2E0 SWAP1 PUSH2 0x40AE JUMP JUMPDEST POP POP POP JUMP JUMPDEST PUSH2 0xE2D PUSH2 0x3916 JUMP JUMPDEST PUSH1 0x0 PUSH2 0xE37 PUSH2 0x20C2 JUMP JUMPDEST PUSH1 0x1 PUSH1 0x1 PUSH1 0xA0 SHL SUB SWAP1 SWAP5 AND PUSH1 0x0 SWAP1 DUP2 MSTORE PUSH1 0x20 SWAP5 DUP6 MSTORE PUSH1 0x40 DUP1 DUP3 KECCAK256 DUP6 DUP4 MSTORE DUP7 MSTORE DUP1 DUP3 KECCAK256 SWAP5 DUP5 MSTORE DUP5 SLOAD PUSH1 0x1 PUSH1 0x1 PUSH1 0x50 SHL SUB DUP1 DUP3 AND SWAP1 SWAP4 SUB SWAP7 DUP6 ADD SWAP7 SWAP1 SWAP7 MSTORE PUSH1 0xFF PUSH1 0x1 PUSH1 0xF0 SHL DUP8 DIV AND ISZERO ISZERO SWAP1 DUP5 ADD MSTORE PUSH1 0x1 PUSH1 0x50 SHL DUP1 DUP7 DIV DUP3 AND PUSH1 0x80 DUP6 ADD MSTORE PUSH1 0x1 SWAP1 SWAP5 ADD SLOAD DUP1 DUP3 AND PUSH1 0xA0 DUP6 ADD MSTORE PUSH1 0x1 PUSH1 0xA0 SHL SWAP1 SWAP6 DIV AND PUSH1 0x60 DUP4 ADD MSTORE POP SWAP2 DIV PUSH1 0x9 SWAP1 DUP2 SIGNEXTEND SWAP1 SIGNEXTEND PUSH1 0xC0 DUP3 ADD MSTORE SWAP1 JUMP JUMPDEST PUSH2 0xEC8 PUSH2 0x3955 JUMP JUMPDEST PUSH1 0x0 DUP1 PUSH2 0xED5 DUP7 DUP7 PUSH2 0x20CF JUMP JUMPDEST SWAP2 POP SWAP2 POP DUP2 PUSH1 0x0 EQ ISZERO PUSH2 0x1005 JUMPI PUSH1 0x0 PUSH2 0xEED DUP8 PUSH2 0x2118 JUMP JUMPDEST SWAP2 SWAP5 POP SWAP1 SWAP3 POP SWAP1 POP PUSH1 0x1 PUSH1 0x1 PUSH1 0xA0 SHL SUB DUP2 AND ISZERO PUSH2 0x1003 JUMPI PUSH1 0x0 PUSH2 0xF0E PUSH2 0x21DB JUMP JUMPDEST SWAP1 POP DUP6 PUSH1 0x0 LT DUP1 ISZERO PUSH2 0xF20 JUMPI POP DUP6 DUP8 GT ISZERO JUMPDEST DUP1 ISZERO PUSH2 0xF31 JUMPI POP PUSH5 0xFFFFFFFFFF DUP7 GT ISZERO JUMPDEST PUSH2 0xF3A JUMPI PUSH1 0x0 DUP1 REVERT JUMPDEST DUP4 PUSH1 0x0 SLT DUP1 ISZERO PUSH2 0xF51 JUMPI POP PUSH1 0x1 PUSH1 0x1 PUSH1 0x80 SHL SUB DUP5 SGT ISZERO JUMPDEST PUSH2 0xF5A JUMPI PUSH1 0x0 DUP1 REVERT JUMPDEST PUSH1 0x0 DUP9 DUP2 MSTORE PUSH1 0x20 DUP3 DUP2 MSTORE PUSH1 0x40 DUP1 DUP4 KECCAK256 DUP11 DUP5 MSTORE SWAP1 SWAP2 MSTORE SWAP1 DUP2 SWAP1 KECCAK256 DUP1 SLOAD PUSH5 0xFFFFFFFFFF NOT AND PUSH5 0xFFFFFFFFFF DUP10 AND OR PUSH21 0xFFFFFFFFFFFFFFFFFFFFFFFFFFFFFFFF0000000000 NOT AND PUSH6 0x10000000000 PUSH1 0x1 PUSH1 0x1 PUSH1 0x80 SHL SUB DUP9 AND MUL OR PUSH1 0xFF PUSH1 0xA8 SHL NOT AND PUSH1 0x1 PUSH1 0xA8 SHL PUSH1 0xFF DUP8 AND MUL OR DUP2 SSTORE SWAP1 MLOAD DUP9 SWAP1 DUP11 SWAP1 PUSH32 0xFDFA6885701E2F1F42E4187B9231CF81C1FE23671EF64FA46F34DDB56C1DC18 SWAP1 PUSH2 0xFF8 SWAP1 DUP10 SWAP1 PUSH2 0x447D JUMP JUMPDEST PUSH1 0x40 MLOAD DUP1 SWAP2 SUB SWAP1 LOG3 POP POP JUMPDEST POP JUMPDEST PUSH1 0x40 DUP1 MLOAD PUSH1 0x60 DUP2 ADD DUP3 MSTORE PUSH1 0x0 DUP2 MSTORE PUSH1 0x20 DUP2 ADD SWAP4 SWAP1 SWAP4 MSTORE PUSH1 0xFF SWAP1 SWAP2 AND PUSH1 0xA EXP SWAP1 DUP3 ADD MSTORE SWAP1 POP SWAP4 SWAP3 POP POP POP JUMP JUMPDEST PUSH1 0x0 PUSH2 0xCB4 PUSH1 0x0 NOT DUP4 PUSH2 0x21E8 JUMP JUMPDEST PUSH1 0x0 DUP1 PUSH2 0x1075 DUP5 PUSH1 0x20 ADD MLOAD PUSH2 0x106F DUP7 PUSH1 0x40 ADD MLOAD PUSH2 0x1069 PUSH5 0x2540BE400 DUP9 PUSH2 0x21E8 SWAP1 SWAP2 SWAP1 PUSH4 0xFFFFFFFF AND JUMP JUMPDEST SWAP1 PUSH2 0x21E8 JUMP JUMPDEST SWAP1 PUSH2 0x2236 JUMP JUMPDEST SWAP5 SWAP4 POP POP POP POP JUMP JUMPDEST PUSH1 0x0 DUP1 DUP3 SLT ISZERO PUSH2 0x108C JUMPI PUSH1 0x0 DUP1 REVERT JUMPDEST POP SWAP1 JUMP JUMPDEST PUSH1 0x0 DUP1 PUSH2 0xCB4 PUSH1 0x18 PUSH2 0x2267 JUMP JUMPDEST PUSH1 0x0 PUSH1 0x1 PUSH1 0x1 PUSH1 0xFF SHL SUB DUP3 GT ISZERO PUSH2 0x108C JUMPI PUSH1 0x0 DUP1 REVERT JUMPDEST PUSH1 0x0 PUSH2 0x10C0 DUP5 PUSH1 0x0 PUSH2 0x16EB JUMP JUMPDEST DUP4 PUSH1 0x1 PUSH1 0x1 PUSH1 0xA0 SHL SUB AND PUSH32 0x7C51C6AA77346C54CB051D9E792F9B7BDE5C28A9B57E6FB2D2DD727B38438CA9 PUSH1 0x0 PUSH1 0x40 MLOAD PUSH2 0x10FA SWAP2 SWAP1 PUSH2 0x400E JUMP JUMPDEST PUSH1 0x40 MLOAD DUP1 SWAP2 SUB SWAP1 LOG2 DUP4 PUSH1 0x1 PUSH1 0x1 PUSH1 0xA0 SHL SUB AND DUP4 PUSH2 0xFFFF AND PUSH32 0x49F3652D4BD58DF659A52593175FACF1A718295F3F4BEA635367F06D424A8958 DUP5 PUSH1 0x40 MLOAD PUSH2 0x1140 SWAP2 SWAP1 PUSH2 0x404C JUMP JUMPDEST PUSH1 0x40 MLOAD DUP1 SWAP2 SUB SWAP1 LOG3 PUSH1 0x0 PUSH2 0x1159 PUSH1 0x0 DUP6 PUSH2 0xFFFF AND PUSH2 0x2280 JUMP JUMPDEST POP POP POP SWAP1 POP DUP1 DUP4 SGT PUSH2 0x1179 JUMPI PUSH2 0x1171 DUP5 DUP5 DUP4 SUB PUSH2 0x2329 JUMP JUMPDEST DUP3 SWAP2 POP PUSH2 0x11D0 JUMP JUMPDEST PUSH2 0x1184 DUP5 PUSH1 0x0 PUSH2 0x2329 JUMP JUMPDEST DUP5 PUSH1 0x1 PUSH1 0x1 PUSH1 0xA0 SHL SUB AND DUP5 PUSH2 0xFFFF AND PUSH32 0x9982BA522274FA0CC3EE3B56025595A76649B07F4B8A39F0BD8E546CA0F9646F DUP4 DUP7 SUB PUSH1 0x40 MLOAD PUSH2 0x11C4 SWAP2 SWAP1 PUSH2 0x404C JUMP JUMPDEST PUSH1 0x40 MLOAD DUP1 SWAP2 SUB SWAP1 LOG3 DUP1 SWAP2 POP JUMPDEST POP SWAP4 SWAP3 POP POP POP JUMP JUMPDEST PUSH1 0x0 DUP3 DUP3 ADD DUP4 DUP2 LT ISZERO PUSH2 0x64E JUMPI PUSH1 0x0 DUP1 REVERT JUMPDEST PUSH1 0x0 PUSH2 0x11F4 PUSH2 0x20C2 JUMP JUMPDEST PUSH1 0x1 PUSH1 0x1 PUSH1 0xA0 SHL SUB DUP4 AND PUSH1 0x0 SWAP1 DUP2 MSTORE PUSH1 0x20 DUP3 DUP2 MSTORE PUSH1 0x40 DUP1 DUP4 KECCAK256 DUP8 MLOAD DUP5 MSTORE SWAP1 SWAP2 MSTORE SWAP1 DUP2 SWAP1 KECCAK256 SWAP1 DUP6 ADD MLOAD SWAP2 SWAP3 POP SWAP1 ISZERO PUSH2 0x122A JUMPI PUSH1 0x0 DUP1 REVERT JUMPDEST PUSH2 0x1242 PUSH2 0x123D PUSH2 0x458 DUP7 PUSH1 0x20 ADD MLOAD PUSH2 0x1030 JUMP JUMPDEST PUSH2 0x2380 JUMP JUMPDEST DUP2 SLOAD PUSH1 0x1 PUSH1 0x1 PUSH1 0x50 SHL SUB NOT AND PUSH1 0x1 PUSH1 0x1 PUSH1 0x50 SHL SUB SWAP2 SWAP1 SWAP2 AND OR DUP2 SSTORE PUSH1 0x80 DUP5 ADD MLOAD PUSH2 0x126B SWAP1 PUSH2 0x2380 JUMP JUMPDEST DUP2 SLOAD PUSH1 0x1 PUSH1 0x1 PUSH1 0x50 SHL SUB SWAP2 SWAP1 SWAP2 AND PUSH1 0x1 PUSH1 0x50 SHL MUL PUSH10 0xFFFFFFFFFFFFFFFFFFFF PUSH1 0x50 SHL NOT SWAP1 SWAP2 AND OR DUP2 SSTORE PUSH1 0xA0 DUP5 ADD MLOAD PUSH2 0x12A2 SWAP1 PUSH2 0x2380 JUMP JUMPDEST PUSH1 0x1 DUP3 ADD DUP1 SLOAD PUSH1 0x1 PUSH1 0x1 PUSH1 0x50 SHL SUB NOT AND PUSH1 0x1 PUSH1 0x1 PUSH1 0x50 SHL SUB SWAP3 SWAP1 SWAP3 AND SWAP2 SWAP1 SWAP2 OR SWAP1 SSTORE PUSH1 0x60 DUP5 ADD MLOAD PUSH2 0x12D2 SWAP1 PUSH2 0x2380 JUMP JUMPDEST DUP2 SLOAD PUSH1 0x1 PUSH1 0x1 PUSH1 0x50 SHL SUB SWAP2 SWAP1 SWAP2 AND PUSH1 0x1 PUSH1 0xA0 SHL MUL PUSH10 0xFFFFFFFFFFFFFFFFFFFF PUSH1 0xA0 SHL NOT SWAP1 SWAP2 AND OR SWAP1 SSTORE POP POP POP JUMP JUMPDEST PUSH1 0x0 DUP1 PUSH2 0x130B PUSH2 0x174B JUMP JUMPDEST PUSH1 0x1 PUSH1 0x1 PUSH1 0xA0 SHL SUB DUP7 AND PUSH1 0x0 SWAP1 DUP2 MSTORE PUSH1 0x20 SWAP2 DUP3 MSTORE PUSH1 0x40 DUP1 DUP3 KECCAK256 PUSH2 0xFFFF DUP9 AND DUP4 MSTORE SWAP1 SWAP3 MSTORE KECCAK256 DUP1 SLOAD SWAP1 SWAP2 POP PUSH2 0x134E SWAP1 PUSH1 0x1 PUSH1 0x50 SHL SWAP1 DIV PUSH1 0x1 PUSH1 0x1 PUSH1 0x50 SHL SUB AND DUP5 PUSH2 0x2396 JUMP JUMPDEST SWAP2 POP PUSH1 0x0 DUP4 SLT ISZERO PUSH2 0x1383 JUMPI DUP1 SLOAD PUSH1 0x1 PUSH1 0x1 PUSH1 0x50 SHL SUB AND DUP3 SGT ISZERO PUSH2 0x1383 JUMPI PUSH1 0x40 MLOAD PUSH3 0x461BCD PUSH1 0xE5 SHL DUP2 MSTORE PUSH1 0x4 ADD PUSH2 0x2E0 SWAP1 PUSH2 0x420C JUMP JUMPDEST PUSH2 0x138F PUSH2 0x123D DUP4 PUSH2 0x107D JUMP JUMPDEST DUP2 SLOAD PUSH1 0x1 PUSH1 0x1 PUSH1 0x50 SHL SUB SWAP2 SWAP1 SWAP2 AND PUSH1 0x1 PUSH1 0x50 SHL MUL PUSH10 0xFFFFFFFFFFFFFFFFFFFF PUSH1 0x50 SHL NOT SWAP1 SWAP2 AND OR SWAP1 SSTORE SWAP4 SWAP3 POP POP POP JUMP JUMPDEST PUSH1 0x0 PUSH2 0x13C9 PUSH2 0x20C2 JUMP JUMPDEST DUP6 MLOAD PUSH1 0x1 PUSH1 0x1 PUSH1 0xA0 SHL SUB AND PUSH1 0x0 SWAP1 DUP2 MSTORE PUSH1 0x20 DUP3 DUP2 MSTORE PUSH1 0x40 DUP1 DUP4 KECCAK256 DUP8 DUP5 MSTORE SWAP1 SWAP2 MSTORE SWAP1 KECCAK256 DUP1 SLOAD SWAP2 SWAP3 POP SWAP1 PUSH1 0x1 PUSH1 0xF0 SHL SWAP1 DIV PUSH1 0xFF AND ISZERO PUSH2 0x1405 JUMPI PUSH1 0x0 DUP1 REVERT JUMPDEST DUP3 DUP5 GT ISZERO PUSH2 0x1412 JUMPI PUSH1 0x0 DUP1 REVERT JUMPDEST PUSH1 0x40 DUP7 ADD MLOAD DUP7 MLOAD PUSH1 0x0 SWAP2 PUSH2 0x142C SWAP2 DUP1 PUSH4 0x5F5E100 DUP10 PUSH2 0x23AC JUMP JUMPDEST DUP3 SLOAD PUSH1 0xFF PUSH1 0xF0 SHL NOT AND PUSH1 0x1 PUSH1 0xF0 SHL OR DUP4 SSTORE SWAP1 POP PUSH2 0x1448 DUP2 PUSH2 0x2466 JUMP JUMPDEST DUP3 PUSH1 0x1 ADD PUSH1 0xA PUSH2 0x100 EXP DUP2 SLOAD DUP2 PUSH1 0x1 PUSH1 0x1 PUSH1 0x50 SHL SUB MUL NOT AND SWAP1 DUP4 PUSH1 0x9 SIGNEXTEND PUSH1 0x1 PUSH1 0x1 PUSH1 0x50 SHL SUB AND MUL OR SWAP1 SSTORE POP PUSH1 0x0 PUSH2 0x147D PUSH2 0x2496 JUMP JUMPDEST DUP9 MLOAD PUSH1 0x1 PUSH1 0x1 PUSH1 0xA0 SHL SUB AND PUSH1 0x0 SWAP1 DUP2 MSTORE PUSH1 0x20 SWAP2 DUP3 MSTORE PUSH1 0x40 DUP1 DUP3 KECCAK256 DUP10 DUP4 MSTORE DUP4 MSTORE SWAP1 KECCAK256 PUSH1 0x1 DUP6 ADD SLOAD DUP2 SLOAD PUSH1 0x1 PUSH1 0x1 PUSH1 0x50 SHL SUB NOT AND PUSH1 0x1 PUSH1 0x1 PUSH1 0x50 SHL SUB SWAP1 SWAP2 AND OR DUP2 SSTORE SWAP1 DUP11 ADD MLOAD SWAP1 SWAP2 POP PUSH2 0x14EF SWAP1 PUSH2 0x14EA SWAP1 PUSH2 0x14D7 SWAP1 DUP11 SWAP1 PUSH2 0x103E JUMP JUMPDEST PUSH2 0x14E4 DUP13 PUSH1 0x80 ADD MLOAD PUSH2 0x109D JUMP JUMPDEST SWAP1 PUSH2 0x24A3 JUMP JUMPDEST PUSH2 0x2466 JUMP JUMPDEST DUP2 SLOAD PUSH1 0x9 SWAP2 SWAP1 SWAP2 SIGNEXTEND PUSH1 0x1 PUSH1 0x1 PUSH1 0x50 SHL SUB AND PUSH1 0x1 PUSH1 0x50 SHL MUL PUSH10 0xFFFFFFFFFFFFFFFFFFFF PUSH1 0x50 SHL NOT SWAP1 SWAP2 AND OR SWAP1 SSTORE POP POP POP POP POP POP POP POP JUMP JUMPDEST PUSH1 0x0 PUSH2 0x152F PUSH2 0x24B9 JUMP JUMPDEST SWAP1 POP PUSH2 0x1541 PUSH1 0xC0 DUP4 ADD PUSH1 0xA0 DUP5 ADD PUSH2 0x3E73 JUMP JUMPDEST PUSH1 0xFF AND PUSH1 0x64 SGT ISZERO PUSH2 0x1551 JUMPI PUSH1 0x0 DUP1 REVERT JUMPDEST PUSH1 0x64 PUSH2 0x1563 PUSH1 0xE0 DUP5 ADD PUSH1 0xC0 DUP6 ADD PUSH2 0x3E73 JUMP JUMPDEST PUSH1 0xFF AND SGT ISZERO PUSH2 0x1571 JUMPI PUSH1 0x0 DUP1 REVERT JUMPDEST PUSH2 0x1582 PUSH2 0x100 DUP4 ADD PUSH1 0xE0 DUP5 ADD PUSH2 0x3E73 JUMP JUMPDEST PUSH1 0xFF AND PUSH2 0x158E JUMPI PUSH1 0x0 DUP1 REVERT JUMPDEST PUSH2 0x15A0 PUSH2 0x120 DUP4 ADD PUSH2 0x100 DUP5 ADD PUSH2 0x3D61 JUMP JUMPDEST PUSH2 0xFFFF AND PUSH2 0x15B4 PUSH1 0x80 DUP5 ADD PUSH1 0x60 DUP6 ADD PUSH2 0x3D61 JUMP JUMPDEST PUSH2 0xFFFF AND LT PUSH2 0x15C2 JUMPI PUSH1 0x0 DUP1 REVERT JUMPDEST PUSH2 0x15D4 PUSH2 0x140 DUP4 ADD PUSH2 0x120 DUP5 ADD PUSH2 0x3D61 JUMP JUMPDEST PUSH2 0xFFFF AND PUSH2 0x15E8 PUSH1 0x40 DUP5 ADD PUSH1 0x20 DUP6 ADD PUSH2 0x3D61 JUMP JUMPDEST PUSH2 0xFFFF AND EQ ISZERO PUSH2 0x15F7 JUMPI PUSH1 0x0 DUP1 REVERT JUMPDEST PUSH2 0x1609 PUSH2 0x160 DUP4 ADD PUSH2 0x140 DUP5 ADD PUSH2 0x3D61 JUMP JUMPDEST PUSH2 0xFFFF AND PUSH2 0x161D PUSH1 0x40 DUP5 ADD PUSH1 0x20 DUP6 ADD PUSH2 0x3D61 JUMP JUMPDEST PUSH2 0xFFFF AND EQ ISZERO PUSH2 0x162C JUMPI PUSH1 0x0 DUP1 REVERT JUMPDEST PUSH2 0x163E PUSH2 0x180 DUP4 ADD PUSH2 0x160 DUP5 ADD PUSH2 0x3D61 JUMP JUMPDEST PUSH2 0xFFFF AND PUSH2 0x1652 PUSH1 0x40 DUP5 ADD PUSH1 0x20 DUP6 ADD PUSH2 0x3D61 JUMP JUMPDEST PUSH2 0xFFFF AND EQ ISZERO PUSH2 0x1661 JUMPI PUSH1 0x0 DUP1 REVERT JUMPDEST PUSH1 0x0 PUSH2 0x167F PUSH2 0x1676 PUSH1 0x40 DUP6 ADD PUSH1 0x20 DUP7 ADD PUSH2 0x3D61 JUMP JUMPDEST PUSH2 0xFFFF AND PUSH2 0xD3C JUMP JUMPDEST SWAP1 POP PUSH1 0x0 PUSH2 0x169F PUSH2 0x1696 PUSH1 0x40 DUP7 ADD PUSH1 0x20 DUP8 ADD PUSH2 0x3D61 JUMP JUMPDEST PUSH2 0xFFFF AND PUSH2 0xD54 JUMP JUMPDEST SWAP1 POP DUP2 PUSH1 0x20 ADD MLOAD ISZERO DUP1 ISZERO PUSH2 0x16B5 JUMPI POP DUP1 PUSH1 0x20 ADD MLOAD ISZERO JUMPDEST PUSH2 0x16BE JUMPI PUSH1 0x0 DUP1 REVERT JUMPDEST PUSH1 0x1 PUSH1 0x1 PUSH1 0xA0 SHL SUB DUP6 AND PUSH1 0x0 SWAP1 DUP2 MSTORE PUSH1 0x20 DUP5 SWAP1 MSTORE PUSH1 0x40 SWAP1 KECCAK256 DUP5 SWAP1 PUSH2 0x16E2 DUP3 DUP3 PUSH2 0x4570 JUMP JUMPDEST POP POP POP POP POP POP POP JUMP JUMPDEST PUSH1 0x0 PUSH2 0x16F5 PUSH2 0x24B9 JUMP JUMPDEST PUSH1 0x1 PUSH1 0x1 PUSH1 0xA0 SHL SUB DUP5 AND PUSH1 0x0 SWAP1 DUP2 MSTORE PUSH1 0x20 DUP3 SWAP1 MSTORE PUSH1 0x40 SWAP1 KECCAK256 DUP1 SLOAD SWAP2 SWAP3 POP SWAP1 PUSH2 0xFFFF AND DUP4 ISZERO PUSH2 0x1734 JUMPI DUP2 SLOAD PUSH2 0xFFFF NOT AND PUSH1 0x1 DUP3 OR PUSH2 0xFFFF AND OR DUP3 SSTORE PUSH2 0x1744 JUMP JUMPDEST DUP2 SLOAD PUSH2 0xFFFF NOT AND PUSH2 0xFFFE DUP3 AND OR DUP3 SSTORE JUMPDEST POP POP POP POP POP JUMP JUMPDEST PUSH1 0x0 DUP1 PUSH2 0xCB4 PUSH1 0x17 PUSH2 0x2267 JUMP JUMPDEST PUSH2 0x1760 PUSH2 0x397F JUMP JUMPDEST PUSH2 0x1769 DUP3 PUSH2 0x1E95 JUMP JUMPDEST SWAP1 POP PUSH2 0xD31 DUP2 PUSH1 0x40 ADD MLOAD PUSH2 0xFFFF AND PUSH2 0x24C6 JUMP JUMPDEST PUSH1 0x0 DUP1 PUSH1 0x0 PUSH2 0x1793 DUP7 PUSH1 0x40 ADD MLOAD PUSH2 0xFFFF AND DUP6 PUSH2 0x24DC JUMP JUMPDEST SWAP1 POP PUSH1 0x0 PUSH2 0x17BA PUSH2 0x83D PUSH2 0x17AA DUP9 PUSH1 0x80 ADD MLOAD PUSH2 0x109D JUMP JUMPDEST PUSH1 0x20 DUP10 ADD MLOAD PUSH2 0x14E4 SWAP1 DUP7 SWAP1 PUSH2 0x103E JUMP JUMPDEST SWAP1 POP PUSH1 0x0 PUSH2 0x17CF DUP9 PUSH1 0x40 ADD MLOAD PUSH2 0xFFFF AND PUSH2 0xD3C JUMP JUMPDEST SWAP1 POP PUSH2 0x17DB DUP2 DUP4 PUSH2 0x2539 JUMP JUMPDEST SWAP5 POP PUSH1 0x4 DUP2 PUSH1 0x60 ADD MLOAD PUSH1 0x5 DUP2 GT ISZERO PUSH2 0x17EF JUMPI INVALID JUMPDEST EQ ISZERO PUSH2 0x17FD JUMPI DUP5 SWAP4 POP PUSH2 0x182A JUMP JUMPDEST PUSH1 0x0 PUSH2 0x1810 DUP10 PUSH1 0x40 ADD MLOAD PUSH2 0xFFFF AND PUSH2 0xD54 JUMP JUMPDEST SWAP1 POP PUSH2 0x1826 PUSH2 0x181F DUP6 DUP6 PUSH2 0x1A54 JUMP JUMPDEST DUP3 SWAP1 PUSH2 0x1A7F JUMP JUMPDEST SWAP5 POP POP JUMPDEST POP POP POP SWAP4 POP SWAP4 SWAP2 POP POP JUMP JUMPDEST PUSH1 0x0 PUSH2 0x183F PUSH2 0x397F JUMP JUMPDEST PUSH2 0x1848 CALLER PUSH2 0xD0D JUMP JUMPDEST SWAP1 POP PUSH2 0x1855 DUP2 PUSH1 0x1 PUSH2 0x1C66 JUMP JUMPDEST PUSH2 0x1871 JUMPI PUSH1 0x40 MLOAD PUSH3 0x461BCD PUSH1 0xE5 SHL DUP2 MSTORE PUSH1 0x4 ADD PUSH2 0x2E0 SWAP1 PUSH2 0x408E JUMP JUMPDEST DUP1 PUSH1 0x40 ADD MLOAD PUSH2 0xFFFF AND DUP7 PUSH2 0xFFFF AND EQ ISZERO PUSH2 0x188A JUMPI PUSH1 0x0 DUP1 REVERT JUMPDEST PUSH2 0x1896 CALLER DUP8 DUP8 DUP8 PUSH2 0x1985 JUMP JUMPDEST PUSH2 0x18A9 DUP7 DUP7 DUP7 DUP7 DUP6 PUSH2 0x100 ADD MLOAD TIMESTAMP PUSH2 0x2571 JUMP JUMPDEST SWAP2 POP PUSH1 0x0 DUP5 SGT DUP1 ISZERO PUSH2 0x18B9 JUMPI POP DUP2 ISZERO JUMPDEST ISZERO PUSH2 0xD04 JUMPI PUSH2 0x160 DUP2 ADD MLOAD PUSH2 0x18D2 SWAP1 PUSH2 0x83D SWAP1 DUP7 PUSH2 0x103E JUMP JUMPDEST SWAP2 POP SWAP5 POP SWAP5 SWAP3 POP POP POP JUMP JUMPDEST PUSH1 0x0 DUP2 PUSH2 0x18EC JUMPI POP PUSH1 0x0 PUSH2 0x64E JUMP JUMPDEST PUSH1 0x0 DUP3 SGT PUSH2 0x18F9 JUMPI PUSH1 0x0 DUP1 REVERT JUMPDEST PUSH1 0x0 PUSH2 0x1908 DUP5 PUSH2 0xFFFF AND PUSH2 0xD3C JUMP JUMPDEST SWAP1 POP PUSH1 0x0 PUSH2 0x1916 DUP3 DUP6 PUSH2 0x2539 JUMP JUMPDEST SWAP1 POP PUSH1 0x4 DUP3 PUSH1 0x60 ADD MLOAD PUSH1 0x5 DUP2 GT ISZERO PUSH2 0x192A JUMPI INVALID JUMPDEST EQ ISZERO PUSH2 0x1958 JUMPI PUSH2 0x1951 PUSH2 0x458 PUSH2 0x83D DUP9 DUP9 PUSH2 0xFFFF AND PUSH2 0x1948 DUP7 PUSH2 0x1030 JUMP JUMPDEST DUP8 SWAP3 SWAP2 SWAP1 PUSH2 0x26B3 JUMP JUMPDEST SWAP3 POP PUSH2 0x197C JUMP JUMPDEST PUSH2 0x1979 PUSH2 0x458 PUSH2 0x83D DUP8 PUSH2 0xFFFF AND DUP10 PUSH2 0x1970 DUP7 PUSH2 0x107D JUMP JUMPDEST DUP8 SWAP3 SWAP2 SWAP1 PUSH2 0x275B JUMP JUMPDEST SWAP3 POP JUMPDEST POP POP SWAP4 SWAP3 POP POP POP JUMP JUMPDEST PUSH2 0x1990 DUP5 DUP5 DUP4 PUSH2 0x1300 JUMP JUMPDEST POP PUSH1 0x0 PUSH2 0x199B PUSH2 0x1090 JUMP JUMPDEST PUSH1 0x1 PUSH1 0x1 PUSH1 0xA0 SHL SUB DUP7 AND PUSH1 0x0 SWAP1 DUP2 MSTORE PUSH1 0x20 SWAP2 DUP3 MSTORE PUSH1 0x40 DUP1 DUP3 KECCAK256 DUP7 DUP4 MSTORE DUP4 MSTORE DUP1 DUP3 KECCAK256 PUSH2 0xFFFF DUP9 AND DUP4 MSTORE SWAP1 SWAP3 MSTORE KECCAK256 DUP1 SLOAD SWAP1 SWAP2 POP PUSH2 0x19E7 SWAP1 PUSH2 0x123D SWAP1 PUSH2 0x458 SWAP1 PUSH1 0x1 PUSH1 0x1 PUSH1 0x50 SHL SUB AND DUP6 PUSH2 0x2396 JUMP JUMPDEST DUP2 SLOAD PUSH1 0x1 PUSH1 0x1 PUSH1 0x50 SHL SUB NOT AND PUSH1 0x1 PUSH1 0x1 PUSH1 0x50 SHL SUB SWAP2 SWAP1 SWAP2 AND OR SWAP1 SSTORE POP POP POP POP JUMP JUMPDEST PUSH2 0x1A10 PUSH2 0x3955 JUMP JUMPDEST PUSH1 0x0 DUP1 PUSH1 0x0 PUSH2 0x1A1E DUP6 PUSH2 0x2118 JUMP JUMPDEST PUSH1 0x40 DUP1 MLOAD PUSH1 0x60 DUP2 ADD DUP3 MSTORE PUSH1 0x1 PUSH1 0x1 PUSH1 0xA0 SHL SUB SWAP1 SWAP4 AND DUP4 MSTORE PUSH1 0x20 DUP4 ADD SWAP4 SWAP1 SWAP4 MSTORE PUSH1 0xFF AND PUSH1 0xA EXP SWAP2 DUP2 ADD SWAP2 SWAP1 SWAP2 MSTORE SWAP4 POP POP POP POP SWAP2 SWAP1 POP JUMP JUMPDEST PUSH1 0x0 DUP1 PUSH2 0x1075 DUP5 PUSH1 0x40 ADD MLOAD PUSH2 0x106F PUSH5 0x2540BE400 PUSH2 0x106F DUP8 DUP10 PUSH1 0x20 ADD MLOAD PUSH2 0x21E8 SWAP1 SWAP2 SWAP1 PUSH4 0xFFFFFFFF AND JUMP JUMPDEST PUSH1 0x0 PUSH4 0x5F5E100 DUP4 PUSH1 0x40 ADD MLOAD SLT ISZERO PUSH2 0x1AA7 JUMPI PUSH2 0x1AA0 PUSH1 0x1 PUSH2 0x14E4 DUP6 DUP6 PUSH2 0x2539 JUMP JUMPDEST SWAP1 POP PUSH2 0xCB4 JUMP JUMPDEST PUSH2 0x64E DUP4 PUSH2 0x1AB6 DUP5 PUSH1 0x1 PUSH2 0x24A3 JUMP JUMPDEST PUSH2 0x2539 JUMP JUMPDEST PUSH1 0x0 PUSH1 0x3 DUP4 PUSH1 0x60 ADD MLOAD PUSH1 0x5 DUP2 GT ISZERO PUSH2 0x1ACF JUMPI INVALID JUMPDEST EQ ISZERO PUSH2 0x1AE6 JUMPI POP PUSH1 0x1 PUSH1 0x1 PUSH1 0xA0 SHL SUB DUP2 AND BALANCE PUSH2 0xCB4 JUMP JUMPDEST DUP3 MLOAD PUSH1 0x40 MLOAD PUSH4 0x70A08231 PUSH1 0xE0 SHL DUP2 MSTORE PUSH1 0x1 PUSH1 0x1 PUSH1 0xA0 SHL SUB SWAP1 SWAP2 AND SWAP1 PUSH4 0x70A08231 SWAP1 PUSH2 0x1B15 SWAP1 DUP6 SWAP1 PUSH1 0x4 ADD PUSH2 0x3F1D JUMP JUMPDEST PUSH1 0x20 PUSH1 0x40 MLOAD DUP1 DUP4 SUB DUP2 DUP7 DUP1 EXTCODESIZE ISZERO DUP1 ISZERO PUSH2 0x1B2D JUMPI PUSH1 0x0 DUP1 REVERT JUMPDEST POP GAS STATICCALL ISZERO DUP1 ISZERO PUSH2 0x1B41 JUMPI RETURNDATASIZE PUSH1 0x0 DUP1 RETURNDATACOPY RETURNDATASIZE PUSH1 0x0 REVERT JUMPDEST POP POP POP POP PUSH1 0x40 MLOAD RETURNDATASIZE PUSH1 0x1F NOT PUSH1 0x1F DUP3 ADD AND DUP3 ADD DUP1 PUSH1 0x40 MSTORE POP DUP2 ADD SWAP1 PUSH2 0x1AA0 SWAP2 SWAP1 PUSH2 0x3D49 JUMP JUMPDEST PUSH1 0x0 DUP3 DUP3 GT ISZERO PUSH2 0x1B74 JUMPI PUSH1 0x0 DUP1 REVERT JUMPDEST POP SWAP1 SUB SWAP1 JUMP JUMPDEST PUSH1 0x0 DUP1 PUSH1 0x5 DUP6 PUSH1 0x60 ADD MLOAD PUSH1 0x5 DUP2 GT ISZERO PUSH2 0x1B8F JUMPI INVALID JUMPDEST EQ PUSH2 0x1BA1 JUMPI PUSH4 0x70A08231 PUSH1 0xE0 SHL PUSH2 0x1BAA JUMP JUMPDEST PUSH4 0xED1279F PUSH1 0xE1 SHL JUMPDEST SWAP1 POP PUSH1 0x0 PUSH2 0x1BBD DUP7 PUSH1 0x0 ADD MLOAD ADDRESS DUP5 PUSH2 0x27FB JUMP JUMPDEST SWAP1 POP PUSH1 0x5 DUP7 PUSH1 0x60 ADD MLOAD PUSH1 0x5 DUP2 GT ISZERO PUSH2 0x1BD1 JUMPI INVALID JUMPDEST EQ ISZERO PUSH2 0x1BF8 JUMPI PUSH1 0x0 PUSH2 0x1BE6 DUP7 PUSH2 0xFFFF AND PUSH2 0xD54 JUMP JUMPDEST SWAP1 POP PUSH2 0x1BF2 DUP2 DUP7 PUSH2 0x290D JUMP JUMPDEST POP PUSH2 0x1C41 JUMP JUMPDEST PUSH1 0x1 DUP7 PUSH1 0x60 ADD MLOAD PUSH1 0x5 DUP2 GT ISZERO PUSH2 0x1C0A JUMPI INVALID JUMPDEST EQ ISZERO PUSH2 0x1C1F JUMPI PUSH2 0x1C1A DUP7 DUP6 PUSH2 0x2978 JUMP JUMPDEST PUSH2 0x1C41 JUMP JUMPDEST PUSH1 0x2 DUP7 PUSH1 0x60 ADD MLOAD PUSH1 0x5 DUP2 GT ISZERO PUSH2 0x1C31 JUMPI INVALID JUMPDEST EQ ISZERO PUSH2 0x116 JUMPI PUSH2 0x1C1A DUP7 DUP6 PUSH2 0x2A1A JUMP JUMPDEST PUSH1 0x0 PUSH2 0x1C52 DUP8 PUSH1 0x0 ADD MLOAD ADDRESS DUP6 PUSH2 0x27FB JUMP JUMPDEST SWAP1 POP PUSH2 0x879 PUSH2 0x1C61 DUP3 DUP5 PUSH2 0x2A6D JUMP JUMPDEST PUSH2 0x109D JUMP JUMPDEST PUSH1 0x20 SWAP2 SWAP1 SWAP2 ADD MLOAD DUP2 AND PUSH2 0xFFFF SWAP1 DUP2 AND SWAP2 AND EQ SWAP1 JUMP JUMPDEST PUSH1 0x0 PUSH4 0x5F5E100 DUP4 PUSH1 0x40 ADD MLOAD EQ ISZERO PUSH2 0x1C94 JUMPI POP DUP1 PUSH2 0xCB4 JUMP JUMPDEST PUSH1 0x40 DUP4 ADD MLOAD PUSH2 0x64E SWAP1 PUSH2 0x106F DUP5 PUSH4 0x5F5E100 PUSH2 0x21E8 JUMP JUMPDEST PUSH1 0x0 DUP1 PUSH2 0x1CC1 DUP10 PUSH1 0x0 ADD MLOAD DUP11 PUSH1 0x40 ADD MLOAD DUP10 PUSH2 0x18DD JUMP JUMPDEST DUP10 MLOAD SWAP1 SWAP2 POP PUSH1 0x1 PUSH1 0x1 PUSH1 0xA0 SHL SUB AND PUSH4 0xDC6679C5 DUP10 PUSH2 0x1CDF DUP5 DUP10 PUSH2 0x11D8 JUMP JUMPDEST DUP10 DUP9 DUP9 PUSH1 0x40 MLOAD DUP7 PUSH4 0xFFFFFFFF AND PUSH1 0xE0 SHL DUP2 MSTORE PUSH1 0x4 ADD PUSH2 0x1D02 SWAP6 SWAP5 SWAP4 SWAP3 SWAP2 SWAP1 PUSH2 0x3FE0 JUMP JUMPDEST PUSH1 0x20 PUSH1 0x40 MLOAD DUP1 DUP4 SUB DUP2 PUSH1 0x0 DUP8 DUP1 EXTCODESIZE ISZERO DUP1 ISZERO PUSH2 0x1D1C JUMPI PUSH1 0x0 DUP1 REVERT JUMPDEST POP GAS CALL ISZERO DUP1 ISZERO PUSH2 0x1D30 JUMPI RETURNDATASIZE PUSH1 0x0 DUP1 RETURNDATACOPY RETURNDATASIZE PUSH1 0x0 REVERT JUMPDEST POP POP POP POP PUSH1 0x40 MLOAD RETURNDATASIZE PUSH1 0x1F NOT PUSH1 0x1F DUP3 ADD AND DUP3 ADD DUP1 PUSH1 0x40 MSTORE POP DUP2 ADD SWAP1 PUSH2 0x1D54 SWAP2 SWAP1 PUSH2 0x3D49 JUMP JUMPDEST SWAP10 SWAP9 POP POP POP POP POP POP POP POP POP JUMP JUMPDEST PUSH1 0x0 DUP1 PUSH2 0x1D70 DUP7 DUP9 DUP8 DUP8 PUSH2 0x2AC4 JUMP JUMPDEST SWAP1 POP PUSH1 0x0 PUSH2 0x1D8C PUSH2 0x1D80 DUP6 PUSH2 0x1030 JUMP JUMPDEST PUSH2 0x160 DUP11 ADD MLOAD SWAP1 PUSH2 0x103E JUMP JUMPDEST SWAP1 POP PUSH1 0x0 PUSH2 0x1D9A DUP4 DUP4 PUSH2 0x2396 JUMP JUMPDEST SWAP1 POP DUP2 PUSH2 0x1DB0 JUMPI PUSH1 0x1 PUSH1 0x1 PUSH1 0xFF SHL SUB SWAP4 POP PUSH2 0x1DBD JUMP JUMPDEST PUSH2 0x1DBA DUP2 DUP4 PUSH2 0x2B29 JUMP JUMPDEST SWAP4 POP JUMPDEST POP POP SWAP6 POP SWAP6 SWAP4 POP POP POP POP JUMP JUMPDEST PUSH1 0x0 DUP1 PUSH1 0x2 PUSH1 0xA SLOAD EQ ISZERO PUSH2 0x1DEF JUMPI PUSH1 0x40 MLOAD PUSH3 0x461BCD PUSH1 0xE5 SHL DUP2 MSTORE PUSH1 0x4 ADD PUSH2 0x2E0 SWAP1 PUSH2 0x42F8 JUMP JUMPDEST PUSH1 0x2 PUSH1 0xA SSTORE PUSH2 0x1DFF DUP8 PUSH1 0x80 PUSH2 0x1C66 JUMP JUMPDEST ISZERO PUSH2 0x1E0A JUMPI PUSH1 0x1 PUSH1 0xA SSTORE JUMPDEST PUSH1 0x0 PUSH2 0x1E1A DUP9 PUSH1 0x0 ADD MLOAD DUP9 PUSH2 0xE25 JUMP JUMPDEST DUP9 MLOAD SWAP1 SWAP2 POP PUSH1 0x0 SWAP1 PUSH2 0x1E31 SWAP1 DUP11 SWAP1 DUP10 DUP12 DUP11 DUP11 PUSH2 0x2B42 JUMP JUMPDEST SWAP1 POP PUSH1 0x0 DUP2 SGT PUSH2 0x1E40 JUMPI PUSH1 0x0 DUP1 REVERT JUMPDEST PUSH1 0x80 DUP3 ADD MLOAD PUSH2 0x1E4F SWAP1 DUP3 PUSH2 0x11D8 JUMP JUMPDEST PUSH1 0x80 DUP4 ADD MSTORE PUSH1 0xA0 DUP3 ADD MLOAD PUSH2 0x1E63 SWAP1 DUP9 PUSH2 0x1B65 JUMP JUMPDEST PUSH1 0xA0 DUP4 ADD MSTORE DUP9 MLOAD PUSH2 0x1E75 SWAP1 DUP4 SWAP1 PUSH2 0x11EA JUMP JUMPDEST PUSH2 0x1E80 DUP10 DUP4 DUP11 PUSH2 0x177C JUMP JUMPDEST PUSH1 0x1 PUSH1 0xA SSTORE SWAP1 SWAP11 SWAP1 SWAP10 POP SWAP8 POP POP POP POP POP POP POP POP JUMP JUMPDEST PUSH2 0x1E9D PUSH2 0x397F JUMP JUMPDEST PUSH1 0x0 PUSH2 0x1EA7 PUSH2 0x24B9 JUMP JUMPDEST PUSH1 0x1 PUSH1 0x1 PUSH1 0xA0 SHL SUB DUP5 AND PUSH1 0x0 DUP2 DUP2 MSTORE PUSH1 0x20 DUP4 DUP2 MSTORE PUSH1 0x40 SWAP2 DUP3 SWAP1 KECCAK256 SWAP3 DUP7 MSTORE DUP3 SLOAD PUSH2 0xFFFF DUP1 DUP3 AND SWAP3 DUP9 ADD SWAP3 SWAP1 SWAP3 MSTORE PUSH3 0x10000 DUP2 DIV SWAP1 SWAP2 AND SWAP2 DUP7 ADD SWAP2 SWAP1 SWAP2 MSTORE SWAP2 SWAP3 POP SWAP1 PUSH2 0x1F08 SWAP1 PUSH4 0xFFFFFFFF PUSH5 0x100000000 SWAP1 SWAP2 DIV DUP2 AND SWAP1 PUSH4 0x5F5E100 SWAP1 PUSH2 0x21E8 AND JUMP JUMPDEST PUSH1 0x60 DUP5 ADD MSTORE DUP1 SLOAD PUSH2 0x1F26 SWAP1 PUSH1 0x1 PUSH1 0x50 SHL SWAP1 DIV PUSH1 0xFF AND PUSH3 0x7A120 PUSH2 0x2B89 JUMP JUMPDEST PUSH1 0x80 DUP5 ADD MSTORE DUP1 SLOAD PUSH2 0x1F4A SWAP1 PUSH9 0x10000000000000000 SWAP1 DIV PUSH2 0xFFFF AND PUSH3 0x186A0 PUSH2 0x2B89 JUMP JUMPDEST PUSH1 0xA0 DUP5 ADD MSTORE DUP1 SLOAD PUSH2 0x1F69 SWAP1 PUSH1 0x1 PUSH1 0x70 SHL SWAP1 DIV PUSH2 0xFFFF AND PUSH3 0x186A0 PUSH2 0x2B89 JUMP JUMPDEST PUSH2 0x120 DUP5 ADD MSTORE DUP1 SLOAD PUSH1 0x64 SWAP1 PUSH1 0xFF PUSH1 0x1 PUSH1 0x58 SHL SWAP1 SWAP2 DIV AND PUSH4 0x3B9ACA00 MUL SDIV PUSH1 0xC0 DUP5 ADD MSTORE DUP1 SLOAD PUSH1 0x1 PUSH1 0x60 SHL DUP2 DIV PUSH1 0xFF SWAP1 DUP2 AND PUSH1 0xE0 DUP7 ADD MSTORE PUSH1 0x1 PUSH1 0x68 SHL SWAP1 SWAP2 DIV AND PUSH2 0x100 DUP5 ADD MSTORE PUSH1 0x40 DUP1 MLOAD PUSH1 0x60 DUP2 ADD SWAP2 DUP3 SWAP1 MSTORE SWAP1 PUSH1 0x1 DUP4 ADD SWAP1 PUSH1 0x3 SWAP1 DUP3 PUSH1 0x0 DUP6 JUMPDEST DUP3 DUP3 SWAP1 SLOAD SWAP1 PUSH2 0x100 EXP SWAP1 DIV PUSH2 0xFFFF AND PUSH2 0xFFFF AND DUP2 MSTORE PUSH1 0x20 ADD SWAP1 PUSH1 0x2 ADD SWAP1 PUSH1 0x20 DUP3 PUSH1 0x1 ADD DIV SWAP3 DUP4 ADD SWAP3 PUSH1 0x1 SUB DUP3 MUL SWAP2 POP DUP1 DUP5 GT PUSH2 0x1FC7 JUMPI SWAP1 POP POP POP POP POP POP DUP4 PUSH2 0x140 ADD DUP2 SWAP1 MSTORE POP POP POP SWAP2 SWAP1 POP JUMP JUMPDEST PUSH2 0x201C PUSH2 0x39FC JUMP JUMPDEST PUSH1 0x0 PUSH2 0x2026 PUSH2 0x2BB0 JUMP JUMPDEST PUSH1 0x0 DUP6 DUP2 MSTORE PUSH1 0x20 DUP3 DUP2 MSTORE PUSH1 0x40 DUP1 DUP4 KECCAK256 DUP8 ISZERO ISZERO DUP5 MSTORE DUP3 MSTORE SWAP2 DUP3 SWAP1 KECCAK256 DUP3 MLOAD PUSH1 0xA0 DUP2 ADD DUP5 MSTORE DUP2 SLOAD PUSH1 0x1 PUSH1 0x1 PUSH1 0xA0 SHL SUB DUP2 AND DUP3 MSTORE PUSH1 0xFF PUSH1 0x1 PUSH1 0xA0 SHL DUP3 DIV DUP2 AND ISZERO ISZERO SWAP5 DUP4 ADD SWAP5 SWAP1 SWAP5 MSTORE PUSH1 0x1 PUSH1 0xB0 SHL DUP2 DIV DUP5 AND PUSH1 0xA EXP SWAP5 DUP3 ADD SWAP5 SWAP1 SWAP5 MSTORE SWAP4 SWAP5 POP SWAP3 SWAP2 PUSH1 0x60 DUP4 ADD SWAP2 PUSH1 0x1 PUSH1 0xA8 SHL SWAP1 SWAP2 DIV AND PUSH1 0x5 DUP2 GT ISZERO PUSH2 0x209B JUMPI INVALID JUMPDEST DUP2 MSTORE SWAP2 SLOAD PUSH1 0x1 PUSH1 0xB8 SHL SWAP1 DIV PUSH9 0xFFFFFFFFFFFFFFFFFF AND PUSH1 0x20 SWAP1 SWAP3 ADD SWAP2 SWAP1 SWAP2 MSTORE SWAP5 SWAP4 POP POP POP POP JUMP JUMPDEST PUSH1 0x0 DUP1 PUSH2 0xCB4 PUSH1 0x15 PUSH2 0x2267 JUMP JUMPDEST PUSH1 0x0 DUP1 PUSH1 0x0 PUSH2 0x20DC PUSH2 0x21DB JUMP JUMPDEST PUSH1 0x0 SWAP6 DUP7 MSTORE PUSH1 0x20 SWAP1 DUP2 MSTORE PUSH1 0x40 DUP1 DUP8 KECCAK256 SWAP6 DUP8 MSTORE SWAP5 SWAP1 MSTORE POP POP POP SWAP1 KECCAK256 SLOAD PUSH6 0x10000000000 DUP2 DIV PUSH1 0x1 PUSH1 0x1 PUSH1 0x80 SHL SUB AND SWAP2 PUSH1 0x1 PUSH1 0xA8 SHL SWAP1 SWAP2 DIV PUSH1 0xFF AND SWAP1 JUMP JUMPDEST PUSH1 0x0 DUP1 PUSH1 0x0 DUP1 PUSH1 0x0 PUSH2 0x2129 DUP7 PUSH2 0x2BBD JUMP JUMPDEST SWAP1 SWAP3 POP SWAP1 POP PUSH1 0x0 PUSH1 0x1 PUSH1 0x1 PUSH1 0xA0 SHL SUB DUP4 AND PUSH2 0x214E JUMPI POP PUSH1 0x0 SWAP1 POP PUSH5 0x2540BE400 PUSH2 0x21D0 JUMP JUMPDEST DUP3 PUSH1 0x1 PUSH1 0x1 PUSH1 0xA0 SHL SUB AND PUSH4 0x1EE10833 PUSH1 0x40 MLOAD DUP2 PUSH4 0xFFFFFFFF AND PUSH1 0xE0 SHL DUP2 MSTORE PUSH1 0x4 ADD PUSH1 0x20 PUSH1 0x40 MLOAD DUP1 DUP4 SUB DUP2 PUSH1 0x0 DUP8 DUP1 EXTCODESIZE ISZERO DUP1 ISZERO PUSH2 0x2189 JUMPI PUSH1 0x0 DUP1 REVERT JUMPDEST POP GAS CALL ISZERO DUP1 ISZERO PUSH2 0x219D JUMPI RETURNDATASIZE PUSH1 0x0 DUP1 RETURNDATACOPY RETURNDATASIZE PUSH1 0x0 REVERT JUMPDEST POP POP POP POP PUSH1 0x40 MLOAD RETURNDATASIZE PUSH1 0x1F NOT PUSH1 0x1F DUP3 ADD AND DUP3 ADD DUP1 PUSH1 0x40 MSTORE POP DUP2 ADD SWAP1 PUSH2 0x21C1 SWAP2 SWAP1 PUSH2 0x3D49 JUMP JUMPDEST SWAP1 POP PUSH1 0x0 DUP2 SGT PUSH2 0x21D0 JUMPI PUSH1 0x0 DUP1 REVERT JUMPDEST SWAP7 SWAP2 SWAP6 POP SWAP4 POP SWAP2 POP POP JUMP JUMPDEST PUSH1 0x0 DUP1 PUSH2 0xCB4 PUSH1 0x8 PUSH2 0x2267 JUMP JUMPDEST DUP2 DUP2 MUL PUSH1 0x0 NOT DUP4 EQ ISZERO PUSH2 0x2218 JUMPI DUP2 ISZERO DUP1 PUSH2 0x220A JUMPI POP DUP3 DUP3 DUP3 DUP2 PUSH2 0x2207 JUMPI INVALID JUMPDEST SDIV EQ JUMPDEST PUSH2 0x2213 JUMPI PUSH1 0x0 DUP1 REVERT JUMPDEST PUSH2 0xCB4 JUMP JUMPDEST DUP3 ISZERO DUP1 PUSH2 0x222D JUMPI POP DUP2 DUP4 DUP3 DUP2 PUSH2 0x222A JUMPI INVALID JUMPDEST SDIV EQ JUMPDEST PUSH2 0xCB4 JUMPI PUSH1 0x0 DUP1 REVERT JUMPDEST PUSH1 0x0 DUP2 PUSH1 0x0 NOT EQ DUP1 ISZERO PUSH2 0x224C JUMPI POP PUSH1 0x1 PUSH1 0xFF SHL DUP4 EQ JUMPDEST ISZERO PUSH2 0x2256 JUMPI PUSH1 0x0 DUP1 REVERT JUMPDEST DUP2 DUP4 DUP2 PUSH2 0x225F JUMPI INVALID JUMPDEST SDIV SWAP4 SWAP3 POP POP POP JUMP JUMPDEST PUSH1 0x0 PUSH3 0xF4240 DUP3 PUSH1 0x19 DUP2 GT ISZERO PUSH2 0x2279 JUMPI INVALID JUMPDEST ADD SWAP3 SWAP2 POP POP JUMP JUMPDEST PUSH1 0x0 DUP1 PUSH1 0x0 DUP1 PUSH1 0x0 PUSH2 0x2290 PUSH2 0x2BF4 JUMP JUMPDEST PUSH1 0x1 PUSH1 0x1 PUSH1 0xA0 SHL SUB DUP9 AND PUSH1 0x0 SWAP1 DUP2 MSTORE PUSH1 0x20 DUP3 DUP2 MSTORE PUSH1 0x40 DUP1 DUP4 KECCAK256 DUP11 DUP5 MSTORE SWAP1 SWAP2 MSTORE SWAP1 KECCAK256 DUP1 SLOAD PUSH1 0x1 PUSH1 0x1 PUSH1 0x50 SHL SUB DUP2 AND SWAP7 POP PUSH1 0x1 PUSH1 0x50 SHL SWAP1 DIV PUSH4 0xFFFFFFFF AND SWAP5 POP SWAP1 SWAP2 POP DUP4 ISZERO PUSH2 0x22F9 JUMPI DUP1 SLOAD PUSH2 0x22F2 SWAP1 PUSH1 0x1 PUSH1 0x70 SHL SWAP1 DIV PUSH7 0xFFFFFFFFFFFFFF AND PUSH2 0x2C01 JUMP JUMPDEST SWAP3 POP PUSH2 0x230E JUMP JUMPDEST DUP1 SLOAD PUSH1 0x1 PUSH1 0x70 SHL SWAP1 DIV PUSH7 0xFFFFFFFFFFFFFF AND SWAP3 POP JUMPDEST SLOAD PUSH1 0x1 PUSH1 0xA8 SHL SWAP1 DIV PUSH1 0xA SWAP1 DUP2 SIGNEXTEND SWAP1 SIGNEXTEND SWAP8 SWAP4 SWAP7 POP SWAP2 SWAP5 POP SWAP3 POP POP JUMP JUMPDEST PUSH1 0x0 DUP2 SLT ISZERO PUSH2 0x2337 JUMPI PUSH1 0x0 DUP1 REVERT JUMPDEST PUSH2 0x234C PUSH1 0x0 DUP4 PUSH2 0xFFFF AND DUP4 PUSH1 0x0 DUP1 PUSH1 0x0 PUSH2 0x2C0F JUMP JUMPDEST DUP2 PUSH2 0xFFFF AND PUSH32 0xD3625F7B5926828151EFE19F7AE655488287357D99EBE67E5FB20522CA739C0B DUP3 PUSH1 0x40 MLOAD PUSH2 0x781 SWAP2 SWAP1 PUSH2 0x404C JUMP JUMPDEST PUSH1 0x0 PUSH1 0x1 PUSH1 0x1 PUSH1 0x50 SHL SUB DUP3 GT ISZERO PUSH2 0x108C JUMPI PUSH1 0x0 DUP1 REVERT JUMPDEST DUP1 DUP3 SUB DUP3 DUP2 SGT ISZERO PUSH1 0x0 DUP4 SLT ISZERO EQ PUSH2 0xCB4 JUMPI PUSH1 0x0 DUP1 REVERT JUMPDEST PUSH1 0x0 DUP1 PUSH2 0x23BC DUP8 PUSH2 0xFFFF AND PUSH2 0xD54 JUMP JUMPDEST SWAP1 POP DUP1 PUSH1 0x40 ADD MLOAD PUSH1 0x0 EQ ISZERO PUSH2 0x23DB JUMPI PUSH2 0x23D8 DUP8 PUSH2 0xFFFF AND PUSH2 0xD3C JUMP JUMPDEST SWAP1 POP JUMPDEST PUSH1 0x40 MLOAD PUSH4 0xE9377111 PUSH1 0xE0 SHL DUP2 MSTORE PUSH2 0x879 SWAP1 PUSH1 0x1 PUSH1 0x1 PUSH1 0xA0 SHL SUB DUP9 AND SWAP1 PUSH4 0xE9377111 SWAP1 PUSH2 0x240F SWAP1 DUP10 SWAP1 DUP10 SWAP1 DUP10 SWAP1 PUSH1 0x4 ADD PUSH2 0x3FBF JUMP JUMPDEST PUSH1 0x20 PUSH1 0x40 MLOAD DUP1 DUP4 SUB DUP2 DUP7 DUP1 EXTCODESIZE ISZERO DUP1 ISZERO PUSH2 0x2427 JUMPI PUSH1 0x0 DUP1 REVERT JUMPDEST POP GAS STATICCALL ISZERO DUP1 ISZERO PUSH2 0x243B JUMPI RETURNDATASIZE PUSH1 0x0 DUP1 RETURNDATACOPY RETURNDATASIZE PUSH1 0x0 REVERT JUMPDEST POP POP POP POP PUSH1 0x40 MLOAD RETURNDATASIZE PUSH1 0x1F NOT PUSH1 0x1F DUP3 ADD AND DUP3 ADD DUP1 PUSH1 0x40 MSTORE POP DUP2 ADD SWAP1 PUSH2 0x245F SWAP2 SWAP1 PUSH2 0x3D49 JUMP JUMPDEST DUP3 SWAP1 PUSH2 0x1C7B JUMP JUMPDEST PUSH1 0x0 PUSH10 0x7FFFFFFFFFFFFFFFFFFF NOT DUP3 SLT DUP1 ISZERO SWAP1 PUSH2 0x248D JUMPI POP PUSH10 0x7FFFFFFFFFFFFFFFFFFF DUP3 SGT ISZERO JUMPDEST PUSH2 0x108C JUMPI PUSH1 0x0 DUP1 REVERT JUMPDEST PUSH1 0x0 DUP1 PUSH2 0xCB4 PUSH1 0x19 PUSH2 0x2267 JUMP JUMPDEST DUP2 DUP2 ADD DUP3 DUP2 SLT ISZERO PUSH1 0x0 DUP4 SLT ISZERO EQ PUSH2 0xCB4 JUMPI PUSH1 0x0 DUP1 REVERT JUMPDEST PUSH1 0x0 DUP1 PUSH2 0xCB4 PUSH1 0x14 PUSH2 0x2267 JUMP JUMPDEST PUSH2 0x24CE PUSH2 0x3955 JUMP JUMPDEST PUSH1 0x0 DUP1 PUSH1 0x0 PUSH2 0x1A1E DUP6 PUSH2 0x2D56 JUMP JUMPDEST PUSH2 0x24E4 PUSH2 0x3955 JUMP JUMPDEST PUSH1 0x0 DUP1 PUSH2 0x24F1 DUP6 DUP6 PUSH2 0x20CF JUMP JUMPDEST SWAP2 POP SWAP2 POP DUP2 PUSH1 0x0 EQ ISZERO PUSH2 0x250F JUMPI PUSH2 0x2507 DUP6 PUSH2 0x2D56 JUMP JUMPDEST SWAP2 SWAP4 POP SWAP1 SWAP2 POP POP JUMPDEST PUSH1 0x40 DUP1 MLOAD PUSH1 0x60 DUP2 ADD DUP3 MSTORE PUSH1 0x0 DUP2 MSTORE PUSH1 0x20 DUP2 ADD SWAP4 SWAP1 SWAP4 MSTORE PUSH1 0xFF SWAP1 SWAP2 AND PUSH1 0xA EXP SWAP1 DUP3 ADD MSTORE SWAP1 POP SWAP3 SWAP2 POP POP JUMP JUMPDEST PUSH1 0x0 PUSH4 0x5F5E100 DUP4 PUSH1 0x40 ADD MLOAD EQ ISZERO PUSH2 0x2552 JUMPI POP DUP1 PUSH2 0xCB4 JUMP JUMPDEST PUSH2 0x64E PUSH4 0x5F5E100 PUSH2 0x106F DUP6 PUSH1 0x40 ADD MLOAD DUP6 PUSH2 0x21E8 SWAP1 SWAP2 SWAP1 PUSH4 0xFFFFFFFF AND JUMP JUMPDEST PUSH1 0x0 DUP1 PUSH2 0x2581 DUP9 PUSH2 0xFFFF AND PUSH2 0x2DD9 JUMP JUMPDEST SWAP1 POP DUP4 DUP2 PUSH1 0xFF AND GT ISZERO PUSH2 0x2593 JUMPI PUSH1 0x0 DUP1 REVERT JUMPDEST PUSH1 0x0 DUP1 PUSH2 0x25A4 DUP4 PUSH1 0xFF AND DUP11 DUP8 PUSH2 0x2DEF JUMP JUMPDEST SWAP2 POP SWAP2 POP DUP1 ISZERO PUSH2 0x25B3 JUMPI PUSH1 0x0 DUP1 REVERT JUMPDEST PUSH1 0x0 PUSH2 0x25BE DUP10 PUSH2 0x2EB7 JUMP JUMPDEST SWAP1 POP PUSH11 0xFFFFFFFFFFFFFFFFFFFFFF DUP2 LT PUSH2 0x25D7 JUMPI PUSH1 0x0 DUP1 REVERT JUMPDEST PUSH1 0x0 PUSH1 0x78 DUP10 PUSH4 0xFFFFFFFF AND SWAP1 SHL PUSH1 0x98 DUP4 SWAP1 SHL PUSH1 0xF0 DUP7 SWAP1 SHL PUSH1 0xF8 PUSH1 0x0 DUP15 SGT PUSH2 0x25FF JUMPI PUSH1 0x1 PUSH2 0x2602 JUMP JUMPDEST PUSH1 0x0 JUMPDEST PUSH1 0x5 DUP2 GT ISZERO PUSH2 0x260D JUMPI INVALID JUMPDEST PUSH1 0xFF AND SWAP1 SHL OR OR OR PUSH1 0x0 SHL SWAP1 POP PUSH20 0x0 PUSH4 0xE50F349E DUP14 DUP4 PUSH1 0x40 MLOAD DUP4 PUSH4 0xFFFFFFFF AND PUSH1 0xE0 SHL DUP2 MSTORE PUSH1 0x4 ADD PUSH2 0x2653 SWAP3 SWAP2 SWAP1 PUSH2 0x4491 JUMP JUMPDEST PUSH1 0x20 PUSH1 0x40 MLOAD DUP1 DUP4 SUB DUP2 DUP7 DUP1 EXTCODESIZE ISZERO DUP1 ISZERO PUSH2 0x266B JUMPI PUSH1 0x0 DUP1 REVERT JUMPDEST POP GAS DELEGATECALL ISZERO DUP1 ISZERO PUSH2 0x267F JUMPI RETURNDATASIZE PUSH1 0x0 DUP1 RETURNDATACOPY RETURNDATASIZE PUSH1 0x0 REVERT JUMPDEST POP POP POP POP PUSH1 0x40 MLOAD RETURNDATASIZE PUSH1 0x1F NOT PUSH1 0x1F DUP3 ADD AND DUP3 ADD DUP1 PUSH1 0x40 MSTORE POP DUP2 ADD SWAP1 PUSH2 0x26A3 SWAP2 SWAP1 PUSH2 0x3D49 JUMP JUMPDEST SWAP13 SWAP12 POP POP POP POP POP POP POP POP POP POP POP POP JUMP JUMPDEST DUP1 PUSH1 0x5 DUP6 PUSH1 0x60 ADD MLOAD PUSH1 0x5 DUP2 GT ISZERO PUSH2 0x26C6 JUMPI INVALID JUMPDEST EQ ISZERO PUSH2 0x26EB JUMPI PUSH1 0x0 PUSH2 0x26D7 DUP5 PUSH2 0xD54 JUMP JUMPDEST SWAP1 POP PUSH2 0x26E7 DUP2 PUSH1 0x0 ADD MLOAD DUP5 PUSH2 0x2ED8 JUMP JUMPDEST SWAP3 POP POP JUMPDEST PUSH1 0x0 DUP3 SGT ISZERO PUSH2 0x2717 JUMPI PUSH1 0x0 PUSH2 0x2701 DUP7 DUP7 DUP6 PUSH2 0x2F67 JUMP JUMPDEST SWAP1 POP DUP6 PUSH1 0x20 ADD MLOAD ISZERO PUSH2 0x2711 JUMPI DUP1 SWAP2 POP JUMPDEST POP PUSH2 0x1075 JUMP JUMPDEST PUSH1 0x3 DUP6 PUSH1 0x60 ADD MLOAD PUSH1 0x5 DUP2 GT ISZERO PUSH2 0x2729 JUMPI INVALID JUMPDEST EQ ISZERO PUSH2 0x2746 JUMPI PUSH2 0x2741 DUP5 PUSH2 0x273C DUP5 PUSH2 0x1030 JUMP JUMPDEST PUSH2 0x305A JUMP JUMPDEST PUSH2 0x1075 JUMP JUMPDEST DUP5 MLOAD PUSH2 0x1075 SWAP1 DUP6 PUSH2 0x2756 DUP6 PUSH2 0x1030 JUMP JUMPDEST PUSH2 0x3090 JUMP JUMPDEST PUSH1 0x0 DUP1 PUSH1 0x2 DUP7 PUSH1 0x60 ADD MLOAD PUSH1 0x5 DUP2 GT ISZERO PUSH2 0x2770 JUMPI INVALID JUMPDEST EQ ISZERO PUSH2 0x2788 JUMPI PUSH2 0x2781 DUP7 DUP6 DUP6 PUSH2 0x3107 JUMP JUMPDEST SWAP1 POP PUSH2 0x27E5 JUMP JUMPDEST PUSH1 0x0 PUSH2 0x2793 DUP7 PUSH2 0xD54 JUMP JUMPDEST SWAP1 POP PUSH1 0x5 DUP8 PUSH1 0x60 ADD MLOAD PUSH1 0x5 DUP2 GT ISZERO PUSH2 0x27A7 JUMPI INVALID JUMPDEST EQ ISZERO PUSH2 0x27BF JUMPI PUSH2 0x27B8 DUP2 DUP7 DUP7 PUSH2 0x31C4 JUMP JUMPDEST SWAP2 POP PUSH2 0x27E3 JUMP JUMPDEST PUSH1 0x1 DUP8 PUSH1 0x60 ADD MLOAD PUSH1 0x5 DUP2 GT ISZERO PUSH2 0x27D1 JUMPI INVALID JUMPDEST EQ ISZERO PUSH2 0x116 JUMPI PUSH2 0x27B8 DUP8 DUP3 DUP8 DUP8 PUSH2 0x326D JUMP JUMPDEST POP JUMPDEST PUSH2 0x27F1 PUSH2 0x83D DUP3 PUSH2 0x109D JUMP JUMPDEST SWAP7 SWAP6 POP POP POP POP POP POP JUMP JUMPDEST PUSH1 0x40 DUP1 MLOAD PUSH1 0x1 PUSH1 0x1 PUSH1 0xA0 SHL SUB DUP5 DUP2 AND PUSH1 0x24 DUP1 DUP5 ADD SWAP2 SWAP1 SWAP2 MSTORE DUP4 MLOAD DUP1 DUP5 SUB SWAP1 SWAP2 ADD DUP2 MSTORE PUSH1 0x44 SWAP1 SWAP3 ADD DUP4 MSTORE PUSH1 0x20 DUP3 ADD DUP1 MLOAD PUSH1 0x1 PUSH1 0x1 PUSH1 0xE0 SHL SUB AND PUSH1 0x1 PUSH1 0x1 PUSH1 0xE0 SHL SUB NOT DUP7 AND OR DUP2 MSTORE SWAP3 MLOAD DUP3 MLOAD PUSH1 0x0 SWAP5 DUP6 SWAP5 DUP6 SWAP5 DUP11 AND SWAP4 SWAP1 SWAP3 SWAP1 SWAP2 DUP3 SWAP2 DUP1 DUP4 DUP4 JUMPDEST PUSH1 0x20 DUP4 LT PUSH2 0x2878 JUMPI DUP1 MLOAD DUP3 MSTORE PUSH1 0x1F NOT SWAP1 SWAP3 ADD SWAP2 PUSH1 0x20 SWAP2 DUP3 ADD SWAP2 ADD PUSH2 0x2859 JUMP JUMPDEST PUSH1 0x1 DUP4 PUSH1 0x20 SUB PUSH2 0x100 EXP SUB DUP1 NOT DUP3 MLOAD AND DUP2 DUP5 MLOAD AND DUP1 DUP3 OR DUP6 MSTORE POP POP POP POP POP POP SWAP1 POP ADD SWAP2 POP POP PUSH1 0x0 PUSH1 0x40 MLOAD DUP1 DUP4 SUB DUP2 DUP6 GAS STATICCALL SWAP2 POP POP RETURNDATASIZE DUP1 PUSH1 0x0 DUP2 EQ PUSH2 0x28D8 JUMPI PUSH1 0x40 MLOAD SWAP2 POP PUSH1 0x1F NOT PUSH1 0x3F RETURNDATASIZE ADD AND DUP3 ADD PUSH1 0x40 MSTORE RETURNDATASIZE DUP3 MSTORE RETURNDATASIZE PUSH1 0x0 PUSH1 0x20 DUP5 ADD RETURNDATACOPY PUSH2 0x28DD JUMP JUMPDEST PUSH1 0x60 SWAP2 POP JUMPDEST POP SWAP2 POP SWAP2 POP DUP2 PUSH2 0x28EC JUMPI PUSH1 0x0 DUP1 REVERT JUMPDEST DUP1 DUP1 PUSH1 0x20 ADD SWAP1 MLOAD PUSH1 0x20 DUP2 LT ISZERO PUSH2 0x2901 JUMPI PUSH1 0x0 DUP1 REVERT JUMPDEST POP MLOAD SWAP7 SWAP6 POP POP POP POP POP POP JUMP JUMPDEST PUSH2 0x2915 PUSH2 0x336B JUMP JUMPDEST SLOAD DUP3 MLOAD PUSH1 0x40 MLOAD PUSH4 0xE8EDA9DF PUSH1 0xE0 SHL DUP2 MSTORE PUSH1 0x1 PUSH1 0x1 PUSH1 0xA0 SHL SUB SWAP1 SWAP3 AND SWAP2 PUSH4 0xE8EDA9DF SWAP2 PUSH2 0x294A SWAP2 DUP6 SWAP1 ADDRESS SWAP1 PUSH1 0x0 SWAP1 PUSH1 0x4 ADD PUSH2 0x3F92 JUMP JUMPDEST PUSH1 0x0 PUSH1 0x40 MLOAD DUP1 DUP4 SUB DUP2 PUSH1 0x0 DUP8 DUP1 EXTCODESIZE ISZERO DUP1 ISZERO PUSH2 0x2964 JUMPI PUSH1 0x0 DUP1 REVERT JUMPDEST POP GAS CALL ISZERO DUP1 ISZERO PUSH2 0x3A0 JUMPI RETURNDATASIZE PUSH1 0x0 DUP1 RETURNDATACOPY RETURNDATASIZE PUSH1 0x0 REVERT JUMPDEST DUP2 MLOAD PUSH1 0x40 MLOAD PUSH4 0x140E25AD PUSH1 0xE3 SHL DUP2 MSTORE PUSH1 0x0 SWAP2 PUSH1 0x1 PUSH1 0x1 PUSH1 0xA0 SHL SUB AND SWAP1 PUSH4 0xA0712D68 SWAP1 PUSH2 0x29A8 SWAP1 DUP6 SWAP1 PUSH1 0x4 ADD PUSH2 0x404C JUMP JUMPDEST PUSH1 0x20 PUSH1 0x40 MLOAD DUP1 DUP4 SUB DUP2 PUSH1 0x0 DUP8 DUP1 EXTCODESIZE ISZERO DUP1 ISZERO PUSH2 0x29C2 JUMPI PUSH1 0x0 DUP1 REVERT JUMPDEST POP GAS CALL ISZERO DUP1 ISZERO PUSH2 0x29D6 JUMPI RETURNDATASIZE PUSH1 0x0 DUP1 RETURNDATACOPY RETURNDATASIZE PUSH1 0x0 REVERT JUMPDEST POP POP POP POP PUSH1 0x40 MLOAD RETURNDATASIZE PUSH1 0x1F NOT PUSH1 0x1F DUP3 ADD AND DUP3 ADD DUP1 PUSH1 0x40 MSTORE POP DUP2 ADD SWAP1 PUSH2 0x29FA SWAP2 SWAP1 PUSH2 0x3D49 JUMP JUMPDEST SWAP1 POP DUP1 ISZERO PUSH2 0xE20 JUMPI PUSH1 0x40 MLOAD PUSH3 0x461BCD PUSH1 0xE5 SHL DUP2 MSTORE PUSH1 0x4 ADD PUSH2 0x2E0 SWAP1 PUSH2 0x40D4 JUMP JUMPDEST DUP2 PUSH1 0x0 ADD MLOAD PUSH1 0x1 PUSH1 0x1 PUSH1 0xA0 SHL SUB AND PUSH4 0x1249C58B DUP3 PUSH1 0x40 MLOAD DUP3 PUSH4 0xFFFFFFFF AND PUSH1 0xE0 SHL DUP2 MSTORE PUSH1 0x4 ADD PUSH1 0x0 PUSH1 0x40 MLOAD DUP1 DUP4 SUB DUP2 DUP6 DUP9 DUP1 EXTCODESIZE ISZERO DUP1 ISZERO PUSH2 0x2A59 JUMPI PUSH1 0x0 DUP1 REVERT JUMPDEST POP GAS CALL ISZERO DUP1 ISZERO PUSH2 0x16E2 JUMPI RETURNDATASIZE PUSH1 0x0 DUP1 RETURNDATACOPY RETURNDATASIZE PUSH1 0x0 REVERT JUMPDEST PUSH1 0x0 DUP3 DUP3 GT ISZERO PUSH2 0x1B74 JUMPI PUSH1 0x40 DUP1 MLOAD PUSH3 0x461BCD PUSH1 0xE5 SHL DUP2 MSTORE PUSH1 0x20 PUSH1 0x4 DUP3 ADD MSTORE PUSH1 0x1E PUSH1 0x24 DUP3 ADD MSTORE PUSH32 0x536166654D6174683A207375627472616374696F6E206F766572666C6F770000 PUSH1 0x44 DUP3 ADD MSTORE SWAP1 MLOAD SWAP1 DUP2 SWAP1 SUB PUSH1 0x64 ADD SWAP1 REVERT JUMPDEST PUSH1 0x0 DUP2 PUSH2 0x2AD3 JUMPI POP PUSH1 0x0 PUSH2 0x1075 JUMP JUMPDEST PUSH1 0x0 DUP1 PUSH2 0x2AE0 DUP8 DUP6 PUSH2 0x3378 JUMP JUMPDEST SWAP2 POP SWAP2 POP PUSH1 0x0 PUSH2 0x2AFF DUP8 PUSH1 0x40 ADD MLOAD DUP9 PUSH1 0x0 ADD MLOAD DUP9 DUP6 DUP13 PUSH1 0x0 ADD MLOAD PUSH2 0x23AC JUMP JUMPDEST SWAP1 POP PUSH2 0x2B1D PUSH2 0x2B0D DUP5 PUSH2 0x109D JUMP JUMPDEST PUSH2 0x160 DUP10 ADD MLOAD PUSH2 0x14E4 SWAP1 DUP5 PUSH2 0x103E JUMP JUMPDEST SWAP9 SWAP8 POP POP POP POP POP POP POP POP JUMP JUMPDEST PUSH1 0x0 PUSH2 0x64E PUSH2 0x2B3C DUP5 PUSH4 0x3B9ACA00 PUSH2 0x21E8 JUMP JUMPDEST DUP4 PUSH2 0x2236 JUMP JUMPDEST PUSH1 0x0 PUSH2 0x879 DUP8 PUSH1 0x40 MLOAD DUP1 PUSH1 0xA0 ADD PUSH1 0x40 MSTORE DUP1 DUP10 PUSH1 0x1 PUSH1 0x1 PUSH1 0xA0 SHL SUB AND DUP2 MSTORE PUSH1 0x20 ADD DUP10 PUSH1 0x1 PUSH1 0x1 PUSH1 0xA0 SHL SUB AND DUP2 MSTORE PUSH1 0x20 ADD DUP9 DUP2 MSTORE PUSH1 0x20 ADD DUP8 DUP2 MSTORE PUSH1 0x20 ADD PUSH1 0x0 DUP2 MSTORE POP DUP6 DUP6 PUSH2 0x33CA JUMP JUMPDEST PUSH1 0x0 DUP3 PUSH2 0x2B98 JUMPI POP PUSH1 0x0 PUSH2 0xCB4 JUMP JUMPDEST DUP3 DUP3 MUL DUP3 DUP5 DUP3 DUP2 PUSH2 0x2BA5 JUMPI INVALID JUMPDEST DIV EQ PUSH2 0x64E JUMPI PUSH1 0x0 DUP1 REVERT JUMPDEST PUSH1 0x0 DUP1 PUSH2 0xCB4 PUSH1 0x7 PUSH2 0x2267 JUMP JUMPDEST PUSH1 0x0 DUP1 PUSH1 0x0 PUSH2 0x2BCA PUSH2 0x3650 JUMP JUMPDEST PUSH1 0x0 SWAP5 DUP6 MSTORE PUSH1 0x20 MSTORE POP POP PUSH1 0x40 SWAP1 SWAP2 KECCAK256 SLOAD PUSH1 0x1 PUSH1 0x1 PUSH1 0xA0 SHL SUB DUP2 AND SWAP3 PUSH1 0x1 PUSH1 0xA0 SHL SWAP1 SWAP2 DIV PUSH1 0xFF AND SWAP2 POP JUMP JUMPDEST PUSH1 0x0 DUP1 PUSH2 0xCB4 PUSH1 0x6 PUSH2 0x2267 JUMP JUMPDEST PUSH1 0x8 DUP2 SWAP1 SHR PUSH1 0xFF SWAP1 SWAP2 AND SHL SWAP1 JUMP JUMPDEST PUSH1 0x0 PUSH2 0x2C19 PUSH2 0x2BF4 JUMP JUMPDEST PUSH1 0x1 PUSH1 0x1 PUSH1 0xA0 SHL SUB DUP9 AND PUSH1 0x0 SWAP1 DUP2 MSTORE PUSH1 0x20 DUP3 DUP2 MSTORE PUSH1 0x40 DUP1 DUP4 KECCAK256 DUP11 DUP5 MSTORE SWAP1 SWAP2 MSTORE SWAP1 KECCAK256 SWAP1 SWAP2 POP PUSH11 0x7FFFFFFFFFFFFFFFFFFFFF NOT DUP7 SLT DUP1 ISZERO SWAP1 PUSH2 0x2C64 JUMPI POP PUSH11 0x7FFFFFFFFFFFFFFFFFFFFF DUP7 SGT ISZERO JUMPDEST PUSH2 0x2C6D JUMPI PUSH1 0x0 DUP1 REVERT JUMPDEST PUSH1 0x0 DUP6 SLT ISZERO DUP1 ISZERO PUSH2 0x2C85 JUMPI POP PUSH1 0x1 PUSH1 0x1 PUSH1 0x50 SHL SUB DUP6 SGT ISZERO JUMPDEST PUSH2 0x2C8E JUMPI PUSH1 0x0 DUP1 REVERT JUMPDEST DUP4 PUSH2 0x2CCE JUMPI PUSH7 0xFFFFFFFFFFFFFF DUP4 GT ISZERO PUSH2 0x2CA7 JUMPI PUSH1 0x0 DUP1 REVERT JUMPDEST DUP1 SLOAD PUSH7 0xFFFFFFFFFFFFFF PUSH1 0x70 SHL NOT AND PUSH1 0x1 PUSH1 0x70 SHL PUSH7 0xFFFFFFFFFFFFFF DUP6 AND MUL OR DUP2 SSTORE PUSH2 0x2CE8 JUMP JUMPDEST DUP1 SLOAD PUSH1 0x1 PUSH1 0x50 SHL SWAP1 DIV PUSH4 0xFFFFFFFF AND DUP5 EQ PUSH2 0x2CE8 JUMPI PUSH1 0x0 DUP1 REVERT JUMPDEST DUP1 SLOAD PUSH1 0xA SWAP7 SWAP1 SWAP7 SIGNEXTEND PUSH11 0xFFFFFFFFFFFFFFFFFFFFFF AND PUSH1 0x1 PUSH1 0xA8 SHL MUL PUSH1 0x1 PUSH1 0x1 PUSH1 0xA8 SHL SUB PUSH1 0x1 PUSH1 0x1 PUSH1 0x50 SHL SUB SWAP1 SWAP7 AND PUSH1 0x1 PUSH1 0x1 PUSH1 0x50 SHL SUB NOT PUSH4 0xFFFFFFFF SWAP1 SWAP7 AND PUSH1 0x1 PUSH1 0x50 SHL MUL PUSH4 0xFFFFFFFF PUSH1 0x50 SHL NOT SWAP1 SWAP9 AND SWAP8 SWAP1 SWAP8 OR SWAP5 SWAP1 SWAP5 AND SWAP6 SWAP1 SWAP6 OR SWAP4 SWAP1 SWAP4 AND SWAP2 SWAP1 SWAP2 OR SWAP1 SWAP3 SSTORE POP POP POP POP JUMP JUMPDEST PUSH1 0x0 DUP1 PUSH1 0x0 DUP1 PUSH1 0x0 PUSH2 0x2D67 DUP7 PUSH2 0x2BBD JUMP JUMPDEST SWAP1 SWAP3 POP SWAP1 POP PUSH1 0x0 PUSH1 0x1 PUSH1 0x1 PUSH1 0xA0 SHL SUB DUP4 AND PUSH2 0x2D8C JUMPI POP PUSH1 0x0 SWAP1 POP PUSH5 0x2540BE400 PUSH2 0x21D0 JUMP JUMPDEST DUP3 PUSH1 0x1 PUSH1 0x1 PUSH1 0xA0 SHL SUB AND PUSH4 0xB2FFFB04 PUSH1 0x40 MLOAD DUP2 PUSH4 0xFFFFFFFF AND PUSH1 0xE0 SHL DUP2 MSTORE PUSH1 0x4 ADD PUSH1 0x20 PUSH1 0x40 MLOAD DUP1 DUP4 SUB DUP2 DUP7 DUP1 EXTCODESIZE ISZERO DUP1 ISZERO PUSH2 0x2DC5 JUMPI PUSH1 0x0 DUP1 REVERT JUMPDEST POP GAS STATICCALL ISZERO DUP1 ISZERO PUSH2 0x219D JUMPI RETURNDATASIZE PUSH1 0x0 DUP1 RETURNDATACOPY RETURNDATASIZE PUSH1 0x0 REVERT JUMPDEST PUSH1 0x0 DUP1 PUSH2 0x2DE5 DUP4 PUSH2 0x365D JUMP JUMPDEST PUSH1 0xFF AND SWAP4 SWAP3 POP POP POP JUMP JUMPDEST PUSH1 0x0 DUP1 PUSH1 0x0 DUP6 GT PUSH2 0x2E12 JUMPI PUSH1 0x40 MLOAD PUSH3 0x461BCD PUSH1 0xE5 SHL DUP2 MSTORE PUSH1 0x4 ADD PUSH2 0x2E0 SWAP1 PUSH2 0x4169 JUMP JUMPDEST PUSH1 0x7 DUP6 GT ISZERO PUSH2 0x2E33 JUMPI PUSH1 0x40 MLOAD PUSH3 0x461BCD PUSH1 0xE5 SHL DUP2 MSTORE PUSH1 0x4 ADD PUSH2 0x2E0 SWAP1 PUSH2 0x4232 JUMP JUMPDEST PUSH1 0x0 PUSH2 0x2E3E DUP5 PUSH2 0x367A JUMP JUMPDEST SWAP1 POP PUSH1 0x1 JUMPDEST DUP7 DUP2 GT PUSH2 0x2E96 JUMPI PUSH1 0x0 PUSH2 0x2E5F PUSH2 0x2E58 DUP4 PUSH2 0x3698 JUMP JUMPDEST DUP5 SWAP1 PUSH2 0x373C JUMP JUMPDEST SWAP1 POP DUP7 DUP2 EQ ISZERO PUSH2 0x2E77 JUMPI POP SWAP3 POP PUSH1 0x0 SWAP2 POP PUSH2 0x2EAF SWAP1 POP JUMP JUMPDEST DUP7 DUP2 GT ISZERO PUSH2 0x2E8D JUMPI POP SWAP3 POP PUSH1 0x1 SWAP2 POP PUSH2 0x2EAF SWAP1 POP JUMP JUMPDEST POP PUSH1 0x1 ADD PUSH2 0x2E43 JUMP JUMPDEST POP PUSH1 0x40 MLOAD PUSH3 0x461BCD PUSH1 0xE5 SHL DUP2 MSTORE PUSH1 0x4 ADD PUSH2 0x2E0 SWAP1 PUSH2 0x434C JUMP JUMPDEST SWAP4 POP SWAP4 SWAP2 POP POP JUMP JUMPDEST PUSH1 0x0 DUP1 DUP3 SLT ISZERO PUSH2 0x2ED1 JUMPI PUSH2 0x2ECA DUP3 PUSH2 0x1030 JUMP JUMPDEST SWAP1 POP PUSH2 0xD4F JUMP JUMPDEST POP DUP1 PUSH2 0xD4F JUMP JUMPDEST PUSH1 0x0 DUP2 PUSH2 0x2EE7 JUMPI POP PUSH1 0x0 PUSH2 0xCB4 JUMP JUMPDEST PUSH1 0x0 PUSH2 0x2EF2 DUP5 PUSH2 0x3796 JUMP JUMPDEST SWAP1 POP PUSH1 0x0 PUSH2 0x2EFF DUP5 PUSH2 0x2EB7 JUMP JUMPDEST SWAP1 POP DUP2 PUSH12 0x19D971E4FE8401E74000001 PUSH1 0x1 PUSH1 0xFF SHL SUB DUP2 PUSH2 0x2F1C JUMPI INVALID JUMPDEST SDIV DUP2 SGT ISZERO PUSH2 0x2F29 JUMPI PUSH1 0x0 DUP1 REVERT JUMPDEST PUSH12 0x33B2E3C9FD0803CE8000000 PUSH12 0x19D971E4FE8401E74000000 DUP4 DUP4 MUL ADD SDIV PUSH1 0x0 DUP6 SGT PUSH2 0x2F5E JUMPI PUSH2 0x2F59 DUP2 PUSH2 0x1030 JUMP JUMPDEST PUSH2 0x27F1 JUMP JUMPDEST SWAP6 SWAP5 POP POP POP POP POP JUMP JUMPDEST PUSH1 0x0 DUP1 DUP1 DUP1 PUSH1 0x5 DUP8 PUSH1 0x60 ADD MLOAD PUSH1 0x5 DUP2 GT ISZERO PUSH2 0x2F7E JUMPI INVALID JUMPDEST EQ PUSH2 0x2F90 JUMPI PUSH4 0x70A08231 PUSH1 0xE0 SHL PUSH2 0x2F99 JUMP JUMPDEST PUSH4 0xED1279F PUSH1 0xE1 SHL JUMPDEST SWAP1 POP DUP7 PUSH1 0x20 ADD MLOAD ISZERO PUSH2 0x2FB5 JUMPI DUP7 MLOAD PUSH2 0x2FB2 SWAP1 ADDRESS DUP4 PUSH2 0x27FB JUMP JUMPDEST SWAP3 POP JUMPDEST DUP7 MLOAD PUSH2 0x2FC2 SWAP1 DUP8 DUP8 PUSH2 0x3821 JUMP JUMPDEST DUP7 PUSH1 0x20 ADD MLOAD DUP1 PUSH2 0x2FD6 JUMPI POP PUSH1 0x0 DUP8 PUSH1 0x80 ADD MLOAD GT JUMPDEST ISZERO PUSH2 0x2FEB JUMPI DUP7 MLOAD PUSH2 0x2FE8 SWAP1 ADDRESS DUP4 PUSH2 0x27FB JUMP JUMPDEST SWAP2 POP JUMPDEST PUSH1 0x80 DUP8 ADD MLOAD ISZERO PUSH2 0x3026 JUMPI PUSH1 0x0 PUSH2 0x3009 DUP9 PUSH2 0x3004 DUP6 PUSH2 0x109D JUMP JUMPDEST PUSH2 0x1C7B JUMP JUMPDEST SWAP1 POP PUSH2 0x3018 DUP9 PUSH1 0x80 ADD MLOAD PUSH2 0x109D JUMP JUMPDEST DUP2 SGT ISZERO PUSH2 0x3024 JUMPI PUSH1 0x0 DUP1 REVERT JUMPDEST POP JUMPDEST DUP7 PUSH1 0x20 ADD MLOAD ISZERO PUSH2 0x3047 JUMPI PUSH2 0x303D PUSH2 0x1C61 DUP4 DUP6 PUSH2 0x2A6D JUMP JUMPDEST SWAP4 POP POP POP POP PUSH2 0x64E JUMP JUMPDEST PUSH2 0x303D DUP6 PUSH2 0x109D JUMP JUMPDEST POP POP POP SWAP4 SWAP3 POP POP POP JUMP JUMPDEST PUSH1 0x40 MLOAD PUSH1 0x1 PUSH1 0x1 PUSH1 0xA0 SHL SUB DUP4 AND SWAP1 DUP3 ISZERO PUSH2 0x8FC MUL SWAP1 DUP4 SWAP1 PUSH1 0x0 DUP2 DUP2 DUP2 DUP6 DUP9 DUP9 CALL SWAP4 POP POP POP POP ISZERO DUP1 ISZERO PUSH2 0xE20 JUMPI RETURNDATASIZE PUSH1 0x0 DUP1 RETURNDATACOPY RETURNDATASIZE PUSH1 0x0 REVERT JUMPDEST DUP3 PUSH1 0x1 PUSH1 0x1 PUSH1 0xA0 SHL SUB AND PUSH4 0xA9059CBB DUP4 DUP4 PUSH1 0x40 MLOAD DUP4 PUSH4 0xFFFFFFFF AND PUSH1 0xE0 SHL DUP2 MSTORE PUSH1 0x4 ADD DUP1 DUP4 PUSH1 0x1 PUSH1 0x1 PUSH1 0xA0 SHL SUB AND DUP2 MSTORE PUSH1 0x20 ADD DUP3 DUP2 MSTORE PUSH1 0x20 ADD SWAP3 POP POP POP PUSH1 0x0 PUSH1 0x40 MLOAD DUP1 DUP4 SUB DUP2 PUSH1 0x0 DUP8 DUP1 EXTCODESIZE ISZERO DUP1 ISZERO PUSH2 0x30E7 JUMPI PUSH1 0x0 DUP1 REVERT JUMPDEST POP GAS CALL ISZERO DUP1 ISZERO PUSH2 0x30FB JUMPI RETURNDATASIZE PUSH1 0x0 DUP1 RETURNDATACOPY RETURNDATASIZE PUSH1 0x0 REVERT JUMPDEST POP POP POP POP PUSH2 0xE20 PUSH2 0x3879 JUMP JUMPDEST DUP3 MLOAD PUSH1 0x40 MLOAD PUSH4 0xDB006A75 PUSH1 0xE0 SHL DUP2 MSTORE PUSH1 0x0 SWAP2 SELFBALANCE SWAP2 DUP4 SWAP2 PUSH1 0x1 PUSH1 0x1 PUSH1 0xA0 SHL SUB AND SWAP1 PUSH4 0xDB006A75 SWAP1 PUSH2 0x313B SWAP1 DUP8 SWAP1 PUSH1 0x4 ADD PUSH2 0x404C JUMP JUMPDEST PUSH1 0x20 PUSH1 0x40 MLOAD DUP1 DUP4 SUB DUP2 PUSH1 0x0 DUP8 DUP1 EXTCODESIZE ISZERO DUP1 ISZERO PUSH2 0x3155 JUMPI PUSH1 0x0 DUP1 REVERT JUMPDEST POP GAS CALL ISZERO DUP1 ISZERO PUSH2 0x3169 JUMPI RETURNDATASIZE PUSH1 0x0 DUP1 RETURNDATACOPY RETURNDATASIZE PUSH1 0x0 REVERT JUMPDEST POP POP POP POP PUSH1 0x40 MLOAD RETURNDATASIZE PUSH1 0x1F NOT PUSH1 0x1F DUP3 ADD AND DUP3 ADD DUP1 PUSH1 0x40 MSTORE POP DUP2 ADD SWAP1 PUSH2 0x318D SWAP2 SWAP1 PUSH2 0x3D49 JUMP JUMPDEST SWAP1 POP DUP1 ISZERO PUSH2 0x31AD JUMPI PUSH1 0x40 MLOAD PUSH3 0x461BCD PUSH1 0xE5 SHL DUP2 MSTORE PUSH1 0x4 ADD PUSH2 0x2E0 SWAP1 PUSH2 0x40F2 JUMP JUMPDEST SELFBALANCE PUSH2 0x31B8 DUP2 DUP5 PUSH2 0x2A6D JUMP JUMPDEST SWAP4 POP PUSH2 0x3050 DUP7 DUP6 PUSH2 0x305A JUMP JUMPDEST PUSH1 0x0 PUSH2 0x31DF PUSH2 0x458 DUP6 PUSH1 0x0 ADD MLOAD PUSH2 0x31DA DUP6 PUSH2 0x109D JUMP JUMPDEST PUSH2 0x2ED8 JUMP JUMPDEST SWAP1 POP PUSH2 0x31E9 PUSH2 0x336B JUMP JUMPDEST SLOAD DUP5 MLOAD PUSH1 0x40 MLOAD PUSH4 0x1A4CA37B PUSH1 0xE2 SHL DUP2 MSTORE PUSH1 0x1 PUSH1 0x1 PUSH1 0xA0 SHL SUB SWAP1 SWAP3 AND SWAP2 PUSH4 0x69328DEC SWAP2 PUSH2 0x321B SWAP2 DUP6 SWAP1 DUP9 SWAP1 PUSH1 0x4 ADD PUSH2 0x3F6F JUMP JUMPDEST PUSH1 0x20 PUSH1 0x40 MLOAD DUP1 DUP4 SUB DUP2 PUSH1 0x0 DUP8 DUP1 EXTCODESIZE ISZERO DUP1 ISZERO PUSH2 0x3235 JUMPI PUSH1 0x0 DUP1 REVERT JUMPDEST POP GAS CALL ISZERO DUP1 ISZERO PUSH2 0x3249 JUMPI RETURNDATASIZE PUSH1 0x0 DUP1 RETURNDATACOPY RETURNDATASIZE PUSH1 0x0 REVERT JUMPDEST POP POP POP POP PUSH1 0x40 MLOAD RETURNDATASIZE PUSH1 0x1F NOT PUSH1 0x1F DUP3 ADD AND DUP3 ADD DUP1 PUSH1 0x40 MSTORE POP DUP2 ADD SWAP1 PUSH2 0x11D0 SWAP2 SWAP1 PUSH2 0x3D49 JUMP JUMPDEST DUP3 MLOAD PUSH1 0x0 SWAP1 DUP2 SWAP1 PUSH2 0x3286 SWAP1 ADDRESS PUSH4 0x70A08231 PUSH1 0xE0 SHL PUSH2 0x27FB JUMP JUMPDEST SWAP1 POP PUSH1 0x0 DUP7 PUSH1 0x0 ADD MLOAD PUSH1 0x1 PUSH1 0x1 PUSH1 0xA0 SHL SUB AND PUSH4 0xDB006A75 DUP6 PUSH1 0x40 MLOAD DUP3 PUSH4 0xFFFFFFFF AND PUSH1 0xE0 SHL DUP2 MSTORE PUSH1 0x4 ADD PUSH2 0x32BA SWAP2 SWAP1 PUSH2 0x404C JUMP JUMPDEST PUSH1 0x20 PUSH1 0x40 MLOAD DUP1 DUP4 SUB DUP2 PUSH1 0x0 DUP8 DUP1 EXTCODESIZE ISZERO DUP1 ISZERO PUSH2 0x32D4 JUMPI PUSH1 0x0 DUP1 REVERT JUMPDEST POP GAS CALL ISZERO DUP1 ISZERO PUSH2 0x32E8 JUMPI RETURNDATASIZE PUSH1 0x0 DUP1 RETURNDATACOPY RETURNDATASIZE PUSH1 0x0 REVERT JUMPDEST POP POP POP POP PUSH1 0x40 MLOAD RETURNDATASIZE PUSH1 0x1F NOT PUSH1 0x1F DUP3 ADD AND DUP3 ADD DUP1 PUSH1 0x40 MSTORE POP DUP2 ADD SWAP1 PUSH2 0x330C SWAP2 SWAP1 PUSH2 0x3D49 JUMP JUMPDEST SWAP1 POP DUP1 ISZERO PUSH2 0x332C JUMPI PUSH1 0x40 MLOAD PUSH3 0x461BCD PUSH1 0xE5 SHL DUP2 MSTORE PUSH1 0x4 ADD PUSH2 0x2E0 SWAP1 PUSH2 0x40F2 JUMP JUMPDEST DUP6 MLOAD PUSH1 0x0 SWAP1 PUSH2 0x3343 SWAP1 ADDRESS PUSH4 0x70A08231 PUSH1 0xE0 SHL PUSH2 0x27FB JUMP JUMPDEST SWAP1 POP PUSH2 0x334F DUP2 DUP5 PUSH2 0x2A6D JUMP JUMPDEST SWAP4 POP PUSH2 0x3360 DUP8 PUSH1 0x0 ADD MLOAD DUP8 DUP7 PUSH2 0x3090 JUMP JUMPDEST POP POP POP SWAP5 SWAP4 POP POP POP POP JUMP JUMPDEST PUSH1 0x0 DUP1 PUSH2 0xCB4 PUSH1 0x13 PUSH2 0x2267 JUMP JUMPDEST PUSH1 0x0 DUP1 PUSH2 0x33A0 DUP5 PUSH1 0x60 ADD MLOAD PUSH2 0x339A DUP7 PUSH1 0x80 ADD MLOAD DUP7 PUSH2 0x2B89 SWAP1 SWAP2 SWAP1 PUSH4 0xFFFFFFFF AND JUMP JUMPDEST SWAP1 PUSH2 0x38EA JUMP JUMPDEST SWAP2 POP PUSH2 0x33C1 DUP5 PUSH1 0x60 ADD MLOAD PUSH2 0x339A DUP7 PUSH1 0xA0 ADD MLOAD DUP7 PUSH2 0x2B89 SWAP1 SWAP2 SWAP1 PUSH4 0xFFFFFFFF AND JUMP JUMPDEST SWAP1 POP SWAP3 POP SWAP3 SWAP1 POP JUMP JUMPDEST PUSH1 0x0 DUP1 PUSH2 0x33DE DUP7 PUSH1 0x40 ADD MLOAD PUSH2 0xFFFF AND PUSH2 0xD3C JUMP JUMPDEST SWAP1 POP PUSH1 0x0 PUSH1 0x4 DUP3 PUSH1 0x60 ADD MLOAD PUSH1 0x5 DUP2 GT ISZERO PUSH2 0x33F4 JUMPI INVALID JUMPDEST EQ PUSH2 0x340F JUMPI PUSH2 0x340A DUP8 PUSH1 0x40 ADD MLOAD PUSH2 0xFFFF AND PUSH2 0xD54 JUMP JUMPDEST PUSH2 0x3411 JUMP JUMPDEST DUP2 JUMPDEST SWAP1 POP PUSH1 0x0 DUP1 DUP8 PUSH1 0x80 ADD MLOAD SLT ISZERO PUSH2 0x3484 JUMPI PUSH1 0x4 DUP4 PUSH1 0x60 ADD MLOAD PUSH1 0x5 DUP2 GT ISZERO PUSH2 0x3433 JUMPI INVALID JUMPDEST EQ ISZERO PUSH2 0x3450 JUMPI PUSH2 0x3449 PUSH2 0x458 DUP9 PUSH1 0x80 ADD MLOAD PUSH2 0x1030 JUMP JUMPDEST SWAP1 POP PUSH2 0x3484 JUMP JUMPDEST PUSH1 0x0 PUSH2 0x3471 PUSH2 0x83D DUP10 PUSH1 0x80 ADD MLOAD DUP12 PUSH2 0x160 ADD MLOAD PUSH2 0x1A54 SWAP1 SWAP2 SWAP1 PUSH4 0xFFFFFFFF AND JUMP JUMPDEST SWAP1 POP PUSH2 0x3480 PUSH2 0x458 DUP5 DUP4 PUSH2 0x1A7F JUMP JUMPDEST SWAP2 POP POP JUMPDEST PUSH1 0x40 DUP8 ADD MLOAD PUSH1 0x0 SWAP1 ISZERO PUSH2 0x3543 JUMPI PUSH1 0x0 PUSH2 0x349D DUP5 ADDRESS PUSH2 0x1ABB JUMP JUMPDEST SWAP1 POP DUP10 PUSH1 0x0 ADD MLOAD PUSH1 0x1 PUSH1 0x1 PUSH1 0xA0 SHL SUB AND PUSH4 0x44F05108 DUP11 PUSH1 0x0 ADD MLOAD DUP12 PUSH1 0x20 ADD MLOAD DUP13 PUSH1 0x40 ADD MLOAD DUP14 PUSH1 0x60 ADD MLOAD DUP9 DUP15 DUP15 PUSH1 0x40 MLOAD DUP9 PUSH4 0xFFFFFFFF AND PUSH1 0xE0 SHL DUP2 MSTORE PUSH1 0x4 ADD PUSH2 0x34EB SWAP8 SWAP7 SWAP6 SWAP5 SWAP4 SWAP3 SWAP2 SWAP1 PUSH2 0x3F31 JUMP JUMPDEST PUSH1 0x0 PUSH1 0x40 MLOAD DUP1 DUP4 SUB DUP2 PUSH1 0x0 DUP8 DUP1 EXTCODESIZE ISZERO DUP1 ISZERO PUSH2 0x3505 JUMPI PUSH1 0x0 DUP1 REVERT JUMPDEST POP GAS CALL ISZERO DUP1 ISZERO PUSH2 0x3519 JUMPI RETURNDATASIZE PUSH1 0x0 DUP1 RETURNDATACOPY RETURNDATASIZE PUSH1 0x0 REVERT JUMPDEST POP POP POP POP PUSH1 0x0 PUSH2 0x3532 ADDRESS DUP7 PUSH2 0x1ABB SWAP1 SWAP2 SWAP1 PUSH4 0xFFFFFFFF AND JUMP JUMPDEST SWAP1 POP PUSH2 0x353E DUP2 DUP4 PUSH2 0x1B65 JUMP JUMPDEST SWAP3 POP POP POP JUMPDEST DUP2 DUP2 LT ISZERO PUSH2 0x35DE JUMPI DUP1 DUP3 SUB PUSH1 0x3 DUP5 PUSH1 0x60 ADD MLOAD PUSH1 0x5 DUP2 GT ISZERO PUSH2 0x3560 JUMPI INVALID JUMPDEST EQ ISZERO PUSH2 0x359E JUMPI CALLVALUE DUP2 GT ISZERO PUSH2 0x3586 JUMPI PUSH1 0x40 MLOAD PUSH3 0x461BCD PUSH1 0xE5 SHL DUP2 MSTORE PUSH1 0x4 ADD PUSH2 0x2E0 SWAP1 PUSH2 0x4139 JUMP JUMPDEST PUSH2 0x3596 DUP10 PUSH1 0x0 ADD MLOAD DUP3 CALLVALUE SUB PUSH2 0x305A JUMP JUMPDEST DUP3 SWAP2 POP PUSH2 0x35DC JUMP JUMPDEST PUSH1 0x0 PUSH2 0x35C3 DUP11 PUSH1 0x0 ADD MLOAD DUP13 PUSH1 0x40 ADD MLOAD PUSH2 0xFFFF AND PUSH2 0x35BA DUP6 PUSH2 0x109D JUMP JUMPDEST DUP9 SWAP3 SWAP2 SWAP1 PUSH2 0x26B3 JUMP JUMPDEST SWAP1 POP PUSH2 0x35D8 PUSH2 0x35D1 DUP3 PUSH2 0x107D JUMP JUMPDEST DUP5 SWAP1 PUSH2 0x11D8 JUMP JUMPDEST SWAP3 POP POP JUMPDEST POP JUMPDEST DUP2 DUP2 LT ISZERO PUSH2 0x35FE JUMPI PUSH1 0x40 MLOAD PUSH3 0x461BCD PUSH1 0xE5 SHL DUP2 MSTORE PUSH1 0x4 ADD PUSH2 0x2E0 SWAP1 PUSH2 0x4139 JUMP JUMPDEST PUSH1 0x0 PUSH1 0x4 DUP6 PUSH1 0x60 ADD MLOAD PUSH1 0x5 DUP2 GT ISZERO PUSH2 0x3612 JUMPI INVALID JUMPDEST EQ PUSH2 0x362D JUMPI PUSH1 0x40 DUP11 ADD MLOAD PUSH2 0x3628 SWAP1 DUP7 SWAP1 DUP5 PUSH2 0x1B7A JUMP JUMPDEST PUSH2 0x3636 JUMP JUMPDEST PUSH2 0x3636 DUP3 PUSH2 0x109D JUMP JUMPDEST SWAP1 POP PUSH2 0x3642 DUP6 DUP3 PUSH2 0x1C7B JUMP JUMPDEST SWAP11 SWAP10 POP POP POP POP POP POP POP POP POP POP JUMP JUMPDEST PUSH1 0x0 DUP1 PUSH2 0xCB4 PUSH1 0xF PUSH2 0x2267 JUMP JUMPDEST PUSH1 0x0 DUP1 PUSH2 0x3668 PUSH2 0x3909 JUMP JUMPDEST PUSH1 0x0 SWAP4 DUP5 MSTORE PUSH1 0x20 MSTORE POP POP PUSH1 0x40 SWAP1 KECCAK256 SLOAD SWAP1 JUMP JUMPDEST PUSH1 0x0 PUSH3 0x76A700 DUP3 LT ISZERO PUSH2 0x368C JUMPI PUSH1 0x0 DUP1 REVERT JUMPDEST POP PUSH3 0x76A700 DUP2 MOD SWAP1 SUB SWAP1 JUMP JUMPDEST PUSH1 0x0 DUP2 PUSH1 0x1 EQ ISZERO PUSH2 0x36AD JUMPI POP PUSH3 0x76A700 PUSH2 0xD4F JUMP JUMPDEST DUP2 PUSH1 0x2 EQ ISZERO PUSH2 0x36C0 JUMPI POP PUSH3 0xED4E00 PUSH2 0xD4F JUMP JUMPDEST DUP2 PUSH1 0x3 EQ ISZERO PUSH2 0x36D4 JUMPI POP PUSH4 0x1DA9C00 PUSH2 0xD4F JUMP JUMPDEST DUP2 PUSH1 0x4 EQ ISZERO PUSH2 0x36E8 JUMPI POP PUSH4 0x3B53800 PUSH2 0xD4F JUMP JUMPDEST DUP2 PUSH1 0x5 EQ ISZERO PUSH2 0x36FC JUMPI POP PUSH4 0x9450C00 PUSH2 0xD4F JUMP JUMPDEST DUP2 PUSH1 0x6 EQ ISZERO PUSH2 0x3710 JUMPI POP PUSH4 0x128A1800 PUSH2 0xD4F JUMP JUMPDEST DUP2 PUSH1 0x7 EQ ISZERO PUSH2 0x3724 JUMPI POP PUSH4 0x25143000 PUSH2 0xD4F JUMP JUMPDEST PUSH1 0x40 MLOAD PUSH3 0x461BCD PUSH1 0xE5 SHL DUP2 MSTORE PUSH1 0x4 ADD PUSH2 0x2E0 SWAP1 PUSH2 0x4198 JUMP JUMPDEST PUSH1 0x0 DUP3 DUP3 ADD DUP4 DUP2 LT ISZERO PUSH2 0x64E JUMPI PUSH1 0x40 DUP1 MLOAD PUSH3 0x461BCD PUSH1 0xE5 SHL DUP2 MSTORE PUSH1 0x20 PUSH1 0x4 DUP3 ADD MSTORE PUSH1 0x1B PUSH1 0x24 DUP3 ADD MSTORE PUSH32 0x536166654D6174683A206164646974696F6E206F766572666C6F770000000000 PUSH1 0x44 DUP3 ADD MSTORE SWAP1 MLOAD SWAP1 DUP2 SWAP1 SUB PUSH1 0x64 ADD SWAP1 REVERT JUMPDEST PUSH1 0x0 PUSH2 0xCB4 PUSH2 0x37A3 PUSH2 0x336B JUMP JUMPDEST SLOAD PUSH1 0x40 MLOAD PUSH4 0xD15E0053 PUSH1 0xE0 SHL DUP2 MSTORE PUSH1 0x1 PUSH1 0x1 PUSH1 0xA0 SHL SUB SWAP1 SWAP2 AND SWAP1 PUSH4 0xD15E0053 SWAP1 PUSH2 0x37D1 SWAP1 DUP7 SWAP1 PUSH1 0x4 ADD PUSH2 0x3F1D JUMP JUMPDEST PUSH1 0x20 PUSH1 0x40 MLOAD DUP1 DUP4 SUB DUP2 DUP7 DUP1 EXTCODESIZE ISZERO DUP1 ISZERO PUSH2 0x37E9 JUMPI PUSH1 0x0 DUP1 REVERT JUMPDEST POP GAS STATICCALL ISZERO DUP1 ISZERO PUSH2 0x37FD JUMPI RETURNDATASIZE PUSH1 0x0 DUP1 RETURNDATACOPY RETURNDATASIZE PUSH1 0x0 REVERT JUMPDEST POP POP POP POP PUSH1 0x40 MLOAD RETURNDATASIZE PUSH1 0x1F NOT PUSH1 0x1F DUP3 ADD AND DUP3 ADD DUP1 PUSH1 0x40 MSTORE POP DUP2 ADD SWAP1 PUSH2 0x1C61 SWAP2 SWAP1 PUSH2 0x3D49 JUMP JUMPDEST PUSH1 0x40 DUP1 MLOAD PUSH4 0x23B872DD PUSH1 0xE0 SHL DUP2 MSTORE PUSH1 0x1 PUSH1 0x1 PUSH1 0xA0 SHL SUB DUP5 DUP2 AND PUSH1 0x4 DUP4 ADD MSTORE ADDRESS PUSH1 0x24 DUP4 ADD MSTORE PUSH1 0x44 DUP3 ADD DUP5 SWAP1 MSTORE SWAP2 MLOAD SWAP2 DUP6 AND SWAP2 PUSH4 0x23B872DD SWAP2 PUSH1 0x64 DUP1 DUP3 ADD SWAP3 PUSH1 0x0 SWAP3 SWAP1 SWAP2 SWAP1 DUP3 SWAP1 SUB ADD DUP2 DUP4 DUP8 DUP1 EXTCODESIZE ISZERO DUP1 ISZERO PUSH2 0x30E7 JUMPI PUSH1 0x0 DUP1 REVERT JUMPDEST PUSH1 0x0 PUSH2 0x3883 PUSH2 0x3A2B JUMP JUMPDEST RETURNDATASIZE DUP1 ISZERO PUSH2 0x3897 JUMPI PUSH1 0x20 DUP2 EQ PUSH2 0x38A0 JUMPI PUSH1 0x0 DUP1 REVERT JUMPDEST PUSH1 0x1 SWAP3 POP PUSH2 0x38AB JUMP JUMPDEST PUSH1 0x20 PUSH1 0x0 DUP4 RETURNDATACOPY DUP2 MLOAD SWAP3 POP JUMPDEST POP DUP2 PUSH2 0x38E6 JUMPI PUSH1 0x40 DUP1 MLOAD PUSH3 0x461BCD PUSH1 0xE5 SHL DUP2 MSTORE PUSH1 0x20 PUSH1 0x4 DUP3 ADD MSTORE PUSH1 0x5 PUSH1 0x24 DUP3 ADD MSTORE PUSH5 0x455243323 PUSH1 0xDC SHL PUSH1 0x44 DUP3 ADD MSTORE SWAP1 MLOAD SWAP1 DUP2 SWAP1 SUB PUSH1 0x64 ADD SWAP1 REVERT JUMPDEST POP POP JUMP JUMPDEST PUSH1 0x0 DUP1 DUP3 GT PUSH2 0x38F8 JUMPI PUSH1 0x0 DUP1 REVERT JUMPDEST DUP2 DUP4 DUP2 PUSH2 0x3901 JUMPI INVALID JUMPDEST DIV SWAP4 SWAP3 POP POP POP JUMP JUMPDEST PUSH1 0x0 DUP1 PUSH2 0xCB4 PUSH1 0x9 PUSH2 0x2267 JUMP JUMPDEST PUSH1 0x40 MLOAD DUP1 PUSH1 0xE0 ADD PUSH1 0x40 MSTORE DUP1 PUSH1 0x0 DUP2 MSTORE PUSH1 0x20 ADD PUSH1 0x0 DUP2 MSTORE PUSH1 0x20 ADD PUSH1 0x0 ISZERO ISZERO DUP2 MSTORE PUSH1 0x20 ADD PUSH1 0x0 DUP2 MSTORE PUSH1 0x20 ADD PUSH1 0x0 DUP2 MSTORE PUSH1 0x20 ADD PUSH1 0x0 DUP2 MSTORE PUSH1 0x20 ADD PUSH1 0x0 DUP2 MSTORE POP SWAP1 JUMP JUMPDEST PUSH1 0x40 MLOAD DUP1 PUSH1 0x60 ADD PUSH1 0x40 MSTORE DUP1 PUSH1 0x0 PUSH1 0x1 PUSH1 0x1 PUSH1 0xA0 SHL SUB AND DUP2 MSTORE PUSH1 0x20 ADD PUSH1 0x0 DUP2 MSTORE PUSH1 0x20 ADD PUSH1 0x0 DUP2 MSTORE POP SWAP1 JUMP JUMPDEST PUSH1 0x40 MLOAD DUP1 PUSH2 0x180 ADD PUSH1 0x40 MSTORE DUP1 PUSH1 0x0 PUSH1 0x1 PUSH1 0x1 PUSH1 0xA0 SHL SUB AND DUP2 MSTORE PUSH1 0x20 ADD PUSH1 0x0 PUSH2 0xFFFF AND DUP2 MSTORE PUSH1 0x20 ADD PUSH1 0x0 PUSH2 0xFFFF AND DUP2 MSTORE PUSH1 0x20 ADD PUSH1 0x0 DUP2 MSTORE PUSH1 0x20 ADD PUSH1 0x0 DUP2 MSTORE PUSH1 0x20 ADD PUSH1 0x0 DUP2 MSTORE PUSH1 0x20 ADD PUSH1 0x0 DUP2 MSTORE PUSH1 0x20 ADD PUSH1 0x0 DUP2 MSTORE PUSH1 0x20 ADD PUSH1 0x0 DUP2 MSTORE PUSH1 0x20 ADD PUSH1 0x0 DUP2 MSTORE PUSH1 0x20 ADD PUSH2 0x39EA PUSH2 0x3A49 JUMP JUMPDEST DUP2 MSTORE PUSH1 0x20 ADD PUSH2 0x39F7 PUSH2 0x3955 JUMP JUMPDEST SWAP1 MSTORE SWAP1 JUMP JUMPDEST PUSH1 0x40 DUP1 MLOAD PUSH1 0xA0 DUP2 ADD DUP3 MSTORE PUSH1 0x0 DUP1 DUP3 MSTORE PUSH1 0x20 DUP3 ADD DUP2 SWAP1 MSTORE SWAP2 DUP2 ADD DUP3 SWAP1 MSTORE SWAP1 PUSH1 0x60 DUP3 ADD SWAP1 DUP2 MSTORE PUSH1 0x20 ADD PUSH1 0x0 DUP2 MSTORE POP SWAP1 JUMP JUMPDEST PUSH1 0x40 MLOAD DUP1 PUSH1 0x20 ADD PUSH1 0x40 MSTORE DUP1 PUSH1 0x1 SWAP1 PUSH1 0x20 DUP3 MUL DUP1 CALLDATASIZE DUP4 CALLDATACOPY POP SWAP2 SWAP3 SWAP2 POP POP JUMP JUMPDEST PUSH1 0x40 MLOAD DUP1 PUSH1 0x60 ADD PUSH1 0x40 MSTORE DUP1 PUSH1 0x3 SWAP1 PUSH1 0x20 DUP3 MUL DUP1 CALLDATASIZE DUP4 CALLDATACOPY POP SWAP2 SWAP3 SWAP2 POP POP JUMP JUMPDEST DUP1 CALLDATALOAD PUSH1 0x1 PUSH1 0x1 PUSH1 0xA0 SHL SUB DUP2 AND DUP2 EQ PUSH2 0xD4F JUMPI PUSH1 0x0 DUP1 REVERT JUMPDEST PUSH1 0x0 DUP1 DUP4 PUSH1 0x1F DUP5 ADD SLT PUSH2 0x3A8F JUMPI DUP1 DUP2 REVERT JUMPDEST POP DUP2 CALLDATALOAD PUSH8 0xFFFFFFFFFFFFFFFF DUP2 GT ISZERO PUSH2 0x3AA6 JUMPI DUP2 DUP3 REVERT JUMPDEST PUSH1 0x20 DUP4 ADD SWAP2 POP DUP4 PUSH1 0x20 DUP3 DUP6 ADD ADD GT ISZERO PUSH2 0x811 JUMPI PUSH1 0x0 DUP1 REVERT JUMPDEST DUP1 CALLDATALOAD PUSH1 0x1 PUSH1 0x1 PUSH1 0x50 SHL SUB DUP2 AND DUP2 EQ PUSH2 0xD4F JUMPI PUSH1 0x0 DUP1 REVERT JUMPDEST PUSH1 0x0 PUSH1 0x20 DUP3 DUP5 SUB SLT ISZERO PUSH2 0x3AE6 JUMPI DUP1 DUP2 REVERT JUMPDEST PUSH2 0x64E DUP3 PUSH2 0x3A67 JUMP JUMPDEST PUSH1 0x0 DUP1 PUSH1 0x40 DUP4 DUP6 SUB SLT ISZERO PUSH2 0x3B01 JUMPI DUP1 DUP2 REVERT JUMPDEST PUSH2 0x3B0A DUP4 PUSH2 0x3A67 JUMP JUMPDEST SWAP2 POP PUSH1 0x20 DUP4 ADD CALLDATALOAD DUP1 ISZERO ISZERO DUP2 EQ PUSH2 0x3B1E JUMPI DUP2 DUP3 REVERT JUMPDEST DUP1 SWAP2 POP POP SWAP3 POP SWAP3 SWAP1 POP JUMP JUMPDEST PUSH1 0x0 DUP1 PUSH1 0x0 DUP4 DUP6 SUB PUSH2 0x1C0 DUP2 SLT ISZERO PUSH2 0x3B3F JUMPI DUP2 DUP3 REVERT JUMPDEST PUSH2 0x3B48 DUP6 PUSH2 0x3A67 JUMP JUMPDEST SWAP4 POP PUSH2 0x180 PUSH1 0x1F NOT DUP3 ADD SLT ISZERO PUSH2 0x3B5C JUMPI DUP2 DUP3 REVERT JUMPDEST POP PUSH1 0x20 DUP5 ADD SWAP2 POP PUSH2 0x3B70 PUSH2 0x1A0 DUP6 ADD PUSH2 0x3ABE JUMP JUMPDEST SWAP1 POP SWAP3 POP SWAP3 POP SWAP3 JUMP JUMPDEST PUSH1 0x0 DUP1 PUSH1 0x40 DUP4 DUP6 SUB SLT ISZERO PUSH2 0x3B8B JUMPI DUP2 DUP3 REVERT JUMPDEST PUSH2 0x3B94 DUP4 PUSH2 0x3A67 JUMP JUMPDEST SWAP2 POP PUSH1 0x20 DUP4 ADD CALLDATALOAD PUSH2 0x3B1E DUP2 PUSH2 0x4736 JUMP JUMPDEST PUSH1 0x0 DUP1 PUSH1 0x0 PUSH1 0x60 DUP5 DUP7 SUB SLT ISZERO PUSH2 0x3BB8 JUMPI DUP3 DUP4 REVERT JUMPDEST PUSH2 0x3BC1 DUP5 PUSH2 0x3A67 JUMP JUMPDEST SWAP3 POP PUSH1 0x20 DUP5 ADD CALLDATALOAD PUSH2 0x3BD1 DUP2 PUSH2 0x4736 JUMP JUMPDEST SWAP3 SWAP6 SWAP3 SWAP5 POP POP POP PUSH1 0x40 SWAP2 SWAP1 SWAP2 ADD CALLDATALOAD SWAP1 JUMP JUMPDEST PUSH1 0x0 DUP1 PUSH1 0x0 PUSH1 0x60 DUP5 DUP7 SUB SLT ISZERO PUSH2 0x3BF6 JUMPI DUP3 DUP4 REVERT JUMPDEST PUSH2 0x3BFF DUP5 PUSH2 0x3A67 JUMP JUMPDEST SWAP3 POP PUSH1 0x20 DUP5 ADD CALLDATALOAD PUSH2 0x3C0F DUP2 PUSH2 0x4736 JUMP JUMPDEST SWAP2 POP PUSH2 0x3B70 PUSH1 0x40 DUP6 ADD PUSH2 0x3ABE JUMP JUMPDEST PUSH1 0x0 DUP1 PUSH1 0x40 DUP4 DUP6 SUB SLT ISZERO PUSH2 0x3C2F JUMPI DUP2 DUP3 REVERT JUMPDEST PUSH2 0x3C38 DUP4 PUSH2 0x3A67 JUMP JUMPDEST SWAP5 PUSH1 0x20 SWAP4 SWAP1 SWAP4 ADD CALLDATALOAD SWAP4 POP POP POP JUMP JUMPDEST PUSH1 0x0 DUP1 PUSH1 0x0 DUP1 PUSH1 0x0 DUP1 PUSH1 0xA0 DUP8 DUP10 SUB SLT ISZERO PUSH2 0x3C5E JUMPI DUP2 DUP3 REVERT JUMPDEST PUSH2 0x3C67 DUP8 PUSH2 0x3A67 JUMP JUMPDEST SWAP6 POP PUSH2 0x3C75 PUSH1 0x20 DUP9 ADD PUSH2 0x3ABE JUMP JUMPDEST SWAP5 POP PUSH1 0x40 DUP8 ADD CALLDATALOAD SWAP4 POP PUSH1 0x60 DUP8 ADD CALLDATALOAD SWAP3 POP PUSH1 0x80 DUP8 ADD CALLDATALOAD PUSH8 0xFFFFFFFFFFFFFFFF DUP2 GT ISZERO PUSH2 0x3C9E JUMPI DUP3 DUP4 REVERT JUMPDEST PUSH2 0x3CAA DUP10 DUP3 DUP11 ADD PUSH2 0x3A7E JUMP JUMPDEST SWAP8 SWAP11 SWAP7 SWAP10 POP SWAP5 SWAP8 POP SWAP3 SWAP6 SWAP4 SWAP5 SWAP3 POP POP POP JUMP JUMPDEST PUSH1 0x0 PUSH1 0x20 DUP3 DUP5 SUB SLT ISZERO PUSH2 0x3CCD JUMPI DUP1 DUP2 REVERT JUMPDEST DUP2 MLOAD PUSH8 0xFFFFFFFFFFFFFFFF DUP1 DUP3 GT ISZERO PUSH2 0x3CE4 JUMPI DUP3 DUP4 REVERT JUMPDEST DUP2 DUP5 ADD SWAP2 POP DUP5 PUSH1 0x1F DUP4 ADD SLT PUSH2 0x3CF7 JUMPI DUP3 DUP4 REVERT JUMPDEST DUP2 MLOAD DUP2 DUP2 GT ISZERO PUSH2 0x3D03 JUMPI INVALID JUMPDEST PUSH1 0x40 MLOAD PUSH1 0x1F DUP3 ADD PUSH1 0x1F NOT AND DUP2 ADD PUSH1 0x20 ADD DUP4 DUP2 GT DUP3 DUP3 LT OR ISZERO PUSH2 0x3D21 JUMPI INVALID JUMPDEST PUSH1 0x40 MSTORE DUP2 DUP2 MSTORE DUP4 DUP3 ADD PUSH1 0x20 ADD DUP8 LT ISZERO PUSH2 0x3D38 JUMPI DUP5 DUP6 REVERT JUMPDEST PUSH2 0x27F1 DUP3 PUSH1 0x20 DUP4 ADD PUSH1 0x20 DUP8 ADD PUSH2 0x451D JUMP JUMPDEST PUSH1 0x0 PUSH1 0x20 DUP3 DUP5 SUB SLT ISZERO PUSH2 0x3D5A JUMPI DUP1 DUP2 REVERT JUMPDEST POP MLOAD SWAP2 SWAP1 POP JUMP JUMPDEST PUSH1 0x0 PUSH1 0x20 DUP3 DUP5 SUB SLT ISZERO PUSH2 0x3D72 JUMPI DUP1 DUP2 REVERT JUMPDEST DUP2 CALLDATALOAD PUSH2 0x64E DUP2 PUSH2 0x4736 JUMP JUMPDEST PUSH1 0x0 DUP1 PUSH1 0x0 DUP1 PUSH1 0x80 DUP6 DUP8 SUB SLT ISZERO PUSH2 0x3D92 JUMPI DUP2 DUP3 REVERT JUMPDEST DUP5 CALLDATALOAD PUSH2 0x3D9D DUP2 PUSH2 0x4736 JUMP JUMPDEST SWAP4 POP PUSH1 0x20 DUP6 ADD CALLDATALOAD SWAP3 POP PUSH1 0x40 DUP6 ADD CALLDATALOAD SWAP2 POP PUSH1 0x60 DUP6 ADD CALLDATALOAD PUSH2 0x3DBB DUP2 PUSH2 0x4749 JUMP JUMPDEST SWAP4 SWAP7 SWAP3 SWAP6 POP SWAP1 SWAP4 POP POP JUMP JUMPDEST PUSH1 0x0 DUP1 PUSH1 0x0 DUP1 PUSH1 0x0 DUP1 PUSH1 0xA0 DUP8 DUP10 SUB SLT ISZERO PUSH2 0x3DDE JUMPI DUP4 DUP5 REVERT JUMPDEST DUP7 CALLDATALOAD PUSH2 0x3DE9 DUP2 PUSH2 0x4736 JUMP JUMPDEST SWAP6 POP PUSH1 0x20 DUP8 ADD CALLDATALOAD SWAP5 POP PUSH1 0x40 DUP8 ADD CALLDATALOAD SWAP4 POP PUSH1 0x60 DUP8 ADD CALLDATALOAD PUSH2 0x3E07 DUP2 PUSH2 0x4749 JUMP JUMPDEST SWAP3 POP PUSH1 0x80 DUP8 ADD CALLDATALOAD PUSH8 0xFFFFFFFFFFFFFFFF DUP2 GT ISZERO PUSH2 0x3C9E JUMPI DUP3 DUP4 REVERT JUMPDEST PUSH1 0x0 DUP1 PUSH1 0x0 DUP1 PUSH1 0x60 DUP6 DUP8 SUB SLT ISZERO PUSH2 0x3E37 JUMPI DUP2 DUP3 REVERT JUMPDEST DUP5 CALLDATALOAD SWAP4 POP PUSH1 0x20 DUP6 ADD CALLDATALOAD SWAP3 POP PUSH1 0x40 DUP6 ADD CALLDATALOAD PUSH8 0xFFFFFFFFFFFFFFFF DUP2 GT ISZERO PUSH2 0x3E5B JUMPI DUP3 DUP4 REVERT JUMPDEST PUSH2 0x3E67 DUP8 DUP3 DUP9 ADD PUSH2 0x3A7E JUMP JUMPDEST SWAP6 SWAP9 SWAP5 SWAP8 POP SWAP6 POP POP POP POP JUMP JUMPDEST PUSH1 0x0 PUSH1 0x20 DUP3 DUP5 SUB SLT ISZERO PUSH2 0x3E84 JUMPI DUP1 DUP2 REVERT JUMPDEST DUP2 CALLDATALOAD PUSH2 0x64E DUP2 PUSH2 0x475B JUMP JUMPDEST PUSH1 0x1 PUSH1 0x1 PUSH1 0xA0 SHL SUB AND SWAP1 MSTORE JUMP JUMPDEST DUP1 PUSH1 0x0 JUMPDEST PUSH1 0x3 DUP2 LT ISZERO PUSH2 0x3EC3 JUMPI DUP2 MLOAD PUSH2 0xFFFF AND DUP5 MSTORE PUSH1 0x20 SWAP4 DUP5 ADD SWAP4 SWAP1 SWAP2 ADD SWAP1 PUSH1 0x1 ADD PUSH2 0x3EA0 JUMP JUMPDEST POP POP POP POP JUMP JUMPDEST PUSH1 0x0 DUP3 DUP5 MSTORE DUP3 DUP3 PUSH1 0x20 DUP7 ADD CALLDATACOPY DUP1 PUSH1 0x20 DUP5 DUP7 ADD ADD MSTORE PUSH1 0x20 PUSH1 0x1F NOT PUSH1 0x1F DUP6 ADD AND DUP6 ADD ADD SWAP1 POP SWAP4 SWAP3 POP POP POP JUMP JUMPDEST DUP1 MLOAD PUSH1 0x1 PUSH1 0x1 PUSH1 0xA0 SHL SUB AND DUP3 MSTORE PUSH1 0x20 DUP1 DUP3 ADD MLOAD SWAP1 DUP4 ADD MSTORE PUSH1 0x40 SWAP1 DUP2 ADD MLOAD SWAP2 ADD MSTORE JUMP JUMPDEST PUSH2 0xFFFF AND SWAP1 MSTORE JUMP JUMPDEST PUSH1 0x1 PUSH1 0x1 PUSH1 0xA0 SHL SUB SWAP2 SWAP1 SWAP2 AND DUP2 MSTORE PUSH1 0x20 ADD SWAP1 JUMP JUMPDEST PUSH1 0x0 PUSH1 0x1 DUP1 PUSH1 0xA0 SHL SUB DUP1 DUP11 AND DUP4 MSTORE DUP1 DUP10 AND PUSH1 0x20 DUP5 ADD MSTORE POP DUP7 PUSH1 0x40 DUP4 ADD MSTORE DUP6 PUSH1 0x60 DUP4 ADD MSTORE DUP5 PUSH1 0x80 DUP4 ADD MSTORE PUSH1 0xC0 PUSH1 0xA0 DUP4 ADD MSTORE PUSH2 0x1D54 PUSH1 0xC0 DUP4 ADD DUP5 DUP7 PUSH2 0x3EC9 JUMP JUMPDEST PUSH1 0x1 PUSH1 0x1 PUSH1 0xA0 SHL SUB SWAP4 DUP5 AND DUP2 MSTORE PUSH1 0x20 DUP2 ADD SWAP3 SWAP1 SWAP3 MSTORE SWAP1 SWAP2 AND PUSH1 0x40 DUP3 ADD MSTORE PUSH1 0x60 ADD SWAP1 JUMP JUMPDEST PUSH1 0x1 PUSH1 0x1 PUSH1 0xA0 SHL SUB SWAP5 DUP6 AND DUP2 MSTORE PUSH1 0x20 DUP2 ADD SWAP4 SWAP1 SWAP4 MSTORE SWAP3 AND PUSH1 0x40 DUP3 ADD MSTORE PUSH2 0xFFFF SWAP1 SWAP2 AND PUSH1 0x60 DUP3 ADD MSTORE PUSH1 0x80 ADD SWAP1 JUMP JUMPDEST PUSH1 0x1 PUSH1 0x1 PUSH1 0xA0 SHL SUB SWAP4 SWAP1 SWAP4 AND DUP4 MSTORE PUSH1 0x20 DUP4 ADD SWAP2 SWAP1 SWAP2 MSTORE PUSH1 0x40 DUP3 ADD MSTORE PUSH1 0x60 ADD SWAP1 JUMP JUMPDEST PUSH1 0x0 PUSH1 0x1 DUP1 PUSH1 0xA0 SHL SUB DUP8 AND DUP3 MSTORE DUP6 PUSH1 0x20 DUP4 ADD MSTORE DUP5 PUSH1 0x40 DUP4 ADD MSTORE PUSH1 0x80 PUSH1 0x60 DUP4 ADD MSTORE PUSH2 0x879 PUSH1 0x80 DUP4 ADD DUP5 DUP7 PUSH2 0x3EC9 JUMP JUMPDEST SWAP1 ISZERO ISZERO DUP2 MSTORE PUSH1 0x20 ADD SWAP1 JUMP JUMPDEST PUSH1 0x0 PUSH1 0x20 DUP3 MSTORE DUP3 MLOAD DUP1 PUSH1 0x20 DUP5 ADD MSTORE PUSH2 0x4038 DUP2 PUSH1 0x40 DUP6 ADD PUSH1 0x20 DUP8 ADD PUSH2 0x451D JUMP JUMPDEST PUSH1 0x1F ADD PUSH1 0x1F NOT AND SWAP2 SWAP1 SWAP2 ADD PUSH1 0x40 ADD SWAP3 SWAP2 POP POP JUMP JUMPDEST SWAP1 DUP2 MSTORE PUSH1 0x20 ADD SWAP1 JUMP JUMPDEST SWAP2 DUP3 MSTORE PUSH1 0x20 DUP3 ADD MSTORE PUSH1 0x40 ADD SWAP1 JUMP JUMPDEST PUSH1 0x20 DUP1 DUP3 MSTORE PUSH1 0x11 SWAP1 DUP3 ADD MSTORE PUSH17 0x52656465656D20616C6C20746F6B656E73 PUSH1 0x78 SHL PUSH1 0x40 DUP3 ADD MSTORE PUSH1 0x60 ADD SWAP1 JUMP JUMPDEST PUSH1 0x20 DUP1 DUP3 MSTORE PUSH1 0x6 SWAP1 DUP3 ADD MSTORE PUSH6 0x14185D5CD959 PUSH1 0xD2 SHL PUSH1 0x40 DUP3 ADD MSTORE PUSH1 0x60 ADD SWAP1 JUMP JUMPDEST PUSH1 0x20 DUP1 DUP3 MSTORE PUSH1 0xC SWAP1 DUP3 ADD MSTORE PUSH12 0x155B985D5D1A1BDC9A5E9959 PUSH1 0xA2 SHL PUSH1 0x40 DUP3 ADD MSTORE PUSH1 0x60 ADD SWAP1 JUMP JUMPDEST PUSH1 0x20 DUP1 DUP3 MSTORE PUSH1 0x4 SWAP1 DUP3 ADD MSTORE PUSH4 0x135A5B9D PUSH1 0xE2 SHL PUSH1 0x40 DUP3 ADD MSTORE PUSH1 0x60 ADD SWAP1 JUMP JUMPDEST PUSH1 0x20 DUP1 DUP3 MSTORE PUSH1 0x6 SWAP1 DUP3 ADD MSTORE PUSH6 0x52656465656D PUSH1 0xD0 SHL PUSH1 0x40 DUP3 ADD MSTORE PUSH1 0x60 ADD SWAP1 JUMP JUMPDEST PUSH1 0x20 DUP1 DUP3 MSTORE PUSH1 0xD SWAP1 DUP3 ADD MSTORE PUSH13 0x556E7061696420426F72726F77 PUSH1 0x98 SHL PUSH1 0x40 DUP3 ADD MSTORE PUSH1 0x60 ADD SWAP1 JUMP JUMPDEST PUSH1 0x20 DUP1 DUP3 MSTORE PUSH1 0x16 SWAP1 DUP3 ADD MSTORE PUSH22 0x125B9CDD59999A58DA595B9D081C995C185E5B595B9D PUSH1 0x52 SHL PUSH1 0x40 DUP3 ADD MSTORE PUSH1 0x60 ADD SWAP1 JUMP JUMPDEST PUSH1 0x20 DUP1 DUP3 MSTORE PUSH1 0x15 SWAP1 DUP3 ADD MSTORE PUSH21 0x10D1CE881B9BC81B585C9AD95D1CC81B1A5CDD1959 PUSH1 0x5A SHL PUSH1 0x40 DUP3 ADD MSTORE PUSH1 0x60 ADD SWAP1 JUMP JUMPDEST PUSH1 0x20 DUP1 DUP3 MSTORE PUSH1 0xD SWAP1 DUP3 ADD MSTORE PUSH13 0x92DCECC2D8D2C840D2DCC8CAF PUSH1 0x9B SHL PUSH1 0x40 DUP3 ADD MSTORE PUSH1 0x60 ADD SWAP1 JUMP JUMPDEST PUSH1 0x20 DUP1 DUP3 MSTORE PUSH1 0xC SWAP1 DUP3 ADD MSTORE PUSH12 0x151C9859194811985A5B1959 PUSH1 0xA2 SHL PUSH1 0x40 DUP3 ADD MSTORE PUSH1 0x60 ADD SWAP1 JUMP JUMPDEST PUSH1 0x20 DUP1 DUP3 MSTORE PUSH1 0xD SWAP1 DUP3 ADD MSTORE PUSH13 0x43616E6E6F7420536574746C65 PUSH1 0x98 SHL PUSH1 0x40 DUP3 ADD MSTORE PUSH1 0x60 ADD SWAP1 JUMP JUMPDEST PUSH1 0x20 DUP1 DUP3 MSTORE PUSH1 0xC SWAP1 DUP3 ADD MSTORE PUSH12 0x4D6178204361706163697479 PUSH1 0xA0 SHL PUSH1 0x40 DUP3 ADD MSTORE PUSH1 0x60 ADD SWAP1 JUMP JUMPDEST PUSH1 0x20 DUP1 DUP3 MSTORE PUSH1 0x16 SWAP1 DUP3 ADD MSTORE PUSH22 0x10D1CE881B585C9AD95D081A5B99195E08189BDD5B99 PUSH1 0x52 SHL PUSH1 0x40 DUP3 ADD MSTORE PUSH1 0x60 ADD SWAP1 JUMP JUMPDEST PUSH1 0x20 DUP1 DUP3 MSTORE PUSH1 0x10 SWAP1 DUP3 ADD MSTORE PUSH16 0x496E76616C69642043757272656E6379 PUSH1 0x80 SHL PUSH1 0x40 DUP3 ADD MSTORE PUSH1 0x60 ADD SWAP1 JUMP JUMPDEST PUSH1 0x20 DUP1 DUP3 MSTORE DUP2 DUP2 ADD MSTORE PUSH32 0x4F776E61626C653A2063616C6C6572206973206E6F7420746865206F776E6572 PUSH1 0x40 DUP3 ADD MSTORE PUSH1 0x60 ADD SWAP1 JUMP JUMPDEST PUSH1 0x20 DUP1 DUP3 MSTORE PUSH1 0x17 SWAP1 DUP3 ADD MSTORE PUSH32 0x496E73756666696369656E7420436F6C6C61746572616C000000000000000000 PUSH1 0x40 DUP3 ADD MSTORE PUSH1 0x60 ADD SWAP1 JUMP JUMPDEST PUSH1 0x20 DUP1 DUP3 MSTORE PUSH1 0xE SWAP1 DUP3 ADD MSTORE PUSH14 0x1499595B9D1C985B9D0818D85B1B PUSH1 0x92 SHL PUSH1 0x40 DUP3 ADD MSTORE PUSH1 0x60 ADD SWAP1 JUMP JUMPDEST PUSH1 0x20 DUP1 DUP3 MSTORE PUSH1 0x12 SWAP1 DUP3 ADD MSTORE PUSH18 0x496E73756666696369656E74205265706179 PUSH1 0x70 SHL PUSH1 0x40 DUP3 ADD MSTORE PUSH1 0x60 ADD SWAP1 JUMP JUMPDEST PUSH1 0x20 DUP1 DUP3 MSTORE PUSH1 0x13 SWAP1 DUP3 ADD MSTORE PUSH19 0x10D1CE881B9BC81B585C9AD95D08199BDD5B99 PUSH1 0x6A SHL PUSH1 0x40 DUP3 ADD MSTORE PUSH1 0x60 ADD SWAP1 JUMP JUMPDEST PUSH1 0x0 PUSH2 0x200 DUP3 ADD SWAP1 POP PUSH2 0x438D DUP3 DUP5 MLOAD PUSH2 0x3E8F JUMP JUMPDEST PUSH1 0x20 DUP4 ADD MLOAD PUSH2 0x439F PUSH1 0x20 DUP5 ADD DUP3 PUSH2 0x3F15 JUMP JUMPDEST POP PUSH1 0x40 DUP4 ADD MLOAD PUSH2 0x43B2 PUSH1 0x40 DUP5 ADD DUP3 PUSH2 0x3F15 JUMP JUMPDEST POP PUSH1 0x60 DUP4 ADD MLOAD PUSH1 0x60 DUP4 ADD MSTORE PUSH1 0x80 DUP4 ADD MLOAD PUSH1 0x80 DUP4 ADD MSTORE PUSH1 0xA0 DUP4 ADD MLOAD PUSH1 0xA0 DUP4 ADD MSTORE PUSH1 0xC0 DUP4 ADD MLOAD PUSH1 0xC0 DUP4 ADD MSTORE PUSH1 0xE0 DUP4 ADD MLOAD PUSH1 0xE0 DUP4 ADD MSTORE PUSH2 0x100 DUP1 DUP5 ADD MLOAD DUP2 DUP5 ADD MSTORE POP PUSH2 0x120 DUP1 DUP5 ADD MLOAD DUP2 DUP5 ADD MSTORE POP PUSH2 0x140 DUP1 DUP5 ADD MLOAD PUSH2 0x4410 DUP3 DUP6 ADD DUP3 PUSH2 0x3E9C JUMP JUMPDEST POP POP PUSH2 0x160 DUP4 ADD MLOAD PUSH2 0x4426 PUSH2 0x1A0 DUP5 ADD DUP3 PUSH2 0x3EF3 JUMP JUMPDEST POP SWAP3 SWAP2 POP POP JUMP JUMPDEST PUSH1 0x0 PUSH1 0xE0 DUP3 ADD SWAP1 POP DUP3 MLOAD DUP3 MSTORE PUSH1 0x20 DUP4 ADD MLOAD PUSH1 0x20 DUP4 ADD MSTORE PUSH1 0x40 DUP4 ADD MLOAD ISZERO ISZERO PUSH1 0x40 DUP4 ADD MSTORE PUSH1 0x60 DUP4 ADD MLOAD PUSH1 0x60 DUP4 ADD MSTORE PUSH1 0x80 DUP4 ADD MLOAD PUSH1 0x80 DUP4 ADD MSTORE PUSH1 0xA0 DUP4 ADD MLOAD PUSH1 0xA0 DUP4 ADD MSTORE PUSH1 0xC0 DUP4 ADD MLOAD PUSH1 0xC0 DUP4 ADD MSTORE SWAP3 SWAP2 POP POP JUMP JUMPDEST PUSH1 0x1 PUSH1 0x1 PUSH1 0x80 SHL SUB SWAP2 SWAP1 SWAP2 AND DUP2 MSTORE PUSH1 0x20 ADD SWAP1 JUMP JUMPDEST PUSH2 0xFFFF SWAP3 SWAP1 SWAP3 AND DUP3 MSTORE PUSH1 0x20 DUP3 ADD MSTORE PUSH1 0x40 ADD SWAP1 JUMP JUMPDEST PUSH1 0x0 DUP5 DUP3 MSTORE PUSH1 0x40 PUSH1 0x20 DUP4 ADD MSTORE PUSH2 0x2F5E PUSH1 0x40 DUP4 ADD DUP5 DUP7 PUSH2 0x3EC9 JUMP JUMPDEST DUP2 DUP2 PUSH1 0x0 DUP1 JUMPDEST PUSH1 0x3 DUP2 LT ISZERO PUSH2 0x3A0 JUMPI DUP4 CALLDATALOAD PUSH2 0x44D9 DUP2 PUSH2 0x4736 JUMP JUMPDEST DUP4 SLOAD PUSH2 0xFFFF PUSH1 0x8 DUP6 MUL DUP2 DUP2 SHL DUP1 NOT SWAP1 SWAP4 AND SWAP4 SWAP1 SWAP2 AND SWAP1 SHL AND OR DUP4 SSTORE PUSH1 0x20 SWAP4 SWAP1 SWAP4 ADD SWAP3 PUSH1 0x2 SWAP1 SWAP2 ADD SWAP1 PUSH1 0x1E DUP3 GT ISZERO PUSH2 0x4515 JUMPI PUSH1 0x0 SWAP2 POP PUSH1 0x1 DUP4 ADD SWAP3 POP JUMPDEST PUSH1 0x1 ADD PUSH2 0x44C5 JUMP JUMPDEST PUSH1 0x0 JUMPDEST DUP4 DUP2 LT ISZERO PUSH2 0x4538 JUMPI DUP2 DUP2 ADD MLOAD DUP4 DUP3 ADD MSTORE PUSH1 0x20 ADD PUSH2 0x4520 JUMP JUMPDEST DUP4 DUP2 GT ISZERO PUSH2 0x3EC3 JUMPI POP POP PUSH1 0x0 SWAP2 ADD MSTORE JUMP JUMPDEST PUSH1 0x0 DUP2 CALLDATALOAD PUSH2 0xCB4 DUP2 PUSH2 0x4736 JUMP JUMPDEST PUSH1 0x0 DUP2 CALLDATALOAD PUSH2 0xCB4 DUP2 PUSH2 0x4749 JUMP JUMPDEST PUSH1 0x0 DUP2 CALLDATALOAD PUSH2 0xCB4 DUP2 PUSH2 0x475B JUMP JUMPDEST DUP2 CALLDATALOAD PUSH2 0x457B DUP2 PUSH2 0x4736 JUMP JUMPDEST PUSH2 0xFFFF DUP2 AND PUSH2 0xFFFF NOT DUP4 SLOAD AND OR DUP3 SSTORE POP PUSH2 0x45A0 PUSH2 0x459A PUSH1 0x20 DUP5 ADD PUSH2 0x4549 JUMP JUMPDEST DUP3 PUSH2 0x46D8 JUMP JUMPDEST PUSH2 0x45B5 PUSH2 0x45AF PUSH1 0x40 DUP5 ADD PUSH2 0x4556 JUMP JUMPDEST DUP3 PUSH2 0x46F4 JUMP JUMPDEST PUSH2 0x45CA PUSH2 0x45C4 PUSH1 0x60 DUP5 ADD PUSH2 0x4549 JUMP JUMPDEST DUP3 PUSH2 0x4718 JUMP JUMPDEST PUSH2 0x45DF PUSH2 0x45D9 PUSH1 0x80 DUP5 ADD PUSH2 0x4563 JUMP JUMPDEST DUP3 PUSH2 0x4645 JUMP JUMPDEST PUSH2 0x45F4 PUSH2 0x45EE PUSH1 0xA0 DUP5 ADD PUSH2 0x4563 JUMP JUMPDEST DUP3 PUSH2 0x4662 JUMP JUMPDEST PUSH2 0x4609 PUSH2 0x4603 PUSH1 0xC0 DUP5 ADD PUSH2 0x4563 JUMP JUMPDEST DUP3 PUSH2 0x467F JUMP JUMPDEST PUSH2 0x461E PUSH2 0x4618 PUSH1 0xE0 DUP5 ADD PUSH2 0x4563 JUMP JUMPDEST DUP3 PUSH2 0x469C JUMP JUMPDEST PUSH2 0x4634 PUSH2 0x462E PUSH2 0x100 DUP5 ADD PUSH2 0x4549 JUMP JUMPDEST DUP3 PUSH2 0x46B9 JUMP JUMPDEST PUSH2 0x38E6 PUSH2 0x120 DUP4 ADD PUSH1 0x1 DUP4 ADD PUSH2 0x44BF JUMP JUMPDEST DUP1 SLOAD PUSH1 0xFF PUSH1 0x50 SHL NOT AND PUSH1 0x50 SWAP3 SWAP1 SWAP3 SHL PUSH1 0xFF PUSH1 0x50 SHL AND SWAP2 SWAP1 SWAP2 OR SWAP1 SSTORE JUMP JUMPDEST DUP1 SLOAD PUSH1 0xFF PUSH1 0x58 SHL NOT AND PUSH1 0x58 SWAP3 SWAP1 SWAP3 SHL PUSH1 0xFF PUSH1 0x58 SHL AND SWAP2 SWAP1 SWAP2 OR SWAP1 SSTORE JUMP JUMPDEST DUP1 SLOAD PUSH1 0xFF PUSH1 0x60 SHL NOT AND PUSH1 0x60 SWAP3 SWAP1 SWAP3 SHL PUSH1 0xFF PUSH1 0x60 SHL AND SWAP2 SWAP1 SWAP2 OR SWAP1 SSTORE JUMP JUMPDEST DUP1 SLOAD PUSH1 0xFF PUSH1 0x68 SHL NOT AND PUSH1 0x68 SWAP3 SWAP1 SWAP3 SHL PUSH1 0xFF PUSH1 0x68 SHL AND SWAP2 SWAP1 SWAP2 OR SWAP1 SSTORE JUMP JUMPDEST DUP1 SLOAD PUSH2 0xFFFF PUSH1 0x70 SHL NOT AND PUSH1 0x70 SWAP3 SWAP1 SWAP3 SHL PUSH2 0xFFFF PUSH1 0x70 SHL AND SWAP2 SWAP1 SWAP2 OR SWAP1 SSTORE JUMP JUMPDEST DUP1 SLOAD PUSH4 0xFFFF0000 DUP4 PUSH1 0x10 SHL AND PUSH4 0xFFFF0000 NOT DUP3 AND OR DUP3 SSTORE POP POP POP JUMP JUMPDEST DUP1 SLOAD PUSH8 0xFFFFFFFF00000000 DUP4 PUSH1 0x20 SHL AND PUSH8 0xFFFFFFFF00000000 NOT DUP3 AND OR DUP3 SSTORE POP POP POP JUMP JUMPDEST DUP1 SLOAD PUSH2 0xFFFF PUSH1 0x40 SHL DUP4 PUSH1 0x40 SHL AND PUSH2 0xFFFF PUSH1 0x40 SHL NOT DUP3 AND OR DUP3 SSTORE POP POP POP JUMP JUMPDEST PUSH2 0xFFFF DUP2 AND DUP2 EQ PUSH2 0x4746 JUMPI PUSH1 0x0 DUP1 REVERT JUMPDEST POP JUMP JUMPDEST PUSH4 0xFFFFFFFF DUP2 AND DUP2 EQ PUSH2 0x4746 JUMPI PUSH1 0x0 DUP1 REVERT JUMPDEST PUSH1 0xFF DUP2 AND DUP2 EQ PUSH2 0x4746 JUMPI PUSH1 0x0 DUP1 REVERT INVALID LOG2 PUSH5 0x6970667358 0x22 SLT KECCAK256 MSTORE PUSH4 0x2B3CFC6C CALLVALUE DUP2 DUP12 BLOCKHASH CREATE2 SWAP14 DUP7 0xE7 0xED 0xC5 0xBA COINBASE 0xED SWAP11 PC 0xEE XOR DUP5 SLT ADDMOD CALLER 0xAB SWAP4 0xFC 0xC7 0xEF PUSH5 0x736F6C6343 STOP SMOD MOD STOP CALLER ",
  "sha1": "075016a5ad13f70a132363ca558c2effe8e12468",
  "source": "// SPDX-License-Identifier: GPL-3.0-only\npragma solidity =0.7.6;\npragma abicoder v2;\n\nimport {ActionGuards} from \"./ActionGuards.sol\";\nimport {IVaultAction} from \"../../../../interfaces/notional/IVaultController.sol\";\nimport \"../../internal/vaults/VaultConfiguration.sol\";\nimport \"../../internal/vaults/VaultAccount.sol\";\nimport {VaultStateLib, VaultState} from \"../../internal/vaults/VaultState.sol\";\n\nimport {LibStorage} from \"../../global/LibStorage.sol\";\nimport {SafeUint256} from \"../../math/SafeUint256.sol\";\n\ncontract VaultAction is ActionGuards, IVaultAction {\n    using VaultConfiguration for VaultConfig;\n    using VaultAccountLib for VaultAccount;\n    using VaultStateLib for VaultState;\n    using AssetRate for AssetRateParameters;\n    using TokenHandler for Token;\n    using SafeInt256 for int256;\n    using SafeUint256 for uint256;\n\n    /// @notice Updates or lists a deployed vault along with its configuration.\n    /// @param vaultAddress address of deployed vault\n    /// @param vaultConfig struct of vault configuration\n    /// @param maxPrimaryBorrowCapacity maximum borrow capacity\n    function updateVault(\n        address vaultAddress,\n        VaultConfigStorage calldata vaultConfig,\n        uint80 maxPrimaryBorrowCapacity\n    ) external override onlyOwner {\n        VaultConfiguration.setVaultConfig(vaultAddress, vaultConfig);\n        VaultConfiguration.setMaxBorrowCapacity(vaultAddress, vaultConfig.borrowCurrencyId, maxPrimaryBorrowCapacity);\n        bool enabled = (vaultConfig.flags & VaultConfiguration.ENABLED) == VaultConfiguration.ENABLED;\n        emit VaultChange(vaultAddress, enabled);\n    }\n\n    /// @notice Enables or disables a vault. If a vault is disabled, no one can enter\n    /// the vault but exits are still possible.\n    /// @param vaultAddress address of deployed vault\n    /// @param enable true if the vault should be enabled immediately\n    function setVaultPauseStatus(\n        address vaultAddress,\n        bool enable\n    ) external override onlyOwner {\n        VaultConfiguration.setVaultEnabledStatus(vaultAddress, enable);\n        emit VaultPauseStatus(vaultAddress, enable);\n    }\n\n    /// @notice Whitelists a secondary borrow currency for a vault, vaults can borrow up to the capacity\n    /// using the `borrowSecondaryCurrencyToVault` and `repaySecondaryCurrencyToVault` methods. Vaults that\n    /// use a secondary currency must ALWAYS repay the secondary debt during redemption and handle accounting\n    /// for the secondary currency themselves.\n    /// @param vaultAddress address of deployed vault\n    /// @param secondaryCurrencyId struct of vault configuration\n    /// @param maxBorrowCapacity maximum borrow capacity\n    function updateSecondaryBorrowCapacity(\n        address vaultAddress,\n        uint16 secondaryCurrencyId,\n        uint80 maxBorrowCapacity\n    ) external override onlyOwner {\n        VaultConfig memory vaultConfig = VaultConfiguration.getVaultConfigStateful(vaultAddress);\n        // Tokens with transfer fees create lots of issues with vault mechanics, we prevent them\n        // from being listed here.\n        Token memory assetToken = TokenHandler.getAssetToken(secondaryCurrencyId);\n        Token memory underlyingToken = TokenHandler.getUnderlyingToken(secondaryCurrencyId);\n        require(!assetToken.hasTransferFee && !underlyingToken.hasTransferFee); \n\n        // The secondary borrow currency must be white listed on the configuration before we can set a max\n        // capacity.\n        require(\n            secondaryCurrencyId == vaultConfig.secondaryBorrowCurrencies[0] ||\n            secondaryCurrencyId == vaultConfig.secondaryBorrowCurrencies[1] ||\n            secondaryCurrencyId == vaultConfig.secondaryBorrowCurrencies[2],\n            \"Invalid Currency\"\n        );\n\n        VaultConfiguration.setMaxBorrowCapacity(vaultAddress, secondaryCurrencyId, maxBorrowCapacity);\n    }\n\n    /// @notice Allows the owner to reduce the max borrow capacity on the vault and force\n    /// the redemption of strategy tokens to cash to reduce the overall risk of the vault.\n    /// This method is intended to be used in emergencies to mitigate insolvency risk.\n    /// @param vaultAddress address of the vault\n    /// @param maxVaultBorrowCapacity the new max vault borrow capacity on the primary currency\n    /// @param maturity the maturity to redeem tokens in, will generally be either the current\n    /// maturity or the next maturity.\n    /// @param strategyTokensToRedeem how many tokens we would want to redeem in the maturity\n    /// @param vaultData vault data to pass to the vault\n    function reduceMaxBorrowCapacity(\n        address vaultAddress,\n        uint80 maxVaultBorrowCapacity,\n        uint256 maturity,\n        uint256 strategyTokensToRedeem,\n        bytes calldata vaultData\n    ) external override onlyOwner {\n        VaultConfig memory vaultConfig = VaultConfiguration.getVaultConfigStateful(vaultAddress);\n        VaultConfiguration.setMaxBorrowCapacity(vaultAddress, vaultConfig.borrowCurrencyId, maxVaultBorrowCapacity);\n\n        // Redeems strategy tokens to be held against fCash debt\n        _redeemStrategyTokensToCashInternal(vaultConfig, maturity, strategyTokensToRedeem, vaultData);\n    }\n\n    /// @notice Strategy vaults can call this method to redeem strategy tokens to cash and hold them\n    /// as asset cash within the pool. This should typically be used during settlement but can also be\n    /// used for vault-wide deleveraging.\n    /// @param maturity the maturity of the vault where the redemption will take place\n    /// @param strategyTokensToRedeem the number of strategy tokens redeemed\n    /// @param vaultData arbitrary data to pass back to the vault\n    /// @return assetCashRequiredToSettle amount of asset cash still remaining to settle the debt\n    /// @return underlyingCashRequiredToSettle amount of underlying cash still remaining to settle the debt\n    function redeemStrategyTokensToCash(\n        uint256 maturity,\n        uint256 strategyTokensToRedeem,\n        bytes calldata vaultData\n    ) external override returns (int256 assetCashRequiredToSettle, int256 underlyingCashRequiredToSettle) {\n        // NOTE: this call must come from the vault itself\n        VaultConfig memory vaultConfig = VaultConfiguration.getVaultConfigStateful(msg.sender);\n        // NOTE: if the msg.sender is not the vault itself this will revert\n        require(vaultConfig.getFlag(VaultConfiguration.ENABLED), \"Paused\");\n        return _redeemStrategyTokensToCashInternal(vaultConfig, maturity, strategyTokensToRedeem, vaultData);\n    }\n\n    /// @notice Redeems strategy tokens to cash\n    function _redeemStrategyTokensToCashInternal(\n        VaultConfig memory vaultConfig,\n        uint256 maturity,\n        uint256 strategyTokensToRedeem,\n        bytes calldata vaultData\n    ) private nonReentrant returns (int256 assetCashRequiredToSettle, int256 underlyingCashRequiredToSettle) {\n        // If the vault allows further re-entrancy then set the status back to the default\n        if (vaultConfig.getFlag(VaultConfiguration.ALLOW_REENTRANCY)) {\n            reentrancyStatus = _NOT_ENTERED;\n        }\n\n        VaultState memory vaultState = VaultStateLib.getVaultState(vaultConfig.vault, maturity);\n        int256 assetCashReceived = vaultConfig.redeemWithoutDebtRepayment(\n            vaultConfig.vault, strategyTokensToRedeem, maturity, vaultData\n        );\n        require(assetCashReceived > 0);\n\n        vaultState.totalAssetCash = vaultState.totalAssetCash.add(uint256(assetCashReceived));\n        vaultState.totalStrategyTokens = vaultState.totalStrategyTokens.sub(strategyTokensToRedeem);\n        vaultState.setVaultState(vaultConfig.vault);\n\n        return _getCashRequiredToSettle(vaultConfig, vaultState, maturity);\n    }\n\n    /// @notice Strategy vaults can call this method to deposit asset cash into strategy tokens.\n    /// @param maturity the maturity of the vault where the redemption will take place\n    /// @param assetCashToDepositExternal the number of asset cash tokens to deposit (external)\n    /// @param vaultData arbitrary data to pass back to the vault for deposit\n    function depositVaultCashToStrategyTokens(\n        uint256 maturity,\n        uint256 assetCashToDepositExternal,\n        bytes calldata vaultData\n    ) external override nonReentrant {\n        VaultConfig memory vaultConfig = VaultConfiguration.getVaultConfigStateful(msg.sender);\n        // If the vault allows further re-entrancy then set the status back to the default\n        if (vaultConfig.getFlag(VaultConfiguration.ALLOW_REENTRANCY)) {\n            reentrancyStatus = _NOT_ENTERED;\n        }\n\n        // NOTE: if the msg.sender is not the vault itself this will revert\n        require(vaultConfig.getFlag(VaultConfiguration.ENABLED), \"Paused\");\n\n        VaultState memory vaultState = VaultStateLib.getVaultState(msg.sender, maturity);\n        Token memory assetToken = TokenHandler.getAssetToken(vaultConfig.borrowCurrencyId);\n\n        int256 assetCashInternal = assetToken.convertToInternal(SafeInt256.toInt(assetCashToDepositExternal));\n        uint256 strategyTokensMinted = vaultConfig.deposit(\n            vaultConfig.vault, assetCashInternal, maturity, 0, vaultData\n        );\n\n        vaultState.totalAssetCash = vaultState.totalAssetCash.sub(SafeInt256.toUint(assetCashInternal));\n        vaultState.totalStrategyTokens = vaultState.totalStrategyTokens.add(strategyTokensMinted);\n        vaultState.setVaultState(msg.sender);\n\n        // When exchanging asset cash for strategy tokens we will decrease the vault's collateral, ensure that\n        // we don't go under the configured minimum here.\n        (int256 collateralRatio, /* */) = vaultConfig.calculateCollateralRatio(\n            vaultState, msg.sender, vaultState.totalVaultShares, vaultState.totalfCash\n        );\n        require(vaultConfig.minCollateralRatio <= collateralRatio, \"Insufficient Collateral\");\n    }\n\n    /// @notice Allows a vault to borrow a secondary currency if it is whitelisted to do so\n    /// @param currencyId currency id of the secondary currency\n    /// @param maturity the maturity to borrow at\n    /// @param fCashToBorrow amount of fCash to borrow\n    /// @param maxBorrowRate maximum rate annualized rate to borrow\n    /// @return underlyingTokensTransferred amount of tokens transferred back to the vault\n    function borrowSecondaryCurrencyToVault(\n        uint16 currencyId,\n        uint256 maturity,\n        uint256 fCashToBorrow,\n        uint32 maxBorrowRate\n    ) external override returns (uint256 underlyingTokensTransferred) {\n        (int256 netAssetCash, VaultConfig memory vaultConfig) = _executeSecondaryCurrencyTrade(\n            currencyId, maturity, fCashToBorrow.toInt().neg(), maxBorrowRate\n        );\n        // Require that borrow trades succeed\n        require(netAssetCash > 0, \"Trade Failed\");\n\n        underlyingTokensTransferred = VaultConfiguration.transferFromNotional(\n            vaultConfig.vault, currencyId, netAssetCash\n        );\n    }\n\n    /// @notice Allows a vault to repay a secondary currency that it has borrowed. Will be executed via a callback\n    /// which will request that the vault repay a specific amount of underlying tokens.\n    /// @param currencyId currency id of the secondary currency\n    /// @param maturity the maturity to lend at\n    /// @param fCashToLend amount of fCash to lend\n    /// @param minLendRate minimum lend rate\n    /// @return returnData arbitrary return data to pass back to the vault\n    function repaySecondaryCurrencyFromVault(\n        uint16 currencyId,\n        uint256 maturity,\n        uint256 fCashToLend,\n        uint32 minLendRate,\n        bytes calldata callbackData\n    ) external override returns (bytes memory returnData) {\n        int256 netAssetCash;\n        int256 netfCash = fCashToLend.toInt();\n        AssetRateParameters memory assetRate;\n        if (maturity > block.timestamp) {\n            VaultConfig memory vaultConfig;\n            (netAssetCash, vaultConfig) = _executeSecondaryCurrencyTrade(currencyId, maturity, netfCash, minLendRate);\n            assetRate = vaultConfig.assetRate;\n        } else {\n            // Post maturity, repayment must be done via the settlement rate\n            assetRate = AssetRate.buildSettlementRateStateful(currencyId, maturity, block.timestamp);\n            netAssetCash = assetRate.convertFromUnderlying(netfCash).neg();\n            VaultConfiguration.updateSecondaryBorrowCapacity(msg.sender, currencyId, maturity, netfCash);\n\n            // However, for the next step when we calculate the underlying amount to repay, we have to use\n            // the most current asset rate.\n            assetRate = AssetRate.buildAssetRateStateful(currencyId);\n        }\n        Token memory assetToken = TokenHandler.getAssetToken(currencyId);\n\n        // The vault MUST return exactly this amount of underlying tokens to the vault in the callback. We use\n        // a callback here because it is more precise and gas efficient than calculating netAssetCash twice\n        uint256 balanceTransferred;\n        {\n            // If the asset token is NonMintable then the underlying is the same object.\n            Token memory underlyingToken = assetToken.tokenType == TokenType.NonMintable ? \n                assetToken :\n                TokenHandler.getUnderlyingToken(currencyId);\n\n            uint256 underlyingExternalToRepay = underlyingToken.convertToUnderlyingExternalWithAdjustment(\n                assetRate.convertToUnderlying(netAssetCash).neg()\n            ).toUint();\n\n            uint256 balanceBefore = underlyingToken.balanceOf(address(this));\n            // Tells the vault will redeem the strategy token amount and transfer asset tokens back to Notional\n            returnData = IStrategyVault(msg.sender).repaySecondaryBorrowCallback(\n                underlyingExternalToRepay, callbackData\n            );\n            uint256 balanceAfter = underlyingToken.balanceOf(address(this));\n            balanceTransferred = balanceAfter.sub(balanceBefore);\n            require(balanceTransferred >= underlyingExternalToRepay, \"Insufficient Repay\");\n        }\n\n        // NonMintable tokens do not require minting\n        if (assetToken.tokenType != TokenType.NonMintable) {\n            assetToken.mint(currencyId, balanceTransferred);\n        }\n    }\n\n    function _executeSecondaryCurrencyTrade(\n        uint16 currencyId,\n        uint256 maturity,\n        int256 netfCash,\n        uint32 slippageLimit\n    ) internal returns (int256 netAssetCash, VaultConfig memory vaultConfig) {\n        // This method call must come from the vault\n        vaultConfig = VaultConfiguration.getVaultConfigStateful(msg.sender);\n        require(vaultConfig.getFlag(VaultConfiguration.ENABLED), \"Paused\");\n        require(currencyId != vaultConfig.borrowCurrencyId);\n\n        VaultConfiguration.updateSecondaryBorrowCapacity(msg.sender, currencyId, maturity, netfCash);\n\n        netAssetCash = VaultAccountLib.executeTrade(\n            currencyId,\n            maturity,\n            netfCash,\n            slippageLimit,\n            vaultConfig.maxBorrowMarketIndex,\n            block.timestamp\n        );\n\n        // If netAssetCash is zero then the contract must lend at 0% interest using the asset cash\n        // exchange rate. In this case, the vault forgoes any money market interest on asset cash\n        if (netfCash > 0 && netAssetCash == 0) {\n            netAssetCash = vaultConfig.assetRate.convertFromUnderlying(netfCash).neg();\n        }\n    }\n\n    /// @notice Settles a vault and sets the final settlement rates\n    /// @param vault the vault to settle\n    /// @param maturity the maturity of the vault\n    function settleVault(address vault, uint256 maturity) external override nonReentrant {\n        VaultConfig memory vaultConfig = VaultConfiguration.getVaultConfigStateful(vault);\n        // Allow anyone to call this method unless it must be authorized by the vault. Generally speaking,\n        // as long as there is sufficient cash on the vault we should be able to settle\n        vaultConfig.authorizeCaller(msg.sender, VaultConfiguration.ONLY_VAULT_SETTLE);\n\n        VaultState memory vaultState = VaultStateLib.getVaultState(vault, maturity);\n        // Ensure that we are past maturity and the vault is able to settle\n        require(maturity <= block.timestamp && vaultState.isSettled == false, \"Cannot Settle\");\n\n        AssetRateParameters memory settlementRate = AssetRate.buildSettlementRateStateful(\n            vaultConfig.borrowCurrencyId,\n            maturity,\n            block.timestamp\n        );\n\n        // This is how much it costs in asset cash to settle the pooled portion of the vault\n        uint256 assetCashRequiredToSettle = settlementRate.convertFromUnderlying(\n            vaultState.totalfCash.neg()\n        ).toUint();\n\n        // Validate that all secondary currencies have been paid off.\n        mapping(uint256 => VaultSecondaryBorrowStorage) storage perCurrencyBalance =\n            LibStorage.getVaultSecondaryBorrow()[vault][maturity];\n        if (vaultConfig.secondaryBorrowCurrencies[0] != 0) {\n            require(perCurrencyBalance[vaultConfig.secondaryBorrowCurrencies[0]].fCashBorrowed == 0, \"Unpaid Borrow\");\n        }\n        if (vaultConfig.secondaryBorrowCurrencies[1] != 0) {\n            require(perCurrencyBalance[vaultConfig.secondaryBorrowCurrencies[1]].fCashBorrowed == 0, \"Unpaid Borrow\");\n        }\n        if (vaultConfig.secondaryBorrowCurrencies[2] != 0) {\n            require(perCurrencyBalance[vaultConfig.secondaryBorrowCurrencies[2]].fCashBorrowed == 0, \"Unpaid Borrow\");\n        }\n\n        if (vaultState.totalAssetCash < assetCashRequiredToSettle) {\n            // Don't allow the pooled portion of the vault to have a cash shortfall unless all\n            // strategy tokens have been redeemed to asset cash.\n            require(vaultState.totalStrategyTokens == 0, \"Redeem all tokens\");\n\n            // After this point, we have a cash shortfall and will need to resolve it.\n            // Underflow checked above\n            int256 assetCashShortfall = (assetCashRequiredToSettle - vaultState.totalAssetCash).toInt();\n            uint256 assetCashRaised = VaultConfiguration.resolveShortfallWithReserve(\n                vaultConfig.vault, vaultConfig.borrowCurrencyId, assetCashShortfall\n            ).toUint();\n\n            vaultState.totalAssetCash = vaultState.totalAssetCash.add(assetCashRaised);\n            vaultState.setVaultState(vault);\n        }\n\n        // Clears the used borrow capacity regardless of the insolvency state of the vault. Since vaults are\n        // automatically paused in the case of any shortfall, no accounts will be able to enter regardless\n        // but we still want to maintain proper accounting of the borrow capacity.\n        VaultConfiguration.updateUsedBorrowCapacity(vault, vaultConfig.borrowCurrencyId, vaultState.totalfCash.neg());\n        vaultState.setSettledVaultState(vaultConfig, settlementRate, maturity, block.timestamp);\n    }\n\n    /** View Methods **/\n    function getVaultConfig(\n        address vault\n    ) external view override returns (VaultConfig memory vaultConfig) {\n        vaultConfig = VaultConfiguration.getVaultConfigView(vault);\n    }\n\n    function getVaultState(\n        address vault,\n        uint256 maturity\n    ) external view override returns (VaultState memory vaultState) {\n        vaultState = VaultStateLib.getVaultState(vault, maturity);\n    }\n\n    function getBorrowCapacity(\n        address vault,\n        uint16 currencyId\n    ) external view override returns (\n        uint256 totalUsedBorrowCapacity,\n        uint256 maxBorrowCapacity\n    ) {\n        VaultBorrowCapacityStorage storage cap = LibStorage.getVaultBorrowCapacity()[vault][currencyId];\n        totalUsedBorrowCapacity = cap.totalUsedBorrowCapacity;\n        maxBorrowCapacity = cap.maxBorrowCapacity;\n    }\n\n    function getSecondaryBorrow(address vault, uint16 currencyId, uint256 maturity) \n        external view override returns (uint256 totalfCashBorrowed) {\n        VaultSecondaryBorrowStorage storage balance = \n            LibStorage.getVaultSecondaryBorrow()[vault][maturity][currencyId];\n        totalfCashBorrowed = balance.fCashBorrowed;\n    }\n\n    function getCashRequiredToSettle(\n        address vault,\n        uint256 maturity\n    ) external view override returns (\n        int256 assetCashRequiredToSettle,\n        int256 underlyingCashRequiredToSettle\n    ) {\n        VaultConfig memory vaultConfig = VaultConfiguration.getVaultConfigView(vault);\n        VaultState memory vaultState = VaultStateLib.getVaultState(vaultConfig.vault, maturity);\n        return _getCashRequiredToSettle(vaultConfig, vaultState, maturity);\n    }\n\n    function _getCashRequiredToSettle(\n        VaultConfig memory vaultConfig,\n        VaultState memory vaultState,\n        uint256 maturity\n    ) private view returns (\n        int256 assetCashRequiredToSettle,\n        int256 underlyingCashRequiredToSettle\n    ) {\n        // If this is prior to maturity, it will return the current asset rate. After maturity it will\n        // return the settlement rate.\n        AssetRateParameters memory ar = AssetRate.buildSettlementRateView(vaultConfig.borrowCurrencyId, maturity);\n        \n        // If this is a positive number, there is more cash remaining to be settled.\n        // If this is a negative number, there is more cash than required to repay the debt\n        int256 assetCashInternal = ar.convertFromUnderlying(vaultState.totalfCash)\n            .add(vaultState.totalAssetCash.toInt())\n            .neg();\n\n        Token memory assetToken = TokenHandler.getAssetToken(vaultConfig.borrowCurrencyId);\n        // If the asset token is NonMintable then the underlying is the same object.\n        assetCashRequiredToSettle = assetToken.convertToExternal(assetCashInternal);\n\n        if (assetToken.tokenType == TokenType.NonMintable) {\n            // In this case both values are the same, there is no underlying token\n            underlyingCashRequiredToSettle = assetCashRequiredToSettle;\n        } else {\n            Token memory underlyingToken = TokenHandler.getUnderlyingToken(vaultConfig.borrowCurrencyId);\n            underlyingCashRequiredToSettle = underlyingToken.convertToUnderlyingExternalWithAdjustment(\n                ar.convertToUnderlying(assetCashInternal)\n            );\n        }\n    }\n\n    function getLibInfo() external pure returns (address) {\n        return address(TradingAction);\n    }\n}",
  "sourcePath": "contracts/external/actions/VaultAction.sol",
  "type": "contract"
}