{
  "abi": [
    {
      "anonymous": false,
      "inputs": [
        {
          "indexed": true,
          "internalType": "address",
          "name": "vault",
          "type": "address"
        },
        {
          "indexed": true,
          "internalType": "uint16",
          "name": "currencyId",
          "type": "uint16"
        },
        {
          "indexed": true,
          "internalType": "uint256",
          "name": "maturity",
          "type": "uint256"
        },
        {
          "indexed": false,
          "internalType": "int256",
          "name": "shortfall",
          "type": "int256"
        }
      ],
      "name": "ProtocolInsolvency",
      "type": "event"
    },
    {
      "anonymous": false,
      "inputs": [
        {
          "indexed": true,
          "internalType": "address",
          "name": "vault",
          "type": "address"
        },
        {
          "indexed": true,
          "internalType": "uint16",
          "name": "currencyId",
          "type": "uint16"
        },
        {
          "indexed": false,
          "internalType": "uint256",
          "name": "totalUsedBorrowCapacity",
          "type": "uint256"
        }
      ],
      "name": "VaultBorrowCapacityChange",
      "type": "event"
    },
    {
      "anonymous": false,
      "inputs": [
        {
          "indexed": true,
          "internalType": "address",
          "name": "vaultAddress",
          "type": "address"
        },
        {
          "indexed": false,
          "internalType": "bool",
          "name": "disableDeleverage",
          "type": "bool"
        }
      ],
      "name": "VaultDeleverageStatus",
      "type": "event"
    },
    {
      "anonymous": false,
      "inputs": [
        {
          "indexed": true,
          "internalType": "address",
          "name": "vault",
          "type": "address"
        },
        {
          "indexed": true,
          "internalType": "uint16",
          "name": "currencyId",
          "type": "uint16"
        },
        {
          "indexed": true,
          "internalType": "uint256",
          "name": "maturity",
          "type": "uint256"
        },
        {
          "indexed": false,
          "internalType": "int256",
          "name": "reserveFee",
          "type": "int256"
        },
        {
          "indexed": false,
          "internalType": "int256",
          "name": "nTokenFee",
          "type": "int256"
        }
      ],
      "name": "VaultFeeAccrued",
      "type": "event"
    },
    {
      "anonymous": false,
      "inputs": [
        {
          "indexed": true,
          "internalType": "address",
          "name": "vault",
          "type": "address"
        },
        {
          "indexed": true,
          "internalType": "uint256",
          "name": "maturity",
          "type": "uint256"
        },
        {
          "indexed": false,
          "internalType": "uint256",
          "name": "assetCashDeposited",
          "type": "uint256"
        },
        {
          "indexed": false,
          "internalType": "uint256",
          "name": "strategyTokensMinted",
          "type": "uint256"
        }
      ],
      "name": "VaultMintStrategyToken",
      "type": "event"
    },
    {
      "anonymous": false,
      "inputs": [
        {
          "indexed": true,
          "internalType": "address",
          "name": "vault",
          "type": "address"
        },
        {
          "indexed": false,
          "internalType": "bool",
          "name": "enabled",
          "type": "bool"
        }
      ],
      "name": "VaultPauseStatus",
      "type": "event"
    },
    {
      "anonymous": false,
      "inputs": [
        {
          "indexed": true,
          "internalType": "address",
          "name": "vault",
          "type": "address"
        },
        {
          "indexed": true,
          "internalType": "uint256",
          "name": "maturity",
          "type": "uint256"
        },
        {
          "indexed": false,
          "internalType": "int256",
          "name": "assetCashReceived",
          "type": "int256"
        },
        {
          "indexed": false,
          "internalType": "uint256",
          "name": "strategyTokensRedeemed",
          "type": "uint256"
        }
      ],
      "name": "VaultRedeemStrategyToken",
      "type": "event"
    },
    {
      "anonymous": false,
      "inputs": [
        {
          "indexed": true,
          "internalType": "address",
          "name": "vault",
          "type": "address"
        },
        {
          "indexed": true,
          "internalType": "address",
          "name": "account",
          "type": "address"
        },
        {
          "indexed": true,
          "internalType": "uint16",
          "name": "currencyId",
          "type": "uint16"
        },
        {
          "indexed": false,
          "internalType": "uint256",
          "name": "maturity",
          "type": "uint256"
        },
        {
          "indexed": false,
          "internalType": "uint256",
          "name": "debtSharesRepaid",
          "type": "uint256"
        },
        {
          "indexed": false,
          "internalType": "uint256",
          "name": "fCashLent",
          "type": "uint256"
        }
      ],
      "name": "VaultRepaySecondaryBorrow",
      "type": "event"
    },
    {
      "anonymous": false,
      "inputs": [
        {
          "indexed": true,
          "internalType": "address",
          "name": "vault",
          "type": "address"
        },
        {
          "indexed": true,
          "internalType": "address",
          "name": "account",
          "type": "address"
        },
        {
          "indexed": true,
          "internalType": "uint16",
          "name": "currencyId",
          "type": "uint16"
        },
        {
          "indexed": false,
          "internalType": "uint256",
          "name": "maturity",
          "type": "uint256"
        },
        {
          "indexed": false,
          "internalType": "uint256",
          "name": "debtSharesMinted",
          "type": "uint256"
        },
        {
          "indexed": false,
          "internalType": "uint256",
          "name": "fCashBorrowed",
          "type": "uint256"
        }
      ],
      "name": "VaultSecondaryBorrow",
      "type": "event"
    },
    {
      "anonymous": false,
      "inputs": [
        {
          "indexed": true,
          "internalType": "address",
          "name": "vault",
          "type": "address"
        },
        {
          "indexed": true,
          "internalType": "uint16",
          "name": "currencyId",
          "type": "uint16"
        },
        {
          "indexed": true,
          "internalType": "uint256",
          "name": "maturity",
          "type": "uint256"
        },
        {
          "indexed": false,
          "internalType": "int256",
          "name": "totalfCashBorrowedInPrimarySnapshot",
          "type": "int256"
        },
        {
          "indexed": false,
          "internalType": "int256",
          "name": "exchangeRate",
          "type": "int256"
        }
      ],
      "name": "VaultSecondaryBorrowSnapshot",
      "type": "event"
    },
    {
      "anonymous": false,
      "inputs": [
        {
          "indexed": true,
          "internalType": "address",
          "name": "vault",
          "type": "address"
        },
        {
          "indexed": true,
          "internalType": "uint256",
          "name": "maturity",
          "type": "uint256"
        },
        {
          "indexed": false,
          "internalType": "int256",
          "name": "totalfCash",
          "type": "int256"
        },
        {
          "indexed": false,
          "internalType": "uint256",
          "name": "totalAssetCash",
          "type": "uint256"
        },
        {
          "indexed": false,
          "internalType": "uint256",
          "name": "totalStrategyTokens",
          "type": "uint256"
        },
        {
          "indexed": false,
          "internalType": "uint256",
          "name": "totalVaultShares",
          "type": "uint256"
        },
        {
          "indexed": false,
          "internalType": "int256",
          "name": "strategyTokenValue",
          "type": "int256"
        }
      ],
      "name": "VaultSettled",
      "type": "event"
    },
    {
      "anonymous": false,
      "inputs": [
        {
          "indexed": true,
          "internalType": "address",
          "name": "vault",
          "type": "address"
        },
        {
          "indexed": true,
          "internalType": "uint256",
          "name": "maturity",
          "type": "uint256"
        },
        {
          "indexed": false,
          "internalType": "int256",
          "name": "remainingAssetCash",
          "type": "int256"
        },
        {
          "indexed": false,
          "internalType": "uint256",
          "name": "remainingStrategyTokens",
          "type": "uint256"
        }
      ],
      "name": "VaultSettledAssetsRemaining",
      "type": "event"
    },
    {
      "anonymous": false,
      "inputs": [
        {
          "indexed": true,
          "internalType": "address",
          "name": "vault",
          "type": "address"
        },
        {
          "indexed": true,
          "internalType": "uint16",
          "name": "currencyId",
          "type": "uint16"
        },
        {
          "indexed": true,
          "internalType": "uint256",
          "name": "maturity",
          "type": "uint256"
        },
        {
          "indexed": false,
          "internalType": "int256",
          "name": "shortfall",
          "type": "int256"
        }
      ],
      "name": "VaultShortfall",
      "type": "event"
    },
    {
      "anonymous": false,
      "inputs": [
        {
          "indexed": true,
          "internalType": "address",
          "name": "vault",
          "type": "address"
        },
        {
          "indexed": true,
          "internalType": "uint256",
          "name": "maturity",
          "type": "uint256"
        },
        {
          "indexed": false,
          "internalType": "int256",
          "name": "totalfCash",
          "type": "int256"
        },
        {
          "indexed": false,
          "internalType": "uint256",
          "name": "totalAssetCash",
          "type": "uint256"
        },
        {
          "indexed": false,
          "internalType": "uint256",
          "name": "totalStrategyTokens",
          "type": "uint256"
        },
        {
          "indexed": false,
          "internalType": "uint256",
          "name": "totalVaultShares",
          "type": "uint256"
        }
      ],
      "name": "VaultStateUpdate",
      "type": "event"
    },
    {
      "anonymous": false,
      "inputs": [
        {
          "indexed": true,
          "internalType": "address",
          "name": "vault",
          "type": "address"
        },
        {
          "indexed": true,
          "internalType": "uint16",
          "name": "currencyId",
          "type": "uint16"
        },
        {
          "indexed": false,
          "internalType": "uint80",
          "name": "maxSecondaryBorrowCapacity",
          "type": "uint80"
        }
      ],
      "name": "VaultUpdateSecondaryBorrowCapacity",
      "type": "event"
    },
    {
      "anonymous": false,
      "inputs": [
        {
          "indexed": true,
          "internalType": "address",
          "name": "vault",
          "type": "address"
        },
        {
          "indexed": false,
          "internalType": "bool",
          "name": "enabled",
          "type": "bool"
        },
        {
          "indexed": false,
          "internalType": "uint80",
          "name": "maxPrimaryBorrowCapacity",
          "type": "uint80"
        }
      ],
      "name": "VaultUpdated",
      "type": "event"
    },
    {
      "inputs": [
        {
          "internalType": "address",
          "name": "account",
          "type": "address"
        },
        {
          "internalType": "uint256",
          "name": "maturity",
          "type": "uint256"
        },
        {
          "internalType": "uint256[2]",
          "name": "fCashToBorrow",
          "type": "uint256[2]"
        },
        {
          "internalType": "uint32[2]",
          "name": "maxBorrowRate",
          "type": "uint32[2]"
        },
        {
          "internalType": "uint32[2]",
          "name": "minRollLendRate",
          "type": "uint32[2]"
        }
      ],
      "name": "borrowSecondaryCurrencyToVault",
      "outputs": [
        {
          "internalType": "uint256[2]",
          "name": "underlyingTokensTransferred",
          "type": "uint256[2]"
        }
      ],
      "stateMutability": "nonpayable",
      "type": "function"
    },
    {
      "inputs": [
        {
          "internalType": "uint256",
          "name": "maturity",
          "type": "uint256"
        },
        {
          "internalType": "uint256",
          "name": "assetCashInternal",
          "type": "uint256"
        },
        {
          "internalType": "bytes",
          "name": "vaultData",
          "type": "bytes"
        }
      ],
      "name": "depositVaultCashToStrategyTokens",
      "outputs": [],
      "stateMutability": "nonpayable",
      "type": "function"
    },
    {
      "inputs": [
        {
          "internalType": "address",
          "name": "vault",
          "type": "address"
        },
        {
          "internalType": "uint16",
          "name": "currencyId",
          "type": "uint16"
        }
      ],
      "name": "getBorrowCapacity",
      "outputs": [
        {
          "internalType": "uint256",
          "name": "totalUsedBorrowCapacity",
          "type": "uint256"
        },
        {
          "internalType": "uint256",
          "name": "maxBorrowCapacity",
          "type": "uint256"
        }
      ],
      "stateMutability": "view",
      "type": "function"
    },
    {
      "inputs": [
        {
          "internalType": "address",
          "name": "vault",
          "type": "address"
        },
        {
          "internalType": "uint256",
          "name": "maturity",
          "type": "uint256"
        }
      ],
      "name": "getCashRequiredToSettle",
      "outputs": [
        {
          "internalType": "int256",
          "name": "assetCashRequiredToSettle",
          "type": "int256"
        },
        {
          "internalType": "int256",
          "name": "underlyingCashRequiredToSettle",
          "type": "int256"
        }
      ],
      "stateMutability": "view",
      "type": "function"
    },
    {
      "inputs": [],
      "name": "getLibInfo",
      "outputs": [
        {
          "internalType": "address",
          "name": "",
          "type": "address"
        }
      ],
      "stateMutability": "pure",
      "type": "function"
    },
    {
      "inputs": [
        {
          "internalType": "address",
          "name": "vault",
          "type": "address"
        },
        {
          "internalType": "uint16",
          "name": "currencyId",
          "type": "uint16"
        },
        {
          "internalType": "uint256",
          "name": "maturity",
          "type": "uint256"
        }
      ],
      "name": "getSecondaryBorrow",
      "outputs": [
        {
          "internalType": "uint256",
          "name": "totalfCashBorrowed",
          "type": "uint256"
        },
        {
          "internalType": "uint256",
          "name": "totalAccountDebtShares",
          "type": "uint256"
        },
        {
          "internalType": "uint256",
          "name": "totalfCashBorrowedInPrimarySnapshot",
          "type": "uint256"
        }
      ],
      "stateMutability": "view",
      "type": "function"
    },
    {
      "inputs": [
        {
          "internalType": "address",
          "name": "vault",
          "type": "address"
        }
      ],
      "name": "getVaultConfig",
      "outputs": [
        {
          "components": [
            {
              "internalType": "address",
              "name": "vault",
              "type": "address"
            },
            {
              "internalType": "uint16",
              "name": "flags",
              "type": "uint16"
            },
            {
              "internalType": "uint16",
              "name": "borrowCurrencyId",
              "type": "uint16"
            },
            {
              "internalType": "int256",
              "name": "minAccountBorrowSize",
              "type": "int256"
            },
            {
              "internalType": "int256",
              "name": "feeRate",
              "type": "int256"
            },
            {
              "internalType": "int256",
              "name": "minCollateralRatio",
              "type": "int256"
            },
            {
              "internalType": "int256",
              "name": "liquidationRate",
              "type": "int256"
            },
            {
              "internalType": "int256",
              "name": "reserveFeeShare",
              "type": "int256"
            },
            {
              "internalType": "uint256",
              "name": "maxBorrowMarketIndex",
              "type": "uint256"
            },
            {
              "internalType": "int256",
              "name": "maxDeleverageCollateralRatio",
              "type": "int256"
            },
            {
              "internalType": "uint16[2]",
              "name": "secondaryBorrowCurrencies",
              "type": "uint16[2]"
            },
            {
              "components": [
                {
                  "internalType": "contract AssetRateAdapter",
                  "name": "rateOracle",
                  "type": "address"
                },
                {
                  "internalType": "int256",
                  "name": "rate",
                  "type": "int256"
                },
                {
                  "internalType": "int256",
                  "name": "underlyingDecimals",
                  "type": "int256"
                }
              ],
              "internalType": "struct AssetRateParameters",
              "name": "assetRate",
              "type": "tuple"
            },
            {
              "internalType": "int256",
              "name": "maxRequiredAccountCollateralRatio",
              "type": "int256"
            }
          ],
          "internalType": "struct VaultConfig",
          "name": "vaultConfig",
          "type": "tuple"
        }
      ],
      "stateMutability": "view",
      "type": "function"
    },
    {
      "inputs": [
        {
          "internalType": "address",
          "name": "vault",
          "type": "address"
        },
        {
          "internalType": "uint256",
          "name": "maturity",
          "type": "uint256"
        }
      ],
      "name": "getVaultState",
      "outputs": [
        {
          "components": [
            {
              "internalType": "uint256",
              "name": "maturity",
              "type": "uint256"
            },
            {
              "internalType": "int256",
              "name": "totalfCash",
              "type": "int256"
            },
            {
              "internalType": "bool",
              "name": "isSettled",
              "type": "bool"
            },
            {
              "internalType": "uint256",
              "name": "totalVaultShares",
              "type": "uint256"
            },
            {
              "internalType": "uint256",
              "name": "totalAssetCash",
              "type": "uint256"
            },
            {
              "internalType": "uint256",
              "name": "totalStrategyTokens",
              "type": "uint256"
            },
            {
              "internalType": "int256",
              "name": "settlementStrategyTokenValue",
              "type": "int256"
            }
          ],
          "internalType": "struct VaultState",
          "name": "vaultState",
          "type": "tuple"
        }
      ],
      "stateMutability": "view",
      "type": "function"
    },
    {
      "inputs": [
        {
          "internalType": "uint256",
          "name": "maturity",
          "type": "uint256"
        }
      ],
      "name": "initiateSecondaryBorrowSettlement",
      "outputs": [
        {
          "internalType": "uint256[2]",
          "name": "secondaryBorrowSnapshot",
          "type": "uint256[2]"
        }
      ],
      "stateMutability": "nonpayable",
      "type": "function"
    },
    {
      "inputs": [],
      "name": "owner",
      "outputs": [
        {
          "internalType": "address",
          "name": "",
          "type": "address"
        }
      ],
      "stateMutability": "view",
      "type": "function"
    },
    {
      "inputs": [],
      "name": "pauseGuardian",
      "outputs": [
        {
          "internalType": "address",
          "name": "",
          "type": "address"
        }
      ],
      "stateMutability": "view",
      "type": "function"
    },
    {
      "inputs": [],
      "name": "pauseRouter",
      "outputs": [
        {
          "internalType": "address",
          "name": "",
          "type": "address"
        }
      ],
      "stateMutability": "view",
      "type": "function"
    },
    {
      "inputs": [
        {
          "internalType": "uint256",
          "name": "maturity",
          "type": "uint256"
        },
        {
          "internalType": "uint256",
          "name": "strategyTokensToRedeem",
          "type": "uint256"
        },
        {
          "internalType": "bytes",
          "name": "vaultData",
          "type": "bytes"
        }
      ],
      "name": "redeemStrategyTokensToCash",
      "outputs": [
        {
          "internalType": "int256",
          "name": "assetCashRequiredToSettle",
          "type": "int256"
        },
        {
          "internalType": "int256",
          "name": "underlyingCashRequiredToSettle",
          "type": "int256"
        }
      ],
      "stateMutability": "nonpayable",
      "type": "function"
    },
    {
      "inputs": [
        {
          "internalType": "address",
          "name": "vaultAddress",
          "type": "address"
        },
        {
          "internalType": "uint80",
          "name": "maxVaultBorrowCapacity",
          "type": "uint80"
        },
        {
          "internalType": "uint256",
          "name": "maturity",
          "type": "uint256"
        },
        {
          "internalType": "uint256",
          "name": "strategyTokensToRedeem",
          "type": "uint256"
        },
        {
          "internalType": "bytes",
          "name": "vaultData",
          "type": "bytes"
        }
      ],
      "name": "reduceMaxBorrowCapacity",
      "outputs": [],
      "stateMutability": "nonpayable",
      "type": "function"
    },
    {
      "inputs": [
        {
          "internalType": "address",
          "name": "account",
          "type": "address"
        },
        {
          "internalType": "uint16",
          "name": "currencyId",
          "type": "uint16"
        },
        {
          "internalType": "uint256",
          "name": "maturity",
          "type": "uint256"
        },
        {
          "internalType": "uint256",
          "name": "debtSharesToRepay",
          "type": "uint256"
        },
        {
          "internalType": "uint32",
          "name": "minLendRate",
          "type": "uint32"
        },
        {
          "internalType": "bytes",
          "name": "callbackData",
          "type": "bytes"
        }
      ],
      "name": "repaySecondaryCurrencyFromVault",
      "outputs": [
        {
          "internalType": "bytes",
          "name": "returnData",
          "type": "bytes"
        }
      ],
      "stateMutability": "nonpayable",
      "type": "function"
    },
    {
      "inputs": [
        {
          "internalType": "address",
          "name": "vaultAddress",
          "type": "address"
        },
        {
          "internalType": "uint80",
          "name": "maxVaultBorrowCapacity",
          "type": "uint80"
        }
      ],
      "name": "setMaxBorrowCapacity",
      "outputs": [],
      "stateMutability": "nonpayable",
      "type": "function"
    },
    {
      "inputs": [
        {
          "internalType": "address",
          "name": "vaultAddress",
          "type": "address"
        },
        {
          "internalType": "bool",
          "name": "disableDeleverage",
          "type": "bool"
        }
      ],
      "name": "setVaultDeleverageStatus",
      "outputs": [],
      "stateMutability": "nonpayable",
      "type": "function"
    },
    {
      "inputs": [
        {
          "internalType": "address",
          "name": "vaultAddress",
          "type": "address"
        },
        {
          "internalType": "bool",
          "name": "enable",
          "type": "bool"
        }
      ],
      "name": "setVaultPauseStatus",
      "outputs": [],
      "stateMutability": "nonpayable",
      "type": "function"
    },
    {
      "inputs": [
        {
          "internalType": "address",
          "name": "vault",
          "type": "address"
        },
        {
          "internalType": "uint256",
          "name": "maturity",
          "type": "uint256"
        }
      ],
      "name": "settleVault",
      "outputs": [],
      "stateMutability": "nonpayable",
      "type": "function"
    },
    {
      "inputs": [
        {
          "internalType": "address",
          "name": "vaultAddress",
          "type": "address"
        },
        {
          "internalType": "uint16",
          "name": "secondaryCurrencyId",
          "type": "uint16"
        },
        {
          "internalType": "uint80",
          "name": "maxBorrowCapacity",
          "type": "uint80"
        }
      ],
      "name": "updateSecondaryBorrowCapacity",
      "outputs": [],
      "stateMutability": "nonpayable",
      "type": "function"
    },
    {
      "inputs": [
        {
          "internalType": "address",
          "name": "vaultAddress",
          "type": "address"
        },
        {
          "components": [
            {
              "internalType": "uint16",
              "name": "flags",
              "type": "uint16"
            },
            {
              "internalType": "uint16",
              "name": "borrowCurrencyId",
              "type": "uint16"
            },
            {
              "internalType": "uint32",
              "name": "minAccountBorrowSize",
              "type": "uint32"
            },
            {
              "internalType": "uint16",
              "name": "minCollateralRatioBPS",
              "type": "uint16"
            },
            {
              "internalType": "uint8",
              "name": "feeRate5BPS",
              "type": "uint8"
            },
            {
              "internalType": "uint8",
              "name": "liquidationRate",
              "type": "uint8"
            },
            {
              "internalType": "uint8",
              "name": "reserveFeeShare",
              "type": "uint8"
            },
            {
              "internalType": "uint8",
              "name": "maxBorrowMarketIndex",
              "type": "uint8"
            },
            {
              "internalType": "uint16",
              "name": "maxDeleverageCollateralRatioBPS",
              "type": "uint16"
            },
            {
              "internalType": "uint16[2]",
              "name": "secondaryBorrowCurrencies",
              "type": "uint16[2]"
            },
            {
              "internalType": "uint16",
              "name": "maxRequiredAccountCollateralRatioBPS",
              "type": "uint16"
            }
          ],
          "internalType": "struct VaultConfigStorage",
          "name": "vaultConfig",
          "type": "tuple"
        },
        {
          "internalType": "uint80",
          "name": "maxPrimaryBorrowCapacity",
          "type": "uint80"
        }
      ],
      "name": "updateVault",
      "outputs": [],
      "stateMutability": "nonpayable",
      "type": "function"
    }
  ],
  "bytecode": "608060405234801561001057600080fd5b50615cf180620000216000396000f3fe608060405234801561001057600080fd5b50600436106101375760003560e01c80636c346c09116100b8578063b67138aa1161007c578063b67138aa14610294578063c4c96dae146102a7578063d04c16ac146102af578063d6ddeb9a146102c2578063de1eb9a3146102d5578063ee01436b146102f557610137565b80636c346c091461023c578063824633671461024f5780638c9e4465146102575780638da5cb5b1461026a578063a14db57c1461027257610137565b806331572281116100ff57806331572281146101b557806350e4f223146101d557806354cceaf7146101f557806356f428c414610208578063675157761461021b57610137565b806301ac88521461013c5780630bc08cdc1461016557806324a3d62214610178578063291afdf31461018d578063295e6b7f146101a2575b600080fd5b61014f61014a3660046150cb565b610308565b60405161015c919061536a565b60405180910390f35b61014f610173366004614f06565b610392565b61018061054a565b60405161015c9190615251565b6101a061019b366004614ea0565b610559565b005b6101a06101b0366004614edd565b610675565b6101c86101c3366004614edd565b6108b0565b60405161015c9190615932565b6101e86101e3366004614e15565b6108c9565b60405161015c91906153bf565b6101a0610203366004614d1e565b610a97565b6101a0610216366004614d1e565b610b17565b61022e610229366004614dac565b610b8b565b60405161015c9291906153fb565b61022e61024a366004614edd565b610bdb565b610180610c16565b6101a0610265366004614d58565b610c25565b610180610cdd565b610285610280366004614dd7565b610cf3565b60405161015c939291906159aa565b6101a06102a2366004614f67565b610d59565b610180610df8565b6101a06102bd3660046150e3565b610e10565b6101a06102d0366004614f92565b610f82565b6102e86102e3366004614d04565b611034565b60405161015c9190615872565b61022e6103033660046150e3565b61104b565b610310614b1c565b600061031b3361109d565b90506103288160016110cc565b61034d5760405162461bcd60e51b8152600401610344906154d0565b60405180910390fd5b6101408101516103709061036b9060005b60200201518390866110e1565b611261565b82526101408101516103879061036b90600161035e565b602083015250919050565b61039a614b1c565b60006103a53361109d565b90506103b28160016110cc565b6103ce5760405162461bcd60e51b8152600401610344906154d0565b610140810151805161ffff161515806103ee5750602081015161ffff1615155b6103f757600080fd5b6000610401611278565b6001600160a01b03808b1660009081526020928352604080822087519093168252919092529020805490915064ffffffffff1661043c614b1c565b811580159061044a57508982105b801561045c575061045c8560026110cc565b801561047157506001600160a01b038b163314155b156104e5576104b3858c866000602002015186548690600160281b90046001600160501b03168c60005b6020020160208101906104ae9190615134565b611285565b8152602084015183546104df9187918e91908690600160781b90046001600160501b03168c600161049b565b60208201525b835181516105129187918e91908e908e358e60005b60200201602081019061050d9190615134565b6112ba565b8652602084810151828201516105369288928f9290918f91908f01358e60016104fa565b602087015250939998505050505050505050565b6002546001600160a01b031681565b600054600160201b90046001600160a01b0316331461058a5760405162461bcd60e51b815260040161034490615738565b60006105958461109d565b905060006105a68461ffff1661133c565b905060006105b78561ffff1661134f565b905081602001511580156105cd57508060200151155b6105d657600080fd5b6101408301515161ffff8681169116148061060057506101408301516020015161ffff8681169116145b61061c5760405162461bcd60e51b8152600401610344906156df565b610627868686611362565b8461ffff16866001600160a01b03167f8f868f60e49b80b48ee5de8b7bc703cfc4b5c826a05d3ea1b00cf4159c155a908660405161066591906159c0565b60405180910390a3505050505050565b6002600a5414156106985760405162461bcd60e51b8152600401610344906157f1565b6002600a5560006106a88361109d565b90506106b6813360406113b6565b60006106c28484611420565b90504283111580156106d657506040810151155b6106f25760405162461bcd60e51b815260040161034490615662565b6000610707836040015161ffff1685426114bb565b9050600061072561036b61071e8560200151611629565b8490611637565b90506000610731611670565b6001600160a01b038816600090815260209182526040808220898352909252206101408601515190915061ffff16156107a4576101408501515161ffff166000908152602082905260409020546001600160501b0316156107a45760405162461bcd60e51b815260040161034490615554565b6101408501516020015161ffff16156107fb5761014085015160209081015161ffff1660009081529082905260409020546001600160501b0316156107fb5760405162461bcd60e51b815260040161034490615554565b81846080015110156108795760a0840151156108295760405162461bcd60e51b8152600401610344906154a5565b600061083a8560800151840361167d565b9050600061085561036b88600001518960400151858c611693565b608087015190915061086790826117bb565b6080870152610876868a6117cd565b50505b61089487866040015161088f8760200151611629565b611937565b506108a28486858942611a3d565b50506001600a555050505050565b6108b8614b3a565b6108c28383611420565b9392505050565b6060846108d557610a8c565b60006108e03361109d565b90506108ed8160016110cc565b6109095760405162461bcd60e51b8152600401610344906154d0565b6000610919828b8b8b8b8b611c03565b509050600061092b8a61ffff1661133c565b905060008060048360600151600581111561094257fe5b14610959576109548c61ffff1661134f565b61095b565b825b9050600061098c61036b610985610980888a6101600151611dc790919063ffffffff16565b611629565b8490611df2565b9050600061099a8330611e2e565b8351604051637efbe0e760e11b8152919250339163fdf7c1ce916109c69186908f908f906004016152f3565b600060405180830381600087803b1580156109e057600080fd5b505af11580156109f4573d6000803e3d6000fd5b505050506040513d6000823e601f3d908101601f19168201604052610a1c919081019061500a565b97506000610a2a8430611e2e565b9050610a368183611ed8565b945082851015610a585760405162461bcd60e51b815260040161034490615819565b5060049250610a65915050565b82606001516005811115610a7557fe5b14610a8757610a85828c83611eed565b505b505050505b979650505050505050565b600054600160201b90046001600160a01b03163314610ac85760405162461bcd60e51b815260040161034490615738565b610ad28282611fd4565b816001600160a01b03167f9066b2f4ad4552447bd5ddeae159ff6b5a28a4eec9421da5a9d502deb99974e182604051610b0b919061539b565b60405180910390a25050565b600054600160201b90046001600160a01b03163314610b485760405162461bcd60e51b815260040161034490615738565b610b528282612035565b816001600160a01b03167f7c51c6aa77346c54cb051d9e792f9b7bde5c28a9b57e6fb2d2dd727b38438ca982604051610b0b919061539b565b6000806000610b98612094565b6001600160a01b0390951660009081526020958652604080822061ffff9096168252949095525050509020546001600160501b03600160501b8204811692911690565b6000806000610be9856120a1565b90506000610bfb826000015186611420565b9050610c088282876120c5565b9350935050505b9250929050565b6001546001600160a01b031681565b600054600160201b90046001600160a01b03163314610c565760405162461bcd60e51b815260040161034490615738565b610c60838361217e565b610c7a83610c7460408501602086016150af565b83611362565b6000600180610c8c60208601866150af565b1661ffff16149050836001600160a01b03167fb441d7ca09abc712b4504256717707ce40e8d43895266b46abf9cd58619c07dc8284604051610ccf9291906153a6565b60405180910390a250505050565b600054600160201b90046001600160a01b031681565b600080600080610d01611670565b6001600160a01b0390971660009081526020978852604080822096825295885285812061ffff9097168152959096525050509020546001600160501b0380821693600160501b830482169350600160a01b9092041690565b600054600160201b90046001600160a01b03163314610d8a5760405162461bcd60e51b815260040161034490615738565b6000610d958361109d565b9050610da683826040015184611362565b6001600160a01b0383167fb441d7ca09abc712b4504256717707ce40e8d43895266b46abf9cd58619c07dc610ddc8360016110cc565b84604051610deb9291906153a6565b60405180910390a2505050565b73__TradingAction_________________________90565b6002600a541415610e335760405162461bcd60e51b8152600401610344906157f1565b6002600a556000610e433361109d565b9050610e508160016110cc565b610e6c5760405162461bcd60e51b8152600401610344906154d0565b610e778160806110cc565b15610e82576001600a555b6000610e8e3387611420565b90506000610eb08360000151610ea38861167d565b8591908a60008a8a6124fb565b6080830151909150610ec29087611ed8565b608083015260a0820151610ed690826117bb565b60a0830152610ee582336117cd565b6000610f08833385606001518660200151886125a490949392919063ffffffff16565b509050808460a001511315610f2f5760405162461bcd60e51b815260040161034490615794565b87336001600160a01b03167fbba43506b1f3723add796bf603adde56bc018392a95775b9f76c31213b4161bb8985604051610f6b9291906153fb565b60405180910390a350506001600a55505050505050565b600054600160201b90046001600160a01b03163314610fb35760405162461bcd60e51b815260040161034490615738565b6000610fbe8761109d565b9050610fcf87826040015188611362565b610fdc8186868686612624565b50506001600160a01b0387167fb441d7ca09abc712b4504256717707ce40e8d43895266b46abf9cd58619c07dc6110148360016110cc565b886040516110239291906153a6565b60405180910390a250505050505050565b61103c614b79565b611045826120a1565b92915050565b60008060006110593361109d565b90506110668160016110cc565b6110825760405162461bcd60e51b8152600401610344906154d0565b61108f8188888888612624565b925092505094509492505050565b6110a5614b79565b6110ae82612748565b90506110c1816040015161ffff166128e1565b610160820152919050565b60209190910151811661ffff90811691161490565b600061ffff83166110f4575060006108c2565b60006110fe611670565b85516001600160a01b0316600090815260209182526040808220868352835280822061ffff88168352909252208054909150600160f01b900460ff16156111575760405162461bcd60e51b815260040161034490615709565b805460408601516001600160501b039091169060009061117a9061ffff1661292d565b9050600061118b8761ffff1661292d565b905060006111998383612a90565b90506111bc816111b6856000015187612ab590919063ffffffff16565b90612b03565b95506111cf6111ca87611261565b612b34565b855460ff60f01b196001600160501b0392909216600160a01b0269ffffffffffffffffffff60a01b199091161716600160f01b1785558851604051889161ffff8b16916001600160a01b03909116907f744b6e0d7db0666a7c17a4868d11d5f7f909a7b04d458b5eace97646ba7a0ee89061124d908b9087906153fb565b60405180910390a450505050509392505050565b60008082121561127057600080fd5b50805b919050565b600080611045601a612b4a565b600061ffff85161580159061129957508215155b156112b0576112ac878787878787611c03565b5090505b9695505050505050565b600061ffff861615806112cb575082155b80156112d5575083155b156112e257506000610a8c565b60006112f2898989898888612b63565b5090506112ff8186612d09565b905060008112156113225760405162461bcd60e51b81526004016103449061562b565b885161132f908883612d1f565b9998505050505050505050565b611344614bfe565b611045826000612dc7565b611357614bfe565b611045826001612dc7565b600061136c612094565b6001600160a01b0390941660009081526020948552604080822061ffff90951682529390945250912080546001600160501b039092166001600160501b0319909216919091179055565b6113c083826110cc565b156113f35782516001600160a01b031633146113ee5760405162461bcd60e51b8152600401610344906154f0565b61141b565b6001600160a01b038216331461141b5760405162461bcd60e51b8152600401610344906154f0565b505050565b611428614b3a565b6000611432612e75565b6001600160a01b03909416600090815260209485526040808220858352865280822094845284546001600160501b038082169093039685019690965260ff600160f01b870416151590840152600160501b8086048216608085015260019094015480821660a0850152600160a01b909504166060830152509104600990810b900b60c082015290565b6114c3614c25565b6000806114d08686612e82565b9150915081600014156115fe5760006114e887612ec9565b91945090925090506001600160a01b038116156115fc576000611509612f8c565b905085600010801561151b5750858711155b801561152c575064ffffffffff8611155b61153557600080fd5b83600012801561154c57506001600160801b038413155b61155557600080fd5b6000888152602082815260408083208a845290915290819020805464ffffffffff191664ffffffffff89161774ffffffffffffffffffffffffffffffff00000000001916600160281b6001600160801b038816021760ff60a81b1916600160a81b60ff871602178155905188908a907f0fdfa6885701e2f1f42e4187b9231cf81c1fe23671ef64fa46f34ddb56c1dc18906115f1908990615982565b60405180910390a350505b505b6040805160608101825260008152602081019390935260ff909116600a0a9082015290509392505050565b600061104560001983612ab5565b60008061166884602001516111b686604001516116626402540be40088612ab590919063ffffffff16565b90612ab5565b949350505050565b6000806110456018612b4a565b60006001600160ff1b0382111561127057600080fd5b60006116a0856000612035565b846001600160a01b03167f7c51c6aa77346c54cb051d9e792f9b7bde5c28a9b57e6fb2d2dd727b38438ca960006040516116da919061539b565b60405180910390a2818461ffff16866001600160a01b03167f823b641d46550301006f807a26587634f15bd13749efdc8859734377d5304a3b8660405161172191906153f2565b60405180910390a4600061173a60008661ffff16612f99565b505050905080841361175a5761175285858303613042565b8391506117b2565b611765856000613042565b828561ffff16876001600160a01b03167f3a717b6924e3ad05b8c7609a2401472af90869b52cc3c9ca69b50100b4be63168488036040516117a691906153f2565b60405180910390a48091505b50949350505050565b6000828201838110156108c257600080fd5b60006117d7612e75565b6001600160a01b038316600090815260208281526040808320875184529091529081902090850151919250901561180d57600080fd5b6118206111ca61036b8660200151611629565b81546001600160501b0319166001600160501b0391909116178155608084015161184990612b34565b81546001600160501b0391909116600160501b02600160501b600160a01b031990911617815560a084015161187d90612b34565b6001820180546001600160501b0319166001600160501b039290921691909117905560608401516118ad90612b34565b81546001600160501b0391909116600160a01b0269ffffffffffffffffffff60a01b1990911617815583516020850151608086015160a087015160608801516040516001600160a01b038916947f3a0fdaecf7b5da75a56077f5b1c8fbc88f9b08e9d0c4db31eb34e25bc6700cde946119299491939092615409565b60405180910390a350505050565b600080611942612094565b6001600160a01b03861660009081526020918252604080822061ffff8816835290925220805490915061198590600160501b90046001600160501b031684613099565b915060008312156119ba5780546001600160501b03168213156119ba5760405162461bcd60e51b815260040161034490615689565b6119c66111ca83611261565b81546001600160501b0391909116600160501b02600160501b600160a01b031990911617815560405161ffff8516906001600160a01b038716907f20478ef460e49d010960d4f3fff35d8dae385443abfac09035d6a2ccbcd834c490611a2d9086906153f2565b60405180910390a3509392505050565b6000611a47612e75565b85516001600160a01b03166000908152602082815260408083208784529091529020805491925090600160f01b900460ff1615611a8357600080fd5b82841115611a9057600080fd5b60408601518651600091611aaa91806305f5e100896130af565b825460ff60f01b1916600160f01b1783559050611ac681613176565b82600101600a6101000a8154816001600160501b03021916908360090b6001600160501b031602179055506000611afb6131a6565b88516001600160a01b031660009081526020918252604080822089835283529020600185015481546001600160501b0319166001600160501b03909116178155908a0151909150611b6d90611b6890611b55908a90611637565b611b628c6080015161167d565b90612d09565b613176565b815460099190910b6001600160501b0316600160501b02600160501b600160a01b03199091161781558851885160208b015160808c015160a08d015160608e01516040516001600160a01b03909516947fe66a863186dba5a66d19d3d91a66b76a7cbfdefd0d8c29c662274b13febb166e94611bf0949093909290918a90615424565b60405180910390a3505050505050505050565b6000806000611c10611670565b89516001600160a01b0316600090815260209182526040808220898352835280822061ffff8b168352909252208054909150600160f01b900460ff161580611c64575088516001600160a01b038981169116145b611c805760405162461bcd60e51b81526004016103449061576d565b80546001600160501b0380821691600160501b900416611cb2611cad82611ca78a866131b3565b906131da565b61167d565b93508a600001516001600160a01b03168a6001600160a01b031614611d1c57611cde6111ca8289611ed8565b83546001600160501b0391909116600160501b02600160501b600160a01b0319909116178355611d1c8b8b8b8b611d176109808d61167d565b6131f9565b8a51611d29908a86611937565b50611d376111ca8386611ed8565b83546001600160501b0319166001600160501b0391909116178355611d5f8b8a8a878a613385565b94508861ffff168a6001600160a01b03168c600001516001600160a01b03167f38db3b2568ca34833805148705b1440a4f80962ce663ba509811abc652de434a8b8b89604051611db1939291906159aa565b60405180910390a4505050965096945050505050565b60008061166884604001516111b66402540be4006111b6878960200151612ab590919063ffffffff16565b60006305f5e10083604001511215611e1a57611e136001611b628585613452565b9050611045565b6108c283611e29846001612d09565b613452565b6000600383606001516005811115611e4257fe5b1415611e5957506001600160a01b03811631611045565b82516040516370a0823160e01b81526001600160a01b03909116906370a0823190611e88908590600401615251565b60206040518083038186803b158015611ea057600080fd5b505afa158015611eb4573d6000803e3d6000fd5b505050506040513d601f19601f82011682018060405250810190611e139190615097565b600082821115611ee757600080fd5b50900390565b600080600585606001516005811115611f0257fe5b14611f14576370a0823160e01b611f1d565b630ed1279f60e11b5b90506000611f308660000151308461348a565b9050600586606001516005811115611f4457fe5b1415611f6b576000611f598661ffff1661134f565b9050611f65818661359c565b50611fb4565b600186606001516005811115611f7d57fe5b1415611f9257611f8d868561360f565b611fb4565b600286606001516005811115611fa457fe5b141561013757611f8d86856136b1565b6000611fc58760000151308561348a565b9050610a8c611cad828461370d565b6000611fde613764565b6001600160a01b038416600090815260208290526040902080549192509061ffff16831561201e57815461ffff1916610100821761ffff1617825561202e565b815461ffff191661feff82161782555b5050505050565b600061203f613764565b6001600160a01b038416600090815260208290526040902080549192509061ffff16831561207e57815461ffff19166001821761ffff1617825561202e565b815461ffff191661fffe91909116179055505050565b6000806110456017612b4a565b6120a9614b79565b6120b282612748565b90506110c1816040015161ffff16613771565b60008060006120dc866040015161ffff1685613787565b905060006121036109806120f3886080015161167d565b6020890151611b62908690611637565b90506000612118886040015161ffff1661133c565b90506121248183613452565b945060048160600151600581111561213857fe5b141561214657849350612173565b6000612159896040015161ffff1661134f565b905061216f6121688585611dc7565b8290611df2565b9450505b505050935093915050565b6000612188613764565b9050600061219584612748565b90506121a760408401602085016150af565b61ffff166121b457600080fd5b604081015161ffff1615806121e357506121d460408401602085016150af565b61ffff16816040015161ffff16145b6121ec57600080fd5b6121fc60c0840160a08501615150565b60ff166064131561220c57600080fd5b600060648061222160c0870160a08801615150565b60ff160302905061223860808501606086016150af565b61ffff168161ffff161061224b57600080fd5b61225d610120850161010086016150af565b61ffff1661227160808601606087016150af565b61ffff161061227f57600080fd5b612291610180850161016086016150af565b61ffff166122a7610120860161010087016150af565b61ffff16106122b557600080fd5b60646122c760e0860160c08701615150565b60ff1613156122d557600080fd5b6122e6610100850160e08601615150565b60ff166122f257600080fd5b6101408201515161ffff1615806123375750612316610140850161012086016150af565b61ffff1682610140015160006002811061232c57fe5b602002015161ffff16145b61234057600080fd5b6101408201516020015161ffff1615806123885750612367610160850161014086016150af565b61ffff1682610140015160016002811061237d57fe5b602002015161ffff16145b61239157600080fd5b6123a3610140850161012086016150af565b61ffff166123b760408601602087016150af565b61ffff1614156123c657600080fd5b6123d8610160850161014086016150af565b61ffff166123ec60408601602087016150af565b61ffff1614156123fb57600080fd5b61240d610140850161012086016150af565b61ffff1615801590612433575061242c610160850161014086016150af565b61ffff1615155b1561246f5761244a610160850161014086016150af565b61ffff16612460610140860161012087016150af565b61ffff16141561246f57600080fd5b600061248d61248460408701602088016150af565b61ffff1661133c565b905060006124ad6124a460408801602089016150af565b61ffff1661134f565b905081602001511580156124c357508060200151155b6124cc57600080fd5b6001600160a01b038716600090815260208690526040902086906124f08282615a89565b505050505050505050565b60008061251189600001518a6040015189612d1f565b89519091506001600160a01b031663dc6679c58961252f84896117bb565b8988886040518663ffffffff1660e01b815260040161255295949392919061533c565b602060405180830381600087803b15801561256c57600080fd5b505af1158015612580573d6000803e3d6000fd5b505050506040513d601f19601f8201168201806040525081019061132f9190615097565b6000806125b3868887876137e4565b905060006125c688878960000151613849565b905060006125e66125da83611b6288611629565b6101608b015190611637565b905060006125f48483613099565b90508161260a576001600160ff1b039450612617565b6126148183613930565b94505b5050509550959350505050565b6000806002600a54141561264a5760405162461bcd60e51b8152600401610344906157f1565b6002600a5561265a8760806110cc565b15612665576001600a555b6000612675886000015188611420565b8851909150600090819061268e908b908a8c8b8b613949565b915091506000821361269f57600080fd5b80156126aa57600080fd5b60808301516126b990836117bb565b608084015260a08301516126cd9089611ed8565b60a084015289516126df9084906117cd565b888a600001516001600160a01b03167fb2f70c3fe73b5aee7e8c59b77222111306f1e4d7170f8fa1c09979bb847eb9d9848b60405161271f9291906153fb565b60405180910390a36127328a848b6120c5565b6001600a55909b909a5098505050505050505050565b612750614b79565b600061275a613764565b6001600160a01b03841660008181526020838152604091829020928652825461ffff8082169288019290925262010000810490911691860191909152919250906127ba9063ffffffff600160201b9091048116906305f5e10090612ab516565b606084015280546127d890600160501b900460ff166207a1206131b3565b608084015280546127fc9068010000000000000000900461ffff16620186a06131b3565b60a0840152805461281b90600160701b900461ffff16620186a06131b3565b61012084015260028101546128379061ffff16620186a06131b3565b610180840152805460649060ff600160581b90910416633b9aca00020560c08401528054600160601b810460ff90811660e0860152600160681b909104166101008401526040805180820191829052906001830190600290826000855b82829054906101000a900461ffff1661ffff168152602001906002019060208260010104928301926001038202915080841161289457905050505050508361014001819052505050919050565b6128e9614c25565b60008060006128f785612ec9565b604080516060810182526001600160a01b039093168352602083019390935260ff16600a0a918101919091529350505050919050565b612935614c4f565b600061293f6139a0565b600084815260208290526040812091925080600186141561296c5750670de0b6b3a7640000905080612a42565b825460408051633fabe5a360e21b815290516001600160a01b039092169163feaf968c9160048082019260a092909190829003018186803b1580156129b057600080fd5b505afa1580156129c4573d6000803e3d6000fd5b505050506040513d601f19601f820116820180604052508101906129e8919061516c565b5091935050600083139150612a1190505760405162461bcd60e51b8152600401610344906157cb565b825460ff600160a01b82048116600a0a9350600160a81b9091041615612a4257612a3f816111b68480612ab5565b90505b6040805160a0810182529283526020830191909152915460ff600160b01b8204811693830193909352600160b81b810483166060830152600160c01b90049091166080820152915050919050565b60006108c282602001516111b684600001518660200151612ab590919063ffffffff16565b818102600019831415612ae557811580612ad7575082828281612ad457fe5b05145b612ae057600080fd5b611045565b821580612afa575081838281612af757fe5b05145b61104557600080fd5b600081600019148015612b195750600160ff1b83145b15612b2357600080fd5b818381612b2c57fe5b059392505050565b60006001600160501b0382111561127057600080fd5b6000620f424082601a811115612b5c57fe5b0192915050565b60008087600001516001600160a01b0316876001600160a01b03161415612b8957600080fd5b8751612b9c908761088f6109808861167d565b506000612ba7611670565b89516001600160a01b0316600090815260209182526040808220898352835280822061ffff8b168352909252208054909150600160f01b900460ff1615612c005760405162461bcd60e51b81526004016103449061576d565b80546001600160501b0380821691600160501b90041681612c2357869350612c34565b612c3182611ca789846131b3565b93505b612c448b8b8b8b611d178961167d565b612c516111ca82866117bb565b83546001600160501b0391909116600160501b02600160501b600160a01b0319909116178355612c846111ca83896117bb565b83546001600160501b0319166001600160501b0391909116178355612cb78b8a8a612cb16109808c61167d565b8a613385565b94508861ffff168a6001600160a01b03168c600001516001600160a01b03167fa119a38e8bbbf2cbe78427cb9e63ef28678b56e3ceecc10bda7c00503ea947398b888c604051611db1939291906159aa565b8181018281121560008312151461104557600080fd5b600081612d2e575060006108c2565b60008213612d3b57600080fd5b6000612d4a8461ffff1661133c565b90506000612d588285613452565b9050600482606001516005811115612d6c57fe5b1415612d9a57612d9361036b610980888861ffff16612d8a86611629565b879291906139ad565b9250612dbe565b612dbb61036b6109808761ffff1689612db286611261565b87929190613a55565b92505b50509392505050565b612dcf614bfe565b6000612dd9613aeb565b6000858152602082815260408083208715158452825291829020825160a08101845281546001600160a01b038116825260ff600160a01b82048116151594830194909452600160b01b81048416600a0a9482019490945293945092916060830191600160a81b909104166005811115612e4e57fe5b81529154600160b81b900468ffffffffffffffffff16602090920191909152949350505050565b6000806110456015612b4a565b6000806000612e8f612f8c565b600095865260209081526040808720958752949052505050902054600160281b81046001600160801b031691600160a81b90910460ff1690565b6000806000806000612eda86613af8565b909250905060006001600160a01b038316612eff5750600090506402540be400612f81565b826001600160a01b0316631ee108336040518163ffffffff1660e01b8152600401602060405180830381600087803b158015612f3a57600080fd5b505af1158015612f4e573d6000803e3d6000fd5b505050506040513d601f19601f82011682018060405250810190612f729190615097565b905060008113612f8157600080fd5b969195509350915050565b6000806110456008612b4a565b6000806000806000612fa9613b2f565b6001600160a01b0388166000908152602082815260408083208a8452909152902080546001600160501b0381169650600160501b900463ffffffff169450909150831561301257805461300b90600160701b900466ffffffffffffff16613b3c565b9250613027565b8054600160701b900466ffffffffffffff1692505b54600160a81b9004600a90810b900b97939650919450925050565b600081121561305057600080fd5b61306560008361ffff16836000806000613b4a565b8161ffff167fd3625f7b5926828151efe19f7ae655488287357d99ebe67e5fb20522ca739c0b82604051610b0b91906153f2565b8082038281131560008312151461104557600080fd5b6000806130bf8761ffff1661134f565b90508060400151600014156130de576130db8761ffff1661133c565b90505b60405163e937711160e01b8152613169906001600160a01b0388169063e9377111906131129089908990899060040161531b565b60206040518083038186803b15801561312a57600080fd5b505afa15801561313e573d6000803e3d6000fd5b505050506040513d601f19601f820116820180604052508101906131629190615097565b8290613c91565b9150505b95945050505050565b6000697fffffffffffffffffff19821280159061319d5750697fffffffffffffffffff8213155b61127057600080fd5b6000806110456019612b4a565b6000826131c257506000611045565b828202828482816131cf57fe5b04146108c257600080fd5b60008082116131e857600080fd5b8183816131f157fe5b049392505050565b6000613203611278565b6001600160a01b038087166000908152602092835260408082208a519093168252919092529020805490915064ffffffffff1683811480613242575080155b61325e5760405162461bcd60e51b815260040161034490615447565b815461014088015151600160281b82046001600160501b0390811692600160781b9004169061ffff888116911614156132d95761329b8286612d09565b91506132a96111ca83611261565b84546001600160501b0391909116600160281b026effffffffffffffffffff000000000019909116178455613333565b6101408901516020015161ffff88811691161415610137576132fb8186612d09565b90506133096111ca82611261565b84546001600160501b0391909116600160781b0269ffffffffffffffffffff60781b199091161784555b8115801561333f575080155b1561335557835464ffffffffff191684556124f0565b826124f05761336386613cc1565b845464ffffffffff191664ffffffffff91909116178455505050505050505050565b6000856040015161ffff168561ffff1614156133a057600080fd5b826133ad5750600061316d565b4284116133ea5760008312156133c257600080fd5b60006133d38661ffff1686426114bb565b90506133e26109808286611637565b91505061316d565b6133fd858585858a610100015142613cd5565b905060008313801561340d575080155b1561342957610160860151613426906109809085611637565b90505b600083121561316d576000811361316d5760405162461bcd60e51b81526004016103449061547e565b60006305f5e1008360400151141561346b575080611045565b6108c26305f5e1006111b6856040015185612ab590919063ffffffff16565b604080516001600160a01b0384811660248084019190915283518084039091018152604490920183526020820180516001600160e01b03166001600160e01b0319861617815292518251600094859485948a16939092909182918083835b602083106135075780518252601f1990920191602091820191016134e8565b6001836020036101000a038019825116818451168082178552505050505050905001915050600060405180830381855afa9150503d8060008114613567576040519150601f19603f3d011682016040523d82523d6000602084013e61356c565b606091505b50915091508161357b57600080fd5b80806020019051602081101561359057600080fd5b50519695505050505050565b6135a4613de4565b54825160405163e8eda9df60e01b81526001600160a01b039092169163e8eda9df916135d991859030906000906004016152c6565b600060405180830381600087803b1580156135f357600080fd5b505af1158015613607573d6000803e3d6000fd5b505050505050565b815160405163140e25ad60e31b81526000916001600160a01b03169063a0712d689061363f9085906004016153f2565b602060405180830381600087803b15801561365957600080fd5b505af115801561366d573d6000803e3d6000fd5b505050506040513d601f19601f820116820180604052508101906136919190615097565b9050801561141b5760405162461bcd60e51b815260040161034490615516565b81600001516001600160a01b0316631249c58b826040518263ffffffff1660e01b81526004016000604051808303818588803b1580156136f057600080fd5b505af1158015613704573d6000803e3d6000fd5b50505050505050565b600082821115611ee7576040805162461bcd60e51b815260206004820152601e60248201527f536166654d6174683a207375627472616374696f6e206f766572666c6f770000604482015290519081900360640190fd5b6000806110456014612b4a565b613779614c25565b60008060006128f785613df1565b61378f614c25565b60008061379c8585612e82565b9150915081600014156137ba576137b285613df1565b919350909150505b6040805160608101825260008152602081019390935260ff909116600a0a90820152905092915050565b6000816137f357506000611668565b6000806138008785613e74565b91509150600061381f8760400151886000015188858c600001516130af565b905061383d61382d8461167d565b610160890151611b629084611637565b98975050505050505050565b600061385484613ecd565b156108c2576000613863611278565b6001600160a01b0380861660009081526020928352604080822089519093168252919092528082209087015190925061389f9061ffff1661292d565b82549091506001600160501b03600160281b8204811691600160781b90041681156138f5576138f26138eb848a61014001516000600281106138dd57fe5b60200201518b518a87613ef6565b8690612d09565b94505b8015613925576139226138eb848a610140015160016002811061391457fe5b60200201518b518a86613ef6565b94505b505050509392505050565b60006108c261394384633b9aca00612ab5565b83612b03565b600080613991886040518060a001604052808a6001600160a01b031681526020018a6001600160a01b0316815260200189815260200188815260200160008152508686613fa7565b90999098509650505050505050565b6000806110456010612b4a565b806005856060015160058111156139c057fe5b14156139e55760006139d18461134f565b90506139e181600001518461421c565b9250505b6000821315613a115760006139fb8686856142a2565b9050856020015115613a0b578091505b50611668565b600385606001516005811115613a2357fe5b1415613a4057613a3b84613a3684611629565b614395565b611668565b84516116689085613a5085611629565b6143cb565b600080600286606001516005811115613a6a57fe5b1415613a8257613a7b868585614442565b9050613adf565b6000613a8d8661134f565b9050600587606001516005811115613aa157fe5b1415613ab957613ab28186866144ff565b9150613add565b600187606001516005811115613acb57fe5b141561013757613ab2878287876145b0565b505b6112b06109808261167d565b6000806110456007612b4a565b6000806000613b056146ae565b600094855260205250506040909120546001600160a01b03811692600160a01b90910460ff169150565b6000806110456006612b4a565b600881901c60ff9091161b90565b6000613b54613b2f565b6001600160a01b0388166000908152602082815260408083208a845290915290209091506a7fffffffffffffffffffff198612801590613b9f57506a7fffffffffffffffffffff8613155b613ba857600080fd5b60008512158015613bc057506001600160501b038513155b613bc957600080fd5b83613c095766ffffffffffffff831115613be257600080fd5b805466ffffffffffffff60701b1916600160701b66ffffffffffffff851602178155613c23565b8054600160501b900463ffffffff168414613c2357600080fd5b8054600a9690960b6affffffffffffffffffffff16600160a81b026001600160a81b036001600160501b039096166001600160501b031963ffffffff909616600160501b0263ffffffff60501b19909816979097179490941695909517939093169190911790925550505050565b60006305f5e10083604001511415613caa575080611045565b60408301516108c2906111b6846305f5e100612ab5565b600064ffffffffff82111561127057600080fd5b600080613ce4888886866146bb565b90506000613cf18761472a565b90506affffffffffffffffffffff8110613d0a57600080fd5b600060788763ffffffff16901b609883901b60f085901b60f860008c13613d32576001613d35565b60005b6005811115613d4057fe5b60ff16901b17171760001b905073__TradingAction_________________________63e50f349e8b836040518363ffffffff1660e01b8152600401613d86929190615996565b60206040518083038186803b158015613d9e57600080fd5b505af4158015613db2573d6000803e3d6000fd5b505050506040513d601f19601f82011682018060405250810190613dd69190615097565b9a9950505050505050505050565b6000806110456013612b4a565b6000806000806000613e0286613af8565b909250905060006001600160a01b038316613e275750600090506402540be400612f81565b826001600160a01b031663b2fffb046040518163ffffffff1660e01b815260040160206040518083038186803b158015613e6057600080fd5b505afa158015612f4e573d6000803e3d6000fd5b600080600084606001511115610c0f57613ea38460600151611ca78660800151866131b390919063ffffffff16565b9150613ec48460600151611ca78660a00151866131b390919063ffffffff16565b90509250929050565b6101408101515160009061ffff1615158061104557505061014001516020015161ffff16151590565b600080613f01611670565b6001600160a01b038616600090815260209182526040808220878352835280822061ffff8a16835290925290812080549092506001600160501b0380821692600160501b9092041690613f5b611cad83611ca789876131b3565b90506000613f6c8a61ffff1661292d565b90506000613f7a8c83612a90565b9050613f97816111b68e6000015186612ab590919063ffffffff16565b9c9b505050505050505050505050565b600080600080613fb68861474b565b915091506000808860800151121561402b57600483606001516005811115613fda57fe5b1415613ff757613ff061036b8960800151611629565b905061402b565b60006140186109808a608001518c6101600151611dc790919063ffffffff16565b905061402761036b8483611df2565b9150505b6040880151600090156141035760006140448430611e2e565b90508a600001516001600160a01b03166344f051088b600001518c602001518d604001518e60600151888f8f6040518863ffffffff1660e01b81526004016140929796959493929190615265565b602060405180830381600087803b1580156140ac57600080fd5b505af11580156140c0573d6000803e3d6000fd5b505050506040513d601f19601f820116820180604052508101906140e49190615097565b955060006140f28530611e2e565b90506140fe8183611ed8565b925050505b8181101561419e5780820360038460600151600581111561412057fe5b141561415e57348111156141465760405162461bcd60e51b81526004016103449061557b565b6141568a60000151823403614395565b82915061419c565b60006141838b600001518d6040015161ffff1661417a8561167d565b889291906139ad565b905061419861419182611261565b84906117bb565b9250505b505b818110156141be5760405162461bcd60e51b81526004016103449061557b565b60006004856060015160058111156141d257fe5b14156141e8576141e18261167d565b9050614202565b81156142025760408b01516141ff90869084611eed565b90505b61420c8582613c91565b9650505050505094509492505050565b60008161422b57506000611045565b6000614236846147a4565b905060006142438461472a565b9050816b019d971e4fe8401e74000001600160ff1b038161426057fe5b0581131561426d57600080fd5b6b033b2e3c9fd0803ce80000006b019d971e4fe8401e7400000083830201056000851361316d5761429d81611629565b6112b0565b60008080806005876060015160058111156142b957fe5b146142cb576370a0823160e01b6142d4565b630ed1279f60e11b5b90508660200151156142f05786516142ed90308361348a565b92505b86516142fd90878761482f565b866020015180614311575060008760800151115b1561432657865161432390308361348a565b91505b6080870151156143615760006143448861433f8561167d565b613c91565b9050614353886080015161167d565b81131561435f57600080fd5b505b86602001511561438257614378611cad838561370d565b93505050506108c2565b6143788561167d565b5050509392505050565b6040516001600160a01b0383169082156108fc029083906000818181858888f1935050505015801561141b573d6000803e3d6000fd5b826001600160a01b031663a9059cbb83836040518363ffffffff1660e01b815260040180836001600160a01b0316815260200182815260200192505050600060405180830381600087803b15801561442257600080fd5b505af1158015614436573d6000803e3d6000fd5b5050505061141b614887565b825160405163db006a7560e01b8152600091479183916001600160a01b03169063db006a75906144769087906004016153f2565b602060405180830381600087803b15801561449057600080fd5b505af11580156144a4573d6000803e3d6000fd5b505050506040513d601f19601f820116820180604052508101906144c89190615097565b905080156144e85760405162461bcd60e51b815260040161034490615534565b476144f3818461370d565b935061438b8685614395565b600061451a61036b85600001516145158561167d565b61421c565b9050614524613de4565b548451604051631a4ca37b60e21b81526001600160a01b03909216916369328dec9161455691859088906004016152a3565b602060405180830381600087803b15801561457057600080fd5b505af1158015614584573d6000803e3d6000fd5b505050506040513d601f19601f820116820180604052508101906145a89190615097565b509392505050565b825160009081906145c990306370a0823160e01b61348a565b9050600086600001516001600160a01b031663db006a75856040518263ffffffff1660e01b81526004016145fd91906153f2565b602060405180830381600087803b15801561461757600080fd5b505af115801561462b573d6000803e3d6000fd5b505050506040513d601f19601f8201168201806040525081019061464f9190615097565b9050801561466f5760405162461bcd60e51b815260040161034490615534565b855160009061468690306370a0823160e01b61348a565b9050614692818461370d565b93506146a3876000015187866143cb565b505050949350505050565b600080611045600f612b4a565b60008060006146cd8761ffff166148f8565b90506146dd8160ff16878661490e565b9093509150848311156147025760405162461bcd60e51b815260040161034490615601565b81156147205760405162461bcd60e51b815260040161034490615601565b5050949350505050565b6000808212156147445761473d82611629565b9050611273565b5080611273565b614753614bfe565b61475b614bfe565b61476c836040015161ffff1661133c565b915060048260600151600581111561478057fe5b1461479b57614796836040015161ffff1661134f565b61479d565b815b9050915091565b60006110456147b1613de4565b5460405163d15e005360e01b81526001600160a01b039091169063d15e0053906147df908690600401615251565b60206040518083038186803b1580156147f757600080fd5b505afa15801561480b573d6000803e3d6000fd5b505050506040513d601f19601f82011682018060405250810190611cad9190615097565b604080516323b872dd60e01b81526001600160a01b038481166004830152306024830152604482018490529151918516916323b872dd9160648082019260009290919082900301818387803b15801561442257600080fd5b6000614891614c7e565b3d80156148a557602081146148ae57600080fd5b600192506148b9565b60206000833e815192505b50816148f4576040805162461bcd60e51b8152602060048201526005602482015264045524332360dc1b604482015290519081900360640190fd5b5050565b600080614904836149d6565b60ff169392505050565b600080600085116149315760405162461bcd60e51b8152600401610344906155ab565b60078511156149525760405162461bcd60e51b8152600401610344906156af565b600061495d846149f3565b905060015b8681116149b557600061497e61497783614a11565b8490614ab5565b90508681141561499657509250600091506149ce9050565b868111156149ac57509250600191506149ce9050565b50600101614962565b5060405162461bcd60e51b815260040161034490615845565b935093915050565b6000806149e1614b0f565b60009384526020525050604090205490565b60006276a700821015614a0557600080fd5b506276a7008106900390565b60008160011415614a2657506276a700611273565b8160021415614a39575062ed4e00611273565b8160031415614a4d57506301da9c00611273565b8160041415614a6157506303b53800611273565b8160051415614a7557506309450c00611273565b8160061415614a89575063128a1800611273565b8160071415614a9d57506325143000611273565b60405162461bcd60e51b8152600401610344906155da565b6000828201838110156108c2576040805162461bcd60e51b815260206004820152601b60248201527f536166654d6174683a206164646974696f6e206f766572666c6f770000000000604482015290519081900360640190fd5b6000806110456009612b4a565b60405180604001604052806002906020820280368337509192915050565b6040518060e001604052806000815260200160008152602001600015158152602001600081526020016000815260200160008152602001600081525090565b604051806101a0016040528060006001600160a01b03168152602001600061ffff168152602001600061ffff16815260200160008152602001600081526020016000815260200160008152602001600081526020016000815260200160008152602001614be4614b1c565b8152602001614bf1614c25565b8152602001600081525090565b6040805160a081018252600080825260208201819052918101829052906060820190614bf1565b604051806060016040528060006001600160a01b0316815260200160008152602001600081525090565b6040518060a0016040528060008152602001600081526020016000815260200160008152602001600081525090565b60405180602001604052806001906020820280368337509192915050565b80356001600160a01b038116811461127357600080fd5b806040810183101561104557600080fd5b60008083601f840112614cd5578182fd5b50813567ffffffffffffffff811115614cec578182fd5b602083019150836020828501011115610c0f57600080fd5b600060208284031215614d15578081fd5b6108c282614c9c565b60008060408385031215614d30578081fd5b614d3983614c9c565b915060208301358015158114614d4d578182fd5b809150509250929050565b60008060008385036101c0811215614d6e578182fd5b614d7785614c9c565b9350610180601f1982011215614d8b578182fd5b506020840191506101a0840135614da181615ca6565b809150509250925092565b60008060408385031215614dbe578182fd5b614dc783614c9c565b91506020830135614d4d81615c72565b600080600060608486031215614deb578283fd5b614df484614c9c565b92506020840135614e0481615c72565b929592945050506040919091013590565b600080600080600080600060c0888a031215614e2f578283fd5b614e3888614c9c565b96506020880135614e4881615c72565b955060408801359450606088013593506080880135614e6681615c85565b925060a088013567ffffffffffffffff811115614e81578283fd5b614e8d8a828b01614cc4565b989b979a50959850939692959293505050565b600080600060608486031215614eb4578283fd5b614ebd84614c9c565b92506020840135614ecd81615c72565b91506040840135614da181615ca6565b60008060408385031215614eef578182fd5b614ef883614c9c565b946020939093013593505050565b60008060008060006101008688031215614f1e578283fd5b614f2786614c9c565b945060208601359350614f3d8760408801614cb3565b9250614f4c8760808801614cb3565b9150614f5b8760c08801614cb3565b90509295509295909350565b60008060408385031215614f79578182fd5b614f8283614c9c565b91506020830135614d4d81615ca6565b60008060008060008060a08789031215614faa578384fd5b614fb387614c9c565b95506020870135614fc381615ca6565b94506040870135935060608701359250608087013567ffffffffffffffff811115614fec578283fd5b614ff889828a01614cc4565b979a9699509497509295939492505050565b60006020828403121561501b578081fd5b815167ffffffffffffffff80821115615032578283fd5b818401915084601f830112615045578283fd5b81518181111561505157fe5b604051601f8201601f19168101602001838111828210171561506f57fe5b604052818152838201602001871015615086578485fd5b6112b0826020830160208701615a36565b6000602082840312156150a8578081fd5b5051919050565b6000602082840312156150c0578081fd5b81356108c281615c72565b6000602082840312156150dc578081fd5b5035919050565b600080600080606085870312156150f8578182fd5b8435935060208501359250604085013567ffffffffffffffff81111561511c578283fd5b61512887828801614cc4565b95989497509550505050565b600060208284031215615145578081fd5b81356108c281615c85565b600060208284031215615161578081fd5b81356108c281615c97565b600080600080600060a08688031215615183578283fd5b855161518e81615ca6565b8095505060208601519350604086015192506060860151915060808601516151b581615ca6565b809150509295509295909350565b6001600160a01b03169052565b8060005b60028110156151f757815161ffff168452602093840193909101906001016151d4565b50505050565b60008284528282602086013780602084860101526020601f19601f85011685010190509392505050565b80516001600160a01b0316825260208082015190830152604090810151910152565b61ffff169052565b6001600160a01b0391909116815260200190565b600060018060a01b03808a16835280891660208401525086604083015285606083015284608083015260c060a083015261132f60c0830184866151fd565b6001600160a01b0393841681526020810192909252909116604082015260600190565b6001600160a01b03948516815260208101939093529216604082015261ffff909116606082015260800190565b600060018060a01b0386168252846020830152606060408301526112b06060830184866151fd565b6001600160a01b039390931683526020830191909152604082015260600190565b600060018060a01b038716825285602083015284604083015260806060830152610a8c6080830184866151fd565b60408101818360005b6002811015615392578151835260209283019290910190600101615373565b50505092915050565b901515815260200190565b91151582526001600160501b0316602082015260400190565b60006020825282518060208401526153de816040850160208701615a36565b601f01601f19169190910160400192915050565b90815260200190565b918252602082015260400190565b93845260208401929092526040830152606082015260800190565b948552602085019390935260408401919091526060830152608082015260a00190565b6020808252601a908201527f496e76616c6964205365636f6e64617279204d61747572697479000000000000604082015260600190565b6020808252600d908201526c109bdc9c9bddc811985a5b1959609a1b604082015260600190565b60208082526011908201527052656465656d20616c6c20746f6b656e7360781b604082015260600190565b60208082526006908201526514185d5cd95960d21b604082015260600190565b6020808252600c908201526b155b985d5d1a1bdc9a5e995960a21b604082015260600190565b602080825260049082015263135a5b9d60e21b604082015260600190565b60208082526006908201526552656465656d60d01b604082015260600190565b6020808252600d908201526c556e7061696420426f72726f7760981b604082015260600190565b602080825260169082015275125b9cdd59999a58da595b9d081c995c185e5b595b9d60521b604082015260600190565b60208082526015908201527410d1ce881b9bc81b585c9ad95d1cc81b1a5cdd1959605a1b604082015260600190565b6020808252600d908201526c092dcecc2d8d2c840d2dcc8caf609b1b604082015260600190565b60208082526010908201526f496e76616c6964204d6174757269747960801b604082015260600190565b6020808252601d908201527f496e73756666696369656e74205365636f6e6461727920426f72726f77000000604082015260600190565b6020808252600d908201526c43616e6e6f7420536574746c6560981b604082015260600190565b6020808252600c908201526b4d617820436170616369747960a01b604082015260600190565b60208082526016908201527510d1ce881b585c9ad95d081a5b99195e08189bdd5b9960521b604082015260600190565b60208082526010908201526f496e76616c69642043757272656e637960801b604082015260600190565b60208082526015908201527410d85b9b9bdd0814995cd95d0814db985c1cda1bdd605a1b604082015260600190565b6020808252818101527f4f776e61626c653a2063616c6c6572206973206e6f7420746865206f776e6572604082015260600190565b6020808252600d908201526c125b8814d95d1d1b195b595b9d609a1b604082015260600190565b60208082526017908201527f496e73756666696369656e7420436f6c6c61746572616c000000000000000000604082015260600190565b6020808252600c908201526b496e76616c6964207261746560a01b604082015260600190565b6020808252600e908201526d1499595b9d1c985b9d0818d85b1b60921b604082015260600190565b602080825260129082015271496e73756666696369656e7420526570617960701b604082015260600190565b60208082526013908201527210d1ce881b9bc81b585c9ad95d08199bdd5b99606a1b604082015260600190565b6000610200820190506158868284516151c3565b60208301516158986020840182615249565b5060408301516158ab6040840182615249565b50606083015160608301526080830151608083015260a083015160a083015260c083015160c083015260e083015160e083015261010080840151818401525061012080840151818401525061014080840151615909828501826151d0565b505061016083015161018061592081850183615227565b808501516101e0850152505092915050565b600060e0820190508251825260208301516020830152604083015115156040830152606083015160608301526080830151608083015260a083015160a083015260c083015160c083015292915050565b6001600160801b0391909116815260200190565b61ffff929092168252602082015260400190565b9283526020830191909152604082015260600190565b6001600160501b0391909116815260200190565b81816000805b60028082106159e95750613607565b84356159f481615c72565b845461ffff6008860281811b801990931693909116901b161784556020949094019390910190601e821115615a2e57600091506001830192505b6001016159da565b60005b83811015615a51578181015183820152602001615a39565b838111156151f75750506000910152565b6000813561104581615c72565b6000813561104581615c85565b6000813561104581615c97565b8135615a9481615c72565b615a9e8183615b6e565b50615ab4615aae60208401615a62565b82615c14565b615ac9615ac360408401615a6f565b82615c30565b615ade615ad860608401615a62565b82615c54565b615af3615aed60808401615a7c565b82615b81565b615b08615b0260a08401615a7c565b82615b9e565b615b1d615b1760c08401615a7c565b82615bbb565b615b32615b2c60e08401615a7c565b82615bd8565b615b48615b426101008401615a62565b82615bf5565b615b596101208301600183016159d4565b6148f4615b696101608401615a62565b600283015b61ffff821661ffff198254161781555050565b805460ff60501b191660509290921b60ff60501b16919091179055565b805460ff60581b191660589290921b60ff60581b16919091179055565b805460ff60601b191660609290921b60ff60601b16919091179055565b805460ff60681b191660689290921b60ff60681b16919091179055565b805461ffff60701b191660709290921b61ffff60701b16919091179055565b805463ffff00008360101b1663ffff0000198216178255505050565b805467ffffffff000000008360201b1667ffffffff00000000198216178255505050565b805461ffff60401b8360401b1661ffff60401b198216178255505050565b61ffff81168114615c8257600080fd5b50565b63ffffffff81168114615c8257600080fd5b60ff81168114615c8257600080fd5b6001600160501b0381168114615c8257600080fdfea2646970667358221220beff533678f52d6b140142d5d966a1f3179d84ed45fae60d43bf48e92125f5bc64736f6c63430007060033",
  "bytecodeSha1": "792688e1a557de2cc6eb1a9d16c997d5e82235f6",
  "compiler": {
    "evm_version": "istanbul",
    "optimizer": {
      "enabled": true,
      "runs": 200
    },
    "version": "0.7.6+commit.7338295f"
  },
  "contractName": "VaultAction",
  "deployedBytecode": "608060405234801561001057600080fd5b50600436106101375760003560e01c80636c346c09116100b8578063b67138aa1161007c578063b67138aa14610294578063c4c96dae146102a7578063d04c16ac146102af578063d6ddeb9a146102c2578063de1eb9a3146102d5578063ee01436b146102f557610137565b80636c346c091461023c578063824633671461024f5780638c9e4465146102575780638da5cb5b1461026a578063a14db57c1461027257610137565b806331572281116100ff57806331572281146101b557806350e4f223146101d557806354cceaf7146101f557806356f428c414610208578063675157761461021b57610137565b806301ac88521461013c5780630bc08cdc1461016557806324a3d62214610178578063291afdf31461018d578063295e6b7f146101a2575b600080fd5b61014f61014a3660046150cb565b610308565b60405161015c919061536a565b60405180910390f35b61014f610173366004614f06565b610392565b61018061054a565b60405161015c9190615251565b6101a061019b366004614ea0565b610559565b005b6101a06101b0366004614edd565b610675565b6101c86101c3366004614edd565b6108b0565b60405161015c9190615932565b6101e86101e3366004614e15565b6108c9565b60405161015c91906153bf565b6101a0610203366004614d1e565b610a97565b6101a0610216366004614d1e565b610b17565b61022e610229366004614dac565b610b8b565b60405161015c9291906153fb565b61022e61024a366004614edd565b610bdb565b610180610c16565b6101a0610265366004614d58565b610c25565b610180610cdd565b610285610280366004614dd7565b610cf3565b60405161015c939291906159aa565b6101a06102a2366004614f67565b610d59565b610180610df8565b6101a06102bd3660046150e3565b610e10565b6101a06102d0366004614f92565b610f82565b6102e86102e3366004614d04565b611034565b60405161015c9190615872565b61022e6103033660046150e3565b61104b565b610310614b1c565b600061031b3361109d565b90506103288160016110cc565b61034d5760405162461bcd60e51b8152600401610344906154d0565b60405180910390fd5b6101408101516103709061036b9060005b60200201518390866110e1565b611261565b82526101408101516103879061036b90600161035e565b602083015250919050565b61039a614b1c565b60006103a53361109d565b90506103b28160016110cc565b6103ce5760405162461bcd60e51b8152600401610344906154d0565b610140810151805161ffff161515806103ee5750602081015161ffff1615155b6103f757600080fd5b6000610401611278565b6001600160a01b03808b1660009081526020928352604080822087519093168252919092529020805490915064ffffffffff1661043c614b1c565b811580159061044a57508982105b801561045c575061045c8560026110cc565b801561047157506001600160a01b038b163314155b156104e5576104b3858c866000602002015186548690600160281b90046001600160501b03168c60005b6020020160208101906104ae9190615134565b611285565b8152602084015183546104df9187918e91908690600160781b90046001600160501b03168c600161049b565b60208201525b835181516105129187918e91908e908e358e60005b60200201602081019061050d9190615134565b6112ba565b8652602084810151828201516105369288928f9290918f91908f01358e60016104fa565b602087015250939998505050505050505050565b6002546001600160a01b031681565b600054600160201b90046001600160a01b0316331461058a5760405162461bcd60e51b815260040161034490615738565b60006105958461109d565b905060006105a68461ffff1661133c565b905060006105b78561ffff1661134f565b905081602001511580156105cd57508060200151155b6105d657600080fd5b6101408301515161ffff8681169116148061060057506101408301516020015161ffff8681169116145b61061c5760405162461bcd60e51b8152600401610344906156df565b610627868686611362565b8461ffff16866001600160a01b03167f8f868f60e49b80b48ee5de8b7bc703cfc4b5c826a05d3ea1b00cf4159c155a908660405161066591906159c0565b60405180910390a3505050505050565b6002600a5414156106985760405162461bcd60e51b8152600401610344906157f1565b6002600a5560006106a88361109d565b90506106b6813360406113b6565b60006106c28484611420565b90504283111580156106d657506040810151155b6106f25760405162461bcd60e51b815260040161034490615662565b6000610707836040015161ffff1685426114bb565b9050600061072561036b61071e8560200151611629565b8490611637565b90506000610731611670565b6001600160a01b038816600090815260209182526040808220898352909252206101408601515190915061ffff16156107a4576101408501515161ffff166000908152602082905260409020546001600160501b0316156107a45760405162461bcd60e51b815260040161034490615554565b6101408501516020015161ffff16156107fb5761014085015160209081015161ffff1660009081529082905260409020546001600160501b0316156107fb5760405162461bcd60e51b815260040161034490615554565b81846080015110156108795760a0840151156108295760405162461bcd60e51b8152600401610344906154a5565b600061083a8560800151840361167d565b9050600061085561036b88600001518960400151858c611693565b608087015190915061086790826117bb565b6080870152610876868a6117cd565b50505b61089487866040015161088f8760200151611629565b611937565b506108a28486858942611a3d565b50506001600a555050505050565b6108b8614b3a565b6108c28383611420565b9392505050565b6060846108d557610a8c565b60006108e03361109d565b90506108ed8160016110cc565b6109095760405162461bcd60e51b8152600401610344906154d0565b6000610919828b8b8b8b8b611c03565b509050600061092b8a61ffff1661133c565b905060008060048360600151600581111561094257fe5b14610959576109548c61ffff1661134f565b61095b565b825b9050600061098c61036b610985610980888a6101600151611dc790919063ffffffff16565b611629565b8490611df2565b9050600061099a8330611e2e565b8351604051637efbe0e760e11b8152919250339163fdf7c1ce916109c69186908f908f906004016152f3565b600060405180830381600087803b1580156109e057600080fd5b505af11580156109f4573d6000803e3d6000fd5b505050506040513d6000823e601f3d908101601f19168201604052610a1c919081019061500a565b97506000610a2a8430611e2e565b9050610a368183611ed8565b945082851015610a585760405162461bcd60e51b815260040161034490615819565b5060049250610a65915050565b82606001516005811115610a7557fe5b14610a8757610a85828c83611eed565b505b505050505b979650505050505050565b600054600160201b90046001600160a01b03163314610ac85760405162461bcd60e51b815260040161034490615738565b610ad28282611fd4565b816001600160a01b03167f9066b2f4ad4552447bd5ddeae159ff6b5a28a4eec9421da5a9d502deb99974e182604051610b0b919061539b565b60405180910390a25050565b600054600160201b90046001600160a01b03163314610b485760405162461bcd60e51b815260040161034490615738565b610b528282612035565b816001600160a01b03167f7c51c6aa77346c54cb051d9e792f9b7bde5c28a9b57e6fb2d2dd727b38438ca982604051610b0b919061539b565b6000806000610b98612094565b6001600160a01b0390951660009081526020958652604080822061ffff9096168252949095525050509020546001600160501b03600160501b8204811692911690565b6000806000610be9856120a1565b90506000610bfb826000015186611420565b9050610c088282876120c5565b9350935050505b9250929050565b6001546001600160a01b031681565b600054600160201b90046001600160a01b03163314610c565760405162461bcd60e51b815260040161034490615738565b610c60838361217e565b610c7a83610c7460408501602086016150af565b83611362565b6000600180610c8c60208601866150af565b1661ffff16149050836001600160a01b03167fb441d7ca09abc712b4504256717707ce40e8d43895266b46abf9cd58619c07dc8284604051610ccf9291906153a6565b60405180910390a250505050565b600054600160201b90046001600160a01b031681565b600080600080610d01611670565b6001600160a01b0390971660009081526020978852604080822096825295885285812061ffff9097168152959096525050509020546001600160501b0380821693600160501b830482169350600160a01b9092041690565b600054600160201b90046001600160a01b03163314610d8a5760405162461bcd60e51b815260040161034490615738565b6000610d958361109d565b9050610da683826040015184611362565b6001600160a01b0383167fb441d7ca09abc712b4504256717707ce40e8d43895266b46abf9cd58619c07dc610ddc8360016110cc565b84604051610deb9291906153a6565b60405180910390a2505050565b73__$7ac922d04bd7a1b42c7f6e5f1dd89a70af$__90565b6002600a541415610e335760405162461bcd60e51b8152600401610344906157f1565b6002600a556000610e433361109d565b9050610e508160016110cc565b610e6c5760405162461bcd60e51b8152600401610344906154d0565b610e778160806110cc565b15610e82576001600a555b6000610e8e3387611420565b90506000610eb08360000151610ea38861167d565b8591908a60008a8a6124fb565b6080830151909150610ec29087611ed8565b608083015260a0820151610ed690826117bb565b60a0830152610ee582336117cd565b6000610f08833385606001518660200151886125a490949392919063ffffffff16565b509050808460a001511315610f2f5760405162461bcd60e51b815260040161034490615794565b87336001600160a01b03167fbba43506b1f3723add796bf603adde56bc018392a95775b9f76c31213b4161bb8985604051610f6b9291906153fb565b60405180910390a350506001600a55505050505050565b600054600160201b90046001600160a01b03163314610fb35760405162461bcd60e51b815260040161034490615738565b6000610fbe8761109d565b9050610fcf87826040015188611362565b610fdc8186868686612624565b50506001600160a01b0387167fb441d7ca09abc712b4504256717707ce40e8d43895266b46abf9cd58619c07dc6110148360016110cc565b886040516110239291906153a6565b60405180910390a250505050505050565b61103c614b79565b611045826120a1565b92915050565b60008060006110593361109d565b90506110668160016110cc565b6110825760405162461bcd60e51b8152600401610344906154d0565b61108f8188888888612624565b925092505094509492505050565b6110a5614b79565b6110ae82612748565b90506110c1816040015161ffff166128e1565b610160820152919050565b60209190910151811661ffff90811691161490565b600061ffff83166110f4575060006108c2565b60006110fe611670565b85516001600160a01b0316600090815260209182526040808220868352835280822061ffff88168352909252208054909150600160f01b900460ff16156111575760405162461bcd60e51b815260040161034490615709565b805460408601516001600160501b039091169060009061117a9061ffff1661292d565b9050600061118b8761ffff1661292d565b905060006111998383612a90565b90506111bc816111b6856000015187612ab590919063ffffffff16565b90612b03565b95506111cf6111ca87611261565b612b34565b855460ff60f01b196001600160501b0392909216600160a01b0269ffffffffffffffffffff60a01b199091161716600160f01b1785558851604051889161ffff8b16916001600160a01b03909116907f744b6e0d7db0666a7c17a4868d11d5f7f909a7b04d458b5eace97646ba7a0ee89061124d908b9087906153fb565b60405180910390a450505050509392505050565b60008082121561127057600080fd5b50805b919050565b600080611045601a612b4a565b600061ffff85161580159061129957508215155b156112b0576112ac878787878787611c03565b5090505b9695505050505050565b600061ffff861615806112cb575082155b80156112d5575083155b156112e257506000610a8c565b60006112f2898989898888612b63565b5090506112ff8186612d09565b905060008112156113225760405162461bcd60e51b81526004016103449061562b565b885161132f908883612d1f565b9998505050505050505050565b611344614bfe565b611045826000612dc7565b611357614bfe565b611045826001612dc7565b600061136c612094565b6001600160a01b0390941660009081526020948552604080822061ffff90951682529390945250912080546001600160501b039092166001600160501b0319909216919091179055565b6113c083826110cc565b156113f35782516001600160a01b031633146113ee5760405162461bcd60e51b8152600401610344906154f0565b61141b565b6001600160a01b038216331461141b5760405162461bcd60e51b8152600401610344906154f0565b505050565b611428614b3a565b6000611432612e75565b6001600160a01b03909416600090815260209485526040808220858352865280822094845284546001600160501b038082169093039685019690965260ff600160f01b870416151590840152600160501b8086048216608085015260019094015480821660a0850152600160a01b909504166060830152509104600990810b900b60c082015290565b6114c3614c25565b6000806114d08686612e82565b9150915081600014156115fe5760006114e887612ec9565b91945090925090506001600160a01b038116156115fc576000611509612f8c565b905085600010801561151b5750858711155b801561152c575064ffffffffff8611155b61153557600080fd5b83600012801561154c57506001600160801b038413155b61155557600080fd5b6000888152602082815260408083208a845290915290819020805464ffffffffff191664ffffffffff89161774ffffffffffffffffffffffffffffffff00000000001916600160281b6001600160801b038816021760ff60a81b1916600160a81b60ff871602178155905188908a907f0fdfa6885701e2f1f42e4187b9231cf81c1fe23671ef64fa46f34ddb56c1dc18906115f1908990615982565b60405180910390a350505b505b6040805160608101825260008152602081019390935260ff909116600a0a9082015290509392505050565b600061104560001983612ab5565b60008061166884602001516111b686604001516116626402540be40088612ab590919063ffffffff16565b90612ab5565b949350505050565b6000806110456018612b4a565b60006001600160ff1b0382111561127057600080fd5b60006116a0856000612035565b846001600160a01b03167f7c51c6aa77346c54cb051d9e792f9b7bde5c28a9b57e6fb2d2dd727b38438ca960006040516116da919061539b565b60405180910390a2818461ffff16866001600160a01b03167f823b641d46550301006f807a26587634f15bd13749efdc8859734377d5304a3b8660405161172191906153f2565b60405180910390a4600061173a60008661ffff16612f99565b505050905080841361175a5761175285858303613042565b8391506117b2565b611765856000613042565b828561ffff16876001600160a01b03167f3a717b6924e3ad05b8c7609a2401472af90869b52cc3c9ca69b50100b4be63168488036040516117a691906153f2565b60405180910390a48091505b50949350505050565b6000828201838110156108c257600080fd5b60006117d7612e75565b6001600160a01b038316600090815260208281526040808320875184529091529081902090850151919250901561180d57600080fd5b6118206111ca61036b8660200151611629565b81546001600160501b0319166001600160501b0391909116178155608084015161184990612b34565b81546001600160501b0391909116600160501b02600160501b600160a01b031990911617815560a084015161187d90612b34565b6001820180546001600160501b0319166001600160501b039290921691909117905560608401516118ad90612b34565b81546001600160501b0391909116600160a01b0269ffffffffffffffffffff60a01b1990911617815583516020850151608086015160a087015160608801516040516001600160a01b038916947f3a0fdaecf7b5da75a56077f5b1c8fbc88f9b08e9d0c4db31eb34e25bc6700cde946119299491939092615409565b60405180910390a350505050565b600080611942612094565b6001600160a01b03861660009081526020918252604080822061ffff8816835290925220805490915061198590600160501b90046001600160501b031684613099565b915060008312156119ba5780546001600160501b03168213156119ba5760405162461bcd60e51b815260040161034490615689565b6119c66111ca83611261565b81546001600160501b0391909116600160501b02600160501b600160a01b031990911617815560405161ffff8516906001600160a01b038716907f20478ef460e49d010960d4f3fff35d8dae385443abfac09035d6a2ccbcd834c490611a2d9086906153f2565b60405180910390a3509392505050565b6000611a47612e75565b85516001600160a01b03166000908152602082815260408083208784529091529020805491925090600160f01b900460ff1615611a8357600080fd5b82841115611a9057600080fd5b60408601518651600091611aaa91806305f5e100896130af565b825460ff60f01b1916600160f01b1783559050611ac681613176565b82600101600a6101000a8154816001600160501b03021916908360090b6001600160501b031602179055506000611afb6131a6565b88516001600160a01b031660009081526020918252604080822089835283529020600185015481546001600160501b0319166001600160501b03909116178155908a0151909150611b6d90611b6890611b55908a90611637565b611b628c6080015161167d565b90612d09565b613176565b815460099190910b6001600160501b0316600160501b02600160501b600160a01b03199091161781558851885160208b015160808c015160a08d015160608e01516040516001600160a01b03909516947fe66a863186dba5a66d19d3d91a66b76a7cbfdefd0d8c29c662274b13febb166e94611bf0949093909290918a90615424565b60405180910390a3505050505050505050565b6000806000611c10611670565b89516001600160a01b0316600090815260209182526040808220898352835280822061ffff8b168352909252208054909150600160f01b900460ff161580611c64575088516001600160a01b038981169116145b611c805760405162461bcd60e51b81526004016103449061576d565b80546001600160501b0380821691600160501b900416611cb2611cad82611ca78a866131b3565b906131da565b61167d565b93508a600001516001600160a01b03168a6001600160a01b031614611d1c57611cde6111ca8289611ed8565b83546001600160501b0391909116600160501b02600160501b600160a01b0319909116178355611d1c8b8b8b8b611d176109808d61167d565b6131f9565b8a51611d29908a86611937565b50611d376111ca8386611ed8565b83546001600160501b0319166001600160501b0391909116178355611d5f8b8a8a878a613385565b94508861ffff168a6001600160a01b03168c600001516001600160a01b03167f38db3b2568ca34833805148705b1440a4f80962ce663ba509811abc652de434a8b8b89604051611db1939291906159aa565b60405180910390a4505050965096945050505050565b60008061166884604001516111b66402540be4006111b6878960200151612ab590919063ffffffff16565b60006305f5e10083604001511215611e1a57611e136001611b628585613452565b9050611045565b6108c283611e29846001612d09565b613452565b6000600383606001516005811115611e4257fe5b1415611e5957506001600160a01b03811631611045565b82516040516370a0823160e01b81526001600160a01b03909116906370a0823190611e88908590600401615251565b60206040518083038186803b158015611ea057600080fd5b505afa158015611eb4573d6000803e3d6000fd5b505050506040513d601f19601f82011682018060405250810190611e139190615097565b600082821115611ee757600080fd5b50900390565b600080600585606001516005811115611f0257fe5b14611f14576370a0823160e01b611f1d565b630ed1279f60e11b5b90506000611f308660000151308461348a565b9050600586606001516005811115611f4457fe5b1415611f6b576000611f598661ffff1661134f565b9050611f65818661359c565b50611fb4565b600186606001516005811115611f7d57fe5b1415611f9257611f8d868561360f565b611fb4565b600286606001516005811115611fa457fe5b141561013757611f8d86856136b1565b6000611fc58760000151308561348a565b9050610a8c611cad828461370d565b6000611fde613764565b6001600160a01b038416600090815260208290526040902080549192509061ffff16831561201e57815461ffff1916610100821761ffff1617825561202e565b815461ffff191661feff82161782555b5050505050565b600061203f613764565b6001600160a01b038416600090815260208290526040902080549192509061ffff16831561207e57815461ffff19166001821761ffff1617825561202e565b815461ffff191661fffe91909116179055505050565b6000806110456017612b4a565b6120a9614b79565b6120b282612748565b90506110c1816040015161ffff16613771565b60008060006120dc866040015161ffff1685613787565b905060006121036109806120f3886080015161167d565b6020890151611b62908690611637565b90506000612118886040015161ffff1661133c565b90506121248183613452565b945060048160600151600581111561213857fe5b141561214657849350612173565b6000612159896040015161ffff1661134f565b905061216f6121688585611dc7565b8290611df2565b9450505b505050935093915050565b6000612188613764565b9050600061219584612748565b90506121a760408401602085016150af565b61ffff166121b457600080fd5b604081015161ffff1615806121e357506121d460408401602085016150af565b61ffff16816040015161ffff16145b6121ec57600080fd5b6121fc60c0840160a08501615150565b60ff166064131561220c57600080fd5b600060648061222160c0870160a08801615150565b60ff160302905061223860808501606086016150af565b61ffff168161ffff161061224b57600080fd5b61225d610120850161010086016150af565b61ffff1661227160808601606087016150af565b61ffff161061227f57600080fd5b612291610180850161016086016150af565b61ffff166122a7610120860161010087016150af565b61ffff16106122b557600080fd5b60646122c760e0860160c08701615150565b60ff1613156122d557600080fd5b6122e6610100850160e08601615150565b60ff166122f257600080fd5b6101408201515161ffff1615806123375750612316610140850161012086016150af565b61ffff1682610140015160006002811061232c57fe5b602002015161ffff16145b61234057600080fd5b6101408201516020015161ffff1615806123885750612367610160850161014086016150af565b61ffff1682610140015160016002811061237d57fe5b602002015161ffff16145b61239157600080fd5b6123a3610140850161012086016150af565b61ffff166123b760408601602087016150af565b61ffff1614156123c657600080fd5b6123d8610160850161014086016150af565b61ffff166123ec60408601602087016150af565b61ffff1614156123fb57600080fd5b61240d610140850161012086016150af565b61ffff1615801590612433575061242c610160850161014086016150af565b61ffff1615155b1561246f5761244a610160850161014086016150af565b61ffff16612460610140860161012087016150af565b61ffff16141561246f57600080fd5b600061248d61248460408701602088016150af565b61ffff1661133c565b905060006124ad6124a460408801602089016150af565b61ffff1661134f565b905081602001511580156124c357508060200151155b6124cc57600080fd5b6001600160a01b038716600090815260208690526040902086906124f08282615a89565b505050505050505050565b60008061251189600001518a6040015189612d1f565b89519091506001600160a01b031663dc6679c58961252f84896117bb565b8988886040518663ffffffff1660e01b815260040161255295949392919061533c565b602060405180830381600087803b15801561256c57600080fd5b505af1158015612580573d6000803e3d6000fd5b505050506040513d601f19601f8201168201806040525081019061132f9190615097565b6000806125b3868887876137e4565b905060006125c688878960000151613849565b905060006125e66125da83611b6288611629565b6101608b015190611637565b905060006125f48483613099565b90508161260a576001600160ff1b039450612617565b6126148183613930565b94505b5050509550959350505050565b6000806002600a54141561264a5760405162461bcd60e51b8152600401610344906157f1565b6002600a5561265a8760806110cc565b15612665576001600a555b6000612675886000015188611420565b8851909150600090819061268e908b908a8c8b8b613949565b915091506000821361269f57600080fd5b80156126aa57600080fd5b60808301516126b990836117bb565b608084015260a08301516126cd9089611ed8565b60a084015289516126df9084906117cd565b888a600001516001600160a01b03167fb2f70c3fe73b5aee7e8c59b77222111306f1e4d7170f8fa1c09979bb847eb9d9848b60405161271f9291906153fb565b60405180910390a36127328a848b6120c5565b6001600a55909b909a5098505050505050505050565b612750614b79565b600061275a613764565b6001600160a01b03841660008181526020838152604091829020928652825461ffff8082169288019290925262010000810490911691860191909152919250906127ba9063ffffffff600160201b9091048116906305f5e10090612ab516565b606084015280546127d890600160501b900460ff166207a1206131b3565b608084015280546127fc9068010000000000000000900461ffff16620186a06131b3565b60a0840152805461281b90600160701b900461ffff16620186a06131b3565b61012084015260028101546128379061ffff16620186a06131b3565b610180840152805460649060ff600160581b90910416633b9aca00020560c08401528054600160601b810460ff90811660e0860152600160681b909104166101008401526040805180820191829052906001830190600290826000855b82829054906101000a900461ffff1661ffff168152602001906002019060208260010104928301926001038202915080841161289457905050505050508361014001819052505050919050565b6128e9614c25565b60008060006128f785612ec9565b604080516060810182526001600160a01b039093168352602083019390935260ff16600a0a918101919091529350505050919050565b612935614c4f565b600061293f6139a0565b600084815260208290526040812091925080600186141561296c5750670de0b6b3a7640000905080612a42565b825460408051633fabe5a360e21b815290516001600160a01b039092169163feaf968c9160048082019260a092909190829003018186803b1580156129b057600080fd5b505afa1580156129c4573d6000803e3d6000fd5b505050506040513d601f19601f820116820180604052508101906129e8919061516c565b5091935050600083139150612a1190505760405162461bcd60e51b8152600401610344906157cb565b825460ff600160a01b82048116600a0a9350600160a81b9091041615612a4257612a3f816111b68480612ab5565b90505b6040805160a0810182529283526020830191909152915460ff600160b01b8204811693830193909352600160b81b810483166060830152600160c01b90049091166080820152915050919050565b60006108c282602001516111b684600001518660200151612ab590919063ffffffff16565b818102600019831415612ae557811580612ad7575082828281612ad457fe5b05145b612ae057600080fd5b611045565b821580612afa575081838281612af757fe5b05145b61104557600080fd5b600081600019148015612b195750600160ff1b83145b15612b2357600080fd5b818381612b2c57fe5b059392505050565b60006001600160501b0382111561127057600080fd5b6000620f424082601a811115612b5c57fe5b0192915050565b60008087600001516001600160a01b0316876001600160a01b03161415612b8957600080fd5b8751612b9c908761088f6109808861167d565b506000612ba7611670565b89516001600160a01b0316600090815260209182526040808220898352835280822061ffff8b168352909252208054909150600160f01b900460ff1615612c005760405162461bcd60e51b81526004016103449061576d565b80546001600160501b0380821691600160501b90041681612c2357869350612c34565b612c3182611ca789846131b3565b93505b612c448b8b8b8b611d178961167d565b612c516111ca82866117bb565b83546001600160501b0391909116600160501b02600160501b600160a01b0319909116178355612c846111ca83896117bb565b83546001600160501b0319166001600160501b0391909116178355612cb78b8a8a612cb16109808c61167d565b8a613385565b94508861ffff168a6001600160a01b03168c600001516001600160a01b03167fa119a38e8bbbf2cbe78427cb9e63ef28678b56e3ceecc10bda7c00503ea947398b888c604051611db1939291906159aa565b8181018281121560008312151461104557600080fd5b600081612d2e575060006108c2565b60008213612d3b57600080fd5b6000612d4a8461ffff1661133c565b90506000612d588285613452565b9050600482606001516005811115612d6c57fe5b1415612d9a57612d9361036b610980888861ffff16612d8a86611629565b879291906139ad565b9250612dbe565b612dbb61036b6109808761ffff1689612db286611261565b87929190613a55565b92505b50509392505050565b612dcf614bfe565b6000612dd9613aeb565b6000858152602082815260408083208715158452825291829020825160a08101845281546001600160a01b038116825260ff600160a01b82048116151594830194909452600160b01b81048416600a0a9482019490945293945092916060830191600160a81b909104166005811115612e4e57fe5b81529154600160b81b900468ffffffffffffffffff16602090920191909152949350505050565b6000806110456015612b4a565b6000806000612e8f612f8c565b600095865260209081526040808720958752949052505050902054600160281b81046001600160801b031691600160a81b90910460ff1690565b6000806000806000612eda86613af8565b909250905060006001600160a01b038316612eff5750600090506402540be400612f81565b826001600160a01b0316631ee108336040518163ffffffff1660e01b8152600401602060405180830381600087803b158015612f3a57600080fd5b505af1158015612f4e573d6000803e3d6000fd5b505050506040513d601f19601f82011682018060405250810190612f729190615097565b905060008113612f8157600080fd5b969195509350915050565b6000806110456008612b4a565b6000806000806000612fa9613b2f565b6001600160a01b0388166000908152602082815260408083208a8452909152902080546001600160501b0381169650600160501b900463ffffffff169450909150831561301257805461300b90600160701b900466ffffffffffffff16613b3c565b9250613027565b8054600160701b900466ffffffffffffff1692505b54600160a81b9004600a90810b900b97939650919450925050565b600081121561305057600080fd5b61306560008361ffff16836000806000613b4a565b8161ffff167fd3625f7b5926828151efe19f7ae655488287357d99ebe67e5fb20522ca739c0b82604051610b0b91906153f2565b8082038281131560008312151461104557600080fd5b6000806130bf8761ffff1661134f565b90508060400151600014156130de576130db8761ffff1661133c565b90505b60405163e937711160e01b8152613169906001600160a01b0388169063e9377111906131129089908990899060040161531b565b60206040518083038186803b15801561312a57600080fd5b505afa15801561313e573d6000803e3d6000fd5b505050506040513d601f19601f820116820180604052508101906131629190615097565b8290613c91565b9150505b95945050505050565b6000697fffffffffffffffffff19821280159061319d5750697fffffffffffffffffff8213155b61127057600080fd5b6000806110456019612b4a565b6000826131c257506000611045565b828202828482816131cf57fe5b04146108c257600080fd5b60008082116131e857600080fd5b8183816131f157fe5b049392505050565b6000613203611278565b6001600160a01b038087166000908152602092835260408082208a519093168252919092529020805490915064ffffffffff1683811480613242575080155b61325e5760405162461bcd60e51b815260040161034490615447565b815461014088015151600160281b82046001600160501b0390811692600160781b9004169061ffff888116911614156132d95761329b8286612d09565b91506132a96111ca83611261565b84546001600160501b0391909116600160281b026effffffffffffffffffff000000000019909116178455613333565b6101408901516020015161ffff88811691161415610137576132fb8186612d09565b90506133096111ca82611261565b84546001600160501b0391909116600160781b0269ffffffffffffffffffff60781b199091161784555b8115801561333f575080155b1561335557835464ffffffffff191684556124f0565b826124f05761336386613cc1565b845464ffffffffff191664ffffffffff91909116178455505050505050505050565b6000856040015161ffff168561ffff1614156133a057600080fd5b826133ad5750600061316d565b4284116133ea5760008312156133c257600080fd5b60006133d38661ffff1686426114bb565b90506133e26109808286611637565b91505061316d565b6133fd858585858a610100015142613cd5565b905060008313801561340d575080155b1561342957610160860151613426906109809085611637565b90505b600083121561316d576000811361316d5760405162461bcd60e51b81526004016103449061547e565b60006305f5e1008360400151141561346b575080611045565b6108c26305f5e1006111b6856040015185612ab590919063ffffffff16565b604080516001600160a01b0384811660248084019190915283518084039091018152604490920183526020820180516001600160e01b03166001600160e01b0319861617815292518251600094859485948a16939092909182918083835b602083106135075780518252601f1990920191602091820191016134e8565b6001836020036101000a038019825116818451168082178552505050505050905001915050600060405180830381855afa9150503d8060008114613567576040519150601f19603f3d011682016040523d82523d6000602084013e61356c565b606091505b50915091508161357b57600080fd5b80806020019051602081101561359057600080fd5b50519695505050505050565b6135a4613de4565b54825160405163e8eda9df60e01b81526001600160a01b039092169163e8eda9df916135d991859030906000906004016152c6565b600060405180830381600087803b1580156135f357600080fd5b505af1158015613607573d6000803e3d6000fd5b505050505050565b815160405163140e25ad60e31b81526000916001600160a01b03169063a0712d689061363f9085906004016153f2565b602060405180830381600087803b15801561365957600080fd5b505af115801561366d573d6000803e3d6000fd5b505050506040513d601f19601f820116820180604052508101906136919190615097565b9050801561141b5760405162461bcd60e51b815260040161034490615516565b81600001516001600160a01b0316631249c58b826040518263ffffffff1660e01b81526004016000604051808303818588803b1580156136f057600080fd5b505af1158015613704573d6000803e3d6000fd5b50505050505050565b600082821115611ee7576040805162461bcd60e51b815260206004820152601e60248201527f536166654d6174683a207375627472616374696f6e206f766572666c6f770000604482015290519081900360640190fd5b6000806110456014612b4a565b613779614c25565b60008060006128f785613df1565b61378f614c25565b60008061379c8585612e82565b9150915081600014156137ba576137b285613df1565b919350909150505b6040805160608101825260008152602081019390935260ff909116600a0a90820152905092915050565b6000816137f357506000611668565b6000806138008785613e74565b91509150600061381f8760400151886000015188858c600001516130af565b905061383d61382d8461167d565b610160890151611b629084611637565b98975050505050505050565b600061385484613ecd565b156108c2576000613863611278565b6001600160a01b0380861660009081526020928352604080822089519093168252919092528082209087015190925061389f9061ffff1661292d565b82549091506001600160501b03600160281b8204811691600160781b90041681156138f5576138f26138eb848a61014001516000600281106138dd57fe5b60200201518b518a87613ef6565b8690612d09565b94505b8015613925576139226138eb848a610140015160016002811061391457fe5b60200201518b518a86613ef6565b94505b505050509392505050565b60006108c261394384633b9aca00612ab5565b83612b03565b600080613991886040518060a001604052808a6001600160a01b031681526020018a6001600160a01b0316815260200189815260200188815260200160008152508686613fa7565b90999098509650505050505050565b6000806110456010612b4a565b806005856060015160058111156139c057fe5b14156139e55760006139d18461134f565b90506139e181600001518461421c565b9250505b6000821315613a115760006139fb8686856142a2565b9050856020015115613a0b578091505b50611668565b600385606001516005811115613a2357fe5b1415613a4057613a3b84613a3684611629565b614395565b611668565b84516116689085613a5085611629565b6143cb565b600080600286606001516005811115613a6a57fe5b1415613a8257613a7b868585614442565b9050613adf565b6000613a8d8661134f565b9050600587606001516005811115613aa157fe5b1415613ab957613ab28186866144ff565b9150613add565b600187606001516005811115613acb57fe5b141561013757613ab2878287876145b0565b505b6112b06109808261167d565b6000806110456007612b4a565b6000806000613b056146ae565b600094855260205250506040909120546001600160a01b03811692600160a01b90910460ff169150565b6000806110456006612b4a565b600881901c60ff9091161b90565b6000613b54613b2f565b6001600160a01b0388166000908152602082815260408083208a845290915290209091506a7fffffffffffffffffffff198612801590613b9f57506a7fffffffffffffffffffff8613155b613ba857600080fd5b60008512158015613bc057506001600160501b038513155b613bc957600080fd5b83613c095766ffffffffffffff831115613be257600080fd5b805466ffffffffffffff60701b1916600160701b66ffffffffffffff851602178155613c23565b8054600160501b900463ffffffff168414613c2357600080fd5b8054600a9690960b6affffffffffffffffffffff16600160a81b026001600160a81b036001600160501b039096166001600160501b031963ffffffff909616600160501b0263ffffffff60501b19909816979097179490941695909517939093169190911790925550505050565b60006305f5e10083604001511415613caa575080611045565b60408301516108c2906111b6846305f5e100612ab5565b600064ffffffffff82111561127057600080fd5b600080613ce4888886866146bb565b90506000613cf18761472a565b90506affffffffffffffffffffff8110613d0a57600080fd5b600060788763ffffffff16901b609883901b60f085901b60f860008c13613d32576001613d35565b60005b6005811115613d4057fe5b60ff16901b17171760001b905073__$7ac922d04bd7a1b42c7f6e5f1dd89a70af$__63e50f349e8b836040518363ffffffff1660e01b8152600401613d86929190615996565b60206040518083038186803b158015613d9e57600080fd5b505af4158015613db2573d6000803e3d6000fd5b505050506040513d601f19601f82011682018060405250810190613dd69190615097565b9a9950505050505050505050565b6000806110456013612b4a565b6000806000806000613e0286613af8565b909250905060006001600160a01b038316613e275750600090506402540be400612f81565b826001600160a01b031663b2fffb046040518163ffffffff1660e01b815260040160206040518083038186803b158015613e6057600080fd5b505afa158015612f4e573d6000803e3d6000fd5b600080600084606001511115610c0f57613ea38460600151611ca78660800151866131b390919063ffffffff16565b9150613ec48460600151611ca78660a00151866131b390919063ffffffff16565b90509250929050565b6101408101515160009061ffff1615158061104557505061014001516020015161ffff16151590565b600080613f01611670565b6001600160a01b038616600090815260209182526040808220878352835280822061ffff8a16835290925290812080549092506001600160501b0380821692600160501b9092041690613f5b611cad83611ca789876131b3565b90506000613f6c8a61ffff1661292d565b90506000613f7a8c83612a90565b9050613f97816111b68e6000015186612ab590919063ffffffff16565b9c9b505050505050505050505050565b600080600080613fb68861474b565b915091506000808860800151121561402b57600483606001516005811115613fda57fe5b1415613ff757613ff061036b8960800151611629565b905061402b565b60006140186109808a608001518c6101600151611dc790919063ffffffff16565b905061402761036b8483611df2565b9150505b6040880151600090156141035760006140448430611e2e565b90508a600001516001600160a01b03166344f051088b600001518c602001518d604001518e60600151888f8f6040518863ffffffff1660e01b81526004016140929796959493929190615265565b602060405180830381600087803b1580156140ac57600080fd5b505af11580156140c0573d6000803e3d6000fd5b505050506040513d601f19601f820116820180604052508101906140e49190615097565b955060006140f28530611e2e565b90506140fe8183611ed8565b925050505b8181101561419e5780820360038460600151600581111561412057fe5b141561415e57348111156141465760405162461bcd60e51b81526004016103449061557b565b6141568a60000151823403614395565b82915061419c565b60006141838b600001518d6040015161ffff1661417a8561167d565b889291906139ad565b905061419861419182611261565b84906117bb565b9250505b505b818110156141be5760405162461bcd60e51b81526004016103449061557b565b60006004856060015160058111156141d257fe5b14156141e8576141e18261167d565b9050614202565b81156142025760408b01516141ff90869084611eed565b90505b61420c8582613c91565b9650505050505094509492505050565b60008161422b57506000611045565b6000614236846147a4565b905060006142438461472a565b9050816b019d971e4fe8401e74000001600160ff1b038161426057fe5b0581131561426d57600080fd5b6b033b2e3c9fd0803ce80000006b019d971e4fe8401e7400000083830201056000851361316d5761429d81611629565b6112b0565b60008080806005876060015160058111156142b957fe5b146142cb576370a0823160e01b6142d4565b630ed1279f60e11b5b90508660200151156142f05786516142ed90308361348a565b92505b86516142fd90878761482f565b866020015180614311575060008760800151115b1561432657865161432390308361348a565b91505b6080870151156143615760006143448861433f8561167d565b613c91565b9050614353886080015161167d565b81131561435f57600080fd5b505b86602001511561438257614378611cad838561370d565b93505050506108c2565b6143788561167d565b5050509392505050565b6040516001600160a01b0383169082156108fc029083906000818181858888f1935050505015801561141b573d6000803e3d6000fd5b826001600160a01b031663a9059cbb83836040518363ffffffff1660e01b815260040180836001600160a01b0316815260200182815260200192505050600060405180830381600087803b15801561442257600080fd5b505af1158015614436573d6000803e3d6000fd5b5050505061141b614887565b825160405163db006a7560e01b8152600091479183916001600160a01b03169063db006a75906144769087906004016153f2565b602060405180830381600087803b15801561449057600080fd5b505af11580156144a4573d6000803e3d6000fd5b505050506040513d601f19601f820116820180604052508101906144c89190615097565b905080156144e85760405162461bcd60e51b815260040161034490615534565b476144f3818461370d565b935061438b8685614395565b600061451a61036b85600001516145158561167d565b61421c565b9050614524613de4565b548451604051631a4ca37b60e21b81526001600160a01b03909216916369328dec9161455691859088906004016152a3565b602060405180830381600087803b15801561457057600080fd5b505af1158015614584573d6000803e3d6000fd5b505050506040513d601f19601f820116820180604052508101906145a89190615097565b509392505050565b825160009081906145c990306370a0823160e01b61348a565b9050600086600001516001600160a01b031663db006a75856040518263ffffffff1660e01b81526004016145fd91906153f2565b602060405180830381600087803b15801561461757600080fd5b505af115801561462b573d6000803e3d6000fd5b505050506040513d601f19601f8201168201806040525081019061464f9190615097565b9050801561466f5760405162461bcd60e51b815260040161034490615534565b855160009061468690306370a0823160e01b61348a565b9050614692818461370d565b93506146a3876000015187866143cb565b505050949350505050565b600080611045600f612b4a565b60008060006146cd8761ffff166148f8565b90506146dd8160ff16878661490e565b9093509150848311156147025760405162461bcd60e51b815260040161034490615601565b81156147205760405162461bcd60e51b815260040161034490615601565b5050949350505050565b6000808212156147445761473d82611629565b9050611273565b5080611273565b614753614bfe565b61475b614bfe565b61476c836040015161ffff1661133c565b915060048260600151600581111561478057fe5b1461479b57614796836040015161ffff1661134f565b61479d565b815b9050915091565b60006110456147b1613de4565b5460405163d15e005360e01b81526001600160a01b039091169063d15e0053906147df908690600401615251565b60206040518083038186803b1580156147f757600080fd5b505afa15801561480b573d6000803e3d6000fd5b505050506040513d601f19601f82011682018060405250810190611cad9190615097565b604080516323b872dd60e01b81526001600160a01b038481166004830152306024830152604482018490529151918516916323b872dd9160648082019260009290919082900301818387803b15801561442257600080fd5b6000614891614c7e565b3d80156148a557602081146148ae57600080fd5b600192506148b9565b60206000833e815192505b50816148f4576040805162461bcd60e51b8152602060048201526005602482015264045524332360dc1b604482015290519081900360640190fd5b5050565b600080614904836149d6565b60ff169392505050565b600080600085116149315760405162461bcd60e51b8152600401610344906155ab565b60078511156149525760405162461bcd60e51b8152600401610344906156af565b600061495d846149f3565b905060015b8681116149b557600061497e61497783614a11565b8490614ab5565b90508681141561499657509250600091506149ce9050565b868111156149ac57509250600191506149ce9050565b50600101614962565b5060405162461bcd60e51b815260040161034490615845565b935093915050565b6000806149e1614b0f565b60009384526020525050604090205490565b60006276a700821015614a0557600080fd5b506276a7008106900390565b60008160011415614a2657506276a700611273565b8160021415614a39575062ed4e00611273565b8160031415614a4d57506301da9c00611273565b8160041415614a6157506303b53800611273565b8160051415614a7557506309450c00611273565b8160061415614a89575063128a1800611273565b8160071415614a9d57506325143000611273565b60405162461bcd60e51b8152600401610344906155da565b6000828201838110156108c2576040805162461bcd60e51b815260206004820152601b60248201527f536166654d6174683a206164646974696f6e206f766572666c6f770000000000604482015290519081900360640190fd5b6000806110456009612b4a565b60405180604001604052806002906020820280368337509192915050565b6040518060e001604052806000815260200160008152602001600015158152602001600081526020016000815260200160008152602001600081525090565b604051806101a0016040528060006001600160a01b03168152602001600061ffff168152602001600061ffff16815260200160008152602001600081526020016000815260200160008152602001600081526020016000815260200160008152602001614be4614b1c565b8152602001614bf1614c25565b8152602001600081525090565b6040805160a081018252600080825260208201819052918101829052906060820190614bf1565b604051806060016040528060006001600160a01b0316815260200160008152602001600081525090565b6040518060a0016040528060008152602001600081526020016000815260200160008152602001600081525090565b60405180602001604052806001906020820280368337509192915050565b80356001600160a01b038116811461127357600080fd5b806040810183101561104557600080fd5b60008083601f840112614cd5578182fd5b50813567ffffffffffffffff811115614cec578182fd5b602083019150836020828501011115610c0f57600080fd5b600060208284031215614d15578081fd5b6108c282614c9c565b60008060408385031215614d30578081fd5b614d3983614c9c565b915060208301358015158114614d4d578182fd5b809150509250929050565b60008060008385036101c0811215614d6e578182fd5b614d7785614c9c565b9350610180601f1982011215614d8b578182fd5b506020840191506101a0840135614da181615ca6565b809150509250925092565b60008060408385031215614dbe578182fd5b614dc783614c9c565b91506020830135614d4d81615c72565b600080600060608486031215614deb578283fd5b614df484614c9c565b92506020840135614e0481615c72565b929592945050506040919091013590565b600080600080600080600060c0888a031215614e2f578283fd5b614e3888614c9c565b96506020880135614e4881615c72565b955060408801359450606088013593506080880135614e6681615c85565b925060a088013567ffffffffffffffff811115614e81578283fd5b614e8d8a828b01614cc4565b989b979a50959850939692959293505050565b600080600060608486031215614eb4578283fd5b614ebd84614c9c565b92506020840135614ecd81615c72565b91506040840135614da181615ca6565b60008060408385031215614eef578182fd5b614ef883614c9c565b946020939093013593505050565b60008060008060006101008688031215614f1e578283fd5b614f2786614c9c565b945060208601359350614f3d8760408801614cb3565b9250614f4c8760808801614cb3565b9150614f5b8760c08801614cb3565b90509295509295909350565b60008060408385031215614f79578182fd5b614f8283614c9c565b91506020830135614d4d81615ca6565b60008060008060008060a08789031215614faa578384fd5b614fb387614c9c565b95506020870135614fc381615ca6565b94506040870135935060608701359250608087013567ffffffffffffffff811115614fec578283fd5b614ff889828a01614cc4565b979a9699509497509295939492505050565b60006020828403121561501b578081fd5b815167ffffffffffffffff80821115615032578283fd5b818401915084601f830112615045578283fd5b81518181111561505157fe5b604051601f8201601f19168101602001838111828210171561506f57fe5b604052818152838201602001871015615086578485fd5b6112b0826020830160208701615a36565b6000602082840312156150a8578081fd5b5051919050565b6000602082840312156150c0578081fd5b81356108c281615c72565b6000602082840312156150dc578081fd5b5035919050565b600080600080606085870312156150f8578182fd5b8435935060208501359250604085013567ffffffffffffffff81111561511c578283fd5b61512887828801614cc4565b95989497509550505050565b600060208284031215615145578081fd5b81356108c281615c85565b600060208284031215615161578081fd5b81356108c281615c97565b600080600080600060a08688031215615183578283fd5b855161518e81615ca6565b8095505060208601519350604086015192506060860151915060808601516151b581615ca6565b809150509295509295909350565b6001600160a01b03169052565b8060005b60028110156151f757815161ffff168452602093840193909101906001016151d4565b50505050565b60008284528282602086013780602084860101526020601f19601f85011685010190509392505050565b80516001600160a01b0316825260208082015190830152604090810151910152565b61ffff169052565b6001600160a01b0391909116815260200190565b600060018060a01b03808a16835280891660208401525086604083015285606083015284608083015260c060a083015261132f60c0830184866151fd565b6001600160a01b0393841681526020810192909252909116604082015260600190565b6001600160a01b03948516815260208101939093529216604082015261ffff909116606082015260800190565b600060018060a01b0386168252846020830152606060408301526112b06060830184866151fd565b6001600160a01b039390931683526020830191909152604082015260600190565b600060018060a01b038716825285602083015284604083015260806060830152610a8c6080830184866151fd565b60408101818360005b6002811015615392578151835260209283019290910190600101615373565b50505092915050565b901515815260200190565b91151582526001600160501b0316602082015260400190565b60006020825282518060208401526153de816040850160208701615a36565b601f01601f19169190910160400192915050565b90815260200190565b918252602082015260400190565b93845260208401929092526040830152606082015260800190565b948552602085019390935260408401919091526060830152608082015260a00190565b6020808252601a908201527f496e76616c6964205365636f6e64617279204d61747572697479000000000000604082015260600190565b6020808252600d908201526c109bdc9c9bddc811985a5b1959609a1b604082015260600190565b60208082526011908201527052656465656d20616c6c20746f6b656e7360781b604082015260600190565b60208082526006908201526514185d5cd95960d21b604082015260600190565b6020808252600c908201526b155b985d5d1a1bdc9a5e995960a21b604082015260600190565b602080825260049082015263135a5b9d60e21b604082015260600190565b60208082526006908201526552656465656d60d01b604082015260600190565b6020808252600d908201526c556e7061696420426f72726f7760981b604082015260600190565b602080825260169082015275125b9cdd59999a58da595b9d081c995c185e5b595b9d60521b604082015260600190565b60208082526015908201527410d1ce881b9bc81b585c9ad95d1cc81b1a5cdd1959605a1b604082015260600190565b6020808252600d908201526c092dcecc2d8d2c840d2dcc8caf609b1b604082015260600190565b60208082526010908201526f496e76616c6964204d6174757269747960801b604082015260600190565b6020808252601d908201527f496e73756666696369656e74205365636f6e6461727920426f72726f77000000604082015260600190565b6020808252600d908201526c43616e6e6f7420536574746c6560981b604082015260600190565b6020808252600c908201526b4d617820436170616369747960a01b604082015260600190565b60208082526016908201527510d1ce881b585c9ad95d081a5b99195e08189bdd5b9960521b604082015260600190565b60208082526010908201526f496e76616c69642043757272656e637960801b604082015260600190565b60208082526015908201527410d85b9b9bdd0814995cd95d0814db985c1cda1bdd605a1b604082015260600190565b6020808252818101527f4f776e61626c653a2063616c6c6572206973206e6f7420746865206f776e6572604082015260600190565b6020808252600d908201526c125b8814d95d1d1b195b595b9d609a1b604082015260600190565b60208082526017908201527f496e73756666696369656e7420436f6c6c61746572616c000000000000000000604082015260600190565b6020808252600c908201526b496e76616c6964207261746560a01b604082015260600190565b6020808252600e908201526d1499595b9d1c985b9d0818d85b1b60921b604082015260600190565b602080825260129082015271496e73756666696369656e7420526570617960701b604082015260600190565b60208082526013908201527210d1ce881b9bc81b585c9ad95d08199bdd5b99606a1b604082015260600190565b6000610200820190506158868284516151c3565b60208301516158986020840182615249565b5060408301516158ab6040840182615249565b50606083015160608301526080830151608083015260a083015160a083015260c083015160c083015260e083015160e083015261010080840151818401525061012080840151818401525061014080840151615909828501826151d0565b505061016083015161018061592081850183615227565b808501516101e0850152505092915050565b600060e0820190508251825260208301516020830152604083015115156040830152606083015160608301526080830151608083015260a083015160a083015260c083015160c083015292915050565b6001600160801b0391909116815260200190565b61ffff929092168252602082015260400190565b9283526020830191909152604082015260600190565b6001600160501b0391909116815260200190565b81816000805b60028082106159e95750613607565b84356159f481615c72565b845461ffff6008860281811b801990931693909116901b161784556020949094019390910190601e821115615a2e57600091506001830192505b6001016159da565b60005b83811015615a51578181015183820152602001615a39565b838111156151f75750506000910152565b6000813561104581615c72565b6000813561104581615c85565b6000813561104581615c97565b8135615a9481615c72565b615a9e8183615b6e565b50615ab4615aae60208401615a62565b82615c14565b615ac9615ac360408401615a6f565b82615c30565b615ade615ad860608401615a62565b82615c54565b615af3615aed60808401615a7c565b82615b81565b615b08615b0260a08401615a7c565b82615b9e565b615b1d615b1760c08401615a7c565b82615bbb565b615b32615b2c60e08401615a7c565b82615bd8565b615b48615b426101008401615a62565b82615bf5565b615b596101208301600183016159d4565b6148f4615b696101608401615a62565b600283015b61ffff821661ffff198254161781555050565b805460ff60501b191660509290921b60ff60501b16919091179055565b805460ff60581b191660589290921b60ff60581b16919091179055565b805460ff60601b191660609290921b60ff60601b16919091179055565b805460ff60681b191660689290921b60ff60681b16919091179055565b805461ffff60701b191660709290921b61ffff60701b16919091179055565b805463ffff00008360101b1663ffff0000198216178255505050565b805467ffffffff000000008360201b1667ffffffff00000000198216178255505050565b805461ffff60401b8360401b1661ffff60401b198216178255505050565b61ffff81168114615c8257600080fd5b50565b63ffffffff81168114615c8257600080fd5b60ff81168114615c8257600080fd5b6001600160501b0381168114615c8257600080fdfea2646970667358221220beff533678f52d6b140142d5d966a1f3179d84ed45fae60d43bf48e92125f5bc64736f6c63430007060033",
  "language": "Solidity",
  "natspec": {
    "kind": "dev",
    "methods": {
      "borrowSecondaryCurrencyToVault(address,uint256,uint256[2],uint32[2],uint32[2])": {
        "notice": "Allows a vault to borrow a secondary currency if it is whitelisted to do so",
        "params": {
          "account": "account that is borrowing the secondary currency",
          "fCashToBorrow": "fCash to borrow for the first and second secondary currencies",
          "maturity": "the maturity to borrow at",
          "maxBorrowRate": "maximum borrow rate for the first and second secondary currencies",
          "minRollLendRate": "max roll lend rate for the first and second borrow currencies"
        },
        "returns": {
          "underlyingTokensTransferred": "amount of tokens transferred back to the vault"
        }
      },
      "depositVaultCashToStrategyTokens(uint256,uint256,bytes)": {
        "notice": "Strategy vaults can call this method to deposit asset cash into strategy tokens.",
        "params": {
          "assetCashInternal": "the number of asset cash tokens to deposit (external)",
          "maturity": "the maturity of the vault where the redemption will take place",
          "vaultData": "arbitrary data to pass back to the vault for deposit"
        }
      },
      "getCashRequiredToSettle(address,uint256)": {
        "notice": "View method to get the current amount of cash remaining to settle the vault"
      },
      "getVaultConfig(address)": {
        "notice": "View Methods *"
      },
      "getVaultState(address,uint256)": {
        "notice": "View method to get vault state"
      },
      "initiateSecondaryBorrowSettlement(uint256)": {
        "notice": "MUST be called by vaults that are using secondary borrows to initiate the settlement process. Once settlement process has been initiated, no further secondary borrows may occur in this maturity. Repayments can only occur via the vault itself, individual accounts cannot repay secondary borrows after this occurs. Can only be called by the vault.",
        "params": {
          "maturity": "maturity in which to initiate settlement"
        },
        "returns": {
          "secondaryBorrowSnapshot": "value of fCash in primary currency terms for both secondary borrow currencies"
        }
      },
      "redeemStrategyTokensToCash(uint256,uint256,bytes)": {
        "notice": "Strategy vaults can call this method to redeem strategy tokens to cash and hold them as asset cash within the pool. This should typically be used during settlement but can also be used for vault-wide deleveraging.",
        "params": {
          "maturity": "the maturity of the vault where the redemption will take place",
          "strategyTokensToRedeem": "the number of strategy tokens redeemed",
          "vaultData": "arbitrary data to pass back to the vault"
        },
        "returns": {
          "assetCashRequiredToSettle": "amount of asset cash still remaining to settle the debt",
          "underlyingCashRequiredToSettle": "amount of underlying cash still remaining to settle the debt"
        }
      },
      "reduceMaxBorrowCapacity(address,uint80,uint256,uint256,bytes)": {
        "notice": "Allows the owner to reduce the max borrow capacity on the vault and force the redemption of strategy tokens to cash to reduce the overall risk of the vault. This method is intended to be used in emergencies to mitigate insolvency risk. The effect of this method will mean that the overall max borrow capacity is reduced, the total used capacity will be unchanged (redeemStrategyTokensToCash does not do any lending to reduce the outstanding fCash), and accounts will be locked out of entering the maturity which was targeted by this method. Other maturities for that vault may still be entered depending on whether or not the vault is above or below the max vault borrow capacity.",
        "params": {
          "maturity": "the maturity to redeem tokens in, will generally be either the current maturity or the next maturity.",
          "maxVaultBorrowCapacity": "the new max vault borrow capacity on the primary currency",
          "strategyTokensToRedeem": "how many tokens we would want to redeem in the maturity",
          "vaultAddress": "address of the vault",
          "vaultData": "vault data to pass to the vault"
        }
      },
      "repaySecondaryCurrencyFromVault(address,uint16,uint256,uint256,uint32,bytes)": {
        "notice": "Allows a vault to repay a secondary currency that it has borrowed. Will be executed via a callback which will request that the vault repay a specific amount of underlying tokens.",
        "params": {
          "account": "account that is repaying the secondary currency",
          "currencyId": "currency id of the secondary currency",
          "debtSharesToRepay": "amount of debt shares to repay (used to calculate fCashToLend)",
          "maturity": "the maturity to lend at",
          "minLendRate": "minimum lend rate"
        },
        "returns": {
          "returnData": "arbitrary return data to pass back to the vault"
        }
      },
      "setMaxBorrowCapacity(address,uint80)": {
        "notice": "Allows the owner to reduce the max borrow capacity on the vault",
        "params": {
          "maxVaultBorrowCapacity": "the new max vault borrow capacity on the primary currency",
          "vaultAddress": "address of the vault"
        }
      },
      "setVaultDeleverageStatus(address,bool)": {
        "notice": "Enables or disables deleverage on a vault.",
        "params": {
          "disableDeleverage": "true if the vault deleverage should be disabled",
          "vaultAddress": "address of deployed vault"
        }
      },
      "setVaultPauseStatus(address,bool)": {
        "notice": "Enables or disables a vault. If a vault is disabled, no one can enter the vault but exits are still possible.",
        "params": {
          "enable": "true if the vault should be enabled immediately",
          "vaultAddress": "address of deployed vault"
        }
      },
      "settleVault(address,uint256)": {
        "notice": "Settles a vault and sets the final settlement rates",
        "params": {
          "maturity": "the maturity of the vault",
          "vault": "the vault to settle"
        }
      },
      "updateSecondaryBorrowCapacity(address,uint16,uint80)": {
        "notice": "Whitelists a secondary borrow currency for a vault, vaults can borrow up to the capacity using the `borrowSecondaryCurrencyToVault` and `repaySecondaryCurrencyToVault` methods. Vaults that use a secondary currency must ALWAYS repay the secondary debt during redemption and handle accounting for the secondary currency themselves.",
        "params": {
          "maxBorrowCapacity": "maximum borrow capacity",
          "secondaryCurrencyId": "struct of vault configuration",
          "vaultAddress": "address of deployed vault"
        }
      },
      "updateVault(address,(uint16,uint16,uint32,uint16,uint8,uint8,uint8,uint8,uint16,uint16[2],uint16),uint80)": {
        "notice": "Updates or lists a deployed vault along with its configuration.",
        "params": {
          "maxPrimaryBorrowCapacity": "maximum borrow capacity",
          "vaultAddress": "address of deployed vault",
          "vaultConfig": "struct of vault configuration"
        }
      }
    },
    "version": 1
  },
  "opcodes": "PUSH1 0x80 PUSH1 0x40 MSTORE CALLVALUE DUP1 ISZERO PUSH2 0x10 JUMPI PUSH1 0x0 DUP1 REVERT JUMPDEST POP PUSH1 0x4 CALLDATASIZE LT PUSH2 0x137 JUMPI PUSH1 0x0 CALLDATALOAD PUSH1 0xE0 SHR DUP1 PUSH4 0x6C346C09 GT PUSH2 0xB8 JUMPI DUP1 PUSH4 0xB67138AA GT PUSH2 0x7C JUMPI DUP1 PUSH4 0xB67138AA EQ PUSH2 0x294 JUMPI DUP1 PUSH4 0xC4C96DAE EQ PUSH2 0x2A7 JUMPI DUP1 PUSH4 0xD04C16AC EQ PUSH2 0x2AF JUMPI DUP1 PUSH4 0xD6DDEB9A EQ PUSH2 0x2C2 JUMPI DUP1 PUSH4 0xDE1EB9A3 EQ PUSH2 0x2D5 JUMPI DUP1 PUSH4 0xEE01436B EQ PUSH2 0x2F5 JUMPI PUSH2 0x137 JUMP JUMPDEST DUP1 PUSH4 0x6C346C09 EQ PUSH2 0x23C JUMPI DUP1 PUSH4 0x82463367 EQ PUSH2 0x24F JUMPI DUP1 PUSH4 0x8C9E4465 EQ PUSH2 0x257 JUMPI DUP1 PUSH4 0x8DA5CB5B EQ PUSH2 0x26A JUMPI DUP1 PUSH4 0xA14DB57C EQ PUSH2 0x272 JUMPI PUSH2 0x137 JUMP JUMPDEST DUP1 PUSH4 0x31572281 GT PUSH2 0xFF JUMPI DUP1 PUSH4 0x31572281 EQ PUSH2 0x1B5 JUMPI DUP1 PUSH4 0x50E4F223 EQ PUSH2 0x1D5 JUMPI DUP1 PUSH4 0x54CCEAF7 EQ PUSH2 0x1F5 JUMPI DUP1 PUSH4 0x56F428C4 EQ PUSH2 0x208 JUMPI DUP1 PUSH4 0x67515776 EQ PUSH2 0x21B JUMPI PUSH2 0x137 JUMP JUMPDEST DUP1 PUSH4 0x1AC8852 EQ PUSH2 0x13C JUMPI DUP1 PUSH4 0xBC08CDC EQ PUSH2 0x165 JUMPI DUP1 PUSH4 0x24A3D622 EQ PUSH2 0x178 JUMPI DUP1 PUSH4 0x291AFDF3 EQ PUSH2 0x18D JUMPI DUP1 PUSH4 0x295E6B7F EQ PUSH2 0x1A2 JUMPI JUMPDEST PUSH1 0x0 DUP1 REVERT JUMPDEST PUSH2 0x14F PUSH2 0x14A CALLDATASIZE PUSH1 0x4 PUSH2 0x50CB JUMP JUMPDEST PUSH2 0x308 JUMP JUMPDEST PUSH1 0x40 MLOAD PUSH2 0x15C SWAP2 SWAP1 PUSH2 0x536A JUMP JUMPDEST PUSH1 0x40 MLOAD DUP1 SWAP2 SUB SWAP1 RETURN JUMPDEST PUSH2 0x14F PUSH2 0x173 CALLDATASIZE PUSH1 0x4 PUSH2 0x4F06 JUMP JUMPDEST PUSH2 0x392 JUMP JUMPDEST PUSH2 0x180 PUSH2 0x54A JUMP JUMPDEST PUSH1 0x40 MLOAD PUSH2 0x15C SWAP2 SWAP1 PUSH2 0x5251 JUMP JUMPDEST PUSH2 0x1A0 PUSH2 0x19B CALLDATASIZE PUSH1 0x4 PUSH2 0x4EA0 JUMP JUMPDEST PUSH2 0x559 JUMP JUMPDEST STOP JUMPDEST PUSH2 0x1A0 PUSH2 0x1B0 CALLDATASIZE PUSH1 0x4 PUSH2 0x4EDD JUMP JUMPDEST PUSH2 0x675 JUMP JUMPDEST PUSH2 0x1C8 PUSH2 0x1C3 CALLDATASIZE PUSH1 0x4 PUSH2 0x4EDD JUMP JUMPDEST PUSH2 0x8B0 JUMP JUMPDEST PUSH1 0x40 MLOAD PUSH2 0x15C SWAP2 SWAP1 PUSH2 0x5932 JUMP JUMPDEST PUSH2 0x1E8 PUSH2 0x1E3 CALLDATASIZE PUSH1 0x4 PUSH2 0x4E15 JUMP JUMPDEST PUSH2 0x8C9 JUMP JUMPDEST PUSH1 0x40 MLOAD PUSH2 0x15C SWAP2 SWAP1 PUSH2 0x53BF JUMP JUMPDEST PUSH2 0x1A0 PUSH2 0x203 CALLDATASIZE PUSH1 0x4 PUSH2 0x4D1E JUMP JUMPDEST PUSH2 0xA97 JUMP JUMPDEST PUSH2 0x1A0 PUSH2 0x216 CALLDATASIZE PUSH1 0x4 PUSH2 0x4D1E JUMP JUMPDEST PUSH2 0xB17 JUMP JUMPDEST PUSH2 0x22E PUSH2 0x229 CALLDATASIZE PUSH1 0x4 PUSH2 0x4DAC JUMP JUMPDEST PUSH2 0xB8B JUMP JUMPDEST PUSH1 0x40 MLOAD PUSH2 0x15C SWAP3 SWAP2 SWAP1 PUSH2 0x53FB JUMP JUMPDEST PUSH2 0x22E PUSH2 0x24A CALLDATASIZE PUSH1 0x4 PUSH2 0x4EDD JUMP JUMPDEST PUSH2 0xBDB JUMP JUMPDEST PUSH2 0x180 PUSH2 0xC16 JUMP JUMPDEST PUSH2 0x1A0 PUSH2 0x265 CALLDATASIZE PUSH1 0x4 PUSH2 0x4D58 JUMP JUMPDEST PUSH2 0xC25 JUMP JUMPDEST PUSH2 0x180 PUSH2 0xCDD JUMP JUMPDEST PUSH2 0x285 PUSH2 0x280 CALLDATASIZE PUSH1 0x4 PUSH2 0x4DD7 JUMP JUMPDEST PUSH2 0xCF3 JUMP JUMPDEST PUSH1 0x40 MLOAD PUSH2 0x15C SWAP4 SWAP3 SWAP2 SWAP1 PUSH2 0x59AA JUMP JUMPDEST PUSH2 0x1A0 PUSH2 0x2A2 CALLDATASIZE PUSH1 0x4 PUSH2 0x4F67 JUMP JUMPDEST PUSH2 0xD59 JUMP JUMPDEST PUSH2 0x180 PUSH2 0xDF8 JUMP JUMPDEST PUSH2 0x1A0 PUSH2 0x2BD CALLDATASIZE PUSH1 0x4 PUSH2 0x50E3 JUMP JUMPDEST PUSH2 0xE10 JUMP JUMPDEST PUSH2 0x1A0 PUSH2 0x2D0 CALLDATASIZE PUSH1 0x4 PUSH2 0x4F92 JUMP JUMPDEST PUSH2 0xF82 JUMP JUMPDEST PUSH2 0x2E8 PUSH2 0x2E3 CALLDATASIZE PUSH1 0x4 PUSH2 0x4D04 JUMP JUMPDEST PUSH2 0x1034 JUMP JUMPDEST PUSH1 0x40 MLOAD PUSH2 0x15C SWAP2 SWAP1 PUSH2 0x5872 JUMP JUMPDEST PUSH2 0x22E PUSH2 0x303 CALLDATASIZE PUSH1 0x4 PUSH2 0x50E3 JUMP JUMPDEST PUSH2 0x104B JUMP JUMPDEST PUSH2 0x310 PUSH2 0x4B1C JUMP JUMPDEST PUSH1 0x0 PUSH2 0x31B CALLER PUSH2 0x109D JUMP JUMPDEST SWAP1 POP PUSH2 0x328 DUP2 PUSH1 0x1 PUSH2 0x10CC JUMP JUMPDEST PUSH2 0x34D JUMPI PUSH1 0x40 MLOAD PUSH3 0x461BCD PUSH1 0xE5 SHL DUP2 MSTORE PUSH1 0x4 ADD PUSH2 0x344 SWAP1 PUSH2 0x54D0 JUMP JUMPDEST PUSH1 0x40 MLOAD DUP1 SWAP2 SUB SWAP1 REVERT JUMPDEST PUSH2 0x140 DUP2 ADD MLOAD PUSH2 0x370 SWAP1 PUSH2 0x36B SWAP1 PUSH1 0x0 JUMPDEST PUSH1 0x20 MUL ADD MLOAD DUP4 SWAP1 DUP7 PUSH2 0x10E1 JUMP JUMPDEST PUSH2 0x1261 JUMP JUMPDEST DUP3 MSTORE PUSH2 0x140 DUP2 ADD MLOAD PUSH2 0x387 SWAP1 PUSH2 0x36B SWAP1 PUSH1 0x1 PUSH2 0x35E JUMP JUMPDEST PUSH1 0x20 DUP4 ADD MSTORE POP SWAP2 SWAP1 POP JUMP JUMPDEST PUSH2 0x39A PUSH2 0x4B1C JUMP JUMPDEST PUSH1 0x0 PUSH2 0x3A5 CALLER PUSH2 0x109D JUMP JUMPDEST SWAP1 POP PUSH2 0x3B2 DUP2 PUSH1 0x1 PUSH2 0x10CC JUMP JUMPDEST PUSH2 0x3CE JUMPI PUSH1 0x40 MLOAD PUSH3 0x461BCD PUSH1 0xE5 SHL DUP2 MSTORE PUSH1 0x4 ADD PUSH2 0x344 SWAP1 PUSH2 0x54D0 JUMP JUMPDEST PUSH2 0x140 DUP2 ADD MLOAD DUP1 MLOAD PUSH2 0xFFFF AND ISZERO ISZERO DUP1 PUSH2 0x3EE JUMPI POP PUSH1 0x20 DUP2 ADD MLOAD PUSH2 0xFFFF AND ISZERO ISZERO JUMPDEST PUSH2 0x3F7 JUMPI PUSH1 0x0 DUP1 REVERT JUMPDEST PUSH1 0x0 PUSH2 0x401 PUSH2 0x1278 JUMP JUMPDEST PUSH1 0x1 PUSH1 0x1 PUSH1 0xA0 SHL SUB DUP1 DUP12 AND PUSH1 0x0 SWAP1 DUP2 MSTORE PUSH1 0x20 SWAP3 DUP4 MSTORE PUSH1 0x40 DUP1 DUP3 KECCAK256 DUP8 MLOAD SWAP1 SWAP4 AND DUP3 MSTORE SWAP2 SWAP1 SWAP3 MSTORE SWAP1 KECCAK256 DUP1 SLOAD SWAP1 SWAP2 POP PUSH5 0xFFFFFFFFFF AND PUSH2 0x43C PUSH2 0x4B1C JUMP JUMPDEST DUP2 ISZERO DUP1 ISZERO SWAP1 PUSH2 0x44A JUMPI POP DUP10 DUP3 LT JUMPDEST DUP1 ISZERO PUSH2 0x45C JUMPI POP PUSH2 0x45C DUP6 PUSH1 0x2 PUSH2 0x10CC JUMP JUMPDEST DUP1 ISZERO PUSH2 0x471 JUMPI POP PUSH1 0x1 PUSH1 0x1 PUSH1 0xA0 SHL SUB DUP12 AND CALLER EQ ISZERO JUMPDEST ISZERO PUSH2 0x4E5 JUMPI PUSH2 0x4B3 DUP6 DUP13 DUP7 PUSH1 0x0 PUSH1 0x20 MUL ADD MLOAD DUP7 SLOAD DUP7 SWAP1 PUSH1 0x1 PUSH1 0x28 SHL SWAP1 DIV PUSH1 0x1 PUSH1 0x1 PUSH1 0x50 SHL SUB AND DUP13 PUSH1 0x0 JUMPDEST PUSH1 0x20 MUL ADD PUSH1 0x20 DUP2 ADD SWAP1 PUSH2 0x4AE SWAP2 SWAP1 PUSH2 0x5134 JUMP JUMPDEST PUSH2 0x1285 JUMP JUMPDEST DUP2 MSTORE PUSH1 0x20 DUP5 ADD MLOAD DUP4 SLOAD PUSH2 0x4DF SWAP2 DUP8 SWAP2 DUP15 SWAP2 SWAP1 DUP7 SWAP1 PUSH1 0x1 PUSH1 0x78 SHL SWAP1 DIV PUSH1 0x1 PUSH1 0x1 PUSH1 0x50 SHL SUB AND DUP13 PUSH1 0x1 PUSH2 0x49B JUMP JUMPDEST PUSH1 0x20 DUP3 ADD MSTORE JUMPDEST DUP4 MLOAD DUP2 MLOAD PUSH2 0x512 SWAP2 DUP8 SWAP2 DUP15 SWAP2 SWAP1 DUP15 SWAP1 DUP15 CALLDATALOAD DUP15 PUSH1 0x0 JUMPDEST PUSH1 0x20 MUL ADD PUSH1 0x20 DUP2 ADD SWAP1 PUSH2 0x50D SWAP2 SWAP1 PUSH2 0x5134 JUMP JUMPDEST PUSH2 0x12BA JUMP JUMPDEST DUP7 MSTORE PUSH1 0x20 DUP5 DUP2 ADD MLOAD DUP3 DUP3 ADD MLOAD PUSH2 0x536 SWAP3 DUP9 SWAP3 DUP16 SWAP3 SWAP1 SWAP2 DUP16 SWAP2 SWAP1 DUP16 ADD CALLDATALOAD DUP15 PUSH1 0x1 PUSH2 0x4FA JUMP JUMPDEST PUSH1 0x20 DUP8 ADD MSTORE POP SWAP4 SWAP10 SWAP9 POP POP POP POP POP POP POP POP POP JUMP JUMPDEST PUSH1 0x2 SLOAD PUSH1 0x1 PUSH1 0x1 PUSH1 0xA0 SHL SUB AND DUP2 JUMP JUMPDEST PUSH1 0x0 SLOAD PUSH1 0x1 PUSH1 0x20 SHL SWAP1 DIV PUSH1 0x1 PUSH1 0x1 PUSH1 0xA0 SHL SUB AND CALLER EQ PUSH2 0x58A JUMPI PUSH1 0x40 MLOAD PUSH3 0x461BCD PUSH1 0xE5 SHL DUP2 MSTORE PUSH1 0x4 ADD PUSH2 0x344 SWAP1 PUSH2 0x5738 JUMP JUMPDEST PUSH1 0x0 PUSH2 0x595 DUP5 PUSH2 0x109D JUMP JUMPDEST SWAP1 POP PUSH1 0x0 PUSH2 0x5A6 DUP5 PUSH2 0xFFFF AND PUSH2 0x133C JUMP JUMPDEST SWAP1 POP PUSH1 0x0 PUSH2 0x5B7 DUP6 PUSH2 0xFFFF AND PUSH2 0x134F JUMP JUMPDEST SWAP1 POP DUP2 PUSH1 0x20 ADD MLOAD ISZERO DUP1 ISZERO PUSH2 0x5CD JUMPI POP DUP1 PUSH1 0x20 ADD MLOAD ISZERO JUMPDEST PUSH2 0x5D6 JUMPI PUSH1 0x0 DUP1 REVERT JUMPDEST PUSH2 0x140 DUP4 ADD MLOAD MLOAD PUSH2 0xFFFF DUP7 DUP2 AND SWAP2 AND EQ DUP1 PUSH2 0x600 JUMPI POP PUSH2 0x140 DUP4 ADD MLOAD PUSH1 0x20 ADD MLOAD PUSH2 0xFFFF DUP7 DUP2 AND SWAP2 AND EQ JUMPDEST PUSH2 0x61C JUMPI PUSH1 0x40 MLOAD PUSH3 0x461BCD PUSH1 0xE5 SHL DUP2 MSTORE PUSH1 0x4 ADD PUSH2 0x344 SWAP1 PUSH2 0x56DF JUMP JUMPDEST PUSH2 0x627 DUP7 DUP7 DUP7 PUSH2 0x1362 JUMP JUMPDEST DUP5 PUSH2 0xFFFF AND DUP7 PUSH1 0x1 PUSH1 0x1 PUSH1 0xA0 SHL SUB AND PUSH32 0x8F868F60E49B80B48EE5DE8B7BC703CFC4B5C826A05D3EA1B00CF4159C155A90 DUP7 PUSH1 0x40 MLOAD PUSH2 0x665 SWAP2 SWAP1 PUSH2 0x59C0 JUMP JUMPDEST PUSH1 0x40 MLOAD DUP1 SWAP2 SUB SWAP1 LOG3 POP POP POP POP POP POP JUMP JUMPDEST PUSH1 0x2 PUSH1 0xA SLOAD EQ ISZERO PUSH2 0x698 JUMPI PUSH1 0x40 MLOAD PUSH3 0x461BCD PUSH1 0xE5 SHL DUP2 MSTORE PUSH1 0x4 ADD PUSH2 0x344 SWAP1 PUSH2 0x57F1 JUMP JUMPDEST PUSH1 0x2 PUSH1 0xA SSTORE PUSH1 0x0 PUSH2 0x6A8 DUP4 PUSH2 0x109D JUMP JUMPDEST SWAP1 POP PUSH2 0x6B6 DUP2 CALLER PUSH1 0x40 PUSH2 0x13B6 JUMP JUMPDEST PUSH1 0x0 PUSH2 0x6C2 DUP5 DUP5 PUSH2 0x1420 JUMP JUMPDEST SWAP1 POP TIMESTAMP DUP4 GT ISZERO DUP1 ISZERO PUSH2 0x6D6 JUMPI POP PUSH1 0x40 DUP2 ADD MLOAD ISZERO JUMPDEST PUSH2 0x6F2 JUMPI PUSH1 0x40 MLOAD PUSH3 0x461BCD PUSH1 0xE5 SHL DUP2 MSTORE PUSH1 0x4 ADD PUSH2 0x344 SWAP1 PUSH2 0x5662 JUMP JUMPDEST PUSH1 0x0 PUSH2 0x707 DUP4 PUSH1 0x40 ADD MLOAD PUSH2 0xFFFF AND DUP6 TIMESTAMP PUSH2 0x14BB JUMP JUMPDEST SWAP1 POP PUSH1 0x0 PUSH2 0x725 PUSH2 0x36B PUSH2 0x71E DUP6 PUSH1 0x20 ADD MLOAD PUSH2 0x1629 JUMP JUMPDEST DUP5 SWAP1 PUSH2 0x1637 JUMP JUMPDEST SWAP1 POP PUSH1 0x0 PUSH2 0x731 PUSH2 0x1670 JUMP JUMPDEST PUSH1 0x1 PUSH1 0x1 PUSH1 0xA0 SHL SUB DUP9 AND PUSH1 0x0 SWAP1 DUP2 MSTORE PUSH1 0x20 SWAP2 DUP3 MSTORE PUSH1 0x40 DUP1 DUP3 KECCAK256 DUP10 DUP4 MSTORE SWAP1 SWAP3 MSTORE KECCAK256 PUSH2 0x140 DUP7 ADD MLOAD MLOAD SWAP1 SWAP2 POP PUSH2 0xFFFF AND ISZERO PUSH2 0x7A4 JUMPI PUSH2 0x140 DUP6 ADD MLOAD MLOAD PUSH2 0xFFFF AND PUSH1 0x0 SWAP1 DUP2 MSTORE PUSH1 0x20 DUP3 SWAP1 MSTORE PUSH1 0x40 SWAP1 KECCAK256 SLOAD PUSH1 0x1 PUSH1 0x1 PUSH1 0x50 SHL SUB AND ISZERO PUSH2 0x7A4 JUMPI PUSH1 0x40 MLOAD PUSH3 0x461BCD PUSH1 0xE5 SHL DUP2 MSTORE PUSH1 0x4 ADD PUSH2 0x344 SWAP1 PUSH2 0x5554 JUMP JUMPDEST PUSH2 0x140 DUP6 ADD MLOAD PUSH1 0x20 ADD MLOAD PUSH2 0xFFFF AND ISZERO PUSH2 0x7FB JUMPI PUSH2 0x140 DUP6 ADD MLOAD PUSH1 0x20 SWAP1 DUP2 ADD MLOAD PUSH2 0xFFFF AND PUSH1 0x0 SWAP1 DUP2 MSTORE SWAP1 DUP3 SWAP1 MSTORE PUSH1 0x40 SWAP1 KECCAK256 SLOAD PUSH1 0x1 PUSH1 0x1 PUSH1 0x50 SHL SUB AND ISZERO PUSH2 0x7FB JUMPI PUSH1 0x40 MLOAD PUSH3 0x461BCD PUSH1 0xE5 SHL DUP2 MSTORE PUSH1 0x4 ADD PUSH2 0x344 SWAP1 PUSH2 0x5554 JUMP JUMPDEST DUP2 DUP5 PUSH1 0x80 ADD MLOAD LT ISZERO PUSH2 0x879 JUMPI PUSH1 0xA0 DUP5 ADD MLOAD ISZERO PUSH2 0x829 JUMPI PUSH1 0x40 MLOAD PUSH3 0x461BCD PUSH1 0xE5 SHL DUP2 MSTORE PUSH1 0x4 ADD PUSH2 0x344 SWAP1 PUSH2 0x54A5 JUMP JUMPDEST PUSH1 0x0 PUSH2 0x83A DUP6 PUSH1 0x80 ADD MLOAD DUP5 SUB PUSH2 0x167D JUMP JUMPDEST SWAP1 POP PUSH1 0x0 PUSH2 0x855 PUSH2 0x36B DUP9 PUSH1 0x0 ADD MLOAD DUP10 PUSH1 0x40 ADD MLOAD DUP6 DUP13 PUSH2 0x1693 JUMP JUMPDEST PUSH1 0x80 DUP8 ADD MLOAD SWAP1 SWAP2 POP PUSH2 0x867 SWAP1 DUP3 PUSH2 0x17BB JUMP JUMPDEST PUSH1 0x80 DUP8 ADD MSTORE PUSH2 0x876 DUP7 DUP11 PUSH2 0x17CD JUMP JUMPDEST POP POP JUMPDEST PUSH2 0x894 DUP8 DUP7 PUSH1 0x40 ADD MLOAD PUSH2 0x88F DUP8 PUSH1 0x20 ADD MLOAD PUSH2 0x1629 JUMP JUMPDEST PUSH2 0x1937 JUMP JUMPDEST POP PUSH2 0x8A2 DUP5 DUP7 DUP6 DUP10 TIMESTAMP PUSH2 0x1A3D JUMP JUMPDEST POP POP PUSH1 0x1 PUSH1 0xA SSTORE POP POP POP POP POP JUMP JUMPDEST PUSH2 0x8B8 PUSH2 0x4B3A JUMP JUMPDEST PUSH2 0x8C2 DUP4 DUP4 PUSH2 0x1420 JUMP JUMPDEST SWAP4 SWAP3 POP POP POP JUMP JUMPDEST PUSH1 0x60 DUP5 PUSH2 0x8D5 JUMPI PUSH2 0xA8C JUMP JUMPDEST PUSH1 0x0 PUSH2 0x8E0 CALLER PUSH2 0x109D JUMP JUMPDEST SWAP1 POP PUSH2 0x8ED DUP2 PUSH1 0x1 PUSH2 0x10CC JUMP JUMPDEST PUSH2 0x909 JUMPI PUSH1 0x40 MLOAD PUSH3 0x461BCD PUSH1 0xE5 SHL DUP2 MSTORE PUSH1 0x4 ADD PUSH2 0x344 SWAP1 PUSH2 0x54D0 JUMP JUMPDEST PUSH1 0x0 PUSH2 0x919 DUP3 DUP12 DUP12 DUP12 DUP12 DUP12 PUSH2 0x1C03 JUMP JUMPDEST POP SWAP1 POP PUSH1 0x0 PUSH2 0x92B DUP11 PUSH2 0xFFFF AND PUSH2 0x133C JUMP JUMPDEST SWAP1 POP PUSH1 0x0 DUP1 PUSH1 0x4 DUP4 PUSH1 0x60 ADD MLOAD PUSH1 0x5 DUP2 GT ISZERO PUSH2 0x942 JUMPI INVALID JUMPDEST EQ PUSH2 0x959 JUMPI PUSH2 0x954 DUP13 PUSH2 0xFFFF AND PUSH2 0x134F JUMP JUMPDEST PUSH2 0x95B JUMP JUMPDEST DUP3 JUMPDEST SWAP1 POP PUSH1 0x0 PUSH2 0x98C PUSH2 0x36B PUSH2 0x985 PUSH2 0x980 DUP9 DUP11 PUSH2 0x160 ADD MLOAD PUSH2 0x1DC7 SWAP1 SWAP2 SWAP1 PUSH4 0xFFFFFFFF AND JUMP JUMPDEST PUSH2 0x1629 JUMP JUMPDEST DUP5 SWAP1 PUSH2 0x1DF2 JUMP JUMPDEST SWAP1 POP PUSH1 0x0 PUSH2 0x99A DUP4 ADDRESS PUSH2 0x1E2E JUMP JUMPDEST DUP4 MLOAD PUSH1 0x40 MLOAD PUSH4 0x7EFBE0E7 PUSH1 0xE1 SHL DUP2 MSTORE SWAP2 SWAP3 POP CALLER SWAP2 PUSH4 0xFDF7C1CE SWAP2 PUSH2 0x9C6 SWAP2 DUP7 SWAP1 DUP16 SWAP1 DUP16 SWAP1 PUSH1 0x4 ADD PUSH2 0x52F3 JUMP JUMPDEST PUSH1 0x0 PUSH1 0x40 MLOAD DUP1 DUP4 SUB DUP2 PUSH1 0x0 DUP8 DUP1 EXTCODESIZE ISZERO DUP1 ISZERO PUSH2 0x9E0 JUMPI PUSH1 0x0 DUP1 REVERT JUMPDEST POP GAS CALL ISZERO DUP1 ISZERO PUSH2 0x9F4 JUMPI RETURNDATASIZE PUSH1 0x0 DUP1 RETURNDATACOPY RETURNDATASIZE PUSH1 0x0 REVERT JUMPDEST POP POP POP POP PUSH1 0x40 MLOAD RETURNDATASIZE PUSH1 0x0 DUP3 RETURNDATACOPY PUSH1 0x1F RETURNDATASIZE SWAP1 DUP2 ADD PUSH1 0x1F NOT AND DUP3 ADD PUSH1 0x40 MSTORE PUSH2 0xA1C SWAP2 SWAP1 DUP2 ADD SWAP1 PUSH2 0x500A JUMP JUMPDEST SWAP8 POP PUSH1 0x0 PUSH2 0xA2A DUP5 ADDRESS PUSH2 0x1E2E JUMP JUMPDEST SWAP1 POP PUSH2 0xA36 DUP2 DUP4 PUSH2 0x1ED8 JUMP JUMPDEST SWAP5 POP DUP3 DUP6 LT ISZERO PUSH2 0xA58 JUMPI PUSH1 0x40 MLOAD PUSH3 0x461BCD PUSH1 0xE5 SHL DUP2 MSTORE PUSH1 0x4 ADD PUSH2 0x344 SWAP1 PUSH2 0x5819 JUMP JUMPDEST POP PUSH1 0x4 SWAP3 POP PUSH2 0xA65 SWAP2 POP POP JUMP JUMPDEST DUP3 PUSH1 0x60 ADD MLOAD PUSH1 0x5 DUP2 GT ISZERO PUSH2 0xA75 JUMPI INVALID JUMPDEST EQ PUSH2 0xA87 JUMPI PUSH2 0xA85 DUP3 DUP13 DUP4 PUSH2 0x1EED JUMP JUMPDEST POP JUMPDEST POP POP POP POP JUMPDEST SWAP8 SWAP7 POP POP POP POP POP POP POP JUMP JUMPDEST PUSH1 0x0 SLOAD PUSH1 0x1 PUSH1 0x20 SHL SWAP1 DIV PUSH1 0x1 PUSH1 0x1 PUSH1 0xA0 SHL SUB AND CALLER EQ PUSH2 0xAC8 JUMPI PUSH1 0x40 MLOAD PUSH3 0x461BCD PUSH1 0xE5 SHL DUP2 MSTORE PUSH1 0x4 ADD PUSH2 0x344 SWAP1 PUSH2 0x5738 JUMP JUMPDEST PUSH2 0xAD2 DUP3 DUP3 PUSH2 0x1FD4 JUMP JUMPDEST DUP2 PUSH1 0x1 PUSH1 0x1 PUSH1 0xA0 SHL SUB AND PUSH32 0x9066B2F4AD4552447BD5DDEAE159FF6B5A28A4EEC9421DA5A9D502DEB99974E1 DUP3 PUSH1 0x40 MLOAD PUSH2 0xB0B SWAP2 SWAP1 PUSH2 0x539B JUMP JUMPDEST PUSH1 0x40 MLOAD DUP1 SWAP2 SUB SWAP1 LOG2 POP POP JUMP JUMPDEST PUSH1 0x0 SLOAD PUSH1 0x1 PUSH1 0x20 SHL SWAP1 DIV PUSH1 0x1 PUSH1 0x1 PUSH1 0xA0 SHL SUB AND CALLER EQ PUSH2 0xB48 JUMPI PUSH1 0x40 MLOAD PUSH3 0x461BCD PUSH1 0xE5 SHL DUP2 MSTORE PUSH1 0x4 ADD PUSH2 0x344 SWAP1 PUSH2 0x5738 JUMP JUMPDEST PUSH2 0xB52 DUP3 DUP3 PUSH2 0x2035 JUMP JUMPDEST DUP2 PUSH1 0x1 PUSH1 0x1 PUSH1 0xA0 SHL SUB AND PUSH32 0x7C51C6AA77346C54CB051D9E792F9B7BDE5C28A9B57E6FB2D2DD727B38438CA9 DUP3 PUSH1 0x40 MLOAD PUSH2 0xB0B SWAP2 SWAP1 PUSH2 0x539B JUMP JUMPDEST PUSH1 0x0 DUP1 PUSH1 0x0 PUSH2 0xB98 PUSH2 0x2094 JUMP JUMPDEST PUSH1 0x1 PUSH1 0x1 PUSH1 0xA0 SHL SUB SWAP1 SWAP6 AND PUSH1 0x0 SWAP1 DUP2 MSTORE PUSH1 0x20 SWAP6 DUP7 MSTORE PUSH1 0x40 DUP1 DUP3 KECCAK256 PUSH2 0xFFFF SWAP1 SWAP7 AND DUP3 MSTORE SWAP5 SWAP1 SWAP6 MSTORE POP POP POP SWAP1 KECCAK256 SLOAD PUSH1 0x1 PUSH1 0x1 PUSH1 0x50 SHL SUB PUSH1 0x1 PUSH1 0x50 SHL DUP3 DIV DUP2 AND SWAP3 SWAP2 AND SWAP1 JUMP JUMPDEST PUSH1 0x0 DUP1 PUSH1 0x0 PUSH2 0xBE9 DUP6 PUSH2 0x20A1 JUMP JUMPDEST SWAP1 POP PUSH1 0x0 PUSH2 0xBFB DUP3 PUSH1 0x0 ADD MLOAD DUP7 PUSH2 0x1420 JUMP JUMPDEST SWAP1 POP PUSH2 0xC08 DUP3 DUP3 DUP8 PUSH2 0x20C5 JUMP JUMPDEST SWAP4 POP SWAP4 POP POP POP JUMPDEST SWAP3 POP SWAP3 SWAP1 POP JUMP JUMPDEST PUSH1 0x1 SLOAD PUSH1 0x1 PUSH1 0x1 PUSH1 0xA0 SHL SUB AND DUP2 JUMP JUMPDEST PUSH1 0x0 SLOAD PUSH1 0x1 PUSH1 0x20 SHL SWAP1 DIV PUSH1 0x1 PUSH1 0x1 PUSH1 0xA0 SHL SUB AND CALLER EQ PUSH2 0xC56 JUMPI PUSH1 0x40 MLOAD PUSH3 0x461BCD PUSH1 0xE5 SHL DUP2 MSTORE PUSH1 0x4 ADD PUSH2 0x344 SWAP1 PUSH2 0x5738 JUMP JUMPDEST PUSH2 0xC60 DUP4 DUP4 PUSH2 0x217E JUMP JUMPDEST PUSH2 0xC7A DUP4 PUSH2 0xC74 PUSH1 0x40 DUP6 ADD PUSH1 0x20 DUP7 ADD PUSH2 0x50AF JUMP JUMPDEST DUP4 PUSH2 0x1362 JUMP JUMPDEST PUSH1 0x0 PUSH1 0x1 DUP1 PUSH2 0xC8C PUSH1 0x20 DUP7 ADD DUP7 PUSH2 0x50AF JUMP JUMPDEST AND PUSH2 0xFFFF AND EQ SWAP1 POP DUP4 PUSH1 0x1 PUSH1 0x1 PUSH1 0xA0 SHL SUB AND PUSH32 0xB441D7CA09ABC712B4504256717707CE40E8D43895266B46ABF9CD58619C07DC DUP3 DUP5 PUSH1 0x40 MLOAD PUSH2 0xCCF SWAP3 SWAP2 SWAP1 PUSH2 0x53A6 JUMP JUMPDEST PUSH1 0x40 MLOAD DUP1 SWAP2 SUB SWAP1 LOG2 POP POP POP POP JUMP JUMPDEST PUSH1 0x0 SLOAD PUSH1 0x1 PUSH1 0x20 SHL SWAP1 DIV PUSH1 0x1 PUSH1 0x1 PUSH1 0xA0 SHL SUB AND DUP2 JUMP JUMPDEST PUSH1 0x0 DUP1 PUSH1 0x0 DUP1 PUSH2 0xD01 PUSH2 0x1670 JUMP JUMPDEST PUSH1 0x1 PUSH1 0x1 PUSH1 0xA0 SHL SUB SWAP1 SWAP8 AND PUSH1 0x0 SWAP1 DUP2 MSTORE PUSH1 0x20 SWAP8 DUP9 MSTORE PUSH1 0x40 DUP1 DUP3 KECCAK256 SWAP7 DUP3 MSTORE SWAP6 DUP9 MSTORE DUP6 DUP2 KECCAK256 PUSH2 0xFFFF SWAP1 SWAP8 AND DUP2 MSTORE SWAP6 SWAP1 SWAP7 MSTORE POP POP POP SWAP1 KECCAK256 SLOAD PUSH1 0x1 PUSH1 0x1 PUSH1 0x50 SHL SUB DUP1 DUP3 AND SWAP4 PUSH1 0x1 PUSH1 0x50 SHL DUP4 DIV DUP3 AND SWAP4 POP PUSH1 0x1 PUSH1 0xA0 SHL SWAP1 SWAP3 DIV AND SWAP1 JUMP JUMPDEST PUSH1 0x0 SLOAD PUSH1 0x1 PUSH1 0x20 SHL SWAP1 DIV PUSH1 0x1 PUSH1 0x1 PUSH1 0xA0 SHL SUB AND CALLER EQ PUSH2 0xD8A JUMPI PUSH1 0x40 MLOAD PUSH3 0x461BCD PUSH1 0xE5 SHL DUP2 MSTORE PUSH1 0x4 ADD PUSH2 0x344 SWAP1 PUSH2 0x5738 JUMP JUMPDEST PUSH1 0x0 PUSH2 0xD95 DUP4 PUSH2 0x109D JUMP JUMPDEST SWAP1 POP PUSH2 0xDA6 DUP4 DUP3 PUSH1 0x40 ADD MLOAD DUP5 PUSH2 0x1362 JUMP JUMPDEST PUSH1 0x1 PUSH1 0x1 PUSH1 0xA0 SHL SUB DUP4 AND PUSH32 0xB441D7CA09ABC712B4504256717707CE40E8D43895266B46ABF9CD58619C07DC PUSH2 0xDDC DUP4 PUSH1 0x1 PUSH2 0x10CC JUMP JUMPDEST DUP5 PUSH1 0x40 MLOAD PUSH2 0xDEB SWAP3 SWAP2 SWAP1 PUSH2 0x53A6 JUMP JUMPDEST PUSH1 0x40 MLOAD DUP1 SWAP2 SUB SWAP1 LOG2 POP POP POP JUMP JUMPDEST PUSH20 0x0 SWAP1 JUMP JUMPDEST PUSH1 0x2 PUSH1 0xA SLOAD EQ ISZERO PUSH2 0xE33 JUMPI PUSH1 0x40 MLOAD PUSH3 0x461BCD PUSH1 0xE5 SHL DUP2 MSTORE PUSH1 0x4 ADD PUSH2 0x344 SWAP1 PUSH2 0x57F1 JUMP JUMPDEST PUSH1 0x2 PUSH1 0xA SSTORE PUSH1 0x0 PUSH2 0xE43 CALLER PUSH2 0x109D JUMP JUMPDEST SWAP1 POP PUSH2 0xE50 DUP2 PUSH1 0x1 PUSH2 0x10CC JUMP JUMPDEST PUSH2 0xE6C JUMPI PUSH1 0x40 MLOAD PUSH3 0x461BCD PUSH1 0xE5 SHL DUP2 MSTORE PUSH1 0x4 ADD PUSH2 0x344 SWAP1 PUSH2 0x54D0 JUMP JUMPDEST PUSH2 0xE77 DUP2 PUSH1 0x80 PUSH2 0x10CC JUMP JUMPDEST ISZERO PUSH2 0xE82 JUMPI PUSH1 0x1 PUSH1 0xA SSTORE JUMPDEST PUSH1 0x0 PUSH2 0xE8E CALLER DUP8 PUSH2 0x1420 JUMP JUMPDEST SWAP1 POP PUSH1 0x0 PUSH2 0xEB0 DUP4 PUSH1 0x0 ADD MLOAD PUSH2 0xEA3 DUP9 PUSH2 0x167D JUMP JUMPDEST DUP6 SWAP2 SWAP1 DUP11 PUSH1 0x0 DUP11 DUP11 PUSH2 0x24FB JUMP JUMPDEST PUSH1 0x80 DUP4 ADD MLOAD SWAP1 SWAP2 POP PUSH2 0xEC2 SWAP1 DUP8 PUSH2 0x1ED8 JUMP JUMPDEST PUSH1 0x80 DUP4 ADD MSTORE PUSH1 0xA0 DUP3 ADD MLOAD PUSH2 0xED6 SWAP1 DUP3 PUSH2 0x17BB JUMP JUMPDEST PUSH1 0xA0 DUP4 ADD MSTORE PUSH2 0xEE5 DUP3 CALLER PUSH2 0x17CD JUMP JUMPDEST PUSH1 0x0 PUSH2 0xF08 DUP4 CALLER DUP6 PUSH1 0x60 ADD MLOAD DUP7 PUSH1 0x20 ADD MLOAD DUP9 PUSH2 0x25A4 SWAP1 SWAP5 SWAP4 SWAP3 SWAP2 SWAP1 PUSH4 0xFFFFFFFF AND JUMP JUMPDEST POP SWAP1 POP DUP1 DUP5 PUSH1 0xA0 ADD MLOAD SGT ISZERO PUSH2 0xF2F JUMPI PUSH1 0x40 MLOAD PUSH3 0x461BCD PUSH1 0xE5 SHL DUP2 MSTORE PUSH1 0x4 ADD PUSH2 0x344 SWAP1 PUSH2 0x5794 JUMP JUMPDEST DUP8 CALLER PUSH1 0x1 PUSH1 0x1 PUSH1 0xA0 SHL SUB AND PUSH32 0xBBA43506B1F3723ADD796BF603ADDE56BC018392A95775B9F76C31213B4161BB DUP10 DUP6 PUSH1 0x40 MLOAD PUSH2 0xF6B SWAP3 SWAP2 SWAP1 PUSH2 0x53FB JUMP JUMPDEST PUSH1 0x40 MLOAD DUP1 SWAP2 SUB SWAP1 LOG3 POP POP PUSH1 0x1 PUSH1 0xA SSTORE POP POP POP POP POP POP JUMP JUMPDEST PUSH1 0x0 SLOAD PUSH1 0x1 PUSH1 0x20 SHL SWAP1 DIV PUSH1 0x1 PUSH1 0x1 PUSH1 0xA0 SHL SUB AND CALLER EQ PUSH2 0xFB3 JUMPI PUSH1 0x40 MLOAD PUSH3 0x461BCD PUSH1 0xE5 SHL DUP2 MSTORE PUSH1 0x4 ADD PUSH2 0x344 SWAP1 PUSH2 0x5738 JUMP JUMPDEST PUSH1 0x0 PUSH2 0xFBE DUP8 PUSH2 0x109D JUMP JUMPDEST SWAP1 POP PUSH2 0xFCF DUP8 DUP3 PUSH1 0x40 ADD MLOAD DUP9 PUSH2 0x1362 JUMP JUMPDEST PUSH2 0xFDC DUP2 DUP7 DUP7 DUP7 DUP7 PUSH2 0x2624 JUMP JUMPDEST POP POP PUSH1 0x1 PUSH1 0x1 PUSH1 0xA0 SHL SUB DUP8 AND PUSH32 0xB441D7CA09ABC712B4504256717707CE40E8D43895266B46ABF9CD58619C07DC PUSH2 0x1014 DUP4 PUSH1 0x1 PUSH2 0x10CC JUMP JUMPDEST DUP9 PUSH1 0x40 MLOAD PUSH2 0x1023 SWAP3 SWAP2 SWAP1 PUSH2 0x53A6 JUMP JUMPDEST PUSH1 0x40 MLOAD DUP1 SWAP2 SUB SWAP1 LOG2 POP POP POP POP POP POP POP JUMP JUMPDEST PUSH2 0x103C PUSH2 0x4B79 JUMP JUMPDEST PUSH2 0x1045 DUP3 PUSH2 0x20A1 JUMP JUMPDEST SWAP3 SWAP2 POP POP JUMP JUMPDEST PUSH1 0x0 DUP1 PUSH1 0x0 PUSH2 0x1059 CALLER PUSH2 0x109D JUMP JUMPDEST SWAP1 POP PUSH2 0x1066 DUP2 PUSH1 0x1 PUSH2 0x10CC JUMP JUMPDEST PUSH2 0x1082 JUMPI PUSH1 0x40 MLOAD PUSH3 0x461BCD PUSH1 0xE5 SHL DUP2 MSTORE PUSH1 0x4 ADD PUSH2 0x344 SWAP1 PUSH2 0x54D0 JUMP JUMPDEST PUSH2 0x108F DUP2 DUP9 DUP9 DUP9 DUP9 PUSH2 0x2624 JUMP JUMPDEST SWAP3 POP SWAP3 POP POP SWAP5 POP SWAP5 SWAP3 POP POP POP JUMP JUMPDEST PUSH2 0x10A5 PUSH2 0x4B79 JUMP JUMPDEST PUSH2 0x10AE DUP3 PUSH2 0x2748 JUMP JUMPDEST SWAP1 POP PUSH2 0x10C1 DUP2 PUSH1 0x40 ADD MLOAD PUSH2 0xFFFF AND PUSH2 0x28E1 JUMP JUMPDEST PUSH2 0x160 DUP3 ADD MSTORE SWAP2 SWAP1 POP JUMP JUMPDEST PUSH1 0x20 SWAP2 SWAP1 SWAP2 ADD MLOAD DUP2 AND PUSH2 0xFFFF SWAP1 DUP2 AND SWAP2 AND EQ SWAP1 JUMP JUMPDEST PUSH1 0x0 PUSH2 0xFFFF DUP4 AND PUSH2 0x10F4 JUMPI POP PUSH1 0x0 PUSH2 0x8C2 JUMP JUMPDEST PUSH1 0x0 PUSH2 0x10FE PUSH2 0x1670 JUMP JUMPDEST DUP6 MLOAD PUSH1 0x1 PUSH1 0x1 PUSH1 0xA0 SHL SUB AND PUSH1 0x0 SWAP1 DUP2 MSTORE PUSH1 0x20 SWAP2 DUP3 MSTORE PUSH1 0x40 DUP1 DUP3 KECCAK256 DUP7 DUP4 MSTORE DUP4 MSTORE DUP1 DUP3 KECCAK256 PUSH2 0xFFFF DUP9 AND DUP4 MSTORE SWAP1 SWAP3 MSTORE KECCAK256 DUP1 SLOAD SWAP1 SWAP2 POP PUSH1 0x1 PUSH1 0xF0 SHL SWAP1 DIV PUSH1 0xFF AND ISZERO PUSH2 0x1157 JUMPI PUSH1 0x40 MLOAD PUSH3 0x461BCD PUSH1 0xE5 SHL DUP2 MSTORE PUSH1 0x4 ADD PUSH2 0x344 SWAP1 PUSH2 0x5709 JUMP JUMPDEST DUP1 SLOAD PUSH1 0x40 DUP7 ADD MLOAD PUSH1 0x1 PUSH1 0x1 PUSH1 0x50 SHL SUB SWAP1 SWAP2 AND SWAP1 PUSH1 0x0 SWAP1 PUSH2 0x117A SWAP1 PUSH2 0xFFFF AND PUSH2 0x292D JUMP JUMPDEST SWAP1 POP PUSH1 0x0 PUSH2 0x118B DUP8 PUSH2 0xFFFF AND PUSH2 0x292D JUMP JUMPDEST SWAP1 POP PUSH1 0x0 PUSH2 0x1199 DUP4 DUP4 PUSH2 0x2A90 JUMP JUMPDEST SWAP1 POP PUSH2 0x11BC DUP2 PUSH2 0x11B6 DUP6 PUSH1 0x0 ADD MLOAD DUP8 PUSH2 0x2AB5 SWAP1 SWAP2 SWAP1 PUSH4 0xFFFFFFFF AND JUMP JUMPDEST SWAP1 PUSH2 0x2B03 JUMP JUMPDEST SWAP6 POP PUSH2 0x11CF PUSH2 0x11CA DUP8 PUSH2 0x1261 JUMP JUMPDEST PUSH2 0x2B34 JUMP JUMPDEST DUP6 SLOAD PUSH1 0xFF PUSH1 0xF0 SHL NOT PUSH1 0x1 PUSH1 0x1 PUSH1 0x50 SHL SUB SWAP3 SWAP1 SWAP3 AND PUSH1 0x1 PUSH1 0xA0 SHL MUL PUSH10 0xFFFFFFFFFFFFFFFFFFFF PUSH1 0xA0 SHL NOT SWAP1 SWAP2 AND OR AND PUSH1 0x1 PUSH1 0xF0 SHL OR DUP6 SSTORE DUP9 MLOAD PUSH1 0x40 MLOAD DUP9 SWAP2 PUSH2 0xFFFF DUP12 AND SWAP2 PUSH1 0x1 PUSH1 0x1 PUSH1 0xA0 SHL SUB SWAP1 SWAP2 AND SWAP1 PUSH32 0x744B6E0D7DB0666A7C17A4868D11D5F7F909A7B04D458B5EACE97646BA7A0EE8 SWAP1 PUSH2 0x124D SWAP1 DUP12 SWAP1 DUP8 SWAP1 PUSH2 0x53FB JUMP JUMPDEST PUSH1 0x40 MLOAD DUP1 SWAP2 SUB SWAP1 LOG4 POP POP POP POP POP SWAP4 SWAP3 POP POP POP JUMP JUMPDEST PUSH1 0x0 DUP1 DUP3 SLT ISZERO PUSH2 0x1270 JUMPI PUSH1 0x0 DUP1 REVERT JUMPDEST POP DUP1 JUMPDEST SWAP2 SWAP1 POP JUMP JUMPDEST PUSH1 0x0 DUP1 PUSH2 0x1045 PUSH1 0x1A PUSH2 0x2B4A JUMP JUMPDEST PUSH1 0x0 PUSH2 0xFFFF DUP6 AND ISZERO DUP1 ISZERO SWAP1 PUSH2 0x1299 JUMPI POP DUP3 ISZERO ISZERO JUMPDEST ISZERO PUSH2 0x12B0 JUMPI PUSH2 0x12AC DUP8 DUP8 DUP8 DUP8 DUP8 DUP8 PUSH2 0x1C03 JUMP JUMPDEST POP SWAP1 POP JUMPDEST SWAP7 SWAP6 POP POP POP POP POP POP JUMP JUMPDEST PUSH1 0x0 PUSH2 0xFFFF DUP7 AND ISZERO DUP1 PUSH2 0x12CB JUMPI POP DUP3 ISZERO JUMPDEST DUP1 ISZERO PUSH2 0x12D5 JUMPI POP DUP4 ISZERO JUMPDEST ISZERO PUSH2 0x12E2 JUMPI POP PUSH1 0x0 PUSH2 0xA8C JUMP JUMPDEST PUSH1 0x0 PUSH2 0x12F2 DUP10 DUP10 DUP10 DUP10 DUP9 DUP9 PUSH2 0x2B63 JUMP JUMPDEST POP SWAP1 POP PUSH2 0x12FF DUP2 DUP7 PUSH2 0x2D09 JUMP JUMPDEST SWAP1 POP PUSH1 0x0 DUP2 SLT ISZERO PUSH2 0x1322 JUMPI PUSH1 0x40 MLOAD PUSH3 0x461BCD PUSH1 0xE5 SHL DUP2 MSTORE PUSH1 0x4 ADD PUSH2 0x344 SWAP1 PUSH2 0x562B JUMP JUMPDEST DUP9 MLOAD PUSH2 0x132F SWAP1 DUP9 DUP4 PUSH2 0x2D1F JUMP JUMPDEST SWAP10 SWAP9 POP POP POP POP POP POP POP POP POP JUMP JUMPDEST PUSH2 0x1344 PUSH2 0x4BFE JUMP JUMPDEST PUSH2 0x1045 DUP3 PUSH1 0x0 PUSH2 0x2DC7 JUMP JUMPDEST PUSH2 0x1357 PUSH2 0x4BFE JUMP JUMPDEST PUSH2 0x1045 DUP3 PUSH1 0x1 PUSH2 0x2DC7 JUMP JUMPDEST PUSH1 0x0 PUSH2 0x136C PUSH2 0x2094 JUMP JUMPDEST PUSH1 0x1 PUSH1 0x1 PUSH1 0xA0 SHL SUB SWAP1 SWAP5 AND PUSH1 0x0 SWAP1 DUP2 MSTORE PUSH1 0x20 SWAP5 DUP6 MSTORE PUSH1 0x40 DUP1 DUP3 KECCAK256 PUSH2 0xFFFF SWAP1 SWAP6 AND DUP3 MSTORE SWAP4 SWAP1 SWAP5 MSTORE POP SWAP2 KECCAK256 DUP1 SLOAD PUSH1 0x1 PUSH1 0x1 PUSH1 0x50 SHL SUB SWAP1 SWAP3 AND PUSH1 0x1 PUSH1 0x1 PUSH1 0x50 SHL SUB NOT SWAP1 SWAP3 AND SWAP2 SWAP1 SWAP2 OR SWAP1 SSTORE JUMP JUMPDEST PUSH2 0x13C0 DUP4 DUP3 PUSH2 0x10CC JUMP JUMPDEST ISZERO PUSH2 0x13F3 JUMPI DUP3 MLOAD PUSH1 0x1 PUSH1 0x1 PUSH1 0xA0 SHL SUB AND CALLER EQ PUSH2 0x13EE JUMPI PUSH1 0x40 MLOAD PUSH3 0x461BCD PUSH1 0xE5 SHL DUP2 MSTORE PUSH1 0x4 ADD PUSH2 0x344 SWAP1 PUSH2 0x54F0 JUMP JUMPDEST PUSH2 0x141B JUMP JUMPDEST PUSH1 0x1 PUSH1 0x1 PUSH1 0xA0 SHL SUB DUP3 AND CALLER EQ PUSH2 0x141B JUMPI PUSH1 0x40 MLOAD PUSH3 0x461BCD PUSH1 0xE5 SHL DUP2 MSTORE PUSH1 0x4 ADD PUSH2 0x344 SWAP1 PUSH2 0x54F0 JUMP JUMPDEST POP POP POP JUMP JUMPDEST PUSH2 0x1428 PUSH2 0x4B3A JUMP JUMPDEST PUSH1 0x0 PUSH2 0x1432 PUSH2 0x2E75 JUMP JUMPDEST PUSH1 0x1 PUSH1 0x1 PUSH1 0xA0 SHL SUB SWAP1 SWAP5 AND PUSH1 0x0 SWAP1 DUP2 MSTORE PUSH1 0x20 SWAP5 DUP6 MSTORE PUSH1 0x40 DUP1 DUP3 KECCAK256 DUP6 DUP4 MSTORE DUP7 MSTORE DUP1 DUP3 KECCAK256 SWAP5 DUP5 MSTORE DUP5 SLOAD PUSH1 0x1 PUSH1 0x1 PUSH1 0x50 SHL SUB DUP1 DUP3 AND SWAP1 SWAP4 SUB SWAP7 DUP6 ADD SWAP7 SWAP1 SWAP7 MSTORE PUSH1 0xFF PUSH1 0x1 PUSH1 0xF0 SHL DUP8 DIV AND ISZERO ISZERO SWAP1 DUP5 ADD MSTORE PUSH1 0x1 PUSH1 0x50 SHL DUP1 DUP7 DIV DUP3 AND PUSH1 0x80 DUP6 ADD MSTORE PUSH1 0x1 SWAP1 SWAP5 ADD SLOAD DUP1 DUP3 AND PUSH1 0xA0 DUP6 ADD MSTORE PUSH1 0x1 PUSH1 0xA0 SHL SWAP1 SWAP6 DIV AND PUSH1 0x60 DUP4 ADD MSTORE POP SWAP2 DIV PUSH1 0x9 SWAP1 DUP2 SIGNEXTEND SWAP1 SIGNEXTEND PUSH1 0xC0 DUP3 ADD MSTORE SWAP1 JUMP JUMPDEST PUSH2 0x14C3 PUSH2 0x4C25 JUMP JUMPDEST PUSH1 0x0 DUP1 PUSH2 0x14D0 DUP7 DUP7 PUSH2 0x2E82 JUMP JUMPDEST SWAP2 POP SWAP2 POP DUP2 PUSH1 0x0 EQ ISZERO PUSH2 0x15FE JUMPI PUSH1 0x0 PUSH2 0x14E8 DUP8 PUSH2 0x2EC9 JUMP JUMPDEST SWAP2 SWAP5 POP SWAP1 SWAP3 POP SWAP1 POP PUSH1 0x1 PUSH1 0x1 PUSH1 0xA0 SHL SUB DUP2 AND ISZERO PUSH2 0x15FC JUMPI PUSH1 0x0 PUSH2 0x1509 PUSH2 0x2F8C JUMP JUMPDEST SWAP1 POP DUP6 PUSH1 0x0 LT DUP1 ISZERO PUSH2 0x151B JUMPI POP DUP6 DUP8 GT ISZERO JUMPDEST DUP1 ISZERO PUSH2 0x152C JUMPI POP PUSH5 0xFFFFFFFFFF DUP7 GT ISZERO JUMPDEST PUSH2 0x1535 JUMPI PUSH1 0x0 DUP1 REVERT JUMPDEST DUP4 PUSH1 0x0 SLT DUP1 ISZERO PUSH2 0x154C JUMPI POP PUSH1 0x1 PUSH1 0x1 PUSH1 0x80 SHL SUB DUP5 SGT ISZERO JUMPDEST PUSH2 0x1555 JUMPI PUSH1 0x0 DUP1 REVERT JUMPDEST PUSH1 0x0 DUP9 DUP2 MSTORE PUSH1 0x20 DUP3 DUP2 MSTORE PUSH1 0x40 DUP1 DUP4 KECCAK256 DUP11 DUP5 MSTORE SWAP1 SWAP2 MSTORE SWAP1 DUP2 SWAP1 KECCAK256 DUP1 SLOAD PUSH5 0xFFFFFFFFFF NOT AND PUSH5 0xFFFFFFFFFF DUP10 AND OR PUSH21 0xFFFFFFFFFFFFFFFFFFFFFFFFFFFFFFFF0000000000 NOT AND PUSH1 0x1 PUSH1 0x28 SHL PUSH1 0x1 PUSH1 0x1 PUSH1 0x80 SHL SUB DUP9 AND MUL OR PUSH1 0xFF PUSH1 0xA8 SHL NOT AND PUSH1 0x1 PUSH1 0xA8 SHL PUSH1 0xFF DUP8 AND MUL OR DUP2 SSTORE SWAP1 MLOAD DUP9 SWAP1 DUP11 SWAP1 PUSH32 0xFDFA6885701E2F1F42E4187B9231CF81C1FE23671EF64FA46F34DDB56C1DC18 SWAP1 PUSH2 0x15F1 SWAP1 DUP10 SWAP1 PUSH2 0x5982 JUMP JUMPDEST PUSH1 0x40 MLOAD DUP1 SWAP2 SUB SWAP1 LOG3 POP POP JUMPDEST POP JUMPDEST PUSH1 0x40 DUP1 MLOAD PUSH1 0x60 DUP2 ADD DUP3 MSTORE PUSH1 0x0 DUP2 MSTORE PUSH1 0x20 DUP2 ADD SWAP4 SWAP1 SWAP4 MSTORE PUSH1 0xFF SWAP1 SWAP2 AND PUSH1 0xA EXP SWAP1 DUP3 ADD MSTORE SWAP1 POP SWAP4 SWAP3 POP POP POP JUMP JUMPDEST PUSH1 0x0 PUSH2 0x1045 PUSH1 0x0 NOT DUP4 PUSH2 0x2AB5 JUMP JUMPDEST PUSH1 0x0 DUP1 PUSH2 0x1668 DUP5 PUSH1 0x20 ADD MLOAD PUSH2 0x11B6 DUP7 PUSH1 0x40 ADD MLOAD PUSH2 0x1662 PUSH5 0x2540BE400 DUP9 PUSH2 0x2AB5 SWAP1 SWAP2 SWAP1 PUSH4 0xFFFFFFFF AND JUMP JUMPDEST SWAP1 PUSH2 0x2AB5 JUMP JUMPDEST SWAP5 SWAP4 POP POP POP POP JUMP JUMPDEST PUSH1 0x0 DUP1 PUSH2 0x1045 PUSH1 0x18 PUSH2 0x2B4A JUMP JUMPDEST PUSH1 0x0 PUSH1 0x1 PUSH1 0x1 PUSH1 0xFF SHL SUB DUP3 GT ISZERO PUSH2 0x1270 JUMPI PUSH1 0x0 DUP1 REVERT JUMPDEST PUSH1 0x0 PUSH2 0x16A0 DUP6 PUSH1 0x0 PUSH2 0x2035 JUMP JUMPDEST DUP5 PUSH1 0x1 PUSH1 0x1 PUSH1 0xA0 SHL SUB AND PUSH32 0x7C51C6AA77346C54CB051D9E792F9B7BDE5C28A9B57E6FB2D2DD727B38438CA9 PUSH1 0x0 PUSH1 0x40 MLOAD PUSH2 0x16DA SWAP2 SWAP1 PUSH2 0x539B JUMP JUMPDEST PUSH1 0x40 MLOAD DUP1 SWAP2 SUB SWAP1 LOG2 DUP2 DUP5 PUSH2 0xFFFF AND DUP7 PUSH1 0x1 PUSH1 0x1 PUSH1 0xA0 SHL SUB AND PUSH32 0x823B641D46550301006F807A26587634F15BD13749EFDC8859734377D5304A3B DUP7 PUSH1 0x40 MLOAD PUSH2 0x1721 SWAP2 SWAP1 PUSH2 0x53F2 JUMP JUMPDEST PUSH1 0x40 MLOAD DUP1 SWAP2 SUB SWAP1 LOG4 PUSH1 0x0 PUSH2 0x173A PUSH1 0x0 DUP7 PUSH2 0xFFFF AND PUSH2 0x2F99 JUMP JUMPDEST POP POP POP SWAP1 POP DUP1 DUP5 SGT PUSH2 0x175A JUMPI PUSH2 0x1752 DUP6 DUP6 DUP4 SUB PUSH2 0x3042 JUMP JUMPDEST DUP4 SWAP2 POP PUSH2 0x17B2 JUMP JUMPDEST PUSH2 0x1765 DUP6 PUSH1 0x0 PUSH2 0x3042 JUMP JUMPDEST DUP3 DUP6 PUSH2 0xFFFF AND DUP8 PUSH1 0x1 PUSH1 0x1 PUSH1 0xA0 SHL SUB AND PUSH32 0x3A717B6924E3AD05B8C7609A2401472AF90869B52CC3C9CA69B50100B4BE6316 DUP5 DUP9 SUB PUSH1 0x40 MLOAD PUSH2 0x17A6 SWAP2 SWAP1 PUSH2 0x53F2 JUMP JUMPDEST PUSH1 0x40 MLOAD DUP1 SWAP2 SUB SWAP1 LOG4 DUP1 SWAP2 POP JUMPDEST POP SWAP5 SWAP4 POP POP POP POP JUMP JUMPDEST PUSH1 0x0 DUP3 DUP3 ADD DUP4 DUP2 LT ISZERO PUSH2 0x8C2 JUMPI PUSH1 0x0 DUP1 REVERT JUMPDEST PUSH1 0x0 PUSH2 0x17D7 PUSH2 0x2E75 JUMP JUMPDEST PUSH1 0x1 PUSH1 0x1 PUSH1 0xA0 SHL SUB DUP4 AND PUSH1 0x0 SWAP1 DUP2 MSTORE PUSH1 0x20 DUP3 DUP2 MSTORE PUSH1 0x40 DUP1 DUP4 KECCAK256 DUP8 MLOAD DUP5 MSTORE SWAP1 SWAP2 MSTORE SWAP1 DUP2 SWAP1 KECCAK256 SWAP1 DUP6 ADD MLOAD SWAP2 SWAP3 POP SWAP1 ISZERO PUSH2 0x180D JUMPI PUSH1 0x0 DUP1 REVERT JUMPDEST PUSH2 0x1820 PUSH2 0x11CA PUSH2 0x36B DUP7 PUSH1 0x20 ADD MLOAD PUSH2 0x1629 JUMP JUMPDEST DUP2 SLOAD PUSH1 0x1 PUSH1 0x1 PUSH1 0x50 SHL SUB NOT AND PUSH1 0x1 PUSH1 0x1 PUSH1 0x50 SHL SUB SWAP2 SWAP1 SWAP2 AND OR DUP2 SSTORE PUSH1 0x80 DUP5 ADD MLOAD PUSH2 0x1849 SWAP1 PUSH2 0x2B34 JUMP JUMPDEST DUP2 SLOAD PUSH1 0x1 PUSH1 0x1 PUSH1 0x50 SHL SUB SWAP2 SWAP1 SWAP2 AND PUSH1 0x1 PUSH1 0x50 SHL MUL PUSH1 0x1 PUSH1 0x50 SHL PUSH1 0x1 PUSH1 0xA0 SHL SUB NOT SWAP1 SWAP2 AND OR DUP2 SSTORE PUSH1 0xA0 DUP5 ADD MLOAD PUSH2 0x187D SWAP1 PUSH2 0x2B34 JUMP JUMPDEST PUSH1 0x1 DUP3 ADD DUP1 SLOAD PUSH1 0x1 PUSH1 0x1 PUSH1 0x50 SHL SUB NOT AND PUSH1 0x1 PUSH1 0x1 PUSH1 0x50 SHL SUB SWAP3 SWAP1 SWAP3 AND SWAP2 SWAP1 SWAP2 OR SWAP1 SSTORE PUSH1 0x60 DUP5 ADD MLOAD PUSH2 0x18AD SWAP1 PUSH2 0x2B34 JUMP JUMPDEST DUP2 SLOAD PUSH1 0x1 PUSH1 0x1 PUSH1 0x50 SHL SUB SWAP2 SWAP1 SWAP2 AND PUSH1 0x1 PUSH1 0xA0 SHL MUL PUSH10 0xFFFFFFFFFFFFFFFFFFFF PUSH1 0xA0 SHL NOT SWAP1 SWAP2 AND OR DUP2 SSTORE DUP4 MLOAD PUSH1 0x20 DUP6 ADD MLOAD PUSH1 0x80 DUP7 ADD MLOAD PUSH1 0xA0 DUP8 ADD MLOAD PUSH1 0x60 DUP9 ADD MLOAD PUSH1 0x40 MLOAD PUSH1 0x1 PUSH1 0x1 PUSH1 0xA0 SHL SUB DUP10 AND SWAP5 PUSH32 0x3A0FDAECF7B5DA75A56077F5B1C8FBC88F9B08E9D0C4DB31EB34E25BC6700CDE SWAP5 PUSH2 0x1929 SWAP5 SWAP2 SWAP4 SWAP1 SWAP3 PUSH2 0x5409 JUMP JUMPDEST PUSH1 0x40 MLOAD DUP1 SWAP2 SUB SWAP1 LOG3 POP POP POP POP JUMP JUMPDEST PUSH1 0x0 DUP1 PUSH2 0x1942 PUSH2 0x2094 JUMP JUMPDEST PUSH1 0x1 PUSH1 0x1 PUSH1 0xA0 SHL SUB DUP7 AND PUSH1 0x0 SWAP1 DUP2 MSTORE PUSH1 0x20 SWAP2 DUP3 MSTORE PUSH1 0x40 DUP1 DUP3 KECCAK256 PUSH2 0xFFFF DUP9 AND DUP4 MSTORE SWAP1 SWAP3 MSTORE KECCAK256 DUP1 SLOAD SWAP1 SWAP2 POP PUSH2 0x1985 SWAP1 PUSH1 0x1 PUSH1 0x50 SHL SWAP1 DIV PUSH1 0x1 PUSH1 0x1 PUSH1 0x50 SHL SUB AND DUP5 PUSH2 0x3099 JUMP JUMPDEST SWAP2 POP PUSH1 0x0 DUP4 SLT ISZERO PUSH2 0x19BA JUMPI DUP1 SLOAD PUSH1 0x1 PUSH1 0x1 PUSH1 0x50 SHL SUB AND DUP3 SGT ISZERO PUSH2 0x19BA JUMPI PUSH1 0x40 MLOAD PUSH3 0x461BCD PUSH1 0xE5 SHL DUP2 MSTORE PUSH1 0x4 ADD PUSH2 0x344 SWAP1 PUSH2 0x5689 JUMP JUMPDEST PUSH2 0x19C6 PUSH2 0x11CA DUP4 PUSH2 0x1261 JUMP JUMPDEST DUP2 SLOAD PUSH1 0x1 PUSH1 0x1 PUSH1 0x50 SHL SUB SWAP2 SWAP1 SWAP2 AND PUSH1 0x1 PUSH1 0x50 SHL MUL PUSH1 0x1 PUSH1 0x50 SHL PUSH1 0x1 PUSH1 0xA0 SHL SUB NOT SWAP1 SWAP2 AND OR DUP2 SSTORE PUSH1 0x40 MLOAD PUSH2 0xFFFF DUP6 AND SWAP1 PUSH1 0x1 PUSH1 0x1 PUSH1 0xA0 SHL SUB DUP8 AND SWAP1 PUSH32 0x20478EF460E49D010960D4F3FFF35D8DAE385443ABFAC09035D6A2CCBCD834C4 SWAP1 PUSH2 0x1A2D SWAP1 DUP7 SWAP1 PUSH2 0x53F2 JUMP JUMPDEST PUSH1 0x40 MLOAD DUP1 SWAP2 SUB SWAP1 LOG3 POP SWAP4 SWAP3 POP POP POP JUMP JUMPDEST PUSH1 0x0 PUSH2 0x1A47 PUSH2 0x2E75 JUMP JUMPDEST DUP6 MLOAD PUSH1 0x1 PUSH1 0x1 PUSH1 0xA0 SHL SUB AND PUSH1 0x0 SWAP1 DUP2 MSTORE PUSH1 0x20 DUP3 DUP2 MSTORE PUSH1 0x40 DUP1 DUP4 KECCAK256 DUP8 DUP5 MSTORE SWAP1 SWAP2 MSTORE SWAP1 KECCAK256 DUP1 SLOAD SWAP2 SWAP3 POP SWAP1 PUSH1 0x1 PUSH1 0xF0 SHL SWAP1 DIV PUSH1 0xFF AND ISZERO PUSH2 0x1A83 JUMPI PUSH1 0x0 DUP1 REVERT JUMPDEST DUP3 DUP5 GT ISZERO PUSH2 0x1A90 JUMPI PUSH1 0x0 DUP1 REVERT JUMPDEST PUSH1 0x40 DUP7 ADD MLOAD DUP7 MLOAD PUSH1 0x0 SWAP2 PUSH2 0x1AAA SWAP2 DUP1 PUSH4 0x5F5E100 DUP10 PUSH2 0x30AF JUMP JUMPDEST DUP3 SLOAD PUSH1 0xFF PUSH1 0xF0 SHL NOT AND PUSH1 0x1 PUSH1 0xF0 SHL OR DUP4 SSTORE SWAP1 POP PUSH2 0x1AC6 DUP2 PUSH2 0x3176 JUMP JUMPDEST DUP3 PUSH1 0x1 ADD PUSH1 0xA PUSH2 0x100 EXP DUP2 SLOAD DUP2 PUSH1 0x1 PUSH1 0x1 PUSH1 0x50 SHL SUB MUL NOT AND SWAP1 DUP4 PUSH1 0x9 SIGNEXTEND PUSH1 0x1 PUSH1 0x1 PUSH1 0x50 SHL SUB AND MUL OR SWAP1 SSTORE POP PUSH1 0x0 PUSH2 0x1AFB PUSH2 0x31A6 JUMP JUMPDEST DUP9 MLOAD PUSH1 0x1 PUSH1 0x1 PUSH1 0xA0 SHL SUB AND PUSH1 0x0 SWAP1 DUP2 MSTORE PUSH1 0x20 SWAP2 DUP3 MSTORE PUSH1 0x40 DUP1 DUP3 KECCAK256 DUP10 DUP4 MSTORE DUP4 MSTORE SWAP1 KECCAK256 PUSH1 0x1 DUP6 ADD SLOAD DUP2 SLOAD PUSH1 0x1 PUSH1 0x1 PUSH1 0x50 SHL SUB NOT AND PUSH1 0x1 PUSH1 0x1 PUSH1 0x50 SHL SUB SWAP1 SWAP2 AND OR DUP2 SSTORE SWAP1 DUP11 ADD MLOAD SWAP1 SWAP2 POP PUSH2 0x1B6D SWAP1 PUSH2 0x1B68 SWAP1 PUSH2 0x1B55 SWAP1 DUP11 SWAP1 PUSH2 0x1637 JUMP JUMPDEST PUSH2 0x1B62 DUP13 PUSH1 0x80 ADD MLOAD PUSH2 0x167D JUMP JUMPDEST SWAP1 PUSH2 0x2D09 JUMP JUMPDEST PUSH2 0x3176 JUMP JUMPDEST DUP2 SLOAD PUSH1 0x9 SWAP2 SWAP1 SWAP2 SIGNEXTEND PUSH1 0x1 PUSH1 0x1 PUSH1 0x50 SHL SUB AND PUSH1 0x1 PUSH1 0x50 SHL MUL PUSH1 0x1 PUSH1 0x50 SHL PUSH1 0x1 PUSH1 0xA0 SHL SUB NOT SWAP1 SWAP2 AND OR DUP2 SSTORE DUP9 MLOAD DUP9 MLOAD PUSH1 0x20 DUP12 ADD MLOAD PUSH1 0x80 DUP13 ADD MLOAD PUSH1 0xA0 DUP14 ADD MLOAD PUSH1 0x60 DUP15 ADD MLOAD PUSH1 0x40 MLOAD PUSH1 0x1 PUSH1 0x1 PUSH1 0xA0 SHL SUB SWAP1 SWAP6 AND SWAP5 PUSH32 0xE66A863186DBA5A66D19D3D91A66B76A7CBFDEFD0D8C29C662274B13FEBB166E SWAP5 PUSH2 0x1BF0 SWAP5 SWAP1 SWAP4 SWAP1 SWAP3 SWAP1 SWAP2 DUP11 SWAP1 PUSH2 0x5424 JUMP JUMPDEST PUSH1 0x40 MLOAD DUP1 SWAP2 SUB SWAP1 LOG3 POP POP POP POP POP POP POP POP POP JUMP JUMPDEST PUSH1 0x0 DUP1 PUSH1 0x0 PUSH2 0x1C10 PUSH2 0x1670 JUMP JUMPDEST DUP10 MLOAD PUSH1 0x1 PUSH1 0x1 PUSH1 0xA0 SHL SUB AND PUSH1 0x0 SWAP1 DUP2 MSTORE PUSH1 0x20 SWAP2 DUP3 MSTORE PUSH1 0x40 DUP1 DUP3 KECCAK256 DUP10 DUP4 MSTORE DUP4 MSTORE DUP1 DUP3 KECCAK256 PUSH2 0xFFFF DUP12 AND DUP4 MSTORE SWAP1 SWAP3 MSTORE KECCAK256 DUP1 SLOAD SWAP1 SWAP2 POP PUSH1 0x1 PUSH1 0xF0 SHL SWAP1 DIV PUSH1 0xFF AND ISZERO DUP1 PUSH2 0x1C64 JUMPI POP DUP9 MLOAD PUSH1 0x1 PUSH1 0x1 PUSH1 0xA0 SHL SUB DUP10 DUP2 AND SWAP2 AND EQ JUMPDEST PUSH2 0x1C80 JUMPI PUSH1 0x40 MLOAD PUSH3 0x461BCD PUSH1 0xE5 SHL DUP2 MSTORE PUSH1 0x4 ADD PUSH2 0x344 SWAP1 PUSH2 0x576D JUMP JUMPDEST DUP1 SLOAD PUSH1 0x1 PUSH1 0x1 PUSH1 0x50 SHL SUB DUP1 DUP3 AND SWAP2 PUSH1 0x1 PUSH1 0x50 SHL SWAP1 DIV AND PUSH2 0x1CB2 PUSH2 0x1CAD DUP3 PUSH2 0x1CA7 DUP11 DUP7 PUSH2 0x31B3 JUMP JUMPDEST SWAP1 PUSH2 0x31DA JUMP JUMPDEST PUSH2 0x167D JUMP JUMPDEST SWAP4 POP DUP11 PUSH1 0x0 ADD MLOAD PUSH1 0x1 PUSH1 0x1 PUSH1 0xA0 SHL SUB AND DUP11 PUSH1 0x1 PUSH1 0x1 PUSH1 0xA0 SHL SUB AND EQ PUSH2 0x1D1C JUMPI PUSH2 0x1CDE PUSH2 0x11CA DUP3 DUP10 PUSH2 0x1ED8 JUMP JUMPDEST DUP4 SLOAD PUSH1 0x1 PUSH1 0x1 PUSH1 0x50 SHL SUB SWAP2 SWAP1 SWAP2 AND PUSH1 0x1 PUSH1 0x50 SHL MUL PUSH1 0x1 PUSH1 0x50 SHL PUSH1 0x1 PUSH1 0xA0 SHL SUB NOT SWAP1 SWAP2 AND OR DUP4 SSTORE PUSH2 0x1D1C DUP12 DUP12 DUP12 DUP12 PUSH2 0x1D17 PUSH2 0x980 DUP14 PUSH2 0x167D JUMP JUMPDEST PUSH2 0x31F9 JUMP JUMPDEST DUP11 MLOAD PUSH2 0x1D29 SWAP1 DUP11 DUP7 PUSH2 0x1937 JUMP JUMPDEST POP PUSH2 0x1D37 PUSH2 0x11CA DUP4 DUP7 PUSH2 0x1ED8 JUMP JUMPDEST DUP4 SLOAD PUSH1 0x1 PUSH1 0x1 PUSH1 0x50 SHL SUB NOT AND PUSH1 0x1 PUSH1 0x1 PUSH1 0x50 SHL SUB SWAP2 SWAP1 SWAP2 AND OR DUP4 SSTORE PUSH2 0x1D5F DUP12 DUP11 DUP11 DUP8 DUP11 PUSH2 0x3385 JUMP JUMPDEST SWAP5 POP DUP9 PUSH2 0xFFFF AND DUP11 PUSH1 0x1 PUSH1 0x1 PUSH1 0xA0 SHL SUB AND DUP13 PUSH1 0x0 ADD MLOAD PUSH1 0x1 PUSH1 0x1 PUSH1 0xA0 SHL SUB AND PUSH32 0x38DB3B2568CA34833805148705B1440A4F80962CE663BA509811ABC652DE434A DUP12 DUP12 DUP10 PUSH1 0x40 MLOAD PUSH2 0x1DB1 SWAP4 SWAP3 SWAP2 SWAP1 PUSH2 0x59AA JUMP JUMPDEST PUSH1 0x40 MLOAD DUP1 SWAP2 SUB SWAP1 LOG4 POP POP POP SWAP7 POP SWAP7 SWAP5 POP POP POP POP POP JUMP JUMPDEST PUSH1 0x0 DUP1 PUSH2 0x1668 DUP5 PUSH1 0x40 ADD MLOAD PUSH2 0x11B6 PUSH5 0x2540BE400 PUSH2 0x11B6 DUP8 DUP10 PUSH1 0x20 ADD MLOAD PUSH2 0x2AB5 SWAP1 SWAP2 SWAP1 PUSH4 0xFFFFFFFF AND JUMP JUMPDEST PUSH1 0x0 PUSH4 0x5F5E100 DUP4 PUSH1 0x40 ADD MLOAD SLT ISZERO PUSH2 0x1E1A JUMPI PUSH2 0x1E13 PUSH1 0x1 PUSH2 0x1B62 DUP6 DUP6 PUSH2 0x3452 JUMP JUMPDEST SWAP1 POP PUSH2 0x1045 JUMP JUMPDEST PUSH2 0x8C2 DUP4 PUSH2 0x1E29 DUP5 PUSH1 0x1 PUSH2 0x2D09 JUMP JUMPDEST PUSH2 0x3452 JUMP JUMPDEST PUSH1 0x0 PUSH1 0x3 DUP4 PUSH1 0x60 ADD MLOAD PUSH1 0x5 DUP2 GT ISZERO PUSH2 0x1E42 JUMPI INVALID JUMPDEST EQ ISZERO PUSH2 0x1E59 JUMPI POP PUSH1 0x1 PUSH1 0x1 PUSH1 0xA0 SHL SUB DUP2 AND BALANCE PUSH2 0x1045 JUMP JUMPDEST DUP3 MLOAD PUSH1 0x40 MLOAD PUSH4 0x70A08231 PUSH1 0xE0 SHL DUP2 MSTORE PUSH1 0x1 PUSH1 0x1 PUSH1 0xA0 SHL SUB SWAP1 SWAP2 AND SWAP1 PUSH4 0x70A08231 SWAP1 PUSH2 0x1E88 SWAP1 DUP6 SWAP1 PUSH1 0x4 ADD PUSH2 0x5251 JUMP JUMPDEST PUSH1 0x20 PUSH1 0x40 MLOAD DUP1 DUP4 SUB DUP2 DUP7 DUP1 EXTCODESIZE ISZERO DUP1 ISZERO PUSH2 0x1EA0 JUMPI PUSH1 0x0 DUP1 REVERT JUMPDEST POP GAS STATICCALL ISZERO DUP1 ISZERO PUSH2 0x1EB4 JUMPI RETURNDATASIZE PUSH1 0x0 DUP1 RETURNDATACOPY RETURNDATASIZE PUSH1 0x0 REVERT JUMPDEST POP POP POP POP PUSH1 0x40 MLOAD RETURNDATASIZE PUSH1 0x1F NOT PUSH1 0x1F DUP3 ADD AND DUP3 ADD DUP1 PUSH1 0x40 MSTORE POP DUP2 ADD SWAP1 PUSH2 0x1E13 SWAP2 SWAP1 PUSH2 0x5097 JUMP JUMPDEST PUSH1 0x0 DUP3 DUP3 GT ISZERO PUSH2 0x1EE7 JUMPI PUSH1 0x0 DUP1 REVERT JUMPDEST POP SWAP1 SUB SWAP1 JUMP JUMPDEST PUSH1 0x0 DUP1 PUSH1 0x5 DUP6 PUSH1 0x60 ADD MLOAD PUSH1 0x5 DUP2 GT ISZERO PUSH2 0x1F02 JUMPI INVALID JUMPDEST EQ PUSH2 0x1F14 JUMPI PUSH4 0x70A08231 PUSH1 0xE0 SHL PUSH2 0x1F1D JUMP JUMPDEST PUSH4 0xED1279F PUSH1 0xE1 SHL JUMPDEST SWAP1 POP PUSH1 0x0 PUSH2 0x1F30 DUP7 PUSH1 0x0 ADD MLOAD ADDRESS DUP5 PUSH2 0x348A JUMP JUMPDEST SWAP1 POP PUSH1 0x5 DUP7 PUSH1 0x60 ADD MLOAD PUSH1 0x5 DUP2 GT ISZERO PUSH2 0x1F44 JUMPI INVALID JUMPDEST EQ ISZERO PUSH2 0x1F6B JUMPI PUSH1 0x0 PUSH2 0x1F59 DUP7 PUSH2 0xFFFF AND PUSH2 0x134F JUMP JUMPDEST SWAP1 POP PUSH2 0x1F65 DUP2 DUP7 PUSH2 0x359C JUMP JUMPDEST POP PUSH2 0x1FB4 JUMP JUMPDEST PUSH1 0x1 DUP7 PUSH1 0x60 ADD MLOAD PUSH1 0x5 DUP2 GT ISZERO PUSH2 0x1F7D JUMPI INVALID JUMPDEST EQ ISZERO PUSH2 0x1F92 JUMPI PUSH2 0x1F8D DUP7 DUP6 PUSH2 0x360F JUMP JUMPDEST PUSH2 0x1FB4 JUMP JUMPDEST PUSH1 0x2 DUP7 PUSH1 0x60 ADD MLOAD PUSH1 0x5 DUP2 GT ISZERO PUSH2 0x1FA4 JUMPI INVALID JUMPDEST EQ ISZERO PUSH2 0x137 JUMPI PUSH2 0x1F8D DUP7 DUP6 PUSH2 0x36B1 JUMP JUMPDEST PUSH1 0x0 PUSH2 0x1FC5 DUP8 PUSH1 0x0 ADD MLOAD ADDRESS DUP6 PUSH2 0x348A JUMP JUMPDEST SWAP1 POP PUSH2 0xA8C PUSH2 0x1CAD DUP3 DUP5 PUSH2 0x370D JUMP JUMPDEST PUSH1 0x0 PUSH2 0x1FDE PUSH2 0x3764 JUMP JUMPDEST PUSH1 0x1 PUSH1 0x1 PUSH1 0xA0 SHL SUB DUP5 AND PUSH1 0x0 SWAP1 DUP2 MSTORE PUSH1 0x20 DUP3 SWAP1 MSTORE PUSH1 0x40 SWAP1 KECCAK256 DUP1 SLOAD SWAP2 SWAP3 POP SWAP1 PUSH2 0xFFFF AND DUP4 ISZERO PUSH2 0x201E JUMPI DUP2 SLOAD PUSH2 0xFFFF NOT AND PUSH2 0x100 DUP3 OR PUSH2 0xFFFF AND OR DUP3 SSTORE PUSH2 0x202E JUMP JUMPDEST DUP2 SLOAD PUSH2 0xFFFF NOT AND PUSH2 0xFEFF DUP3 AND OR DUP3 SSTORE JUMPDEST POP POP POP POP POP JUMP JUMPDEST PUSH1 0x0 PUSH2 0x203F PUSH2 0x3764 JUMP JUMPDEST PUSH1 0x1 PUSH1 0x1 PUSH1 0xA0 SHL SUB DUP5 AND PUSH1 0x0 SWAP1 DUP2 MSTORE PUSH1 0x20 DUP3 SWAP1 MSTORE PUSH1 0x40 SWAP1 KECCAK256 DUP1 SLOAD SWAP2 SWAP3 POP SWAP1 PUSH2 0xFFFF AND DUP4 ISZERO PUSH2 0x207E JUMPI DUP2 SLOAD PUSH2 0xFFFF NOT AND PUSH1 0x1 DUP3 OR PUSH2 0xFFFF AND OR DUP3 SSTORE PUSH2 0x202E JUMP JUMPDEST DUP2 SLOAD PUSH2 0xFFFF NOT AND PUSH2 0xFFFE SWAP2 SWAP1 SWAP2 AND OR SWAP1 SSTORE POP POP POP JUMP JUMPDEST PUSH1 0x0 DUP1 PUSH2 0x1045 PUSH1 0x17 PUSH2 0x2B4A JUMP JUMPDEST PUSH2 0x20A9 PUSH2 0x4B79 JUMP JUMPDEST PUSH2 0x20B2 DUP3 PUSH2 0x2748 JUMP JUMPDEST SWAP1 POP PUSH2 0x10C1 DUP2 PUSH1 0x40 ADD MLOAD PUSH2 0xFFFF AND PUSH2 0x3771 JUMP JUMPDEST PUSH1 0x0 DUP1 PUSH1 0x0 PUSH2 0x20DC DUP7 PUSH1 0x40 ADD MLOAD PUSH2 0xFFFF AND DUP6 PUSH2 0x3787 JUMP JUMPDEST SWAP1 POP PUSH1 0x0 PUSH2 0x2103 PUSH2 0x980 PUSH2 0x20F3 DUP9 PUSH1 0x80 ADD MLOAD PUSH2 0x167D JUMP JUMPDEST PUSH1 0x20 DUP10 ADD MLOAD PUSH2 0x1B62 SWAP1 DUP7 SWAP1 PUSH2 0x1637 JUMP JUMPDEST SWAP1 POP PUSH1 0x0 PUSH2 0x2118 DUP9 PUSH1 0x40 ADD MLOAD PUSH2 0xFFFF AND PUSH2 0x133C JUMP JUMPDEST SWAP1 POP PUSH2 0x2124 DUP2 DUP4 PUSH2 0x3452 JUMP JUMPDEST SWAP5 POP PUSH1 0x4 DUP2 PUSH1 0x60 ADD MLOAD PUSH1 0x5 DUP2 GT ISZERO PUSH2 0x2138 JUMPI INVALID JUMPDEST EQ ISZERO PUSH2 0x2146 JUMPI DUP5 SWAP4 POP PUSH2 0x2173 JUMP JUMPDEST PUSH1 0x0 PUSH2 0x2159 DUP10 PUSH1 0x40 ADD MLOAD PUSH2 0xFFFF AND PUSH2 0x134F JUMP JUMPDEST SWAP1 POP PUSH2 0x216F PUSH2 0x2168 DUP6 DUP6 PUSH2 0x1DC7 JUMP JUMPDEST DUP3 SWAP1 PUSH2 0x1DF2 JUMP JUMPDEST SWAP5 POP POP JUMPDEST POP POP POP SWAP4 POP SWAP4 SWAP2 POP POP JUMP JUMPDEST PUSH1 0x0 PUSH2 0x2188 PUSH2 0x3764 JUMP JUMPDEST SWAP1 POP PUSH1 0x0 PUSH2 0x2195 DUP5 PUSH2 0x2748 JUMP JUMPDEST SWAP1 POP PUSH2 0x21A7 PUSH1 0x40 DUP5 ADD PUSH1 0x20 DUP6 ADD PUSH2 0x50AF JUMP JUMPDEST PUSH2 0xFFFF AND PUSH2 0x21B4 JUMPI PUSH1 0x0 DUP1 REVERT JUMPDEST PUSH1 0x40 DUP2 ADD MLOAD PUSH2 0xFFFF AND ISZERO DUP1 PUSH2 0x21E3 JUMPI POP PUSH2 0x21D4 PUSH1 0x40 DUP5 ADD PUSH1 0x20 DUP6 ADD PUSH2 0x50AF JUMP JUMPDEST PUSH2 0xFFFF AND DUP2 PUSH1 0x40 ADD MLOAD PUSH2 0xFFFF AND EQ JUMPDEST PUSH2 0x21EC JUMPI PUSH1 0x0 DUP1 REVERT JUMPDEST PUSH2 0x21FC PUSH1 0xC0 DUP5 ADD PUSH1 0xA0 DUP6 ADD PUSH2 0x5150 JUMP JUMPDEST PUSH1 0xFF AND PUSH1 0x64 SGT ISZERO PUSH2 0x220C JUMPI PUSH1 0x0 DUP1 REVERT JUMPDEST PUSH1 0x0 PUSH1 0x64 DUP1 PUSH2 0x2221 PUSH1 0xC0 DUP8 ADD PUSH1 0xA0 DUP9 ADD PUSH2 0x5150 JUMP JUMPDEST PUSH1 0xFF AND SUB MUL SWAP1 POP PUSH2 0x2238 PUSH1 0x80 DUP6 ADD PUSH1 0x60 DUP7 ADD PUSH2 0x50AF JUMP JUMPDEST PUSH2 0xFFFF AND DUP2 PUSH2 0xFFFF AND LT PUSH2 0x224B JUMPI PUSH1 0x0 DUP1 REVERT JUMPDEST PUSH2 0x225D PUSH2 0x120 DUP6 ADD PUSH2 0x100 DUP7 ADD PUSH2 0x50AF JUMP JUMPDEST PUSH2 0xFFFF AND PUSH2 0x2271 PUSH1 0x80 DUP7 ADD PUSH1 0x60 DUP8 ADD PUSH2 0x50AF JUMP JUMPDEST PUSH2 0xFFFF AND LT PUSH2 0x227F JUMPI PUSH1 0x0 DUP1 REVERT JUMPDEST PUSH2 0x2291 PUSH2 0x180 DUP6 ADD PUSH2 0x160 DUP7 ADD PUSH2 0x50AF JUMP JUMPDEST PUSH2 0xFFFF AND PUSH2 0x22A7 PUSH2 0x120 DUP7 ADD PUSH2 0x100 DUP8 ADD PUSH2 0x50AF JUMP JUMPDEST PUSH2 0xFFFF AND LT PUSH2 0x22B5 JUMPI PUSH1 0x0 DUP1 REVERT JUMPDEST PUSH1 0x64 PUSH2 0x22C7 PUSH1 0xE0 DUP7 ADD PUSH1 0xC0 DUP8 ADD PUSH2 0x5150 JUMP JUMPDEST PUSH1 0xFF AND SGT ISZERO PUSH2 0x22D5 JUMPI PUSH1 0x0 DUP1 REVERT JUMPDEST PUSH2 0x22E6 PUSH2 0x100 DUP6 ADD PUSH1 0xE0 DUP7 ADD PUSH2 0x5150 JUMP JUMPDEST PUSH1 0xFF AND PUSH2 0x22F2 JUMPI PUSH1 0x0 DUP1 REVERT JUMPDEST PUSH2 0x140 DUP3 ADD MLOAD MLOAD PUSH2 0xFFFF AND ISZERO DUP1 PUSH2 0x2337 JUMPI POP PUSH2 0x2316 PUSH2 0x140 DUP6 ADD PUSH2 0x120 DUP7 ADD PUSH2 0x50AF JUMP JUMPDEST PUSH2 0xFFFF AND DUP3 PUSH2 0x140 ADD MLOAD PUSH1 0x0 PUSH1 0x2 DUP2 LT PUSH2 0x232C JUMPI INVALID JUMPDEST PUSH1 0x20 MUL ADD MLOAD PUSH2 0xFFFF AND EQ JUMPDEST PUSH2 0x2340 JUMPI PUSH1 0x0 DUP1 REVERT JUMPDEST PUSH2 0x140 DUP3 ADD MLOAD PUSH1 0x20 ADD MLOAD PUSH2 0xFFFF AND ISZERO DUP1 PUSH2 0x2388 JUMPI POP PUSH2 0x2367 PUSH2 0x160 DUP6 ADD PUSH2 0x140 DUP7 ADD PUSH2 0x50AF JUMP JUMPDEST PUSH2 0xFFFF AND DUP3 PUSH2 0x140 ADD MLOAD PUSH1 0x1 PUSH1 0x2 DUP2 LT PUSH2 0x237D JUMPI INVALID JUMPDEST PUSH1 0x20 MUL ADD MLOAD PUSH2 0xFFFF AND EQ JUMPDEST PUSH2 0x2391 JUMPI PUSH1 0x0 DUP1 REVERT JUMPDEST PUSH2 0x23A3 PUSH2 0x140 DUP6 ADD PUSH2 0x120 DUP7 ADD PUSH2 0x50AF JUMP JUMPDEST PUSH2 0xFFFF AND PUSH2 0x23B7 PUSH1 0x40 DUP7 ADD PUSH1 0x20 DUP8 ADD PUSH2 0x50AF JUMP JUMPDEST PUSH2 0xFFFF AND EQ ISZERO PUSH2 0x23C6 JUMPI PUSH1 0x0 DUP1 REVERT JUMPDEST PUSH2 0x23D8 PUSH2 0x160 DUP6 ADD PUSH2 0x140 DUP7 ADD PUSH2 0x50AF JUMP JUMPDEST PUSH2 0xFFFF AND PUSH2 0x23EC PUSH1 0x40 DUP7 ADD PUSH1 0x20 DUP8 ADD PUSH2 0x50AF JUMP JUMPDEST PUSH2 0xFFFF AND EQ ISZERO PUSH2 0x23FB JUMPI PUSH1 0x0 DUP1 REVERT JUMPDEST PUSH2 0x240D PUSH2 0x140 DUP6 ADD PUSH2 0x120 DUP7 ADD PUSH2 0x50AF JUMP JUMPDEST PUSH2 0xFFFF AND ISZERO DUP1 ISZERO SWAP1 PUSH2 0x2433 JUMPI POP PUSH2 0x242C PUSH2 0x160 DUP6 ADD PUSH2 0x140 DUP7 ADD PUSH2 0x50AF JUMP JUMPDEST PUSH2 0xFFFF AND ISZERO ISZERO JUMPDEST ISZERO PUSH2 0x246F JUMPI PUSH2 0x244A PUSH2 0x160 DUP6 ADD PUSH2 0x140 DUP7 ADD PUSH2 0x50AF JUMP JUMPDEST PUSH2 0xFFFF AND PUSH2 0x2460 PUSH2 0x140 DUP7 ADD PUSH2 0x120 DUP8 ADD PUSH2 0x50AF JUMP JUMPDEST PUSH2 0xFFFF AND EQ ISZERO PUSH2 0x246F JUMPI PUSH1 0x0 DUP1 REVERT JUMPDEST PUSH1 0x0 PUSH2 0x248D PUSH2 0x2484 PUSH1 0x40 DUP8 ADD PUSH1 0x20 DUP9 ADD PUSH2 0x50AF JUMP JUMPDEST PUSH2 0xFFFF AND PUSH2 0x133C JUMP JUMPDEST SWAP1 POP PUSH1 0x0 PUSH2 0x24AD PUSH2 0x24A4 PUSH1 0x40 DUP9 ADD PUSH1 0x20 DUP10 ADD PUSH2 0x50AF JUMP JUMPDEST PUSH2 0xFFFF AND PUSH2 0x134F JUMP JUMPDEST SWAP1 POP DUP2 PUSH1 0x20 ADD MLOAD ISZERO DUP1 ISZERO PUSH2 0x24C3 JUMPI POP DUP1 PUSH1 0x20 ADD MLOAD ISZERO JUMPDEST PUSH2 0x24CC JUMPI PUSH1 0x0 DUP1 REVERT JUMPDEST PUSH1 0x1 PUSH1 0x1 PUSH1 0xA0 SHL SUB DUP8 AND PUSH1 0x0 SWAP1 DUP2 MSTORE PUSH1 0x20 DUP7 SWAP1 MSTORE PUSH1 0x40 SWAP1 KECCAK256 DUP7 SWAP1 PUSH2 0x24F0 DUP3 DUP3 PUSH2 0x5A89 JUMP JUMPDEST POP POP POP POP POP POP POP POP POP JUMP JUMPDEST PUSH1 0x0 DUP1 PUSH2 0x2511 DUP10 PUSH1 0x0 ADD MLOAD DUP11 PUSH1 0x40 ADD MLOAD DUP10 PUSH2 0x2D1F JUMP JUMPDEST DUP10 MLOAD SWAP1 SWAP2 POP PUSH1 0x1 PUSH1 0x1 PUSH1 0xA0 SHL SUB AND PUSH4 0xDC6679C5 DUP10 PUSH2 0x252F DUP5 DUP10 PUSH2 0x17BB JUMP JUMPDEST DUP10 DUP9 DUP9 PUSH1 0x40 MLOAD DUP7 PUSH4 0xFFFFFFFF AND PUSH1 0xE0 SHL DUP2 MSTORE PUSH1 0x4 ADD PUSH2 0x2552 SWAP6 SWAP5 SWAP4 SWAP3 SWAP2 SWAP1 PUSH2 0x533C JUMP JUMPDEST PUSH1 0x20 PUSH1 0x40 MLOAD DUP1 DUP4 SUB DUP2 PUSH1 0x0 DUP8 DUP1 EXTCODESIZE ISZERO DUP1 ISZERO PUSH2 0x256C JUMPI PUSH1 0x0 DUP1 REVERT JUMPDEST POP GAS CALL ISZERO DUP1 ISZERO PUSH2 0x2580 JUMPI RETURNDATASIZE PUSH1 0x0 DUP1 RETURNDATACOPY RETURNDATASIZE PUSH1 0x0 REVERT JUMPDEST POP POP POP POP PUSH1 0x40 MLOAD RETURNDATASIZE PUSH1 0x1F NOT PUSH1 0x1F DUP3 ADD AND DUP3 ADD DUP1 PUSH1 0x40 MSTORE POP DUP2 ADD SWAP1 PUSH2 0x132F SWAP2 SWAP1 PUSH2 0x5097 JUMP JUMPDEST PUSH1 0x0 DUP1 PUSH2 0x25B3 DUP7 DUP9 DUP8 DUP8 PUSH2 0x37E4 JUMP JUMPDEST SWAP1 POP PUSH1 0x0 PUSH2 0x25C6 DUP9 DUP8 DUP10 PUSH1 0x0 ADD MLOAD PUSH2 0x3849 JUMP JUMPDEST SWAP1 POP PUSH1 0x0 PUSH2 0x25E6 PUSH2 0x25DA DUP4 PUSH2 0x1B62 DUP9 PUSH2 0x1629 JUMP JUMPDEST PUSH2 0x160 DUP12 ADD MLOAD SWAP1 PUSH2 0x1637 JUMP JUMPDEST SWAP1 POP PUSH1 0x0 PUSH2 0x25F4 DUP5 DUP4 PUSH2 0x3099 JUMP JUMPDEST SWAP1 POP DUP2 PUSH2 0x260A JUMPI PUSH1 0x1 PUSH1 0x1 PUSH1 0xFF SHL SUB SWAP5 POP PUSH2 0x2617 JUMP JUMPDEST PUSH2 0x2614 DUP2 DUP4 PUSH2 0x3930 JUMP JUMPDEST SWAP5 POP JUMPDEST POP POP POP SWAP6 POP SWAP6 SWAP4 POP POP POP POP JUMP JUMPDEST PUSH1 0x0 DUP1 PUSH1 0x2 PUSH1 0xA SLOAD EQ ISZERO PUSH2 0x264A JUMPI PUSH1 0x40 MLOAD PUSH3 0x461BCD PUSH1 0xE5 SHL DUP2 MSTORE PUSH1 0x4 ADD PUSH2 0x344 SWAP1 PUSH2 0x57F1 JUMP JUMPDEST PUSH1 0x2 PUSH1 0xA SSTORE PUSH2 0x265A DUP8 PUSH1 0x80 PUSH2 0x10CC JUMP JUMPDEST ISZERO PUSH2 0x2665 JUMPI PUSH1 0x1 PUSH1 0xA SSTORE JUMPDEST PUSH1 0x0 PUSH2 0x2675 DUP9 PUSH1 0x0 ADD MLOAD DUP9 PUSH2 0x1420 JUMP JUMPDEST DUP9 MLOAD SWAP1 SWAP2 POP PUSH1 0x0 SWAP1 DUP2 SWAP1 PUSH2 0x268E SWAP1 DUP12 SWAP1 DUP11 DUP13 DUP12 DUP12 PUSH2 0x3949 JUMP JUMPDEST SWAP2 POP SWAP2 POP PUSH1 0x0 DUP3 SGT PUSH2 0x269F JUMPI PUSH1 0x0 DUP1 REVERT JUMPDEST DUP1 ISZERO PUSH2 0x26AA JUMPI PUSH1 0x0 DUP1 REVERT JUMPDEST PUSH1 0x80 DUP4 ADD MLOAD PUSH2 0x26B9 SWAP1 DUP4 PUSH2 0x17BB JUMP JUMPDEST PUSH1 0x80 DUP5 ADD MSTORE PUSH1 0xA0 DUP4 ADD MLOAD PUSH2 0x26CD SWAP1 DUP10 PUSH2 0x1ED8 JUMP JUMPDEST PUSH1 0xA0 DUP5 ADD MSTORE DUP10 MLOAD PUSH2 0x26DF SWAP1 DUP5 SWAP1 PUSH2 0x17CD JUMP JUMPDEST DUP9 DUP11 PUSH1 0x0 ADD MLOAD PUSH1 0x1 PUSH1 0x1 PUSH1 0xA0 SHL SUB AND PUSH32 0xB2F70C3FE73B5AEE7E8C59B77222111306F1E4D7170F8FA1C09979BB847EB9D9 DUP5 DUP12 PUSH1 0x40 MLOAD PUSH2 0x271F SWAP3 SWAP2 SWAP1 PUSH2 0x53FB JUMP JUMPDEST PUSH1 0x40 MLOAD DUP1 SWAP2 SUB SWAP1 LOG3 PUSH2 0x2732 DUP11 DUP5 DUP12 PUSH2 0x20C5 JUMP JUMPDEST PUSH1 0x1 PUSH1 0xA SSTORE SWAP1 SWAP12 SWAP1 SWAP11 POP SWAP9 POP POP POP POP POP POP POP POP POP JUMP JUMPDEST PUSH2 0x2750 PUSH2 0x4B79 JUMP JUMPDEST PUSH1 0x0 PUSH2 0x275A PUSH2 0x3764 JUMP JUMPDEST PUSH1 0x1 PUSH1 0x1 PUSH1 0xA0 SHL SUB DUP5 AND PUSH1 0x0 DUP2 DUP2 MSTORE PUSH1 0x20 DUP4 DUP2 MSTORE PUSH1 0x40 SWAP2 DUP3 SWAP1 KECCAK256 SWAP3 DUP7 MSTORE DUP3 SLOAD PUSH2 0xFFFF DUP1 DUP3 AND SWAP3 DUP9 ADD SWAP3 SWAP1 SWAP3 MSTORE PUSH3 0x10000 DUP2 DIV SWAP1 SWAP2 AND SWAP2 DUP7 ADD SWAP2 SWAP1 SWAP2 MSTORE SWAP2 SWAP3 POP SWAP1 PUSH2 0x27BA SWAP1 PUSH4 0xFFFFFFFF PUSH1 0x1 PUSH1 0x20 SHL SWAP1 SWAP2 DIV DUP2 AND SWAP1 PUSH4 0x5F5E100 SWAP1 PUSH2 0x2AB5 AND JUMP JUMPDEST PUSH1 0x60 DUP5 ADD MSTORE DUP1 SLOAD PUSH2 0x27D8 SWAP1 PUSH1 0x1 PUSH1 0x50 SHL SWAP1 DIV PUSH1 0xFF AND PUSH3 0x7A120 PUSH2 0x31B3 JUMP JUMPDEST PUSH1 0x80 DUP5 ADD MSTORE DUP1 SLOAD PUSH2 0x27FC SWAP1 PUSH9 0x10000000000000000 SWAP1 DIV PUSH2 0xFFFF AND PUSH3 0x186A0 PUSH2 0x31B3 JUMP JUMPDEST PUSH1 0xA0 DUP5 ADD MSTORE DUP1 SLOAD PUSH2 0x281B SWAP1 PUSH1 0x1 PUSH1 0x70 SHL SWAP1 DIV PUSH2 0xFFFF AND PUSH3 0x186A0 PUSH2 0x31B3 JUMP JUMPDEST PUSH2 0x120 DUP5 ADD MSTORE PUSH1 0x2 DUP2 ADD SLOAD PUSH2 0x2837 SWAP1 PUSH2 0xFFFF AND PUSH3 0x186A0 PUSH2 0x31B3 JUMP JUMPDEST PUSH2 0x180 DUP5 ADD MSTORE DUP1 SLOAD PUSH1 0x64 SWAP1 PUSH1 0xFF PUSH1 0x1 PUSH1 0x58 SHL SWAP1 SWAP2 DIV AND PUSH4 0x3B9ACA00 MUL SDIV PUSH1 0xC0 DUP5 ADD MSTORE DUP1 SLOAD PUSH1 0x1 PUSH1 0x60 SHL DUP2 DIV PUSH1 0xFF SWAP1 DUP2 AND PUSH1 0xE0 DUP7 ADD MSTORE PUSH1 0x1 PUSH1 0x68 SHL SWAP1 SWAP2 DIV AND PUSH2 0x100 DUP5 ADD MSTORE PUSH1 0x40 DUP1 MLOAD DUP1 DUP3 ADD SWAP2 DUP3 SWAP1 MSTORE SWAP1 PUSH1 0x1 DUP4 ADD SWAP1 PUSH1 0x2 SWAP1 DUP3 PUSH1 0x0 DUP6 JUMPDEST DUP3 DUP3 SWAP1 SLOAD SWAP1 PUSH2 0x100 EXP SWAP1 DIV PUSH2 0xFFFF AND PUSH2 0xFFFF AND DUP2 MSTORE PUSH1 0x20 ADD SWAP1 PUSH1 0x2 ADD SWAP1 PUSH1 0x20 DUP3 PUSH1 0x1 ADD DIV SWAP3 DUP4 ADD SWAP3 PUSH1 0x1 SUB DUP3 MUL SWAP2 POP DUP1 DUP5 GT PUSH2 0x2894 JUMPI SWAP1 POP POP POP POP POP POP DUP4 PUSH2 0x140 ADD DUP2 SWAP1 MSTORE POP POP POP SWAP2 SWAP1 POP JUMP JUMPDEST PUSH2 0x28E9 PUSH2 0x4C25 JUMP JUMPDEST PUSH1 0x0 DUP1 PUSH1 0x0 PUSH2 0x28F7 DUP6 PUSH2 0x2EC9 JUMP JUMPDEST PUSH1 0x40 DUP1 MLOAD PUSH1 0x60 DUP2 ADD DUP3 MSTORE PUSH1 0x1 PUSH1 0x1 PUSH1 0xA0 SHL SUB SWAP1 SWAP4 AND DUP4 MSTORE PUSH1 0x20 DUP4 ADD SWAP4 SWAP1 SWAP4 MSTORE PUSH1 0xFF AND PUSH1 0xA EXP SWAP2 DUP2 ADD SWAP2 SWAP1 SWAP2 MSTORE SWAP4 POP POP POP POP SWAP2 SWAP1 POP JUMP JUMPDEST PUSH2 0x2935 PUSH2 0x4C4F JUMP JUMPDEST PUSH1 0x0 PUSH2 0x293F PUSH2 0x39A0 JUMP JUMPDEST PUSH1 0x0 DUP5 DUP2 MSTORE PUSH1 0x20 DUP3 SWAP1 MSTORE PUSH1 0x40 DUP2 KECCAK256 SWAP2 SWAP3 POP DUP1 PUSH1 0x1 DUP7 EQ ISZERO PUSH2 0x296C JUMPI POP PUSH8 0xDE0B6B3A7640000 SWAP1 POP DUP1 PUSH2 0x2A42 JUMP JUMPDEST DUP3 SLOAD PUSH1 0x40 DUP1 MLOAD PUSH4 0x3FABE5A3 PUSH1 0xE2 SHL DUP2 MSTORE SWAP1 MLOAD PUSH1 0x1 PUSH1 0x1 PUSH1 0xA0 SHL SUB SWAP1 SWAP3 AND SWAP2 PUSH4 0xFEAF968C SWAP2 PUSH1 0x4 DUP1 DUP3 ADD SWAP3 PUSH1 0xA0 SWAP3 SWAP1 SWAP2 SWAP1 DUP3 SWAP1 SUB ADD DUP2 DUP7 DUP1 EXTCODESIZE ISZERO DUP1 ISZERO PUSH2 0x29B0 JUMPI PUSH1 0x0 DUP1 REVERT JUMPDEST POP GAS STATICCALL ISZERO DUP1 ISZERO PUSH2 0x29C4 JUMPI RETURNDATASIZE PUSH1 0x0 DUP1 RETURNDATACOPY RETURNDATASIZE PUSH1 0x0 REVERT JUMPDEST POP POP POP POP PUSH1 0x40 MLOAD RETURNDATASIZE PUSH1 0x1F NOT PUSH1 0x1F DUP3 ADD AND DUP3 ADD DUP1 PUSH1 0x40 MSTORE POP DUP2 ADD SWAP1 PUSH2 0x29E8 SWAP2 SWAP1 PUSH2 0x516C JUMP JUMPDEST POP SWAP2 SWAP4 POP POP PUSH1 0x0 DUP4 SGT SWAP2 POP PUSH2 0x2A11 SWAP1 POP JUMPI PUSH1 0x40 MLOAD PUSH3 0x461BCD PUSH1 0xE5 SHL DUP2 MSTORE PUSH1 0x4 ADD PUSH2 0x344 SWAP1 PUSH2 0x57CB JUMP JUMPDEST DUP3 SLOAD PUSH1 0xFF PUSH1 0x1 PUSH1 0xA0 SHL DUP3 DIV DUP2 AND PUSH1 0xA EXP SWAP4 POP PUSH1 0x1 PUSH1 0xA8 SHL SWAP1 SWAP2 DIV AND ISZERO PUSH2 0x2A42 JUMPI PUSH2 0x2A3F DUP2 PUSH2 0x11B6 DUP5 DUP1 PUSH2 0x2AB5 JUMP JUMPDEST SWAP1 POP JUMPDEST PUSH1 0x40 DUP1 MLOAD PUSH1 0xA0 DUP2 ADD DUP3 MSTORE SWAP3 DUP4 MSTORE PUSH1 0x20 DUP4 ADD SWAP2 SWAP1 SWAP2 MSTORE SWAP2 SLOAD PUSH1 0xFF PUSH1 0x1 PUSH1 0xB0 SHL DUP3 DIV DUP2 AND SWAP4 DUP4 ADD SWAP4 SWAP1 SWAP4 MSTORE PUSH1 0x1 PUSH1 0xB8 SHL DUP2 DIV DUP4 AND PUSH1 0x60 DUP4 ADD MSTORE PUSH1 0x1 PUSH1 0xC0 SHL SWAP1 DIV SWAP1 SWAP2 AND PUSH1 0x80 DUP3 ADD MSTORE SWAP2 POP POP SWAP2 SWAP1 POP JUMP JUMPDEST PUSH1 0x0 PUSH2 0x8C2 DUP3 PUSH1 0x20 ADD MLOAD PUSH2 0x11B6 DUP5 PUSH1 0x0 ADD MLOAD DUP7 PUSH1 0x20 ADD MLOAD PUSH2 0x2AB5 SWAP1 SWAP2 SWAP1 PUSH4 0xFFFFFFFF AND JUMP JUMPDEST DUP2 DUP2 MUL PUSH1 0x0 NOT DUP4 EQ ISZERO PUSH2 0x2AE5 JUMPI DUP2 ISZERO DUP1 PUSH2 0x2AD7 JUMPI POP DUP3 DUP3 DUP3 DUP2 PUSH2 0x2AD4 JUMPI INVALID JUMPDEST SDIV EQ JUMPDEST PUSH2 0x2AE0 JUMPI PUSH1 0x0 DUP1 REVERT JUMPDEST PUSH2 0x1045 JUMP JUMPDEST DUP3 ISZERO DUP1 PUSH2 0x2AFA JUMPI POP DUP2 DUP4 DUP3 DUP2 PUSH2 0x2AF7 JUMPI INVALID JUMPDEST SDIV EQ JUMPDEST PUSH2 0x1045 JUMPI PUSH1 0x0 DUP1 REVERT JUMPDEST PUSH1 0x0 DUP2 PUSH1 0x0 NOT EQ DUP1 ISZERO PUSH2 0x2B19 JUMPI POP PUSH1 0x1 PUSH1 0xFF SHL DUP4 EQ JUMPDEST ISZERO PUSH2 0x2B23 JUMPI PUSH1 0x0 DUP1 REVERT JUMPDEST DUP2 DUP4 DUP2 PUSH2 0x2B2C JUMPI INVALID JUMPDEST SDIV SWAP4 SWAP3 POP POP POP JUMP JUMPDEST PUSH1 0x0 PUSH1 0x1 PUSH1 0x1 PUSH1 0x50 SHL SUB DUP3 GT ISZERO PUSH2 0x1270 JUMPI PUSH1 0x0 DUP1 REVERT JUMPDEST PUSH1 0x0 PUSH3 0xF4240 DUP3 PUSH1 0x1A DUP2 GT ISZERO PUSH2 0x2B5C JUMPI INVALID JUMPDEST ADD SWAP3 SWAP2 POP POP JUMP JUMPDEST PUSH1 0x0 DUP1 DUP8 PUSH1 0x0 ADD MLOAD PUSH1 0x1 PUSH1 0x1 PUSH1 0xA0 SHL SUB AND DUP8 PUSH1 0x1 PUSH1 0x1 PUSH1 0xA0 SHL SUB AND EQ ISZERO PUSH2 0x2B89 JUMPI PUSH1 0x0 DUP1 REVERT JUMPDEST DUP8 MLOAD PUSH2 0x2B9C SWAP1 DUP8 PUSH2 0x88F PUSH2 0x980 DUP9 PUSH2 0x167D JUMP JUMPDEST POP PUSH1 0x0 PUSH2 0x2BA7 PUSH2 0x1670 JUMP JUMPDEST DUP10 MLOAD PUSH1 0x1 PUSH1 0x1 PUSH1 0xA0 SHL SUB AND PUSH1 0x0 SWAP1 DUP2 MSTORE PUSH1 0x20 SWAP2 DUP3 MSTORE PUSH1 0x40 DUP1 DUP3 KECCAK256 DUP10 DUP4 MSTORE DUP4 MSTORE DUP1 DUP3 KECCAK256 PUSH2 0xFFFF DUP12 AND DUP4 MSTORE SWAP1 SWAP3 MSTORE KECCAK256 DUP1 SLOAD SWAP1 SWAP2 POP PUSH1 0x1 PUSH1 0xF0 SHL SWAP1 DIV PUSH1 0xFF AND ISZERO PUSH2 0x2C00 JUMPI PUSH1 0x40 MLOAD PUSH3 0x461BCD PUSH1 0xE5 SHL DUP2 MSTORE PUSH1 0x4 ADD PUSH2 0x344 SWAP1 PUSH2 0x576D JUMP JUMPDEST DUP1 SLOAD PUSH1 0x1 PUSH1 0x1 PUSH1 0x50 SHL SUB DUP1 DUP3 AND SWAP2 PUSH1 0x1 PUSH1 0x50 SHL SWAP1 DIV AND DUP2 PUSH2 0x2C23 JUMPI DUP7 SWAP4 POP PUSH2 0x2C34 JUMP JUMPDEST PUSH2 0x2C31 DUP3 PUSH2 0x1CA7 DUP10 DUP5 PUSH2 0x31B3 JUMP JUMPDEST SWAP4 POP JUMPDEST PUSH2 0x2C44 DUP12 DUP12 DUP12 DUP12 PUSH2 0x1D17 DUP10 PUSH2 0x167D JUMP JUMPDEST PUSH2 0x2C51 PUSH2 0x11CA DUP3 DUP7 PUSH2 0x17BB JUMP JUMPDEST DUP4 SLOAD PUSH1 0x1 PUSH1 0x1 PUSH1 0x50 SHL SUB SWAP2 SWAP1 SWAP2 AND PUSH1 0x1 PUSH1 0x50 SHL MUL PUSH1 0x1 PUSH1 0x50 SHL PUSH1 0x1 PUSH1 0xA0 SHL SUB NOT SWAP1 SWAP2 AND OR DUP4 SSTORE PUSH2 0x2C84 PUSH2 0x11CA DUP4 DUP10 PUSH2 0x17BB JUMP JUMPDEST DUP4 SLOAD PUSH1 0x1 PUSH1 0x1 PUSH1 0x50 SHL SUB NOT AND PUSH1 0x1 PUSH1 0x1 PUSH1 0x50 SHL SUB SWAP2 SWAP1 SWAP2 AND OR DUP4 SSTORE PUSH2 0x2CB7 DUP12 DUP11 DUP11 PUSH2 0x2CB1 PUSH2 0x980 DUP13 PUSH2 0x167D JUMP JUMPDEST DUP11 PUSH2 0x3385 JUMP JUMPDEST SWAP5 POP DUP9 PUSH2 0xFFFF AND DUP11 PUSH1 0x1 PUSH1 0x1 PUSH1 0xA0 SHL SUB AND DUP13 PUSH1 0x0 ADD MLOAD PUSH1 0x1 PUSH1 0x1 PUSH1 0xA0 SHL SUB AND PUSH32 0xA119A38E8BBBF2CBE78427CB9E63EF28678B56E3CEECC10BDA7C00503EA94739 DUP12 DUP9 DUP13 PUSH1 0x40 MLOAD PUSH2 0x1DB1 SWAP4 SWAP3 SWAP2 SWAP1 PUSH2 0x59AA JUMP JUMPDEST DUP2 DUP2 ADD DUP3 DUP2 SLT ISZERO PUSH1 0x0 DUP4 SLT ISZERO EQ PUSH2 0x1045 JUMPI PUSH1 0x0 DUP1 REVERT JUMPDEST PUSH1 0x0 DUP2 PUSH2 0x2D2E JUMPI POP PUSH1 0x0 PUSH2 0x8C2 JUMP JUMPDEST PUSH1 0x0 DUP3 SGT PUSH2 0x2D3B JUMPI PUSH1 0x0 DUP1 REVERT JUMPDEST PUSH1 0x0 PUSH2 0x2D4A DUP5 PUSH2 0xFFFF AND PUSH2 0x133C JUMP JUMPDEST SWAP1 POP PUSH1 0x0 PUSH2 0x2D58 DUP3 DUP6 PUSH2 0x3452 JUMP JUMPDEST SWAP1 POP PUSH1 0x4 DUP3 PUSH1 0x60 ADD MLOAD PUSH1 0x5 DUP2 GT ISZERO PUSH2 0x2D6C JUMPI INVALID JUMPDEST EQ ISZERO PUSH2 0x2D9A JUMPI PUSH2 0x2D93 PUSH2 0x36B PUSH2 0x980 DUP9 DUP9 PUSH2 0xFFFF AND PUSH2 0x2D8A DUP7 PUSH2 0x1629 JUMP JUMPDEST DUP8 SWAP3 SWAP2 SWAP1 PUSH2 0x39AD JUMP JUMPDEST SWAP3 POP PUSH2 0x2DBE JUMP JUMPDEST PUSH2 0x2DBB PUSH2 0x36B PUSH2 0x980 DUP8 PUSH2 0xFFFF AND DUP10 PUSH2 0x2DB2 DUP7 PUSH2 0x1261 JUMP JUMPDEST DUP8 SWAP3 SWAP2 SWAP1 PUSH2 0x3A55 JUMP JUMPDEST SWAP3 POP JUMPDEST POP POP SWAP4 SWAP3 POP POP POP JUMP JUMPDEST PUSH2 0x2DCF PUSH2 0x4BFE JUMP JUMPDEST PUSH1 0x0 PUSH2 0x2DD9 PUSH2 0x3AEB JUMP JUMPDEST PUSH1 0x0 DUP6 DUP2 MSTORE PUSH1 0x20 DUP3 DUP2 MSTORE PUSH1 0x40 DUP1 DUP4 KECCAK256 DUP8 ISZERO ISZERO DUP5 MSTORE DUP3 MSTORE SWAP2 DUP3 SWAP1 KECCAK256 DUP3 MLOAD PUSH1 0xA0 DUP2 ADD DUP5 MSTORE DUP2 SLOAD PUSH1 0x1 PUSH1 0x1 PUSH1 0xA0 SHL SUB DUP2 AND DUP3 MSTORE PUSH1 0xFF PUSH1 0x1 PUSH1 0xA0 SHL DUP3 DIV DUP2 AND ISZERO ISZERO SWAP5 DUP4 ADD SWAP5 SWAP1 SWAP5 MSTORE PUSH1 0x1 PUSH1 0xB0 SHL DUP2 DIV DUP5 AND PUSH1 0xA EXP SWAP5 DUP3 ADD SWAP5 SWAP1 SWAP5 MSTORE SWAP4 SWAP5 POP SWAP3 SWAP2 PUSH1 0x60 DUP4 ADD SWAP2 PUSH1 0x1 PUSH1 0xA8 SHL SWAP1 SWAP2 DIV AND PUSH1 0x5 DUP2 GT ISZERO PUSH2 0x2E4E JUMPI INVALID JUMPDEST DUP2 MSTORE SWAP2 SLOAD PUSH1 0x1 PUSH1 0xB8 SHL SWAP1 DIV PUSH9 0xFFFFFFFFFFFFFFFFFF AND PUSH1 0x20 SWAP1 SWAP3 ADD SWAP2 SWAP1 SWAP2 MSTORE SWAP5 SWAP4 POP POP POP POP JUMP JUMPDEST PUSH1 0x0 DUP1 PUSH2 0x1045 PUSH1 0x15 PUSH2 0x2B4A JUMP JUMPDEST PUSH1 0x0 DUP1 PUSH1 0x0 PUSH2 0x2E8F PUSH2 0x2F8C JUMP JUMPDEST PUSH1 0x0 SWAP6 DUP7 MSTORE PUSH1 0x20 SWAP1 DUP2 MSTORE PUSH1 0x40 DUP1 DUP8 KECCAK256 SWAP6 DUP8 MSTORE SWAP5 SWAP1 MSTORE POP POP POP SWAP1 KECCAK256 SLOAD PUSH1 0x1 PUSH1 0x28 SHL DUP2 DIV PUSH1 0x1 PUSH1 0x1 PUSH1 0x80 SHL SUB AND SWAP2 PUSH1 0x1 PUSH1 0xA8 SHL SWAP1 SWAP2 DIV PUSH1 0xFF AND SWAP1 JUMP JUMPDEST PUSH1 0x0 DUP1 PUSH1 0x0 DUP1 PUSH1 0x0 PUSH2 0x2EDA DUP7 PUSH2 0x3AF8 JUMP JUMPDEST SWAP1 SWAP3 POP SWAP1 POP PUSH1 0x0 PUSH1 0x1 PUSH1 0x1 PUSH1 0xA0 SHL SUB DUP4 AND PUSH2 0x2EFF JUMPI POP PUSH1 0x0 SWAP1 POP PUSH5 0x2540BE400 PUSH2 0x2F81 JUMP JUMPDEST DUP3 PUSH1 0x1 PUSH1 0x1 PUSH1 0xA0 SHL SUB AND PUSH4 0x1EE10833 PUSH1 0x40 MLOAD DUP2 PUSH4 0xFFFFFFFF AND PUSH1 0xE0 SHL DUP2 MSTORE PUSH1 0x4 ADD PUSH1 0x20 PUSH1 0x40 MLOAD DUP1 DUP4 SUB DUP2 PUSH1 0x0 DUP8 DUP1 EXTCODESIZE ISZERO DUP1 ISZERO PUSH2 0x2F3A JUMPI PUSH1 0x0 DUP1 REVERT JUMPDEST POP GAS CALL ISZERO DUP1 ISZERO PUSH2 0x2F4E JUMPI RETURNDATASIZE PUSH1 0x0 DUP1 RETURNDATACOPY RETURNDATASIZE PUSH1 0x0 REVERT JUMPDEST POP POP POP POP PUSH1 0x40 MLOAD RETURNDATASIZE PUSH1 0x1F NOT PUSH1 0x1F DUP3 ADD AND DUP3 ADD DUP1 PUSH1 0x40 MSTORE POP DUP2 ADD SWAP1 PUSH2 0x2F72 SWAP2 SWAP1 PUSH2 0x5097 JUMP JUMPDEST SWAP1 POP PUSH1 0x0 DUP2 SGT PUSH2 0x2F81 JUMPI PUSH1 0x0 DUP1 REVERT JUMPDEST SWAP7 SWAP2 SWAP6 POP SWAP4 POP SWAP2 POP POP JUMP JUMPDEST PUSH1 0x0 DUP1 PUSH2 0x1045 PUSH1 0x8 PUSH2 0x2B4A JUMP JUMPDEST PUSH1 0x0 DUP1 PUSH1 0x0 DUP1 PUSH1 0x0 PUSH2 0x2FA9 PUSH2 0x3B2F JUMP JUMPDEST PUSH1 0x1 PUSH1 0x1 PUSH1 0xA0 SHL SUB DUP9 AND PUSH1 0x0 SWAP1 DUP2 MSTORE PUSH1 0x20 DUP3 DUP2 MSTORE PUSH1 0x40 DUP1 DUP4 KECCAK256 DUP11 DUP5 MSTORE SWAP1 SWAP2 MSTORE SWAP1 KECCAK256 DUP1 SLOAD PUSH1 0x1 PUSH1 0x1 PUSH1 0x50 SHL SUB DUP2 AND SWAP7 POP PUSH1 0x1 PUSH1 0x50 SHL SWAP1 DIV PUSH4 0xFFFFFFFF AND SWAP5 POP SWAP1 SWAP2 POP DUP4 ISZERO PUSH2 0x3012 JUMPI DUP1 SLOAD PUSH2 0x300B SWAP1 PUSH1 0x1 PUSH1 0x70 SHL SWAP1 DIV PUSH7 0xFFFFFFFFFFFFFF AND PUSH2 0x3B3C JUMP JUMPDEST SWAP3 POP PUSH2 0x3027 JUMP JUMPDEST DUP1 SLOAD PUSH1 0x1 PUSH1 0x70 SHL SWAP1 DIV PUSH7 0xFFFFFFFFFFFFFF AND SWAP3 POP JUMPDEST SLOAD PUSH1 0x1 PUSH1 0xA8 SHL SWAP1 DIV PUSH1 0xA SWAP1 DUP2 SIGNEXTEND SWAP1 SIGNEXTEND SWAP8 SWAP4 SWAP7 POP SWAP2 SWAP5 POP SWAP3 POP POP JUMP JUMPDEST PUSH1 0x0 DUP2 SLT ISZERO PUSH2 0x3050 JUMPI PUSH1 0x0 DUP1 REVERT JUMPDEST PUSH2 0x3065 PUSH1 0x0 DUP4 PUSH2 0xFFFF AND DUP4 PUSH1 0x0 DUP1 PUSH1 0x0 PUSH2 0x3B4A JUMP JUMPDEST DUP2 PUSH2 0xFFFF AND PUSH32 0xD3625F7B5926828151EFE19F7AE655488287357D99EBE67E5FB20522CA739C0B DUP3 PUSH1 0x40 MLOAD PUSH2 0xB0B SWAP2 SWAP1 PUSH2 0x53F2 JUMP JUMPDEST DUP1 DUP3 SUB DUP3 DUP2 SGT ISZERO PUSH1 0x0 DUP4 SLT ISZERO EQ PUSH2 0x1045 JUMPI PUSH1 0x0 DUP1 REVERT JUMPDEST PUSH1 0x0 DUP1 PUSH2 0x30BF DUP8 PUSH2 0xFFFF AND PUSH2 0x134F JUMP JUMPDEST SWAP1 POP DUP1 PUSH1 0x40 ADD MLOAD PUSH1 0x0 EQ ISZERO PUSH2 0x30DE JUMPI PUSH2 0x30DB DUP8 PUSH2 0xFFFF AND PUSH2 0x133C JUMP JUMPDEST SWAP1 POP JUMPDEST PUSH1 0x40 MLOAD PUSH4 0xE9377111 PUSH1 0xE0 SHL DUP2 MSTORE PUSH2 0x3169 SWAP1 PUSH1 0x1 PUSH1 0x1 PUSH1 0xA0 SHL SUB DUP9 AND SWAP1 PUSH4 0xE9377111 SWAP1 PUSH2 0x3112 SWAP1 DUP10 SWAP1 DUP10 SWAP1 DUP10 SWAP1 PUSH1 0x4 ADD PUSH2 0x531B JUMP JUMPDEST PUSH1 0x20 PUSH1 0x40 MLOAD DUP1 DUP4 SUB DUP2 DUP7 DUP1 EXTCODESIZE ISZERO DUP1 ISZERO PUSH2 0x312A JUMPI PUSH1 0x0 DUP1 REVERT JUMPDEST POP GAS STATICCALL ISZERO DUP1 ISZERO PUSH2 0x313E JUMPI RETURNDATASIZE PUSH1 0x0 DUP1 RETURNDATACOPY RETURNDATASIZE PUSH1 0x0 REVERT JUMPDEST POP POP POP POP PUSH1 0x40 MLOAD RETURNDATASIZE PUSH1 0x1F NOT PUSH1 0x1F DUP3 ADD AND DUP3 ADD DUP1 PUSH1 0x40 MSTORE POP DUP2 ADD SWAP1 PUSH2 0x3162 SWAP2 SWAP1 PUSH2 0x5097 JUMP JUMPDEST DUP3 SWAP1 PUSH2 0x3C91 JUMP JUMPDEST SWAP2 POP POP JUMPDEST SWAP6 SWAP5 POP POP POP POP POP JUMP JUMPDEST PUSH1 0x0 PUSH10 0x7FFFFFFFFFFFFFFFFFFF NOT DUP3 SLT DUP1 ISZERO SWAP1 PUSH2 0x319D JUMPI POP PUSH10 0x7FFFFFFFFFFFFFFFFFFF DUP3 SGT ISZERO JUMPDEST PUSH2 0x1270 JUMPI PUSH1 0x0 DUP1 REVERT JUMPDEST PUSH1 0x0 DUP1 PUSH2 0x1045 PUSH1 0x19 PUSH2 0x2B4A JUMP JUMPDEST PUSH1 0x0 DUP3 PUSH2 0x31C2 JUMPI POP PUSH1 0x0 PUSH2 0x1045 JUMP JUMPDEST DUP3 DUP3 MUL DUP3 DUP5 DUP3 DUP2 PUSH2 0x31CF JUMPI INVALID JUMPDEST DIV EQ PUSH2 0x8C2 JUMPI PUSH1 0x0 DUP1 REVERT JUMPDEST PUSH1 0x0 DUP1 DUP3 GT PUSH2 0x31E8 JUMPI PUSH1 0x0 DUP1 REVERT JUMPDEST DUP2 DUP4 DUP2 PUSH2 0x31F1 JUMPI INVALID JUMPDEST DIV SWAP4 SWAP3 POP POP POP JUMP JUMPDEST PUSH1 0x0 PUSH2 0x3203 PUSH2 0x1278 JUMP JUMPDEST PUSH1 0x1 PUSH1 0x1 PUSH1 0xA0 SHL SUB DUP1 DUP8 AND PUSH1 0x0 SWAP1 DUP2 MSTORE PUSH1 0x20 SWAP3 DUP4 MSTORE PUSH1 0x40 DUP1 DUP3 KECCAK256 DUP11 MLOAD SWAP1 SWAP4 AND DUP3 MSTORE SWAP2 SWAP1 SWAP3 MSTORE SWAP1 KECCAK256 DUP1 SLOAD SWAP1 SWAP2 POP PUSH5 0xFFFFFFFFFF AND DUP4 DUP2 EQ DUP1 PUSH2 0x3242 JUMPI POP DUP1 ISZERO JUMPDEST PUSH2 0x325E JUMPI PUSH1 0x40 MLOAD PUSH3 0x461BCD PUSH1 0xE5 SHL DUP2 MSTORE PUSH1 0x4 ADD PUSH2 0x344 SWAP1 PUSH2 0x5447 JUMP JUMPDEST DUP2 SLOAD PUSH2 0x140 DUP9 ADD MLOAD MLOAD PUSH1 0x1 PUSH1 0x28 SHL DUP3 DIV PUSH1 0x1 PUSH1 0x1 PUSH1 0x50 SHL SUB SWAP1 DUP2 AND SWAP3 PUSH1 0x1 PUSH1 0x78 SHL SWAP1 DIV AND SWAP1 PUSH2 0xFFFF DUP9 DUP2 AND SWAP2 AND EQ ISZERO PUSH2 0x32D9 JUMPI PUSH2 0x329B DUP3 DUP7 PUSH2 0x2D09 JUMP JUMPDEST SWAP2 POP PUSH2 0x32A9 PUSH2 0x11CA DUP4 PUSH2 0x1261 JUMP JUMPDEST DUP5 SLOAD PUSH1 0x1 PUSH1 0x1 PUSH1 0x50 SHL SUB SWAP2 SWAP1 SWAP2 AND PUSH1 0x1 PUSH1 0x28 SHL MUL PUSH15 0xFFFFFFFFFFFFFFFFFFFF0000000000 NOT SWAP1 SWAP2 AND OR DUP5 SSTORE PUSH2 0x3333 JUMP JUMPDEST PUSH2 0x140 DUP10 ADD MLOAD PUSH1 0x20 ADD MLOAD PUSH2 0xFFFF DUP9 DUP2 AND SWAP2 AND EQ ISZERO PUSH2 0x137 JUMPI PUSH2 0x32FB DUP2 DUP7 PUSH2 0x2D09 JUMP JUMPDEST SWAP1 POP PUSH2 0x3309 PUSH2 0x11CA DUP3 PUSH2 0x1261 JUMP JUMPDEST DUP5 SLOAD PUSH1 0x1 PUSH1 0x1 PUSH1 0x50 SHL SUB SWAP2 SWAP1 SWAP2 AND PUSH1 0x1 PUSH1 0x78 SHL MUL PUSH10 0xFFFFFFFFFFFFFFFFFFFF PUSH1 0x78 SHL NOT SWAP1 SWAP2 AND OR DUP5 SSTORE JUMPDEST DUP2 ISZERO DUP1 ISZERO PUSH2 0x333F JUMPI POP DUP1 ISZERO JUMPDEST ISZERO PUSH2 0x3355 JUMPI DUP4 SLOAD PUSH5 0xFFFFFFFFFF NOT AND DUP5 SSTORE PUSH2 0x24F0 JUMP JUMPDEST DUP3 PUSH2 0x24F0 JUMPI PUSH2 0x3363 DUP7 PUSH2 0x3CC1 JUMP JUMPDEST DUP5 SLOAD PUSH5 0xFFFFFFFFFF NOT AND PUSH5 0xFFFFFFFFFF SWAP2 SWAP1 SWAP2 AND OR DUP5 SSTORE POP POP POP POP POP POP POP POP POP JUMP JUMPDEST PUSH1 0x0 DUP6 PUSH1 0x40 ADD MLOAD PUSH2 0xFFFF AND DUP6 PUSH2 0xFFFF AND EQ ISZERO PUSH2 0x33A0 JUMPI PUSH1 0x0 DUP1 REVERT JUMPDEST DUP3 PUSH2 0x33AD JUMPI POP PUSH1 0x0 PUSH2 0x316D JUMP JUMPDEST TIMESTAMP DUP5 GT PUSH2 0x33EA JUMPI PUSH1 0x0 DUP4 SLT ISZERO PUSH2 0x33C2 JUMPI PUSH1 0x0 DUP1 REVERT JUMPDEST PUSH1 0x0 PUSH2 0x33D3 DUP7 PUSH2 0xFFFF AND DUP7 TIMESTAMP PUSH2 0x14BB JUMP JUMPDEST SWAP1 POP PUSH2 0x33E2 PUSH2 0x980 DUP3 DUP7 PUSH2 0x1637 JUMP JUMPDEST SWAP2 POP POP PUSH2 0x316D JUMP JUMPDEST PUSH2 0x33FD DUP6 DUP6 DUP6 DUP6 DUP11 PUSH2 0x100 ADD MLOAD TIMESTAMP PUSH2 0x3CD5 JUMP JUMPDEST SWAP1 POP PUSH1 0x0 DUP4 SGT DUP1 ISZERO PUSH2 0x340D JUMPI POP DUP1 ISZERO JUMPDEST ISZERO PUSH2 0x3429 JUMPI PUSH2 0x160 DUP7 ADD MLOAD PUSH2 0x3426 SWAP1 PUSH2 0x980 SWAP1 DUP6 PUSH2 0x1637 JUMP JUMPDEST SWAP1 POP JUMPDEST PUSH1 0x0 DUP4 SLT ISZERO PUSH2 0x316D JUMPI PUSH1 0x0 DUP2 SGT PUSH2 0x316D JUMPI PUSH1 0x40 MLOAD PUSH3 0x461BCD PUSH1 0xE5 SHL DUP2 MSTORE PUSH1 0x4 ADD PUSH2 0x344 SWAP1 PUSH2 0x547E JUMP JUMPDEST PUSH1 0x0 PUSH4 0x5F5E100 DUP4 PUSH1 0x40 ADD MLOAD EQ ISZERO PUSH2 0x346B JUMPI POP DUP1 PUSH2 0x1045 JUMP JUMPDEST PUSH2 0x8C2 PUSH4 0x5F5E100 PUSH2 0x11B6 DUP6 PUSH1 0x40 ADD MLOAD DUP6 PUSH2 0x2AB5 SWAP1 SWAP2 SWAP1 PUSH4 0xFFFFFFFF AND JUMP JUMPDEST PUSH1 0x40 DUP1 MLOAD PUSH1 0x1 PUSH1 0x1 PUSH1 0xA0 SHL SUB DUP5 DUP2 AND PUSH1 0x24 DUP1 DUP5 ADD SWAP2 SWAP1 SWAP2 MSTORE DUP4 MLOAD DUP1 DUP5 SUB SWAP1 SWAP2 ADD DUP2 MSTORE PUSH1 0x44 SWAP1 SWAP3 ADD DUP4 MSTORE PUSH1 0x20 DUP3 ADD DUP1 MLOAD PUSH1 0x1 PUSH1 0x1 PUSH1 0xE0 SHL SUB AND PUSH1 0x1 PUSH1 0x1 PUSH1 0xE0 SHL SUB NOT DUP7 AND OR DUP2 MSTORE SWAP3 MLOAD DUP3 MLOAD PUSH1 0x0 SWAP5 DUP6 SWAP5 DUP6 SWAP5 DUP11 AND SWAP4 SWAP1 SWAP3 SWAP1 SWAP2 DUP3 SWAP2 DUP1 DUP4 DUP4 JUMPDEST PUSH1 0x20 DUP4 LT PUSH2 0x3507 JUMPI DUP1 MLOAD DUP3 MSTORE PUSH1 0x1F NOT SWAP1 SWAP3 ADD SWAP2 PUSH1 0x20 SWAP2 DUP3 ADD SWAP2 ADD PUSH2 0x34E8 JUMP JUMPDEST PUSH1 0x1 DUP4 PUSH1 0x20 SUB PUSH2 0x100 EXP SUB DUP1 NOT DUP3 MLOAD AND DUP2 DUP5 MLOAD AND DUP1 DUP3 OR DUP6 MSTORE POP POP POP POP POP POP SWAP1 POP ADD SWAP2 POP POP PUSH1 0x0 PUSH1 0x40 MLOAD DUP1 DUP4 SUB DUP2 DUP6 GAS STATICCALL SWAP2 POP POP RETURNDATASIZE DUP1 PUSH1 0x0 DUP2 EQ PUSH2 0x3567 JUMPI PUSH1 0x40 MLOAD SWAP2 POP PUSH1 0x1F NOT PUSH1 0x3F RETURNDATASIZE ADD AND DUP3 ADD PUSH1 0x40 MSTORE RETURNDATASIZE DUP3 MSTORE RETURNDATASIZE PUSH1 0x0 PUSH1 0x20 DUP5 ADD RETURNDATACOPY PUSH2 0x356C JUMP JUMPDEST PUSH1 0x60 SWAP2 POP JUMPDEST POP SWAP2 POP SWAP2 POP DUP2 PUSH2 0x357B JUMPI PUSH1 0x0 DUP1 REVERT JUMPDEST DUP1 DUP1 PUSH1 0x20 ADD SWAP1 MLOAD PUSH1 0x20 DUP2 LT ISZERO PUSH2 0x3590 JUMPI PUSH1 0x0 DUP1 REVERT JUMPDEST POP MLOAD SWAP7 SWAP6 POP POP POP POP POP POP JUMP JUMPDEST PUSH2 0x35A4 PUSH2 0x3DE4 JUMP JUMPDEST SLOAD DUP3 MLOAD PUSH1 0x40 MLOAD PUSH4 0xE8EDA9DF PUSH1 0xE0 SHL DUP2 MSTORE PUSH1 0x1 PUSH1 0x1 PUSH1 0xA0 SHL SUB SWAP1 SWAP3 AND SWAP2 PUSH4 0xE8EDA9DF SWAP2 PUSH2 0x35D9 SWAP2 DUP6 SWAP1 ADDRESS SWAP1 PUSH1 0x0 SWAP1 PUSH1 0x4 ADD PUSH2 0x52C6 JUMP JUMPDEST PUSH1 0x0 PUSH1 0x40 MLOAD DUP1 DUP4 SUB DUP2 PUSH1 0x0 DUP8 DUP1 EXTCODESIZE ISZERO DUP1 ISZERO PUSH2 0x35F3 JUMPI PUSH1 0x0 DUP1 REVERT JUMPDEST POP GAS CALL ISZERO DUP1 ISZERO PUSH2 0x3607 JUMPI RETURNDATASIZE PUSH1 0x0 DUP1 RETURNDATACOPY RETURNDATASIZE PUSH1 0x0 REVERT JUMPDEST POP POP POP POP POP POP JUMP JUMPDEST DUP2 MLOAD PUSH1 0x40 MLOAD PUSH4 0x140E25AD PUSH1 0xE3 SHL DUP2 MSTORE PUSH1 0x0 SWAP2 PUSH1 0x1 PUSH1 0x1 PUSH1 0xA0 SHL SUB AND SWAP1 PUSH4 0xA0712D68 SWAP1 PUSH2 0x363F SWAP1 DUP6 SWAP1 PUSH1 0x4 ADD PUSH2 0x53F2 JUMP JUMPDEST PUSH1 0x20 PUSH1 0x40 MLOAD DUP1 DUP4 SUB DUP2 PUSH1 0x0 DUP8 DUP1 EXTCODESIZE ISZERO DUP1 ISZERO PUSH2 0x3659 JUMPI PUSH1 0x0 DUP1 REVERT JUMPDEST POP GAS CALL ISZERO DUP1 ISZERO PUSH2 0x366D JUMPI RETURNDATASIZE PUSH1 0x0 DUP1 RETURNDATACOPY RETURNDATASIZE PUSH1 0x0 REVERT JUMPDEST POP POP POP POP PUSH1 0x40 MLOAD RETURNDATASIZE PUSH1 0x1F NOT PUSH1 0x1F DUP3 ADD AND DUP3 ADD DUP1 PUSH1 0x40 MSTORE POP DUP2 ADD SWAP1 PUSH2 0x3691 SWAP2 SWAP1 PUSH2 0x5097 JUMP JUMPDEST SWAP1 POP DUP1 ISZERO PUSH2 0x141B JUMPI PUSH1 0x40 MLOAD PUSH3 0x461BCD PUSH1 0xE5 SHL DUP2 MSTORE PUSH1 0x4 ADD PUSH2 0x344 SWAP1 PUSH2 0x5516 JUMP JUMPDEST DUP2 PUSH1 0x0 ADD MLOAD PUSH1 0x1 PUSH1 0x1 PUSH1 0xA0 SHL SUB AND PUSH4 0x1249C58B DUP3 PUSH1 0x40 MLOAD DUP3 PUSH4 0xFFFFFFFF AND PUSH1 0xE0 SHL DUP2 MSTORE PUSH1 0x4 ADD PUSH1 0x0 PUSH1 0x40 MLOAD DUP1 DUP4 SUB DUP2 DUP6 DUP9 DUP1 EXTCODESIZE ISZERO DUP1 ISZERO PUSH2 0x36F0 JUMPI PUSH1 0x0 DUP1 REVERT JUMPDEST POP GAS CALL ISZERO DUP1 ISZERO PUSH2 0x3704 JUMPI RETURNDATASIZE PUSH1 0x0 DUP1 RETURNDATACOPY RETURNDATASIZE PUSH1 0x0 REVERT JUMPDEST POP POP POP POP POP POP POP JUMP JUMPDEST PUSH1 0x0 DUP3 DUP3 GT ISZERO PUSH2 0x1EE7 JUMPI PUSH1 0x40 DUP1 MLOAD PUSH3 0x461BCD PUSH1 0xE5 SHL DUP2 MSTORE PUSH1 0x20 PUSH1 0x4 DUP3 ADD MSTORE PUSH1 0x1E PUSH1 0x24 DUP3 ADD MSTORE PUSH32 0x536166654D6174683A207375627472616374696F6E206F766572666C6F770000 PUSH1 0x44 DUP3 ADD MSTORE SWAP1 MLOAD SWAP1 DUP2 SWAP1 SUB PUSH1 0x64 ADD SWAP1 REVERT JUMPDEST PUSH1 0x0 DUP1 PUSH2 0x1045 PUSH1 0x14 PUSH2 0x2B4A JUMP JUMPDEST PUSH2 0x3779 PUSH2 0x4C25 JUMP JUMPDEST PUSH1 0x0 DUP1 PUSH1 0x0 PUSH2 0x28F7 DUP6 PUSH2 0x3DF1 JUMP JUMPDEST PUSH2 0x378F PUSH2 0x4C25 JUMP JUMPDEST PUSH1 0x0 DUP1 PUSH2 0x379C DUP6 DUP6 PUSH2 0x2E82 JUMP JUMPDEST SWAP2 POP SWAP2 POP DUP2 PUSH1 0x0 EQ ISZERO PUSH2 0x37BA JUMPI PUSH2 0x37B2 DUP6 PUSH2 0x3DF1 JUMP JUMPDEST SWAP2 SWAP4 POP SWAP1 SWAP2 POP POP JUMPDEST PUSH1 0x40 DUP1 MLOAD PUSH1 0x60 DUP2 ADD DUP3 MSTORE PUSH1 0x0 DUP2 MSTORE PUSH1 0x20 DUP2 ADD SWAP4 SWAP1 SWAP4 MSTORE PUSH1 0xFF SWAP1 SWAP2 AND PUSH1 0xA EXP SWAP1 DUP3 ADD MSTORE SWAP1 POP SWAP3 SWAP2 POP POP JUMP JUMPDEST PUSH1 0x0 DUP2 PUSH2 0x37F3 JUMPI POP PUSH1 0x0 PUSH2 0x1668 JUMP JUMPDEST PUSH1 0x0 DUP1 PUSH2 0x3800 DUP8 DUP6 PUSH2 0x3E74 JUMP JUMPDEST SWAP2 POP SWAP2 POP PUSH1 0x0 PUSH2 0x381F DUP8 PUSH1 0x40 ADD MLOAD DUP9 PUSH1 0x0 ADD MLOAD DUP9 DUP6 DUP13 PUSH1 0x0 ADD MLOAD PUSH2 0x30AF JUMP JUMPDEST SWAP1 POP PUSH2 0x383D PUSH2 0x382D DUP5 PUSH2 0x167D JUMP JUMPDEST PUSH2 0x160 DUP10 ADD MLOAD PUSH2 0x1B62 SWAP1 DUP5 PUSH2 0x1637 JUMP JUMPDEST SWAP9 SWAP8 POP POP POP POP POP POP POP POP JUMP JUMPDEST PUSH1 0x0 PUSH2 0x3854 DUP5 PUSH2 0x3ECD JUMP JUMPDEST ISZERO PUSH2 0x8C2 JUMPI PUSH1 0x0 PUSH2 0x3863 PUSH2 0x1278 JUMP JUMPDEST PUSH1 0x1 PUSH1 0x1 PUSH1 0xA0 SHL SUB DUP1 DUP7 AND PUSH1 0x0 SWAP1 DUP2 MSTORE PUSH1 0x20 SWAP3 DUP4 MSTORE PUSH1 0x40 DUP1 DUP3 KECCAK256 DUP10 MLOAD SWAP1 SWAP4 AND DUP3 MSTORE SWAP2 SWAP1 SWAP3 MSTORE DUP1 DUP3 KECCAK256 SWAP1 DUP8 ADD MLOAD SWAP1 SWAP3 POP PUSH2 0x389F SWAP1 PUSH2 0xFFFF AND PUSH2 0x292D JUMP JUMPDEST DUP3 SLOAD SWAP1 SWAP2 POP PUSH1 0x1 PUSH1 0x1 PUSH1 0x50 SHL SUB PUSH1 0x1 PUSH1 0x28 SHL DUP3 DIV DUP2 AND SWAP2 PUSH1 0x1 PUSH1 0x78 SHL SWAP1 DIV AND DUP2 ISZERO PUSH2 0x38F5 JUMPI PUSH2 0x38F2 PUSH2 0x38EB DUP5 DUP11 PUSH2 0x140 ADD MLOAD PUSH1 0x0 PUSH1 0x2 DUP2 LT PUSH2 0x38DD JUMPI INVALID JUMPDEST PUSH1 0x20 MUL ADD MLOAD DUP12 MLOAD DUP11 DUP8 PUSH2 0x3EF6 JUMP JUMPDEST DUP7 SWAP1 PUSH2 0x2D09 JUMP JUMPDEST SWAP5 POP JUMPDEST DUP1 ISZERO PUSH2 0x3925 JUMPI PUSH2 0x3922 PUSH2 0x38EB DUP5 DUP11 PUSH2 0x140 ADD MLOAD PUSH1 0x1 PUSH1 0x2 DUP2 LT PUSH2 0x3914 JUMPI INVALID JUMPDEST PUSH1 0x20 MUL ADD MLOAD DUP12 MLOAD DUP11 DUP7 PUSH2 0x3EF6 JUMP JUMPDEST SWAP5 POP JUMPDEST POP POP POP POP SWAP4 SWAP3 POP POP POP JUMP JUMPDEST PUSH1 0x0 PUSH2 0x8C2 PUSH2 0x3943 DUP5 PUSH4 0x3B9ACA00 PUSH2 0x2AB5 JUMP JUMPDEST DUP4 PUSH2 0x2B03 JUMP JUMPDEST PUSH1 0x0 DUP1 PUSH2 0x3991 DUP9 PUSH1 0x40 MLOAD DUP1 PUSH1 0xA0 ADD PUSH1 0x40 MSTORE DUP1 DUP11 PUSH1 0x1 PUSH1 0x1 PUSH1 0xA0 SHL SUB AND DUP2 MSTORE PUSH1 0x20 ADD DUP11 PUSH1 0x1 PUSH1 0x1 PUSH1 0xA0 SHL SUB AND DUP2 MSTORE PUSH1 0x20 ADD DUP10 DUP2 MSTORE PUSH1 0x20 ADD DUP9 DUP2 MSTORE PUSH1 0x20 ADD PUSH1 0x0 DUP2 MSTORE POP DUP7 DUP7 PUSH2 0x3FA7 JUMP JUMPDEST SWAP1 SWAP10 SWAP1 SWAP9 POP SWAP7 POP POP POP POP POP POP POP JUMP JUMPDEST PUSH1 0x0 DUP1 PUSH2 0x1045 PUSH1 0x10 PUSH2 0x2B4A JUMP JUMPDEST DUP1 PUSH1 0x5 DUP6 PUSH1 0x60 ADD MLOAD PUSH1 0x5 DUP2 GT ISZERO PUSH2 0x39C0 JUMPI INVALID JUMPDEST EQ ISZERO PUSH2 0x39E5 JUMPI PUSH1 0x0 PUSH2 0x39D1 DUP5 PUSH2 0x134F JUMP JUMPDEST SWAP1 POP PUSH2 0x39E1 DUP2 PUSH1 0x0 ADD MLOAD DUP5 PUSH2 0x421C JUMP JUMPDEST SWAP3 POP POP JUMPDEST PUSH1 0x0 DUP3 SGT ISZERO PUSH2 0x3A11 JUMPI PUSH1 0x0 PUSH2 0x39FB DUP7 DUP7 DUP6 PUSH2 0x42A2 JUMP JUMPDEST SWAP1 POP DUP6 PUSH1 0x20 ADD MLOAD ISZERO PUSH2 0x3A0B JUMPI DUP1 SWAP2 POP JUMPDEST POP PUSH2 0x1668 JUMP JUMPDEST PUSH1 0x3 DUP6 PUSH1 0x60 ADD MLOAD PUSH1 0x5 DUP2 GT ISZERO PUSH2 0x3A23 JUMPI INVALID JUMPDEST EQ ISZERO PUSH2 0x3A40 JUMPI PUSH2 0x3A3B DUP5 PUSH2 0x3A36 DUP5 PUSH2 0x1629 JUMP JUMPDEST PUSH2 0x4395 JUMP JUMPDEST PUSH2 0x1668 JUMP JUMPDEST DUP5 MLOAD PUSH2 0x1668 SWAP1 DUP6 PUSH2 0x3A50 DUP6 PUSH2 0x1629 JUMP JUMPDEST PUSH2 0x43CB JUMP JUMPDEST PUSH1 0x0 DUP1 PUSH1 0x2 DUP7 PUSH1 0x60 ADD MLOAD PUSH1 0x5 DUP2 GT ISZERO PUSH2 0x3A6A JUMPI INVALID JUMPDEST EQ ISZERO PUSH2 0x3A82 JUMPI PUSH2 0x3A7B DUP7 DUP6 DUP6 PUSH2 0x4442 JUMP JUMPDEST SWAP1 POP PUSH2 0x3ADF JUMP JUMPDEST PUSH1 0x0 PUSH2 0x3A8D DUP7 PUSH2 0x134F JUMP JUMPDEST SWAP1 POP PUSH1 0x5 DUP8 PUSH1 0x60 ADD MLOAD PUSH1 0x5 DUP2 GT ISZERO PUSH2 0x3AA1 JUMPI INVALID JUMPDEST EQ ISZERO PUSH2 0x3AB9 JUMPI PUSH2 0x3AB2 DUP2 DUP7 DUP7 PUSH2 0x44FF JUMP JUMPDEST SWAP2 POP PUSH2 0x3ADD JUMP JUMPDEST PUSH1 0x1 DUP8 PUSH1 0x60 ADD MLOAD PUSH1 0x5 DUP2 GT ISZERO PUSH2 0x3ACB JUMPI INVALID JUMPDEST EQ ISZERO PUSH2 0x137 JUMPI PUSH2 0x3AB2 DUP8 DUP3 DUP8 DUP8 PUSH2 0x45B0 JUMP JUMPDEST POP JUMPDEST PUSH2 0x12B0 PUSH2 0x980 DUP3 PUSH2 0x167D JUMP JUMPDEST PUSH1 0x0 DUP1 PUSH2 0x1045 PUSH1 0x7 PUSH2 0x2B4A JUMP JUMPDEST PUSH1 0x0 DUP1 PUSH1 0x0 PUSH2 0x3B05 PUSH2 0x46AE JUMP JUMPDEST PUSH1 0x0 SWAP5 DUP6 MSTORE PUSH1 0x20 MSTORE POP POP PUSH1 0x40 SWAP1 SWAP2 KECCAK256 SLOAD PUSH1 0x1 PUSH1 0x1 PUSH1 0xA0 SHL SUB DUP2 AND SWAP3 PUSH1 0x1 PUSH1 0xA0 SHL SWAP1 SWAP2 DIV PUSH1 0xFF AND SWAP2 POP JUMP JUMPDEST PUSH1 0x0 DUP1 PUSH2 0x1045 PUSH1 0x6 PUSH2 0x2B4A JUMP JUMPDEST PUSH1 0x8 DUP2 SWAP1 SHR PUSH1 0xFF SWAP1 SWAP2 AND SHL SWAP1 JUMP JUMPDEST PUSH1 0x0 PUSH2 0x3B54 PUSH2 0x3B2F JUMP JUMPDEST PUSH1 0x1 PUSH1 0x1 PUSH1 0xA0 SHL SUB DUP9 AND PUSH1 0x0 SWAP1 DUP2 MSTORE PUSH1 0x20 DUP3 DUP2 MSTORE PUSH1 0x40 DUP1 DUP4 KECCAK256 DUP11 DUP5 MSTORE SWAP1 SWAP2 MSTORE SWAP1 KECCAK256 SWAP1 SWAP2 POP PUSH11 0x7FFFFFFFFFFFFFFFFFFFFF NOT DUP7 SLT DUP1 ISZERO SWAP1 PUSH2 0x3B9F JUMPI POP PUSH11 0x7FFFFFFFFFFFFFFFFFFFFF DUP7 SGT ISZERO JUMPDEST PUSH2 0x3BA8 JUMPI PUSH1 0x0 DUP1 REVERT JUMPDEST PUSH1 0x0 DUP6 SLT ISZERO DUP1 ISZERO PUSH2 0x3BC0 JUMPI POP PUSH1 0x1 PUSH1 0x1 PUSH1 0x50 SHL SUB DUP6 SGT ISZERO JUMPDEST PUSH2 0x3BC9 JUMPI PUSH1 0x0 DUP1 REVERT JUMPDEST DUP4 PUSH2 0x3C09 JUMPI PUSH7 0xFFFFFFFFFFFFFF DUP4 GT ISZERO PUSH2 0x3BE2 JUMPI PUSH1 0x0 DUP1 REVERT JUMPDEST DUP1 SLOAD PUSH7 0xFFFFFFFFFFFFFF PUSH1 0x70 SHL NOT AND PUSH1 0x1 PUSH1 0x70 SHL PUSH7 0xFFFFFFFFFFFFFF DUP6 AND MUL OR DUP2 SSTORE PUSH2 0x3C23 JUMP JUMPDEST DUP1 SLOAD PUSH1 0x1 PUSH1 0x50 SHL SWAP1 DIV PUSH4 0xFFFFFFFF AND DUP5 EQ PUSH2 0x3C23 JUMPI PUSH1 0x0 DUP1 REVERT JUMPDEST DUP1 SLOAD PUSH1 0xA SWAP7 SWAP1 SWAP7 SIGNEXTEND PUSH11 0xFFFFFFFFFFFFFFFFFFFFFF AND PUSH1 0x1 PUSH1 0xA8 SHL MUL PUSH1 0x1 PUSH1 0x1 PUSH1 0xA8 SHL SUB PUSH1 0x1 PUSH1 0x1 PUSH1 0x50 SHL SUB SWAP1 SWAP7 AND PUSH1 0x1 PUSH1 0x1 PUSH1 0x50 SHL SUB NOT PUSH4 0xFFFFFFFF SWAP1 SWAP7 AND PUSH1 0x1 PUSH1 0x50 SHL MUL PUSH4 0xFFFFFFFF PUSH1 0x50 SHL NOT SWAP1 SWAP9 AND SWAP8 SWAP1 SWAP8 OR SWAP5 SWAP1 SWAP5 AND SWAP6 SWAP1 SWAP6 OR SWAP4 SWAP1 SWAP4 AND SWAP2 SWAP1 SWAP2 OR SWAP1 SWAP3 SSTORE POP POP POP POP JUMP JUMPDEST PUSH1 0x0 PUSH4 0x5F5E100 DUP4 PUSH1 0x40 ADD MLOAD EQ ISZERO PUSH2 0x3CAA JUMPI POP DUP1 PUSH2 0x1045 JUMP JUMPDEST PUSH1 0x40 DUP4 ADD MLOAD PUSH2 0x8C2 SWAP1 PUSH2 0x11B6 DUP5 PUSH4 0x5F5E100 PUSH2 0x2AB5 JUMP JUMPDEST PUSH1 0x0 PUSH5 0xFFFFFFFFFF DUP3 GT ISZERO PUSH2 0x1270 JUMPI PUSH1 0x0 DUP1 REVERT JUMPDEST PUSH1 0x0 DUP1 PUSH2 0x3CE4 DUP9 DUP9 DUP7 DUP7 PUSH2 0x46BB JUMP JUMPDEST SWAP1 POP PUSH1 0x0 PUSH2 0x3CF1 DUP8 PUSH2 0x472A JUMP JUMPDEST SWAP1 POP PUSH11 0xFFFFFFFFFFFFFFFFFFFFFF DUP2 LT PUSH2 0x3D0A JUMPI PUSH1 0x0 DUP1 REVERT JUMPDEST PUSH1 0x0 PUSH1 0x78 DUP8 PUSH4 0xFFFFFFFF AND SWAP1 SHL PUSH1 0x98 DUP4 SWAP1 SHL PUSH1 0xF0 DUP6 SWAP1 SHL PUSH1 0xF8 PUSH1 0x0 DUP13 SGT PUSH2 0x3D32 JUMPI PUSH1 0x1 PUSH2 0x3D35 JUMP JUMPDEST PUSH1 0x0 JUMPDEST PUSH1 0x5 DUP2 GT ISZERO PUSH2 0x3D40 JUMPI INVALID JUMPDEST PUSH1 0xFF AND SWAP1 SHL OR OR OR PUSH1 0x0 SHL SWAP1 POP PUSH20 0x0 PUSH4 0xE50F349E DUP12 DUP4 PUSH1 0x40 MLOAD DUP4 PUSH4 0xFFFFFFFF AND PUSH1 0xE0 SHL DUP2 MSTORE PUSH1 0x4 ADD PUSH2 0x3D86 SWAP3 SWAP2 SWAP1 PUSH2 0x5996 JUMP JUMPDEST PUSH1 0x20 PUSH1 0x40 MLOAD DUP1 DUP4 SUB DUP2 DUP7 DUP1 EXTCODESIZE ISZERO DUP1 ISZERO PUSH2 0x3D9E JUMPI PUSH1 0x0 DUP1 REVERT JUMPDEST POP GAS DELEGATECALL ISZERO DUP1 ISZERO PUSH2 0x3DB2 JUMPI RETURNDATASIZE PUSH1 0x0 DUP1 RETURNDATACOPY RETURNDATASIZE PUSH1 0x0 REVERT JUMPDEST POP POP POP POP PUSH1 0x40 MLOAD RETURNDATASIZE PUSH1 0x1F NOT PUSH1 0x1F DUP3 ADD AND DUP3 ADD DUP1 PUSH1 0x40 MSTORE POP DUP2 ADD SWAP1 PUSH2 0x3DD6 SWAP2 SWAP1 PUSH2 0x5097 JUMP JUMPDEST SWAP11 SWAP10 POP POP POP POP POP POP POP POP POP POP JUMP JUMPDEST PUSH1 0x0 DUP1 PUSH2 0x1045 PUSH1 0x13 PUSH2 0x2B4A JUMP JUMPDEST PUSH1 0x0 DUP1 PUSH1 0x0 DUP1 PUSH1 0x0 PUSH2 0x3E02 DUP7 PUSH2 0x3AF8 JUMP JUMPDEST SWAP1 SWAP3 POP SWAP1 POP PUSH1 0x0 PUSH1 0x1 PUSH1 0x1 PUSH1 0xA0 SHL SUB DUP4 AND PUSH2 0x3E27 JUMPI POP PUSH1 0x0 SWAP1 POP PUSH5 0x2540BE400 PUSH2 0x2F81 JUMP JUMPDEST DUP3 PUSH1 0x1 PUSH1 0x1 PUSH1 0xA0 SHL SUB AND PUSH4 0xB2FFFB04 PUSH1 0x40 MLOAD DUP2 PUSH4 0xFFFFFFFF AND PUSH1 0xE0 SHL DUP2 MSTORE PUSH1 0x4 ADD PUSH1 0x20 PUSH1 0x40 MLOAD DUP1 DUP4 SUB DUP2 DUP7 DUP1 EXTCODESIZE ISZERO DUP1 ISZERO PUSH2 0x3E60 JUMPI PUSH1 0x0 DUP1 REVERT JUMPDEST POP GAS STATICCALL ISZERO DUP1 ISZERO PUSH2 0x2F4E JUMPI RETURNDATASIZE PUSH1 0x0 DUP1 RETURNDATACOPY RETURNDATASIZE PUSH1 0x0 REVERT JUMPDEST PUSH1 0x0 DUP1 PUSH1 0x0 DUP5 PUSH1 0x60 ADD MLOAD GT ISZERO PUSH2 0xC0F JUMPI PUSH2 0x3EA3 DUP5 PUSH1 0x60 ADD MLOAD PUSH2 0x1CA7 DUP7 PUSH1 0x80 ADD MLOAD DUP7 PUSH2 0x31B3 SWAP1 SWAP2 SWAP1 PUSH4 0xFFFFFFFF AND JUMP JUMPDEST SWAP2 POP PUSH2 0x3EC4 DUP5 PUSH1 0x60 ADD MLOAD PUSH2 0x1CA7 DUP7 PUSH1 0xA0 ADD MLOAD DUP7 PUSH2 0x31B3 SWAP1 SWAP2 SWAP1 PUSH4 0xFFFFFFFF AND JUMP JUMPDEST SWAP1 POP SWAP3 POP SWAP3 SWAP1 POP JUMP JUMPDEST PUSH2 0x140 DUP2 ADD MLOAD MLOAD PUSH1 0x0 SWAP1 PUSH2 0xFFFF AND ISZERO ISZERO DUP1 PUSH2 0x1045 JUMPI POP POP PUSH2 0x140 ADD MLOAD PUSH1 0x20 ADD MLOAD PUSH2 0xFFFF AND ISZERO ISZERO SWAP1 JUMP JUMPDEST PUSH1 0x0 DUP1 PUSH2 0x3F01 PUSH2 0x1670 JUMP JUMPDEST PUSH1 0x1 PUSH1 0x1 PUSH1 0xA0 SHL SUB DUP7 AND PUSH1 0x0 SWAP1 DUP2 MSTORE PUSH1 0x20 SWAP2 DUP3 MSTORE PUSH1 0x40 DUP1 DUP3 KECCAK256 DUP8 DUP4 MSTORE DUP4 MSTORE DUP1 DUP3 KECCAK256 PUSH2 0xFFFF DUP11 AND DUP4 MSTORE SWAP1 SWAP3 MSTORE SWAP1 DUP2 KECCAK256 DUP1 SLOAD SWAP1 SWAP3 POP PUSH1 0x1 PUSH1 0x1 PUSH1 0x50 SHL SUB DUP1 DUP3 AND SWAP3 PUSH1 0x1 PUSH1 0x50 SHL SWAP1 SWAP3 DIV AND SWAP1 PUSH2 0x3F5B PUSH2 0x1CAD DUP4 PUSH2 0x1CA7 DUP10 DUP8 PUSH2 0x31B3 JUMP JUMPDEST SWAP1 POP PUSH1 0x0 PUSH2 0x3F6C DUP11 PUSH2 0xFFFF AND PUSH2 0x292D JUMP JUMPDEST SWAP1 POP PUSH1 0x0 PUSH2 0x3F7A DUP13 DUP4 PUSH2 0x2A90 JUMP JUMPDEST SWAP1 POP PUSH2 0x3F97 DUP2 PUSH2 0x11B6 DUP15 PUSH1 0x0 ADD MLOAD DUP7 PUSH2 0x2AB5 SWAP1 SWAP2 SWAP1 PUSH4 0xFFFFFFFF AND JUMP JUMPDEST SWAP13 SWAP12 POP POP POP POP POP POP POP POP POP POP POP POP JUMP JUMPDEST PUSH1 0x0 DUP1 PUSH1 0x0 DUP1 PUSH2 0x3FB6 DUP9 PUSH2 0x474B JUMP JUMPDEST SWAP2 POP SWAP2 POP PUSH1 0x0 DUP1 DUP9 PUSH1 0x80 ADD MLOAD SLT ISZERO PUSH2 0x402B JUMPI PUSH1 0x4 DUP4 PUSH1 0x60 ADD MLOAD PUSH1 0x5 DUP2 GT ISZERO PUSH2 0x3FDA JUMPI INVALID JUMPDEST EQ ISZERO PUSH2 0x3FF7 JUMPI PUSH2 0x3FF0 PUSH2 0x36B DUP10 PUSH1 0x80 ADD MLOAD PUSH2 0x1629 JUMP JUMPDEST SWAP1 POP PUSH2 0x402B JUMP JUMPDEST PUSH1 0x0 PUSH2 0x4018 PUSH2 0x980 DUP11 PUSH1 0x80 ADD MLOAD DUP13 PUSH2 0x160 ADD MLOAD PUSH2 0x1DC7 SWAP1 SWAP2 SWAP1 PUSH4 0xFFFFFFFF AND JUMP JUMPDEST SWAP1 POP PUSH2 0x4027 PUSH2 0x36B DUP5 DUP4 PUSH2 0x1DF2 JUMP JUMPDEST SWAP2 POP POP JUMPDEST PUSH1 0x40 DUP9 ADD MLOAD PUSH1 0x0 SWAP1 ISZERO PUSH2 0x4103 JUMPI PUSH1 0x0 PUSH2 0x4044 DUP5 ADDRESS PUSH2 0x1E2E JUMP JUMPDEST SWAP1 POP DUP11 PUSH1 0x0 ADD MLOAD PUSH1 0x1 PUSH1 0x1 PUSH1 0xA0 SHL SUB AND PUSH4 0x44F05108 DUP12 PUSH1 0x0 ADD MLOAD DUP13 PUSH1 0x20 ADD MLOAD DUP14 PUSH1 0x40 ADD MLOAD DUP15 PUSH1 0x60 ADD MLOAD DUP9 DUP16 DUP16 PUSH1 0x40 MLOAD DUP9 PUSH4 0xFFFFFFFF AND PUSH1 0xE0 SHL DUP2 MSTORE PUSH1 0x4 ADD PUSH2 0x4092 SWAP8 SWAP7 SWAP6 SWAP5 SWAP4 SWAP3 SWAP2 SWAP1 PUSH2 0x5265 JUMP JUMPDEST PUSH1 0x20 PUSH1 0x40 MLOAD DUP1 DUP4 SUB DUP2 PUSH1 0x0 DUP8 DUP1 EXTCODESIZE ISZERO DUP1 ISZERO PUSH2 0x40AC JUMPI PUSH1 0x0 DUP1 REVERT JUMPDEST POP GAS CALL ISZERO DUP1 ISZERO PUSH2 0x40C0 JUMPI RETURNDATASIZE PUSH1 0x0 DUP1 RETURNDATACOPY RETURNDATASIZE PUSH1 0x0 REVERT JUMPDEST POP POP POP POP PUSH1 0x40 MLOAD RETURNDATASIZE PUSH1 0x1F NOT PUSH1 0x1F DUP3 ADD AND DUP3 ADD DUP1 PUSH1 0x40 MSTORE POP DUP2 ADD SWAP1 PUSH2 0x40E4 SWAP2 SWAP1 PUSH2 0x5097 JUMP JUMPDEST SWAP6 POP PUSH1 0x0 PUSH2 0x40F2 DUP6 ADDRESS PUSH2 0x1E2E JUMP JUMPDEST SWAP1 POP PUSH2 0x40FE DUP2 DUP4 PUSH2 0x1ED8 JUMP JUMPDEST SWAP3 POP POP POP JUMPDEST DUP2 DUP2 LT ISZERO PUSH2 0x419E JUMPI DUP1 DUP3 SUB PUSH1 0x3 DUP5 PUSH1 0x60 ADD MLOAD PUSH1 0x5 DUP2 GT ISZERO PUSH2 0x4120 JUMPI INVALID JUMPDEST EQ ISZERO PUSH2 0x415E JUMPI CALLVALUE DUP2 GT ISZERO PUSH2 0x4146 JUMPI PUSH1 0x40 MLOAD PUSH3 0x461BCD PUSH1 0xE5 SHL DUP2 MSTORE PUSH1 0x4 ADD PUSH2 0x344 SWAP1 PUSH2 0x557B JUMP JUMPDEST PUSH2 0x4156 DUP11 PUSH1 0x0 ADD MLOAD DUP3 CALLVALUE SUB PUSH2 0x4395 JUMP JUMPDEST DUP3 SWAP2 POP PUSH2 0x419C JUMP JUMPDEST PUSH1 0x0 PUSH2 0x4183 DUP12 PUSH1 0x0 ADD MLOAD DUP14 PUSH1 0x40 ADD MLOAD PUSH2 0xFFFF AND PUSH2 0x417A DUP6 PUSH2 0x167D JUMP JUMPDEST DUP9 SWAP3 SWAP2 SWAP1 PUSH2 0x39AD JUMP JUMPDEST SWAP1 POP PUSH2 0x4198 PUSH2 0x4191 DUP3 PUSH2 0x1261 JUMP JUMPDEST DUP5 SWAP1 PUSH2 0x17BB JUMP JUMPDEST SWAP3 POP POP JUMPDEST POP JUMPDEST DUP2 DUP2 LT ISZERO PUSH2 0x41BE JUMPI PUSH1 0x40 MLOAD PUSH3 0x461BCD PUSH1 0xE5 SHL DUP2 MSTORE PUSH1 0x4 ADD PUSH2 0x344 SWAP1 PUSH2 0x557B JUMP JUMPDEST PUSH1 0x0 PUSH1 0x4 DUP6 PUSH1 0x60 ADD MLOAD PUSH1 0x5 DUP2 GT ISZERO PUSH2 0x41D2 JUMPI INVALID JUMPDEST EQ ISZERO PUSH2 0x41E8 JUMPI PUSH2 0x41E1 DUP3 PUSH2 0x167D JUMP JUMPDEST SWAP1 POP PUSH2 0x4202 JUMP JUMPDEST DUP2 ISZERO PUSH2 0x4202 JUMPI PUSH1 0x40 DUP12 ADD MLOAD PUSH2 0x41FF SWAP1 DUP7 SWAP1 DUP5 PUSH2 0x1EED JUMP JUMPDEST SWAP1 POP JUMPDEST PUSH2 0x420C DUP6 DUP3 PUSH2 0x3C91 JUMP JUMPDEST SWAP7 POP POP POP POP POP POP SWAP5 POP SWAP5 SWAP3 POP POP POP JUMP JUMPDEST PUSH1 0x0 DUP2 PUSH2 0x422B JUMPI POP PUSH1 0x0 PUSH2 0x1045 JUMP JUMPDEST PUSH1 0x0 PUSH2 0x4236 DUP5 PUSH2 0x47A4 JUMP JUMPDEST SWAP1 POP PUSH1 0x0 PUSH2 0x4243 DUP5 PUSH2 0x472A JUMP JUMPDEST SWAP1 POP DUP2 PUSH12 0x19D971E4FE8401E74000001 PUSH1 0x1 PUSH1 0xFF SHL SUB DUP2 PUSH2 0x4260 JUMPI INVALID JUMPDEST SDIV DUP2 SGT ISZERO PUSH2 0x426D JUMPI PUSH1 0x0 DUP1 REVERT JUMPDEST PUSH12 0x33B2E3C9FD0803CE8000000 PUSH12 0x19D971E4FE8401E74000000 DUP4 DUP4 MUL ADD SDIV PUSH1 0x0 DUP6 SGT PUSH2 0x316D JUMPI PUSH2 0x429D DUP2 PUSH2 0x1629 JUMP JUMPDEST PUSH2 0x12B0 JUMP JUMPDEST PUSH1 0x0 DUP1 DUP1 DUP1 PUSH1 0x5 DUP8 PUSH1 0x60 ADD MLOAD PUSH1 0x5 DUP2 GT ISZERO PUSH2 0x42B9 JUMPI INVALID JUMPDEST EQ PUSH2 0x42CB JUMPI PUSH4 0x70A08231 PUSH1 0xE0 SHL PUSH2 0x42D4 JUMP JUMPDEST PUSH4 0xED1279F PUSH1 0xE1 SHL JUMPDEST SWAP1 POP DUP7 PUSH1 0x20 ADD MLOAD ISZERO PUSH2 0x42F0 JUMPI DUP7 MLOAD PUSH2 0x42ED SWAP1 ADDRESS DUP4 PUSH2 0x348A JUMP JUMPDEST SWAP3 POP JUMPDEST DUP7 MLOAD PUSH2 0x42FD SWAP1 DUP8 DUP8 PUSH2 0x482F JUMP JUMPDEST DUP7 PUSH1 0x20 ADD MLOAD DUP1 PUSH2 0x4311 JUMPI POP PUSH1 0x0 DUP8 PUSH1 0x80 ADD MLOAD GT JUMPDEST ISZERO PUSH2 0x4326 JUMPI DUP7 MLOAD PUSH2 0x4323 SWAP1 ADDRESS DUP4 PUSH2 0x348A JUMP JUMPDEST SWAP2 POP JUMPDEST PUSH1 0x80 DUP8 ADD MLOAD ISZERO PUSH2 0x4361 JUMPI PUSH1 0x0 PUSH2 0x4344 DUP9 PUSH2 0x433F DUP6 PUSH2 0x167D JUMP JUMPDEST PUSH2 0x3C91 JUMP JUMPDEST SWAP1 POP PUSH2 0x4353 DUP9 PUSH1 0x80 ADD MLOAD PUSH2 0x167D JUMP JUMPDEST DUP2 SGT ISZERO PUSH2 0x435F JUMPI PUSH1 0x0 DUP1 REVERT JUMPDEST POP JUMPDEST DUP7 PUSH1 0x20 ADD MLOAD ISZERO PUSH2 0x4382 JUMPI PUSH2 0x4378 PUSH2 0x1CAD DUP4 DUP6 PUSH2 0x370D JUMP JUMPDEST SWAP4 POP POP POP POP PUSH2 0x8C2 JUMP JUMPDEST PUSH2 0x4378 DUP6 PUSH2 0x167D JUMP JUMPDEST POP POP POP SWAP4 SWAP3 POP POP POP JUMP JUMPDEST PUSH1 0x40 MLOAD PUSH1 0x1 PUSH1 0x1 PUSH1 0xA0 SHL SUB DUP4 AND SWAP1 DUP3 ISZERO PUSH2 0x8FC MUL SWAP1 DUP4 SWAP1 PUSH1 0x0 DUP2 DUP2 DUP2 DUP6 DUP9 DUP9 CALL SWAP4 POP POP POP POP ISZERO DUP1 ISZERO PUSH2 0x141B JUMPI RETURNDATASIZE PUSH1 0x0 DUP1 RETURNDATACOPY RETURNDATASIZE PUSH1 0x0 REVERT JUMPDEST DUP3 PUSH1 0x1 PUSH1 0x1 PUSH1 0xA0 SHL SUB AND PUSH4 0xA9059CBB DUP4 DUP4 PUSH1 0x40 MLOAD DUP4 PUSH4 0xFFFFFFFF AND PUSH1 0xE0 SHL DUP2 MSTORE PUSH1 0x4 ADD DUP1 DUP4 PUSH1 0x1 PUSH1 0x1 PUSH1 0xA0 SHL SUB AND DUP2 MSTORE PUSH1 0x20 ADD DUP3 DUP2 MSTORE PUSH1 0x20 ADD SWAP3 POP POP POP PUSH1 0x0 PUSH1 0x40 MLOAD DUP1 DUP4 SUB DUP2 PUSH1 0x0 DUP8 DUP1 EXTCODESIZE ISZERO DUP1 ISZERO PUSH2 0x4422 JUMPI PUSH1 0x0 DUP1 REVERT JUMPDEST POP GAS CALL ISZERO DUP1 ISZERO PUSH2 0x4436 JUMPI RETURNDATASIZE PUSH1 0x0 DUP1 RETURNDATACOPY RETURNDATASIZE PUSH1 0x0 REVERT JUMPDEST POP POP POP POP PUSH2 0x141B PUSH2 0x4887 JUMP JUMPDEST DUP3 MLOAD PUSH1 0x40 MLOAD PUSH4 0xDB006A75 PUSH1 0xE0 SHL DUP2 MSTORE PUSH1 0x0 SWAP2 SELFBALANCE SWAP2 DUP4 SWAP2 PUSH1 0x1 PUSH1 0x1 PUSH1 0xA0 SHL SUB AND SWAP1 PUSH4 0xDB006A75 SWAP1 PUSH2 0x4476 SWAP1 DUP8 SWAP1 PUSH1 0x4 ADD PUSH2 0x53F2 JUMP JUMPDEST PUSH1 0x20 PUSH1 0x40 MLOAD DUP1 DUP4 SUB DUP2 PUSH1 0x0 DUP8 DUP1 EXTCODESIZE ISZERO DUP1 ISZERO PUSH2 0x4490 JUMPI PUSH1 0x0 DUP1 REVERT JUMPDEST POP GAS CALL ISZERO DUP1 ISZERO PUSH2 0x44A4 JUMPI RETURNDATASIZE PUSH1 0x0 DUP1 RETURNDATACOPY RETURNDATASIZE PUSH1 0x0 REVERT JUMPDEST POP POP POP POP PUSH1 0x40 MLOAD RETURNDATASIZE PUSH1 0x1F NOT PUSH1 0x1F DUP3 ADD AND DUP3 ADD DUP1 PUSH1 0x40 MSTORE POP DUP2 ADD SWAP1 PUSH2 0x44C8 SWAP2 SWAP1 PUSH2 0x5097 JUMP JUMPDEST SWAP1 POP DUP1 ISZERO PUSH2 0x44E8 JUMPI PUSH1 0x40 MLOAD PUSH3 0x461BCD PUSH1 0xE5 SHL DUP2 MSTORE PUSH1 0x4 ADD PUSH2 0x344 SWAP1 PUSH2 0x5534 JUMP JUMPDEST SELFBALANCE PUSH2 0x44F3 DUP2 DUP5 PUSH2 0x370D JUMP JUMPDEST SWAP4 POP PUSH2 0x438B DUP7 DUP6 PUSH2 0x4395 JUMP JUMPDEST PUSH1 0x0 PUSH2 0x451A PUSH2 0x36B DUP6 PUSH1 0x0 ADD MLOAD PUSH2 0x4515 DUP6 PUSH2 0x167D JUMP JUMPDEST PUSH2 0x421C JUMP JUMPDEST SWAP1 POP PUSH2 0x4524 PUSH2 0x3DE4 JUMP JUMPDEST SLOAD DUP5 MLOAD PUSH1 0x40 MLOAD PUSH4 0x1A4CA37B PUSH1 0xE2 SHL DUP2 MSTORE PUSH1 0x1 PUSH1 0x1 PUSH1 0xA0 SHL SUB SWAP1 SWAP3 AND SWAP2 PUSH4 0x69328DEC SWAP2 PUSH2 0x4556 SWAP2 DUP6 SWAP1 DUP9 SWAP1 PUSH1 0x4 ADD PUSH2 0x52A3 JUMP JUMPDEST PUSH1 0x20 PUSH1 0x40 MLOAD DUP1 DUP4 SUB DUP2 PUSH1 0x0 DUP8 DUP1 EXTCODESIZE ISZERO DUP1 ISZERO PUSH2 0x4570 JUMPI PUSH1 0x0 DUP1 REVERT JUMPDEST POP GAS CALL ISZERO DUP1 ISZERO PUSH2 0x4584 JUMPI RETURNDATASIZE PUSH1 0x0 DUP1 RETURNDATACOPY RETURNDATASIZE PUSH1 0x0 REVERT JUMPDEST POP POP POP POP PUSH1 0x40 MLOAD RETURNDATASIZE PUSH1 0x1F NOT PUSH1 0x1F DUP3 ADD AND DUP3 ADD DUP1 PUSH1 0x40 MSTORE POP DUP2 ADD SWAP1 PUSH2 0x45A8 SWAP2 SWAP1 PUSH2 0x5097 JUMP JUMPDEST POP SWAP4 SWAP3 POP POP POP JUMP JUMPDEST DUP3 MLOAD PUSH1 0x0 SWAP1 DUP2 SWAP1 PUSH2 0x45C9 SWAP1 ADDRESS PUSH4 0x70A08231 PUSH1 0xE0 SHL PUSH2 0x348A JUMP JUMPDEST SWAP1 POP PUSH1 0x0 DUP7 PUSH1 0x0 ADD MLOAD PUSH1 0x1 PUSH1 0x1 PUSH1 0xA0 SHL SUB AND PUSH4 0xDB006A75 DUP6 PUSH1 0x40 MLOAD DUP3 PUSH4 0xFFFFFFFF AND PUSH1 0xE0 SHL DUP2 MSTORE PUSH1 0x4 ADD PUSH2 0x45FD SWAP2 SWAP1 PUSH2 0x53F2 JUMP JUMPDEST PUSH1 0x20 PUSH1 0x40 MLOAD DUP1 DUP4 SUB DUP2 PUSH1 0x0 DUP8 DUP1 EXTCODESIZE ISZERO DUP1 ISZERO PUSH2 0x4617 JUMPI PUSH1 0x0 DUP1 REVERT JUMPDEST POP GAS CALL ISZERO DUP1 ISZERO PUSH2 0x462B JUMPI RETURNDATASIZE PUSH1 0x0 DUP1 RETURNDATACOPY RETURNDATASIZE PUSH1 0x0 REVERT JUMPDEST POP POP POP POP PUSH1 0x40 MLOAD RETURNDATASIZE PUSH1 0x1F NOT PUSH1 0x1F DUP3 ADD AND DUP3 ADD DUP1 PUSH1 0x40 MSTORE POP DUP2 ADD SWAP1 PUSH2 0x464F SWAP2 SWAP1 PUSH2 0x5097 JUMP JUMPDEST SWAP1 POP DUP1 ISZERO PUSH2 0x466F JUMPI PUSH1 0x40 MLOAD PUSH3 0x461BCD PUSH1 0xE5 SHL DUP2 MSTORE PUSH1 0x4 ADD PUSH2 0x344 SWAP1 PUSH2 0x5534 JUMP JUMPDEST DUP6 MLOAD PUSH1 0x0 SWAP1 PUSH2 0x4686 SWAP1 ADDRESS PUSH4 0x70A08231 PUSH1 0xE0 SHL PUSH2 0x348A JUMP JUMPDEST SWAP1 POP PUSH2 0x4692 DUP2 DUP5 PUSH2 0x370D JUMP JUMPDEST SWAP4 POP PUSH2 0x46A3 DUP8 PUSH1 0x0 ADD MLOAD DUP8 DUP7 PUSH2 0x43CB JUMP JUMPDEST POP POP POP SWAP5 SWAP4 POP POP POP POP JUMP JUMPDEST PUSH1 0x0 DUP1 PUSH2 0x1045 PUSH1 0xF PUSH2 0x2B4A JUMP JUMPDEST PUSH1 0x0 DUP1 PUSH1 0x0 PUSH2 0x46CD DUP8 PUSH2 0xFFFF AND PUSH2 0x48F8 JUMP JUMPDEST SWAP1 POP PUSH2 0x46DD DUP2 PUSH1 0xFF AND DUP8 DUP7 PUSH2 0x490E JUMP JUMPDEST SWAP1 SWAP4 POP SWAP2 POP DUP5 DUP4 GT ISZERO PUSH2 0x4702 JUMPI PUSH1 0x40 MLOAD PUSH3 0x461BCD PUSH1 0xE5 SHL DUP2 MSTORE PUSH1 0x4 ADD PUSH2 0x344 SWAP1 PUSH2 0x5601 JUMP JUMPDEST DUP2 ISZERO PUSH2 0x4720 JUMPI PUSH1 0x40 MLOAD PUSH3 0x461BCD PUSH1 0xE5 SHL DUP2 MSTORE PUSH1 0x4 ADD PUSH2 0x344 SWAP1 PUSH2 0x5601 JUMP JUMPDEST POP POP SWAP5 SWAP4 POP POP POP POP JUMP JUMPDEST PUSH1 0x0 DUP1 DUP3 SLT ISZERO PUSH2 0x4744 JUMPI PUSH2 0x473D DUP3 PUSH2 0x1629 JUMP JUMPDEST SWAP1 POP PUSH2 0x1273 JUMP JUMPDEST POP DUP1 PUSH2 0x1273 JUMP JUMPDEST PUSH2 0x4753 PUSH2 0x4BFE JUMP JUMPDEST PUSH2 0x475B PUSH2 0x4BFE JUMP JUMPDEST PUSH2 0x476C DUP4 PUSH1 0x40 ADD MLOAD PUSH2 0xFFFF AND PUSH2 0x133C JUMP JUMPDEST SWAP2 POP PUSH1 0x4 DUP3 PUSH1 0x60 ADD MLOAD PUSH1 0x5 DUP2 GT ISZERO PUSH2 0x4780 JUMPI INVALID JUMPDEST EQ PUSH2 0x479B JUMPI PUSH2 0x4796 DUP4 PUSH1 0x40 ADD MLOAD PUSH2 0xFFFF AND PUSH2 0x134F JUMP JUMPDEST PUSH2 0x479D JUMP JUMPDEST DUP2 JUMPDEST SWAP1 POP SWAP2 POP SWAP2 JUMP JUMPDEST PUSH1 0x0 PUSH2 0x1045 PUSH2 0x47B1 PUSH2 0x3DE4 JUMP JUMPDEST SLOAD PUSH1 0x40 MLOAD PUSH4 0xD15E0053 PUSH1 0xE0 SHL DUP2 MSTORE PUSH1 0x1 PUSH1 0x1 PUSH1 0xA0 SHL SUB SWAP1 SWAP2 AND SWAP1 PUSH4 0xD15E0053 SWAP1 PUSH2 0x47DF SWAP1 DUP7 SWAP1 PUSH1 0x4 ADD PUSH2 0x5251 JUMP JUMPDEST PUSH1 0x20 PUSH1 0x40 MLOAD DUP1 DUP4 SUB DUP2 DUP7 DUP1 EXTCODESIZE ISZERO DUP1 ISZERO PUSH2 0x47F7 JUMPI PUSH1 0x0 DUP1 REVERT JUMPDEST POP GAS STATICCALL ISZERO DUP1 ISZERO PUSH2 0x480B JUMPI RETURNDATASIZE PUSH1 0x0 DUP1 RETURNDATACOPY RETURNDATASIZE PUSH1 0x0 REVERT JUMPDEST POP POP POP POP PUSH1 0x40 MLOAD RETURNDATASIZE PUSH1 0x1F NOT PUSH1 0x1F DUP3 ADD AND DUP3 ADD DUP1 PUSH1 0x40 MSTORE POP DUP2 ADD SWAP1 PUSH2 0x1CAD SWAP2 SWAP1 PUSH2 0x5097 JUMP JUMPDEST PUSH1 0x40 DUP1 MLOAD PUSH4 0x23B872DD PUSH1 0xE0 SHL DUP2 MSTORE PUSH1 0x1 PUSH1 0x1 PUSH1 0xA0 SHL SUB DUP5 DUP2 AND PUSH1 0x4 DUP4 ADD MSTORE ADDRESS PUSH1 0x24 DUP4 ADD MSTORE PUSH1 0x44 DUP3 ADD DUP5 SWAP1 MSTORE SWAP2 MLOAD SWAP2 DUP6 AND SWAP2 PUSH4 0x23B872DD SWAP2 PUSH1 0x64 DUP1 DUP3 ADD SWAP3 PUSH1 0x0 SWAP3 SWAP1 SWAP2 SWAP1 DUP3 SWAP1 SUB ADD DUP2 DUP4 DUP8 DUP1 EXTCODESIZE ISZERO DUP1 ISZERO PUSH2 0x4422 JUMPI PUSH1 0x0 DUP1 REVERT JUMPDEST PUSH1 0x0 PUSH2 0x4891 PUSH2 0x4C7E JUMP JUMPDEST RETURNDATASIZE DUP1 ISZERO PUSH2 0x48A5 JUMPI PUSH1 0x20 DUP2 EQ PUSH2 0x48AE JUMPI PUSH1 0x0 DUP1 REVERT JUMPDEST PUSH1 0x1 SWAP3 POP PUSH2 0x48B9 JUMP JUMPDEST PUSH1 0x20 PUSH1 0x0 DUP4 RETURNDATACOPY DUP2 MLOAD SWAP3 POP JUMPDEST POP DUP2 PUSH2 0x48F4 JUMPI PUSH1 0x40 DUP1 MLOAD PUSH3 0x461BCD PUSH1 0xE5 SHL DUP2 MSTORE PUSH1 0x20 PUSH1 0x4 DUP3 ADD MSTORE PUSH1 0x5 PUSH1 0x24 DUP3 ADD MSTORE PUSH5 0x455243323 PUSH1 0xDC SHL PUSH1 0x44 DUP3 ADD MSTORE SWAP1 MLOAD SWAP1 DUP2 SWAP1 SUB PUSH1 0x64 ADD SWAP1 REVERT JUMPDEST POP POP JUMP JUMPDEST PUSH1 0x0 DUP1 PUSH2 0x4904 DUP4 PUSH2 0x49D6 JUMP JUMPDEST PUSH1 0xFF AND SWAP4 SWAP3 POP POP POP JUMP JUMPDEST PUSH1 0x0 DUP1 PUSH1 0x0 DUP6 GT PUSH2 0x4931 JUMPI PUSH1 0x40 MLOAD PUSH3 0x461BCD PUSH1 0xE5 SHL DUP2 MSTORE PUSH1 0x4 ADD PUSH2 0x344 SWAP1 PUSH2 0x55AB JUMP JUMPDEST PUSH1 0x7 DUP6 GT ISZERO PUSH2 0x4952 JUMPI PUSH1 0x40 MLOAD PUSH3 0x461BCD PUSH1 0xE5 SHL DUP2 MSTORE PUSH1 0x4 ADD PUSH2 0x344 SWAP1 PUSH2 0x56AF JUMP JUMPDEST PUSH1 0x0 PUSH2 0x495D DUP5 PUSH2 0x49F3 JUMP JUMPDEST SWAP1 POP PUSH1 0x1 JUMPDEST DUP7 DUP2 GT PUSH2 0x49B5 JUMPI PUSH1 0x0 PUSH2 0x497E PUSH2 0x4977 DUP4 PUSH2 0x4A11 JUMP JUMPDEST DUP5 SWAP1 PUSH2 0x4AB5 JUMP JUMPDEST SWAP1 POP DUP7 DUP2 EQ ISZERO PUSH2 0x4996 JUMPI POP SWAP3 POP PUSH1 0x0 SWAP2 POP PUSH2 0x49CE SWAP1 POP JUMP JUMPDEST DUP7 DUP2 GT ISZERO PUSH2 0x49AC JUMPI POP SWAP3 POP PUSH1 0x1 SWAP2 POP PUSH2 0x49CE SWAP1 POP JUMP JUMPDEST POP PUSH1 0x1 ADD PUSH2 0x4962 JUMP JUMPDEST POP PUSH1 0x40 MLOAD PUSH3 0x461BCD PUSH1 0xE5 SHL DUP2 MSTORE PUSH1 0x4 ADD PUSH2 0x344 SWAP1 PUSH2 0x5845 JUMP JUMPDEST SWAP4 POP SWAP4 SWAP2 POP POP JUMP JUMPDEST PUSH1 0x0 DUP1 PUSH2 0x49E1 PUSH2 0x4B0F JUMP JUMPDEST PUSH1 0x0 SWAP4 DUP5 MSTORE PUSH1 0x20 MSTORE POP POP PUSH1 0x40 SWAP1 KECCAK256 SLOAD SWAP1 JUMP JUMPDEST PUSH1 0x0 PUSH3 0x76A700 DUP3 LT ISZERO PUSH2 0x4A05 JUMPI PUSH1 0x0 DUP1 REVERT JUMPDEST POP PUSH3 0x76A700 DUP2 MOD SWAP1 SUB SWAP1 JUMP JUMPDEST PUSH1 0x0 DUP2 PUSH1 0x1 EQ ISZERO PUSH2 0x4A26 JUMPI POP PUSH3 0x76A700 PUSH2 0x1273 JUMP JUMPDEST DUP2 PUSH1 0x2 EQ ISZERO PUSH2 0x4A39 JUMPI POP PUSH3 0xED4E00 PUSH2 0x1273 JUMP JUMPDEST DUP2 PUSH1 0x3 EQ ISZERO PUSH2 0x4A4D JUMPI POP PUSH4 0x1DA9C00 PUSH2 0x1273 JUMP JUMPDEST DUP2 PUSH1 0x4 EQ ISZERO PUSH2 0x4A61 JUMPI POP PUSH4 0x3B53800 PUSH2 0x1273 JUMP JUMPDEST DUP2 PUSH1 0x5 EQ ISZERO PUSH2 0x4A75 JUMPI POP PUSH4 0x9450C00 PUSH2 0x1273 JUMP JUMPDEST DUP2 PUSH1 0x6 EQ ISZERO PUSH2 0x4A89 JUMPI POP PUSH4 0x128A1800 PUSH2 0x1273 JUMP JUMPDEST DUP2 PUSH1 0x7 EQ ISZERO PUSH2 0x4A9D JUMPI POP PUSH4 0x25143000 PUSH2 0x1273 JUMP JUMPDEST PUSH1 0x40 MLOAD PUSH3 0x461BCD PUSH1 0xE5 SHL DUP2 MSTORE PUSH1 0x4 ADD PUSH2 0x344 SWAP1 PUSH2 0x55DA JUMP JUMPDEST PUSH1 0x0 DUP3 DUP3 ADD DUP4 DUP2 LT ISZERO PUSH2 0x8C2 JUMPI PUSH1 0x40 DUP1 MLOAD PUSH3 0x461BCD PUSH1 0xE5 SHL DUP2 MSTORE PUSH1 0x20 PUSH1 0x4 DUP3 ADD MSTORE PUSH1 0x1B PUSH1 0x24 DUP3 ADD MSTORE PUSH32 0x536166654D6174683A206164646974696F6E206F766572666C6F770000000000 PUSH1 0x44 DUP3 ADD MSTORE SWAP1 MLOAD SWAP1 DUP2 SWAP1 SUB PUSH1 0x64 ADD SWAP1 REVERT JUMPDEST PUSH1 0x0 DUP1 PUSH2 0x1045 PUSH1 0x9 PUSH2 0x2B4A JUMP JUMPDEST PUSH1 0x40 MLOAD DUP1 PUSH1 0x40 ADD PUSH1 0x40 MSTORE DUP1 PUSH1 0x2 SWAP1 PUSH1 0x20 DUP3 MUL DUP1 CALLDATASIZE DUP4 CALLDATACOPY POP SWAP2 SWAP3 SWAP2 POP POP JUMP JUMPDEST PUSH1 0x40 MLOAD DUP1 PUSH1 0xE0 ADD PUSH1 0x40 MSTORE DUP1 PUSH1 0x0 DUP2 MSTORE PUSH1 0x20 ADD PUSH1 0x0 DUP2 MSTORE PUSH1 0x20 ADD PUSH1 0x0 ISZERO ISZERO DUP2 MSTORE PUSH1 0x20 ADD PUSH1 0x0 DUP2 MSTORE PUSH1 0x20 ADD PUSH1 0x0 DUP2 MSTORE PUSH1 0x20 ADD PUSH1 0x0 DUP2 MSTORE PUSH1 0x20 ADD PUSH1 0x0 DUP2 MSTORE POP SWAP1 JUMP JUMPDEST PUSH1 0x40 MLOAD DUP1 PUSH2 0x1A0 ADD PUSH1 0x40 MSTORE DUP1 PUSH1 0x0 PUSH1 0x1 PUSH1 0x1 PUSH1 0xA0 SHL SUB AND DUP2 MSTORE PUSH1 0x20 ADD PUSH1 0x0 PUSH2 0xFFFF AND DUP2 MSTORE PUSH1 0x20 ADD PUSH1 0x0 PUSH2 0xFFFF AND DUP2 MSTORE PUSH1 0x20 ADD PUSH1 0x0 DUP2 MSTORE PUSH1 0x20 ADD PUSH1 0x0 DUP2 MSTORE PUSH1 0x20 ADD PUSH1 0x0 DUP2 MSTORE PUSH1 0x20 ADD PUSH1 0x0 DUP2 MSTORE PUSH1 0x20 ADD PUSH1 0x0 DUP2 MSTORE PUSH1 0x20 ADD PUSH1 0x0 DUP2 MSTORE PUSH1 0x20 ADD PUSH1 0x0 DUP2 MSTORE PUSH1 0x20 ADD PUSH2 0x4BE4 PUSH2 0x4B1C JUMP JUMPDEST DUP2 MSTORE PUSH1 0x20 ADD PUSH2 0x4BF1 PUSH2 0x4C25 JUMP JUMPDEST DUP2 MSTORE PUSH1 0x20 ADD PUSH1 0x0 DUP2 MSTORE POP SWAP1 JUMP JUMPDEST PUSH1 0x40 DUP1 MLOAD PUSH1 0xA0 DUP2 ADD DUP3 MSTORE PUSH1 0x0 DUP1 DUP3 MSTORE PUSH1 0x20 DUP3 ADD DUP2 SWAP1 MSTORE SWAP2 DUP2 ADD DUP3 SWAP1 MSTORE SWAP1 PUSH1 0x60 DUP3 ADD SWAP1 PUSH2 0x4BF1 JUMP JUMPDEST PUSH1 0x40 MLOAD DUP1 PUSH1 0x60 ADD PUSH1 0x40 MSTORE DUP1 PUSH1 0x0 PUSH1 0x1 PUSH1 0x1 PUSH1 0xA0 SHL SUB AND DUP2 MSTORE PUSH1 0x20 ADD PUSH1 0x0 DUP2 MSTORE PUSH1 0x20 ADD PUSH1 0x0 DUP2 MSTORE POP SWAP1 JUMP JUMPDEST PUSH1 0x40 MLOAD DUP1 PUSH1 0xA0 ADD PUSH1 0x40 MSTORE DUP1 PUSH1 0x0 DUP2 MSTORE PUSH1 0x20 ADD PUSH1 0x0 DUP2 MSTORE PUSH1 0x20 ADD PUSH1 0x0 DUP2 MSTORE PUSH1 0x20 ADD PUSH1 0x0 DUP2 MSTORE PUSH1 0x20 ADD PUSH1 0x0 DUP2 MSTORE POP SWAP1 JUMP JUMPDEST PUSH1 0x40 MLOAD DUP1 PUSH1 0x20 ADD PUSH1 0x40 MSTORE DUP1 PUSH1 0x1 SWAP1 PUSH1 0x20 DUP3 MUL DUP1 CALLDATASIZE DUP4 CALLDATACOPY POP SWAP2 SWAP3 SWAP2 POP POP JUMP JUMPDEST DUP1 CALLDATALOAD PUSH1 0x1 PUSH1 0x1 PUSH1 0xA0 SHL SUB DUP2 AND DUP2 EQ PUSH2 0x1273 JUMPI PUSH1 0x0 DUP1 REVERT JUMPDEST DUP1 PUSH1 0x40 DUP2 ADD DUP4 LT ISZERO PUSH2 0x1045 JUMPI PUSH1 0x0 DUP1 REVERT JUMPDEST PUSH1 0x0 DUP1 DUP4 PUSH1 0x1F DUP5 ADD SLT PUSH2 0x4CD5 JUMPI DUP2 DUP3 REVERT JUMPDEST POP DUP2 CALLDATALOAD PUSH8 0xFFFFFFFFFFFFFFFF DUP2 GT ISZERO PUSH2 0x4CEC JUMPI DUP2 DUP3 REVERT JUMPDEST PUSH1 0x20 DUP4 ADD SWAP2 POP DUP4 PUSH1 0x20 DUP3 DUP6 ADD ADD GT ISZERO PUSH2 0xC0F JUMPI PUSH1 0x0 DUP1 REVERT JUMPDEST PUSH1 0x0 PUSH1 0x20 DUP3 DUP5 SUB SLT ISZERO PUSH2 0x4D15 JUMPI DUP1 DUP2 REVERT JUMPDEST PUSH2 0x8C2 DUP3 PUSH2 0x4C9C JUMP JUMPDEST PUSH1 0x0 DUP1 PUSH1 0x40 DUP4 DUP6 SUB SLT ISZERO PUSH2 0x4D30 JUMPI DUP1 DUP2 REVERT JUMPDEST PUSH2 0x4D39 DUP4 PUSH2 0x4C9C JUMP JUMPDEST SWAP2 POP PUSH1 0x20 DUP4 ADD CALLDATALOAD DUP1 ISZERO ISZERO DUP2 EQ PUSH2 0x4D4D JUMPI DUP2 DUP3 REVERT JUMPDEST DUP1 SWAP2 POP POP SWAP3 POP SWAP3 SWAP1 POP JUMP JUMPDEST PUSH1 0x0 DUP1 PUSH1 0x0 DUP4 DUP6 SUB PUSH2 0x1C0 DUP2 SLT ISZERO PUSH2 0x4D6E JUMPI DUP2 DUP3 REVERT JUMPDEST PUSH2 0x4D77 DUP6 PUSH2 0x4C9C JUMP JUMPDEST SWAP4 POP PUSH2 0x180 PUSH1 0x1F NOT DUP3 ADD SLT ISZERO PUSH2 0x4D8B JUMPI DUP2 DUP3 REVERT JUMPDEST POP PUSH1 0x20 DUP5 ADD SWAP2 POP PUSH2 0x1A0 DUP5 ADD CALLDATALOAD PUSH2 0x4DA1 DUP2 PUSH2 0x5CA6 JUMP JUMPDEST DUP1 SWAP2 POP POP SWAP3 POP SWAP3 POP SWAP3 JUMP JUMPDEST PUSH1 0x0 DUP1 PUSH1 0x40 DUP4 DUP6 SUB SLT ISZERO PUSH2 0x4DBE JUMPI DUP2 DUP3 REVERT JUMPDEST PUSH2 0x4DC7 DUP4 PUSH2 0x4C9C JUMP JUMPDEST SWAP2 POP PUSH1 0x20 DUP4 ADD CALLDATALOAD PUSH2 0x4D4D DUP2 PUSH2 0x5C72 JUMP JUMPDEST PUSH1 0x0 DUP1 PUSH1 0x0 PUSH1 0x60 DUP5 DUP7 SUB SLT ISZERO PUSH2 0x4DEB JUMPI DUP3 DUP4 REVERT JUMPDEST PUSH2 0x4DF4 DUP5 PUSH2 0x4C9C JUMP JUMPDEST SWAP3 POP PUSH1 0x20 DUP5 ADD CALLDATALOAD PUSH2 0x4E04 DUP2 PUSH2 0x5C72 JUMP JUMPDEST SWAP3 SWAP6 SWAP3 SWAP5 POP POP POP PUSH1 0x40 SWAP2 SWAP1 SWAP2 ADD CALLDATALOAD SWAP1 JUMP JUMPDEST PUSH1 0x0 DUP1 PUSH1 0x0 DUP1 PUSH1 0x0 DUP1 PUSH1 0x0 PUSH1 0xC0 DUP9 DUP11 SUB SLT ISZERO PUSH2 0x4E2F JUMPI DUP3 DUP4 REVERT JUMPDEST PUSH2 0x4E38 DUP9 PUSH2 0x4C9C JUMP JUMPDEST SWAP7 POP PUSH1 0x20 DUP9 ADD CALLDATALOAD PUSH2 0x4E48 DUP2 PUSH2 0x5C72 JUMP JUMPDEST SWAP6 POP PUSH1 0x40 DUP9 ADD CALLDATALOAD SWAP5 POP PUSH1 0x60 DUP9 ADD CALLDATALOAD SWAP4 POP PUSH1 0x80 DUP9 ADD CALLDATALOAD PUSH2 0x4E66 DUP2 PUSH2 0x5C85 JUMP JUMPDEST SWAP3 POP PUSH1 0xA0 DUP9 ADD CALLDATALOAD PUSH8 0xFFFFFFFFFFFFFFFF DUP2 GT ISZERO PUSH2 0x4E81 JUMPI DUP3 DUP4 REVERT JUMPDEST PUSH2 0x4E8D DUP11 DUP3 DUP12 ADD PUSH2 0x4CC4 JUMP JUMPDEST SWAP9 SWAP12 SWAP8 SWAP11 POP SWAP6 SWAP9 POP SWAP4 SWAP7 SWAP3 SWAP6 SWAP3 SWAP4 POP POP POP JUMP JUMPDEST PUSH1 0x0 DUP1 PUSH1 0x0 PUSH1 0x60 DUP5 DUP7 SUB SLT ISZERO PUSH2 0x4EB4 JUMPI DUP3 DUP4 REVERT JUMPDEST PUSH2 0x4EBD DUP5 PUSH2 0x4C9C JUMP JUMPDEST SWAP3 POP PUSH1 0x20 DUP5 ADD CALLDATALOAD PUSH2 0x4ECD DUP2 PUSH2 0x5C72 JUMP JUMPDEST SWAP2 POP PUSH1 0x40 DUP5 ADD CALLDATALOAD PUSH2 0x4DA1 DUP2 PUSH2 0x5CA6 JUMP JUMPDEST PUSH1 0x0 DUP1 PUSH1 0x40 DUP4 DUP6 SUB SLT ISZERO PUSH2 0x4EEF JUMPI DUP2 DUP3 REVERT JUMPDEST PUSH2 0x4EF8 DUP4 PUSH2 0x4C9C JUMP JUMPDEST SWAP5 PUSH1 0x20 SWAP4 SWAP1 SWAP4 ADD CALLDATALOAD SWAP4 POP POP POP JUMP JUMPDEST PUSH1 0x0 DUP1 PUSH1 0x0 DUP1 PUSH1 0x0 PUSH2 0x100 DUP7 DUP9 SUB SLT ISZERO PUSH2 0x4F1E JUMPI DUP3 DUP4 REVERT JUMPDEST PUSH2 0x4F27 DUP7 PUSH2 0x4C9C JUMP JUMPDEST SWAP5 POP PUSH1 0x20 DUP7 ADD CALLDATALOAD SWAP4 POP PUSH2 0x4F3D DUP8 PUSH1 0x40 DUP9 ADD PUSH2 0x4CB3 JUMP JUMPDEST SWAP3 POP PUSH2 0x4F4C DUP8 PUSH1 0x80 DUP9 ADD PUSH2 0x4CB3 JUMP JUMPDEST SWAP2 POP PUSH2 0x4F5B DUP8 PUSH1 0xC0 DUP9 ADD PUSH2 0x4CB3 JUMP JUMPDEST SWAP1 POP SWAP3 SWAP6 POP SWAP3 SWAP6 SWAP1 SWAP4 POP JUMP JUMPDEST PUSH1 0x0 DUP1 PUSH1 0x40 DUP4 DUP6 SUB SLT ISZERO PUSH2 0x4F79 JUMPI DUP2 DUP3 REVERT JUMPDEST PUSH2 0x4F82 DUP4 PUSH2 0x4C9C JUMP JUMPDEST SWAP2 POP PUSH1 0x20 DUP4 ADD CALLDATALOAD PUSH2 0x4D4D DUP2 PUSH2 0x5CA6 JUMP JUMPDEST PUSH1 0x0 DUP1 PUSH1 0x0 DUP1 PUSH1 0x0 DUP1 PUSH1 0xA0 DUP8 DUP10 SUB SLT ISZERO PUSH2 0x4FAA JUMPI DUP4 DUP5 REVERT JUMPDEST PUSH2 0x4FB3 DUP8 PUSH2 0x4C9C JUMP JUMPDEST SWAP6 POP PUSH1 0x20 DUP8 ADD CALLDATALOAD PUSH2 0x4FC3 DUP2 PUSH2 0x5CA6 JUMP JUMPDEST SWAP5 POP PUSH1 0x40 DUP8 ADD CALLDATALOAD SWAP4 POP PUSH1 0x60 DUP8 ADD CALLDATALOAD SWAP3 POP PUSH1 0x80 DUP8 ADD CALLDATALOAD PUSH8 0xFFFFFFFFFFFFFFFF DUP2 GT ISZERO PUSH2 0x4FEC JUMPI DUP3 DUP4 REVERT JUMPDEST PUSH2 0x4FF8 DUP10 DUP3 DUP11 ADD PUSH2 0x4CC4 JUMP JUMPDEST SWAP8 SWAP11 SWAP7 SWAP10 POP SWAP5 SWAP8 POP SWAP3 SWAP6 SWAP4 SWAP5 SWAP3 POP POP POP JUMP JUMPDEST PUSH1 0x0 PUSH1 0x20 DUP3 DUP5 SUB SLT ISZERO PUSH2 0x501B JUMPI DUP1 DUP2 REVERT JUMPDEST DUP2 MLOAD PUSH8 0xFFFFFFFFFFFFFFFF DUP1 DUP3 GT ISZERO PUSH2 0x5032 JUMPI DUP3 DUP4 REVERT JUMPDEST DUP2 DUP5 ADD SWAP2 POP DUP5 PUSH1 0x1F DUP4 ADD SLT PUSH2 0x5045 JUMPI DUP3 DUP4 REVERT JUMPDEST DUP2 MLOAD DUP2 DUP2 GT ISZERO PUSH2 0x5051 JUMPI INVALID JUMPDEST PUSH1 0x40 MLOAD PUSH1 0x1F DUP3 ADD PUSH1 0x1F NOT AND DUP2 ADD PUSH1 0x20 ADD DUP4 DUP2 GT DUP3 DUP3 LT OR ISZERO PUSH2 0x506F JUMPI INVALID JUMPDEST PUSH1 0x40 MSTORE DUP2 DUP2 MSTORE DUP4 DUP3 ADD PUSH1 0x20 ADD DUP8 LT ISZERO PUSH2 0x5086 JUMPI DUP5 DUP6 REVERT JUMPDEST PUSH2 0x12B0 DUP3 PUSH1 0x20 DUP4 ADD PUSH1 0x20 DUP8 ADD PUSH2 0x5A36 JUMP JUMPDEST PUSH1 0x0 PUSH1 0x20 DUP3 DUP5 SUB SLT ISZERO PUSH2 0x50A8 JUMPI DUP1 DUP2 REVERT JUMPDEST POP MLOAD SWAP2 SWAP1 POP JUMP JUMPDEST PUSH1 0x0 PUSH1 0x20 DUP3 DUP5 SUB SLT ISZERO PUSH2 0x50C0 JUMPI DUP1 DUP2 REVERT JUMPDEST DUP2 CALLDATALOAD PUSH2 0x8C2 DUP2 PUSH2 0x5C72 JUMP JUMPDEST PUSH1 0x0 PUSH1 0x20 DUP3 DUP5 SUB SLT ISZERO PUSH2 0x50DC JUMPI DUP1 DUP2 REVERT JUMPDEST POP CALLDATALOAD SWAP2 SWAP1 POP JUMP JUMPDEST PUSH1 0x0 DUP1 PUSH1 0x0 DUP1 PUSH1 0x60 DUP6 DUP8 SUB SLT ISZERO PUSH2 0x50F8 JUMPI DUP2 DUP3 REVERT JUMPDEST DUP5 CALLDATALOAD SWAP4 POP PUSH1 0x20 DUP6 ADD CALLDATALOAD SWAP3 POP PUSH1 0x40 DUP6 ADD CALLDATALOAD PUSH8 0xFFFFFFFFFFFFFFFF DUP2 GT ISZERO PUSH2 0x511C JUMPI DUP3 DUP4 REVERT JUMPDEST PUSH2 0x5128 DUP8 DUP3 DUP9 ADD PUSH2 0x4CC4 JUMP JUMPDEST SWAP6 SWAP9 SWAP5 SWAP8 POP SWAP6 POP POP POP POP JUMP JUMPDEST PUSH1 0x0 PUSH1 0x20 DUP3 DUP5 SUB SLT ISZERO PUSH2 0x5145 JUMPI DUP1 DUP2 REVERT JUMPDEST DUP2 CALLDATALOAD PUSH2 0x8C2 DUP2 PUSH2 0x5C85 JUMP JUMPDEST PUSH1 0x0 PUSH1 0x20 DUP3 DUP5 SUB SLT ISZERO PUSH2 0x5161 JUMPI DUP1 DUP2 REVERT JUMPDEST DUP2 CALLDATALOAD PUSH2 0x8C2 DUP2 PUSH2 0x5C97 JUMP JUMPDEST PUSH1 0x0 DUP1 PUSH1 0x0 DUP1 PUSH1 0x0 PUSH1 0xA0 DUP7 DUP9 SUB SLT ISZERO PUSH2 0x5183 JUMPI DUP3 DUP4 REVERT JUMPDEST DUP6 MLOAD PUSH2 0x518E DUP2 PUSH2 0x5CA6 JUMP JUMPDEST DUP1 SWAP6 POP POP PUSH1 0x20 DUP7 ADD MLOAD SWAP4 POP PUSH1 0x40 DUP7 ADD MLOAD SWAP3 POP PUSH1 0x60 DUP7 ADD MLOAD SWAP2 POP PUSH1 0x80 DUP7 ADD MLOAD PUSH2 0x51B5 DUP2 PUSH2 0x5CA6 JUMP JUMPDEST DUP1 SWAP2 POP POP SWAP3 SWAP6 POP SWAP3 SWAP6 SWAP1 SWAP4 POP JUMP JUMPDEST PUSH1 0x1 PUSH1 0x1 PUSH1 0xA0 SHL SUB AND SWAP1 MSTORE JUMP JUMPDEST DUP1 PUSH1 0x0 JUMPDEST PUSH1 0x2 DUP2 LT ISZERO PUSH2 0x51F7 JUMPI DUP2 MLOAD PUSH2 0xFFFF AND DUP5 MSTORE PUSH1 0x20 SWAP4 DUP5 ADD SWAP4 SWAP1 SWAP2 ADD SWAP1 PUSH1 0x1 ADD PUSH2 0x51D4 JUMP JUMPDEST POP POP POP POP JUMP JUMPDEST PUSH1 0x0 DUP3 DUP5 MSTORE DUP3 DUP3 PUSH1 0x20 DUP7 ADD CALLDATACOPY DUP1 PUSH1 0x20 DUP5 DUP7 ADD ADD MSTORE PUSH1 0x20 PUSH1 0x1F NOT PUSH1 0x1F DUP6 ADD AND DUP6 ADD ADD SWAP1 POP SWAP4 SWAP3 POP POP POP JUMP JUMPDEST DUP1 MLOAD PUSH1 0x1 PUSH1 0x1 PUSH1 0xA0 SHL SUB AND DUP3 MSTORE PUSH1 0x20 DUP1 DUP3 ADD MLOAD SWAP1 DUP4 ADD MSTORE PUSH1 0x40 SWAP1 DUP2 ADD MLOAD SWAP2 ADD MSTORE JUMP JUMPDEST PUSH2 0xFFFF AND SWAP1 MSTORE JUMP JUMPDEST PUSH1 0x1 PUSH1 0x1 PUSH1 0xA0 SHL SUB SWAP2 SWAP1 SWAP2 AND DUP2 MSTORE PUSH1 0x20 ADD SWAP1 JUMP JUMPDEST PUSH1 0x0 PUSH1 0x1 DUP1 PUSH1 0xA0 SHL SUB DUP1 DUP11 AND DUP4 MSTORE DUP1 DUP10 AND PUSH1 0x20 DUP5 ADD MSTORE POP DUP7 PUSH1 0x40 DUP4 ADD MSTORE DUP6 PUSH1 0x60 DUP4 ADD MSTORE DUP5 PUSH1 0x80 DUP4 ADD MSTORE PUSH1 0xC0 PUSH1 0xA0 DUP4 ADD MSTORE PUSH2 0x132F PUSH1 0xC0 DUP4 ADD DUP5 DUP7 PUSH2 0x51FD JUMP JUMPDEST PUSH1 0x1 PUSH1 0x1 PUSH1 0xA0 SHL SUB SWAP4 DUP5 AND DUP2 MSTORE PUSH1 0x20 DUP2 ADD SWAP3 SWAP1 SWAP3 MSTORE SWAP1 SWAP2 AND PUSH1 0x40 DUP3 ADD MSTORE PUSH1 0x60 ADD SWAP1 JUMP JUMPDEST PUSH1 0x1 PUSH1 0x1 PUSH1 0xA0 SHL SUB SWAP5 DUP6 AND DUP2 MSTORE PUSH1 0x20 DUP2 ADD SWAP4 SWAP1 SWAP4 MSTORE SWAP3 AND PUSH1 0x40 DUP3 ADD MSTORE PUSH2 0xFFFF SWAP1 SWAP2 AND PUSH1 0x60 DUP3 ADD MSTORE PUSH1 0x80 ADD SWAP1 JUMP JUMPDEST PUSH1 0x0 PUSH1 0x1 DUP1 PUSH1 0xA0 SHL SUB DUP7 AND DUP3 MSTORE DUP5 PUSH1 0x20 DUP4 ADD MSTORE PUSH1 0x60 PUSH1 0x40 DUP4 ADD MSTORE PUSH2 0x12B0 PUSH1 0x60 DUP4 ADD DUP5 DUP7 PUSH2 0x51FD JUMP JUMPDEST PUSH1 0x1 PUSH1 0x1 PUSH1 0xA0 SHL SUB SWAP4 SWAP1 SWAP4 AND DUP4 MSTORE PUSH1 0x20 DUP4 ADD SWAP2 SWAP1 SWAP2 MSTORE PUSH1 0x40 DUP3 ADD MSTORE PUSH1 0x60 ADD SWAP1 JUMP JUMPDEST PUSH1 0x0 PUSH1 0x1 DUP1 PUSH1 0xA0 SHL SUB DUP8 AND DUP3 MSTORE DUP6 PUSH1 0x20 DUP4 ADD MSTORE DUP5 PUSH1 0x40 DUP4 ADD MSTORE PUSH1 0x80 PUSH1 0x60 DUP4 ADD MSTORE PUSH2 0xA8C PUSH1 0x80 DUP4 ADD DUP5 DUP7 PUSH2 0x51FD JUMP JUMPDEST PUSH1 0x40 DUP2 ADD DUP2 DUP4 PUSH1 0x0 JUMPDEST PUSH1 0x2 DUP2 LT ISZERO PUSH2 0x5392 JUMPI DUP2 MLOAD DUP4 MSTORE PUSH1 0x20 SWAP3 DUP4 ADD SWAP3 SWAP1 SWAP2 ADD SWAP1 PUSH1 0x1 ADD PUSH2 0x5373 JUMP JUMPDEST POP POP POP SWAP3 SWAP2 POP POP JUMP JUMPDEST SWAP1 ISZERO ISZERO DUP2 MSTORE PUSH1 0x20 ADD SWAP1 JUMP JUMPDEST SWAP2 ISZERO ISZERO DUP3 MSTORE PUSH1 0x1 PUSH1 0x1 PUSH1 0x50 SHL SUB AND PUSH1 0x20 DUP3 ADD MSTORE PUSH1 0x40 ADD SWAP1 JUMP JUMPDEST PUSH1 0x0 PUSH1 0x20 DUP3 MSTORE DUP3 MLOAD DUP1 PUSH1 0x20 DUP5 ADD MSTORE PUSH2 0x53DE DUP2 PUSH1 0x40 DUP6 ADD PUSH1 0x20 DUP8 ADD PUSH2 0x5A36 JUMP JUMPDEST PUSH1 0x1F ADD PUSH1 0x1F NOT AND SWAP2 SWAP1 SWAP2 ADD PUSH1 0x40 ADD SWAP3 SWAP2 POP POP JUMP JUMPDEST SWAP1 DUP2 MSTORE PUSH1 0x20 ADD SWAP1 JUMP JUMPDEST SWAP2 DUP3 MSTORE PUSH1 0x20 DUP3 ADD MSTORE PUSH1 0x40 ADD SWAP1 JUMP JUMPDEST SWAP4 DUP5 MSTORE PUSH1 0x20 DUP5 ADD SWAP3 SWAP1 SWAP3 MSTORE PUSH1 0x40 DUP4 ADD MSTORE PUSH1 0x60 DUP3 ADD MSTORE PUSH1 0x80 ADD SWAP1 JUMP JUMPDEST SWAP5 DUP6 MSTORE PUSH1 0x20 DUP6 ADD SWAP4 SWAP1 SWAP4 MSTORE PUSH1 0x40 DUP5 ADD SWAP2 SWAP1 SWAP2 MSTORE PUSH1 0x60 DUP4 ADD MSTORE PUSH1 0x80 DUP3 ADD MSTORE PUSH1 0xA0 ADD SWAP1 JUMP JUMPDEST PUSH1 0x20 DUP1 DUP3 MSTORE PUSH1 0x1A SWAP1 DUP3 ADD MSTORE PUSH32 0x496E76616C6964205365636F6E64617279204D61747572697479000000000000 PUSH1 0x40 DUP3 ADD MSTORE PUSH1 0x60 ADD SWAP1 JUMP JUMPDEST PUSH1 0x20 DUP1 DUP3 MSTORE PUSH1 0xD SWAP1 DUP3 ADD MSTORE PUSH13 0x109BDC9C9BDDC811985A5B1959 PUSH1 0x9A SHL PUSH1 0x40 DUP3 ADD MSTORE PUSH1 0x60 ADD SWAP1 JUMP JUMPDEST PUSH1 0x20 DUP1 DUP3 MSTORE PUSH1 0x11 SWAP1 DUP3 ADD MSTORE PUSH17 0x52656465656D20616C6C20746F6B656E73 PUSH1 0x78 SHL PUSH1 0x40 DUP3 ADD MSTORE PUSH1 0x60 ADD SWAP1 JUMP JUMPDEST PUSH1 0x20 DUP1 DUP3 MSTORE PUSH1 0x6 SWAP1 DUP3 ADD MSTORE PUSH6 0x14185D5CD959 PUSH1 0xD2 SHL PUSH1 0x40 DUP3 ADD MSTORE PUSH1 0x60 ADD SWAP1 JUMP JUMPDEST PUSH1 0x20 DUP1 DUP3 MSTORE PUSH1 0xC SWAP1 DUP3 ADD MSTORE PUSH12 0x155B985D5D1A1BDC9A5E9959 PUSH1 0xA2 SHL PUSH1 0x40 DUP3 ADD MSTORE PUSH1 0x60 ADD SWAP1 JUMP JUMPDEST PUSH1 0x20 DUP1 DUP3 MSTORE PUSH1 0x4 SWAP1 DUP3 ADD MSTORE PUSH4 0x135A5B9D PUSH1 0xE2 SHL PUSH1 0x40 DUP3 ADD MSTORE PUSH1 0x60 ADD SWAP1 JUMP JUMPDEST PUSH1 0x20 DUP1 DUP3 MSTORE PUSH1 0x6 SWAP1 DUP3 ADD MSTORE PUSH6 0x52656465656D PUSH1 0xD0 SHL PUSH1 0x40 DUP3 ADD MSTORE PUSH1 0x60 ADD SWAP1 JUMP JUMPDEST PUSH1 0x20 DUP1 DUP3 MSTORE PUSH1 0xD SWAP1 DUP3 ADD MSTORE PUSH13 0x556E7061696420426F72726F77 PUSH1 0x98 SHL PUSH1 0x40 DUP3 ADD MSTORE PUSH1 0x60 ADD SWAP1 JUMP JUMPDEST PUSH1 0x20 DUP1 DUP3 MSTORE PUSH1 0x16 SWAP1 DUP3 ADD MSTORE PUSH22 0x125B9CDD59999A58DA595B9D081C995C185E5B595B9D PUSH1 0x52 SHL PUSH1 0x40 DUP3 ADD MSTORE PUSH1 0x60 ADD SWAP1 JUMP JUMPDEST PUSH1 0x20 DUP1 DUP3 MSTORE PUSH1 0x15 SWAP1 DUP3 ADD MSTORE PUSH21 0x10D1CE881B9BC81B585C9AD95D1CC81B1A5CDD1959 PUSH1 0x5A SHL PUSH1 0x40 DUP3 ADD MSTORE PUSH1 0x60 ADD SWAP1 JUMP JUMPDEST PUSH1 0x20 DUP1 DUP3 MSTORE PUSH1 0xD SWAP1 DUP3 ADD MSTORE PUSH13 0x92DCECC2D8D2C840D2DCC8CAF PUSH1 0x9B SHL PUSH1 0x40 DUP3 ADD MSTORE PUSH1 0x60 ADD SWAP1 JUMP JUMPDEST PUSH1 0x20 DUP1 DUP3 MSTORE PUSH1 0x10 SWAP1 DUP3 ADD MSTORE PUSH16 0x496E76616C6964204D61747572697479 PUSH1 0x80 SHL PUSH1 0x40 DUP3 ADD MSTORE PUSH1 0x60 ADD SWAP1 JUMP JUMPDEST PUSH1 0x20 DUP1 DUP3 MSTORE PUSH1 0x1D SWAP1 DUP3 ADD MSTORE PUSH32 0x496E73756666696369656E74205365636F6E6461727920426F72726F77000000 PUSH1 0x40 DUP3 ADD MSTORE PUSH1 0x60 ADD SWAP1 JUMP JUMPDEST PUSH1 0x20 DUP1 DUP3 MSTORE PUSH1 0xD SWAP1 DUP3 ADD MSTORE PUSH13 0x43616E6E6F7420536574746C65 PUSH1 0x98 SHL PUSH1 0x40 DUP3 ADD MSTORE PUSH1 0x60 ADD SWAP1 JUMP JUMPDEST PUSH1 0x20 DUP1 DUP3 MSTORE PUSH1 0xC SWAP1 DUP3 ADD MSTORE PUSH12 0x4D6178204361706163697479 PUSH1 0xA0 SHL PUSH1 0x40 DUP3 ADD MSTORE PUSH1 0x60 ADD SWAP1 JUMP JUMPDEST PUSH1 0x20 DUP1 DUP3 MSTORE PUSH1 0x16 SWAP1 DUP3 ADD MSTORE PUSH22 0x10D1CE881B585C9AD95D081A5B99195E08189BDD5B99 PUSH1 0x52 SHL PUSH1 0x40 DUP3 ADD MSTORE PUSH1 0x60 ADD SWAP1 JUMP JUMPDEST PUSH1 0x20 DUP1 DUP3 MSTORE PUSH1 0x10 SWAP1 DUP3 ADD MSTORE PUSH16 0x496E76616C69642043757272656E6379 PUSH1 0x80 SHL PUSH1 0x40 DUP3 ADD MSTORE PUSH1 0x60 ADD SWAP1 JUMP JUMPDEST PUSH1 0x20 DUP1 DUP3 MSTORE PUSH1 0x15 SWAP1 DUP3 ADD MSTORE PUSH21 0x10D85B9B9BDD0814995CD95D0814DB985C1CDA1BDD PUSH1 0x5A SHL PUSH1 0x40 DUP3 ADD MSTORE PUSH1 0x60 ADD SWAP1 JUMP JUMPDEST PUSH1 0x20 DUP1 DUP3 MSTORE DUP2 DUP2 ADD MSTORE PUSH32 0x4F776E61626C653A2063616C6C6572206973206E6F7420746865206F776E6572 PUSH1 0x40 DUP3 ADD MSTORE PUSH1 0x60 ADD SWAP1 JUMP JUMPDEST PUSH1 0x20 DUP1 DUP3 MSTORE PUSH1 0xD SWAP1 DUP3 ADD MSTORE PUSH13 0x125B8814D95D1D1B195B595B9D PUSH1 0x9A SHL PUSH1 0x40 DUP3 ADD MSTORE PUSH1 0x60 ADD SWAP1 JUMP JUMPDEST PUSH1 0x20 DUP1 DUP3 MSTORE PUSH1 0x17 SWAP1 DUP3 ADD MSTORE PUSH32 0x496E73756666696369656E7420436F6C6C61746572616C000000000000000000 PUSH1 0x40 DUP3 ADD MSTORE PUSH1 0x60 ADD SWAP1 JUMP JUMPDEST PUSH1 0x20 DUP1 DUP3 MSTORE PUSH1 0xC SWAP1 DUP3 ADD MSTORE PUSH12 0x496E76616C69642072617465 PUSH1 0xA0 SHL PUSH1 0x40 DUP3 ADD MSTORE PUSH1 0x60 ADD SWAP1 JUMP JUMPDEST PUSH1 0x20 DUP1 DUP3 MSTORE PUSH1 0xE SWAP1 DUP3 ADD MSTORE PUSH14 0x1499595B9D1C985B9D0818D85B1B PUSH1 0x92 SHL PUSH1 0x40 DUP3 ADD MSTORE PUSH1 0x60 ADD SWAP1 JUMP JUMPDEST PUSH1 0x20 DUP1 DUP3 MSTORE PUSH1 0x12 SWAP1 DUP3 ADD MSTORE PUSH18 0x496E73756666696369656E74205265706179 PUSH1 0x70 SHL PUSH1 0x40 DUP3 ADD MSTORE PUSH1 0x60 ADD SWAP1 JUMP JUMPDEST PUSH1 0x20 DUP1 DUP3 MSTORE PUSH1 0x13 SWAP1 DUP3 ADD MSTORE PUSH19 0x10D1CE881B9BC81B585C9AD95D08199BDD5B99 PUSH1 0x6A SHL PUSH1 0x40 DUP3 ADD MSTORE PUSH1 0x60 ADD SWAP1 JUMP JUMPDEST PUSH1 0x0 PUSH2 0x200 DUP3 ADD SWAP1 POP PUSH2 0x5886 DUP3 DUP5 MLOAD PUSH2 0x51C3 JUMP JUMPDEST PUSH1 0x20 DUP4 ADD MLOAD PUSH2 0x5898 PUSH1 0x20 DUP5 ADD DUP3 PUSH2 0x5249 JUMP JUMPDEST POP PUSH1 0x40 DUP4 ADD MLOAD PUSH2 0x58AB PUSH1 0x40 DUP5 ADD DUP3 PUSH2 0x5249 JUMP JUMPDEST POP PUSH1 0x60 DUP4 ADD MLOAD PUSH1 0x60 DUP4 ADD MSTORE PUSH1 0x80 DUP4 ADD MLOAD PUSH1 0x80 DUP4 ADD MSTORE PUSH1 0xA0 DUP4 ADD MLOAD PUSH1 0xA0 DUP4 ADD MSTORE PUSH1 0xC0 DUP4 ADD MLOAD PUSH1 0xC0 DUP4 ADD MSTORE PUSH1 0xE0 DUP4 ADD MLOAD PUSH1 0xE0 DUP4 ADD MSTORE PUSH2 0x100 DUP1 DUP5 ADD MLOAD DUP2 DUP5 ADD MSTORE POP PUSH2 0x120 DUP1 DUP5 ADD MLOAD DUP2 DUP5 ADD MSTORE POP PUSH2 0x140 DUP1 DUP5 ADD MLOAD PUSH2 0x5909 DUP3 DUP6 ADD DUP3 PUSH2 0x51D0 JUMP JUMPDEST POP POP PUSH2 0x160 DUP4 ADD MLOAD PUSH2 0x180 PUSH2 0x5920 DUP2 DUP6 ADD DUP4 PUSH2 0x5227 JUMP JUMPDEST DUP1 DUP6 ADD MLOAD PUSH2 0x1E0 DUP6 ADD MSTORE POP POP SWAP3 SWAP2 POP POP JUMP JUMPDEST PUSH1 0x0 PUSH1 0xE0 DUP3 ADD SWAP1 POP DUP3 MLOAD DUP3 MSTORE PUSH1 0x20 DUP4 ADD MLOAD PUSH1 0x20 DUP4 ADD MSTORE PUSH1 0x40 DUP4 ADD MLOAD ISZERO ISZERO PUSH1 0x40 DUP4 ADD MSTORE PUSH1 0x60 DUP4 ADD MLOAD PUSH1 0x60 DUP4 ADD MSTORE PUSH1 0x80 DUP4 ADD MLOAD PUSH1 0x80 DUP4 ADD MSTORE PUSH1 0xA0 DUP4 ADD MLOAD PUSH1 0xA0 DUP4 ADD MSTORE PUSH1 0xC0 DUP4 ADD MLOAD PUSH1 0xC0 DUP4 ADD MSTORE SWAP3 SWAP2 POP POP JUMP JUMPDEST PUSH1 0x1 PUSH1 0x1 PUSH1 0x80 SHL SUB SWAP2 SWAP1 SWAP2 AND DUP2 MSTORE PUSH1 0x20 ADD SWAP1 JUMP JUMPDEST PUSH2 0xFFFF SWAP3 SWAP1 SWAP3 AND DUP3 MSTORE PUSH1 0x20 DUP3 ADD MSTORE PUSH1 0x40 ADD SWAP1 JUMP JUMPDEST SWAP3 DUP4 MSTORE PUSH1 0x20 DUP4 ADD SWAP2 SWAP1 SWAP2 MSTORE PUSH1 0x40 DUP3 ADD MSTORE PUSH1 0x60 ADD SWAP1 JUMP JUMPDEST PUSH1 0x1 PUSH1 0x1 PUSH1 0x50 SHL SUB SWAP2 SWAP1 SWAP2 AND DUP2 MSTORE PUSH1 0x20 ADD SWAP1 JUMP JUMPDEST DUP2 DUP2 PUSH1 0x0 DUP1 JUMPDEST PUSH1 0x2 DUP1 DUP3 LT PUSH2 0x59E9 JUMPI POP PUSH2 0x3607 JUMP JUMPDEST DUP5 CALLDATALOAD PUSH2 0x59F4 DUP2 PUSH2 0x5C72 JUMP JUMPDEST DUP5 SLOAD PUSH2 0xFFFF PUSH1 0x8 DUP7 MUL DUP2 DUP2 SHL DUP1 NOT SWAP1 SWAP4 AND SWAP4 SWAP1 SWAP2 AND SWAP1 SHL AND OR DUP5 SSTORE PUSH1 0x20 SWAP5 SWAP1 SWAP5 ADD SWAP4 SWAP1 SWAP2 ADD SWAP1 PUSH1 0x1E DUP3 GT ISZERO PUSH2 0x5A2E JUMPI PUSH1 0x0 SWAP2 POP PUSH1 0x1 DUP4 ADD SWAP3 POP JUMPDEST PUSH1 0x1 ADD PUSH2 0x59DA JUMP JUMPDEST PUSH1 0x0 JUMPDEST DUP4 DUP2 LT ISZERO PUSH2 0x5A51 JUMPI DUP2 DUP2 ADD MLOAD DUP4 DUP3 ADD MSTORE PUSH1 0x20 ADD PUSH2 0x5A39 JUMP JUMPDEST DUP4 DUP2 GT ISZERO PUSH2 0x51F7 JUMPI POP POP PUSH1 0x0 SWAP2 ADD MSTORE JUMP JUMPDEST PUSH1 0x0 DUP2 CALLDATALOAD PUSH2 0x1045 DUP2 PUSH2 0x5C72 JUMP JUMPDEST PUSH1 0x0 DUP2 CALLDATALOAD PUSH2 0x1045 DUP2 PUSH2 0x5C85 JUMP JUMPDEST PUSH1 0x0 DUP2 CALLDATALOAD PUSH2 0x1045 DUP2 PUSH2 0x5C97 JUMP JUMPDEST DUP2 CALLDATALOAD PUSH2 0x5A94 DUP2 PUSH2 0x5C72 JUMP JUMPDEST PUSH2 0x5A9E DUP2 DUP4 PUSH2 0x5B6E JUMP JUMPDEST POP PUSH2 0x5AB4 PUSH2 0x5AAE PUSH1 0x20 DUP5 ADD PUSH2 0x5A62 JUMP JUMPDEST DUP3 PUSH2 0x5C14 JUMP JUMPDEST PUSH2 0x5AC9 PUSH2 0x5AC3 PUSH1 0x40 DUP5 ADD PUSH2 0x5A6F JUMP JUMPDEST DUP3 PUSH2 0x5C30 JUMP JUMPDEST PUSH2 0x5ADE PUSH2 0x5AD8 PUSH1 0x60 DUP5 ADD PUSH2 0x5A62 JUMP JUMPDEST DUP3 PUSH2 0x5C54 JUMP JUMPDEST PUSH2 0x5AF3 PUSH2 0x5AED PUSH1 0x80 DUP5 ADD PUSH2 0x5A7C JUMP JUMPDEST DUP3 PUSH2 0x5B81 JUMP JUMPDEST PUSH2 0x5B08 PUSH2 0x5B02 PUSH1 0xA0 DUP5 ADD PUSH2 0x5A7C JUMP JUMPDEST DUP3 PUSH2 0x5B9E JUMP JUMPDEST PUSH2 0x5B1D PUSH2 0x5B17 PUSH1 0xC0 DUP5 ADD PUSH2 0x5A7C JUMP JUMPDEST DUP3 PUSH2 0x5BBB JUMP JUMPDEST PUSH2 0x5B32 PUSH2 0x5B2C PUSH1 0xE0 DUP5 ADD PUSH2 0x5A7C JUMP JUMPDEST DUP3 PUSH2 0x5BD8 JUMP JUMPDEST PUSH2 0x5B48 PUSH2 0x5B42 PUSH2 0x100 DUP5 ADD PUSH2 0x5A62 JUMP JUMPDEST DUP3 PUSH2 0x5BF5 JUMP JUMPDEST PUSH2 0x5B59 PUSH2 0x120 DUP4 ADD PUSH1 0x1 DUP4 ADD PUSH2 0x59D4 JUMP JUMPDEST PUSH2 0x48F4 PUSH2 0x5B69 PUSH2 0x160 DUP5 ADD PUSH2 0x5A62 JUMP JUMPDEST PUSH1 0x2 DUP4 ADD JUMPDEST PUSH2 0xFFFF DUP3 AND PUSH2 0xFFFF NOT DUP3 SLOAD AND OR DUP2 SSTORE POP POP JUMP JUMPDEST DUP1 SLOAD PUSH1 0xFF PUSH1 0x50 SHL NOT AND PUSH1 0x50 SWAP3 SWAP1 SWAP3 SHL PUSH1 0xFF PUSH1 0x50 SHL AND SWAP2 SWAP1 SWAP2 OR SWAP1 SSTORE JUMP JUMPDEST DUP1 SLOAD PUSH1 0xFF PUSH1 0x58 SHL NOT AND PUSH1 0x58 SWAP3 SWAP1 SWAP3 SHL PUSH1 0xFF PUSH1 0x58 SHL AND SWAP2 SWAP1 SWAP2 OR SWAP1 SSTORE JUMP JUMPDEST DUP1 SLOAD PUSH1 0xFF PUSH1 0x60 SHL NOT AND PUSH1 0x60 SWAP3 SWAP1 SWAP3 SHL PUSH1 0xFF PUSH1 0x60 SHL AND SWAP2 SWAP1 SWAP2 OR SWAP1 SSTORE JUMP JUMPDEST DUP1 SLOAD PUSH1 0xFF PUSH1 0x68 SHL NOT AND PUSH1 0x68 SWAP3 SWAP1 SWAP3 SHL PUSH1 0xFF PUSH1 0x68 SHL AND SWAP2 SWAP1 SWAP2 OR SWAP1 SSTORE JUMP JUMPDEST DUP1 SLOAD PUSH2 0xFFFF PUSH1 0x70 SHL NOT AND PUSH1 0x70 SWAP3 SWAP1 SWAP3 SHL PUSH2 0xFFFF PUSH1 0x70 SHL AND SWAP2 SWAP1 SWAP2 OR SWAP1 SSTORE JUMP JUMPDEST DUP1 SLOAD PUSH4 0xFFFF0000 DUP4 PUSH1 0x10 SHL AND PUSH4 0xFFFF0000 NOT DUP3 AND OR DUP3 SSTORE POP POP POP JUMP JUMPDEST DUP1 SLOAD PUSH8 0xFFFFFFFF00000000 DUP4 PUSH1 0x20 SHL AND PUSH8 0xFFFFFFFF00000000 NOT DUP3 AND OR DUP3 SSTORE POP POP POP JUMP JUMPDEST DUP1 SLOAD PUSH2 0xFFFF PUSH1 0x40 SHL DUP4 PUSH1 0x40 SHL AND PUSH2 0xFFFF PUSH1 0x40 SHL NOT DUP3 AND OR DUP3 SSTORE POP POP POP JUMP JUMPDEST PUSH2 0xFFFF DUP2 AND DUP2 EQ PUSH2 0x5C82 JUMPI PUSH1 0x0 DUP1 REVERT JUMPDEST POP JUMP JUMPDEST PUSH4 0xFFFFFFFF DUP2 AND DUP2 EQ PUSH2 0x5C82 JUMPI PUSH1 0x0 DUP1 REVERT JUMPDEST PUSH1 0xFF DUP2 AND DUP2 EQ PUSH2 0x5C82 JUMPI PUSH1 0x0 DUP1 REVERT JUMPDEST PUSH1 0x1 PUSH1 0x1 PUSH1 0x50 SHL SUB DUP2 AND DUP2 EQ PUSH2 0x5C82 JUMPI PUSH1 0x0 DUP1 REVERT INVALID LOG2 PUSH5 0x6970667358 0x22 SLT KECCAK256 0xBE SELFDESTRUCT MSTORE8 CALLDATASIZE PUSH25 0xF52D6B140142D5D966A1F3179D84ED45FAE60D43BF48E92125 CREATE2 0xBC PUSH5 0x736F6C6343 STOP SMOD MOD STOP CALLER ",
  "sha1": "b017d131c585c85e365826aa5961b12a8bdaa100",
  "source": "// SPDX-License-Identifier: GPL-3.0-only\npragma solidity =0.7.6;\npragma abicoder v2;\n\nimport {ActionGuards} from \"./ActionGuards.sol\";\nimport {IVaultAction} from \"../../../interfaces/notional/IVaultController.sol\";\nimport \"../../internal/vaults/VaultConfiguration.sol\";\nimport \"../../internal/vaults/VaultAccount.sol\";\nimport {VaultStateLib, VaultState} from \"../../internal/vaults/VaultState.sol\";\n\nimport {LibStorage} from \"../../global/LibStorage.sol\";\nimport {SafeUint256} from \"../../math/SafeUint256.sol\";\n\ncontract VaultAction is ActionGuards, IVaultAction {\n    using VaultConfiguration for VaultConfig;\n    using VaultAccountLib for VaultAccount;\n    using VaultStateLib for VaultState;\n    using AssetRate for AssetRateParameters;\n    using TokenHandler for Token;\n    using SafeInt256 for int256;\n    using SafeUint256 for uint256;\n\n    /// @notice Updates or lists a deployed vault along with its configuration.\n    /// @param vaultAddress address of deployed vault\n    /// @param vaultConfig struct of vault configuration\n    /// @param maxPrimaryBorrowCapacity maximum borrow capacity\n    function updateVault(\n        address vaultAddress,\n        VaultConfigStorage calldata vaultConfig,\n        uint80 maxPrimaryBorrowCapacity\n    ) external override onlyOwner {\n        VaultConfiguration.setVaultConfig(vaultAddress, vaultConfig);\n        VaultConfiguration.setMaxBorrowCapacity(vaultAddress, vaultConfig.borrowCurrencyId, maxPrimaryBorrowCapacity);\n        bool enabled = (vaultConfig.flags & VaultConfiguration.ENABLED) == VaultConfiguration.ENABLED;\n        emit VaultUpdated(vaultAddress, enabled, maxPrimaryBorrowCapacity);\n    }\n\n    /// @notice Enables or disables a vault. If a vault is disabled, no one can enter\n    /// the vault but exits are still possible.\n    /// @param vaultAddress address of deployed vault\n    /// @param enable true if the vault should be enabled immediately\n    function setVaultPauseStatus(\n        address vaultAddress,\n        bool enable\n    ) external override onlyOwner {\n        VaultConfiguration.setVaultEnabledStatus(vaultAddress, enable);\n        emit VaultPauseStatus(vaultAddress, enable);\n    }\n\n    /// @notice Enables or disables deleverage on a vault.\n    /// @param vaultAddress address of deployed vault\n    /// @param disableDeleverage true if the vault deleverage should be disabled\n    function setVaultDeleverageStatus(\n        address vaultAddress,\n        bool disableDeleverage\n    ) external override onlyOwner {\n        VaultConfiguration.setVaultDeleverageStatus(vaultAddress, disableDeleverage);\n        emit VaultDeleverageStatus(vaultAddress, disableDeleverage);\n    }\n\n    /// @notice Whitelists a secondary borrow currency for a vault, vaults can borrow up to the capacity\n    /// using the `borrowSecondaryCurrencyToVault` and `repaySecondaryCurrencyToVault` methods. Vaults that\n    /// use a secondary currency must ALWAYS repay the secondary debt during redemption and handle accounting\n    /// for the secondary currency themselves.\n    /// @param vaultAddress address of deployed vault\n    /// @param secondaryCurrencyId struct of vault configuration\n    /// @param maxBorrowCapacity maximum borrow capacity\n    function updateSecondaryBorrowCapacity(\n        address vaultAddress,\n        uint16 secondaryCurrencyId,\n        uint80 maxBorrowCapacity\n    ) external override onlyOwner {\n        VaultConfig memory vaultConfig = VaultConfiguration.getVaultConfigStateful(vaultAddress);\n        // Tokens with transfer fees create lots of issues with vault mechanics, we prevent them\n        // from being listed here.\n        Token memory assetToken = TokenHandler.getAssetToken(secondaryCurrencyId);\n        Token memory underlyingToken = TokenHandler.getUnderlyingToken(secondaryCurrencyId);\n        require(!assetToken.hasTransferFee && !underlyingToken.hasTransferFee); \n\n        // The secondary borrow currency must be white listed on the configuration before we can set a max\n        // capacity.\n        require(\n            secondaryCurrencyId == vaultConfig.secondaryBorrowCurrencies[0] ||\n            secondaryCurrencyId == vaultConfig.secondaryBorrowCurrencies[1],\n            \"Invalid Currency\"\n        );\n\n        VaultConfiguration.setMaxBorrowCapacity(vaultAddress, secondaryCurrencyId, maxBorrowCapacity);\n        emit VaultUpdateSecondaryBorrowCapacity(vaultAddress, secondaryCurrencyId, maxBorrowCapacity);\n    }\n\n\n    /// @notice Allows the owner to reduce the max borrow capacity on the vault\n    /// @param vaultAddress address of the vault\n    /// @param maxVaultBorrowCapacity the new max vault borrow capacity on the primary currency\n    function setMaxBorrowCapacity(\n        address vaultAddress,\n        uint80 maxVaultBorrowCapacity\n    ) external override onlyOwner {\n        VaultConfig memory vaultConfig = VaultConfiguration.getVaultConfigStateful(vaultAddress);\n        VaultConfiguration.setMaxBorrowCapacity(vaultAddress, vaultConfig.borrowCurrencyId, maxVaultBorrowCapacity);\n\n        emit VaultUpdated(vaultAddress, vaultConfig.getFlag(VaultConfiguration.ENABLED), maxVaultBorrowCapacity);\n    }\n\n    /// @notice Allows the owner to reduce the max borrow capacity on the vault and force\n    /// the redemption of strategy tokens to cash to reduce the overall risk of the vault.\n    /// This method is intended to be used in emergencies to mitigate insolvency risk. The effect\n    /// of this method will mean that the overall max borrow capacity is reduced, the total used\n    /// capacity will be unchanged (redeemStrategyTokensToCash does not do any lending to reduce\n    /// the outstanding fCash), and accounts will be locked out of entering the maturity which was\n    /// targeted by this method. Other maturities for that vault may still be entered depending on\n    /// whether or not the vault is above or below the max vault borrow capacity.\n    /// @param vaultAddress address of the vault\n    /// @param maxVaultBorrowCapacity the new max vault borrow capacity on the primary currency\n    /// @param maturity the maturity to redeem tokens in, will generally be either the current\n    /// maturity or the next maturity.\n    /// @param strategyTokensToRedeem how many tokens we would want to redeem in the maturity\n    /// @param vaultData vault data to pass to the vault\n    function reduceMaxBorrowCapacity(\n        address vaultAddress,\n        uint80 maxVaultBorrowCapacity,\n        uint256 maturity,\n        uint256 strategyTokensToRedeem,\n        bytes calldata vaultData\n    ) external override onlyOwner {\n        VaultConfig memory vaultConfig = VaultConfiguration.getVaultConfigStateful(vaultAddress);\n        VaultConfiguration.setMaxBorrowCapacity(vaultAddress, vaultConfig.borrowCurrencyId, maxVaultBorrowCapacity);\n\n        // Redeems strategy tokens to be held against fCash debt\n        _redeemStrategyTokensToCashInternal(vaultConfig, maturity, strategyTokensToRedeem, vaultData);\n\n        emit VaultUpdated(vaultAddress, vaultConfig.getFlag(VaultConfiguration.ENABLED), maxVaultBorrowCapacity);\n    }\n\n    /// @notice Strategy vaults can call this method to redeem strategy tokens to cash and hold them\n    /// as asset cash within the pool. This should typically be used during settlement but can also be\n    /// used for vault-wide deleveraging.\n    /// @param maturity the maturity of the vault where the redemption will take place\n    /// @param strategyTokensToRedeem the number of strategy tokens redeemed\n    /// @param vaultData arbitrary data to pass back to the vault\n    /// @return assetCashRequiredToSettle amount of asset cash still remaining to settle the debt\n    /// @return underlyingCashRequiredToSettle amount of underlying cash still remaining to settle the debt\n    function redeemStrategyTokensToCash(\n        uint256 maturity,\n        uint256 strategyTokensToRedeem,\n        bytes calldata vaultData\n    ) external override returns (int256 assetCashRequiredToSettle, int256 underlyingCashRequiredToSettle) {\n        // NOTE: this call must come from the vault itself\n        VaultConfig memory vaultConfig = VaultConfiguration.getVaultConfigStateful(msg.sender);\n        // NOTE: if the msg.sender is not the vault itself this will revert\n        require(vaultConfig.getFlag(VaultConfiguration.ENABLED), \"Paused\");\n        return _redeemStrategyTokensToCashInternal(vaultConfig, maturity, strategyTokensToRedeem, vaultData);\n    }\n\n    /// @notice Redeems strategy tokens to cash\n    function _redeemStrategyTokensToCashInternal(\n        VaultConfig memory vaultConfig,\n        uint256 maturity,\n        uint256 strategyTokensToRedeem,\n        bytes calldata vaultData\n    ) private nonReentrant returns (int256 assetCashRequiredToSettle, int256 underlyingCashRequiredToSettle) {\n        // If the vault allows further re-entrancy then set the status back to the default\n        if (vaultConfig.getFlag(VaultConfiguration.ALLOW_REENTRANCY)) {\n            reentrancyStatus = _NOT_ENTERED;\n        }\n\n        VaultState memory vaultState = VaultStateLib.getVaultState(vaultConfig.vault, maturity);\n        (int256 assetCashReceived, uint256 underlyingToReceiver) = vaultConfig.redeemWithoutDebtRepayment(\n            vaultConfig.vault, strategyTokensToRedeem, maturity, vaultData\n        );\n        require(assetCashReceived > 0);\n        // Safety check to ensure that the vault does not somehow receive tokens in this scenario\n        require(underlyingToReceiver == 0);\n\n        vaultState.totalAssetCash = vaultState.totalAssetCash.add(uint256(assetCashReceived));\n        vaultState.totalStrategyTokens = vaultState.totalStrategyTokens.sub(strategyTokensToRedeem);\n        vaultState.setVaultState(vaultConfig.vault);\n\n        emit VaultRedeemStrategyToken(vaultConfig.vault, maturity, assetCashReceived, strategyTokensToRedeem);\n        return _getCashRequiredToSettle(vaultConfig, vaultState, maturity);\n    }\n\n    /// @notice Strategy vaults can call this method to deposit asset cash into strategy tokens.\n    /// @param maturity the maturity of the vault where the redemption will take place\n    /// @param assetCashInternal the number of asset cash tokens to deposit (external)\n    /// @param vaultData arbitrary data to pass back to the vault for deposit\n    function depositVaultCashToStrategyTokens(\n        uint256 maturity,\n        uint256 assetCashInternal,\n        bytes calldata vaultData\n    ) external override nonReentrant {\n        VaultConfig memory vaultConfig = VaultConfiguration.getVaultConfigStateful(msg.sender);\n        // NOTE: if the msg.sender is not the vault itself this will revert\n        require(vaultConfig.getFlag(VaultConfiguration.ENABLED), \"Paused\");\n\n        // If the vault allows further re-entrancy then set the status back to the default\n        if (vaultConfig.getFlag(VaultConfiguration.ALLOW_REENTRANCY)) {\n            reentrancyStatus = _NOT_ENTERED;\n        }\n\n        VaultState memory vaultState = VaultStateLib.getVaultState(msg.sender, maturity);\n        uint256 strategyTokensMinted = vaultConfig.deposit(\n            vaultConfig.vault, assetCashInternal.toInt(), maturity, 0, vaultData\n        );\n\n        vaultState.totalAssetCash = vaultState.totalAssetCash.sub(assetCashInternal);\n        vaultState.totalStrategyTokens = vaultState.totalStrategyTokens.add(strategyTokensMinted);\n        vaultState.setVaultState(msg.sender);\n\n        // When exchanging asset cash for strategy tokens we will decrease the vault's collateral, ensure that\n        // we don't go under the configured minimum here.\n        (int256 collateralRatio, /* */) = vaultConfig.calculateCollateralRatio(\n            vaultState, msg.sender, vaultState.totalVaultShares, vaultState.totalfCash\n        );\n        require(vaultConfig.minCollateralRatio <= collateralRatio, \"Insufficient Collateral\");\n        emit VaultMintStrategyToken(msg.sender, maturity, assetCashInternal, strategyTokensMinted);\n    }\n\n    /// @notice Allows a vault to borrow a secondary currency if it is whitelisted to do so\n    /// @param account account that is borrowing the secondary currency\n    /// @param maturity the maturity to borrow at\n    /// @param fCashToBorrow fCash to borrow for the first and second secondary currencies\n    /// @param maxBorrowRate maximum borrow rate for the first and second secondary currencies\n    /// @param minRollLendRate max roll lend rate for the first and second borrow currencies\n    /// @return underlyingTokensTransferred amount of tokens transferred back to the vault\n    function borrowSecondaryCurrencyToVault(\n        address account,\n        uint256 maturity,\n        uint256[2] calldata fCashToBorrow,\n        uint32[2] calldata maxBorrowRate,\n        uint32[2] calldata minRollLendRate\n    ) external override returns (uint256[2] memory underlyingTokensTransferred) {\n        // This method call must come from the vault\n        VaultConfig memory vaultConfig = VaultConfiguration.getVaultConfigStateful(msg.sender);\n        // This also ensures that the caller is an actual vault\n        require(vaultConfig.getFlag(VaultConfiguration.ENABLED), \"Paused\");\n        uint16[2] memory currencies = vaultConfig.secondaryBorrowCurrencies;\n        require(currencies[0] != 0 || currencies[1] != 0);\n\n        VaultAccountSecondaryDebtShareStorage storage s = \n            LibStorage.getVaultAccountSecondaryDebtShare()[account][vaultConfig.vault];\n        uint256 accountMaturity = s.maturity;\n        \n        // If the borrower is rolling their primary debt forward, we need to check that here and roll\n        // their secondary debt forward in the same manner (simulate lending and then borrow more in\n        // a longer dated maturity to repay their borrowing). Rolling debts forward can only occur if:\n        //  - borrower has an existing debt position\n        //  - borrower is rolling to a longer dated maturity\n        //  - vault allows rolling positions forward\n        //  - borrower is not the vault itself (only individual accounts can roll borrows)\n        int256[2] memory costToRepay;\n        if (\n            accountMaturity != 0 &&\n            accountMaturity < maturity &&\n            vaultConfig.getFlag(VaultConfiguration.ALLOW_ROLL_POSITION) &&\n            account != msg.sender\n        ) {\n            costToRepay[0] = _repayDuringRoll(\n                vaultConfig, account, currencies[0], accountMaturity, s.accountDebtSharesOne, minRollLendRate[0]\n            );\n            costToRepay[1] = _repayDuringRoll(\n                vaultConfig, account, currencies[1], accountMaturity, s.accountDebtSharesTwo, minRollLendRate[1]\n            );\n        }\n\n        underlyingTokensTransferred[0] = _borrowAndTransfer(\n            vaultConfig, account, currencies[0], maturity, costToRepay[0], fCashToBorrow[0], maxBorrowRate[0]\n        );\n        underlyingTokensTransferred[1] = _borrowAndTransfer(\n            vaultConfig, account, currencies[1], maturity, costToRepay[1], fCashToBorrow[1], maxBorrowRate[1]\n        );\n    }\n\n    function _repayDuringRoll(\n        VaultConfig memory vaultConfig,\n        address account,\n        uint16 currencyId,\n        uint256 maturity,\n        uint256 accountDebtShares,\n        uint32 minLendRate\n    ) private returns (int256 costToRepay) {\n        if (currencyId != 0 && accountDebtShares != 0) {\n            (costToRepay, /* */) = vaultConfig.repaySecondaryBorrow(\n                account, currencyId, maturity, accountDebtShares, minLendRate\n            );\n        }\n    }\n\n    function _borrowAndTransfer(\n        VaultConfig memory vaultConfig,\n        address account,\n        uint16 currencyId,\n        uint256 maturity,\n        int256 costToRepay,\n        uint256 fCashToBorrow,\n        uint32 maxBorrowRate\n    ) private returns (uint256 underlyingTokensTransferred) {\n        if ((currencyId == 0 || fCashToBorrow == 0) && costToRepay == 0) return 0;\n\n        (int256 netBorrowedCash, /* */) = vaultConfig.increaseSecondaryBorrow(\n            account, currencyId, maturity, fCashToBorrow, maxBorrowRate\n        );\n\n        netBorrowedCash = netBorrowedCash.add(costToRepay);\n        require(netBorrowedCash >= 0, \"Insufficient Secondary Borrow\");\n\n        underlyingTokensTransferred = VaultConfiguration.transferFromNotional(\n            vaultConfig.vault, currencyId, netBorrowedCash\n        );\n    }\n\n    /// @notice Allows a vault to repay a secondary currency that it has borrowed. Will be executed via a callback\n    /// which will request that the vault repay a specific amount of underlying tokens.\n    /// @param account account that is repaying the secondary currency\n    /// @param currencyId currency id of the secondary currency\n    /// @param maturity the maturity to lend at\n    /// @param debtSharesToRepay amount of debt shares to repay (used to calculate fCashToLend)\n    /// @param minLendRate minimum lend rate\n    /// @return returnData arbitrary return data to pass back to the vault\n    function repaySecondaryCurrencyFromVault(\n        address account,\n        uint16 currencyId,\n        uint256 maturity,\n        uint256 debtSharesToRepay,\n        uint32 minLendRate,\n        bytes calldata callbackData\n    ) external override returns (bytes memory returnData) {\n        // Short circuits a zero debt shares to repay to save gas and avoid divide by zero issues\n        if (debtSharesToRepay == 0) return returnData;\n\n        // This method call must come from the vault\n        VaultConfig memory vaultConfig = VaultConfiguration.getVaultConfigStateful(msg.sender);\n        require(vaultConfig.getFlag(VaultConfiguration.ENABLED), \"Paused\");\n\n        (int256 netAssetCash, /* */) = vaultConfig.repaySecondaryBorrow(\n            account, currencyId, maturity, debtSharesToRepay, minLendRate\n        );\n\n        Token memory assetToken = TokenHandler.getAssetToken(currencyId);\n        // The vault MUST return exactly this amount of underlying tokens to the vault in the callback. We use\n        // a callback here because it is more precise and gas efficient than calculating netAssetCash twice\n        uint256 balanceTransferred;\n        {\n            // If the asset token is NonMintable then the underlying is the same object.\n            Token memory underlyingToken = assetToken.tokenType == TokenType.NonMintable ? \n                assetToken :\n                TokenHandler.getUnderlyingToken(currencyId);\n\n            uint256 underlyingExternalToRepay = underlyingToken.convertToUnderlyingExternalWithAdjustment(\n                vaultConfig.assetRate.convertToUnderlying(netAssetCash).neg()\n            ).toUint();\n\n            uint256 balanceBefore = underlyingToken.balanceOf(address(this));\n            // Tells the vault will redeem the strategy token amount and transfer asset tokens back to Notional\n            returnData = IStrategyVault(msg.sender).repaySecondaryBorrowCallback(\n                underlyingToken.tokenAddress, underlyingExternalToRepay, callbackData\n            );\n            uint256 balanceAfter = underlyingToken.balanceOf(address(this));\n            balanceTransferred = balanceAfter.sub(balanceBefore);\n            require(balanceTransferred >= underlyingExternalToRepay, \"Insufficient Repay\");\n        }\n\n        // NonMintable tokens do not require minting\n        if (assetToken.tokenType != TokenType.NonMintable) {\n            assetToken.mint(currencyId, balanceTransferred);\n        }\n    }\n\n    /**\n     * @notice MUST be called by vaults that are using secondary borrows to initiate the settlement\n     * process. Once settlement process has been initiated, no further secondary borrows may occur in\n     * this maturity. Repayments can only occur via the vault itself, individual accounts cannot repay\n     * secondary borrows after this occurs. Can only be called by the vault.\n     * @param maturity maturity in which to initiate settlement\n     * @return secondaryBorrowSnapshot value of fCash in primary currency terms for both secondary borrow\n     * currencies\n     */\n    function initiateSecondaryBorrowSettlement(\n        uint256 maturity\n    ) external override returns (uint256[2] memory secondaryBorrowSnapshot) {\n        // This method call must come from the vault\n        VaultConfig memory vaultConfig = VaultConfiguration.getVaultConfigStateful(msg.sender);\n        require(vaultConfig.getFlag(VaultConfiguration.ENABLED), \"Paused\");\n\n        secondaryBorrowSnapshot[0] = vaultConfig.snapshotSecondaryBorrowAtSettlement(\n            vaultConfig.secondaryBorrowCurrencies[0],\n            maturity\n        ).toUint();\n\n        secondaryBorrowSnapshot[1] = vaultConfig.snapshotSecondaryBorrowAtSettlement(\n            vaultConfig.secondaryBorrowCurrencies[1],\n            maturity\n        ).toUint();\n    }\n\n    /// @notice Settles a vault and sets the final settlement rates\n    /// @param vault the vault to settle\n    /// @param maturity the maturity of the vault\n    function settleVault(address vault, uint256 maturity) external override nonReentrant {\n        VaultConfig memory vaultConfig = VaultConfiguration.getVaultConfigStateful(vault);\n        // Allow anyone to call this method unless it must be authorized by the vault. Generally speaking,\n        // as long as there is sufficient cash on the vault we should be able to settle\n        vaultConfig.authorizeCaller(msg.sender, VaultConfiguration.ONLY_VAULT_SETTLE);\n\n        VaultState memory vaultState = VaultStateLib.getVaultState(vault, maturity);\n        // Ensure that we are past maturity and the vault is able to settle\n        require(maturity <= block.timestamp && vaultState.isSettled == false, \"Cannot Settle\");\n\n        AssetRateParameters memory settlementRate = AssetRate.buildSettlementRateStateful(\n            vaultConfig.borrowCurrencyId,\n            maturity,\n            block.timestamp\n        );\n\n        // This is how much it costs in asset cash to settle the pooled portion of the vault\n        uint256 assetCashRequiredToSettle = settlementRate.convertFromUnderlying(\n            vaultState.totalfCash.neg()\n        ).toUint();\n\n        // Validate that all secondary currencies have been paid off.\n        mapping(uint256 => VaultSecondaryBorrowStorage) storage perCurrencyBalance =\n            LibStorage.getVaultSecondaryBorrow()[vault][maturity];\n        if (vaultConfig.secondaryBorrowCurrencies[0] != 0) {\n            require(perCurrencyBalance[vaultConfig.secondaryBorrowCurrencies[0]].totalfCashBorrowed == 0, \"Unpaid Borrow\");\n        }\n        if (vaultConfig.secondaryBorrowCurrencies[1] != 0) {\n            require(perCurrencyBalance[vaultConfig.secondaryBorrowCurrencies[1]].totalfCashBorrowed == 0, \"Unpaid Borrow\");\n        }\n\n        if (vaultState.totalAssetCash < assetCashRequiredToSettle) {\n            // Don't allow the pooled portion of the vault to have a cash shortfall unless all\n            // strategy tokens have been redeemed to asset cash.\n            require(vaultState.totalStrategyTokens == 0, \"Redeem all tokens\");\n\n            // After this point, we have a cash shortfall and will need to resolve it.\n            // Underflow checked above\n            int256 assetCashShortfall = (assetCashRequiredToSettle - vaultState.totalAssetCash).toInt();\n            uint256 assetCashRaised = VaultConfiguration.resolveShortfallWithReserve(\n                vaultConfig.vault, vaultConfig.borrowCurrencyId, assetCashShortfall, maturity\n            ).toUint();\n\n            vaultState.totalAssetCash = vaultState.totalAssetCash.add(assetCashRaised);\n            vaultState.setVaultState(vault);\n        }\n\n        // Clears the used borrow capacity regardless of the insolvency state of the vault. Since vaults are\n        // automatically paused in the case of any shortfall, no accounts will be able to enter regardless\n        // but we still want to maintain proper accounting of the borrow capacity.\n        VaultConfiguration.updateUsedBorrowCapacity(vault, vaultConfig.borrowCurrencyId, vaultState.totalfCash.neg());\n        vaultState.setSettledVaultState(vaultConfig, settlementRate, maturity, block.timestamp);\n    }\n\n    /** View Methods **/\n    function getVaultConfig(\n        address vault\n    ) external view override returns (VaultConfig memory vaultConfig) {\n        vaultConfig = VaultConfiguration.getVaultConfigView(vault);\n    }\n\n    function getVaultState(\n        address vault,\n        uint256 maturity\n    ) external view override returns (VaultState memory vaultState) {\n        vaultState = VaultStateLib.getVaultState(vault, maturity);\n    }\n\n    function getBorrowCapacity(\n        address vault,\n        uint16 currencyId\n    ) external view override returns (\n        uint256 totalUsedBorrowCapacity,\n        uint256 maxBorrowCapacity\n    ) {\n        VaultBorrowCapacityStorage storage cap = LibStorage.getVaultBorrowCapacity()[vault][currencyId];\n        totalUsedBorrowCapacity = cap.totalUsedBorrowCapacity;\n        maxBorrowCapacity = cap.maxBorrowCapacity;\n    }\n\n    function getSecondaryBorrow(\n        address vault,\n        uint16 currencyId,\n        uint256 maturity\n    ) external view override returns (\n        uint256 totalfCashBorrowed,\n        uint256 totalAccountDebtShares,\n        uint256 totalfCashBorrowedInPrimarySnapshot\n    ) {\n        VaultSecondaryBorrowStorage storage balance = \n            LibStorage.getVaultSecondaryBorrow()[vault][maturity][currencyId];\n        totalfCashBorrowed = balance.totalfCashBorrowed;\n        totalAccountDebtShares = balance.totalAccountDebtShares;\n        totalfCashBorrowedInPrimarySnapshot = balance.totalfCashBorrowedInPrimarySnapshot;\n    }\n\n    function getCashRequiredToSettle(\n        address vault,\n        uint256 maturity\n    ) external view override returns (\n        int256 assetCashRequiredToSettle,\n        int256 underlyingCashRequiredToSettle\n    ) {\n        VaultConfig memory vaultConfig = VaultConfiguration.getVaultConfigView(vault);\n        VaultState memory vaultState = VaultStateLib.getVaultState(vaultConfig.vault, maturity);\n        return _getCashRequiredToSettle(vaultConfig, vaultState, maturity);\n    }\n\n    function _getCashRequiredToSettle(\n        VaultConfig memory vaultConfig,\n        VaultState memory vaultState,\n        uint256 maturity\n    ) private view returns (\n        int256 assetCashRequiredToSettle,\n        int256 underlyingCashRequiredToSettle\n    ) {\n        // If this is prior to maturity, it will return the current asset rate. After maturity it will\n        // return the settlement rate.\n        AssetRateParameters memory ar = AssetRate.buildSettlementRateView(vaultConfig.borrowCurrencyId, maturity);\n        \n        // If this is a positive number, there is more cash remaining to be settled.\n        // If this is a negative number, there is more cash than required to repay the debt\n        int256 assetCashInternal = ar.convertFromUnderlying(vaultState.totalfCash)\n            .add(vaultState.totalAssetCash.toInt())\n            .neg();\n\n        Token memory assetToken = TokenHandler.getAssetToken(vaultConfig.borrowCurrencyId);\n        // If the asset token is NonMintable then the underlying is the same object.\n        assetCashRequiredToSettle = assetToken.convertToExternal(assetCashInternal);\n\n        if (assetToken.tokenType == TokenType.NonMintable) {\n            // In this case both values are the same, there is no underlying token\n            underlyingCashRequiredToSettle = assetCashRequiredToSettle;\n        } else {\n            Token memory underlyingToken = TokenHandler.getUnderlyingToken(vaultConfig.borrowCurrencyId);\n            underlyingCashRequiredToSettle = underlyingToken.convertToUnderlyingExternalWithAdjustment(\n                ar.convertToUnderlying(assetCashInternal)\n            );\n        }\n    }\n\n    function getLibInfo() external pure returns (address) {\n        return address(TradingAction);\n    }\n}",
  "sourcePath": "contracts/external/actions/VaultAction.sol",
  "type": "contract"
}