{
  "abi": [
    {
      "anonymous": false,
      "inputs": [
        {
          "indexed": true,
          "internalType": "address",
          "name": "vault",
          "type": "address"
        },
        {
          "indexed": true,
          "internalType": "address",
          "name": "account",
          "type": "address"
        },
        {
          "indexed": false,
          "internalType": "uint256",
          "name": "vaultSharesToLiquidator",
          "type": "uint256"
        },
        {
          "indexed": false,
          "internalType": "int256",
          "name": "fCashRepaid",
          "type": "int256"
        }
      ],
      "name": "VaultDeleverageAccount",
      "type": "event"
    },
    {
      "anonymous": false,
      "inputs": [
        {
          "indexed": true,
          "internalType": "address",
          "name": "vault",
          "type": "address"
        },
        {
          "indexed": true,
          "internalType": "uint256",
          "name": "maturity",
          "type": "uint256"
        },
        {
          "indexed": true,
          "internalType": "address",
          "name": "account",
          "type": "address"
        },
        {
          "indexed": false,
          "internalType": "uint256",
          "name": "underlyingTokensDeposited",
          "type": "uint256"
        },
        {
          "indexed": false,
          "internalType": "uint256",
          "name": "cashTransferToVault",
          "type": "uint256"
        },
        {
          "indexed": false,
          "internalType": "uint256",
          "name": "strategyTokenDeposited",
          "type": "uint256"
        },
        {
          "indexed": false,
          "internalType": "uint256",
          "name": "vaultSharesMinted",
          "type": "uint256"
        }
      ],
      "name": "VaultEnterMaturity",
      "type": "event"
    },
    {
      "anonymous": false,
      "inputs": [
        {
          "indexed": true,
          "internalType": "address",
          "name": "vault",
          "type": "address"
        },
        {
          "indexed": true,
          "internalType": "address",
          "name": "account",
          "type": "address"
        },
        {
          "indexed": true,
          "internalType": "uint256",
          "name": "maturity",
          "type": "uint256"
        },
        {
          "indexed": false,
          "internalType": "uint256",
          "name": "fCashBorrowed",
          "type": "uint256"
        }
      ],
      "name": "VaultEnterPosition",
      "type": "event"
    },
    {
      "anonymous": false,
      "inputs": [
        {
          "indexed": true,
          "internalType": "address",
          "name": "vault",
          "type": "address"
        },
        {
          "indexed": true,
          "internalType": "address",
          "name": "account",
          "type": "address"
        },
        {
          "indexed": true,
          "internalType": "uint256",
          "name": "maturity",
          "type": "uint256"
        },
        {
          "indexed": false,
          "internalType": "uint256",
          "name": "underlyingToReceiver",
          "type": "uint256"
        }
      ],
      "name": "VaultExitPostMaturity",
      "type": "event"
    },
    {
      "anonymous": false,
      "inputs": [
        {
          "indexed": true,
          "internalType": "address",
          "name": "vault",
          "type": "address"
        },
        {
          "indexed": true,
          "internalType": "address",
          "name": "account",
          "type": "address"
        },
        {
          "indexed": true,
          "internalType": "uint256",
          "name": "maturity",
          "type": "uint256"
        },
        {
          "indexed": false,
          "internalType": "uint256",
          "name": "fCashToLend",
          "type": "uint256"
        },
        {
          "indexed": false,
          "internalType": "uint256",
          "name": "vaultSharesToRedeem",
          "type": "uint256"
        },
        {
          "indexed": false,
          "internalType": "uint256",
          "name": "underlyingToReceiver",
          "type": "uint256"
        }
      ],
      "name": "VaultExitPreMaturity",
      "type": "event"
    },
    {
      "anonymous": false,
      "inputs": [
        {
          "indexed": true,
          "internalType": "address",
          "name": "vault",
          "type": "address"
        },
        {
          "indexed": true,
          "internalType": "address",
          "name": "account",
          "type": "address"
        },
        {
          "indexed": true,
          "internalType": "address",
          "name": "liquidator",
          "type": "address"
        },
        {
          "indexed": false,
          "internalType": "uint256",
          "name": "vaultSharesToLiquidator",
          "type": "uint256"
        },
        {
          "indexed": false,
          "internalType": "bool",
          "name": "transferSharesToLiquidator",
          "type": "bool"
        }
      ],
      "name": "VaultLiquidatorProfit",
      "type": "event"
    },
    {
      "anonymous": false,
      "inputs": [
        {
          "indexed": true,
          "internalType": "address",
          "name": "vault",
          "type": "address"
        },
        {
          "indexed": true,
          "internalType": "address",
          "name": "account",
          "type": "address"
        },
        {
          "indexed": true,
          "internalType": "uint256",
          "name": "newMaturity",
          "type": "uint256"
        },
        {
          "indexed": false,
          "internalType": "uint256",
          "name": "fCashBorrowed",
          "type": "uint256"
        }
      ],
      "name": "VaultRollPosition",
      "type": "event"
    },
    {
      "inputs": [
        {
          "internalType": "address",
          "name": "account",
          "type": "address"
        },
        {
          "internalType": "address",
          "name": "vault",
          "type": "address"
        },
        {
          "internalType": "address",
          "name": "liquidator",
          "type": "address"
        },
        {
          "internalType": "uint256",
          "name": "depositAmountExternal",
          "type": "uint256"
        },
        {
          "internalType": "bool",
          "name": "transferSharesToLiquidator",
          "type": "bool"
        },
        {
          "internalType": "bytes",
          "name": "redeemData",
          "type": "bytes"
        }
      ],
      "name": "deleverageAccount",
      "outputs": [
        {
          "internalType": "uint256",
          "name": "profitFromLiquidation",
          "type": "uint256"
        }
      ],
      "stateMutability": "nonpayable",
      "type": "function"
    },
    {
      "inputs": [
        {
          "internalType": "address",
          "name": "account",
          "type": "address"
        },
        {
          "internalType": "address",
          "name": "vault",
          "type": "address"
        },
        {
          "internalType": "uint256",
          "name": "depositAmountExternal",
          "type": "uint256"
        },
        {
          "internalType": "uint256",
          "name": "maturity",
          "type": "uint256"
        },
        {
          "internalType": "uint256",
          "name": "fCash",
          "type": "uint256"
        },
        {
          "internalType": "uint32",
          "name": "maxBorrowRate",
          "type": "uint32"
        },
        {
          "internalType": "bytes",
          "name": "vaultData",
          "type": "bytes"
        }
      ],
      "name": "enterVault",
      "outputs": [
        {
          "internalType": "uint256",
          "name": "strategyTokensAdded",
          "type": "uint256"
        }
      ],
      "stateMutability": "payable",
      "type": "function"
    },
    {
      "inputs": [
        {
          "internalType": "address",
          "name": "account",
          "type": "address"
        },
        {
          "internalType": "address",
          "name": "vault",
          "type": "address"
        },
        {
          "internalType": "address",
          "name": "receiver",
          "type": "address"
        },
        {
          "internalType": "uint256",
          "name": "vaultSharesToRedeem",
          "type": "uint256"
        },
        {
          "internalType": "uint256",
          "name": "fCashToLend",
          "type": "uint256"
        },
        {
          "internalType": "uint32",
          "name": "minLendRate",
          "type": "uint32"
        },
        {
          "internalType": "bytes",
          "name": "exitVaultData",
          "type": "bytes"
        }
      ],
      "name": "exitVault",
      "outputs": [
        {
          "internalType": "uint256",
          "name": "underlyingToReceiver",
          "type": "uint256"
        }
      ],
      "stateMutability": "payable",
      "type": "function"
    },
    {
      "inputs": [],
      "name": "getLibInfo",
      "outputs": [
        {
          "internalType": "address",
          "name": "",
          "type": "address"
        }
      ],
      "stateMutability": "pure",
      "type": "function"
    },
    {
      "inputs": [
        {
          "internalType": "address",
          "name": "account",
          "type": "address"
        },
        {
          "internalType": "address",
          "name": "vault",
          "type": "address"
        }
      ],
      "name": "getVaultAccount",
      "outputs": [
        {
          "components": [
            {
              "internalType": "int256",
              "name": "fCash",
              "type": "int256"
            },
            {
              "internalType": "uint256",
              "name": "maturity",
              "type": "uint256"
            },
            {
              "internalType": "uint256",
              "name": "vaultShares",
              "type": "uint256"
            },
            {
              "internalType": "address",
              "name": "account",
              "type": "address"
            },
            {
              "internalType": "int256",
              "name": "tempCashBalance",
              "type": "int256"
            },
            {
              "internalType": "uint256",
              "name": "lastEntryBlockHeight",
              "type": "uint256"
            }
          ],
          "internalType": "struct VaultAccount",
          "name": "",
          "type": "tuple"
        }
      ],
      "stateMutability": "view",
      "type": "function"
    },
    {
      "inputs": [
        {
          "internalType": "address",
          "name": "account",
          "type": "address"
        },
        {
          "internalType": "address",
          "name": "vault",
          "type": "address"
        }
      ],
      "name": "getVaultAccountCollateralRatio",
      "outputs": [
        {
          "internalType": "int256",
          "name": "collateralRatio",
          "type": "int256"
        },
        {
          "internalType": "int256",
          "name": "minCollateralRatio",
          "type": "int256"
        },
        {
          "internalType": "int256",
          "name": "maxLiquidatorDepositAssetCash",
          "type": "int256"
        },
        {
          "internalType": "uint256",
          "name": "vaultSharesToLiquidator",
          "type": "uint256"
        }
      ],
      "stateMutability": "view",
      "type": "function"
    },
    {
      "inputs": [
        {
          "internalType": "address",
          "name": "account",
          "type": "address"
        },
        {
          "internalType": "address",
          "name": "vault",
          "type": "address"
        }
      ],
      "name": "getVaultAccountDebtShares",
      "outputs": [
        {
          "internalType": "uint256",
          "name": "debtSharesMaturity",
          "type": "uint256"
        },
        {
          "internalType": "uint256[2]",
          "name": "accountDebtShares",
          "type": "uint256[2]"
        },
        {
          "internalType": "uint256",
          "name": "accountStrategyTokens",
          "type": "uint256"
        }
      ],
      "stateMutability": "view",
      "type": "function"
    },
    {
      "inputs": [],
      "name": "owner",
      "outputs": [
        {
          "internalType": "address",
          "name": "",
          "type": "address"
        }
      ],
      "stateMutability": "view",
      "type": "function"
    },
    {
      "inputs": [],
      "name": "pauseGuardian",
      "outputs": [
        {
          "internalType": "address",
          "name": "",
          "type": "address"
        }
      ],
      "stateMutability": "view",
      "type": "function"
    },
    {
      "inputs": [],
      "name": "pauseRouter",
      "outputs": [
        {
          "internalType": "address",
          "name": "",
          "type": "address"
        }
      ],
      "stateMutability": "view",
      "type": "function"
    },
    {
      "inputs": [
        {
          "internalType": "address",
          "name": "account",
          "type": "address"
        },
        {
          "internalType": "address",
          "name": "vault",
          "type": "address"
        },
        {
          "internalType": "uint256",
          "name": "fCashToBorrow",
          "type": "uint256"
        },
        {
          "internalType": "uint256",
          "name": "maturity",
          "type": "uint256"
        },
        {
          "internalType": "uint256",
          "name": "depositAmountExternal",
          "type": "uint256"
        },
        {
          "internalType": "uint32",
          "name": "minLendRate",
          "type": "uint32"
        },
        {
          "internalType": "uint32",
          "name": "maxBorrowRate",
          "type": "uint32"
        },
        {
          "internalType": "bytes",
          "name": "enterVaultData",
          "type": "bytes"
        }
      ],
      "name": "rollVaultPosition",
      "outputs": [
        {
          "internalType": "uint256",
          "name": "strategyTokensAdded",
          "type": "uint256"
        }
      ],
      "stateMutability": "payable",
      "type": "function"
    }
  ],
  "bytecode": "608060405234801561001057600080fd5b5061592f80620000216000396000f3fe60806040526004361061009c5760003560e01c80638246336711610064578063824633671461015e5780638da5cb5b1461017357806395c1a202146101885780639948315e1461019b578063c025d1a5146101bb578063c4c96dae146101e85761009c565b806324a3d622146100a1578063647cc196146100cc578063653b6104146100fc5780636ce48f011461011c578063803c25fb1461012f575b600080fd5b3480156100ad57600080fd5b506100b66101fd565b6040516100c391906152e4565b60405180910390f35b3480156100d857600080fd5b506100ec6100e7366004614feb565b61020c565b6040516100c394939291906153f7565b61010f61010a3660046151af565b6102f2565b6040516100c391906153e0565b61010f61012a3660046150a8565b6104c9565b34801561013b57600080fd5b5061014f61014a366004614feb565b61072b565b6040516100c393929190615894565b34801561016a57600080fd5b506100b66107dc565b34801561017f57600080fd5b506100b66107eb565b61010f61019636600461513f565b610802565b3480156101a757600080fd5b5061010f6101b6366004615014565b610989565b3480156101c757600080fd5b506101db6101d6366004614feb565b610c24565b6040516100c39190615824565b3480156101f457600080fd5b506100b6610c3f565b6002546001600160a01b031681565b600080600080600061021d86610c57565b9050600061022b8888610c86565b9050600061023d888360200151610d1b565b90508260a00151955080604001511561025f576001600160ff1b0396506102e6565b6040820151825160009161027991869185918e9190610db6565b9098509050868812801561028d5750600081135b156102e45761029d838583610e3c565b5095506102e1633b9aca006102db6102b484610f4b565b6102db87604001516102d56102cc8b60c00151610f4b565b6102d58e610f4b565b90610f62565b90610f89565b94505b505b50505092959194509250565b60006002600a5414156103205760405162461bcd60e51b8152600401610317906156bb565b60405180910390fd5b6002600a5560006103308a610fa8565b905061033e818c6010610fcc565b610349816080611036565b15610354576001600a555b60006103608c8c610c86565b905061036d826001611036565b801561037f575061037f826002611036565b801561038e5750806020015142105b801561039d5750888160200151105b80156103a9575060008a115b6103c55760405162461bcd60e51b8152600401610317906155fe565b60006103d983600001518360200151610d1b565b905060006103f68384604001518461104b9092919063ffffffff16565b9050610415848361040a86600001516110aa565b869291908d426110b8565b8251156104345760405162461bcd60e51b8152600401610317906157d0565b8351610441908390611146565b89156104525761045283858c6112ba565b61046483858d8f8c8c8c8860006113a1565b94508a8e6001600160a01b03168e6001600160a01b03167f67c1d09e65227d62b788f4c3e6ace545ac922034d69bd4aa45c53dec290275be8f6040516104aa91906153e0565b60405180910390a450506001600a5550909a9950505050505050505050565b60006002600a5414156104ee5760405162461bcd60e51b8152600401610317906156bb565b6002600a5560006104fe89610fa8565b905061050c818b6008610fcc565b610517816080611036565b15610522576001600a555b600061052e8b8b610c86565b90504360058260a001510111156105575760405162461bcd60e51b81526004016103179061570a565b428160200151116106035760208101516000610574838542611444565b905060008360800151131561059f576105968b8560400151856080015161151a565b50600060808401525b6105ae84848d84868c8c6115c3565b9450818d6001600160a01b03168d6001600160a01b03167fccd6b9aec297a77187bfaabfe7f98ac1dd313c796a73695dff89de0885dbb293886040516105f491906153e0565b60405180910390a450506106f0565b600061061783600001518360200151610d1b565b905061063283826106278b61163a565b859291908b426110b8565b600061063f82848c61104b565b905060008360800151131561066a576106618b8560400151856080015161151a565b50600060808401525b815161067f90859085908e9085908c8c6115c3565b945061068c848385611650565b8351610699908390611146565b81600001518d6001600160a01b03168d6001600160a01b03167fea195c44d2295a1df0defe8210abb22b4a911b4379b9e30e764548ebee65c4208c8e8a6040516106e5939291906158e3565b60405180910390a450505b805115801561070157506040810151155b1561070e57600060208201525b61071881836116c8565b50506001600a5598975050505050505050565b6000610735614daa565b600080610740611885565b6001600160a01b03878116600090815260209283526040808220928916825291835290812080546001600160501b03600160281b820481168852600160781b8204169387019390935264ffffffffff90921695509091506107a18787610c86565b905060006107b3878360200151610d1b565b90506107cc82604001518261189290919063ffffffff16565b9050809450505050509250925092565b6001546001600160a01b031681565b60005464010000000090046001600160a01b031681565b60006002600a5414156108275760405162461bcd60e51b8152600401610317906156bb565b6002600a55610835896118ec565b876001600160a01b0316896001600160a01b0316141561085457600080fd5b600061085f89610fa8565b905061086d818b6004610fcc565b610878816080611036565b15610883576001600a555b61088e816001611036565b6108aa5760405162461bcd60e51b8152600401610317906157aa565b8642106108c95760405162461bcd60e51b8152600401610317906157aa565b60006108d58b8b610c86565b9050600081602001516000141580156108f2575042826020015111155b1561090557610902828442611444565b90505b6000610912848e8d61193b565b905061092583858c8c8c8c8c89896113a1565b9450898d6001600160a01b03168d6001600160a01b03167f7e1a5e400898c4bb3cfc62f61a71f4369ec78f0e778a31286892b7d2c0d044f28c60405161096b91906153e0565b60405180910390a450506001600a5550909998505050505050505050565b60006002600a5414156109ae5760405162461bcd60e51b8152600401610317906156bb565b6002600a556109bc866118ec565b866001600160a01b0316866001600160a01b031614156109db57600080fd5b60006109e8898989611a14565b905060006109f68a8a610c86565b90506000610a088a8360200151610d1b565b905081602001514210610a1a57600080fd5b600080610a3e838e8660400151876000015189610db690949392919063ffffffff16565b915091508460a001518212610a655760405162461bcd60e51b8152600401610317906157f5565b6000610a78866040015161ffff16611aff565b9050610a888c8287898f87611b12565b6000610ac3633b9aca006102db610a9e86610f4b565b6102db8a604001516102d5610ab68e60c00151610f4b565b6102d58e60800151610f4b565b6040870151909150610ad59082611bfb565b60408701526080860151610160880151600091610af29190611c10565b9050610b11888783610b078b608001516110aa565b8b93929190611c43565b86516009191215610b2157600087525b8f6001600160a01b03168f6001600160a01b03167f5b4676a4ed91c52fd6c4a759aec8a3561b67499c52870fc58000a8eb54fec3018484604051610b669291906153e9565b60405180910390a350610b7986886116c8565b8c6001600160a01b03168f6001600160a01b03168f6001600160a01b03167f01745a2fe0d7c484ea79432a82f950eac6916adc499a0223d2ebdadcdb210f2a848f604051610bc89291906158d3565b60405180910390a48a15610bfa578651610be3908690611146565b610bf38d88838960200151611cb1565b9750610c0c565b610c098d8887848e8e88611d25565b97505b50506001600a5550939b9a5050505050505050505050565b610c2c614dc8565b610c368383610c86565b90505b92915050565b73__TradingAction_________________________90565b610c5f614e07565b610c6882611db3565b9050610c7b816040015161ffff16611f4d565b610160820152919050565b610c8e614dc8565b6000610c98611f99565b6001600160a01b03948516600081815260209283526040808220969097168152948252858520546001600160501b0380821687038652600160a01b820464ffffffffff1693860193909352600160501b8104909216958401959095526060830194909452506080810191909152600160c81b90910463ffffffff1660a082015290565b610d23614e8c565b6000610d2d611fa6565b6001600160a01b03909416600090815260209485526040808220858352865280822094845284546001600160501b038082169093039685019690965260ff600160f01b870416151590840152600160501b8086048216608085015260019094015480821660a0850152600160a01b909504166060830152509104600990810b900b60c082015290565b600080610dc586888787611fb3565b90506000610dd888878960000151612018565b90506000610dfe610df283610dec886110aa565b906120ff565b6101608b015190612115565b90506000610e0c8483612140565b905081610e22576001600160ff1b039450610e2f565b610e2c8183612156565b94505b5050509550959350505050565b6000806000610e5d633b9aca008661012001516120ff90919063ffffffff16565b90506000610e7d610e7188600001516110aa565b61016088015190612115565b9050610eb3610e998760c001518461214090919063ffffffff16565b610ead87610ea7858761216f565b90612140565b90612156565b93506000610ec18286612140565b90506000610ee1886060015189610160015161211590919063ffffffff16565b9050610eed8382612140565b945080821215610efb578295505b6000610f1e88610f188b60c001518a61218890919063ffffffff16565b906121d6565b9050633b9aca008112610f3e5760c0890151610f3b908990612156565b96505b5050505050935093915050565b600080821215610f5a57600080fd5b50805b919050565b600082610f7157506000610c39565b82820282848281610f7e57fe5b0414610c3657600080fd5b6000808211610f9757600080fd5b818381610fa057fe5b049392505050565b610fb0614e07565b610fb982611db3565b9050610c7b816040015161ffff16612207565b610fd68382611036565b156110095782516001600160a01b031633146110045760405162461bcd60e51b815260040161031790615412565b611031565b6001600160a01b03821633146110315760405162461bcd60e51b815260040161031790615412565b505050565b60209190910151811661ffff90811691161490565b825160208301516000911461105f57600080fd5b604083015161106e9083611bfb565b6040840152600061107f858461221d565b9250905061109a61108f8261163a565b6080860151906120ff565b6080909401939093529392505050565b6000610c3960001983612188565b85516000906110c790856120ff565b13156110d257600080fd5b856020015181106110e257600080fd5b60006110ff8660400151886020015186868a610100015187612274565b9050806111225761016086015161111f9061111a9086612115565b6110aa565b90505b600081131561113057600080fd5b61113d8787878785611c43565b50505050505050565b6000611150611fa6565b6001600160a01b038316600090815260208281526040808320875184529091529081902090850151919250901561118657600080fd5b6111a361119e61119986602001516110aa565b610f4b565b612383565b81546001600160501b0319166001600160501b039190911617815560808401516111cc90612383565b81546001600160501b0391909116600160501b02600160501b600160a01b031990911617815560a084015161120090612383565b6001820180546001600160501b0319166001600160501b0392909216919091179055606084015161123090612383565b81546001600160501b0391909116600160a01b0269ffffffffffffffffffff60a01b1990911617815583516020850151608086015160a087015160608801516040516001600160a01b038916947f3a0fdaecf7b5da75a56077f5b1c8fbc88f9b08e9d0c4db31eb34e25bc6700cde946112ac94919390926153f7565b60405180910390a350505050565b6000806112c684612399565b909250905060006003826060015160058111156112df57fe5b141561130b573484146113045760405162461bcd60e51b815260040161031790615758565b5034611334565b6113316111998760600151876040015161ffff166113288861163a565b869291906123f2565b90505b600060048460600151600581111561134857fe5b141561135e576113578261163a565b9050611378565b81156113785760408601516113759085908461249a565b90505b6113906113858583612591565b6080890151906120ff565b608090970196909652505050505050565b6000878a6020015114806113b457508951155b6113bd57600080fd5b60006113cd8a600001518a610d1b565b905087156113f3576113ee8b8b838c6113e861111a8e61163a565b8c6125c1565b61140a565b6114088a604001518a8c610100015142612651565b505b611419818c8c87878b8b6126c0565b4360a08d0152915061142b8b8b6116c8565b6114368a828d611650565b509998505050505050505050565b60008061145984600001518660200151610d1b565b9050806040015161147c5760405162461bcd60e51b8152600401610317906155a9565b6000611495856040015161ffff168760200151866127e7565b905060006114bc6305f5e100610f188560c001516114b68760a0015161163a565b90612188565b905060006114cd8885898686612955565b905060006114de8886868587612af6565b60008b5260808b01519097509091506114f790826120ff565b60808a015250506000604088018190526020909701969096525090949350505050565b600081611529575060006115bc565b6000821361153657600080fd5b60006115458461ffff16611aff565b905060006115538285612d2e565b905060048260600151600581111561156757fe5b14156115955761158e61119961111a888861ffff16611585866110aa565b879291906123f2565b92506115b9565b6115b661119961111a8761ffff16896115ad86610f4b565b87929190612d66565b92505b50505b9392505050565b600080876080015113156115d657600080fd5b611622886040518060a001604052808a606001516001600160a01b03168152602001896001600160a01b031681526020018881526020018781526020018a608001518152508585612e06565b60006080909901989098525095979650505050505050565b60006001600160ff1b03821115610f5a57600080fd5b600061166b8484846060015185604001518660000151610db6565b5060408301519091501561169e5783610180015181131561169e5760405162461bcd60e51b815260040161031790615555565b808460a0015113156116c25760405162461bcd60e51b815260040161031790615627565b50505050565b60006116d2611f99565b60608401516001600160a01b0390811660009081526020838152604080832087519094168352929052206080850151919250901561170f57600080fd5b6060830151845161171f906110aa565b1215611754578351158061173857506001846040015111155b6117545760405162461bcd60e51b815260040161031790615734565b61175d8361307b565b156117c057600061176c611885565b60608601516001600160a01b03908116600090815260209283526040808220885190931682529183522080549187015190925064ffffffffff909116908114806117b4575080155b6117bd57600080fd5b50505b6117d361119e61119986600001516110aa565b81546001600160501b0319166001600160501b039190911617815560408401516117fc90612383565b81546001600160501b0391909116600160501b02600160501b600160a01b03199091161781556020840151611830906130a4565b815464ffffffffff91909116600160a01b0264ffffffffff60a01b1990911617815560a0840151611860906130b8565b815463ffffffff91909116600160c81b0263ffffffff60c81b19909116179055505050565b600080610c39601a6130cb565b6000806000846060015111156118e5576118c184606001516102db866080015186610f6290919063ffffffff16565b91506118e284606001516102db8660a0015186610f6290919063ffffffff16565b90505b9250929050565b6001600160a01b0381166118ff57600080fd5b6001600160a01b03811630141561191557600080fd5b6000611920826130e4565b5050505061ffff1690508060001461193757600080fd5b5050565b60008161194a575060006115bc565b600061195d856040015161ffff16611aff565b9050600060048260600151600581111561197357fe5b1461198e57611989866040015161ffff16613150565b611990565b815b8651602082015191925090156119a557600080fd5b6003826060015160058111156119b757fe5b14156119f1578434146119dc5760405162461bcd60e51b815260040161031790615758565b6119e68134613163565b3493505050506115bc565b81516119ff90878388613199565b8493505050506115bc565b5050509392505050565b611a1c614e07565b611a2583610fa8565b9050611a3381610100611036565b15611a3d57600080fd5b611a48816080611036565b15611a53576001600a555b611a5e816020611036565b15611a9057336001600160a01b03841614611a8b5760405162461bcd60e51b815260040161031790615412565b611ab8565b336001600160a01b03831614611ab85760405162461bcd60e51b815260040161031790615412565b6001600160a01b0384163314801590611ae35750816001600160a01b0316846001600160a01b031614155b6115bc5760405162461bcd60e51b815260040161031790615412565b611b07614ecb565b610c39826000613221565b6000611b1d8361163a565b9050600586606001516005811115611b3157fe5b1415611b4c57611b49846040015161ffff16826132cf565b90505b600080611b5a878786610e3c565b9150915060008213611b6b57600080fd5b6000611b778984612d2e565b905080841215611bae57611b8b8983612d2e565b8412611ba95760405162461bcd60e51b81526004016103179061565e565b611bb2565b8093505b6040870151600090611bcc908b908d9061ffff16886123f2565b9050611be6611bdb8b83612591565b60808b0151906120ff565b60809099019890985250505050505050505050565b600082821115611c0a57600080fd5b50900390565b600080611c3b8460400151610f186402540be400610f1887896020015161218890919063ffffffff16565b949350505050565b6080850151611c5290826120ff565b60808601528451611c6390836120ff565b80865260001215611c7357600080fd5b6020830151611c8290836120ff565b6020840181905260001215611c9657600080fd5b611ca98460000151856040015184613356565b505050505050565b600080611cc2868660000151610c86565b9050806020015160001480611cda5750828160200151145b611cf65760405162461bcd60e51b815260040161031790615438565b602081018390526040810151611d0c908561345c565b6040820152611d1b81866116c8565b5091949350505050565b60008080611d33888861221d565b89519193509150611d4b908a908c9084908a8a61346e565b8a51909450611d5c91508990611146565b8115611da6576000611d9661119961111a8c6040015161ffff168e611d8d611199611d868a61163a565b8c90612d2e565b8a929190612d66565b9050611da2848261345c565b9350505b5050979650505050505050565b611dbb614e07565b6000611dc56134c5565b6001600160a01b03841660008181526020838152604091829020928652825461ffff808216928801929092526201000081049091169186019190915291925090611e269063ffffffff6401000000009091048116906305f5e1009061218816565b60608401528054611e4490600160501b900460ff166207a120610f62565b60808401528054611e689068010000000000000000900461ffff16620186a0610f62565b60a08401528054611e8790600160701b900461ffff16620186a0610f62565b6101208401526002810154611ea39061ffff16620186a0610f62565b610180840152805460649060ff600160581b90910416633b9aca00020560c08401528054600160601b810460ff90811660e0860152600160681b909104166101008401526040805180820191829052906001830190600290826000855b82829054906101000a900461ffff1661ffff1681526020019060020190602082600101049283019260010382029150808411611f0057905050505050508361014001819052505050919050565b611f55614ef2565b6000806000611f63856134d2565b604080516060810182526001600160a01b039093168352602083019390935260ff16600a0a918101919091529350505050919050565b600080610c3960166130cb565b600080610c3960156130cb565b600081611fc257506000611c3b565b600080611fcf8785611892565b915091506000611fee8760400151886000015188858c60000151613593565b905061200c611ffc8461163a565b610160890151610dec9084612115565b98975050505050505050565b60006120238461307b565b156115bc576000612032611885565b6001600160a01b0380861660009081526020928352604080822089519093168252919092528082209087015190925061206e9061ffff1661364d565b82549091506001600160501b03600160281b8204811691600160781b90041681156120c4576120c16120ba848a61014001516000600281106120ac57fe5b60200201518b518a876137b0565b86906120ff565b94505b80156120f4576120f16120ba848a61014001516001600281106120e357fe5b60200201518b518a866137b0565b94505b505050509392505050565b81810182811215600083121514610c3957600080fd5b600080611c3b8460200151610f1886604001516114b66402540be4008861218890919063ffffffff16565b80820382811315600083121514610c3957600080fd5b6000610c3661216984633b9aca00612188565b836121d6565b6000610c3661217e8484612188565b633b9aca006121d6565b8181026000198314156121b8578115806121aa5750828282816121a757fe5b05145b6121b357600080fd5b610c39565b8215806121cd5750818382816121ca57fe5b05145b610c3957600080fd5b6000816000191480156121ec5750600160ff1b83145b156121f657600080fd5b8183816121ff57fe5b059392505050565b61220f614ef2565b6000806000611f6385613861565b60008061222a8484611892565b6080860151919350915061223e9083611bfb565b608085015260a08401516122529082611bfb565b60a085015260608401516122669084611bfb565b606090940193909352929050565b60008061228388888686612651565b90506000612290876138e6565b90506affffffffffffffffffffff81106122a957600080fd5b600060788763ffffffff16901b609883901b60f085901b60f860008c136122d15760016122d4565b60005b60058111156122df57fe5b60ff16901b17171760001b905073__TradingAction_________________________63e50f349e8b836040518363ffffffff1660e01b8152600401612325929190615880565b60206040518083038186803b15801561233d57600080fd5b505af4158015612351573d6000803e3d6000fd5b505050506040513d601f19601f820116820180604052508101906123759190615253565b9a9950505050505050505050565b60006001600160501b03821115610f5a57600080fd5b6123a1614ecb565b6123a9614ecb565b6123ba836040015161ffff16611aff565b91506004826060015160058111156123ce57fe5b146123e9576123e4836040015161ffff16613150565b6123eb565b815b9050915091565b8060058560600151600581111561240557fe5b141561242a57600061241684613150565b9050612426816000015184613907565b9250505b6000821315612456576000612440868685613996565b9050856020015115612450578091505b50611c3b565b60038560600151600581111561246857fe5b1415612485576124808461247b846110aa565b613163565b611c3b565b8451611c3b9085612495856110aa565b613a7f565b6000806005856060015160058111156124af57fe5b146124c1576370a0823160e01b6124ca565b630ed1279f60e11b5b905060006124dd86600001513084613af6565b90506005866060015160058111156124f157fe5b14156125185760006125068661ffff16613150565b90506125128186613c08565b50612561565b60018660600151600581111561252a57fe5b141561253f5761253a8685613c73565b612561565b60028660600151600581111561255157fe5b141561009c5761253a8685613d15565b600061257287600001513085613af6565b90506125866125818284613d68565b61163a565b979650505050505050565b60006305f5e100836040015114156125aa575080610c39565b6040830151610c3690610f18846305f5e100612188565b600082126125ce57600080fd5b60006125e786604001518585858a610100015142612274565b9050600081136126095760405162461bcd60e51b8152600401610317906156e3565b6126168787878685611c43565b8651612621906110aa565b866060015113156126445760405162461bcd60e51b815260040161031790615734565b61113d8688838742613dbf565b60008060006126638761ffff16613eba565b90506126738160ff168786613ed0565b9093509150848311156126985760405162461bcd60e51b81526004016103179061552b565b81156126b65760405162461bcd60e51b81526004016103179061552b565b5050949350505050565b600087608001516000146126d357600080fd5b6000876080015112156126e557600080fd5b87516020880151101561270d5760408701511561270157600080fd5b8751602088015261271e565b875160208801511461271e57600080fd5b60008515612739576127368989888a60000151613f98565b90505b606088015160808901518a51600092612756928b928a8a8a614016565b905061277261276b8b8b848c60000151613f98565b839061345c565b915088606001516001600160a01b03168a6000015189600001516001600160a01b03167ff0b1fff1c6815d2739f7cb03adbb99177a10daae11921a3ae1712f20ea52eb9a898d608001518c886040516127ce94939291906153f7565b60405180910390a4600060808a0152612375878261345c565b6127ef614ef2565b6000806127fc86866140cc565b91509150816000141561292a57600061281487613861565b91945090925090506001600160a01b03811615612928576000612835614113565b90508560001080156128475750858711155b8015612858575064ffffffffff8611155b61286157600080fd5b83600012801561287857506001600160801b038413155b61288157600080fd5b6000888152602082815260408083208a845290915290819020805464ffffffffff191664ffffffffff89161774ffffffffffffffffffffffffffffffff00000000001916600160281b6001600160801b038816021760ff60a81b1916600160a81b60ff871602178155905188908a907f0fdfa6885701e2f1f42e4187b9231cf81c1fe23671ef64fa46f34ddb56c1dc189061291d90899061586c565b60405180910390a350505b505b6040805160608101825260008152602081019390935260ff909116600a0a9082015290509392505050565b60008061297961297261296b886080015161163a565b8690611c10565b84906120ff565b90506129848561307b565b15612a97576000612993611885565b60608901516001600160a01b039081166000908152602092835260408082208a519093168252919092528120875189516101408a015151835493955084936129ed93929190600160281b90046001600160501b0316614120565b90925090506129fc84836120ff565b9350612a088582612140565b88518a516101408b0151602001518654939850612a3493600160781b90046001600160501b0316614120565b9092509050612a4384836120ff565b9350612a4f8582612140565b9450612a59611885565b60608b01516001600160a01b039081166000908152602092835260408082208c51909316825291909252902080546001600160c81b03191690555050505b612aca612ac38860000151610dec612ab28a6060015161163a565b610f18866114b68e6040015161163a565b83906120ff565b91506000821215612aec57612ae26113858584612115565b6080880152600091505b5095945050505050565b6000806000612b22612b1588602001518861211590919063ffffffff16565b610dec896080015161163a565b90506000612b3485610dec8985611c10565b90508015612b6d57612b5a61119982610f18612b538c60a0015161163a565b8a90612188565b9250612b6a81610f188885612188565b93505b50506000612b796141b4565b88516001600160a01b03166000908152602091825260408082208a5183529092522080549091506001600160501b03811690600160501b9004600990810b900b83821015612bf657612be96120ba612be26305f5e100610f188d60c001516114b6888b0361163a565b8a90612115565b9450909250600090612bfc565b83820391505b82546001600160501b0319166001600160501b0383161783556000851215612c2357600080fd5b84811215612c96576000808213612c3a5785612c3e565b8186035b90506000612c5a8c600001518d60400151848e600001516141c1565b90506000831315612c8b57612c6f83826120ff565b8554600160501b600160a01b0319168655965060009250612c8f565b8096505b5050612cd5565b612ca08186612140565b9050612cab816142e9565b835460099190910b6001600160501b0316600160501b02600160501b600160a01b03199091161783555b88600001518a600001516001600160a01b03167ff5b347a56f0b5140f05eec05ff743978670a56685689fdc2c3193d71cfac31a98385604051612d199291906153e9565b60405180910390a35050509550959350505050565b60006305f5e10083604001511415612d47575080610c39565b610c366305f5e100610f1885604001518561218890919063ffffffff16565b600080600286606001516005811115612d7b57fe5b1415612d9357612d8c868585614319565b9050612df0565b6000612d9e86613150565b9050600587606001516005811115612db257fe5b1415612dca57612dc38186866143d6565b9150612dee565b600187606001516005811115612ddc57fe5b141561009c57612dc387828787614487565b505b612dfc61111a8261163a565b9695505050505050565b600080600080612e1588612399565b9150915060008088608001511215612e8a57600483606001516005811115612e3957fe5b1415612e5657612e4f61119989608001516110aa565b9050612e8a565b6000612e7761111a8a608001518c6101600151611c1090919063ffffffff16565b9050612e866111998483614585565b9150505b604088015160009015612f62576000612ea384306145c1565b90508a600001516001600160a01b03166344f051088b600001518c602001518d604001518e60600151888f8f6040518863ffffffff1660e01b8152600401612ef197969594939291906152f8565b602060405180830381600087803b158015612f0b57600080fd5b505af1158015612f1f573d6000803e3d6000fd5b505050506040513d601f19601f82011682018060405250810190612f439190615253565b95506000612f5185306145c1565b9050612f5d8183611bfb565b925050505b81811015612ffd57808203600384606001516005811115612f7f57fe5b1415612fbd5734811115612fa55760405162461bcd60e51b8152600401610317906154a5565b612fb58a60000151823403613163565b829150612ffb565b6000612fe28b600001518d6040015161ffff16612fd98561163a565b889291906123f2565b9050612ff7612ff082610f4b565b849061345c565b9250505b505b8181101561301d5760405162461bcd60e51b8152600401610317906154a5565b600060048560600151600581111561303157fe5b1415613047576130408261163a565b9050613061565b81156130615760408b015161305e9086908461249a565b90505b61306b8582612591565b9650505050505094509492505050565b6101408101515160009061ffff16151580610c3957505061014001516020015161ffff16151590565b600064ffffffffff821115610f5a57600080fd5b600063ffffffff821115610f5a57600080fd5b6000620f424082601a8111156130dd57fe5b0192915050565b6000806000806000806130f561466b565b6001600160a01b039097166000908152602097909752505060409094205461ffff81169563ffffffff620100008304811696506601000000000000830416945060ff600160501b8304169350600160581b90910460d81b9150565b613158614ecb565b610c39826001613221565b6040516001600160a01b0383169082156108fc029083906000818181858888f19350505050158015611031573d6000803e3d6000fd5b836001600160a01b03166323b872dd8484846040518463ffffffff1660e01b815260040180846001600160a01b03168152602001836001600160a01b031681526020018281526020019350505050600060405180830381600087803b15801561320157600080fd5b505af1158015613215573d6000803e3d6000fd5b505050506116c2614678565b613229614ecb565b60006132336146e5565b6000858152602082815260408083208715158452825291829020825160a08101845281546001600160a01b038116825260ff600160a01b82048116151594830194909452600160b01b81048416600a0a9482019490945293945092916060830191600160a81b9091041660058111156132a857fe5b81529154600160b81b900468ffffffffffffffffff16602090920191909152949350505050565b6000816132de57506000610c39565b600082136132eb57600080fd5b60006132f684613150565b9050600061330782600001516146f2565b9050600281056b033b2e3c9fd0803ce80000006001600160ff1b038290030585131561333257600080fd5b81816b033b2e3c9fd0803ce80000008702018161334b57fe5b059695505050505050565b60008061336161477d565b6001600160a01b03861660009081526020918252604080822061ffff881683529092522080549091506133a490600160501b90046001600160501b031684612140565b915060008312156133d95780546001600160501b03168213156133d95760405162461bcd60e51b815260040161031790615583565b6133e561119e83610f4b565b81546001600160501b0391909116600160501b02600160501b600160a01b031990911617815560405161ffff8516906001600160a01b038716907f20478ef460e49d010960d4f3fff35d8dae385443abfac09035d6a2ccbcd834c49061344c9086906153e0565b60405180910390a3509392505050565b600082820183811015610c3657600080fd5b6000806134b6886040518060a001604052808a6001600160a01b031681526020018a6001600160a01b0316815260200189815260200188815260200160008152508686612e06565b90999098509650505050505050565b600080610c3960146130cb565b60008060008060006134e38661478a565b909250905060006001600160a01b0383166135085750600090506402540be400613588565b826001600160a01b031663b2fffb046040518163ffffffff1660e01b815260040160206040518083038186803b15801561354157600080fd5b505afa158015613555573d6000803e3d6000fd5b505050506040513d601f19601f820116820180604052508101906135799190615253565b90506000811361358857600080fd5b969195509350915050565b6000806135a38761ffff16613150565b90508060400151600014156135c2576135bf8761ffff16611aff565b90505b60405163e937711160e01b8152612586906001600160a01b0388169063e9377111906135f690899089908990600401615386565b60206040518083038186803b15801561360e57600080fd5b505afa158015613622573d6000803e3d6000fd5b505050506040513d601f19601f820116820180604052508101906136469190615253565b8290612591565b613655614f1c565b600061365f6147c1565b600084815260208290526040812091925080600186141561368c5750670de0b6b3a7640000905080613762565b825460408051633fabe5a360e21b815290516001600160a01b039092169163feaf968c9160048082019260a092909190829003018186803b1580156136d057600080fd5b505afa1580156136e4573d6000803e3d6000fd5b505050506040513d601f19601f82011682018060405250810190613708919061526b565b509193505060008313915061373190505760405162461bcd60e51b815260040161031790615695565b825460ff600160a01b82048116600a0a9350600160a81b90910416156137625761375f81610f188480612188565b90505b6040805160a0810182529283526020830191909152915460ff600160b01b8204811693830193909352600160b81b810483166060830152600160c01b90049091166080820152915050919050565b6000806137bb6147ce565b6001600160a01b038616600090815260209182526040808220878352835280822061ffff8a16835290925290812080549092506001600160501b0380821692600160501b9092041690613815612581836102db8987610f62565b905060006138268a61ffff1661364d565b905060006138348c836147db565b905061385181610f188e600001518661218890919063ffffffff16565b9c9b505050505050505050505050565b60008060008060006138728661478a565b909250905060006001600160a01b0383166138975750600090506402540be400613588565b826001600160a01b0316631ee108336040518163ffffffff1660e01b8152600401602060405180830381600087803b1580156138d257600080fd5b505af1158015613555573d6000803e3d6000fd5b600080821215613900576138f9826110aa565b9050610f5d565b5080610f5d565b60008161391657506000610c39565b6000613921846146f2565b9050600061392e846138e6565b9050816b019d971e4fe8401e74000001600160ff1b038161394b57fe5b0581131561395857600080fd5b6b033b2e3c9fd0803ce80000006b019d971e4fe8401e7400000083830201056000851361398d57613988816110aa565b612dfc565b95945050505050565b60008080806005876060015160058111156139ad57fe5b146139bf576370a0823160e01b6139c8565b630ed1279f60e11b5b90508660200151156139e45786516139e1903083613af6565b92505b86516139f1908787614800565b866020015180613a05575060008760800151115b15613a1a578651613a17903083613af6565b91505b608087015115613a55576000613a3888613a338561163a565b612591565b9050613a47886080015161163a565b811315613a5357600080fd5b505b866020015115613a7657613a6c6125818385613d68565b93505050506115bc565b613a6c8561163a565b826001600160a01b031663a9059cbb83836040518363ffffffff1660e01b815260040180836001600160a01b0316815260200182815260200192505050600060405180830381600087803b158015613ad657600080fd5b505af1158015613aea573d6000803e3d6000fd5b50505050611031614678565b604080516001600160a01b0384811660248084019190915283518084039091018152604490920183526020820180516001600160e01b03166001600160e01b0319861617815292518251600094859485948a16939092909182918083835b60208310613b735780518252601f199092019160209182019101613b54565b6001836020036101000a038019825116818451168082178552505050505050905001915050600060405180830381855afa9150503d8060008114613bd3576040519150601f19603f3d011682016040523d82523d6000602084013e613bd8565b606091505b509150915081613be757600080fd5b808060200190516020811015613bfc57600080fd5b50519695505050505050565b613c10614858565b54825160405163e8eda9df60e01b81526001600160a01b039092169163e8eda9df91613c459185903090600090600401615359565b600060405180830381600087803b158015613c5f57600080fd5b505af1158015611ca9573d6000803e3d6000fd5b815160405163140e25ad60e31b81526000916001600160a01b03169063a0712d6890613ca39085906004016153e0565b602060405180830381600087803b158015613cbd57600080fd5b505af1158015613cd1573d6000803e3d6000fd5b505050506040513d601f19601f82011682018060405250810190613cf59190615253565b905080156110315760405162461bcd60e51b815260040161031790615467565b81600001516001600160a01b0316631249c58b826040518263ffffffff1660e01b81526004016000604051808303818588803b158015613d5457600080fd5b505af115801561113d573d6000803e3d6000fd5b600082821115611c0a576040805162461bcd60e51b815260206004820152601e60248201527f536166654d6174683a207375627472616374696f6e206f766572666c6f770000604482015290519081900360640190fd5b6000613de46301da9c00610f18613dd96125818787611bfb565b60808a015190612188565b90506000613df2858361216f565b90506000613e126064610f188a60e001518561218890919063ffffffff16565b90506000613e208383612140565b9050613e34896040015161ffff1683614865565b613e46896040015161ffff16826148ec565b6080880151613e559084612140565b88608001818152505085896040015161ffff168a600001516001600160a01b03167f7456cb4b7c3068832fb334a03d3cd8e440286bad834cb9e332df05ae6792cfbb8585604051613ea79291906153e9565b60405180910390a4505050505050505050565b600080613ec683614938565b60ff169392505050565b60008060008511613ef35760405162461bcd60e51b8152600401610317906154d5565b6007851115613f145760405162461bcd60e51b8152600401610317906155ce565b6000613f1f84614955565b905060015b868111613f77576000613f40613f3983614973565b8490614a17565b905086811415613f585750925060009150613f909050565b86811115613f6e5750925060019150613f909050565b50600101613f24565b5060405162461bcd60e51b81526004016103179061577d565b935093915050565b60008460a0015160001415613fae575081613fd0565b613fcd8560a001516102db876060015186610f6290919063ffffffff16565b90505b60a0850151613fdf908461345c565b60a08601526060850151613ff3908261345c565b60608601526040840151614007908261345c565b6040850152611c3b8583611146565b60008061402c89600001518a604001518961151a565b89519091506001600160a01b031663dc6679c58961404a848961345c565b8988886040518663ffffffff1660e01b815260040161406d9594939291906153a7565b602060405180830381600087803b15801561408757600080fd5b505af115801561409b573d6000803e3d6000fd5b505050506040513d601f19601f820116820180604052508101906140bf9190615253565b9998505050505050505050565b60008060006140d9614113565b600095865260209081526040808720958752949052505050902054600160281b81046001600160801b031691600160a81b90910460ff1690565b600080610c3960086130cb565b60008061ffff8416614137575060009050806141ab565b60006141416147ce565b6001600160a01b038816600090815260209182526040808220898352835280822061ffff891683529092522080549091506001600160501b03600160a01b8204811691600160501b90041685156141a6576141a3612581826102db8986610f62565b93505b509250505b94509492505050565b600080610c3960196130cb565b60006141ce856000614a71565b846001600160a01b03167f7c51c6aa77346c54cb051d9e792f9b7bde5c28a9b57e6fb2d2dd727b38438ca9600060405161420891906153d5565b60405180910390a2818461ffff16866001600160a01b03167f823b641d46550301006f807a26587634f15bd13749efdc8859734377d5304a3b8660405161424f91906153e0565b60405180910390a4600061426860008661ffff16614ad1565b50505090508084136142885761428085858303614b7a565b8391506142e0565b614293856000614b7a565b828561ffff16876001600160a01b03167f3a717b6924e3ad05b8c7609a2401472af90869b52cc3c9ca69b50100b4be63168488036040516142d491906153e0565b60405180910390a48091505b50949350505050565b6000697fffffffffffffffffff1982128015906143105750697fffffffffffffffffff8213155b610f5a57600080fd5b825160405163db006a7560e01b8152600091479183916001600160a01b03169063db006a759061434d9087906004016153e0565b602060405180830381600087803b15801561436757600080fd5b505af115801561437b573d6000803e3d6000fd5b505050506040513d601f19601f8201168201806040525081019061439f9190615253565b905080156143bf5760405162461bcd60e51b815260040161031790615485565b476143ca8184613d68565b9350611a0a8685613163565b60006143f161119985600001516143ec8561163a565b613907565b90506143fb614858565b548451604051631a4ca37b60e21b81526001600160a01b03909216916369328dec9161442d9185908890600401615336565b602060405180830381600087803b15801561444757600080fd5b505af115801561445b573d6000803e3d6000fd5b505050506040513d601f19601f8201168201806040525081019061447f9190615253565b509392505050565b825160009081906144a090306370a0823160e01b613af6565b9050600086600001516001600160a01b031663db006a75856040518263ffffffff1660e01b81526004016144d491906153e0565b602060405180830381600087803b1580156144ee57600080fd5b505af1158015614502573d6000803e3d6000fd5b505050506040513d601f19601f820116820180604052508101906145269190615253565b905080156145465760405162461bcd60e51b815260040161031790615485565b855160009061455d90306370a0823160e01b613af6565b90506145698184613d68565b935061457a87600001518786613a7f565b505050949350505050565b60006305f5e100836040015112156145ad576145a66001610dec8585612d2e565b9050610c39565b610c36836145bc8460016120ff565b612d2e565b60006003836060015160058111156145d557fe5b14156145ec57506001600160a01b03811631610c39565b82516040516370a0823160e01b81526001600160a01b03909116906370a082319061461b9085906004016152e4565b60206040518083038186803b15801561463357600080fd5b505afa158015614647573d6000803e3d6000fd5b505050506040513d601f19601f820116820180604052508101906145a69190615253565b600080610c3960026130cb565b6000614682614f4b565b3d8015614696576020811461469f57600080fd5b600192506146aa565b60206000833e815192505b5081611937576040805162461bcd60e51b8152602060048201526005602482015264045524332360dc1b604482015290519081900360640190fd5b600080610c3960076130cb565b6000610c396146ff614858565b5460405163d15e005360e01b81526001600160a01b039091169063d15e00539061472d9086906004016152e4565b60206040518083038186803b15801561474557600080fd5b505afa158015614759573d6000803e3d6000fd5b505050506040513d601f19601f820116820180604052508101906125819190615253565b600080610c3960176130cb565b6000806000614797614bdd565b600094855260205250506040909120546001600160a01b03811692600160a01b90910460ff169150565b600080610c3960106130cb565b600080610c3960186130cb565b6000610c368260200151610f188460000151866020015161218890919063ffffffff16565b604080516323b872dd60e01b81526001600160a01b038481166004830152306024830152604482018490529151918516916323b872dd9160648082019260009290919082900301818387803b158015613ad657600080fd5b600080610c3960136130cb565b600081121561487357600080fd5b6000614880600084614ad1565b505050905061489882826120ff90919063ffffffff16565b90506148ab600084836000806000614bea565b8261ffff167f85170c297762884f47ec6098b74925c795e6d33686b11019b400e33a9b23b5e9836040516148df91906153e0565b60405180910390a2505050565b60008112156148fa57600080fd5b600061490583614d31565b905060006149138285614ad1565b505050905061492b83826120ff90919063ffffffff16565b90506116c2828583614d57565b600080614943614d75565b60009384526020525050604090205490565b60006276a70082101561496757600080fd5b506276a7008106900390565b6000816001141561498857506276a700610f5d565b816002141561499b575062ed4e00610f5d565b81600314156149af57506301da9c00610f5d565b81600414156149c357506303b53800610f5d565b81600514156149d757506309450c00610f5d565b81600614156149eb575063128a1800610f5d565b81600714156149ff57506325143000610f5d565b60405162461bcd60e51b815260040161031790615504565b600082820183811015610c36576040805162461bcd60e51b815260206004820152601b60248201527f536166654d6174683a206164646974696f6e206f766572666c6f770000000000604482015290519081900360640190fd5b6000614a7b6134c5565b6001600160a01b038416600090815260208290526040902080549192509061ffff168315614aba57815461ffff19166001821761ffff16178255614aca565b815461ffff191661fffe82161782555b5050505050565b6000806000806000614ae1614d82565b6001600160a01b0388166000908152602082815260408083208a8452909152902080546001600160501b0381169650600160501b900463ffffffff1694509091508315614b4a578054614b4390600160701b900466ffffffffffffff16614d8f565b9250614b5f565b8054600160701b900466ffffffffffffff1692505b54600160a81b9004600a90810b900b97939650919450925050565b6000811215614b8857600080fd5b614b9d60008361ffff16836000806000614bea565b8161ffff167fd3625f7b5926828151efe19f7ae655488287357d99ebe67e5fb20522ca739c0b82604051614bd191906153e0565b60405180910390a25050565b600080610c39600f6130cb565b6000614bf4614d82565b6001600160a01b0388166000908152602082815260408083208a845290915290209091506a7fffffffffffffffffffff198612801590614c3f57506a7fffffffffffffffffffff8613155b614c4857600080fd5b60008512158015614c6057506001600160501b038513155b614c6957600080fd5b83614ca95766ffffffffffffff831115614c8257600080fd5b805466ffffffffffffff60701b1916600160701b66ffffffffffffff851602178155614cc3565b8054600160501b900463ffffffff168414614cc357600080fd5b8054600a9690960b6affffffffffffffffffffff16600160a81b026001600160a81b036001600160501b039096166001600160501b031963ffffffff909616600160501b0263ffffffff60501b19909816979097179490941695909517939093169190911790925550505050565b600080614d3c614d9d565b6000938452602052505060409020546001600160a01b031690565b6000811215614d6557600080fd5b6110318383836000806000614bea565b600080610c3960096130cb565b600080610c3960066130cb565b600881901c60ff9091161b90565b600080610c3960036130cb565b60405180604001604052806002906020820280368337509192915050565b6040518060c0016040528060008152602001600081526020016000815260200160006001600160a01b0316815260200160008152602001600081525090565b604051806101a0016040528060006001600160a01b03168152602001600061ffff168152602001600061ffff16815260200160008152602001600081526020016000815260200160008152602001600081526020016000815260200160008152602001614e72614daa565b8152602001614e7f614ef2565b8152602001600081525090565b6040518060e001604052806000815260200160008152602001600015158152602001600081526020016000815260200160008152602001600081525090565b6040805160a081018252600080825260208201819052918101829052906060820190614e7f565b604051806060016040528060006001600160a01b0316815260200160008152602001600081525090565b6040518060a0016040528060008152602001600081526020016000815260200160008152602001600081525090565b60405180602001604052806001906020820280368337509192915050565b80356001600160a01b0381168114610f5d57600080fd5b60008083601f840112614f91578182fd5b50813567ffffffffffffffff811115614fa8578182fd5b6020830191508360208285010111156118e557600080fd5b803563ffffffff81168114610f5d57600080fd5b80516001600160501b0381168114610f5d57600080fd5b60008060408385031215614ffd578182fd5b61500683614f69565b91506118e260208401614f69565b600080600080600080600060c0888a03121561502e578283fd5b61503788614f69565b965061504560208901614f69565b955061505360408901614f69565b9450606088013593506080880135801515811461506e578384fd5b925060a088013567ffffffffffffffff811115615089578283fd5b6150958a828b01614f80565b989b979a50959850939692959293505050565b60008060008060008060008060e0898b0312156150c3578081fd5b6150cc89614f69565b97506150da60208a01614f69565b96506150e860408a01614f69565b9550606089013594506080890135935061510460a08a01614fc0565b925060c089013567ffffffffffffffff81111561511f578182fd5b61512b8b828c01614f80565b999c989b5096995094979396929594505050565b60008060008060008060008060e0898b03121561515a578384fd5b61516389614f69565b975061517160208a01614f69565b965060408901359550606089013594506080890135935061519460a08a01614fc0565b925060c089013567ffffffffffffffff81111561511f578283fd5b60008060008060008060008060006101008a8c0312156151cd578081fd5b6151d68a614f69565b98506151e460208b01614f69565b975060408a0135965060608a0135955060808a0135945061520760a08b01614fc0565b935061521560c08b01614fc0565b925060e08a013567ffffffffffffffff811115615230578182fd5b61523c8c828d01614f80565b915080935050809150509295985092959850929598565b600060208284031215615264578081fd5b5051919050565b600080600080600060a08688031215615282578081fd5b61528b86614fd4565b94506020860151935060408601519250606086015191506152ae60808701614fd4565b90509295509295909350565b60008284528282602086013780602084860101526020601f19601f85011685010190509392505050565b6001600160a01b0391909116815260200190565b600060018060a01b03808a16835280891660208401525086604083015285606083015284608083015260c060a08301526140bf60c0830184866152ba565b6001600160a01b0393841681526020810192909252909116604082015260600190565b6001600160a01b03948516815260208101939093529216604082015261ffff909116606082015260800190565b6001600160a01b039390931683526020830191909152604082015260600190565b600060018060a01b0387168252856020830152846040830152608060608301526125866080830184866152ba565b901515815260200190565b90815260200190565b918252602082015260400190565b93845260208401929092526040830152606082015260800190565b6020808252600c908201526b155b985d5d1a1bdc9a5e995960a21b604082015260600190565b6020808252601590820152740acc2ead8e840a6d0c2e4cae6409ad2e6dac2e8c6d605b1b604082015260600190565b602080825260049082015263135a5b9d60e21b604082015260600190565b60208082526006908201526552656465656d60d01b604082015260600190565b602080825260169082015275125b9cdd59999a58da595b9d081c995c185e5b595b9d60521b604082015260600190565b60208082526015908201527410d1ce881b9bc81b585c9ad95d1cc81b1a5cdd1959605a1b604082015260600190565b6020808252600d908201526c092dcecc2d8d2c840d2dcc8caf609b1b604082015260600190565b60208082526010908201526f496e76616c6964204d6174757269747960801b604082015260600190565b60208082526014908201527310589bdd994813585e0810dbdb1b185d195c985b60621b604082015260600190565b6020808252600c908201526b4d617820436170616369747960a01b604082015260600190565b6020808252600b908201526a139bdd0814d95d1d1b195960aa1b604082015260600190565b60208082526016908201527510d1ce881b585c9ad95d081a5b99195e08189bdd5b9960521b604082015260600190565b6020808252600f908201526e139bc8149bdb1b08105b1b1bddd959608a1b604082015260600190565b60208082526017908201527f496e73756666696369656e7420436f6c6c61746572616c000000000000000000604082015260600190565b60208082526017908201527f4d757374204c697175696461746520416c6c2044656274000000000000000000604082015260600190565b6020808252600c908201526b496e76616c6964207261746560a01b604082015260600190565b6020808252600e908201526d1499595b9d1c985b9d0818d85b1b60921b604082015260600190565b6020808252600d908201526c109bdc9c9bddc819985a5b1959609a1b604082015260600190565b60208082526010908201526f4d696e20456e74727920426c6f636b7360801b604082015260600190565b6020808252600a90820152694d696e20426f72726f7760b01b604082015260600190565b6020808252600b908201526a092dcecc2d8d2c8408aa8960ab1b604082015260600190565b60208082526013908201527210d1ce881b9bc81b585c9ad95d08199bdd5b99606a1b604082015260600190565b6020808252600c908201526b21b0b73737ba1022b73a32b960a11b604082015260600190565b6020808252600b908201526a11985a5b19590813195b9960aa1b604082015260600190565b60208082526015908201527414dd59999a58da595b9d0810dbdb1b185d195c985b605a1b604082015260600190565b8151815260208083015190820152604080830151908201526060808301516001600160a01b0316908201526080808301519082015260a0918201519181019190915260c00190565b6001600160801b0391909116815260200190565b61ffff929092168252602082015260400190565b8381526080810160208083018560005b60028110156158c1578151835291830191908301906001016158a4565b50505050826060830152949350505050565b9182521515602082015260400190565b928352602083019190915260408201526060019056fea264697066735822122054fc08ac4cc16bfc7ac3ebc1ae59f09acf3874a3c97b148a2a5011241082c1e564736f6c63430007060033",
  "bytecodeSha1": "915246555bd194db3e7bcd6ad8d9159906f5171a",
  "compiler": {
    "evm_version": "istanbul",
    "optimizer": {
      "enabled": true,
      "runs": 200
    },
    "version": "0.7.6+commit.7338295f"
  },
  "contractName": "VaultAccountAction",
  "deployedBytecode": "60806040526004361061009c5760003560e01c80638246336711610064578063824633671461015e5780638da5cb5b1461017357806395c1a202146101885780639948315e1461019b578063c025d1a5146101bb578063c4c96dae146101e85761009c565b806324a3d622146100a1578063647cc196146100cc578063653b6104146100fc5780636ce48f011461011c578063803c25fb1461012f575b600080fd5b3480156100ad57600080fd5b506100b66101fd565b6040516100c391906152e4565b60405180910390f35b3480156100d857600080fd5b506100ec6100e7366004614feb565b61020c565b6040516100c394939291906153f7565b61010f61010a3660046151af565b6102f2565b6040516100c391906153e0565b61010f61012a3660046150a8565b6104c9565b34801561013b57600080fd5b5061014f61014a366004614feb565b61072b565b6040516100c393929190615894565b34801561016a57600080fd5b506100b66107dc565b34801561017f57600080fd5b506100b66107eb565b61010f61019636600461513f565b610802565b3480156101a757600080fd5b5061010f6101b6366004615014565b610989565b3480156101c757600080fd5b506101db6101d6366004614feb565b610c24565b6040516100c39190615824565b3480156101f457600080fd5b506100b6610c3f565b6002546001600160a01b031681565b600080600080600061021d86610c57565b9050600061022b8888610c86565b9050600061023d888360200151610d1b565b90508260a00151955080604001511561025f576001600160ff1b0396506102e6565b6040820151825160009161027991869185918e9190610db6565b9098509050868812801561028d5750600081135b156102e45761029d838583610e3c565b5095506102e1633b9aca006102db6102b484610f4b565b6102db87604001516102d56102cc8b60c00151610f4b565b6102d58e610f4b565b90610f62565b90610f89565b94505b505b50505092959194509250565b60006002600a5414156103205760405162461bcd60e51b8152600401610317906156bb565b60405180910390fd5b6002600a5560006103308a610fa8565b905061033e818c6010610fcc565b610349816080611036565b15610354576001600a555b60006103608c8c610c86565b905061036d826001611036565b801561037f575061037f826002611036565b801561038e5750806020015142105b801561039d5750888160200151105b80156103a9575060008a115b6103c55760405162461bcd60e51b8152600401610317906155fe565b60006103d983600001518360200151610d1b565b905060006103f68384604001518461104b9092919063ffffffff16565b9050610415848361040a86600001516110aa565b869291908d426110b8565b8251156104345760405162461bcd60e51b8152600401610317906157d0565b8351610441908390611146565b89156104525761045283858c6112ba565b61046483858d8f8c8c8c8860006113a1565b94508a8e6001600160a01b03168e6001600160a01b03167f67c1d09e65227d62b788f4c3e6ace545ac922034d69bd4aa45c53dec290275be8f6040516104aa91906153e0565b60405180910390a450506001600a5550909a9950505050505050505050565b60006002600a5414156104ee5760405162461bcd60e51b8152600401610317906156bb565b6002600a5560006104fe89610fa8565b905061050c818b6008610fcc565b610517816080611036565b15610522576001600a555b600061052e8b8b610c86565b90504360058260a001510111156105575760405162461bcd60e51b81526004016103179061570a565b428160200151116106035760208101516000610574838542611444565b905060008360800151131561059f576105968b8560400151856080015161151a565b50600060808401525b6105ae84848d84868c8c6115c3565b9450818d6001600160a01b03168d6001600160a01b03167fccd6b9aec297a77187bfaabfe7f98ac1dd313c796a73695dff89de0885dbb293886040516105f491906153e0565b60405180910390a450506106f0565b600061061783600001518360200151610d1b565b905061063283826106278b61163a565b859291908b426110b8565b600061063f82848c61104b565b905060008360800151131561066a576106618b8560400151856080015161151a565b50600060808401525b815161067f90859085908e9085908c8c6115c3565b945061068c848385611650565b8351610699908390611146565b81600001518d6001600160a01b03168d6001600160a01b03167fea195c44d2295a1df0defe8210abb22b4a911b4379b9e30e764548ebee65c4208c8e8a6040516106e5939291906158e3565b60405180910390a450505b805115801561070157506040810151155b1561070e57600060208201525b61071881836116c8565b50506001600a5598975050505050505050565b6000610735614daa565b600080610740611885565b6001600160a01b03878116600090815260209283526040808220928916825291835290812080546001600160501b03600160281b820481168852600160781b8204169387019390935264ffffffffff90921695509091506107a18787610c86565b905060006107b3878360200151610d1b565b90506107cc82604001518261189290919063ffffffff16565b9050809450505050509250925092565b6001546001600160a01b031681565b60005464010000000090046001600160a01b031681565b60006002600a5414156108275760405162461bcd60e51b8152600401610317906156bb565b6002600a55610835896118ec565b876001600160a01b0316896001600160a01b0316141561085457600080fd5b600061085f89610fa8565b905061086d818b6004610fcc565b610878816080611036565b15610883576001600a555b61088e816001611036565b6108aa5760405162461bcd60e51b8152600401610317906157aa565b8642106108c95760405162461bcd60e51b8152600401610317906157aa565b60006108d58b8b610c86565b9050600081602001516000141580156108f2575042826020015111155b1561090557610902828442611444565b90505b6000610912848e8d61193b565b905061092583858c8c8c8c8c89896113a1565b9450898d6001600160a01b03168d6001600160a01b03167f7e1a5e400898c4bb3cfc62f61a71f4369ec78f0e778a31286892b7d2c0d044f28c60405161096b91906153e0565b60405180910390a450506001600a5550909998505050505050505050565b60006002600a5414156109ae5760405162461bcd60e51b8152600401610317906156bb565b6002600a556109bc866118ec565b866001600160a01b0316866001600160a01b031614156109db57600080fd5b60006109e8898989611a14565b905060006109f68a8a610c86565b90506000610a088a8360200151610d1b565b905081602001514210610a1a57600080fd5b600080610a3e838e8660400151876000015189610db690949392919063ffffffff16565b915091508460a001518212610a655760405162461bcd60e51b8152600401610317906157f5565b6000610a78866040015161ffff16611aff565b9050610a888c8287898f87611b12565b6000610ac3633b9aca006102db610a9e86610f4b565b6102db8a604001516102d5610ab68e60c00151610f4b565b6102d58e60800151610f4b565b6040870151909150610ad59082611bfb565b60408701526080860151610160880151600091610af29190611c10565b9050610b11888783610b078b608001516110aa565b8b93929190611c43565b86516009191215610b2157600087525b8f6001600160a01b03168f6001600160a01b03167f5b4676a4ed91c52fd6c4a759aec8a3561b67499c52870fc58000a8eb54fec3018484604051610b669291906153e9565b60405180910390a350610b7986886116c8565b8c6001600160a01b03168f6001600160a01b03168f6001600160a01b03167f01745a2fe0d7c484ea79432a82f950eac6916adc499a0223d2ebdadcdb210f2a848f604051610bc89291906158d3565b60405180910390a48a15610bfa578651610be3908690611146565b610bf38d88838960200151611cb1565b9750610c0c565b610c098d8887848e8e88611d25565b97505b50506001600a5550939b9a5050505050505050505050565b610c2c614dc8565b610c368383610c86565b90505b92915050565b73__$7ac922d04bd7a1b42c7f6e5f1dd89a70af$__90565b610c5f614e07565b610c6882611db3565b9050610c7b816040015161ffff16611f4d565b610160820152919050565b610c8e614dc8565b6000610c98611f99565b6001600160a01b03948516600081815260209283526040808220969097168152948252858520546001600160501b0380821687038652600160a01b820464ffffffffff1693860193909352600160501b8104909216958401959095526060830194909452506080810191909152600160c81b90910463ffffffff1660a082015290565b610d23614e8c565b6000610d2d611fa6565b6001600160a01b03909416600090815260209485526040808220858352865280822094845284546001600160501b038082169093039685019690965260ff600160f01b870416151590840152600160501b8086048216608085015260019094015480821660a0850152600160a01b909504166060830152509104600990810b900b60c082015290565b600080610dc586888787611fb3565b90506000610dd888878960000151612018565b90506000610dfe610df283610dec886110aa565b906120ff565b6101608b015190612115565b90506000610e0c8483612140565b905081610e22576001600160ff1b039450610e2f565b610e2c8183612156565b94505b5050509550959350505050565b6000806000610e5d633b9aca008661012001516120ff90919063ffffffff16565b90506000610e7d610e7188600001516110aa565b61016088015190612115565b9050610eb3610e998760c001518461214090919063ffffffff16565b610ead87610ea7858761216f565b90612140565b90612156565b93506000610ec18286612140565b90506000610ee1886060015189610160015161211590919063ffffffff16565b9050610eed8382612140565b945080821215610efb578295505b6000610f1e88610f188b60c001518a61218890919063ffffffff16565b906121d6565b9050633b9aca008112610f3e5760c0890151610f3b908990612156565b96505b5050505050935093915050565b600080821215610f5a57600080fd5b50805b919050565b600082610f7157506000610c39565b82820282848281610f7e57fe5b0414610c3657600080fd5b6000808211610f9757600080fd5b818381610fa057fe5b049392505050565b610fb0614e07565b610fb982611db3565b9050610c7b816040015161ffff16612207565b610fd68382611036565b156110095782516001600160a01b031633146110045760405162461bcd60e51b815260040161031790615412565b611031565b6001600160a01b03821633146110315760405162461bcd60e51b815260040161031790615412565b505050565b60209190910151811661ffff90811691161490565b825160208301516000911461105f57600080fd5b604083015161106e9083611bfb565b6040840152600061107f858461221d565b9250905061109a61108f8261163a565b6080860151906120ff565b6080909401939093529392505050565b6000610c3960001983612188565b85516000906110c790856120ff565b13156110d257600080fd5b856020015181106110e257600080fd5b60006110ff8660400151886020015186868a610100015187612274565b9050806111225761016086015161111f9061111a9086612115565b6110aa565b90505b600081131561113057600080fd5b61113d8787878785611c43565b50505050505050565b6000611150611fa6565b6001600160a01b038316600090815260208281526040808320875184529091529081902090850151919250901561118657600080fd5b6111a361119e61119986602001516110aa565b610f4b565b612383565b81546001600160501b0319166001600160501b039190911617815560808401516111cc90612383565b81546001600160501b0391909116600160501b02600160501b600160a01b031990911617815560a084015161120090612383565b6001820180546001600160501b0319166001600160501b0392909216919091179055606084015161123090612383565b81546001600160501b0391909116600160a01b0269ffffffffffffffffffff60a01b1990911617815583516020850151608086015160a087015160608801516040516001600160a01b038916947f3a0fdaecf7b5da75a56077f5b1c8fbc88f9b08e9d0c4db31eb34e25bc6700cde946112ac94919390926153f7565b60405180910390a350505050565b6000806112c684612399565b909250905060006003826060015160058111156112df57fe5b141561130b573484146113045760405162461bcd60e51b815260040161031790615758565b5034611334565b6113316111998760600151876040015161ffff166113288861163a565b869291906123f2565b90505b600060048460600151600581111561134857fe5b141561135e576113578261163a565b9050611378565b81156113785760408601516113759085908461249a565b90505b6113906113858583612591565b6080890151906120ff565b608090970196909652505050505050565b6000878a6020015114806113b457508951155b6113bd57600080fd5b60006113cd8a600001518a610d1b565b905087156113f3576113ee8b8b838c6113e861111a8e61163a565b8c6125c1565b61140a565b6114088a604001518a8c610100015142612651565b505b611419818c8c87878b8b6126c0565b4360a08d0152915061142b8b8b6116c8565b6114368a828d611650565b509998505050505050505050565b60008061145984600001518660200151610d1b565b9050806040015161147c5760405162461bcd60e51b8152600401610317906155a9565b6000611495856040015161ffff168760200151866127e7565b905060006114bc6305f5e100610f188560c001516114b68760a0015161163a565b90612188565b905060006114cd8885898686612955565b905060006114de8886868587612af6565b60008b5260808b01519097509091506114f790826120ff565b60808a015250506000604088018190526020909701969096525090949350505050565b600081611529575060006115bc565b6000821361153657600080fd5b60006115458461ffff16611aff565b905060006115538285612d2e565b905060048260600151600581111561156757fe5b14156115955761158e61119961111a888861ffff16611585866110aa565b879291906123f2565b92506115b9565b6115b661119961111a8761ffff16896115ad86610f4b565b87929190612d66565b92505b50505b9392505050565b600080876080015113156115d657600080fd5b611622886040518060a001604052808a606001516001600160a01b03168152602001896001600160a01b031681526020018881526020018781526020018a608001518152508585612e06565b60006080909901989098525095979650505050505050565b60006001600160ff1b03821115610f5a57600080fd5b600061166b8484846060015185604001518660000151610db6565b5060408301519091501561169e5783610180015181131561169e5760405162461bcd60e51b815260040161031790615555565b808460a0015113156116c25760405162461bcd60e51b815260040161031790615627565b50505050565b60006116d2611f99565b60608401516001600160a01b0390811660009081526020838152604080832087519094168352929052206080850151919250901561170f57600080fd5b6060830151845161171f906110aa565b1215611754578351158061173857506001846040015111155b6117545760405162461bcd60e51b815260040161031790615734565b61175d8361307b565b156117c057600061176c611885565b60608601516001600160a01b03908116600090815260209283526040808220885190931682529183522080549187015190925064ffffffffff909116908114806117b4575080155b6117bd57600080fd5b50505b6117d361119e61119986600001516110aa565b81546001600160501b0319166001600160501b039190911617815560408401516117fc90612383565b81546001600160501b0391909116600160501b02600160501b600160a01b03199091161781556020840151611830906130a4565b815464ffffffffff91909116600160a01b0264ffffffffff60a01b1990911617815560a0840151611860906130b8565b815463ffffffff91909116600160c81b0263ffffffff60c81b19909116179055505050565b600080610c39601a6130cb565b6000806000846060015111156118e5576118c184606001516102db866080015186610f6290919063ffffffff16565b91506118e284606001516102db8660a0015186610f6290919063ffffffff16565b90505b9250929050565b6001600160a01b0381166118ff57600080fd5b6001600160a01b03811630141561191557600080fd5b6000611920826130e4565b5050505061ffff1690508060001461193757600080fd5b5050565b60008161194a575060006115bc565b600061195d856040015161ffff16611aff565b9050600060048260600151600581111561197357fe5b1461198e57611989866040015161ffff16613150565b611990565b815b8651602082015191925090156119a557600080fd5b6003826060015160058111156119b757fe5b14156119f1578434146119dc5760405162461bcd60e51b815260040161031790615758565b6119e68134613163565b3493505050506115bc565b81516119ff90878388613199565b8493505050506115bc565b5050509392505050565b611a1c614e07565b611a2583610fa8565b9050611a3381610100611036565b15611a3d57600080fd5b611a48816080611036565b15611a53576001600a555b611a5e816020611036565b15611a9057336001600160a01b03841614611a8b5760405162461bcd60e51b815260040161031790615412565b611ab8565b336001600160a01b03831614611ab85760405162461bcd60e51b815260040161031790615412565b6001600160a01b0384163314801590611ae35750816001600160a01b0316846001600160a01b031614155b6115bc5760405162461bcd60e51b815260040161031790615412565b611b07614ecb565b610c39826000613221565b6000611b1d8361163a565b9050600586606001516005811115611b3157fe5b1415611b4c57611b49846040015161ffff16826132cf565b90505b600080611b5a878786610e3c565b9150915060008213611b6b57600080fd5b6000611b778984612d2e565b905080841215611bae57611b8b8983612d2e565b8412611ba95760405162461bcd60e51b81526004016103179061565e565b611bb2565b8093505b6040870151600090611bcc908b908d9061ffff16886123f2565b9050611be6611bdb8b83612591565b60808b0151906120ff565b60809099019890985250505050505050505050565b600082821115611c0a57600080fd5b50900390565b600080611c3b8460400151610f186402540be400610f1887896020015161218890919063ffffffff16565b949350505050565b6080850151611c5290826120ff565b60808601528451611c6390836120ff565b80865260001215611c7357600080fd5b6020830151611c8290836120ff565b6020840181905260001215611c9657600080fd5b611ca98460000151856040015184613356565b505050505050565b600080611cc2868660000151610c86565b9050806020015160001480611cda5750828160200151145b611cf65760405162461bcd60e51b815260040161031790615438565b602081018390526040810151611d0c908561345c565b6040820152611d1b81866116c8565b5091949350505050565b60008080611d33888861221d565b89519193509150611d4b908a908c9084908a8a61346e565b8a51909450611d5c91508990611146565b8115611da6576000611d9661119961111a8c6040015161ffff168e611d8d611199611d868a61163a565b8c90612d2e565b8a929190612d66565b9050611da2848261345c565b9350505b5050979650505050505050565b611dbb614e07565b6000611dc56134c5565b6001600160a01b03841660008181526020838152604091829020928652825461ffff808216928801929092526201000081049091169186019190915291925090611e269063ffffffff6401000000009091048116906305f5e1009061218816565b60608401528054611e4490600160501b900460ff166207a120610f62565b60808401528054611e689068010000000000000000900461ffff16620186a0610f62565b60a08401528054611e8790600160701b900461ffff16620186a0610f62565b6101208401526002810154611ea39061ffff16620186a0610f62565b610180840152805460649060ff600160581b90910416633b9aca00020560c08401528054600160601b810460ff90811660e0860152600160681b909104166101008401526040805180820191829052906001830190600290826000855b82829054906101000a900461ffff1661ffff1681526020019060020190602082600101049283019260010382029150808411611f0057905050505050508361014001819052505050919050565b611f55614ef2565b6000806000611f63856134d2565b604080516060810182526001600160a01b039093168352602083019390935260ff16600a0a918101919091529350505050919050565b600080610c3960166130cb565b600080610c3960156130cb565b600081611fc257506000611c3b565b600080611fcf8785611892565b915091506000611fee8760400151886000015188858c60000151613593565b905061200c611ffc8461163a565b610160890151610dec9084612115565b98975050505050505050565b60006120238461307b565b156115bc576000612032611885565b6001600160a01b0380861660009081526020928352604080822089519093168252919092528082209087015190925061206e9061ffff1661364d565b82549091506001600160501b03600160281b8204811691600160781b90041681156120c4576120c16120ba848a61014001516000600281106120ac57fe5b60200201518b518a876137b0565b86906120ff565b94505b80156120f4576120f16120ba848a61014001516001600281106120e357fe5b60200201518b518a866137b0565b94505b505050509392505050565b81810182811215600083121514610c3957600080fd5b600080611c3b8460200151610f1886604001516114b66402540be4008861218890919063ffffffff16565b80820382811315600083121514610c3957600080fd5b6000610c3661216984633b9aca00612188565b836121d6565b6000610c3661217e8484612188565b633b9aca006121d6565b8181026000198314156121b8578115806121aa5750828282816121a757fe5b05145b6121b357600080fd5b610c39565b8215806121cd5750818382816121ca57fe5b05145b610c3957600080fd5b6000816000191480156121ec5750600160ff1b83145b156121f657600080fd5b8183816121ff57fe5b059392505050565b61220f614ef2565b6000806000611f6385613861565b60008061222a8484611892565b6080860151919350915061223e9083611bfb565b608085015260a08401516122529082611bfb565b60a085015260608401516122669084611bfb565b606090940193909352929050565b60008061228388888686612651565b90506000612290876138e6565b90506affffffffffffffffffffff81106122a957600080fd5b600060788763ffffffff16901b609883901b60f085901b60f860008c136122d15760016122d4565b60005b60058111156122df57fe5b60ff16901b17171760001b905073__$7ac922d04bd7a1b42c7f6e5f1dd89a70af$__63e50f349e8b836040518363ffffffff1660e01b8152600401612325929190615880565b60206040518083038186803b15801561233d57600080fd5b505af4158015612351573d6000803e3d6000fd5b505050506040513d601f19601f820116820180604052508101906123759190615253565b9a9950505050505050505050565b60006001600160501b03821115610f5a57600080fd5b6123a1614ecb565b6123a9614ecb565b6123ba836040015161ffff16611aff565b91506004826060015160058111156123ce57fe5b146123e9576123e4836040015161ffff16613150565b6123eb565b815b9050915091565b8060058560600151600581111561240557fe5b141561242a57600061241684613150565b9050612426816000015184613907565b9250505b6000821315612456576000612440868685613996565b9050856020015115612450578091505b50611c3b565b60038560600151600581111561246857fe5b1415612485576124808461247b846110aa565b613163565b611c3b565b8451611c3b9085612495856110aa565b613a7f565b6000806005856060015160058111156124af57fe5b146124c1576370a0823160e01b6124ca565b630ed1279f60e11b5b905060006124dd86600001513084613af6565b90506005866060015160058111156124f157fe5b14156125185760006125068661ffff16613150565b90506125128186613c08565b50612561565b60018660600151600581111561252a57fe5b141561253f5761253a8685613c73565b612561565b60028660600151600581111561255157fe5b141561009c5761253a8685613d15565b600061257287600001513085613af6565b90506125866125818284613d68565b61163a565b979650505050505050565b60006305f5e100836040015114156125aa575080610c39565b6040830151610c3690610f18846305f5e100612188565b600082126125ce57600080fd5b60006125e786604001518585858a610100015142612274565b9050600081136126095760405162461bcd60e51b8152600401610317906156e3565b6126168787878685611c43565b8651612621906110aa565b866060015113156126445760405162461bcd60e51b815260040161031790615734565b61113d8688838742613dbf565b60008060006126638761ffff16613eba565b90506126738160ff168786613ed0565b9093509150848311156126985760405162461bcd60e51b81526004016103179061552b565b81156126b65760405162461bcd60e51b81526004016103179061552b565b5050949350505050565b600087608001516000146126d357600080fd5b6000876080015112156126e557600080fd5b87516020880151101561270d5760408701511561270157600080fd5b8751602088015261271e565b875160208801511461271e57600080fd5b60008515612739576127368989888a60000151613f98565b90505b606088015160808901518a51600092612756928b928a8a8a614016565b905061277261276b8b8b848c60000151613f98565b839061345c565b915088606001516001600160a01b03168a6000015189600001516001600160a01b03167ff0b1fff1c6815d2739f7cb03adbb99177a10daae11921a3ae1712f20ea52eb9a898d608001518c886040516127ce94939291906153f7565b60405180910390a4600060808a0152612375878261345c565b6127ef614ef2565b6000806127fc86866140cc565b91509150816000141561292a57600061281487613861565b91945090925090506001600160a01b03811615612928576000612835614113565b90508560001080156128475750858711155b8015612858575064ffffffffff8611155b61286157600080fd5b83600012801561287857506001600160801b038413155b61288157600080fd5b6000888152602082815260408083208a845290915290819020805464ffffffffff191664ffffffffff89161774ffffffffffffffffffffffffffffffff00000000001916600160281b6001600160801b038816021760ff60a81b1916600160a81b60ff871602178155905188908a907f0fdfa6885701e2f1f42e4187b9231cf81c1fe23671ef64fa46f34ddb56c1dc189061291d90899061586c565b60405180910390a350505b505b6040805160608101825260008152602081019390935260ff909116600a0a9082015290509392505050565b60008061297961297261296b886080015161163a565b8690611c10565b84906120ff565b90506129848561307b565b15612a97576000612993611885565b60608901516001600160a01b039081166000908152602092835260408082208a519093168252919092528120875189516101408a015151835493955084936129ed93929190600160281b90046001600160501b0316614120565b90925090506129fc84836120ff565b9350612a088582612140565b88518a516101408b0151602001518654939850612a3493600160781b90046001600160501b0316614120565b9092509050612a4384836120ff565b9350612a4f8582612140565b9450612a59611885565b60608b01516001600160a01b039081166000908152602092835260408082208c51909316825291909252902080546001600160c81b03191690555050505b612aca612ac38860000151610dec612ab28a6060015161163a565b610f18866114b68e6040015161163a565b83906120ff565b91506000821215612aec57612ae26113858584612115565b6080880152600091505b5095945050505050565b6000806000612b22612b1588602001518861211590919063ffffffff16565b610dec896080015161163a565b90506000612b3485610dec8985611c10565b90508015612b6d57612b5a61119982610f18612b538c60a0015161163a565b8a90612188565b9250612b6a81610f188885612188565b93505b50506000612b796141b4565b88516001600160a01b03166000908152602091825260408082208a5183529092522080549091506001600160501b03811690600160501b9004600990810b900b83821015612bf657612be96120ba612be26305f5e100610f188d60c001516114b6888b0361163a565b8a90612115565b9450909250600090612bfc565b83820391505b82546001600160501b0319166001600160501b0383161783556000851215612c2357600080fd5b84811215612c96576000808213612c3a5785612c3e565b8186035b90506000612c5a8c600001518d60400151848e600001516141c1565b90506000831315612c8b57612c6f83826120ff565b8554600160501b600160a01b0319168655965060009250612c8f565b8096505b5050612cd5565b612ca08186612140565b9050612cab816142e9565b835460099190910b6001600160501b0316600160501b02600160501b600160a01b03199091161783555b88600001518a600001516001600160a01b03167ff5b347a56f0b5140f05eec05ff743978670a56685689fdc2c3193d71cfac31a98385604051612d199291906153e9565b60405180910390a35050509550959350505050565b60006305f5e10083604001511415612d47575080610c39565b610c366305f5e100610f1885604001518561218890919063ffffffff16565b600080600286606001516005811115612d7b57fe5b1415612d9357612d8c868585614319565b9050612df0565b6000612d9e86613150565b9050600587606001516005811115612db257fe5b1415612dca57612dc38186866143d6565b9150612dee565b600187606001516005811115612ddc57fe5b141561009c57612dc387828787614487565b505b612dfc61111a8261163a565b9695505050505050565b600080600080612e1588612399565b9150915060008088608001511215612e8a57600483606001516005811115612e3957fe5b1415612e5657612e4f61119989608001516110aa565b9050612e8a565b6000612e7761111a8a608001518c6101600151611c1090919063ffffffff16565b9050612e866111998483614585565b9150505b604088015160009015612f62576000612ea384306145c1565b90508a600001516001600160a01b03166344f051088b600001518c602001518d604001518e60600151888f8f6040518863ffffffff1660e01b8152600401612ef197969594939291906152f8565b602060405180830381600087803b158015612f0b57600080fd5b505af1158015612f1f573d6000803e3d6000fd5b505050506040513d601f19601f82011682018060405250810190612f439190615253565b95506000612f5185306145c1565b9050612f5d8183611bfb565b925050505b81811015612ffd57808203600384606001516005811115612f7f57fe5b1415612fbd5734811115612fa55760405162461bcd60e51b8152600401610317906154a5565b612fb58a60000151823403613163565b829150612ffb565b6000612fe28b600001518d6040015161ffff16612fd98561163a565b889291906123f2565b9050612ff7612ff082610f4b565b849061345c565b9250505b505b8181101561301d5760405162461bcd60e51b8152600401610317906154a5565b600060048560600151600581111561303157fe5b1415613047576130408261163a565b9050613061565b81156130615760408b015161305e9086908461249a565b90505b61306b8582612591565b9650505050505094509492505050565b6101408101515160009061ffff16151580610c3957505061014001516020015161ffff16151590565b600064ffffffffff821115610f5a57600080fd5b600063ffffffff821115610f5a57600080fd5b6000620f424082601a8111156130dd57fe5b0192915050565b6000806000806000806130f561466b565b6001600160a01b039097166000908152602097909752505060409094205461ffff81169563ffffffff620100008304811696506601000000000000830416945060ff600160501b8304169350600160581b90910460d81b9150565b613158614ecb565b610c39826001613221565b6040516001600160a01b0383169082156108fc029083906000818181858888f19350505050158015611031573d6000803e3d6000fd5b836001600160a01b03166323b872dd8484846040518463ffffffff1660e01b815260040180846001600160a01b03168152602001836001600160a01b031681526020018281526020019350505050600060405180830381600087803b15801561320157600080fd5b505af1158015613215573d6000803e3d6000fd5b505050506116c2614678565b613229614ecb565b60006132336146e5565b6000858152602082815260408083208715158452825291829020825160a08101845281546001600160a01b038116825260ff600160a01b82048116151594830194909452600160b01b81048416600a0a9482019490945293945092916060830191600160a81b9091041660058111156132a857fe5b81529154600160b81b900468ffffffffffffffffff16602090920191909152949350505050565b6000816132de57506000610c39565b600082136132eb57600080fd5b60006132f684613150565b9050600061330782600001516146f2565b9050600281056b033b2e3c9fd0803ce80000006001600160ff1b038290030585131561333257600080fd5b81816b033b2e3c9fd0803ce80000008702018161334b57fe5b059695505050505050565b60008061336161477d565b6001600160a01b03861660009081526020918252604080822061ffff881683529092522080549091506133a490600160501b90046001600160501b031684612140565b915060008312156133d95780546001600160501b03168213156133d95760405162461bcd60e51b815260040161031790615583565b6133e561119e83610f4b565b81546001600160501b0391909116600160501b02600160501b600160a01b031990911617815560405161ffff8516906001600160a01b038716907f20478ef460e49d010960d4f3fff35d8dae385443abfac09035d6a2ccbcd834c49061344c9086906153e0565b60405180910390a3509392505050565b600082820183811015610c3657600080fd5b6000806134b6886040518060a001604052808a6001600160a01b031681526020018a6001600160a01b0316815260200189815260200188815260200160008152508686612e06565b90999098509650505050505050565b600080610c3960146130cb565b60008060008060006134e38661478a565b909250905060006001600160a01b0383166135085750600090506402540be400613588565b826001600160a01b031663b2fffb046040518163ffffffff1660e01b815260040160206040518083038186803b15801561354157600080fd5b505afa158015613555573d6000803e3d6000fd5b505050506040513d601f19601f820116820180604052508101906135799190615253565b90506000811361358857600080fd5b969195509350915050565b6000806135a38761ffff16613150565b90508060400151600014156135c2576135bf8761ffff16611aff565b90505b60405163e937711160e01b8152612586906001600160a01b0388169063e9377111906135f690899089908990600401615386565b60206040518083038186803b15801561360e57600080fd5b505afa158015613622573d6000803e3d6000fd5b505050506040513d601f19601f820116820180604052508101906136469190615253565b8290612591565b613655614f1c565b600061365f6147c1565b600084815260208290526040812091925080600186141561368c5750670de0b6b3a7640000905080613762565b825460408051633fabe5a360e21b815290516001600160a01b039092169163feaf968c9160048082019260a092909190829003018186803b1580156136d057600080fd5b505afa1580156136e4573d6000803e3d6000fd5b505050506040513d601f19601f82011682018060405250810190613708919061526b565b509193505060008313915061373190505760405162461bcd60e51b815260040161031790615695565b825460ff600160a01b82048116600a0a9350600160a81b90910416156137625761375f81610f188480612188565b90505b6040805160a0810182529283526020830191909152915460ff600160b01b8204811693830193909352600160b81b810483166060830152600160c01b90049091166080820152915050919050565b6000806137bb6147ce565b6001600160a01b038616600090815260209182526040808220878352835280822061ffff8a16835290925290812080549092506001600160501b0380821692600160501b9092041690613815612581836102db8987610f62565b905060006138268a61ffff1661364d565b905060006138348c836147db565b905061385181610f188e600001518661218890919063ffffffff16565b9c9b505050505050505050505050565b60008060008060006138728661478a565b909250905060006001600160a01b0383166138975750600090506402540be400613588565b826001600160a01b0316631ee108336040518163ffffffff1660e01b8152600401602060405180830381600087803b1580156138d257600080fd5b505af1158015613555573d6000803e3d6000fd5b600080821215613900576138f9826110aa565b9050610f5d565b5080610f5d565b60008161391657506000610c39565b6000613921846146f2565b9050600061392e846138e6565b9050816b019d971e4fe8401e74000001600160ff1b038161394b57fe5b0581131561395857600080fd5b6b033b2e3c9fd0803ce80000006b019d971e4fe8401e7400000083830201056000851361398d57613988816110aa565b612dfc565b95945050505050565b60008080806005876060015160058111156139ad57fe5b146139bf576370a0823160e01b6139c8565b630ed1279f60e11b5b90508660200151156139e45786516139e1903083613af6565b92505b86516139f1908787614800565b866020015180613a05575060008760800151115b15613a1a578651613a17903083613af6565b91505b608087015115613a55576000613a3888613a338561163a565b612591565b9050613a47886080015161163a565b811315613a5357600080fd5b505b866020015115613a7657613a6c6125818385613d68565b93505050506115bc565b613a6c8561163a565b826001600160a01b031663a9059cbb83836040518363ffffffff1660e01b815260040180836001600160a01b0316815260200182815260200192505050600060405180830381600087803b158015613ad657600080fd5b505af1158015613aea573d6000803e3d6000fd5b50505050611031614678565b604080516001600160a01b0384811660248084019190915283518084039091018152604490920183526020820180516001600160e01b03166001600160e01b0319861617815292518251600094859485948a16939092909182918083835b60208310613b735780518252601f199092019160209182019101613b54565b6001836020036101000a038019825116818451168082178552505050505050905001915050600060405180830381855afa9150503d8060008114613bd3576040519150601f19603f3d011682016040523d82523d6000602084013e613bd8565b606091505b509150915081613be757600080fd5b808060200190516020811015613bfc57600080fd5b50519695505050505050565b613c10614858565b54825160405163e8eda9df60e01b81526001600160a01b039092169163e8eda9df91613c459185903090600090600401615359565b600060405180830381600087803b158015613c5f57600080fd5b505af1158015611ca9573d6000803e3d6000fd5b815160405163140e25ad60e31b81526000916001600160a01b03169063a0712d6890613ca39085906004016153e0565b602060405180830381600087803b158015613cbd57600080fd5b505af1158015613cd1573d6000803e3d6000fd5b505050506040513d601f19601f82011682018060405250810190613cf59190615253565b905080156110315760405162461bcd60e51b815260040161031790615467565b81600001516001600160a01b0316631249c58b826040518263ffffffff1660e01b81526004016000604051808303818588803b158015613d5457600080fd5b505af115801561113d573d6000803e3d6000fd5b600082821115611c0a576040805162461bcd60e51b815260206004820152601e60248201527f536166654d6174683a207375627472616374696f6e206f766572666c6f770000604482015290519081900360640190fd5b6000613de46301da9c00610f18613dd96125818787611bfb565b60808a015190612188565b90506000613df2858361216f565b90506000613e126064610f188a60e001518561218890919063ffffffff16565b90506000613e208383612140565b9050613e34896040015161ffff1683614865565b613e46896040015161ffff16826148ec565b6080880151613e559084612140565b88608001818152505085896040015161ffff168a600001516001600160a01b03167f7456cb4b7c3068832fb334a03d3cd8e440286bad834cb9e332df05ae6792cfbb8585604051613ea79291906153e9565b60405180910390a4505050505050505050565b600080613ec683614938565b60ff169392505050565b60008060008511613ef35760405162461bcd60e51b8152600401610317906154d5565b6007851115613f145760405162461bcd60e51b8152600401610317906155ce565b6000613f1f84614955565b905060015b868111613f77576000613f40613f3983614973565b8490614a17565b905086811415613f585750925060009150613f909050565b86811115613f6e5750925060019150613f909050565b50600101613f24565b5060405162461bcd60e51b81526004016103179061577d565b935093915050565b60008460a0015160001415613fae575081613fd0565b613fcd8560a001516102db876060015186610f6290919063ffffffff16565b90505b60a0850151613fdf908461345c565b60a08601526060850151613ff3908261345c565b60608601526040840151614007908261345c565b6040850152611c3b8583611146565b60008061402c89600001518a604001518961151a565b89519091506001600160a01b031663dc6679c58961404a848961345c565b8988886040518663ffffffff1660e01b815260040161406d9594939291906153a7565b602060405180830381600087803b15801561408757600080fd5b505af115801561409b573d6000803e3d6000fd5b505050506040513d601f19601f820116820180604052508101906140bf9190615253565b9998505050505050505050565b60008060006140d9614113565b600095865260209081526040808720958752949052505050902054600160281b81046001600160801b031691600160a81b90910460ff1690565b600080610c3960086130cb565b60008061ffff8416614137575060009050806141ab565b60006141416147ce565b6001600160a01b038816600090815260209182526040808220898352835280822061ffff891683529092522080549091506001600160501b03600160a01b8204811691600160501b90041685156141a6576141a3612581826102db8986610f62565b93505b509250505b94509492505050565b600080610c3960196130cb565b60006141ce856000614a71565b846001600160a01b03167f7c51c6aa77346c54cb051d9e792f9b7bde5c28a9b57e6fb2d2dd727b38438ca9600060405161420891906153d5565b60405180910390a2818461ffff16866001600160a01b03167f823b641d46550301006f807a26587634f15bd13749efdc8859734377d5304a3b8660405161424f91906153e0565b60405180910390a4600061426860008661ffff16614ad1565b50505090508084136142885761428085858303614b7a565b8391506142e0565b614293856000614b7a565b828561ffff16876001600160a01b03167f3a717b6924e3ad05b8c7609a2401472af90869b52cc3c9ca69b50100b4be63168488036040516142d491906153e0565b60405180910390a48091505b50949350505050565b6000697fffffffffffffffffff1982128015906143105750697fffffffffffffffffff8213155b610f5a57600080fd5b825160405163db006a7560e01b8152600091479183916001600160a01b03169063db006a759061434d9087906004016153e0565b602060405180830381600087803b15801561436757600080fd5b505af115801561437b573d6000803e3d6000fd5b505050506040513d601f19601f8201168201806040525081019061439f9190615253565b905080156143bf5760405162461bcd60e51b815260040161031790615485565b476143ca8184613d68565b9350611a0a8685613163565b60006143f161119985600001516143ec8561163a565b613907565b90506143fb614858565b548451604051631a4ca37b60e21b81526001600160a01b03909216916369328dec9161442d9185908890600401615336565b602060405180830381600087803b15801561444757600080fd5b505af115801561445b573d6000803e3d6000fd5b505050506040513d601f19601f8201168201806040525081019061447f9190615253565b509392505050565b825160009081906144a090306370a0823160e01b613af6565b9050600086600001516001600160a01b031663db006a75856040518263ffffffff1660e01b81526004016144d491906153e0565b602060405180830381600087803b1580156144ee57600080fd5b505af1158015614502573d6000803e3d6000fd5b505050506040513d601f19601f820116820180604052508101906145269190615253565b905080156145465760405162461bcd60e51b815260040161031790615485565b855160009061455d90306370a0823160e01b613af6565b90506145698184613d68565b935061457a87600001518786613a7f565b505050949350505050565b60006305f5e100836040015112156145ad576145a66001610dec8585612d2e565b9050610c39565b610c36836145bc8460016120ff565b612d2e565b60006003836060015160058111156145d557fe5b14156145ec57506001600160a01b03811631610c39565b82516040516370a0823160e01b81526001600160a01b03909116906370a082319061461b9085906004016152e4565b60206040518083038186803b15801561463357600080fd5b505afa158015614647573d6000803e3d6000fd5b505050506040513d601f19601f820116820180604052508101906145a69190615253565b600080610c3960026130cb565b6000614682614f4b565b3d8015614696576020811461469f57600080fd5b600192506146aa565b60206000833e815192505b5081611937576040805162461bcd60e51b8152602060048201526005602482015264045524332360dc1b604482015290519081900360640190fd5b600080610c3960076130cb565b6000610c396146ff614858565b5460405163d15e005360e01b81526001600160a01b039091169063d15e00539061472d9086906004016152e4565b60206040518083038186803b15801561474557600080fd5b505afa158015614759573d6000803e3d6000fd5b505050506040513d601f19601f820116820180604052508101906125819190615253565b600080610c3960176130cb565b6000806000614797614bdd565b600094855260205250506040909120546001600160a01b03811692600160a01b90910460ff169150565b600080610c3960106130cb565b600080610c3960186130cb565b6000610c368260200151610f188460000151866020015161218890919063ffffffff16565b604080516323b872dd60e01b81526001600160a01b038481166004830152306024830152604482018490529151918516916323b872dd9160648082019260009290919082900301818387803b158015613ad657600080fd5b600080610c3960136130cb565b600081121561487357600080fd5b6000614880600084614ad1565b505050905061489882826120ff90919063ffffffff16565b90506148ab600084836000806000614bea565b8261ffff167f85170c297762884f47ec6098b74925c795e6d33686b11019b400e33a9b23b5e9836040516148df91906153e0565b60405180910390a2505050565b60008112156148fa57600080fd5b600061490583614d31565b905060006149138285614ad1565b505050905061492b83826120ff90919063ffffffff16565b90506116c2828583614d57565b600080614943614d75565b60009384526020525050604090205490565b60006276a70082101561496757600080fd5b506276a7008106900390565b6000816001141561498857506276a700610f5d565b816002141561499b575062ed4e00610f5d565b81600314156149af57506301da9c00610f5d565b81600414156149c357506303b53800610f5d565b81600514156149d757506309450c00610f5d565b81600614156149eb575063128a1800610f5d565b81600714156149ff57506325143000610f5d565b60405162461bcd60e51b815260040161031790615504565b600082820183811015610c36576040805162461bcd60e51b815260206004820152601b60248201527f536166654d6174683a206164646974696f6e206f766572666c6f770000000000604482015290519081900360640190fd5b6000614a7b6134c5565b6001600160a01b038416600090815260208290526040902080549192509061ffff168315614aba57815461ffff19166001821761ffff16178255614aca565b815461ffff191661fffe82161782555b5050505050565b6000806000806000614ae1614d82565b6001600160a01b0388166000908152602082815260408083208a8452909152902080546001600160501b0381169650600160501b900463ffffffff1694509091508315614b4a578054614b4390600160701b900466ffffffffffffff16614d8f565b9250614b5f565b8054600160701b900466ffffffffffffff1692505b54600160a81b9004600a90810b900b97939650919450925050565b6000811215614b8857600080fd5b614b9d60008361ffff16836000806000614bea565b8161ffff167fd3625f7b5926828151efe19f7ae655488287357d99ebe67e5fb20522ca739c0b82604051614bd191906153e0565b60405180910390a25050565b600080610c39600f6130cb565b6000614bf4614d82565b6001600160a01b0388166000908152602082815260408083208a845290915290209091506a7fffffffffffffffffffff198612801590614c3f57506a7fffffffffffffffffffff8613155b614c4857600080fd5b60008512158015614c6057506001600160501b038513155b614c6957600080fd5b83614ca95766ffffffffffffff831115614c8257600080fd5b805466ffffffffffffff60701b1916600160701b66ffffffffffffff851602178155614cc3565b8054600160501b900463ffffffff168414614cc357600080fd5b8054600a9690960b6affffffffffffffffffffff16600160a81b026001600160a81b036001600160501b039096166001600160501b031963ffffffff909616600160501b0263ffffffff60501b19909816979097179490941695909517939093169190911790925550505050565b600080614d3c614d9d565b6000938452602052505060409020546001600160a01b031690565b6000811215614d6557600080fd5b6110318383836000806000614bea565b600080610c3960096130cb565b600080610c3960066130cb565b600881901c60ff9091161b90565b600080610c3960036130cb565b60405180604001604052806002906020820280368337509192915050565b6040518060c0016040528060008152602001600081526020016000815260200160006001600160a01b0316815260200160008152602001600081525090565b604051806101a0016040528060006001600160a01b03168152602001600061ffff168152602001600061ffff16815260200160008152602001600081526020016000815260200160008152602001600081526020016000815260200160008152602001614e72614daa565b8152602001614e7f614ef2565b8152602001600081525090565b6040518060e001604052806000815260200160008152602001600015158152602001600081526020016000815260200160008152602001600081525090565b6040805160a081018252600080825260208201819052918101829052906060820190614e7f565b604051806060016040528060006001600160a01b0316815260200160008152602001600081525090565b6040518060a0016040528060008152602001600081526020016000815260200160008152602001600081525090565b60405180602001604052806001906020820280368337509192915050565b80356001600160a01b0381168114610f5d57600080fd5b60008083601f840112614f91578182fd5b50813567ffffffffffffffff811115614fa8578182fd5b6020830191508360208285010111156118e557600080fd5b803563ffffffff81168114610f5d57600080fd5b80516001600160501b0381168114610f5d57600080fd5b60008060408385031215614ffd578182fd5b61500683614f69565b91506118e260208401614f69565b600080600080600080600060c0888a03121561502e578283fd5b61503788614f69565b965061504560208901614f69565b955061505360408901614f69565b9450606088013593506080880135801515811461506e578384fd5b925060a088013567ffffffffffffffff811115615089578283fd5b6150958a828b01614f80565b989b979a50959850939692959293505050565b60008060008060008060008060e0898b0312156150c3578081fd5b6150cc89614f69565b97506150da60208a01614f69565b96506150e860408a01614f69565b9550606089013594506080890135935061510460a08a01614fc0565b925060c089013567ffffffffffffffff81111561511f578182fd5b61512b8b828c01614f80565b999c989b5096995094979396929594505050565b60008060008060008060008060e0898b03121561515a578384fd5b61516389614f69565b975061517160208a01614f69565b965060408901359550606089013594506080890135935061519460a08a01614fc0565b925060c089013567ffffffffffffffff81111561511f578283fd5b60008060008060008060008060006101008a8c0312156151cd578081fd5b6151d68a614f69565b98506151e460208b01614f69565b975060408a0135965060608a0135955060808a0135945061520760a08b01614fc0565b935061521560c08b01614fc0565b925060e08a013567ffffffffffffffff811115615230578182fd5b61523c8c828d01614f80565b915080935050809150509295985092959850929598565b600060208284031215615264578081fd5b5051919050565b600080600080600060a08688031215615282578081fd5b61528b86614fd4565b94506020860151935060408601519250606086015191506152ae60808701614fd4565b90509295509295909350565b60008284528282602086013780602084860101526020601f19601f85011685010190509392505050565b6001600160a01b0391909116815260200190565b600060018060a01b03808a16835280891660208401525086604083015285606083015284608083015260c060a08301526140bf60c0830184866152ba565b6001600160a01b0393841681526020810192909252909116604082015260600190565b6001600160a01b03948516815260208101939093529216604082015261ffff909116606082015260800190565b6001600160a01b039390931683526020830191909152604082015260600190565b600060018060a01b0387168252856020830152846040830152608060608301526125866080830184866152ba565b901515815260200190565b90815260200190565b918252602082015260400190565b93845260208401929092526040830152606082015260800190565b6020808252600c908201526b155b985d5d1a1bdc9a5e995960a21b604082015260600190565b6020808252601590820152740acc2ead8e840a6d0c2e4cae6409ad2e6dac2e8c6d605b1b604082015260600190565b602080825260049082015263135a5b9d60e21b604082015260600190565b60208082526006908201526552656465656d60d01b604082015260600190565b602080825260169082015275125b9cdd59999a58da595b9d081c995c185e5b595b9d60521b604082015260600190565b60208082526015908201527410d1ce881b9bc81b585c9ad95d1cc81b1a5cdd1959605a1b604082015260600190565b6020808252600d908201526c092dcecc2d8d2c840d2dcc8caf609b1b604082015260600190565b60208082526010908201526f496e76616c6964204d6174757269747960801b604082015260600190565b60208082526014908201527310589bdd994813585e0810dbdb1b185d195c985b60621b604082015260600190565b6020808252600c908201526b4d617820436170616369747960a01b604082015260600190565b6020808252600b908201526a139bdd0814d95d1d1b195960aa1b604082015260600190565b60208082526016908201527510d1ce881b585c9ad95d081a5b99195e08189bdd5b9960521b604082015260600190565b6020808252600f908201526e139bc8149bdb1b08105b1b1bddd959608a1b604082015260600190565b60208082526017908201527f496e73756666696369656e7420436f6c6c61746572616c000000000000000000604082015260600190565b60208082526017908201527f4d757374204c697175696461746520416c6c2044656274000000000000000000604082015260600190565b6020808252600c908201526b496e76616c6964207261746560a01b604082015260600190565b6020808252600e908201526d1499595b9d1c985b9d0818d85b1b60921b604082015260600190565b6020808252600d908201526c109bdc9c9bddc819985a5b1959609a1b604082015260600190565b60208082526010908201526f4d696e20456e74727920426c6f636b7360801b604082015260600190565b6020808252600a90820152694d696e20426f72726f7760b01b604082015260600190565b6020808252600b908201526a092dcecc2d8d2c8408aa8960ab1b604082015260600190565b60208082526013908201527210d1ce881b9bc81b585c9ad95d08199bdd5b99606a1b604082015260600190565b6020808252600c908201526b21b0b73737ba1022b73a32b960a11b604082015260600190565b6020808252600b908201526a11985a5b19590813195b9960aa1b604082015260600190565b60208082526015908201527414dd59999a58da595b9d0810dbdb1b185d195c985b605a1b604082015260600190565b8151815260208083015190820152604080830151908201526060808301516001600160a01b0316908201526080808301519082015260a0918201519181019190915260c00190565b6001600160801b0391909116815260200190565b61ffff929092168252602082015260400190565b8381526080810160208083018560005b60028110156158c1578151835291830191908301906001016158a4565b50505050826060830152949350505050565b9182521515602082015260400190565b928352602083019190915260408201526060019056fea264697066735822122054fc08ac4cc16bfc7ac3ebc1ae59f09acf3874a3c97b148a2a5011241082c1e564736f6c63430007060033",
  "language": "Solidity",
  "natspec": {
    "kind": "dev",
    "methods": {
      "deleverageAccount(address,address,address,uint256,bool,bytes)": {
        "notice": "If an account is below the minimum collateral ratio, this method wil deleverage (liquidate) that account. `depositAmountExternal` in the borrow currency will be transferred from the liquidator and used to offset the account's debt position. The liquidator will receive either vaultShares or cash depending.",
        "params": {
          "account": "the address that will exit the vault",
          "depositAmountExternal": "amount of asset cash to deposit",
          "liquidator": "the address that will receive profits from liquidation",
          "redeemData": "calldata sent to the vault when redeeming liquidator profits",
          "transferSharesToLiquidator": "transfers the shares to the liquidator instead of redeeming them",
          "vault": "the vault to enter"
        },
        "returns": {
          "profitFromLiquidation": "amount of vaultShares or cash received from liquidation"
        }
      },
      "enterVault(address,address,uint256,uint256,uint256,uint32,bytes)": {
        "notice": "Borrows a specified amount of fCash in the vault's borrow currency and deposits it all plus the depositAmountExternal into the vault to mint strategy tokens.",
        "params": {
          "account": "the address that will enter the vault",
          "depositAmountExternal": "some amount of additional collateral in the borrowed currency to be transferred to vault",
          "fCash": "amount to borrow",
          "maturity": "the maturity to borrow at",
          "maxBorrowRate": "maximum interest rate to borrow at",
          "vault": "the vault to enter",
          "vaultData": "additional data to pass to the vault contract"
        },
        "returns": {
          "strategyTokensAdded": "the total strategy tokens added to the maturity, including any tokens from settlement. Allows enterVault to be used by off-chain methods to get an accurate simulation of the strategy tokens minted."
        }
      },
      "exitVault(address,address,address,uint256,uint256,uint32,bytes)": {
        "notice": "Prior to maturity, allows an account to withdraw their position from the vault. Will redeem some number of vault shares to the borrow currency and close the borrow position by lending `fCashToLend`. Any shortfall in cash from lending will be transferred from the account, any excess profits will be transferred to the account. Post maturity, will net off the account's debt against vault cash balances and redeem all remaining strategy tokens back to the borrowed currency and transfer the profits to the account.",
        "params": {
          "account": "the address that will exit the vault",
          "exitVaultData": "passed to the vault during exit",
          "fCashToLend": "amount of fCash to lend",
          "minLendRate": "the minimum rate to lend at",
          "receiver": "the address that will receive profits",
          "vault": "the vault to enter",
          "vaultSharesToRedeem": "amount of vault tokens to exit, only relevant when exiting pre-maturity"
        },
        "returns": {
          "underlyingToReceiver": "amount of underlying tokens returned to the receiver on exit"
        }
      },
      "getVaultAccount(address,address)": {
        "notice": "View Methods *"
      },
      "rollVaultPosition(address,address,uint256,uint256,uint256,uint32,uint32,bytes)": {
        "notice": "Re-enters the vault at a longer dated maturity. The account's existing borrow position will be closed and a new borrow position at the specified maturity will be opened. Strategy token holdings will transfer to the longer dated maturity.",
        "params": {
          "account": "the address that will reenter the vault",
          "depositAmountExternal": "amount to deposit into the new maturity",
          "fCashToBorrow": "amount of fCash to borrow in the next maturity",
          "maturity": "new maturity to borrow at",
          "maxBorrowRate": "slippage protection for new borrow position",
          "minLendRate": "slippage protection for repaying debts",
          "vault": "the vault to reenter"
        },
        "returns": {
          "strategyTokensAdded": "the total strategy tokens added to the maturity, including any tokens rolled from the previous maturity.. Allows rollVaultPosition to be used by off-chain methods to get an accurate simulation of the strategy tokens minted."
        }
      }
    },
    "version": 1
  },
  "opcodes": "PUSH1 0x80 PUSH1 0x40 MSTORE PUSH1 0x4 CALLDATASIZE LT PUSH2 0x9C JUMPI PUSH1 0x0 CALLDATALOAD PUSH1 0xE0 SHR DUP1 PUSH4 0x82463367 GT PUSH2 0x64 JUMPI DUP1 PUSH4 0x82463367 EQ PUSH2 0x15E JUMPI DUP1 PUSH4 0x8DA5CB5B EQ PUSH2 0x173 JUMPI DUP1 PUSH4 0x95C1A202 EQ PUSH2 0x188 JUMPI DUP1 PUSH4 0x9948315E EQ PUSH2 0x19B JUMPI DUP1 PUSH4 0xC025D1A5 EQ PUSH2 0x1BB JUMPI DUP1 PUSH4 0xC4C96DAE EQ PUSH2 0x1E8 JUMPI PUSH2 0x9C JUMP JUMPDEST DUP1 PUSH4 0x24A3D622 EQ PUSH2 0xA1 JUMPI DUP1 PUSH4 0x647CC196 EQ PUSH2 0xCC JUMPI DUP1 PUSH4 0x653B6104 EQ PUSH2 0xFC JUMPI DUP1 PUSH4 0x6CE48F01 EQ PUSH2 0x11C JUMPI DUP1 PUSH4 0x803C25FB EQ PUSH2 0x12F JUMPI JUMPDEST PUSH1 0x0 DUP1 REVERT JUMPDEST CALLVALUE DUP1 ISZERO PUSH2 0xAD JUMPI PUSH1 0x0 DUP1 REVERT JUMPDEST POP PUSH2 0xB6 PUSH2 0x1FD JUMP JUMPDEST PUSH1 0x40 MLOAD PUSH2 0xC3 SWAP2 SWAP1 PUSH2 0x52E4 JUMP JUMPDEST PUSH1 0x40 MLOAD DUP1 SWAP2 SUB SWAP1 RETURN JUMPDEST CALLVALUE DUP1 ISZERO PUSH2 0xD8 JUMPI PUSH1 0x0 DUP1 REVERT JUMPDEST POP PUSH2 0xEC PUSH2 0xE7 CALLDATASIZE PUSH1 0x4 PUSH2 0x4FEB JUMP JUMPDEST PUSH2 0x20C JUMP JUMPDEST PUSH1 0x40 MLOAD PUSH2 0xC3 SWAP5 SWAP4 SWAP3 SWAP2 SWAP1 PUSH2 0x53F7 JUMP JUMPDEST PUSH2 0x10F PUSH2 0x10A CALLDATASIZE PUSH1 0x4 PUSH2 0x51AF JUMP JUMPDEST PUSH2 0x2F2 JUMP JUMPDEST PUSH1 0x40 MLOAD PUSH2 0xC3 SWAP2 SWAP1 PUSH2 0x53E0 JUMP JUMPDEST PUSH2 0x10F PUSH2 0x12A CALLDATASIZE PUSH1 0x4 PUSH2 0x50A8 JUMP JUMPDEST PUSH2 0x4C9 JUMP JUMPDEST CALLVALUE DUP1 ISZERO PUSH2 0x13B JUMPI PUSH1 0x0 DUP1 REVERT JUMPDEST POP PUSH2 0x14F PUSH2 0x14A CALLDATASIZE PUSH1 0x4 PUSH2 0x4FEB JUMP JUMPDEST PUSH2 0x72B JUMP JUMPDEST PUSH1 0x40 MLOAD PUSH2 0xC3 SWAP4 SWAP3 SWAP2 SWAP1 PUSH2 0x5894 JUMP JUMPDEST CALLVALUE DUP1 ISZERO PUSH2 0x16A JUMPI PUSH1 0x0 DUP1 REVERT JUMPDEST POP PUSH2 0xB6 PUSH2 0x7DC JUMP JUMPDEST CALLVALUE DUP1 ISZERO PUSH2 0x17F JUMPI PUSH1 0x0 DUP1 REVERT JUMPDEST POP PUSH2 0xB6 PUSH2 0x7EB JUMP JUMPDEST PUSH2 0x10F PUSH2 0x196 CALLDATASIZE PUSH1 0x4 PUSH2 0x513F JUMP JUMPDEST PUSH2 0x802 JUMP JUMPDEST CALLVALUE DUP1 ISZERO PUSH2 0x1A7 JUMPI PUSH1 0x0 DUP1 REVERT JUMPDEST POP PUSH2 0x10F PUSH2 0x1B6 CALLDATASIZE PUSH1 0x4 PUSH2 0x5014 JUMP JUMPDEST PUSH2 0x989 JUMP JUMPDEST CALLVALUE DUP1 ISZERO PUSH2 0x1C7 JUMPI PUSH1 0x0 DUP1 REVERT JUMPDEST POP PUSH2 0x1DB PUSH2 0x1D6 CALLDATASIZE PUSH1 0x4 PUSH2 0x4FEB JUMP JUMPDEST PUSH2 0xC24 JUMP JUMPDEST PUSH1 0x40 MLOAD PUSH2 0xC3 SWAP2 SWAP1 PUSH2 0x5824 JUMP JUMPDEST CALLVALUE DUP1 ISZERO PUSH2 0x1F4 JUMPI PUSH1 0x0 DUP1 REVERT JUMPDEST POP PUSH2 0xB6 PUSH2 0xC3F JUMP JUMPDEST PUSH1 0x2 SLOAD PUSH1 0x1 PUSH1 0x1 PUSH1 0xA0 SHL SUB AND DUP2 JUMP JUMPDEST PUSH1 0x0 DUP1 PUSH1 0x0 DUP1 PUSH1 0x0 PUSH2 0x21D DUP7 PUSH2 0xC57 JUMP JUMPDEST SWAP1 POP PUSH1 0x0 PUSH2 0x22B DUP9 DUP9 PUSH2 0xC86 JUMP JUMPDEST SWAP1 POP PUSH1 0x0 PUSH2 0x23D DUP9 DUP4 PUSH1 0x20 ADD MLOAD PUSH2 0xD1B JUMP JUMPDEST SWAP1 POP DUP3 PUSH1 0xA0 ADD MLOAD SWAP6 POP DUP1 PUSH1 0x40 ADD MLOAD ISZERO PUSH2 0x25F JUMPI PUSH1 0x1 PUSH1 0x1 PUSH1 0xFF SHL SUB SWAP7 POP PUSH2 0x2E6 JUMP JUMPDEST PUSH1 0x40 DUP3 ADD MLOAD DUP3 MLOAD PUSH1 0x0 SWAP2 PUSH2 0x279 SWAP2 DUP7 SWAP2 DUP6 SWAP2 DUP15 SWAP2 SWAP1 PUSH2 0xDB6 JUMP JUMPDEST SWAP1 SWAP9 POP SWAP1 POP DUP7 DUP9 SLT DUP1 ISZERO PUSH2 0x28D JUMPI POP PUSH1 0x0 DUP2 SGT JUMPDEST ISZERO PUSH2 0x2E4 JUMPI PUSH2 0x29D DUP4 DUP6 DUP4 PUSH2 0xE3C JUMP JUMPDEST POP SWAP6 POP PUSH2 0x2E1 PUSH4 0x3B9ACA00 PUSH2 0x2DB PUSH2 0x2B4 DUP5 PUSH2 0xF4B JUMP JUMPDEST PUSH2 0x2DB DUP8 PUSH1 0x40 ADD MLOAD PUSH2 0x2D5 PUSH2 0x2CC DUP12 PUSH1 0xC0 ADD MLOAD PUSH2 0xF4B JUMP JUMPDEST PUSH2 0x2D5 DUP15 PUSH2 0xF4B JUMP JUMPDEST SWAP1 PUSH2 0xF62 JUMP JUMPDEST SWAP1 PUSH2 0xF89 JUMP JUMPDEST SWAP5 POP JUMPDEST POP JUMPDEST POP POP POP SWAP3 SWAP6 SWAP2 SWAP5 POP SWAP3 POP JUMP JUMPDEST PUSH1 0x0 PUSH1 0x2 PUSH1 0xA SLOAD EQ ISZERO PUSH2 0x320 JUMPI PUSH1 0x40 MLOAD PUSH3 0x461BCD PUSH1 0xE5 SHL DUP2 MSTORE PUSH1 0x4 ADD PUSH2 0x317 SWAP1 PUSH2 0x56BB JUMP JUMPDEST PUSH1 0x40 MLOAD DUP1 SWAP2 SUB SWAP1 REVERT JUMPDEST PUSH1 0x2 PUSH1 0xA SSTORE PUSH1 0x0 PUSH2 0x330 DUP11 PUSH2 0xFA8 JUMP JUMPDEST SWAP1 POP PUSH2 0x33E DUP2 DUP13 PUSH1 0x10 PUSH2 0xFCC JUMP JUMPDEST PUSH2 0x349 DUP2 PUSH1 0x80 PUSH2 0x1036 JUMP JUMPDEST ISZERO PUSH2 0x354 JUMPI PUSH1 0x1 PUSH1 0xA SSTORE JUMPDEST PUSH1 0x0 PUSH2 0x360 DUP13 DUP13 PUSH2 0xC86 JUMP JUMPDEST SWAP1 POP PUSH2 0x36D DUP3 PUSH1 0x1 PUSH2 0x1036 JUMP JUMPDEST DUP1 ISZERO PUSH2 0x37F JUMPI POP PUSH2 0x37F DUP3 PUSH1 0x2 PUSH2 0x1036 JUMP JUMPDEST DUP1 ISZERO PUSH2 0x38E JUMPI POP DUP1 PUSH1 0x20 ADD MLOAD TIMESTAMP LT JUMPDEST DUP1 ISZERO PUSH2 0x39D JUMPI POP DUP9 DUP2 PUSH1 0x20 ADD MLOAD LT JUMPDEST DUP1 ISZERO PUSH2 0x3A9 JUMPI POP PUSH1 0x0 DUP11 GT JUMPDEST PUSH2 0x3C5 JUMPI PUSH1 0x40 MLOAD PUSH3 0x461BCD PUSH1 0xE5 SHL DUP2 MSTORE PUSH1 0x4 ADD PUSH2 0x317 SWAP1 PUSH2 0x55FE JUMP JUMPDEST PUSH1 0x0 PUSH2 0x3D9 DUP4 PUSH1 0x0 ADD MLOAD DUP4 PUSH1 0x20 ADD MLOAD PUSH2 0xD1B JUMP JUMPDEST SWAP1 POP PUSH1 0x0 PUSH2 0x3F6 DUP4 DUP5 PUSH1 0x40 ADD MLOAD DUP5 PUSH2 0x104B SWAP1 SWAP3 SWAP2 SWAP1 PUSH4 0xFFFFFFFF AND JUMP JUMPDEST SWAP1 POP PUSH2 0x415 DUP5 DUP4 PUSH2 0x40A DUP7 PUSH1 0x0 ADD MLOAD PUSH2 0x10AA JUMP JUMPDEST DUP7 SWAP3 SWAP2 SWAP1 DUP14 TIMESTAMP PUSH2 0x10B8 JUMP JUMPDEST DUP3 MLOAD ISZERO PUSH2 0x434 JUMPI PUSH1 0x40 MLOAD PUSH3 0x461BCD PUSH1 0xE5 SHL DUP2 MSTORE PUSH1 0x4 ADD PUSH2 0x317 SWAP1 PUSH2 0x57D0 JUMP JUMPDEST DUP4 MLOAD PUSH2 0x441 SWAP1 DUP4 SWAP1 PUSH2 0x1146 JUMP JUMPDEST DUP10 ISZERO PUSH2 0x452 JUMPI PUSH2 0x452 DUP4 DUP6 DUP13 PUSH2 0x12BA JUMP JUMPDEST PUSH2 0x464 DUP4 DUP6 DUP14 DUP16 DUP13 DUP13 DUP13 DUP9 PUSH1 0x0 PUSH2 0x13A1 JUMP JUMPDEST SWAP5 POP DUP11 DUP15 PUSH1 0x1 PUSH1 0x1 PUSH1 0xA0 SHL SUB AND DUP15 PUSH1 0x1 PUSH1 0x1 PUSH1 0xA0 SHL SUB AND PUSH32 0x67C1D09E65227D62B788F4C3E6ACE545AC922034D69BD4AA45C53DEC290275BE DUP16 PUSH1 0x40 MLOAD PUSH2 0x4AA SWAP2 SWAP1 PUSH2 0x53E0 JUMP JUMPDEST PUSH1 0x40 MLOAD DUP1 SWAP2 SUB SWAP1 LOG4 POP POP PUSH1 0x1 PUSH1 0xA SSTORE POP SWAP1 SWAP11 SWAP10 POP POP POP POP POP POP POP POP POP POP JUMP JUMPDEST PUSH1 0x0 PUSH1 0x2 PUSH1 0xA SLOAD EQ ISZERO PUSH2 0x4EE JUMPI PUSH1 0x40 MLOAD PUSH3 0x461BCD PUSH1 0xE5 SHL DUP2 MSTORE PUSH1 0x4 ADD PUSH2 0x317 SWAP1 PUSH2 0x56BB JUMP JUMPDEST PUSH1 0x2 PUSH1 0xA SSTORE PUSH1 0x0 PUSH2 0x4FE DUP10 PUSH2 0xFA8 JUMP JUMPDEST SWAP1 POP PUSH2 0x50C DUP2 DUP12 PUSH1 0x8 PUSH2 0xFCC JUMP JUMPDEST PUSH2 0x517 DUP2 PUSH1 0x80 PUSH2 0x1036 JUMP JUMPDEST ISZERO PUSH2 0x522 JUMPI PUSH1 0x1 PUSH1 0xA SSTORE JUMPDEST PUSH1 0x0 PUSH2 0x52E DUP12 DUP12 PUSH2 0xC86 JUMP JUMPDEST SWAP1 POP NUMBER PUSH1 0x5 DUP3 PUSH1 0xA0 ADD MLOAD ADD GT ISZERO PUSH2 0x557 JUMPI PUSH1 0x40 MLOAD PUSH3 0x461BCD PUSH1 0xE5 SHL DUP2 MSTORE PUSH1 0x4 ADD PUSH2 0x317 SWAP1 PUSH2 0x570A JUMP JUMPDEST TIMESTAMP DUP2 PUSH1 0x20 ADD MLOAD GT PUSH2 0x603 JUMPI PUSH1 0x20 DUP2 ADD MLOAD PUSH1 0x0 PUSH2 0x574 DUP4 DUP6 TIMESTAMP PUSH2 0x1444 JUMP JUMPDEST SWAP1 POP PUSH1 0x0 DUP4 PUSH1 0x80 ADD MLOAD SGT ISZERO PUSH2 0x59F JUMPI PUSH2 0x596 DUP12 DUP6 PUSH1 0x40 ADD MLOAD DUP6 PUSH1 0x80 ADD MLOAD PUSH2 0x151A JUMP JUMPDEST POP PUSH1 0x0 PUSH1 0x80 DUP5 ADD MSTORE JUMPDEST PUSH2 0x5AE DUP5 DUP5 DUP14 DUP5 DUP7 DUP13 DUP13 PUSH2 0x15C3 JUMP JUMPDEST SWAP5 POP DUP2 DUP14 PUSH1 0x1 PUSH1 0x1 PUSH1 0xA0 SHL SUB AND DUP14 PUSH1 0x1 PUSH1 0x1 PUSH1 0xA0 SHL SUB AND PUSH32 0xCCD6B9AEC297A77187BFAABFE7F98AC1DD313C796A73695DFF89DE0885DBB293 DUP9 PUSH1 0x40 MLOAD PUSH2 0x5F4 SWAP2 SWAP1 PUSH2 0x53E0 JUMP JUMPDEST PUSH1 0x40 MLOAD DUP1 SWAP2 SUB SWAP1 LOG4 POP POP PUSH2 0x6F0 JUMP JUMPDEST PUSH1 0x0 PUSH2 0x617 DUP4 PUSH1 0x0 ADD MLOAD DUP4 PUSH1 0x20 ADD MLOAD PUSH2 0xD1B JUMP JUMPDEST SWAP1 POP PUSH2 0x632 DUP4 DUP3 PUSH2 0x627 DUP12 PUSH2 0x163A JUMP JUMPDEST DUP6 SWAP3 SWAP2 SWAP1 DUP12 TIMESTAMP PUSH2 0x10B8 JUMP JUMPDEST PUSH1 0x0 PUSH2 0x63F DUP3 DUP5 DUP13 PUSH2 0x104B JUMP JUMPDEST SWAP1 POP PUSH1 0x0 DUP4 PUSH1 0x80 ADD MLOAD SGT ISZERO PUSH2 0x66A JUMPI PUSH2 0x661 DUP12 DUP6 PUSH1 0x40 ADD MLOAD DUP6 PUSH1 0x80 ADD MLOAD PUSH2 0x151A JUMP JUMPDEST POP PUSH1 0x0 PUSH1 0x80 DUP5 ADD MSTORE JUMPDEST DUP2 MLOAD PUSH2 0x67F SWAP1 DUP6 SWAP1 DUP6 SWAP1 DUP15 SWAP1 DUP6 SWAP1 DUP13 DUP13 PUSH2 0x15C3 JUMP JUMPDEST SWAP5 POP PUSH2 0x68C DUP5 DUP4 DUP6 PUSH2 0x1650 JUMP JUMPDEST DUP4 MLOAD PUSH2 0x699 SWAP1 DUP4 SWAP1 PUSH2 0x1146 JUMP JUMPDEST DUP2 PUSH1 0x0 ADD MLOAD DUP14 PUSH1 0x1 PUSH1 0x1 PUSH1 0xA0 SHL SUB AND DUP14 PUSH1 0x1 PUSH1 0x1 PUSH1 0xA0 SHL SUB AND PUSH32 0xEA195C44D2295A1DF0DEFE8210ABB22B4A911B4379B9E30E764548EBEE65C420 DUP13 DUP15 DUP11 PUSH1 0x40 MLOAD PUSH2 0x6E5 SWAP4 SWAP3 SWAP2 SWAP1 PUSH2 0x58E3 JUMP JUMPDEST PUSH1 0x40 MLOAD DUP1 SWAP2 SUB SWAP1 LOG4 POP POP JUMPDEST DUP1 MLOAD ISZERO DUP1 ISZERO PUSH2 0x701 JUMPI POP PUSH1 0x40 DUP2 ADD MLOAD ISZERO JUMPDEST ISZERO PUSH2 0x70E JUMPI PUSH1 0x0 PUSH1 0x20 DUP3 ADD MSTORE JUMPDEST PUSH2 0x718 DUP2 DUP4 PUSH2 0x16C8 JUMP JUMPDEST POP POP PUSH1 0x1 PUSH1 0xA SSTORE SWAP9 SWAP8 POP POP POP POP POP POP POP POP JUMP JUMPDEST PUSH1 0x0 PUSH2 0x735 PUSH2 0x4DAA JUMP JUMPDEST PUSH1 0x0 DUP1 PUSH2 0x740 PUSH2 0x1885 JUMP JUMPDEST PUSH1 0x1 PUSH1 0x1 PUSH1 0xA0 SHL SUB DUP8 DUP2 AND PUSH1 0x0 SWAP1 DUP2 MSTORE PUSH1 0x20 SWAP3 DUP4 MSTORE PUSH1 0x40 DUP1 DUP3 KECCAK256 SWAP3 DUP10 AND DUP3 MSTORE SWAP2 DUP4 MSTORE SWAP1 DUP2 KECCAK256 DUP1 SLOAD PUSH1 0x1 PUSH1 0x1 PUSH1 0x50 SHL SUB PUSH1 0x1 PUSH1 0x28 SHL DUP3 DIV DUP2 AND DUP9 MSTORE PUSH1 0x1 PUSH1 0x78 SHL DUP3 DIV AND SWAP4 DUP8 ADD SWAP4 SWAP1 SWAP4 MSTORE PUSH5 0xFFFFFFFFFF SWAP1 SWAP3 AND SWAP6 POP SWAP1 SWAP2 POP PUSH2 0x7A1 DUP8 DUP8 PUSH2 0xC86 JUMP JUMPDEST SWAP1 POP PUSH1 0x0 PUSH2 0x7B3 DUP8 DUP4 PUSH1 0x20 ADD MLOAD PUSH2 0xD1B JUMP JUMPDEST SWAP1 POP PUSH2 0x7CC DUP3 PUSH1 0x40 ADD MLOAD DUP3 PUSH2 0x1892 SWAP1 SWAP2 SWAP1 PUSH4 0xFFFFFFFF AND JUMP JUMPDEST SWAP1 POP DUP1 SWAP5 POP POP POP POP POP SWAP3 POP SWAP3 POP SWAP3 JUMP JUMPDEST PUSH1 0x1 SLOAD PUSH1 0x1 PUSH1 0x1 PUSH1 0xA0 SHL SUB AND DUP2 JUMP JUMPDEST PUSH1 0x0 SLOAD PUSH5 0x100000000 SWAP1 DIV PUSH1 0x1 PUSH1 0x1 PUSH1 0xA0 SHL SUB AND DUP2 JUMP JUMPDEST PUSH1 0x0 PUSH1 0x2 PUSH1 0xA SLOAD EQ ISZERO PUSH2 0x827 JUMPI PUSH1 0x40 MLOAD PUSH3 0x461BCD PUSH1 0xE5 SHL DUP2 MSTORE PUSH1 0x4 ADD PUSH2 0x317 SWAP1 PUSH2 0x56BB JUMP JUMPDEST PUSH1 0x2 PUSH1 0xA SSTORE PUSH2 0x835 DUP10 PUSH2 0x18EC JUMP JUMPDEST DUP8 PUSH1 0x1 PUSH1 0x1 PUSH1 0xA0 SHL SUB AND DUP10 PUSH1 0x1 PUSH1 0x1 PUSH1 0xA0 SHL SUB AND EQ ISZERO PUSH2 0x854 JUMPI PUSH1 0x0 DUP1 REVERT JUMPDEST PUSH1 0x0 PUSH2 0x85F DUP10 PUSH2 0xFA8 JUMP JUMPDEST SWAP1 POP PUSH2 0x86D DUP2 DUP12 PUSH1 0x4 PUSH2 0xFCC JUMP JUMPDEST PUSH2 0x878 DUP2 PUSH1 0x80 PUSH2 0x1036 JUMP JUMPDEST ISZERO PUSH2 0x883 JUMPI PUSH1 0x1 PUSH1 0xA SSTORE JUMPDEST PUSH2 0x88E DUP2 PUSH1 0x1 PUSH2 0x1036 JUMP JUMPDEST PUSH2 0x8AA JUMPI PUSH1 0x40 MLOAD PUSH3 0x461BCD PUSH1 0xE5 SHL DUP2 MSTORE PUSH1 0x4 ADD PUSH2 0x317 SWAP1 PUSH2 0x57AA JUMP JUMPDEST DUP7 TIMESTAMP LT PUSH2 0x8C9 JUMPI PUSH1 0x40 MLOAD PUSH3 0x461BCD PUSH1 0xE5 SHL DUP2 MSTORE PUSH1 0x4 ADD PUSH2 0x317 SWAP1 PUSH2 0x57AA JUMP JUMPDEST PUSH1 0x0 PUSH2 0x8D5 DUP12 DUP12 PUSH2 0xC86 JUMP JUMPDEST SWAP1 POP PUSH1 0x0 DUP2 PUSH1 0x20 ADD MLOAD PUSH1 0x0 EQ ISZERO DUP1 ISZERO PUSH2 0x8F2 JUMPI POP TIMESTAMP DUP3 PUSH1 0x20 ADD MLOAD GT ISZERO JUMPDEST ISZERO PUSH2 0x905 JUMPI PUSH2 0x902 DUP3 DUP5 TIMESTAMP PUSH2 0x1444 JUMP JUMPDEST SWAP1 POP JUMPDEST PUSH1 0x0 PUSH2 0x912 DUP5 DUP15 DUP14 PUSH2 0x193B JUMP JUMPDEST SWAP1 POP PUSH2 0x925 DUP4 DUP6 DUP13 DUP13 DUP13 DUP13 DUP13 DUP10 DUP10 PUSH2 0x13A1 JUMP JUMPDEST SWAP5 POP DUP10 DUP14 PUSH1 0x1 PUSH1 0x1 PUSH1 0xA0 SHL SUB AND DUP14 PUSH1 0x1 PUSH1 0x1 PUSH1 0xA0 SHL SUB AND PUSH32 0x7E1A5E400898C4BB3CFC62F61A71F4369EC78F0E778A31286892B7D2C0D044F2 DUP13 PUSH1 0x40 MLOAD PUSH2 0x96B SWAP2 SWAP1 PUSH2 0x53E0 JUMP JUMPDEST PUSH1 0x40 MLOAD DUP1 SWAP2 SUB SWAP1 LOG4 POP POP PUSH1 0x1 PUSH1 0xA SSTORE POP SWAP1 SWAP10 SWAP9 POP POP POP POP POP POP POP POP POP JUMP JUMPDEST PUSH1 0x0 PUSH1 0x2 PUSH1 0xA SLOAD EQ ISZERO PUSH2 0x9AE JUMPI PUSH1 0x40 MLOAD PUSH3 0x461BCD PUSH1 0xE5 SHL DUP2 MSTORE PUSH1 0x4 ADD PUSH2 0x317 SWAP1 PUSH2 0x56BB JUMP JUMPDEST PUSH1 0x2 PUSH1 0xA SSTORE PUSH2 0x9BC DUP7 PUSH2 0x18EC JUMP JUMPDEST DUP7 PUSH1 0x1 PUSH1 0x1 PUSH1 0xA0 SHL SUB AND DUP7 PUSH1 0x1 PUSH1 0x1 PUSH1 0xA0 SHL SUB AND EQ ISZERO PUSH2 0x9DB JUMPI PUSH1 0x0 DUP1 REVERT JUMPDEST PUSH1 0x0 PUSH2 0x9E8 DUP10 DUP10 DUP10 PUSH2 0x1A14 JUMP JUMPDEST SWAP1 POP PUSH1 0x0 PUSH2 0x9F6 DUP11 DUP11 PUSH2 0xC86 JUMP JUMPDEST SWAP1 POP PUSH1 0x0 PUSH2 0xA08 DUP11 DUP4 PUSH1 0x20 ADD MLOAD PUSH2 0xD1B JUMP JUMPDEST SWAP1 POP DUP2 PUSH1 0x20 ADD MLOAD TIMESTAMP LT PUSH2 0xA1A JUMPI PUSH1 0x0 DUP1 REVERT JUMPDEST PUSH1 0x0 DUP1 PUSH2 0xA3E DUP4 DUP15 DUP7 PUSH1 0x40 ADD MLOAD DUP8 PUSH1 0x0 ADD MLOAD DUP10 PUSH2 0xDB6 SWAP1 SWAP5 SWAP4 SWAP3 SWAP2 SWAP1 PUSH4 0xFFFFFFFF AND JUMP JUMPDEST SWAP2 POP SWAP2 POP DUP5 PUSH1 0xA0 ADD MLOAD DUP3 SLT PUSH2 0xA65 JUMPI PUSH1 0x40 MLOAD PUSH3 0x461BCD PUSH1 0xE5 SHL DUP2 MSTORE PUSH1 0x4 ADD PUSH2 0x317 SWAP1 PUSH2 0x57F5 JUMP JUMPDEST PUSH1 0x0 PUSH2 0xA78 DUP7 PUSH1 0x40 ADD MLOAD PUSH2 0xFFFF AND PUSH2 0x1AFF JUMP JUMPDEST SWAP1 POP PUSH2 0xA88 DUP13 DUP3 DUP8 DUP10 DUP16 DUP8 PUSH2 0x1B12 JUMP JUMPDEST PUSH1 0x0 PUSH2 0xAC3 PUSH4 0x3B9ACA00 PUSH2 0x2DB PUSH2 0xA9E DUP7 PUSH2 0xF4B JUMP JUMPDEST PUSH2 0x2DB DUP11 PUSH1 0x40 ADD MLOAD PUSH2 0x2D5 PUSH2 0xAB6 DUP15 PUSH1 0xC0 ADD MLOAD PUSH2 0xF4B JUMP JUMPDEST PUSH2 0x2D5 DUP15 PUSH1 0x80 ADD MLOAD PUSH2 0xF4B JUMP JUMPDEST PUSH1 0x40 DUP8 ADD MLOAD SWAP1 SWAP2 POP PUSH2 0xAD5 SWAP1 DUP3 PUSH2 0x1BFB JUMP JUMPDEST PUSH1 0x40 DUP8 ADD MSTORE PUSH1 0x80 DUP7 ADD MLOAD PUSH2 0x160 DUP9 ADD MLOAD PUSH1 0x0 SWAP2 PUSH2 0xAF2 SWAP2 SWAP1 PUSH2 0x1C10 JUMP JUMPDEST SWAP1 POP PUSH2 0xB11 DUP9 DUP8 DUP4 PUSH2 0xB07 DUP12 PUSH1 0x80 ADD MLOAD PUSH2 0x10AA JUMP JUMPDEST DUP12 SWAP4 SWAP3 SWAP2 SWAP1 PUSH2 0x1C43 JUMP JUMPDEST DUP7 MLOAD PUSH1 0x9 NOT SLT ISZERO PUSH2 0xB21 JUMPI PUSH1 0x0 DUP8 MSTORE JUMPDEST DUP16 PUSH1 0x1 PUSH1 0x1 PUSH1 0xA0 SHL SUB AND DUP16 PUSH1 0x1 PUSH1 0x1 PUSH1 0xA0 SHL SUB AND PUSH32 0x5B4676A4ED91C52FD6C4A759AEC8A3561B67499C52870FC58000A8EB54FEC301 DUP5 DUP5 PUSH1 0x40 MLOAD PUSH2 0xB66 SWAP3 SWAP2 SWAP1 PUSH2 0x53E9 JUMP JUMPDEST PUSH1 0x40 MLOAD DUP1 SWAP2 SUB SWAP1 LOG3 POP PUSH2 0xB79 DUP7 DUP9 PUSH2 0x16C8 JUMP JUMPDEST DUP13 PUSH1 0x1 PUSH1 0x1 PUSH1 0xA0 SHL SUB AND DUP16 PUSH1 0x1 PUSH1 0x1 PUSH1 0xA0 SHL SUB AND DUP16 PUSH1 0x1 PUSH1 0x1 PUSH1 0xA0 SHL SUB AND PUSH32 0x1745A2FE0D7C484EA79432A82F950EAC6916ADC499A0223D2EBDADCDB210F2A DUP5 DUP16 PUSH1 0x40 MLOAD PUSH2 0xBC8 SWAP3 SWAP2 SWAP1 PUSH2 0x58D3 JUMP JUMPDEST PUSH1 0x40 MLOAD DUP1 SWAP2 SUB SWAP1 LOG4 DUP11 ISZERO PUSH2 0xBFA JUMPI DUP7 MLOAD PUSH2 0xBE3 SWAP1 DUP7 SWAP1 PUSH2 0x1146 JUMP JUMPDEST PUSH2 0xBF3 DUP14 DUP9 DUP4 DUP10 PUSH1 0x20 ADD MLOAD PUSH2 0x1CB1 JUMP JUMPDEST SWAP8 POP PUSH2 0xC0C JUMP JUMPDEST PUSH2 0xC09 DUP14 DUP9 DUP8 DUP5 DUP15 DUP15 DUP9 PUSH2 0x1D25 JUMP JUMPDEST SWAP8 POP JUMPDEST POP POP PUSH1 0x1 PUSH1 0xA SSTORE POP SWAP4 SWAP12 SWAP11 POP POP POP POP POP POP POP POP POP POP POP JUMP JUMPDEST PUSH2 0xC2C PUSH2 0x4DC8 JUMP JUMPDEST PUSH2 0xC36 DUP4 DUP4 PUSH2 0xC86 JUMP JUMPDEST SWAP1 POP JUMPDEST SWAP3 SWAP2 POP POP JUMP JUMPDEST PUSH20 0x0 SWAP1 JUMP JUMPDEST PUSH2 0xC5F PUSH2 0x4E07 JUMP JUMPDEST PUSH2 0xC68 DUP3 PUSH2 0x1DB3 JUMP JUMPDEST SWAP1 POP PUSH2 0xC7B DUP2 PUSH1 0x40 ADD MLOAD PUSH2 0xFFFF AND PUSH2 0x1F4D JUMP JUMPDEST PUSH2 0x160 DUP3 ADD MSTORE SWAP2 SWAP1 POP JUMP JUMPDEST PUSH2 0xC8E PUSH2 0x4DC8 JUMP JUMPDEST PUSH1 0x0 PUSH2 0xC98 PUSH2 0x1F99 JUMP JUMPDEST PUSH1 0x1 PUSH1 0x1 PUSH1 0xA0 SHL SUB SWAP5 DUP6 AND PUSH1 0x0 DUP2 DUP2 MSTORE PUSH1 0x20 SWAP3 DUP4 MSTORE PUSH1 0x40 DUP1 DUP3 KECCAK256 SWAP7 SWAP1 SWAP8 AND DUP2 MSTORE SWAP5 DUP3 MSTORE DUP6 DUP6 KECCAK256 SLOAD PUSH1 0x1 PUSH1 0x1 PUSH1 0x50 SHL SUB DUP1 DUP3 AND DUP8 SUB DUP7 MSTORE PUSH1 0x1 PUSH1 0xA0 SHL DUP3 DIV PUSH5 0xFFFFFFFFFF AND SWAP4 DUP7 ADD SWAP4 SWAP1 SWAP4 MSTORE PUSH1 0x1 PUSH1 0x50 SHL DUP2 DIV SWAP1 SWAP3 AND SWAP6 DUP5 ADD SWAP6 SWAP1 SWAP6 MSTORE PUSH1 0x60 DUP4 ADD SWAP5 SWAP1 SWAP5 MSTORE POP PUSH1 0x80 DUP2 ADD SWAP2 SWAP1 SWAP2 MSTORE PUSH1 0x1 PUSH1 0xC8 SHL SWAP1 SWAP2 DIV PUSH4 0xFFFFFFFF AND PUSH1 0xA0 DUP3 ADD MSTORE SWAP1 JUMP JUMPDEST PUSH2 0xD23 PUSH2 0x4E8C JUMP JUMPDEST PUSH1 0x0 PUSH2 0xD2D PUSH2 0x1FA6 JUMP JUMPDEST PUSH1 0x1 PUSH1 0x1 PUSH1 0xA0 SHL SUB SWAP1 SWAP5 AND PUSH1 0x0 SWAP1 DUP2 MSTORE PUSH1 0x20 SWAP5 DUP6 MSTORE PUSH1 0x40 DUP1 DUP3 KECCAK256 DUP6 DUP4 MSTORE DUP7 MSTORE DUP1 DUP3 KECCAK256 SWAP5 DUP5 MSTORE DUP5 SLOAD PUSH1 0x1 PUSH1 0x1 PUSH1 0x50 SHL SUB DUP1 DUP3 AND SWAP1 SWAP4 SUB SWAP7 DUP6 ADD SWAP7 SWAP1 SWAP7 MSTORE PUSH1 0xFF PUSH1 0x1 PUSH1 0xF0 SHL DUP8 DIV AND ISZERO ISZERO SWAP1 DUP5 ADD MSTORE PUSH1 0x1 PUSH1 0x50 SHL DUP1 DUP7 DIV DUP3 AND PUSH1 0x80 DUP6 ADD MSTORE PUSH1 0x1 SWAP1 SWAP5 ADD SLOAD DUP1 DUP3 AND PUSH1 0xA0 DUP6 ADD MSTORE PUSH1 0x1 PUSH1 0xA0 SHL SWAP1 SWAP6 DIV AND PUSH1 0x60 DUP4 ADD MSTORE POP SWAP2 DIV PUSH1 0x9 SWAP1 DUP2 SIGNEXTEND SWAP1 SIGNEXTEND PUSH1 0xC0 DUP3 ADD MSTORE SWAP1 JUMP JUMPDEST PUSH1 0x0 DUP1 PUSH2 0xDC5 DUP7 DUP9 DUP8 DUP8 PUSH2 0x1FB3 JUMP JUMPDEST SWAP1 POP PUSH1 0x0 PUSH2 0xDD8 DUP9 DUP8 DUP10 PUSH1 0x0 ADD MLOAD PUSH2 0x2018 JUMP JUMPDEST SWAP1 POP PUSH1 0x0 PUSH2 0xDFE PUSH2 0xDF2 DUP4 PUSH2 0xDEC DUP9 PUSH2 0x10AA JUMP JUMPDEST SWAP1 PUSH2 0x20FF JUMP JUMPDEST PUSH2 0x160 DUP12 ADD MLOAD SWAP1 PUSH2 0x2115 JUMP JUMPDEST SWAP1 POP PUSH1 0x0 PUSH2 0xE0C DUP5 DUP4 PUSH2 0x2140 JUMP JUMPDEST SWAP1 POP DUP2 PUSH2 0xE22 JUMPI PUSH1 0x1 PUSH1 0x1 PUSH1 0xFF SHL SUB SWAP5 POP PUSH2 0xE2F JUMP JUMPDEST PUSH2 0xE2C DUP2 DUP4 PUSH2 0x2156 JUMP JUMPDEST SWAP5 POP JUMPDEST POP POP POP SWAP6 POP SWAP6 SWAP4 POP POP POP POP JUMP JUMPDEST PUSH1 0x0 DUP1 PUSH1 0x0 PUSH2 0xE5D PUSH4 0x3B9ACA00 DUP7 PUSH2 0x120 ADD MLOAD PUSH2 0x20FF SWAP1 SWAP2 SWAP1 PUSH4 0xFFFFFFFF AND JUMP JUMPDEST SWAP1 POP PUSH1 0x0 PUSH2 0xE7D PUSH2 0xE71 DUP9 PUSH1 0x0 ADD MLOAD PUSH2 0x10AA JUMP JUMPDEST PUSH2 0x160 DUP9 ADD MLOAD SWAP1 PUSH2 0x2115 JUMP JUMPDEST SWAP1 POP PUSH2 0xEB3 PUSH2 0xE99 DUP8 PUSH1 0xC0 ADD MLOAD DUP5 PUSH2 0x2140 SWAP1 SWAP2 SWAP1 PUSH4 0xFFFFFFFF AND JUMP JUMPDEST PUSH2 0xEAD DUP8 PUSH2 0xEA7 DUP6 DUP8 PUSH2 0x216F JUMP JUMPDEST SWAP1 PUSH2 0x2140 JUMP JUMPDEST SWAP1 PUSH2 0x2156 JUMP JUMPDEST SWAP4 POP PUSH1 0x0 PUSH2 0xEC1 DUP3 DUP7 PUSH2 0x2140 JUMP JUMPDEST SWAP1 POP PUSH1 0x0 PUSH2 0xEE1 DUP9 PUSH1 0x60 ADD MLOAD DUP10 PUSH2 0x160 ADD MLOAD PUSH2 0x2115 SWAP1 SWAP2 SWAP1 PUSH4 0xFFFFFFFF AND JUMP JUMPDEST SWAP1 POP PUSH2 0xEED DUP4 DUP3 PUSH2 0x2140 JUMP JUMPDEST SWAP5 POP DUP1 DUP3 SLT ISZERO PUSH2 0xEFB JUMPI DUP3 SWAP6 POP JUMPDEST PUSH1 0x0 PUSH2 0xF1E DUP9 PUSH2 0xF18 DUP12 PUSH1 0xC0 ADD MLOAD DUP11 PUSH2 0x2188 SWAP1 SWAP2 SWAP1 PUSH4 0xFFFFFFFF AND JUMP JUMPDEST SWAP1 PUSH2 0x21D6 JUMP JUMPDEST SWAP1 POP PUSH4 0x3B9ACA00 DUP2 SLT PUSH2 0xF3E JUMPI PUSH1 0xC0 DUP10 ADD MLOAD PUSH2 0xF3B SWAP1 DUP10 SWAP1 PUSH2 0x2156 JUMP JUMPDEST SWAP7 POP JUMPDEST POP POP POP POP POP SWAP4 POP SWAP4 SWAP2 POP POP JUMP JUMPDEST PUSH1 0x0 DUP1 DUP3 SLT ISZERO PUSH2 0xF5A JUMPI PUSH1 0x0 DUP1 REVERT JUMPDEST POP DUP1 JUMPDEST SWAP2 SWAP1 POP JUMP JUMPDEST PUSH1 0x0 DUP3 PUSH2 0xF71 JUMPI POP PUSH1 0x0 PUSH2 0xC39 JUMP JUMPDEST DUP3 DUP3 MUL DUP3 DUP5 DUP3 DUP2 PUSH2 0xF7E JUMPI INVALID JUMPDEST DIV EQ PUSH2 0xC36 JUMPI PUSH1 0x0 DUP1 REVERT JUMPDEST PUSH1 0x0 DUP1 DUP3 GT PUSH2 0xF97 JUMPI PUSH1 0x0 DUP1 REVERT JUMPDEST DUP2 DUP4 DUP2 PUSH2 0xFA0 JUMPI INVALID JUMPDEST DIV SWAP4 SWAP3 POP POP POP JUMP JUMPDEST PUSH2 0xFB0 PUSH2 0x4E07 JUMP JUMPDEST PUSH2 0xFB9 DUP3 PUSH2 0x1DB3 JUMP JUMPDEST SWAP1 POP PUSH2 0xC7B DUP2 PUSH1 0x40 ADD MLOAD PUSH2 0xFFFF AND PUSH2 0x2207 JUMP JUMPDEST PUSH2 0xFD6 DUP4 DUP3 PUSH2 0x1036 JUMP JUMPDEST ISZERO PUSH2 0x1009 JUMPI DUP3 MLOAD PUSH1 0x1 PUSH1 0x1 PUSH1 0xA0 SHL SUB AND CALLER EQ PUSH2 0x1004 JUMPI PUSH1 0x40 MLOAD PUSH3 0x461BCD PUSH1 0xE5 SHL DUP2 MSTORE PUSH1 0x4 ADD PUSH2 0x317 SWAP1 PUSH2 0x5412 JUMP JUMPDEST PUSH2 0x1031 JUMP JUMPDEST PUSH1 0x1 PUSH1 0x1 PUSH1 0xA0 SHL SUB DUP3 AND CALLER EQ PUSH2 0x1031 JUMPI PUSH1 0x40 MLOAD PUSH3 0x461BCD PUSH1 0xE5 SHL DUP2 MSTORE PUSH1 0x4 ADD PUSH2 0x317 SWAP1 PUSH2 0x5412 JUMP JUMPDEST POP POP POP JUMP JUMPDEST PUSH1 0x20 SWAP2 SWAP1 SWAP2 ADD MLOAD DUP2 AND PUSH2 0xFFFF SWAP1 DUP2 AND SWAP2 AND EQ SWAP1 JUMP JUMPDEST DUP3 MLOAD PUSH1 0x20 DUP4 ADD MLOAD PUSH1 0x0 SWAP2 EQ PUSH2 0x105F JUMPI PUSH1 0x0 DUP1 REVERT JUMPDEST PUSH1 0x40 DUP4 ADD MLOAD PUSH2 0x106E SWAP1 DUP4 PUSH2 0x1BFB JUMP JUMPDEST PUSH1 0x40 DUP5 ADD MSTORE PUSH1 0x0 PUSH2 0x107F DUP6 DUP5 PUSH2 0x221D JUMP JUMPDEST SWAP3 POP SWAP1 POP PUSH2 0x109A PUSH2 0x108F DUP3 PUSH2 0x163A JUMP JUMPDEST PUSH1 0x80 DUP7 ADD MLOAD SWAP1 PUSH2 0x20FF JUMP JUMPDEST PUSH1 0x80 SWAP1 SWAP5 ADD SWAP4 SWAP1 SWAP4 MSTORE SWAP4 SWAP3 POP POP POP JUMP JUMPDEST PUSH1 0x0 PUSH2 0xC39 PUSH1 0x0 NOT DUP4 PUSH2 0x2188 JUMP JUMPDEST DUP6 MLOAD PUSH1 0x0 SWAP1 PUSH2 0x10C7 SWAP1 DUP6 PUSH2 0x20FF JUMP JUMPDEST SGT ISZERO PUSH2 0x10D2 JUMPI PUSH1 0x0 DUP1 REVERT JUMPDEST DUP6 PUSH1 0x20 ADD MLOAD DUP2 LT PUSH2 0x10E2 JUMPI PUSH1 0x0 DUP1 REVERT JUMPDEST PUSH1 0x0 PUSH2 0x10FF DUP7 PUSH1 0x40 ADD MLOAD DUP9 PUSH1 0x20 ADD MLOAD DUP7 DUP7 DUP11 PUSH2 0x100 ADD MLOAD DUP8 PUSH2 0x2274 JUMP JUMPDEST SWAP1 POP DUP1 PUSH2 0x1122 JUMPI PUSH2 0x160 DUP7 ADD MLOAD PUSH2 0x111F SWAP1 PUSH2 0x111A SWAP1 DUP7 PUSH2 0x2115 JUMP JUMPDEST PUSH2 0x10AA JUMP JUMPDEST SWAP1 POP JUMPDEST PUSH1 0x0 DUP2 SGT ISZERO PUSH2 0x1130 JUMPI PUSH1 0x0 DUP1 REVERT JUMPDEST PUSH2 0x113D DUP8 DUP8 DUP8 DUP8 DUP6 PUSH2 0x1C43 JUMP JUMPDEST POP POP POP POP POP POP POP JUMP JUMPDEST PUSH1 0x0 PUSH2 0x1150 PUSH2 0x1FA6 JUMP JUMPDEST PUSH1 0x1 PUSH1 0x1 PUSH1 0xA0 SHL SUB DUP4 AND PUSH1 0x0 SWAP1 DUP2 MSTORE PUSH1 0x20 DUP3 DUP2 MSTORE PUSH1 0x40 DUP1 DUP4 KECCAK256 DUP8 MLOAD DUP5 MSTORE SWAP1 SWAP2 MSTORE SWAP1 DUP2 SWAP1 KECCAK256 SWAP1 DUP6 ADD MLOAD SWAP2 SWAP3 POP SWAP1 ISZERO PUSH2 0x1186 JUMPI PUSH1 0x0 DUP1 REVERT JUMPDEST PUSH2 0x11A3 PUSH2 0x119E PUSH2 0x1199 DUP7 PUSH1 0x20 ADD MLOAD PUSH2 0x10AA JUMP JUMPDEST PUSH2 0xF4B JUMP JUMPDEST PUSH2 0x2383 JUMP JUMPDEST DUP2 SLOAD PUSH1 0x1 PUSH1 0x1 PUSH1 0x50 SHL SUB NOT AND PUSH1 0x1 PUSH1 0x1 PUSH1 0x50 SHL SUB SWAP2 SWAP1 SWAP2 AND OR DUP2 SSTORE PUSH1 0x80 DUP5 ADD MLOAD PUSH2 0x11CC SWAP1 PUSH2 0x2383 JUMP JUMPDEST DUP2 SLOAD PUSH1 0x1 PUSH1 0x1 PUSH1 0x50 SHL SUB SWAP2 SWAP1 SWAP2 AND PUSH1 0x1 PUSH1 0x50 SHL MUL PUSH1 0x1 PUSH1 0x50 SHL PUSH1 0x1 PUSH1 0xA0 SHL SUB NOT SWAP1 SWAP2 AND OR DUP2 SSTORE PUSH1 0xA0 DUP5 ADD MLOAD PUSH2 0x1200 SWAP1 PUSH2 0x2383 JUMP JUMPDEST PUSH1 0x1 DUP3 ADD DUP1 SLOAD PUSH1 0x1 PUSH1 0x1 PUSH1 0x50 SHL SUB NOT AND PUSH1 0x1 PUSH1 0x1 PUSH1 0x50 SHL SUB SWAP3 SWAP1 SWAP3 AND SWAP2 SWAP1 SWAP2 OR SWAP1 SSTORE PUSH1 0x60 DUP5 ADD MLOAD PUSH2 0x1230 SWAP1 PUSH2 0x2383 JUMP JUMPDEST DUP2 SLOAD PUSH1 0x1 PUSH1 0x1 PUSH1 0x50 SHL SUB SWAP2 SWAP1 SWAP2 AND PUSH1 0x1 PUSH1 0xA0 SHL MUL PUSH10 0xFFFFFFFFFFFFFFFFFFFF PUSH1 0xA0 SHL NOT SWAP1 SWAP2 AND OR DUP2 SSTORE DUP4 MLOAD PUSH1 0x20 DUP6 ADD MLOAD PUSH1 0x80 DUP7 ADD MLOAD PUSH1 0xA0 DUP8 ADD MLOAD PUSH1 0x60 DUP9 ADD MLOAD PUSH1 0x40 MLOAD PUSH1 0x1 PUSH1 0x1 PUSH1 0xA0 SHL SUB DUP10 AND SWAP5 PUSH32 0x3A0FDAECF7B5DA75A56077F5B1C8FBC88F9B08E9D0C4DB31EB34E25BC6700CDE SWAP5 PUSH2 0x12AC SWAP5 SWAP2 SWAP4 SWAP1 SWAP3 PUSH2 0x53F7 JUMP JUMPDEST PUSH1 0x40 MLOAD DUP1 SWAP2 SUB SWAP1 LOG3 POP POP POP POP JUMP JUMPDEST PUSH1 0x0 DUP1 PUSH2 0x12C6 DUP5 PUSH2 0x2399 JUMP JUMPDEST SWAP1 SWAP3 POP SWAP1 POP PUSH1 0x0 PUSH1 0x3 DUP3 PUSH1 0x60 ADD MLOAD PUSH1 0x5 DUP2 GT ISZERO PUSH2 0x12DF JUMPI INVALID JUMPDEST EQ ISZERO PUSH2 0x130B JUMPI CALLVALUE DUP5 EQ PUSH2 0x1304 JUMPI PUSH1 0x40 MLOAD PUSH3 0x461BCD PUSH1 0xE5 SHL DUP2 MSTORE PUSH1 0x4 ADD PUSH2 0x317 SWAP1 PUSH2 0x5758 JUMP JUMPDEST POP CALLVALUE PUSH2 0x1334 JUMP JUMPDEST PUSH2 0x1331 PUSH2 0x1199 DUP8 PUSH1 0x60 ADD MLOAD DUP8 PUSH1 0x40 ADD MLOAD PUSH2 0xFFFF AND PUSH2 0x1328 DUP9 PUSH2 0x163A JUMP JUMPDEST DUP7 SWAP3 SWAP2 SWAP1 PUSH2 0x23F2 JUMP JUMPDEST SWAP1 POP JUMPDEST PUSH1 0x0 PUSH1 0x4 DUP5 PUSH1 0x60 ADD MLOAD PUSH1 0x5 DUP2 GT ISZERO PUSH2 0x1348 JUMPI INVALID JUMPDEST EQ ISZERO PUSH2 0x135E JUMPI PUSH2 0x1357 DUP3 PUSH2 0x163A JUMP JUMPDEST SWAP1 POP PUSH2 0x1378 JUMP JUMPDEST DUP2 ISZERO PUSH2 0x1378 JUMPI PUSH1 0x40 DUP7 ADD MLOAD PUSH2 0x1375 SWAP1 DUP6 SWAP1 DUP5 PUSH2 0x249A JUMP JUMPDEST SWAP1 POP JUMPDEST PUSH2 0x1390 PUSH2 0x1385 DUP6 DUP4 PUSH2 0x2591 JUMP JUMPDEST PUSH1 0x80 DUP10 ADD MLOAD SWAP1 PUSH2 0x20FF JUMP JUMPDEST PUSH1 0x80 SWAP1 SWAP8 ADD SWAP7 SWAP1 SWAP7 MSTORE POP POP POP POP POP POP JUMP JUMPDEST PUSH1 0x0 DUP8 DUP11 PUSH1 0x20 ADD MLOAD EQ DUP1 PUSH2 0x13B4 JUMPI POP DUP10 MLOAD ISZERO JUMPDEST PUSH2 0x13BD JUMPI PUSH1 0x0 DUP1 REVERT JUMPDEST PUSH1 0x0 PUSH2 0x13CD DUP11 PUSH1 0x0 ADD MLOAD DUP11 PUSH2 0xD1B JUMP JUMPDEST SWAP1 POP DUP8 ISZERO PUSH2 0x13F3 JUMPI PUSH2 0x13EE DUP12 DUP12 DUP4 DUP13 PUSH2 0x13E8 PUSH2 0x111A DUP15 PUSH2 0x163A JUMP JUMPDEST DUP13 PUSH2 0x25C1 JUMP JUMPDEST PUSH2 0x140A JUMP JUMPDEST PUSH2 0x1408 DUP11 PUSH1 0x40 ADD MLOAD DUP11 DUP13 PUSH2 0x100 ADD MLOAD TIMESTAMP PUSH2 0x2651 JUMP JUMPDEST POP JUMPDEST PUSH2 0x1419 DUP2 DUP13 DUP13 DUP8 DUP8 DUP12 DUP12 PUSH2 0x26C0 JUMP JUMPDEST NUMBER PUSH1 0xA0 DUP14 ADD MSTORE SWAP2 POP PUSH2 0x142B DUP12 DUP12 PUSH2 0x16C8 JUMP JUMPDEST PUSH2 0x1436 DUP11 DUP3 DUP14 PUSH2 0x1650 JUMP JUMPDEST POP SWAP10 SWAP9 POP POP POP POP POP POP POP POP POP JUMP JUMPDEST PUSH1 0x0 DUP1 PUSH2 0x1459 DUP5 PUSH1 0x0 ADD MLOAD DUP7 PUSH1 0x20 ADD MLOAD PUSH2 0xD1B JUMP JUMPDEST SWAP1 POP DUP1 PUSH1 0x40 ADD MLOAD PUSH2 0x147C JUMPI PUSH1 0x40 MLOAD PUSH3 0x461BCD PUSH1 0xE5 SHL DUP2 MSTORE PUSH1 0x4 ADD PUSH2 0x317 SWAP1 PUSH2 0x55A9 JUMP JUMPDEST PUSH1 0x0 PUSH2 0x1495 DUP6 PUSH1 0x40 ADD MLOAD PUSH2 0xFFFF AND DUP8 PUSH1 0x20 ADD MLOAD DUP7 PUSH2 0x27E7 JUMP JUMPDEST SWAP1 POP PUSH1 0x0 PUSH2 0x14BC PUSH4 0x5F5E100 PUSH2 0xF18 DUP6 PUSH1 0xC0 ADD MLOAD PUSH2 0x14B6 DUP8 PUSH1 0xA0 ADD MLOAD PUSH2 0x163A JUMP JUMPDEST SWAP1 PUSH2 0x2188 JUMP JUMPDEST SWAP1 POP PUSH1 0x0 PUSH2 0x14CD DUP9 DUP6 DUP10 DUP7 DUP7 PUSH2 0x2955 JUMP JUMPDEST SWAP1 POP PUSH1 0x0 PUSH2 0x14DE DUP9 DUP7 DUP7 DUP6 DUP8 PUSH2 0x2AF6 JUMP JUMPDEST PUSH1 0x0 DUP12 MSTORE PUSH1 0x80 DUP12 ADD MLOAD SWAP1 SWAP8 POP SWAP1 SWAP2 POP PUSH2 0x14F7 SWAP1 DUP3 PUSH2 0x20FF JUMP JUMPDEST PUSH1 0x80 DUP11 ADD MSTORE POP POP PUSH1 0x0 PUSH1 0x40 DUP9 ADD DUP2 SWAP1 MSTORE PUSH1 0x20 SWAP1 SWAP8 ADD SWAP7 SWAP1 SWAP7 MSTORE POP SWAP1 SWAP5 SWAP4 POP POP POP POP JUMP JUMPDEST PUSH1 0x0 DUP2 PUSH2 0x1529 JUMPI POP PUSH1 0x0 PUSH2 0x15BC JUMP JUMPDEST PUSH1 0x0 DUP3 SGT PUSH2 0x1536 JUMPI PUSH1 0x0 DUP1 REVERT JUMPDEST PUSH1 0x0 PUSH2 0x1545 DUP5 PUSH2 0xFFFF AND PUSH2 0x1AFF JUMP JUMPDEST SWAP1 POP PUSH1 0x0 PUSH2 0x1553 DUP3 DUP6 PUSH2 0x2D2E JUMP JUMPDEST SWAP1 POP PUSH1 0x4 DUP3 PUSH1 0x60 ADD MLOAD PUSH1 0x5 DUP2 GT ISZERO PUSH2 0x1567 JUMPI INVALID JUMPDEST EQ ISZERO PUSH2 0x1595 JUMPI PUSH2 0x158E PUSH2 0x1199 PUSH2 0x111A DUP9 DUP9 PUSH2 0xFFFF AND PUSH2 0x1585 DUP7 PUSH2 0x10AA JUMP JUMPDEST DUP8 SWAP3 SWAP2 SWAP1 PUSH2 0x23F2 JUMP JUMPDEST SWAP3 POP PUSH2 0x15B9 JUMP JUMPDEST PUSH2 0x15B6 PUSH2 0x1199 PUSH2 0x111A DUP8 PUSH2 0xFFFF AND DUP10 PUSH2 0x15AD DUP7 PUSH2 0xF4B JUMP JUMPDEST DUP8 SWAP3 SWAP2 SWAP1 PUSH2 0x2D66 JUMP JUMPDEST SWAP3 POP JUMPDEST POP POP JUMPDEST SWAP4 SWAP3 POP POP POP JUMP JUMPDEST PUSH1 0x0 DUP1 DUP8 PUSH1 0x80 ADD MLOAD SGT ISZERO PUSH2 0x15D6 JUMPI PUSH1 0x0 DUP1 REVERT JUMPDEST PUSH2 0x1622 DUP9 PUSH1 0x40 MLOAD DUP1 PUSH1 0xA0 ADD PUSH1 0x40 MSTORE DUP1 DUP11 PUSH1 0x60 ADD MLOAD PUSH1 0x1 PUSH1 0x1 PUSH1 0xA0 SHL SUB AND DUP2 MSTORE PUSH1 0x20 ADD DUP10 PUSH1 0x1 PUSH1 0x1 PUSH1 0xA0 SHL SUB AND DUP2 MSTORE PUSH1 0x20 ADD DUP9 DUP2 MSTORE PUSH1 0x20 ADD DUP8 DUP2 MSTORE PUSH1 0x20 ADD DUP11 PUSH1 0x80 ADD MLOAD DUP2 MSTORE POP DUP6 DUP6 PUSH2 0x2E06 JUMP JUMPDEST PUSH1 0x0 PUSH1 0x80 SWAP1 SWAP10 ADD SWAP9 SWAP1 SWAP9 MSTORE POP SWAP6 SWAP8 SWAP7 POP POP POP POP POP POP POP JUMP JUMPDEST PUSH1 0x0 PUSH1 0x1 PUSH1 0x1 PUSH1 0xFF SHL SUB DUP3 GT ISZERO PUSH2 0xF5A JUMPI PUSH1 0x0 DUP1 REVERT JUMPDEST PUSH1 0x0 PUSH2 0x166B DUP5 DUP5 DUP5 PUSH1 0x60 ADD MLOAD DUP6 PUSH1 0x40 ADD MLOAD DUP7 PUSH1 0x0 ADD MLOAD PUSH2 0xDB6 JUMP JUMPDEST POP PUSH1 0x40 DUP4 ADD MLOAD SWAP1 SWAP2 POP ISZERO PUSH2 0x169E JUMPI DUP4 PUSH2 0x180 ADD MLOAD DUP2 SGT ISZERO PUSH2 0x169E JUMPI PUSH1 0x40 MLOAD PUSH3 0x461BCD PUSH1 0xE5 SHL DUP2 MSTORE PUSH1 0x4 ADD PUSH2 0x317 SWAP1 PUSH2 0x5555 JUMP JUMPDEST DUP1 DUP5 PUSH1 0xA0 ADD MLOAD SGT ISZERO PUSH2 0x16C2 JUMPI PUSH1 0x40 MLOAD PUSH3 0x461BCD PUSH1 0xE5 SHL DUP2 MSTORE PUSH1 0x4 ADD PUSH2 0x317 SWAP1 PUSH2 0x5627 JUMP JUMPDEST POP POP POP POP JUMP JUMPDEST PUSH1 0x0 PUSH2 0x16D2 PUSH2 0x1F99 JUMP JUMPDEST PUSH1 0x60 DUP5 ADD MLOAD PUSH1 0x1 PUSH1 0x1 PUSH1 0xA0 SHL SUB SWAP1 DUP2 AND PUSH1 0x0 SWAP1 DUP2 MSTORE PUSH1 0x20 DUP4 DUP2 MSTORE PUSH1 0x40 DUP1 DUP4 KECCAK256 DUP8 MLOAD SWAP1 SWAP5 AND DUP4 MSTORE SWAP3 SWAP1 MSTORE KECCAK256 PUSH1 0x80 DUP6 ADD MLOAD SWAP2 SWAP3 POP SWAP1 ISZERO PUSH2 0x170F JUMPI PUSH1 0x0 DUP1 REVERT JUMPDEST PUSH1 0x60 DUP4 ADD MLOAD DUP5 MLOAD PUSH2 0x171F SWAP1 PUSH2 0x10AA JUMP JUMPDEST SLT ISZERO PUSH2 0x1754 JUMPI DUP4 MLOAD ISZERO DUP1 PUSH2 0x1738 JUMPI POP PUSH1 0x1 DUP5 PUSH1 0x40 ADD MLOAD GT ISZERO JUMPDEST PUSH2 0x1754 JUMPI PUSH1 0x40 MLOAD PUSH3 0x461BCD PUSH1 0xE5 SHL DUP2 MSTORE PUSH1 0x4 ADD PUSH2 0x317 SWAP1 PUSH2 0x5734 JUMP JUMPDEST PUSH2 0x175D DUP4 PUSH2 0x307B JUMP JUMPDEST ISZERO PUSH2 0x17C0 JUMPI PUSH1 0x0 PUSH2 0x176C PUSH2 0x1885 JUMP JUMPDEST PUSH1 0x60 DUP7 ADD MLOAD PUSH1 0x1 PUSH1 0x1 PUSH1 0xA0 SHL SUB SWAP1 DUP2 AND PUSH1 0x0 SWAP1 DUP2 MSTORE PUSH1 0x20 SWAP3 DUP4 MSTORE PUSH1 0x40 DUP1 DUP3 KECCAK256 DUP9 MLOAD SWAP1 SWAP4 AND DUP3 MSTORE SWAP2 DUP4 MSTORE KECCAK256 DUP1 SLOAD SWAP2 DUP8 ADD MLOAD SWAP1 SWAP3 POP PUSH5 0xFFFFFFFFFF SWAP1 SWAP2 AND SWAP1 DUP2 EQ DUP1 PUSH2 0x17B4 JUMPI POP DUP1 ISZERO JUMPDEST PUSH2 0x17BD JUMPI PUSH1 0x0 DUP1 REVERT JUMPDEST POP POP JUMPDEST PUSH2 0x17D3 PUSH2 0x119E PUSH2 0x1199 DUP7 PUSH1 0x0 ADD MLOAD PUSH2 0x10AA JUMP JUMPDEST DUP2 SLOAD PUSH1 0x1 PUSH1 0x1 PUSH1 0x50 SHL SUB NOT AND PUSH1 0x1 PUSH1 0x1 PUSH1 0x50 SHL SUB SWAP2 SWAP1 SWAP2 AND OR DUP2 SSTORE PUSH1 0x40 DUP5 ADD MLOAD PUSH2 0x17FC SWAP1 PUSH2 0x2383 JUMP JUMPDEST DUP2 SLOAD PUSH1 0x1 PUSH1 0x1 PUSH1 0x50 SHL SUB SWAP2 SWAP1 SWAP2 AND PUSH1 0x1 PUSH1 0x50 SHL MUL PUSH1 0x1 PUSH1 0x50 SHL PUSH1 0x1 PUSH1 0xA0 SHL SUB NOT SWAP1 SWAP2 AND OR DUP2 SSTORE PUSH1 0x20 DUP5 ADD MLOAD PUSH2 0x1830 SWAP1 PUSH2 0x30A4 JUMP JUMPDEST DUP2 SLOAD PUSH5 0xFFFFFFFFFF SWAP2 SWAP1 SWAP2 AND PUSH1 0x1 PUSH1 0xA0 SHL MUL PUSH5 0xFFFFFFFFFF PUSH1 0xA0 SHL NOT SWAP1 SWAP2 AND OR DUP2 SSTORE PUSH1 0xA0 DUP5 ADD MLOAD PUSH2 0x1860 SWAP1 PUSH2 0x30B8 JUMP JUMPDEST DUP2 SLOAD PUSH4 0xFFFFFFFF SWAP2 SWAP1 SWAP2 AND PUSH1 0x1 PUSH1 0xC8 SHL MUL PUSH4 0xFFFFFFFF PUSH1 0xC8 SHL NOT SWAP1 SWAP2 AND OR SWAP1 SSTORE POP POP POP JUMP JUMPDEST PUSH1 0x0 DUP1 PUSH2 0xC39 PUSH1 0x1A PUSH2 0x30CB JUMP JUMPDEST PUSH1 0x0 DUP1 PUSH1 0x0 DUP5 PUSH1 0x60 ADD MLOAD GT ISZERO PUSH2 0x18E5 JUMPI PUSH2 0x18C1 DUP5 PUSH1 0x60 ADD MLOAD PUSH2 0x2DB DUP7 PUSH1 0x80 ADD MLOAD DUP7 PUSH2 0xF62 SWAP1 SWAP2 SWAP1 PUSH4 0xFFFFFFFF AND JUMP JUMPDEST SWAP2 POP PUSH2 0x18E2 DUP5 PUSH1 0x60 ADD MLOAD PUSH2 0x2DB DUP7 PUSH1 0xA0 ADD MLOAD DUP7 PUSH2 0xF62 SWAP1 SWAP2 SWAP1 PUSH4 0xFFFFFFFF AND JUMP JUMPDEST SWAP1 POP JUMPDEST SWAP3 POP SWAP3 SWAP1 POP JUMP JUMPDEST PUSH1 0x1 PUSH1 0x1 PUSH1 0xA0 SHL SUB DUP2 AND PUSH2 0x18FF JUMPI PUSH1 0x0 DUP1 REVERT JUMPDEST PUSH1 0x1 PUSH1 0x1 PUSH1 0xA0 SHL SUB DUP2 AND ADDRESS EQ ISZERO PUSH2 0x1915 JUMPI PUSH1 0x0 DUP1 REVERT JUMPDEST PUSH1 0x0 PUSH2 0x1920 DUP3 PUSH2 0x30E4 JUMP JUMPDEST POP POP POP POP PUSH2 0xFFFF AND SWAP1 POP DUP1 PUSH1 0x0 EQ PUSH2 0x1937 JUMPI PUSH1 0x0 DUP1 REVERT JUMPDEST POP POP JUMP JUMPDEST PUSH1 0x0 DUP2 PUSH2 0x194A JUMPI POP PUSH1 0x0 PUSH2 0x15BC JUMP JUMPDEST PUSH1 0x0 PUSH2 0x195D DUP6 PUSH1 0x40 ADD MLOAD PUSH2 0xFFFF AND PUSH2 0x1AFF JUMP JUMPDEST SWAP1 POP PUSH1 0x0 PUSH1 0x4 DUP3 PUSH1 0x60 ADD MLOAD PUSH1 0x5 DUP2 GT ISZERO PUSH2 0x1973 JUMPI INVALID JUMPDEST EQ PUSH2 0x198E JUMPI PUSH2 0x1989 DUP7 PUSH1 0x40 ADD MLOAD PUSH2 0xFFFF AND PUSH2 0x3150 JUMP JUMPDEST PUSH2 0x1990 JUMP JUMPDEST DUP2 JUMPDEST DUP7 MLOAD PUSH1 0x20 DUP3 ADD MLOAD SWAP2 SWAP3 POP SWAP1 ISZERO PUSH2 0x19A5 JUMPI PUSH1 0x0 DUP1 REVERT JUMPDEST PUSH1 0x3 DUP3 PUSH1 0x60 ADD MLOAD PUSH1 0x5 DUP2 GT ISZERO PUSH2 0x19B7 JUMPI INVALID JUMPDEST EQ ISZERO PUSH2 0x19F1 JUMPI DUP5 CALLVALUE EQ PUSH2 0x19DC JUMPI PUSH1 0x40 MLOAD PUSH3 0x461BCD PUSH1 0xE5 SHL DUP2 MSTORE PUSH1 0x4 ADD PUSH2 0x317 SWAP1 PUSH2 0x5758 JUMP JUMPDEST PUSH2 0x19E6 DUP2 CALLVALUE PUSH2 0x3163 JUMP JUMPDEST CALLVALUE SWAP4 POP POP POP POP PUSH2 0x15BC JUMP JUMPDEST DUP2 MLOAD PUSH2 0x19FF SWAP1 DUP8 DUP4 DUP9 PUSH2 0x3199 JUMP JUMPDEST DUP5 SWAP4 POP POP POP POP PUSH2 0x15BC JUMP JUMPDEST POP POP POP SWAP4 SWAP3 POP POP POP JUMP JUMPDEST PUSH2 0x1A1C PUSH2 0x4E07 JUMP JUMPDEST PUSH2 0x1A25 DUP4 PUSH2 0xFA8 JUMP JUMPDEST SWAP1 POP PUSH2 0x1A33 DUP2 PUSH2 0x100 PUSH2 0x1036 JUMP JUMPDEST ISZERO PUSH2 0x1A3D JUMPI PUSH1 0x0 DUP1 REVERT JUMPDEST PUSH2 0x1A48 DUP2 PUSH1 0x80 PUSH2 0x1036 JUMP JUMPDEST ISZERO PUSH2 0x1A53 JUMPI PUSH1 0x1 PUSH1 0xA SSTORE JUMPDEST PUSH2 0x1A5E DUP2 PUSH1 0x20 PUSH2 0x1036 JUMP JUMPDEST ISZERO PUSH2 0x1A90 JUMPI CALLER PUSH1 0x1 PUSH1 0x1 PUSH1 0xA0 SHL SUB DUP5 AND EQ PUSH2 0x1A8B JUMPI PUSH1 0x40 MLOAD PUSH3 0x461BCD PUSH1 0xE5 SHL DUP2 MSTORE PUSH1 0x4 ADD PUSH2 0x317 SWAP1 PUSH2 0x5412 JUMP JUMPDEST PUSH2 0x1AB8 JUMP JUMPDEST CALLER PUSH1 0x1 PUSH1 0x1 PUSH1 0xA0 SHL SUB DUP4 AND EQ PUSH2 0x1AB8 JUMPI PUSH1 0x40 MLOAD PUSH3 0x461BCD PUSH1 0xE5 SHL DUP2 MSTORE PUSH1 0x4 ADD PUSH2 0x317 SWAP1 PUSH2 0x5412 JUMP JUMPDEST PUSH1 0x1 PUSH1 0x1 PUSH1 0xA0 SHL SUB DUP5 AND CALLER EQ DUP1 ISZERO SWAP1 PUSH2 0x1AE3 JUMPI POP DUP2 PUSH1 0x1 PUSH1 0x1 PUSH1 0xA0 SHL SUB AND DUP5 PUSH1 0x1 PUSH1 0x1 PUSH1 0xA0 SHL SUB AND EQ ISZERO JUMPDEST PUSH2 0x15BC JUMPI PUSH1 0x40 MLOAD PUSH3 0x461BCD PUSH1 0xE5 SHL DUP2 MSTORE PUSH1 0x4 ADD PUSH2 0x317 SWAP1 PUSH2 0x5412 JUMP JUMPDEST PUSH2 0x1B07 PUSH2 0x4ECB JUMP JUMPDEST PUSH2 0xC39 DUP3 PUSH1 0x0 PUSH2 0x3221 JUMP JUMPDEST PUSH1 0x0 PUSH2 0x1B1D DUP4 PUSH2 0x163A JUMP JUMPDEST SWAP1 POP PUSH1 0x5 DUP7 PUSH1 0x60 ADD MLOAD PUSH1 0x5 DUP2 GT ISZERO PUSH2 0x1B31 JUMPI INVALID JUMPDEST EQ ISZERO PUSH2 0x1B4C JUMPI PUSH2 0x1B49 DUP5 PUSH1 0x40 ADD MLOAD PUSH2 0xFFFF AND DUP3 PUSH2 0x32CF JUMP JUMPDEST SWAP1 POP JUMPDEST PUSH1 0x0 DUP1 PUSH2 0x1B5A DUP8 DUP8 DUP7 PUSH2 0xE3C JUMP JUMPDEST SWAP2 POP SWAP2 POP PUSH1 0x0 DUP3 SGT PUSH2 0x1B6B JUMPI PUSH1 0x0 DUP1 REVERT JUMPDEST PUSH1 0x0 PUSH2 0x1B77 DUP10 DUP5 PUSH2 0x2D2E JUMP JUMPDEST SWAP1 POP DUP1 DUP5 SLT ISZERO PUSH2 0x1BAE JUMPI PUSH2 0x1B8B DUP10 DUP4 PUSH2 0x2D2E JUMP JUMPDEST DUP5 SLT PUSH2 0x1BA9 JUMPI PUSH1 0x40 MLOAD PUSH3 0x461BCD PUSH1 0xE5 SHL DUP2 MSTORE PUSH1 0x4 ADD PUSH2 0x317 SWAP1 PUSH2 0x565E JUMP JUMPDEST PUSH2 0x1BB2 JUMP JUMPDEST DUP1 SWAP4 POP JUMPDEST PUSH1 0x40 DUP8 ADD MLOAD PUSH1 0x0 SWAP1 PUSH2 0x1BCC SWAP1 DUP12 SWAP1 DUP14 SWAP1 PUSH2 0xFFFF AND DUP9 PUSH2 0x23F2 JUMP JUMPDEST SWAP1 POP PUSH2 0x1BE6 PUSH2 0x1BDB DUP12 DUP4 PUSH2 0x2591 JUMP JUMPDEST PUSH1 0x80 DUP12 ADD MLOAD SWAP1 PUSH2 0x20FF JUMP JUMPDEST PUSH1 0x80 SWAP1 SWAP10 ADD SWAP9 SWAP1 SWAP9 MSTORE POP POP POP POP POP POP POP POP POP POP JUMP JUMPDEST PUSH1 0x0 DUP3 DUP3 GT ISZERO PUSH2 0x1C0A JUMPI PUSH1 0x0 DUP1 REVERT JUMPDEST POP SWAP1 SUB SWAP1 JUMP JUMPDEST PUSH1 0x0 DUP1 PUSH2 0x1C3B DUP5 PUSH1 0x40 ADD MLOAD PUSH2 0xF18 PUSH5 0x2540BE400 PUSH2 0xF18 DUP8 DUP10 PUSH1 0x20 ADD MLOAD PUSH2 0x2188 SWAP1 SWAP2 SWAP1 PUSH4 0xFFFFFFFF AND JUMP JUMPDEST SWAP5 SWAP4 POP POP POP POP JUMP JUMPDEST PUSH1 0x80 DUP6 ADD MLOAD PUSH2 0x1C52 SWAP1 DUP3 PUSH2 0x20FF JUMP JUMPDEST PUSH1 0x80 DUP7 ADD MSTORE DUP5 MLOAD PUSH2 0x1C63 SWAP1 DUP4 PUSH2 0x20FF JUMP JUMPDEST DUP1 DUP7 MSTORE PUSH1 0x0 SLT ISZERO PUSH2 0x1C73 JUMPI PUSH1 0x0 DUP1 REVERT JUMPDEST PUSH1 0x20 DUP4 ADD MLOAD PUSH2 0x1C82 SWAP1 DUP4 PUSH2 0x20FF JUMP JUMPDEST PUSH1 0x20 DUP5 ADD DUP2 SWAP1 MSTORE PUSH1 0x0 SLT ISZERO PUSH2 0x1C96 JUMPI PUSH1 0x0 DUP1 REVERT JUMPDEST PUSH2 0x1CA9 DUP5 PUSH1 0x0 ADD MLOAD DUP6 PUSH1 0x40 ADD MLOAD DUP5 PUSH2 0x3356 JUMP JUMPDEST POP POP POP POP POP POP JUMP JUMPDEST PUSH1 0x0 DUP1 PUSH2 0x1CC2 DUP7 DUP7 PUSH1 0x0 ADD MLOAD PUSH2 0xC86 JUMP JUMPDEST SWAP1 POP DUP1 PUSH1 0x20 ADD MLOAD PUSH1 0x0 EQ DUP1 PUSH2 0x1CDA JUMPI POP DUP3 DUP2 PUSH1 0x20 ADD MLOAD EQ JUMPDEST PUSH2 0x1CF6 JUMPI PUSH1 0x40 MLOAD PUSH3 0x461BCD PUSH1 0xE5 SHL DUP2 MSTORE PUSH1 0x4 ADD PUSH2 0x317 SWAP1 PUSH2 0x5438 JUMP JUMPDEST PUSH1 0x20 DUP2 ADD DUP4 SWAP1 MSTORE PUSH1 0x40 DUP2 ADD MLOAD PUSH2 0x1D0C SWAP1 DUP6 PUSH2 0x345C JUMP JUMPDEST PUSH1 0x40 DUP3 ADD MSTORE PUSH2 0x1D1B DUP2 DUP7 PUSH2 0x16C8 JUMP JUMPDEST POP SWAP2 SWAP5 SWAP4 POP POP POP POP JUMP JUMPDEST PUSH1 0x0 DUP1 DUP1 PUSH2 0x1D33 DUP9 DUP9 PUSH2 0x221D JUMP JUMPDEST DUP10 MLOAD SWAP2 SWAP4 POP SWAP2 POP PUSH2 0x1D4B SWAP1 DUP11 SWAP1 DUP13 SWAP1 DUP5 SWAP1 DUP11 DUP11 PUSH2 0x346E JUMP JUMPDEST DUP11 MLOAD SWAP1 SWAP5 POP PUSH2 0x1D5C SWAP2 POP DUP10 SWAP1 PUSH2 0x1146 JUMP JUMPDEST DUP2 ISZERO PUSH2 0x1DA6 JUMPI PUSH1 0x0 PUSH2 0x1D96 PUSH2 0x1199 PUSH2 0x111A DUP13 PUSH1 0x40 ADD MLOAD PUSH2 0xFFFF AND DUP15 PUSH2 0x1D8D PUSH2 0x1199 PUSH2 0x1D86 DUP11 PUSH2 0x163A JUMP JUMPDEST DUP13 SWAP1 PUSH2 0x2D2E JUMP JUMPDEST DUP11 SWAP3 SWAP2 SWAP1 PUSH2 0x2D66 JUMP JUMPDEST SWAP1 POP PUSH2 0x1DA2 DUP5 DUP3 PUSH2 0x345C JUMP JUMPDEST SWAP4 POP POP JUMPDEST POP POP SWAP8 SWAP7 POP POP POP POP POP POP POP JUMP JUMPDEST PUSH2 0x1DBB PUSH2 0x4E07 JUMP JUMPDEST PUSH1 0x0 PUSH2 0x1DC5 PUSH2 0x34C5 JUMP JUMPDEST PUSH1 0x1 PUSH1 0x1 PUSH1 0xA0 SHL SUB DUP5 AND PUSH1 0x0 DUP2 DUP2 MSTORE PUSH1 0x20 DUP4 DUP2 MSTORE PUSH1 0x40 SWAP2 DUP3 SWAP1 KECCAK256 SWAP3 DUP7 MSTORE DUP3 SLOAD PUSH2 0xFFFF DUP1 DUP3 AND SWAP3 DUP9 ADD SWAP3 SWAP1 SWAP3 MSTORE PUSH3 0x10000 DUP2 DIV SWAP1 SWAP2 AND SWAP2 DUP7 ADD SWAP2 SWAP1 SWAP2 MSTORE SWAP2 SWAP3 POP SWAP1 PUSH2 0x1E26 SWAP1 PUSH4 0xFFFFFFFF PUSH5 0x100000000 SWAP1 SWAP2 DIV DUP2 AND SWAP1 PUSH4 0x5F5E100 SWAP1 PUSH2 0x2188 AND JUMP JUMPDEST PUSH1 0x60 DUP5 ADD MSTORE DUP1 SLOAD PUSH2 0x1E44 SWAP1 PUSH1 0x1 PUSH1 0x50 SHL SWAP1 DIV PUSH1 0xFF AND PUSH3 0x7A120 PUSH2 0xF62 JUMP JUMPDEST PUSH1 0x80 DUP5 ADD MSTORE DUP1 SLOAD PUSH2 0x1E68 SWAP1 PUSH9 0x10000000000000000 SWAP1 DIV PUSH2 0xFFFF AND PUSH3 0x186A0 PUSH2 0xF62 JUMP JUMPDEST PUSH1 0xA0 DUP5 ADD MSTORE DUP1 SLOAD PUSH2 0x1E87 SWAP1 PUSH1 0x1 PUSH1 0x70 SHL SWAP1 DIV PUSH2 0xFFFF AND PUSH3 0x186A0 PUSH2 0xF62 JUMP JUMPDEST PUSH2 0x120 DUP5 ADD MSTORE PUSH1 0x2 DUP2 ADD SLOAD PUSH2 0x1EA3 SWAP1 PUSH2 0xFFFF AND PUSH3 0x186A0 PUSH2 0xF62 JUMP JUMPDEST PUSH2 0x180 DUP5 ADD MSTORE DUP1 SLOAD PUSH1 0x64 SWAP1 PUSH1 0xFF PUSH1 0x1 PUSH1 0x58 SHL SWAP1 SWAP2 DIV AND PUSH4 0x3B9ACA00 MUL SDIV PUSH1 0xC0 DUP5 ADD MSTORE DUP1 SLOAD PUSH1 0x1 PUSH1 0x60 SHL DUP2 DIV PUSH1 0xFF SWAP1 DUP2 AND PUSH1 0xE0 DUP7 ADD MSTORE PUSH1 0x1 PUSH1 0x68 SHL SWAP1 SWAP2 DIV AND PUSH2 0x100 DUP5 ADD MSTORE PUSH1 0x40 DUP1 MLOAD DUP1 DUP3 ADD SWAP2 DUP3 SWAP1 MSTORE SWAP1 PUSH1 0x1 DUP4 ADD SWAP1 PUSH1 0x2 SWAP1 DUP3 PUSH1 0x0 DUP6 JUMPDEST DUP3 DUP3 SWAP1 SLOAD SWAP1 PUSH2 0x100 EXP SWAP1 DIV PUSH2 0xFFFF AND PUSH2 0xFFFF AND DUP2 MSTORE PUSH1 0x20 ADD SWAP1 PUSH1 0x2 ADD SWAP1 PUSH1 0x20 DUP3 PUSH1 0x1 ADD DIV SWAP3 DUP4 ADD SWAP3 PUSH1 0x1 SUB DUP3 MUL SWAP2 POP DUP1 DUP5 GT PUSH2 0x1F00 JUMPI SWAP1 POP POP POP POP POP POP DUP4 PUSH2 0x140 ADD DUP2 SWAP1 MSTORE POP POP POP SWAP2 SWAP1 POP JUMP JUMPDEST PUSH2 0x1F55 PUSH2 0x4EF2 JUMP JUMPDEST PUSH1 0x0 DUP1 PUSH1 0x0 PUSH2 0x1F63 DUP6 PUSH2 0x34D2 JUMP JUMPDEST PUSH1 0x40 DUP1 MLOAD PUSH1 0x60 DUP2 ADD DUP3 MSTORE PUSH1 0x1 PUSH1 0x1 PUSH1 0xA0 SHL SUB SWAP1 SWAP4 AND DUP4 MSTORE PUSH1 0x20 DUP4 ADD SWAP4 SWAP1 SWAP4 MSTORE PUSH1 0xFF AND PUSH1 0xA EXP SWAP2 DUP2 ADD SWAP2 SWAP1 SWAP2 MSTORE SWAP4 POP POP POP POP SWAP2 SWAP1 POP JUMP JUMPDEST PUSH1 0x0 DUP1 PUSH2 0xC39 PUSH1 0x16 PUSH2 0x30CB JUMP JUMPDEST PUSH1 0x0 DUP1 PUSH2 0xC39 PUSH1 0x15 PUSH2 0x30CB JUMP JUMPDEST PUSH1 0x0 DUP2 PUSH2 0x1FC2 JUMPI POP PUSH1 0x0 PUSH2 0x1C3B JUMP JUMPDEST PUSH1 0x0 DUP1 PUSH2 0x1FCF DUP8 DUP6 PUSH2 0x1892 JUMP JUMPDEST SWAP2 POP SWAP2 POP PUSH1 0x0 PUSH2 0x1FEE DUP8 PUSH1 0x40 ADD MLOAD DUP9 PUSH1 0x0 ADD MLOAD DUP9 DUP6 DUP13 PUSH1 0x0 ADD MLOAD PUSH2 0x3593 JUMP JUMPDEST SWAP1 POP PUSH2 0x200C PUSH2 0x1FFC DUP5 PUSH2 0x163A JUMP JUMPDEST PUSH2 0x160 DUP10 ADD MLOAD PUSH2 0xDEC SWAP1 DUP5 PUSH2 0x2115 JUMP JUMPDEST SWAP9 SWAP8 POP POP POP POP POP POP POP POP JUMP JUMPDEST PUSH1 0x0 PUSH2 0x2023 DUP5 PUSH2 0x307B JUMP JUMPDEST ISZERO PUSH2 0x15BC JUMPI PUSH1 0x0 PUSH2 0x2032 PUSH2 0x1885 JUMP JUMPDEST PUSH1 0x1 PUSH1 0x1 PUSH1 0xA0 SHL SUB DUP1 DUP7 AND PUSH1 0x0 SWAP1 DUP2 MSTORE PUSH1 0x20 SWAP3 DUP4 MSTORE PUSH1 0x40 DUP1 DUP3 KECCAK256 DUP10 MLOAD SWAP1 SWAP4 AND DUP3 MSTORE SWAP2 SWAP1 SWAP3 MSTORE DUP1 DUP3 KECCAK256 SWAP1 DUP8 ADD MLOAD SWAP1 SWAP3 POP PUSH2 0x206E SWAP1 PUSH2 0xFFFF AND PUSH2 0x364D JUMP JUMPDEST DUP3 SLOAD SWAP1 SWAP2 POP PUSH1 0x1 PUSH1 0x1 PUSH1 0x50 SHL SUB PUSH1 0x1 PUSH1 0x28 SHL DUP3 DIV DUP2 AND SWAP2 PUSH1 0x1 PUSH1 0x78 SHL SWAP1 DIV AND DUP2 ISZERO PUSH2 0x20C4 JUMPI PUSH2 0x20C1 PUSH2 0x20BA DUP5 DUP11 PUSH2 0x140 ADD MLOAD PUSH1 0x0 PUSH1 0x2 DUP2 LT PUSH2 0x20AC JUMPI INVALID JUMPDEST PUSH1 0x20 MUL ADD MLOAD DUP12 MLOAD DUP11 DUP8 PUSH2 0x37B0 JUMP JUMPDEST DUP7 SWAP1 PUSH2 0x20FF JUMP JUMPDEST SWAP5 POP JUMPDEST DUP1 ISZERO PUSH2 0x20F4 JUMPI PUSH2 0x20F1 PUSH2 0x20BA DUP5 DUP11 PUSH2 0x140 ADD MLOAD PUSH1 0x1 PUSH1 0x2 DUP2 LT PUSH2 0x20E3 JUMPI INVALID JUMPDEST PUSH1 0x20 MUL ADD MLOAD DUP12 MLOAD DUP11 DUP7 PUSH2 0x37B0 JUMP JUMPDEST SWAP5 POP JUMPDEST POP POP POP POP SWAP4 SWAP3 POP POP POP JUMP JUMPDEST DUP2 DUP2 ADD DUP3 DUP2 SLT ISZERO PUSH1 0x0 DUP4 SLT ISZERO EQ PUSH2 0xC39 JUMPI PUSH1 0x0 DUP1 REVERT JUMPDEST PUSH1 0x0 DUP1 PUSH2 0x1C3B DUP5 PUSH1 0x20 ADD MLOAD PUSH2 0xF18 DUP7 PUSH1 0x40 ADD MLOAD PUSH2 0x14B6 PUSH5 0x2540BE400 DUP9 PUSH2 0x2188 SWAP1 SWAP2 SWAP1 PUSH4 0xFFFFFFFF AND JUMP JUMPDEST DUP1 DUP3 SUB DUP3 DUP2 SGT ISZERO PUSH1 0x0 DUP4 SLT ISZERO EQ PUSH2 0xC39 JUMPI PUSH1 0x0 DUP1 REVERT JUMPDEST PUSH1 0x0 PUSH2 0xC36 PUSH2 0x2169 DUP5 PUSH4 0x3B9ACA00 PUSH2 0x2188 JUMP JUMPDEST DUP4 PUSH2 0x21D6 JUMP JUMPDEST PUSH1 0x0 PUSH2 0xC36 PUSH2 0x217E DUP5 DUP5 PUSH2 0x2188 JUMP JUMPDEST PUSH4 0x3B9ACA00 PUSH2 0x21D6 JUMP JUMPDEST DUP2 DUP2 MUL PUSH1 0x0 NOT DUP4 EQ ISZERO PUSH2 0x21B8 JUMPI DUP2 ISZERO DUP1 PUSH2 0x21AA JUMPI POP DUP3 DUP3 DUP3 DUP2 PUSH2 0x21A7 JUMPI INVALID JUMPDEST SDIV EQ JUMPDEST PUSH2 0x21B3 JUMPI PUSH1 0x0 DUP1 REVERT JUMPDEST PUSH2 0xC39 JUMP JUMPDEST DUP3 ISZERO DUP1 PUSH2 0x21CD JUMPI POP DUP2 DUP4 DUP3 DUP2 PUSH2 0x21CA JUMPI INVALID JUMPDEST SDIV EQ JUMPDEST PUSH2 0xC39 JUMPI PUSH1 0x0 DUP1 REVERT JUMPDEST PUSH1 0x0 DUP2 PUSH1 0x0 NOT EQ DUP1 ISZERO PUSH2 0x21EC JUMPI POP PUSH1 0x1 PUSH1 0xFF SHL DUP4 EQ JUMPDEST ISZERO PUSH2 0x21F6 JUMPI PUSH1 0x0 DUP1 REVERT JUMPDEST DUP2 DUP4 DUP2 PUSH2 0x21FF JUMPI INVALID JUMPDEST SDIV SWAP4 SWAP3 POP POP POP JUMP JUMPDEST PUSH2 0x220F PUSH2 0x4EF2 JUMP JUMPDEST PUSH1 0x0 DUP1 PUSH1 0x0 PUSH2 0x1F63 DUP6 PUSH2 0x3861 JUMP JUMPDEST PUSH1 0x0 DUP1 PUSH2 0x222A DUP5 DUP5 PUSH2 0x1892 JUMP JUMPDEST PUSH1 0x80 DUP7 ADD MLOAD SWAP2 SWAP4 POP SWAP2 POP PUSH2 0x223E SWAP1 DUP4 PUSH2 0x1BFB JUMP JUMPDEST PUSH1 0x80 DUP6 ADD MSTORE PUSH1 0xA0 DUP5 ADD MLOAD PUSH2 0x2252 SWAP1 DUP3 PUSH2 0x1BFB JUMP JUMPDEST PUSH1 0xA0 DUP6 ADD MSTORE PUSH1 0x60 DUP5 ADD MLOAD PUSH2 0x2266 SWAP1 DUP5 PUSH2 0x1BFB JUMP JUMPDEST PUSH1 0x60 SWAP1 SWAP5 ADD SWAP4 SWAP1 SWAP4 MSTORE SWAP3 SWAP1 POP JUMP JUMPDEST PUSH1 0x0 DUP1 PUSH2 0x2283 DUP9 DUP9 DUP7 DUP7 PUSH2 0x2651 JUMP JUMPDEST SWAP1 POP PUSH1 0x0 PUSH2 0x2290 DUP8 PUSH2 0x38E6 JUMP JUMPDEST SWAP1 POP PUSH11 0xFFFFFFFFFFFFFFFFFFFFFF DUP2 LT PUSH2 0x22A9 JUMPI PUSH1 0x0 DUP1 REVERT JUMPDEST PUSH1 0x0 PUSH1 0x78 DUP8 PUSH4 0xFFFFFFFF AND SWAP1 SHL PUSH1 0x98 DUP4 SWAP1 SHL PUSH1 0xF0 DUP6 SWAP1 SHL PUSH1 0xF8 PUSH1 0x0 DUP13 SGT PUSH2 0x22D1 JUMPI PUSH1 0x1 PUSH2 0x22D4 JUMP JUMPDEST PUSH1 0x0 JUMPDEST PUSH1 0x5 DUP2 GT ISZERO PUSH2 0x22DF JUMPI INVALID JUMPDEST PUSH1 0xFF AND SWAP1 SHL OR OR OR PUSH1 0x0 SHL SWAP1 POP PUSH20 0x0 PUSH4 0xE50F349E DUP12 DUP4 PUSH1 0x40 MLOAD DUP4 PUSH4 0xFFFFFFFF AND PUSH1 0xE0 SHL DUP2 MSTORE PUSH1 0x4 ADD PUSH2 0x2325 SWAP3 SWAP2 SWAP1 PUSH2 0x5880 JUMP JUMPDEST PUSH1 0x20 PUSH1 0x40 MLOAD DUP1 DUP4 SUB DUP2 DUP7 DUP1 EXTCODESIZE ISZERO DUP1 ISZERO PUSH2 0x233D JUMPI PUSH1 0x0 DUP1 REVERT JUMPDEST POP GAS DELEGATECALL ISZERO DUP1 ISZERO PUSH2 0x2351 JUMPI RETURNDATASIZE PUSH1 0x0 DUP1 RETURNDATACOPY RETURNDATASIZE PUSH1 0x0 REVERT JUMPDEST POP POP POP POP PUSH1 0x40 MLOAD RETURNDATASIZE PUSH1 0x1F NOT PUSH1 0x1F DUP3 ADD AND DUP3 ADD DUP1 PUSH1 0x40 MSTORE POP DUP2 ADD SWAP1 PUSH2 0x2375 SWAP2 SWAP1 PUSH2 0x5253 JUMP JUMPDEST SWAP11 SWAP10 POP POP POP POP POP POP POP POP POP POP JUMP JUMPDEST PUSH1 0x0 PUSH1 0x1 PUSH1 0x1 PUSH1 0x50 SHL SUB DUP3 GT ISZERO PUSH2 0xF5A JUMPI PUSH1 0x0 DUP1 REVERT JUMPDEST PUSH2 0x23A1 PUSH2 0x4ECB JUMP JUMPDEST PUSH2 0x23A9 PUSH2 0x4ECB JUMP JUMPDEST PUSH2 0x23BA DUP4 PUSH1 0x40 ADD MLOAD PUSH2 0xFFFF AND PUSH2 0x1AFF JUMP JUMPDEST SWAP2 POP PUSH1 0x4 DUP3 PUSH1 0x60 ADD MLOAD PUSH1 0x5 DUP2 GT ISZERO PUSH2 0x23CE JUMPI INVALID JUMPDEST EQ PUSH2 0x23E9 JUMPI PUSH2 0x23E4 DUP4 PUSH1 0x40 ADD MLOAD PUSH2 0xFFFF AND PUSH2 0x3150 JUMP JUMPDEST PUSH2 0x23EB JUMP JUMPDEST DUP2 JUMPDEST SWAP1 POP SWAP2 POP SWAP2 JUMP JUMPDEST DUP1 PUSH1 0x5 DUP6 PUSH1 0x60 ADD MLOAD PUSH1 0x5 DUP2 GT ISZERO PUSH2 0x2405 JUMPI INVALID JUMPDEST EQ ISZERO PUSH2 0x242A JUMPI PUSH1 0x0 PUSH2 0x2416 DUP5 PUSH2 0x3150 JUMP JUMPDEST SWAP1 POP PUSH2 0x2426 DUP2 PUSH1 0x0 ADD MLOAD DUP5 PUSH2 0x3907 JUMP JUMPDEST SWAP3 POP POP JUMPDEST PUSH1 0x0 DUP3 SGT ISZERO PUSH2 0x2456 JUMPI PUSH1 0x0 PUSH2 0x2440 DUP7 DUP7 DUP6 PUSH2 0x3996 JUMP JUMPDEST SWAP1 POP DUP6 PUSH1 0x20 ADD MLOAD ISZERO PUSH2 0x2450 JUMPI DUP1 SWAP2 POP JUMPDEST POP PUSH2 0x1C3B JUMP JUMPDEST PUSH1 0x3 DUP6 PUSH1 0x60 ADD MLOAD PUSH1 0x5 DUP2 GT ISZERO PUSH2 0x2468 JUMPI INVALID JUMPDEST EQ ISZERO PUSH2 0x2485 JUMPI PUSH2 0x2480 DUP5 PUSH2 0x247B DUP5 PUSH2 0x10AA JUMP JUMPDEST PUSH2 0x3163 JUMP JUMPDEST PUSH2 0x1C3B JUMP JUMPDEST DUP5 MLOAD PUSH2 0x1C3B SWAP1 DUP6 PUSH2 0x2495 DUP6 PUSH2 0x10AA JUMP JUMPDEST PUSH2 0x3A7F JUMP JUMPDEST PUSH1 0x0 DUP1 PUSH1 0x5 DUP6 PUSH1 0x60 ADD MLOAD PUSH1 0x5 DUP2 GT ISZERO PUSH2 0x24AF JUMPI INVALID JUMPDEST EQ PUSH2 0x24C1 JUMPI PUSH4 0x70A08231 PUSH1 0xE0 SHL PUSH2 0x24CA JUMP JUMPDEST PUSH4 0xED1279F PUSH1 0xE1 SHL JUMPDEST SWAP1 POP PUSH1 0x0 PUSH2 0x24DD DUP7 PUSH1 0x0 ADD MLOAD ADDRESS DUP5 PUSH2 0x3AF6 JUMP JUMPDEST SWAP1 POP PUSH1 0x5 DUP7 PUSH1 0x60 ADD MLOAD PUSH1 0x5 DUP2 GT ISZERO PUSH2 0x24F1 JUMPI INVALID JUMPDEST EQ ISZERO PUSH2 0x2518 JUMPI PUSH1 0x0 PUSH2 0x2506 DUP7 PUSH2 0xFFFF AND PUSH2 0x3150 JUMP JUMPDEST SWAP1 POP PUSH2 0x2512 DUP2 DUP7 PUSH2 0x3C08 JUMP JUMPDEST POP PUSH2 0x2561 JUMP JUMPDEST PUSH1 0x1 DUP7 PUSH1 0x60 ADD MLOAD PUSH1 0x5 DUP2 GT ISZERO PUSH2 0x252A JUMPI INVALID JUMPDEST EQ ISZERO PUSH2 0x253F JUMPI PUSH2 0x253A DUP7 DUP6 PUSH2 0x3C73 JUMP JUMPDEST PUSH2 0x2561 JUMP JUMPDEST PUSH1 0x2 DUP7 PUSH1 0x60 ADD MLOAD PUSH1 0x5 DUP2 GT ISZERO PUSH2 0x2551 JUMPI INVALID JUMPDEST EQ ISZERO PUSH2 0x9C JUMPI PUSH2 0x253A DUP7 DUP6 PUSH2 0x3D15 JUMP JUMPDEST PUSH1 0x0 PUSH2 0x2572 DUP8 PUSH1 0x0 ADD MLOAD ADDRESS DUP6 PUSH2 0x3AF6 JUMP JUMPDEST SWAP1 POP PUSH2 0x2586 PUSH2 0x2581 DUP3 DUP5 PUSH2 0x3D68 JUMP JUMPDEST PUSH2 0x163A JUMP JUMPDEST SWAP8 SWAP7 POP POP POP POP POP POP POP JUMP JUMPDEST PUSH1 0x0 PUSH4 0x5F5E100 DUP4 PUSH1 0x40 ADD MLOAD EQ ISZERO PUSH2 0x25AA JUMPI POP DUP1 PUSH2 0xC39 JUMP JUMPDEST PUSH1 0x40 DUP4 ADD MLOAD PUSH2 0xC36 SWAP1 PUSH2 0xF18 DUP5 PUSH4 0x5F5E100 PUSH2 0x2188 JUMP JUMPDEST PUSH1 0x0 DUP3 SLT PUSH2 0x25CE JUMPI PUSH1 0x0 DUP1 REVERT JUMPDEST PUSH1 0x0 PUSH2 0x25E7 DUP7 PUSH1 0x40 ADD MLOAD DUP6 DUP6 DUP6 DUP11 PUSH2 0x100 ADD MLOAD TIMESTAMP PUSH2 0x2274 JUMP JUMPDEST SWAP1 POP PUSH1 0x0 DUP2 SGT PUSH2 0x2609 JUMPI PUSH1 0x40 MLOAD PUSH3 0x461BCD PUSH1 0xE5 SHL DUP2 MSTORE PUSH1 0x4 ADD PUSH2 0x317 SWAP1 PUSH2 0x56E3 JUMP JUMPDEST PUSH2 0x2616 DUP8 DUP8 DUP8 DUP7 DUP6 PUSH2 0x1C43 JUMP JUMPDEST DUP7 MLOAD PUSH2 0x2621 SWAP1 PUSH2 0x10AA JUMP JUMPDEST DUP7 PUSH1 0x60 ADD MLOAD SGT ISZERO PUSH2 0x2644 JUMPI PUSH1 0x40 MLOAD PUSH3 0x461BCD PUSH1 0xE5 SHL DUP2 MSTORE PUSH1 0x4 ADD PUSH2 0x317 SWAP1 PUSH2 0x5734 JUMP JUMPDEST PUSH2 0x113D DUP7 DUP9 DUP4 DUP8 TIMESTAMP PUSH2 0x3DBF JUMP JUMPDEST PUSH1 0x0 DUP1 PUSH1 0x0 PUSH2 0x2663 DUP8 PUSH2 0xFFFF AND PUSH2 0x3EBA JUMP JUMPDEST SWAP1 POP PUSH2 0x2673 DUP2 PUSH1 0xFF AND DUP8 DUP7 PUSH2 0x3ED0 JUMP JUMPDEST SWAP1 SWAP4 POP SWAP2 POP DUP5 DUP4 GT ISZERO PUSH2 0x2698 JUMPI PUSH1 0x40 MLOAD PUSH3 0x461BCD PUSH1 0xE5 SHL DUP2 MSTORE PUSH1 0x4 ADD PUSH2 0x317 SWAP1 PUSH2 0x552B JUMP JUMPDEST DUP2 ISZERO PUSH2 0x26B6 JUMPI PUSH1 0x40 MLOAD PUSH3 0x461BCD PUSH1 0xE5 SHL DUP2 MSTORE PUSH1 0x4 ADD PUSH2 0x317 SWAP1 PUSH2 0x552B JUMP JUMPDEST POP POP SWAP5 SWAP4 POP POP POP POP JUMP JUMPDEST PUSH1 0x0 DUP8 PUSH1 0x80 ADD MLOAD PUSH1 0x0 EQ PUSH2 0x26D3 JUMPI PUSH1 0x0 DUP1 REVERT JUMPDEST PUSH1 0x0 DUP8 PUSH1 0x80 ADD MLOAD SLT ISZERO PUSH2 0x26E5 JUMPI PUSH1 0x0 DUP1 REVERT JUMPDEST DUP8 MLOAD PUSH1 0x20 DUP9 ADD MLOAD LT ISZERO PUSH2 0x270D JUMPI PUSH1 0x40 DUP8 ADD MLOAD ISZERO PUSH2 0x2701 JUMPI PUSH1 0x0 DUP1 REVERT JUMPDEST DUP8 MLOAD PUSH1 0x20 DUP9 ADD MSTORE PUSH2 0x271E JUMP JUMPDEST DUP8 MLOAD PUSH1 0x20 DUP9 ADD MLOAD EQ PUSH2 0x271E JUMPI PUSH1 0x0 DUP1 REVERT JUMPDEST PUSH1 0x0 DUP6 ISZERO PUSH2 0x2739 JUMPI PUSH2 0x2736 DUP10 DUP10 DUP9 DUP11 PUSH1 0x0 ADD MLOAD PUSH2 0x3F98 JUMP JUMPDEST SWAP1 POP JUMPDEST PUSH1 0x60 DUP9 ADD MLOAD PUSH1 0x80 DUP10 ADD MLOAD DUP11 MLOAD PUSH1 0x0 SWAP3 PUSH2 0x2756 SWAP3 DUP12 SWAP3 DUP11 DUP11 DUP11 PUSH2 0x4016 JUMP JUMPDEST SWAP1 POP PUSH2 0x2772 PUSH2 0x276B DUP12 DUP12 DUP5 DUP13 PUSH1 0x0 ADD MLOAD PUSH2 0x3F98 JUMP JUMPDEST DUP4 SWAP1 PUSH2 0x345C JUMP JUMPDEST SWAP2 POP DUP9 PUSH1 0x60 ADD MLOAD PUSH1 0x1 PUSH1 0x1 PUSH1 0xA0 SHL SUB AND DUP11 PUSH1 0x0 ADD MLOAD DUP10 PUSH1 0x0 ADD MLOAD PUSH1 0x1 PUSH1 0x1 PUSH1 0xA0 SHL SUB AND PUSH32 0xF0B1FFF1C6815D2739F7CB03ADBB99177A10DAAE11921A3AE1712F20EA52EB9A DUP10 DUP14 PUSH1 0x80 ADD MLOAD DUP13 DUP9 PUSH1 0x40 MLOAD PUSH2 0x27CE SWAP5 SWAP4 SWAP3 SWAP2 SWAP1 PUSH2 0x53F7 JUMP JUMPDEST PUSH1 0x40 MLOAD DUP1 SWAP2 SUB SWAP1 LOG4 PUSH1 0x0 PUSH1 0x80 DUP11 ADD MSTORE PUSH2 0x2375 DUP8 DUP3 PUSH2 0x345C JUMP JUMPDEST PUSH2 0x27EF PUSH2 0x4EF2 JUMP JUMPDEST PUSH1 0x0 DUP1 PUSH2 0x27FC DUP7 DUP7 PUSH2 0x40CC JUMP JUMPDEST SWAP2 POP SWAP2 POP DUP2 PUSH1 0x0 EQ ISZERO PUSH2 0x292A JUMPI PUSH1 0x0 PUSH2 0x2814 DUP8 PUSH2 0x3861 JUMP JUMPDEST SWAP2 SWAP5 POP SWAP1 SWAP3 POP SWAP1 POP PUSH1 0x1 PUSH1 0x1 PUSH1 0xA0 SHL SUB DUP2 AND ISZERO PUSH2 0x2928 JUMPI PUSH1 0x0 PUSH2 0x2835 PUSH2 0x4113 JUMP JUMPDEST SWAP1 POP DUP6 PUSH1 0x0 LT DUP1 ISZERO PUSH2 0x2847 JUMPI POP DUP6 DUP8 GT ISZERO JUMPDEST DUP1 ISZERO PUSH2 0x2858 JUMPI POP PUSH5 0xFFFFFFFFFF DUP7 GT ISZERO JUMPDEST PUSH2 0x2861 JUMPI PUSH1 0x0 DUP1 REVERT JUMPDEST DUP4 PUSH1 0x0 SLT DUP1 ISZERO PUSH2 0x2878 JUMPI POP PUSH1 0x1 PUSH1 0x1 PUSH1 0x80 SHL SUB DUP5 SGT ISZERO JUMPDEST PUSH2 0x2881 JUMPI PUSH1 0x0 DUP1 REVERT JUMPDEST PUSH1 0x0 DUP9 DUP2 MSTORE PUSH1 0x20 DUP3 DUP2 MSTORE PUSH1 0x40 DUP1 DUP4 KECCAK256 DUP11 DUP5 MSTORE SWAP1 SWAP2 MSTORE SWAP1 DUP2 SWAP1 KECCAK256 DUP1 SLOAD PUSH5 0xFFFFFFFFFF NOT AND PUSH5 0xFFFFFFFFFF DUP10 AND OR PUSH21 0xFFFFFFFFFFFFFFFFFFFFFFFFFFFFFFFF0000000000 NOT AND PUSH1 0x1 PUSH1 0x28 SHL PUSH1 0x1 PUSH1 0x1 PUSH1 0x80 SHL SUB DUP9 AND MUL OR PUSH1 0xFF PUSH1 0xA8 SHL NOT AND PUSH1 0x1 PUSH1 0xA8 SHL PUSH1 0xFF DUP8 AND MUL OR DUP2 SSTORE SWAP1 MLOAD DUP9 SWAP1 DUP11 SWAP1 PUSH32 0xFDFA6885701E2F1F42E4187B9231CF81C1FE23671EF64FA46F34DDB56C1DC18 SWAP1 PUSH2 0x291D SWAP1 DUP10 SWAP1 PUSH2 0x586C JUMP JUMPDEST PUSH1 0x40 MLOAD DUP1 SWAP2 SUB SWAP1 LOG3 POP POP JUMPDEST POP JUMPDEST PUSH1 0x40 DUP1 MLOAD PUSH1 0x60 DUP2 ADD DUP3 MSTORE PUSH1 0x0 DUP2 MSTORE PUSH1 0x20 DUP2 ADD SWAP4 SWAP1 SWAP4 MSTORE PUSH1 0xFF SWAP1 SWAP2 AND PUSH1 0xA EXP SWAP1 DUP3 ADD MSTORE SWAP1 POP SWAP4 SWAP3 POP POP POP JUMP JUMPDEST PUSH1 0x0 DUP1 PUSH2 0x2979 PUSH2 0x2972 PUSH2 0x296B DUP9 PUSH1 0x80 ADD MLOAD PUSH2 0x163A JUMP JUMPDEST DUP7 SWAP1 PUSH2 0x1C10 JUMP JUMPDEST DUP5 SWAP1 PUSH2 0x20FF JUMP JUMPDEST SWAP1 POP PUSH2 0x2984 DUP6 PUSH2 0x307B JUMP JUMPDEST ISZERO PUSH2 0x2A97 JUMPI PUSH1 0x0 PUSH2 0x2993 PUSH2 0x1885 JUMP JUMPDEST PUSH1 0x60 DUP10 ADD MLOAD PUSH1 0x1 PUSH1 0x1 PUSH1 0xA0 SHL SUB SWAP1 DUP2 AND PUSH1 0x0 SWAP1 DUP2 MSTORE PUSH1 0x20 SWAP3 DUP4 MSTORE PUSH1 0x40 DUP1 DUP3 KECCAK256 DUP11 MLOAD SWAP1 SWAP4 AND DUP3 MSTORE SWAP2 SWAP1 SWAP3 MSTORE DUP2 KECCAK256 DUP8 MLOAD DUP10 MLOAD PUSH2 0x140 DUP11 ADD MLOAD MLOAD DUP4 SLOAD SWAP4 SWAP6 POP DUP5 SWAP4 PUSH2 0x29ED SWAP4 SWAP3 SWAP2 SWAP1 PUSH1 0x1 PUSH1 0x28 SHL SWAP1 DIV PUSH1 0x1 PUSH1 0x1 PUSH1 0x50 SHL SUB AND PUSH2 0x4120 JUMP JUMPDEST SWAP1 SWAP3 POP SWAP1 POP PUSH2 0x29FC DUP5 DUP4 PUSH2 0x20FF JUMP JUMPDEST SWAP4 POP PUSH2 0x2A08 DUP6 DUP3 PUSH2 0x2140 JUMP JUMPDEST DUP9 MLOAD DUP11 MLOAD PUSH2 0x140 DUP12 ADD MLOAD PUSH1 0x20 ADD MLOAD DUP7 SLOAD SWAP4 SWAP9 POP PUSH2 0x2A34 SWAP4 PUSH1 0x1 PUSH1 0x78 SHL SWAP1 DIV PUSH1 0x1 PUSH1 0x1 PUSH1 0x50 SHL SUB AND PUSH2 0x4120 JUMP JUMPDEST SWAP1 SWAP3 POP SWAP1 POP PUSH2 0x2A43 DUP5 DUP4 PUSH2 0x20FF JUMP JUMPDEST SWAP4 POP PUSH2 0x2A4F DUP6 DUP3 PUSH2 0x2140 JUMP JUMPDEST SWAP5 POP PUSH2 0x2A59 PUSH2 0x1885 JUMP JUMPDEST PUSH1 0x60 DUP12 ADD MLOAD PUSH1 0x1 PUSH1 0x1 PUSH1 0xA0 SHL SUB SWAP1 DUP2 AND PUSH1 0x0 SWAP1 DUP2 MSTORE PUSH1 0x20 SWAP3 DUP4 MSTORE PUSH1 0x40 DUP1 DUP3 KECCAK256 DUP13 MLOAD SWAP1 SWAP4 AND DUP3 MSTORE SWAP2 SWAP1 SWAP3 MSTORE SWAP1 KECCAK256 DUP1 SLOAD PUSH1 0x1 PUSH1 0x1 PUSH1 0xC8 SHL SUB NOT AND SWAP1 SSTORE POP POP POP JUMPDEST PUSH2 0x2ACA PUSH2 0x2AC3 DUP9 PUSH1 0x0 ADD MLOAD PUSH2 0xDEC PUSH2 0x2AB2 DUP11 PUSH1 0x60 ADD MLOAD PUSH2 0x163A JUMP JUMPDEST PUSH2 0xF18 DUP7 PUSH2 0x14B6 DUP15 PUSH1 0x40 ADD MLOAD PUSH2 0x163A JUMP JUMPDEST DUP4 SWAP1 PUSH2 0x20FF JUMP JUMPDEST SWAP2 POP PUSH1 0x0 DUP3 SLT ISZERO PUSH2 0x2AEC JUMPI PUSH2 0x2AE2 PUSH2 0x1385 DUP6 DUP5 PUSH2 0x2115 JUMP JUMPDEST PUSH1 0x80 DUP9 ADD MSTORE PUSH1 0x0 SWAP2 POP JUMPDEST POP SWAP6 SWAP5 POP POP POP POP POP JUMP JUMPDEST PUSH1 0x0 DUP1 PUSH1 0x0 PUSH2 0x2B22 PUSH2 0x2B15 DUP9 PUSH1 0x20 ADD MLOAD DUP9 PUSH2 0x2115 SWAP1 SWAP2 SWAP1 PUSH4 0xFFFFFFFF AND JUMP JUMPDEST PUSH2 0xDEC DUP10 PUSH1 0x80 ADD MLOAD PUSH2 0x163A JUMP JUMPDEST SWAP1 POP PUSH1 0x0 PUSH2 0x2B34 DUP6 PUSH2 0xDEC DUP10 DUP6 PUSH2 0x1C10 JUMP JUMPDEST SWAP1 POP DUP1 ISZERO PUSH2 0x2B6D JUMPI PUSH2 0x2B5A PUSH2 0x1199 DUP3 PUSH2 0xF18 PUSH2 0x2B53 DUP13 PUSH1 0xA0 ADD MLOAD PUSH2 0x163A JUMP JUMPDEST DUP11 SWAP1 PUSH2 0x2188 JUMP JUMPDEST SWAP3 POP PUSH2 0x2B6A DUP2 PUSH2 0xF18 DUP9 DUP6 PUSH2 0x2188 JUMP JUMPDEST SWAP4 POP JUMPDEST POP POP PUSH1 0x0 PUSH2 0x2B79 PUSH2 0x41B4 JUMP JUMPDEST DUP9 MLOAD PUSH1 0x1 PUSH1 0x1 PUSH1 0xA0 SHL SUB AND PUSH1 0x0 SWAP1 DUP2 MSTORE PUSH1 0x20 SWAP2 DUP3 MSTORE PUSH1 0x40 DUP1 DUP3 KECCAK256 DUP11 MLOAD DUP4 MSTORE SWAP1 SWAP3 MSTORE KECCAK256 DUP1 SLOAD SWAP1 SWAP2 POP PUSH1 0x1 PUSH1 0x1 PUSH1 0x50 SHL SUB DUP2 AND SWAP1 PUSH1 0x1 PUSH1 0x50 SHL SWAP1 DIV PUSH1 0x9 SWAP1 DUP2 SIGNEXTEND SWAP1 SIGNEXTEND DUP4 DUP3 LT ISZERO PUSH2 0x2BF6 JUMPI PUSH2 0x2BE9 PUSH2 0x20BA PUSH2 0x2BE2 PUSH4 0x5F5E100 PUSH2 0xF18 DUP14 PUSH1 0xC0 ADD MLOAD PUSH2 0x14B6 DUP9 DUP12 SUB PUSH2 0x163A JUMP JUMPDEST DUP11 SWAP1 PUSH2 0x2115 JUMP JUMPDEST SWAP5 POP SWAP1 SWAP3 POP PUSH1 0x0 SWAP1 PUSH2 0x2BFC JUMP JUMPDEST DUP4 DUP3 SUB SWAP2 POP JUMPDEST DUP3 SLOAD PUSH1 0x1 PUSH1 0x1 PUSH1 0x50 SHL SUB NOT AND PUSH1 0x1 PUSH1 0x1 PUSH1 0x50 SHL SUB DUP4 AND OR DUP4 SSTORE PUSH1 0x0 DUP6 SLT ISZERO PUSH2 0x2C23 JUMPI PUSH1 0x0 DUP1 REVERT JUMPDEST DUP5 DUP2 SLT ISZERO PUSH2 0x2C96 JUMPI PUSH1 0x0 DUP1 DUP3 SGT PUSH2 0x2C3A JUMPI DUP6 PUSH2 0x2C3E JUMP JUMPDEST DUP2 DUP7 SUB JUMPDEST SWAP1 POP PUSH1 0x0 PUSH2 0x2C5A DUP13 PUSH1 0x0 ADD MLOAD DUP14 PUSH1 0x40 ADD MLOAD DUP5 DUP15 PUSH1 0x0 ADD MLOAD PUSH2 0x41C1 JUMP JUMPDEST SWAP1 POP PUSH1 0x0 DUP4 SGT ISZERO PUSH2 0x2C8B JUMPI PUSH2 0x2C6F DUP4 DUP3 PUSH2 0x20FF JUMP JUMPDEST DUP6 SLOAD PUSH1 0x1 PUSH1 0x50 SHL PUSH1 0x1 PUSH1 0xA0 SHL SUB NOT AND DUP7 SSTORE SWAP7 POP PUSH1 0x0 SWAP3 POP PUSH2 0x2C8F JUMP JUMPDEST DUP1 SWAP7 POP JUMPDEST POP POP PUSH2 0x2CD5 JUMP JUMPDEST PUSH2 0x2CA0 DUP2 DUP7 PUSH2 0x2140 JUMP JUMPDEST SWAP1 POP PUSH2 0x2CAB DUP2 PUSH2 0x42E9 JUMP JUMPDEST DUP4 SLOAD PUSH1 0x9 SWAP2 SWAP1 SWAP2 SIGNEXTEND PUSH1 0x1 PUSH1 0x1 PUSH1 0x50 SHL SUB AND PUSH1 0x1 PUSH1 0x50 SHL MUL PUSH1 0x1 PUSH1 0x50 SHL PUSH1 0x1 PUSH1 0xA0 SHL SUB NOT SWAP1 SWAP2 AND OR DUP4 SSTORE JUMPDEST DUP9 PUSH1 0x0 ADD MLOAD DUP11 PUSH1 0x0 ADD MLOAD PUSH1 0x1 PUSH1 0x1 PUSH1 0xA0 SHL SUB AND PUSH32 0xF5B347A56F0B5140F05EEC05FF743978670A56685689FDC2C3193D71CFAC31A9 DUP4 DUP6 PUSH1 0x40 MLOAD PUSH2 0x2D19 SWAP3 SWAP2 SWAP1 PUSH2 0x53E9 JUMP JUMPDEST PUSH1 0x40 MLOAD DUP1 SWAP2 SUB SWAP1 LOG3 POP POP POP SWAP6 POP SWAP6 SWAP4 POP POP POP POP JUMP JUMPDEST PUSH1 0x0 PUSH4 0x5F5E100 DUP4 PUSH1 0x40 ADD MLOAD EQ ISZERO PUSH2 0x2D47 JUMPI POP DUP1 PUSH2 0xC39 JUMP JUMPDEST PUSH2 0xC36 PUSH4 0x5F5E100 PUSH2 0xF18 DUP6 PUSH1 0x40 ADD MLOAD DUP6 PUSH2 0x2188 SWAP1 SWAP2 SWAP1 PUSH4 0xFFFFFFFF AND JUMP JUMPDEST PUSH1 0x0 DUP1 PUSH1 0x2 DUP7 PUSH1 0x60 ADD MLOAD PUSH1 0x5 DUP2 GT ISZERO PUSH2 0x2D7B JUMPI INVALID JUMPDEST EQ ISZERO PUSH2 0x2D93 JUMPI PUSH2 0x2D8C DUP7 DUP6 DUP6 PUSH2 0x4319 JUMP JUMPDEST SWAP1 POP PUSH2 0x2DF0 JUMP JUMPDEST PUSH1 0x0 PUSH2 0x2D9E DUP7 PUSH2 0x3150 JUMP JUMPDEST SWAP1 POP PUSH1 0x5 DUP8 PUSH1 0x60 ADD MLOAD PUSH1 0x5 DUP2 GT ISZERO PUSH2 0x2DB2 JUMPI INVALID JUMPDEST EQ ISZERO PUSH2 0x2DCA JUMPI PUSH2 0x2DC3 DUP2 DUP7 DUP7 PUSH2 0x43D6 JUMP JUMPDEST SWAP2 POP PUSH2 0x2DEE JUMP JUMPDEST PUSH1 0x1 DUP8 PUSH1 0x60 ADD MLOAD PUSH1 0x5 DUP2 GT ISZERO PUSH2 0x2DDC JUMPI INVALID JUMPDEST EQ ISZERO PUSH2 0x9C JUMPI PUSH2 0x2DC3 DUP8 DUP3 DUP8 DUP8 PUSH2 0x4487 JUMP JUMPDEST POP JUMPDEST PUSH2 0x2DFC PUSH2 0x111A DUP3 PUSH2 0x163A JUMP JUMPDEST SWAP7 SWAP6 POP POP POP POP POP POP JUMP JUMPDEST PUSH1 0x0 DUP1 PUSH1 0x0 DUP1 PUSH2 0x2E15 DUP9 PUSH2 0x2399 JUMP JUMPDEST SWAP2 POP SWAP2 POP PUSH1 0x0 DUP1 DUP9 PUSH1 0x80 ADD MLOAD SLT ISZERO PUSH2 0x2E8A JUMPI PUSH1 0x4 DUP4 PUSH1 0x60 ADD MLOAD PUSH1 0x5 DUP2 GT ISZERO PUSH2 0x2E39 JUMPI INVALID JUMPDEST EQ ISZERO PUSH2 0x2E56 JUMPI PUSH2 0x2E4F PUSH2 0x1199 DUP10 PUSH1 0x80 ADD MLOAD PUSH2 0x10AA JUMP JUMPDEST SWAP1 POP PUSH2 0x2E8A JUMP JUMPDEST PUSH1 0x0 PUSH2 0x2E77 PUSH2 0x111A DUP11 PUSH1 0x80 ADD MLOAD DUP13 PUSH2 0x160 ADD MLOAD PUSH2 0x1C10 SWAP1 SWAP2 SWAP1 PUSH4 0xFFFFFFFF AND JUMP JUMPDEST SWAP1 POP PUSH2 0x2E86 PUSH2 0x1199 DUP5 DUP4 PUSH2 0x4585 JUMP JUMPDEST SWAP2 POP POP JUMPDEST PUSH1 0x40 DUP9 ADD MLOAD PUSH1 0x0 SWAP1 ISZERO PUSH2 0x2F62 JUMPI PUSH1 0x0 PUSH2 0x2EA3 DUP5 ADDRESS PUSH2 0x45C1 JUMP JUMPDEST SWAP1 POP DUP11 PUSH1 0x0 ADD MLOAD PUSH1 0x1 PUSH1 0x1 PUSH1 0xA0 SHL SUB AND PUSH4 0x44F05108 DUP12 PUSH1 0x0 ADD MLOAD DUP13 PUSH1 0x20 ADD MLOAD DUP14 PUSH1 0x40 ADD MLOAD DUP15 PUSH1 0x60 ADD MLOAD DUP9 DUP16 DUP16 PUSH1 0x40 MLOAD DUP9 PUSH4 0xFFFFFFFF AND PUSH1 0xE0 SHL DUP2 MSTORE PUSH1 0x4 ADD PUSH2 0x2EF1 SWAP8 SWAP7 SWAP6 SWAP5 SWAP4 SWAP3 SWAP2 SWAP1 PUSH2 0x52F8 JUMP JUMPDEST PUSH1 0x20 PUSH1 0x40 MLOAD DUP1 DUP4 SUB DUP2 PUSH1 0x0 DUP8 DUP1 EXTCODESIZE ISZERO DUP1 ISZERO PUSH2 0x2F0B JUMPI PUSH1 0x0 DUP1 REVERT JUMPDEST POP GAS CALL ISZERO DUP1 ISZERO PUSH2 0x2F1F JUMPI RETURNDATASIZE PUSH1 0x0 DUP1 RETURNDATACOPY RETURNDATASIZE PUSH1 0x0 REVERT JUMPDEST POP POP POP POP PUSH1 0x40 MLOAD RETURNDATASIZE PUSH1 0x1F NOT PUSH1 0x1F DUP3 ADD AND DUP3 ADD DUP1 PUSH1 0x40 MSTORE POP DUP2 ADD SWAP1 PUSH2 0x2F43 SWAP2 SWAP1 PUSH2 0x5253 JUMP JUMPDEST SWAP6 POP PUSH1 0x0 PUSH2 0x2F51 DUP6 ADDRESS PUSH2 0x45C1 JUMP JUMPDEST SWAP1 POP PUSH2 0x2F5D DUP2 DUP4 PUSH2 0x1BFB JUMP JUMPDEST SWAP3 POP POP POP JUMPDEST DUP2 DUP2 LT ISZERO PUSH2 0x2FFD JUMPI DUP1 DUP3 SUB PUSH1 0x3 DUP5 PUSH1 0x60 ADD MLOAD PUSH1 0x5 DUP2 GT ISZERO PUSH2 0x2F7F JUMPI INVALID JUMPDEST EQ ISZERO PUSH2 0x2FBD JUMPI CALLVALUE DUP2 GT ISZERO PUSH2 0x2FA5 JUMPI PUSH1 0x40 MLOAD PUSH3 0x461BCD PUSH1 0xE5 SHL DUP2 MSTORE PUSH1 0x4 ADD PUSH2 0x317 SWAP1 PUSH2 0x54A5 JUMP JUMPDEST PUSH2 0x2FB5 DUP11 PUSH1 0x0 ADD MLOAD DUP3 CALLVALUE SUB PUSH2 0x3163 JUMP JUMPDEST DUP3 SWAP2 POP PUSH2 0x2FFB JUMP JUMPDEST PUSH1 0x0 PUSH2 0x2FE2 DUP12 PUSH1 0x0 ADD MLOAD DUP14 PUSH1 0x40 ADD MLOAD PUSH2 0xFFFF AND PUSH2 0x2FD9 DUP6 PUSH2 0x163A JUMP JUMPDEST DUP9 SWAP3 SWAP2 SWAP1 PUSH2 0x23F2 JUMP JUMPDEST SWAP1 POP PUSH2 0x2FF7 PUSH2 0x2FF0 DUP3 PUSH2 0xF4B JUMP JUMPDEST DUP5 SWAP1 PUSH2 0x345C JUMP JUMPDEST SWAP3 POP POP JUMPDEST POP JUMPDEST DUP2 DUP2 LT ISZERO PUSH2 0x301D JUMPI PUSH1 0x40 MLOAD PUSH3 0x461BCD PUSH1 0xE5 SHL DUP2 MSTORE PUSH1 0x4 ADD PUSH2 0x317 SWAP1 PUSH2 0x54A5 JUMP JUMPDEST PUSH1 0x0 PUSH1 0x4 DUP6 PUSH1 0x60 ADD MLOAD PUSH1 0x5 DUP2 GT ISZERO PUSH2 0x3031 JUMPI INVALID JUMPDEST EQ ISZERO PUSH2 0x3047 JUMPI PUSH2 0x3040 DUP3 PUSH2 0x163A JUMP JUMPDEST SWAP1 POP PUSH2 0x3061 JUMP JUMPDEST DUP2 ISZERO PUSH2 0x3061 JUMPI PUSH1 0x40 DUP12 ADD MLOAD PUSH2 0x305E SWAP1 DUP7 SWAP1 DUP5 PUSH2 0x249A JUMP JUMPDEST SWAP1 POP JUMPDEST PUSH2 0x306B DUP6 DUP3 PUSH2 0x2591 JUMP JUMPDEST SWAP7 POP POP POP POP POP POP SWAP5 POP SWAP5 SWAP3 POP POP POP JUMP JUMPDEST PUSH2 0x140 DUP2 ADD MLOAD MLOAD PUSH1 0x0 SWAP1 PUSH2 0xFFFF AND ISZERO ISZERO DUP1 PUSH2 0xC39 JUMPI POP POP PUSH2 0x140 ADD MLOAD PUSH1 0x20 ADD MLOAD PUSH2 0xFFFF AND ISZERO ISZERO SWAP1 JUMP JUMPDEST PUSH1 0x0 PUSH5 0xFFFFFFFFFF DUP3 GT ISZERO PUSH2 0xF5A JUMPI PUSH1 0x0 DUP1 REVERT JUMPDEST PUSH1 0x0 PUSH4 0xFFFFFFFF DUP3 GT ISZERO PUSH2 0xF5A JUMPI PUSH1 0x0 DUP1 REVERT JUMPDEST PUSH1 0x0 PUSH3 0xF4240 DUP3 PUSH1 0x1A DUP2 GT ISZERO PUSH2 0x30DD JUMPI INVALID JUMPDEST ADD SWAP3 SWAP2 POP POP JUMP JUMPDEST PUSH1 0x0 DUP1 PUSH1 0x0 DUP1 PUSH1 0x0 DUP1 PUSH2 0x30F5 PUSH2 0x466B JUMP JUMPDEST PUSH1 0x1 PUSH1 0x1 PUSH1 0xA0 SHL SUB SWAP1 SWAP8 AND PUSH1 0x0 SWAP1 DUP2 MSTORE PUSH1 0x20 SWAP8 SWAP1 SWAP8 MSTORE POP POP PUSH1 0x40 SWAP1 SWAP5 KECCAK256 SLOAD PUSH2 0xFFFF DUP2 AND SWAP6 PUSH4 0xFFFFFFFF PUSH3 0x10000 DUP4 DIV DUP2 AND SWAP7 POP PUSH7 0x1000000000000 DUP4 DIV AND SWAP5 POP PUSH1 0xFF PUSH1 0x1 PUSH1 0x50 SHL DUP4 DIV AND SWAP4 POP PUSH1 0x1 PUSH1 0x58 SHL SWAP1 SWAP2 DIV PUSH1 0xD8 SHL SWAP2 POP JUMP JUMPDEST PUSH2 0x3158 PUSH2 0x4ECB JUMP JUMPDEST PUSH2 0xC39 DUP3 PUSH1 0x1 PUSH2 0x3221 JUMP JUMPDEST PUSH1 0x40 MLOAD PUSH1 0x1 PUSH1 0x1 PUSH1 0xA0 SHL SUB DUP4 AND SWAP1 DUP3 ISZERO PUSH2 0x8FC MUL SWAP1 DUP4 SWAP1 PUSH1 0x0 DUP2 DUP2 DUP2 DUP6 DUP9 DUP9 CALL SWAP4 POP POP POP POP ISZERO DUP1 ISZERO PUSH2 0x1031 JUMPI RETURNDATASIZE PUSH1 0x0 DUP1 RETURNDATACOPY RETURNDATASIZE PUSH1 0x0 REVERT JUMPDEST DUP4 PUSH1 0x1 PUSH1 0x1 PUSH1 0xA0 SHL SUB AND PUSH4 0x23B872DD DUP5 DUP5 DUP5 PUSH1 0x40 MLOAD DUP5 PUSH4 0xFFFFFFFF AND PUSH1 0xE0 SHL DUP2 MSTORE PUSH1 0x4 ADD DUP1 DUP5 PUSH1 0x1 PUSH1 0x1 PUSH1 0xA0 SHL SUB AND DUP2 MSTORE PUSH1 0x20 ADD DUP4 PUSH1 0x1 PUSH1 0x1 PUSH1 0xA0 SHL SUB AND DUP2 MSTORE PUSH1 0x20 ADD DUP3 DUP2 MSTORE PUSH1 0x20 ADD SWAP4 POP POP POP POP PUSH1 0x0 PUSH1 0x40 MLOAD DUP1 DUP4 SUB DUP2 PUSH1 0x0 DUP8 DUP1 EXTCODESIZE ISZERO DUP1 ISZERO PUSH2 0x3201 JUMPI PUSH1 0x0 DUP1 REVERT JUMPDEST POP GAS CALL ISZERO DUP1 ISZERO PUSH2 0x3215 JUMPI RETURNDATASIZE PUSH1 0x0 DUP1 RETURNDATACOPY RETURNDATASIZE PUSH1 0x0 REVERT JUMPDEST POP POP POP POP PUSH2 0x16C2 PUSH2 0x4678 JUMP JUMPDEST PUSH2 0x3229 PUSH2 0x4ECB JUMP JUMPDEST PUSH1 0x0 PUSH2 0x3233 PUSH2 0x46E5 JUMP JUMPDEST PUSH1 0x0 DUP6 DUP2 MSTORE PUSH1 0x20 DUP3 DUP2 MSTORE PUSH1 0x40 DUP1 DUP4 KECCAK256 DUP8 ISZERO ISZERO DUP5 MSTORE DUP3 MSTORE SWAP2 DUP3 SWAP1 KECCAK256 DUP3 MLOAD PUSH1 0xA0 DUP2 ADD DUP5 MSTORE DUP2 SLOAD PUSH1 0x1 PUSH1 0x1 PUSH1 0xA0 SHL SUB DUP2 AND DUP3 MSTORE PUSH1 0xFF PUSH1 0x1 PUSH1 0xA0 SHL DUP3 DIV DUP2 AND ISZERO ISZERO SWAP5 DUP4 ADD SWAP5 SWAP1 SWAP5 MSTORE PUSH1 0x1 PUSH1 0xB0 SHL DUP2 DIV DUP5 AND PUSH1 0xA EXP SWAP5 DUP3 ADD SWAP5 SWAP1 SWAP5 MSTORE SWAP4 SWAP5 POP SWAP3 SWAP2 PUSH1 0x60 DUP4 ADD SWAP2 PUSH1 0x1 PUSH1 0xA8 SHL SWAP1 SWAP2 DIV AND PUSH1 0x5 DUP2 GT ISZERO PUSH2 0x32A8 JUMPI INVALID JUMPDEST DUP2 MSTORE SWAP2 SLOAD PUSH1 0x1 PUSH1 0xB8 SHL SWAP1 DIV PUSH9 0xFFFFFFFFFFFFFFFFFF AND PUSH1 0x20 SWAP1 SWAP3 ADD SWAP2 SWAP1 SWAP2 MSTORE SWAP5 SWAP4 POP POP POP POP JUMP JUMPDEST PUSH1 0x0 DUP2 PUSH2 0x32DE JUMPI POP PUSH1 0x0 PUSH2 0xC39 JUMP JUMPDEST PUSH1 0x0 DUP3 SGT PUSH2 0x32EB JUMPI PUSH1 0x0 DUP1 REVERT JUMPDEST PUSH1 0x0 PUSH2 0x32F6 DUP5 PUSH2 0x3150 JUMP JUMPDEST SWAP1 POP PUSH1 0x0 PUSH2 0x3307 DUP3 PUSH1 0x0 ADD MLOAD PUSH2 0x46F2 JUMP JUMPDEST SWAP1 POP PUSH1 0x2 DUP2 SDIV PUSH12 0x33B2E3C9FD0803CE8000000 PUSH1 0x1 PUSH1 0x1 PUSH1 0xFF SHL SUB DUP3 SWAP1 SUB SDIV DUP6 SGT ISZERO PUSH2 0x3332 JUMPI PUSH1 0x0 DUP1 REVERT JUMPDEST DUP2 DUP2 PUSH12 0x33B2E3C9FD0803CE8000000 DUP8 MUL ADD DUP2 PUSH2 0x334B JUMPI INVALID JUMPDEST SDIV SWAP7 SWAP6 POP POP POP POP POP POP JUMP JUMPDEST PUSH1 0x0 DUP1 PUSH2 0x3361 PUSH2 0x477D JUMP JUMPDEST PUSH1 0x1 PUSH1 0x1 PUSH1 0xA0 SHL SUB DUP7 AND PUSH1 0x0 SWAP1 DUP2 MSTORE PUSH1 0x20 SWAP2 DUP3 MSTORE PUSH1 0x40 DUP1 DUP3 KECCAK256 PUSH2 0xFFFF DUP9 AND DUP4 MSTORE SWAP1 SWAP3 MSTORE KECCAK256 DUP1 SLOAD SWAP1 SWAP2 POP PUSH2 0x33A4 SWAP1 PUSH1 0x1 PUSH1 0x50 SHL SWAP1 DIV PUSH1 0x1 PUSH1 0x1 PUSH1 0x50 SHL SUB AND DUP5 PUSH2 0x2140 JUMP JUMPDEST SWAP2 POP PUSH1 0x0 DUP4 SLT ISZERO PUSH2 0x33D9 JUMPI DUP1 SLOAD PUSH1 0x1 PUSH1 0x1 PUSH1 0x50 SHL SUB AND DUP3 SGT ISZERO PUSH2 0x33D9 JUMPI PUSH1 0x40 MLOAD PUSH3 0x461BCD PUSH1 0xE5 SHL DUP2 MSTORE PUSH1 0x4 ADD PUSH2 0x317 SWAP1 PUSH2 0x5583 JUMP JUMPDEST PUSH2 0x33E5 PUSH2 0x119E DUP4 PUSH2 0xF4B JUMP JUMPDEST DUP2 SLOAD PUSH1 0x1 PUSH1 0x1 PUSH1 0x50 SHL SUB SWAP2 SWAP1 SWAP2 AND PUSH1 0x1 PUSH1 0x50 SHL MUL PUSH1 0x1 PUSH1 0x50 SHL PUSH1 0x1 PUSH1 0xA0 SHL SUB NOT SWAP1 SWAP2 AND OR DUP2 SSTORE PUSH1 0x40 MLOAD PUSH2 0xFFFF DUP6 AND SWAP1 PUSH1 0x1 PUSH1 0x1 PUSH1 0xA0 SHL SUB DUP8 AND SWAP1 PUSH32 0x20478EF460E49D010960D4F3FFF35D8DAE385443ABFAC09035D6A2CCBCD834C4 SWAP1 PUSH2 0x344C SWAP1 DUP7 SWAP1 PUSH2 0x53E0 JUMP JUMPDEST PUSH1 0x40 MLOAD DUP1 SWAP2 SUB SWAP1 LOG3 POP SWAP4 SWAP3 POP POP POP JUMP JUMPDEST PUSH1 0x0 DUP3 DUP3 ADD DUP4 DUP2 LT ISZERO PUSH2 0xC36 JUMPI PUSH1 0x0 DUP1 REVERT JUMPDEST PUSH1 0x0 DUP1 PUSH2 0x34B6 DUP9 PUSH1 0x40 MLOAD DUP1 PUSH1 0xA0 ADD PUSH1 0x40 MSTORE DUP1 DUP11 PUSH1 0x1 PUSH1 0x1 PUSH1 0xA0 SHL SUB AND DUP2 MSTORE PUSH1 0x20 ADD DUP11 PUSH1 0x1 PUSH1 0x1 PUSH1 0xA0 SHL SUB AND DUP2 MSTORE PUSH1 0x20 ADD DUP10 DUP2 MSTORE PUSH1 0x20 ADD DUP9 DUP2 MSTORE PUSH1 0x20 ADD PUSH1 0x0 DUP2 MSTORE POP DUP7 DUP7 PUSH2 0x2E06 JUMP JUMPDEST SWAP1 SWAP10 SWAP1 SWAP9 POP SWAP7 POP POP POP POP POP POP POP JUMP JUMPDEST PUSH1 0x0 DUP1 PUSH2 0xC39 PUSH1 0x14 PUSH2 0x30CB JUMP JUMPDEST PUSH1 0x0 DUP1 PUSH1 0x0 DUP1 PUSH1 0x0 PUSH2 0x34E3 DUP7 PUSH2 0x478A JUMP JUMPDEST SWAP1 SWAP3 POP SWAP1 POP PUSH1 0x0 PUSH1 0x1 PUSH1 0x1 PUSH1 0xA0 SHL SUB DUP4 AND PUSH2 0x3508 JUMPI POP PUSH1 0x0 SWAP1 POP PUSH5 0x2540BE400 PUSH2 0x3588 JUMP JUMPDEST DUP3 PUSH1 0x1 PUSH1 0x1 PUSH1 0xA0 SHL SUB AND PUSH4 0xB2FFFB04 PUSH1 0x40 MLOAD DUP2 PUSH4 0xFFFFFFFF AND PUSH1 0xE0 SHL DUP2 MSTORE PUSH1 0x4 ADD PUSH1 0x20 PUSH1 0x40 MLOAD DUP1 DUP4 SUB DUP2 DUP7 DUP1 EXTCODESIZE ISZERO DUP1 ISZERO PUSH2 0x3541 JUMPI PUSH1 0x0 DUP1 REVERT JUMPDEST POP GAS STATICCALL ISZERO DUP1 ISZERO PUSH2 0x3555 JUMPI RETURNDATASIZE PUSH1 0x0 DUP1 RETURNDATACOPY RETURNDATASIZE PUSH1 0x0 REVERT JUMPDEST POP POP POP POP PUSH1 0x40 MLOAD RETURNDATASIZE PUSH1 0x1F NOT PUSH1 0x1F DUP3 ADD AND DUP3 ADD DUP1 PUSH1 0x40 MSTORE POP DUP2 ADD SWAP1 PUSH2 0x3579 SWAP2 SWAP1 PUSH2 0x5253 JUMP JUMPDEST SWAP1 POP PUSH1 0x0 DUP2 SGT PUSH2 0x3588 JUMPI PUSH1 0x0 DUP1 REVERT JUMPDEST SWAP7 SWAP2 SWAP6 POP SWAP4 POP SWAP2 POP POP JUMP JUMPDEST PUSH1 0x0 DUP1 PUSH2 0x35A3 DUP8 PUSH2 0xFFFF AND PUSH2 0x3150 JUMP JUMPDEST SWAP1 POP DUP1 PUSH1 0x40 ADD MLOAD PUSH1 0x0 EQ ISZERO PUSH2 0x35C2 JUMPI PUSH2 0x35BF DUP8 PUSH2 0xFFFF AND PUSH2 0x1AFF JUMP JUMPDEST SWAP1 POP JUMPDEST PUSH1 0x40 MLOAD PUSH4 0xE9377111 PUSH1 0xE0 SHL DUP2 MSTORE PUSH2 0x2586 SWAP1 PUSH1 0x1 PUSH1 0x1 PUSH1 0xA0 SHL SUB DUP9 AND SWAP1 PUSH4 0xE9377111 SWAP1 PUSH2 0x35F6 SWAP1 DUP10 SWAP1 DUP10 SWAP1 DUP10 SWAP1 PUSH1 0x4 ADD PUSH2 0x5386 JUMP JUMPDEST PUSH1 0x20 PUSH1 0x40 MLOAD DUP1 DUP4 SUB DUP2 DUP7 DUP1 EXTCODESIZE ISZERO DUP1 ISZERO PUSH2 0x360E JUMPI PUSH1 0x0 DUP1 REVERT JUMPDEST POP GAS STATICCALL ISZERO DUP1 ISZERO PUSH2 0x3622 JUMPI RETURNDATASIZE PUSH1 0x0 DUP1 RETURNDATACOPY RETURNDATASIZE PUSH1 0x0 REVERT JUMPDEST POP POP POP POP PUSH1 0x40 MLOAD RETURNDATASIZE PUSH1 0x1F NOT PUSH1 0x1F DUP3 ADD AND DUP3 ADD DUP1 PUSH1 0x40 MSTORE POP DUP2 ADD SWAP1 PUSH2 0x3646 SWAP2 SWAP1 PUSH2 0x5253 JUMP JUMPDEST DUP3 SWAP1 PUSH2 0x2591 JUMP JUMPDEST PUSH2 0x3655 PUSH2 0x4F1C JUMP JUMPDEST PUSH1 0x0 PUSH2 0x365F PUSH2 0x47C1 JUMP JUMPDEST PUSH1 0x0 DUP5 DUP2 MSTORE PUSH1 0x20 DUP3 SWAP1 MSTORE PUSH1 0x40 DUP2 KECCAK256 SWAP2 SWAP3 POP DUP1 PUSH1 0x1 DUP7 EQ ISZERO PUSH2 0x368C JUMPI POP PUSH8 0xDE0B6B3A7640000 SWAP1 POP DUP1 PUSH2 0x3762 JUMP JUMPDEST DUP3 SLOAD PUSH1 0x40 DUP1 MLOAD PUSH4 0x3FABE5A3 PUSH1 0xE2 SHL DUP2 MSTORE SWAP1 MLOAD PUSH1 0x1 PUSH1 0x1 PUSH1 0xA0 SHL SUB SWAP1 SWAP3 AND SWAP2 PUSH4 0xFEAF968C SWAP2 PUSH1 0x4 DUP1 DUP3 ADD SWAP3 PUSH1 0xA0 SWAP3 SWAP1 SWAP2 SWAP1 DUP3 SWAP1 SUB ADD DUP2 DUP7 DUP1 EXTCODESIZE ISZERO DUP1 ISZERO PUSH2 0x36D0 JUMPI PUSH1 0x0 DUP1 REVERT JUMPDEST POP GAS STATICCALL ISZERO DUP1 ISZERO PUSH2 0x36E4 JUMPI RETURNDATASIZE PUSH1 0x0 DUP1 RETURNDATACOPY RETURNDATASIZE PUSH1 0x0 REVERT JUMPDEST POP POP POP POP PUSH1 0x40 MLOAD RETURNDATASIZE PUSH1 0x1F NOT PUSH1 0x1F DUP3 ADD AND DUP3 ADD DUP1 PUSH1 0x40 MSTORE POP DUP2 ADD SWAP1 PUSH2 0x3708 SWAP2 SWAP1 PUSH2 0x526B JUMP JUMPDEST POP SWAP2 SWAP4 POP POP PUSH1 0x0 DUP4 SGT SWAP2 POP PUSH2 0x3731 SWAP1 POP JUMPI PUSH1 0x40 MLOAD PUSH3 0x461BCD PUSH1 0xE5 SHL DUP2 MSTORE PUSH1 0x4 ADD PUSH2 0x317 SWAP1 PUSH2 0x5695 JUMP JUMPDEST DUP3 SLOAD PUSH1 0xFF PUSH1 0x1 PUSH1 0xA0 SHL DUP3 DIV DUP2 AND PUSH1 0xA EXP SWAP4 POP PUSH1 0x1 PUSH1 0xA8 SHL SWAP1 SWAP2 DIV AND ISZERO PUSH2 0x3762 JUMPI PUSH2 0x375F DUP2 PUSH2 0xF18 DUP5 DUP1 PUSH2 0x2188 JUMP JUMPDEST SWAP1 POP JUMPDEST PUSH1 0x40 DUP1 MLOAD PUSH1 0xA0 DUP2 ADD DUP3 MSTORE SWAP3 DUP4 MSTORE PUSH1 0x20 DUP4 ADD SWAP2 SWAP1 SWAP2 MSTORE SWAP2 SLOAD PUSH1 0xFF PUSH1 0x1 PUSH1 0xB0 SHL DUP3 DIV DUP2 AND SWAP4 DUP4 ADD SWAP4 SWAP1 SWAP4 MSTORE PUSH1 0x1 PUSH1 0xB8 SHL DUP2 DIV DUP4 AND PUSH1 0x60 DUP4 ADD MSTORE PUSH1 0x1 PUSH1 0xC0 SHL SWAP1 DIV SWAP1 SWAP2 AND PUSH1 0x80 DUP3 ADD MSTORE SWAP2 POP POP SWAP2 SWAP1 POP JUMP JUMPDEST PUSH1 0x0 DUP1 PUSH2 0x37BB PUSH2 0x47CE JUMP JUMPDEST PUSH1 0x1 PUSH1 0x1 PUSH1 0xA0 SHL SUB DUP7 AND PUSH1 0x0 SWAP1 DUP2 MSTORE PUSH1 0x20 SWAP2 DUP3 MSTORE PUSH1 0x40 DUP1 DUP3 KECCAK256 DUP8 DUP4 MSTORE DUP4 MSTORE DUP1 DUP3 KECCAK256 PUSH2 0xFFFF DUP11 AND DUP4 MSTORE SWAP1 SWAP3 MSTORE SWAP1 DUP2 KECCAK256 DUP1 SLOAD SWAP1 SWAP3 POP PUSH1 0x1 PUSH1 0x1 PUSH1 0x50 SHL SUB DUP1 DUP3 AND SWAP3 PUSH1 0x1 PUSH1 0x50 SHL SWAP1 SWAP3 DIV AND SWAP1 PUSH2 0x3815 PUSH2 0x2581 DUP4 PUSH2 0x2DB DUP10 DUP8 PUSH2 0xF62 JUMP JUMPDEST SWAP1 POP PUSH1 0x0 PUSH2 0x3826 DUP11 PUSH2 0xFFFF AND PUSH2 0x364D JUMP JUMPDEST SWAP1 POP PUSH1 0x0 PUSH2 0x3834 DUP13 DUP4 PUSH2 0x47DB JUMP JUMPDEST SWAP1 POP PUSH2 0x3851 DUP2 PUSH2 0xF18 DUP15 PUSH1 0x0 ADD MLOAD DUP7 PUSH2 0x2188 SWAP1 SWAP2 SWAP1 PUSH4 0xFFFFFFFF AND JUMP JUMPDEST SWAP13 SWAP12 POP POP POP POP POP POP POP POP POP POP POP POP JUMP JUMPDEST PUSH1 0x0 DUP1 PUSH1 0x0 DUP1 PUSH1 0x0 PUSH2 0x3872 DUP7 PUSH2 0x478A JUMP JUMPDEST SWAP1 SWAP3 POP SWAP1 POP PUSH1 0x0 PUSH1 0x1 PUSH1 0x1 PUSH1 0xA0 SHL SUB DUP4 AND PUSH2 0x3897 JUMPI POP PUSH1 0x0 SWAP1 POP PUSH5 0x2540BE400 PUSH2 0x3588 JUMP JUMPDEST DUP3 PUSH1 0x1 PUSH1 0x1 PUSH1 0xA0 SHL SUB AND PUSH4 0x1EE10833 PUSH1 0x40 MLOAD DUP2 PUSH4 0xFFFFFFFF AND PUSH1 0xE0 SHL DUP2 MSTORE PUSH1 0x4 ADD PUSH1 0x20 PUSH1 0x40 MLOAD DUP1 DUP4 SUB DUP2 PUSH1 0x0 DUP8 DUP1 EXTCODESIZE ISZERO DUP1 ISZERO PUSH2 0x38D2 JUMPI PUSH1 0x0 DUP1 REVERT JUMPDEST POP GAS CALL ISZERO DUP1 ISZERO PUSH2 0x3555 JUMPI RETURNDATASIZE PUSH1 0x0 DUP1 RETURNDATACOPY RETURNDATASIZE PUSH1 0x0 REVERT JUMPDEST PUSH1 0x0 DUP1 DUP3 SLT ISZERO PUSH2 0x3900 JUMPI PUSH2 0x38F9 DUP3 PUSH2 0x10AA JUMP JUMPDEST SWAP1 POP PUSH2 0xF5D JUMP JUMPDEST POP DUP1 PUSH2 0xF5D JUMP JUMPDEST PUSH1 0x0 DUP2 PUSH2 0x3916 JUMPI POP PUSH1 0x0 PUSH2 0xC39 JUMP JUMPDEST PUSH1 0x0 PUSH2 0x3921 DUP5 PUSH2 0x46F2 JUMP JUMPDEST SWAP1 POP PUSH1 0x0 PUSH2 0x392E DUP5 PUSH2 0x38E6 JUMP JUMPDEST SWAP1 POP DUP2 PUSH12 0x19D971E4FE8401E74000001 PUSH1 0x1 PUSH1 0xFF SHL SUB DUP2 PUSH2 0x394B JUMPI INVALID JUMPDEST SDIV DUP2 SGT ISZERO PUSH2 0x3958 JUMPI PUSH1 0x0 DUP1 REVERT JUMPDEST PUSH12 0x33B2E3C9FD0803CE8000000 PUSH12 0x19D971E4FE8401E74000000 DUP4 DUP4 MUL ADD SDIV PUSH1 0x0 DUP6 SGT PUSH2 0x398D JUMPI PUSH2 0x3988 DUP2 PUSH2 0x10AA JUMP JUMPDEST PUSH2 0x2DFC JUMP JUMPDEST SWAP6 SWAP5 POP POP POP POP POP JUMP JUMPDEST PUSH1 0x0 DUP1 DUP1 DUP1 PUSH1 0x5 DUP8 PUSH1 0x60 ADD MLOAD PUSH1 0x5 DUP2 GT ISZERO PUSH2 0x39AD JUMPI INVALID JUMPDEST EQ PUSH2 0x39BF JUMPI PUSH4 0x70A08231 PUSH1 0xE0 SHL PUSH2 0x39C8 JUMP JUMPDEST PUSH4 0xED1279F PUSH1 0xE1 SHL JUMPDEST SWAP1 POP DUP7 PUSH1 0x20 ADD MLOAD ISZERO PUSH2 0x39E4 JUMPI DUP7 MLOAD PUSH2 0x39E1 SWAP1 ADDRESS DUP4 PUSH2 0x3AF6 JUMP JUMPDEST SWAP3 POP JUMPDEST DUP7 MLOAD PUSH2 0x39F1 SWAP1 DUP8 DUP8 PUSH2 0x4800 JUMP JUMPDEST DUP7 PUSH1 0x20 ADD MLOAD DUP1 PUSH2 0x3A05 JUMPI POP PUSH1 0x0 DUP8 PUSH1 0x80 ADD MLOAD GT JUMPDEST ISZERO PUSH2 0x3A1A JUMPI DUP7 MLOAD PUSH2 0x3A17 SWAP1 ADDRESS DUP4 PUSH2 0x3AF6 JUMP JUMPDEST SWAP2 POP JUMPDEST PUSH1 0x80 DUP8 ADD MLOAD ISZERO PUSH2 0x3A55 JUMPI PUSH1 0x0 PUSH2 0x3A38 DUP9 PUSH2 0x3A33 DUP6 PUSH2 0x163A JUMP JUMPDEST PUSH2 0x2591 JUMP JUMPDEST SWAP1 POP PUSH2 0x3A47 DUP9 PUSH1 0x80 ADD MLOAD PUSH2 0x163A JUMP JUMPDEST DUP2 SGT ISZERO PUSH2 0x3A53 JUMPI PUSH1 0x0 DUP1 REVERT JUMPDEST POP JUMPDEST DUP7 PUSH1 0x20 ADD MLOAD ISZERO PUSH2 0x3A76 JUMPI PUSH2 0x3A6C PUSH2 0x2581 DUP4 DUP6 PUSH2 0x3D68 JUMP JUMPDEST SWAP4 POP POP POP POP PUSH2 0x15BC JUMP JUMPDEST PUSH2 0x3A6C DUP6 PUSH2 0x163A JUMP JUMPDEST DUP3 PUSH1 0x1 PUSH1 0x1 PUSH1 0xA0 SHL SUB AND PUSH4 0xA9059CBB DUP4 DUP4 PUSH1 0x40 MLOAD DUP4 PUSH4 0xFFFFFFFF AND PUSH1 0xE0 SHL DUP2 MSTORE PUSH1 0x4 ADD DUP1 DUP4 PUSH1 0x1 PUSH1 0x1 PUSH1 0xA0 SHL SUB AND DUP2 MSTORE PUSH1 0x20 ADD DUP3 DUP2 MSTORE PUSH1 0x20 ADD SWAP3 POP POP POP PUSH1 0x0 PUSH1 0x40 MLOAD DUP1 DUP4 SUB DUP2 PUSH1 0x0 DUP8 DUP1 EXTCODESIZE ISZERO DUP1 ISZERO PUSH2 0x3AD6 JUMPI PUSH1 0x0 DUP1 REVERT JUMPDEST POP GAS CALL ISZERO DUP1 ISZERO PUSH2 0x3AEA JUMPI RETURNDATASIZE PUSH1 0x0 DUP1 RETURNDATACOPY RETURNDATASIZE PUSH1 0x0 REVERT JUMPDEST POP POP POP POP PUSH2 0x1031 PUSH2 0x4678 JUMP JUMPDEST PUSH1 0x40 DUP1 MLOAD PUSH1 0x1 PUSH1 0x1 PUSH1 0xA0 SHL SUB DUP5 DUP2 AND PUSH1 0x24 DUP1 DUP5 ADD SWAP2 SWAP1 SWAP2 MSTORE DUP4 MLOAD DUP1 DUP5 SUB SWAP1 SWAP2 ADD DUP2 MSTORE PUSH1 0x44 SWAP1 SWAP3 ADD DUP4 MSTORE PUSH1 0x20 DUP3 ADD DUP1 MLOAD PUSH1 0x1 PUSH1 0x1 PUSH1 0xE0 SHL SUB AND PUSH1 0x1 PUSH1 0x1 PUSH1 0xE0 SHL SUB NOT DUP7 AND OR DUP2 MSTORE SWAP3 MLOAD DUP3 MLOAD PUSH1 0x0 SWAP5 DUP6 SWAP5 DUP6 SWAP5 DUP11 AND SWAP4 SWAP1 SWAP3 SWAP1 SWAP2 DUP3 SWAP2 DUP1 DUP4 DUP4 JUMPDEST PUSH1 0x20 DUP4 LT PUSH2 0x3B73 JUMPI DUP1 MLOAD DUP3 MSTORE PUSH1 0x1F NOT SWAP1 SWAP3 ADD SWAP2 PUSH1 0x20 SWAP2 DUP3 ADD SWAP2 ADD PUSH2 0x3B54 JUMP JUMPDEST PUSH1 0x1 DUP4 PUSH1 0x20 SUB PUSH2 0x100 EXP SUB DUP1 NOT DUP3 MLOAD AND DUP2 DUP5 MLOAD AND DUP1 DUP3 OR DUP6 MSTORE POP POP POP POP POP POP SWAP1 POP ADD SWAP2 POP POP PUSH1 0x0 PUSH1 0x40 MLOAD DUP1 DUP4 SUB DUP2 DUP6 GAS STATICCALL SWAP2 POP POP RETURNDATASIZE DUP1 PUSH1 0x0 DUP2 EQ PUSH2 0x3BD3 JUMPI PUSH1 0x40 MLOAD SWAP2 POP PUSH1 0x1F NOT PUSH1 0x3F RETURNDATASIZE ADD AND DUP3 ADD PUSH1 0x40 MSTORE RETURNDATASIZE DUP3 MSTORE RETURNDATASIZE PUSH1 0x0 PUSH1 0x20 DUP5 ADD RETURNDATACOPY PUSH2 0x3BD8 JUMP JUMPDEST PUSH1 0x60 SWAP2 POP JUMPDEST POP SWAP2 POP SWAP2 POP DUP2 PUSH2 0x3BE7 JUMPI PUSH1 0x0 DUP1 REVERT JUMPDEST DUP1 DUP1 PUSH1 0x20 ADD SWAP1 MLOAD PUSH1 0x20 DUP2 LT ISZERO PUSH2 0x3BFC JUMPI PUSH1 0x0 DUP1 REVERT JUMPDEST POP MLOAD SWAP7 SWAP6 POP POP POP POP POP POP JUMP JUMPDEST PUSH2 0x3C10 PUSH2 0x4858 JUMP JUMPDEST SLOAD DUP3 MLOAD PUSH1 0x40 MLOAD PUSH4 0xE8EDA9DF PUSH1 0xE0 SHL DUP2 MSTORE PUSH1 0x1 PUSH1 0x1 PUSH1 0xA0 SHL SUB SWAP1 SWAP3 AND SWAP2 PUSH4 0xE8EDA9DF SWAP2 PUSH2 0x3C45 SWAP2 DUP6 SWAP1 ADDRESS SWAP1 PUSH1 0x0 SWAP1 PUSH1 0x4 ADD PUSH2 0x5359 JUMP JUMPDEST PUSH1 0x0 PUSH1 0x40 MLOAD DUP1 DUP4 SUB DUP2 PUSH1 0x0 DUP8 DUP1 EXTCODESIZE ISZERO DUP1 ISZERO PUSH2 0x3C5F JUMPI PUSH1 0x0 DUP1 REVERT JUMPDEST POP GAS CALL ISZERO DUP1 ISZERO PUSH2 0x1CA9 JUMPI RETURNDATASIZE PUSH1 0x0 DUP1 RETURNDATACOPY RETURNDATASIZE PUSH1 0x0 REVERT JUMPDEST DUP2 MLOAD PUSH1 0x40 MLOAD PUSH4 0x140E25AD PUSH1 0xE3 SHL DUP2 MSTORE PUSH1 0x0 SWAP2 PUSH1 0x1 PUSH1 0x1 PUSH1 0xA0 SHL SUB AND SWAP1 PUSH4 0xA0712D68 SWAP1 PUSH2 0x3CA3 SWAP1 DUP6 SWAP1 PUSH1 0x4 ADD PUSH2 0x53E0 JUMP JUMPDEST PUSH1 0x20 PUSH1 0x40 MLOAD DUP1 DUP4 SUB DUP2 PUSH1 0x0 DUP8 DUP1 EXTCODESIZE ISZERO DUP1 ISZERO PUSH2 0x3CBD JUMPI PUSH1 0x0 DUP1 REVERT JUMPDEST POP GAS CALL ISZERO DUP1 ISZERO PUSH2 0x3CD1 JUMPI RETURNDATASIZE PUSH1 0x0 DUP1 RETURNDATACOPY RETURNDATASIZE PUSH1 0x0 REVERT JUMPDEST POP POP POP POP PUSH1 0x40 MLOAD RETURNDATASIZE PUSH1 0x1F NOT PUSH1 0x1F DUP3 ADD AND DUP3 ADD DUP1 PUSH1 0x40 MSTORE POP DUP2 ADD SWAP1 PUSH2 0x3CF5 SWAP2 SWAP1 PUSH2 0x5253 JUMP JUMPDEST SWAP1 POP DUP1 ISZERO PUSH2 0x1031 JUMPI PUSH1 0x40 MLOAD PUSH3 0x461BCD PUSH1 0xE5 SHL DUP2 MSTORE PUSH1 0x4 ADD PUSH2 0x317 SWAP1 PUSH2 0x5467 JUMP JUMPDEST DUP2 PUSH1 0x0 ADD MLOAD PUSH1 0x1 PUSH1 0x1 PUSH1 0xA0 SHL SUB AND PUSH4 0x1249C58B DUP3 PUSH1 0x40 MLOAD DUP3 PUSH4 0xFFFFFFFF AND PUSH1 0xE0 SHL DUP2 MSTORE PUSH1 0x4 ADD PUSH1 0x0 PUSH1 0x40 MLOAD DUP1 DUP4 SUB DUP2 DUP6 DUP9 DUP1 EXTCODESIZE ISZERO DUP1 ISZERO PUSH2 0x3D54 JUMPI PUSH1 0x0 DUP1 REVERT JUMPDEST POP GAS CALL ISZERO DUP1 ISZERO PUSH2 0x113D JUMPI RETURNDATASIZE PUSH1 0x0 DUP1 RETURNDATACOPY RETURNDATASIZE PUSH1 0x0 REVERT JUMPDEST PUSH1 0x0 DUP3 DUP3 GT ISZERO PUSH2 0x1C0A JUMPI PUSH1 0x40 DUP1 MLOAD PUSH3 0x461BCD PUSH1 0xE5 SHL DUP2 MSTORE PUSH1 0x20 PUSH1 0x4 DUP3 ADD MSTORE PUSH1 0x1E PUSH1 0x24 DUP3 ADD MSTORE PUSH32 0x536166654D6174683A207375627472616374696F6E206F766572666C6F770000 PUSH1 0x44 DUP3 ADD MSTORE SWAP1 MLOAD SWAP1 DUP2 SWAP1 SUB PUSH1 0x64 ADD SWAP1 REVERT JUMPDEST PUSH1 0x0 PUSH2 0x3DE4 PUSH4 0x1DA9C00 PUSH2 0xF18 PUSH2 0x3DD9 PUSH2 0x2581 DUP8 DUP8 PUSH2 0x1BFB JUMP JUMPDEST PUSH1 0x80 DUP11 ADD MLOAD SWAP1 PUSH2 0x2188 JUMP JUMPDEST SWAP1 POP PUSH1 0x0 PUSH2 0x3DF2 DUP6 DUP4 PUSH2 0x216F JUMP JUMPDEST SWAP1 POP PUSH1 0x0 PUSH2 0x3E12 PUSH1 0x64 PUSH2 0xF18 DUP11 PUSH1 0xE0 ADD MLOAD DUP6 PUSH2 0x2188 SWAP1 SWAP2 SWAP1 PUSH4 0xFFFFFFFF AND JUMP JUMPDEST SWAP1 POP PUSH1 0x0 PUSH2 0x3E20 DUP4 DUP4 PUSH2 0x2140 JUMP JUMPDEST SWAP1 POP PUSH2 0x3E34 DUP10 PUSH1 0x40 ADD MLOAD PUSH2 0xFFFF AND DUP4 PUSH2 0x4865 JUMP JUMPDEST PUSH2 0x3E46 DUP10 PUSH1 0x40 ADD MLOAD PUSH2 0xFFFF AND DUP3 PUSH2 0x48EC JUMP JUMPDEST PUSH1 0x80 DUP9 ADD MLOAD PUSH2 0x3E55 SWAP1 DUP5 PUSH2 0x2140 JUMP JUMPDEST DUP9 PUSH1 0x80 ADD DUP2 DUP2 MSTORE POP POP DUP6 DUP10 PUSH1 0x40 ADD MLOAD PUSH2 0xFFFF AND DUP11 PUSH1 0x0 ADD MLOAD PUSH1 0x1 PUSH1 0x1 PUSH1 0xA0 SHL SUB AND PUSH32 0x7456CB4B7C3068832FB334A03D3CD8E440286BAD834CB9E332DF05AE6792CFBB DUP6 DUP6 PUSH1 0x40 MLOAD PUSH2 0x3EA7 SWAP3 SWAP2 SWAP1 PUSH2 0x53E9 JUMP JUMPDEST PUSH1 0x40 MLOAD DUP1 SWAP2 SUB SWAP1 LOG4 POP POP POP POP POP POP POP POP POP JUMP JUMPDEST PUSH1 0x0 DUP1 PUSH2 0x3EC6 DUP4 PUSH2 0x4938 JUMP JUMPDEST PUSH1 0xFF AND SWAP4 SWAP3 POP POP POP JUMP JUMPDEST PUSH1 0x0 DUP1 PUSH1 0x0 DUP6 GT PUSH2 0x3EF3 JUMPI PUSH1 0x40 MLOAD PUSH3 0x461BCD PUSH1 0xE5 SHL DUP2 MSTORE PUSH1 0x4 ADD PUSH2 0x317 SWAP1 PUSH2 0x54D5 JUMP JUMPDEST PUSH1 0x7 DUP6 GT ISZERO PUSH2 0x3F14 JUMPI PUSH1 0x40 MLOAD PUSH3 0x461BCD PUSH1 0xE5 SHL DUP2 MSTORE PUSH1 0x4 ADD PUSH2 0x317 SWAP1 PUSH2 0x55CE JUMP JUMPDEST PUSH1 0x0 PUSH2 0x3F1F DUP5 PUSH2 0x4955 JUMP JUMPDEST SWAP1 POP PUSH1 0x1 JUMPDEST DUP7 DUP2 GT PUSH2 0x3F77 JUMPI PUSH1 0x0 PUSH2 0x3F40 PUSH2 0x3F39 DUP4 PUSH2 0x4973 JUMP JUMPDEST DUP5 SWAP1 PUSH2 0x4A17 JUMP JUMPDEST SWAP1 POP DUP7 DUP2 EQ ISZERO PUSH2 0x3F58 JUMPI POP SWAP3 POP PUSH1 0x0 SWAP2 POP PUSH2 0x3F90 SWAP1 POP JUMP JUMPDEST DUP7 DUP2 GT ISZERO PUSH2 0x3F6E JUMPI POP SWAP3 POP PUSH1 0x1 SWAP2 POP PUSH2 0x3F90 SWAP1 POP JUMP JUMPDEST POP PUSH1 0x1 ADD PUSH2 0x3F24 JUMP JUMPDEST POP PUSH1 0x40 MLOAD PUSH3 0x461BCD PUSH1 0xE5 SHL DUP2 MSTORE PUSH1 0x4 ADD PUSH2 0x317 SWAP1 PUSH2 0x577D JUMP JUMPDEST SWAP4 POP SWAP4 SWAP2 POP POP JUMP JUMPDEST PUSH1 0x0 DUP5 PUSH1 0xA0 ADD MLOAD PUSH1 0x0 EQ ISZERO PUSH2 0x3FAE JUMPI POP DUP2 PUSH2 0x3FD0 JUMP JUMPDEST PUSH2 0x3FCD DUP6 PUSH1 0xA0 ADD MLOAD PUSH2 0x2DB DUP8 PUSH1 0x60 ADD MLOAD DUP7 PUSH2 0xF62 SWAP1 SWAP2 SWAP1 PUSH4 0xFFFFFFFF AND JUMP JUMPDEST SWAP1 POP JUMPDEST PUSH1 0xA0 DUP6 ADD MLOAD PUSH2 0x3FDF SWAP1 DUP5 PUSH2 0x345C JUMP JUMPDEST PUSH1 0xA0 DUP7 ADD MSTORE PUSH1 0x60 DUP6 ADD MLOAD PUSH2 0x3FF3 SWAP1 DUP3 PUSH2 0x345C JUMP JUMPDEST PUSH1 0x60 DUP7 ADD MSTORE PUSH1 0x40 DUP5 ADD MLOAD PUSH2 0x4007 SWAP1 DUP3 PUSH2 0x345C JUMP JUMPDEST PUSH1 0x40 DUP6 ADD MSTORE PUSH2 0x1C3B DUP6 DUP4 PUSH2 0x1146 JUMP JUMPDEST PUSH1 0x0 DUP1 PUSH2 0x402C DUP10 PUSH1 0x0 ADD MLOAD DUP11 PUSH1 0x40 ADD MLOAD DUP10 PUSH2 0x151A JUMP JUMPDEST DUP10 MLOAD SWAP1 SWAP2 POP PUSH1 0x1 PUSH1 0x1 PUSH1 0xA0 SHL SUB AND PUSH4 0xDC6679C5 DUP10 PUSH2 0x404A DUP5 DUP10 PUSH2 0x345C JUMP JUMPDEST DUP10 DUP9 DUP9 PUSH1 0x40 MLOAD DUP7 PUSH4 0xFFFFFFFF AND PUSH1 0xE0 SHL DUP2 MSTORE PUSH1 0x4 ADD PUSH2 0x406D SWAP6 SWAP5 SWAP4 SWAP3 SWAP2 SWAP1 PUSH2 0x53A7 JUMP JUMPDEST PUSH1 0x20 PUSH1 0x40 MLOAD DUP1 DUP4 SUB DUP2 PUSH1 0x0 DUP8 DUP1 EXTCODESIZE ISZERO DUP1 ISZERO PUSH2 0x4087 JUMPI PUSH1 0x0 DUP1 REVERT JUMPDEST POP GAS CALL ISZERO DUP1 ISZERO PUSH2 0x409B JUMPI RETURNDATASIZE PUSH1 0x0 DUP1 RETURNDATACOPY RETURNDATASIZE PUSH1 0x0 REVERT JUMPDEST POP POP POP POP PUSH1 0x40 MLOAD RETURNDATASIZE PUSH1 0x1F NOT PUSH1 0x1F DUP3 ADD AND DUP3 ADD DUP1 PUSH1 0x40 MSTORE POP DUP2 ADD SWAP1 PUSH2 0x40BF SWAP2 SWAP1 PUSH2 0x5253 JUMP JUMPDEST SWAP10 SWAP9 POP POP POP POP POP POP POP POP POP JUMP JUMPDEST PUSH1 0x0 DUP1 PUSH1 0x0 PUSH2 0x40D9 PUSH2 0x4113 JUMP JUMPDEST PUSH1 0x0 SWAP6 DUP7 MSTORE PUSH1 0x20 SWAP1 DUP2 MSTORE PUSH1 0x40 DUP1 DUP8 KECCAK256 SWAP6 DUP8 MSTORE SWAP5 SWAP1 MSTORE POP POP POP SWAP1 KECCAK256 SLOAD PUSH1 0x1 PUSH1 0x28 SHL DUP2 DIV PUSH1 0x1 PUSH1 0x1 PUSH1 0x80 SHL SUB AND SWAP2 PUSH1 0x1 PUSH1 0xA8 SHL SWAP1 SWAP2 DIV PUSH1 0xFF AND SWAP1 JUMP JUMPDEST PUSH1 0x0 DUP1 PUSH2 0xC39 PUSH1 0x8 PUSH2 0x30CB JUMP JUMPDEST PUSH1 0x0 DUP1 PUSH2 0xFFFF DUP5 AND PUSH2 0x4137 JUMPI POP PUSH1 0x0 SWAP1 POP DUP1 PUSH2 0x41AB JUMP JUMPDEST PUSH1 0x0 PUSH2 0x4141 PUSH2 0x47CE JUMP JUMPDEST PUSH1 0x1 PUSH1 0x1 PUSH1 0xA0 SHL SUB DUP9 AND PUSH1 0x0 SWAP1 DUP2 MSTORE PUSH1 0x20 SWAP2 DUP3 MSTORE PUSH1 0x40 DUP1 DUP3 KECCAK256 DUP10 DUP4 MSTORE DUP4 MSTORE DUP1 DUP3 KECCAK256 PUSH2 0xFFFF DUP10 AND DUP4 MSTORE SWAP1 SWAP3 MSTORE KECCAK256 DUP1 SLOAD SWAP1 SWAP2 POP PUSH1 0x1 PUSH1 0x1 PUSH1 0x50 SHL SUB PUSH1 0x1 PUSH1 0xA0 SHL DUP3 DIV DUP2 AND SWAP2 PUSH1 0x1 PUSH1 0x50 SHL SWAP1 DIV AND DUP6 ISZERO PUSH2 0x41A6 JUMPI PUSH2 0x41A3 PUSH2 0x2581 DUP3 PUSH2 0x2DB DUP10 DUP7 PUSH2 0xF62 JUMP JUMPDEST SWAP4 POP JUMPDEST POP SWAP3 POP POP JUMPDEST SWAP5 POP SWAP5 SWAP3 POP POP POP JUMP JUMPDEST PUSH1 0x0 DUP1 PUSH2 0xC39 PUSH1 0x19 PUSH2 0x30CB JUMP JUMPDEST PUSH1 0x0 PUSH2 0x41CE DUP6 PUSH1 0x0 PUSH2 0x4A71 JUMP JUMPDEST DUP5 PUSH1 0x1 PUSH1 0x1 PUSH1 0xA0 SHL SUB AND PUSH32 0x7C51C6AA77346C54CB051D9E792F9B7BDE5C28A9B57E6FB2D2DD727B38438CA9 PUSH1 0x0 PUSH1 0x40 MLOAD PUSH2 0x4208 SWAP2 SWAP1 PUSH2 0x53D5 JUMP JUMPDEST PUSH1 0x40 MLOAD DUP1 SWAP2 SUB SWAP1 LOG2 DUP2 DUP5 PUSH2 0xFFFF AND DUP7 PUSH1 0x1 PUSH1 0x1 PUSH1 0xA0 SHL SUB AND PUSH32 0x823B641D46550301006F807A26587634F15BD13749EFDC8859734377D5304A3B DUP7 PUSH1 0x40 MLOAD PUSH2 0x424F SWAP2 SWAP1 PUSH2 0x53E0 JUMP JUMPDEST PUSH1 0x40 MLOAD DUP1 SWAP2 SUB SWAP1 LOG4 PUSH1 0x0 PUSH2 0x4268 PUSH1 0x0 DUP7 PUSH2 0xFFFF AND PUSH2 0x4AD1 JUMP JUMPDEST POP POP POP SWAP1 POP DUP1 DUP5 SGT PUSH2 0x4288 JUMPI PUSH2 0x4280 DUP6 DUP6 DUP4 SUB PUSH2 0x4B7A JUMP JUMPDEST DUP4 SWAP2 POP PUSH2 0x42E0 JUMP JUMPDEST PUSH2 0x4293 DUP6 PUSH1 0x0 PUSH2 0x4B7A JUMP JUMPDEST DUP3 DUP6 PUSH2 0xFFFF AND DUP8 PUSH1 0x1 PUSH1 0x1 PUSH1 0xA0 SHL SUB AND PUSH32 0x3A717B6924E3AD05B8C7609A2401472AF90869B52CC3C9CA69B50100B4BE6316 DUP5 DUP9 SUB PUSH1 0x40 MLOAD PUSH2 0x42D4 SWAP2 SWAP1 PUSH2 0x53E0 JUMP JUMPDEST PUSH1 0x40 MLOAD DUP1 SWAP2 SUB SWAP1 LOG4 DUP1 SWAP2 POP JUMPDEST POP SWAP5 SWAP4 POP POP POP POP JUMP JUMPDEST PUSH1 0x0 PUSH10 0x7FFFFFFFFFFFFFFFFFFF NOT DUP3 SLT DUP1 ISZERO SWAP1 PUSH2 0x4310 JUMPI POP PUSH10 0x7FFFFFFFFFFFFFFFFFFF DUP3 SGT ISZERO JUMPDEST PUSH2 0xF5A JUMPI PUSH1 0x0 DUP1 REVERT JUMPDEST DUP3 MLOAD PUSH1 0x40 MLOAD PUSH4 0xDB006A75 PUSH1 0xE0 SHL DUP2 MSTORE PUSH1 0x0 SWAP2 SELFBALANCE SWAP2 DUP4 SWAP2 PUSH1 0x1 PUSH1 0x1 PUSH1 0xA0 SHL SUB AND SWAP1 PUSH4 0xDB006A75 SWAP1 PUSH2 0x434D SWAP1 DUP8 SWAP1 PUSH1 0x4 ADD PUSH2 0x53E0 JUMP JUMPDEST PUSH1 0x20 PUSH1 0x40 MLOAD DUP1 DUP4 SUB DUP2 PUSH1 0x0 DUP8 DUP1 EXTCODESIZE ISZERO DUP1 ISZERO PUSH2 0x4367 JUMPI PUSH1 0x0 DUP1 REVERT JUMPDEST POP GAS CALL ISZERO DUP1 ISZERO PUSH2 0x437B JUMPI RETURNDATASIZE PUSH1 0x0 DUP1 RETURNDATACOPY RETURNDATASIZE PUSH1 0x0 REVERT JUMPDEST POP POP POP POP PUSH1 0x40 MLOAD RETURNDATASIZE PUSH1 0x1F NOT PUSH1 0x1F DUP3 ADD AND DUP3 ADD DUP1 PUSH1 0x40 MSTORE POP DUP2 ADD SWAP1 PUSH2 0x439F SWAP2 SWAP1 PUSH2 0x5253 JUMP JUMPDEST SWAP1 POP DUP1 ISZERO PUSH2 0x43BF JUMPI PUSH1 0x40 MLOAD PUSH3 0x461BCD PUSH1 0xE5 SHL DUP2 MSTORE PUSH1 0x4 ADD PUSH2 0x317 SWAP1 PUSH2 0x5485 JUMP JUMPDEST SELFBALANCE PUSH2 0x43CA DUP2 DUP5 PUSH2 0x3D68 JUMP JUMPDEST SWAP4 POP PUSH2 0x1A0A DUP7 DUP6 PUSH2 0x3163 JUMP JUMPDEST PUSH1 0x0 PUSH2 0x43F1 PUSH2 0x1199 DUP6 PUSH1 0x0 ADD MLOAD PUSH2 0x43EC DUP6 PUSH2 0x163A JUMP JUMPDEST PUSH2 0x3907 JUMP JUMPDEST SWAP1 POP PUSH2 0x43FB PUSH2 0x4858 JUMP JUMPDEST SLOAD DUP5 MLOAD PUSH1 0x40 MLOAD PUSH4 0x1A4CA37B PUSH1 0xE2 SHL DUP2 MSTORE PUSH1 0x1 PUSH1 0x1 PUSH1 0xA0 SHL SUB SWAP1 SWAP3 AND SWAP2 PUSH4 0x69328DEC SWAP2 PUSH2 0x442D SWAP2 DUP6 SWAP1 DUP9 SWAP1 PUSH1 0x4 ADD PUSH2 0x5336 JUMP JUMPDEST PUSH1 0x20 PUSH1 0x40 MLOAD DUP1 DUP4 SUB DUP2 PUSH1 0x0 DUP8 DUP1 EXTCODESIZE ISZERO DUP1 ISZERO PUSH2 0x4447 JUMPI PUSH1 0x0 DUP1 REVERT JUMPDEST POP GAS CALL ISZERO DUP1 ISZERO PUSH2 0x445B JUMPI RETURNDATASIZE PUSH1 0x0 DUP1 RETURNDATACOPY RETURNDATASIZE PUSH1 0x0 REVERT JUMPDEST POP POP POP POP PUSH1 0x40 MLOAD RETURNDATASIZE PUSH1 0x1F NOT PUSH1 0x1F DUP3 ADD AND DUP3 ADD DUP1 PUSH1 0x40 MSTORE POP DUP2 ADD SWAP1 PUSH2 0x447F SWAP2 SWAP1 PUSH2 0x5253 JUMP JUMPDEST POP SWAP4 SWAP3 POP POP POP JUMP JUMPDEST DUP3 MLOAD PUSH1 0x0 SWAP1 DUP2 SWAP1 PUSH2 0x44A0 SWAP1 ADDRESS PUSH4 0x70A08231 PUSH1 0xE0 SHL PUSH2 0x3AF6 JUMP JUMPDEST SWAP1 POP PUSH1 0x0 DUP7 PUSH1 0x0 ADD MLOAD PUSH1 0x1 PUSH1 0x1 PUSH1 0xA0 SHL SUB AND PUSH4 0xDB006A75 DUP6 PUSH1 0x40 MLOAD DUP3 PUSH4 0xFFFFFFFF AND PUSH1 0xE0 SHL DUP2 MSTORE PUSH1 0x4 ADD PUSH2 0x44D4 SWAP2 SWAP1 PUSH2 0x53E0 JUMP JUMPDEST PUSH1 0x20 PUSH1 0x40 MLOAD DUP1 DUP4 SUB DUP2 PUSH1 0x0 DUP8 DUP1 EXTCODESIZE ISZERO DUP1 ISZERO PUSH2 0x44EE JUMPI PUSH1 0x0 DUP1 REVERT JUMPDEST POP GAS CALL ISZERO DUP1 ISZERO PUSH2 0x4502 JUMPI RETURNDATASIZE PUSH1 0x0 DUP1 RETURNDATACOPY RETURNDATASIZE PUSH1 0x0 REVERT JUMPDEST POP POP POP POP PUSH1 0x40 MLOAD RETURNDATASIZE PUSH1 0x1F NOT PUSH1 0x1F DUP3 ADD AND DUP3 ADD DUP1 PUSH1 0x40 MSTORE POP DUP2 ADD SWAP1 PUSH2 0x4526 SWAP2 SWAP1 PUSH2 0x5253 JUMP JUMPDEST SWAP1 POP DUP1 ISZERO PUSH2 0x4546 JUMPI PUSH1 0x40 MLOAD PUSH3 0x461BCD PUSH1 0xE5 SHL DUP2 MSTORE PUSH1 0x4 ADD PUSH2 0x317 SWAP1 PUSH2 0x5485 JUMP JUMPDEST DUP6 MLOAD PUSH1 0x0 SWAP1 PUSH2 0x455D SWAP1 ADDRESS PUSH4 0x70A08231 PUSH1 0xE0 SHL PUSH2 0x3AF6 JUMP JUMPDEST SWAP1 POP PUSH2 0x4569 DUP2 DUP5 PUSH2 0x3D68 JUMP JUMPDEST SWAP4 POP PUSH2 0x457A DUP8 PUSH1 0x0 ADD MLOAD DUP8 DUP7 PUSH2 0x3A7F JUMP JUMPDEST POP POP POP SWAP5 SWAP4 POP POP POP POP JUMP JUMPDEST PUSH1 0x0 PUSH4 0x5F5E100 DUP4 PUSH1 0x40 ADD MLOAD SLT ISZERO PUSH2 0x45AD JUMPI PUSH2 0x45A6 PUSH1 0x1 PUSH2 0xDEC DUP6 DUP6 PUSH2 0x2D2E JUMP JUMPDEST SWAP1 POP PUSH2 0xC39 JUMP JUMPDEST PUSH2 0xC36 DUP4 PUSH2 0x45BC DUP5 PUSH1 0x1 PUSH2 0x20FF JUMP JUMPDEST PUSH2 0x2D2E JUMP JUMPDEST PUSH1 0x0 PUSH1 0x3 DUP4 PUSH1 0x60 ADD MLOAD PUSH1 0x5 DUP2 GT ISZERO PUSH2 0x45D5 JUMPI INVALID JUMPDEST EQ ISZERO PUSH2 0x45EC JUMPI POP PUSH1 0x1 PUSH1 0x1 PUSH1 0xA0 SHL SUB DUP2 AND BALANCE PUSH2 0xC39 JUMP JUMPDEST DUP3 MLOAD PUSH1 0x40 MLOAD PUSH4 0x70A08231 PUSH1 0xE0 SHL DUP2 MSTORE PUSH1 0x1 PUSH1 0x1 PUSH1 0xA0 SHL SUB SWAP1 SWAP2 AND SWAP1 PUSH4 0x70A08231 SWAP1 PUSH2 0x461B SWAP1 DUP6 SWAP1 PUSH1 0x4 ADD PUSH2 0x52E4 JUMP JUMPDEST PUSH1 0x20 PUSH1 0x40 MLOAD DUP1 DUP4 SUB DUP2 DUP7 DUP1 EXTCODESIZE ISZERO DUP1 ISZERO PUSH2 0x4633 JUMPI PUSH1 0x0 DUP1 REVERT JUMPDEST POP GAS STATICCALL ISZERO DUP1 ISZERO PUSH2 0x4647 JUMPI RETURNDATASIZE PUSH1 0x0 DUP1 RETURNDATACOPY RETURNDATASIZE PUSH1 0x0 REVERT JUMPDEST POP POP POP POP PUSH1 0x40 MLOAD RETURNDATASIZE PUSH1 0x1F NOT PUSH1 0x1F DUP3 ADD AND DUP3 ADD DUP1 PUSH1 0x40 MSTORE POP DUP2 ADD SWAP1 PUSH2 0x45A6 SWAP2 SWAP1 PUSH2 0x5253 JUMP JUMPDEST PUSH1 0x0 DUP1 PUSH2 0xC39 PUSH1 0x2 PUSH2 0x30CB JUMP JUMPDEST PUSH1 0x0 PUSH2 0x4682 PUSH2 0x4F4B JUMP JUMPDEST RETURNDATASIZE DUP1 ISZERO PUSH2 0x4696 JUMPI PUSH1 0x20 DUP2 EQ PUSH2 0x469F JUMPI PUSH1 0x0 DUP1 REVERT JUMPDEST PUSH1 0x1 SWAP3 POP PUSH2 0x46AA JUMP JUMPDEST PUSH1 0x20 PUSH1 0x0 DUP4 RETURNDATACOPY DUP2 MLOAD SWAP3 POP JUMPDEST POP DUP2 PUSH2 0x1937 JUMPI PUSH1 0x40 DUP1 MLOAD PUSH3 0x461BCD PUSH1 0xE5 SHL DUP2 MSTORE PUSH1 0x20 PUSH1 0x4 DUP3 ADD MSTORE PUSH1 0x5 PUSH1 0x24 DUP3 ADD MSTORE PUSH5 0x455243323 PUSH1 0xDC SHL PUSH1 0x44 DUP3 ADD MSTORE SWAP1 MLOAD SWAP1 DUP2 SWAP1 SUB PUSH1 0x64 ADD SWAP1 REVERT JUMPDEST PUSH1 0x0 DUP1 PUSH2 0xC39 PUSH1 0x7 PUSH2 0x30CB JUMP JUMPDEST PUSH1 0x0 PUSH2 0xC39 PUSH2 0x46FF PUSH2 0x4858 JUMP JUMPDEST SLOAD PUSH1 0x40 MLOAD PUSH4 0xD15E0053 PUSH1 0xE0 SHL DUP2 MSTORE PUSH1 0x1 PUSH1 0x1 PUSH1 0xA0 SHL SUB SWAP1 SWAP2 AND SWAP1 PUSH4 0xD15E0053 SWAP1 PUSH2 0x472D SWAP1 DUP7 SWAP1 PUSH1 0x4 ADD PUSH2 0x52E4 JUMP JUMPDEST PUSH1 0x20 PUSH1 0x40 MLOAD DUP1 DUP4 SUB DUP2 DUP7 DUP1 EXTCODESIZE ISZERO DUP1 ISZERO PUSH2 0x4745 JUMPI PUSH1 0x0 DUP1 REVERT JUMPDEST POP GAS STATICCALL ISZERO DUP1 ISZERO PUSH2 0x4759 JUMPI RETURNDATASIZE PUSH1 0x0 DUP1 RETURNDATACOPY RETURNDATASIZE PUSH1 0x0 REVERT JUMPDEST POP POP POP POP PUSH1 0x40 MLOAD RETURNDATASIZE PUSH1 0x1F NOT PUSH1 0x1F DUP3 ADD AND DUP3 ADD DUP1 PUSH1 0x40 MSTORE POP DUP2 ADD SWAP1 PUSH2 0x2581 SWAP2 SWAP1 PUSH2 0x5253 JUMP JUMPDEST PUSH1 0x0 DUP1 PUSH2 0xC39 PUSH1 0x17 PUSH2 0x30CB JUMP JUMPDEST PUSH1 0x0 DUP1 PUSH1 0x0 PUSH2 0x4797 PUSH2 0x4BDD JUMP JUMPDEST PUSH1 0x0 SWAP5 DUP6 MSTORE PUSH1 0x20 MSTORE POP POP PUSH1 0x40 SWAP1 SWAP2 KECCAK256 SLOAD PUSH1 0x1 PUSH1 0x1 PUSH1 0xA0 SHL SUB DUP2 AND SWAP3 PUSH1 0x1 PUSH1 0xA0 SHL SWAP1 SWAP2 DIV PUSH1 0xFF AND SWAP2 POP JUMP JUMPDEST PUSH1 0x0 DUP1 PUSH2 0xC39 PUSH1 0x10 PUSH2 0x30CB JUMP JUMPDEST PUSH1 0x0 DUP1 PUSH2 0xC39 PUSH1 0x18 PUSH2 0x30CB JUMP JUMPDEST PUSH1 0x0 PUSH2 0xC36 DUP3 PUSH1 0x20 ADD MLOAD PUSH2 0xF18 DUP5 PUSH1 0x0 ADD MLOAD DUP7 PUSH1 0x20 ADD MLOAD PUSH2 0x2188 SWAP1 SWAP2 SWAP1 PUSH4 0xFFFFFFFF AND JUMP JUMPDEST PUSH1 0x40 DUP1 MLOAD PUSH4 0x23B872DD PUSH1 0xE0 SHL DUP2 MSTORE PUSH1 0x1 PUSH1 0x1 PUSH1 0xA0 SHL SUB DUP5 DUP2 AND PUSH1 0x4 DUP4 ADD MSTORE ADDRESS PUSH1 0x24 DUP4 ADD MSTORE PUSH1 0x44 DUP3 ADD DUP5 SWAP1 MSTORE SWAP2 MLOAD SWAP2 DUP6 AND SWAP2 PUSH4 0x23B872DD SWAP2 PUSH1 0x64 DUP1 DUP3 ADD SWAP3 PUSH1 0x0 SWAP3 SWAP1 SWAP2 SWAP1 DUP3 SWAP1 SUB ADD DUP2 DUP4 DUP8 DUP1 EXTCODESIZE ISZERO DUP1 ISZERO PUSH2 0x3AD6 JUMPI PUSH1 0x0 DUP1 REVERT JUMPDEST PUSH1 0x0 DUP1 PUSH2 0xC39 PUSH1 0x13 PUSH2 0x30CB JUMP JUMPDEST PUSH1 0x0 DUP2 SLT ISZERO PUSH2 0x4873 JUMPI PUSH1 0x0 DUP1 REVERT JUMPDEST PUSH1 0x0 PUSH2 0x4880 PUSH1 0x0 DUP5 PUSH2 0x4AD1 JUMP JUMPDEST POP POP POP SWAP1 POP PUSH2 0x4898 DUP3 DUP3 PUSH2 0x20FF SWAP1 SWAP2 SWAP1 PUSH4 0xFFFFFFFF AND JUMP JUMPDEST SWAP1 POP PUSH2 0x48AB PUSH1 0x0 DUP5 DUP4 PUSH1 0x0 DUP1 PUSH1 0x0 PUSH2 0x4BEA JUMP JUMPDEST DUP3 PUSH2 0xFFFF AND PUSH32 0x85170C297762884F47EC6098B74925C795E6D33686B11019B400E33A9B23B5E9 DUP4 PUSH1 0x40 MLOAD PUSH2 0x48DF SWAP2 SWAP1 PUSH2 0x53E0 JUMP JUMPDEST PUSH1 0x40 MLOAD DUP1 SWAP2 SUB SWAP1 LOG2 POP POP POP JUMP JUMPDEST PUSH1 0x0 DUP2 SLT ISZERO PUSH2 0x48FA JUMPI PUSH1 0x0 DUP1 REVERT JUMPDEST PUSH1 0x0 PUSH2 0x4905 DUP4 PUSH2 0x4D31 JUMP JUMPDEST SWAP1 POP PUSH1 0x0 PUSH2 0x4913 DUP3 DUP6 PUSH2 0x4AD1 JUMP JUMPDEST POP POP POP SWAP1 POP PUSH2 0x492B DUP4 DUP3 PUSH2 0x20FF SWAP1 SWAP2 SWAP1 PUSH4 0xFFFFFFFF AND JUMP JUMPDEST SWAP1 POP PUSH2 0x16C2 DUP3 DUP6 DUP4 PUSH2 0x4D57 JUMP JUMPDEST PUSH1 0x0 DUP1 PUSH2 0x4943 PUSH2 0x4D75 JUMP JUMPDEST PUSH1 0x0 SWAP4 DUP5 MSTORE PUSH1 0x20 MSTORE POP POP PUSH1 0x40 SWAP1 KECCAK256 SLOAD SWAP1 JUMP JUMPDEST PUSH1 0x0 PUSH3 0x76A700 DUP3 LT ISZERO PUSH2 0x4967 JUMPI PUSH1 0x0 DUP1 REVERT JUMPDEST POP PUSH3 0x76A700 DUP2 MOD SWAP1 SUB SWAP1 JUMP JUMPDEST PUSH1 0x0 DUP2 PUSH1 0x1 EQ ISZERO PUSH2 0x4988 JUMPI POP PUSH3 0x76A700 PUSH2 0xF5D JUMP JUMPDEST DUP2 PUSH1 0x2 EQ ISZERO PUSH2 0x499B JUMPI POP PUSH3 0xED4E00 PUSH2 0xF5D JUMP JUMPDEST DUP2 PUSH1 0x3 EQ ISZERO PUSH2 0x49AF JUMPI POP PUSH4 0x1DA9C00 PUSH2 0xF5D JUMP JUMPDEST DUP2 PUSH1 0x4 EQ ISZERO PUSH2 0x49C3 JUMPI POP PUSH4 0x3B53800 PUSH2 0xF5D JUMP JUMPDEST DUP2 PUSH1 0x5 EQ ISZERO PUSH2 0x49D7 JUMPI POP PUSH4 0x9450C00 PUSH2 0xF5D JUMP JUMPDEST DUP2 PUSH1 0x6 EQ ISZERO PUSH2 0x49EB JUMPI POP PUSH4 0x128A1800 PUSH2 0xF5D JUMP JUMPDEST DUP2 PUSH1 0x7 EQ ISZERO PUSH2 0x49FF JUMPI POP PUSH4 0x25143000 PUSH2 0xF5D JUMP JUMPDEST PUSH1 0x40 MLOAD PUSH3 0x461BCD PUSH1 0xE5 SHL DUP2 MSTORE PUSH1 0x4 ADD PUSH2 0x317 SWAP1 PUSH2 0x5504 JUMP JUMPDEST PUSH1 0x0 DUP3 DUP3 ADD DUP4 DUP2 LT ISZERO PUSH2 0xC36 JUMPI PUSH1 0x40 DUP1 MLOAD PUSH3 0x461BCD PUSH1 0xE5 SHL DUP2 MSTORE PUSH1 0x20 PUSH1 0x4 DUP3 ADD MSTORE PUSH1 0x1B PUSH1 0x24 DUP3 ADD MSTORE PUSH32 0x536166654D6174683A206164646974696F6E206F766572666C6F770000000000 PUSH1 0x44 DUP3 ADD MSTORE SWAP1 MLOAD SWAP1 DUP2 SWAP1 SUB PUSH1 0x64 ADD SWAP1 REVERT JUMPDEST PUSH1 0x0 PUSH2 0x4A7B PUSH2 0x34C5 JUMP JUMPDEST PUSH1 0x1 PUSH1 0x1 PUSH1 0xA0 SHL SUB DUP5 AND PUSH1 0x0 SWAP1 DUP2 MSTORE PUSH1 0x20 DUP3 SWAP1 MSTORE PUSH1 0x40 SWAP1 KECCAK256 DUP1 SLOAD SWAP2 SWAP3 POP SWAP1 PUSH2 0xFFFF AND DUP4 ISZERO PUSH2 0x4ABA JUMPI DUP2 SLOAD PUSH2 0xFFFF NOT AND PUSH1 0x1 DUP3 OR PUSH2 0xFFFF AND OR DUP3 SSTORE PUSH2 0x4ACA JUMP JUMPDEST DUP2 SLOAD PUSH2 0xFFFF NOT AND PUSH2 0xFFFE DUP3 AND OR DUP3 SSTORE JUMPDEST POP POP POP POP POP JUMP JUMPDEST PUSH1 0x0 DUP1 PUSH1 0x0 DUP1 PUSH1 0x0 PUSH2 0x4AE1 PUSH2 0x4D82 JUMP JUMPDEST PUSH1 0x1 PUSH1 0x1 PUSH1 0xA0 SHL SUB DUP9 AND PUSH1 0x0 SWAP1 DUP2 MSTORE PUSH1 0x20 DUP3 DUP2 MSTORE PUSH1 0x40 DUP1 DUP4 KECCAK256 DUP11 DUP5 MSTORE SWAP1 SWAP2 MSTORE SWAP1 KECCAK256 DUP1 SLOAD PUSH1 0x1 PUSH1 0x1 PUSH1 0x50 SHL SUB DUP2 AND SWAP7 POP PUSH1 0x1 PUSH1 0x50 SHL SWAP1 DIV PUSH4 0xFFFFFFFF AND SWAP5 POP SWAP1 SWAP2 POP DUP4 ISZERO PUSH2 0x4B4A JUMPI DUP1 SLOAD PUSH2 0x4B43 SWAP1 PUSH1 0x1 PUSH1 0x70 SHL SWAP1 DIV PUSH7 0xFFFFFFFFFFFFFF AND PUSH2 0x4D8F JUMP JUMPDEST SWAP3 POP PUSH2 0x4B5F JUMP JUMPDEST DUP1 SLOAD PUSH1 0x1 PUSH1 0x70 SHL SWAP1 DIV PUSH7 0xFFFFFFFFFFFFFF AND SWAP3 POP JUMPDEST SLOAD PUSH1 0x1 PUSH1 0xA8 SHL SWAP1 DIV PUSH1 0xA SWAP1 DUP2 SIGNEXTEND SWAP1 SIGNEXTEND SWAP8 SWAP4 SWAP7 POP SWAP2 SWAP5 POP SWAP3 POP POP JUMP JUMPDEST PUSH1 0x0 DUP2 SLT ISZERO PUSH2 0x4B88 JUMPI PUSH1 0x0 DUP1 REVERT JUMPDEST PUSH2 0x4B9D PUSH1 0x0 DUP4 PUSH2 0xFFFF AND DUP4 PUSH1 0x0 DUP1 PUSH1 0x0 PUSH2 0x4BEA JUMP JUMPDEST DUP2 PUSH2 0xFFFF AND PUSH32 0xD3625F7B5926828151EFE19F7AE655488287357D99EBE67E5FB20522CA739C0B DUP3 PUSH1 0x40 MLOAD PUSH2 0x4BD1 SWAP2 SWAP1 PUSH2 0x53E0 JUMP JUMPDEST PUSH1 0x40 MLOAD DUP1 SWAP2 SUB SWAP1 LOG2 POP POP JUMP JUMPDEST PUSH1 0x0 DUP1 PUSH2 0xC39 PUSH1 0xF PUSH2 0x30CB JUMP JUMPDEST PUSH1 0x0 PUSH2 0x4BF4 PUSH2 0x4D82 JUMP JUMPDEST PUSH1 0x1 PUSH1 0x1 PUSH1 0xA0 SHL SUB DUP9 AND PUSH1 0x0 SWAP1 DUP2 MSTORE PUSH1 0x20 DUP3 DUP2 MSTORE PUSH1 0x40 DUP1 DUP4 KECCAK256 DUP11 DUP5 MSTORE SWAP1 SWAP2 MSTORE SWAP1 KECCAK256 SWAP1 SWAP2 POP PUSH11 0x7FFFFFFFFFFFFFFFFFFFFF NOT DUP7 SLT DUP1 ISZERO SWAP1 PUSH2 0x4C3F JUMPI POP PUSH11 0x7FFFFFFFFFFFFFFFFFFFFF DUP7 SGT ISZERO JUMPDEST PUSH2 0x4C48 JUMPI PUSH1 0x0 DUP1 REVERT JUMPDEST PUSH1 0x0 DUP6 SLT ISZERO DUP1 ISZERO PUSH2 0x4C60 JUMPI POP PUSH1 0x1 PUSH1 0x1 PUSH1 0x50 SHL SUB DUP6 SGT ISZERO JUMPDEST PUSH2 0x4C69 JUMPI PUSH1 0x0 DUP1 REVERT JUMPDEST DUP4 PUSH2 0x4CA9 JUMPI PUSH7 0xFFFFFFFFFFFFFF DUP4 GT ISZERO PUSH2 0x4C82 JUMPI PUSH1 0x0 DUP1 REVERT JUMPDEST DUP1 SLOAD PUSH7 0xFFFFFFFFFFFFFF PUSH1 0x70 SHL NOT AND PUSH1 0x1 PUSH1 0x70 SHL PUSH7 0xFFFFFFFFFFFFFF DUP6 AND MUL OR DUP2 SSTORE PUSH2 0x4CC3 JUMP JUMPDEST DUP1 SLOAD PUSH1 0x1 PUSH1 0x50 SHL SWAP1 DIV PUSH4 0xFFFFFFFF AND DUP5 EQ PUSH2 0x4CC3 JUMPI PUSH1 0x0 DUP1 REVERT JUMPDEST DUP1 SLOAD PUSH1 0xA SWAP7 SWAP1 SWAP7 SIGNEXTEND PUSH11 0xFFFFFFFFFFFFFFFFFFFFFF AND PUSH1 0x1 PUSH1 0xA8 SHL MUL PUSH1 0x1 PUSH1 0x1 PUSH1 0xA8 SHL SUB PUSH1 0x1 PUSH1 0x1 PUSH1 0x50 SHL SUB SWAP1 SWAP7 AND PUSH1 0x1 PUSH1 0x1 PUSH1 0x50 SHL SUB NOT PUSH4 0xFFFFFFFF SWAP1 SWAP7 AND PUSH1 0x1 PUSH1 0x50 SHL MUL PUSH4 0xFFFFFFFF PUSH1 0x50 SHL NOT SWAP1 SWAP9 AND SWAP8 SWAP1 SWAP8 OR SWAP5 SWAP1 SWAP5 AND SWAP6 SWAP1 SWAP6 OR SWAP4 SWAP1 SWAP4 AND SWAP2 SWAP1 SWAP2 OR SWAP1 SWAP3 SSTORE POP POP POP POP JUMP JUMPDEST PUSH1 0x0 DUP1 PUSH2 0x4D3C PUSH2 0x4D9D JUMP JUMPDEST PUSH1 0x0 SWAP4 DUP5 MSTORE PUSH1 0x20 MSTORE POP POP PUSH1 0x40 SWAP1 KECCAK256 SLOAD PUSH1 0x1 PUSH1 0x1 PUSH1 0xA0 SHL SUB AND SWAP1 JUMP JUMPDEST PUSH1 0x0 DUP2 SLT ISZERO PUSH2 0x4D65 JUMPI PUSH1 0x0 DUP1 REVERT JUMPDEST PUSH2 0x1031 DUP4 DUP4 DUP4 PUSH1 0x0 DUP1 PUSH1 0x0 PUSH2 0x4BEA JUMP JUMPDEST PUSH1 0x0 DUP1 PUSH2 0xC39 PUSH1 0x9 PUSH2 0x30CB JUMP JUMPDEST PUSH1 0x0 DUP1 PUSH2 0xC39 PUSH1 0x6 PUSH2 0x30CB JUMP JUMPDEST PUSH1 0x8 DUP2 SWAP1 SHR PUSH1 0xFF SWAP1 SWAP2 AND SHL SWAP1 JUMP JUMPDEST PUSH1 0x0 DUP1 PUSH2 0xC39 PUSH1 0x3 PUSH2 0x30CB JUMP JUMPDEST PUSH1 0x40 MLOAD DUP1 PUSH1 0x40 ADD PUSH1 0x40 MSTORE DUP1 PUSH1 0x2 SWAP1 PUSH1 0x20 DUP3 MUL DUP1 CALLDATASIZE DUP4 CALLDATACOPY POP SWAP2 SWAP3 SWAP2 POP POP JUMP JUMPDEST PUSH1 0x40 MLOAD DUP1 PUSH1 0xC0 ADD PUSH1 0x40 MSTORE DUP1 PUSH1 0x0 DUP2 MSTORE PUSH1 0x20 ADD PUSH1 0x0 DUP2 MSTORE PUSH1 0x20 ADD PUSH1 0x0 DUP2 MSTORE PUSH1 0x20 ADD PUSH1 0x0 PUSH1 0x1 PUSH1 0x1 PUSH1 0xA0 SHL SUB AND DUP2 MSTORE PUSH1 0x20 ADD PUSH1 0x0 DUP2 MSTORE PUSH1 0x20 ADD PUSH1 0x0 DUP2 MSTORE POP SWAP1 JUMP JUMPDEST PUSH1 0x40 MLOAD DUP1 PUSH2 0x1A0 ADD PUSH1 0x40 MSTORE DUP1 PUSH1 0x0 PUSH1 0x1 PUSH1 0x1 PUSH1 0xA0 SHL SUB AND DUP2 MSTORE PUSH1 0x20 ADD PUSH1 0x0 PUSH2 0xFFFF AND DUP2 MSTORE PUSH1 0x20 ADD PUSH1 0x0 PUSH2 0xFFFF AND DUP2 MSTORE PUSH1 0x20 ADD PUSH1 0x0 DUP2 MSTORE PUSH1 0x20 ADD PUSH1 0x0 DUP2 MSTORE PUSH1 0x20 ADD PUSH1 0x0 DUP2 MSTORE PUSH1 0x20 ADD PUSH1 0x0 DUP2 MSTORE PUSH1 0x20 ADD PUSH1 0x0 DUP2 MSTORE PUSH1 0x20 ADD PUSH1 0x0 DUP2 MSTORE PUSH1 0x20 ADD PUSH1 0x0 DUP2 MSTORE PUSH1 0x20 ADD PUSH2 0x4E72 PUSH2 0x4DAA JUMP JUMPDEST DUP2 MSTORE PUSH1 0x20 ADD PUSH2 0x4E7F PUSH2 0x4EF2 JUMP JUMPDEST DUP2 MSTORE PUSH1 0x20 ADD PUSH1 0x0 DUP2 MSTORE POP SWAP1 JUMP JUMPDEST PUSH1 0x40 MLOAD DUP1 PUSH1 0xE0 ADD PUSH1 0x40 MSTORE DUP1 PUSH1 0x0 DUP2 MSTORE PUSH1 0x20 ADD PUSH1 0x0 DUP2 MSTORE PUSH1 0x20 ADD PUSH1 0x0 ISZERO ISZERO DUP2 MSTORE PUSH1 0x20 ADD PUSH1 0x0 DUP2 MSTORE PUSH1 0x20 ADD PUSH1 0x0 DUP2 MSTORE PUSH1 0x20 ADD PUSH1 0x0 DUP2 MSTORE PUSH1 0x20 ADD PUSH1 0x0 DUP2 MSTORE POP SWAP1 JUMP JUMPDEST PUSH1 0x40 DUP1 MLOAD PUSH1 0xA0 DUP2 ADD DUP3 MSTORE PUSH1 0x0 DUP1 DUP3 MSTORE PUSH1 0x20 DUP3 ADD DUP2 SWAP1 MSTORE SWAP2 DUP2 ADD DUP3 SWAP1 MSTORE SWAP1 PUSH1 0x60 DUP3 ADD SWAP1 PUSH2 0x4E7F JUMP JUMPDEST PUSH1 0x40 MLOAD DUP1 PUSH1 0x60 ADD PUSH1 0x40 MSTORE DUP1 PUSH1 0x0 PUSH1 0x1 PUSH1 0x1 PUSH1 0xA0 SHL SUB AND DUP2 MSTORE PUSH1 0x20 ADD PUSH1 0x0 DUP2 MSTORE PUSH1 0x20 ADD PUSH1 0x0 DUP2 MSTORE POP SWAP1 JUMP JUMPDEST PUSH1 0x40 MLOAD DUP1 PUSH1 0xA0 ADD PUSH1 0x40 MSTORE DUP1 PUSH1 0x0 DUP2 MSTORE PUSH1 0x20 ADD PUSH1 0x0 DUP2 MSTORE PUSH1 0x20 ADD PUSH1 0x0 DUP2 MSTORE PUSH1 0x20 ADD PUSH1 0x0 DUP2 MSTORE PUSH1 0x20 ADD PUSH1 0x0 DUP2 MSTORE POP SWAP1 JUMP JUMPDEST PUSH1 0x40 MLOAD DUP1 PUSH1 0x20 ADD PUSH1 0x40 MSTORE DUP1 PUSH1 0x1 SWAP1 PUSH1 0x20 DUP3 MUL DUP1 CALLDATASIZE DUP4 CALLDATACOPY POP SWAP2 SWAP3 SWAP2 POP POP JUMP JUMPDEST DUP1 CALLDATALOAD PUSH1 0x1 PUSH1 0x1 PUSH1 0xA0 SHL SUB DUP2 AND DUP2 EQ PUSH2 0xF5D JUMPI PUSH1 0x0 DUP1 REVERT JUMPDEST PUSH1 0x0 DUP1 DUP4 PUSH1 0x1F DUP5 ADD SLT PUSH2 0x4F91 JUMPI DUP2 DUP3 REVERT JUMPDEST POP DUP2 CALLDATALOAD PUSH8 0xFFFFFFFFFFFFFFFF DUP2 GT ISZERO PUSH2 0x4FA8 JUMPI DUP2 DUP3 REVERT JUMPDEST PUSH1 0x20 DUP4 ADD SWAP2 POP DUP4 PUSH1 0x20 DUP3 DUP6 ADD ADD GT ISZERO PUSH2 0x18E5 JUMPI PUSH1 0x0 DUP1 REVERT JUMPDEST DUP1 CALLDATALOAD PUSH4 0xFFFFFFFF DUP2 AND DUP2 EQ PUSH2 0xF5D JUMPI PUSH1 0x0 DUP1 REVERT JUMPDEST DUP1 MLOAD PUSH1 0x1 PUSH1 0x1 PUSH1 0x50 SHL SUB DUP2 AND DUP2 EQ PUSH2 0xF5D JUMPI PUSH1 0x0 DUP1 REVERT JUMPDEST PUSH1 0x0 DUP1 PUSH1 0x40 DUP4 DUP6 SUB SLT ISZERO PUSH2 0x4FFD JUMPI DUP2 DUP3 REVERT JUMPDEST PUSH2 0x5006 DUP4 PUSH2 0x4F69 JUMP JUMPDEST SWAP2 POP PUSH2 0x18E2 PUSH1 0x20 DUP5 ADD PUSH2 0x4F69 JUMP JUMPDEST PUSH1 0x0 DUP1 PUSH1 0x0 DUP1 PUSH1 0x0 DUP1 PUSH1 0x0 PUSH1 0xC0 DUP9 DUP11 SUB SLT ISZERO PUSH2 0x502E JUMPI DUP3 DUP4 REVERT JUMPDEST PUSH2 0x5037 DUP9 PUSH2 0x4F69 JUMP JUMPDEST SWAP7 POP PUSH2 0x5045 PUSH1 0x20 DUP10 ADD PUSH2 0x4F69 JUMP JUMPDEST SWAP6 POP PUSH2 0x5053 PUSH1 0x40 DUP10 ADD PUSH2 0x4F69 JUMP JUMPDEST SWAP5 POP PUSH1 0x60 DUP9 ADD CALLDATALOAD SWAP4 POP PUSH1 0x80 DUP9 ADD CALLDATALOAD DUP1 ISZERO ISZERO DUP2 EQ PUSH2 0x506E JUMPI DUP4 DUP5 REVERT JUMPDEST SWAP3 POP PUSH1 0xA0 DUP9 ADD CALLDATALOAD PUSH8 0xFFFFFFFFFFFFFFFF DUP2 GT ISZERO PUSH2 0x5089 JUMPI DUP3 DUP4 REVERT JUMPDEST PUSH2 0x5095 DUP11 DUP3 DUP12 ADD PUSH2 0x4F80 JUMP JUMPDEST SWAP9 SWAP12 SWAP8 SWAP11 POP SWAP6 SWAP9 POP SWAP4 SWAP7 SWAP3 SWAP6 SWAP3 SWAP4 POP POP POP JUMP JUMPDEST PUSH1 0x0 DUP1 PUSH1 0x0 DUP1 PUSH1 0x0 DUP1 PUSH1 0x0 DUP1 PUSH1 0xE0 DUP10 DUP12 SUB SLT ISZERO PUSH2 0x50C3 JUMPI DUP1 DUP2 REVERT JUMPDEST PUSH2 0x50CC DUP10 PUSH2 0x4F69 JUMP JUMPDEST SWAP8 POP PUSH2 0x50DA PUSH1 0x20 DUP11 ADD PUSH2 0x4F69 JUMP JUMPDEST SWAP7 POP PUSH2 0x50E8 PUSH1 0x40 DUP11 ADD PUSH2 0x4F69 JUMP JUMPDEST SWAP6 POP PUSH1 0x60 DUP10 ADD CALLDATALOAD SWAP5 POP PUSH1 0x80 DUP10 ADD CALLDATALOAD SWAP4 POP PUSH2 0x5104 PUSH1 0xA0 DUP11 ADD PUSH2 0x4FC0 JUMP JUMPDEST SWAP3 POP PUSH1 0xC0 DUP10 ADD CALLDATALOAD PUSH8 0xFFFFFFFFFFFFFFFF DUP2 GT ISZERO PUSH2 0x511F JUMPI DUP2 DUP3 REVERT JUMPDEST PUSH2 0x512B DUP12 DUP3 DUP13 ADD PUSH2 0x4F80 JUMP JUMPDEST SWAP10 SWAP13 SWAP9 SWAP12 POP SWAP7 SWAP10 POP SWAP5 SWAP8 SWAP4 SWAP7 SWAP3 SWAP6 SWAP5 POP POP POP JUMP JUMPDEST PUSH1 0x0 DUP1 PUSH1 0x0 DUP1 PUSH1 0x0 DUP1 PUSH1 0x0 DUP1 PUSH1 0xE0 DUP10 DUP12 SUB SLT ISZERO PUSH2 0x515A JUMPI DUP4 DUP5 REVERT JUMPDEST PUSH2 0x5163 DUP10 PUSH2 0x4F69 JUMP JUMPDEST SWAP8 POP PUSH2 0x5171 PUSH1 0x20 DUP11 ADD PUSH2 0x4F69 JUMP JUMPDEST SWAP7 POP PUSH1 0x40 DUP10 ADD CALLDATALOAD SWAP6 POP PUSH1 0x60 DUP10 ADD CALLDATALOAD SWAP5 POP PUSH1 0x80 DUP10 ADD CALLDATALOAD SWAP4 POP PUSH2 0x5194 PUSH1 0xA0 DUP11 ADD PUSH2 0x4FC0 JUMP JUMPDEST SWAP3 POP PUSH1 0xC0 DUP10 ADD CALLDATALOAD PUSH8 0xFFFFFFFFFFFFFFFF DUP2 GT ISZERO PUSH2 0x511F JUMPI DUP3 DUP4 REVERT JUMPDEST PUSH1 0x0 DUP1 PUSH1 0x0 DUP1 PUSH1 0x0 DUP1 PUSH1 0x0 DUP1 PUSH1 0x0 PUSH2 0x100 DUP11 DUP13 SUB SLT ISZERO PUSH2 0x51CD JUMPI DUP1 DUP2 REVERT JUMPDEST PUSH2 0x51D6 DUP11 PUSH2 0x4F69 JUMP JUMPDEST SWAP9 POP PUSH2 0x51E4 PUSH1 0x20 DUP12 ADD PUSH2 0x4F69 JUMP JUMPDEST SWAP8 POP PUSH1 0x40 DUP11 ADD CALLDATALOAD SWAP7 POP PUSH1 0x60 DUP11 ADD CALLDATALOAD SWAP6 POP PUSH1 0x80 DUP11 ADD CALLDATALOAD SWAP5 POP PUSH2 0x5207 PUSH1 0xA0 DUP12 ADD PUSH2 0x4FC0 JUMP JUMPDEST SWAP4 POP PUSH2 0x5215 PUSH1 0xC0 DUP12 ADD PUSH2 0x4FC0 JUMP JUMPDEST SWAP3 POP PUSH1 0xE0 DUP11 ADD CALLDATALOAD PUSH8 0xFFFFFFFFFFFFFFFF DUP2 GT ISZERO PUSH2 0x5230 JUMPI DUP2 DUP3 REVERT JUMPDEST PUSH2 0x523C DUP13 DUP3 DUP14 ADD PUSH2 0x4F80 JUMP JUMPDEST SWAP2 POP DUP1 SWAP4 POP POP DUP1 SWAP2 POP POP SWAP3 SWAP6 SWAP9 POP SWAP3 SWAP6 SWAP9 POP SWAP3 SWAP6 SWAP9 JUMP JUMPDEST PUSH1 0x0 PUSH1 0x20 DUP3 DUP5 SUB SLT ISZERO PUSH2 0x5264 JUMPI DUP1 DUP2 REVERT JUMPDEST POP MLOAD SWAP2 SWAP1 POP JUMP JUMPDEST PUSH1 0x0 DUP1 PUSH1 0x0 DUP1 PUSH1 0x0 PUSH1 0xA0 DUP7 DUP9 SUB SLT ISZERO PUSH2 0x5282 JUMPI DUP1 DUP2 REVERT JUMPDEST PUSH2 0x528B DUP7 PUSH2 0x4FD4 JUMP JUMPDEST SWAP5 POP PUSH1 0x20 DUP7 ADD MLOAD SWAP4 POP PUSH1 0x40 DUP7 ADD MLOAD SWAP3 POP PUSH1 0x60 DUP7 ADD MLOAD SWAP2 POP PUSH2 0x52AE PUSH1 0x80 DUP8 ADD PUSH2 0x4FD4 JUMP JUMPDEST SWAP1 POP SWAP3 SWAP6 POP SWAP3 SWAP6 SWAP1 SWAP4 POP JUMP JUMPDEST PUSH1 0x0 DUP3 DUP5 MSTORE DUP3 DUP3 PUSH1 0x20 DUP7 ADD CALLDATACOPY DUP1 PUSH1 0x20 DUP5 DUP7 ADD ADD MSTORE PUSH1 0x20 PUSH1 0x1F NOT PUSH1 0x1F DUP6 ADD AND DUP6 ADD ADD SWAP1 POP SWAP4 SWAP3 POP POP POP JUMP JUMPDEST PUSH1 0x1 PUSH1 0x1 PUSH1 0xA0 SHL SUB SWAP2 SWAP1 SWAP2 AND DUP2 MSTORE PUSH1 0x20 ADD SWAP1 JUMP JUMPDEST PUSH1 0x0 PUSH1 0x1 DUP1 PUSH1 0xA0 SHL SUB DUP1 DUP11 AND DUP4 MSTORE DUP1 DUP10 AND PUSH1 0x20 DUP5 ADD MSTORE POP DUP7 PUSH1 0x40 DUP4 ADD MSTORE DUP6 PUSH1 0x60 DUP4 ADD MSTORE DUP5 PUSH1 0x80 DUP4 ADD MSTORE PUSH1 0xC0 PUSH1 0xA0 DUP4 ADD MSTORE PUSH2 0x40BF PUSH1 0xC0 DUP4 ADD DUP5 DUP7 PUSH2 0x52BA JUMP JUMPDEST PUSH1 0x1 PUSH1 0x1 PUSH1 0xA0 SHL SUB SWAP4 DUP5 AND DUP2 MSTORE PUSH1 0x20 DUP2 ADD SWAP3 SWAP1 SWAP3 MSTORE SWAP1 SWAP2 AND PUSH1 0x40 DUP3 ADD MSTORE PUSH1 0x60 ADD SWAP1 JUMP JUMPDEST PUSH1 0x1 PUSH1 0x1 PUSH1 0xA0 SHL SUB SWAP5 DUP6 AND DUP2 MSTORE PUSH1 0x20 DUP2 ADD SWAP4 SWAP1 SWAP4 MSTORE SWAP3 AND PUSH1 0x40 DUP3 ADD MSTORE PUSH2 0xFFFF SWAP1 SWAP2 AND PUSH1 0x60 DUP3 ADD MSTORE PUSH1 0x80 ADD SWAP1 JUMP JUMPDEST PUSH1 0x1 PUSH1 0x1 PUSH1 0xA0 SHL SUB SWAP4 SWAP1 SWAP4 AND DUP4 MSTORE PUSH1 0x20 DUP4 ADD SWAP2 SWAP1 SWAP2 MSTORE PUSH1 0x40 DUP3 ADD MSTORE PUSH1 0x60 ADD SWAP1 JUMP JUMPDEST PUSH1 0x0 PUSH1 0x1 DUP1 PUSH1 0xA0 SHL SUB DUP8 AND DUP3 MSTORE DUP6 PUSH1 0x20 DUP4 ADD MSTORE DUP5 PUSH1 0x40 DUP4 ADD MSTORE PUSH1 0x80 PUSH1 0x60 DUP4 ADD MSTORE PUSH2 0x2586 PUSH1 0x80 DUP4 ADD DUP5 DUP7 PUSH2 0x52BA JUMP JUMPDEST SWAP1 ISZERO ISZERO DUP2 MSTORE PUSH1 0x20 ADD SWAP1 JUMP JUMPDEST SWAP1 DUP2 MSTORE PUSH1 0x20 ADD SWAP1 JUMP JUMPDEST SWAP2 DUP3 MSTORE PUSH1 0x20 DUP3 ADD MSTORE PUSH1 0x40 ADD SWAP1 JUMP JUMPDEST SWAP4 DUP5 MSTORE PUSH1 0x20 DUP5 ADD SWAP3 SWAP1 SWAP3 MSTORE PUSH1 0x40 DUP4 ADD MSTORE PUSH1 0x60 DUP3 ADD MSTORE PUSH1 0x80 ADD SWAP1 JUMP JUMPDEST PUSH1 0x20 DUP1 DUP3 MSTORE PUSH1 0xC SWAP1 DUP3 ADD MSTORE PUSH12 0x155B985D5D1A1BDC9A5E9959 PUSH1 0xA2 SHL PUSH1 0x40 DUP3 ADD MSTORE PUSH1 0x60 ADD SWAP1 JUMP JUMPDEST PUSH1 0x20 DUP1 DUP3 MSTORE PUSH1 0x15 SWAP1 DUP3 ADD MSTORE PUSH21 0xACC2EAD8E840A6D0C2E4CAE6409AD2E6DAC2E8C6D PUSH1 0x5B SHL PUSH1 0x40 DUP3 ADD MSTORE PUSH1 0x60 ADD SWAP1 JUMP JUMPDEST PUSH1 0x20 DUP1 DUP3 MSTORE PUSH1 0x4 SWAP1 DUP3 ADD MSTORE PUSH4 0x135A5B9D PUSH1 0xE2 SHL PUSH1 0x40 DUP3 ADD MSTORE PUSH1 0x60 ADD SWAP1 JUMP JUMPDEST PUSH1 0x20 DUP1 DUP3 MSTORE PUSH1 0x6 SWAP1 DUP3 ADD MSTORE PUSH6 0x52656465656D PUSH1 0xD0 SHL PUSH1 0x40 DUP3 ADD MSTORE PUSH1 0x60 ADD SWAP1 JUMP JUMPDEST PUSH1 0x20 DUP1 DUP3 MSTORE PUSH1 0x16 SWAP1 DUP3 ADD MSTORE PUSH22 0x125B9CDD59999A58DA595B9D081C995C185E5B595B9D PUSH1 0x52 SHL PUSH1 0x40 DUP3 ADD MSTORE PUSH1 0x60 ADD SWAP1 JUMP JUMPDEST PUSH1 0x20 DUP1 DUP3 MSTORE PUSH1 0x15 SWAP1 DUP3 ADD MSTORE PUSH21 0x10D1CE881B9BC81B585C9AD95D1CC81B1A5CDD1959 PUSH1 0x5A SHL PUSH1 0x40 DUP3 ADD MSTORE PUSH1 0x60 ADD SWAP1 JUMP JUMPDEST PUSH1 0x20 DUP1 DUP3 MSTORE PUSH1 0xD SWAP1 DUP3 ADD MSTORE PUSH13 0x92DCECC2D8D2C840D2DCC8CAF PUSH1 0x9B SHL PUSH1 0x40 DUP3 ADD MSTORE PUSH1 0x60 ADD SWAP1 JUMP JUMPDEST PUSH1 0x20 DUP1 DUP3 MSTORE PUSH1 0x10 SWAP1 DUP3 ADD MSTORE PUSH16 0x496E76616C6964204D61747572697479 PUSH1 0x80 SHL PUSH1 0x40 DUP3 ADD MSTORE PUSH1 0x60 ADD SWAP1 JUMP JUMPDEST PUSH1 0x20 DUP1 DUP3 MSTORE PUSH1 0x14 SWAP1 DUP3 ADD MSTORE PUSH20 0x10589BDD994813585E0810DBDB1B185D195C985B PUSH1 0x62 SHL PUSH1 0x40 DUP3 ADD MSTORE PUSH1 0x60 ADD SWAP1 JUMP JUMPDEST PUSH1 0x20 DUP1 DUP3 MSTORE PUSH1 0xC SWAP1 DUP3 ADD MSTORE PUSH12 0x4D6178204361706163697479 PUSH1 0xA0 SHL PUSH1 0x40 DUP3 ADD MSTORE PUSH1 0x60 ADD SWAP1 JUMP JUMPDEST PUSH1 0x20 DUP1 DUP3 MSTORE PUSH1 0xB SWAP1 DUP3 ADD MSTORE PUSH11 0x139BDD0814D95D1D1B1959 PUSH1 0xAA SHL PUSH1 0x40 DUP3 ADD MSTORE PUSH1 0x60 ADD SWAP1 JUMP JUMPDEST PUSH1 0x20 DUP1 DUP3 MSTORE PUSH1 0x16 SWAP1 DUP3 ADD MSTORE PUSH22 0x10D1CE881B585C9AD95D081A5B99195E08189BDD5B99 PUSH1 0x52 SHL PUSH1 0x40 DUP3 ADD MSTORE PUSH1 0x60 ADD SWAP1 JUMP JUMPDEST PUSH1 0x20 DUP1 DUP3 MSTORE PUSH1 0xF SWAP1 DUP3 ADD MSTORE PUSH15 0x139BC8149BDB1B08105B1B1BDDD959 PUSH1 0x8A SHL PUSH1 0x40 DUP3 ADD MSTORE PUSH1 0x60 ADD SWAP1 JUMP JUMPDEST PUSH1 0x20 DUP1 DUP3 MSTORE PUSH1 0x17 SWAP1 DUP3 ADD MSTORE PUSH32 0x496E73756666696369656E7420436F6C6C61746572616C000000000000000000 PUSH1 0x40 DUP3 ADD MSTORE PUSH1 0x60 ADD SWAP1 JUMP JUMPDEST PUSH1 0x20 DUP1 DUP3 MSTORE PUSH1 0x17 SWAP1 DUP3 ADD MSTORE PUSH32 0x4D757374204C697175696461746520416C6C2044656274000000000000000000 PUSH1 0x40 DUP3 ADD MSTORE PUSH1 0x60 ADD SWAP1 JUMP JUMPDEST PUSH1 0x20 DUP1 DUP3 MSTORE PUSH1 0xC SWAP1 DUP3 ADD MSTORE PUSH12 0x496E76616C69642072617465 PUSH1 0xA0 SHL PUSH1 0x40 DUP3 ADD MSTORE PUSH1 0x60 ADD SWAP1 JUMP JUMPDEST PUSH1 0x20 DUP1 DUP3 MSTORE PUSH1 0xE SWAP1 DUP3 ADD MSTORE PUSH14 0x1499595B9D1C985B9D0818D85B1B PUSH1 0x92 SHL PUSH1 0x40 DUP3 ADD MSTORE PUSH1 0x60 ADD SWAP1 JUMP JUMPDEST PUSH1 0x20 DUP1 DUP3 MSTORE PUSH1 0xD SWAP1 DUP3 ADD MSTORE PUSH13 0x109BDC9C9BDDC819985A5B1959 PUSH1 0x9A SHL PUSH1 0x40 DUP3 ADD MSTORE PUSH1 0x60 ADD SWAP1 JUMP JUMPDEST PUSH1 0x20 DUP1 DUP3 MSTORE PUSH1 0x10 SWAP1 DUP3 ADD MSTORE PUSH16 0x4D696E20456E74727920426C6F636B73 PUSH1 0x80 SHL PUSH1 0x40 DUP3 ADD MSTORE PUSH1 0x60 ADD SWAP1 JUMP JUMPDEST PUSH1 0x20 DUP1 DUP3 MSTORE PUSH1 0xA SWAP1 DUP3 ADD MSTORE PUSH10 0x4D696E20426F72726F77 PUSH1 0xB0 SHL PUSH1 0x40 DUP3 ADD MSTORE PUSH1 0x60 ADD SWAP1 JUMP JUMPDEST PUSH1 0x20 DUP1 DUP3 MSTORE PUSH1 0xB SWAP1 DUP3 ADD MSTORE PUSH11 0x92DCECC2D8D2C8408AA89 PUSH1 0xAB SHL PUSH1 0x40 DUP3 ADD MSTORE PUSH1 0x60 ADD SWAP1 JUMP JUMPDEST PUSH1 0x20 DUP1 DUP3 MSTORE PUSH1 0x13 SWAP1 DUP3 ADD MSTORE PUSH19 0x10D1CE881B9BC81B585C9AD95D08199BDD5B99 PUSH1 0x6A SHL PUSH1 0x40 DUP3 ADD MSTORE PUSH1 0x60 ADD SWAP1 JUMP JUMPDEST PUSH1 0x20 DUP1 DUP3 MSTORE PUSH1 0xC SWAP1 DUP3 ADD MSTORE PUSH12 0x21B0B73737BA1022B73A32B9 PUSH1 0xA1 SHL PUSH1 0x40 DUP3 ADD MSTORE PUSH1 0x60 ADD SWAP1 JUMP JUMPDEST PUSH1 0x20 DUP1 DUP3 MSTORE PUSH1 0xB SWAP1 DUP3 ADD MSTORE PUSH11 0x11985A5B19590813195B99 PUSH1 0xAA SHL PUSH1 0x40 DUP3 ADD MSTORE PUSH1 0x60 ADD SWAP1 JUMP JUMPDEST PUSH1 0x20 DUP1 DUP3 MSTORE PUSH1 0x15 SWAP1 DUP3 ADD MSTORE PUSH21 0x14DD59999A58DA595B9D0810DBDB1B185D195C985B PUSH1 0x5A SHL PUSH1 0x40 DUP3 ADD MSTORE PUSH1 0x60 ADD SWAP1 JUMP JUMPDEST DUP2 MLOAD DUP2 MSTORE PUSH1 0x20 DUP1 DUP4 ADD MLOAD SWAP1 DUP3 ADD MSTORE PUSH1 0x40 DUP1 DUP4 ADD MLOAD SWAP1 DUP3 ADD MSTORE PUSH1 0x60 DUP1 DUP4 ADD MLOAD PUSH1 0x1 PUSH1 0x1 PUSH1 0xA0 SHL SUB AND SWAP1 DUP3 ADD MSTORE PUSH1 0x80 DUP1 DUP4 ADD MLOAD SWAP1 DUP3 ADD MSTORE PUSH1 0xA0 SWAP2 DUP3 ADD MLOAD SWAP2 DUP2 ADD SWAP2 SWAP1 SWAP2 MSTORE PUSH1 0xC0 ADD SWAP1 JUMP JUMPDEST PUSH1 0x1 PUSH1 0x1 PUSH1 0x80 SHL SUB SWAP2 SWAP1 SWAP2 AND DUP2 MSTORE PUSH1 0x20 ADD SWAP1 JUMP JUMPDEST PUSH2 0xFFFF SWAP3 SWAP1 SWAP3 AND DUP3 MSTORE PUSH1 0x20 DUP3 ADD MSTORE PUSH1 0x40 ADD SWAP1 JUMP JUMPDEST DUP4 DUP2 MSTORE PUSH1 0x80 DUP2 ADD PUSH1 0x20 DUP1 DUP4 ADD DUP6 PUSH1 0x0 JUMPDEST PUSH1 0x2 DUP2 LT ISZERO PUSH2 0x58C1 JUMPI DUP2 MLOAD DUP4 MSTORE SWAP2 DUP4 ADD SWAP2 SWAP1 DUP4 ADD SWAP1 PUSH1 0x1 ADD PUSH2 0x58A4 JUMP JUMPDEST POP POP POP POP DUP3 PUSH1 0x60 DUP4 ADD MSTORE SWAP5 SWAP4 POP POP POP POP JUMP JUMPDEST SWAP2 DUP3 MSTORE ISZERO ISZERO PUSH1 0x20 DUP3 ADD MSTORE PUSH1 0x40 ADD SWAP1 JUMP JUMPDEST SWAP3 DUP4 MSTORE PUSH1 0x20 DUP4 ADD SWAP2 SWAP1 SWAP2 MSTORE PUSH1 0x40 DUP3 ADD MSTORE PUSH1 0x60 ADD SWAP1 JUMP INVALID LOG2 PUSH5 0x6970667358 0x22 SLT KECCAK256 SLOAD 0xFC ADDMOD 0xAC 0x4C 0xC1 PUSH12 0xFC7AC3EBC1AE59F09ACF3874 LOG3 0xC9 PUSH28 0x148A2A5011241082C1E564736F6C6343000706003300000000000000 ",
  "sha1": "f4a212af51f5719d86a9c00b9cc0425eb8663920",
  "source": "// SPDX-License-Identifier: GPL-3.0-only\npragma solidity =0.7.6;\npragma abicoder v2;\n\nimport {ActionGuards} from \"./ActionGuards.sol\";\nimport {IVaultAccountAction} from \"../../../interfaces/notional/IVaultController.sol\";\nimport \"../../internal/vaults/VaultConfiguration.sol\";\nimport \"../../internal/vaults/VaultAccount.sol\";\nimport {VaultStateLib, VaultState} from \"../../internal/vaults/VaultState.sol\";\nimport {TokenHandler, Token, AaveHandler} from \"../../internal/balances/TokenHandler.sol\";\n\ncontract VaultAccountAction is ActionGuards, IVaultAccountAction {\n    using VaultConfiguration for VaultConfig;\n    using VaultAccountLib for VaultAccount;\n    using VaultStateLib for VaultState;\n    using AssetRate for AssetRateParameters;\n    using TokenHandler for Token;\n    using SafeInt256 for int256;\n    using SafeUint256 for uint256;\n\n    /// @notice Borrows a specified amount of fCash in the vault's borrow currency and deposits it\n    /// all plus the depositAmountExternal into the vault to mint strategy tokens.\n    /// @param account the address that will enter the vault\n    /// @param vault the vault to enter\n    /// @param depositAmountExternal some amount of additional collateral in the borrowed currency\n    /// to be transferred to vault\n    /// @param maturity the maturity to borrow at\n    /// @param fCash amount to borrow\n    /// @param maxBorrowRate maximum interest rate to borrow at\n    /// @param vaultData additional data to pass to the vault contract\n    /// @return strategyTokensAdded the total strategy tokens added to the maturity, including any tokens\n    /// from settlement. Allows enterVault to be used by off-chain methods to get an accurate simulation\n    /// of the strategy tokens minted.\n    function enterVault(\n        address account,\n        address vault,\n        uint256 depositAmountExternal,\n        uint256 maturity,\n        uint256 fCash,\n        uint32 maxBorrowRate,\n        bytes calldata vaultData\n    ) external payable override nonReentrant returns (uint256 strategyTokensAdded) { \n        // Ensure that system level accounts cannot enter vaults\n        requireValidAccount(account);\n        require(account != vault);\n\n        VaultConfig memory vaultConfig = VaultConfiguration.getVaultConfigStateful(vault);\n        vaultConfig.authorizeCaller(account, VaultConfiguration.ONLY_VAULT_ENTRY);\n\n        // If the vault allows further re-entrancy then set the status back to the default\n        if (vaultConfig.getFlag(VaultConfiguration.ALLOW_REENTRANCY)) {\n            reentrancyStatus = _NOT_ENTERED;\n        }\n\n        // Vaults cannot be entered if they are paused or matured\n        require(vaultConfig.getFlag(VaultConfiguration.ENABLED), \"Cannot Enter\");\n        require(block.timestamp < maturity, \"Cannot Enter\");\n        VaultAccount memory vaultAccount = VaultAccountLib.getVaultAccount(account, vault);\n\n        uint256 strategyTokens;\n        if (vaultAccount.maturity != 0 && vaultAccount.maturity <= block.timestamp) {\n            // These strategy tokens will be transferred to the new maturity\n            strategyTokens = vaultAccount.settleVaultAccount(vaultConfig, block.timestamp);\n        }\n\n        // Deposits some amount of underlying tokens into the vault directly to serve as additional collateral when\n        // entering the vault.\n        uint256 additionalUnderlyingExternal = vaultConfig.transferUnderlyingToVaultDirect(account, depositAmountExternal);\n        strategyTokensAdded = vaultAccount.borrowAndEnterVault(\n            vaultConfig, maturity, fCash, maxBorrowRate, vaultData, strategyTokens, additionalUnderlyingExternal\n        );\n\n        emit VaultEnterPosition(vault, account, maturity, fCash);\n    }\n\n    /// @notice Re-enters the vault at a longer dated maturity. The account's existing borrow position will be closed\n    /// and a new borrow position at the specified maturity will be opened. Strategy token holdings will transfer to\n    /// the longer dated maturity.\n    /// @param account the address that will reenter the vault\n    /// @param vault the vault to reenter\n    /// @param fCashToBorrow amount of fCash to borrow in the next maturity\n    /// @param maturity new maturity to borrow at\n    /// @param depositAmountExternal amount to deposit into the new maturity\n    /// @param minLendRate slippage protection for repaying debts\n    /// @param maxBorrowRate slippage protection for new borrow position\n    /// @return strategyTokensAdded the total strategy tokens added to the maturity, including any tokens\n    /// rolled from the previous maturity.. Allows rollVaultPosition to be used by off-chain methods to get\n    /// an accurate simulation of the strategy tokens minted.\n    function rollVaultPosition(\n        address account,\n        address vault,\n        uint256 fCashToBorrow,\n        uint256 maturity,\n        uint256 depositAmountExternal,\n        uint32 minLendRate,\n        uint32 maxBorrowRate,\n        bytes calldata enterVaultData\n    ) external payable override nonReentrant returns (uint256 strategyTokensAdded) {\n        VaultConfig memory vaultConfig = VaultConfiguration.getVaultConfigStateful(vault);\n        vaultConfig.authorizeCaller(account, VaultConfiguration.ONLY_VAULT_ROLL);\n\n        // If the vault allows further re-entrancy then set the status back to the default\n        if (vaultConfig.getFlag(VaultConfiguration.ALLOW_REENTRANCY)) {\n            reentrancyStatus = _NOT_ENTERED;\n        }\n\n        VaultAccount memory vaultAccount = VaultAccountLib.getVaultAccount(account, vault);\n        // Cannot roll unless all of these requirements are met\n        require(\n            vaultConfig.getFlag(VaultConfiguration.ENABLED) &&\n            vaultConfig.getFlag(VaultConfiguration.ALLOW_ROLL_POSITION) &&\n            block.timestamp < vaultAccount.maturity && // cannot have matured yet\n            vaultAccount.maturity < maturity && // new maturity must be forward in time\n            fCashToBorrow > 0, // must borrow into the next maturity, if not, then they should just exit\n            \"No Roll Allowed\"\n        );\n\n        VaultState memory vaultState = VaultStateLib.getVaultState(vaultConfig.vault, vaultAccount.maturity);\n        // Exit the maturity pool by removing all the vault shares. All of the strategy tokens will be\n        // re-deposited into the new maturity\n        uint256 strategyTokens = vaultState.exitMaturity(vaultAccount, vaultAccount.vaultShares);\n\n        // Exit the vault first and debit the temporary cash balance with the cost to exit\n        vaultAccount.lendToExitVault(\n            vaultConfig,\n            vaultState,\n            vaultAccount.fCash.neg(), // must fully exit the fCash position\n            minLendRate,\n            block.timestamp\n        );\n\n        // This should never be the case for a healthy vault account due to the mechanics of exiting the vault\n        // above but we check it for safety here.\n        require(vaultAccount.fCash == 0, \"Failed Lend\");\n        vaultState.setVaultState(vaultConfig.vault);\n\n        // Takes a deposit from the user as repayment for the lending, allows an account to roll their position\n        // even if they are close to the max borrow capacity.\n        if (depositAmountExternal > 0) {\n            vaultAccount.depositForRollPosition(vaultConfig, depositAmountExternal);\n        }\n\n        // Enters the vault at the longer dated maturity. The account is required to borrow at this\n        // point due  to the requirement earlier in this method, they cannot enter the maturity\n        // with below minAccountBorrowSize\n        strategyTokensAdded = vaultAccount.borrowAndEnterVault(\n            vaultConfig,\n            maturity, // This is the new maturity to enter\n            fCashToBorrow,\n            maxBorrowRate,\n            enterVaultData,\n            strategyTokens,\n            0 // No additional tokens deposited in this method\n        );\n\n        emit VaultRollPosition(vault, account, maturity, fCashToBorrow);\n    }\n\n    /// @notice Prior to maturity, allows an account to withdraw their position from the vault. Will\n    /// redeem some number of vault shares to the borrow currency and close the borrow position by\n    /// lending `fCashToLend`. Any shortfall in cash from lending will be transferred from the account,\n    /// any excess profits will be transferred to the account.\n    /// Post maturity, will net off the account's debt against vault cash balances and redeem all remaining\n    /// strategy tokens back to the borrowed currency and transfer the profits to the account.\n    /// @param account the address that will exit the vault\n    /// @param vault the vault to enter\n    /// @param receiver the address that will receive profits\n    /// @param vaultSharesToRedeem amount of vault tokens to exit, only relevant when exiting pre-maturity\n    /// @param fCashToLend amount of fCash to lend\n    /// @param minLendRate the minimum rate to lend at\n    /// @param exitVaultData passed to the vault during exit\n    /// @return underlyingToReceiver amount of underlying tokens returned to the receiver on exit\n    function exitVault(\n        address account,\n        address vault,\n        address receiver,\n        uint256 vaultSharesToRedeem,\n        uint256 fCashToLend,\n        uint32 minLendRate,\n        bytes calldata exitVaultData\n    ) external payable override nonReentrant returns (uint256 underlyingToReceiver) {\n        VaultConfig memory vaultConfig = VaultConfiguration.getVaultConfigStateful(vault);\n        vaultConfig.authorizeCaller(account, VaultConfiguration.ONLY_VAULT_EXIT);\n\n        // If the vault allows further re-entrancy then set the status back to the default\n        if (vaultConfig.getFlag(VaultConfiguration.ALLOW_REENTRANCY)) {\n            reentrancyStatus = _NOT_ENTERED;\n        }\n\n        VaultAccount memory vaultAccount = VaultAccountLib.getVaultAccount(account, vault);\n        require(\n            vaultAccount.lastEntryBlockHeight + Constants.VAULT_ACCOUNT_MIN_BLOCKS <= block.number,\n            \"Min Entry Blocks\"\n        );\n\n        if (vaultAccount.maturity <= block.timestamp) {\n            // Save this off because settleVaultAccount will clear the maturity\n            uint256 maturity = vaultAccount.maturity;\n            // Past maturity, an account will be settled instead\n            uint256 strategyTokens = vaultAccount.settleVaultAccount(vaultConfig, block.timestamp);\n\n            if (vaultAccount.tempCashBalance > 0) {\n                // Transfer asset cash back to the account\n                VaultConfiguration.transferFromNotional(\n                    receiver, vaultConfig.borrowCurrencyId, vaultAccount.tempCashBalance\n                );\n                vaultAccount.tempCashBalance = 0;\n            }\n\n            // Redeems all strategy tokens and any profits are sent back to the account, it is possible for temp\n            // cash balance to be negative here if the account is insolvent\n            underlyingToReceiver = vaultConfig.redeemWithDebtRepayment(\n                vaultAccount, receiver, strategyTokens, maturity, exitVaultData\n            );\n            emit VaultExitPostMaturity(vault, account, maturity, underlyingToReceiver);\n        } else {\n            VaultState memory vaultState = VaultStateLib.getVaultState(vaultConfig.vault, vaultAccount.maturity);\n            // Puts a negative cash balance on the vault's temporary cash balance\n            vaultAccount.lendToExitVault(\n                vaultConfig, vaultState, fCashToLend.toInt(), minLendRate, block.timestamp\n            );\n\n            uint256 strategyTokens = vaultState.exitMaturity(vaultAccount, vaultSharesToRedeem);\n\n            if (vaultAccount.tempCashBalance > 0) {\n                // Transfer asset cash back to the account, this is possible if there is asset cash\n                // when the vault exits the maturity\n                VaultConfiguration.transferFromNotional(\n                    receiver, vaultConfig.borrowCurrencyId, vaultAccount.tempCashBalance\n                );\n                vaultAccount.tempCashBalance = 0;\n            }\n\n            // If insufficient strategy tokens are redeemed (or if it is set to zero), then\n            // redeem with debt repayment will recover the repayment from the account's wallet\n            // directly.\n            underlyingToReceiver = vaultConfig.redeemWithDebtRepayment(\n                vaultAccount, receiver, strategyTokens, vaultState.maturity, exitVaultData\n            );\n\n            // It's possible that the user redeems more vault shares than they lend (it is not always the case\n            // that they will be increasing their collateral ratio here, so we check that this is the case).\n            vaultConfig.checkCollateralRatio(vaultState, vaultAccount);\n\n            // Set the vault state after redemption completes\n            vaultState.setVaultState(vaultConfig.vault);\n            emit VaultExitPreMaturity(vault, account, vaultState.maturity, fCashToLend, vaultSharesToRedeem, underlyingToReceiver);\n        }\n\n        if (vaultAccount.fCash == 0 && vaultAccount.vaultShares == 0) {\n            // If the account has no position in the vault at this point, set the maturity to zero as well\n            vaultAccount.maturity = 0;\n        }\n        vaultAccount.setVaultAccount(vaultConfig);\n    }\n\n    /// @notice If an account is below the minimum collateral ratio, this method wil deleverage (liquidate)\n    /// that account. `depositAmountExternal` in the borrow currency will be transferred from the liquidator\n    /// and used to offset the account's debt position. The liquidator will receive either vaultShares or\n    /// cash depending.\n    /// @param account the address that will exit the vault\n    /// @param vault the vault to enter\n    /// @param liquidator the address that will receive profits from liquidation\n    /// @param depositAmountExternal amount of asset cash to deposit\n    /// @param transferSharesToLiquidator transfers the shares to the liquidator instead of redeeming them\n    /// @param redeemData calldata sent to the vault when redeeming liquidator profits\n    /// @return profitFromLiquidation amount of vaultShares or cash received from liquidation\n    function deleverageAccount(\n        address account,\n        address vault,\n        address liquidator,\n        uint256 depositAmountExternal,\n        bool transferSharesToLiquidator,\n        bytes calldata redeemData\n    ) external nonReentrant override returns (uint256 profitFromLiquidation) {\n        // Do not allow invalid accounts to liquidate\n        requireValidAccount(liquidator);\n        require(liquidator != vault);\n\n        VaultConfig memory vaultConfig = _authenticateDeleverage(account, vault, liquidator);\n        VaultAccount memory vaultAccount = VaultAccountLib.getVaultAccount(account, vault);\n        VaultState memory vaultState = VaultStateLib.getVaultState(vault, vaultAccount.maturity);\n\n        // Check that the account has an active position. After maturity, accounts will be settled instead.\n        require(block.timestamp < vaultAccount.maturity);\n\n        // Check that the collateral ratio is below the minimum allowed\n        (int256 collateralRatio, int256 vaultShareValue) = vaultConfig.calculateCollateralRatio(\n            vaultState, account, vaultAccount.vaultShares, vaultAccount.fCash\n        );\n        require(collateralRatio < vaultConfig.minCollateralRatio , \"Sufficient Collateral\");\n\n        Token memory assetToken = TokenHandler.getAssetToken(vaultConfig.borrowCurrencyId);\n        // This will deposit some amount of cash into vaultAccount.tempCashBalance\n        _depositLiquidatorAmount(\n            liquidator, assetToken, vaultAccount, vaultConfig, depositAmountExternal, vaultShareValue\n        );\n\n        // The liquidator will purchase vault shares from the vault account at discount. The calculation is:\n        // (cashDeposited / assetCashValueOfShares) * liquidationRate * vaultShares\n        //      where cashDeposited / assetCashValueOfShares represents the share of the total vault share\n        //      value the liquidator has deposited\n        //      and liquidationRate is a percentage greater than 100% that represents their bonus\n        uint256 vaultSharesToLiquidator;\n        {\n            vaultSharesToLiquidator = vaultAccount.tempCashBalance.toUint()\n                .mul(vaultConfig.liquidationRate.toUint())\n                .mul(vaultAccount.vaultShares)\n                .div(vaultShareValue.toUint())\n                .div(uint256(Constants.RATE_PRECISION));\n        }\n\n        vaultAccount.vaultShares = vaultAccount.vaultShares.sub(vaultSharesToLiquidator);\n        // The liquidated account will lend to exit their position at a zero interest rate and forgo any future interest\n        // from asset tokens. Trading on the AMM during liquidation is risky and lending at a zero interest rate is more\n        // costly to the the liquidated account but is safer from a protocol perspective. This can be seen as a protocol\n        // level liquidation fee.\n        {\n            int256 fCashToReduce = vaultConfig.assetRate.convertToUnderlying(vaultAccount.tempCashBalance);\n            vaultAccount.updateAccountfCash(vaultConfig, vaultState, fCashToReduce, vaultAccount.tempCashBalance.neg());\n            // _calculateLiquidatorDeposit should ensure that we only ever lend up to a zero balance, but in the\n            // case of any off by one issues we clear the fCash balance by down to zero.\n            if (vaultAccount.fCash > Constants.DELEVERAGE_ROUNDING_ERROR) vaultAccount.fCash  = 0;\n            emit VaultDeleverageAccount(vault, account, vaultSharesToLiquidator, fCashToReduce);\n        }\n\n        // Sets the liquidated account account\n        vaultAccount.setVaultAccount(vaultConfig);\n\n        // Redeems the vault shares for asset cash and transfers it to the designated address\n        emit VaultLiquidatorProfit(vault, account, liquidator, vaultSharesToLiquidator, transferSharesToLiquidator);\n        if (transferSharesToLiquidator) {\n            vaultState.setVaultState(vaultConfig.vault);\n            profitFromLiquidation = _transferLiquidatorProfits(liquidator, vaultConfig, vaultSharesToLiquidator, vaultAccount.maturity);\n        } else {\n            profitFromLiquidation = _redeemLiquidatorProfits(\n                liquidator, vaultConfig, vaultState, vaultSharesToLiquidator, redeemData, assetToken\n            );\n        }\n    }\n\n    /// @notice Authenticates a call to the deleverage method\n    function _authenticateDeleverage(\n        address account,\n        address vault,\n        address liquidator\n    ) private returns (VaultConfig memory vaultConfig) {\n        vaultConfig = VaultConfiguration.getVaultConfigStateful(vault);\n        require(vaultConfig.getFlag(VaultConfiguration.DISABLE_DELEVERAGE) == false);\n\n        // If the vault allows further re-entrancy then set the status back to the default\n        if (vaultConfig.getFlag(VaultConfiguration.ALLOW_REENTRANCY)) {\n            reentrancyStatus = _NOT_ENTERED;\n        }\n\n        // Authorization rules for deleveraging\n        if (vaultConfig.getFlag(VaultConfiguration.ONLY_VAULT_DELEVERAGE)) {\n            require(msg.sender == vault, \"Unauthorized\");\n        } else {\n            require(msg.sender == liquidator, \"Unauthorized\");\n        }\n\n        // Cannot liquidate self, if a vault needs to deleverage itself as a whole it has other methods \n        // in VaultAction to do so.\n        require(account != msg.sender && account != liquidator, \"Unauthorized\");\n    }\n\n    /// @notice Calculates the amount the liquidator must deposit and then transfers it into Notional,\n    /// crediting the account's temporary cash balance. Deposits must be in the form of asset cash.\n    function _depositLiquidatorAmount(\n        address liquidator,\n        Token memory assetToken,\n        VaultAccount memory vaultAccount,\n        VaultConfig memory vaultConfig,\n        uint256 _depositAmountExternal,\n        int256 vaultShareValue\n    ) private {\n        int256 depositAmountExternal = _depositAmountExternal.toInt();\n        if (assetToken.tokenType == TokenType.aToken) {\n            // Handles special accounting requirements for aTokens\n            depositAmountExternal = AaveHandler.convertToScaledBalanceExternal(\n                vaultConfig.borrowCurrencyId, depositAmountExternal\n            );\n        }\n\n        // Calculates the maximum deleverage amount\n        (\n            int256 maxLiquidatorDepositAssetCash,\n            int256 debtOutstandingAboveMinBorrow\n        ) = vaultAccount.calculateDeleverageAmount(vaultConfig, vaultShareValue);\n        // Catch potential edge cases where this is negative due to insolvency inside the vault itself\n        require(maxLiquidatorDepositAssetCash > 0);\n        // For aTokens this amount is in scaled balance external precision (the same as depositAmountExternal)\n        int256 maxLiquidatorDepositExternal = assetToken.convertToExternal(maxLiquidatorDepositAssetCash);\n\n        // NOTE: deposit amount external is always positive in this method\n        if (depositAmountExternal < maxLiquidatorDepositExternal) {\n            // If liquidating past the debt outstanding above the min borrow, then the entire debt outstanding\n            // must be liquidated (that is set to maxLiquidatorDepositExternal)\n            require(depositAmountExternal < assetToken.convertToExternal(debtOutstandingAboveMinBorrow), \"Must Liquidate All Debt\");\n        } else {\n            // In the other case, limit the deposited amount to the maximum\n            depositAmountExternal = maxLiquidatorDepositExternal;\n        }\n\n        // Transfers the amount of asset tokens into Notional and credit it to the account's temp cash balance\n        int256 assetAmountExternalTransferred = assetToken.transfer(\n            liquidator, vaultConfig.borrowCurrencyId, depositAmountExternal\n        );\n\n        vaultAccount.tempCashBalance = vaultAccount.tempCashBalance.add(\n            assetToken.convertToInternal(assetAmountExternalTransferred)\n        );\n    }\n\n    /// @notice Transfers liquidator profits in the form of vault shares to be returned to the liquidator\n    function _transferLiquidatorProfits(\n        address receiver,\n        VaultConfig memory vaultConfig,\n        uint256 vaultSharesToLiquidator,\n        uint256 maturity\n    ) private returns (uint256) {\n        // Liquidator will receive vault shares that they can redeem by calling exitVault. If the liquidator has a\n        // leveraged position on then their collateral ratio will increase\n        VaultAccount memory liquidator = VaultAccountLib.getVaultAccount(receiver, vaultConfig.vault);\n        // The liquidator must be able to receive the vault shares (i.e. not be in the vault at all or be in the\n        // vault at the same maturity). If the liquidator has fCash in the current maturity then their collateral\n        // ratio will increase as a result of the liquidation, no need to check their collateral position.\n        require(liquidator.maturity == 0 || liquidator.maturity == maturity, \"Vault Shares Mismatch\"); // dev: has vault shares\n        liquidator.maturity = maturity;\n        liquidator.vaultShares = liquidator.vaultShares.add(vaultSharesToLiquidator);\n        liquidator.setVaultAccount(vaultConfig);\n\n        return vaultSharesToLiquidator;\n    }\n\n    /// @notice Redeems liquidator profits back to asset cash and transfers it to the liquidator\n    function _redeemLiquidatorProfits(\n        address liquidator,\n        VaultConfig memory vaultConfig,\n        VaultState memory vaultState,\n        uint256 vaultShares,\n        bytes calldata redeemData,\n        Token memory assetToken\n    ) private returns (uint256 underlyingToReceiver) {\n        (uint256 assetCash, uint256 strategyTokens) = vaultState.exitMaturityDirect(vaultShares);\n        (/* */, underlyingToReceiver) = vaultConfig.redeemWithoutDebtRepayment(\n            liquidator, strategyTokens, vaultState.maturity, redeemData\n        );\n\n        // Set the vault state after redemption completes\n        vaultState.setVaultState(vaultConfig.vault);\n\n        if (assetCash > 0) {\n            // Represents the amount of asset cash returned to the liquidator in underlying terms\n            uint256 underlyingRedeemed = assetToken.redeem(\n                vaultConfig.borrowCurrencyId, liquidator, assetToken.convertToExternal(assetCash.toInt()).toUint()\n            ).neg().toUint();\n            underlyingToReceiver = underlyingToReceiver.add(underlyingRedeemed);\n        }\n    }\n\n    /** View Methods **/\n    function getVaultAccount(address account, address vault) external override view returns (VaultAccount memory) {\n        return VaultAccountLib.getVaultAccount(account, vault);\n    }\n\n    function getVaultAccountDebtShares(\n        address account,\n        address vault\n    ) external override view returns (\n        uint256 debtSharesMaturity,\n        uint256[2] memory accountDebtShares,\n        uint256 accountStrategyTokens\n    ) {\n        VaultAccountSecondaryDebtShareStorage storage s = \n            LibStorage.getVaultAccountSecondaryDebtShare()[account][vault];\n        debtSharesMaturity = s.maturity;\n        accountDebtShares[0] = s.accountDebtSharesOne;\n        accountDebtShares[1] = s.accountDebtSharesTwo;\n\n        VaultAccount memory vaultAccount = VaultAccountLib.getVaultAccount(account, vault);\n        VaultState memory vaultState = VaultStateLib.getVaultState(vault, vaultAccount.maturity);\n        (/* */, accountStrategyTokens) = vaultState.getPoolShare(vaultAccount.vaultShares);\n    }\n\n    function getVaultAccountCollateralRatio(address account, address vault) external override view returns (\n        int256 collateralRatio,\n        int256 minCollateralRatio,\n        int256 maxLiquidatorDepositAssetCash,\n        uint256 vaultSharesToLiquidator\n    ) {\n        VaultConfig memory vaultConfig = VaultConfiguration.getVaultConfigView(vault);\n        VaultAccount memory vaultAccount = VaultAccountLib.getVaultAccount(account, vault);\n        VaultState memory vaultState = VaultStateLib.getVaultState(vault, vaultAccount.maturity);\n        minCollateralRatio = vaultConfig.minCollateralRatio;\n\n        if (vaultState.isSettled) {\n            // In this case, the maturity has been settled and although the vault account says that it has\n            // some fCash balance it does not actually owe any debt anymore.\n            collateralRatio = type(int256).max;\n        } else {\n            int256 vaultShareValue;\n            (collateralRatio, vaultShareValue) = vaultConfig.calculateCollateralRatio(\n                vaultState, account, vaultAccount.vaultShares, vaultAccount.fCash\n            );\n\n            // Calculates liquidation factors if the account is eligible\n            if (collateralRatio < minCollateralRatio && vaultShareValue > 0) {\n                (maxLiquidatorDepositAssetCash, /* */) = vaultAccount.calculateDeleverageAmount(\n                    vaultConfig, vaultShareValue\n                );\n\n                vaultSharesToLiquidator = maxLiquidatorDepositAssetCash.toUint()\n                    .mul(vaultConfig.liquidationRate.toUint())\n                    .mul(vaultAccount.vaultShares)\n                    .div(vaultShareValue.toUint())\n                    .div(uint256(Constants.RATE_PRECISION));\n            }\n        }\n    }\n\n    function getLibInfo() external pure returns (address) {\n        return address(TradingAction);\n    }\n}\n",
  "sourcePath": "contracts/external/actions/VaultAccountAction.sol",
  "type": "contract"
}