{
  "abi": [
    {
      "anonymous": false,
      "inputs": [
        {
          "indexed": true,
          "internalType": "address",
          "name": "vault",
          "type": "address"
        },
        {
          "indexed": true,
          "internalType": "address",
          "name": "account",
          "type": "address"
        },
        {
          "indexed": false,
          "internalType": "uint256",
          "name": "vaultSharesToLiquidator",
          "type": "uint256"
        },
        {
          "indexed": false,
          "internalType": "int256",
          "name": "fCashRepaid",
          "type": "int256"
        }
      ],
      "name": "VaultDeleverageAccount",
      "type": "event"
    },
    {
      "anonymous": false,
      "inputs": [
        {
          "indexed": true,
          "internalType": "address",
          "name": "vault",
          "type": "address"
        },
        {
          "indexed": true,
          "internalType": "uint256",
          "name": "maturity",
          "type": "uint256"
        },
        {
          "indexed": true,
          "internalType": "address",
          "name": "account",
          "type": "address"
        },
        {
          "indexed": false,
          "internalType": "uint256",
          "name": "underlyingTokensTransferred",
          "type": "uint256"
        },
        {
          "indexed": false,
          "internalType": "uint256",
          "name": "strategyTokenDeposited",
          "type": "uint256"
        },
        {
          "indexed": false,
          "internalType": "uint256",
          "name": "vaultSharesMinted",
          "type": "uint256"
        }
      ],
      "name": "VaultEnterMaturity",
      "type": "event"
    },
    {
      "anonymous": false,
      "inputs": [
        {
          "indexed": true,
          "internalType": "address",
          "name": "vault",
          "type": "address"
        },
        {
          "indexed": true,
          "internalType": "address",
          "name": "account",
          "type": "address"
        },
        {
          "indexed": true,
          "internalType": "uint256",
          "name": "maturity",
          "type": "uint256"
        },
        {
          "indexed": false,
          "internalType": "uint256",
          "name": "fCashBorrowed",
          "type": "uint256"
        }
      ],
      "name": "VaultEnterPosition",
      "type": "event"
    },
    {
      "anonymous": false,
      "inputs": [
        {
          "indexed": true,
          "internalType": "address",
          "name": "vault",
          "type": "address"
        },
        {
          "indexed": true,
          "internalType": "address",
          "name": "account",
          "type": "address"
        },
        {
          "indexed": true,
          "internalType": "uint256",
          "name": "newMaturity",
          "type": "uint256"
        }
      ],
      "name": "VaultExitPostMaturity",
      "type": "event"
    },
    {
      "anonymous": false,
      "inputs": [
        {
          "indexed": true,
          "internalType": "address",
          "name": "vault",
          "type": "address"
        },
        {
          "indexed": true,
          "internalType": "address",
          "name": "account",
          "type": "address"
        },
        {
          "indexed": true,
          "internalType": "uint256",
          "name": "maturity",
          "type": "uint256"
        },
        {
          "indexed": false,
          "internalType": "uint256",
          "name": "fCashToLend",
          "type": "uint256"
        },
        {
          "indexed": false,
          "internalType": "uint256",
          "name": "vaultSharesToRedeem",
          "type": "uint256"
        }
      ],
      "name": "VaultExitPreMaturity",
      "type": "event"
    },
    {
      "anonymous": false,
      "inputs": [
        {
          "indexed": true,
          "internalType": "address",
          "name": "vault",
          "type": "address"
        },
        {
          "indexed": true,
          "internalType": "address",
          "name": "account",
          "type": "address"
        },
        {
          "indexed": true,
          "internalType": "address",
          "name": "liquidator",
          "type": "address"
        },
        {
          "indexed": false,
          "internalType": "uint256",
          "name": "vaultSharesToLiquidator",
          "type": "uint256"
        },
        {
          "indexed": false,
          "internalType": "bool",
          "name": "transferSharesToLiquidator",
          "type": "bool"
        }
      ],
      "name": "VaultLiquidatorProfit",
      "type": "event"
    },
    {
      "anonymous": false,
      "inputs": [
        {
          "indexed": true,
          "internalType": "address",
          "name": "vault",
          "type": "address"
        },
        {
          "indexed": true,
          "internalType": "address",
          "name": "account",
          "type": "address"
        },
        {
          "indexed": true,
          "internalType": "uint256",
          "name": "newMaturity",
          "type": "uint256"
        },
        {
          "indexed": false,
          "internalType": "uint256",
          "name": "fCashBorrowed",
          "type": "uint256"
        }
      ],
      "name": "VaultRollPosition",
      "type": "event"
    },
    {
      "inputs": [
        {
          "internalType": "address",
          "name": "account",
          "type": "address"
        },
        {
          "internalType": "address",
          "name": "vault",
          "type": "address"
        },
        {
          "internalType": "address",
          "name": "liquidator",
          "type": "address"
        },
        {
          "internalType": "uint256",
          "name": "depositAmountExternal",
          "type": "uint256"
        },
        {
          "internalType": "bool",
          "name": "transferSharesToLiquidator",
          "type": "bool"
        },
        {
          "internalType": "bytes",
          "name": "redeemData",
          "type": "bytes"
        }
      ],
      "name": "deleverageAccount",
      "outputs": [
        {
          "internalType": "uint256",
          "name": "profitFromLiquidation",
          "type": "uint256"
        }
      ],
      "stateMutability": "nonpayable",
      "type": "function"
    },
    {
      "inputs": [
        {
          "internalType": "address",
          "name": "account",
          "type": "address"
        },
        {
          "internalType": "address",
          "name": "vault",
          "type": "address"
        },
        {
          "internalType": "uint256",
          "name": "depositAmountExternal",
          "type": "uint256"
        },
        {
          "internalType": "uint256",
          "name": "maturity",
          "type": "uint256"
        },
        {
          "internalType": "uint256",
          "name": "fCash",
          "type": "uint256"
        },
        {
          "internalType": "uint32",
          "name": "maxBorrowRate",
          "type": "uint32"
        },
        {
          "internalType": "bytes",
          "name": "vaultData",
          "type": "bytes"
        }
      ],
      "name": "enterVault",
      "outputs": [],
      "stateMutability": "payable",
      "type": "function"
    },
    {
      "inputs": [
        {
          "internalType": "address",
          "name": "account",
          "type": "address"
        },
        {
          "internalType": "address",
          "name": "vault",
          "type": "address"
        },
        {
          "internalType": "address",
          "name": "receiver",
          "type": "address"
        },
        {
          "internalType": "uint256",
          "name": "vaultSharesToRedeem",
          "type": "uint256"
        },
        {
          "internalType": "uint256",
          "name": "fCashToLend",
          "type": "uint256"
        },
        {
          "internalType": "uint32",
          "name": "minLendRate",
          "type": "uint32"
        },
        {
          "internalType": "bytes",
          "name": "exitVaultData",
          "type": "bytes"
        }
      ],
      "name": "exitVault",
      "outputs": [],
      "stateMutability": "payable",
      "type": "function"
    },
    {
      "inputs": [],
      "name": "getLibInfo",
      "outputs": [
        {
          "internalType": "address",
          "name": "",
          "type": "address"
        }
      ],
      "stateMutability": "pure",
      "type": "function"
    },
    {
      "inputs": [
        {
          "internalType": "address",
          "name": "account",
          "type": "address"
        },
        {
          "internalType": "address",
          "name": "vault",
          "type": "address"
        }
      ],
      "name": "getVaultAccount",
      "outputs": [
        {
          "components": [
            {
              "internalType": "int256",
              "name": "fCash",
              "type": "int256"
            },
            {
              "internalType": "uint256",
              "name": "maturity",
              "type": "uint256"
            },
            {
              "internalType": "uint256",
              "name": "vaultShares",
              "type": "uint256"
            },
            {
              "internalType": "address",
              "name": "account",
              "type": "address"
            },
            {
              "internalType": "int256",
              "name": "tempCashBalance",
              "type": "int256"
            }
          ],
          "internalType": "struct VaultAccount",
          "name": "",
          "type": "tuple"
        }
      ],
      "stateMutability": "view",
      "type": "function"
    },
    {
      "inputs": [
        {
          "internalType": "address",
          "name": "account",
          "type": "address"
        },
        {
          "internalType": "address",
          "name": "vault",
          "type": "address"
        }
      ],
      "name": "getVaultAccountCollateralRatio",
      "outputs": [
        {
          "internalType": "int256",
          "name": "collateralRatio",
          "type": "int256"
        },
        {
          "internalType": "int256",
          "name": "minCollateralRatio",
          "type": "int256"
        },
        {
          "internalType": "int256",
          "name": "maxLiquidatorDepositAssetCash",
          "type": "int256"
        },
        {
          "internalType": "bool",
          "name": "mustLiquidateFull",
          "type": "bool"
        }
      ],
      "stateMutability": "view",
      "type": "function"
    },
    {
      "inputs": [
        {
          "internalType": "address",
          "name": "account",
          "type": "address"
        },
        {
          "internalType": "address",
          "name": "vault",
          "type": "address"
        }
      ],
      "name": "getVaultAccountDebtShares",
      "outputs": [
        {
          "internalType": "uint256",
          "name": "debtSharesMaturity",
          "type": "uint256"
        },
        {
          "internalType": "uint256[2]",
          "name": "accountDebtShares",
          "type": "uint256[2]"
        },
        {
          "internalType": "uint256",
          "name": "accountStrategyTokens",
          "type": "uint256"
        }
      ],
      "stateMutability": "view",
      "type": "function"
    },
    {
      "inputs": [],
      "name": "owner",
      "outputs": [
        {
          "internalType": "address",
          "name": "",
          "type": "address"
        }
      ],
      "stateMutability": "view",
      "type": "function"
    },
    {
      "inputs": [],
      "name": "pauseGuardian",
      "outputs": [
        {
          "internalType": "address",
          "name": "",
          "type": "address"
        }
      ],
      "stateMutability": "view",
      "type": "function"
    },
    {
      "inputs": [],
      "name": "pauseRouter",
      "outputs": [
        {
          "internalType": "address",
          "name": "",
          "type": "address"
        }
      ],
      "stateMutability": "view",
      "type": "function"
    },
    {
      "inputs": [
        {
          "internalType": "address",
          "name": "account",
          "type": "address"
        },
        {
          "internalType": "address",
          "name": "vault",
          "type": "address"
        },
        {
          "internalType": "uint256",
          "name": "fCashToBorrow",
          "type": "uint256"
        },
        {
          "internalType": "uint256",
          "name": "maturity",
          "type": "uint256"
        },
        {
          "internalType": "uint32",
          "name": "minLendRate",
          "type": "uint32"
        },
        {
          "internalType": "uint32",
          "name": "maxBorrowRate",
          "type": "uint32"
        },
        {
          "internalType": "bytes",
          "name": "enterVaultData",
          "type": "bytes"
        }
      ],
      "name": "rollVaultPosition",
      "outputs": [],
      "stateMutability": "nonpayable",
      "type": "function"
    }
  ],
  "bytecode": "608060405234801561001057600080fd5b50614f18806100206000396000f3fe60806040526004361061009c5760003560e01c8063824633671161006457806382463367146101605780638da5cb5b1461017557806395c1a2021461018a5780639948315e1461019d578063c025d1a5146101ca578063c4c96dae146101f75761009c565b806324a3d622146100a1578063450c0e02146100cc578063647cc196146100ee5780636ce48f011461011e578063803c25fb14610131575b600080fd5b3480156100ad57600080fd5b506100b661020c565b6040516100c39190614962565b60405180910390f35b3480156100d857600080fd5b506100ec6100e73660046148c4565b61021b565b005b3480156100fa57600080fd5b5061010e610109366004614700565b6103d9565b6040516100c39493929190614a75565b6100ec61012c3660046147bd565b610472565b34801561013d57600080fd5b5061015161014c366004614700565b6106a9565b6040516100c393929190614e7d565b34801561016c57600080fd5b506100b661075a565b34801561018157600080fd5b506100b6610769565b6100ec610198366004614854565b610780565b3480156101a957600080fd5b506101bd6101b8366004614729565b6108c6565b6040516100c39190614a5e565b3480156101d657600080fd5b506101ea6101e5366004614700565b610b40565b6040516100c39190614e17565b34801561020357600080fd5b506100b6610b5b565b6002546001600160a01b031681565b6002600a5414156102475760405162461bcd60e51b815260040161023e90614cd8565b60405180910390fd5b6002600a55600061025788610b73565b9050610265818a6010610ba2565b610270816080610c0c565b1561027b576001600a555b60006102878a8a610c21565b9050610294826001610c0c565b80156102a657506102a6826002610c0c565b80156102b55750806020015142105b80156102c45750868160200151105b80156102d05750600088115b6102ec5760405162461bcd60e51b815260040161023e90614c41565b600061030083600001518360200151610c9f565b9050600061031d83846040015184610d3a9092919063ffffffff16565b905061033c84836103318660000151610d99565b869291908c42610daf565b82511561035b5760405162461bcd60e51b815260040161023e90614dc3565b8351610368908390610e3d565b61037a83858b8d8b8b8b886000610fb1565b888c6001600160a01b03168c6001600160a01b03167f67c1d09e65227d62b788f4c3e6ace545ac922034d69bd4aa45c53dec290275be8d6040516103be9190614a5e565b60405180910390a450506001600a5550505050505050505050565b60008060008060006103ea8661103f565b905060006103f88888610c21565b9050600061040a888360200151610c9f565b90508260a00151955080604001511561042c576001600160ff1b039650610466565b6040820151825160009161044691869185918e9190611063565b9098509050868812156104645761045e8385836110cb565b90965094505b505b50505092959194509250565b6002600a5414156104955760405162461bcd60e51b815260040161023e90614cd8565b6002600a5560006104a588610b73565b90506104b3818a6008610ba2565b6104be816080610c0c565b156104c9576001600a555b60006104d58a8a610c21565b90504281602001511161057657602081015160006104f483854261118e565b905060008360800151131561051f576105168a856040015185608001516112d1565b50600060808401525b61052e84848c84868b8b61137a565b818c6001600160a01b03168c6001600160a01b03167f8255ee71b1bee16ae1f9ff6c76fe18682af74350ef6c49dba972aab969a7e67c60405160405180910390a45050610670565b600061058a83600001518360200151610c9f565b90506105a5838261059a8a6113ec565b859291908a42610daf565b87156105fa5760006105b882848b610d3a565b90506000836080015113156105e3576105da8a856040015185608001516112d1565b50600060808401525b81516105f890859085908d9085908b8b61137a565b505b81516000131561060f5761060f838284611406565b825161061c908290610e3d565b80600001518b6001600160a01b03168b6001600160a01b03167f5fa4d63d84bbcbb86063028ac3ad93f61e31764be1de668fc3b3dc6fe930e82f8a8c604051610666929190614a67565b60405180910390a4505b805115801561068157506040810151155b1561068e57600060208201525b610698818361144e565b50506001600a555050505050505050565b60006106b361450c565b6000806106be611562565b6001600160a01b03878116600090815260209283526040808220928916825291835290812080546001600160501b03640100000000820481168852600160701b8204169387019390935263ffffffff909216955090915061071f8787610c21565b90506000610731878360200151610c9f565b905061074a82604001518261156f90919063ffffffff16565b9050809450505050509250925092565b6001546001600160a01b031681565b60005464010000000090046001600160a01b031681565b6002600a5414156107a35760405162461bcd60e51b815260040161023e90614cd8565b6002600a556107b1886115c9565b60006107bc88610b73565b90506107ca818a6004610ba2565b6107d5816080610c0c565b156107e0576001600a555b6107eb816001610c0c565b6108075760405162461bcd60e51b815260040161023e90614d9d565b8542106108265760405162461bcd60e51b815260040161023e90614d9d565b60006108328a8a610c21565b90506000816020015160001415801561084f575042826020015111155b156108625761085f82844261118e565b90505b600061086f848d8c611618565b905061088283858b8b8b8b8b8989610fb1565b888c6001600160a01b03168c6001600160a01b03167f7e1a5e400898c4bb3cfc62f61a71f4369ec78f0e778a31286892b7d2c0d044f28b6040516103be9190614a5e565b60006002600a5414156108eb5760405162461bcd60e51b815260040161023e90614cd8565b6002600a5560006108fd89898961172d565b9050600061090b8a8a610c21565b9050600061091d8a8360200151610c9f565b90508160200151421061092f57600080fd5b600080610953838e866040015187600001518961106390949392919063ffffffff16565b915091508460a00151821261097a5760405162461bcd60e51b815260040161023e90614de8565b600061098d866040015161ffff166117d5565b905061099d8c8287898f876117e8565b60006109e4633b9aca006109de6109b3866118bb565b6109de8a604001516109d86109cb8e60c001516118bb565b6109d88e608001516118bb565b906118ca565b906118f1565b60408701519091506109f69082611910565b60408701526080860151610160880151600091610a139190611925565b9050610a32888783610a288b60800151610d99565b8b93929190611958565b865160001215610a4157600087525b8f6001600160a01b03168f6001600160a01b03167f5b4676a4ed91c52fd6c4a759aec8a3561b67499c52870fc58000a8eb54fec3018484604051610a86929190614a67565b60405180910390a350610a99868861144e565b8c6001600160a01b03168f6001600160a01b03168f6001600160a01b03167f01745a2fe0d7c484ea79432a82f950eac6916adc499a0223d2ebdadcdb210f2a848f604051610ae8929190614ebc565b60405180910390a48a15610b21578651610b03908690610e3d565b610b138d888389602001516119c6565b975050505050505050610b30565b610b138d8887848e8e88611a3a565b6001600a55979650505050505050565b610b4861452a565b610b528383610c21565b90505b92915050565b73__TradingAction_________________________90565b610b7b614562565b610b8482611b10565b9050610b97816040015161ffff16611c8e565b610160820152919050565b610bac8382610c0c565b15610bdf5782516001600160a01b03163314610bda5760405162461bcd60e51b815260040161023e90614aad565b610c07565b6001600160a01b0382163314610c075760405162461bcd60e51b815260040161023e90614aad565b505050565b60209190910151811661ffff90811691161490565b610c2961452a565b6000610c33611cda565b6001600160a01b03948516600081815260209283526040808220969097168152948252858520546001600160501b038082168703865263ffffffff600160a01b83041693860193909352600160501b900490911694830194909452506060810192909252608082015290565b610ca76145df565b6000610cb1611ce7565b6001600160a01b03909416600090815260209485526040808220858352865280822094845284546001600160501b038082169093039685019690965260ff600160f01b870416151590840152600160501b8086048216608085015260019094015480821660a0850152600160a01b909504166060830152509104600990810b900b60c082015290565b8251602083015160009114610d4e57600080fd5b6040830151610d5d9083611910565b60408401526000610d6e8584611cf4565b92509050610d89610d7e826113ec565b608086015190611d4b565b6080909401939093529392505050565b6000610da760001983611d61565b90505b919050565b8551600090610dbe9085611d4b565b1315610dc957600080fd5b85602001518110610dd957600080fd5b6000610df68660400151886020015186868a610100015187611daf565b905080610e1957610160860151610e1690610e119086611ee1565b610d99565b90505b6000811315610e2757600080fd5b610e348787878785611958565b50505050505050565b6000610e47611ce7565b6001600160a01b0383166000908152602082815260408083208751845290915290819020908501519192509015610e7d57600080fd5b610e9a610e95610e908660200151610d99565b6118bb565b611f0c565b81546001600160501b0319166001600160501b03919091161781556080840151610ec390611f0c565b81546001600160501b0391909116600160501b02600160501b600160a01b031990911617815560a0840151610ef790611f0c565b6001820180546001600160501b0319166001600160501b03929092169190911790556060840151610f2790611f0c565b81546001600160501b0391909116600160a01b0269ffffffffffffffffffff60a01b1990911617815583516020850151608086015160a087015160608801516040516001600160a01b038916947f3a0fdaecf7b5da75a56077f5b1c8fbc88f9b08e9d0c4db31eb34e25bc6700cde94610fa39491939092614a92565b60405180910390a350505050565b8689602001511480610fc257508851155b610fcb57600080fd5b6000610fdb896000015189610c9f565b90508615610ffc57610ffc8a8a838b610ff6610e118d6113ec565b8b611f22565b61100b818b8b86868a8a611fc9565b8851611018908290610e3d565b6110228a8a61144e565b86156110335761103389828c611406565b50505050505050505050565b611047614562565b61105082611b10565b9050610b97816040015161ffff16612135565b6000806110728688878761214b565b9050600061108e61108285610d99565b6101608a015190611ee1565b9050600061109c83836121b6565b9050816110b2576001600160ff1b0393506110bf565b6110bc81836121cc565b93505b50509550959350505050565b60008060006110ec633b9aca00866101200151611d4b90919063ffffffff16565b9050600061110c6111008860000151610d99565b61016088015190611ee1565b90506111426111288760c00151846121b690919063ffffffff16565b61113c8761113685876121e5565b906121b6565b906121cc565b9350600061115082866121b6565b905060006111708860600151896101600151611ee190919063ffffffff16565b90508082121561118257829550600194505b50505050935093915050565b6000806111a384600001518660200151610c9f565b905080604001516111c65760405162461bcd60e51b815260040161023e90614bec565b60006111df856040015161ffff168760200151866121fe565b9050600061120c6305f5e1006112068560c001516112008760a001516113ec565b90611d61565b9061236e565b9050600061121c8885858561239f565b9050600061122d8886868587612424565b60008b5260808b01519097509091506112469082611d4b565b60808a0152600060408a0181905260208a01526101408801515161ffff1615158061127d57506101408801516020015161ffff1615155b156112c55761128a611562565b60608a01516001600160a01b039081166000908152602092835260408082208c51909316825291909252902080546001600160c01b03191690555b50505050509392505050565b6000816112e057506000611373565b600082136112ed57600080fd5b60006112fc8461ffff166117d5565b9050600061130a8285612657565b905060048260600151600581111561131e57fe5b141561134c57611345610e90610e11888861ffff1661133c86610d99565b8792919061268f565b9250611370565b61136d610e90610e118761ffff1689611364866118bb565b87929190612737565b92505b50505b9392505050565b60008660800151131561138c57600080fd5b6113d8876040518060a0016040528089606001516001600160a01b03168152602001886001600160a01b03168152602001878152602001868152602001896080015181525084846127d7565b505060006080909501949094525050505050565b60006001600160ff1b0382111561140257600080fd5b5090565b60006114218484846060015185604001518660000151611063565b509050808460a0015113156114485760405162461bcd60e51b815260040161023e90614c6a565b50505050565b6000611458611cda565b60608401516001600160a01b0390811660009081526020838152604080832087519094168352929052206080850151919250901561149557600080fd5b835115806114b1575083516114a990610d99565b836060015113155b6114cd5760405162461bcd60e51b815260040161023e90614d27565b6114e0610e95610e908660000151610d99565b81546001600160501b0319166001600160501b0391909116178155604084015161150990611f0c565b81546001600160501b0391909116600160501b02600160501b600160a01b0319909116178155602084015161153d90612a5d565b815463ffffffff91909116600160a01b0263ffffffff60a01b19909116179055505050565b600080610b55601a612a70565b6000806000846060015111156115c25761159e84606001516109de8660800151866118ca90919063ffffffff16565b91506115bf84606001516109de8660a00151866118ca90919063ffffffff16565b90505b9250929050565b6001600160a01b0381166115dc57600080fd5b6001600160a01b0381163014156115f257600080fd5b60006115fd82612a89565b5050505061ffff1690508060001461161457600080fd5b5050565b60008161162757506000611373565b600061163a856040015161ffff166117d5565b9050600060048260600151600581111561165057fe5b1461166b57611666866040015161ffff16612af5565b61166d565b815b865190915060038260600151600581111561168457fe5b14156116be578434146116a95760405162461bcd60e51b815260040161023e90614d4b565b6116b38134612b08565b349350505050611373565b81602001511561170a5760006116d48383612b3e565b90506116e68360000151888489612bef565b60006116f28484612b3e565b90506116fe8183611910565b95505050505050611373565b815161171890878388612bef565b849350505050611373565b5050509392505050565b611735614562565b61173e83610b73565b905061174b816080610c0c565b15611756576001600a555b611761816020610c0c565b1561178e57336001600160a01b0384161461178e5760405162461bcd60e51b815260040161023e90614aad565b6001600160a01b03841633148015906117b95750816001600160a01b0316846001600160a01b031614155b6113735760405162461bcd60e51b815260040161023e90614aad565b6117dd61461e565b610da7826000612c77565b60006117f3836113ec565b905060058660600151600581111561180757fe5b14156118225761181f846040015161ffff1682612d25565b90505b6000806118308787866110cb565b909250905060006118418984612657565b90508084121561186e5781156118695760405162461bcd60e51b815260040161023e90614ca1565b611872565b8093505b604087015160009061188c908b908d9061ffff168861268f565b90506118a661189b8b83612dac565b60808b015190611d4b565b60809099019890985250505050505050505050565b60008082121561140257600080fd5b6000826118d957506000610b55565b828202828482816118e657fe5b0414610b5257600080fd5b60008082116118ff57600080fd5b81838161190857fe5b049392505050565b60008282111561191f57600080fd5b50900390565b60008061195084604001516112066402540be400611206878960200151611d6190919063ffffffff16565b949350505050565b60808501516119679082611d4b565b608086015284516119789083611d4b565b8086526000121561198857600080fd5b60208301516119979083611d4b565b60208401819052600012156119ab57600080fd5b6119be8460000151856040015184612ddc565b505050505050565b6000806119d7868660000151610c21565b90508060200151600014806119ef5750828160200151145b611a0b5760405162461bcd60e51b815260040161023e90614ad3565b602081018390526040810151611a219085612ee2565b6040820152611a30818661144e565b5091949350505050565b60008080611a488888611cf4565b89519193509150600090611a63908b908d9085908b8b612ef4565b9050611a78611a71846113ec565b8290611d4b565b8a51909150611a88908a90610e3d565b6000611ab38c8c6040015161ffff16611aaa611aa386610d99565b8a90612657565b8992919061268f565b9050600586606001516005811115611ac757fe5b1415611af4576000611ae08c6040015161ffff16612af5565b9050611af0816000015183612f46565b9150505b611b00610e9082610d99565b9c9b505050505050505050505050565b611b18614562565b6000611b22612fd5565b6001600160a01b03841660008181526020838152604091829020928652825461ffff808216928801929092526201000081049091169186019190915291925090611b839063ffffffff6401000000009091048116906305f5e10090611d6116565b60608401528054611ba190600160501b900460ff166207a1206118ca565b60808401528054611bc59068010000000000000000900461ffff16620186a06118ca565b60a08401528054611be490600160701b900461ffff16620186a06118ca565b610120840152805460649060ff600160581b90910416633b9aca00020560c08401528054600160601b810460ff90811660e0860152600160681b909104166101008401526040805180820191829052906001830190600290826000855b82829054906101000a900461ffff1661ffff1681526020019060020190602082600101049283019260010382029150808411611c4157905050505050508361014001819052505050919050565b611c9661464d565b6000806000611ca485612fe2565b604080516060810182526001600160a01b039093168352602083019390935260ff16600a0a918101919091529350505050919050565b600080610b556016612a70565b600080610b556015612a70565b600080611d01848461156f565b60808601519193509150611d159083611910565b608085015260a0840151611d299082611910565b60a08501526060840151611d3d9084611910565b606090940193909352929050565b81810182811215600083121514610b5557600080fd5b818102600019831415611d9157811580611d83575082828281611d8057fe5b05145b611d8c57600080fd5b610b55565b821580611da6575081838281611da357fe5b05145b610b5557600080fd5b600080611dbf8861ffff166130a5565b9050838160ff161115611dd157600080fd5b600080611de28360ff168a876130bb565b915091508015611df157600080fd5b6000611dfc89613183565b90506affffffffffffffffffffff8110611e1557600080fd5b600060788963ffffffff16901b609883901b60f086901b60f860008e13611e3d576001611e40565b60005b6005811115611e4b57fe5b60ff16901b17171760001b905073__TradingAction_________________________63e50f349e8d836040518363ffffffff1660e01b8152600401611e91929190614e69565b60206040518083038186803b158015611ea957600080fd5b505af4158015611ebd573d6000803e3d6000fd5b505050506040513d601f19601f82011682018060405250810190611b009190614920565b600080611950846020015161120686604001516112006402540be40088611d6190919063ffffffff16565b60006001600160501b0382111561140257600080fd5b60008212611f2f57600080fd5b6000611f4886604001518585858a610100015142611daf565b905060008113611f6a5760405162461bcd60e51b815260040161023e90614d00565b611f778787878685611958565b8651611f8290610d99565b86606001511315611fa55760405162461bcd60e51b815260040161023e90614d27565b6000611fb18542611910565b9050611fbf878986846131a4565b5050505050505050565b608087015115611fd857600080fd5b600086608001511215611fea57600080fd5b8651602087015110156120125760408601511561200657600080fd5b86516020870152612023565b865160208701511461202357600080fd5b606086015160808701518851612048926120419289928888886132b3565b8590612ee2565b93506000876060015160001415612060575083612082565b61207f8860a001516109de8a60600151886118ca90919063ffffffff16565b90505b60a08801516120919086612ee2565b60a089015260608801516120a59082612ee2565b606089015260408701516120b99082612ee2565b604088015260608701518851875160808a01516001600160a01b0393841693909116907f87d46c761bdd82b4a559098beeb0d5b8fa8c0e2aa3607704fe0757618e85e24d906121089089612ee2565b898660405161211993929190614ecc565b60405180910390a4505060006080909501949094525050505050565b61213d61464d565b6000806000611ca485613369565b60008161215a57506000611950565b600080612167878561156f565b9150915060006121868760400151886000015188858c600001516133ec565b90506121aa612194846113ec565b6101608901516121a49084611ee1565b90611d4b565b98975050505050505050565b80820382811315600083121514610b5557600080fd5b6000610b526121df84633b9aca00611d61565b8361236e565b6000610b526121f48484611d61565b633b9aca0061236e565b61220661464d565b60008061221386866134a6565b91509150816000141561234357600061222b87612fe2565b91945090925090506001600160a01b0381161561234157600061224c6134ef565b905085600010801561225e5750858711155b801561226f575064ffffffffff8611155b61227857600080fd5b83600012801561228f57506001600160801b038413155b61229857600080fd5b6000888152602082815260408083208a845290915290819020805464ffffffffff191664ffffffffff89161774ffffffffffffffffffffffffffffffff00000000001916650100000000006001600160801b038816021760ff60a81b1916600160a81b60ff871602178155905188908a907f0fdfa6885701e2f1f42e4187b9231cf81c1fe23671ef64fa46f34ddb56c1dc1890612336908990614e55565b60405180910390a350505b505b6040805160608101825260008152602081019390935260ff909116600a0a9082015290509392505050565b6000816000191480156123845750600160ff1b83145b1561238e57600080fd5b81838161239757fe5b059392505050565b6000806123c36123bc6123b587608001516113ec565b8690611925565b8490611d4b565b90506123ee86600001516121a46123dd88606001516113ec565b611206856112008c604001516113ec565b9150600082121561241b576124116124068584611ee1565b608088015190611d4b565b6080870152600091505b50949350505050565b6000806000612450612443886020015188611ee190919063ffffffff16565b6121a489608001516113ec565b90506000612462856121a48985611925565b9050612482610e908261120661247b8c60a001516113ec565b8a90611d61565b9250612492816112068885611d61565b9350505060006124a06134fc565b88516001600160a01b03166000908152602091825260408082208a5183529092522080549091506001600160501b03811690600160501b9004600990810b900b83821015612524576125176125106125096305f5e1006112068d60c00151611200888b036113ec565b8a90611ee1565b8690611d4b565b945090925060009061252a565b83820391505b82546001600160501b0319166001600160501b038316178355600085121561255157600080fd5b848112156125bf576000808213612568578561256c565b8186035b905060006125838c600001518d6040015184613509565b905060008313156125b4576125988382611d4b565b8554600160501b600160a01b03191686559650600092506125b8565b8096505b50506125fe565b6125c981866121b6565b90506125d48161362e565b835460099190910b6001600160501b0316600160501b02600160501b600160a01b03199091161783555b88600001518a600001516001600160a01b03167ff5b347a56f0b5140f05eec05ff743978670a56685689fdc2c3193d71cfac31a98385604051612642929190614a67565b60405180910390a35050509550959350505050565b60006305f5e10083604001511415612670575080610b55565b610b526305f5e100611206856040015185611d6190919063ffffffff16565b806005856060015160058111156126a257fe5b14156126c75760006126b384612af5565b90506126c3816000015184612f46565b9250505b60008213156126f35760006126dd86868561365e565b90508560200151156126ed578091505b50611950565b60038560600151600581111561270557fe5b14156127225761271d8461271884610d99565b612b08565b611950565b8451611950908561273285610d99565b61374c565b60008060028660600151600581111561274c57fe5b14156127645761275d8685856137c3565b90506127c1565b600061276f86612af5565b905060058760600151600581111561278357fe5b141561279b57612794818686613880565b91506127bf565b6001876060015160058111156127ad57fe5b141561009c5761279487828787613929565b505b6127cd610e11826113ec565b9695505050505050565b6000806127eb866040015161ffff166117d5565b9050600060048260600151600581111561280157fe5b1461281c57612817876040015161ffff16612af5565b61281e565b815b9050600080876080015112156128915760048360600151600581111561284057fe5b141561285d57612856610e908860800151610d99565b9050612891565b600061287e610e1189608001518b610160015161192590919063ffffffff16565b905061288d610e908483613a27565b9150505b6040870151600090156129505760006128aa8430612b3e565b905089600001516001600160a01b03166344f051088a600001518b602001518c604001518d60600151888e8e6040518863ffffffff1660e01b81526004016128f89796959493929190614976565b600060405180830381600087803b15801561291257600080fd5b505af1158015612926573d6000803e3d6000fd5b50505050600061293f3086612b3e90919063ffffffff16565b905061294b8183611910565b925050505b818110156129eb5780820360038460600151600581111561296d57fe5b14156129ab57348111156129935760405162461bcd60e51b815260040161023e90614b40565b6129a38960000151823403612b08565b8291506129e9565b60006129d08a600001518c6040015161ffff166129c7856113ec565b8892919061268f565b90506129e56129de826118bb565b8490612ee2565b9250505b505b81811015612a0b5760405162461bcd60e51b815260040161023e90614b40565b6000600485606001516005811115612a1f57fe5b14612a3a5760408a0151612a3590869084613a5c565b612a43565b612a43826113ec565b9050612a4f8582612dac565b9a9950505050505050505050565b600063ffffffff82111561140257600080fd5b6000620f424082601a811115612a8257fe5b0192915050565b600080600080600080612a9a613b43565b6001600160a01b039097166000908152602097909752505060409094205461ffff81169563ffffffff620100008304811696506601000000000000830416945060ff600160501b8304169350600160581b90910460d81b9150565b612afd61461e565b610da7826001612c77565b6040516001600160a01b0383169082156108fc029083906000818181858888f19350505050158015610c07573d6000803e3d6000fd5b6000600383606001516005811115612b5257fe5b1415612b6957506001600160a01b03811631610b55565b82516040516370a0823160e01b81526001600160a01b03909116906370a0823190612b98908590600401614962565b60206040518083038186803b158015612bb057600080fd5b505afa158015612bc4573d6000803e3d6000fd5b505050506040513d601f19601f82011682018060405250810190612be89190614920565b9050610b55565b836001600160a01b03166323b872dd8484846040518463ffffffff1660e01b815260040180846001600160a01b03168152602001836001600160a01b031681526020018281526020019350505050600060405180830381600087803b158015612c5757600080fd5b505af1158015612c6b573d6000803e3d6000fd5b50505050611448613b50565b612c7f61461e565b6000612c89613bbd565b6000858152602082815260408083208715158452825291829020825160a08101845281546001600160a01b038116825260ff600160a01b82048116151594830194909452600160b01b81048416600a0a9482019490945293945092916060830191600160a81b909104166005811115612cfe57fe5b81529154600160b81b900468ffffffffffffffffff16602090920191909152949350505050565b600081612d3457506000610b55565b60008213612d4157600080fd5b6000612d4c84612af5565b90506000612d5d8260000151613bca565b9050600281056b033b2e3c9fd0803ce80000006001600160ff1b0382900305851315612d8857600080fd5b81816b033b2e3c9fd0803ce800000087020181612da157fe5b059695505050505050565b60006305f5e10083604001511415612dc5575080610b55565b6040830151610b5290611206846305f5e100611d61565b600080612de7613c55565b6001600160a01b03861660009081526020918252604080822061ffff88168352909252208054909150612e2a90600160501b90046001600160501b0316846121b6565b91506000831215612e5f5780546001600160501b0316821315612e5f5760405162461bcd60e51b815260040161023e90614bc6565b612e6b610e95836118bb565b81546001600160501b0391909116600160501b02600160501b600160a01b031990911617815560405161ffff8516906001600160a01b038716907f20478ef460e49d010960d4f3fff35d8dae385443abfac09035d6a2ccbcd834c490612ed2908690614a5e565b60405180910390a3509392505050565b600082820183811015610b5257600080fd5b6000612f3b876040518060a00160405280896001600160a01b03168152602001896001600160a01b03168152602001888152602001878152602001600081525085856127d7565b979650505050505050565b600081612f5557506000610b55565b6000612f6084613bca565b90506000612f6d84613183565b9050816b019d971e4fe8401e74000001600160ff1b0381612f8a57fe5b05811315612f9757600080fd5b6b033b2e3c9fd0803ce80000006b019d971e4fe8401e74000000838302010560008513612fcc57612fc781610d99565b6127cd565b95945050505050565b600080610b556014612a70565b6000806000806000612ff386613c62565b909250905060006001600160a01b0383166130185750600090506402540be40061309a565b826001600160a01b0316631ee108336040518163ffffffff1660e01b8152600401602060405180830381600087803b15801561305357600080fd5b505af1158015613067573d6000803e3d6000fd5b505050506040513d601f19601f8201168201806040525081019061308b9190614920565b90506000811361309a57600080fd5b969195509350915050565b6000806130b183613c99565b60ff169392505050565b600080600085116130de5760405162461bcd60e51b815260040161023e90614b70565b60078511156130ff5760405162461bcd60e51b815260040161023e90614c11565b600061310a84613cb6565b905060015b86811161316257600061312b61312483613cd4565b8490613d78565b905086811415613143575092506000915061317b9050565b86811115613159575092506001915061317b9050565b5060010161310f565b5060405162461bcd60e51b815260040161023e90614d70565b935093915050565b60008082121561319d5761319682610d99565b9050610daa565b5080610daa565b60008213156131b257600080fd5b60006131d36301da9c006112066131c8856113ec565b608089015190611d61565b905060006131ed611100836131e787610d99565b906121e5565b9050600061320d60646112068960e0015185611d6190919063ffffffff16565b9050600061321b83836121b6565b905061322f886040015161ffff1683613dd2565b613241886040015161ffff1682613e59565b608087015161325090846121b6565b876080018181525050876040015161ffff1688600001516001600160a01b03167fc448297edd1aecd55e8eac1f504aec5157ab848b2b64e0f8d4631357d90e35c284846040516132a1929190614a67565b60405180910390a35050505050505050565b6000806132c989600001518a60400151896112d1565b89519091506001600160a01b031663dc6679c5896132e78489612ee2565b8988886040518663ffffffff1660e01b815260040161330a959493929190614a25565b602060405180830381600087803b15801561332457600080fd5b505af1158015613338573d6000803e3d6000fd5b505050506040513d601f19601f8201168201806040525081019061335c9190614920565b9998505050505050505050565b600080600080600061337a86613c62565b909250905060006001600160a01b03831661339f5750600090506402540be40061309a565b826001600160a01b031663b2fffb046040518163ffffffff1660e01b815260040160206040518083038186803b1580156133d857600080fd5b505afa158015613067573d6000803e3d6000fd5b6000806133fc8761ffff16612af5565b905080604001516000141561341b576134188761ffff166117d5565b90505b60405163e937711160e01b8152612f3b906001600160a01b0388169063e93771119061344f90899089908990600401614a04565b60206040518083038186803b15801561346757600080fd5b505afa15801561347b573d6000803e3d6000fd5b505050506040513d601f19601f8201168201806040525081019061349f9190614920565b8290612dac565b60008060006134b36134ef565b6000958652602090815260408087209587529490525050509020546501000000000081046001600160801b031691600160a81b90910460ff1690565b600080610b556008612a70565b600080610b556019612a70565b6000613516846000613ea5565b836001600160a01b03167f7c51c6aa77346c54cb051d9e792f9b7bde5c28a9b57e6fb2d2dd727b38438ca960006040516135509190614a53565b60405180910390a28261ffff16846001600160a01b03167fc6525e68251be388040a5488ac0c1bbae9e15b03af12e7eb84fc2e7ff2b46384846040516135969190614a5e565b60405180910390a360006135af60008561ffff16613f05565b50505090508083136135cf576135c784848303613fae565b829150613626565b6135da846000613fae565b8361ffff16856001600160a01b03167fc83c39f2d248d6443025da5caee781f1d927fb0c59598b7c6084738fe7113e2283860360405161361a9190614a5e565b60405180910390a38091505b509392505050565b6000697fffffffffffffffffff1982128015906136555750697fffffffffffffffffff8213155b61140257600080fd5b600080808060058760600151600581111561367557fe5b14613687576370a0823160e01b613690565b630ed1279f60e11b5b90508660200151156136ac5786516136a9903083614011565b92505b86516136b9908787614123565b8660200151806136cd575060008760800151115b156136e25786516136df903083614011565b91505b60808701511561371d576000613700886136fb856113ec565b612dac565b905061370f88608001516113ec565b81131561371b57600080fd5b505b86602001511561374357613739613734838561417b565b6113ec565b9350505050611373565b613739856113ec565b826001600160a01b031663a9059cbb83836040518363ffffffff1660e01b815260040180836001600160a01b0316815260200182815260200192505050600060405180830381600087803b1580156137a357600080fd5b505af11580156137b7573d6000803e3d6000fd5b50505050610c07613b50565b825160405163db006a7560e01b8152600091479183916001600160a01b03169063db006a75906137f7908790600401614a5e565b602060405180830381600087803b15801561381157600080fd5b505af1158015613825573d6000803e3d6000fd5b505050506040513d601f19601f820116820180604052508101906138499190614920565b905080156138695760405162461bcd60e51b815260040161023e90614b20565b47613874818461417b565b93506117238685612b08565b600061389b610e908560000151613896856113ec565b612f46565b90506138a56141d2565b548451604051631a4ca37b60e21b81526001600160a01b03909216916369328dec916138d791859088906004016149b4565b602060405180830381600087803b1580156138f157600080fd5b505af1158015613905573d6000803e3d6000fd5b505050506040513d601f19601f820116820180604052508101906136269190614920565b8251600090819061394290306370a0823160e01b614011565b9050600086600001516001600160a01b031663db006a75856040518263ffffffff1660e01b81526004016139769190614a5e565b602060405180830381600087803b15801561399057600080fd5b505af11580156139a4573d6000803e3d6000fd5b505050506040513d601f19601f820116820180604052508101906139c89190614920565b905080156139e85760405162461bcd60e51b815260040161023e90614b20565b85516000906139ff90306370a0823160e01b614011565b9050613a0b818461417b565b9350613a1c8760000151878661374c565b505050949350505050565b60006305f5e10083604001511215613a4857612be860016121a48585612657565b610b5283613a57846001611d4b565b612657565b600080600585606001516005811115613a7157fe5b14613a83576370a0823160e01b613a8c565b630ed1279f60e11b5b90506000613a9f86600001513084614011565b9050600586606001516005811115613ab357fe5b1415613ada576000613ac88661ffff16612af5565b9050613ad481866141df565b50613b23565b600186606001516005811115613aec57fe5b1415613b0157613afc868561424a565b613b23565b600286606001516005811115613b1357fe5b141561009c57613afc86856142ec565b6000613b3487600001513085614011565b9050612f3b613734828461417b565b600080610b556002612a70565b6000613b5a614677565b3d8015613b6e5760208114613b7757600080fd5b60019250613b82565b60206000833e815192505b5081611614576040805162461bcd60e51b8152602060048201526005602482015264045524332360dc1b604482015290519081900360640190fd5b600080610b556007612a70565b6000610da7613bd76141d2565b5460405163d15e005360e01b81526001600160a01b039091169063d15e005390613c05908690600401614962565b60206040518083038186803b158015613c1d57600080fd5b505afa158015613c31573d6000803e3d6000fd5b505050506040513d601f19601f820116820180604052508101906137349190614920565b600080610b556017612a70565b6000806000613c6f61433f565b600094855260205250506040909120546001600160a01b03811692600160a01b90910460ff169150565b600080613ca461434c565b60009384526020525050604090205490565b60006276a700821015613cc857600080fd5b506276a7008106900390565b60008160011415613ce957506276a700610daa565b8160021415613cfc575062ed4e00610daa565b8160031415613d1057506301da9c00610daa565b8160041415613d2457506303b53800610daa565b8160051415613d3857506309450c00610daa565b8160061415613d4c575063128a1800610daa565b8160071415613d6057506325143000610daa565b60405162461bcd60e51b815260040161023e90614b9f565b600082820183811015610b52576040805162461bcd60e51b815260206004820152601b60248201527f536166654d6174683a206164646974696f6e206f766572666c6f770000000000604482015290519081900360640190fd5b6000811215613de057600080fd5b6000613ded600084613f05565b5050509050613e058282611d4b90919063ffffffff16565b9050613e18600084836000806000614359565b8261ffff167f85170c297762884f47ec6098b74925c795e6d33686b11019b400e33a9b23b5e983604051613e4c9190614a5e565b60405180910390a2505050565b6000811215613e6757600080fd5b6000613e72836144a0565b90506000613e808285613f05565b5050509050613e988382611d4b90919063ffffffff16565b90506114488285836144c6565b6000613eaf612fd5565b6001600160a01b038416600090815260208290526040902080549192509061ffff168315613eee57815461ffff19166001821761ffff16178255613efe565b815461ffff191661fffe82161782555b5050505050565b6000806000806000613f156144e4565b6001600160a01b0388166000908152602082815260408083208a8452909152902080546001600160501b0381169650600160501b900463ffffffff1694509091508315613f7e578054613f7790600160701b900466ffffffffffffff166144f1565b9250613f93565b8054600160701b900466ffffffffffffff1692505b54600160a81b9004600a90810b900b97939650919450925050565b6000811215613fbc57600080fd5b613fd160008361ffff16836000806000614359565b8161ffff167fd3625f7b5926828151efe19f7ae655488287357d99ebe67e5fb20522ca739c0b826040516140059190614a5e565b60405180910390a25050565b604080516001600160a01b0384811660248084019190915283518084039091018152604490920183526020820180516001600160e01b03166001600160e01b0319861617815292518251600094859485948a16939092909182918083835b6020831061408e5780518252601f19909201916020918201910161406f565b6001836020036101000a038019825116818451168082178552505050505050905001915050600060405180830381855afa9150503d80600081146140ee576040519150601f19603f3d011682016040523d82523d6000602084013e6140f3565b606091505b50915091508161410257600080fd5b80806020019051602081101561411757600080fd5b50519695505050505050565b604080516323b872dd60e01b81526001600160a01b038481166004830152306024830152604482018490529151918516916323b872dd9160648082019260009290919082900301818387803b1580156137a357600080fd5b60008282111561191f576040805162461bcd60e51b815260206004820152601e60248201527f536166654d6174683a207375627472616374696f6e206f766572666c6f770000604482015290519081900360640190fd5b600080610b556013612a70565b6141e76141d2565b54825160405163e8eda9df60e01b81526001600160a01b039092169163e8eda9df9161421c91859030906000906004016149d7565b600060405180830381600087803b15801561423657600080fd5b505af11580156119be573d6000803e3d6000fd5b815160405163140e25ad60e31b81526000916001600160a01b03169063a0712d689061427a908590600401614a5e565b602060405180830381600087803b15801561429457600080fd5b505af11580156142a8573d6000803e3d6000fd5b505050506040513d601f19601f820116820180604052508101906142cc9190614920565b90508015610c075760405162461bcd60e51b815260040161023e90614b02565b81600001516001600160a01b0316631249c58b826040518263ffffffff1660e01b81526004016000604051808303818588803b15801561432b57600080fd5b505af1158015610e34573d6000803e3d6000fd5b600080610b55600f612a70565b600080610b556009612a70565b60006143636144e4565b6001600160a01b0388166000908152602082815260408083208a845290915290209091506a7fffffffffffffffffffff1986128015906143ae57506a7fffffffffffffffffffff8613155b6143b757600080fd5b600085121580156143cf57506001600160501b038513155b6143d857600080fd5b836144185766ffffffffffffff8311156143f157600080fd5b805466ffffffffffffff60701b1916600160701b66ffffffffffffff851602178155614432565b8054600160501b900463ffffffff16841461443257600080fd5b8054600a9690960b6affffffffffffffffffffff16600160a81b026001600160a81b036001600160501b039096166001600160501b031963ffffffff909616600160501b0263ffffffff60501b19909816979097179490941695909517939093169190911790925550505050565b6000806144ab6144ff565b6000938452602052505060409020546001600160a01b031690565b60008112156144d457600080fd5b610c078383836000806000614359565b600080610b556006612a70565b600881901c60ff9091161b90565b600080610b556003612a70565b60405180604001604052806002906020820280368337509192915050565b6040518060a0016040528060008152602001600081526020016000815260200160006001600160a01b03168152602001600081525090565b60405180610180016040528060006001600160a01b03168152602001600061ffff168152602001600061ffff168152602001600081526020016000815260200160008152602001600081526020016000815260200160008152602001600081526020016145cd61450c565b81526020016145da61464d565b905290565b6040518060e001604052806000815260200160008152602001600015158152602001600081526020016000815260200160008152602001600081525090565b6040805160a0810182526000808252602082018190529181018290529060608201908152602001600081525090565b604051806060016040528060006001600160a01b0316815260200160008152602001600081525090565b60405180602001604052806001906020820280368337509192915050565b80356001600160a01b0381168114610daa57600080fd5b60008083601f8401126146bd578182fd5b50813567ffffffffffffffff8111156146d4578182fd5b6020830191508360208285010111156115c257600080fd5b803563ffffffff81168114610daa57600080fd5b60008060408385031215614712578182fd5b61471b83614695565b91506115bf60208401614695565b600080600080600080600060c0888a031215614743578283fd5b61474c88614695565b965061475a60208901614695565b955061476860408901614695565b94506060880135935060808801358015158114614783578384fd5b925060a088013567ffffffffffffffff81111561479e578283fd5b6147aa8a828b016146ac565b989b979a50959850939692959293505050565b60008060008060008060008060e0898b0312156147d8578081fd5b6147e189614695565b97506147ef60208a01614695565b96506147fd60408a01614695565b9550606089013594506080890135935061481960a08a016146ec565b925060c089013567ffffffffffffffff811115614834578182fd5b6148408b828c016146ac565b999c989b5096995094979396929594505050565b60008060008060008060008060e0898b03121561486f578384fd5b61487889614695565b975061488660208a01614695565b96506040890135955060608901359450608089013593506148a960a08a016146ec565b925060c089013567ffffffffffffffff811115614834578283fd5b60008060008060008060008060e0898b0312156148df578384fd5b6148e889614695565b97506148f660208a01614695565b9650604089013595506060890135945061491260808a016146ec565b93506148a960a08a016146ec565b600060208284031215614931578081fd5b5051919050565b60008284528282602086013780602084860101526020601f19601f85011685010190509392505050565b6001600160a01b0391909116815260200190565b600060018060a01b03808a16835280891660208401525086604083015285606083015284608083015260c060a083015261335c60c083018486614938565b6001600160a01b0393841681526020810192909252909116604082015260600190565b6001600160a01b03948516815260208101939093529216604082015261ffff909116606082015260800190565b6001600160a01b039390931683526020830191909152604082015260600190565b600060018060a01b038716825285602083015284604083015260806060830152612f3b608083018486614938565b901515815260200190565b90815260200190565b918252602082015260400190565b938452602084019290925260408301521515606082015260800190565b93845260208401929092526040830152606082015260800190565b6020808252600c908201526b155b985d5d1a1bdc9a5e995960a21b604082015260600190565b6020808252601590820152740acc2ead8e840a6d0c2e4cae6409ad2e6dac2e8c6d605b1b604082015260600190565b602080825260049082015263135a5b9d60e21b604082015260600190565b60208082526006908201526552656465656d60d01b604082015260600190565b602080825260169082015275125b9cdd59999a58da595b9d081c995c185e5b595b9d60521b604082015260600190565b60208082526015908201527410d1ce881b9bc81b585c9ad95d1cc81b1a5cdd1959605a1b604082015260600190565b6020808252600d908201526c092dcecc2d8d2c840d2dcc8caf609b1b604082015260600190565b6020808252600c908201526b4d617820436170616369747960a01b604082015260600190565b6020808252600b908201526a139bdd0814d95d1d1b195960aa1b604082015260600190565b60208082526016908201527510d1ce881b585c9ad95d081a5b99195e08189bdd5b9960521b604082015260600190565b6020808252600f908201526e139bc8149bdb1b08105b1b1bddd959608a1b604082015260600190565b60208082526017908201527f496e73756666696369656e7420436f6c6c61746572616c000000000000000000604082015260600190565b60208082526017908201527f4d757374204c697175696461746520416c6c2044656274000000000000000000604082015260600190565b6020808252600e908201526d1499595b9d1c985b9d0818d85b1b60921b604082015260600190565b6020808252600d908201526c109bdc9c9bddc819985a5b1959609a1b604082015260600190565b6020808252600a90820152694d696e20426f72726f7760b01b604082015260600190565b6020808252600b908201526a092dcecc2d8d2c8408aa8960ab1b604082015260600190565b60208082526013908201527210d1ce881b9bc81b585c9ad95d08199bdd5b99606a1b604082015260600190565b6020808252600c908201526b21b0b73737ba1022b73a32b960a11b604082015260600190565b6020808252600b908201526a11985a5b19590813195b9960aa1b604082015260600190565b60208082526015908201527414dd59999a58da595b9d0810dbdb1b185d195c985b605a1b604082015260600190565b8151815260208083015190820152604080830151908201526060808301516001600160a01b0316908201526080918201519181019190915260a00190565b6001600160801b0391909116815260200190565b61ffff929092168252602082015260400190565b8381526080810160208083018560005b6002811015614eaa57815183529183019190830190600101614e8d565b50505050826060830152949350505050565b9182521515602082015260400190565b928352602083019190915260408201526060019056fea26469706673582212202c49545d0a80c41a9163b4f35e132d21bc9ad08f2ed651d4cc4c6f62ca10a6e864736f6c63430007060033",
  "bytecodeSha1": "1d3592027342987a8b8901308a99efbdbfafdc02",
  "compiler": {
    "evm_version": "istanbul",
    "optimizer": {
      "enabled": true,
      "runs": 200
    },
    "version": "0.7.6+commit.7338295f"
  },
  "contractName": "VaultAccountAction",
  "deployedBytecode": "60806040526004361061009c5760003560e01c8063824633671161006457806382463367146101605780638da5cb5b1461017557806395c1a2021461018a5780639948315e1461019d578063c025d1a5146101ca578063c4c96dae146101f75761009c565b806324a3d622146100a1578063450c0e02146100cc578063647cc196146100ee5780636ce48f011461011e578063803c25fb14610131575b600080fd5b3480156100ad57600080fd5b506100b661020c565b6040516100c39190614962565b60405180910390f35b3480156100d857600080fd5b506100ec6100e73660046148c4565b61021b565b005b3480156100fa57600080fd5b5061010e610109366004614700565b6103d9565b6040516100c39493929190614a75565b6100ec61012c3660046147bd565b610472565b34801561013d57600080fd5b5061015161014c366004614700565b6106a9565b6040516100c393929190614e7d565b34801561016c57600080fd5b506100b661075a565b34801561018157600080fd5b506100b6610769565b6100ec610198366004614854565b610780565b3480156101a957600080fd5b506101bd6101b8366004614729565b6108c6565b6040516100c39190614a5e565b3480156101d657600080fd5b506101ea6101e5366004614700565b610b40565b6040516100c39190614e17565b34801561020357600080fd5b506100b6610b5b565b6002546001600160a01b031681565b6002600a5414156102475760405162461bcd60e51b815260040161023e90614cd8565b60405180910390fd5b6002600a55600061025788610b73565b9050610265818a6010610ba2565b610270816080610c0c565b1561027b576001600a555b60006102878a8a610c21565b9050610294826001610c0c565b80156102a657506102a6826002610c0c565b80156102b55750806020015142105b80156102c45750868160200151105b80156102d05750600088115b6102ec5760405162461bcd60e51b815260040161023e90614c41565b600061030083600001518360200151610c9f565b9050600061031d83846040015184610d3a9092919063ffffffff16565b905061033c84836103318660000151610d99565b869291908c42610daf565b82511561035b5760405162461bcd60e51b815260040161023e90614dc3565b8351610368908390610e3d565b61037a83858b8d8b8b8b886000610fb1565b888c6001600160a01b03168c6001600160a01b03167f67c1d09e65227d62b788f4c3e6ace545ac922034d69bd4aa45c53dec290275be8d6040516103be9190614a5e565b60405180910390a450506001600a5550505050505050505050565b60008060008060006103ea8661103f565b905060006103f88888610c21565b9050600061040a888360200151610c9f565b90508260a00151955080604001511561042c576001600160ff1b039650610466565b6040820151825160009161044691869185918e9190611063565b9098509050868812156104645761045e8385836110cb565b90965094505b505b50505092959194509250565b6002600a5414156104955760405162461bcd60e51b815260040161023e90614cd8565b6002600a5560006104a588610b73565b90506104b3818a6008610ba2565b6104be816080610c0c565b156104c9576001600a555b60006104d58a8a610c21565b90504281602001511161057657602081015160006104f483854261118e565b905060008360800151131561051f576105168a856040015185608001516112d1565b50600060808401525b61052e84848c84868b8b61137a565b818c6001600160a01b03168c6001600160a01b03167f8255ee71b1bee16ae1f9ff6c76fe18682af74350ef6c49dba972aab969a7e67c60405160405180910390a45050610670565b600061058a83600001518360200151610c9f565b90506105a5838261059a8a6113ec565b859291908a42610daf565b87156105fa5760006105b882848b610d3a565b90506000836080015113156105e3576105da8a856040015185608001516112d1565b50600060808401525b81516105f890859085908d9085908b8b61137a565b505b81516000131561060f5761060f838284611406565b825161061c908290610e3d565b80600001518b6001600160a01b03168b6001600160a01b03167f5fa4d63d84bbcbb86063028ac3ad93f61e31764be1de668fc3b3dc6fe930e82f8a8c604051610666929190614a67565b60405180910390a4505b805115801561068157506040810151155b1561068e57600060208201525b610698818361144e565b50506001600a555050505050505050565b60006106b361450c565b6000806106be611562565b6001600160a01b03878116600090815260209283526040808220928916825291835290812080546001600160501b03640100000000820481168852600160701b8204169387019390935263ffffffff909216955090915061071f8787610c21565b90506000610731878360200151610c9f565b905061074a82604001518261156f90919063ffffffff16565b9050809450505050509250925092565b6001546001600160a01b031681565b60005464010000000090046001600160a01b031681565b6002600a5414156107a35760405162461bcd60e51b815260040161023e90614cd8565b6002600a556107b1886115c9565b60006107bc88610b73565b90506107ca818a6004610ba2565b6107d5816080610c0c565b156107e0576001600a555b6107eb816001610c0c565b6108075760405162461bcd60e51b815260040161023e90614d9d565b8542106108265760405162461bcd60e51b815260040161023e90614d9d565b60006108328a8a610c21565b90506000816020015160001415801561084f575042826020015111155b156108625761085f82844261118e565b90505b600061086f848d8c611618565b905061088283858b8b8b8b8b8989610fb1565b888c6001600160a01b03168c6001600160a01b03167f7e1a5e400898c4bb3cfc62f61a71f4369ec78f0e778a31286892b7d2c0d044f28b6040516103be9190614a5e565b60006002600a5414156108eb5760405162461bcd60e51b815260040161023e90614cd8565b6002600a5560006108fd89898961172d565b9050600061090b8a8a610c21565b9050600061091d8a8360200151610c9f565b90508160200151421061092f57600080fd5b600080610953838e866040015187600001518961106390949392919063ffffffff16565b915091508460a00151821261097a5760405162461bcd60e51b815260040161023e90614de8565b600061098d866040015161ffff166117d5565b905061099d8c8287898f876117e8565b60006109e4633b9aca006109de6109b3866118bb565b6109de8a604001516109d86109cb8e60c001516118bb565b6109d88e608001516118bb565b906118ca565b906118f1565b60408701519091506109f69082611910565b60408701526080860151610160880151600091610a139190611925565b9050610a32888783610a288b60800151610d99565b8b93929190611958565b865160001215610a4157600087525b8f6001600160a01b03168f6001600160a01b03167f5b4676a4ed91c52fd6c4a759aec8a3561b67499c52870fc58000a8eb54fec3018484604051610a86929190614a67565b60405180910390a350610a99868861144e565b8c6001600160a01b03168f6001600160a01b03168f6001600160a01b03167f01745a2fe0d7c484ea79432a82f950eac6916adc499a0223d2ebdadcdb210f2a848f604051610ae8929190614ebc565b60405180910390a48a15610b21578651610b03908690610e3d565b610b138d888389602001516119c6565b975050505050505050610b30565b610b138d8887848e8e88611a3a565b6001600a55979650505050505050565b610b4861452a565b610b528383610c21565b90505b92915050565b73__$7ac922d04bd7a1b42c7f6e5f1dd89a70af$__90565b610b7b614562565b610b8482611b10565b9050610b97816040015161ffff16611c8e565b610160820152919050565b610bac8382610c0c565b15610bdf5782516001600160a01b03163314610bda5760405162461bcd60e51b815260040161023e90614aad565b610c07565b6001600160a01b0382163314610c075760405162461bcd60e51b815260040161023e90614aad565b505050565b60209190910151811661ffff90811691161490565b610c2961452a565b6000610c33611cda565b6001600160a01b03948516600081815260209283526040808220969097168152948252858520546001600160501b038082168703865263ffffffff600160a01b83041693860193909352600160501b900490911694830194909452506060810192909252608082015290565b610ca76145df565b6000610cb1611ce7565b6001600160a01b03909416600090815260209485526040808220858352865280822094845284546001600160501b038082169093039685019690965260ff600160f01b870416151590840152600160501b8086048216608085015260019094015480821660a0850152600160a01b909504166060830152509104600990810b900b60c082015290565b8251602083015160009114610d4e57600080fd5b6040830151610d5d9083611910565b60408401526000610d6e8584611cf4565b92509050610d89610d7e826113ec565b608086015190611d4b565b6080909401939093529392505050565b6000610da760001983611d61565b90505b919050565b8551600090610dbe9085611d4b565b1315610dc957600080fd5b85602001518110610dd957600080fd5b6000610df68660400151886020015186868a610100015187611daf565b905080610e1957610160860151610e1690610e119086611ee1565b610d99565b90505b6000811315610e2757600080fd5b610e348787878785611958565b50505050505050565b6000610e47611ce7565b6001600160a01b0383166000908152602082815260408083208751845290915290819020908501519192509015610e7d57600080fd5b610e9a610e95610e908660200151610d99565b6118bb565b611f0c565b81546001600160501b0319166001600160501b03919091161781556080840151610ec390611f0c565b81546001600160501b0391909116600160501b02600160501b600160a01b031990911617815560a0840151610ef790611f0c565b6001820180546001600160501b0319166001600160501b03929092169190911790556060840151610f2790611f0c565b81546001600160501b0391909116600160a01b0269ffffffffffffffffffff60a01b1990911617815583516020850151608086015160a087015160608801516040516001600160a01b038916947f3a0fdaecf7b5da75a56077f5b1c8fbc88f9b08e9d0c4db31eb34e25bc6700cde94610fa39491939092614a92565b60405180910390a350505050565b8689602001511480610fc257508851155b610fcb57600080fd5b6000610fdb896000015189610c9f565b90508615610ffc57610ffc8a8a838b610ff6610e118d6113ec565b8b611f22565b61100b818b8b86868a8a611fc9565b8851611018908290610e3d565b6110228a8a61144e565b86156110335761103389828c611406565b50505050505050505050565b611047614562565b61105082611b10565b9050610b97816040015161ffff16612135565b6000806110728688878761214b565b9050600061108e61108285610d99565b6101608a015190611ee1565b9050600061109c83836121b6565b9050816110b2576001600160ff1b0393506110bf565b6110bc81836121cc565b93505b50509550959350505050565b60008060006110ec633b9aca00866101200151611d4b90919063ffffffff16565b9050600061110c6111008860000151610d99565b61016088015190611ee1565b90506111426111288760c00151846121b690919063ffffffff16565b61113c8761113685876121e5565b906121b6565b906121cc565b9350600061115082866121b6565b905060006111708860600151896101600151611ee190919063ffffffff16565b90508082121561118257829550600194505b50505050935093915050565b6000806111a384600001518660200151610c9f565b905080604001516111c65760405162461bcd60e51b815260040161023e90614bec565b60006111df856040015161ffff168760200151866121fe565b9050600061120c6305f5e1006112068560c001516112008760a001516113ec565b90611d61565b9061236e565b9050600061121c8885858561239f565b9050600061122d8886868587612424565b60008b5260808b01519097509091506112469082611d4b565b60808a0152600060408a0181905260208a01526101408801515161ffff1615158061127d57506101408801516020015161ffff1615155b156112c55761128a611562565b60608a01516001600160a01b039081166000908152602092835260408082208c51909316825291909252902080546001600160c01b03191690555b50505050509392505050565b6000816112e057506000611373565b600082136112ed57600080fd5b60006112fc8461ffff166117d5565b9050600061130a8285612657565b905060048260600151600581111561131e57fe5b141561134c57611345610e90610e11888861ffff1661133c86610d99565b8792919061268f565b9250611370565b61136d610e90610e118761ffff1689611364866118bb565b87929190612737565b92505b50505b9392505050565b60008660800151131561138c57600080fd5b6113d8876040518060a0016040528089606001516001600160a01b03168152602001886001600160a01b03168152602001878152602001868152602001896080015181525084846127d7565b505060006080909501949094525050505050565b60006001600160ff1b0382111561140257600080fd5b5090565b60006114218484846060015185604001518660000151611063565b509050808460a0015113156114485760405162461bcd60e51b815260040161023e90614c6a565b50505050565b6000611458611cda565b60608401516001600160a01b0390811660009081526020838152604080832087519094168352929052206080850151919250901561149557600080fd5b835115806114b1575083516114a990610d99565b836060015113155b6114cd5760405162461bcd60e51b815260040161023e90614d27565b6114e0610e95610e908660000151610d99565b81546001600160501b0319166001600160501b0391909116178155604084015161150990611f0c565b81546001600160501b0391909116600160501b02600160501b600160a01b0319909116178155602084015161153d90612a5d565b815463ffffffff91909116600160a01b0263ffffffff60a01b19909116179055505050565b600080610b55601a612a70565b6000806000846060015111156115c25761159e84606001516109de8660800151866118ca90919063ffffffff16565b91506115bf84606001516109de8660a00151866118ca90919063ffffffff16565b90505b9250929050565b6001600160a01b0381166115dc57600080fd5b6001600160a01b0381163014156115f257600080fd5b60006115fd82612a89565b5050505061ffff1690508060001461161457600080fd5b5050565b60008161162757506000611373565b600061163a856040015161ffff166117d5565b9050600060048260600151600581111561165057fe5b1461166b57611666866040015161ffff16612af5565b61166d565b815b865190915060038260600151600581111561168457fe5b14156116be578434146116a95760405162461bcd60e51b815260040161023e90614d4b565b6116b38134612b08565b349350505050611373565b81602001511561170a5760006116d48383612b3e565b90506116e68360000151888489612bef565b60006116f28484612b3e565b90506116fe8183611910565b95505050505050611373565b815161171890878388612bef565b849350505050611373565b5050509392505050565b611735614562565b61173e83610b73565b905061174b816080610c0c565b15611756576001600a555b611761816020610c0c565b1561178e57336001600160a01b0384161461178e5760405162461bcd60e51b815260040161023e90614aad565b6001600160a01b03841633148015906117b95750816001600160a01b0316846001600160a01b031614155b6113735760405162461bcd60e51b815260040161023e90614aad565b6117dd61461e565b610da7826000612c77565b60006117f3836113ec565b905060058660600151600581111561180757fe5b14156118225761181f846040015161ffff1682612d25565b90505b6000806118308787866110cb565b909250905060006118418984612657565b90508084121561186e5781156118695760405162461bcd60e51b815260040161023e90614ca1565b611872565b8093505b604087015160009061188c908b908d9061ffff168861268f565b90506118a661189b8b83612dac565b60808b015190611d4b565b60809099019890985250505050505050505050565b60008082121561140257600080fd5b6000826118d957506000610b55565b828202828482816118e657fe5b0414610b5257600080fd5b60008082116118ff57600080fd5b81838161190857fe5b049392505050565b60008282111561191f57600080fd5b50900390565b60008061195084604001516112066402540be400611206878960200151611d6190919063ffffffff16565b949350505050565b60808501516119679082611d4b565b608086015284516119789083611d4b565b8086526000121561198857600080fd5b60208301516119979083611d4b565b60208401819052600012156119ab57600080fd5b6119be8460000151856040015184612ddc565b505050505050565b6000806119d7868660000151610c21565b90508060200151600014806119ef5750828160200151145b611a0b5760405162461bcd60e51b815260040161023e90614ad3565b602081018390526040810151611a219085612ee2565b6040820152611a30818661144e565b5091949350505050565b60008080611a488888611cf4565b89519193509150600090611a63908b908d9085908b8b612ef4565b9050611a78611a71846113ec565b8290611d4b565b8a51909150611a88908a90610e3d565b6000611ab38c8c6040015161ffff16611aaa611aa386610d99565b8a90612657565b8992919061268f565b9050600586606001516005811115611ac757fe5b1415611af4576000611ae08c6040015161ffff16612af5565b9050611af0816000015183612f46565b9150505b611b00610e9082610d99565b9c9b505050505050505050505050565b611b18614562565b6000611b22612fd5565b6001600160a01b03841660008181526020838152604091829020928652825461ffff808216928801929092526201000081049091169186019190915291925090611b839063ffffffff6401000000009091048116906305f5e10090611d6116565b60608401528054611ba190600160501b900460ff166207a1206118ca565b60808401528054611bc59068010000000000000000900461ffff16620186a06118ca565b60a08401528054611be490600160701b900461ffff16620186a06118ca565b610120840152805460649060ff600160581b90910416633b9aca00020560c08401528054600160601b810460ff90811660e0860152600160681b909104166101008401526040805180820191829052906001830190600290826000855b82829054906101000a900461ffff1661ffff1681526020019060020190602082600101049283019260010382029150808411611c4157905050505050508361014001819052505050919050565b611c9661464d565b6000806000611ca485612fe2565b604080516060810182526001600160a01b039093168352602083019390935260ff16600a0a918101919091529350505050919050565b600080610b556016612a70565b600080610b556015612a70565b600080611d01848461156f565b60808601519193509150611d159083611910565b608085015260a0840151611d299082611910565b60a08501526060840151611d3d9084611910565b606090940193909352929050565b81810182811215600083121514610b5557600080fd5b818102600019831415611d9157811580611d83575082828281611d8057fe5b05145b611d8c57600080fd5b610b55565b821580611da6575081838281611da357fe5b05145b610b5557600080fd5b600080611dbf8861ffff166130a5565b9050838160ff161115611dd157600080fd5b600080611de28360ff168a876130bb565b915091508015611df157600080fd5b6000611dfc89613183565b90506affffffffffffffffffffff8110611e1557600080fd5b600060788963ffffffff16901b609883901b60f086901b60f860008e13611e3d576001611e40565b60005b6005811115611e4b57fe5b60ff16901b17171760001b905073__$7ac922d04bd7a1b42c7f6e5f1dd89a70af$__63e50f349e8d836040518363ffffffff1660e01b8152600401611e91929190614e69565b60206040518083038186803b158015611ea957600080fd5b505af4158015611ebd573d6000803e3d6000fd5b505050506040513d601f19601f82011682018060405250810190611b009190614920565b600080611950846020015161120686604001516112006402540be40088611d6190919063ffffffff16565b60006001600160501b0382111561140257600080fd5b60008212611f2f57600080fd5b6000611f4886604001518585858a610100015142611daf565b905060008113611f6a5760405162461bcd60e51b815260040161023e90614d00565b611f778787878685611958565b8651611f8290610d99565b86606001511315611fa55760405162461bcd60e51b815260040161023e90614d27565b6000611fb18542611910565b9050611fbf878986846131a4565b5050505050505050565b608087015115611fd857600080fd5b600086608001511215611fea57600080fd5b8651602087015110156120125760408601511561200657600080fd5b86516020870152612023565b865160208701511461202357600080fd5b606086015160808701518851612048926120419289928888886132b3565b8590612ee2565b93506000876060015160001415612060575083612082565b61207f8860a001516109de8a60600151886118ca90919063ffffffff16565b90505b60a08801516120919086612ee2565b60a089015260608801516120a59082612ee2565b606089015260408701516120b99082612ee2565b604088015260608701518851875160808a01516001600160a01b0393841693909116907f87d46c761bdd82b4a559098beeb0d5b8fa8c0e2aa3607704fe0757618e85e24d906121089089612ee2565b898660405161211993929190614ecc565b60405180910390a4505060006080909501949094525050505050565b61213d61464d565b6000806000611ca485613369565b60008161215a57506000611950565b600080612167878561156f565b9150915060006121868760400151886000015188858c600001516133ec565b90506121aa612194846113ec565b6101608901516121a49084611ee1565b90611d4b565b98975050505050505050565b80820382811315600083121514610b5557600080fd5b6000610b526121df84633b9aca00611d61565b8361236e565b6000610b526121f48484611d61565b633b9aca0061236e565b61220661464d565b60008061221386866134a6565b91509150816000141561234357600061222b87612fe2565b91945090925090506001600160a01b0381161561234157600061224c6134ef565b905085600010801561225e5750858711155b801561226f575064ffffffffff8611155b61227857600080fd5b83600012801561228f57506001600160801b038413155b61229857600080fd5b6000888152602082815260408083208a845290915290819020805464ffffffffff191664ffffffffff89161774ffffffffffffffffffffffffffffffff00000000001916650100000000006001600160801b038816021760ff60a81b1916600160a81b60ff871602178155905188908a907f0fdfa6885701e2f1f42e4187b9231cf81c1fe23671ef64fa46f34ddb56c1dc1890612336908990614e55565b60405180910390a350505b505b6040805160608101825260008152602081019390935260ff909116600a0a9082015290509392505050565b6000816000191480156123845750600160ff1b83145b1561238e57600080fd5b81838161239757fe5b059392505050565b6000806123c36123bc6123b587608001516113ec565b8690611925565b8490611d4b565b90506123ee86600001516121a46123dd88606001516113ec565b611206856112008c604001516113ec565b9150600082121561241b576124116124068584611ee1565b608088015190611d4b565b6080870152600091505b50949350505050565b6000806000612450612443886020015188611ee190919063ffffffff16565b6121a489608001516113ec565b90506000612462856121a48985611925565b9050612482610e908261120661247b8c60a001516113ec565b8a90611d61565b9250612492816112068885611d61565b9350505060006124a06134fc565b88516001600160a01b03166000908152602091825260408082208a5183529092522080549091506001600160501b03811690600160501b9004600990810b900b83821015612524576125176125106125096305f5e1006112068d60c00151611200888b036113ec565b8a90611ee1565b8690611d4b565b945090925060009061252a565b83820391505b82546001600160501b0319166001600160501b038316178355600085121561255157600080fd5b848112156125bf576000808213612568578561256c565b8186035b905060006125838c600001518d6040015184613509565b905060008313156125b4576125988382611d4b565b8554600160501b600160a01b03191686559650600092506125b8565b8096505b50506125fe565b6125c981866121b6565b90506125d48161362e565b835460099190910b6001600160501b0316600160501b02600160501b600160a01b03199091161783555b88600001518a600001516001600160a01b03167ff5b347a56f0b5140f05eec05ff743978670a56685689fdc2c3193d71cfac31a98385604051612642929190614a67565b60405180910390a35050509550959350505050565b60006305f5e10083604001511415612670575080610b55565b610b526305f5e100611206856040015185611d6190919063ffffffff16565b806005856060015160058111156126a257fe5b14156126c75760006126b384612af5565b90506126c3816000015184612f46565b9250505b60008213156126f35760006126dd86868561365e565b90508560200151156126ed578091505b50611950565b60038560600151600581111561270557fe5b14156127225761271d8461271884610d99565b612b08565b611950565b8451611950908561273285610d99565b61374c565b60008060028660600151600581111561274c57fe5b14156127645761275d8685856137c3565b90506127c1565b600061276f86612af5565b905060058760600151600581111561278357fe5b141561279b57612794818686613880565b91506127bf565b6001876060015160058111156127ad57fe5b141561009c5761279487828787613929565b505b6127cd610e11826113ec565b9695505050505050565b6000806127eb866040015161ffff166117d5565b9050600060048260600151600581111561280157fe5b1461281c57612817876040015161ffff16612af5565b61281e565b815b9050600080876080015112156128915760048360600151600581111561284057fe5b141561285d57612856610e908860800151610d99565b9050612891565b600061287e610e1189608001518b610160015161192590919063ffffffff16565b905061288d610e908483613a27565b9150505b6040870151600090156129505760006128aa8430612b3e565b905089600001516001600160a01b03166344f051088a600001518b602001518c604001518d60600151888e8e6040518863ffffffff1660e01b81526004016128f89796959493929190614976565b600060405180830381600087803b15801561291257600080fd5b505af1158015612926573d6000803e3d6000fd5b50505050600061293f3086612b3e90919063ffffffff16565b905061294b8183611910565b925050505b818110156129eb5780820360038460600151600581111561296d57fe5b14156129ab57348111156129935760405162461bcd60e51b815260040161023e90614b40565b6129a38960000151823403612b08565b8291506129e9565b60006129d08a600001518c6040015161ffff166129c7856113ec565b8892919061268f565b90506129e56129de826118bb565b8490612ee2565b9250505b505b81811015612a0b5760405162461bcd60e51b815260040161023e90614b40565b6000600485606001516005811115612a1f57fe5b14612a3a5760408a0151612a3590869084613a5c565b612a43565b612a43826113ec565b9050612a4f8582612dac565b9a9950505050505050505050565b600063ffffffff82111561140257600080fd5b6000620f424082601a811115612a8257fe5b0192915050565b600080600080600080612a9a613b43565b6001600160a01b039097166000908152602097909752505060409094205461ffff81169563ffffffff620100008304811696506601000000000000830416945060ff600160501b8304169350600160581b90910460d81b9150565b612afd61461e565b610da7826001612c77565b6040516001600160a01b0383169082156108fc029083906000818181858888f19350505050158015610c07573d6000803e3d6000fd5b6000600383606001516005811115612b5257fe5b1415612b6957506001600160a01b03811631610b55565b82516040516370a0823160e01b81526001600160a01b03909116906370a0823190612b98908590600401614962565b60206040518083038186803b158015612bb057600080fd5b505afa158015612bc4573d6000803e3d6000fd5b505050506040513d601f19601f82011682018060405250810190612be89190614920565b9050610b55565b836001600160a01b03166323b872dd8484846040518463ffffffff1660e01b815260040180846001600160a01b03168152602001836001600160a01b031681526020018281526020019350505050600060405180830381600087803b158015612c5757600080fd5b505af1158015612c6b573d6000803e3d6000fd5b50505050611448613b50565b612c7f61461e565b6000612c89613bbd565b6000858152602082815260408083208715158452825291829020825160a08101845281546001600160a01b038116825260ff600160a01b82048116151594830194909452600160b01b81048416600a0a9482019490945293945092916060830191600160a81b909104166005811115612cfe57fe5b81529154600160b81b900468ffffffffffffffffff16602090920191909152949350505050565b600081612d3457506000610b55565b60008213612d4157600080fd5b6000612d4c84612af5565b90506000612d5d8260000151613bca565b9050600281056b033b2e3c9fd0803ce80000006001600160ff1b0382900305851315612d8857600080fd5b81816b033b2e3c9fd0803ce800000087020181612da157fe5b059695505050505050565b60006305f5e10083604001511415612dc5575080610b55565b6040830151610b5290611206846305f5e100611d61565b600080612de7613c55565b6001600160a01b03861660009081526020918252604080822061ffff88168352909252208054909150612e2a90600160501b90046001600160501b0316846121b6565b91506000831215612e5f5780546001600160501b0316821315612e5f5760405162461bcd60e51b815260040161023e90614bc6565b612e6b610e95836118bb565b81546001600160501b0391909116600160501b02600160501b600160a01b031990911617815560405161ffff8516906001600160a01b038716907f20478ef460e49d010960d4f3fff35d8dae385443abfac09035d6a2ccbcd834c490612ed2908690614a5e565b60405180910390a3509392505050565b600082820183811015610b5257600080fd5b6000612f3b876040518060a00160405280896001600160a01b03168152602001896001600160a01b03168152602001888152602001878152602001600081525085856127d7565b979650505050505050565b600081612f5557506000610b55565b6000612f6084613bca565b90506000612f6d84613183565b9050816b019d971e4fe8401e74000001600160ff1b0381612f8a57fe5b05811315612f9757600080fd5b6b033b2e3c9fd0803ce80000006b019d971e4fe8401e74000000838302010560008513612fcc57612fc781610d99565b6127cd565b95945050505050565b600080610b556014612a70565b6000806000806000612ff386613c62565b909250905060006001600160a01b0383166130185750600090506402540be40061309a565b826001600160a01b0316631ee108336040518163ffffffff1660e01b8152600401602060405180830381600087803b15801561305357600080fd5b505af1158015613067573d6000803e3d6000fd5b505050506040513d601f19601f8201168201806040525081019061308b9190614920565b90506000811361309a57600080fd5b969195509350915050565b6000806130b183613c99565b60ff169392505050565b600080600085116130de5760405162461bcd60e51b815260040161023e90614b70565b60078511156130ff5760405162461bcd60e51b815260040161023e90614c11565b600061310a84613cb6565b905060015b86811161316257600061312b61312483613cd4565b8490613d78565b905086811415613143575092506000915061317b9050565b86811115613159575092506001915061317b9050565b5060010161310f565b5060405162461bcd60e51b815260040161023e90614d70565b935093915050565b60008082121561319d5761319682610d99565b9050610daa565b5080610daa565b60008213156131b257600080fd5b60006131d36301da9c006112066131c8856113ec565b608089015190611d61565b905060006131ed611100836131e787610d99565b906121e5565b9050600061320d60646112068960e0015185611d6190919063ffffffff16565b9050600061321b83836121b6565b905061322f886040015161ffff1683613dd2565b613241886040015161ffff1682613e59565b608087015161325090846121b6565b876080018181525050876040015161ffff1688600001516001600160a01b03167fc448297edd1aecd55e8eac1f504aec5157ab848b2b64e0f8d4631357d90e35c284846040516132a1929190614a67565b60405180910390a35050505050505050565b6000806132c989600001518a60400151896112d1565b89519091506001600160a01b031663dc6679c5896132e78489612ee2565b8988886040518663ffffffff1660e01b815260040161330a959493929190614a25565b602060405180830381600087803b15801561332457600080fd5b505af1158015613338573d6000803e3d6000fd5b505050506040513d601f19601f8201168201806040525081019061335c9190614920565b9998505050505050505050565b600080600080600061337a86613c62565b909250905060006001600160a01b03831661339f5750600090506402540be40061309a565b826001600160a01b031663b2fffb046040518163ffffffff1660e01b815260040160206040518083038186803b1580156133d857600080fd5b505afa158015613067573d6000803e3d6000fd5b6000806133fc8761ffff16612af5565b905080604001516000141561341b576134188761ffff166117d5565b90505b60405163e937711160e01b8152612f3b906001600160a01b0388169063e93771119061344f90899089908990600401614a04565b60206040518083038186803b15801561346757600080fd5b505afa15801561347b573d6000803e3d6000fd5b505050506040513d601f19601f8201168201806040525081019061349f9190614920565b8290612dac565b60008060006134b36134ef565b6000958652602090815260408087209587529490525050509020546501000000000081046001600160801b031691600160a81b90910460ff1690565b600080610b556008612a70565b600080610b556019612a70565b6000613516846000613ea5565b836001600160a01b03167f7c51c6aa77346c54cb051d9e792f9b7bde5c28a9b57e6fb2d2dd727b38438ca960006040516135509190614a53565b60405180910390a28261ffff16846001600160a01b03167fc6525e68251be388040a5488ac0c1bbae9e15b03af12e7eb84fc2e7ff2b46384846040516135969190614a5e565b60405180910390a360006135af60008561ffff16613f05565b50505090508083136135cf576135c784848303613fae565b829150613626565b6135da846000613fae565b8361ffff16856001600160a01b03167fc83c39f2d248d6443025da5caee781f1d927fb0c59598b7c6084738fe7113e2283860360405161361a9190614a5e565b60405180910390a38091505b509392505050565b6000697fffffffffffffffffff1982128015906136555750697fffffffffffffffffff8213155b61140257600080fd5b600080808060058760600151600581111561367557fe5b14613687576370a0823160e01b613690565b630ed1279f60e11b5b90508660200151156136ac5786516136a9903083614011565b92505b86516136b9908787614123565b8660200151806136cd575060008760800151115b156136e25786516136df903083614011565b91505b60808701511561371d576000613700886136fb856113ec565b612dac565b905061370f88608001516113ec565b81131561371b57600080fd5b505b86602001511561374357613739613734838561417b565b6113ec565b9350505050611373565b613739856113ec565b826001600160a01b031663a9059cbb83836040518363ffffffff1660e01b815260040180836001600160a01b0316815260200182815260200192505050600060405180830381600087803b1580156137a357600080fd5b505af11580156137b7573d6000803e3d6000fd5b50505050610c07613b50565b825160405163db006a7560e01b8152600091479183916001600160a01b03169063db006a75906137f7908790600401614a5e565b602060405180830381600087803b15801561381157600080fd5b505af1158015613825573d6000803e3d6000fd5b505050506040513d601f19601f820116820180604052508101906138499190614920565b905080156138695760405162461bcd60e51b815260040161023e90614b20565b47613874818461417b565b93506117238685612b08565b600061389b610e908560000151613896856113ec565b612f46565b90506138a56141d2565b548451604051631a4ca37b60e21b81526001600160a01b03909216916369328dec916138d791859088906004016149b4565b602060405180830381600087803b1580156138f157600080fd5b505af1158015613905573d6000803e3d6000fd5b505050506040513d601f19601f820116820180604052508101906136269190614920565b8251600090819061394290306370a0823160e01b614011565b9050600086600001516001600160a01b031663db006a75856040518263ffffffff1660e01b81526004016139769190614a5e565b602060405180830381600087803b15801561399057600080fd5b505af11580156139a4573d6000803e3d6000fd5b505050506040513d601f19601f820116820180604052508101906139c89190614920565b905080156139e85760405162461bcd60e51b815260040161023e90614b20565b85516000906139ff90306370a0823160e01b614011565b9050613a0b818461417b565b9350613a1c8760000151878661374c565b505050949350505050565b60006305f5e10083604001511215613a4857612be860016121a48585612657565b610b5283613a57846001611d4b565b612657565b600080600585606001516005811115613a7157fe5b14613a83576370a0823160e01b613a8c565b630ed1279f60e11b5b90506000613a9f86600001513084614011565b9050600586606001516005811115613ab357fe5b1415613ada576000613ac88661ffff16612af5565b9050613ad481866141df565b50613b23565b600186606001516005811115613aec57fe5b1415613b0157613afc868561424a565b613b23565b600286606001516005811115613b1357fe5b141561009c57613afc86856142ec565b6000613b3487600001513085614011565b9050612f3b613734828461417b565b600080610b556002612a70565b6000613b5a614677565b3d8015613b6e5760208114613b7757600080fd5b60019250613b82565b60206000833e815192505b5081611614576040805162461bcd60e51b8152602060048201526005602482015264045524332360dc1b604482015290519081900360640190fd5b600080610b556007612a70565b6000610da7613bd76141d2565b5460405163d15e005360e01b81526001600160a01b039091169063d15e005390613c05908690600401614962565b60206040518083038186803b158015613c1d57600080fd5b505afa158015613c31573d6000803e3d6000fd5b505050506040513d601f19601f820116820180604052508101906137349190614920565b600080610b556017612a70565b6000806000613c6f61433f565b600094855260205250506040909120546001600160a01b03811692600160a01b90910460ff169150565b600080613ca461434c565b60009384526020525050604090205490565b60006276a700821015613cc857600080fd5b506276a7008106900390565b60008160011415613ce957506276a700610daa565b8160021415613cfc575062ed4e00610daa565b8160031415613d1057506301da9c00610daa565b8160041415613d2457506303b53800610daa565b8160051415613d3857506309450c00610daa565b8160061415613d4c575063128a1800610daa565b8160071415613d6057506325143000610daa565b60405162461bcd60e51b815260040161023e90614b9f565b600082820183811015610b52576040805162461bcd60e51b815260206004820152601b60248201527f536166654d6174683a206164646974696f6e206f766572666c6f770000000000604482015290519081900360640190fd5b6000811215613de057600080fd5b6000613ded600084613f05565b5050509050613e058282611d4b90919063ffffffff16565b9050613e18600084836000806000614359565b8261ffff167f85170c297762884f47ec6098b74925c795e6d33686b11019b400e33a9b23b5e983604051613e4c9190614a5e565b60405180910390a2505050565b6000811215613e6757600080fd5b6000613e72836144a0565b90506000613e808285613f05565b5050509050613e988382611d4b90919063ffffffff16565b90506114488285836144c6565b6000613eaf612fd5565b6001600160a01b038416600090815260208290526040902080549192509061ffff168315613eee57815461ffff19166001821761ffff16178255613efe565b815461ffff191661fffe82161782555b5050505050565b6000806000806000613f156144e4565b6001600160a01b0388166000908152602082815260408083208a8452909152902080546001600160501b0381169650600160501b900463ffffffff1694509091508315613f7e578054613f7790600160701b900466ffffffffffffff166144f1565b9250613f93565b8054600160701b900466ffffffffffffff1692505b54600160a81b9004600a90810b900b97939650919450925050565b6000811215613fbc57600080fd5b613fd160008361ffff16836000806000614359565b8161ffff167fd3625f7b5926828151efe19f7ae655488287357d99ebe67e5fb20522ca739c0b826040516140059190614a5e565b60405180910390a25050565b604080516001600160a01b0384811660248084019190915283518084039091018152604490920183526020820180516001600160e01b03166001600160e01b0319861617815292518251600094859485948a16939092909182918083835b6020831061408e5780518252601f19909201916020918201910161406f565b6001836020036101000a038019825116818451168082178552505050505050905001915050600060405180830381855afa9150503d80600081146140ee576040519150601f19603f3d011682016040523d82523d6000602084013e6140f3565b606091505b50915091508161410257600080fd5b80806020019051602081101561411757600080fd5b50519695505050505050565b604080516323b872dd60e01b81526001600160a01b038481166004830152306024830152604482018490529151918516916323b872dd9160648082019260009290919082900301818387803b1580156137a357600080fd5b60008282111561191f576040805162461bcd60e51b815260206004820152601e60248201527f536166654d6174683a207375627472616374696f6e206f766572666c6f770000604482015290519081900360640190fd5b600080610b556013612a70565b6141e76141d2565b54825160405163e8eda9df60e01b81526001600160a01b039092169163e8eda9df9161421c91859030906000906004016149d7565b600060405180830381600087803b15801561423657600080fd5b505af11580156119be573d6000803e3d6000fd5b815160405163140e25ad60e31b81526000916001600160a01b03169063a0712d689061427a908590600401614a5e565b602060405180830381600087803b15801561429457600080fd5b505af11580156142a8573d6000803e3d6000fd5b505050506040513d601f19601f820116820180604052508101906142cc9190614920565b90508015610c075760405162461bcd60e51b815260040161023e90614b02565b81600001516001600160a01b0316631249c58b826040518263ffffffff1660e01b81526004016000604051808303818588803b15801561432b57600080fd5b505af1158015610e34573d6000803e3d6000fd5b600080610b55600f612a70565b600080610b556009612a70565b60006143636144e4565b6001600160a01b0388166000908152602082815260408083208a845290915290209091506a7fffffffffffffffffffff1986128015906143ae57506a7fffffffffffffffffffff8613155b6143b757600080fd5b600085121580156143cf57506001600160501b038513155b6143d857600080fd5b836144185766ffffffffffffff8311156143f157600080fd5b805466ffffffffffffff60701b1916600160701b66ffffffffffffff851602178155614432565b8054600160501b900463ffffffff16841461443257600080fd5b8054600a9690960b6affffffffffffffffffffff16600160a81b026001600160a81b036001600160501b039096166001600160501b031963ffffffff909616600160501b0263ffffffff60501b19909816979097179490941695909517939093169190911790925550505050565b6000806144ab6144ff565b6000938452602052505060409020546001600160a01b031690565b60008112156144d457600080fd5b610c078383836000806000614359565b600080610b556006612a70565b600881901c60ff9091161b90565b600080610b556003612a70565b60405180604001604052806002906020820280368337509192915050565b6040518060a0016040528060008152602001600081526020016000815260200160006001600160a01b03168152602001600081525090565b60405180610180016040528060006001600160a01b03168152602001600061ffff168152602001600061ffff168152602001600081526020016000815260200160008152602001600081526020016000815260200160008152602001600081526020016145cd61450c565b81526020016145da61464d565b905290565b6040518060e001604052806000815260200160008152602001600015158152602001600081526020016000815260200160008152602001600081525090565b6040805160a0810182526000808252602082018190529181018290529060608201908152602001600081525090565b604051806060016040528060006001600160a01b0316815260200160008152602001600081525090565b60405180602001604052806001906020820280368337509192915050565b80356001600160a01b0381168114610daa57600080fd5b60008083601f8401126146bd578182fd5b50813567ffffffffffffffff8111156146d4578182fd5b6020830191508360208285010111156115c257600080fd5b803563ffffffff81168114610daa57600080fd5b60008060408385031215614712578182fd5b61471b83614695565b91506115bf60208401614695565b600080600080600080600060c0888a031215614743578283fd5b61474c88614695565b965061475a60208901614695565b955061476860408901614695565b94506060880135935060808801358015158114614783578384fd5b925060a088013567ffffffffffffffff81111561479e578283fd5b6147aa8a828b016146ac565b989b979a50959850939692959293505050565b60008060008060008060008060e0898b0312156147d8578081fd5b6147e189614695565b97506147ef60208a01614695565b96506147fd60408a01614695565b9550606089013594506080890135935061481960a08a016146ec565b925060c089013567ffffffffffffffff811115614834578182fd5b6148408b828c016146ac565b999c989b5096995094979396929594505050565b60008060008060008060008060e0898b03121561486f578384fd5b61487889614695565b975061488660208a01614695565b96506040890135955060608901359450608089013593506148a960a08a016146ec565b925060c089013567ffffffffffffffff811115614834578283fd5b60008060008060008060008060e0898b0312156148df578384fd5b6148e889614695565b97506148f660208a01614695565b9650604089013595506060890135945061491260808a016146ec565b93506148a960a08a016146ec565b600060208284031215614931578081fd5b5051919050565b60008284528282602086013780602084860101526020601f19601f85011685010190509392505050565b6001600160a01b0391909116815260200190565b600060018060a01b03808a16835280891660208401525086604083015285606083015284608083015260c060a083015261335c60c083018486614938565b6001600160a01b0393841681526020810192909252909116604082015260600190565b6001600160a01b03948516815260208101939093529216604082015261ffff909116606082015260800190565b6001600160a01b039390931683526020830191909152604082015260600190565b600060018060a01b038716825285602083015284604083015260806060830152612f3b608083018486614938565b901515815260200190565b90815260200190565b918252602082015260400190565b938452602084019290925260408301521515606082015260800190565b93845260208401929092526040830152606082015260800190565b6020808252600c908201526b155b985d5d1a1bdc9a5e995960a21b604082015260600190565b6020808252601590820152740acc2ead8e840a6d0c2e4cae6409ad2e6dac2e8c6d605b1b604082015260600190565b602080825260049082015263135a5b9d60e21b604082015260600190565b60208082526006908201526552656465656d60d01b604082015260600190565b602080825260169082015275125b9cdd59999a58da595b9d081c995c185e5b595b9d60521b604082015260600190565b60208082526015908201527410d1ce881b9bc81b585c9ad95d1cc81b1a5cdd1959605a1b604082015260600190565b6020808252600d908201526c092dcecc2d8d2c840d2dcc8caf609b1b604082015260600190565b6020808252600c908201526b4d617820436170616369747960a01b604082015260600190565b6020808252600b908201526a139bdd0814d95d1d1b195960aa1b604082015260600190565b60208082526016908201527510d1ce881b585c9ad95d081a5b99195e08189bdd5b9960521b604082015260600190565b6020808252600f908201526e139bc8149bdb1b08105b1b1bddd959608a1b604082015260600190565b60208082526017908201527f496e73756666696369656e7420436f6c6c61746572616c000000000000000000604082015260600190565b60208082526017908201527f4d757374204c697175696461746520416c6c2044656274000000000000000000604082015260600190565b6020808252600e908201526d1499595b9d1c985b9d0818d85b1b60921b604082015260600190565b6020808252600d908201526c109bdc9c9bddc819985a5b1959609a1b604082015260600190565b6020808252600a90820152694d696e20426f72726f7760b01b604082015260600190565b6020808252600b908201526a092dcecc2d8d2c8408aa8960ab1b604082015260600190565b60208082526013908201527210d1ce881b9bc81b585c9ad95d08199bdd5b99606a1b604082015260600190565b6020808252600c908201526b21b0b73737ba1022b73a32b960a11b604082015260600190565b6020808252600b908201526a11985a5b19590813195b9960aa1b604082015260600190565b60208082526015908201527414dd59999a58da595b9d0810dbdb1b185d195c985b605a1b604082015260600190565b8151815260208083015190820152604080830151908201526060808301516001600160a01b0316908201526080918201519181019190915260a00190565b6001600160801b0391909116815260200190565b61ffff929092168252602082015260400190565b8381526080810160208083018560005b6002811015614eaa57815183529183019190830190600101614e8d565b50505050826060830152949350505050565b9182521515602082015260400190565b928352602083019190915260408201526060019056fea26469706673582212202c49545d0a80c41a9163b4f35e132d21bc9ad08f2ed651d4cc4c6f62ca10a6e864736f6c63430007060033",
  "language": "Solidity",
  "natspec": {
    "kind": "dev",
    "methods": {
      "deleverageAccount(address,address,address,uint256,bool,bytes)": {
        "notice": "If an account is below the minimum collateral ratio, this method wil deleverage (liquidate) that account. `depositAmountExternal` in the borrow currency will be transferred from the liquidator and used to offset the account's debt position. The liquidator will receive either vaultShares or cash depending.",
        "params": {
          "account": "the address that will exit the vault",
          "depositAmountExternal": "amount of asset cash to deposit",
          "liquidator": "the address that will receive profits from liquidation",
          "redeemData": "calldata sent to the vault when redeeming liquidator profits",
          "transferSharesToLiquidator": "transfers the shares to the liquidator instead of redeeming them",
          "vault": "the vault to enter"
        },
        "returns": {
          "profitFromLiquidation": "amount of vaultShares or cash received from liquidation"
        }
      },
      "enterVault(address,address,uint256,uint256,uint256,uint32,bytes)": {
        "notice": "Borrows a specified amount of fCash in the vault's borrow currency and deposits it all plus the depositAmountExternal into the vault to mint strategy tokens.",
        "params": {
          "account": "the address that will enter the vault",
          "depositAmountExternal": "some amount of additional collateral in the borrowed currency to be transferred to vault",
          "fCash": "amount to borrow",
          "maturity": "the maturity to borrow at",
          "maxBorrowRate": "maximum interest rate to borrow at",
          "vault": "the vault to enter",
          "vaultData": "additional data to pass to the vault contract"
        }
      },
      "exitVault(address,address,address,uint256,uint256,uint32,bytes)": {
        "notice": "Prior to maturity, allows an account to withdraw their position from the vault. Will redeem some number of vault shares to the borrow currency and close the borrow position by lending `fCashToLend`. Any shortfall in cash from lending will be transferred from the account, any excess profits will be transferred to the account. Post maturity, will net off the account's debt against vault cash balances and redeem all remaining strategy tokens back to the borrowed currency and transfer the profits to the account.",
        "params": {
          "account": "the address that will exit the vault",
          "exitVaultData": "passed to the vault during exit",
          "fCashToLend": "amount of fCash to lend",
          "minLendRate": "the minimum rate to lend at",
          "receiver": "the address that will receive profits",
          "vault": "the vault to enter",
          "vaultSharesToRedeem": "amount of vault tokens to exit, only relevant when exiting pre-maturity"
        }
      },
      "getVaultAccount(address,address)": {
        "notice": "View Methods *"
      },
      "rollVaultPosition(address,address,uint256,uint256,uint32,uint32,bytes)": {
        "notice": "Re-enters the vault at a longer dated maturity. The account's existing borrow position will be closed and a new borrow position at the specified maturity will be opened. Strategy token holdings will transfer to the longer dated maturity.",
        "params": {
          "account": "the address that will reenter the vault",
          "fCashToBorrow": "amount of fCash to borrow in the next maturity",
          "maturity": "new maturity to borrow at",
          "vault": "the vault to reenter"
        }
      }
    },
    "version": 1
  },
  "opcodes": "PUSH1 0x80 PUSH1 0x40 MSTORE PUSH1 0x4 CALLDATASIZE LT PUSH2 0x9C JUMPI PUSH1 0x0 CALLDATALOAD PUSH1 0xE0 SHR DUP1 PUSH4 0x82463367 GT PUSH2 0x64 JUMPI DUP1 PUSH4 0x82463367 EQ PUSH2 0x160 JUMPI DUP1 PUSH4 0x8DA5CB5B EQ PUSH2 0x175 JUMPI DUP1 PUSH4 0x95C1A202 EQ PUSH2 0x18A JUMPI DUP1 PUSH4 0x9948315E EQ PUSH2 0x19D JUMPI DUP1 PUSH4 0xC025D1A5 EQ PUSH2 0x1CA JUMPI DUP1 PUSH4 0xC4C96DAE EQ PUSH2 0x1F7 JUMPI PUSH2 0x9C JUMP JUMPDEST DUP1 PUSH4 0x24A3D622 EQ PUSH2 0xA1 JUMPI DUP1 PUSH4 0x450C0E02 EQ PUSH2 0xCC JUMPI DUP1 PUSH4 0x647CC196 EQ PUSH2 0xEE JUMPI DUP1 PUSH4 0x6CE48F01 EQ PUSH2 0x11E JUMPI DUP1 PUSH4 0x803C25FB EQ PUSH2 0x131 JUMPI JUMPDEST PUSH1 0x0 DUP1 REVERT JUMPDEST CALLVALUE DUP1 ISZERO PUSH2 0xAD JUMPI PUSH1 0x0 DUP1 REVERT JUMPDEST POP PUSH2 0xB6 PUSH2 0x20C JUMP JUMPDEST PUSH1 0x40 MLOAD PUSH2 0xC3 SWAP2 SWAP1 PUSH2 0x4962 JUMP JUMPDEST PUSH1 0x40 MLOAD DUP1 SWAP2 SUB SWAP1 RETURN JUMPDEST CALLVALUE DUP1 ISZERO PUSH2 0xD8 JUMPI PUSH1 0x0 DUP1 REVERT JUMPDEST POP PUSH2 0xEC PUSH2 0xE7 CALLDATASIZE PUSH1 0x4 PUSH2 0x48C4 JUMP JUMPDEST PUSH2 0x21B JUMP JUMPDEST STOP JUMPDEST CALLVALUE DUP1 ISZERO PUSH2 0xFA JUMPI PUSH1 0x0 DUP1 REVERT JUMPDEST POP PUSH2 0x10E PUSH2 0x109 CALLDATASIZE PUSH1 0x4 PUSH2 0x4700 JUMP JUMPDEST PUSH2 0x3D9 JUMP JUMPDEST PUSH1 0x40 MLOAD PUSH2 0xC3 SWAP5 SWAP4 SWAP3 SWAP2 SWAP1 PUSH2 0x4A75 JUMP JUMPDEST PUSH2 0xEC PUSH2 0x12C CALLDATASIZE PUSH1 0x4 PUSH2 0x47BD JUMP JUMPDEST PUSH2 0x472 JUMP JUMPDEST CALLVALUE DUP1 ISZERO PUSH2 0x13D JUMPI PUSH1 0x0 DUP1 REVERT JUMPDEST POP PUSH2 0x151 PUSH2 0x14C CALLDATASIZE PUSH1 0x4 PUSH2 0x4700 JUMP JUMPDEST PUSH2 0x6A9 JUMP JUMPDEST PUSH1 0x40 MLOAD PUSH2 0xC3 SWAP4 SWAP3 SWAP2 SWAP1 PUSH2 0x4E7D JUMP JUMPDEST CALLVALUE DUP1 ISZERO PUSH2 0x16C JUMPI PUSH1 0x0 DUP1 REVERT JUMPDEST POP PUSH2 0xB6 PUSH2 0x75A JUMP JUMPDEST CALLVALUE DUP1 ISZERO PUSH2 0x181 JUMPI PUSH1 0x0 DUP1 REVERT JUMPDEST POP PUSH2 0xB6 PUSH2 0x769 JUMP JUMPDEST PUSH2 0xEC PUSH2 0x198 CALLDATASIZE PUSH1 0x4 PUSH2 0x4854 JUMP JUMPDEST PUSH2 0x780 JUMP JUMPDEST CALLVALUE DUP1 ISZERO PUSH2 0x1A9 JUMPI PUSH1 0x0 DUP1 REVERT JUMPDEST POP PUSH2 0x1BD PUSH2 0x1B8 CALLDATASIZE PUSH1 0x4 PUSH2 0x4729 JUMP JUMPDEST PUSH2 0x8C6 JUMP JUMPDEST PUSH1 0x40 MLOAD PUSH2 0xC3 SWAP2 SWAP1 PUSH2 0x4A5E JUMP JUMPDEST CALLVALUE DUP1 ISZERO PUSH2 0x1D6 JUMPI PUSH1 0x0 DUP1 REVERT JUMPDEST POP PUSH2 0x1EA PUSH2 0x1E5 CALLDATASIZE PUSH1 0x4 PUSH2 0x4700 JUMP JUMPDEST PUSH2 0xB40 JUMP JUMPDEST PUSH1 0x40 MLOAD PUSH2 0xC3 SWAP2 SWAP1 PUSH2 0x4E17 JUMP JUMPDEST CALLVALUE DUP1 ISZERO PUSH2 0x203 JUMPI PUSH1 0x0 DUP1 REVERT JUMPDEST POP PUSH2 0xB6 PUSH2 0xB5B JUMP JUMPDEST PUSH1 0x2 SLOAD PUSH1 0x1 PUSH1 0x1 PUSH1 0xA0 SHL SUB AND DUP2 JUMP JUMPDEST PUSH1 0x2 PUSH1 0xA SLOAD EQ ISZERO PUSH2 0x247 JUMPI PUSH1 0x40 MLOAD PUSH3 0x461BCD PUSH1 0xE5 SHL DUP2 MSTORE PUSH1 0x4 ADD PUSH2 0x23E SWAP1 PUSH2 0x4CD8 JUMP JUMPDEST PUSH1 0x40 MLOAD DUP1 SWAP2 SUB SWAP1 REVERT JUMPDEST PUSH1 0x2 PUSH1 0xA SSTORE PUSH1 0x0 PUSH2 0x257 DUP9 PUSH2 0xB73 JUMP JUMPDEST SWAP1 POP PUSH2 0x265 DUP2 DUP11 PUSH1 0x10 PUSH2 0xBA2 JUMP JUMPDEST PUSH2 0x270 DUP2 PUSH1 0x80 PUSH2 0xC0C JUMP JUMPDEST ISZERO PUSH2 0x27B JUMPI PUSH1 0x1 PUSH1 0xA SSTORE JUMPDEST PUSH1 0x0 PUSH2 0x287 DUP11 DUP11 PUSH2 0xC21 JUMP JUMPDEST SWAP1 POP PUSH2 0x294 DUP3 PUSH1 0x1 PUSH2 0xC0C JUMP JUMPDEST DUP1 ISZERO PUSH2 0x2A6 JUMPI POP PUSH2 0x2A6 DUP3 PUSH1 0x2 PUSH2 0xC0C JUMP JUMPDEST DUP1 ISZERO PUSH2 0x2B5 JUMPI POP DUP1 PUSH1 0x20 ADD MLOAD TIMESTAMP LT JUMPDEST DUP1 ISZERO PUSH2 0x2C4 JUMPI POP DUP7 DUP2 PUSH1 0x20 ADD MLOAD LT JUMPDEST DUP1 ISZERO PUSH2 0x2D0 JUMPI POP PUSH1 0x0 DUP9 GT JUMPDEST PUSH2 0x2EC JUMPI PUSH1 0x40 MLOAD PUSH3 0x461BCD PUSH1 0xE5 SHL DUP2 MSTORE PUSH1 0x4 ADD PUSH2 0x23E SWAP1 PUSH2 0x4C41 JUMP JUMPDEST PUSH1 0x0 PUSH2 0x300 DUP4 PUSH1 0x0 ADD MLOAD DUP4 PUSH1 0x20 ADD MLOAD PUSH2 0xC9F JUMP JUMPDEST SWAP1 POP PUSH1 0x0 PUSH2 0x31D DUP4 DUP5 PUSH1 0x40 ADD MLOAD DUP5 PUSH2 0xD3A SWAP1 SWAP3 SWAP2 SWAP1 PUSH4 0xFFFFFFFF AND JUMP JUMPDEST SWAP1 POP PUSH2 0x33C DUP5 DUP4 PUSH2 0x331 DUP7 PUSH1 0x0 ADD MLOAD PUSH2 0xD99 JUMP JUMPDEST DUP7 SWAP3 SWAP2 SWAP1 DUP13 TIMESTAMP PUSH2 0xDAF JUMP JUMPDEST DUP3 MLOAD ISZERO PUSH2 0x35B JUMPI PUSH1 0x40 MLOAD PUSH3 0x461BCD PUSH1 0xE5 SHL DUP2 MSTORE PUSH1 0x4 ADD PUSH2 0x23E SWAP1 PUSH2 0x4DC3 JUMP JUMPDEST DUP4 MLOAD PUSH2 0x368 SWAP1 DUP4 SWAP1 PUSH2 0xE3D JUMP JUMPDEST PUSH2 0x37A DUP4 DUP6 DUP12 DUP14 DUP12 DUP12 DUP12 DUP9 PUSH1 0x0 PUSH2 0xFB1 JUMP JUMPDEST DUP9 DUP13 PUSH1 0x1 PUSH1 0x1 PUSH1 0xA0 SHL SUB AND DUP13 PUSH1 0x1 PUSH1 0x1 PUSH1 0xA0 SHL SUB AND PUSH32 0x67C1D09E65227D62B788F4C3E6ACE545AC922034D69BD4AA45C53DEC290275BE DUP14 PUSH1 0x40 MLOAD PUSH2 0x3BE SWAP2 SWAP1 PUSH2 0x4A5E JUMP JUMPDEST PUSH1 0x40 MLOAD DUP1 SWAP2 SUB SWAP1 LOG4 POP POP PUSH1 0x1 PUSH1 0xA SSTORE POP POP POP POP POP POP POP POP POP POP JUMP JUMPDEST PUSH1 0x0 DUP1 PUSH1 0x0 DUP1 PUSH1 0x0 PUSH2 0x3EA DUP7 PUSH2 0x103F JUMP JUMPDEST SWAP1 POP PUSH1 0x0 PUSH2 0x3F8 DUP9 DUP9 PUSH2 0xC21 JUMP JUMPDEST SWAP1 POP PUSH1 0x0 PUSH2 0x40A DUP9 DUP4 PUSH1 0x20 ADD MLOAD PUSH2 0xC9F JUMP JUMPDEST SWAP1 POP DUP3 PUSH1 0xA0 ADD MLOAD SWAP6 POP DUP1 PUSH1 0x40 ADD MLOAD ISZERO PUSH2 0x42C JUMPI PUSH1 0x1 PUSH1 0x1 PUSH1 0xFF SHL SUB SWAP7 POP PUSH2 0x466 JUMP JUMPDEST PUSH1 0x40 DUP3 ADD MLOAD DUP3 MLOAD PUSH1 0x0 SWAP2 PUSH2 0x446 SWAP2 DUP7 SWAP2 DUP6 SWAP2 DUP15 SWAP2 SWAP1 PUSH2 0x1063 JUMP JUMPDEST SWAP1 SWAP9 POP SWAP1 POP DUP7 DUP9 SLT ISZERO PUSH2 0x464 JUMPI PUSH2 0x45E DUP4 DUP6 DUP4 PUSH2 0x10CB JUMP JUMPDEST SWAP1 SWAP7 POP SWAP5 POP JUMPDEST POP JUMPDEST POP POP POP SWAP3 SWAP6 SWAP2 SWAP5 POP SWAP3 POP JUMP JUMPDEST PUSH1 0x2 PUSH1 0xA SLOAD EQ ISZERO PUSH2 0x495 JUMPI PUSH1 0x40 MLOAD PUSH3 0x461BCD PUSH1 0xE5 SHL DUP2 MSTORE PUSH1 0x4 ADD PUSH2 0x23E SWAP1 PUSH2 0x4CD8 JUMP JUMPDEST PUSH1 0x2 PUSH1 0xA SSTORE PUSH1 0x0 PUSH2 0x4A5 DUP9 PUSH2 0xB73 JUMP JUMPDEST SWAP1 POP PUSH2 0x4B3 DUP2 DUP11 PUSH1 0x8 PUSH2 0xBA2 JUMP JUMPDEST PUSH2 0x4BE DUP2 PUSH1 0x80 PUSH2 0xC0C JUMP JUMPDEST ISZERO PUSH2 0x4C9 JUMPI PUSH1 0x1 PUSH1 0xA SSTORE JUMPDEST PUSH1 0x0 PUSH2 0x4D5 DUP11 DUP11 PUSH2 0xC21 JUMP JUMPDEST SWAP1 POP TIMESTAMP DUP2 PUSH1 0x20 ADD MLOAD GT PUSH2 0x576 JUMPI PUSH1 0x20 DUP2 ADD MLOAD PUSH1 0x0 PUSH2 0x4F4 DUP4 DUP6 TIMESTAMP PUSH2 0x118E JUMP JUMPDEST SWAP1 POP PUSH1 0x0 DUP4 PUSH1 0x80 ADD MLOAD SGT ISZERO PUSH2 0x51F JUMPI PUSH2 0x516 DUP11 DUP6 PUSH1 0x40 ADD MLOAD DUP6 PUSH1 0x80 ADD MLOAD PUSH2 0x12D1 JUMP JUMPDEST POP PUSH1 0x0 PUSH1 0x80 DUP5 ADD MSTORE JUMPDEST PUSH2 0x52E DUP5 DUP5 DUP13 DUP5 DUP7 DUP12 DUP12 PUSH2 0x137A JUMP JUMPDEST DUP2 DUP13 PUSH1 0x1 PUSH1 0x1 PUSH1 0xA0 SHL SUB AND DUP13 PUSH1 0x1 PUSH1 0x1 PUSH1 0xA0 SHL SUB AND PUSH32 0x8255EE71B1BEE16AE1F9FF6C76FE18682AF74350EF6C49DBA972AAB969A7E67C PUSH1 0x40 MLOAD PUSH1 0x40 MLOAD DUP1 SWAP2 SUB SWAP1 LOG4 POP POP PUSH2 0x670 JUMP JUMPDEST PUSH1 0x0 PUSH2 0x58A DUP4 PUSH1 0x0 ADD MLOAD DUP4 PUSH1 0x20 ADD MLOAD PUSH2 0xC9F JUMP JUMPDEST SWAP1 POP PUSH2 0x5A5 DUP4 DUP3 PUSH2 0x59A DUP11 PUSH2 0x13EC JUMP JUMPDEST DUP6 SWAP3 SWAP2 SWAP1 DUP11 TIMESTAMP PUSH2 0xDAF JUMP JUMPDEST DUP8 ISZERO PUSH2 0x5FA JUMPI PUSH1 0x0 PUSH2 0x5B8 DUP3 DUP5 DUP12 PUSH2 0xD3A JUMP JUMPDEST SWAP1 POP PUSH1 0x0 DUP4 PUSH1 0x80 ADD MLOAD SGT ISZERO PUSH2 0x5E3 JUMPI PUSH2 0x5DA DUP11 DUP6 PUSH1 0x40 ADD MLOAD DUP6 PUSH1 0x80 ADD MLOAD PUSH2 0x12D1 JUMP JUMPDEST POP PUSH1 0x0 PUSH1 0x80 DUP5 ADD MSTORE JUMPDEST DUP2 MLOAD PUSH2 0x5F8 SWAP1 DUP6 SWAP1 DUP6 SWAP1 DUP14 SWAP1 DUP6 SWAP1 DUP12 DUP12 PUSH2 0x137A JUMP JUMPDEST POP JUMPDEST DUP2 MLOAD PUSH1 0x0 SGT ISZERO PUSH2 0x60F JUMPI PUSH2 0x60F DUP4 DUP3 DUP5 PUSH2 0x1406 JUMP JUMPDEST DUP3 MLOAD PUSH2 0x61C SWAP1 DUP3 SWAP1 PUSH2 0xE3D JUMP JUMPDEST DUP1 PUSH1 0x0 ADD MLOAD DUP12 PUSH1 0x1 PUSH1 0x1 PUSH1 0xA0 SHL SUB AND DUP12 PUSH1 0x1 PUSH1 0x1 PUSH1 0xA0 SHL SUB AND PUSH32 0x5FA4D63D84BBCBB86063028AC3AD93F61E31764BE1DE668FC3B3DC6FE930E82F DUP11 DUP13 PUSH1 0x40 MLOAD PUSH2 0x666 SWAP3 SWAP2 SWAP1 PUSH2 0x4A67 JUMP JUMPDEST PUSH1 0x40 MLOAD DUP1 SWAP2 SUB SWAP1 LOG4 POP JUMPDEST DUP1 MLOAD ISZERO DUP1 ISZERO PUSH2 0x681 JUMPI POP PUSH1 0x40 DUP2 ADD MLOAD ISZERO JUMPDEST ISZERO PUSH2 0x68E JUMPI PUSH1 0x0 PUSH1 0x20 DUP3 ADD MSTORE JUMPDEST PUSH2 0x698 DUP2 DUP4 PUSH2 0x144E JUMP JUMPDEST POP POP PUSH1 0x1 PUSH1 0xA SSTORE POP POP POP POP POP POP POP POP JUMP JUMPDEST PUSH1 0x0 PUSH2 0x6B3 PUSH2 0x450C JUMP JUMPDEST PUSH1 0x0 DUP1 PUSH2 0x6BE PUSH2 0x1562 JUMP JUMPDEST PUSH1 0x1 PUSH1 0x1 PUSH1 0xA0 SHL SUB DUP8 DUP2 AND PUSH1 0x0 SWAP1 DUP2 MSTORE PUSH1 0x20 SWAP3 DUP4 MSTORE PUSH1 0x40 DUP1 DUP3 KECCAK256 SWAP3 DUP10 AND DUP3 MSTORE SWAP2 DUP4 MSTORE SWAP1 DUP2 KECCAK256 DUP1 SLOAD PUSH1 0x1 PUSH1 0x1 PUSH1 0x50 SHL SUB PUSH5 0x100000000 DUP3 DIV DUP2 AND DUP9 MSTORE PUSH1 0x1 PUSH1 0x70 SHL DUP3 DIV AND SWAP4 DUP8 ADD SWAP4 SWAP1 SWAP4 MSTORE PUSH4 0xFFFFFFFF SWAP1 SWAP3 AND SWAP6 POP SWAP1 SWAP2 POP PUSH2 0x71F DUP8 DUP8 PUSH2 0xC21 JUMP JUMPDEST SWAP1 POP PUSH1 0x0 PUSH2 0x731 DUP8 DUP4 PUSH1 0x20 ADD MLOAD PUSH2 0xC9F JUMP JUMPDEST SWAP1 POP PUSH2 0x74A DUP3 PUSH1 0x40 ADD MLOAD DUP3 PUSH2 0x156F SWAP1 SWAP2 SWAP1 PUSH4 0xFFFFFFFF AND JUMP JUMPDEST SWAP1 POP DUP1 SWAP5 POP POP POP POP POP SWAP3 POP SWAP3 POP SWAP3 JUMP JUMPDEST PUSH1 0x1 SLOAD PUSH1 0x1 PUSH1 0x1 PUSH1 0xA0 SHL SUB AND DUP2 JUMP JUMPDEST PUSH1 0x0 SLOAD PUSH5 0x100000000 SWAP1 DIV PUSH1 0x1 PUSH1 0x1 PUSH1 0xA0 SHL SUB AND DUP2 JUMP JUMPDEST PUSH1 0x2 PUSH1 0xA SLOAD EQ ISZERO PUSH2 0x7A3 JUMPI PUSH1 0x40 MLOAD PUSH3 0x461BCD PUSH1 0xE5 SHL DUP2 MSTORE PUSH1 0x4 ADD PUSH2 0x23E SWAP1 PUSH2 0x4CD8 JUMP JUMPDEST PUSH1 0x2 PUSH1 0xA SSTORE PUSH2 0x7B1 DUP9 PUSH2 0x15C9 JUMP JUMPDEST PUSH1 0x0 PUSH2 0x7BC DUP9 PUSH2 0xB73 JUMP JUMPDEST SWAP1 POP PUSH2 0x7CA DUP2 DUP11 PUSH1 0x4 PUSH2 0xBA2 JUMP JUMPDEST PUSH2 0x7D5 DUP2 PUSH1 0x80 PUSH2 0xC0C JUMP JUMPDEST ISZERO PUSH2 0x7E0 JUMPI PUSH1 0x1 PUSH1 0xA SSTORE JUMPDEST PUSH2 0x7EB DUP2 PUSH1 0x1 PUSH2 0xC0C JUMP JUMPDEST PUSH2 0x807 JUMPI PUSH1 0x40 MLOAD PUSH3 0x461BCD PUSH1 0xE5 SHL DUP2 MSTORE PUSH1 0x4 ADD PUSH2 0x23E SWAP1 PUSH2 0x4D9D JUMP JUMPDEST DUP6 TIMESTAMP LT PUSH2 0x826 JUMPI PUSH1 0x40 MLOAD PUSH3 0x461BCD PUSH1 0xE5 SHL DUP2 MSTORE PUSH1 0x4 ADD PUSH2 0x23E SWAP1 PUSH2 0x4D9D JUMP JUMPDEST PUSH1 0x0 PUSH2 0x832 DUP11 DUP11 PUSH2 0xC21 JUMP JUMPDEST SWAP1 POP PUSH1 0x0 DUP2 PUSH1 0x20 ADD MLOAD PUSH1 0x0 EQ ISZERO DUP1 ISZERO PUSH2 0x84F JUMPI POP TIMESTAMP DUP3 PUSH1 0x20 ADD MLOAD GT ISZERO JUMPDEST ISZERO PUSH2 0x862 JUMPI PUSH2 0x85F DUP3 DUP5 TIMESTAMP PUSH2 0x118E JUMP JUMPDEST SWAP1 POP JUMPDEST PUSH1 0x0 PUSH2 0x86F DUP5 DUP14 DUP13 PUSH2 0x1618 JUMP JUMPDEST SWAP1 POP PUSH2 0x882 DUP4 DUP6 DUP12 DUP12 DUP12 DUP12 DUP12 DUP10 DUP10 PUSH2 0xFB1 JUMP JUMPDEST DUP9 DUP13 PUSH1 0x1 PUSH1 0x1 PUSH1 0xA0 SHL SUB AND DUP13 PUSH1 0x1 PUSH1 0x1 PUSH1 0xA0 SHL SUB AND PUSH32 0x7E1A5E400898C4BB3CFC62F61A71F4369EC78F0E778A31286892B7D2C0D044F2 DUP12 PUSH1 0x40 MLOAD PUSH2 0x3BE SWAP2 SWAP1 PUSH2 0x4A5E JUMP JUMPDEST PUSH1 0x0 PUSH1 0x2 PUSH1 0xA SLOAD EQ ISZERO PUSH2 0x8EB JUMPI PUSH1 0x40 MLOAD PUSH3 0x461BCD PUSH1 0xE5 SHL DUP2 MSTORE PUSH1 0x4 ADD PUSH2 0x23E SWAP1 PUSH2 0x4CD8 JUMP JUMPDEST PUSH1 0x2 PUSH1 0xA SSTORE PUSH1 0x0 PUSH2 0x8FD DUP10 DUP10 DUP10 PUSH2 0x172D JUMP JUMPDEST SWAP1 POP PUSH1 0x0 PUSH2 0x90B DUP11 DUP11 PUSH2 0xC21 JUMP JUMPDEST SWAP1 POP PUSH1 0x0 PUSH2 0x91D DUP11 DUP4 PUSH1 0x20 ADD MLOAD PUSH2 0xC9F JUMP JUMPDEST SWAP1 POP DUP2 PUSH1 0x20 ADD MLOAD TIMESTAMP LT PUSH2 0x92F JUMPI PUSH1 0x0 DUP1 REVERT JUMPDEST PUSH1 0x0 DUP1 PUSH2 0x953 DUP4 DUP15 DUP7 PUSH1 0x40 ADD MLOAD DUP8 PUSH1 0x0 ADD MLOAD DUP10 PUSH2 0x1063 SWAP1 SWAP5 SWAP4 SWAP3 SWAP2 SWAP1 PUSH4 0xFFFFFFFF AND JUMP JUMPDEST SWAP2 POP SWAP2 POP DUP5 PUSH1 0xA0 ADD MLOAD DUP3 SLT PUSH2 0x97A JUMPI PUSH1 0x40 MLOAD PUSH3 0x461BCD PUSH1 0xE5 SHL DUP2 MSTORE PUSH1 0x4 ADD PUSH2 0x23E SWAP1 PUSH2 0x4DE8 JUMP JUMPDEST PUSH1 0x0 PUSH2 0x98D DUP7 PUSH1 0x40 ADD MLOAD PUSH2 0xFFFF AND PUSH2 0x17D5 JUMP JUMPDEST SWAP1 POP PUSH2 0x99D DUP13 DUP3 DUP8 DUP10 DUP16 DUP8 PUSH2 0x17E8 JUMP JUMPDEST PUSH1 0x0 PUSH2 0x9E4 PUSH4 0x3B9ACA00 PUSH2 0x9DE PUSH2 0x9B3 DUP7 PUSH2 0x18BB JUMP JUMPDEST PUSH2 0x9DE DUP11 PUSH1 0x40 ADD MLOAD PUSH2 0x9D8 PUSH2 0x9CB DUP15 PUSH1 0xC0 ADD MLOAD PUSH2 0x18BB JUMP JUMPDEST PUSH2 0x9D8 DUP15 PUSH1 0x80 ADD MLOAD PUSH2 0x18BB JUMP JUMPDEST SWAP1 PUSH2 0x18CA JUMP JUMPDEST SWAP1 PUSH2 0x18F1 JUMP JUMPDEST PUSH1 0x40 DUP8 ADD MLOAD SWAP1 SWAP2 POP PUSH2 0x9F6 SWAP1 DUP3 PUSH2 0x1910 JUMP JUMPDEST PUSH1 0x40 DUP8 ADD MSTORE PUSH1 0x80 DUP7 ADD MLOAD PUSH2 0x160 DUP9 ADD MLOAD PUSH1 0x0 SWAP2 PUSH2 0xA13 SWAP2 SWAP1 PUSH2 0x1925 JUMP JUMPDEST SWAP1 POP PUSH2 0xA32 DUP9 DUP8 DUP4 PUSH2 0xA28 DUP12 PUSH1 0x80 ADD MLOAD PUSH2 0xD99 JUMP JUMPDEST DUP12 SWAP4 SWAP3 SWAP2 SWAP1 PUSH2 0x1958 JUMP JUMPDEST DUP7 MLOAD PUSH1 0x0 SLT ISZERO PUSH2 0xA41 JUMPI PUSH1 0x0 DUP8 MSTORE JUMPDEST DUP16 PUSH1 0x1 PUSH1 0x1 PUSH1 0xA0 SHL SUB AND DUP16 PUSH1 0x1 PUSH1 0x1 PUSH1 0xA0 SHL SUB AND PUSH32 0x5B4676A4ED91C52FD6C4A759AEC8A3561B67499C52870FC58000A8EB54FEC301 DUP5 DUP5 PUSH1 0x40 MLOAD PUSH2 0xA86 SWAP3 SWAP2 SWAP1 PUSH2 0x4A67 JUMP JUMPDEST PUSH1 0x40 MLOAD DUP1 SWAP2 SUB SWAP1 LOG3 POP PUSH2 0xA99 DUP7 DUP9 PUSH2 0x144E JUMP JUMPDEST DUP13 PUSH1 0x1 PUSH1 0x1 PUSH1 0xA0 SHL SUB AND DUP16 PUSH1 0x1 PUSH1 0x1 PUSH1 0xA0 SHL SUB AND DUP16 PUSH1 0x1 PUSH1 0x1 PUSH1 0xA0 SHL SUB AND PUSH32 0x1745A2FE0D7C484EA79432A82F950EAC6916ADC499A0223D2EBDADCDB210F2A DUP5 DUP16 PUSH1 0x40 MLOAD PUSH2 0xAE8 SWAP3 SWAP2 SWAP1 PUSH2 0x4EBC JUMP JUMPDEST PUSH1 0x40 MLOAD DUP1 SWAP2 SUB SWAP1 LOG4 DUP11 ISZERO PUSH2 0xB21 JUMPI DUP7 MLOAD PUSH2 0xB03 SWAP1 DUP7 SWAP1 PUSH2 0xE3D JUMP JUMPDEST PUSH2 0xB13 DUP14 DUP9 DUP4 DUP10 PUSH1 0x20 ADD MLOAD PUSH2 0x19C6 JUMP JUMPDEST SWAP8 POP POP POP POP POP POP POP POP PUSH2 0xB30 JUMP JUMPDEST PUSH2 0xB13 DUP14 DUP9 DUP8 DUP5 DUP15 DUP15 DUP9 PUSH2 0x1A3A JUMP JUMPDEST PUSH1 0x1 PUSH1 0xA SSTORE SWAP8 SWAP7 POP POP POP POP POP POP POP JUMP JUMPDEST PUSH2 0xB48 PUSH2 0x452A JUMP JUMPDEST PUSH2 0xB52 DUP4 DUP4 PUSH2 0xC21 JUMP JUMPDEST SWAP1 POP JUMPDEST SWAP3 SWAP2 POP POP JUMP JUMPDEST PUSH20 0x0 SWAP1 JUMP JUMPDEST PUSH2 0xB7B PUSH2 0x4562 JUMP JUMPDEST PUSH2 0xB84 DUP3 PUSH2 0x1B10 JUMP JUMPDEST SWAP1 POP PUSH2 0xB97 DUP2 PUSH1 0x40 ADD MLOAD PUSH2 0xFFFF AND PUSH2 0x1C8E JUMP JUMPDEST PUSH2 0x160 DUP3 ADD MSTORE SWAP2 SWAP1 POP JUMP JUMPDEST PUSH2 0xBAC DUP4 DUP3 PUSH2 0xC0C JUMP JUMPDEST ISZERO PUSH2 0xBDF JUMPI DUP3 MLOAD PUSH1 0x1 PUSH1 0x1 PUSH1 0xA0 SHL SUB AND CALLER EQ PUSH2 0xBDA JUMPI PUSH1 0x40 MLOAD PUSH3 0x461BCD PUSH1 0xE5 SHL DUP2 MSTORE PUSH1 0x4 ADD PUSH2 0x23E SWAP1 PUSH2 0x4AAD JUMP JUMPDEST PUSH2 0xC07 JUMP JUMPDEST PUSH1 0x1 PUSH1 0x1 PUSH1 0xA0 SHL SUB DUP3 AND CALLER EQ PUSH2 0xC07 JUMPI PUSH1 0x40 MLOAD PUSH3 0x461BCD PUSH1 0xE5 SHL DUP2 MSTORE PUSH1 0x4 ADD PUSH2 0x23E SWAP1 PUSH2 0x4AAD JUMP JUMPDEST POP POP POP JUMP JUMPDEST PUSH1 0x20 SWAP2 SWAP1 SWAP2 ADD MLOAD DUP2 AND PUSH2 0xFFFF SWAP1 DUP2 AND SWAP2 AND EQ SWAP1 JUMP JUMPDEST PUSH2 0xC29 PUSH2 0x452A JUMP JUMPDEST PUSH1 0x0 PUSH2 0xC33 PUSH2 0x1CDA JUMP JUMPDEST PUSH1 0x1 PUSH1 0x1 PUSH1 0xA0 SHL SUB SWAP5 DUP6 AND PUSH1 0x0 DUP2 DUP2 MSTORE PUSH1 0x20 SWAP3 DUP4 MSTORE PUSH1 0x40 DUP1 DUP3 KECCAK256 SWAP7 SWAP1 SWAP8 AND DUP2 MSTORE SWAP5 DUP3 MSTORE DUP6 DUP6 KECCAK256 SLOAD PUSH1 0x1 PUSH1 0x1 PUSH1 0x50 SHL SUB DUP1 DUP3 AND DUP8 SUB DUP7 MSTORE PUSH4 0xFFFFFFFF PUSH1 0x1 PUSH1 0xA0 SHL DUP4 DIV AND SWAP4 DUP7 ADD SWAP4 SWAP1 SWAP4 MSTORE PUSH1 0x1 PUSH1 0x50 SHL SWAP1 DIV SWAP1 SWAP2 AND SWAP5 DUP4 ADD SWAP5 SWAP1 SWAP5 MSTORE POP PUSH1 0x60 DUP2 ADD SWAP3 SWAP1 SWAP3 MSTORE PUSH1 0x80 DUP3 ADD MSTORE SWAP1 JUMP JUMPDEST PUSH2 0xCA7 PUSH2 0x45DF JUMP JUMPDEST PUSH1 0x0 PUSH2 0xCB1 PUSH2 0x1CE7 JUMP JUMPDEST PUSH1 0x1 PUSH1 0x1 PUSH1 0xA0 SHL SUB SWAP1 SWAP5 AND PUSH1 0x0 SWAP1 DUP2 MSTORE PUSH1 0x20 SWAP5 DUP6 MSTORE PUSH1 0x40 DUP1 DUP3 KECCAK256 DUP6 DUP4 MSTORE DUP7 MSTORE DUP1 DUP3 KECCAK256 SWAP5 DUP5 MSTORE DUP5 SLOAD PUSH1 0x1 PUSH1 0x1 PUSH1 0x50 SHL SUB DUP1 DUP3 AND SWAP1 SWAP4 SUB SWAP7 DUP6 ADD SWAP7 SWAP1 SWAP7 MSTORE PUSH1 0xFF PUSH1 0x1 PUSH1 0xF0 SHL DUP8 DIV AND ISZERO ISZERO SWAP1 DUP5 ADD MSTORE PUSH1 0x1 PUSH1 0x50 SHL DUP1 DUP7 DIV DUP3 AND PUSH1 0x80 DUP6 ADD MSTORE PUSH1 0x1 SWAP1 SWAP5 ADD SLOAD DUP1 DUP3 AND PUSH1 0xA0 DUP6 ADD MSTORE PUSH1 0x1 PUSH1 0xA0 SHL SWAP1 SWAP6 DIV AND PUSH1 0x60 DUP4 ADD MSTORE POP SWAP2 DIV PUSH1 0x9 SWAP1 DUP2 SIGNEXTEND SWAP1 SIGNEXTEND PUSH1 0xC0 DUP3 ADD MSTORE SWAP1 JUMP JUMPDEST DUP3 MLOAD PUSH1 0x20 DUP4 ADD MLOAD PUSH1 0x0 SWAP2 EQ PUSH2 0xD4E JUMPI PUSH1 0x0 DUP1 REVERT JUMPDEST PUSH1 0x40 DUP4 ADD MLOAD PUSH2 0xD5D SWAP1 DUP4 PUSH2 0x1910 JUMP JUMPDEST PUSH1 0x40 DUP5 ADD MSTORE PUSH1 0x0 PUSH2 0xD6E DUP6 DUP5 PUSH2 0x1CF4 JUMP JUMPDEST SWAP3 POP SWAP1 POP PUSH2 0xD89 PUSH2 0xD7E DUP3 PUSH2 0x13EC JUMP JUMPDEST PUSH1 0x80 DUP7 ADD MLOAD SWAP1 PUSH2 0x1D4B JUMP JUMPDEST PUSH1 0x80 SWAP1 SWAP5 ADD SWAP4 SWAP1 SWAP4 MSTORE SWAP4 SWAP3 POP POP POP JUMP JUMPDEST PUSH1 0x0 PUSH2 0xDA7 PUSH1 0x0 NOT DUP4 PUSH2 0x1D61 JUMP JUMPDEST SWAP1 POP JUMPDEST SWAP2 SWAP1 POP JUMP JUMPDEST DUP6 MLOAD PUSH1 0x0 SWAP1 PUSH2 0xDBE SWAP1 DUP6 PUSH2 0x1D4B JUMP JUMPDEST SGT ISZERO PUSH2 0xDC9 JUMPI PUSH1 0x0 DUP1 REVERT JUMPDEST DUP6 PUSH1 0x20 ADD MLOAD DUP2 LT PUSH2 0xDD9 JUMPI PUSH1 0x0 DUP1 REVERT JUMPDEST PUSH1 0x0 PUSH2 0xDF6 DUP7 PUSH1 0x40 ADD MLOAD DUP9 PUSH1 0x20 ADD MLOAD DUP7 DUP7 DUP11 PUSH2 0x100 ADD MLOAD DUP8 PUSH2 0x1DAF JUMP JUMPDEST SWAP1 POP DUP1 PUSH2 0xE19 JUMPI PUSH2 0x160 DUP7 ADD MLOAD PUSH2 0xE16 SWAP1 PUSH2 0xE11 SWAP1 DUP7 PUSH2 0x1EE1 JUMP JUMPDEST PUSH2 0xD99 JUMP JUMPDEST SWAP1 POP JUMPDEST PUSH1 0x0 DUP2 SGT ISZERO PUSH2 0xE27 JUMPI PUSH1 0x0 DUP1 REVERT JUMPDEST PUSH2 0xE34 DUP8 DUP8 DUP8 DUP8 DUP6 PUSH2 0x1958 JUMP JUMPDEST POP POP POP POP POP POP POP JUMP JUMPDEST PUSH1 0x0 PUSH2 0xE47 PUSH2 0x1CE7 JUMP JUMPDEST PUSH1 0x1 PUSH1 0x1 PUSH1 0xA0 SHL SUB DUP4 AND PUSH1 0x0 SWAP1 DUP2 MSTORE PUSH1 0x20 DUP3 DUP2 MSTORE PUSH1 0x40 DUP1 DUP4 KECCAK256 DUP8 MLOAD DUP5 MSTORE SWAP1 SWAP2 MSTORE SWAP1 DUP2 SWAP1 KECCAK256 SWAP1 DUP6 ADD MLOAD SWAP2 SWAP3 POP SWAP1 ISZERO PUSH2 0xE7D JUMPI PUSH1 0x0 DUP1 REVERT JUMPDEST PUSH2 0xE9A PUSH2 0xE95 PUSH2 0xE90 DUP7 PUSH1 0x20 ADD MLOAD PUSH2 0xD99 JUMP JUMPDEST PUSH2 0x18BB JUMP JUMPDEST PUSH2 0x1F0C JUMP JUMPDEST DUP2 SLOAD PUSH1 0x1 PUSH1 0x1 PUSH1 0x50 SHL SUB NOT AND PUSH1 0x1 PUSH1 0x1 PUSH1 0x50 SHL SUB SWAP2 SWAP1 SWAP2 AND OR DUP2 SSTORE PUSH1 0x80 DUP5 ADD MLOAD PUSH2 0xEC3 SWAP1 PUSH2 0x1F0C JUMP JUMPDEST DUP2 SLOAD PUSH1 0x1 PUSH1 0x1 PUSH1 0x50 SHL SUB SWAP2 SWAP1 SWAP2 AND PUSH1 0x1 PUSH1 0x50 SHL MUL PUSH1 0x1 PUSH1 0x50 SHL PUSH1 0x1 PUSH1 0xA0 SHL SUB NOT SWAP1 SWAP2 AND OR DUP2 SSTORE PUSH1 0xA0 DUP5 ADD MLOAD PUSH2 0xEF7 SWAP1 PUSH2 0x1F0C JUMP JUMPDEST PUSH1 0x1 DUP3 ADD DUP1 SLOAD PUSH1 0x1 PUSH1 0x1 PUSH1 0x50 SHL SUB NOT AND PUSH1 0x1 PUSH1 0x1 PUSH1 0x50 SHL SUB SWAP3 SWAP1 SWAP3 AND SWAP2 SWAP1 SWAP2 OR SWAP1 SSTORE PUSH1 0x60 DUP5 ADD MLOAD PUSH2 0xF27 SWAP1 PUSH2 0x1F0C JUMP JUMPDEST DUP2 SLOAD PUSH1 0x1 PUSH1 0x1 PUSH1 0x50 SHL SUB SWAP2 SWAP1 SWAP2 AND PUSH1 0x1 PUSH1 0xA0 SHL MUL PUSH10 0xFFFFFFFFFFFFFFFFFFFF PUSH1 0xA0 SHL NOT SWAP1 SWAP2 AND OR DUP2 SSTORE DUP4 MLOAD PUSH1 0x20 DUP6 ADD MLOAD PUSH1 0x80 DUP7 ADD MLOAD PUSH1 0xA0 DUP8 ADD MLOAD PUSH1 0x60 DUP9 ADD MLOAD PUSH1 0x40 MLOAD PUSH1 0x1 PUSH1 0x1 PUSH1 0xA0 SHL SUB DUP10 AND SWAP5 PUSH32 0x3A0FDAECF7B5DA75A56077F5B1C8FBC88F9B08E9D0C4DB31EB34E25BC6700CDE SWAP5 PUSH2 0xFA3 SWAP5 SWAP2 SWAP4 SWAP1 SWAP3 PUSH2 0x4A92 JUMP JUMPDEST PUSH1 0x40 MLOAD DUP1 SWAP2 SUB SWAP1 LOG3 POP POP POP POP JUMP JUMPDEST DUP7 DUP10 PUSH1 0x20 ADD MLOAD EQ DUP1 PUSH2 0xFC2 JUMPI POP DUP9 MLOAD ISZERO JUMPDEST PUSH2 0xFCB JUMPI PUSH1 0x0 DUP1 REVERT JUMPDEST PUSH1 0x0 PUSH2 0xFDB DUP10 PUSH1 0x0 ADD MLOAD DUP10 PUSH2 0xC9F JUMP JUMPDEST SWAP1 POP DUP7 ISZERO PUSH2 0xFFC JUMPI PUSH2 0xFFC DUP11 DUP11 DUP4 DUP12 PUSH2 0xFF6 PUSH2 0xE11 DUP14 PUSH2 0x13EC JUMP JUMPDEST DUP12 PUSH2 0x1F22 JUMP JUMPDEST PUSH2 0x100B DUP2 DUP12 DUP12 DUP7 DUP7 DUP11 DUP11 PUSH2 0x1FC9 JUMP JUMPDEST DUP9 MLOAD PUSH2 0x1018 SWAP1 DUP3 SWAP1 PUSH2 0xE3D JUMP JUMPDEST PUSH2 0x1022 DUP11 DUP11 PUSH2 0x144E JUMP JUMPDEST DUP7 ISZERO PUSH2 0x1033 JUMPI PUSH2 0x1033 DUP10 DUP3 DUP13 PUSH2 0x1406 JUMP JUMPDEST POP POP POP POP POP POP POP POP POP POP JUMP JUMPDEST PUSH2 0x1047 PUSH2 0x4562 JUMP JUMPDEST PUSH2 0x1050 DUP3 PUSH2 0x1B10 JUMP JUMPDEST SWAP1 POP PUSH2 0xB97 DUP2 PUSH1 0x40 ADD MLOAD PUSH2 0xFFFF AND PUSH2 0x2135 JUMP JUMPDEST PUSH1 0x0 DUP1 PUSH2 0x1072 DUP7 DUP9 DUP8 DUP8 PUSH2 0x214B JUMP JUMPDEST SWAP1 POP PUSH1 0x0 PUSH2 0x108E PUSH2 0x1082 DUP6 PUSH2 0xD99 JUMP JUMPDEST PUSH2 0x160 DUP11 ADD MLOAD SWAP1 PUSH2 0x1EE1 JUMP JUMPDEST SWAP1 POP PUSH1 0x0 PUSH2 0x109C DUP4 DUP4 PUSH2 0x21B6 JUMP JUMPDEST SWAP1 POP DUP2 PUSH2 0x10B2 JUMPI PUSH1 0x1 PUSH1 0x1 PUSH1 0xFF SHL SUB SWAP4 POP PUSH2 0x10BF JUMP JUMPDEST PUSH2 0x10BC DUP2 DUP4 PUSH2 0x21CC JUMP JUMPDEST SWAP4 POP JUMPDEST POP POP SWAP6 POP SWAP6 SWAP4 POP POP POP POP JUMP JUMPDEST PUSH1 0x0 DUP1 PUSH1 0x0 PUSH2 0x10EC PUSH4 0x3B9ACA00 DUP7 PUSH2 0x120 ADD MLOAD PUSH2 0x1D4B SWAP1 SWAP2 SWAP1 PUSH4 0xFFFFFFFF AND JUMP JUMPDEST SWAP1 POP PUSH1 0x0 PUSH2 0x110C PUSH2 0x1100 DUP9 PUSH1 0x0 ADD MLOAD PUSH2 0xD99 JUMP JUMPDEST PUSH2 0x160 DUP9 ADD MLOAD SWAP1 PUSH2 0x1EE1 JUMP JUMPDEST SWAP1 POP PUSH2 0x1142 PUSH2 0x1128 DUP8 PUSH1 0xC0 ADD MLOAD DUP5 PUSH2 0x21B6 SWAP1 SWAP2 SWAP1 PUSH4 0xFFFFFFFF AND JUMP JUMPDEST PUSH2 0x113C DUP8 PUSH2 0x1136 DUP6 DUP8 PUSH2 0x21E5 JUMP JUMPDEST SWAP1 PUSH2 0x21B6 JUMP JUMPDEST SWAP1 PUSH2 0x21CC JUMP JUMPDEST SWAP4 POP PUSH1 0x0 PUSH2 0x1150 DUP3 DUP7 PUSH2 0x21B6 JUMP JUMPDEST SWAP1 POP PUSH1 0x0 PUSH2 0x1170 DUP9 PUSH1 0x60 ADD MLOAD DUP10 PUSH2 0x160 ADD MLOAD PUSH2 0x1EE1 SWAP1 SWAP2 SWAP1 PUSH4 0xFFFFFFFF AND JUMP JUMPDEST SWAP1 POP DUP1 DUP3 SLT ISZERO PUSH2 0x1182 JUMPI DUP3 SWAP6 POP PUSH1 0x1 SWAP5 POP JUMPDEST POP POP POP POP SWAP4 POP SWAP4 SWAP2 POP POP JUMP JUMPDEST PUSH1 0x0 DUP1 PUSH2 0x11A3 DUP5 PUSH1 0x0 ADD MLOAD DUP7 PUSH1 0x20 ADD MLOAD PUSH2 0xC9F JUMP JUMPDEST SWAP1 POP DUP1 PUSH1 0x40 ADD MLOAD PUSH2 0x11C6 JUMPI PUSH1 0x40 MLOAD PUSH3 0x461BCD PUSH1 0xE5 SHL DUP2 MSTORE PUSH1 0x4 ADD PUSH2 0x23E SWAP1 PUSH2 0x4BEC JUMP JUMPDEST PUSH1 0x0 PUSH2 0x11DF DUP6 PUSH1 0x40 ADD MLOAD PUSH2 0xFFFF AND DUP8 PUSH1 0x20 ADD MLOAD DUP7 PUSH2 0x21FE JUMP JUMPDEST SWAP1 POP PUSH1 0x0 PUSH2 0x120C PUSH4 0x5F5E100 PUSH2 0x1206 DUP6 PUSH1 0xC0 ADD MLOAD PUSH2 0x1200 DUP8 PUSH1 0xA0 ADD MLOAD PUSH2 0x13EC JUMP JUMPDEST SWAP1 PUSH2 0x1D61 JUMP JUMPDEST SWAP1 PUSH2 0x236E JUMP JUMPDEST SWAP1 POP PUSH1 0x0 PUSH2 0x121C DUP9 DUP6 DUP6 DUP6 PUSH2 0x239F JUMP JUMPDEST SWAP1 POP PUSH1 0x0 PUSH2 0x122D DUP9 DUP7 DUP7 DUP6 DUP8 PUSH2 0x2424 JUMP JUMPDEST PUSH1 0x0 DUP12 MSTORE PUSH1 0x80 DUP12 ADD MLOAD SWAP1 SWAP8 POP SWAP1 SWAP2 POP PUSH2 0x1246 SWAP1 DUP3 PUSH2 0x1D4B JUMP JUMPDEST PUSH1 0x80 DUP11 ADD MSTORE PUSH1 0x0 PUSH1 0x40 DUP11 ADD DUP2 SWAP1 MSTORE PUSH1 0x20 DUP11 ADD MSTORE PUSH2 0x140 DUP9 ADD MLOAD MLOAD PUSH2 0xFFFF AND ISZERO ISZERO DUP1 PUSH2 0x127D JUMPI POP PUSH2 0x140 DUP9 ADD MLOAD PUSH1 0x20 ADD MLOAD PUSH2 0xFFFF AND ISZERO ISZERO JUMPDEST ISZERO PUSH2 0x12C5 JUMPI PUSH2 0x128A PUSH2 0x1562 JUMP JUMPDEST PUSH1 0x60 DUP11 ADD MLOAD PUSH1 0x1 PUSH1 0x1 PUSH1 0xA0 SHL SUB SWAP1 DUP2 AND PUSH1 0x0 SWAP1 DUP2 MSTORE PUSH1 0x20 SWAP3 DUP4 MSTORE PUSH1 0x40 DUP1 DUP3 KECCAK256 DUP13 MLOAD SWAP1 SWAP4 AND DUP3 MSTORE SWAP2 SWAP1 SWAP3 MSTORE SWAP1 KECCAK256 DUP1 SLOAD PUSH1 0x1 PUSH1 0x1 PUSH1 0xC0 SHL SUB NOT AND SWAP1 SSTORE JUMPDEST POP POP POP POP POP SWAP4 SWAP3 POP POP POP JUMP JUMPDEST PUSH1 0x0 DUP2 PUSH2 0x12E0 JUMPI POP PUSH1 0x0 PUSH2 0x1373 JUMP JUMPDEST PUSH1 0x0 DUP3 SGT PUSH2 0x12ED JUMPI PUSH1 0x0 DUP1 REVERT JUMPDEST PUSH1 0x0 PUSH2 0x12FC DUP5 PUSH2 0xFFFF AND PUSH2 0x17D5 JUMP JUMPDEST SWAP1 POP PUSH1 0x0 PUSH2 0x130A DUP3 DUP6 PUSH2 0x2657 JUMP JUMPDEST SWAP1 POP PUSH1 0x4 DUP3 PUSH1 0x60 ADD MLOAD PUSH1 0x5 DUP2 GT ISZERO PUSH2 0x131E JUMPI INVALID JUMPDEST EQ ISZERO PUSH2 0x134C JUMPI PUSH2 0x1345 PUSH2 0xE90 PUSH2 0xE11 DUP9 DUP9 PUSH2 0xFFFF AND PUSH2 0x133C DUP7 PUSH2 0xD99 JUMP JUMPDEST DUP8 SWAP3 SWAP2 SWAP1 PUSH2 0x268F JUMP JUMPDEST SWAP3 POP PUSH2 0x1370 JUMP JUMPDEST PUSH2 0x136D PUSH2 0xE90 PUSH2 0xE11 DUP8 PUSH2 0xFFFF AND DUP10 PUSH2 0x1364 DUP7 PUSH2 0x18BB JUMP JUMPDEST DUP8 SWAP3 SWAP2 SWAP1 PUSH2 0x2737 JUMP JUMPDEST SWAP3 POP JUMPDEST POP POP JUMPDEST SWAP4 SWAP3 POP POP POP JUMP JUMPDEST PUSH1 0x0 DUP7 PUSH1 0x80 ADD MLOAD SGT ISZERO PUSH2 0x138C JUMPI PUSH1 0x0 DUP1 REVERT JUMPDEST PUSH2 0x13D8 DUP8 PUSH1 0x40 MLOAD DUP1 PUSH1 0xA0 ADD PUSH1 0x40 MSTORE DUP1 DUP10 PUSH1 0x60 ADD MLOAD PUSH1 0x1 PUSH1 0x1 PUSH1 0xA0 SHL SUB AND DUP2 MSTORE PUSH1 0x20 ADD DUP9 PUSH1 0x1 PUSH1 0x1 PUSH1 0xA0 SHL SUB AND DUP2 MSTORE PUSH1 0x20 ADD DUP8 DUP2 MSTORE PUSH1 0x20 ADD DUP7 DUP2 MSTORE PUSH1 0x20 ADD DUP10 PUSH1 0x80 ADD MLOAD DUP2 MSTORE POP DUP5 DUP5 PUSH2 0x27D7 JUMP JUMPDEST POP POP PUSH1 0x0 PUSH1 0x80 SWAP1 SWAP6 ADD SWAP5 SWAP1 SWAP5 MSTORE POP POP POP POP POP JUMP JUMPDEST PUSH1 0x0 PUSH1 0x1 PUSH1 0x1 PUSH1 0xFF SHL SUB DUP3 GT ISZERO PUSH2 0x1402 JUMPI PUSH1 0x0 DUP1 REVERT JUMPDEST POP SWAP1 JUMP JUMPDEST PUSH1 0x0 PUSH2 0x1421 DUP5 DUP5 DUP5 PUSH1 0x60 ADD MLOAD DUP6 PUSH1 0x40 ADD MLOAD DUP7 PUSH1 0x0 ADD MLOAD PUSH2 0x1063 JUMP JUMPDEST POP SWAP1 POP DUP1 DUP5 PUSH1 0xA0 ADD MLOAD SGT ISZERO PUSH2 0x1448 JUMPI PUSH1 0x40 MLOAD PUSH3 0x461BCD PUSH1 0xE5 SHL DUP2 MSTORE PUSH1 0x4 ADD PUSH2 0x23E SWAP1 PUSH2 0x4C6A JUMP JUMPDEST POP POP POP POP JUMP JUMPDEST PUSH1 0x0 PUSH2 0x1458 PUSH2 0x1CDA JUMP JUMPDEST PUSH1 0x60 DUP5 ADD MLOAD PUSH1 0x1 PUSH1 0x1 PUSH1 0xA0 SHL SUB SWAP1 DUP2 AND PUSH1 0x0 SWAP1 DUP2 MSTORE PUSH1 0x20 DUP4 DUP2 MSTORE PUSH1 0x40 DUP1 DUP4 KECCAK256 DUP8 MLOAD SWAP1 SWAP5 AND DUP4 MSTORE SWAP3 SWAP1 MSTORE KECCAK256 PUSH1 0x80 DUP6 ADD MLOAD SWAP2 SWAP3 POP SWAP1 ISZERO PUSH2 0x1495 JUMPI PUSH1 0x0 DUP1 REVERT JUMPDEST DUP4 MLOAD ISZERO DUP1 PUSH2 0x14B1 JUMPI POP DUP4 MLOAD PUSH2 0x14A9 SWAP1 PUSH2 0xD99 JUMP JUMPDEST DUP4 PUSH1 0x60 ADD MLOAD SGT ISZERO JUMPDEST PUSH2 0x14CD JUMPI PUSH1 0x40 MLOAD PUSH3 0x461BCD PUSH1 0xE5 SHL DUP2 MSTORE PUSH1 0x4 ADD PUSH2 0x23E SWAP1 PUSH2 0x4D27 JUMP JUMPDEST PUSH2 0x14E0 PUSH2 0xE95 PUSH2 0xE90 DUP7 PUSH1 0x0 ADD MLOAD PUSH2 0xD99 JUMP JUMPDEST DUP2 SLOAD PUSH1 0x1 PUSH1 0x1 PUSH1 0x50 SHL SUB NOT AND PUSH1 0x1 PUSH1 0x1 PUSH1 0x50 SHL SUB SWAP2 SWAP1 SWAP2 AND OR DUP2 SSTORE PUSH1 0x40 DUP5 ADD MLOAD PUSH2 0x1509 SWAP1 PUSH2 0x1F0C JUMP JUMPDEST DUP2 SLOAD PUSH1 0x1 PUSH1 0x1 PUSH1 0x50 SHL SUB SWAP2 SWAP1 SWAP2 AND PUSH1 0x1 PUSH1 0x50 SHL MUL PUSH1 0x1 PUSH1 0x50 SHL PUSH1 0x1 PUSH1 0xA0 SHL SUB NOT SWAP1 SWAP2 AND OR DUP2 SSTORE PUSH1 0x20 DUP5 ADD MLOAD PUSH2 0x153D SWAP1 PUSH2 0x2A5D JUMP JUMPDEST DUP2 SLOAD PUSH4 0xFFFFFFFF SWAP2 SWAP1 SWAP2 AND PUSH1 0x1 PUSH1 0xA0 SHL MUL PUSH4 0xFFFFFFFF PUSH1 0xA0 SHL NOT SWAP1 SWAP2 AND OR SWAP1 SSTORE POP POP POP JUMP JUMPDEST PUSH1 0x0 DUP1 PUSH2 0xB55 PUSH1 0x1A PUSH2 0x2A70 JUMP JUMPDEST PUSH1 0x0 DUP1 PUSH1 0x0 DUP5 PUSH1 0x60 ADD MLOAD GT ISZERO PUSH2 0x15C2 JUMPI PUSH2 0x159E DUP5 PUSH1 0x60 ADD MLOAD PUSH2 0x9DE DUP7 PUSH1 0x80 ADD MLOAD DUP7 PUSH2 0x18CA SWAP1 SWAP2 SWAP1 PUSH4 0xFFFFFFFF AND JUMP JUMPDEST SWAP2 POP PUSH2 0x15BF DUP5 PUSH1 0x60 ADD MLOAD PUSH2 0x9DE DUP7 PUSH1 0xA0 ADD MLOAD DUP7 PUSH2 0x18CA SWAP1 SWAP2 SWAP1 PUSH4 0xFFFFFFFF AND JUMP JUMPDEST SWAP1 POP JUMPDEST SWAP3 POP SWAP3 SWAP1 POP JUMP JUMPDEST PUSH1 0x1 PUSH1 0x1 PUSH1 0xA0 SHL SUB DUP2 AND PUSH2 0x15DC JUMPI PUSH1 0x0 DUP1 REVERT JUMPDEST PUSH1 0x1 PUSH1 0x1 PUSH1 0xA0 SHL SUB DUP2 AND ADDRESS EQ ISZERO PUSH2 0x15F2 JUMPI PUSH1 0x0 DUP1 REVERT JUMPDEST PUSH1 0x0 PUSH2 0x15FD DUP3 PUSH2 0x2A89 JUMP JUMPDEST POP POP POP POP PUSH2 0xFFFF AND SWAP1 POP DUP1 PUSH1 0x0 EQ PUSH2 0x1614 JUMPI PUSH1 0x0 DUP1 REVERT JUMPDEST POP POP JUMP JUMPDEST PUSH1 0x0 DUP2 PUSH2 0x1627 JUMPI POP PUSH1 0x0 PUSH2 0x1373 JUMP JUMPDEST PUSH1 0x0 PUSH2 0x163A DUP6 PUSH1 0x40 ADD MLOAD PUSH2 0xFFFF AND PUSH2 0x17D5 JUMP JUMPDEST SWAP1 POP PUSH1 0x0 PUSH1 0x4 DUP3 PUSH1 0x60 ADD MLOAD PUSH1 0x5 DUP2 GT ISZERO PUSH2 0x1650 JUMPI INVALID JUMPDEST EQ PUSH2 0x166B JUMPI PUSH2 0x1666 DUP7 PUSH1 0x40 ADD MLOAD PUSH2 0xFFFF AND PUSH2 0x2AF5 JUMP JUMPDEST PUSH2 0x166D JUMP JUMPDEST DUP2 JUMPDEST DUP7 MLOAD SWAP1 SWAP2 POP PUSH1 0x3 DUP3 PUSH1 0x60 ADD MLOAD PUSH1 0x5 DUP2 GT ISZERO PUSH2 0x1684 JUMPI INVALID JUMPDEST EQ ISZERO PUSH2 0x16BE JUMPI DUP5 CALLVALUE EQ PUSH2 0x16A9 JUMPI PUSH1 0x40 MLOAD PUSH3 0x461BCD PUSH1 0xE5 SHL DUP2 MSTORE PUSH1 0x4 ADD PUSH2 0x23E SWAP1 PUSH2 0x4D4B JUMP JUMPDEST PUSH2 0x16B3 DUP2 CALLVALUE PUSH2 0x2B08 JUMP JUMPDEST CALLVALUE SWAP4 POP POP POP POP PUSH2 0x1373 JUMP JUMPDEST DUP2 PUSH1 0x20 ADD MLOAD ISZERO PUSH2 0x170A JUMPI PUSH1 0x0 PUSH2 0x16D4 DUP4 DUP4 PUSH2 0x2B3E JUMP JUMPDEST SWAP1 POP PUSH2 0x16E6 DUP4 PUSH1 0x0 ADD MLOAD DUP9 DUP5 DUP10 PUSH2 0x2BEF JUMP JUMPDEST PUSH1 0x0 PUSH2 0x16F2 DUP5 DUP5 PUSH2 0x2B3E JUMP JUMPDEST SWAP1 POP PUSH2 0x16FE DUP2 DUP4 PUSH2 0x1910 JUMP JUMPDEST SWAP6 POP POP POP POP POP POP PUSH2 0x1373 JUMP JUMPDEST DUP2 MLOAD PUSH2 0x1718 SWAP1 DUP8 DUP4 DUP9 PUSH2 0x2BEF JUMP JUMPDEST DUP5 SWAP4 POP POP POP POP PUSH2 0x1373 JUMP JUMPDEST POP POP POP SWAP4 SWAP3 POP POP POP JUMP JUMPDEST PUSH2 0x1735 PUSH2 0x4562 JUMP JUMPDEST PUSH2 0x173E DUP4 PUSH2 0xB73 JUMP JUMPDEST SWAP1 POP PUSH2 0x174B DUP2 PUSH1 0x80 PUSH2 0xC0C JUMP JUMPDEST ISZERO PUSH2 0x1756 JUMPI PUSH1 0x1 PUSH1 0xA SSTORE JUMPDEST PUSH2 0x1761 DUP2 PUSH1 0x20 PUSH2 0xC0C JUMP JUMPDEST ISZERO PUSH2 0x178E JUMPI CALLER PUSH1 0x1 PUSH1 0x1 PUSH1 0xA0 SHL SUB DUP5 AND EQ PUSH2 0x178E JUMPI PUSH1 0x40 MLOAD PUSH3 0x461BCD PUSH1 0xE5 SHL DUP2 MSTORE PUSH1 0x4 ADD PUSH2 0x23E SWAP1 PUSH2 0x4AAD JUMP JUMPDEST PUSH1 0x1 PUSH1 0x1 PUSH1 0xA0 SHL SUB DUP5 AND CALLER EQ DUP1 ISZERO SWAP1 PUSH2 0x17B9 JUMPI POP DUP2 PUSH1 0x1 PUSH1 0x1 PUSH1 0xA0 SHL SUB AND DUP5 PUSH1 0x1 PUSH1 0x1 PUSH1 0xA0 SHL SUB AND EQ ISZERO JUMPDEST PUSH2 0x1373 JUMPI PUSH1 0x40 MLOAD PUSH3 0x461BCD PUSH1 0xE5 SHL DUP2 MSTORE PUSH1 0x4 ADD PUSH2 0x23E SWAP1 PUSH2 0x4AAD JUMP JUMPDEST PUSH2 0x17DD PUSH2 0x461E JUMP JUMPDEST PUSH2 0xDA7 DUP3 PUSH1 0x0 PUSH2 0x2C77 JUMP JUMPDEST PUSH1 0x0 PUSH2 0x17F3 DUP4 PUSH2 0x13EC JUMP JUMPDEST SWAP1 POP PUSH1 0x5 DUP7 PUSH1 0x60 ADD MLOAD PUSH1 0x5 DUP2 GT ISZERO PUSH2 0x1807 JUMPI INVALID JUMPDEST EQ ISZERO PUSH2 0x1822 JUMPI PUSH2 0x181F DUP5 PUSH1 0x40 ADD MLOAD PUSH2 0xFFFF AND DUP3 PUSH2 0x2D25 JUMP JUMPDEST SWAP1 POP JUMPDEST PUSH1 0x0 DUP1 PUSH2 0x1830 DUP8 DUP8 DUP7 PUSH2 0x10CB JUMP JUMPDEST SWAP1 SWAP3 POP SWAP1 POP PUSH1 0x0 PUSH2 0x1841 DUP10 DUP5 PUSH2 0x2657 JUMP JUMPDEST SWAP1 POP DUP1 DUP5 SLT ISZERO PUSH2 0x186E JUMPI DUP2 ISZERO PUSH2 0x1869 JUMPI PUSH1 0x40 MLOAD PUSH3 0x461BCD PUSH1 0xE5 SHL DUP2 MSTORE PUSH1 0x4 ADD PUSH2 0x23E SWAP1 PUSH2 0x4CA1 JUMP JUMPDEST PUSH2 0x1872 JUMP JUMPDEST DUP1 SWAP4 POP JUMPDEST PUSH1 0x40 DUP8 ADD MLOAD PUSH1 0x0 SWAP1 PUSH2 0x188C SWAP1 DUP12 SWAP1 DUP14 SWAP1 PUSH2 0xFFFF AND DUP9 PUSH2 0x268F JUMP JUMPDEST SWAP1 POP PUSH2 0x18A6 PUSH2 0x189B DUP12 DUP4 PUSH2 0x2DAC JUMP JUMPDEST PUSH1 0x80 DUP12 ADD MLOAD SWAP1 PUSH2 0x1D4B JUMP JUMPDEST PUSH1 0x80 SWAP1 SWAP10 ADD SWAP9 SWAP1 SWAP9 MSTORE POP POP POP POP POP POP POP POP POP POP JUMP JUMPDEST PUSH1 0x0 DUP1 DUP3 SLT ISZERO PUSH2 0x1402 JUMPI PUSH1 0x0 DUP1 REVERT JUMPDEST PUSH1 0x0 DUP3 PUSH2 0x18D9 JUMPI POP PUSH1 0x0 PUSH2 0xB55 JUMP JUMPDEST DUP3 DUP3 MUL DUP3 DUP5 DUP3 DUP2 PUSH2 0x18E6 JUMPI INVALID JUMPDEST DIV EQ PUSH2 0xB52 JUMPI PUSH1 0x0 DUP1 REVERT JUMPDEST PUSH1 0x0 DUP1 DUP3 GT PUSH2 0x18FF JUMPI PUSH1 0x0 DUP1 REVERT JUMPDEST DUP2 DUP4 DUP2 PUSH2 0x1908 JUMPI INVALID JUMPDEST DIV SWAP4 SWAP3 POP POP POP JUMP JUMPDEST PUSH1 0x0 DUP3 DUP3 GT ISZERO PUSH2 0x191F JUMPI PUSH1 0x0 DUP1 REVERT JUMPDEST POP SWAP1 SUB SWAP1 JUMP JUMPDEST PUSH1 0x0 DUP1 PUSH2 0x1950 DUP5 PUSH1 0x40 ADD MLOAD PUSH2 0x1206 PUSH5 0x2540BE400 PUSH2 0x1206 DUP8 DUP10 PUSH1 0x20 ADD MLOAD PUSH2 0x1D61 SWAP1 SWAP2 SWAP1 PUSH4 0xFFFFFFFF AND JUMP JUMPDEST SWAP5 SWAP4 POP POP POP POP JUMP JUMPDEST PUSH1 0x80 DUP6 ADD MLOAD PUSH2 0x1967 SWAP1 DUP3 PUSH2 0x1D4B JUMP JUMPDEST PUSH1 0x80 DUP7 ADD MSTORE DUP5 MLOAD PUSH2 0x1978 SWAP1 DUP4 PUSH2 0x1D4B JUMP JUMPDEST DUP1 DUP7 MSTORE PUSH1 0x0 SLT ISZERO PUSH2 0x1988 JUMPI PUSH1 0x0 DUP1 REVERT JUMPDEST PUSH1 0x20 DUP4 ADD MLOAD PUSH2 0x1997 SWAP1 DUP4 PUSH2 0x1D4B JUMP JUMPDEST PUSH1 0x20 DUP5 ADD DUP2 SWAP1 MSTORE PUSH1 0x0 SLT ISZERO PUSH2 0x19AB JUMPI PUSH1 0x0 DUP1 REVERT JUMPDEST PUSH2 0x19BE DUP5 PUSH1 0x0 ADD MLOAD DUP6 PUSH1 0x40 ADD MLOAD DUP5 PUSH2 0x2DDC JUMP JUMPDEST POP POP POP POP POP POP JUMP JUMPDEST PUSH1 0x0 DUP1 PUSH2 0x19D7 DUP7 DUP7 PUSH1 0x0 ADD MLOAD PUSH2 0xC21 JUMP JUMPDEST SWAP1 POP DUP1 PUSH1 0x20 ADD MLOAD PUSH1 0x0 EQ DUP1 PUSH2 0x19EF JUMPI POP DUP3 DUP2 PUSH1 0x20 ADD MLOAD EQ JUMPDEST PUSH2 0x1A0B JUMPI PUSH1 0x40 MLOAD PUSH3 0x461BCD PUSH1 0xE5 SHL DUP2 MSTORE PUSH1 0x4 ADD PUSH2 0x23E SWAP1 PUSH2 0x4AD3 JUMP JUMPDEST PUSH1 0x20 DUP2 ADD DUP4 SWAP1 MSTORE PUSH1 0x40 DUP2 ADD MLOAD PUSH2 0x1A21 SWAP1 DUP6 PUSH2 0x2EE2 JUMP JUMPDEST PUSH1 0x40 DUP3 ADD MSTORE PUSH2 0x1A30 DUP2 DUP7 PUSH2 0x144E JUMP JUMPDEST POP SWAP2 SWAP5 SWAP4 POP POP POP POP JUMP JUMPDEST PUSH1 0x0 DUP1 DUP1 PUSH2 0x1A48 DUP9 DUP9 PUSH2 0x1CF4 JUMP JUMPDEST DUP10 MLOAD SWAP2 SWAP4 POP SWAP2 POP PUSH1 0x0 SWAP1 PUSH2 0x1A63 SWAP1 DUP12 SWAP1 DUP14 SWAP1 DUP6 SWAP1 DUP12 DUP12 PUSH2 0x2EF4 JUMP JUMPDEST SWAP1 POP PUSH2 0x1A78 PUSH2 0x1A71 DUP5 PUSH2 0x13EC JUMP JUMPDEST DUP3 SWAP1 PUSH2 0x1D4B JUMP JUMPDEST DUP11 MLOAD SWAP1 SWAP2 POP PUSH2 0x1A88 SWAP1 DUP11 SWAP1 PUSH2 0xE3D JUMP JUMPDEST PUSH1 0x0 PUSH2 0x1AB3 DUP13 DUP13 PUSH1 0x40 ADD MLOAD PUSH2 0xFFFF AND PUSH2 0x1AAA PUSH2 0x1AA3 DUP7 PUSH2 0xD99 JUMP JUMPDEST DUP11 SWAP1 PUSH2 0x2657 JUMP JUMPDEST DUP10 SWAP3 SWAP2 SWAP1 PUSH2 0x268F JUMP JUMPDEST SWAP1 POP PUSH1 0x5 DUP7 PUSH1 0x60 ADD MLOAD PUSH1 0x5 DUP2 GT ISZERO PUSH2 0x1AC7 JUMPI INVALID JUMPDEST EQ ISZERO PUSH2 0x1AF4 JUMPI PUSH1 0x0 PUSH2 0x1AE0 DUP13 PUSH1 0x40 ADD MLOAD PUSH2 0xFFFF AND PUSH2 0x2AF5 JUMP JUMPDEST SWAP1 POP PUSH2 0x1AF0 DUP2 PUSH1 0x0 ADD MLOAD DUP4 PUSH2 0x2F46 JUMP JUMPDEST SWAP2 POP POP JUMPDEST PUSH2 0x1B00 PUSH2 0xE90 DUP3 PUSH2 0xD99 JUMP JUMPDEST SWAP13 SWAP12 POP POP POP POP POP POP POP POP POP POP POP POP JUMP JUMPDEST PUSH2 0x1B18 PUSH2 0x4562 JUMP JUMPDEST PUSH1 0x0 PUSH2 0x1B22 PUSH2 0x2FD5 JUMP JUMPDEST PUSH1 0x1 PUSH1 0x1 PUSH1 0xA0 SHL SUB DUP5 AND PUSH1 0x0 DUP2 DUP2 MSTORE PUSH1 0x20 DUP4 DUP2 MSTORE PUSH1 0x40 SWAP2 DUP3 SWAP1 KECCAK256 SWAP3 DUP7 MSTORE DUP3 SLOAD PUSH2 0xFFFF DUP1 DUP3 AND SWAP3 DUP9 ADD SWAP3 SWAP1 SWAP3 MSTORE PUSH3 0x10000 DUP2 DIV SWAP1 SWAP2 AND SWAP2 DUP7 ADD SWAP2 SWAP1 SWAP2 MSTORE SWAP2 SWAP3 POP SWAP1 PUSH2 0x1B83 SWAP1 PUSH4 0xFFFFFFFF PUSH5 0x100000000 SWAP1 SWAP2 DIV DUP2 AND SWAP1 PUSH4 0x5F5E100 SWAP1 PUSH2 0x1D61 AND JUMP JUMPDEST PUSH1 0x60 DUP5 ADD MSTORE DUP1 SLOAD PUSH2 0x1BA1 SWAP1 PUSH1 0x1 PUSH1 0x50 SHL SWAP1 DIV PUSH1 0xFF AND PUSH3 0x7A120 PUSH2 0x18CA JUMP JUMPDEST PUSH1 0x80 DUP5 ADD MSTORE DUP1 SLOAD PUSH2 0x1BC5 SWAP1 PUSH9 0x10000000000000000 SWAP1 DIV PUSH2 0xFFFF AND PUSH3 0x186A0 PUSH2 0x18CA JUMP JUMPDEST PUSH1 0xA0 DUP5 ADD MSTORE DUP1 SLOAD PUSH2 0x1BE4 SWAP1 PUSH1 0x1 PUSH1 0x70 SHL SWAP1 DIV PUSH2 0xFFFF AND PUSH3 0x186A0 PUSH2 0x18CA JUMP JUMPDEST PUSH2 0x120 DUP5 ADD MSTORE DUP1 SLOAD PUSH1 0x64 SWAP1 PUSH1 0xFF PUSH1 0x1 PUSH1 0x58 SHL SWAP1 SWAP2 DIV AND PUSH4 0x3B9ACA00 MUL SDIV PUSH1 0xC0 DUP5 ADD MSTORE DUP1 SLOAD PUSH1 0x1 PUSH1 0x60 SHL DUP2 DIV PUSH1 0xFF SWAP1 DUP2 AND PUSH1 0xE0 DUP7 ADD MSTORE PUSH1 0x1 PUSH1 0x68 SHL SWAP1 SWAP2 DIV AND PUSH2 0x100 DUP5 ADD MSTORE PUSH1 0x40 DUP1 MLOAD DUP1 DUP3 ADD SWAP2 DUP3 SWAP1 MSTORE SWAP1 PUSH1 0x1 DUP4 ADD SWAP1 PUSH1 0x2 SWAP1 DUP3 PUSH1 0x0 DUP6 JUMPDEST DUP3 DUP3 SWAP1 SLOAD SWAP1 PUSH2 0x100 EXP SWAP1 DIV PUSH2 0xFFFF AND PUSH2 0xFFFF AND DUP2 MSTORE PUSH1 0x20 ADD SWAP1 PUSH1 0x2 ADD SWAP1 PUSH1 0x20 DUP3 PUSH1 0x1 ADD DIV SWAP3 DUP4 ADD SWAP3 PUSH1 0x1 SUB DUP3 MUL SWAP2 POP DUP1 DUP5 GT PUSH2 0x1C41 JUMPI SWAP1 POP POP POP POP POP POP DUP4 PUSH2 0x140 ADD DUP2 SWAP1 MSTORE POP POP POP SWAP2 SWAP1 POP JUMP JUMPDEST PUSH2 0x1C96 PUSH2 0x464D JUMP JUMPDEST PUSH1 0x0 DUP1 PUSH1 0x0 PUSH2 0x1CA4 DUP6 PUSH2 0x2FE2 JUMP JUMPDEST PUSH1 0x40 DUP1 MLOAD PUSH1 0x60 DUP2 ADD DUP3 MSTORE PUSH1 0x1 PUSH1 0x1 PUSH1 0xA0 SHL SUB SWAP1 SWAP4 AND DUP4 MSTORE PUSH1 0x20 DUP4 ADD SWAP4 SWAP1 SWAP4 MSTORE PUSH1 0xFF AND PUSH1 0xA EXP SWAP2 DUP2 ADD SWAP2 SWAP1 SWAP2 MSTORE SWAP4 POP POP POP POP SWAP2 SWAP1 POP JUMP JUMPDEST PUSH1 0x0 DUP1 PUSH2 0xB55 PUSH1 0x16 PUSH2 0x2A70 JUMP JUMPDEST PUSH1 0x0 DUP1 PUSH2 0xB55 PUSH1 0x15 PUSH2 0x2A70 JUMP JUMPDEST PUSH1 0x0 DUP1 PUSH2 0x1D01 DUP5 DUP5 PUSH2 0x156F JUMP JUMPDEST PUSH1 0x80 DUP7 ADD MLOAD SWAP2 SWAP4 POP SWAP2 POP PUSH2 0x1D15 SWAP1 DUP4 PUSH2 0x1910 JUMP JUMPDEST PUSH1 0x80 DUP6 ADD MSTORE PUSH1 0xA0 DUP5 ADD MLOAD PUSH2 0x1D29 SWAP1 DUP3 PUSH2 0x1910 JUMP JUMPDEST PUSH1 0xA0 DUP6 ADD MSTORE PUSH1 0x60 DUP5 ADD MLOAD PUSH2 0x1D3D SWAP1 DUP5 PUSH2 0x1910 JUMP JUMPDEST PUSH1 0x60 SWAP1 SWAP5 ADD SWAP4 SWAP1 SWAP4 MSTORE SWAP3 SWAP1 POP JUMP JUMPDEST DUP2 DUP2 ADD DUP3 DUP2 SLT ISZERO PUSH1 0x0 DUP4 SLT ISZERO EQ PUSH2 0xB55 JUMPI PUSH1 0x0 DUP1 REVERT JUMPDEST DUP2 DUP2 MUL PUSH1 0x0 NOT DUP4 EQ ISZERO PUSH2 0x1D91 JUMPI DUP2 ISZERO DUP1 PUSH2 0x1D83 JUMPI POP DUP3 DUP3 DUP3 DUP2 PUSH2 0x1D80 JUMPI INVALID JUMPDEST SDIV EQ JUMPDEST PUSH2 0x1D8C JUMPI PUSH1 0x0 DUP1 REVERT JUMPDEST PUSH2 0xB55 JUMP JUMPDEST DUP3 ISZERO DUP1 PUSH2 0x1DA6 JUMPI POP DUP2 DUP4 DUP3 DUP2 PUSH2 0x1DA3 JUMPI INVALID JUMPDEST SDIV EQ JUMPDEST PUSH2 0xB55 JUMPI PUSH1 0x0 DUP1 REVERT JUMPDEST PUSH1 0x0 DUP1 PUSH2 0x1DBF DUP9 PUSH2 0xFFFF AND PUSH2 0x30A5 JUMP JUMPDEST SWAP1 POP DUP4 DUP2 PUSH1 0xFF AND GT ISZERO PUSH2 0x1DD1 JUMPI PUSH1 0x0 DUP1 REVERT JUMPDEST PUSH1 0x0 DUP1 PUSH2 0x1DE2 DUP4 PUSH1 0xFF AND DUP11 DUP8 PUSH2 0x30BB JUMP JUMPDEST SWAP2 POP SWAP2 POP DUP1 ISZERO PUSH2 0x1DF1 JUMPI PUSH1 0x0 DUP1 REVERT JUMPDEST PUSH1 0x0 PUSH2 0x1DFC DUP10 PUSH2 0x3183 JUMP JUMPDEST SWAP1 POP PUSH11 0xFFFFFFFFFFFFFFFFFFFFFF DUP2 LT PUSH2 0x1E15 JUMPI PUSH1 0x0 DUP1 REVERT JUMPDEST PUSH1 0x0 PUSH1 0x78 DUP10 PUSH4 0xFFFFFFFF AND SWAP1 SHL PUSH1 0x98 DUP4 SWAP1 SHL PUSH1 0xF0 DUP7 SWAP1 SHL PUSH1 0xF8 PUSH1 0x0 DUP15 SGT PUSH2 0x1E3D JUMPI PUSH1 0x1 PUSH2 0x1E40 JUMP JUMPDEST PUSH1 0x0 JUMPDEST PUSH1 0x5 DUP2 GT ISZERO PUSH2 0x1E4B JUMPI INVALID JUMPDEST PUSH1 0xFF AND SWAP1 SHL OR OR OR PUSH1 0x0 SHL SWAP1 POP PUSH20 0x0 PUSH4 0xE50F349E DUP14 DUP4 PUSH1 0x40 MLOAD DUP4 PUSH4 0xFFFFFFFF AND PUSH1 0xE0 SHL DUP2 MSTORE PUSH1 0x4 ADD PUSH2 0x1E91 SWAP3 SWAP2 SWAP1 PUSH2 0x4E69 JUMP JUMPDEST PUSH1 0x20 PUSH1 0x40 MLOAD DUP1 DUP4 SUB DUP2 DUP7 DUP1 EXTCODESIZE ISZERO DUP1 ISZERO PUSH2 0x1EA9 JUMPI PUSH1 0x0 DUP1 REVERT JUMPDEST POP GAS DELEGATECALL ISZERO DUP1 ISZERO PUSH2 0x1EBD JUMPI RETURNDATASIZE PUSH1 0x0 DUP1 RETURNDATACOPY RETURNDATASIZE PUSH1 0x0 REVERT JUMPDEST POP POP POP POP PUSH1 0x40 MLOAD RETURNDATASIZE PUSH1 0x1F NOT PUSH1 0x1F DUP3 ADD AND DUP3 ADD DUP1 PUSH1 0x40 MSTORE POP DUP2 ADD SWAP1 PUSH2 0x1B00 SWAP2 SWAP1 PUSH2 0x4920 JUMP JUMPDEST PUSH1 0x0 DUP1 PUSH2 0x1950 DUP5 PUSH1 0x20 ADD MLOAD PUSH2 0x1206 DUP7 PUSH1 0x40 ADD MLOAD PUSH2 0x1200 PUSH5 0x2540BE400 DUP9 PUSH2 0x1D61 SWAP1 SWAP2 SWAP1 PUSH4 0xFFFFFFFF AND JUMP JUMPDEST PUSH1 0x0 PUSH1 0x1 PUSH1 0x1 PUSH1 0x50 SHL SUB DUP3 GT ISZERO PUSH2 0x1402 JUMPI PUSH1 0x0 DUP1 REVERT JUMPDEST PUSH1 0x0 DUP3 SLT PUSH2 0x1F2F JUMPI PUSH1 0x0 DUP1 REVERT JUMPDEST PUSH1 0x0 PUSH2 0x1F48 DUP7 PUSH1 0x40 ADD MLOAD DUP6 DUP6 DUP6 DUP11 PUSH2 0x100 ADD MLOAD TIMESTAMP PUSH2 0x1DAF JUMP JUMPDEST SWAP1 POP PUSH1 0x0 DUP2 SGT PUSH2 0x1F6A JUMPI PUSH1 0x40 MLOAD PUSH3 0x461BCD PUSH1 0xE5 SHL DUP2 MSTORE PUSH1 0x4 ADD PUSH2 0x23E SWAP1 PUSH2 0x4D00 JUMP JUMPDEST PUSH2 0x1F77 DUP8 DUP8 DUP8 DUP7 DUP6 PUSH2 0x1958 JUMP JUMPDEST DUP7 MLOAD PUSH2 0x1F82 SWAP1 PUSH2 0xD99 JUMP JUMPDEST DUP7 PUSH1 0x60 ADD MLOAD SGT ISZERO PUSH2 0x1FA5 JUMPI PUSH1 0x40 MLOAD PUSH3 0x461BCD PUSH1 0xE5 SHL DUP2 MSTORE PUSH1 0x4 ADD PUSH2 0x23E SWAP1 PUSH2 0x4D27 JUMP JUMPDEST PUSH1 0x0 PUSH2 0x1FB1 DUP6 TIMESTAMP PUSH2 0x1910 JUMP JUMPDEST SWAP1 POP PUSH2 0x1FBF DUP8 DUP10 DUP7 DUP5 PUSH2 0x31A4 JUMP JUMPDEST POP POP POP POP POP POP POP POP JUMP JUMPDEST PUSH1 0x80 DUP8 ADD MLOAD ISZERO PUSH2 0x1FD8 JUMPI PUSH1 0x0 DUP1 REVERT JUMPDEST PUSH1 0x0 DUP7 PUSH1 0x80 ADD MLOAD SLT ISZERO PUSH2 0x1FEA JUMPI PUSH1 0x0 DUP1 REVERT JUMPDEST DUP7 MLOAD PUSH1 0x20 DUP8 ADD MLOAD LT ISZERO PUSH2 0x2012 JUMPI PUSH1 0x40 DUP7 ADD MLOAD ISZERO PUSH2 0x2006 JUMPI PUSH1 0x0 DUP1 REVERT JUMPDEST DUP7 MLOAD PUSH1 0x20 DUP8 ADD MSTORE PUSH2 0x2023 JUMP JUMPDEST DUP7 MLOAD PUSH1 0x20 DUP8 ADD MLOAD EQ PUSH2 0x2023 JUMPI PUSH1 0x0 DUP1 REVERT JUMPDEST PUSH1 0x60 DUP7 ADD MLOAD PUSH1 0x80 DUP8 ADD MLOAD DUP9 MLOAD PUSH2 0x2048 SWAP3 PUSH2 0x2041 SWAP3 DUP10 SWAP3 DUP9 DUP9 DUP9 PUSH2 0x32B3 JUMP JUMPDEST DUP6 SWAP1 PUSH2 0x2EE2 JUMP JUMPDEST SWAP4 POP PUSH1 0x0 DUP8 PUSH1 0x60 ADD MLOAD PUSH1 0x0 EQ ISZERO PUSH2 0x2060 JUMPI POP DUP4 PUSH2 0x2082 JUMP JUMPDEST PUSH2 0x207F DUP9 PUSH1 0xA0 ADD MLOAD PUSH2 0x9DE DUP11 PUSH1 0x60 ADD MLOAD DUP9 PUSH2 0x18CA SWAP1 SWAP2 SWAP1 PUSH4 0xFFFFFFFF AND JUMP JUMPDEST SWAP1 POP JUMPDEST PUSH1 0xA0 DUP9 ADD MLOAD PUSH2 0x2091 SWAP1 DUP7 PUSH2 0x2EE2 JUMP JUMPDEST PUSH1 0xA0 DUP10 ADD MSTORE PUSH1 0x60 DUP9 ADD MLOAD PUSH2 0x20A5 SWAP1 DUP3 PUSH2 0x2EE2 JUMP JUMPDEST PUSH1 0x60 DUP10 ADD MSTORE PUSH1 0x40 DUP8 ADD MLOAD PUSH2 0x20B9 SWAP1 DUP3 PUSH2 0x2EE2 JUMP JUMPDEST PUSH1 0x40 DUP9 ADD MSTORE PUSH1 0x60 DUP8 ADD MLOAD DUP9 MLOAD DUP8 MLOAD PUSH1 0x80 DUP11 ADD MLOAD PUSH1 0x1 PUSH1 0x1 PUSH1 0xA0 SHL SUB SWAP4 DUP5 AND SWAP4 SWAP1 SWAP2 AND SWAP1 PUSH32 0x87D46C761BDD82B4A559098BEEB0D5B8FA8C0E2AA3607704FE0757618E85E24D SWAP1 PUSH2 0x2108 SWAP1 DUP10 PUSH2 0x2EE2 JUMP JUMPDEST DUP10 DUP7 PUSH1 0x40 MLOAD PUSH2 0x2119 SWAP4 SWAP3 SWAP2 SWAP1 PUSH2 0x4ECC JUMP JUMPDEST PUSH1 0x40 MLOAD DUP1 SWAP2 SUB SWAP1 LOG4 POP POP PUSH1 0x0 PUSH1 0x80 SWAP1 SWAP6 ADD SWAP5 SWAP1 SWAP5 MSTORE POP POP POP POP POP JUMP JUMPDEST PUSH2 0x213D PUSH2 0x464D JUMP JUMPDEST PUSH1 0x0 DUP1 PUSH1 0x0 PUSH2 0x1CA4 DUP6 PUSH2 0x3369 JUMP JUMPDEST PUSH1 0x0 DUP2 PUSH2 0x215A JUMPI POP PUSH1 0x0 PUSH2 0x1950 JUMP JUMPDEST PUSH1 0x0 DUP1 PUSH2 0x2167 DUP8 DUP6 PUSH2 0x156F JUMP JUMPDEST SWAP2 POP SWAP2 POP PUSH1 0x0 PUSH2 0x2186 DUP8 PUSH1 0x40 ADD MLOAD DUP9 PUSH1 0x0 ADD MLOAD DUP9 DUP6 DUP13 PUSH1 0x0 ADD MLOAD PUSH2 0x33EC JUMP JUMPDEST SWAP1 POP PUSH2 0x21AA PUSH2 0x2194 DUP5 PUSH2 0x13EC JUMP JUMPDEST PUSH2 0x160 DUP10 ADD MLOAD PUSH2 0x21A4 SWAP1 DUP5 PUSH2 0x1EE1 JUMP JUMPDEST SWAP1 PUSH2 0x1D4B JUMP JUMPDEST SWAP9 SWAP8 POP POP POP POP POP POP POP POP JUMP JUMPDEST DUP1 DUP3 SUB DUP3 DUP2 SGT ISZERO PUSH1 0x0 DUP4 SLT ISZERO EQ PUSH2 0xB55 JUMPI PUSH1 0x0 DUP1 REVERT JUMPDEST PUSH1 0x0 PUSH2 0xB52 PUSH2 0x21DF DUP5 PUSH4 0x3B9ACA00 PUSH2 0x1D61 JUMP JUMPDEST DUP4 PUSH2 0x236E JUMP JUMPDEST PUSH1 0x0 PUSH2 0xB52 PUSH2 0x21F4 DUP5 DUP5 PUSH2 0x1D61 JUMP JUMPDEST PUSH4 0x3B9ACA00 PUSH2 0x236E JUMP JUMPDEST PUSH2 0x2206 PUSH2 0x464D JUMP JUMPDEST PUSH1 0x0 DUP1 PUSH2 0x2213 DUP7 DUP7 PUSH2 0x34A6 JUMP JUMPDEST SWAP2 POP SWAP2 POP DUP2 PUSH1 0x0 EQ ISZERO PUSH2 0x2343 JUMPI PUSH1 0x0 PUSH2 0x222B DUP8 PUSH2 0x2FE2 JUMP JUMPDEST SWAP2 SWAP5 POP SWAP1 SWAP3 POP SWAP1 POP PUSH1 0x1 PUSH1 0x1 PUSH1 0xA0 SHL SUB DUP2 AND ISZERO PUSH2 0x2341 JUMPI PUSH1 0x0 PUSH2 0x224C PUSH2 0x34EF JUMP JUMPDEST SWAP1 POP DUP6 PUSH1 0x0 LT DUP1 ISZERO PUSH2 0x225E JUMPI POP DUP6 DUP8 GT ISZERO JUMPDEST DUP1 ISZERO PUSH2 0x226F JUMPI POP PUSH5 0xFFFFFFFFFF DUP7 GT ISZERO JUMPDEST PUSH2 0x2278 JUMPI PUSH1 0x0 DUP1 REVERT JUMPDEST DUP4 PUSH1 0x0 SLT DUP1 ISZERO PUSH2 0x228F JUMPI POP PUSH1 0x1 PUSH1 0x1 PUSH1 0x80 SHL SUB DUP5 SGT ISZERO JUMPDEST PUSH2 0x2298 JUMPI PUSH1 0x0 DUP1 REVERT JUMPDEST PUSH1 0x0 DUP9 DUP2 MSTORE PUSH1 0x20 DUP3 DUP2 MSTORE PUSH1 0x40 DUP1 DUP4 KECCAK256 DUP11 DUP5 MSTORE SWAP1 SWAP2 MSTORE SWAP1 DUP2 SWAP1 KECCAK256 DUP1 SLOAD PUSH5 0xFFFFFFFFFF NOT AND PUSH5 0xFFFFFFFFFF DUP10 AND OR PUSH21 0xFFFFFFFFFFFFFFFFFFFFFFFFFFFFFFFF0000000000 NOT AND PUSH6 0x10000000000 PUSH1 0x1 PUSH1 0x1 PUSH1 0x80 SHL SUB DUP9 AND MUL OR PUSH1 0xFF PUSH1 0xA8 SHL NOT AND PUSH1 0x1 PUSH1 0xA8 SHL PUSH1 0xFF DUP8 AND MUL OR DUP2 SSTORE SWAP1 MLOAD DUP9 SWAP1 DUP11 SWAP1 PUSH32 0xFDFA6885701E2F1F42E4187B9231CF81C1FE23671EF64FA46F34DDB56C1DC18 SWAP1 PUSH2 0x2336 SWAP1 DUP10 SWAP1 PUSH2 0x4E55 JUMP JUMPDEST PUSH1 0x40 MLOAD DUP1 SWAP2 SUB SWAP1 LOG3 POP POP JUMPDEST POP JUMPDEST PUSH1 0x40 DUP1 MLOAD PUSH1 0x60 DUP2 ADD DUP3 MSTORE PUSH1 0x0 DUP2 MSTORE PUSH1 0x20 DUP2 ADD SWAP4 SWAP1 SWAP4 MSTORE PUSH1 0xFF SWAP1 SWAP2 AND PUSH1 0xA EXP SWAP1 DUP3 ADD MSTORE SWAP1 POP SWAP4 SWAP3 POP POP POP JUMP JUMPDEST PUSH1 0x0 DUP2 PUSH1 0x0 NOT EQ DUP1 ISZERO PUSH2 0x2384 JUMPI POP PUSH1 0x1 PUSH1 0xFF SHL DUP4 EQ JUMPDEST ISZERO PUSH2 0x238E JUMPI PUSH1 0x0 DUP1 REVERT JUMPDEST DUP2 DUP4 DUP2 PUSH2 0x2397 JUMPI INVALID JUMPDEST SDIV SWAP4 SWAP3 POP POP POP JUMP JUMPDEST PUSH1 0x0 DUP1 PUSH2 0x23C3 PUSH2 0x23BC PUSH2 0x23B5 DUP8 PUSH1 0x80 ADD MLOAD PUSH2 0x13EC JUMP JUMPDEST DUP7 SWAP1 PUSH2 0x1925 JUMP JUMPDEST DUP5 SWAP1 PUSH2 0x1D4B JUMP JUMPDEST SWAP1 POP PUSH2 0x23EE DUP7 PUSH1 0x0 ADD MLOAD PUSH2 0x21A4 PUSH2 0x23DD DUP9 PUSH1 0x60 ADD MLOAD PUSH2 0x13EC JUMP JUMPDEST PUSH2 0x1206 DUP6 PUSH2 0x1200 DUP13 PUSH1 0x40 ADD MLOAD PUSH2 0x13EC JUMP JUMPDEST SWAP2 POP PUSH1 0x0 DUP3 SLT ISZERO PUSH2 0x241B JUMPI PUSH2 0x2411 PUSH2 0x2406 DUP6 DUP5 PUSH2 0x1EE1 JUMP JUMPDEST PUSH1 0x80 DUP9 ADD MLOAD SWAP1 PUSH2 0x1D4B JUMP JUMPDEST PUSH1 0x80 DUP8 ADD MSTORE PUSH1 0x0 SWAP2 POP JUMPDEST POP SWAP5 SWAP4 POP POP POP POP JUMP JUMPDEST PUSH1 0x0 DUP1 PUSH1 0x0 PUSH2 0x2450 PUSH2 0x2443 DUP9 PUSH1 0x20 ADD MLOAD DUP9 PUSH2 0x1EE1 SWAP1 SWAP2 SWAP1 PUSH4 0xFFFFFFFF AND JUMP JUMPDEST PUSH2 0x21A4 DUP10 PUSH1 0x80 ADD MLOAD PUSH2 0x13EC JUMP JUMPDEST SWAP1 POP PUSH1 0x0 PUSH2 0x2462 DUP6 PUSH2 0x21A4 DUP10 DUP6 PUSH2 0x1925 JUMP JUMPDEST SWAP1 POP PUSH2 0x2482 PUSH2 0xE90 DUP3 PUSH2 0x1206 PUSH2 0x247B DUP13 PUSH1 0xA0 ADD MLOAD PUSH2 0x13EC JUMP JUMPDEST DUP11 SWAP1 PUSH2 0x1D61 JUMP JUMPDEST SWAP3 POP PUSH2 0x2492 DUP2 PUSH2 0x1206 DUP9 DUP6 PUSH2 0x1D61 JUMP JUMPDEST SWAP4 POP POP POP PUSH1 0x0 PUSH2 0x24A0 PUSH2 0x34FC JUMP JUMPDEST DUP9 MLOAD PUSH1 0x1 PUSH1 0x1 PUSH1 0xA0 SHL SUB AND PUSH1 0x0 SWAP1 DUP2 MSTORE PUSH1 0x20 SWAP2 DUP3 MSTORE PUSH1 0x40 DUP1 DUP3 KECCAK256 DUP11 MLOAD DUP4 MSTORE SWAP1 SWAP3 MSTORE KECCAK256 DUP1 SLOAD SWAP1 SWAP2 POP PUSH1 0x1 PUSH1 0x1 PUSH1 0x50 SHL SUB DUP2 AND SWAP1 PUSH1 0x1 PUSH1 0x50 SHL SWAP1 DIV PUSH1 0x9 SWAP1 DUP2 SIGNEXTEND SWAP1 SIGNEXTEND DUP4 DUP3 LT ISZERO PUSH2 0x2524 JUMPI PUSH2 0x2517 PUSH2 0x2510 PUSH2 0x2509 PUSH4 0x5F5E100 PUSH2 0x1206 DUP14 PUSH1 0xC0 ADD MLOAD PUSH2 0x1200 DUP9 DUP12 SUB PUSH2 0x13EC JUMP JUMPDEST DUP11 SWAP1 PUSH2 0x1EE1 JUMP JUMPDEST DUP7 SWAP1 PUSH2 0x1D4B JUMP JUMPDEST SWAP5 POP SWAP1 SWAP3 POP PUSH1 0x0 SWAP1 PUSH2 0x252A JUMP JUMPDEST DUP4 DUP3 SUB SWAP2 POP JUMPDEST DUP3 SLOAD PUSH1 0x1 PUSH1 0x1 PUSH1 0x50 SHL SUB NOT AND PUSH1 0x1 PUSH1 0x1 PUSH1 0x50 SHL SUB DUP4 AND OR DUP4 SSTORE PUSH1 0x0 DUP6 SLT ISZERO PUSH2 0x2551 JUMPI PUSH1 0x0 DUP1 REVERT JUMPDEST DUP5 DUP2 SLT ISZERO PUSH2 0x25BF JUMPI PUSH1 0x0 DUP1 DUP3 SGT PUSH2 0x2568 JUMPI DUP6 PUSH2 0x256C JUMP JUMPDEST DUP2 DUP7 SUB JUMPDEST SWAP1 POP PUSH1 0x0 PUSH2 0x2583 DUP13 PUSH1 0x0 ADD MLOAD DUP14 PUSH1 0x40 ADD MLOAD DUP5 PUSH2 0x3509 JUMP JUMPDEST SWAP1 POP PUSH1 0x0 DUP4 SGT ISZERO PUSH2 0x25B4 JUMPI PUSH2 0x2598 DUP4 DUP3 PUSH2 0x1D4B JUMP JUMPDEST DUP6 SLOAD PUSH1 0x1 PUSH1 0x50 SHL PUSH1 0x1 PUSH1 0xA0 SHL SUB NOT AND DUP7 SSTORE SWAP7 POP PUSH1 0x0 SWAP3 POP PUSH2 0x25B8 JUMP JUMPDEST DUP1 SWAP7 POP JUMPDEST POP POP PUSH2 0x25FE JUMP JUMPDEST PUSH2 0x25C9 DUP2 DUP7 PUSH2 0x21B6 JUMP JUMPDEST SWAP1 POP PUSH2 0x25D4 DUP2 PUSH2 0x362E JUMP JUMPDEST DUP4 SLOAD PUSH1 0x9 SWAP2 SWAP1 SWAP2 SIGNEXTEND PUSH1 0x1 PUSH1 0x1 PUSH1 0x50 SHL SUB AND PUSH1 0x1 PUSH1 0x50 SHL MUL PUSH1 0x1 PUSH1 0x50 SHL PUSH1 0x1 PUSH1 0xA0 SHL SUB NOT SWAP1 SWAP2 AND OR DUP4 SSTORE JUMPDEST DUP9 PUSH1 0x0 ADD MLOAD DUP11 PUSH1 0x0 ADD MLOAD PUSH1 0x1 PUSH1 0x1 PUSH1 0xA0 SHL SUB AND PUSH32 0xF5B347A56F0B5140F05EEC05FF743978670A56685689FDC2C3193D71CFAC31A9 DUP4 DUP6 PUSH1 0x40 MLOAD PUSH2 0x2642 SWAP3 SWAP2 SWAP1 PUSH2 0x4A67 JUMP JUMPDEST PUSH1 0x40 MLOAD DUP1 SWAP2 SUB SWAP1 LOG3 POP POP POP SWAP6 POP SWAP6 SWAP4 POP POP POP POP JUMP JUMPDEST PUSH1 0x0 PUSH4 0x5F5E100 DUP4 PUSH1 0x40 ADD MLOAD EQ ISZERO PUSH2 0x2670 JUMPI POP DUP1 PUSH2 0xB55 JUMP JUMPDEST PUSH2 0xB52 PUSH4 0x5F5E100 PUSH2 0x1206 DUP6 PUSH1 0x40 ADD MLOAD DUP6 PUSH2 0x1D61 SWAP1 SWAP2 SWAP1 PUSH4 0xFFFFFFFF AND JUMP JUMPDEST DUP1 PUSH1 0x5 DUP6 PUSH1 0x60 ADD MLOAD PUSH1 0x5 DUP2 GT ISZERO PUSH2 0x26A2 JUMPI INVALID JUMPDEST EQ ISZERO PUSH2 0x26C7 JUMPI PUSH1 0x0 PUSH2 0x26B3 DUP5 PUSH2 0x2AF5 JUMP JUMPDEST SWAP1 POP PUSH2 0x26C3 DUP2 PUSH1 0x0 ADD MLOAD DUP5 PUSH2 0x2F46 JUMP JUMPDEST SWAP3 POP POP JUMPDEST PUSH1 0x0 DUP3 SGT ISZERO PUSH2 0x26F3 JUMPI PUSH1 0x0 PUSH2 0x26DD DUP7 DUP7 DUP6 PUSH2 0x365E JUMP JUMPDEST SWAP1 POP DUP6 PUSH1 0x20 ADD MLOAD ISZERO PUSH2 0x26ED JUMPI DUP1 SWAP2 POP JUMPDEST POP PUSH2 0x1950 JUMP JUMPDEST PUSH1 0x3 DUP6 PUSH1 0x60 ADD MLOAD PUSH1 0x5 DUP2 GT ISZERO PUSH2 0x2705 JUMPI INVALID JUMPDEST EQ ISZERO PUSH2 0x2722 JUMPI PUSH2 0x271D DUP5 PUSH2 0x2718 DUP5 PUSH2 0xD99 JUMP JUMPDEST PUSH2 0x2B08 JUMP JUMPDEST PUSH2 0x1950 JUMP JUMPDEST DUP5 MLOAD PUSH2 0x1950 SWAP1 DUP6 PUSH2 0x2732 DUP6 PUSH2 0xD99 JUMP JUMPDEST PUSH2 0x374C JUMP JUMPDEST PUSH1 0x0 DUP1 PUSH1 0x2 DUP7 PUSH1 0x60 ADD MLOAD PUSH1 0x5 DUP2 GT ISZERO PUSH2 0x274C JUMPI INVALID JUMPDEST EQ ISZERO PUSH2 0x2764 JUMPI PUSH2 0x275D DUP7 DUP6 DUP6 PUSH2 0x37C3 JUMP JUMPDEST SWAP1 POP PUSH2 0x27C1 JUMP JUMPDEST PUSH1 0x0 PUSH2 0x276F DUP7 PUSH2 0x2AF5 JUMP JUMPDEST SWAP1 POP PUSH1 0x5 DUP8 PUSH1 0x60 ADD MLOAD PUSH1 0x5 DUP2 GT ISZERO PUSH2 0x2783 JUMPI INVALID JUMPDEST EQ ISZERO PUSH2 0x279B JUMPI PUSH2 0x2794 DUP2 DUP7 DUP7 PUSH2 0x3880 JUMP JUMPDEST SWAP2 POP PUSH2 0x27BF JUMP JUMPDEST PUSH1 0x1 DUP8 PUSH1 0x60 ADD MLOAD PUSH1 0x5 DUP2 GT ISZERO PUSH2 0x27AD JUMPI INVALID JUMPDEST EQ ISZERO PUSH2 0x9C JUMPI PUSH2 0x2794 DUP8 DUP3 DUP8 DUP8 PUSH2 0x3929 JUMP JUMPDEST POP JUMPDEST PUSH2 0x27CD PUSH2 0xE11 DUP3 PUSH2 0x13EC JUMP JUMPDEST SWAP7 SWAP6 POP POP POP POP POP POP JUMP JUMPDEST PUSH1 0x0 DUP1 PUSH2 0x27EB DUP7 PUSH1 0x40 ADD MLOAD PUSH2 0xFFFF AND PUSH2 0x17D5 JUMP JUMPDEST SWAP1 POP PUSH1 0x0 PUSH1 0x4 DUP3 PUSH1 0x60 ADD MLOAD PUSH1 0x5 DUP2 GT ISZERO PUSH2 0x2801 JUMPI INVALID JUMPDEST EQ PUSH2 0x281C JUMPI PUSH2 0x2817 DUP8 PUSH1 0x40 ADD MLOAD PUSH2 0xFFFF AND PUSH2 0x2AF5 JUMP JUMPDEST PUSH2 0x281E JUMP JUMPDEST DUP2 JUMPDEST SWAP1 POP PUSH1 0x0 DUP1 DUP8 PUSH1 0x80 ADD MLOAD SLT ISZERO PUSH2 0x2891 JUMPI PUSH1 0x4 DUP4 PUSH1 0x60 ADD MLOAD PUSH1 0x5 DUP2 GT ISZERO PUSH2 0x2840 JUMPI INVALID JUMPDEST EQ ISZERO PUSH2 0x285D JUMPI PUSH2 0x2856 PUSH2 0xE90 DUP9 PUSH1 0x80 ADD MLOAD PUSH2 0xD99 JUMP JUMPDEST SWAP1 POP PUSH2 0x2891 JUMP JUMPDEST PUSH1 0x0 PUSH2 0x287E PUSH2 0xE11 DUP10 PUSH1 0x80 ADD MLOAD DUP12 PUSH2 0x160 ADD MLOAD PUSH2 0x1925 SWAP1 SWAP2 SWAP1 PUSH4 0xFFFFFFFF AND JUMP JUMPDEST SWAP1 POP PUSH2 0x288D PUSH2 0xE90 DUP5 DUP4 PUSH2 0x3A27 JUMP JUMPDEST SWAP2 POP POP JUMPDEST PUSH1 0x40 DUP8 ADD MLOAD PUSH1 0x0 SWAP1 ISZERO PUSH2 0x2950 JUMPI PUSH1 0x0 PUSH2 0x28AA DUP5 ADDRESS PUSH2 0x2B3E JUMP JUMPDEST SWAP1 POP DUP10 PUSH1 0x0 ADD MLOAD PUSH1 0x1 PUSH1 0x1 PUSH1 0xA0 SHL SUB AND PUSH4 0x44F05108 DUP11 PUSH1 0x0 ADD MLOAD DUP12 PUSH1 0x20 ADD MLOAD DUP13 PUSH1 0x40 ADD MLOAD DUP14 PUSH1 0x60 ADD MLOAD DUP9 DUP15 DUP15 PUSH1 0x40 MLOAD DUP9 PUSH4 0xFFFFFFFF AND PUSH1 0xE0 SHL DUP2 MSTORE PUSH1 0x4 ADD PUSH2 0x28F8 SWAP8 SWAP7 SWAP6 SWAP5 SWAP4 SWAP3 SWAP2 SWAP1 PUSH2 0x4976 JUMP JUMPDEST PUSH1 0x0 PUSH1 0x40 MLOAD DUP1 DUP4 SUB DUP2 PUSH1 0x0 DUP8 DUP1 EXTCODESIZE ISZERO DUP1 ISZERO PUSH2 0x2912 JUMPI PUSH1 0x0 DUP1 REVERT JUMPDEST POP GAS CALL ISZERO DUP1 ISZERO PUSH2 0x2926 JUMPI RETURNDATASIZE PUSH1 0x0 DUP1 RETURNDATACOPY RETURNDATASIZE PUSH1 0x0 REVERT JUMPDEST POP POP POP POP PUSH1 0x0 PUSH2 0x293F ADDRESS DUP7 PUSH2 0x2B3E SWAP1 SWAP2 SWAP1 PUSH4 0xFFFFFFFF AND JUMP JUMPDEST SWAP1 POP PUSH2 0x294B DUP2 DUP4 PUSH2 0x1910 JUMP JUMPDEST SWAP3 POP POP POP JUMPDEST DUP2 DUP2 LT ISZERO PUSH2 0x29EB JUMPI DUP1 DUP3 SUB PUSH1 0x3 DUP5 PUSH1 0x60 ADD MLOAD PUSH1 0x5 DUP2 GT ISZERO PUSH2 0x296D JUMPI INVALID JUMPDEST EQ ISZERO PUSH2 0x29AB JUMPI CALLVALUE DUP2 GT ISZERO PUSH2 0x2993 JUMPI PUSH1 0x40 MLOAD PUSH3 0x461BCD PUSH1 0xE5 SHL DUP2 MSTORE PUSH1 0x4 ADD PUSH2 0x23E SWAP1 PUSH2 0x4B40 JUMP JUMPDEST PUSH2 0x29A3 DUP10 PUSH1 0x0 ADD MLOAD DUP3 CALLVALUE SUB PUSH2 0x2B08 JUMP JUMPDEST DUP3 SWAP2 POP PUSH2 0x29E9 JUMP JUMPDEST PUSH1 0x0 PUSH2 0x29D0 DUP11 PUSH1 0x0 ADD MLOAD DUP13 PUSH1 0x40 ADD MLOAD PUSH2 0xFFFF AND PUSH2 0x29C7 DUP6 PUSH2 0x13EC JUMP JUMPDEST DUP9 SWAP3 SWAP2 SWAP1 PUSH2 0x268F JUMP JUMPDEST SWAP1 POP PUSH2 0x29E5 PUSH2 0x29DE DUP3 PUSH2 0x18BB JUMP JUMPDEST DUP5 SWAP1 PUSH2 0x2EE2 JUMP JUMPDEST SWAP3 POP POP JUMPDEST POP JUMPDEST DUP2 DUP2 LT ISZERO PUSH2 0x2A0B JUMPI PUSH1 0x40 MLOAD PUSH3 0x461BCD PUSH1 0xE5 SHL DUP2 MSTORE PUSH1 0x4 ADD PUSH2 0x23E SWAP1 PUSH2 0x4B40 JUMP JUMPDEST PUSH1 0x0 PUSH1 0x4 DUP6 PUSH1 0x60 ADD MLOAD PUSH1 0x5 DUP2 GT ISZERO PUSH2 0x2A1F JUMPI INVALID JUMPDEST EQ PUSH2 0x2A3A JUMPI PUSH1 0x40 DUP11 ADD MLOAD PUSH2 0x2A35 SWAP1 DUP7 SWAP1 DUP5 PUSH2 0x3A5C JUMP JUMPDEST PUSH2 0x2A43 JUMP JUMPDEST PUSH2 0x2A43 DUP3 PUSH2 0x13EC JUMP JUMPDEST SWAP1 POP PUSH2 0x2A4F DUP6 DUP3 PUSH2 0x2DAC JUMP JUMPDEST SWAP11 SWAP10 POP POP POP POP POP POP POP POP POP POP JUMP JUMPDEST PUSH1 0x0 PUSH4 0xFFFFFFFF DUP3 GT ISZERO PUSH2 0x1402 JUMPI PUSH1 0x0 DUP1 REVERT JUMPDEST PUSH1 0x0 PUSH3 0xF4240 DUP3 PUSH1 0x1A DUP2 GT ISZERO PUSH2 0x2A82 JUMPI INVALID JUMPDEST ADD SWAP3 SWAP2 POP POP JUMP JUMPDEST PUSH1 0x0 DUP1 PUSH1 0x0 DUP1 PUSH1 0x0 DUP1 PUSH2 0x2A9A PUSH2 0x3B43 JUMP JUMPDEST PUSH1 0x1 PUSH1 0x1 PUSH1 0xA0 SHL SUB SWAP1 SWAP8 AND PUSH1 0x0 SWAP1 DUP2 MSTORE PUSH1 0x20 SWAP8 SWAP1 SWAP8 MSTORE POP POP PUSH1 0x40 SWAP1 SWAP5 KECCAK256 SLOAD PUSH2 0xFFFF DUP2 AND SWAP6 PUSH4 0xFFFFFFFF PUSH3 0x10000 DUP4 DIV DUP2 AND SWAP7 POP PUSH7 0x1000000000000 DUP4 DIV AND SWAP5 POP PUSH1 0xFF PUSH1 0x1 PUSH1 0x50 SHL DUP4 DIV AND SWAP4 POP PUSH1 0x1 PUSH1 0x58 SHL SWAP1 SWAP2 DIV PUSH1 0xD8 SHL SWAP2 POP JUMP JUMPDEST PUSH2 0x2AFD PUSH2 0x461E JUMP JUMPDEST PUSH2 0xDA7 DUP3 PUSH1 0x1 PUSH2 0x2C77 JUMP JUMPDEST PUSH1 0x40 MLOAD PUSH1 0x1 PUSH1 0x1 PUSH1 0xA0 SHL SUB DUP4 AND SWAP1 DUP3 ISZERO PUSH2 0x8FC MUL SWAP1 DUP4 SWAP1 PUSH1 0x0 DUP2 DUP2 DUP2 DUP6 DUP9 DUP9 CALL SWAP4 POP POP POP POP ISZERO DUP1 ISZERO PUSH2 0xC07 JUMPI RETURNDATASIZE PUSH1 0x0 DUP1 RETURNDATACOPY RETURNDATASIZE PUSH1 0x0 REVERT JUMPDEST PUSH1 0x0 PUSH1 0x3 DUP4 PUSH1 0x60 ADD MLOAD PUSH1 0x5 DUP2 GT ISZERO PUSH2 0x2B52 JUMPI INVALID JUMPDEST EQ ISZERO PUSH2 0x2B69 JUMPI POP PUSH1 0x1 PUSH1 0x1 PUSH1 0xA0 SHL SUB DUP2 AND BALANCE PUSH2 0xB55 JUMP JUMPDEST DUP3 MLOAD PUSH1 0x40 MLOAD PUSH4 0x70A08231 PUSH1 0xE0 SHL DUP2 MSTORE PUSH1 0x1 PUSH1 0x1 PUSH1 0xA0 SHL SUB SWAP1 SWAP2 AND SWAP1 PUSH4 0x70A08231 SWAP1 PUSH2 0x2B98 SWAP1 DUP6 SWAP1 PUSH1 0x4 ADD PUSH2 0x4962 JUMP JUMPDEST PUSH1 0x20 PUSH1 0x40 MLOAD DUP1 DUP4 SUB DUP2 DUP7 DUP1 EXTCODESIZE ISZERO DUP1 ISZERO PUSH2 0x2BB0 JUMPI PUSH1 0x0 DUP1 REVERT JUMPDEST POP GAS STATICCALL ISZERO DUP1 ISZERO PUSH2 0x2BC4 JUMPI RETURNDATASIZE PUSH1 0x0 DUP1 RETURNDATACOPY RETURNDATASIZE PUSH1 0x0 REVERT JUMPDEST POP POP POP POP PUSH1 0x40 MLOAD RETURNDATASIZE PUSH1 0x1F NOT PUSH1 0x1F DUP3 ADD AND DUP3 ADD DUP1 PUSH1 0x40 MSTORE POP DUP2 ADD SWAP1 PUSH2 0x2BE8 SWAP2 SWAP1 PUSH2 0x4920 JUMP JUMPDEST SWAP1 POP PUSH2 0xB55 JUMP JUMPDEST DUP4 PUSH1 0x1 PUSH1 0x1 PUSH1 0xA0 SHL SUB AND PUSH4 0x23B872DD DUP5 DUP5 DUP5 PUSH1 0x40 MLOAD DUP5 PUSH4 0xFFFFFFFF AND PUSH1 0xE0 SHL DUP2 MSTORE PUSH1 0x4 ADD DUP1 DUP5 PUSH1 0x1 PUSH1 0x1 PUSH1 0xA0 SHL SUB AND DUP2 MSTORE PUSH1 0x20 ADD DUP4 PUSH1 0x1 PUSH1 0x1 PUSH1 0xA0 SHL SUB AND DUP2 MSTORE PUSH1 0x20 ADD DUP3 DUP2 MSTORE PUSH1 0x20 ADD SWAP4 POP POP POP POP PUSH1 0x0 PUSH1 0x40 MLOAD DUP1 DUP4 SUB DUP2 PUSH1 0x0 DUP8 DUP1 EXTCODESIZE ISZERO DUP1 ISZERO PUSH2 0x2C57 JUMPI PUSH1 0x0 DUP1 REVERT JUMPDEST POP GAS CALL ISZERO DUP1 ISZERO PUSH2 0x2C6B JUMPI RETURNDATASIZE PUSH1 0x0 DUP1 RETURNDATACOPY RETURNDATASIZE PUSH1 0x0 REVERT JUMPDEST POP POP POP POP PUSH2 0x1448 PUSH2 0x3B50 JUMP JUMPDEST PUSH2 0x2C7F PUSH2 0x461E JUMP JUMPDEST PUSH1 0x0 PUSH2 0x2C89 PUSH2 0x3BBD JUMP JUMPDEST PUSH1 0x0 DUP6 DUP2 MSTORE PUSH1 0x20 DUP3 DUP2 MSTORE PUSH1 0x40 DUP1 DUP4 KECCAK256 DUP8 ISZERO ISZERO DUP5 MSTORE DUP3 MSTORE SWAP2 DUP3 SWAP1 KECCAK256 DUP3 MLOAD PUSH1 0xA0 DUP2 ADD DUP5 MSTORE DUP2 SLOAD PUSH1 0x1 PUSH1 0x1 PUSH1 0xA0 SHL SUB DUP2 AND DUP3 MSTORE PUSH1 0xFF PUSH1 0x1 PUSH1 0xA0 SHL DUP3 DIV DUP2 AND ISZERO ISZERO SWAP5 DUP4 ADD SWAP5 SWAP1 SWAP5 MSTORE PUSH1 0x1 PUSH1 0xB0 SHL DUP2 DIV DUP5 AND PUSH1 0xA EXP SWAP5 DUP3 ADD SWAP5 SWAP1 SWAP5 MSTORE SWAP4 SWAP5 POP SWAP3 SWAP2 PUSH1 0x60 DUP4 ADD SWAP2 PUSH1 0x1 PUSH1 0xA8 SHL SWAP1 SWAP2 DIV AND PUSH1 0x5 DUP2 GT ISZERO PUSH2 0x2CFE JUMPI INVALID JUMPDEST DUP2 MSTORE SWAP2 SLOAD PUSH1 0x1 PUSH1 0xB8 SHL SWAP1 DIV PUSH9 0xFFFFFFFFFFFFFFFFFF AND PUSH1 0x20 SWAP1 SWAP3 ADD SWAP2 SWAP1 SWAP2 MSTORE SWAP5 SWAP4 POP POP POP POP JUMP JUMPDEST PUSH1 0x0 DUP2 PUSH2 0x2D34 JUMPI POP PUSH1 0x0 PUSH2 0xB55 JUMP JUMPDEST PUSH1 0x0 DUP3 SGT PUSH2 0x2D41 JUMPI PUSH1 0x0 DUP1 REVERT JUMPDEST PUSH1 0x0 PUSH2 0x2D4C DUP5 PUSH2 0x2AF5 JUMP JUMPDEST SWAP1 POP PUSH1 0x0 PUSH2 0x2D5D DUP3 PUSH1 0x0 ADD MLOAD PUSH2 0x3BCA JUMP JUMPDEST SWAP1 POP PUSH1 0x2 DUP2 SDIV PUSH12 0x33B2E3C9FD0803CE8000000 PUSH1 0x1 PUSH1 0x1 PUSH1 0xFF SHL SUB DUP3 SWAP1 SUB SDIV DUP6 SGT ISZERO PUSH2 0x2D88 JUMPI PUSH1 0x0 DUP1 REVERT JUMPDEST DUP2 DUP2 PUSH12 0x33B2E3C9FD0803CE8000000 DUP8 MUL ADD DUP2 PUSH2 0x2DA1 JUMPI INVALID JUMPDEST SDIV SWAP7 SWAP6 POP POP POP POP POP POP JUMP JUMPDEST PUSH1 0x0 PUSH4 0x5F5E100 DUP4 PUSH1 0x40 ADD MLOAD EQ ISZERO PUSH2 0x2DC5 JUMPI POP DUP1 PUSH2 0xB55 JUMP JUMPDEST PUSH1 0x40 DUP4 ADD MLOAD PUSH2 0xB52 SWAP1 PUSH2 0x1206 DUP5 PUSH4 0x5F5E100 PUSH2 0x1D61 JUMP JUMPDEST PUSH1 0x0 DUP1 PUSH2 0x2DE7 PUSH2 0x3C55 JUMP JUMPDEST PUSH1 0x1 PUSH1 0x1 PUSH1 0xA0 SHL SUB DUP7 AND PUSH1 0x0 SWAP1 DUP2 MSTORE PUSH1 0x20 SWAP2 DUP3 MSTORE PUSH1 0x40 DUP1 DUP3 KECCAK256 PUSH2 0xFFFF DUP9 AND DUP4 MSTORE SWAP1 SWAP3 MSTORE KECCAK256 DUP1 SLOAD SWAP1 SWAP2 POP PUSH2 0x2E2A SWAP1 PUSH1 0x1 PUSH1 0x50 SHL SWAP1 DIV PUSH1 0x1 PUSH1 0x1 PUSH1 0x50 SHL SUB AND DUP5 PUSH2 0x21B6 JUMP JUMPDEST SWAP2 POP PUSH1 0x0 DUP4 SLT ISZERO PUSH2 0x2E5F JUMPI DUP1 SLOAD PUSH1 0x1 PUSH1 0x1 PUSH1 0x50 SHL SUB AND DUP3 SGT ISZERO PUSH2 0x2E5F JUMPI PUSH1 0x40 MLOAD PUSH3 0x461BCD PUSH1 0xE5 SHL DUP2 MSTORE PUSH1 0x4 ADD PUSH2 0x23E SWAP1 PUSH2 0x4BC6 JUMP JUMPDEST PUSH2 0x2E6B PUSH2 0xE95 DUP4 PUSH2 0x18BB JUMP JUMPDEST DUP2 SLOAD PUSH1 0x1 PUSH1 0x1 PUSH1 0x50 SHL SUB SWAP2 SWAP1 SWAP2 AND PUSH1 0x1 PUSH1 0x50 SHL MUL PUSH1 0x1 PUSH1 0x50 SHL PUSH1 0x1 PUSH1 0xA0 SHL SUB NOT SWAP1 SWAP2 AND OR DUP2 SSTORE PUSH1 0x40 MLOAD PUSH2 0xFFFF DUP6 AND SWAP1 PUSH1 0x1 PUSH1 0x1 PUSH1 0xA0 SHL SUB DUP8 AND SWAP1 PUSH32 0x20478EF460E49D010960D4F3FFF35D8DAE385443ABFAC09035D6A2CCBCD834C4 SWAP1 PUSH2 0x2ED2 SWAP1 DUP7 SWAP1 PUSH2 0x4A5E JUMP JUMPDEST PUSH1 0x40 MLOAD DUP1 SWAP2 SUB SWAP1 LOG3 POP SWAP4 SWAP3 POP POP POP JUMP JUMPDEST PUSH1 0x0 DUP3 DUP3 ADD DUP4 DUP2 LT ISZERO PUSH2 0xB52 JUMPI PUSH1 0x0 DUP1 REVERT JUMPDEST PUSH1 0x0 PUSH2 0x2F3B DUP8 PUSH1 0x40 MLOAD DUP1 PUSH1 0xA0 ADD PUSH1 0x40 MSTORE DUP1 DUP10 PUSH1 0x1 PUSH1 0x1 PUSH1 0xA0 SHL SUB AND DUP2 MSTORE PUSH1 0x20 ADD DUP10 PUSH1 0x1 PUSH1 0x1 PUSH1 0xA0 SHL SUB AND DUP2 MSTORE PUSH1 0x20 ADD DUP9 DUP2 MSTORE PUSH1 0x20 ADD DUP8 DUP2 MSTORE PUSH1 0x20 ADD PUSH1 0x0 DUP2 MSTORE POP DUP6 DUP6 PUSH2 0x27D7 JUMP JUMPDEST SWAP8 SWAP7 POP POP POP POP POP POP POP JUMP JUMPDEST PUSH1 0x0 DUP2 PUSH2 0x2F55 JUMPI POP PUSH1 0x0 PUSH2 0xB55 JUMP JUMPDEST PUSH1 0x0 PUSH2 0x2F60 DUP5 PUSH2 0x3BCA JUMP JUMPDEST SWAP1 POP PUSH1 0x0 PUSH2 0x2F6D DUP5 PUSH2 0x3183 JUMP JUMPDEST SWAP1 POP DUP2 PUSH12 0x19D971E4FE8401E74000001 PUSH1 0x1 PUSH1 0xFF SHL SUB DUP2 PUSH2 0x2F8A JUMPI INVALID JUMPDEST SDIV DUP2 SGT ISZERO PUSH2 0x2F97 JUMPI PUSH1 0x0 DUP1 REVERT JUMPDEST PUSH12 0x33B2E3C9FD0803CE8000000 PUSH12 0x19D971E4FE8401E74000000 DUP4 DUP4 MUL ADD SDIV PUSH1 0x0 DUP6 SGT PUSH2 0x2FCC JUMPI PUSH2 0x2FC7 DUP2 PUSH2 0xD99 JUMP JUMPDEST PUSH2 0x27CD JUMP JUMPDEST SWAP6 SWAP5 POP POP POP POP POP JUMP JUMPDEST PUSH1 0x0 DUP1 PUSH2 0xB55 PUSH1 0x14 PUSH2 0x2A70 JUMP JUMPDEST PUSH1 0x0 DUP1 PUSH1 0x0 DUP1 PUSH1 0x0 PUSH2 0x2FF3 DUP7 PUSH2 0x3C62 JUMP JUMPDEST SWAP1 SWAP3 POP SWAP1 POP PUSH1 0x0 PUSH1 0x1 PUSH1 0x1 PUSH1 0xA0 SHL SUB DUP4 AND PUSH2 0x3018 JUMPI POP PUSH1 0x0 SWAP1 POP PUSH5 0x2540BE400 PUSH2 0x309A JUMP JUMPDEST DUP3 PUSH1 0x1 PUSH1 0x1 PUSH1 0xA0 SHL SUB AND PUSH4 0x1EE10833 PUSH1 0x40 MLOAD DUP2 PUSH4 0xFFFFFFFF AND PUSH1 0xE0 SHL DUP2 MSTORE PUSH1 0x4 ADD PUSH1 0x20 PUSH1 0x40 MLOAD DUP1 DUP4 SUB DUP2 PUSH1 0x0 DUP8 DUP1 EXTCODESIZE ISZERO DUP1 ISZERO PUSH2 0x3053 JUMPI PUSH1 0x0 DUP1 REVERT JUMPDEST POP GAS CALL ISZERO DUP1 ISZERO PUSH2 0x3067 JUMPI RETURNDATASIZE PUSH1 0x0 DUP1 RETURNDATACOPY RETURNDATASIZE PUSH1 0x0 REVERT JUMPDEST POP POP POP POP PUSH1 0x40 MLOAD RETURNDATASIZE PUSH1 0x1F NOT PUSH1 0x1F DUP3 ADD AND DUP3 ADD DUP1 PUSH1 0x40 MSTORE POP DUP2 ADD SWAP1 PUSH2 0x308B SWAP2 SWAP1 PUSH2 0x4920 JUMP JUMPDEST SWAP1 POP PUSH1 0x0 DUP2 SGT PUSH2 0x309A JUMPI PUSH1 0x0 DUP1 REVERT JUMPDEST SWAP7 SWAP2 SWAP6 POP SWAP4 POP SWAP2 POP POP JUMP JUMPDEST PUSH1 0x0 DUP1 PUSH2 0x30B1 DUP4 PUSH2 0x3C99 JUMP JUMPDEST PUSH1 0xFF AND SWAP4 SWAP3 POP POP POP JUMP JUMPDEST PUSH1 0x0 DUP1 PUSH1 0x0 DUP6 GT PUSH2 0x30DE JUMPI PUSH1 0x40 MLOAD PUSH3 0x461BCD PUSH1 0xE5 SHL DUP2 MSTORE PUSH1 0x4 ADD PUSH2 0x23E SWAP1 PUSH2 0x4B70 JUMP JUMPDEST PUSH1 0x7 DUP6 GT ISZERO PUSH2 0x30FF JUMPI PUSH1 0x40 MLOAD PUSH3 0x461BCD PUSH1 0xE5 SHL DUP2 MSTORE PUSH1 0x4 ADD PUSH2 0x23E SWAP1 PUSH2 0x4C11 JUMP JUMPDEST PUSH1 0x0 PUSH2 0x310A DUP5 PUSH2 0x3CB6 JUMP JUMPDEST SWAP1 POP PUSH1 0x1 JUMPDEST DUP7 DUP2 GT PUSH2 0x3162 JUMPI PUSH1 0x0 PUSH2 0x312B PUSH2 0x3124 DUP4 PUSH2 0x3CD4 JUMP JUMPDEST DUP5 SWAP1 PUSH2 0x3D78 JUMP JUMPDEST SWAP1 POP DUP7 DUP2 EQ ISZERO PUSH2 0x3143 JUMPI POP SWAP3 POP PUSH1 0x0 SWAP2 POP PUSH2 0x317B SWAP1 POP JUMP JUMPDEST DUP7 DUP2 GT ISZERO PUSH2 0x3159 JUMPI POP SWAP3 POP PUSH1 0x1 SWAP2 POP PUSH2 0x317B SWAP1 POP JUMP JUMPDEST POP PUSH1 0x1 ADD PUSH2 0x310F JUMP JUMPDEST POP PUSH1 0x40 MLOAD PUSH3 0x461BCD PUSH1 0xE5 SHL DUP2 MSTORE PUSH1 0x4 ADD PUSH2 0x23E SWAP1 PUSH2 0x4D70 JUMP JUMPDEST SWAP4 POP SWAP4 SWAP2 POP POP JUMP JUMPDEST PUSH1 0x0 DUP1 DUP3 SLT ISZERO PUSH2 0x319D JUMPI PUSH2 0x3196 DUP3 PUSH2 0xD99 JUMP JUMPDEST SWAP1 POP PUSH2 0xDAA JUMP JUMPDEST POP DUP1 PUSH2 0xDAA JUMP JUMPDEST PUSH1 0x0 DUP3 SGT ISZERO PUSH2 0x31B2 JUMPI PUSH1 0x0 DUP1 REVERT JUMPDEST PUSH1 0x0 PUSH2 0x31D3 PUSH4 0x1DA9C00 PUSH2 0x1206 PUSH2 0x31C8 DUP6 PUSH2 0x13EC JUMP JUMPDEST PUSH1 0x80 DUP10 ADD MLOAD SWAP1 PUSH2 0x1D61 JUMP JUMPDEST SWAP1 POP PUSH1 0x0 PUSH2 0x31ED PUSH2 0x1100 DUP4 PUSH2 0x31E7 DUP8 PUSH2 0xD99 JUMP JUMPDEST SWAP1 PUSH2 0x21E5 JUMP JUMPDEST SWAP1 POP PUSH1 0x0 PUSH2 0x320D PUSH1 0x64 PUSH2 0x1206 DUP10 PUSH1 0xE0 ADD MLOAD DUP6 PUSH2 0x1D61 SWAP1 SWAP2 SWAP1 PUSH4 0xFFFFFFFF AND JUMP JUMPDEST SWAP1 POP PUSH1 0x0 PUSH2 0x321B DUP4 DUP4 PUSH2 0x21B6 JUMP JUMPDEST SWAP1 POP PUSH2 0x322F DUP9 PUSH1 0x40 ADD MLOAD PUSH2 0xFFFF AND DUP4 PUSH2 0x3DD2 JUMP JUMPDEST PUSH2 0x3241 DUP9 PUSH1 0x40 ADD MLOAD PUSH2 0xFFFF AND DUP3 PUSH2 0x3E59 JUMP JUMPDEST PUSH1 0x80 DUP8 ADD MLOAD PUSH2 0x3250 SWAP1 DUP5 PUSH2 0x21B6 JUMP JUMPDEST DUP8 PUSH1 0x80 ADD DUP2 DUP2 MSTORE POP POP DUP8 PUSH1 0x40 ADD MLOAD PUSH2 0xFFFF AND DUP9 PUSH1 0x0 ADD MLOAD PUSH1 0x1 PUSH1 0x1 PUSH1 0xA0 SHL SUB AND PUSH32 0xC448297EDD1AECD55E8EAC1F504AEC5157AB848B2B64E0F8D4631357D90E35C2 DUP5 DUP5 PUSH1 0x40 MLOAD PUSH2 0x32A1 SWAP3 SWAP2 SWAP1 PUSH2 0x4A67 JUMP JUMPDEST PUSH1 0x40 MLOAD DUP1 SWAP2 SUB SWAP1 LOG3 POP POP POP POP POP POP POP POP JUMP JUMPDEST PUSH1 0x0 DUP1 PUSH2 0x32C9 DUP10 PUSH1 0x0 ADD MLOAD DUP11 PUSH1 0x40 ADD MLOAD DUP10 PUSH2 0x12D1 JUMP JUMPDEST DUP10 MLOAD SWAP1 SWAP2 POP PUSH1 0x1 PUSH1 0x1 PUSH1 0xA0 SHL SUB AND PUSH4 0xDC6679C5 DUP10 PUSH2 0x32E7 DUP5 DUP10 PUSH2 0x2EE2 JUMP JUMPDEST DUP10 DUP9 DUP9 PUSH1 0x40 MLOAD DUP7 PUSH4 0xFFFFFFFF AND PUSH1 0xE0 SHL DUP2 MSTORE PUSH1 0x4 ADD PUSH2 0x330A SWAP6 SWAP5 SWAP4 SWAP3 SWAP2 SWAP1 PUSH2 0x4A25 JUMP JUMPDEST PUSH1 0x20 PUSH1 0x40 MLOAD DUP1 DUP4 SUB DUP2 PUSH1 0x0 DUP8 DUP1 EXTCODESIZE ISZERO DUP1 ISZERO PUSH2 0x3324 JUMPI PUSH1 0x0 DUP1 REVERT JUMPDEST POP GAS CALL ISZERO DUP1 ISZERO PUSH2 0x3338 JUMPI RETURNDATASIZE PUSH1 0x0 DUP1 RETURNDATACOPY RETURNDATASIZE PUSH1 0x0 REVERT JUMPDEST POP POP POP POP PUSH1 0x40 MLOAD RETURNDATASIZE PUSH1 0x1F NOT PUSH1 0x1F DUP3 ADD AND DUP3 ADD DUP1 PUSH1 0x40 MSTORE POP DUP2 ADD SWAP1 PUSH2 0x335C SWAP2 SWAP1 PUSH2 0x4920 JUMP JUMPDEST SWAP10 SWAP9 POP POP POP POP POP POP POP POP POP JUMP JUMPDEST PUSH1 0x0 DUP1 PUSH1 0x0 DUP1 PUSH1 0x0 PUSH2 0x337A DUP7 PUSH2 0x3C62 JUMP JUMPDEST SWAP1 SWAP3 POP SWAP1 POP PUSH1 0x0 PUSH1 0x1 PUSH1 0x1 PUSH1 0xA0 SHL SUB DUP4 AND PUSH2 0x339F JUMPI POP PUSH1 0x0 SWAP1 POP PUSH5 0x2540BE400 PUSH2 0x309A JUMP JUMPDEST DUP3 PUSH1 0x1 PUSH1 0x1 PUSH1 0xA0 SHL SUB AND PUSH4 0xB2FFFB04 PUSH1 0x40 MLOAD DUP2 PUSH4 0xFFFFFFFF AND PUSH1 0xE0 SHL DUP2 MSTORE PUSH1 0x4 ADD PUSH1 0x20 PUSH1 0x40 MLOAD DUP1 DUP4 SUB DUP2 DUP7 DUP1 EXTCODESIZE ISZERO DUP1 ISZERO PUSH2 0x33D8 JUMPI PUSH1 0x0 DUP1 REVERT JUMPDEST POP GAS STATICCALL ISZERO DUP1 ISZERO PUSH2 0x3067 JUMPI RETURNDATASIZE PUSH1 0x0 DUP1 RETURNDATACOPY RETURNDATASIZE PUSH1 0x0 REVERT JUMPDEST PUSH1 0x0 DUP1 PUSH2 0x33FC DUP8 PUSH2 0xFFFF AND PUSH2 0x2AF5 JUMP JUMPDEST SWAP1 POP DUP1 PUSH1 0x40 ADD MLOAD PUSH1 0x0 EQ ISZERO PUSH2 0x341B JUMPI PUSH2 0x3418 DUP8 PUSH2 0xFFFF AND PUSH2 0x17D5 JUMP JUMPDEST SWAP1 POP JUMPDEST PUSH1 0x40 MLOAD PUSH4 0xE9377111 PUSH1 0xE0 SHL DUP2 MSTORE PUSH2 0x2F3B SWAP1 PUSH1 0x1 PUSH1 0x1 PUSH1 0xA0 SHL SUB DUP9 AND SWAP1 PUSH4 0xE9377111 SWAP1 PUSH2 0x344F SWAP1 DUP10 SWAP1 DUP10 SWAP1 DUP10 SWAP1 PUSH1 0x4 ADD PUSH2 0x4A04 JUMP JUMPDEST PUSH1 0x20 PUSH1 0x40 MLOAD DUP1 DUP4 SUB DUP2 DUP7 DUP1 EXTCODESIZE ISZERO DUP1 ISZERO PUSH2 0x3467 JUMPI PUSH1 0x0 DUP1 REVERT JUMPDEST POP GAS STATICCALL ISZERO DUP1 ISZERO PUSH2 0x347B JUMPI RETURNDATASIZE PUSH1 0x0 DUP1 RETURNDATACOPY RETURNDATASIZE PUSH1 0x0 REVERT JUMPDEST POP POP POP POP PUSH1 0x40 MLOAD RETURNDATASIZE PUSH1 0x1F NOT PUSH1 0x1F DUP3 ADD AND DUP3 ADD DUP1 PUSH1 0x40 MSTORE POP DUP2 ADD SWAP1 PUSH2 0x349F SWAP2 SWAP1 PUSH2 0x4920 JUMP JUMPDEST DUP3 SWAP1 PUSH2 0x2DAC JUMP JUMPDEST PUSH1 0x0 DUP1 PUSH1 0x0 PUSH2 0x34B3 PUSH2 0x34EF JUMP JUMPDEST PUSH1 0x0 SWAP6 DUP7 MSTORE PUSH1 0x20 SWAP1 DUP2 MSTORE PUSH1 0x40 DUP1 DUP8 KECCAK256 SWAP6 DUP8 MSTORE SWAP5 SWAP1 MSTORE POP POP POP SWAP1 KECCAK256 SLOAD PUSH6 0x10000000000 DUP2 DIV PUSH1 0x1 PUSH1 0x1 PUSH1 0x80 SHL SUB AND SWAP2 PUSH1 0x1 PUSH1 0xA8 SHL SWAP1 SWAP2 DIV PUSH1 0xFF AND SWAP1 JUMP JUMPDEST PUSH1 0x0 DUP1 PUSH2 0xB55 PUSH1 0x8 PUSH2 0x2A70 JUMP JUMPDEST PUSH1 0x0 DUP1 PUSH2 0xB55 PUSH1 0x19 PUSH2 0x2A70 JUMP JUMPDEST PUSH1 0x0 PUSH2 0x3516 DUP5 PUSH1 0x0 PUSH2 0x3EA5 JUMP JUMPDEST DUP4 PUSH1 0x1 PUSH1 0x1 PUSH1 0xA0 SHL SUB AND PUSH32 0x7C51C6AA77346C54CB051D9E792F9B7BDE5C28A9B57E6FB2D2DD727B38438CA9 PUSH1 0x0 PUSH1 0x40 MLOAD PUSH2 0x3550 SWAP2 SWAP1 PUSH2 0x4A53 JUMP JUMPDEST PUSH1 0x40 MLOAD DUP1 SWAP2 SUB SWAP1 LOG2 DUP3 PUSH2 0xFFFF AND DUP5 PUSH1 0x1 PUSH1 0x1 PUSH1 0xA0 SHL SUB AND PUSH32 0xC6525E68251BE388040A5488AC0C1BBAE9E15B03AF12E7EB84FC2E7FF2B46384 DUP5 PUSH1 0x40 MLOAD PUSH2 0x3596 SWAP2 SWAP1 PUSH2 0x4A5E JUMP JUMPDEST PUSH1 0x40 MLOAD DUP1 SWAP2 SUB SWAP1 LOG3 PUSH1 0x0 PUSH2 0x35AF PUSH1 0x0 DUP6 PUSH2 0xFFFF AND PUSH2 0x3F05 JUMP JUMPDEST POP POP POP SWAP1 POP DUP1 DUP4 SGT PUSH2 0x35CF JUMPI PUSH2 0x35C7 DUP5 DUP5 DUP4 SUB PUSH2 0x3FAE JUMP JUMPDEST DUP3 SWAP2 POP PUSH2 0x3626 JUMP JUMPDEST PUSH2 0x35DA DUP5 PUSH1 0x0 PUSH2 0x3FAE JUMP JUMPDEST DUP4 PUSH2 0xFFFF AND DUP6 PUSH1 0x1 PUSH1 0x1 PUSH1 0xA0 SHL SUB AND PUSH32 0xC83C39F2D248D6443025DA5CAEE781F1D927FB0C59598B7C6084738FE7113E22 DUP4 DUP7 SUB PUSH1 0x40 MLOAD PUSH2 0x361A SWAP2 SWAP1 PUSH2 0x4A5E JUMP JUMPDEST PUSH1 0x40 MLOAD DUP1 SWAP2 SUB SWAP1 LOG3 DUP1 SWAP2 POP JUMPDEST POP SWAP4 SWAP3 POP POP POP JUMP JUMPDEST PUSH1 0x0 PUSH10 0x7FFFFFFFFFFFFFFFFFFF NOT DUP3 SLT DUP1 ISZERO SWAP1 PUSH2 0x3655 JUMPI POP PUSH10 0x7FFFFFFFFFFFFFFFFFFF DUP3 SGT ISZERO JUMPDEST PUSH2 0x1402 JUMPI PUSH1 0x0 DUP1 REVERT JUMPDEST PUSH1 0x0 DUP1 DUP1 DUP1 PUSH1 0x5 DUP8 PUSH1 0x60 ADD MLOAD PUSH1 0x5 DUP2 GT ISZERO PUSH2 0x3675 JUMPI INVALID JUMPDEST EQ PUSH2 0x3687 JUMPI PUSH4 0x70A08231 PUSH1 0xE0 SHL PUSH2 0x3690 JUMP JUMPDEST PUSH4 0xED1279F PUSH1 0xE1 SHL JUMPDEST SWAP1 POP DUP7 PUSH1 0x20 ADD MLOAD ISZERO PUSH2 0x36AC JUMPI DUP7 MLOAD PUSH2 0x36A9 SWAP1 ADDRESS DUP4 PUSH2 0x4011 JUMP JUMPDEST SWAP3 POP JUMPDEST DUP7 MLOAD PUSH2 0x36B9 SWAP1 DUP8 DUP8 PUSH2 0x4123 JUMP JUMPDEST DUP7 PUSH1 0x20 ADD MLOAD DUP1 PUSH2 0x36CD JUMPI POP PUSH1 0x0 DUP8 PUSH1 0x80 ADD MLOAD GT JUMPDEST ISZERO PUSH2 0x36E2 JUMPI DUP7 MLOAD PUSH2 0x36DF SWAP1 ADDRESS DUP4 PUSH2 0x4011 JUMP JUMPDEST SWAP2 POP JUMPDEST PUSH1 0x80 DUP8 ADD MLOAD ISZERO PUSH2 0x371D JUMPI PUSH1 0x0 PUSH2 0x3700 DUP9 PUSH2 0x36FB DUP6 PUSH2 0x13EC JUMP JUMPDEST PUSH2 0x2DAC JUMP JUMPDEST SWAP1 POP PUSH2 0x370F DUP9 PUSH1 0x80 ADD MLOAD PUSH2 0x13EC JUMP JUMPDEST DUP2 SGT ISZERO PUSH2 0x371B JUMPI PUSH1 0x0 DUP1 REVERT JUMPDEST POP JUMPDEST DUP7 PUSH1 0x20 ADD MLOAD ISZERO PUSH2 0x3743 JUMPI PUSH2 0x3739 PUSH2 0x3734 DUP4 DUP6 PUSH2 0x417B JUMP JUMPDEST PUSH2 0x13EC JUMP JUMPDEST SWAP4 POP POP POP POP PUSH2 0x1373 JUMP JUMPDEST PUSH2 0x3739 DUP6 PUSH2 0x13EC JUMP JUMPDEST DUP3 PUSH1 0x1 PUSH1 0x1 PUSH1 0xA0 SHL SUB AND PUSH4 0xA9059CBB DUP4 DUP4 PUSH1 0x40 MLOAD DUP4 PUSH4 0xFFFFFFFF AND PUSH1 0xE0 SHL DUP2 MSTORE PUSH1 0x4 ADD DUP1 DUP4 PUSH1 0x1 PUSH1 0x1 PUSH1 0xA0 SHL SUB AND DUP2 MSTORE PUSH1 0x20 ADD DUP3 DUP2 MSTORE PUSH1 0x20 ADD SWAP3 POP POP POP PUSH1 0x0 PUSH1 0x40 MLOAD DUP1 DUP4 SUB DUP2 PUSH1 0x0 DUP8 DUP1 EXTCODESIZE ISZERO DUP1 ISZERO PUSH2 0x37A3 JUMPI PUSH1 0x0 DUP1 REVERT JUMPDEST POP GAS CALL ISZERO DUP1 ISZERO PUSH2 0x37B7 JUMPI RETURNDATASIZE PUSH1 0x0 DUP1 RETURNDATACOPY RETURNDATASIZE PUSH1 0x0 REVERT JUMPDEST POP POP POP POP PUSH2 0xC07 PUSH2 0x3B50 JUMP JUMPDEST DUP3 MLOAD PUSH1 0x40 MLOAD PUSH4 0xDB006A75 PUSH1 0xE0 SHL DUP2 MSTORE PUSH1 0x0 SWAP2 SELFBALANCE SWAP2 DUP4 SWAP2 PUSH1 0x1 PUSH1 0x1 PUSH1 0xA0 SHL SUB AND SWAP1 PUSH4 0xDB006A75 SWAP1 PUSH2 0x37F7 SWAP1 DUP8 SWAP1 PUSH1 0x4 ADD PUSH2 0x4A5E JUMP JUMPDEST PUSH1 0x20 PUSH1 0x40 MLOAD DUP1 DUP4 SUB DUP2 PUSH1 0x0 DUP8 DUP1 EXTCODESIZE ISZERO DUP1 ISZERO PUSH2 0x3811 JUMPI PUSH1 0x0 DUP1 REVERT JUMPDEST POP GAS CALL ISZERO DUP1 ISZERO PUSH2 0x3825 JUMPI RETURNDATASIZE PUSH1 0x0 DUP1 RETURNDATACOPY RETURNDATASIZE PUSH1 0x0 REVERT JUMPDEST POP POP POP POP PUSH1 0x40 MLOAD RETURNDATASIZE PUSH1 0x1F NOT PUSH1 0x1F DUP3 ADD AND DUP3 ADD DUP1 PUSH1 0x40 MSTORE POP DUP2 ADD SWAP1 PUSH2 0x3849 SWAP2 SWAP1 PUSH2 0x4920 JUMP JUMPDEST SWAP1 POP DUP1 ISZERO PUSH2 0x3869 JUMPI PUSH1 0x40 MLOAD PUSH3 0x461BCD PUSH1 0xE5 SHL DUP2 MSTORE PUSH1 0x4 ADD PUSH2 0x23E SWAP1 PUSH2 0x4B20 JUMP JUMPDEST SELFBALANCE PUSH2 0x3874 DUP2 DUP5 PUSH2 0x417B JUMP JUMPDEST SWAP4 POP PUSH2 0x1723 DUP7 DUP6 PUSH2 0x2B08 JUMP JUMPDEST PUSH1 0x0 PUSH2 0x389B PUSH2 0xE90 DUP6 PUSH1 0x0 ADD MLOAD PUSH2 0x3896 DUP6 PUSH2 0x13EC JUMP JUMPDEST PUSH2 0x2F46 JUMP JUMPDEST SWAP1 POP PUSH2 0x38A5 PUSH2 0x41D2 JUMP JUMPDEST SLOAD DUP5 MLOAD PUSH1 0x40 MLOAD PUSH4 0x1A4CA37B PUSH1 0xE2 SHL DUP2 MSTORE PUSH1 0x1 PUSH1 0x1 PUSH1 0xA0 SHL SUB SWAP1 SWAP3 AND SWAP2 PUSH4 0x69328DEC SWAP2 PUSH2 0x38D7 SWAP2 DUP6 SWAP1 DUP9 SWAP1 PUSH1 0x4 ADD PUSH2 0x49B4 JUMP JUMPDEST PUSH1 0x20 PUSH1 0x40 MLOAD DUP1 DUP4 SUB DUP2 PUSH1 0x0 DUP8 DUP1 EXTCODESIZE ISZERO DUP1 ISZERO PUSH2 0x38F1 JUMPI PUSH1 0x0 DUP1 REVERT JUMPDEST POP GAS CALL ISZERO DUP1 ISZERO PUSH2 0x3905 JUMPI RETURNDATASIZE PUSH1 0x0 DUP1 RETURNDATACOPY RETURNDATASIZE PUSH1 0x0 REVERT JUMPDEST POP POP POP POP PUSH1 0x40 MLOAD RETURNDATASIZE PUSH1 0x1F NOT PUSH1 0x1F DUP3 ADD AND DUP3 ADD DUP1 PUSH1 0x40 MSTORE POP DUP2 ADD SWAP1 PUSH2 0x3626 SWAP2 SWAP1 PUSH2 0x4920 JUMP JUMPDEST DUP3 MLOAD PUSH1 0x0 SWAP1 DUP2 SWAP1 PUSH2 0x3942 SWAP1 ADDRESS PUSH4 0x70A08231 PUSH1 0xE0 SHL PUSH2 0x4011 JUMP JUMPDEST SWAP1 POP PUSH1 0x0 DUP7 PUSH1 0x0 ADD MLOAD PUSH1 0x1 PUSH1 0x1 PUSH1 0xA0 SHL SUB AND PUSH4 0xDB006A75 DUP6 PUSH1 0x40 MLOAD DUP3 PUSH4 0xFFFFFFFF AND PUSH1 0xE0 SHL DUP2 MSTORE PUSH1 0x4 ADD PUSH2 0x3976 SWAP2 SWAP1 PUSH2 0x4A5E JUMP JUMPDEST PUSH1 0x20 PUSH1 0x40 MLOAD DUP1 DUP4 SUB DUP2 PUSH1 0x0 DUP8 DUP1 EXTCODESIZE ISZERO DUP1 ISZERO PUSH2 0x3990 JUMPI PUSH1 0x0 DUP1 REVERT JUMPDEST POP GAS CALL ISZERO DUP1 ISZERO PUSH2 0x39A4 JUMPI RETURNDATASIZE PUSH1 0x0 DUP1 RETURNDATACOPY RETURNDATASIZE PUSH1 0x0 REVERT JUMPDEST POP POP POP POP PUSH1 0x40 MLOAD RETURNDATASIZE PUSH1 0x1F NOT PUSH1 0x1F DUP3 ADD AND DUP3 ADD DUP1 PUSH1 0x40 MSTORE POP DUP2 ADD SWAP1 PUSH2 0x39C8 SWAP2 SWAP1 PUSH2 0x4920 JUMP JUMPDEST SWAP1 POP DUP1 ISZERO PUSH2 0x39E8 JUMPI PUSH1 0x40 MLOAD PUSH3 0x461BCD PUSH1 0xE5 SHL DUP2 MSTORE PUSH1 0x4 ADD PUSH2 0x23E SWAP1 PUSH2 0x4B20 JUMP JUMPDEST DUP6 MLOAD PUSH1 0x0 SWAP1 PUSH2 0x39FF SWAP1 ADDRESS PUSH4 0x70A08231 PUSH1 0xE0 SHL PUSH2 0x4011 JUMP JUMPDEST SWAP1 POP PUSH2 0x3A0B DUP2 DUP5 PUSH2 0x417B JUMP JUMPDEST SWAP4 POP PUSH2 0x3A1C DUP8 PUSH1 0x0 ADD MLOAD DUP8 DUP7 PUSH2 0x374C JUMP JUMPDEST POP POP POP SWAP5 SWAP4 POP POP POP POP JUMP JUMPDEST PUSH1 0x0 PUSH4 0x5F5E100 DUP4 PUSH1 0x40 ADD MLOAD SLT ISZERO PUSH2 0x3A48 JUMPI PUSH2 0x2BE8 PUSH1 0x1 PUSH2 0x21A4 DUP6 DUP6 PUSH2 0x2657 JUMP JUMPDEST PUSH2 0xB52 DUP4 PUSH2 0x3A57 DUP5 PUSH1 0x1 PUSH2 0x1D4B JUMP JUMPDEST PUSH2 0x2657 JUMP JUMPDEST PUSH1 0x0 DUP1 PUSH1 0x5 DUP6 PUSH1 0x60 ADD MLOAD PUSH1 0x5 DUP2 GT ISZERO PUSH2 0x3A71 JUMPI INVALID JUMPDEST EQ PUSH2 0x3A83 JUMPI PUSH4 0x70A08231 PUSH1 0xE0 SHL PUSH2 0x3A8C JUMP JUMPDEST PUSH4 0xED1279F PUSH1 0xE1 SHL JUMPDEST SWAP1 POP PUSH1 0x0 PUSH2 0x3A9F DUP7 PUSH1 0x0 ADD MLOAD ADDRESS DUP5 PUSH2 0x4011 JUMP JUMPDEST SWAP1 POP PUSH1 0x5 DUP7 PUSH1 0x60 ADD MLOAD PUSH1 0x5 DUP2 GT ISZERO PUSH2 0x3AB3 JUMPI INVALID JUMPDEST EQ ISZERO PUSH2 0x3ADA JUMPI PUSH1 0x0 PUSH2 0x3AC8 DUP7 PUSH2 0xFFFF AND PUSH2 0x2AF5 JUMP JUMPDEST SWAP1 POP PUSH2 0x3AD4 DUP2 DUP7 PUSH2 0x41DF JUMP JUMPDEST POP PUSH2 0x3B23 JUMP JUMPDEST PUSH1 0x1 DUP7 PUSH1 0x60 ADD MLOAD PUSH1 0x5 DUP2 GT ISZERO PUSH2 0x3AEC JUMPI INVALID JUMPDEST EQ ISZERO PUSH2 0x3B01 JUMPI PUSH2 0x3AFC DUP7 DUP6 PUSH2 0x424A JUMP JUMPDEST PUSH2 0x3B23 JUMP JUMPDEST PUSH1 0x2 DUP7 PUSH1 0x60 ADD MLOAD PUSH1 0x5 DUP2 GT ISZERO PUSH2 0x3B13 JUMPI INVALID JUMPDEST EQ ISZERO PUSH2 0x9C JUMPI PUSH2 0x3AFC DUP7 DUP6 PUSH2 0x42EC JUMP JUMPDEST PUSH1 0x0 PUSH2 0x3B34 DUP8 PUSH1 0x0 ADD MLOAD ADDRESS DUP6 PUSH2 0x4011 JUMP JUMPDEST SWAP1 POP PUSH2 0x2F3B PUSH2 0x3734 DUP3 DUP5 PUSH2 0x417B JUMP JUMPDEST PUSH1 0x0 DUP1 PUSH2 0xB55 PUSH1 0x2 PUSH2 0x2A70 JUMP JUMPDEST PUSH1 0x0 PUSH2 0x3B5A PUSH2 0x4677 JUMP JUMPDEST RETURNDATASIZE DUP1 ISZERO PUSH2 0x3B6E JUMPI PUSH1 0x20 DUP2 EQ PUSH2 0x3B77 JUMPI PUSH1 0x0 DUP1 REVERT JUMPDEST PUSH1 0x1 SWAP3 POP PUSH2 0x3B82 JUMP JUMPDEST PUSH1 0x20 PUSH1 0x0 DUP4 RETURNDATACOPY DUP2 MLOAD SWAP3 POP JUMPDEST POP DUP2 PUSH2 0x1614 JUMPI PUSH1 0x40 DUP1 MLOAD PUSH3 0x461BCD PUSH1 0xE5 SHL DUP2 MSTORE PUSH1 0x20 PUSH1 0x4 DUP3 ADD MSTORE PUSH1 0x5 PUSH1 0x24 DUP3 ADD MSTORE PUSH5 0x455243323 PUSH1 0xDC SHL PUSH1 0x44 DUP3 ADD MSTORE SWAP1 MLOAD SWAP1 DUP2 SWAP1 SUB PUSH1 0x64 ADD SWAP1 REVERT JUMPDEST PUSH1 0x0 DUP1 PUSH2 0xB55 PUSH1 0x7 PUSH2 0x2A70 JUMP JUMPDEST PUSH1 0x0 PUSH2 0xDA7 PUSH2 0x3BD7 PUSH2 0x41D2 JUMP JUMPDEST SLOAD PUSH1 0x40 MLOAD PUSH4 0xD15E0053 PUSH1 0xE0 SHL DUP2 MSTORE PUSH1 0x1 PUSH1 0x1 PUSH1 0xA0 SHL SUB SWAP1 SWAP2 AND SWAP1 PUSH4 0xD15E0053 SWAP1 PUSH2 0x3C05 SWAP1 DUP7 SWAP1 PUSH1 0x4 ADD PUSH2 0x4962 JUMP JUMPDEST PUSH1 0x20 PUSH1 0x40 MLOAD DUP1 DUP4 SUB DUP2 DUP7 DUP1 EXTCODESIZE ISZERO DUP1 ISZERO PUSH2 0x3C1D JUMPI PUSH1 0x0 DUP1 REVERT JUMPDEST POP GAS STATICCALL ISZERO DUP1 ISZERO PUSH2 0x3C31 JUMPI RETURNDATASIZE PUSH1 0x0 DUP1 RETURNDATACOPY RETURNDATASIZE PUSH1 0x0 REVERT JUMPDEST POP POP POP POP PUSH1 0x40 MLOAD RETURNDATASIZE PUSH1 0x1F NOT PUSH1 0x1F DUP3 ADD AND DUP3 ADD DUP1 PUSH1 0x40 MSTORE POP DUP2 ADD SWAP1 PUSH2 0x3734 SWAP2 SWAP1 PUSH2 0x4920 JUMP JUMPDEST PUSH1 0x0 DUP1 PUSH2 0xB55 PUSH1 0x17 PUSH2 0x2A70 JUMP JUMPDEST PUSH1 0x0 DUP1 PUSH1 0x0 PUSH2 0x3C6F PUSH2 0x433F JUMP JUMPDEST PUSH1 0x0 SWAP5 DUP6 MSTORE PUSH1 0x20 MSTORE POP POP PUSH1 0x40 SWAP1 SWAP2 KECCAK256 SLOAD PUSH1 0x1 PUSH1 0x1 PUSH1 0xA0 SHL SUB DUP2 AND SWAP3 PUSH1 0x1 PUSH1 0xA0 SHL SWAP1 SWAP2 DIV PUSH1 0xFF AND SWAP2 POP JUMP JUMPDEST PUSH1 0x0 DUP1 PUSH2 0x3CA4 PUSH2 0x434C JUMP JUMPDEST PUSH1 0x0 SWAP4 DUP5 MSTORE PUSH1 0x20 MSTORE POP POP PUSH1 0x40 SWAP1 KECCAK256 SLOAD SWAP1 JUMP JUMPDEST PUSH1 0x0 PUSH3 0x76A700 DUP3 LT ISZERO PUSH2 0x3CC8 JUMPI PUSH1 0x0 DUP1 REVERT JUMPDEST POP PUSH3 0x76A700 DUP2 MOD SWAP1 SUB SWAP1 JUMP JUMPDEST PUSH1 0x0 DUP2 PUSH1 0x1 EQ ISZERO PUSH2 0x3CE9 JUMPI POP PUSH3 0x76A700 PUSH2 0xDAA JUMP JUMPDEST DUP2 PUSH1 0x2 EQ ISZERO PUSH2 0x3CFC JUMPI POP PUSH3 0xED4E00 PUSH2 0xDAA JUMP JUMPDEST DUP2 PUSH1 0x3 EQ ISZERO PUSH2 0x3D10 JUMPI POP PUSH4 0x1DA9C00 PUSH2 0xDAA JUMP JUMPDEST DUP2 PUSH1 0x4 EQ ISZERO PUSH2 0x3D24 JUMPI POP PUSH4 0x3B53800 PUSH2 0xDAA JUMP JUMPDEST DUP2 PUSH1 0x5 EQ ISZERO PUSH2 0x3D38 JUMPI POP PUSH4 0x9450C00 PUSH2 0xDAA JUMP JUMPDEST DUP2 PUSH1 0x6 EQ ISZERO PUSH2 0x3D4C JUMPI POP PUSH4 0x128A1800 PUSH2 0xDAA JUMP JUMPDEST DUP2 PUSH1 0x7 EQ ISZERO PUSH2 0x3D60 JUMPI POP PUSH4 0x25143000 PUSH2 0xDAA JUMP JUMPDEST PUSH1 0x40 MLOAD PUSH3 0x461BCD PUSH1 0xE5 SHL DUP2 MSTORE PUSH1 0x4 ADD PUSH2 0x23E SWAP1 PUSH2 0x4B9F JUMP JUMPDEST PUSH1 0x0 DUP3 DUP3 ADD DUP4 DUP2 LT ISZERO PUSH2 0xB52 JUMPI PUSH1 0x40 DUP1 MLOAD PUSH3 0x461BCD PUSH1 0xE5 SHL DUP2 MSTORE PUSH1 0x20 PUSH1 0x4 DUP3 ADD MSTORE PUSH1 0x1B PUSH1 0x24 DUP3 ADD MSTORE PUSH32 0x536166654D6174683A206164646974696F6E206F766572666C6F770000000000 PUSH1 0x44 DUP3 ADD MSTORE SWAP1 MLOAD SWAP1 DUP2 SWAP1 SUB PUSH1 0x64 ADD SWAP1 REVERT JUMPDEST PUSH1 0x0 DUP2 SLT ISZERO PUSH2 0x3DE0 JUMPI PUSH1 0x0 DUP1 REVERT JUMPDEST PUSH1 0x0 PUSH2 0x3DED PUSH1 0x0 DUP5 PUSH2 0x3F05 JUMP JUMPDEST POP POP POP SWAP1 POP PUSH2 0x3E05 DUP3 DUP3 PUSH2 0x1D4B SWAP1 SWAP2 SWAP1 PUSH4 0xFFFFFFFF AND JUMP JUMPDEST SWAP1 POP PUSH2 0x3E18 PUSH1 0x0 DUP5 DUP4 PUSH1 0x0 DUP1 PUSH1 0x0 PUSH2 0x4359 JUMP JUMPDEST DUP3 PUSH2 0xFFFF AND PUSH32 0x85170C297762884F47EC6098B74925C795E6D33686B11019B400E33A9B23B5E9 DUP4 PUSH1 0x40 MLOAD PUSH2 0x3E4C SWAP2 SWAP1 PUSH2 0x4A5E JUMP JUMPDEST PUSH1 0x40 MLOAD DUP1 SWAP2 SUB SWAP1 LOG2 POP POP POP JUMP JUMPDEST PUSH1 0x0 DUP2 SLT ISZERO PUSH2 0x3E67 JUMPI PUSH1 0x0 DUP1 REVERT JUMPDEST PUSH1 0x0 PUSH2 0x3E72 DUP4 PUSH2 0x44A0 JUMP JUMPDEST SWAP1 POP PUSH1 0x0 PUSH2 0x3E80 DUP3 DUP6 PUSH2 0x3F05 JUMP JUMPDEST POP POP POP SWAP1 POP PUSH2 0x3E98 DUP4 DUP3 PUSH2 0x1D4B SWAP1 SWAP2 SWAP1 PUSH4 0xFFFFFFFF AND JUMP JUMPDEST SWAP1 POP PUSH2 0x1448 DUP3 DUP6 DUP4 PUSH2 0x44C6 JUMP JUMPDEST PUSH1 0x0 PUSH2 0x3EAF PUSH2 0x2FD5 JUMP JUMPDEST PUSH1 0x1 PUSH1 0x1 PUSH1 0xA0 SHL SUB DUP5 AND PUSH1 0x0 SWAP1 DUP2 MSTORE PUSH1 0x20 DUP3 SWAP1 MSTORE PUSH1 0x40 SWAP1 KECCAK256 DUP1 SLOAD SWAP2 SWAP3 POP SWAP1 PUSH2 0xFFFF AND DUP4 ISZERO PUSH2 0x3EEE JUMPI DUP2 SLOAD PUSH2 0xFFFF NOT AND PUSH1 0x1 DUP3 OR PUSH2 0xFFFF AND OR DUP3 SSTORE PUSH2 0x3EFE JUMP JUMPDEST DUP2 SLOAD PUSH2 0xFFFF NOT AND PUSH2 0xFFFE DUP3 AND OR DUP3 SSTORE JUMPDEST POP POP POP POP POP JUMP JUMPDEST PUSH1 0x0 DUP1 PUSH1 0x0 DUP1 PUSH1 0x0 PUSH2 0x3F15 PUSH2 0x44E4 JUMP JUMPDEST PUSH1 0x1 PUSH1 0x1 PUSH1 0xA0 SHL SUB DUP9 AND PUSH1 0x0 SWAP1 DUP2 MSTORE PUSH1 0x20 DUP3 DUP2 MSTORE PUSH1 0x40 DUP1 DUP4 KECCAK256 DUP11 DUP5 MSTORE SWAP1 SWAP2 MSTORE SWAP1 KECCAK256 DUP1 SLOAD PUSH1 0x1 PUSH1 0x1 PUSH1 0x50 SHL SUB DUP2 AND SWAP7 POP PUSH1 0x1 PUSH1 0x50 SHL SWAP1 DIV PUSH4 0xFFFFFFFF AND SWAP5 POP SWAP1 SWAP2 POP DUP4 ISZERO PUSH2 0x3F7E JUMPI DUP1 SLOAD PUSH2 0x3F77 SWAP1 PUSH1 0x1 PUSH1 0x70 SHL SWAP1 DIV PUSH7 0xFFFFFFFFFFFFFF AND PUSH2 0x44F1 JUMP JUMPDEST SWAP3 POP PUSH2 0x3F93 JUMP JUMPDEST DUP1 SLOAD PUSH1 0x1 PUSH1 0x70 SHL SWAP1 DIV PUSH7 0xFFFFFFFFFFFFFF AND SWAP3 POP JUMPDEST SLOAD PUSH1 0x1 PUSH1 0xA8 SHL SWAP1 DIV PUSH1 0xA SWAP1 DUP2 SIGNEXTEND SWAP1 SIGNEXTEND SWAP8 SWAP4 SWAP7 POP SWAP2 SWAP5 POP SWAP3 POP POP JUMP JUMPDEST PUSH1 0x0 DUP2 SLT ISZERO PUSH2 0x3FBC JUMPI PUSH1 0x0 DUP1 REVERT JUMPDEST PUSH2 0x3FD1 PUSH1 0x0 DUP4 PUSH2 0xFFFF AND DUP4 PUSH1 0x0 DUP1 PUSH1 0x0 PUSH2 0x4359 JUMP JUMPDEST DUP2 PUSH2 0xFFFF AND PUSH32 0xD3625F7B5926828151EFE19F7AE655488287357D99EBE67E5FB20522CA739C0B DUP3 PUSH1 0x40 MLOAD PUSH2 0x4005 SWAP2 SWAP1 PUSH2 0x4A5E JUMP JUMPDEST PUSH1 0x40 MLOAD DUP1 SWAP2 SUB SWAP1 LOG2 POP POP JUMP JUMPDEST PUSH1 0x40 DUP1 MLOAD PUSH1 0x1 PUSH1 0x1 PUSH1 0xA0 SHL SUB DUP5 DUP2 AND PUSH1 0x24 DUP1 DUP5 ADD SWAP2 SWAP1 SWAP2 MSTORE DUP4 MLOAD DUP1 DUP5 SUB SWAP1 SWAP2 ADD DUP2 MSTORE PUSH1 0x44 SWAP1 SWAP3 ADD DUP4 MSTORE PUSH1 0x20 DUP3 ADD DUP1 MLOAD PUSH1 0x1 PUSH1 0x1 PUSH1 0xE0 SHL SUB AND PUSH1 0x1 PUSH1 0x1 PUSH1 0xE0 SHL SUB NOT DUP7 AND OR DUP2 MSTORE SWAP3 MLOAD DUP3 MLOAD PUSH1 0x0 SWAP5 DUP6 SWAP5 DUP6 SWAP5 DUP11 AND SWAP4 SWAP1 SWAP3 SWAP1 SWAP2 DUP3 SWAP2 DUP1 DUP4 DUP4 JUMPDEST PUSH1 0x20 DUP4 LT PUSH2 0x408E JUMPI DUP1 MLOAD DUP3 MSTORE PUSH1 0x1F NOT SWAP1 SWAP3 ADD SWAP2 PUSH1 0x20 SWAP2 DUP3 ADD SWAP2 ADD PUSH2 0x406F JUMP JUMPDEST PUSH1 0x1 DUP4 PUSH1 0x20 SUB PUSH2 0x100 EXP SUB DUP1 NOT DUP3 MLOAD AND DUP2 DUP5 MLOAD AND DUP1 DUP3 OR DUP6 MSTORE POP POP POP POP POP POP SWAP1 POP ADD SWAP2 POP POP PUSH1 0x0 PUSH1 0x40 MLOAD DUP1 DUP4 SUB DUP2 DUP6 GAS STATICCALL SWAP2 POP POP RETURNDATASIZE DUP1 PUSH1 0x0 DUP2 EQ PUSH2 0x40EE JUMPI PUSH1 0x40 MLOAD SWAP2 POP PUSH1 0x1F NOT PUSH1 0x3F RETURNDATASIZE ADD AND DUP3 ADD PUSH1 0x40 MSTORE RETURNDATASIZE DUP3 MSTORE RETURNDATASIZE PUSH1 0x0 PUSH1 0x20 DUP5 ADD RETURNDATACOPY PUSH2 0x40F3 JUMP JUMPDEST PUSH1 0x60 SWAP2 POP JUMPDEST POP SWAP2 POP SWAP2 POP DUP2 PUSH2 0x4102 JUMPI PUSH1 0x0 DUP1 REVERT JUMPDEST DUP1 DUP1 PUSH1 0x20 ADD SWAP1 MLOAD PUSH1 0x20 DUP2 LT ISZERO PUSH2 0x4117 JUMPI PUSH1 0x0 DUP1 REVERT JUMPDEST POP MLOAD SWAP7 SWAP6 POP POP POP POP POP POP JUMP JUMPDEST PUSH1 0x40 DUP1 MLOAD PUSH4 0x23B872DD PUSH1 0xE0 SHL DUP2 MSTORE PUSH1 0x1 PUSH1 0x1 PUSH1 0xA0 SHL SUB DUP5 DUP2 AND PUSH1 0x4 DUP4 ADD MSTORE ADDRESS PUSH1 0x24 DUP4 ADD MSTORE PUSH1 0x44 DUP3 ADD DUP5 SWAP1 MSTORE SWAP2 MLOAD SWAP2 DUP6 AND SWAP2 PUSH4 0x23B872DD SWAP2 PUSH1 0x64 DUP1 DUP3 ADD SWAP3 PUSH1 0x0 SWAP3 SWAP1 SWAP2 SWAP1 DUP3 SWAP1 SUB ADD DUP2 DUP4 DUP8 DUP1 EXTCODESIZE ISZERO DUP1 ISZERO PUSH2 0x37A3 JUMPI PUSH1 0x0 DUP1 REVERT JUMPDEST PUSH1 0x0 DUP3 DUP3 GT ISZERO PUSH2 0x191F JUMPI PUSH1 0x40 DUP1 MLOAD PUSH3 0x461BCD PUSH1 0xE5 SHL DUP2 MSTORE PUSH1 0x20 PUSH1 0x4 DUP3 ADD MSTORE PUSH1 0x1E PUSH1 0x24 DUP3 ADD MSTORE PUSH32 0x536166654D6174683A207375627472616374696F6E206F766572666C6F770000 PUSH1 0x44 DUP3 ADD MSTORE SWAP1 MLOAD SWAP1 DUP2 SWAP1 SUB PUSH1 0x64 ADD SWAP1 REVERT JUMPDEST PUSH1 0x0 DUP1 PUSH2 0xB55 PUSH1 0x13 PUSH2 0x2A70 JUMP JUMPDEST PUSH2 0x41E7 PUSH2 0x41D2 JUMP JUMPDEST SLOAD DUP3 MLOAD PUSH1 0x40 MLOAD PUSH4 0xE8EDA9DF PUSH1 0xE0 SHL DUP2 MSTORE PUSH1 0x1 PUSH1 0x1 PUSH1 0xA0 SHL SUB SWAP1 SWAP3 AND SWAP2 PUSH4 0xE8EDA9DF SWAP2 PUSH2 0x421C SWAP2 DUP6 SWAP1 ADDRESS SWAP1 PUSH1 0x0 SWAP1 PUSH1 0x4 ADD PUSH2 0x49D7 JUMP JUMPDEST PUSH1 0x0 PUSH1 0x40 MLOAD DUP1 DUP4 SUB DUP2 PUSH1 0x0 DUP8 DUP1 EXTCODESIZE ISZERO DUP1 ISZERO PUSH2 0x4236 JUMPI PUSH1 0x0 DUP1 REVERT JUMPDEST POP GAS CALL ISZERO DUP1 ISZERO PUSH2 0x19BE JUMPI RETURNDATASIZE PUSH1 0x0 DUP1 RETURNDATACOPY RETURNDATASIZE PUSH1 0x0 REVERT JUMPDEST DUP2 MLOAD PUSH1 0x40 MLOAD PUSH4 0x140E25AD PUSH1 0xE3 SHL DUP2 MSTORE PUSH1 0x0 SWAP2 PUSH1 0x1 PUSH1 0x1 PUSH1 0xA0 SHL SUB AND SWAP1 PUSH4 0xA0712D68 SWAP1 PUSH2 0x427A SWAP1 DUP6 SWAP1 PUSH1 0x4 ADD PUSH2 0x4A5E JUMP JUMPDEST PUSH1 0x20 PUSH1 0x40 MLOAD DUP1 DUP4 SUB DUP2 PUSH1 0x0 DUP8 DUP1 EXTCODESIZE ISZERO DUP1 ISZERO PUSH2 0x4294 JUMPI PUSH1 0x0 DUP1 REVERT JUMPDEST POP GAS CALL ISZERO DUP1 ISZERO PUSH2 0x42A8 JUMPI RETURNDATASIZE PUSH1 0x0 DUP1 RETURNDATACOPY RETURNDATASIZE PUSH1 0x0 REVERT JUMPDEST POP POP POP POP PUSH1 0x40 MLOAD RETURNDATASIZE PUSH1 0x1F NOT PUSH1 0x1F DUP3 ADD AND DUP3 ADD DUP1 PUSH1 0x40 MSTORE POP DUP2 ADD SWAP1 PUSH2 0x42CC SWAP2 SWAP1 PUSH2 0x4920 JUMP JUMPDEST SWAP1 POP DUP1 ISZERO PUSH2 0xC07 JUMPI PUSH1 0x40 MLOAD PUSH3 0x461BCD PUSH1 0xE5 SHL DUP2 MSTORE PUSH1 0x4 ADD PUSH2 0x23E SWAP1 PUSH2 0x4B02 JUMP JUMPDEST DUP2 PUSH1 0x0 ADD MLOAD PUSH1 0x1 PUSH1 0x1 PUSH1 0xA0 SHL SUB AND PUSH4 0x1249C58B DUP3 PUSH1 0x40 MLOAD DUP3 PUSH4 0xFFFFFFFF AND PUSH1 0xE0 SHL DUP2 MSTORE PUSH1 0x4 ADD PUSH1 0x0 PUSH1 0x40 MLOAD DUP1 DUP4 SUB DUP2 DUP6 DUP9 DUP1 EXTCODESIZE ISZERO DUP1 ISZERO PUSH2 0x432B JUMPI PUSH1 0x0 DUP1 REVERT JUMPDEST POP GAS CALL ISZERO DUP1 ISZERO PUSH2 0xE34 JUMPI RETURNDATASIZE PUSH1 0x0 DUP1 RETURNDATACOPY RETURNDATASIZE PUSH1 0x0 REVERT JUMPDEST PUSH1 0x0 DUP1 PUSH2 0xB55 PUSH1 0xF PUSH2 0x2A70 JUMP JUMPDEST PUSH1 0x0 DUP1 PUSH2 0xB55 PUSH1 0x9 PUSH2 0x2A70 JUMP JUMPDEST PUSH1 0x0 PUSH2 0x4363 PUSH2 0x44E4 JUMP JUMPDEST PUSH1 0x1 PUSH1 0x1 PUSH1 0xA0 SHL SUB DUP9 AND PUSH1 0x0 SWAP1 DUP2 MSTORE PUSH1 0x20 DUP3 DUP2 MSTORE PUSH1 0x40 DUP1 DUP4 KECCAK256 DUP11 DUP5 MSTORE SWAP1 SWAP2 MSTORE SWAP1 KECCAK256 SWAP1 SWAP2 POP PUSH11 0x7FFFFFFFFFFFFFFFFFFFFF NOT DUP7 SLT DUP1 ISZERO SWAP1 PUSH2 0x43AE JUMPI POP PUSH11 0x7FFFFFFFFFFFFFFFFFFFFF DUP7 SGT ISZERO JUMPDEST PUSH2 0x43B7 JUMPI PUSH1 0x0 DUP1 REVERT JUMPDEST PUSH1 0x0 DUP6 SLT ISZERO DUP1 ISZERO PUSH2 0x43CF JUMPI POP PUSH1 0x1 PUSH1 0x1 PUSH1 0x50 SHL SUB DUP6 SGT ISZERO JUMPDEST PUSH2 0x43D8 JUMPI PUSH1 0x0 DUP1 REVERT JUMPDEST DUP4 PUSH2 0x4418 JUMPI PUSH7 0xFFFFFFFFFFFFFF DUP4 GT ISZERO PUSH2 0x43F1 JUMPI PUSH1 0x0 DUP1 REVERT JUMPDEST DUP1 SLOAD PUSH7 0xFFFFFFFFFFFFFF PUSH1 0x70 SHL NOT AND PUSH1 0x1 PUSH1 0x70 SHL PUSH7 0xFFFFFFFFFFFFFF DUP6 AND MUL OR DUP2 SSTORE PUSH2 0x4432 JUMP JUMPDEST DUP1 SLOAD PUSH1 0x1 PUSH1 0x50 SHL SWAP1 DIV PUSH4 0xFFFFFFFF AND DUP5 EQ PUSH2 0x4432 JUMPI PUSH1 0x0 DUP1 REVERT JUMPDEST DUP1 SLOAD PUSH1 0xA SWAP7 SWAP1 SWAP7 SIGNEXTEND PUSH11 0xFFFFFFFFFFFFFFFFFFFFFF AND PUSH1 0x1 PUSH1 0xA8 SHL MUL PUSH1 0x1 PUSH1 0x1 PUSH1 0xA8 SHL SUB PUSH1 0x1 PUSH1 0x1 PUSH1 0x50 SHL SUB SWAP1 SWAP7 AND PUSH1 0x1 PUSH1 0x1 PUSH1 0x50 SHL SUB NOT PUSH4 0xFFFFFFFF SWAP1 SWAP7 AND PUSH1 0x1 PUSH1 0x50 SHL MUL PUSH4 0xFFFFFFFF PUSH1 0x50 SHL NOT SWAP1 SWAP9 AND SWAP8 SWAP1 SWAP8 OR SWAP5 SWAP1 SWAP5 AND SWAP6 SWAP1 SWAP6 OR SWAP4 SWAP1 SWAP4 AND SWAP2 SWAP1 SWAP2 OR SWAP1 SWAP3 SSTORE POP POP POP POP JUMP JUMPDEST PUSH1 0x0 DUP1 PUSH2 0x44AB PUSH2 0x44FF JUMP JUMPDEST PUSH1 0x0 SWAP4 DUP5 MSTORE PUSH1 0x20 MSTORE POP POP PUSH1 0x40 SWAP1 KECCAK256 SLOAD PUSH1 0x1 PUSH1 0x1 PUSH1 0xA0 SHL SUB AND SWAP1 JUMP JUMPDEST PUSH1 0x0 DUP2 SLT ISZERO PUSH2 0x44D4 JUMPI PUSH1 0x0 DUP1 REVERT JUMPDEST PUSH2 0xC07 DUP4 DUP4 DUP4 PUSH1 0x0 DUP1 PUSH1 0x0 PUSH2 0x4359 JUMP JUMPDEST PUSH1 0x0 DUP1 PUSH2 0xB55 PUSH1 0x6 PUSH2 0x2A70 JUMP JUMPDEST PUSH1 0x8 DUP2 SWAP1 SHR PUSH1 0xFF SWAP1 SWAP2 AND SHL SWAP1 JUMP JUMPDEST PUSH1 0x0 DUP1 PUSH2 0xB55 PUSH1 0x3 PUSH2 0x2A70 JUMP JUMPDEST PUSH1 0x40 MLOAD DUP1 PUSH1 0x40 ADD PUSH1 0x40 MSTORE DUP1 PUSH1 0x2 SWAP1 PUSH1 0x20 DUP3 MUL DUP1 CALLDATASIZE DUP4 CALLDATACOPY POP SWAP2 SWAP3 SWAP2 POP POP JUMP JUMPDEST PUSH1 0x40 MLOAD DUP1 PUSH1 0xA0 ADD PUSH1 0x40 MSTORE DUP1 PUSH1 0x0 DUP2 MSTORE PUSH1 0x20 ADD PUSH1 0x0 DUP2 MSTORE PUSH1 0x20 ADD PUSH1 0x0 DUP2 MSTORE PUSH1 0x20 ADD PUSH1 0x0 PUSH1 0x1 PUSH1 0x1 PUSH1 0xA0 SHL SUB AND DUP2 MSTORE PUSH1 0x20 ADD PUSH1 0x0 DUP2 MSTORE POP SWAP1 JUMP JUMPDEST PUSH1 0x40 MLOAD DUP1 PUSH2 0x180 ADD PUSH1 0x40 MSTORE DUP1 PUSH1 0x0 PUSH1 0x1 PUSH1 0x1 PUSH1 0xA0 SHL SUB AND DUP2 MSTORE PUSH1 0x20 ADD PUSH1 0x0 PUSH2 0xFFFF AND DUP2 MSTORE PUSH1 0x20 ADD PUSH1 0x0 PUSH2 0xFFFF AND DUP2 MSTORE PUSH1 0x20 ADD PUSH1 0x0 DUP2 MSTORE PUSH1 0x20 ADD PUSH1 0x0 DUP2 MSTORE PUSH1 0x20 ADD PUSH1 0x0 DUP2 MSTORE PUSH1 0x20 ADD PUSH1 0x0 DUP2 MSTORE PUSH1 0x20 ADD PUSH1 0x0 DUP2 MSTORE PUSH1 0x20 ADD PUSH1 0x0 DUP2 MSTORE PUSH1 0x20 ADD PUSH1 0x0 DUP2 MSTORE PUSH1 0x20 ADD PUSH2 0x45CD PUSH2 0x450C JUMP JUMPDEST DUP2 MSTORE PUSH1 0x20 ADD PUSH2 0x45DA PUSH2 0x464D JUMP JUMPDEST SWAP1 MSTORE SWAP1 JUMP JUMPDEST PUSH1 0x40 MLOAD DUP1 PUSH1 0xE0 ADD PUSH1 0x40 MSTORE DUP1 PUSH1 0x0 DUP2 MSTORE PUSH1 0x20 ADD PUSH1 0x0 DUP2 MSTORE PUSH1 0x20 ADD PUSH1 0x0 ISZERO ISZERO DUP2 MSTORE PUSH1 0x20 ADD PUSH1 0x0 DUP2 MSTORE PUSH1 0x20 ADD PUSH1 0x0 DUP2 MSTORE PUSH1 0x20 ADD PUSH1 0x0 DUP2 MSTORE PUSH1 0x20 ADD PUSH1 0x0 DUP2 MSTORE POP SWAP1 JUMP JUMPDEST PUSH1 0x40 DUP1 MLOAD PUSH1 0xA0 DUP2 ADD DUP3 MSTORE PUSH1 0x0 DUP1 DUP3 MSTORE PUSH1 0x20 DUP3 ADD DUP2 SWAP1 MSTORE SWAP2 DUP2 ADD DUP3 SWAP1 MSTORE SWAP1 PUSH1 0x60 DUP3 ADD SWAP1 DUP2 MSTORE PUSH1 0x20 ADD PUSH1 0x0 DUP2 MSTORE POP SWAP1 JUMP JUMPDEST PUSH1 0x40 MLOAD DUP1 PUSH1 0x60 ADD PUSH1 0x40 MSTORE DUP1 PUSH1 0x0 PUSH1 0x1 PUSH1 0x1 PUSH1 0xA0 SHL SUB AND DUP2 MSTORE PUSH1 0x20 ADD PUSH1 0x0 DUP2 MSTORE PUSH1 0x20 ADD PUSH1 0x0 DUP2 MSTORE POP SWAP1 JUMP JUMPDEST PUSH1 0x40 MLOAD DUP1 PUSH1 0x20 ADD PUSH1 0x40 MSTORE DUP1 PUSH1 0x1 SWAP1 PUSH1 0x20 DUP3 MUL DUP1 CALLDATASIZE DUP4 CALLDATACOPY POP SWAP2 SWAP3 SWAP2 POP POP JUMP JUMPDEST DUP1 CALLDATALOAD PUSH1 0x1 PUSH1 0x1 PUSH1 0xA0 SHL SUB DUP2 AND DUP2 EQ PUSH2 0xDAA JUMPI PUSH1 0x0 DUP1 REVERT JUMPDEST PUSH1 0x0 DUP1 DUP4 PUSH1 0x1F DUP5 ADD SLT PUSH2 0x46BD JUMPI DUP2 DUP3 REVERT JUMPDEST POP DUP2 CALLDATALOAD PUSH8 0xFFFFFFFFFFFFFFFF DUP2 GT ISZERO PUSH2 0x46D4 JUMPI DUP2 DUP3 REVERT JUMPDEST PUSH1 0x20 DUP4 ADD SWAP2 POP DUP4 PUSH1 0x20 DUP3 DUP6 ADD ADD GT ISZERO PUSH2 0x15C2 JUMPI PUSH1 0x0 DUP1 REVERT JUMPDEST DUP1 CALLDATALOAD PUSH4 0xFFFFFFFF DUP2 AND DUP2 EQ PUSH2 0xDAA JUMPI PUSH1 0x0 DUP1 REVERT JUMPDEST PUSH1 0x0 DUP1 PUSH1 0x40 DUP4 DUP6 SUB SLT ISZERO PUSH2 0x4712 JUMPI DUP2 DUP3 REVERT JUMPDEST PUSH2 0x471B DUP4 PUSH2 0x4695 JUMP JUMPDEST SWAP2 POP PUSH2 0x15BF PUSH1 0x20 DUP5 ADD PUSH2 0x4695 JUMP JUMPDEST PUSH1 0x0 DUP1 PUSH1 0x0 DUP1 PUSH1 0x0 DUP1 PUSH1 0x0 PUSH1 0xC0 DUP9 DUP11 SUB SLT ISZERO PUSH2 0x4743 JUMPI DUP3 DUP4 REVERT JUMPDEST PUSH2 0x474C DUP9 PUSH2 0x4695 JUMP JUMPDEST SWAP7 POP PUSH2 0x475A PUSH1 0x20 DUP10 ADD PUSH2 0x4695 JUMP JUMPDEST SWAP6 POP PUSH2 0x4768 PUSH1 0x40 DUP10 ADD PUSH2 0x4695 JUMP JUMPDEST SWAP5 POP PUSH1 0x60 DUP9 ADD CALLDATALOAD SWAP4 POP PUSH1 0x80 DUP9 ADD CALLDATALOAD DUP1 ISZERO ISZERO DUP2 EQ PUSH2 0x4783 JUMPI DUP4 DUP5 REVERT JUMPDEST SWAP3 POP PUSH1 0xA0 DUP9 ADD CALLDATALOAD PUSH8 0xFFFFFFFFFFFFFFFF DUP2 GT ISZERO PUSH2 0x479E JUMPI DUP3 DUP4 REVERT JUMPDEST PUSH2 0x47AA DUP11 DUP3 DUP12 ADD PUSH2 0x46AC JUMP JUMPDEST SWAP9 SWAP12 SWAP8 SWAP11 POP SWAP6 SWAP9 POP SWAP4 SWAP7 SWAP3 SWAP6 SWAP3 SWAP4 POP POP POP JUMP JUMPDEST PUSH1 0x0 DUP1 PUSH1 0x0 DUP1 PUSH1 0x0 DUP1 PUSH1 0x0 DUP1 PUSH1 0xE0 DUP10 DUP12 SUB SLT ISZERO PUSH2 0x47D8 JUMPI DUP1 DUP2 REVERT JUMPDEST PUSH2 0x47E1 DUP10 PUSH2 0x4695 JUMP JUMPDEST SWAP8 POP PUSH2 0x47EF PUSH1 0x20 DUP11 ADD PUSH2 0x4695 JUMP JUMPDEST SWAP7 POP PUSH2 0x47FD PUSH1 0x40 DUP11 ADD PUSH2 0x4695 JUMP JUMPDEST SWAP6 POP PUSH1 0x60 DUP10 ADD CALLDATALOAD SWAP5 POP PUSH1 0x80 DUP10 ADD CALLDATALOAD SWAP4 POP PUSH2 0x4819 PUSH1 0xA0 DUP11 ADD PUSH2 0x46EC JUMP JUMPDEST SWAP3 POP PUSH1 0xC0 DUP10 ADD CALLDATALOAD PUSH8 0xFFFFFFFFFFFFFFFF DUP2 GT ISZERO PUSH2 0x4834 JUMPI DUP2 DUP3 REVERT JUMPDEST PUSH2 0x4840 DUP12 DUP3 DUP13 ADD PUSH2 0x46AC JUMP JUMPDEST SWAP10 SWAP13 SWAP9 SWAP12 POP SWAP7 SWAP10 POP SWAP5 SWAP8 SWAP4 SWAP7 SWAP3 SWAP6 SWAP5 POP POP POP JUMP JUMPDEST PUSH1 0x0 DUP1 PUSH1 0x0 DUP1 PUSH1 0x0 DUP1 PUSH1 0x0 DUP1 PUSH1 0xE0 DUP10 DUP12 SUB SLT ISZERO PUSH2 0x486F JUMPI DUP4 DUP5 REVERT JUMPDEST PUSH2 0x4878 DUP10 PUSH2 0x4695 JUMP JUMPDEST SWAP8 POP PUSH2 0x4886 PUSH1 0x20 DUP11 ADD PUSH2 0x4695 JUMP JUMPDEST SWAP7 POP PUSH1 0x40 DUP10 ADD CALLDATALOAD SWAP6 POP PUSH1 0x60 DUP10 ADD CALLDATALOAD SWAP5 POP PUSH1 0x80 DUP10 ADD CALLDATALOAD SWAP4 POP PUSH2 0x48A9 PUSH1 0xA0 DUP11 ADD PUSH2 0x46EC JUMP JUMPDEST SWAP3 POP PUSH1 0xC0 DUP10 ADD CALLDATALOAD PUSH8 0xFFFFFFFFFFFFFFFF DUP2 GT ISZERO PUSH2 0x4834 JUMPI DUP3 DUP4 REVERT JUMPDEST PUSH1 0x0 DUP1 PUSH1 0x0 DUP1 PUSH1 0x0 DUP1 PUSH1 0x0 DUP1 PUSH1 0xE0 DUP10 DUP12 SUB SLT ISZERO PUSH2 0x48DF JUMPI DUP4 DUP5 REVERT JUMPDEST PUSH2 0x48E8 DUP10 PUSH2 0x4695 JUMP JUMPDEST SWAP8 POP PUSH2 0x48F6 PUSH1 0x20 DUP11 ADD PUSH2 0x4695 JUMP JUMPDEST SWAP7 POP PUSH1 0x40 DUP10 ADD CALLDATALOAD SWAP6 POP PUSH1 0x60 DUP10 ADD CALLDATALOAD SWAP5 POP PUSH2 0x4912 PUSH1 0x80 DUP11 ADD PUSH2 0x46EC JUMP JUMPDEST SWAP4 POP PUSH2 0x48A9 PUSH1 0xA0 DUP11 ADD PUSH2 0x46EC JUMP JUMPDEST PUSH1 0x0 PUSH1 0x20 DUP3 DUP5 SUB SLT ISZERO PUSH2 0x4931 JUMPI DUP1 DUP2 REVERT JUMPDEST POP MLOAD SWAP2 SWAP1 POP JUMP JUMPDEST PUSH1 0x0 DUP3 DUP5 MSTORE DUP3 DUP3 PUSH1 0x20 DUP7 ADD CALLDATACOPY DUP1 PUSH1 0x20 DUP5 DUP7 ADD ADD MSTORE PUSH1 0x20 PUSH1 0x1F NOT PUSH1 0x1F DUP6 ADD AND DUP6 ADD ADD SWAP1 POP SWAP4 SWAP3 POP POP POP JUMP JUMPDEST PUSH1 0x1 PUSH1 0x1 PUSH1 0xA0 SHL SUB SWAP2 SWAP1 SWAP2 AND DUP2 MSTORE PUSH1 0x20 ADD SWAP1 JUMP JUMPDEST PUSH1 0x0 PUSH1 0x1 DUP1 PUSH1 0xA0 SHL SUB DUP1 DUP11 AND DUP4 MSTORE DUP1 DUP10 AND PUSH1 0x20 DUP5 ADD MSTORE POP DUP7 PUSH1 0x40 DUP4 ADD MSTORE DUP6 PUSH1 0x60 DUP4 ADD MSTORE DUP5 PUSH1 0x80 DUP4 ADD MSTORE PUSH1 0xC0 PUSH1 0xA0 DUP4 ADD MSTORE PUSH2 0x335C PUSH1 0xC0 DUP4 ADD DUP5 DUP7 PUSH2 0x4938 JUMP JUMPDEST PUSH1 0x1 PUSH1 0x1 PUSH1 0xA0 SHL SUB SWAP4 DUP5 AND DUP2 MSTORE PUSH1 0x20 DUP2 ADD SWAP3 SWAP1 SWAP3 MSTORE SWAP1 SWAP2 AND PUSH1 0x40 DUP3 ADD MSTORE PUSH1 0x60 ADD SWAP1 JUMP JUMPDEST PUSH1 0x1 PUSH1 0x1 PUSH1 0xA0 SHL SUB SWAP5 DUP6 AND DUP2 MSTORE PUSH1 0x20 DUP2 ADD SWAP4 SWAP1 SWAP4 MSTORE SWAP3 AND PUSH1 0x40 DUP3 ADD MSTORE PUSH2 0xFFFF SWAP1 SWAP2 AND PUSH1 0x60 DUP3 ADD MSTORE PUSH1 0x80 ADD SWAP1 JUMP JUMPDEST PUSH1 0x1 PUSH1 0x1 PUSH1 0xA0 SHL SUB SWAP4 SWAP1 SWAP4 AND DUP4 MSTORE PUSH1 0x20 DUP4 ADD SWAP2 SWAP1 SWAP2 MSTORE PUSH1 0x40 DUP3 ADD MSTORE PUSH1 0x60 ADD SWAP1 JUMP JUMPDEST PUSH1 0x0 PUSH1 0x1 DUP1 PUSH1 0xA0 SHL SUB DUP8 AND DUP3 MSTORE DUP6 PUSH1 0x20 DUP4 ADD MSTORE DUP5 PUSH1 0x40 DUP4 ADD MSTORE PUSH1 0x80 PUSH1 0x60 DUP4 ADD MSTORE PUSH2 0x2F3B PUSH1 0x80 DUP4 ADD DUP5 DUP7 PUSH2 0x4938 JUMP JUMPDEST SWAP1 ISZERO ISZERO DUP2 MSTORE PUSH1 0x20 ADD SWAP1 JUMP JUMPDEST SWAP1 DUP2 MSTORE PUSH1 0x20 ADD SWAP1 JUMP JUMPDEST SWAP2 DUP3 MSTORE PUSH1 0x20 DUP3 ADD MSTORE PUSH1 0x40 ADD SWAP1 JUMP JUMPDEST SWAP4 DUP5 MSTORE PUSH1 0x20 DUP5 ADD SWAP3 SWAP1 SWAP3 MSTORE PUSH1 0x40 DUP4 ADD MSTORE ISZERO ISZERO PUSH1 0x60 DUP3 ADD MSTORE PUSH1 0x80 ADD SWAP1 JUMP JUMPDEST SWAP4 DUP5 MSTORE PUSH1 0x20 DUP5 ADD SWAP3 SWAP1 SWAP3 MSTORE PUSH1 0x40 DUP4 ADD MSTORE PUSH1 0x60 DUP3 ADD MSTORE PUSH1 0x80 ADD SWAP1 JUMP JUMPDEST PUSH1 0x20 DUP1 DUP3 MSTORE PUSH1 0xC SWAP1 DUP3 ADD MSTORE PUSH12 0x155B985D5D1A1BDC9A5E9959 PUSH1 0xA2 SHL PUSH1 0x40 DUP3 ADD MSTORE PUSH1 0x60 ADD SWAP1 JUMP JUMPDEST PUSH1 0x20 DUP1 DUP3 MSTORE PUSH1 0x15 SWAP1 DUP3 ADD MSTORE PUSH21 0xACC2EAD8E840A6D0C2E4CAE6409AD2E6DAC2E8C6D PUSH1 0x5B SHL PUSH1 0x40 DUP3 ADD MSTORE PUSH1 0x60 ADD SWAP1 JUMP JUMPDEST PUSH1 0x20 DUP1 DUP3 MSTORE PUSH1 0x4 SWAP1 DUP3 ADD MSTORE PUSH4 0x135A5B9D PUSH1 0xE2 SHL PUSH1 0x40 DUP3 ADD MSTORE PUSH1 0x60 ADD SWAP1 JUMP JUMPDEST PUSH1 0x20 DUP1 DUP3 MSTORE PUSH1 0x6 SWAP1 DUP3 ADD MSTORE PUSH6 0x52656465656D PUSH1 0xD0 SHL PUSH1 0x40 DUP3 ADD MSTORE PUSH1 0x60 ADD SWAP1 JUMP JUMPDEST PUSH1 0x20 DUP1 DUP3 MSTORE PUSH1 0x16 SWAP1 DUP3 ADD MSTORE PUSH22 0x125B9CDD59999A58DA595B9D081C995C185E5B595B9D PUSH1 0x52 SHL PUSH1 0x40 DUP3 ADD MSTORE PUSH1 0x60 ADD SWAP1 JUMP JUMPDEST PUSH1 0x20 DUP1 DUP3 MSTORE PUSH1 0x15 SWAP1 DUP3 ADD MSTORE PUSH21 0x10D1CE881B9BC81B585C9AD95D1CC81B1A5CDD1959 PUSH1 0x5A SHL PUSH1 0x40 DUP3 ADD MSTORE PUSH1 0x60 ADD SWAP1 JUMP JUMPDEST PUSH1 0x20 DUP1 DUP3 MSTORE PUSH1 0xD SWAP1 DUP3 ADD MSTORE PUSH13 0x92DCECC2D8D2C840D2DCC8CAF PUSH1 0x9B SHL PUSH1 0x40 DUP3 ADD MSTORE PUSH1 0x60 ADD SWAP1 JUMP JUMPDEST PUSH1 0x20 DUP1 DUP3 MSTORE PUSH1 0xC SWAP1 DUP3 ADD MSTORE PUSH12 0x4D6178204361706163697479 PUSH1 0xA0 SHL PUSH1 0x40 DUP3 ADD MSTORE PUSH1 0x60 ADD SWAP1 JUMP JUMPDEST PUSH1 0x20 DUP1 DUP3 MSTORE PUSH1 0xB SWAP1 DUP3 ADD MSTORE PUSH11 0x139BDD0814D95D1D1B1959 PUSH1 0xAA SHL PUSH1 0x40 DUP3 ADD MSTORE PUSH1 0x60 ADD SWAP1 JUMP JUMPDEST PUSH1 0x20 DUP1 DUP3 MSTORE PUSH1 0x16 SWAP1 DUP3 ADD MSTORE PUSH22 0x10D1CE881B585C9AD95D081A5B99195E08189BDD5B99 PUSH1 0x52 SHL PUSH1 0x40 DUP3 ADD MSTORE PUSH1 0x60 ADD SWAP1 JUMP JUMPDEST PUSH1 0x20 DUP1 DUP3 MSTORE PUSH1 0xF SWAP1 DUP3 ADD MSTORE PUSH15 0x139BC8149BDB1B08105B1B1BDDD959 PUSH1 0x8A SHL PUSH1 0x40 DUP3 ADD MSTORE PUSH1 0x60 ADD SWAP1 JUMP JUMPDEST PUSH1 0x20 DUP1 DUP3 MSTORE PUSH1 0x17 SWAP1 DUP3 ADD MSTORE PUSH32 0x496E73756666696369656E7420436F6C6C61746572616C000000000000000000 PUSH1 0x40 DUP3 ADD MSTORE PUSH1 0x60 ADD SWAP1 JUMP JUMPDEST PUSH1 0x20 DUP1 DUP3 MSTORE PUSH1 0x17 SWAP1 DUP3 ADD MSTORE PUSH32 0x4D757374204C697175696461746520416C6C2044656274000000000000000000 PUSH1 0x40 DUP3 ADD MSTORE PUSH1 0x60 ADD SWAP1 JUMP JUMPDEST PUSH1 0x20 DUP1 DUP3 MSTORE PUSH1 0xE SWAP1 DUP3 ADD MSTORE PUSH14 0x1499595B9D1C985B9D0818D85B1B PUSH1 0x92 SHL PUSH1 0x40 DUP3 ADD MSTORE PUSH1 0x60 ADD SWAP1 JUMP JUMPDEST PUSH1 0x20 DUP1 DUP3 MSTORE PUSH1 0xD SWAP1 DUP3 ADD MSTORE PUSH13 0x109BDC9C9BDDC819985A5B1959 PUSH1 0x9A SHL PUSH1 0x40 DUP3 ADD MSTORE PUSH1 0x60 ADD SWAP1 JUMP JUMPDEST PUSH1 0x20 DUP1 DUP3 MSTORE PUSH1 0xA SWAP1 DUP3 ADD MSTORE PUSH10 0x4D696E20426F72726F77 PUSH1 0xB0 SHL PUSH1 0x40 DUP3 ADD MSTORE PUSH1 0x60 ADD SWAP1 JUMP JUMPDEST PUSH1 0x20 DUP1 DUP3 MSTORE PUSH1 0xB SWAP1 DUP3 ADD MSTORE PUSH11 0x92DCECC2D8D2C8408AA89 PUSH1 0xAB SHL PUSH1 0x40 DUP3 ADD MSTORE PUSH1 0x60 ADD SWAP1 JUMP JUMPDEST PUSH1 0x20 DUP1 DUP3 MSTORE PUSH1 0x13 SWAP1 DUP3 ADD MSTORE PUSH19 0x10D1CE881B9BC81B585C9AD95D08199BDD5B99 PUSH1 0x6A SHL PUSH1 0x40 DUP3 ADD MSTORE PUSH1 0x60 ADD SWAP1 JUMP JUMPDEST PUSH1 0x20 DUP1 DUP3 MSTORE PUSH1 0xC SWAP1 DUP3 ADD MSTORE PUSH12 0x21B0B73737BA1022B73A32B9 PUSH1 0xA1 SHL PUSH1 0x40 DUP3 ADD MSTORE PUSH1 0x60 ADD SWAP1 JUMP JUMPDEST PUSH1 0x20 DUP1 DUP3 MSTORE PUSH1 0xB SWAP1 DUP3 ADD MSTORE PUSH11 0x11985A5B19590813195B99 PUSH1 0xAA SHL PUSH1 0x40 DUP3 ADD MSTORE PUSH1 0x60 ADD SWAP1 JUMP JUMPDEST PUSH1 0x20 DUP1 DUP3 MSTORE PUSH1 0x15 SWAP1 DUP3 ADD MSTORE PUSH21 0x14DD59999A58DA595B9D0810DBDB1B185D195C985B PUSH1 0x5A SHL PUSH1 0x40 DUP3 ADD MSTORE PUSH1 0x60 ADD SWAP1 JUMP JUMPDEST DUP2 MLOAD DUP2 MSTORE PUSH1 0x20 DUP1 DUP4 ADD MLOAD SWAP1 DUP3 ADD MSTORE PUSH1 0x40 DUP1 DUP4 ADD MLOAD SWAP1 DUP3 ADD MSTORE PUSH1 0x60 DUP1 DUP4 ADD MLOAD PUSH1 0x1 PUSH1 0x1 PUSH1 0xA0 SHL SUB AND SWAP1 DUP3 ADD MSTORE PUSH1 0x80 SWAP2 DUP3 ADD MLOAD SWAP2 DUP2 ADD SWAP2 SWAP1 SWAP2 MSTORE PUSH1 0xA0 ADD SWAP1 JUMP JUMPDEST PUSH1 0x1 PUSH1 0x1 PUSH1 0x80 SHL SUB SWAP2 SWAP1 SWAP2 AND DUP2 MSTORE PUSH1 0x20 ADD SWAP1 JUMP JUMPDEST PUSH2 0xFFFF SWAP3 SWAP1 SWAP3 AND DUP3 MSTORE PUSH1 0x20 DUP3 ADD MSTORE PUSH1 0x40 ADD SWAP1 JUMP JUMPDEST DUP4 DUP2 MSTORE PUSH1 0x80 DUP2 ADD PUSH1 0x20 DUP1 DUP4 ADD DUP6 PUSH1 0x0 JUMPDEST PUSH1 0x2 DUP2 LT ISZERO PUSH2 0x4EAA JUMPI DUP2 MLOAD DUP4 MSTORE SWAP2 DUP4 ADD SWAP2 SWAP1 DUP4 ADD SWAP1 PUSH1 0x1 ADD PUSH2 0x4E8D JUMP JUMPDEST POP POP POP POP DUP3 PUSH1 0x60 DUP4 ADD MSTORE SWAP5 SWAP4 POP POP POP POP JUMP JUMPDEST SWAP2 DUP3 MSTORE ISZERO ISZERO PUSH1 0x20 DUP3 ADD MSTORE PUSH1 0x40 ADD SWAP1 JUMP JUMPDEST SWAP3 DUP4 MSTORE PUSH1 0x20 DUP4 ADD SWAP2 SWAP1 SWAP2 MSTORE PUSH1 0x40 DUP3 ADD MSTORE PUSH1 0x60 ADD SWAP1 JUMP INVALID LOG2 PUSH5 0x6970667358 0x22 SLT KECCAK256 0x2C 0x49 SLOAD 0x5D EXP DUP1 0xC4 BYTE SWAP2 PUSH4 0xB4F35E13 0x2D 0x21 0xBC SWAP11 0xD0 DUP16 0x2E 0xD6 MLOAD 0xD4 0xCC 0x4C PUSH16 0x62CA10A6E864736F6C63430007060033 ",
  "sha1": "2e06d957bf05f90d0fd88540dc2a542005a59298",
  "source": "// SPDX-License-Identifier: GPL-3.0-only\npragma solidity =0.7.6;\npragma abicoder v2;\n\nimport {ActionGuards} from \"./ActionGuards.sol\";\nimport {IVaultAccountAction} from \"../../../../interfaces/notional/IVaultController.sol\";\nimport \"../../internal/vaults/VaultConfiguration.sol\";\nimport \"../../internal/vaults/VaultAccount.sol\";\nimport {VaultStateLib, VaultState} from \"../../internal/vaults/VaultState.sol\";\nimport {TokenHandler, Token, AaveHandler} from \"../../internal/balances/TokenHandler.sol\";\n\ncontract VaultAccountAction is ActionGuards, IVaultAccountAction {\n    using VaultConfiguration for VaultConfig;\n    using VaultAccountLib for VaultAccount;\n    using VaultStateLib for VaultState;\n    using AssetRate for AssetRateParameters;\n    using TokenHandler for Token;\n    using SafeInt256 for int256;\n    using SafeUint256 for uint256;\n\n    /// @notice Borrows a specified amount of fCash in the vault's borrow currency and deposits it\n    /// all plus the depositAmountExternal into the vault to mint strategy tokens.\n    /// @param account the address that will enter the vault\n    /// @param vault the vault to enter\n    /// @param depositAmountExternal some amount of additional collateral in the borrowed currency\n    /// to be transferred to vault\n    /// @param maturity the maturity to borrow at\n    /// @param fCash amount to borrow\n    /// @param maxBorrowRate maximum interest rate to borrow at\n    /// @param vaultData additional data to pass to the vault contract\n    function enterVault(\n        address account,\n        address vault,\n        uint256 depositAmountExternal,\n        uint256 maturity,\n        uint256 fCash,\n        uint32 maxBorrowRate,\n        bytes calldata vaultData\n    ) external payable override nonReentrant { \n        // Ensure that system level accounts cannot enter vaults\n        requireValidAccount(account);\n        VaultConfig memory vaultConfig = VaultConfiguration.getVaultConfigStateful(vault);\n        vaultConfig.authorizeCaller(account, VaultConfiguration.ONLY_VAULT_ENTRY);\n\n        // If the vault allows further re-entrancy then set the status back to the default\n        if (vaultConfig.getFlag(VaultConfiguration.ALLOW_REENTRANCY)) {\n            reentrancyStatus = _NOT_ENTERED;\n        }\n\n        // Vaults cannot be entered if they are paused or matured\n        require(vaultConfig.getFlag(VaultConfiguration.ENABLED), \"Cannot Enter\");\n        require(block.timestamp < maturity, \"Cannot Enter\");\n        VaultAccount memory vaultAccount = VaultAccountLib.getVaultAccount(account, vault);\n\n        uint256 strategyTokens;\n        if (vaultAccount.maturity != 0 && vaultAccount.maturity <= block.timestamp) {\n            // These strategy tokens will be transferred to the new maturity\n            strategyTokens = vaultAccount.settleVaultAccount(vaultConfig, block.timestamp);\n        }\n\n        // Deposits some amount of underlying tokens into the vault directly to serve as additional collateral when\n        // entering the vault.\n        uint256 additionalUnderlyingExternal = vaultConfig.transferUnderlyingToVaultDirect(account, depositAmountExternal);\n        vaultAccount.borrowAndEnterVault(\n            vaultConfig, maturity, fCash, maxBorrowRate, vaultData, strategyTokens, additionalUnderlyingExternal\n        );\n\n        emit VaultEnterPosition(vault, account, maturity, fCash);\n    }\n\n    /// @notice Re-enters the vault at a longer dated maturity. The account's existing borrow position will be closed\n    /// and a new borrow position at the specified maturity will be opened. Strategy token holdings will transfer to\n    /// the longer dated maturity.\n    /// @param account the address that will reenter the vault\n    /// @param vault the vault to reenter\n    /// @param fCashToBorrow amount of fCash to borrow in the next maturity\n    /// @param maturity new maturity to borrow at\n    function rollVaultPosition(\n        address account,\n        address vault,\n        uint256 fCashToBorrow,\n        uint256 maturity,\n        uint32 minLendRate,\n        uint32 maxBorrowRate,\n        bytes calldata enterVaultData\n    ) external override nonReentrant {\n        VaultConfig memory vaultConfig = VaultConfiguration.getVaultConfigStateful(vault);\n        vaultConfig.authorizeCaller(account, VaultConfiguration.ONLY_VAULT_ROLL);\n\n        // If the vault allows further re-entrancy then set the status back to the default\n        if (vaultConfig.getFlag(VaultConfiguration.ALLOW_REENTRANCY)) {\n            reentrancyStatus = _NOT_ENTERED;\n        }\n\n        VaultAccount memory vaultAccount = VaultAccountLib.getVaultAccount(account, vault);\n        // Cannot roll unless all of these requirements are met\n        require(\n            vaultConfig.getFlag(VaultConfiguration.ENABLED) &&\n            vaultConfig.getFlag(VaultConfiguration.ALLOW_ROLL_POSITION) &&\n            block.timestamp < vaultAccount.maturity && // cannot have matured yet\n            vaultAccount.maturity < maturity && // new maturity must be forward in time\n            fCashToBorrow > 0, // must borrow into the next maturity, if not, then they should just exit\n            \"No Roll Allowed\"\n        );\n\n        VaultState memory vaultState = VaultStateLib.getVaultState(vaultConfig.vault, vaultAccount.maturity);\n        // Exit the maturity pool by removing all the vault shares. All of the strategy tokens will be\n        // re-deposited into the new maturity\n        uint256 strategyTokens = vaultState.exitMaturity(vaultAccount, vaultAccount.vaultShares);\n\n        // Exit the vault first and debit the temporary cash balance with the cost to exit\n        vaultAccount.lendToExitVault(\n            vaultConfig,\n            vaultState,\n            vaultAccount.fCash.neg(), // must fully exit the fCash position\n            minLendRate,\n            block.timestamp\n        );\n\n        // This should never be the case for a healthy vault account due to the mechanics of exiting the vault\n        // above but we check it for safety here.\n        require(vaultAccount.fCash == 0, \"Failed Lend\");\n        vaultState.setVaultState(vaultConfig.vault);\n\n        // Enters the vault at the longer dated maturity\n        vaultAccount.borrowAndEnterVault(\n            vaultConfig,\n            maturity, // This is the new maturity to enter\n            fCashToBorrow,\n            maxBorrowRate,\n            enterVaultData,\n            strategyTokens,\n            0 // No additional tokens deposited in this method\n        );\n\n        emit VaultRollPosition(vault, account, maturity, fCashToBorrow);\n    }\n\n    /// @notice Prior to maturity, allows an account to withdraw their position from the vault. Will\n    /// redeem some number of vault shares to the borrow currency and close the borrow position by\n    /// lending `fCashToLend`. Any shortfall in cash from lending will be transferred from the account,\n    /// any excess profits will be transferred to the account.\n    /// Post maturity, will net off the account's debt against vault cash balances and redeem all remaining\n    /// strategy tokens back to the borrowed currency and transfer the profits to the account.\n    /// @param account the address that will exit the vault\n    /// @param vault the vault to enter\n    /// @param receiver the address that will receive profits\n    /// @param vaultSharesToRedeem amount of vault tokens to exit, only relevant when exiting pre-maturity\n    /// @param fCashToLend amount of fCash to lend\n    /// @param minLendRate the minimum rate to lend at\n    /// @param exitVaultData passed to the vault during exit\n    function exitVault(\n        address account,\n        address vault,\n        address receiver,\n        uint256 vaultSharesToRedeem,\n        uint256 fCashToLend,\n        uint32 minLendRate,\n        bytes calldata exitVaultData\n    ) external payable override nonReentrant { \n        VaultConfig memory vaultConfig = VaultConfiguration.getVaultConfigStateful(vault);\n        vaultConfig.authorizeCaller(account, VaultConfiguration.ONLY_VAULT_EXIT);\n\n        // If the vault allows further re-entrancy then set the status back to the default\n        if (vaultConfig.getFlag(VaultConfiguration.ALLOW_REENTRANCY)) {\n            reentrancyStatus = _NOT_ENTERED;\n        }\n\n        VaultAccount memory vaultAccount = VaultAccountLib.getVaultAccount(account, vault);\n\n        if (vaultAccount.maturity <= block.timestamp) {\n            // Save this off because settleVaultAccount will clear the maturity\n            uint256 maturity = vaultAccount.maturity;\n            // Past maturity, an account will be settled instead\n            uint256 strategyTokens = vaultAccount.settleVaultAccount(vaultConfig, block.timestamp);\n\n            if (vaultAccount.tempCashBalance > 0) {\n                // Transfer asset cash back to the account\n                VaultConfiguration.transferFromNotional(\n                    receiver, vaultConfig.borrowCurrencyId, vaultAccount.tempCashBalance\n                );\n                vaultAccount.tempCashBalance = 0;\n            }\n\n            // Redeems all strategy tokens and any profits are sent back to the account, it is possible for temp\n            // cash balance to be negative here if the account is insolvent\n            vaultConfig.redeemWithDebtRepayment(vaultAccount, receiver, strategyTokens, maturity, exitVaultData);\n            emit VaultExitPostMaturity(vault, account, maturity);\n        } else {\n            VaultState memory vaultState = VaultStateLib.getVaultState(vaultConfig.vault, vaultAccount.maturity);\n            // Puts a negative cash balance on the vault's temporary cash balance\n            vaultAccount.lendToExitVault(\n                vaultConfig, vaultState, fCashToLend.toInt(), minLendRate, block.timestamp\n            );\n\n            if (vaultSharesToRedeem > 0) {\n                // When an account exits the maturity it may get some asset cash credited to its temp\n                // cash balance and it will sell the strategy tokens it has a claim on.\n                uint256 strategyTokens = vaultState.exitMaturity(vaultAccount, vaultSharesToRedeem);\n\n                if (vaultAccount.tempCashBalance > 0) {\n                    // Transfer asset cash back to the account, this is possible if there is asset cash\n                    // when the vault exits the maturity\n                    VaultConfiguration.transferFromNotional(\n                        receiver, vaultConfig.borrowCurrencyId, vaultAccount.tempCashBalance\n                    );\n                    vaultAccount.tempCashBalance = 0;\n                }\n\n                vaultConfig.redeemWithDebtRepayment(\n                    vaultAccount, receiver, strategyTokens, vaultState.maturity, exitVaultData\n                );\n            }\n\n            if (vaultAccount.fCash < 0) {\n                // It's possible that the user redeems more vault shares than they lend (it is not always the case\n                // that they will be increasing their collateral ratio here, so we check that this is the case).\n                vaultConfig.checkCollateralRatio(vaultState, vaultAccount);\n            }\n\n            vaultState.setVaultState(vaultConfig.vault);\n            emit VaultExitPreMaturity(vault, account, vaultState.maturity, fCashToLend, vaultSharesToRedeem);\n        }\n\n        if (vaultAccount.fCash == 0 && vaultAccount.vaultShares == 0) {\n            // If the account has no position in the vault at this point, set the maturity to zero as well\n            vaultAccount.maturity = 0;\n        }\n        vaultAccount.setVaultAccount(vaultConfig);\n    }\n\n    /// @notice If an account is below the minimum collateral ratio, this method wil deleverage (liquidate)\n    /// that account. `depositAmountExternal` in the borrow currency will be transferred from the liquidator\n    /// and used to offset the account's debt position. The liquidator will receive either vaultShares or\n    /// cash depending.\n    /// @param account the address that will exit the vault\n    /// @param vault the vault to enter\n    /// @param liquidator the address that will receive profits from liquidation\n    /// @param depositAmountExternal amount of asset cash to deposit\n    /// @param transferSharesToLiquidator transfers the shares to the liquidator instead of redeeming them\n    /// @param redeemData calldata sent to the vault when redeeming liquidator profits\n    /// @return profitFromLiquidation amount of vaultShares or cash received from liquidation\n    function deleverageAccount(\n        address account,\n        address vault,\n        address liquidator,\n        uint256 depositAmountExternal,\n        bool transferSharesToLiquidator,\n        bytes calldata redeemData\n    ) external nonReentrant override returns (uint256 profitFromLiquidation) {\n        VaultConfig memory vaultConfig = _authenticateDeleverage(account, vault, liquidator);\n        VaultAccount memory vaultAccount = VaultAccountLib.getVaultAccount(account, vault);\n        VaultState memory vaultState = VaultStateLib.getVaultState(vault, vaultAccount.maturity);\n\n        // Check that the account has an active position. After maturity, accounts will be settled instead.\n        require(block.timestamp < vaultAccount.maturity);\n\n        // Check that the collateral ratio is below the minimum allowed\n        (int256 collateralRatio, int256 vaultShareValue) = vaultConfig.calculateCollateralRatio(\n            vaultState, account, vaultAccount.vaultShares, vaultAccount.fCash\n        );\n        require(collateralRatio < vaultConfig.minCollateralRatio , \"Sufficient Collateral\");\n\n        Token memory assetToken = TokenHandler.getAssetToken(vaultConfig.borrowCurrencyId);\n        // This will deposit some amount of cash into vaultAccount.tempCashBalance\n        _depositLiquidatorAmount(\n            liquidator, assetToken, vaultAccount, vaultConfig, depositAmountExternal, vaultShareValue\n        );\n\n        // The liquidator will purchase vault shares from the vault account at discount. The calculation is:\n        // (cashDeposited / assetCashValueOfShares) * liquidationRate * vaultShares\n        //      where cashDeposited / assetCashValueOfShares represents the share of the total vault share\n        //      value the liquidator has deposited\n        //      and liquidationRate is a percentage greater than 100% that represents their bonus\n        uint256 vaultSharesToLiquidator;\n        {\n            vaultSharesToLiquidator = vaultAccount.tempCashBalance.toUint()\n                .mul(vaultConfig.liquidationRate.toUint())\n                .mul(vaultAccount.vaultShares)\n                .div(vaultShareValue.toUint())\n                .div(uint256(Constants.RATE_PRECISION));\n        }\n\n        vaultAccount.vaultShares = vaultAccount.vaultShares.sub(vaultSharesToLiquidator);\n        // The liquidated account will lend to exit their position at a zero interest rate and forgo any future interest\n        // from asset tokens. Trading on the AMM during liquidation is risky and lending at a zero interest rate is more\n        // costly to the the liquidated account but is safer from a protocol perspective. This can be seen as a protocol\n        // level liquidation fee.\n        {\n            int256 fCashToReduce = vaultConfig.assetRate.convertToUnderlying(vaultAccount.tempCashBalance);\n            vaultAccount.updateAccountfCash(vaultConfig, vaultState, fCashToReduce, vaultAccount.tempCashBalance.neg());\n            // _calculateLiquidatorDeposit should ensure that we only ever lend up to a zero balance, but in the\n            // case of any off by one issues we clear the fCash balance by down to zero.\n            if (vaultAccount.fCash > 0) vaultAccount.fCash = 0;\n            emit VaultDeleverageAccount(\n                vault, account, vaultSharesToLiquidator, fCashToReduce \n            );\n        }\n\n        // Sets the liquidated account account\n        vaultAccount.setVaultAccount(vaultConfig);\n\n        // Redeems the vault shares for asset cash and transfers it to the designated address\n        emit VaultLiquidatorProfit(vault, account, liquidator, vaultSharesToLiquidator, transferSharesToLiquidator);\n        if (transferSharesToLiquidator) {\n            vaultState.setVaultState(vaultConfig.vault);\n            return _transferLiquidatorProfits(liquidator, vaultConfig, vaultSharesToLiquidator, vaultAccount.maturity);\n        } else {\n            return _redeemLiquidatorProfits(\n                liquidator, vaultConfig, vaultState, vaultSharesToLiquidator, redeemData, assetToken\n            );\n        }\n    }\n\n    /// @notice Authenticates a call to the deleverage method\n    function _authenticateDeleverage(\n        address account,\n        address vault,\n        address liquidator\n    ) private returns (VaultConfig memory vaultConfig) {\n        vaultConfig = VaultConfiguration.getVaultConfigStateful(vault);\n        // If the vault allows further re-entrancy then set the status back to the default\n        if (vaultConfig.getFlag(VaultConfiguration.ALLOW_REENTRANCY)) {\n            reentrancyStatus = _NOT_ENTERED;\n        }\n\n        // Authorization rules for deleveraging\n        if (vaultConfig.getFlag(VaultConfiguration.ONLY_VAULT_DELEVERAGE)) {\n            require(msg.sender == vault, \"Unauthorized\");\n        }\n\n        // Cannot liquidate self, if a vault needs to deleverage itself as a whole it has other methods \n        // in VaultAction to do so.\n        require(account != msg.sender && account != liquidator, \"Unauthorized\");\n    }\n\n    /// @notice Calculates the amount the liquidator must deposit and then transfers it into Notional,\n    /// crediting the account's temporary cash balance. Deposits must be in the form of asset cash.\n    function _depositLiquidatorAmount(\n        address liquidator,\n        Token memory assetToken,\n        VaultAccount memory vaultAccount,\n        VaultConfig memory vaultConfig,\n        uint256 _depositAmountExternal,\n        int256 vaultShareValue\n    ) private {\n        int256 depositAmountExternal = _depositAmountExternal.toInt();\n        if (assetToken.tokenType == TokenType.aToken) {\n            // Handles special accounting requirements for aTokens\n            depositAmountExternal = AaveHandler.convertToScaledBalanceExternal(\n                vaultConfig.borrowCurrencyId, depositAmountExternal\n            );\n        }\n\n        // Calculates the maximum deleverage amount\n        (int256 maxLiquidatorDepositAssetCash, bool mustLiquidateFull) = vaultAccount.calculateDeleverageAmount(\n            vaultConfig, vaultShareValue\n        );\n        // For aTokens this amount is in scaled balance external precision (the same as depositAmountExternal)\n        int256 maxLiquidatorDepositExternal = assetToken.convertToExternal(maxLiquidatorDepositAssetCash);\n\n        // NOTE: deposit amount external is always positive in this method\n        if (depositAmountExternal < maxLiquidatorDepositExternal) {\n            // If this flag is set, the liquidator must deposit more cash in order to liquidate the account\n            // down to a zero fCash balance because it will fall under the minimum borrowing limit.\n            require(!mustLiquidateFull, \"Must Liquidate All Debt\");\n        } else {\n            // In the other case, limit the deposited amount to the maximum\n            depositAmountExternal = maxLiquidatorDepositExternal;\n        }\n\n        // Transfers the amount of asset tokens into Notional and credit it to the account's temp cash balance\n        int256 assetAmountExternalTransferred = assetToken.transfer(\n            liquidator, vaultConfig.borrowCurrencyId, depositAmountExternal\n        );\n\n        vaultAccount.tempCashBalance = vaultAccount.tempCashBalance.add(\n            assetToken.convertToInternal(assetAmountExternalTransferred)\n        );\n    }\n\n    /// @notice Transfers liquidator profits in the form of vault shares to be returned to the liquidator\n    function _transferLiquidatorProfits(\n        address receiver,\n        VaultConfig memory vaultConfig,\n        uint256 vaultSharesToLiquidator,\n        uint256 maturity\n    ) private returns (uint256) {\n        // Liquidator will receive vault shares that they can redeem by calling exitVault. If the liquidator has a\n        // leveraged position on then their collateral ratio will increase\n        VaultAccount memory liquidator = VaultAccountLib.getVaultAccount(receiver, vaultConfig.vault);\n        // The liquidator must be able to receive the vault shares (i.e. not be in the vault at all or be in the\n        // vault at the same maturity). If the liquidator has fCash in the current maturity then their collateral\n        // ratio will increase as a result of the liquidation, no need to check their collateral position.\n        require(liquidator.maturity == 0 || liquidator.maturity == maturity, \"Vault Shares Mismatch\"); // dev: has vault shares\n        liquidator.maturity = maturity;\n        liquidator.vaultShares = liquidator.vaultShares.add(vaultSharesToLiquidator);\n        liquidator.setVaultAccount(vaultConfig);\n\n        return vaultSharesToLiquidator;\n    }\n\n    /// @notice Redeems liquidator profits back to asset cash and transfers it to the liquidator\n    function _redeemLiquidatorProfits(\n        address liquidator,\n        VaultConfig memory vaultConfig,\n        VaultState memory vaultState,\n        uint256 vaultShares,\n        bytes calldata redeemData,\n        Token memory assetToken\n    ) private returns (uint256) {\n        (uint256 assetCash, uint256 strategyTokens) = vaultState.exitMaturityDirect(vaultShares);\n        int256 assetCashInternal = vaultConfig.redeemWithoutDebtRepayment(\n            liquidator, strategyTokens, vaultState.maturity, redeemData\n        );\n        assetCashInternal = assetCashInternal.add(assetCash.toInt());\n\n        vaultState.setVaultState(vaultConfig.vault);\n\n        // Returns a negative amount to signify assets have left the protocol. For aTokens this is the scaled\n        // balance external.\n        int256 actualTransferExternal = assetToken.transfer(\n            liquidator, vaultConfig.borrowCurrencyId, assetToken.convertToExternal(assetCashInternal.neg())\n        );\n\n        if (assetToken.tokenType == TokenType.aToken) {\n            // Convert this back to aToken balanceOf amount to return back to the liquidator\n            Token memory underlyingToken = TokenHandler.getUnderlyingToken(vaultConfig.borrowCurrencyId);\n            actualTransferExternal = AaveHandler.convertFromScaledBalanceExternal(\n                underlyingToken.tokenAddress, actualTransferExternal\n            );\n        }\n\n        // actualTransferExternal is negative to signify assets have left the protocol\n        return actualTransferExternal.neg().toUint();\n    }\n\n    /** View Methods **/\n    function getVaultAccount(address account, address vault) external override view returns (VaultAccount memory) {\n        return VaultAccountLib.getVaultAccount(account, vault);\n    }\n\n    function getVaultAccountDebtShares(\n        address account,\n        address vault\n    ) external override view returns (\n        uint256 debtSharesMaturity,\n        uint256[2] memory accountDebtShares,\n        uint256 accountStrategyTokens\n    ) {\n        VaultAccountSecondaryDebtShareStorage storage s = \n            LibStorage.getVaultAccountSecondaryDebtShare()[account][vault];\n        debtSharesMaturity = s.maturity;\n        accountDebtShares[0] = s.accountDebtSharesOne;\n        accountDebtShares[1] = s.accountDebtSharesTwo;\n\n        VaultAccount memory vaultAccount = VaultAccountLib.getVaultAccount(account, vault);\n        VaultState memory vaultState = VaultStateLib.getVaultState(vault, vaultAccount.maturity);\n        (/* */, accountStrategyTokens) = vaultState.getPoolShare(vaultAccount.vaultShares);\n    }\n\n    function getVaultAccountCollateralRatio(address account, address vault) external override view returns (\n        int256 collateralRatio,\n        int256 minCollateralRatio,\n        int256 maxLiquidatorDepositAssetCash,\n        bool mustLiquidateFull\n    ) {\n        VaultConfig memory vaultConfig = VaultConfiguration.getVaultConfigView(vault);\n        VaultAccount memory vaultAccount = VaultAccountLib.getVaultAccount(account, vault);\n        VaultState memory vaultState = VaultStateLib.getVaultState(vault, vaultAccount.maturity);\n        minCollateralRatio = vaultConfig.minCollateralRatio;\n\n        if (vaultState.isSettled) {\n            // In this case, the maturity has been settled and although the vault account says that it has\n            // some fCash balance it does not actually owe any debt anymore.\n            collateralRatio = type(int256).max;\n        } else {\n            int256 vaultShareValue;\n            (collateralRatio, vaultShareValue) = vaultConfig.calculateCollateralRatio(\n                vaultState, account, vaultAccount.vaultShares, vaultAccount.fCash\n            );\n\n            // Calculates liquidation factors if the account is eligible\n            if (collateralRatio < minCollateralRatio) {\n                (maxLiquidatorDepositAssetCash, mustLiquidateFull) = vaultAccount.calculateDeleverageAmount(\n                    vaultConfig, vaultShareValue\n                );\n            }\n        }\n    }\n\n    function getLibInfo() external pure returns (address) {\n        return address(TradingAction);\n    }\n}\n",
  "sourcePath": "contracts/external/actions/VaultAccountAction.sol",
  "type": "contract"
}