{
  "abi": [
    {
      "inputs": [
        {
          "internalType": "address",
          "name": "account",
          "type": "address"
        },
        {
          "internalType": "address",
          "name": "vault",
          "type": "address"
        },
        {
          "internalType": "address",
          "name": "liquidator",
          "type": "address"
        },
        {
          "internalType": "uint256",
          "name": "depositAmountExternal",
          "type": "uint256"
        },
        {
          "internalType": "bytes",
          "name": "redeemData",
          "type": "bytes"
        }
      ],
      "name": "deleverageAccount",
      "outputs": [
        {
          "internalType": "uint256",
          "name": "profitFromLiquidation",
          "type": "uint256"
        }
      ],
      "stateMutability": "nonpayable",
      "type": "function"
    },
    {
      "inputs": [
        {
          "internalType": "address",
          "name": "account",
          "type": "address"
        },
        {
          "internalType": "address",
          "name": "vault",
          "type": "address"
        },
        {
          "internalType": "uint256",
          "name": "depositAmountExternal",
          "type": "uint256"
        },
        {
          "internalType": "uint256",
          "name": "maturity",
          "type": "uint256"
        },
        {
          "internalType": "bool",
          "name": "useUnderlying",
          "type": "bool"
        },
        {
          "internalType": "uint256",
          "name": "fCash",
          "type": "uint256"
        },
        {
          "internalType": "uint32",
          "name": "maxBorrowRate",
          "type": "uint32"
        },
        {
          "internalType": "bytes",
          "name": "vaultData",
          "type": "bytes"
        }
      ],
      "name": "enterVault",
      "outputs": [],
      "stateMutability": "payable",
      "type": "function"
    },
    {
      "inputs": [
        {
          "internalType": "address",
          "name": "account",
          "type": "address"
        },
        {
          "internalType": "address",
          "name": "vault",
          "type": "address"
        },
        {
          "internalType": "uint256",
          "name": "vaultSharesToRedeem",
          "type": "uint256"
        },
        {
          "internalType": "uint256",
          "name": "fCashToLend",
          "type": "uint256"
        },
        {
          "internalType": "uint32",
          "name": "minLendRate",
          "type": "uint32"
        },
        {
          "internalType": "bool",
          "name": "useUnderlying",
          "type": "bool"
        },
        {
          "internalType": "bytes",
          "name": "exitVaultData",
          "type": "bytes"
        }
      ],
      "name": "exitVault",
      "outputs": [],
      "stateMutability": "nonpayable",
      "type": "function"
    },
    {
      "inputs": [],
      "name": "getLibInfo",
      "outputs": [
        {
          "internalType": "address",
          "name": "",
          "type": "address"
        }
      ],
      "stateMutability": "pure",
      "type": "function"
    },
    {
      "inputs": [
        {
          "internalType": "address",
          "name": "account",
          "type": "address"
        },
        {
          "internalType": "address",
          "name": "vault",
          "type": "address"
        }
      ],
      "name": "getVaultAccount",
      "outputs": [
        {
          "components": [
            {
              "internalType": "int256",
              "name": "fCash",
              "type": "int256"
            },
            {
              "internalType": "uint256",
              "name": "maturity",
              "type": "uint256"
            },
            {
              "internalType": "uint256",
              "name": "vaultShares",
              "type": "uint256"
            },
            {
              "internalType": "address",
              "name": "account",
              "type": "address"
            },
            {
              "internalType": "int256",
              "name": "tempCashBalance",
              "type": "int256"
            }
          ],
          "internalType": "struct VaultAccount",
          "name": "",
          "type": "tuple"
        }
      ],
      "stateMutability": "view",
      "type": "function"
    },
    {
      "inputs": [
        {
          "internalType": "address",
          "name": "account",
          "type": "address"
        },
        {
          "internalType": "address",
          "name": "vault",
          "type": "address"
        }
      ],
      "name": "getVaultAccountCollateralRatio",
      "outputs": [
        {
          "internalType": "int256",
          "name": "collateralRatio",
          "type": "int256"
        },
        {
          "internalType": "int256",
          "name": "minCollateralRatio",
          "type": "int256"
        }
      ],
      "stateMutability": "view",
      "type": "function"
    },
    {
      "inputs": [
        {
          "internalType": "address",
          "name": "account",
          "type": "address"
        },
        {
          "internalType": "address",
          "name": "vault",
          "type": "address"
        }
      ],
      "name": "getVaultAccountMaturity",
      "outputs": [
        {
          "internalType": "uint256",
          "name": "",
          "type": "uint256"
        }
      ],
      "stateMutability": "view",
      "type": "function"
    },
    {
      "inputs": [],
      "name": "owner",
      "outputs": [
        {
          "internalType": "address",
          "name": "",
          "type": "address"
        }
      ],
      "stateMutability": "view",
      "type": "function"
    },
    {
      "inputs": [],
      "name": "pauseGuardian",
      "outputs": [
        {
          "internalType": "address",
          "name": "",
          "type": "address"
        }
      ],
      "stateMutability": "view",
      "type": "function"
    },
    {
      "inputs": [],
      "name": "pauseRouter",
      "outputs": [
        {
          "internalType": "address",
          "name": "",
          "type": "address"
        }
      ],
      "stateMutability": "view",
      "type": "function"
    },
    {
      "inputs": [
        {
          "internalType": "address",
          "name": "account",
          "type": "address"
        },
        {
          "internalType": "address",
          "name": "vault",
          "type": "address"
        },
        {
          "internalType": "uint256",
          "name": "fCashToBorrow",
          "type": "uint256"
        },
        {
          "internalType": "uint256",
          "name": "maturity",
          "type": "uint256"
        },
        {
          "components": [
            {
              "internalType": "uint32",
              "name": "minLendRate",
              "type": "uint32"
            },
            {
              "internalType": "uint32",
              "name": "maxBorrowRate",
              "type": "uint32"
            },
            {
              "internalType": "bytes",
              "name": "enterVaultData",
              "type": "bytes"
            }
          ],
          "internalType": "struct RollVaultOpts",
          "name": "opts",
          "type": "tuple"
        }
      ],
      "name": "rollVaultPosition",
      "outputs": [],
      "stateMutability": "nonpayable",
      "type": "function"
    }
  ],
  "bytecode": "608060405234801561001057600080fd5b506144cf806100206000396000f3fe60806040526004361061009c5760003560e01c80638da5cb5b116100645780638da5cb5b1461015e5780638f0ba30f14610173578063c025d1a514610186578063c4c96dae146101b3578063e696e462146101c8578063f292c415146101e85761009c565b80630c09ff56146100a157806324a3d622146100d7578063647cc196146100f95780636dad6afb146101275780638246336714610149575b600080fd5b3480156100ad57600080fd5b506100c16100bc366004613d64565b610208565b6040516100ce919061409d565b60405180910390f35b3480156100e357600080fd5b506100ec610229565b6040516100ce9190613fed565b34801561010557600080fd5b50610119610114366004613d64565b610238565b6040516100ce9291906140a6565b34801561013357600080fd5b50610147610142366004613f24565b6102ab565b005b34801561015557600080fd5b506100ec610437565b34801561016a57600080fd5b506100ec610446565b610147610181366004613e0a565b61045d565b34801561019257600080fd5b506101a66101a1366004613d64565b610558565b6040516100ce91906143ee565b3480156101bf57600080fd5b506100ec610574565b3480156101d457600080fd5b506101476101e3366004613eae565b61058c565b3480156101f457600080fd5b506100c1610203366004613d8d565b61071e565b600061021c83610217846109da565b6109eb565b6020015190505b92915050565b6002546001600160a01b031681565b600080600061024684610a6a565b9050600061025486836109eb565b90506000610266868360200151610a99565b90508260a001519350806040015115610288576001600160ff1b0394506102a1565b6040820151825161029d918591849190610b37565b5094505b5050509250929050565b6002600a5414156102d75760405162461bcd60e51b81526004016102ce906142d4565b60405180910390fd5b6002600a5560006102e788610ba0565b90506102f5818a6008610bc4565b61030181610100610c2e565b1561030c576001600a555b60006103188a836109eb565b9050428160200151116103625760208101516000610337838542610c43565b905061035561034a858e84868b8b610d87565b608085015190610f79565b6080840152506103f39050565b600061037683600001518360200151610a99565b905088156103ac57600061038b82848c610f8f565b82519091506103a59061034a9086908f9085908b8b610d87565b6080840152505b6103c583826103ba8b610fee565b859291908b4261100c565b8151600013156103e457604082015182516103e49185918491906110d1565b82516103f190829061110d565b505b6103fe818387611229565b805115801561040f57506040810151155b1561041c57600060208201525b6104268183611363565b50506001600a555050505050505050565b6001546001600160a01b031681565b60005464010000000090046001600160a01b031681565b6002600a5414156104805760405162461bcd60e51b81526004016102ce906142d4565b6002600a5561048e8961147d565b600061049989610ba0565b90506104a7818b6004610bc4565b6104b381610100610c2e565b156104be576001600a555b6104c9816001610c2e565b6104e55760405162461bcd60e51b81526004016102ce90614374565b60006104f18b836109eb565b90506000816020015160001415801561050e575042826020015111155b156105215761051e828442610c43565b90505b60408301516105359083908e908d8c6114cc565b61054582848b8a8a8a8a886115e1565b50506001600a5550505050505050505050565b610560613b59565b61056d83610217846109da565b9392505050565b73__TradingAction_________________________90565b6002600a5414156105af5760405162461bcd60e51b81526004016102ce906142d4565b6002600a5560006105bf85610ba0565b90506105cd81876010610bc4565b6105d981610100610c2e565b156105e4576001600a555b60006105f087836109eb565b90506105fd826001610c2e565b801561060f575061060f826002610c2e565b801561061e5750806020015142105b801561062d5750838160200151105b80156106395750600085115b6106555760405162461bcd60e51b81526004016102ce9061423d565b600061066983600001518360200151610a99565b9050600061068683846040015184610f8f9092919063ffffffff16565b90506106b2848361069a8660000151611678565b6106a760208a018a613fd3565b87939291904261100c565b8251156106d15760405162461bcd60e51b81526004016102ce9061439a565b83516106de90839061110d565b61070e8487896106f460408a0160208b01613fd3565b61070160408b018b614454565b89959493929190886115e1565b50506001600a5550505050505050565b60006002600a5414156107435760405162461bcd60e51b81526004016102ce906142d4565b6002600a55600061075387610ba0565b905061076181610100610c2e565b1561076c576001600a555b610777816020610c2e565b156107a457336001600160a01b038816146107a45760405162461bcd60e51b81526004016102ce906140b4565b6001600160a01b03881633148015906107cf5750856001600160a01b0316886001600160a01b031614155b6107eb5760405162461bcd60e51b81526004016102ce906140b4565b60006107f789836109eb565b90506000610809898360200151610a99565b90508160200151421061081b57600080fd5b604082015182516000918291610835918791869190610b37565b915091508460a00151821261085c5760405162461bcd60e51b81526004016102ce906143bf565b600061086f866040015161ffff16611686565b905061087e8186888d86611699565b6040870151909a506108969086908d908d60006114cc565b60006108dd633b9aca006108d76108ac86611710565b6108d78a604001516108d16108c48e60c00151611710565b6108d18e60800151611710565b9061171f565b90611746565b60408701519091506108ef9082611765565b604087015260808601516101608801516109159161090d919061177a565b875190610f79565b8087526000121561092557600086525b600060808701526109368688611363565b610941876080610c2e565b1561097157865161095390869061110d565b6109638c888389602001516117ad565b9750505050505050506109cb565b60006109818d8988858f8f61181d565b905060006109ac8e8a6040015161ffff166109a361099e86610fee565b611678565b8792919061186e565b90506109bf6109ba82611678565b611710565b99505050505050505050505b6001600a559695505050505050565b6109e2613b91565b61022382611916565b6109f3613b59565b60006109fd611a95565b6001600160a01b0394851660008181526020928352604080822096519097168152948252858520546001600160501b038082168703865263ffffffff600160a01b83041693860193909352600160501b900490911694830194909452506060810192909252608082015290565b610a72613b91565b610a7b82611916565b9050610a8e816040015161ffff16611aa2565b610160820152919050565b610aa1613c0e565b6000610aab611aee565b6001600160a01b03909416600090815260209485526040808220858352865280822094845284546001600160501b0380821660090b9093039685019690965260ff600160f01b870416151590840152600160501b8086048216608085015260019094015480821660a0850152600160a01b909504811660608401529290930490911660c0820152919050565b600080610b45858786611afb565b90506000610b61610b5585611678565b61016089015190611b5e565b90506000610b6f8383611b89565b905060008213610b88576001600160ff1b039350610b95565b610b928183611b9f565b93505b505094509492505050565b610ba8613b91565b610bb182611916565b9050610a8e816040015161ffff16611bb8565b610bce8382610c2e565b15610c015782516001600160a01b03163314610bfc5760405162461bcd60e51b81526004016102ce906140b4565b610c29565b6001600160a01b0382163314610c295760405162461bcd60e51b81526004016102ce906140b4565b505050565b60209190910151811661ffff90811691161490565b600080610c5884600001518660200151610a99565b90508060400151610c7b5760405162461bcd60e51b81526004016102ce906141e8565b6000610c94856040015161ffff16876020015186611bce565b90506000610cc16305f5e100610cbb8560c00151610cb58760a00151610fee565b90611d3e565b90611d8c565b90506000610cd188858585611dbd565b90506000610d02610cef866020015186611b5e90919063ffffffff16565b610cfc8760800151610fee565b90610f79565b90506000610d1484610cfc878561177a565b90506000610d3382610cbb610d2c8a60a00151610fee565b8790611d3e565b90506000610d4583610cbb8787611d3e565b60008d5260808d0151909150610d5b9082610f79565b60808d0152600060408d0181905260208d0152610d7782611710565b9c9b505050505050505050505050565b600084610d9657506000610f6f565b6000610da9886040015161ffff16611686565b9050600081600001516001600160a01b03166370a08231306040518263ffffffff1660e01b8152600401610ddd9190613fed565b60206040518083038186803b158015610df557600080fd5b505afa158015610e09573d6000803e3d6000fd5b505050506040513d601f19601f82011682018060405250810190610e2d9190613fbb565b8951604051634d6dc4df60e11b81529192506001600160a01b031690639adb89be90610e65908b908b908b908b908b90600401614051565b600060405180830381600087803b158015610e7f57600080fd5b505af1158015610e93573d6000803e3d6000fd5b505083516040516370a0823160e01b8152600093506001600160a01b0390911691506370a0823190610ec9903090600401613fed565b60206040518083038186803b158015610ee157600080fd5b505afa158015610ef5573d6000803e3d6000fd5b505050506040513d601f19601f82011682018060405250810190610f199190613fbb565b90506000610f2f610f2a8385611765565b610fee565b9050600584606001516005811115610f4357fe5b1415610f5e57610f5b8b6040015161ffff1682611e42565b90505b610f688482611ec9565b9450505050505b9695505050505050565b8181018281121560008312151461022357600080fd5b8251602083015160009114610fa357600080fd5b6040830151610fb29083611765565b60408401526000610fc38584611ef9565b92509050610fde610fd382610fee565b608086015190610f79565b6080909401939093529392505050565b60006001600160ff1b0382111561100457600080fd5b50805b919050565b855160009061101b9085610f79565b131561102657600080fd5b8560200151811061103657600080fd5b60006110538660400151886020015186868a610100015187611f50565b9050806110715761016086015161106e9061099e9086611b5e565b90505b600081131561107f57600080fd5b608087015161108e9082610f79565b6080880152865161109f9085610f79565b875260208501516110b09085610f79565b6020860152855160408701516110c7919086612082565b5050505050505050565b60006110df85858585610b37565b509050808560a0015113156111065760405162461bcd60e51b81526004016102ce90614266565b5050505050565b6000611117611aee565b6001600160a01b038316600090815260208281526040808320875184529091529081902090850151919250901561114d57600080fd5b6111656111606109ba8660200151611678565b612141565b815469ffffffffffffffffffff19166001600160501b0391909116178155608084015161119190612141565b81546001600160501b0391909116600160501b0269ffffffffffffffffffff60501b1990911617815560a08401516111c890612141565b60018201805469ffffffffffffffffffff19166001600160501b039290921691909117905560608401516111fb90612141565b81546001600160501b0391909116600160a01b0269ffffffffffffffffffff60a01b19909116179055505050565b6040820151600061123d61ffff8316611686565b905060006112586112518760800151611678565b8390612157565b905060008112156112b55783156112915761128b8361ffff1687606001516112826109ba85611678565b8592919061218f565b506112a9565b60608601516112a790839061ffff86168461186e565b505b6000608087015261135b565b600084156113175760006112cc8561ffff16612225565b90506112f46112ed6112e18a60800151611678565b6101608a01519061177a565b8290612238565b92506305f5e10081604001511215611310576127109150611315565b606491505b505b6113308788606001518661132a86611710565b896114cc565b8660800151600013158015611349575080876080015113155b61135257600080fd5b50600060808701525b505050505050565b600061136d611a95565b60608401516001600160a01b039081166000908152602083815260408083208751909416835292905220608085015191925090156113aa57600080fd5b835115806113c6575083516113be90611678565b836060015113155b6113e25760405162461bcd60e51b81526004016102ce90614323565b6113f56111606109ba8660000151611678565b815469ffffffffffffffffffff19166001600160501b0391909116178155604084015161142190612141565b81546001600160501b0391909116600160501b0269ffffffffffffffffffff60501b19909116178155602084015161145890612274565b815463ffffffff91909116600160a01b0263ffffffff60a01b19909116179055505050565b6001600160a01b03811661149057600080fd5b6001600160a01b0381163014156114a657600080fd5b60006114b182612287565b5050505061ffff169050806000146114c857600080fd5b5050565b816114d657611106565b60006114e183610fee565b905060006114f28561ffff16611686565b90506000831561157e57600061150b8761ffff16612225565b9050600060038260600151600581111561152157fe5b141561154d573487146115465760405162461bcd60e51b81526004016102ce90614127565b5083611560565b61155d828a61ffff8b168861186e565b90505b6115758861156d83611710565b8691906122f3565b925050506115ba565b60058260600151600581111561159057fe5b14156115a7576115a48661ffff1684611e42565b92505b6115b7828861ffff89168661186e565b90505b6115d26115c78383611ec9565b60808a015190610f79565b60808901525050505050505050565b85886020015114806115f257508751155b6115fb57600080fd5b600061160b886000015188610a99565b9050851561162d5761162d8989838a61162661099e8c610fee565b8a426123d9565b61163b818a8a8588886124b3565b875161164890829061110d565b6116528989611363565b851561166d576040890151895161166d918a918491906110d1565b505050505050505050565b600061022360001983611d3e565b61168e613c4d565b6102238260006125b7565b600080806116a8878786612665565b9150915060006116ca6109ba8860400151858c6127289092919063ffffffff16565b9050808610156116fd5781156116f25760405162461bcd60e51b81526004016102ce9061429d565b859350505050611707565b9250611707915050565b95945050505050565b60008082121561100457600080fd5b60008261172e57506000610223565b8282028284828161173b57fe5b041461056d57600080fd5b600080821161175457600080fd5b81838161175d57fe5b049392505050565b60008282111561177457600080fd5b50900390565b6000806117a58460400151610cbb6402540be400610cbb878960200151611d3e90919063ffffffff16565b949350505050565b6000806117ba86866109eb565b90508060200151600014806117d25750828160200151145b6117ee5760405162461bcd60e51b81526004016102ce906140da565b602081018390526040810151611804908561276d565b60408201526118138186611363565b5091949350505050565b6000808061182b8787611ef9565b885191935091506118529061184b906109ba908b908d9086908b8b610d87565b839061276d565b885190925061186290889061110d565b50979650505050505050565b8060058560600151600581111561188157fe5b14156118a657600061189284612225565b90506118a281600001518461277f565b9250505b60008213156118d25760006118bc868685612805565b90508560200151156118cc578091505b506117a5565b6003856060015160058111156118e457fe5b1415611901576118fc846118f784611678565b6128f8565b6117a5565b84516117a5908561191185611678565b61292e565b61191e613b91565b60006119286129a5565b6001600160a01b03841660008181526020838152604091829020928652825461ffff8082169288019290925262010000810490911691860191909152919250906119899063ffffffff6401000000009091048116906305f5e10090611d3e16565b606084015280546119a790600160501b900460ff166207a12061171f565b608084015280546119cb9068010000000000000000900461ffff16620186a061171f565b60a084015280546119ea90600160701b900461ffff16620186a061171f565b610120840152805460649060ff600160581b90910416633b9aca00020560c08401528054600160601b810460ff90811660e0860152600160681b90910416610100840152604080516060810191829052906001830190600390826000855b82829054906101000a900461ffff1661ffff1681526020019060020190602082600101049283019260010382029150808411611a4857905050505050508361014001819052505050919050565b60008061022360166129ae565b611aaa613c7c565b6000806000611ab8856129c7565b604080516060810182526001600160a01b039093168352602083019390935260ff16600a0a918101919091529350505050919050565b60008061022360156129ae565b600081611b0a5750600061056d565b600080611b178685612a88565b915091506000611b3586604001518760000151848a60000151612ad4565b9050611b53611b4384610fee565b610160880151610cfc9084611b5e565b979650505050505050565b6000806117a58460200151610cbb8660400151610cb56402540be40088611d3e90919063ffffffff16565b8082038281131560008312151461022357600080fd5b600061056d611bb284633b9aca00611d3e565b83611d8c565b611bc0613c7c565b6000806000611ab885612b8e565b611bd6613c7c565b600080611be38686612c13565b915091508160001415611d13576000611bfb87612b8e565b91945090925090506001600160a01b03811615611d11576000611c1c612c5c565b9050856000108015611c2e5750858711155b8015611c3f575064ffffffffff8611155b611c4857600080fd5b836000128015611c5f57506001600160801b038413155b611c6857600080fd5b6000888152602082815260408083208a845290915290819020805464ffffffffff191664ffffffffff89161774ffffffffffffffffffffffffffffffff00000000001916650100000000006001600160801b038816021760ff60a81b1916600160a81b60ff871602178155905188908a907f0fdfa6885701e2f1f42e4187b9231cf81c1fe23671ef64fa46f34ddb56c1dc1890611d0690899061442c565b60405180910390a350505b505b6040805160608101825260008152602081019390935260ff909116600a0a9082015290509392505050565b818102600019831415611d6e57811580611d60575082828281611d5d57fe5b05145b611d6957600080fd5b610223565b821580611d83575081838281611d8057fe5b05145b61022357600080fd5b600081600019148015611da25750600160ff1b83145b15611dac57600080fd5b818381611db557fe5b059392505050565b600080611de1611dda611dd38760800151610fee565b869061177a565b8490610f79565b9050611e0c8660000151610cfc611dfb8860600151610fee565b610cbb85610cb58c60400151610fee565b91506000821215611e3957611e2f611e248584611b5e565b608088015190610f79565b6080870152600091505b50949350505050565b600081611e5157506000610223565b60008213611e5e57600080fd5b6000611e6984612225565b90506000611e7a8260000151612c69565b9050600281056b033b2e3c9fd0803ce80000006001600160ff1b0382900305851315611ea557600080fd5b81816b033b2e3c9fd0803ce800000087020181611ebe57fe5b059695505050505050565b60006305f5e10083604001511415611ee2575080610223565b604083015161056d90610cbb846305f5e100611d3e565b600080611f068484612a88565b60808601519193509150611f1a9083611765565b608085015260a0840151611f2e9082611765565b60a08501526060840151611f429084611765565b606090940193909352929050565b600080611f608861ffff16612ca4565b9050838160ff161115611f7257600080fd5b600080611f838360ff168a87612cba565b915091508015611f9257600080fd5b6000611f9d89612d82565b90506affffffffffffffffffffff8110611fb657600080fd5b600060788963ffffffff16901b609883901b60f086901b60f860008e13611fde576001611fe1565b60005b6005811115611fec57fe5b60ff16901b17171760001b905073__TradingAction_________________________63e50f349e8d836040518363ffffffff1660e01b8152600401612032929190614440565b60206040518083038186803b15801561204a57600080fd5b505af415801561205e573d6000803e3d6000fd5b505050506040513d601f19601f82011682018060405250810190610d779190613fbb565b60008061208d612da3565b6001600160a01b03861660009081526020918252604080822061ffff881683529092522080549091506120d090600160501b90046001600160501b031684611b89565b915060008312156121055780546001600160501b03168213156121055760405162461bcd60e51b81526004016102ce906141c2565b61211161116083611710565b81546001600160501b0391909116600160501b0269ffffffffffffffffffff60501b199091161790559392505050565b60006001600160501b0382111561100457600080fd5b60006305f5e10083604001511415612170575080610223565b61056d6305f5e100610cbb856040015185611d3e90919063ffffffff16565b6000806002866060015160058111156121a457fe5b14156121bc576121b5868585612db0565b9050612219565b60006121c786612225565b90506005876060015160058111156121db57fe5b14156121f3576121ec818686612e6d565b9150612217565b60018760600151600581111561220557fe5b141561009c576121ec87828787612f1e565b505b610f6f61099e82610fee565b61222d613c4d565b6102238260016125b7565b60006305f5e10083604001511215612260576122596001610cfc8585612157565b9050610223565b61056d8361226f846001610f79565b612157565b600063ffffffff82111561100457600080fd5b60008060008060008061229861301c565b6001600160a01b039097166000908152602097909752505060409094205461ffff81169563ffffffff620100008304811696506601000000000000830416945060ff600160501b8304169350600160581b90910460d81b9150565b60008060058560600151600581111561230857fe5b1461231a576370a0823160e01b612323565b630ed1279f60e11b5b9050600061233686600001513084613029565b905060058660600151600581111561234a57fe5b141561237157600061235f8661ffff16612225565b905061236b818661313b565b506123b9565b60018660600151600581111561238357fe5b14156123985761239386856131a6565b6123b9565b6002866060015160058111156123aa57fe5b141561009c5761239386613248565b60006123ca87600001513085613029565b9050611b53610f2a8284613287565b600083126123e657600080fd5b60006123ff87604001518686868b610100015187611f50565b9050600081136124215760405162461bcd60e51b81526004016102ce906142fc565b60208601516124309085610f79565b602087015287516124419085610f79565b885260808801516124529082610f79565b608089015250865161246390611678565b866060015113156124865760405162461bcd60e51b81526004016102ce90614323565b60006124928583611765565b90506124a0878986846132de565b61166d8760000151886040015186612082565b60008560800151121580156124ca57506080860151155b6124d357600080fd5b8551602086015110156124fb576040850151156124ef57600080fd5b8551602086015261250c565b855160208601511461250c57600080fd5b60608501516080860151875161253092612529928892878761339c565b849061276d565b60006080870181905260608801519194509061254d57508261256f565b61256c8760a001516108d789606001518761171f90919063ffffffff16565b90505b60a087015161257e908561276d565b60a08801526060870151612592908261276d565b606088015260408601516125a6908261276d565b604090960195909552505050505050565b6125bf613c4d565b60006125c961359f565b6000858152602082815260408083208715158452825291829020825160a08101845281546001600160a01b038116825260ff600160a01b82048116151594830194909452600160b01b81048416600a0a9482019490945293945092916060830191600160a81b90910416600581111561263e57fe5b81529154600160b81b900468ffffffffffffffffff16602090920191909152949350505050565b6000806000612686633b9aca00866101200151610f7990919063ffffffff16565b905060006126a661269a8860000151611678565b61016088015190611b5e565b90506126dc6126c28760c0015184611b8990919063ffffffff16565b6126d6876126d085876135ac565b90611b89565b90611b9f565b935060006126ea8286611b89565b9050600061270a8860600151896101600151611b5e90919063ffffffff16565b90508082121561271c57829550600194505b50505050935093915050565b60006127348483612157565b905060058460600151600581111561274857fe5b141561056d57600061275d8461ffff16612225565b905061170781600001518361277f565b60008282018381101561056d57600080fd5b60008161278e57506000610223565b600061279984612c69565b905060006127a684612d82565b9050816b019d971e4fe8401e74000001600160ff1b03816127c357fe5b058113156127d057600080fd5b6b033b2e3c9fd0803ce80000006b019d971e4fe8401e740000008383020105600085136117075761280081611678565b610f6f565b600080808060058760600151600581111561281c57fe5b1461282e576370a0823160e01b612837565b630ed1279f60e11b5b9050866020015115612853578651612850903083613029565b92505b86516128609087876135c5565b866020015180612874575060008760800151115b15612889578651612886903083613029565b91505b6080870151156128c45760006128a7886128a285610fee565b611ec9565b90506128b68860800151610fee565b8113156128c257600080fd5b505b8660200151156128e5576128db610f2a8385613287565b935050505061056d565b6128db85610fee565b5050509392505050565b6040516001600160a01b0383169082156108fc029083906000818181858888f19350505050158015610c29573d6000803e3d6000fd5b826001600160a01b031663a9059cbb83836040518363ffffffff1660e01b815260040180836001600160a01b0316815260200182815260200192505050600060405180830381600087803b15801561298557600080fd5b505af1158015612999573d6000803e3d6000fd5b50505050610c2961361d565b60008061022360145b6000620f42408260188111156129c057fe5b0192915050565b60008060008060006129d88661368a565b909250905060006001600160a01b0383166129fd5750600090506402540be400612a7d565b826001600160a01b031663b2fffb046040518163ffffffff1660e01b815260040160206040518083038186803b158015612a3657600080fd5b505afa158015612a4a573d6000803e3d6000fd5b505050506040513d601f19601f82011682018060405250810190612a6e9190613fbb565b905060008113612a7d57600080fd5b969195509350915050565b600080612aaa84606001516108d786608001518661171f90919063ffffffff16565b9150612acb84606001516108d78660a001518661171f90919063ffffffff16565b90509250929050565b600080612ae48661ffff16612225565b9050806040015160001415612b0357612b008661ffff16611686565b90505b610f6f612b87866001600160a01b031663bc3b901887876040518363ffffffff1660e01b8152600401612b379291906140a6565b60206040518083038186803b158015612b4f57600080fd5b505afa158015612b63573d6000803e3d6000fd5b505050506040513d601f19601f82011682018060405250810190610f2a9190613fbb565b8290611ec9565b6000806000806000612b9f8661368a565b909250905060006001600160a01b038316612bc45750600090506402540be400612a7d565b826001600160a01b0316631ee108336040518163ffffffff1660e01b8152600401602060405180830381600087803b158015612bff57600080fd5b505af1158015612a4a573d6000803e3d6000fd5b6000806000612c20612c5c565b6000958652602090815260408087209587529490525050509020546501000000000081046001600160801b031691600160a81b90910460ff1690565b60008061022360086129ae565b6000610223612c766136c1565b5460405163d15e005360e01b81526001600160a01b039091169063d15e005390612b37908690600401613fed565b600080612cb0836136ce565b60ff169392505050565b60008060008511612cdd5760405162461bcd60e51b81526004016102ce9061416c565b6007851115612cfe5760405162461bcd60e51b81526004016102ce9061420d565b6000612d09846136eb565b905060015b868111612d61576000612d2a612d2383613709565b84906137ad565b905086811415612d425750925060009150612d7a9050565b86811115612d585750925060019150612d7a9050565b50600101612d0e565b5060405162461bcd60e51b81526004016102ce90614347565b935093915050565b600080821215612d9c57612d9582611678565b9050611007565b5080611007565b60008061022360176129ae565b825160405163db006a7560e01b8152600091479183916001600160a01b03169063db006a7590612de490879060040161409d565b602060405180830381600087803b158015612dfe57600080fd5b505af1158015612e12573d6000803e3d6000fd5b505050506040513d601f19601f82011682018060405250810190612e369190613fbb565b90508015612e565760405162461bcd60e51b81526004016102ce9061414c565b47612e618184613287565b93506128ee86856128f8565b6000612e886109ba8560000151612e8385610fee565b61277f565b9050612e926136c1565b548451604051631a4ca37b60e21b81526001600160a01b03909216916369328dec91612ec49185908890600401614001565b602060405180830381600087803b158015612ede57600080fd5b505af1158015612ef2573d6000803e3d6000fd5b505050506040513d601f19601f82011682018060405250810190612f169190613fbb565b509392505050565b82516000908190612f3790306370a0823160e01b613029565b9050600086600001516001600160a01b031663db006a75856040518263ffffffff1660e01b8152600401612f6b919061409d565b602060405180830381600087803b158015612f8557600080fd5b505af1158015612f99573d6000803e3d6000fd5b505050506040513d601f19601f82011682018060405250810190612fbd9190613fbb565b90508015612fdd5760405162461bcd60e51b81526004016102ce9061414c565b8551600090612ff490306370a0823160e01b613029565b90506130008184613287565b93506130118760000151878661292e565b505050949350505050565b60008061022360026129ae565b604080516001600160a01b0384811660248084019190915283518084039091018152604490920183526020820180516001600160e01b03166001600160e01b0319861617815292518251600094859485948a16939092909182918083835b602083106130a65780518252601f199092019160209182019101613087565b6001836020036101000a038019825116818451168082178552505050505050905001915050600060405180830381855afa9150503d8060008114613106576040519150601f19603f3d011682016040523d82523d6000602084013e61310b565b606091505b50915091508161311a57600080fd5b80806020019051602081101561312f57600080fd5b50519695505050505050565b6131436136c1565b54825160405163e8eda9df60e01b81526001600160a01b039092169163e8eda9df916131789185903090600090600401614024565b600060405180830381600087803b15801561319257600080fd5b505af115801561135b573d6000803e3d6000fd5b815160405163140e25ad60e31b81526000916001600160a01b03169063a0712d68906131d690859060040161409d565b602060405180830381600087803b1580156131f057600080fd5b505af1158015613204573d6000803e3d6000fd5b505050506040513d601f19601f820116820180604052508101906132289190613fbb565b90508015610c295760405162461bcd60e51b81526004016102ce90614109565b80600001516001600160a01b0316631249c58b346040518263ffffffff1660e01b81526004016000604051808303818588803b15801561319257600080fd5b600082821115611774576040805162461bcd60e51b815260206004820152601e60248201527f536166654d6174683a207375627472616374696f6e206f766572666c6f770000604482015290519081900360640190fd5b60008213156132ec57600080fd5b600061330d6301da9c00610cbb61330285610fee565b608089015190611d3e565b9050600061332761269a8361332187611678565b906135ac565b905060006133476064610cbb8960e0015185611d3e90919063ffffffff16565b905060006133558383611b89565b9050613369886040015161ffff1683613807565b61337b886040015161ffff168261388e565b608087015161338a9084611b89565b60809097019690965250505050505050565b6000846133ab57506000610f6f565b60006133be886040015161ffff16611686565b905060006133db896040015188846127289092919063ffffffff16565b905060006133e882611710565b8a5184516040516370a0823160e01b815292935090916000906001600160a01b038316906370a0823190613420908690600401613fed565b60206040518083038186803b15801561343857600080fd5b505afa15801561344c573d6000803e3d6000fd5b505050506040513d601f19601f820116820180604052508101906134709190613fbb565b905061347d82848661292e565b6040516370a0823160e01b81526000906001600160a01b038416906370a08231906134ac908790600401613fed565b60206040518083038186803b1580156134c457600080fd5b505afa1580156134d8573d6000803e3d6000fd5b505050506040513d601f19601f820116820180604052508101906134fc9190613fbb565b90506001600160a01b03841663dc6679c58e6135188486611765565b8e8e8e6040518663ffffffff1660e01b815260040161353b959493929190614051565b602060405180830381600087803b15801561355557600080fd5b505af1158015613569573d6000803e3d6000fd5b505050506040513d601f19601f8201168201806040525081019061358d9190613fbb565b9e9d5050505050505050505050505050565b60008061022360076129ae565b600061056d6135bb8484611d3e565b633b9aca00611d8c565b604080516323b872dd60e01b81526001600160a01b038481166004830152306024830152604482018490529151918516916323b872dd9160648082019260009290919082900301818387803b15801561298557600080fd5b6000613627613ca6565b3d801561363b576020811461364457600080fd5b6001925061364f565b60206000833e815192505b50816114c8576040805162461bcd60e51b8152602060048201526005602482015264045524332360dc1b604482015290519081900360640190fd5b60008060006136976138e0565b600094855260205250506040909120546001600160a01b03811692600160a01b90910460ff169150565b60008061022360136129ae565b6000806136d96138ed565b60009384526020525050604090205490565b60006276a7008210156136fd57600080fd5b506276a7008106900390565b6000816001141561371e57506276a700611007565b8160021415613731575062ed4e00611007565b816003141561374557506301da9c00611007565b816004141561375957506303b53800611007565b816005141561376d57506309450c00611007565b8160061415613781575063128a1800611007565b816007141561379557506325143000611007565b60405162461bcd60e51b81526004016102ce9061419b565b60008282018381101561056d576040805162461bcd60e51b815260206004820152601b60248201527f536166654d6174683a206164646974696f6e206f766572666c6f770000000000604482015290519081900360640190fd5b600081121561381557600080fd5b60006138226000846138fa565b505050905061383a8282610f7990919063ffffffff16565b905061384d6000848360008060006139a3565b8261ffff167f85170c297762884f47ec6098b74925c795e6d33686b11019b400e33a9b23b5e983604051613881919061409d565b60405180910390a2505050565b600081121561389c57600080fd5b60006138a783613aed565b905060006138b582856138fa565b50505090506138cd8382610f7990919063ffffffff16565b90506138da828583613b13565b50505050565b600080610223600f6129ae565b60008061022360096129ae565b600080600080600061390a613b31565b6001600160a01b0388166000908152602082815260408083208a8452909152902080546001600160501b0381169650600160501b900463ffffffff169450909150831561397357805461396c90600160701b900466ffffffffffffff16613b3e565b9250613988565b8054600160701b900466ffffffffffffff1692505b54600160a81b9004600a90810b900b97939650919450925050565b60006139ad613b31565b6001600160a01b0388166000908152602082815260408083208a845290915290209091506a7fffffffffffffffffffff1986128015906139f857506a7fffffffffffffffffffff8613155b613a0157600080fd5b60008512158015613a1957506001600160501b038513155b613a2257600080fd5b83613a625766ffffffffffffff831115613a3b57600080fd5b805466ffffffffffffff60701b1916600160701b66ffffffffffffff851602178155613a7c565b8054600160501b900463ffffffff168414613a7c57600080fd5b8054600a9690960b6affffffffffffffffffffff16600160a81b026001600160a81b036001600160501b0390961669ffffffffffffffffffff1963ffffffff909616600160501b0263ffffffff60501b19909816979097179490941695909517939093169190911790925550505050565b600080613af8613b4c565b6000938452602052505060409020546001600160a01b031690565b6000811215613b2157600080fd5b610c2983838360008060006139a3565b60008061022360066129ae565b600881901c60ff9091161b90565b60008061022360036129ae565b6040518060a0016040528060008152602001600081526020016000815260200160006001600160a01b03168152602001600081525090565b60405180610180016040528060006001600160a01b03168152602001600061ffff168152602001600061ffff16815260200160008152602001600081526020016000815260200160008152602001600081526020016000815260200160008152602001613bfc613cc4565b8152602001613c09613c7c565b905290565b6040518060e001604052806000815260200160008152602001600015158152602001600081526020016000815260200160008152602001600081525090565b6040805160a0810182526000808252602082018190529181018290529060608201908152602001600081525090565b604051806060016040528060006001600160a01b0316815260200160008152602001600081525090565b60405180602001604052806001906020820280368337509192915050565b60405180606001604052806003906020820280368337509192915050565b80356001600160a01b038116811461100757600080fd5b8035801515811461100757600080fd5b60008083601f840112613d1a578182fd5b50813567ffffffffffffffff811115613d31578182fd5b602083019150836020828501011115613d4957600080fd5b9250929050565b803563ffffffff8116811461100757600080fd5b60008060408385031215613d76578182fd5b613d7f83613ce2565b9150612acb60208401613ce2565b60008060008060008060a08789031215613da5578182fd5b613dae87613ce2565b9550613dbc60208801613ce2565b9450613dca60408801613ce2565b935060608701359250608087013567ffffffffffffffff811115613dec578283fd5b613df889828a01613d09565b979a9699509497509295939492505050565b60008060008060008060008060006101008a8c031215613e28578283fd5b613e318a613ce2565b9850613e3f60208b01613ce2565b975060408a0135965060608a01359550613e5b60808b01613cf9565b945060a08a01359350613e7060c08b01613d50565b925060e08a013567ffffffffffffffff811115613e8b578283fd5b613e978c828d01613d09565b915080935050809150509295985092959850929598565b600080600080600060a08688031215613ec5578081fd5b613ece86613ce2565b9450613edc60208701613ce2565b93506040860135925060608601359150608086013567ffffffffffffffff811115613f05578182fd5b860160608189031215613f16578182fd5b809150509295509295909350565b60008060008060008060008060e0898b031215613f3f578384fd5b613f4889613ce2565b9750613f5660208a01613ce2565b96506040890135955060608901359450613f7260808a01613d50565b9350613f8060a08a01613cf9565b925060c089013567ffffffffffffffff811115613f9b578283fd5b613fa78b828c01613d09565b999c989b5096995094979396929594505050565b600060208284031215613fcc578081fd5b5051919050565b600060208284031215613fe4578081fd5b61056d82613d50565b6001600160a01b0391909116815260200190565b6001600160a01b0393841681526020810192909252909116604082015260600190565b6001600160a01b03948516815260208101939093529216604082015261ffff909116606082015260800190565b600060018060a01b038716825285602083015284604083015260806060830152826080830152828460a084013781830160a090810191909152601f909201601f19160101949350505050565b90815260200190565b918252602082015260400190565b6020808252600c908201526b155b985d5d1a1bdc9a5e995960a21b604082015260600190565b6020808252601590820152740acc2ead8e840a6d0c2e4cae6409ad2e6dac2e8c6d605b1b604082015260600190565b602080825260049082015263135a5b9d60e21b604082015260600190565b6020808252600b908201526a4554482042616c616e636560a81b604082015260600190565b60208082526006908201526552656465656d60d01b604082015260600190565b60208082526015908201527410d1ce881b9bc81b585c9ad95d1cc81b1a5cdd1959605a1b604082015260600190565b6020808252600d908201526c092dcecc2d8d2c840d2dcc8caf609b1b604082015260600190565b6020808252600c908201526b4d617820436170616369747960a01b604082015260600190565b6020808252600b908201526a139bdd0814d95d1d1b195960aa1b604082015260600190565b60208082526016908201527510d1ce881b585c9ad95d081a5b99195e08189bdd5b9960521b604082015260600190565b6020808252600f908201526e139bc8149bdb1b08105b1b1bddd959608a1b604082015260600190565b60208082526017908201527f496e73756666696369656e7420436f6c6c61746572616c000000000000000000604082015260600190565b60208082526017908201527f4d757374204c697175696461746520416c6c2044656274000000000000000000604082015260600190565b6020808252600e908201526d1499595b9d1c985b9d0818d85b1b60921b604082015260600190565b6020808252600d908201526c109bdc9c9bddc819985a5b1959609a1b604082015260600190565b6020808252600a90820152694d696e20426f72726f7760b01b604082015260600190565b60208082526013908201527210d1ce881b9bc81b585c9ad95d08199bdd5b99606a1b604082015260600190565b6020808252600c908201526b21b0b73737ba1022b73a32b960a11b604082015260600190565b6020808252600b908201526a11985a5b19590813195b9960aa1b604082015260600190565b60208082526015908201527414dd59999a58da595b9d0810dbdb1b185d195c985b605a1b604082015260600190565b8151815260208083015190820152604080830151908201526060808301516001600160a01b0316908201526080918201519181019190915260a00190565b6001600160801b0391909116815260200190565b61ffff929092168252602082015260400190565b6000808335601e1984360301811261446a578283fd5b83018035915067ffffffffffffffff821115614484578283fd5b602001915036819003821315613d4957600080fdfea2646970667358221220d6433ce88ca842e49da88dd28e238288346f67f27451fd825f4872571f76b8a164736f6c63430007060033",
  "bytecodeSha1": "fb77062af88308bc40eea829eadd964a219e767b",
  "compiler": {
    "evm_version": "istanbul",
    "optimizer": {
      "enabled": true,
      "runs": 200
    },
    "version": "0.7.6+commit.7338295f"
  },
  "contractName": "VaultAccountAction",
  "deployedBytecode": "60806040526004361061009c5760003560e01c80638da5cb5b116100645780638da5cb5b1461015e5780638f0ba30f14610173578063c025d1a514610186578063c4c96dae146101b3578063e696e462146101c8578063f292c415146101e85761009c565b80630c09ff56146100a157806324a3d622146100d7578063647cc196146100f95780636dad6afb146101275780638246336714610149575b600080fd5b3480156100ad57600080fd5b506100c16100bc366004613d64565b610208565b6040516100ce919061409d565b60405180910390f35b3480156100e357600080fd5b506100ec610229565b6040516100ce9190613fed565b34801561010557600080fd5b50610119610114366004613d64565b610238565b6040516100ce9291906140a6565b34801561013357600080fd5b50610147610142366004613f24565b6102ab565b005b34801561015557600080fd5b506100ec610437565b34801561016a57600080fd5b506100ec610446565b610147610181366004613e0a565b61045d565b34801561019257600080fd5b506101a66101a1366004613d64565b610558565b6040516100ce91906143ee565b3480156101bf57600080fd5b506100ec610574565b3480156101d457600080fd5b506101476101e3366004613eae565b61058c565b3480156101f457600080fd5b506100c1610203366004613d8d565b61071e565b600061021c83610217846109da565b6109eb565b6020015190505b92915050565b6002546001600160a01b031681565b600080600061024684610a6a565b9050600061025486836109eb565b90506000610266868360200151610a99565b90508260a001519350806040015115610288576001600160ff1b0394506102a1565b6040820151825161029d918591849190610b37565b5094505b5050509250929050565b6002600a5414156102d75760405162461bcd60e51b81526004016102ce906142d4565b60405180910390fd5b6002600a5560006102e788610ba0565b90506102f5818a6008610bc4565b61030181610100610c2e565b1561030c576001600a555b60006103188a836109eb565b9050428160200151116103625760208101516000610337838542610c43565b905061035561034a858e84868b8b610d87565b608085015190610f79565b6080840152506103f39050565b600061037683600001518360200151610a99565b905088156103ac57600061038b82848c610f8f565b82519091506103a59061034a9086908f9085908b8b610d87565b6080840152505b6103c583826103ba8b610fee565b859291908b4261100c565b8151600013156103e457604082015182516103e49185918491906110d1565b82516103f190829061110d565b505b6103fe818387611229565b805115801561040f57506040810151155b1561041c57600060208201525b6104268183611363565b50506001600a555050505050505050565b6001546001600160a01b031681565b60005464010000000090046001600160a01b031681565b6002600a5414156104805760405162461bcd60e51b81526004016102ce906142d4565b6002600a5561048e8961147d565b600061049989610ba0565b90506104a7818b6004610bc4565b6104b381610100610c2e565b156104be576001600a555b6104c9816001610c2e565b6104e55760405162461bcd60e51b81526004016102ce90614374565b60006104f18b836109eb565b90506000816020015160001415801561050e575042826020015111155b156105215761051e828442610c43565b90505b60408301516105359083908e908d8c6114cc565b61054582848b8a8a8a8a886115e1565b50506001600a5550505050505050505050565b610560613b59565b61056d83610217846109da565b9392505050565b73__$7ac922d04bd7a1b42c7f6e5f1dd89a70af$__90565b6002600a5414156105af5760405162461bcd60e51b81526004016102ce906142d4565b6002600a5560006105bf85610ba0565b90506105cd81876010610bc4565b6105d981610100610c2e565b156105e4576001600a555b60006105f087836109eb565b90506105fd826001610c2e565b801561060f575061060f826002610c2e565b801561061e5750806020015142105b801561062d5750838160200151105b80156106395750600085115b6106555760405162461bcd60e51b81526004016102ce9061423d565b600061066983600001518360200151610a99565b9050600061068683846040015184610f8f9092919063ffffffff16565b90506106b2848361069a8660000151611678565b6106a760208a018a613fd3565b87939291904261100c565b8251156106d15760405162461bcd60e51b81526004016102ce9061439a565b83516106de90839061110d565b61070e8487896106f460408a0160208b01613fd3565b61070160408b018b614454565b89959493929190886115e1565b50506001600a5550505050505050565b60006002600a5414156107435760405162461bcd60e51b81526004016102ce906142d4565b6002600a55600061075387610ba0565b905061076181610100610c2e565b1561076c576001600a555b610777816020610c2e565b156107a457336001600160a01b038816146107a45760405162461bcd60e51b81526004016102ce906140b4565b6001600160a01b03881633148015906107cf5750856001600160a01b0316886001600160a01b031614155b6107eb5760405162461bcd60e51b81526004016102ce906140b4565b60006107f789836109eb565b90506000610809898360200151610a99565b90508160200151421061081b57600080fd5b604082015182516000918291610835918791869190610b37565b915091508460a00151821261085c5760405162461bcd60e51b81526004016102ce906143bf565b600061086f866040015161ffff16611686565b905061087e8186888d86611699565b6040870151909a506108969086908d908d60006114cc565b60006108dd633b9aca006108d76108ac86611710565b6108d78a604001516108d16108c48e60c00151611710565b6108d18e60800151611710565b9061171f565b90611746565b60408701519091506108ef9082611765565b604087015260808601516101608801516109159161090d919061177a565b875190610f79565b8087526000121561092557600086525b600060808701526109368688611363565b610941876080610c2e565b1561097157865161095390869061110d565b6109638c888389602001516117ad565b9750505050505050506109cb565b60006109818d8988858f8f61181d565b905060006109ac8e8a6040015161ffff166109a361099e86610fee565b611678565b8792919061186e565b90506109bf6109ba82611678565b611710565b99505050505050505050505b6001600a559695505050505050565b6109e2613b91565b61022382611916565b6109f3613b59565b60006109fd611a95565b6001600160a01b0394851660008181526020928352604080822096519097168152948252858520546001600160501b038082168703865263ffffffff600160a01b83041693860193909352600160501b900490911694830194909452506060810192909252608082015290565b610a72613b91565b610a7b82611916565b9050610a8e816040015161ffff16611aa2565b610160820152919050565b610aa1613c0e565b6000610aab611aee565b6001600160a01b03909416600090815260209485526040808220858352865280822094845284546001600160501b0380821660090b9093039685019690965260ff600160f01b870416151590840152600160501b8086048216608085015260019094015480821660a0850152600160a01b909504811660608401529290930490911660c0820152919050565b600080610b45858786611afb565b90506000610b61610b5585611678565b61016089015190611b5e565b90506000610b6f8383611b89565b905060008213610b88576001600160ff1b039350610b95565b610b928183611b9f565b93505b505094509492505050565b610ba8613b91565b610bb182611916565b9050610a8e816040015161ffff16611bb8565b610bce8382610c2e565b15610c015782516001600160a01b03163314610bfc5760405162461bcd60e51b81526004016102ce906140b4565b610c29565b6001600160a01b0382163314610c295760405162461bcd60e51b81526004016102ce906140b4565b505050565b60209190910151811661ffff90811691161490565b600080610c5884600001518660200151610a99565b90508060400151610c7b5760405162461bcd60e51b81526004016102ce906141e8565b6000610c94856040015161ffff16876020015186611bce565b90506000610cc16305f5e100610cbb8560c00151610cb58760a00151610fee565b90611d3e565b90611d8c565b90506000610cd188858585611dbd565b90506000610d02610cef866020015186611b5e90919063ffffffff16565b610cfc8760800151610fee565b90610f79565b90506000610d1484610cfc878561177a565b90506000610d3382610cbb610d2c8a60a00151610fee565b8790611d3e565b90506000610d4583610cbb8787611d3e565b60008d5260808d0151909150610d5b9082610f79565b60808d0152600060408d0181905260208d0152610d7782611710565b9c9b505050505050505050505050565b600084610d9657506000610f6f565b6000610da9886040015161ffff16611686565b9050600081600001516001600160a01b03166370a08231306040518263ffffffff1660e01b8152600401610ddd9190613fed565b60206040518083038186803b158015610df557600080fd5b505afa158015610e09573d6000803e3d6000fd5b505050506040513d601f19601f82011682018060405250810190610e2d9190613fbb565b8951604051634d6dc4df60e11b81529192506001600160a01b031690639adb89be90610e65908b908b908b908b908b90600401614051565b600060405180830381600087803b158015610e7f57600080fd5b505af1158015610e93573d6000803e3d6000fd5b505083516040516370a0823160e01b8152600093506001600160a01b0390911691506370a0823190610ec9903090600401613fed565b60206040518083038186803b158015610ee157600080fd5b505afa158015610ef5573d6000803e3d6000fd5b505050506040513d601f19601f82011682018060405250810190610f199190613fbb565b90506000610f2f610f2a8385611765565b610fee565b9050600584606001516005811115610f4357fe5b1415610f5e57610f5b8b6040015161ffff1682611e42565b90505b610f688482611ec9565b9450505050505b9695505050505050565b8181018281121560008312151461022357600080fd5b8251602083015160009114610fa357600080fd5b6040830151610fb29083611765565b60408401526000610fc38584611ef9565b92509050610fde610fd382610fee565b608086015190610f79565b6080909401939093529392505050565b60006001600160ff1b0382111561100457600080fd5b50805b919050565b855160009061101b9085610f79565b131561102657600080fd5b8560200151811061103657600080fd5b60006110538660400151886020015186868a610100015187611f50565b9050806110715761016086015161106e9061099e9086611b5e565b90505b600081131561107f57600080fd5b608087015161108e9082610f79565b6080880152865161109f9085610f79565b875260208501516110b09085610f79565b6020860152855160408701516110c7919086612082565b5050505050505050565b60006110df85858585610b37565b509050808560a0015113156111065760405162461bcd60e51b81526004016102ce90614266565b5050505050565b6000611117611aee565b6001600160a01b038316600090815260208281526040808320875184529091529081902090850151919250901561114d57600080fd5b6111656111606109ba8660200151611678565b612141565b815469ffffffffffffffffffff19166001600160501b0391909116178155608084015161119190612141565b81546001600160501b0391909116600160501b0269ffffffffffffffffffff60501b1990911617815560a08401516111c890612141565b60018201805469ffffffffffffffffffff19166001600160501b039290921691909117905560608401516111fb90612141565b81546001600160501b0391909116600160a01b0269ffffffffffffffffffff60a01b19909116179055505050565b6040820151600061123d61ffff8316611686565b905060006112586112518760800151611678565b8390612157565b905060008112156112b55783156112915761128b8361ffff1687606001516112826109ba85611678565b8592919061218f565b506112a9565b60608601516112a790839061ffff86168461186e565b505b6000608087015261135b565b600084156113175760006112cc8561ffff16612225565b90506112f46112ed6112e18a60800151611678565b6101608a01519061177a565b8290612238565b92506305f5e10081604001511215611310576127109150611315565b606491505b505b6113308788606001518661132a86611710565b896114cc565b8660800151600013158015611349575080876080015113155b61135257600080fd5b50600060808701525b505050505050565b600061136d611a95565b60608401516001600160a01b039081166000908152602083815260408083208751909416835292905220608085015191925090156113aa57600080fd5b835115806113c6575083516113be90611678565b836060015113155b6113e25760405162461bcd60e51b81526004016102ce90614323565b6113f56111606109ba8660000151611678565b815469ffffffffffffffffffff19166001600160501b0391909116178155604084015161142190612141565b81546001600160501b0391909116600160501b0269ffffffffffffffffffff60501b19909116178155602084015161145890612274565b815463ffffffff91909116600160a01b0263ffffffff60a01b19909116179055505050565b6001600160a01b03811661149057600080fd5b6001600160a01b0381163014156114a657600080fd5b60006114b182612287565b5050505061ffff169050806000146114c857600080fd5b5050565b816114d657611106565b60006114e183610fee565b905060006114f28561ffff16611686565b90506000831561157e57600061150b8761ffff16612225565b9050600060038260600151600581111561152157fe5b141561154d573487146115465760405162461bcd60e51b81526004016102ce90614127565b5083611560565b61155d828a61ffff8b168861186e565b90505b6115758861156d83611710565b8691906122f3565b925050506115ba565b60058260600151600581111561159057fe5b14156115a7576115a48661ffff1684611e42565b92505b6115b7828861ffff89168661186e565b90505b6115d26115c78383611ec9565b60808a015190610f79565b60808901525050505050505050565b85886020015114806115f257508751155b6115fb57600080fd5b600061160b886000015188610a99565b9050851561162d5761162d8989838a61162661099e8c610fee565b8a426123d9565b61163b818a8a8588886124b3565b875161164890829061110d565b6116528989611363565b851561166d576040890151895161166d918a918491906110d1565b505050505050505050565b600061022360001983611d3e565b61168e613c4d565b6102238260006125b7565b600080806116a8878786612665565b9150915060006116ca6109ba8860400151858c6127289092919063ffffffff16565b9050808610156116fd5781156116f25760405162461bcd60e51b81526004016102ce9061429d565b859350505050611707565b9250611707915050565b95945050505050565b60008082121561100457600080fd5b60008261172e57506000610223565b8282028284828161173b57fe5b041461056d57600080fd5b600080821161175457600080fd5b81838161175d57fe5b049392505050565b60008282111561177457600080fd5b50900390565b6000806117a58460400151610cbb6402540be400610cbb878960200151611d3e90919063ffffffff16565b949350505050565b6000806117ba86866109eb565b90508060200151600014806117d25750828160200151145b6117ee5760405162461bcd60e51b81526004016102ce906140da565b602081018390526040810151611804908561276d565b60408201526118138186611363565b5091949350505050565b6000808061182b8787611ef9565b885191935091506118529061184b906109ba908b908d9086908b8b610d87565b839061276d565b885190925061186290889061110d565b50979650505050505050565b8060058560600151600581111561188157fe5b14156118a657600061189284612225565b90506118a281600001518461277f565b9250505b60008213156118d25760006118bc868685612805565b90508560200151156118cc578091505b506117a5565b6003856060015160058111156118e457fe5b1415611901576118fc846118f784611678565b6128f8565b6117a5565b84516117a5908561191185611678565b61292e565b61191e613b91565b60006119286129a5565b6001600160a01b03841660008181526020838152604091829020928652825461ffff8082169288019290925262010000810490911691860191909152919250906119899063ffffffff6401000000009091048116906305f5e10090611d3e16565b606084015280546119a790600160501b900460ff166207a12061171f565b608084015280546119cb9068010000000000000000900461ffff16620186a061171f565b60a084015280546119ea90600160701b900461ffff16620186a061171f565b610120840152805460649060ff600160581b90910416633b9aca00020560c08401528054600160601b810460ff90811660e0860152600160681b90910416610100840152604080516060810191829052906001830190600390826000855b82829054906101000a900461ffff1661ffff1681526020019060020190602082600101049283019260010382029150808411611a4857905050505050508361014001819052505050919050565b60008061022360166129ae565b611aaa613c7c565b6000806000611ab8856129c7565b604080516060810182526001600160a01b039093168352602083019390935260ff16600a0a918101919091529350505050919050565b60008061022360156129ae565b600081611b0a5750600061056d565b600080611b178685612a88565b915091506000611b3586604001518760000151848a60000151612ad4565b9050611b53611b4384610fee565b610160880151610cfc9084611b5e565b979650505050505050565b6000806117a58460200151610cbb8660400151610cb56402540be40088611d3e90919063ffffffff16565b8082038281131560008312151461022357600080fd5b600061056d611bb284633b9aca00611d3e565b83611d8c565b611bc0613c7c565b6000806000611ab885612b8e565b611bd6613c7c565b600080611be38686612c13565b915091508160001415611d13576000611bfb87612b8e565b91945090925090506001600160a01b03811615611d11576000611c1c612c5c565b9050856000108015611c2e5750858711155b8015611c3f575064ffffffffff8611155b611c4857600080fd5b836000128015611c5f57506001600160801b038413155b611c6857600080fd5b6000888152602082815260408083208a845290915290819020805464ffffffffff191664ffffffffff89161774ffffffffffffffffffffffffffffffff00000000001916650100000000006001600160801b038816021760ff60a81b1916600160a81b60ff871602178155905188908a907f0fdfa6885701e2f1f42e4187b9231cf81c1fe23671ef64fa46f34ddb56c1dc1890611d0690899061442c565b60405180910390a350505b505b6040805160608101825260008152602081019390935260ff909116600a0a9082015290509392505050565b818102600019831415611d6e57811580611d60575082828281611d5d57fe5b05145b611d6957600080fd5b610223565b821580611d83575081838281611d8057fe5b05145b61022357600080fd5b600081600019148015611da25750600160ff1b83145b15611dac57600080fd5b818381611db557fe5b059392505050565b600080611de1611dda611dd38760800151610fee565b869061177a565b8490610f79565b9050611e0c8660000151610cfc611dfb8860600151610fee565b610cbb85610cb58c60400151610fee565b91506000821215611e3957611e2f611e248584611b5e565b608088015190610f79565b6080870152600091505b50949350505050565b600081611e5157506000610223565b60008213611e5e57600080fd5b6000611e6984612225565b90506000611e7a8260000151612c69565b9050600281056b033b2e3c9fd0803ce80000006001600160ff1b0382900305851315611ea557600080fd5b81816b033b2e3c9fd0803ce800000087020181611ebe57fe5b059695505050505050565b60006305f5e10083604001511415611ee2575080610223565b604083015161056d90610cbb846305f5e100611d3e565b600080611f068484612a88565b60808601519193509150611f1a9083611765565b608085015260a0840151611f2e9082611765565b60a08501526060840151611f429084611765565b606090940193909352929050565b600080611f608861ffff16612ca4565b9050838160ff161115611f7257600080fd5b600080611f838360ff168a87612cba565b915091508015611f9257600080fd5b6000611f9d89612d82565b90506affffffffffffffffffffff8110611fb657600080fd5b600060788963ffffffff16901b609883901b60f086901b60f860008e13611fde576001611fe1565b60005b6005811115611fec57fe5b60ff16901b17171760001b905073__$7ac922d04bd7a1b42c7f6e5f1dd89a70af$__63e50f349e8d836040518363ffffffff1660e01b8152600401612032929190614440565b60206040518083038186803b15801561204a57600080fd5b505af415801561205e573d6000803e3d6000fd5b505050506040513d601f19601f82011682018060405250810190610d779190613fbb565b60008061208d612da3565b6001600160a01b03861660009081526020918252604080822061ffff881683529092522080549091506120d090600160501b90046001600160501b031684611b89565b915060008312156121055780546001600160501b03168213156121055760405162461bcd60e51b81526004016102ce906141c2565b61211161116083611710565b81546001600160501b0391909116600160501b0269ffffffffffffffffffff60501b199091161790559392505050565b60006001600160501b0382111561100457600080fd5b60006305f5e10083604001511415612170575080610223565b61056d6305f5e100610cbb856040015185611d3e90919063ffffffff16565b6000806002866060015160058111156121a457fe5b14156121bc576121b5868585612db0565b9050612219565b60006121c786612225565b90506005876060015160058111156121db57fe5b14156121f3576121ec818686612e6d565b9150612217565b60018760600151600581111561220557fe5b141561009c576121ec87828787612f1e565b505b610f6f61099e82610fee565b61222d613c4d565b6102238260016125b7565b60006305f5e10083604001511215612260576122596001610cfc8585612157565b9050610223565b61056d8361226f846001610f79565b612157565b600063ffffffff82111561100457600080fd5b60008060008060008061229861301c565b6001600160a01b039097166000908152602097909752505060409094205461ffff81169563ffffffff620100008304811696506601000000000000830416945060ff600160501b8304169350600160581b90910460d81b9150565b60008060058560600151600581111561230857fe5b1461231a576370a0823160e01b612323565b630ed1279f60e11b5b9050600061233686600001513084613029565b905060058660600151600581111561234a57fe5b141561237157600061235f8661ffff16612225565b905061236b818661313b565b506123b9565b60018660600151600581111561238357fe5b14156123985761239386856131a6565b6123b9565b6002866060015160058111156123aa57fe5b141561009c5761239386613248565b60006123ca87600001513085613029565b9050611b53610f2a8284613287565b600083126123e657600080fd5b60006123ff87604001518686868b610100015187611f50565b9050600081136124215760405162461bcd60e51b81526004016102ce906142fc565b60208601516124309085610f79565b602087015287516124419085610f79565b885260808801516124529082610f79565b608089015250865161246390611678565b866060015113156124865760405162461bcd60e51b81526004016102ce90614323565b60006124928583611765565b90506124a0878986846132de565b61166d8760000151886040015186612082565b60008560800151121580156124ca57506080860151155b6124d357600080fd5b8551602086015110156124fb576040850151156124ef57600080fd5b8551602086015261250c565b855160208601511461250c57600080fd5b60608501516080860151875161253092612529928892878761339c565b849061276d565b60006080870181905260608801519194509061254d57508261256f565b61256c8760a001516108d789606001518761171f90919063ffffffff16565b90505b60a087015161257e908561276d565b60a08801526060870151612592908261276d565b606088015260408601516125a6908261276d565b604090960195909552505050505050565b6125bf613c4d565b60006125c961359f565b6000858152602082815260408083208715158452825291829020825160a08101845281546001600160a01b038116825260ff600160a01b82048116151594830194909452600160b01b81048416600a0a9482019490945293945092916060830191600160a81b90910416600581111561263e57fe5b81529154600160b81b900468ffffffffffffffffff16602090920191909152949350505050565b6000806000612686633b9aca00866101200151610f7990919063ffffffff16565b905060006126a661269a8860000151611678565b61016088015190611b5e565b90506126dc6126c28760c0015184611b8990919063ffffffff16565b6126d6876126d085876135ac565b90611b89565b90611b9f565b935060006126ea8286611b89565b9050600061270a8860600151896101600151611b5e90919063ffffffff16565b90508082121561271c57829550600194505b50505050935093915050565b60006127348483612157565b905060058460600151600581111561274857fe5b141561056d57600061275d8461ffff16612225565b905061170781600001518361277f565b60008282018381101561056d57600080fd5b60008161278e57506000610223565b600061279984612c69565b905060006127a684612d82565b9050816b019d971e4fe8401e74000001600160ff1b03816127c357fe5b058113156127d057600080fd5b6b033b2e3c9fd0803ce80000006b019d971e4fe8401e740000008383020105600085136117075761280081611678565b610f6f565b600080808060058760600151600581111561281c57fe5b1461282e576370a0823160e01b612837565b630ed1279f60e11b5b9050866020015115612853578651612850903083613029565b92505b86516128609087876135c5565b866020015180612874575060008760800151115b15612889578651612886903083613029565b91505b6080870151156128c45760006128a7886128a285610fee565b611ec9565b90506128b68860800151610fee565b8113156128c257600080fd5b505b8660200151156128e5576128db610f2a8385613287565b935050505061056d565b6128db85610fee565b5050509392505050565b6040516001600160a01b0383169082156108fc029083906000818181858888f19350505050158015610c29573d6000803e3d6000fd5b826001600160a01b031663a9059cbb83836040518363ffffffff1660e01b815260040180836001600160a01b0316815260200182815260200192505050600060405180830381600087803b15801561298557600080fd5b505af1158015612999573d6000803e3d6000fd5b50505050610c2961361d565b60008061022360145b6000620f42408260188111156129c057fe5b0192915050565b60008060008060006129d88661368a565b909250905060006001600160a01b0383166129fd5750600090506402540be400612a7d565b826001600160a01b031663b2fffb046040518163ffffffff1660e01b815260040160206040518083038186803b158015612a3657600080fd5b505afa158015612a4a573d6000803e3d6000fd5b505050506040513d601f19601f82011682018060405250810190612a6e9190613fbb565b905060008113612a7d57600080fd5b969195509350915050565b600080612aaa84606001516108d786608001518661171f90919063ffffffff16565b9150612acb84606001516108d78660a001518661171f90919063ffffffff16565b90509250929050565b600080612ae48661ffff16612225565b9050806040015160001415612b0357612b008661ffff16611686565b90505b610f6f612b87866001600160a01b031663bc3b901887876040518363ffffffff1660e01b8152600401612b379291906140a6565b60206040518083038186803b158015612b4f57600080fd5b505afa158015612b63573d6000803e3d6000fd5b505050506040513d601f19601f82011682018060405250810190610f2a9190613fbb565b8290611ec9565b6000806000806000612b9f8661368a565b909250905060006001600160a01b038316612bc45750600090506402540be400612a7d565b826001600160a01b0316631ee108336040518163ffffffff1660e01b8152600401602060405180830381600087803b158015612bff57600080fd5b505af1158015612a4a573d6000803e3d6000fd5b6000806000612c20612c5c565b6000958652602090815260408087209587529490525050509020546501000000000081046001600160801b031691600160a81b90910460ff1690565b60008061022360086129ae565b6000610223612c766136c1565b5460405163d15e005360e01b81526001600160a01b039091169063d15e005390612b37908690600401613fed565b600080612cb0836136ce565b60ff169392505050565b60008060008511612cdd5760405162461bcd60e51b81526004016102ce9061416c565b6007851115612cfe5760405162461bcd60e51b81526004016102ce9061420d565b6000612d09846136eb565b905060015b868111612d61576000612d2a612d2383613709565b84906137ad565b905086811415612d425750925060009150612d7a9050565b86811115612d585750925060019150612d7a9050565b50600101612d0e565b5060405162461bcd60e51b81526004016102ce90614347565b935093915050565b600080821215612d9c57612d9582611678565b9050611007565b5080611007565b60008061022360176129ae565b825160405163db006a7560e01b8152600091479183916001600160a01b03169063db006a7590612de490879060040161409d565b602060405180830381600087803b158015612dfe57600080fd5b505af1158015612e12573d6000803e3d6000fd5b505050506040513d601f19601f82011682018060405250810190612e369190613fbb565b90508015612e565760405162461bcd60e51b81526004016102ce9061414c565b47612e618184613287565b93506128ee86856128f8565b6000612e886109ba8560000151612e8385610fee565b61277f565b9050612e926136c1565b548451604051631a4ca37b60e21b81526001600160a01b03909216916369328dec91612ec49185908890600401614001565b602060405180830381600087803b158015612ede57600080fd5b505af1158015612ef2573d6000803e3d6000fd5b505050506040513d601f19601f82011682018060405250810190612f169190613fbb565b509392505050565b82516000908190612f3790306370a0823160e01b613029565b9050600086600001516001600160a01b031663db006a75856040518263ffffffff1660e01b8152600401612f6b919061409d565b602060405180830381600087803b158015612f8557600080fd5b505af1158015612f99573d6000803e3d6000fd5b505050506040513d601f19601f82011682018060405250810190612fbd9190613fbb565b90508015612fdd5760405162461bcd60e51b81526004016102ce9061414c565b8551600090612ff490306370a0823160e01b613029565b90506130008184613287565b93506130118760000151878661292e565b505050949350505050565b60008061022360026129ae565b604080516001600160a01b0384811660248084019190915283518084039091018152604490920183526020820180516001600160e01b03166001600160e01b0319861617815292518251600094859485948a16939092909182918083835b602083106130a65780518252601f199092019160209182019101613087565b6001836020036101000a038019825116818451168082178552505050505050905001915050600060405180830381855afa9150503d8060008114613106576040519150601f19603f3d011682016040523d82523d6000602084013e61310b565b606091505b50915091508161311a57600080fd5b80806020019051602081101561312f57600080fd5b50519695505050505050565b6131436136c1565b54825160405163e8eda9df60e01b81526001600160a01b039092169163e8eda9df916131789185903090600090600401614024565b600060405180830381600087803b15801561319257600080fd5b505af115801561135b573d6000803e3d6000fd5b815160405163140e25ad60e31b81526000916001600160a01b03169063a0712d68906131d690859060040161409d565b602060405180830381600087803b1580156131f057600080fd5b505af1158015613204573d6000803e3d6000fd5b505050506040513d601f19601f820116820180604052508101906132289190613fbb565b90508015610c295760405162461bcd60e51b81526004016102ce90614109565b80600001516001600160a01b0316631249c58b346040518263ffffffff1660e01b81526004016000604051808303818588803b15801561319257600080fd5b600082821115611774576040805162461bcd60e51b815260206004820152601e60248201527f536166654d6174683a207375627472616374696f6e206f766572666c6f770000604482015290519081900360640190fd5b60008213156132ec57600080fd5b600061330d6301da9c00610cbb61330285610fee565b608089015190611d3e565b9050600061332761269a8361332187611678565b906135ac565b905060006133476064610cbb8960e0015185611d3e90919063ffffffff16565b905060006133558383611b89565b9050613369886040015161ffff1683613807565b61337b886040015161ffff168261388e565b608087015161338a9084611b89565b60809097019690965250505050505050565b6000846133ab57506000610f6f565b60006133be886040015161ffff16611686565b905060006133db896040015188846127289092919063ffffffff16565b905060006133e882611710565b8a5184516040516370a0823160e01b815292935090916000906001600160a01b038316906370a0823190613420908690600401613fed565b60206040518083038186803b15801561343857600080fd5b505afa15801561344c573d6000803e3d6000fd5b505050506040513d601f19601f820116820180604052508101906134709190613fbb565b905061347d82848661292e565b6040516370a0823160e01b81526000906001600160a01b038416906370a08231906134ac908790600401613fed565b60206040518083038186803b1580156134c457600080fd5b505afa1580156134d8573d6000803e3d6000fd5b505050506040513d601f19601f820116820180604052508101906134fc9190613fbb565b90506001600160a01b03841663dc6679c58e6135188486611765565b8e8e8e6040518663ffffffff1660e01b815260040161353b959493929190614051565b602060405180830381600087803b15801561355557600080fd5b505af1158015613569573d6000803e3d6000fd5b505050506040513d601f19601f8201168201806040525081019061358d9190613fbb565b9e9d5050505050505050505050505050565b60008061022360076129ae565b600061056d6135bb8484611d3e565b633b9aca00611d8c565b604080516323b872dd60e01b81526001600160a01b038481166004830152306024830152604482018490529151918516916323b872dd9160648082019260009290919082900301818387803b15801561298557600080fd5b6000613627613ca6565b3d801561363b576020811461364457600080fd5b6001925061364f565b60206000833e815192505b50816114c8576040805162461bcd60e51b8152602060048201526005602482015264045524332360dc1b604482015290519081900360640190fd5b60008060006136976138e0565b600094855260205250506040909120546001600160a01b03811692600160a01b90910460ff169150565b60008061022360136129ae565b6000806136d96138ed565b60009384526020525050604090205490565b60006276a7008210156136fd57600080fd5b506276a7008106900390565b6000816001141561371e57506276a700611007565b8160021415613731575062ed4e00611007565b816003141561374557506301da9c00611007565b816004141561375957506303b53800611007565b816005141561376d57506309450c00611007565b8160061415613781575063128a1800611007565b816007141561379557506325143000611007565b60405162461bcd60e51b81526004016102ce9061419b565b60008282018381101561056d576040805162461bcd60e51b815260206004820152601b60248201527f536166654d6174683a206164646974696f6e206f766572666c6f770000000000604482015290519081900360640190fd5b600081121561381557600080fd5b60006138226000846138fa565b505050905061383a8282610f7990919063ffffffff16565b905061384d6000848360008060006139a3565b8261ffff167f85170c297762884f47ec6098b74925c795e6d33686b11019b400e33a9b23b5e983604051613881919061409d565b60405180910390a2505050565b600081121561389c57600080fd5b60006138a783613aed565b905060006138b582856138fa565b50505090506138cd8382610f7990919063ffffffff16565b90506138da828583613b13565b50505050565b600080610223600f6129ae565b60008061022360096129ae565b600080600080600061390a613b31565b6001600160a01b0388166000908152602082815260408083208a8452909152902080546001600160501b0381169650600160501b900463ffffffff169450909150831561397357805461396c90600160701b900466ffffffffffffff16613b3e565b9250613988565b8054600160701b900466ffffffffffffff1692505b54600160a81b9004600a90810b900b97939650919450925050565b60006139ad613b31565b6001600160a01b0388166000908152602082815260408083208a845290915290209091506a7fffffffffffffffffffff1986128015906139f857506a7fffffffffffffffffffff8613155b613a0157600080fd5b60008512158015613a1957506001600160501b038513155b613a2257600080fd5b83613a625766ffffffffffffff831115613a3b57600080fd5b805466ffffffffffffff60701b1916600160701b66ffffffffffffff851602178155613a7c565b8054600160501b900463ffffffff168414613a7c57600080fd5b8054600a9690960b6affffffffffffffffffffff16600160a81b026001600160a81b036001600160501b0390961669ffffffffffffffffffff1963ffffffff909616600160501b0263ffffffff60501b19909816979097179490941695909517939093169190911790925550505050565b600080613af8613b4c565b6000938452602052505060409020546001600160a01b031690565b6000811215613b2157600080fd5b610c2983838360008060006139a3565b60008061022360066129ae565b600881901c60ff9091161b90565b60008061022360036129ae565b6040518060a0016040528060008152602001600081526020016000815260200160006001600160a01b03168152602001600081525090565b60405180610180016040528060006001600160a01b03168152602001600061ffff168152602001600061ffff16815260200160008152602001600081526020016000815260200160008152602001600081526020016000815260200160008152602001613bfc613cc4565b8152602001613c09613c7c565b905290565b6040518060e001604052806000815260200160008152602001600015158152602001600081526020016000815260200160008152602001600081525090565b6040805160a0810182526000808252602082018190529181018290529060608201908152602001600081525090565b604051806060016040528060006001600160a01b0316815260200160008152602001600081525090565b60405180602001604052806001906020820280368337509192915050565b60405180606001604052806003906020820280368337509192915050565b80356001600160a01b038116811461100757600080fd5b8035801515811461100757600080fd5b60008083601f840112613d1a578182fd5b50813567ffffffffffffffff811115613d31578182fd5b602083019150836020828501011115613d4957600080fd5b9250929050565b803563ffffffff8116811461100757600080fd5b60008060408385031215613d76578182fd5b613d7f83613ce2565b9150612acb60208401613ce2565b60008060008060008060a08789031215613da5578182fd5b613dae87613ce2565b9550613dbc60208801613ce2565b9450613dca60408801613ce2565b935060608701359250608087013567ffffffffffffffff811115613dec578283fd5b613df889828a01613d09565b979a9699509497509295939492505050565b60008060008060008060008060006101008a8c031215613e28578283fd5b613e318a613ce2565b9850613e3f60208b01613ce2565b975060408a0135965060608a01359550613e5b60808b01613cf9565b945060a08a01359350613e7060c08b01613d50565b925060e08a013567ffffffffffffffff811115613e8b578283fd5b613e978c828d01613d09565b915080935050809150509295985092959850929598565b600080600080600060a08688031215613ec5578081fd5b613ece86613ce2565b9450613edc60208701613ce2565b93506040860135925060608601359150608086013567ffffffffffffffff811115613f05578182fd5b860160608189031215613f16578182fd5b809150509295509295909350565b60008060008060008060008060e0898b031215613f3f578384fd5b613f4889613ce2565b9750613f5660208a01613ce2565b96506040890135955060608901359450613f7260808a01613d50565b9350613f8060a08a01613cf9565b925060c089013567ffffffffffffffff811115613f9b578283fd5b613fa78b828c01613d09565b999c989b5096995094979396929594505050565b600060208284031215613fcc578081fd5b5051919050565b600060208284031215613fe4578081fd5b61056d82613d50565b6001600160a01b0391909116815260200190565b6001600160a01b0393841681526020810192909252909116604082015260600190565b6001600160a01b03948516815260208101939093529216604082015261ffff909116606082015260800190565b600060018060a01b038716825285602083015284604083015260806060830152826080830152828460a084013781830160a090810191909152601f909201601f19160101949350505050565b90815260200190565b918252602082015260400190565b6020808252600c908201526b155b985d5d1a1bdc9a5e995960a21b604082015260600190565b6020808252601590820152740acc2ead8e840a6d0c2e4cae6409ad2e6dac2e8c6d605b1b604082015260600190565b602080825260049082015263135a5b9d60e21b604082015260600190565b6020808252600b908201526a4554482042616c616e636560a81b604082015260600190565b60208082526006908201526552656465656d60d01b604082015260600190565b60208082526015908201527410d1ce881b9bc81b585c9ad95d1cc81b1a5cdd1959605a1b604082015260600190565b6020808252600d908201526c092dcecc2d8d2c840d2dcc8caf609b1b604082015260600190565b6020808252600c908201526b4d617820436170616369747960a01b604082015260600190565b6020808252600b908201526a139bdd0814d95d1d1b195960aa1b604082015260600190565b60208082526016908201527510d1ce881b585c9ad95d081a5b99195e08189bdd5b9960521b604082015260600190565b6020808252600f908201526e139bc8149bdb1b08105b1b1bddd959608a1b604082015260600190565b60208082526017908201527f496e73756666696369656e7420436f6c6c61746572616c000000000000000000604082015260600190565b60208082526017908201527f4d757374204c697175696461746520416c6c2044656274000000000000000000604082015260600190565b6020808252600e908201526d1499595b9d1c985b9d0818d85b1b60921b604082015260600190565b6020808252600d908201526c109bdc9c9bddc819985a5b1959609a1b604082015260600190565b6020808252600a90820152694d696e20426f72726f7760b01b604082015260600190565b60208082526013908201527210d1ce881b9bc81b585c9ad95d08199bdd5b99606a1b604082015260600190565b6020808252600c908201526b21b0b73737ba1022b73a32b960a11b604082015260600190565b6020808252600b908201526a11985a5b19590813195b9960aa1b604082015260600190565b60208082526015908201527414dd59999a58da595b9d0810dbdb1b185d195c985b605a1b604082015260600190565b8151815260208083015190820152604080830151908201526060808301516001600160a01b0316908201526080918201519181019190915260a00190565b6001600160801b0391909116815260200190565b61ffff929092168252602082015260400190565b6000808335601e1984360301811261446a578283fd5b83018035915067ffffffffffffffff821115614484578283fd5b602001915036819003821315613d4957600080fdfea2646970667358221220d6433ce88ca842e49da88dd28e238288346f67f27451fd825f4872571f76b8a164736f6c63430007060033",
  "language": "Solidity",
  "natspec": {
    "kind": "dev",
    "methods": {
      "deleverageAccount(address,address,address,uint256,bytes)": {
        "notice": "If an account is below the minimum collateral ratio, this method wil deleverage (liquidate) that account. `depositAmountExternal` in the borrow currency will be transferred from the liquidator and used to offset the account's debt position. The liquidator will receive either vaultShares or cash depending on the vault's configuration.",
        "params": {
          "account": "the address that will exit the vault",
          "depositAmountExternal": "amount of asset cash to deposit",
          "liquidator": "the address that will receive profits from liquidation",
          "redeemData": "calldata sent to the vault when redeeming liquidator profits",
          "vault": "the vault to enter"
        },
        "returns": {
          "profitFromLiquidation": "amount of vaultShares or cash received from liquidation"
        }
      },
      "enterVault(address,address,uint256,uint256,bool,uint256,uint32,bytes)": {
        "notice": "Borrows a specified amount of fCash in the vault's borrow currency and deposits it all plus the depositAmountExternal into the vault to mint strategy tokens.",
        "params": {
          "account": "the address that will enter the vault",
          "depositAmountExternal": "some amount of additional collateral in the borrowed currency to be transferred to vault",
          "fCash": "amount to borrow",
          "maturity": "the maturity to borrow at",
          "maxBorrowRate": "maximum interest rate to borrow at",
          "useUnderlying": "true if the account will transfer underlying tokens",
          "vault": "the vault to enter",
          "vaultData": "additional data to pass to the vault contract"
        }
      },
      "exitVault(address,address,uint256,uint256,uint32,bool,bytes)": {
        "notice": "Prior to maturity, allows an account to withdraw their position from the vault. Will redeem some number of vault shares to the borrow currency and close the borrow position by lending `fCashToLend`. Any shortfall in cash from lending will be transferred from the account, any excess profits will be transferred to the account. Post maturity, will net off the account's debt against vault cash balances and redeem all remaining strategy tokens back to the borrowed currency and transfer the profits to the account.",
        "params": {
          "account": "the address that will exit the vault",
          "exitVaultData": "passed to the vault during exit",
          "fCashToLend": "amount of fCash to lend",
          "minLendRate": "the minimum rate to lend at",
          "useUnderlying": "if vault shares should be redeemed to underlying",
          "vault": "the vault to enter",
          "vaultSharesToRedeem": "amount of vault tokens to exit, only relevant when exiting pre-maturity"
        }
      },
      "getVaultAccount(address,address)": {
        "notice": "View Methods *"
      },
      "rollVaultPosition(address,address,uint256,uint256,(uint32,uint32,bytes))": {
        "notice": "Re-enters the vault at a longer dated maturity. The account's existing borrow position will be closed and a new borrow position at the specified maturity will be opened. All strategy token holdings will be rolled forward.",
        "params": {
          "account": "the address that will reenter the vault",
          "fCashToBorrow": "amount of fCash to borrow in the next maturity",
          "maturity": "new maturity to borrow at",
          "opts": "struct with slippage limits and data to send to vault",
          "vault": "the vault to reenter"
        }
      }
    },
    "version": 1
  },
  "opcodes": "PUSH1 0x80 PUSH1 0x40 MSTORE PUSH1 0x4 CALLDATASIZE LT PUSH2 0x9C JUMPI PUSH1 0x0 CALLDATALOAD PUSH1 0xE0 SHR DUP1 PUSH4 0x8DA5CB5B GT PUSH2 0x64 JUMPI DUP1 PUSH4 0x8DA5CB5B EQ PUSH2 0x15E JUMPI DUP1 PUSH4 0x8F0BA30F EQ PUSH2 0x173 JUMPI DUP1 PUSH4 0xC025D1A5 EQ PUSH2 0x186 JUMPI DUP1 PUSH4 0xC4C96DAE EQ PUSH2 0x1B3 JUMPI DUP1 PUSH4 0xE696E462 EQ PUSH2 0x1C8 JUMPI DUP1 PUSH4 0xF292C415 EQ PUSH2 0x1E8 JUMPI PUSH2 0x9C JUMP JUMPDEST DUP1 PUSH4 0xC09FF56 EQ PUSH2 0xA1 JUMPI DUP1 PUSH4 0x24A3D622 EQ PUSH2 0xD7 JUMPI DUP1 PUSH4 0x647CC196 EQ PUSH2 0xF9 JUMPI DUP1 PUSH4 0x6DAD6AFB EQ PUSH2 0x127 JUMPI DUP1 PUSH4 0x82463367 EQ PUSH2 0x149 JUMPI JUMPDEST PUSH1 0x0 DUP1 REVERT JUMPDEST CALLVALUE DUP1 ISZERO PUSH2 0xAD JUMPI PUSH1 0x0 DUP1 REVERT JUMPDEST POP PUSH2 0xC1 PUSH2 0xBC CALLDATASIZE PUSH1 0x4 PUSH2 0x3D64 JUMP JUMPDEST PUSH2 0x208 JUMP JUMPDEST PUSH1 0x40 MLOAD PUSH2 0xCE SWAP2 SWAP1 PUSH2 0x409D JUMP JUMPDEST PUSH1 0x40 MLOAD DUP1 SWAP2 SUB SWAP1 RETURN JUMPDEST CALLVALUE DUP1 ISZERO PUSH2 0xE3 JUMPI PUSH1 0x0 DUP1 REVERT JUMPDEST POP PUSH2 0xEC PUSH2 0x229 JUMP JUMPDEST PUSH1 0x40 MLOAD PUSH2 0xCE SWAP2 SWAP1 PUSH2 0x3FED JUMP JUMPDEST CALLVALUE DUP1 ISZERO PUSH2 0x105 JUMPI PUSH1 0x0 DUP1 REVERT JUMPDEST POP PUSH2 0x119 PUSH2 0x114 CALLDATASIZE PUSH1 0x4 PUSH2 0x3D64 JUMP JUMPDEST PUSH2 0x238 JUMP JUMPDEST PUSH1 0x40 MLOAD PUSH2 0xCE SWAP3 SWAP2 SWAP1 PUSH2 0x40A6 JUMP JUMPDEST CALLVALUE DUP1 ISZERO PUSH2 0x133 JUMPI PUSH1 0x0 DUP1 REVERT JUMPDEST POP PUSH2 0x147 PUSH2 0x142 CALLDATASIZE PUSH1 0x4 PUSH2 0x3F24 JUMP JUMPDEST PUSH2 0x2AB JUMP JUMPDEST STOP JUMPDEST CALLVALUE DUP1 ISZERO PUSH2 0x155 JUMPI PUSH1 0x0 DUP1 REVERT JUMPDEST POP PUSH2 0xEC PUSH2 0x437 JUMP JUMPDEST CALLVALUE DUP1 ISZERO PUSH2 0x16A JUMPI PUSH1 0x0 DUP1 REVERT JUMPDEST POP PUSH2 0xEC PUSH2 0x446 JUMP JUMPDEST PUSH2 0x147 PUSH2 0x181 CALLDATASIZE PUSH1 0x4 PUSH2 0x3E0A JUMP JUMPDEST PUSH2 0x45D JUMP JUMPDEST CALLVALUE DUP1 ISZERO PUSH2 0x192 JUMPI PUSH1 0x0 DUP1 REVERT JUMPDEST POP PUSH2 0x1A6 PUSH2 0x1A1 CALLDATASIZE PUSH1 0x4 PUSH2 0x3D64 JUMP JUMPDEST PUSH2 0x558 JUMP JUMPDEST PUSH1 0x40 MLOAD PUSH2 0xCE SWAP2 SWAP1 PUSH2 0x43EE JUMP JUMPDEST CALLVALUE DUP1 ISZERO PUSH2 0x1BF JUMPI PUSH1 0x0 DUP1 REVERT JUMPDEST POP PUSH2 0xEC PUSH2 0x574 JUMP JUMPDEST CALLVALUE DUP1 ISZERO PUSH2 0x1D4 JUMPI PUSH1 0x0 DUP1 REVERT JUMPDEST POP PUSH2 0x147 PUSH2 0x1E3 CALLDATASIZE PUSH1 0x4 PUSH2 0x3EAE JUMP JUMPDEST PUSH2 0x58C JUMP JUMPDEST CALLVALUE DUP1 ISZERO PUSH2 0x1F4 JUMPI PUSH1 0x0 DUP1 REVERT JUMPDEST POP PUSH2 0xC1 PUSH2 0x203 CALLDATASIZE PUSH1 0x4 PUSH2 0x3D8D JUMP JUMPDEST PUSH2 0x71E JUMP JUMPDEST PUSH1 0x0 PUSH2 0x21C DUP4 PUSH2 0x217 DUP5 PUSH2 0x9DA JUMP JUMPDEST PUSH2 0x9EB JUMP JUMPDEST PUSH1 0x20 ADD MLOAD SWAP1 POP JUMPDEST SWAP3 SWAP2 POP POP JUMP JUMPDEST PUSH1 0x2 SLOAD PUSH1 0x1 PUSH1 0x1 PUSH1 0xA0 SHL SUB AND DUP2 JUMP JUMPDEST PUSH1 0x0 DUP1 PUSH1 0x0 PUSH2 0x246 DUP5 PUSH2 0xA6A JUMP JUMPDEST SWAP1 POP PUSH1 0x0 PUSH2 0x254 DUP7 DUP4 PUSH2 0x9EB JUMP JUMPDEST SWAP1 POP PUSH1 0x0 PUSH2 0x266 DUP7 DUP4 PUSH1 0x20 ADD MLOAD PUSH2 0xA99 JUMP JUMPDEST SWAP1 POP DUP3 PUSH1 0xA0 ADD MLOAD SWAP4 POP DUP1 PUSH1 0x40 ADD MLOAD ISZERO PUSH2 0x288 JUMPI PUSH1 0x1 PUSH1 0x1 PUSH1 0xFF SHL SUB SWAP5 POP PUSH2 0x2A1 JUMP JUMPDEST PUSH1 0x40 DUP3 ADD MLOAD DUP3 MLOAD PUSH2 0x29D SWAP2 DUP6 SWAP2 DUP5 SWAP2 SWAP1 PUSH2 0xB37 JUMP JUMPDEST POP SWAP5 POP JUMPDEST POP POP POP SWAP3 POP SWAP3 SWAP1 POP JUMP JUMPDEST PUSH1 0x2 PUSH1 0xA SLOAD EQ ISZERO PUSH2 0x2D7 JUMPI PUSH1 0x40 MLOAD PUSH3 0x461BCD PUSH1 0xE5 SHL DUP2 MSTORE PUSH1 0x4 ADD PUSH2 0x2CE SWAP1 PUSH2 0x42D4 JUMP JUMPDEST PUSH1 0x40 MLOAD DUP1 SWAP2 SUB SWAP1 REVERT JUMPDEST PUSH1 0x2 PUSH1 0xA SSTORE PUSH1 0x0 PUSH2 0x2E7 DUP9 PUSH2 0xBA0 JUMP JUMPDEST SWAP1 POP PUSH2 0x2F5 DUP2 DUP11 PUSH1 0x8 PUSH2 0xBC4 JUMP JUMPDEST PUSH2 0x301 DUP2 PUSH2 0x100 PUSH2 0xC2E JUMP JUMPDEST ISZERO PUSH2 0x30C JUMPI PUSH1 0x1 PUSH1 0xA SSTORE JUMPDEST PUSH1 0x0 PUSH2 0x318 DUP11 DUP4 PUSH2 0x9EB JUMP JUMPDEST SWAP1 POP TIMESTAMP DUP2 PUSH1 0x20 ADD MLOAD GT PUSH2 0x362 JUMPI PUSH1 0x20 DUP2 ADD MLOAD PUSH1 0x0 PUSH2 0x337 DUP4 DUP6 TIMESTAMP PUSH2 0xC43 JUMP JUMPDEST SWAP1 POP PUSH2 0x355 PUSH2 0x34A DUP6 DUP15 DUP5 DUP7 DUP12 DUP12 PUSH2 0xD87 JUMP JUMPDEST PUSH1 0x80 DUP6 ADD MLOAD SWAP1 PUSH2 0xF79 JUMP JUMPDEST PUSH1 0x80 DUP5 ADD MSTORE POP PUSH2 0x3F3 SWAP1 POP JUMP JUMPDEST PUSH1 0x0 PUSH2 0x376 DUP4 PUSH1 0x0 ADD MLOAD DUP4 PUSH1 0x20 ADD MLOAD PUSH2 0xA99 JUMP JUMPDEST SWAP1 POP DUP9 ISZERO PUSH2 0x3AC JUMPI PUSH1 0x0 PUSH2 0x38B DUP3 DUP5 DUP13 PUSH2 0xF8F JUMP JUMPDEST DUP3 MLOAD SWAP1 SWAP2 POP PUSH2 0x3A5 SWAP1 PUSH2 0x34A SWAP1 DUP7 SWAP1 DUP16 SWAP1 DUP6 SWAP1 DUP12 DUP12 PUSH2 0xD87 JUMP JUMPDEST PUSH1 0x80 DUP5 ADD MSTORE POP JUMPDEST PUSH2 0x3C5 DUP4 DUP3 PUSH2 0x3BA DUP12 PUSH2 0xFEE JUMP JUMPDEST DUP6 SWAP3 SWAP2 SWAP1 DUP12 TIMESTAMP PUSH2 0x100C JUMP JUMPDEST DUP2 MLOAD PUSH1 0x0 SGT ISZERO PUSH2 0x3E4 JUMPI PUSH1 0x40 DUP3 ADD MLOAD DUP3 MLOAD PUSH2 0x3E4 SWAP2 DUP6 SWAP2 DUP5 SWAP2 SWAP1 PUSH2 0x10D1 JUMP JUMPDEST DUP3 MLOAD PUSH2 0x3F1 SWAP1 DUP3 SWAP1 PUSH2 0x110D JUMP JUMPDEST POP JUMPDEST PUSH2 0x3FE DUP2 DUP4 DUP8 PUSH2 0x1229 JUMP JUMPDEST DUP1 MLOAD ISZERO DUP1 ISZERO PUSH2 0x40F JUMPI POP PUSH1 0x40 DUP2 ADD MLOAD ISZERO JUMPDEST ISZERO PUSH2 0x41C JUMPI PUSH1 0x0 PUSH1 0x20 DUP3 ADD MSTORE JUMPDEST PUSH2 0x426 DUP2 DUP4 PUSH2 0x1363 JUMP JUMPDEST POP POP PUSH1 0x1 PUSH1 0xA SSTORE POP POP POP POP POP POP POP POP JUMP JUMPDEST PUSH1 0x1 SLOAD PUSH1 0x1 PUSH1 0x1 PUSH1 0xA0 SHL SUB AND DUP2 JUMP JUMPDEST PUSH1 0x0 SLOAD PUSH5 0x100000000 SWAP1 DIV PUSH1 0x1 PUSH1 0x1 PUSH1 0xA0 SHL SUB AND DUP2 JUMP JUMPDEST PUSH1 0x2 PUSH1 0xA SLOAD EQ ISZERO PUSH2 0x480 JUMPI PUSH1 0x40 MLOAD PUSH3 0x461BCD PUSH1 0xE5 SHL DUP2 MSTORE PUSH1 0x4 ADD PUSH2 0x2CE SWAP1 PUSH2 0x42D4 JUMP JUMPDEST PUSH1 0x2 PUSH1 0xA SSTORE PUSH2 0x48E DUP10 PUSH2 0x147D JUMP JUMPDEST PUSH1 0x0 PUSH2 0x499 DUP10 PUSH2 0xBA0 JUMP JUMPDEST SWAP1 POP PUSH2 0x4A7 DUP2 DUP12 PUSH1 0x4 PUSH2 0xBC4 JUMP JUMPDEST PUSH2 0x4B3 DUP2 PUSH2 0x100 PUSH2 0xC2E JUMP JUMPDEST ISZERO PUSH2 0x4BE JUMPI PUSH1 0x1 PUSH1 0xA SSTORE JUMPDEST PUSH2 0x4C9 DUP2 PUSH1 0x1 PUSH2 0xC2E JUMP JUMPDEST PUSH2 0x4E5 JUMPI PUSH1 0x40 MLOAD PUSH3 0x461BCD PUSH1 0xE5 SHL DUP2 MSTORE PUSH1 0x4 ADD PUSH2 0x2CE SWAP1 PUSH2 0x4374 JUMP JUMPDEST PUSH1 0x0 PUSH2 0x4F1 DUP12 DUP4 PUSH2 0x9EB JUMP JUMPDEST SWAP1 POP PUSH1 0x0 DUP2 PUSH1 0x20 ADD MLOAD PUSH1 0x0 EQ ISZERO DUP1 ISZERO PUSH2 0x50E JUMPI POP TIMESTAMP DUP3 PUSH1 0x20 ADD MLOAD GT ISZERO JUMPDEST ISZERO PUSH2 0x521 JUMPI PUSH2 0x51E DUP3 DUP5 TIMESTAMP PUSH2 0xC43 JUMP JUMPDEST SWAP1 POP JUMPDEST PUSH1 0x40 DUP4 ADD MLOAD PUSH2 0x535 SWAP1 DUP4 SWAP1 DUP15 SWAP1 DUP14 DUP13 PUSH2 0x14CC JUMP JUMPDEST PUSH2 0x545 DUP3 DUP5 DUP12 DUP11 DUP11 DUP11 DUP11 DUP9 PUSH2 0x15E1 JUMP JUMPDEST POP POP PUSH1 0x1 PUSH1 0xA SSTORE POP POP POP POP POP POP POP POP POP POP JUMP JUMPDEST PUSH2 0x560 PUSH2 0x3B59 JUMP JUMPDEST PUSH2 0x56D DUP4 PUSH2 0x217 DUP5 PUSH2 0x9DA JUMP JUMPDEST SWAP4 SWAP3 POP POP POP JUMP JUMPDEST PUSH20 0x0 SWAP1 JUMP JUMPDEST PUSH1 0x2 PUSH1 0xA SLOAD EQ ISZERO PUSH2 0x5AF JUMPI PUSH1 0x40 MLOAD PUSH3 0x461BCD PUSH1 0xE5 SHL DUP2 MSTORE PUSH1 0x4 ADD PUSH2 0x2CE SWAP1 PUSH2 0x42D4 JUMP JUMPDEST PUSH1 0x2 PUSH1 0xA SSTORE PUSH1 0x0 PUSH2 0x5BF DUP6 PUSH2 0xBA0 JUMP JUMPDEST SWAP1 POP PUSH2 0x5CD DUP2 DUP8 PUSH1 0x10 PUSH2 0xBC4 JUMP JUMPDEST PUSH2 0x5D9 DUP2 PUSH2 0x100 PUSH2 0xC2E JUMP JUMPDEST ISZERO PUSH2 0x5E4 JUMPI PUSH1 0x1 PUSH1 0xA SSTORE JUMPDEST PUSH1 0x0 PUSH2 0x5F0 DUP8 DUP4 PUSH2 0x9EB JUMP JUMPDEST SWAP1 POP PUSH2 0x5FD DUP3 PUSH1 0x1 PUSH2 0xC2E JUMP JUMPDEST DUP1 ISZERO PUSH2 0x60F JUMPI POP PUSH2 0x60F DUP3 PUSH1 0x2 PUSH2 0xC2E JUMP JUMPDEST DUP1 ISZERO PUSH2 0x61E JUMPI POP DUP1 PUSH1 0x20 ADD MLOAD TIMESTAMP LT JUMPDEST DUP1 ISZERO PUSH2 0x62D JUMPI POP DUP4 DUP2 PUSH1 0x20 ADD MLOAD LT JUMPDEST DUP1 ISZERO PUSH2 0x639 JUMPI POP PUSH1 0x0 DUP6 GT JUMPDEST PUSH2 0x655 JUMPI PUSH1 0x40 MLOAD PUSH3 0x461BCD PUSH1 0xE5 SHL DUP2 MSTORE PUSH1 0x4 ADD PUSH2 0x2CE SWAP1 PUSH2 0x423D JUMP JUMPDEST PUSH1 0x0 PUSH2 0x669 DUP4 PUSH1 0x0 ADD MLOAD DUP4 PUSH1 0x20 ADD MLOAD PUSH2 0xA99 JUMP JUMPDEST SWAP1 POP PUSH1 0x0 PUSH2 0x686 DUP4 DUP5 PUSH1 0x40 ADD MLOAD DUP5 PUSH2 0xF8F SWAP1 SWAP3 SWAP2 SWAP1 PUSH4 0xFFFFFFFF AND JUMP JUMPDEST SWAP1 POP PUSH2 0x6B2 DUP5 DUP4 PUSH2 0x69A DUP7 PUSH1 0x0 ADD MLOAD PUSH2 0x1678 JUMP JUMPDEST PUSH2 0x6A7 PUSH1 0x20 DUP11 ADD DUP11 PUSH2 0x3FD3 JUMP JUMPDEST DUP8 SWAP4 SWAP3 SWAP2 SWAP1 TIMESTAMP PUSH2 0x100C JUMP JUMPDEST DUP3 MLOAD ISZERO PUSH2 0x6D1 JUMPI PUSH1 0x40 MLOAD PUSH3 0x461BCD PUSH1 0xE5 SHL DUP2 MSTORE PUSH1 0x4 ADD PUSH2 0x2CE SWAP1 PUSH2 0x439A JUMP JUMPDEST DUP4 MLOAD PUSH2 0x6DE SWAP1 DUP4 SWAP1 PUSH2 0x110D JUMP JUMPDEST PUSH2 0x70E DUP5 DUP8 DUP10 PUSH2 0x6F4 PUSH1 0x40 DUP11 ADD PUSH1 0x20 DUP12 ADD PUSH2 0x3FD3 JUMP JUMPDEST PUSH2 0x701 PUSH1 0x40 DUP12 ADD DUP12 PUSH2 0x4454 JUMP JUMPDEST DUP10 SWAP6 SWAP5 SWAP4 SWAP3 SWAP2 SWAP1 DUP9 PUSH2 0x15E1 JUMP JUMPDEST POP POP PUSH1 0x1 PUSH1 0xA SSTORE POP POP POP POP POP POP POP JUMP JUMPDEST PUSH1 0x0 PUSH1 0x2 PUSH1 0xA SLOAD EQ ISZERO PUSH2 0x743 JUMPI PUSH1 0x40 MLOAD PUSH3 0x461BCD PUSH1 0xE5 SHL DUP2 MSTORE PUSH1 0x4 ADD PUSH2 0x2CE SWAP1 PUSH2 0x42D4 JUMP JUMPDEST PUSH1 0x2 PUSH1 0xA SSTORE PUSH1 0x0 PUSH2 0x753 DUP8 PUSH2 0xBA0 JUMP JUMPDEST SWAP1 POP PUSH2 0x761 DUP2 PUSH2 0x100 PUSH2 0xC2E JUMP JUMPDEST ISZERO PUSH2 0x76C JUMPI PUSH1 0x1 PUSH1 0xA SSTORE JUMPDEST PUSH2 0x777 DUP2 PUSH1 0x20 PUSH2 0xC2E JUMP JUMPDEST ISZERO PUSH2 0x7A4 JUMPI CALLER PUSH1 0x1 PUSH1 0x1 PUSH1 0xA0 SHL SUB DUP9 AND EQ PUSH2 0x7A4 JUMPI PUSH1 0x40 MLOAD PUSH3 0x461BCD PUSH1 0xE5 SHL DUP2 MSTORE PUSH1 0x4 ADD PUSH2 0x2CE SWAP1 PUSH2 0x40B4 JUMP JUMPDEST PUSH1 0x1 PUSH1 0x1 PUSH1 0xA0 SHL SUB DUP9 AND CALLER EQ DUP1 ISZERO SWAP1 PUSH2 0x7CF JUMPI POP DUP6 PUSH1 0x1 PUSH1 0x1 PUSH1 0xA0 SHL SUB AND DUP9 PUSH1 0x1 PUSH1 0x1 PUSH1 0xA0 SHL SUB AND EQ ISZERO JUMPDEST PUSH2 0x7EB JUMPI PUSH1 0x40 MLOAD PUSH3 0x461BCD PUSH1 0xE5 SHL DUP2 MSTORE PUSH1 0x4 ADD PUSH2 0x2CE SWAP1 PUSH2 0x40B4 JUMP JUMPDEST PUSH1 0x0 PUSH2 0x7F7 DUP10 DUP4 PUSH2 0x9EB JUMP JUMPDEST SWAP1 POP PUSH1 0x0 PUSH2 0x809 DUP10 DUP4 PUSH1 0x20 ADD MLOAD PUSH2 0xA99 JUMP JUMPDEST SWAP1 POP DUP2 PUSH1 0x20 ADD MLOAD TIMESTAMP LT PUSH2 0x81B JUMPI PUSH1 0x0 DUP1 REVERT JUMPDEST PUSH1 0x40 DUP3 ADD MLOAD DUP3 MLOAD PUSH1 0x0 SWAP2 DUP3 SWAP2 PUSH2 0x835 SWAP2 DUP8 SWAP2 DUP7 SWAP2 SWAP1 PUSH2 0xB37 JUMP JUMPDEST SWAP2 POP SWAP2 POP DUP5 PUSH1 0xA0 ADD MLOAD DUP3 SLT PUSH2 0x85C JUMPI PUSH1 0x40 MLOAD PUSH3 0x461BCD PUSH1 0xE5 SHL DUP2 MSTORE PUSH1 0x4 ADD PUSH2 0x2CE SWAP1 PUSH2 0x43BF JUMP JUMPDEST PUSH1 0x0 PUSH2 0x86F DUP7 PUSH1 0x40 ADD MLOAD PUSH2 0xFFFF AND PUSH2 0x1686 JUMP JUMPDEST SWAP1 POP PUSH2 0x87E DUP2 DUP7 DUP9 DUP14 DUP7 PUSH2 0x1699 JUMP JUMPDEST PUSH1 0x40 DUP8 ADD MLOAD SWAP1 SWAP11 POP PUSH2 0x896 SWAP1 DUP7 SWAP1 DUP14 SWAP1 DUP14 PUSH1 0x0 PUSH2 0x14CC JUMP JUMPDEST PUSH1 0x0 PUSH2 0x8DD PUSH4 0x3B9ACA00 PUSH2 0x8D7 PUSH2 0x8AC DUP7 PUSH2 0x1710 JUMP JUMPDEST PUSH2 0x8D7 DUP11 PUSH1 0x40 ADD MLOAD PUSH2 0x8D1 PUSH2 0x8C4 DUP15 PUSH1 0xC0 ADD MLOAD PUSH2 0x1710 JUMP JUMPDEST PUSH2 0x8D1 DUP15 PUSH1 0x80 ADD MLOAD PUSH2 0x1710 JUMP JUMPDEST SWAP1 PUSH2 0x171F JUMP JUMPDEST SWAP1 PUSH2 0x1746 JUMP JUMPDEST PUSH1 0x40 DUP8 ADD MLOAD SWAP1 SWAP2 POP PUSH2 0x8EF SWAP1 DUP3 PUSH2 0x1765 JUMP JUMPDEST PUSH1 0x40 DUP8 ADD MSTORE PUSH1 0x80 DUP7 ADD MLOAD PUSH2 0x160 DUP9 ADD MLOAD PUSH2 0x915 SWAP2 PUSH2 0x90D SWAP2 SWAP1 PUSH2 0x177A JUMP JUMPDEST DUP8 MLOAD SWAP1 PUSH2 0xF79 JUMP JUMPDEST DUP1 DUP8 MSTORE PUSH1 0x0 SLT ISZERO PUSH2 0x925 JUMPI PUSH1 0x0 DUP7 MSTORE JUMPDEST PUSH1 0x0 PUSH1 0x80 DUP8 ADD MSTORE PUSH2 0x936 DUP7 DUP9 PUSH2 0x1363 JUMP JUMPDEST PUSH2 0x941 DUP8 PUSH1 0x80 PUSH2 0xC2E JUMP JUMPDEST ISZERO PUSH2 0x971 JUMPI DUP7 MLOAD PUSH2 0x953 SWAP1 DUP7 SWAP1 PUSH2 0x110D JUMP JUMPDEST PUSH2 0x963 DUP13 DUP9 DUP4 DUP10 PUSH1 0x20 ADD MLOAD PUSH2 0x17AD JUMP JUMPDEST SWAP8 POP POP POP POP POP POP POP POP PUSH2 0x9CB JUMP JUMPDEST PUSH1 0x0 PUSH2 0x981 DUP14 DUP10 DUP9 DUP6 DUP16 DUP16 PUSH2 0x181D JUMP JUMPDEST SWAP1 POP PUSH1 0x0 PUSH2 0x9AC DUP15 DUP11 PUSH1 0x40 ADD MLOAD PUSH2 0xFFFF AND PUSH2 0x9A3 PUSH2 0x99E DUP7 PUSH2 0xFEE JUMP JUMPDEST PUSH2 0x1678 JUMP JUMPDEST DUP8 SWAP3 SWAP2 SWAP1 PUSH2 0x186E JUMP JUMPDEST SWAP1 POP PUSH2 0x9BF PUSH2 0x9BA DUP3 PUSH2 0x1678 JUMP JUMPDEST PUSH2 0x1710 JUMP JUMPDEST SWAP10 POP POP POP POP POP POP POP POP POP POP JUMPDEST PUSH1 0x1 PUSH1 0xA SSTORE SWAP7 SWAP6 POP POP POP POP POP POP JUMP JUMPDEST PUSH2 0x9E2 PUSH2 0x3B91 JUMP JUMPDEST PUSH2 0x223 DUP3 PUSH2 0x1916 JUMP JUMPDEST PUSH2 0x9F3 PUSH2 0x3B59 JUMP JUMPDEST PUSH1 0x0 PUSH2 0x9FD PUSH2 0x1A95 JUMP JUMPDEST PUSH1 0x1 PUSH1 0x1 PUSH1 0xA0 SHL SUB SWAP5 DUP6 AND PUSH1 0x0 DUP2 DUP2 MSTORE PUSH1 0x20 SWAP3 DUP4 MSTORE PUSH1 0x40 DUP1 DUP3 KECCAK256 SWAP7 MLOAD SWAP1 SWAP8 AND DUP2 MSTORE SWAP5 DUP3 MSTORE DUP6 DUP6 KECCAK256 SLOAD PUSH1 0x1 PUSH1 0x1 PUSH1 0x50 SHL SUB DUP1 DUP3 AND DUP8 SUB DUP7 MSTORE PUSH4 0xFFFFFFFF PUSH1 0x1 PUSH1 0xA0 SHL DUP4 DIV AND SWAP4 DUP7 ADD SWAP4 SWAP1 SWAP4 MSTORE PUSH1 0x1 PUSH1 0x50 SHL SWAP1 DIV SWAP1 SWAP2 AND SWAP5 DUP4 ADD SWAP5 SWAP1 SWAP5 MSTORE POP PUSH1 0x60 DUP2 ADD SWAP3 SWAP1 SWAP3 MSTORE PUSH1 0x80 DUP3 ADD MSTORE SWAP1 JUMP JUMPDEST PUSH2 0xA72 PUSH2 0x3B91 JUMP JUMPDEST PUSH2 0xA7B DUP3 PUSH2 0x1916 JUMP JUMPDEST SWAP1 POP PUSH2 0xA8E DUP2 PUSH1 0x40 ADD MLOAD PUSH2 0xFFFF AND PUSH2 0x1AA2 JUMP JUMPDEST PUSH2 0x160 DUP3 ADD MSTORE SWAP2 SWAP1 POP JUMP JUMPDEST PUSH2 0xAA1 PUSH2 0x3C0E JUMP JUMPDEST PUSH1 0x0 PUSH2 0xAAB PUSH2 0x1AEE JUMP JUMPDEST PUSH1 0x1 PUSH1 0x1 PUSH1 0xA0 SHL SUB SWAP1 SWAP5 AND PUSH1 0x0 SWAP1 DUP2 MSTORE PUSH1 0x20 SWAP5 DUP6 MSTORE PUSH1 0x40 DUP1 DUP3 KECCAK256 DUP6 DUP4 MSTORE DUP7 MSTORE DUP1 DUP3 KECCAK256 SWAP5 DUP5 MSTORE DUP5 SLOAD PUSH1 0x1 PUSH1 0x1 PUSH1 0x50 SHL SUB DUP1 DUP3 AND PUSH1 0x9 SIGNEXTEND SWAP1 SWAP4 SUB SWAP7 DUP6 ADD SWAP7 SWAP1 SWAP7 MSTORE PUSH1 0xFF PUSH1 0x1 PUSH1 0xF0 SHL DUP8 DIV AND ISZERO ISZERO SWAP1 DUP5 ADD MSTORE PUSH1 0x1 PUSH1 0x50 SHL DUP1 DUP7 DIV DUP3 AND PUSH1 0x80 DUP6 ADD MSTORE PUSH1 0x1 SWAP1 SWAP5 ADD SLOAD DUP1 DUP3 AND PUSH1 0xA0 DUP6 ADD MSTORE PUSH1 0x1 PUSH1 0xA0 SHL SWAP1 SWAP6 DIV DUP2 AND PUSH1 0x60 DUP5 ADD MSTORE SWAP3 SWAP1 SWAP4 DIV SWAP1 SWAP2 AND PUSH1 0xC0 DUP3 ADD MSTORE SWAP2 SWAP1 POP JUMP JUMPDEST PUSH1 0x0 DUP1 PUSH2 0xB45 DUP6 DUP8 DUP7 PUSH2 0x1AFB JUMP JUMPDEST SWAP1 POP PUSH1 0x0 PUSH2 0xB61 PUSH2 0xB55 DUP6 PUSH2 0x1678 JUMP JUMPDEST PUSH2 0x160 DUP10 ADD MLOAD SWAP1 PUSH2 0x1B5E JUMP JUMPDEST SWAP1 POP PUSH1 0x0 PUSH2 0xB6F DUP4 DUP4 PUSH2 0x1B89 JUMP JUMPDEST SWAP1 POP PUSH1 0x0 DUP3 SGT PUSH2 0xB88 JUMPI PUSH1 0x1 PUSH1 0x1 PUSH1 0xFF SHL SUB SWAP4 POP PUSH2 0xB95 JUMP JUMPDEST PUSH2 0xB92 DUP2 DUP4 PUSH2 0x1B9F JUMP JUMPDEST SWAP4 POP JUMPDEST POP POP SWAP5 POP SWAP5 SWAP3 POP POP POP JUMP JUMPDEST PUSH2 0xBA8 PUSH2 0x3B91 JUMP JUMPDEST PUSH2 0xBB1 DUP3 PUSH2 0x1916 JUMP JUMPDEST SWAP1 POP PUSH2 0xA8E DUP2 PUSH1 0x40 ADD MLOAD PUSH2 0xFFFF AND PUSH2 0x1BB8 JUMP JUMPDEST PUSH2 0xBCE DUP4 DUP3 PUSH2 0xC2E JUMP JUMPDEST ISZERO PUSH2 0xC01 JUMPI DUP3 MLOAD PUSH1 0x1 PUSH1 0x1 PUSH1 0xA0 SHL SUB AND CALLER EQ PUSH2 0xBFC JUMPI PUSH1 0x40 MLOAD PUSH3 0x461BCD PUSH1 0xE5 SHL DUP2 MSTORE PUSH1 0x4 ADD PUSH2 0x2CE SWAP1 PUSH2 0x40B4 JUMP JUMPDEST PUSH2 0xC29 JUMP JUMPDEST PUSH1 0x1 PUSH1 0x1 PUSH1 0xA0 SHL SUB DUP3 AND CALLER EQ PUSH2 0xC29 JUMPI PUSH1 0x40 MLOAD PUSH3 0x461BCD PUSH1 0xE5 SHL DUP2 MSTORE PUSH1 0x4 ADD PUSH2 0x2CE SWAP1 PUSH2 0x40B4 JUMP JUMPDEST POP POP POP JUMP JUMPDEST PUSH1 0x20 SWAP2 SWAP1 SWAP2 ADD MLOAD DUP2 AND PUSH2 0xFFFF SWAP1 DUP2 AND SWAP2 AND EQ SWAP1 JUMP JUMPDEST PUSH1 0x0 DUP1 PUSH2 0xC58 DUP5 PUSH1 0x0 ADD MLOAD DUP7 PUSH1 0x20 ADD MLOAD PUSH2 0xA99 JUMP JUMPDEST SWAP1 POP DUP1 PUSH1 0x40 ADD MLOAD PUSH2 0xC7B JUMPI PUSH1 0x40 MLOAD PUSH3 0x461BCD PUSH1 0xE5 SHL DUP2 MSTORE PUSH1 0x4 ADD PUSH2 0x2CE SWAP1 PUSH2 0x41E8 JUMP JUMPDEST PUSH1 0x0 PUSH2 0xC94 DUP6 PUSH1 0x40 ADD MLOAD PUSH2 0xFFFF AND DUP8 PUSH1 0x20 ADD MLOAD DUP7 PUSH2 0x1BCE JUMP JUMPDEST SWAP1 POP PUSH1 0x0 PUSH2 0xCC1 PUSH4 0x5F5E100 PUSH2 0xCBB DUP6 PUSH1 0xC0 ADD MLOAD PUSH2 0xCB5 DUP8 PUSH1 0xA0 ADD MLOAD PUSH2 0xFEE JUMP JUMPDEST SWAP1 PUSH2 0x1D3E JUMP JUMPDEST SWAP1 PUSH2 0x1D8C JUMP JUMPDEST SWAP1 POP PUSH1 0x0 PUSH2 0xCD1 DUP9 DUP6 DUP6 DUP6 PUSH2 0x1DBD JUMP JUMPDEST SWAP1 POP PUSH1 0x0 PUSH2 0xD02 PUSH2 0xCEF DUP7 PUSH1 0x20 ADD MLOAD DUP7 PUSH2 0x1B5E SWAP1 SWAP2 SWAP1 PUSH4 0xFFFFFFFF AND JUMP JUMPDEST PUSH2 0xCFC DUP8 PUSH1 0x80 ADD MLOAD PUSH2 0xFEE JUMP JUMPDEST SWAP1 PUSH2 0xF79 JUMP JUMPDEST SWAP1 POP PUSH1 0x0 PUSH2 0xD14 DUP5 PUSH2 0xCFC DUP8 DUP6 PUSH2 0x177A JUMP JUMPDEST SWAP1 POP PUSH1 0x0 PUSH2 0xD33 DUP3 PUSH2 0xCBB PUSH2 0xD2C DUP11 PUSH1 0xA0 ADD MLOAD PUSH2 0xFEE JUMP JUMPDEST DUP8 SWAP1 PUSH2 0x1D3E JUMP JUMPDEST SWAP1 POP PUSH1 0x0 PUSH2 0xD45 DUP4 PUSH2 0xCBB DUP8 DUP8 PUSH2 0x1D3E JUMP JUMPDEST PUSH1 0x0 DUP14 MSTORE PUSH1 0x80 DUP14 ADD MLOAD SWAP1 SWAP2 POP PUSH2 0xD5B SWAP1 DUP3 PUSH2 0xF79 JUMP JUMPDEST PUSH1 0x80 DUP14 ADD MSTORE PUSH1 0x0 PUSH1 0x40 DUP14 ADD DUP2 SWAP1 MSTORE PUSH1 0x20 DUP14 ADD MSTORE PUSH2 0xD77 DUP3 PUSH2 0x1710 JUMP JUMPDEST SWAP13 SWAP12 POP POP POP POP POP POP POP POP POP POP POP POP JUMP JUMPDEST PUSH1 0x0 DUP5 PUSH2 0xD96 JUMPI POP PUSH1 0x0 PUSH2 0xF6F JUMP JUMPDEST PUSH1 0x0 PUSH2 0xDA9 DUP9 PUSH1 0x40 ADD MLOAD PUSH2 0xFFFF AND PUSH2 0x1686 JUMP JUMPDEST SWAP1 POP PUSH1 0x0 DUP2 PUSH1 0x0 ADD MLOAD PUSH1 0x1 PUSH1 0x1 PUSH1 0xA0 SHL SUB AND PUSH4 0x70A08231 ADDRESS PUSH1 0x40 MLOAD DUP3 PUSH4 0xFFFFFFFF AND PUSH1 0xE0 SHL DUP2 MSTORE PUSH1 0x4 ADD PUSH2 0xDDD SWAP2 SWAP1 PUSH2 0x3FED JUMP JUMPDEST PUSH1 0x20 PUSH1 0x40 MLOAD DUP1 DUP4 SUB DUP2 DUP7 DUP1 EXTCODESIZE ISZERO DUP1 ISZERO PUSH2 0xDF5 JUMPI PUSH1 0x0 DUP1 REVERT JUMPDEST POP GAS STATICCALL ISZERO DUP1 ISZERO PUSH2 0xE09 JUMPI RETURNDATASIZE PUSH1 0x0 DUP1 RETURNDATACOPY RETURNDATASIZE PUSH1 0x0 REVERT JUMPDEST POP POP POP POP PUSH1 0x40 MLOAD RETURNDATASIZE PUSH1 0x1F NOT PUSH1 0x1F DUP3 ADD AND DUP3 ADD DUP1 PUSH1 0x40 MSTORE POP DUP2 ADD SWAP1 PUSH2 0xE2D SWAP2 SWAP1 PUSH2 0x3FBB JUMP JUMPDEST DUP10 MLOAD PUSH1 0x40 MLOAD PUSH4 0x4D6DC4DF PUSH1 0xE1 SHL DUP2 MSTORE SWAP2 SWAP3 POP PUSH1 0x1 PUSH1 0x1 PUSH1 0xA0 SHL SUB AND SWAP1 PUSH4 0x9ADB89BE SWAP1 PUSH2 0xE65 SWAP1 DUP12 SWAP1 DUP12 SWAP1 DUP12 SWAP1 DUP12 SWAP1 DUP12 SWAP1 PUSH1 0x4 ADD PUSH2 0x4051 JUMP JUMPDEST PUSH1 0x0 PUSH1 0x40 MLOAD DUP1 DUP4 SUB DUP2 PUSH1 0x0 DUP8 DUP1 EXTCODESIZE ISZERO DUP1 ISZERO PUSH2 0xE7F JUMPI PUSH1 0x0 DUP1 REVERT JUMPDEST POP GAS CALL ISZERO DUP1 ISZERO PUSH2 0xE93 JUMPI RETURNDATASIZE PUSH1 0x0 DUP1 RETURNDATACOPY RETURNDATASIZE PUSH1 0x0 REVERT JUMPDEST POP POP DUP4 MLOAD PUSH1 0x40 MLOAD PUSH4 0x70A08231 PUSH1 0xE0 SHL DUP2 MSTORE PUSH1 0x0 SWAP4 POP PUSH1 0x1 PUSH1 0x1 PUSH1 0xA0 SHL SUB SWAP1 SWAP2 AND SWAP2 POP PUSH4 0x70A08231 SWAP1 PUSH2 0xEC9 SWAP1 ADDRESS SWAP1 PUSH1 0x4 ADD PUSH2 0x3FED JUMP JUMPDEST PUSH1 0x20 PUSH1 0x40 MLOAD DUP1 DUP4 SUB DUP2 DUP7 DUP1 EXTCODESIZE ISZERO DUP1 ISZERO PUSH2 0xEE1 JUMPI PUSH1 0x0 DUP1 REVERT JUMPDEST POP GAS STATICCALL ISZERO DUP1 ISZERO PUSH2 0xEF5 JUMPI RETURNDATASIZE PUSH1 0x0 DUP1 RETURNDATACOPY RETURNDATASIZE PUSH1 0x0 REVERT JUMPDEST POP POP POP POP PUSH1 0x40 MLOAD RETURNDATASIZE PUSH1 0x1F NOT PUSH1 0x1F DUP3 ADD AND DUP3 ADD DUP1 PUSH1 0x40 MSTORE POP DUP2 ADD SWAP1 PUSH2 0xF19 SWAP2 SWAP1 PUSH2 0x3FBB JUMP JUMPDEST SWAP1 POP PUSH1 0x0 PUSH2 0xF2F PUSH2 0xF2A DUP4 DUP6 PUSH2 0x1765 JUMP JUMPDEST PUSH2 0xFEE JUMP JUMPDEST SWAP1 POP PUSH1 0x5 DUP5 PUSH1 0x60 ADD MLOAD PUSH1 0x5 DUP2 GT ISZERO PUSH2 0xF43 JUMPI INVALID JUMPDEST EQ ISZERO PUSH2 0xF5E JUMPI PUSH2 0xF5B DUP12 PUSH1 0x40 ADD MLOAD PUSH2 0xFFFF AND DUP3 PUSH2 0x1E42 JUMP JUMPDEST SWAP1 POP JUMPDEST PUSH2 0xF68 DUP5 DUP3 PUSH2 0x1EC9 JUMP JUMPDEST SWAP5 POP POP POP POP POP JUMPDEST SWAP7 SWAP6 POP POP POP POP POP POP JUMP JUMPDEST DUP2 DUP2 ADD DUP3 DUP2 SLT ISZERO PUSH1 0x0 DUP4 SLT ISZERO EQ PUSH2 0x223 JUMPI PUSH1 0x0 DUP1 REVERT JUMPDEST DUP3 MLOAD PUSH1 0x20 DUP4 ADD MLOAD PUSH1 0x0 SWAP2 EQ PUSH2 0xFA3 JUMPI PUSH1 0x0 DUP1 REVERT JUMPDEST PUSH1 0x40 DUP4 ADD MLOAD PUSH2 0xFB2 SWAP1 DUP4 PUSH2 0x1765 JUMP JUMPDEST PUSH1 0x40 DUP5 ADD MSTORE PUSH1 0x0 PUSH2 0xFC3 DUP6 DUP5 PUSH2 0x1EF9 JUMP JUMPDEST SWAP3 POP SWAP1 POP PUSH2 0xFDE PUSH2 0xFD3 DUP3 PUSH2 0xFEE JUMP JUMPDEST PUSH1 0x80 DUP7 ADD MLOAD SWAP1 PUSH2 0xF79 JUMP JUMPDEST PUSH1 0x80 SWAP1 SWAP5 ADD SWAP4 SWAP1 SWAP4 MSTORE SWAP4 SWAP3 POP POP POP JUMP JUMPDEST PUSH1 0x0 PUSH1 0x1 PUSH1 0x1 PUSH1 0xFF SHL SUB DUP3 GT ISZERO PUSH2 0x1004 JUMPI PUSH1 0x0 DUP1 REVERT JUMPDEST POP DUP1 JUMPDEST SWAP2 SWAP1 POP JUMP JUMPDEST DUP6 MLOAD PUSH1 0x0 SWAP1 PUSH2 0x101B SWAP1 DUP6 PUSH2 0xF79 JUMP JUMPDEST SGT ISZERO PUSH2 0x1026 JUMPI PUSH1 0x0 DUP1 REVERT JUMPDEST DUP6 PUSH1 0x20 ADD MLOAD DUP2 LT PUSH2 0x1036 JUMPI PUSH1 0x0 DUP1 REVERT JUMPDEST PUSH1 0x0 PUSH2 0x1053 DUP7 PUSH1 0x40 ADD MLOAD DUP9 PUSH1 0x20 ADD MLOAD DUP7 DUP7 DUP11 PUSH2 0x100 ADD MLOAD DUP8 PUSH2 0x1F50 JUMP JUMPDEST SWAP1 POP DUP1 PUSH2 0x1071 JUMPI PUSH2 0x160 DUP7 ADD MLOAD PUSH2 0x106E SWAP1 PUSH2 0x99E SWAP1 DUP7 PUSH2 0x1B5E JUMP JUMPDEST SWAP1 POP JUMPDEST PUSH1 0x0 DUP2 SGT ISZERO PUSH2 0x107F JUMPI PUSH1 0x0 DUP1 REVERT JUMPDEST PUSH1 0x80 DUP8 ADD MLOAD PUSH2 0x108E SWAP1 DUP3 PUSH2 0xF79 JUMP JUMPDEST PUSH1 0x80 DUP9 ADD MSTORE DUP7 MLOAD PUSH2 0x109F SWAP1 DUP6 PUSH2 0xF79 JUMP JUMPDEST DUP8 MSTORE PUSH1 0x20 DUP6 ADD MLOAD PUSH2 0x10B0 SWAP1 DUP6 PUSH2 0xF79 JUMP JUMPDEST PUSH1 0x20 DUP7 ADD MSTORE DUP6 MLOAD PUSH1 0x40 DUP8 ADD MLOAD PUSH2 0x10C7 SWAP2 SWAP1 DUP7 PUSH2 0x2082 JUMP JUMPDEST POP POP POP POP POP POP POP POP JUMP JUMPDEST PUSH1 0x0 PUSH2 0x10DF DUP6 DUP6 DUP6 DUP6 PUSH2 0xB37 JUMP JUMPDEST POP SWAP1 POP DUP1 DUP6 PUSH1 0xA0 ADD MLOAD SGT ISZERO PUSH2 0x1106 JUMPI PUSH1 0x40 MLOAD PUSH3 0x461BCD PUSH1 0xE5 SHL DUP2 MSTORE PUSH1 0x4 ADD PUSH2 0x2CE SWAP1 PUSH2 0x4266 JUMP JUMPDEST POP POP POP POP POP JUMP JUMPDEST PUSH1 0x0 PUSH2 0x1117 PUSH2 0x1AEE JUMP JUMPDEST PUSH1 0x1 PUSH1 0x1 PUSH1 0xA0 SHL SUB DUP4 AND PUSH1 0x0 SWAP1 DUP2 MSTORE PUSH1 0x20 DUP3 DUP2 MSTORE PUSH1 0x40 DUP1 DUP4 KECCAK256 DUP8 MLOAD DUP5 MSTORE SWAP1 SWAP2 MSTORE SWAP1 DUP2 SWAP1 KECCAK256 SWAP1 DUP6 ADD MLOAD SWAP2 SWAP3 POP SWAP1 ISZERO PUSH2 0x114D JUMPI PUSH1 0x0 DUP1 REVERT JUMPDEST PUSH2 0x1165 PUSH2 0x1160 PUSH2 0x9BA DUP7 PUSH1 0x20 ADD MLOAD PUSH2 0x1678 JUMP JUMPDEST PUSH2 0x2141 JUMP JUMPDEST DUP2 SLOAD PUSH10 0xFFFFFFFFFFFFFFFFFFFF NOT AND PUSH1 0x1 PUSH1 0x1 PUSH1 0x50 SHL SUB SWAP2 SWAP1 SWAP2 AND OR DUP2 SSTORE PUSH1 0x80 DUP5 ADD MLOAD PUSH2 0x1191 SWAP1 PUSH2 0x2141 JUMP JUMPDEST DUP2 SLOAD PUSH1 0x1 PUSH1 0x1 PUSH1 0x50 SHL SUB SWAP2 SWAP1 SWAP2 AND PUSH1 0x1 PUSH1 0x50 SHL MUL PUSH10 0xFFFFFFFFFFFFFFFFFFFF PUSH1 0x50 SHL NOT SWAP1 SWAP2 AND OR DUP2 SSTORE PUSH1 0xA0 DUP5 ADD MLOAD PUSH2 0x11C8 SWAP1 PUSH2 0x2141 JUMP JUMPDEST PUSH1 0x1 DUP3 ADD DUP1 SLOAD PUSH10 0xFFFFFFFFFFFFFFFFFFFF NOT AND PUSH1 0x1 PUSH1 0x1 PUSH1 0x50 SHL SUB SWAP3 SWAP1 SWAP3 AND SWAP2 SWAP1 SWAP2 OR SWAP1 SSTORE PUSH1 0x60 DUP5 ADD MLOAD PUSH2 0x11FB SWAP1 PUSH2 0x2141 JUMP JUMPDEST DUP2 SLOAD PUSH1 0x1 PUSH1 0x1 PUSH1 0x50 SHL SUB SWAP2 SWAP1 SWAP2 AND PUSH1 0x1 PUSH1 0xA0 SHL MUL PUSH10 0xFFFFFFFFFFFFFFFFFFFF PUSH1 0xA0 SHL NOT SWAP1 SWAP2 AND OR SWAP1 SSTORE POP POP POP JUMP JUMPDEST PUSH1 0x40 DUP3 ADD MLOAD PUSH1 0x0 PUSH2 0x123D PUSH2 0xFFFF DUP4 AND PUSH2 0x1686 JUMP JUMPDEST SWAP1 POP PUSH1 0x0 PUSH2 0x1258 PUSH2 0x1251 DUP8 PUSH1 0x80 ADD MLOAD PUSH2 0x1678 JUMP JUMPDEST DUP4 SWAP1 PUSH2 0x2157 JUMP JUMPDEST SWAP1 POP PUSH1 0x0 DUP2 SLT ISZERO PUSH2 0x12B5 JUMPI DUP4 ISZERO PUSH2 0x1291 JUMPI PUSH2 0x128B DUP4 PUSH2 0xFFFF AND DUP8 PUSH1 0x60 ADD MLOAD PUSH2 0x1282 PUSH2 0x9BA DUP6 PUSH2 0x1678 JUMP JUMPDEST DUP6 SWAP3 SWAP2 SWAP1 PUSH2 0x218F JUMP JUMPDEST POP PUSH2 0x12A9 JUMP JUMPDEST PUSH1 0x60 DUP7 ADD MLOAD PUSH2 0x12A7 SWAP1 DUP4 SWAP1 PUSH2 0xFFFF DUP7 AND DUP5 PUSH2 0x186E JUMP JUMPDEST POP JUMPDEST PUSH1 0x0 PUSH1 0x80 DUP8 ADD MSTORE PUSH2 0x135B JUMP JUMPDEST PUSH1 0x0 DUP5 ISZERO PUSH2 0x1317 JUMPI PUSH1 0x0 PUSH2 0x12CC DUP6 PUSH2 0xFFFF AND PUSH2 0x2225 JUMP JUMPDEST SWAP1 POP PUSH2 0x12F4 PUSH2 0x12ED PUSH2 0x12E1 DUP11 PUSH1 0x80 ADD MLOAD PUSH2 0x1678 JUMP JUMPDEST PUSH2 0x160 DUP11 ADD MLOAD SWAP1 PUSH2 0x177A JUMP JUMPDEST DUP3 SWAP1 PUSH2 0x2238 JUMP JUMPDEST SWAP3 POP PUSH4 0x5F5E100 DUP2 PUSH1 0x40 ADD MLOAD SLT ISZERO PUSH2 0x1310 JUMPI PUSH2 0x2710 SWAP2 POP PUSH2 0x1315 JUMP JUMPDEST PUSH1 0x64 SWAP2 POP JUMPDEST POP JUMPDEST PUSH2 0x1330 DUP8 DUP9 PUSH1 0x60 ADD MLOAD DUP7 PUSH2 0x132A DUP7 PUSH2 0x1710 JUMP JUMPDEST DUP10 PUSH2 0x14CC JUMP JUMPDEST DUP7 PUSH1 0x80 ADD MLOAD PUSH1 0x0 SGT ISZERO DUP1 ISZERO PUSH2 0x1349 JUMPI POP DUP1 DUP8 PUSH1 0x80 ADD MLOAD SGT ISZERO JUMPDEST PUSH2 0x1352 JUMPI PUSH1 0x0 DUP1 REVERT JUMPDEST POP PUSH1 0x0 PUSH1 0x80 DUP8 ADD MSTORE JUMPDEST POP POP POP POP POP POP JUMP JUMPDEST PUSH1 0x0 PUSH2 0x136D PUSH2 0x1A95 JUMP JUMPDEST PUSH1 0x60 DUP5 ADD MLOAD PUSH1 0x1 PUSH1 0x1 PUSH1 0xA0 SHL SUB SWAP1 DUP2 AND PUSH1 0x0 SWAP1 DUP2 MSTORE PUSH1 0x20 DUP4 DUP2 MSTORE PUSH1 0x40 DUP1 DUP4 KECCAK256 DUP8 MLOAD SWAP1 SWAP5 AND DUP4 MSTORE SWAP3 SWAP1 MSTORE KECCAK256 PUSH1 0x80 DUP6 ADD MLOAD SWAP2 SWAP3 POP SWAP1 ISZERO PUSH2 0x13AA JUMPI PUSH1 0x0 DUP1 REVERT JUMPDEST DUP4 MLOAD ISZERO DUP1 PUSH2 0x13C6 JUMPI POP DUP4 MLOAD PUSH2 0x13BE SWAP1 PUSH2 0x1678 JUMP JUMPDEST DUP4 PUSH1 0x60 ADD MLOAD SGT ISZERO JUMPDEST PUSH2 0x13E2 JUMPI PUSH1 0x40 MLOAD PUSH3 0x461BCD PUSH1 0xE5 SHL DUP2 MSTORE PUSH1 0x4 ADD PUSH2 0x2CE SWAP1 PUSH2 0x4323 JUMP JUMPDEST PUSH2 0x13F5 PUSH2 0x1160 PUSH2 0x9BA DUP7 PUSH1 0x0 ADD MLOAD PUSH2 0x1678 JUMP JUMPDEST DUP2 SLOAD PUSH10 0xFFFFFFFFFFFFFFFFFFFF NOT AND PUSH1 0x1 PUSH1 0x1 PUSH1 0x50 SHL SUB SWAP2 SWAP1 SWAP2 AND OR DUP2 SSTORE PUSH1 0x40 DUP5 ADD MLOAD PUSH2 0x1421 SWAP1 PUSH2 0x2141 JUMP JUMPDEST DUP2 SLOAD PUSH1 0x1 PUSH1 0x1 PUSH1 0x50 SHL SUB SWAP2 SWAP1 SWAP2 AND PUSH1 0x1 PUSH1 0x50 SHL MUL PUSH10 0xFFFFFFFFFFFFFFFFFFFF PUSH1 0x50 SHL NOT SWAP1 SWAP2 AND OR DUP2 SSTORE PUSH1 0x20 DUP5 ADD MLOAD PUSH2 0x1458 SWAP1 PUSH2 0x2274 JUMP JUMPDEST DUP2 SLOAD PUSH4 0xFFFFFFFF SWAP2 SWAP1 SWAP2 AND PUSH1 0x1 PUSH1 0xA0 SHL MUL PUSH4 0xFFFFFFFF PUSH1 0xA0 SHL NOT SWAP1 SWAP2 AND OR SWAP1 SSTORE POP POP POP JUMP JUMPDEST PUSH1 0x1 PUSH1 0x1 PUSH1 0xA0 SHL SUB DUP2 AND PUSH2 0x1490 JUMPI PUSH1 0x0 DUP1 REVERT JUMPDEST PUSH1 0x1 PUSH1 0x1 PUSH1 0xA0 SHL SUB DUP2 AND ADDRESS EQ ISZERO PUSH2 0x14A6 JUMPI PUSH1 0x0 DUP1 REVERT JUMPDEST PUSH1 0x0 PUSH2 0x14B1 DUP3 PUSH2 0x2287 JUMP JUMPDEST POP POP POP POP PUSH2 0xFFFF AND SWAP1 POP DUP1 PUSH1 0x0 EQ PUSH2 0x14C8 JUMPI PUSH1 0x0 DUP1 REVERT JUMPDEST POP POP JUMP JUMPDEST DUP2 PUSH2 0x14D6 JUMPI PUSH2 0x1106 JUMP JUMPDEST PUSH1 0x0 PUSH2 0x14E1 DUP4 PUSH2 0xFEE JUMP JUMPDEST SWAP1 POP PUSH1 0x0 PUSH2 0x14F2 DUP6 PUSH2 0xFFFF AND PUSH2 0x1686 JUMP JUMPDEST SWAP1 POP PUSH1 0x0 DUP4 ISZERO PUSH2 0x157E JUMPI PUSH1 0x0 PUSH2 0x150B DUP8 PUSH2 0xFFFF AND PUSH2 0x2225 JUMP JUMPDEST SWAP1 POP PUSH1 0x0 PUSH1 0x3 DUP3 PUSH1 0x60 ADD MLOAD PUSH1 0x5 DUP2 GT ISZERO PUSH2 0x1521 JUMPI INVALID JUMPDEST EQ ISZERO PUSH2 0x154D JUMPI CALLVALUE DUP8 EQ PUSH2 0x1546 JUMPI PUSH1 0x40 MLOAD PUSH3 0x461BCD PUSH1 0xE5 SHL DUP2 MSTORE PUSH1 0x4 ADD PUSH2 0x2CE SWAP1 PUSH2 0x4127 JUMP JUMPDEST POP DUP4 PUSH2 0x1560 JUMP JUMPDEST PUSH2 0x155D DUP3 DUP11 PUSH2 0xFFFF DUP12 AND DUP9 PUSH2 0x186E JUMP JUMPDEST SWAP1 POP JUMPDEST PUSH2 0x1575 DUP9 PUSH2 0x156D DUP4 PUSH2 0x1710 JUMP JUMPDEST DUP7 SWAP2 SWAP1 PUSH2 0x22F3 JUMP JUMPDEST SWAP3 POP POP POP PUSH2 0x15BA JUMP JUMPDEST PUSH1 0x5 DUP3 PUSH1 0x60 ADD MLOAD PUSH1 0x5 DUP2 GT ISZERO PUSH2 0x1590 JUMPI INVALID JUMPDEST EQ ISZERO PUSH2 0x15A7 JUMPI PUSH2 0x15A4 DUP7 PUSH2 0xFFFF AND DUP5 PUSH2 0x1E42 JUMP JUMPDEST SWAP3 POP JUMPDEST PUSH2 0x15B7 DUP3 DUP9 PUSH2 0xFFFF DUP10 AND DUP7 PUSH2 0x186E JUMP JUMPDEST SWAP1 POP JUMPDEST PUSH2 0x15D2 PUSH2 0x15C7 DUP4 DUP4 PUSH2 0x1EC9 JUMP JUMPDEST PUSH1 0x80 DUP11 ADD MLOAD SWAP1 PUSH2 0xF79 JUMP JUMPDEST PUSH1 0x80 DUP10 ADD MSTORE POP POP POP POP POP POP POP POP JUMP JUMPDEST DUP6 DUP9 PUSH1 0x20 ADD MLOAD EQ DUP1 PUSH2 0x15F2 JUMPI POP DUP8 MLOAD ISZERO JUMPDEST PUSH2 0x15FB JUMPI PUSH1 0x0 DUP1 REVERT JUMPDEST PUSH1 0x0 PUSH2 0x160B DUP9 PUSH1 0x0 ADD MLOAD DUP9 PUSH2 0xA99 JUMP JUMPDEST SWAP1 POP DUP6 ISZERO PUSH2 0x162D JUMPI PUSH2 0x162D DUP10 DUP10 DUP4 DUP11 PUSH2 0x1626 PUSH2 0x99E DUP13 PUSH2 0xFEE JUMP JUMPDEST DUP11 TIMESTAMP PUSH2 0x23D9 JUMP JUMPDEST PUSH2 0x163B DUP2 DUP11 DUP11 DUP6 DUP9 DUP9 PUSH2 0x24B3 JUMP JUMPDEST DUP8 MLOAD PUSH2 0x1648 SWAP1 DUP3 SWAP1 PUSH2 0x110D JUMP JUMPDEST PUSH2 0x1652 DUP10 DUP10 PUSH2 0x1363 JUMP JUMPDEST DUP6 ISZERO PUSH2 0x166D JUMPI PUSH1 0x40 DUP10 ADD MLOAD DUP10 MLOAD PUSH2 0x166D SWAP2 DUP11 SWAP2 DUP5 SWAP2 SWAP1 PUSH2 0x10D1 JUMP JUMPDEST POP POP POP POP POP POP POP POP POP JUMP JUMPDEST PUSH1 0x0 PUSH2 0x223 PUSH1 0x0 NOT DUP4 PUSH2 0x1D3E JUMP JUMPDEST PUSH2 0x168E PUSH2 0x3C4D JUMP JUMPDEST PUSH2 0x223 DUP3 PUSH1 0x0 PUSH2 0x25B7 JUMP JUMPDEST PUSH1 0x0 DUP1 DUP1 PUSH2 0x16A8 DUP8 DUP8 DUP7 PUSH2 0x2665 JUMP JUMPDEST SWAP2 POP SWAP2 POP PUSH1 0x0 PUSH2 0x16CA PUSH2 0x9BA DUP9 PUSH1 0x40 ADD MLOAD DUP6 DUP13 PUSH2 0x2728 SWAP1 SWAP3 SWAP2 SWAP1 PUSH4 0xFFFFFFFF AND JUMP JUMPDEST SWAP1 POP DUP1 DUP7 LT ISZERO PUSH2 0x16FD JUMPI DUP2 ISZERO PUSH2 0x16F2 JUMPI PUSH1 0x40 MLOAD PUSH3 0x461BCD PUSH1 0xE5 SHL DUP2 MSTORE PUSH1 0x4 ADD PUSH2 0x2CE SWAP1 PUSH2 0x429D JUMP JUMPDEST DUP6 SWAP4 POP POP POP POP PUSH2 0x1707 JUMP JUMPDEST SWAP3 POP PUSH2 0x1707 SWAP2 POP POP JUMP JUMPDEST SWAP6 SWAP5 POP POP POP POP POP JUMP JUMPDEST PUSH1 0x0 DUP1 DUP3 SLT ISZERO PUSH2 0x1004 JUMPI PUSH1 0x0 DUP1 REVERT JUMPDEST PUSH1 0x0 DUP3 PUSH2 0x172E JUMPI POP PUSH1 0x0 PUSH2 0x223 JUMP JUMPDEST DUP3 DUP3 MUL DUP3 DUP5 DUP3 DUP2 PUSH2 0x173B JUMPI INVALID JUMPDEST DIV EQ PUSH2 0x56D JUMPI PUSH1 0x0 DUP1 REVERT JUMPDEST PUSH1 0x0 DUP1 DUP3 GT PUSH2 0x1754 JUMPI PUSH1 0x0 DUP1 REVERT JUMPDEST DUP2 DUP4 DUP2 PUSH2 0x175D JUMPI INVALID JUMPDEST DIV SWAP4 SWAP3 POP POP POP JUMP JUMPDEST PUSH1 0x0 DUP3 DUP3 GT ISZERO PUSH2 0x1774 JUMPI PUSH1 0x0 DUP1 REVERT JUMPDEST POP SWAP1 SUB SWAP1 JUMP JUMPDEST PUSH1 0x0 DUP1 PUSH2 0x17A5 DUP5 PUSH1 0x40 ADD MLOAD PUSH2 0xCBB PUSH5 0x2540BE400 PUSH2 0xCBB DUP8 DUP10 PUSH1 0x20 ADD MLOAD PUSH2 0x1D3E SWAP1 SWAP2 SWAP1 PUSH4 0xFFFFFFFF AND JUMP JUMPDEST SWAP5 SWAP4 POP POP POP POP JUMP JUMPDEST PUSH1 0x0 DUP1 PUSH2 0x17BA DUP7 DUP7 PUSH2 0x9EB JUMP JUMPDEST SWAP1 POP DUP1 PUSH1 0x20 ADD MLOAD PUSH1 0x0 EQ DUP1 PUSH2 0x17D2 JUMPI POP DUP3 DUP2 PUSH1 0x20 ADD MLOAD EQ JUMPDEST PUSH2 0x17EE JUMPI PUSH1 0x40 MLOAD PUSH3 0x461BCD PUSH1 0xE5 SHL DUP2 MSTORE PUSH1 0x4 ADD PUSH2 0x2CE SWAP1 PUSH2 0x40DA JUMP JUMPDEST PUSH1 0x20 DUP2 ADD DUP4 SWAP1 MSTORE PUSH1 0x40 DUP2 ADD MLOAD PUSH2 0x1804 SWAP1 DUP6 PUSH2 0x276D JUMP JUMPDEST PUSH1 0x40 DUP3 ADD MSTORE PUSH2 0x1813 DUP2 DUP7 PUSH2 0x1363 JUMP JUMPDEST POP SWAP2 SWAP5 SWAP4 POP POP POP POP JUMP JUMPDEST PUSH1 0x0 DUP1 DUP1 PUSH2 0x182B DUP8 DUP8 PUSH2 0x1EF9 JUMP JUMPDEST DUP9 MLOAD SWAP2 SWAP4 POP SWAP2 POP PUSH2 0x1852 SWAP1 PUSH2 0x184B SWAP1 PUSH2 0x9BA SWAP1 DUP12 SWAP1 DUP14 SWAP1 DUP7 SWAP1 DUP12 DUP12 PUSH2 0xD87 JUMP JUMPDEST DUP4 SWAP1 PUSH2 0x276D JUMP JUMPDEST DUP9 MLOAD SWAP1 SWAP3 POP PUSH2 0x1862 SWAP1 DUP9 SWAP1 PUSH2 0x110D JUMP JUMPDEST POP SWAP8 SWAP7 POP POP POP POP POP POP POP JUMP JUMPDEST DUP1 PUSH1 0x5 DUP6 PUSH1 0x60 ADD MLOAD PUSH1 0x5 DUP2 GT ISZERO PUSH2 0x1881 JUMPI INVALID JUMPDEST EQ ISZERO PUSH2 0x18A6 JUMPI PUSH1 0x0 PUSH2 0x1892 DUP5 PUSH2 0x2225 JUMP JUMPDEST SWAP1 POP PUSH2 0x18A2 DUP2 PUSH1 0x0 ADD MLOAD DUP5 PUSH2 0x277F JUMP JUMPDEST SWAP3 POP POP JUMPDEST PUSH1 0x0 DUP3 SGT ISZERO PUSH2 0x18D2 JUMPI PUSH1 0x0 PUSH2 0x18BC DUP7 DUP7 DUP6 PUSH2 0x2805 JUMP JUMPDEST SWAP1 POP DUP6 PUSH1 0x20 ADD MLOAD ISZERO PUSH2 0x18CC JUMPI DUP1 SWAP2 POP JUMPDEST POP PUSH2 0x17A5 JUMP JUMPDEST PUSH1 0x3 DUP6 PUSH1 0x60 ADD MLOAD PUSH1 0x5 DUP2 GT ISZERO PUSH2 0x18E4 JUMPI INVALID JUMPDEST EQ ISZERO PUSH2 0x1901 JUMPI PUSH2 0x18FC DUP5 PUSH2 0x18F7 DUP5 PUSH2 0x1678 JUMP JUMPDEST PUSH2 0x28F8 JUMP JUMPDEST PUSH2 0x17A5 JUMP JUMPDEST DUP5 MLOAD PUSH2 0x17A5 SWAP1 DUP6 PUSH2 0x1911 DUP6 PUSH2 0x1678 JUMP JUMPDEST PUSH2 0x292E JUMP JUMPDEST PUSH2 0x191E PUSH2 0x3B91 JUMP JUMPDEST PUSH1 0x0 PUSH2 0x1928 PUSH2 0x29A5 JUMP JUMPDEST PUSH1 0x1 PUSH1 0x1 PUSH1 0xA0 SHL SUB DUP5 AND PUSH1 0x0 DUP2 DUP2 MSTORE PUSH1 0x20 DUP4 DUP2 MSTORE PUSH1 0x40 SWAP2 DUP3 SWAP1 KECCAK256 SWAP3 DUP7 MSTORE DUP3 SLOAD PUSH2 0xFFFF DUP1 DUP3 AND SWAP3 DUP9 ADD SWAP3 SWAP1 SWAP3 MSTORE PUSH3 0x10000 DUP2 DIV SWAP1 SWAP2 AND SWAP2 DUP7 ADD SWAP2 SWAP1 SWAP2 MSTORE SWAP2 SWAP3 POP SWAP1 PUSH2 0x1989 SWAP1 PUSH4 0xFFFFFFFF PUSH5 0x100000000 SWAP1 SWAP2 DIV DUP2 AND SWAP1 PUSH4 0x5F5E100 SWAP1 PUSH2 0x1D3E AND JUMP JUMPDEST PUSH1 0x60 DUP5 ADD MSTORE DUP1 SLOAD PUSH2 0x19A7 SWAP1 PUSH1 0x1 PUSH1 0x50 SHL SWAP1 DIV PUSH1 0xFF AND PUSH3 0x7A120 PUSH2 0x171F JUMP JUMPDEST PUSH1 0x80 DUP5 ADD MSTORE DUP1 SLOAD PUSH2 0x19CB SWAP1 PUSH9 0x10000000000000000 SWAP1 DIV PUSH2 0xFFFF AND PUSH3 0x186A0 PUSH2 0x171F JUMP JUMPDEST PUSH1 0xA0 DUP5 ADD MSTORE DUP1 SLOAD PUSH2 0x19EA SWAP1 PUSH1 0x1 PUSH1 0x70 SHL SWAP1 DIV PUSH2 0xFFFF AND PUSH3 0x186A0 PUSH2 0x171F JUMP JUMPDEST PUSH2 0x120 DUP5 ADD MSTORE DUP1 SLOAD PUSH1 0x64 SWAP1 PUSH1 0xFF PUSH1 0x1 PUSH1 0x58 SHL SWAP1 SWAP2 DIV AND PUSH4 0x3B9ACA00 MUL SDIV PUSH1 0xC0 DUP5 ADD MSTORE DUP1 SLOAD PUSH1 0x1 PUSH1 0x60 SHL DUP2 DIV PUSH1 0xFF SWAP1 DUP2 AND PUSH1 0xE0 DUP7 ADD MSTORE PUSH1 0x1 PUSH1 0x68 SHL SWAP1 SWAP2 DIV AND PUSH2 0x100 DUP5 ADD MSTORE PUSH1 0x40 DUP1 MLOAD PUSH1 0x60 DUP2 ADD SWAP2 DUP3 SWAP1 MSTORE SWAP1 PUSH1 0x1 DUP4 ADD SWAP1 PUSH1 0x3 SWAP1 DUP3 PUSH1 0x0 DUP6 JUMPDEST DUP3 DUP3 SWAP1 SLOAD SWAP1 PUSH2 0x100 EXP SWAP1 DIV PUSH2 0xFFFF AND PUSH2 0xFFFF AND DUP2 MSTORE PUSH1 0x20 ADD SWAP1 PUSH1 0x2 ADD SWAP1 PUSH1 0x20 DUP3 PUSH1 0x1 ADD DIV SWAP3 DUP4 ADD SWAP3 PUSH1 0x1 SUB DUP3 MUL SWAP2 POP DUP1 DUP5 GT PUSH2 0x1A48 JUMPI SWAP1 POP POP POP POP POP POP DUP4 PUSH2 0x140 ADD DUP2 SWAP1 MSTORE POP POP POP SWAP2 SWAP1 POP JUMP JUMPDEST PUSH1 0x0 DUP1 PUSH2 0x223 PUSH1 0x16 PUSH2 0x29AE JUMP JUMPDEST PUSH2 0x1AAA PUSH2 0x3C7C JUMP JUMPDEST PUSH1 0x0 DUP1 PUSH1 0x0 PUSH2 0x1AB8 DUP6 PUSH2 0x29C7 JUMP JUMPDEST PUSH1 0x40 DUP1 MLOAD PUSH1 0x60 DUP2 ADD DUP3 MSTORE PUSH1 0x1 PUSH1 0x1 PUSH1 0xA0 SHL SUB SWAP1 SWAP4 AND DUP4 MSTORE PUSH1 0x20 DUP4 ADD SWAP4 SWAP1 SWAP4 MSTORE PUSH1 0xFF AND PUSH1 0xA EXP SWAP2 DUP2 ADD SWAP2 SWAP1 SWAP2 MSTORE SWAP4 POP POP POP POP SWAP2 SWAP1 POP JUMP JUMPDEST PUSH1 0x0 DUP1 PUSH2 0x223 PUSH1 0x15 PUSH2 0x29AE JUMP JUMPDEST PUSH1 0x0 DUP2 PUSH2 0x1B0A JUMPI POP PUSH1 0x0 PUSH2 0x56D JUMP JUMPDEST PUSH1 0x0 DUP1 PUSH2 0x1B17 DUP7 DUP6 PUSH2 0x2A88 JUMP JUMPDEST SWAP2 POP SWAP2 POP PUSH1 0x0 PUSH2 0x1B35 DUP7 PUSH1 0x40 ADD MLOAD DUP8 PUSH1 0x0 ADD MLOAD DUP5 DUP11 PUSH1 0x0 ADD MLOAD PUSH2 0x2AD4 JUMP JUMPDEST SWAP1 POP PUSH2 0x1B53 PUSH2 0x1B43 DUP5 PUSH2 0xFEE JUMP JUMPDEST PUSH2 0x160 DUP9 ADD MLOAD PUSH2 0xCFC SWAP1 DUP5 PUSH2 0x1B5E JUMP JUMPDEST SWAP8 SWAP7 POP POP POP POP POP POP POP JUMP JUMPDEST PUSH1 0x0 DUP1 PUSH2 0x17A5 DUP5 PUSH1 0x20 ADD MLOAD PUSH2 0xCBB DUP7 PUSH1 0x40 ADD MLOAD PUSH2 0xCB5 PUSH5 0x2540BE400 DUP9 PUSH2 0x1D3E SWAP1 SWAP2 SWAP1 PUSH4 0xFFFFFFFF AND JUMP JUMPDEST DUP1 DUP3 SUB DUP3 DUP2 SGT ISZERO PUSH1 0x0 DUP4 SLT ISZERO EQ PUSH2 0x223 JUMPI PUSH1 0x0 DUP1 REVERT JUMPDEST PUSH1 0x0 PUSH2 0x56D PUSH2 0x1BB2 DUP5 PUSH4 0x3B9ACA00 PUSH2 0x1D3E JUMP JUMPDEST DUP4 PUSH2 0x1D8C JUMP JUMPDEST PUSH2 0x1BC0 PUSH2 0x3C7C JUMP JUMPDEST PUSH1 0x0 DUP1 PUSH1 0x0 PUSH2 0x1AB8 DUP6 PUSH2 0x2B8E JUMP JUMPDEST PUSH2 0x1BD6 PUSH2 0x3C7C JUMP JUMPDEST PUSH1 0x0 DUP1 PUSH2 0x1BE3 DUP7 DUP7 PUSH2 0x2C13 JUMP JUMPDEST SWAP2 POP SWAP2 POP DUP2 PUSH1 0x0 EQ ISZERO PUSH2 0x1D13 JUMPI PUSH1 0x0 PUSH2 0x1BFB DUP8 PUSH2 0x2B8E JUMP JUMPDEST SWAP2 SWAP5 POP SWAP1 SWAP3 POP SWAP1 POP PUSH1 0x1 PUSH1 0x1 PUSH1 0xA0 SHL SUB DUP2 AND ISZERO PUSH2 0x1D11 JUMPI PUSH1 0x0 PUSH2 0x1C1C PUSH2 0x2C5C JUMP JUMPDEST SWAP1 POP DUP6 PUSH1 0x0 LT DUP1 ISZERO PUSH2 0x1C2E JUMPI POP DUP6 DUP8 GT ISZERO JUMPDEST DUP1 ISZERO PUSH2 0x1C3F JUMPI POP PUSH5 0xFFFFFFFFFF DUP7 GT ISZERO JUMPDEST PUSH2 0x1C48 JUMPI PUSH1 0x0 DUP1 REVERT JUMPDEST DUP4 PUSH1 0x0 SLT DUP1 ISZERO PUSH2 0x1C5F JUMPI POP PUSH1 0x1 PUSH1 0x1 PUSH1 0x80 SHL SUB DUP5 SGT ISZERO JUMPDEST PUSH2 0x1C68 JUMPI PUSH1 0x0 DUP1 REVERT JUMPDEST PUSH1 0x0 DUP9 DUP2 MSTORE PUSH1 0x20 DUP3 DUP2 MSTORE PUSH1 0x40 DUP1 DUP4 KECCAK256 DUP11 DUP5 MSTORE SWAP1 SWAP2 MSTORE SWAP1 DUP2 SWAP1 KECCAK256 DUP1 SLOAD PUSH5 0xFFFFFFFFFF NOT AND PUSH5 0xFFFFFFFFFF DUP10 AND OR PUSH21 0xFFFFFFFFFFFFFFFFFFFFFFFFFFFFFFFF0000000000 NOT AND PUSH6 0x10000000000 PUSH1 0x1 PUSH1 0x1 PUSH1 0x80 SHL SUB DUP9 AND MUL OR PUSH1 0xFF PUSH1 0xA8 SHL NOT AND PUSH1 0x1 PUSH1 0xA8 SHL PUSH1 0xFF DUP8 AND MUL OR DUP2 SSTORE SWAP1 MLOAD DUP9 SWAP1 DUP11 SWAP1 PUSH32 0xFDFA6885701E2F1F42E4187B9231CF81C1FE23671EF64FA46F34DDB56C1DC18 SWAP1 PUSH2 0x1D06 SWAP1 DUP10 SWAP1 PUSH2 0x442C JUMP JUMPDEST PUSH1 0x40 MLOAD DUP1 SWAP2 SUB SWAP1 LOG3 POP POP JUMPDEST POP JUMPDEST PUSH1 0x40 DUP1 MLOAD PUSH1 0x60 DUP2 ADD DUP3 MSTORE PUSH1 0x0 DUP2 MSTORE PUSH1 0x20 DUP2 ADD SWAP4 SWAP1 SWAP4 MSTORE PUSH1 0xFF SWAP1 SWAP2 AND PUSH1 0xA EXP SWAP1 DUP3 ADD MSTORE SWAP1 POP SWAP4 SWAP3 POP POP POP JUMP JUMPDEST DUP2 DUP2 MUL PUSH1 0x0 NOT DUP4 EQ ISZERO PUSH2 0x1D6E JUMPI DUP2 ISZERO DUP1 PUSH2 0x1D60 JUMPI POP DUP3 DUP3 DUP3 DUP2 PUSH2 0x1D5D JUMPI INVALID JUMPDEST SDIV EQ JUMPDEST PUSH2 0x1D69 JUMPI PUSH1 0x0 DUP1 REVERT JUMPDEST PUSH2 0x223 JUMP JUMPDEST DUP3 ISZERO DUP1 PUSH2 0x1D83 JUMPI POP DUP2 DUP4 DUP3 DUP2 PUSH2 0x1D80 JUMPI INVALID JUMPDEST SDIV EQ JUMPDEST PUSH2 0x223 JUMPI PUSH1 0x0 DUP1 REVERT JUMPDEST PUSH1 0x0 DUP2 PUSH1 0x0 NOT EQ DUP1 ISZERO PUSH2 0x1DA2 JUMPI POP PUSH1 0x1 PUSH1 0xFF SHL DUP4 EQ JUMPDEST ISZERO PUSH2 0x1DAC JUMPI PUSH1 0x0 DUP1 REVERT JUMPDEST DUP2 DUP4 DUP2 PUSH2 0x1DB5 JUMPI INVALID JUMPDEST SDIV SWAP4 SWAP3 POP POP POP JUMP JUMPDEST PUSH1 0x0 DUP1 PUSH2 0x1DE1 PUSH2 0x1DDA PUSH2 0x1DD3 DUP8 PUSH1 0x80 ADD MLOAD PUSH2 0xFEE JUMP JUMPDEST DUP7 SWAP1 PUSH2 0x177A JUMP JUMPDEST DUP5 SWAP1 PUSH2 0xF79 JUMP JUMPDEST SWAP1 POP PUSH2 0x1E0C DUP7 PUSH1 0x0 ADD MLOAD PUSH2 0xCFC PUSH2 0x1DFB DUP9 PUSH1 0x60 ADD MLOAD PUSH2 0xFEE JUMP JUMPDEST PUSH2 0xCBB DUP6 PUSH2 0xCB5 DUP13 PUSH1 0x40 ADD MLOAD PUSH2 0xFEE JUMP JUMPDEST SWAP2 POP PUSH1 0x0 DUP3 SLT ISZERO PUSH2 0x1E39 JUMPI PUSH2 0x1E2F PUSH2 0x1E24 DUP6 DUP5 PUSH2 0x1B5E JUMP JUMPDEST PUSH1 0x80 DUP9 ADD MLOAD SWAP1 PUSH2 0xF79 JUMP JUMPDEST PUSH1 0x80 DUP8 ADD MSTORE PUSH1 0x0 SWAP2 POP JUMPDEST POP SWAP5 SWAP4 POP POP POP POP JUMP JUMPDEST PUSH1 0x0 DUP2 PUSH2 0x1E51 JUMPI POP PUSH1 0x0 PUSH2 0x223 JUMP JUMPDEST PUSH1 0x0 DUP3 SGT PUSH2 0x1E5E JUMPI PUSH1 0x0 DUP1 REVERT JUMPDEST PUSH1 0x0 PUSH2 0x1E69 DUP5 PUSH2 0x2225 JUMP JUMPDEST SWAP1 POP PUSH1 0x0 PUSH2 0x1E7A DUP3 PUSH1 0x0 ADD MLOAD PUSH2 0x2C69 JUMP JUMPDEST SWAP1 POP PUSH1 0x2 DUP2 SDIV PUSH12 0x33B2E3C9FD0803CE8000000 PUSH1 0x1 PUSH1 0x1 PUSH1 0xFF SHL SUB DUP3 SWAP1 SUB SDIV DUP6 SGT ISZERO PUSH2 0x1EA5 JUMPI PUSH1 0x0 DUP1 REVERT JUMPDEST DUP2 DUP2 PUSH12 0x33B2E3C9FD0803CE8000000 DUP8 MUL ADD DUP2 PUSH2 0x1EBE JUMPI INVALID JUMPDEST SDIV SWAP7 SWAP6 POP POP POP POP POP POP JUMP JUMPDEST PUSH1 0x0 PUSH4 0x5F5E100 DUP4 PUSH1 0x40 ADD MLOAD EQ ISZERO PUSH2 0x1EE2 JUMPI POP DUP1 PUSH2 0x223 JUMP JUMPDEST PUSH1 0x40 DUP4 ADD MLOAD PUSH2 0x56D SWAP1 PUSH2 0xCBB DUP5 PUSH4 0x5F5E100 PUSH2 0x1D3E JUMP JUMPDEST PUSH1 0x0 DUP1 PUSH2 0x1F06 DUP5 DUP5 PUSH2 0x2A88 JUMP JUMPDEST PUSH1 0x80 DUP7 ADD MLOAD SWAP2 SWAP4 POP SWAP2 POP PUSH2 0x1F1A SWAP1 DUP4 PUSH2 0x1765 JUMP JUMPDEST PUSH1 0x80 DUP6 ADD MSTORE PUSH1 0xA0 DUP5 ADD MLOAD PUSH2 0x1F2E SWAP1 DUP3 PUSH2 0x1765 JUMP JUMPDEST PUSH1 0xA0 DUP6 ADD MSTORE PUSH1 0x60 DUP5 ADD MLOAD PUSH2 0x1F42 SWAP1 DUP5 PUSH2 0x1765 JUMP JUMPDEST PUSH1 0x60 SWAP1 SWAP5 ADD SWAP4 SWAP1 SWAP4 MSTORE SWAP3 SWAP1 POP JUMP JUMPDEST PUSH1 0x0 DUP1 PUSH2 0x1F60 DUP9 PUSH2 0xFFFF AND PUSH2 0x2CA4 JUMP JUMPDEST SWAP1 POP DUP4 DUP2 PUSH1 0xFF AND GT ISZERO PUSH2 0x1F72 JUMPI PUSH1 0x0 DUP1 REVERT JUMPDEST PUSH1 0x0 DUP1 PUSH2 0x1F83 DUP4 PUSH1 0xFF AND DUP11 DUP8 PUSH2 0x2CBA JUMP JUMPDEST SWAP2 POP SWAP2 POP DUP1 ISZERO PUSH2 0x1F92 JUMPI PUSH1 0x0 DUP1 REVERT JUMPDEST PUSH1 0x0 PUSH2 0x1F9D DUP10 PUSH2 0x2D82 JUMP JUMPDEST SWAP1 POP PUSH11 0xFFFFFFFFFFFFFFFFFFFFFF DUP2 LT PUSH2 0x1FB6 JUMPI PUSH1 0x0 DUP1 REVERT JUMPDEST PUSH1 0x0 PUSH1 0x78 DUP10 PUSH4 0xFFFFFFFF AND SWAP1 SHL PUSH1 0x98 DUP4 SWAP1 SHL PUSH1 0xF0 DUP7 SWAP1 SHL PUSH1 0xF8 PUSH1 0x0 DUP15 SGT PUSH2 0x1FDE JUMPI PUSH1 0x1 PUSH2 0x1FE1 JUMP JUMPDEST PUSH1 0x0 JUMPDEST PUSH1 0x5 DUP2 GT ISZERO PUSH2 0x1FEC JUMPI INVALID JUMPDEST PUSH1 0xFF AND SWAP1 SHL OR OR OR PUSH1 0x0 SHL SWAP1 POP PUSH20 0x0 PUSH4 0xE50F349E DUP14 DUP4 PUSH1 0x40 MLOAD DUP4 PUSH4 0xFFFFFFFF AND PUSH1 0xE0 SHL DUP2 MSTORE PUSH1 0x4 ADD PUSH2 0x2032 SWAP3 SWAP2 SWAP1 PUSH2 0x4440 JUMP JUMPDEST PUSH1 0x20 PUSH1 0x40 MLOAD DUP1 DUP4 SUB DUP2 DUP7 DUP1 EXTCODESIZE ISZERO DUP1 ISZERO PUSH2 0x204A JUMPI PUSH1 0x0 DUP1 REVERT JUMPDEST POP GAS DELEGATECALL ISZERO DUP1 ISZERO PUSH2 0x205E JUMPI RETURNDATASIZE PUSH1 0x0 DUP1 RETURNDATACOPY RETURNDATASIZE PUSH1 0x0 REVERT JUMPDEST POP POP POP POP PUSH1 0x40 MLOAD RETURNDATASIZE PUSH1 0x1F NOT PUSH1 0x1F DUP3 ADD AND DUP3 ADD DUP1 PUSH1 0x40 MSTORE POP DUP2 ADD SWAP1 PUSH2 0xD77 SWAP2 SWAP1 PUSH2 0x3FBB JUMP JUMPDEST PUSH1 0x0 DUP1 PUSH2 0x208D PUSH2 0x2DA3 JUMP JUMPDEST PUSH1 0x1 PUSH1 0x1 PUSH1 0xA0 SHL SUB DUP7 AND PUSH1 0x0 SWAP1 DUP2 MSTORE PUSH1 0x20 SWAP2 DUP3 MSTORE PUSH1 0x40 DUP1 DUP3 KECCAK256 PUSH2 0xFFFF DUP9 AND DUP4 MSTORE SWAP1 SWAP3 MSTORE KECCAK256 DUP1 SLOAD SWAP1 SWAP2 POP PUSH2 0x20D0 SWAP1 PUSH1 0x1 PUSH1 0x50 SHL SWAP1 DIV PUSH1 0x1 PUSH1 0x1 PUSH1 0x50 SHL SUB AND DUP5 PUSH2 0x1B89 JUMP JUMPDEST SWAP2 POP PUSH1 0x0 DUP4 SLT ISZERO PUSH2 0x2105 JUMPI DUP1 SLOAD PUSH1 0x1 PUSH1 0x1 PUSH1 0x50 SHL SUB AND DUP3 SGT ISZERO PUSH2 0x2105 JUMPI PUSH1 0x40 MLOAD PUSH3 0x461BCD PUSH1 0xE5 SHL DUP2 MSTORE PUSH1 0x4 ADD PUSH2 0x2CE SWAP1 PUSH2 0x41C2 JUMP JUMPDEST PUSH2 0x2111 PUSH2 0x1160 DUP4 PUSH2 0x1710 JUMP JUMPDEST DUP2 SLOAD PUSH1 0x1 PUSH1 0x1 PUSH1 0x50 SHL SUB SWAP2 SWAP1 SWAP2 AND PUSH1 0x1 PUSH1 0x50 SHL MUL PUSH10 0xFFFFFFFFFFFFFFFFFFFF PUSH1 0x50 SHL NOT SWAP1 SWAP2 AND OR SWAP1 SSTORE SWAP4 SWAP3 POP POP POP JUMP JUMPDEST PUSH1 0x0 PUSH1 0x1 PUSH1 0x1 PUSH1 0x50 SHL SUB DUP3 GT ISZERO PUSH2 0x1004 JUMPI PUSH1 0x0 DUP1 REVERT JUMPDEST PUSH1 0x0 PUSH4 0x5F5E100 DUP4 PUSH1 0x40 ADD MLOAD EQ ISZERO PUSH2 0x2170 JUMPI POP DUP1 PUSH2 0x223 JUMP JUMPDEST PUSH2 0x56D PUSH4 0x5F5E100 PUSH2 0xCBB DUP6 PUSH1 0x40 ADD MLOAD DUP6 PUSH2 0x1D3E SWAP1 SWAP2 SWAP1 PUSH4 0xFFFFFFFF AND JUMP JUMPDEST PUSH1 0x0 DUP1 PUSH1 0x2 DUP7 PUSH1 0x60 ADD MLOAD PUSH1 0x5 DUP2 GT ISZERO PUSH2 0x21A4 JUMPI INVALID JUMPDEST EQ ISZERO PUSH2 0x21BC JUMPI PUSH2 0x21B5 DUP7 DUP6 DUP6 PUSH2 0x2DB0 JUMP JUMPDEST SWAP1 POP PUSH2 0x2219 JUMP JUMPDEST PUSH1 0x0 PUSH2 0x21C7 DUP7 PUSH2 0x2225 JUMP JUMPDEST SWAP1 POP PUSH1 0x5 DUP8 PUSH1 0x60 ADD MLOAD PUSH1 0x5 DUP2 GT ISZERO PUSH2 0x21DB JUMPI INVALID JUMPDEST EQ ISZERO PUSH2 0x21F3 JUMPI PUSH2 0x21EC DUP2 DUP7 DUP7 PUSH2 0x2E6D JUMP JUMPDEST SWAP2 POP PUSH2 0x2217 JUMP JUMPDEST PUSH1 0x1 DUP8 PUSH1 0x60 ADD MLOAD PUSH1 0x5 DUP2 GT ISZERO PUSH2 0x2205 JUMPI INVALID JUMPDEST EQ ISZERO PUSH2 0x9C JUMPI PUSH2 0x21EC DUP8 DUP3 DUP8 DUP8 PUSH2 0x2F1E JUMP JUMPDEST POP JUMPDEST PUSH2 0xF6F PUSH2 0x99E DUP3 PUSH2 0xFEE JUMP JUMPDEST PUSH2 0x222D PUSH2 0x3C4D JUMP JUMPDEST PUSH2 0x223 DUP3 PUSH1 0x1 PUSH2 0x25B7 JUMP JUMPDEST PUSH1 0x0 PUSH4 0x5F5E100 DUP4 PUSH1 0x40 ADD MLOAD SLT ISZERO PUSH2 0x2260 JUMPI PUSH2 0x2259 PUSH1 0x1 PUSH2 0xCFC DUP6 DUP6 PUSH2 0x2157 JUMP JUMPDEST SWAP1 POP PUSH2 0x223 JUMP JUMPDEST PUSH2 0x56D DUP4 PUSH2 0x226F DUP5 PUSH1 0x1 PUSH2 0xF79 JUMP JUMPDEST PUSH2 0x2157 JUMP JUMPDEST PUSH1 0x0 PUSH4 0xFFFFFFFF DUP3 GT ISZERO PUSH2 0x1004 JUMPI PUSH1 0x0 DUP1 REVERT JUMPDEST PUSH1 0x0 DUP1 PUSH1 0x0 DUP1 PUSH1 0x0 DUP1 PUSH2 0x2298 PUSH2 0x301C JUMP JUMPDEST PUSH1 0x1 PUSH1 0x1 PUSH1 0xA0 SHL SUB SWAP1 SWAP8 AND PUSH1 0x0 SWAP1 DUP2 MSTORE PUSH1 0x20 SWAP8 SWAP1 SWAP8 MSTORE POP POP PUSH1 0x40 SWAP1 SWAP5 KECCAK256 SLOAD PUSH2 0xFFFF DUP2 AND SWAP6 PUSH4 0xFFFFFFFF PUSH3 0x10000 DUP4 DIV DUP2 AND SWAP7 POP PUSH7 0x1000000000000 DUP4 DIV AND SWAP5 POP PUSH1 0xFF PUSH1 0x1 PUSH1 0x50 SHL DUP4 DIV AND SWAP4 POP PUSH1 0x1 PUSH1 0x58 SHL SWAP1 SWAP2 DIV PUSH1 0xD8 SHL SWAP2 POP JUMP JUMPDEST PUSH1 0x0 DUP1 PUSH1 0x5 DUP6 PUSH1 0x60 ADD MLOAD PUSH1 0x5 DUP2 GT ISZERO PUSH2 0x2308 JUMPI INVALID JUMPDEST EQ PUSH2 0x231A JUMPI PUSH4 0x70A08231 PUSH1 0xE0 SHL PUSH2 0x2323 JUMP JUMPDEST PUSH4 0xED1279F PUSH1 0xE1 SHL JUMPDEST SWAP1 POP PUSH1 0x0 PUSH2 0x2336 DUP7 PUSH1 0x0 ADD MLOAD ADDRESS DUP5 PUSH2 0x3029 JUMP JUMPDEST SWAP1 POP PUSH1 0x5 DUP7 PUSH1 0x60 ADD MLOAD PUSH1 0x5 DUP2 GT ISZERO PUSH2 0x234A JUMPI INVALID JUMPDEST EQ ISZERO PUSH2 0x2371 JUMPI PUSH1 0x0 PUSH2 0x235F DUP7 PUSH2 0xFFFF AND PUSH2 0x2225 JUMP JUMPDEST SWAP1 POP PUSH2 0x236B DUP2 DUP7 PUSH2 0x313B JUMP JUMPDEST POP PUSH2 0x23B9 JUMP JUMPDEST PUSH1 0x1 DUP7 PUSH1 0x60 ADD MLOAD PUSH1 0x5 DUP2 GT ISZERO PUSH2 0x2383 JUMPI INVALID JUMPDEST EQ ISZERO PUSH2 0x2398 JUMPI PUSH2 0x2393 DUP7 DUP6 PUSH2 0x31A6 JUMP JUMPDEST PUSH2 0x23B9 JUMP JUMPDEST PUSH1 0x2 DUP7 PUSH1 0x60 ADD MLOAD PUSH1 0x5 DUP2 GT ISZERO PUSH2 0x23AA JUMPI INVALID JUMPDEST EQ ISZERO PUSH2 0x9C JUMPI PUSH2 0x2393 DUP7 PUSH2 0x3248 JUMP JUMPDEST PUSH1 0x0 PUSH2 0x23CA DUP8 PUSH1 0x0 ADD MLOAD ADDRESS DUP6 PUSH2 0x3029 JUMP JUMPDEST SWAP1 POP PUSH2 0x1B53 PUSH2 0xF2A DUP3 DUP5 PUSH2 0x3287 JUMP JUMPDEST PUSH1 0x0 DUP4 SLT PUSH2 0x23E6 JUMPI PUSH1 0x0 DUP1 REVERT JUMPDEST PUSH1 0x0 PUSH2 0x23FF DUP8 PUSH1 0x40 ADD MLOAD DUP7 DUP7 DUP7 DUP12 PUSH2 0x100 ADD MLOAD DUP8 PUSH2 0x1F50 JUMP JUMPDEST SWAP1 POP PUSH1 0x0 DUP2 SGT PUSH2 0x2421 JUMPI PUSH1 0x40 MLOAD PUSH3 0x461BCD PUSH1 0xE5 SHL DUP2 MSTORE PUSH1 0x4 ADD PUSH2 0x2CE SWAP1 PUSH2 0x42FC JUMP JUMPDEST PUSH1 0x20 DUP7 ADD MLOAD PUSH2 0x2430 SWAP1 DUP6 PUSH2 0xF79 JUMP JUMPDEST PUSH1 0x20 DUP8 ADD MSTORE DUP8 MLOAD PUSH2 0x2441 SWAP1 DUP6 PUSH2 0xF79 JUMP JUMPDEST DUP9 MSTORE PUSH1 0x80 DUP9 ADD MLOAD PUSH2 0x2452 SWAP1 DUP3 PUSH2 0xF79 JUMP JUMPDEST PUSH1 0x80 DUP10 ADD MSTORE POP DUP7 MLOAD PUSH2 0x2463 SWAP1 PUSH2 0x1678 JUMP JUMPDEST DUP7 PUSH1 0x60 ADD MLOAD SGT ISZERO PUSH2 0x2486 JUMPI PUSH1 0x40 MLOAD PUSH3 0x461BCD PUSH1 0xE5 SHL DUP2 MSTORE PUSH1 0x4 ADD PUSH2 0x2CE SWAP1 PUSH2 0x4323 JUMP JUMPDEST PUSH1 0x0 PUSH2 0x2492 DUP6 DUP4 PUSH2 0x1765 JUMP JUMPDEST SWAP1 POP PUSH2 0x24A0 DUP8 DUP10 DUP7 DUP5 PUSH2 0x32DE JUMP JUMPDEST PUSH2 0x166D DUP8 PUSH1 0x0 ADD MLOAD DUP9 PUSH1 0x40 ADD MLOAD DUP7 PUSH2 0x2082 JUMP JUMPDEST PUSH1 0x0 DUP6 PUSH1 0x80 ADD MLOAD SLT ISZERO DUP1 ISZERO PUSH2 0x24CA JUMPI POP PUSH1 0x80 DUP7 ADD MLOAD ISZERO JUMPDEST PUSH2 0x24D3 JUMPI PUSH1 0x0 DUP1 REVERT JUMPDEST DUP6 MLOAD PUSH1 0x20 DUP7 ADD MLOAD LT ISZERO PUSH2 0x24FB JUMPI PUSH1 0x40 DUP6 ADD MLOAD ISZERO PUSH2 0x24EF JUMPI PUSH1 0x0 DUP1 REVERT JUMPDEST DUP6 MLOAD PUSH1 0x20 DUP7 ADD MSTORE PUSH2 0x250C JUMP JUMPDEST DUP6 MLOAD PUSH1 0x20 DUP7 ADD MLOAD EQ PUSH2 0x250C JUMPI PUSH1 0x0 DUP1 REVERT JUMPDEST PUSH1 0x60 DUP6 ADD MLOAD PUSH1 0x80 DUP7 ADD MLOAD DUP8 MLOAD PUSH2 0x2530 SWAP3 PUSH2 0x2529 SWAP3 DUP9 SWAP3 DUP8 DUP8 PUSH2 0x339C JUMP JUMPDEST DUP5 SWAP1 PUSH2 0x276D JUMP JUMPDEST PUSH1 0x0 PUSH1 0x80 DUP8 ADD DUP2 SWAP1 MSTORE PUSH1 0x60 DUP9 ADD MLOAD SWAP2 SWAP5 POP SWAP1 PUSH2 0x254D JUMPI POP DUP3 PUSH2 0x256F JUMP JUMPDEST PUSH2 0x256C DUP8 PUSH1 0xA0 ADD MLOAD PUSH2 0x8D7 DUP10 PUSH1 0x60 ADD MLOAD DUP8 PUSH2 0x171F SWAP1 SWAP2 SWAP1 PUSH4 0xFFFFFFFF AND JUMP JUMPDEST SWAP1 POP JUMPDEST PUSH1 0xA0 DUP8 ADD MLOAD PUSH2 0x257E SWAP1 DUP6 PUSH2 0x276D JUMP JUMPDEST PUSH1 0xA0 DUP9 ADD MSTORE PUSH1 0x60 DUP8 ADD MLOAD PUSH2 0x2592 SWAP1 DUP3 PUSH2 0x276D JUMP JUMPDEST PUSH1 0x60 DUP9 ADD MSTORE PUSH1 0x40 DUP7 ADD MLOAD PUSH2 0x25A6 SWAP1 DUP3 PUSH2 0x276D JUMP JUMPDEST PUSH1 0x40 SWAP1 SWAP7 ADD SWAP6 SWAP1 SWAP6 MSTORE POP POP POP POP POP POP JUMP JUMPDEST PUSH2 0x25BF PUSH2 0x3C4D JUMP JUMPDEST PUSH1 0x0 PUSH2 0x25C9 PUSH2 0x359F JUMP JUMPDEST PUSH1 0x0 DUP6 DUP2 MSTORE PUSH1 0x20 DUP3 DUP2 MSTORE PUSH1 0x40 DUP1 DUP4 KECCAK256 DUP8 ISZERO ISZERO DUP5 MSTORE DUP3 MSTORE SWAP2 DUP3 SWAP1 KECCAK256 DUP3 MLOAD PUSH1 0xA0 DUP2 ADD DUP5 MSTORE DUP2 SLOAD PUSH1 0x1 PUSH1 0x1 PUSH1 0xA0 SHL SUB DUP2 AND DUP3 MSTORE PUSH1 0xFF PUSH1 0x1 PUSH1 0xA0 SHL DUP3 DIV DUP2 AND ISZERO ISZERO SWAP5 DUP4 ADD SWAP5 SWAP1 SWAP5 MSTORE PUSH1 0x1 PUSH1 0xB0 SHL DUP2 DIV DUP5 AND PUSH1 0xA EXP SWAP5 DUP3 ADD SWAP5 SWAP1 SWAP5 MSTORE SWAP4 SWAP5 POP SWAP3 SWAP2 PUSH1 0x60 DUP4 ADD SWAP2 PUSH1 0x1 PUSH1 0xA8 SHL SWAP1 SWAP2 DIV AND PUSH1 0x5 DUP2 GT ISZERO PUSH2 0x263E JUMPI INVALID JUMPDEST DUP2 MSTORE SWAP2 SLOAD PUSH1 0x1 PUSH1 0xB8 SHL SWAP1 DIV PUSH9 0xFFFFFFFFFFFFFFFFFF AND PUSH1 0x20 SWAP1 SWAP3 ADD SWAP2 SWAP1 SWAP2 MSTORE SWAP5 SWAP4 POP POP POP POP JUMP JUMPDEST PUSH1 0x0 DUP1 PUSH1 0x0 PUSH2 0x2686 PUSH4 0x3B9ACA00 DUP7 PUSH2 0x120 ADD MLOAD PUSH2 0xF79 SWAP1 SWAP2 SWAP1 PUSH4 0xFFFFFFFF AND JUMP JUMPDEST SWAP1 POP PUSH1 0x0 PUSH2 0x26A6 PUSH2 0x269A DUP9 PUSH1 0x0 ADD MLOAD PUSH2 0x1678 JUMP JUMPDEST PUSH2 0x160 DUP9 ADD MLOAD SWAP1 PUSH2 0x1B5E JUMP JUMPDEST SWAP1 POP PUSH2 0x26DC PUSH2 0x26C2 DUP8 PUSH1 0xC0 ADD MLOAD DUP5 PUSH2 0x1B89 SWAP1 SWAP2 SWAP1 PUSH4 0xFFFFFFFF AND JUMP JUMPDEST PUSH2 0x26D6 DUP8 PUSH2 0x26D0 DUP6 DUP8 PUSH2 0x35AC JUMP JUMPDEST SWAP1 PUSH2 0x1B89 JUMP JUMPDEST SWAP1 PUSH2 0x1B9F JUMP JUMPDEST SWAP4 POP PUSH1 0x0 PUSH2 0x26EA DUP3 DUP7 PUSH2 0x1B89 JUMP JUMPDEST SWAP1 POP PUSH1 0x0 PUSH2 0x270A DUP9 PUSH1 0x60 ADD MLOAD DUP10 PUSH2 0x160 ADD MLOAD PUSH2 0x1B5E SWAP1 SWAP2 SWAP1 PUSH4 0xFFFFFFFF AND JUMP JUMPDEST SWAP1 POP DUP1 DUP3 SLT ISZERO PUSH2 0x271C JUMPI DUP3 SWAP6 POP PUSH1 0x1 SWAP5 POP JUMPDEST POP POP POP POP SWAP4 POP SWAP4 SWAP2 POP POP JUMP JUMPDEST PUSH1 0x0 PUSH2 0x2734 DUP5 DUP4 PUSH2 0x2157 JUMP JUMPDEST SWAP1 POP PUSH1 0x5 DUP5 PUSH1 0x60 ADD MLOAD PUSH1 0x5 DUP2 GT ISZERO PUSH2 0x2748 JUMPI INVALID JUMPDEST EQ ISZERO PUSH2 0x56D JUMPI PUSH1 0x0 PUSH2 0x275D DUP5 PUSH2 0xFFFF AND PUSH2 0x2225 JUMP JUMPDEST SWAP1 POP PUSH2 0x1707 DUP2 PUSH1 0x0 ADD MLOAD DUP4 PUSH2 0x277F JUMP JUMPDEST PUSH1 0x0 DUP3 DUP3 ADD DUP4 DUP2 LT ISZERO PUSH2 0x56D JUMPI PUSH1 0x0 DUP1 REVERT JUMPDEST PUSH1 0x0 DUP2 PUSH2 0x278E JUMPI POP PUSH1 0x0 PUSH2 0x223 JUMP JUMPDEST PUSH1 0x0 PUSH2 0x2799 DUP5 PUSH2 0x2C69 JUMP JUMPDEST SWAP1 POP PUSH1 0x0 PUSH2 0x27A6 DUP5 PUSH2 0x2D82 JUMP JUMPDEST SWAP1 POP DUP2 PUSH12 0x19D971E4FE8401E74000001 PUSH1 0x1 PUSH1 0xFF SHL SUB DUP2 PUSH2 0x27C3 JUMPI INVALID JUMPDEST SDIV DUP2 SGT ISZERO PUSH2 0x27D0 JUMPI PUSH1 0x0 DUP1 REVERT JUMPDEST PUSH12 0x33B2E3C9FD0803CE8000000 PUSH12 0x19D971E4FE8401E74000000 DUP4 DUP4 MUL ADD SDIV PUSH1 0x0 DUP6 SGT PUSH2 0x1707 JUMPI PUSH2 0x2800 DUP2 PUSH2 0x1678 JUMP JUMPDEST PUSH2 0xF6F JUMP JUMPDEST PUSH1 0x0 DUP1 DUP1 DUP1 PUSH1 0x5 DUP8 PUSH1 0x60 ADD MLOAD PUSH1 0x5 DUP2 GT ISZERO PUSH2 0x281C JUMPI INVALID JUMPDEST EQ PUSH2 0x282E JUMPI PUSH4 0x70A08231 PUSH1 0xE0 SHL PUSH2 0x2837 JUMP JUMPDEST PUSH4 0xED1279F PUSH1 0xE1 SHL JUMPDEST SWAP1 POP DUP7 PUSH1 0x20 ADD MLOAD ISZERO PUSH2 0x2853 JUMPI DUP7 MLOAD PUSH2 0x2850 SWAP1 ADDRESS DUP4 PUSH2 0x3029 JUMP JUMPDEST SWAP3 POP JUMPDEST DUP7 MLOAD PUSH2 0x2860 SWAP1 DUP8 DUP8 PUSH2 0x35C5 JUMP JUMPDEST DUP7 PUSH1 0x20 ADD MLOAD DUP1 PUSH2 0x2874 JUMPI POP PUSH1 0x0 DUP8 PUSH1 0x80 ADD MLOAD GT JUMPDEST ISZERO PUSH2 0x2889 JUMPI DUP7 MLOAD PUSH2 0x2886 SWAP1 ADDRESS DUP4 PUSH2 0x3029 JUMP JUMPDEST SWAP2 POP JUMPDEST PUSH1 0x80 DUP8 ADD MLOAD ISZERO PUSH2 0x28C4 JUMPI PUSH1 0x0 PUSH2 0x28A7 DUP9 PUSH2 0x28A2 DUP6 PUSH2 0xFEE JUMP JUMPDEST PUSH2 0x1EC9 JUMP JUMPDEST SWAP1 POP PUSH2 0x28B6 DUP9 PUSH1 0x80 ADD MLOAD PUSH2 0xFEE JUMP JUMPDEST DUP2 SGT ISZERO PUSH2 0x28C2 JUMPI PUSH1 0x0 DUP1 REVERT JUMPDEST POP JUMPDEST DUP7 PUSH1 0x20 ADD MLOAD ISZERO PUSH2 0x28E5 JUMPI PUSH2 0x28DB PUSH2 0xF2A DUP4 DUP6 PUSH2 0x3287 JUMP JUMPDEST SWAP4 POP POP POP POP PUSH2 0x56D JUMP JUMPDEST PUSH2 0x28DB DUP6 PUSH2 0xFEE JUMP JUMPDEST POP POP POP SWAP4 SWAP3 POP POP POP JUMP JUMPDEST PUSH1 0x40 MLOAD PUSH1 0x1 PUSH1 0x1 PUSH1 0xA0 SHL SUB DUP4 AND SWAP1 DUP3 ISZERO PUSH2 0x8FC MUL SWAP1 DUP4 SWAP1 PUSH1 0x0 DUP2 DUP2 DUP2 DUP6 DUP9 DUP9 CALL SWAP4 POP POP POP POP ISZERO DUP1 ISZERO PUSH2 0xC29 JUMPI RETURNDATASIZE PUSH1 0x0 DUP1 RETURNDATACOPY RETURNDATASIZE PUSH1 0x0 REVERT JUMPDEST DUP3 PUSH1 0x1 PUSH1 0x1 PUSH1 0xA0 SHL SUB AND PUSH4 0xA9059CBB DUP4 DUP4 PUSH1 0x40 MLOAD DUP4 PUSH4 0xFFFFFFFF AND PUSH1 0xE0 SHL DUP2 MSTORE PUSH1 0x4 ADD DUP1 DUP4 PUSH1 0x1 PUSH1 0x1 PUSH1 0xA0 SHL SUB AND DUP2 MSTORE PUSH1 0x20 ADD DUP3 DUP2 MSTORE PUSH1 0x20 ADD SWAP3 POP POP POP PUSH1 0x0 PUSH1 0x40 MLOAD DUP1 DUP4 SUB DUP2 PUSH1 0x0 DUP8 DUP1 EXTCODESIZE ISZERO DUP1 ISZERO PUSH2 0x2985 JUMPI PUSH1 0x0 DUP1 REVERT JUMPDEST POP GAS CALL ISZERO DUP1 ISZERO PUSH2 0x2999 JUMPI RETURNDATASIZE PUSH1 0x0 DUP1 RETURNDATACOPY RETURNDATASIZE PUSH1 0x0 REVERT JUMPDEST POP POP POP POP PUSH2 0xC29 PUSH2 0x361D JUMP JUMPDEST PUSH1 0x0 DUP1 PUSH2 0x223 PUSH1 0x14 JUMPDEST PUSH1 0x0 PUSH3 0xF4240 DUP3 PUSH1 0x18 DUP2 GT ISZERO PUSH2 0x29C0 JUMPI INVALID JUMPDEST ADD SWAP3 SWAP2 POP POP JUMP JUMPDEST PUSH1 0x0 DUP1 PUSH1 0x0 DUP1 PUSH1 0x0 PUSH2 0x29D8 DUP7 PUSH2 0x368A JUMP JUMPDEST SWAP1 SWAP3 POP SWAP1 POP PUSH1 0x0 PUSH1 0x1 PUSH1 0x1 PUSH1 0xA0 SHL SUB DUP4 AND PUSH2 0x29FD JUMPI POP PUSH1 0x0 SWAP1 POP PUSH5 0x2540BE400 PUSH2 0x2A7D JUMP JUMPDEST DUP3 PUSH1 0x1 PUSH1 0x1 PUSH1 0xA0 SHL SUB AND PUSH4 0xB2FFFB04 PUSH1 0x40 MLOAD DUP2 PUSH4 0xFFFFFFFF AND PUSH1 0xE0 SHL DUP2 MSTORE PUSH1 0x4 ADD PUSH1 0x20 PUSH1 0x40 MLOAD DUP1 DUP4 SUB DUP2 DUP7 DUP1 EXTCODESIZE ISZERO DUP1 ISZERO PUSH2 0x2A36 JUMPI PUSH1 0x0 DUP1 REVERT JUMPDEST POP GAS STATICCALL ISZERO DUP1 ISZERO PUSH2 0x2A4A JUMPI RETURNDATASIZE PUSH1 0x0 DUP1 RETURNDATACOPY RETURNDATASIZE PUSH1 0x0 REVERT JUMPDEST POP POP POP POP PUSH1 0x40 MLOAD RETURNDATASIZE PUSH1 0x1F NOT PUSH1 0x1F DUP3 ADD AND DUP3 ADD DUP1 PUSH1 0x40 MSTORE POP DUP2 ADD SWAP1 PUSH2 0x2A6E SWAP2 SWAP1 PUSH2 0x3FBB JUMP JUMPDEST SWAP1 POP PUSH1 0x0 DUP2 SGT PUSH2 0x2A7D JUMPI PUSH1 0x0 DUP1 REVERT JUMPDEST SWAP7 SWAP2 SWAP6 POP SWAP4 POP SWAP2 POP POP JUMP JUMPDEST PUSH1 0x0 DUP1 PUSH2 0x2AAA DUP5 PUSH1 0x60 ADD MLOAD PUSH2 0x8D7 DUP7 PUSH1 0x80 ADD MLOAD DUP7 PUSH2 0x171F SWAP1 SWAP2 SWAP1 PUSH4 0xFFFFFFFF AND JUMP JUMPDEST SWAP2 POP PUSH2 0x2ACB DUP5 PUSH1 0x60 ADD MLOAD PUSH2 0x8D7 DUP7 PUSH1 0xA0 ADD MLOAD DUP7 PUSH2 0x171F SWAP1 SWAP2 SWAP1 PUSH4 0xFFFFFFFF AND JUMP JUMPDEST SWAP1 POP SWAP3 POP SWAP3 SWAP1 POP JUMP JUMPDEST PUSH1 0x0 DUP1 PUSH2 0x2AE4 DUP7 PUSH2 0xFFFF AND PUSH2 0x2225 JUMP JUMPDEST SWAP1 POP DUP1 PUSH1 0x40 ADD MLOAD PUSH1 0x0 EQ ISZERO PUSH2 0x2B03 JUMPI PUSH2 0x2B00 DUP7 PUSH2 0xFFFF AND PUSH2 0x1686 JUMP JUMPDEST SWAP1 POP JUMPDEST PUSH2 0xF6F PUSH2 0x2B87 DUP7 PUSH1 0x1 PUSH1 0x1 PUSH1 0xA0 SHL SUB AND PUSH4 0xBC3B9018 DUP8 DUP8 PUSH1 0x40 MLOAD DUP4 PUSH4 0xFFFFFFFF AND PUSH1 0xE0 SHL DUP2 MSTORE PUSH1 0x4 ADD PUSH2 0x2B37 SWAP3 SWAP2 SWAP1 PUSH2 0x40A6 JUMP JUMPDEST PUSH1 0x20 PUSH1 0x40 MLOAD DUP1 DUP4 SUB DUP2 DUP7 DUP1 EXTCODESIZE ISZERO DUP1 ISZERO PUSH2 0x2B4F JUMPI PUSH1 0x0 DUP1 REVERT JUMPDEST POP GAS STATICCALL ISZERO DUP1 ISZERO PUSH2 0x2B63 JUMPI RETURNDATASIZE PUSH1 0x0 DUP1 RETURNDATACOPY RETURNDATASIZE PUSH1 0x0 REVERT JUMPDEST POP POP POP POP PUSH1 0x40 MLOAD RETURNDATASIZE PUSH1 0x1F NOT PUSH1 0x1F DUP3 ADD AND DUP3 ADD DUP1 PUSH1 0x40 MSTORE POP DUP2 ADD SWAP1 PUSH2 0xF2A SWAP2 SWAP1 PUSH2 0x3FBB JUMP JUMPDEST DUP3 SWAP1 PUSH2 0x1EC9 JUMP JUMPDEST PUSH1 0x0 DUP1 PUSH1 0x0 DUP1 PUSH1 0x0 PUSH2 0x2B9F DUP7 PUSH2 0x368A JUMP JUMPDEST SWAP1 SWAP3 POP SWAP1 POP PUSH1 0x0 PUSH1 0x1 PUSH1 0x1 PUSH1 0xA0 SHL SUB DUP4 AND PUSH2 0x2BC4 JUMPI POP PUSH1 0x0 SWAP1 POP PUSH5 0x2540BE400 PUSH2 0x2A7D JUMP JUMPDEST DUP3 PUSH1 0x1 PUSH1 0x1 PUSH1 0xA0 SHL SUB AND PUSH4 0x1EE10833 PUSH1 0x40 MLOAD DUP2 PUSH4 0xFFFFFFFF AND PUSH1 0xE0 SHL DUP2 MSTORE PUSH1 0x4 ADD PUSH1 0x20 PUSH1 0x40 MLOAD DUP1 DUP4 SUB DUP2 PUSH1 0x0 DUP8 DUP1 EXTCODESIZE ISZERO DUP1 ISZERO PUSH2 0x2BFF JUMPI PUSH1 0x0 DUP1 REVERT JUMPDEST POP GAS CALL ISZERO DUP1 ISZERO PUSH2 0x2A4A JUMPI RETURNDATASIZE PUSH1 0x0 DUP1 RETURNDATACOPY RETURNDATASIZE PUSH1 0x0 REVERT JUMPDEST PUSH1 0x0 DUP1 PUSH1 0x0 PUSH2 0x2C20 PUSH2 0x2C5C JUMP JUMPDEST PUSH1 0x0 SWAP6 DUP7 MSTORE PUSH1 0x20 SWAP1 DUP2 MSTORE PUSH1 0x40 DUP1 DUP8 KECCAK256 SWAP6 DUP8 MSTORE SWAP5 SWAP1 MSTORE POP POP POP SWAP1 KECCAK256 SLOAD PUSH6 0x10000000000 DUP2 DIV PUSH1 0x1 PUSH1 0x1 PUSH1 0x80 SHL SUB AND SWAP2 PUSH1 0x1 PUSH1 0xA8 SHL SWAP1 SWAP2 DIV PUSH1 0xFF AND SWAP1 JUMP JUMPDEST PUSH1 0x0 DUP1 PUSH2 0x223 PUSH1 0x8 PUSH2 0x29AE JUMP JUMPDEST PUSH1 0x0 PUSH2 0x223 PUSH2 0x2C76 PUSH2 0x36C1 JUMP JUMPDEST SLOAD PUSH1 0x40 MLOAD PUSH4 0xD15E0053 PUSH1 0xE0 SHL DUP2 MSTORE PUSH1 0x1 PUSH1 0x1 PUSH1 0xA0 SHL SUB SWAP1 SWAP2 AND SWAP1 PUSH4 0xD15E0053 SWAP1 PUSH2 0x2B37 SWAP1 DUP7 SWAP1 PUSH1 0x4 ADD PUSH2 0x3FED JUMP JUMPDEST PUSH1 0x0 DUP1 PUSH2 0x2CB0 DUP4 PUSH2 0x36CE JUMP JUMPDEST PUSH1 0xFF AND SWAP4 SWAP3 POP POP POP JUMP JUMPDEST PUSH1 0x0 DUP1 PUSH1 0x0 DUP6 GT PUSH2 0x2CDD JUMPI PUSH1 0x40 MLOAD PUSH3 0x461BCD PUSH1 0xE5 SHL DUP2 MSTORE PUSH1 0x4 ADD PUSH2 0x2CE SWAP1 PUSH2 0x416C JUMP JUMPDEST PUSH1 0x7 DUP6 GT ISZERO PUSH2 0x2CFE JUMPI PUSH1 0x40 MLOAD PUSH3 0x461BCD PUSH1 0xE5 SHL DUP2 MSTORE PUSH1 0x4 ADD PUSH2 0x2CE SWAP1 PUSH2 0x420D JUMP JUMPDEST PUSH1 0x0 PUSH2 0x2D09 DUP5 PUSH2 0x36EB JUMP JUMPDEST SWAP1 POP PUSH1 0x1 JUMPDEST DUP7 DUP2 GT PUSH2 0x2D61 JUMPI PUSH1 0x0 PUSH2 0x2D2A PUSH2 0x2D23 DUP4 PUSH2 0x3709 JUMP JUMPDEST DUP5 SWAP1 PUSH2 0x37AD JUMP JUMPDEST SWAP1 POP DUP7 DUP2 EQ ISZERO PUSH2 0x2D42 JUMPI POP SWAP3 POP PUSH1 0x0 SWAP2 POP PUSH2 0x2D7A SWAP1 POP JUMP JUMPDEST DUP7 DUP2 GT ISZERO PUSH2 0x2D58 JUMPI POP SWAP3 POP PUSH1 0x1 SWAP2 POP PUSH2 0x2D7A SWAP1 POP JUMP JUMPDEST POP PUSH1 0x1 ADD PUSH2 0x2D0E JUMP JUMPDEST POP PUSH1 0x40 MLOAD PUSH3 0x461BCD PUSH1 0xE5 SHL DUP2 MSTORE PUSH1 0x4 ADD PUSH2 0x2CE SWAP1 PUSH2 0x4347 JUMP JUMPDEST SWAP4 POP SWAP4 SWAP2 POP POP JUMP JUMPDEST PUSH1 0x0 DUP1 DUP3 SLT ISZERO PUSH2 0x2D9C JUMPI PUSH2 0x2D95 DUP3 PUSH2 0x1678 JUMP JUMPDEST SWAP1 POP PUSH2 0x1007 JUMP JUMPDEST POP DUP1 PUSH2 0x1007 JUMP JUMPDEST PUSH1 0x0 DUP1 PUSH2 0x223 PUSH1 0x17 PUSH2 0x29AE JUMP JUMPDEST DUP3 MLOAD PUSH1 0x40 MLOAD PUSH4 0xDB006A75 PUSH1 0xE0 SHL DUP2 MSTORE PUSH1 0x0 SWAP2 SELFBALANCE SWAP2 DUP4 SWAP2 PUSH1 0x1 PUSH1 0x1 PUSH1 0xA0 SHL SUB AND SWAP1 PUSH4 0xDB006A75 SWAP1 PUSH2 0x2DE4 SWAP1 DUP8 SWAP1 PUSH1 0x4 ADD PUSH2 0x409D JUMP JUMPDEST PUSH1 0x20 PUSH1 0x40 MLOAD DUP1 DUP4 SUB DUP2 PUSH1 0x0 DUP8 DUP1 EXTCODESIZE ISZERO DUP1 ISZERO PUSH2 0x2DFE JUMPI PUSH1 0x0 DUP1 REVERT JUMPDEST POP GAS CALL ISZERO DUP1 ISZERO PUSH2 0x2E12 JUMPI RETURNDATASIZE PUSH1 0x0 DUP1 RETURNDATACOPY RETURNDATASIZE PUSH1 0x0 REVERT JUMPDEST POP POP POP POP PUSH1 0x40 MLOAD RETURNDATASIZE PUSH1 0x1F NOT PUSH1 0x1F DUP3 ADD AND DUP3 ADD DUP1 PUSH1 0x40 MSTORE POP DUP2 ADD SWAP1 PUSH2 0x2E36 SWAP2 SWAP1 PUSH2 0x3FBB JUMP JUMPDEST SWAP1 POP DUP1 ISZERO PUSH2 0x2E56 JUMPI PUSH1 0x40 MLOAD PUSH3 0x461BCD PUSH1 0xE5 SHL DUP2 MSTORE PUSH1 0x4 ADD PUSH2 0x2CE SWAP1 PUSH2 0x414C JUMP JUMPDEST SELFBALANCE PUSH2 0x2E61 DUP2 DUP5 PUSH2 0x3287 JUMP JUMPDEST SWAP4 POP PUSH2 0x28EE DUP7 DUP6 PUSH2 0x28F8 JUMP JUMPDEST PUSH1 0x0 PUSH2 0x2E88 PUSH2 0x9BA DUP6 PUSH1 0x0 ADD MLOAD PUSH2 0x2E83 DUP6 PUSH2 0xFEE JUMP JUMPDEST PUSH2 0x277F JUMP JUMPDEST SWAP1 POP PUSH2 0x2E92 PUSH2 0x36C1 JUMP JUMPDEST SLOAD DUP5 MLOAD PUSH1 0x40 MLOAD PUSH4 0x1A4CA37B PUSH1 0xE2 SHL DUP2 MSTORE PUSH1 0x1 PUSH1 0x1 PUSH1 0xA0 SHL SUB SWAP1 SWAP3 AND SWAP2 PUSH4 0x69328DEC SWAP2 PUSH2 0x2EC4 SWAP2 DUP6 SWAP1 DUP9 SWAP1 PUSH1 0x4 ADD PUSH2 0x4001 JUMP JUMPDEST PUSH1 0x20 PUSH1 0x40 MLOAD DUP1 DUP4 SUB DUP2 PUSH1 0x0 DUP8 DUP1 EXTCODESIZE ISZERO DUP1 ISZERO PUSH2 0x2EDE JUMPI PUSH1 0x0 DUP1 REVERT JUMPDEST POP GAS CALL ISZERO DUP1 ISZERO PUSH2 0x2EF2 JUMPI RETURNDATASIZE PUSH1 0x0 DUP1 RETURNDATACOPY RETURNDATASIZE PUSH1 0x0 REVERT JUMPDEST POP POP POP POP PUSH1 0x40 MLOAD RETURNDATASIZE PUSH1 0x1F NOT PUSH1 0x1F DUP3 ADD AND DUP3 ADD DUP1 PUSH1 0x40 MSTORE POP DUP2 ADD SWAP1 PUSH2 0x2F16 SWAP2 SWAP1 PUSH2 0x3FBB JUMP JUMPDEST POP SWAP4 SWAP3 POP POP POP JUMP JUMPDEST DUP3 MLOAD PUSH1 0x0 SWAP1 DUP2 SWAP1 PUSH2 0x2F37 SWAP1 ADDRESS PUSH4 0x70A08231 PUSH1 0xE0 SHL PUSH2 0x3029 JUMP JUMPDEST SWAP1 POP PUSH1 0x0 DUP7 PUSH1 0x0 ADD MLOAD PUSH1 0x1 PUSH1 0x1 PUSH1 0xA0 SHL SUB AND PUSH4 0xDB006A75 DUP6 PUSH1 0x40 MLOAD DUP3 PUSH4 0xFFFFFFFF AND PUSH1 0xE0 SHL DUP2 MSTORE PUSH1 0x4 ADD PUSH2 0x2F6B SWAP2 SWAP1 PUSH2 0x409D JUMP JUMPDEST PUSH1 0x20 PUSH1 0x40 MLOAD DUP1 DUP4 SUB DUP2 PUSH1 0x0 DUP8 DUP1 EXTCODESIZE ISZERO DUP1 ISZERO PUSH2 0x2F85 JUMPI PUSH1 0x0 DUP1 REVERT JUMPDEST POP GAS CALL ISZERO DUP1 ISZERO PUSH2 0x2F99 JUMPI RETURNDATASIZE PUSH1 0x0 DUP1 RETURNDATACOPY RETURNDATASIZE PUSH1 0x0 REVERT JUMPDEST POP POP POP POP PUSH1 0x40 MLOAD RETURNDATASIZE PUSH1 0x1F NOT PUSH1 0x1F DUP3 ADD AND DUP3 ADD DUP1 PUSH1 0x40 MSTORE POP DUP2 ADD SWAP1 PUSH2 0x2FBD SWAP2 SWAP1 PUSH2 0x3FBB JUMP JUMPDEST SWAP1 POP DUP1 ISZERO PUSH2 0x2FDD JUMPI PUSH1 0x40 MLOAD PUSH3 0x461BCD PUSH1 0xE5 SHL DUP2 MSTORE PUSH1 0x4 ADD PUSH2 0x2CE SWAP1 PUSH2 0x414C JUMP JUMPDEST DUP6 MLOAD PUSH1 0x0 SWAP1 PUSH2 0x2FF4 SWAP1 ADDRESS PUSH4 0x70A08231 PUSH1 0xE0 SHL PUSH2 0x3029 JUMP JUMPDEST SWAP1 POP PUSH2 0x3000 DUP2 DUP5 PUSH2 0x3287 JUMP JUMPDEST SWAP4 POP PUSH2 0x3011 DUP8 PUSH1 0x0 ADD MLOAD DUP8 DUP7 PUSH2 0x292E JUMP JUMPDEST POP POP POP SWAP5 SWAP4 POP POP POP POP JUMP JUMPDEST PUSH1 0x0 DUP1 PUSH2 0x223 PUSH1 0x2 PUSH2 0x29AE JUMP JUMPDEST PUSH1 0x40 DUP1 MLOAD PUSH1 0x1 PUSH1 0x1 PUSH1 0xA0 SHL SUB DUP5 DUP2 AND PUSH1 0x24 DUP1 DUP5 ADD SWAP2 SWAP1 SWAP2 MSTORE DUP4 MLOAD DUP1 DUP5 SUB SWAP1 SWAP2 ADD DUP2 MSTORE PUSH1 0x44 SWAP1 SWAP3 ADD DUP4 MSTORE PUSH1 0x20 DUP3 ADD DUP1 MLOAD PUSH1 0x1 PUSH1 0x1 PUSH1 0xE0 SHL SUB AND PUSH1 0x1 PUSH1 0x1 PUSH1 0xE0 SHL SUB NOT DUP7 AND OR DUP2 MSTORE SWAP3 MLOAD DUP3 MLOAD PUSH1 0x0 SWAP5 DUP6 SWAP5 DUP6 SWAP5 DUP11 AND SWAP4 SWAP1 SWAP3 SWAP1 SWAP2 DUP3 SWAP2 DUP1 DUP4 DUP4 JUMPDEST PUSH1 0x20 DUP4 LT PUSH2 0x30A6 JUMPI DUP1 MLOAD DUP3 MSTORE PUSH1 0x1F NOT SWAP1 SWAP3 ADD SWAP2 PUSH1 0x20 SWAP2 DUP3 ADD SWAP2 ADD PUSH2 0x3087 JUMP JUMPDEST PUSH1 0x1 DUP4 PUSH1 0x20 SUB PUSH2 0x100 EXP SUB DUP1 NOT DUP3 MLOAD AND DUP2 DUP5 MLOAD AND DUP1 DUP3 OR DUP6 MSTORE POP POP POP POP POP POP SWAP1 POP ADD SWAP2 POP POP PUSH1 0x0 PUSH1 0x40 MLOAD DUP1 DUP4 SUB DUP2 DUP6 GAS STATICCALL SWAP2 POP POP RETURNDATASIZE DUP1 PUSH1 0x0 DUP2 EQ PUSH2 0x3106 JUMPI PUSH1 0x40 MLOAD SWAP2 POP PUSH1 0x1F NOT PUSH1 0x3F RETURNDATASIZE ADD AND DUP3 ADD PUSH1 0x40 MSTORE RETURNDATASIZE DUP3 MSTORE RETURNDATASIZE PUSH1 0x0 PUSH1 0x20 DUP5 ADD RETURNDATACOPY PUSH2 0x310B JUMP JUMPDEST PUSH1 0x60 SWAP2 POP JUMPDEST POP SWAP2 POP SWAP2 POP DUP2 PUSH2 0x311A JUMPI PUSH1 0x0 DUP1 REVERT JUMPDEST DUP1 DUP1 PUSH1 0x20 ADD SWAP1 MLOAD PUSH1 0x20 DUP2 LT ISZERO PUSH2 0x312F JUMPI PUSH1 0x0 DUP1 REVERT JUMPDEST POP MLOAD SWAP7 SWAP6 POP POP POP POP POP POP JUMP JUMPDEST PUSH2 0x3143 PUSH2 0x36C1 JUMP JUMPDEST SLOAD DUP3 MLOAD PUSH1 0x40 MLOAD PUSH4 0xE8EDA9DF PUSH1 0xE0 SHL DUP2 MSTORE PUSH1 0x1 PUSH1 0x1 PUSH1 0xA0 SHL SUB SWAP1 SWAP3 AND SWAP2 PUSH4 0xE8EDA9DF SWAP2 PUSH2 0x3178 SWAP2 DUP6 SWAP1 ADDRESS SWAP1 PUSH1 0x0 SWAP1 PUSH1 0x4 ADD PUSH2 0x4024 JUMP JUMPDEST PUSH1 0x0 PUSH1 0x40 MLOAD DUP1 DUP4 SUB DUP2 PUSH1 0x0 DUP8 DUP1 EXTCODESIZE ISZERO DUP1 ISZERO PUSH2 0x3192 JUMPI PUSH1 0x0 DUP1 REVERT JUMPDEST POP GAS CALL ISZERO DUP1 ISZERO PUSH2 0x135B JUMPI RETURNDATASIZE PUSH1 0x0 DUP1 RETURNDATACOPY RETURNDATASIZE PUSH1 0x0 REVERT JUMPDEST DUP2 MLOAD PUSH1 0x40 MLOAD PUSH4 0x140E25AD PUSH1 0xE3 SHL DUP2 MSTORE PUSH1 0x0 SWAP2 PUSH1 0x1 PUSH1 0x1 PUSH1 0xA0 SHL SUB AND SWAP1 PUSH4 0xA0712D68 SWAP1 PUSH2 0x31D6 SWAP1 DUP6 SWAP1 PUSH1 0x4 ADD PUSH2 0x409D JUMP JUMPDEST PUSH1 0x20 PUSH1 0x40 MLOAD DUP1 DUP4 SUB DUP2 PUSH1 0x0 DUP8 DUP1 EXTCODESIZE ISZERO DUP1 ISZERO PUSH2 0x31F0 JUMPI PUSH1 0x0 DUP1 REVERT JUMPDEST POP GAS CALL ISZERO DUP1 ISZERO PUSH2 0x3204 JUMPI RETURNDATASIZE PUSH1 0x0 DUP1 RETURNDATACOPY RETURNDATASIZE PUSH1 0x0 REVERT JUMPDEST POP POP POP POP PUSH1 0x40 MLOAD RETURNDATASIZE PUSH1 0x1F NOT PUSH1 0x1F DUP3 ADD AND DUP3 ADD DUP1 PUSH1 0x40 MSTORE POP DUP2 ADD SWAP1 PUSH2 0x3228 SWAP2 SWAP1 PUSH2 0x3FBB JUMP JUMPDEST SWAP1 POP DUP1 ISZERO PUSH2 0xC29 JUMPI PUSH1 0x40 MLOAD PUSH3 0x461BCD PUSH1 0xE5 SHL DUP2 MSTORE PUSH1 0x4 ADD PUSH2 0x2CE SWAP1 PUSH2 0x4109 JUMP JUMPDEST DUP1 PUSH1 0x0 ADD MLOAD PUSH1 0x1 PUSH1 0x1 PUSH1 0xA0 SHL SUB AND PUSH4 0x1249C58B CALLVALUE PUSH1 0x40 MLOAD DUP3 PUSH4 0xFFFFFFFF AND PUSH1 0xE0 SHL DUP2 MSTORE PUSH1 0x4 ADD PUSH1 0x0 PUSH1 0x40 MLOAD DUP1 DUP4 SUB DUP2 DUP6 DUP9 DUP1 EXTCODESIZE ISZERO DUP1 ISZERO PUSH2 0x3192 JUMPI PUSH1 0x0 DUP1 REVERT JUMPDEST PUSH1 0x0 DUP3 DUP3 GT ISZERO PUSH2 0x1774 JUMPI PUSH1 0x40 DUP1 MLOAD PUSH3 0x461BCD PUSH1 0xE5 SHL DUP2 MSTORE PUSH1 0x20 PUSH1 0x4 DUP3 ADD MSTORE PUSH1 0x1E PUSH1 0x24 DUP3 ADD MSTORE PUSH32 0x536166654D6174683A207375627472616374696F6E206F766572666C6F770000 PUSH1 0x44 DUP3 ADD MSTORE SWAP1 MLOAD SWAP1 DUP2 SWAP1 SUB PUSH1 0x64 ADD SWAP1 REVERT JUMPDEST PUSH1 0x0 DUP3 SGT ISZERO PUSH2 0x32EC JUMPI PUSH1 0x0 DUP1 REVERT JUMPDEST PUSH1 0x0 PUSH2 0x330D PUSH4 0x1DA9C00 PUSH2 0xCBB PUSH2 0x3302 DUP6 PUSH2 0xFEE JUMP JUMPDEST PUSH1 0x80 DUP10 ADD MLOAD SWAP1 PUSH2 0x1D3E JUMP JUMPDEST SWAP1 POP PUSH1 0x0 PUSH2 0x3327 PUSH2 0x269A DUP4 PUSH2 0x3321 DUP8 PUSH2 0x1678 JUMP JUMPDEST SWAP1 PUSH2 0x35AC JUMP JUMPDEST SWAP1 POP PUSH1 0x0 PUSH2 0x3347 PUSH1 0x64 PUSH2 0xCBB DUP10 PUSH1 0xE0 ADD MLOAD DUP6 PUSH2 0x1D3E SWAP1 SWAP2 SWAP1 PUSH4 0xFFFFFFFF AND JUMP JUMPDEST SWAP1 POP PUSH1 0x0 PUSH2 0x3355 DUP4 DUP4 PUSH2 0x1B89 JUMP JUMPDEST SWAP1 POP PUSH2 0x3369 DUP9 PUSH1 0x40 ADD MLOAD PUSH2 0xFFFF AND DUP4 PUSH2 0x3807 JUMP JUMPDEST PUSH2 0x337B DUP9 PUSH1 0x40 ADD MLOAD PUSH2 0xFFFF AND DUP3 PUSH2 0x388E JUMP JUMPDEST PUSH1 0x80 DUP8 ADD MLOAD PUSH2 0x338A SWAP1 DUP5 PUSH2 0x1B89 JUMP JUMPDEST PUSH1 0x80 SWAP1 SWAP8 ADD SWAP7 SWAP1 SWAP7 MSTORE POP POP POP POP POP POP POP JUMP JUMPDEST PUSH1 0x0 DUP5 PUSH2 0x33AB JUMPI POP PUSH1 0x0 PUSH2 0xF6F JUMP JUMPDEST PUSH1 0x0 PUSH2 0x33BE DUP9 PUSH1 0x40 ADD MLOAD PUSH2 0xFFFF AND PUSH2 0x1686 JUMP JUMPDEST SWAP1 POP PUSH1 0x0 PUSH2 0x33DB DUP10 PUSH1 0x40 ADD MLOAD DUP9 DUP5 PUSH2 0x2728 SWAP1 SWAP3 SWAP2 SWAP1 PUSH4 0xFFFFFFFF AND JUMP JUMPDEST SWAP1 POP PUSH1 0x0 PUSH2 0x33E8 DUP3 PUSH2 0x1710 JUMP JUMPDEST DUP11 MLOAD DUP5 MLOAD PUSH1 0x40 MLOAD PUSH4 0x70A08231 PUSH1 0xE0 SHL DUP2 MSTORE SWAP3 SWAP4 POP SWAP1 SWAP2 PUSH1 0x0 SWAP1 PUSH1 0x1 PUSH1 0x1 PUSH1 0xA0 SHL SUB DUP4 AND SWAP1 PUSH4 0x70A08231 SWAP1 PUSH2 0x3420 SWAP1 DUP7 SWAP1 PUSH1 0x4 ADD PUSH2 0x3FED JUMP JUMPDEST PUSH1 0x20 PUSH1 0x40 MLOAD DUP1 DUP4 SUB DUP2 DUP7 DUP1 EXTCODESIZE ISZERO DUP1 ISZERO PUSH2 0x3438 JUMPI PUSH1 0x0 DUP1 REVERT JUMPDEST POP GAS STATICCALL ISZERO DUP1 ISZERO PUSH2 0x344C JUMPI RETURNDATASIZE PUSH1 0x0 DUP1 RETURNDATACOPY RETURNDATASIZE PUSH1 0x0 REVERT JUMPDEST POP POP POP POP PUSH1 0x40 MLOAD RETURNDATASIZE PUSH1 0x1F NOT PUSH1 0x1F DUP3 ADD AND DUP3 ADD DUP1 PUSH1 0x40 MSTORE POP DUP2 ADD SWAP1 PUSH2 0x3470 SWAP2 SWAP1 PUSH2 0x3FBB JUMP JUMPDEST SWAP1 POP PUSH2 0x347D DUP3 DUP5 DUP7 PUSH2 0x292E JUMP JUMPDEST PUSH1 0x40 MLOAD PUSH4 0x70A08231 PUSH1 0xE0 SHL DUP2 MSTORE PUSH1 0x0 SWAP1 PUSH1 0x1 PUSH1 0x1 PUSH1 0xA0 SHL SUB DUP5 AND SWAP1 PUSH4 0x70A08231 SWAP1 PUSH2 0x34AC SWAP1 DUP8 SWAP1 PUSH1 0x4 ADD PUSH2 0x3FED JUMP JUMPDEST PUSH1 0x20 PUSH1 0x40 MLOAD DUP1 DUP4 SUB DUP2 DUP7 DUP1 EXTCODESIZE ISZERO DUP1 ISZERO PUSH2 0x34C4 JUMPI PUSH1 0x0 DUP1 REVERT JUMPDEST POP GAS STATICCALL ISZERO DUP1 ISZERO PUSH2 0x34D8 JUMPI RETURNDATASIZE PUSH1 0x0 DUP1 RETURNDATACOPY RETURNDATASIZE PUSH1 0x0 REVERT JUMPDEST POP POP POP POP PUSH1 0x40 MLOAD RETURNDATASIZE PUSH1 0x1F NOT PUSH1 0x1F DUP3 ADD AND DUP3 ADD DUP1 PUSH1 0x40 MSTORE POP DUP2 ADD SWAP1 PUSH2 0x34FC SWAP2 SWAP1 PUSH2 0x3FBB JUMP JUMPDEST SWAP1 POP PUSH1 0x1 PUSH1 0x1 PUSH1 0xA0 SHL SUB DUP5 AND PUSH4 0xDC6679C5 DUP15 PUSH2 0x3518 DUP5 DUP7 PUSH2 0x1765 JUMP JUMPDEST DUP15 DUP15 DUP15 PUSH1 0x40 MLOAD DUP7 PUSH4 0xFFFFFFFF AND PUSH1 0xE0 SHL DUP2 MSTORE PUSH1 0x4 ADD PUSH2 0x353B SWAP6 SWAP5 SWAP4 SWAP3 SWAP2 SWAP1 PUSH2 0x4051 JUMP JUMPDEST PUSH1 0x20 PUSH1 0x40 MLOAD DUP1 DUP4 SUB DUP2 PUSH1 0x0 DUP8 DUP1 EXTCODESIZE ISZERO DUP1 ISZERO PUSH2 0x3555 JUMPI PUSH1 0x0 DUP1 REVERT JUMPDEST POP GAS CALL ISZERO DUP1 ISZERO PUSH2 0x3569 JUMPI RETURNDATASIZE PUSH1 0x0 DUP1 RETURNDATACOPY RETURNDATASIZE PUSH1 0x0 REVERT JUMPDEST POP POP POP POP PUSH1 0x40 MLOAD RETURNDATASIZE PUSH1 0x1F NOT PUSH1 0x1F DUP3 ADD AND DUP3 ADD DUP1 PUSH1 0x40 MSTORE POP DUP2 ADD SWAP1 PUSH2 0x358D SWAP2 SWAP1 PUSH2 0x3FBB JUMP JUMPDEST SWAP15 SWAP14 POP POP POP POP POP POP POP POP POP POP POP POP POP POP JUMP JUMPDEST PUSH1 0x0 DUP1 PUSH2 0x223 PUSH1 0x7 PUSH2 0x29AE JUMP JUMPDEST PUSH1 0x0 PUSH2 0x56D PUSH2 0x35BB DUP5 DUP5 PUSH2 0x1D3E JUMP JUMPDEST PUSH4 0x3B9ACA00 PUSH2 0x1D8C JUMP JUMPDEST PUSH1 0x40 DUP1 MLOAD PUSH4 0x23B872DD PUSH1 0xE0 SHL DUP2 MSTORE PUSH1 0x1 PUSH1 0x1 PUSH1 0xA0 SHL SUB DUP5 DUP2 AND PUSH1 0x4 DUP4 ADD MSTORE ADDRESS PUSH1 0x24 DUP4 ADD MSTORE PUSH1 0x44 DUP3 ADD DUP5 SWAP1 MSTORE SWAP2 MLOAD SWAP2 DUP6 AND SWAP2 PUSH4 0x23B872DD SWAP2 PUSH1 0x64 DUP1 DUP3 ADD SWAP3 PUSH1 0x0 SWAP3 SWAP1 SWAP2 SWAP1 DUP3 SWAP1 SUB ADD DUP2 DUP4 DUP8 DUP1 EXTCODESIZE ISZERO DUP1 ISZERO PUSH2 0x2985 JUMPI PUSH1 0x0 DUP1 REVERT JUMPDEST PUSH1 0x0 PUSH2 0x3627 PUSH2 0x3CA6 JUMP JUMPDEST RETURNDATASIZE DUP1 ISZERO PUSH2 0x363B JUMPI PUSH1 0x20 DUP2 EQ PUSH2 0x3644 JUMPI PUSH1 0x0 DUP1 REVERT JUMPDEST PUSH1 0x1 SWAP3 POP PUSH2 0x364F JUMP JUMPDEST PUSH1 0x20 PUSH1 0x0 DUP4 RETURNDATACOPY DUP2 MLOAD SWAP3 POP JUMPDEST POP DUP2 PUSH2 0x14C8 JUMPI PUSH1 0x40 DUP1 MLOAD PUSH3 0x461BCD PUSH1 0xE5 SHL DUP2 MSTORE PUSH1 0x20 PUSH1 0x4 DUP3 ADD MSTORE PUSH1 0x5 PUSH1 0x24 DUP3 ADD MSTORE PUSH5 0x455243323 PUSH1 0xDC SHL PUSH1 0x44 DUP3 ADD MSTORE SWAP1 MLOAD SWAP1 DUP2 SWAP1 SUB PUSH1 0x64 ADD SWAP1 REVERT JUMPDEST PUSH1 0x0 DUP1 PUSH1 0x0 PUSH2 0x3697 PUSH2 0x38E0 JUMP JUMPDEST PUSH1 0x0 SWAP5 DUP6 MSTORE PUSH1 0x20 MSTORE POP POP PUSH1 0x40 SWAP1 SWAP2 KECCAK256 SLOAD PUSH1 0x1 PUSH1 0x1 PUSH1 0xA0 SHL SUB DUP2 AND SWAP3 PUSH1 0x1 PUSH1 0xA0 SHL SWAP1 SWAP2 DIV PUSH1 0xFF AND SWAP2 POP JUMP JUMPDEST PUSH1 0x0 DUP1 PUSH2 0x223 PUSH1 0x13 PUSH2 0x29AE JUMP JUMPDEST PUSH1 0x0 DUP1 PUSH2 0x36D9 PUSH2 0x38ED JUMP JUMPDEST PUSH1 0x0 SWAP4 DUP5 MSTORE PUSH1 0x20 MSTORE POP POP PUSH1 0x40 SWAP1 KECCAK256 SLOAD SWAP1 JUMP JUMPDEST PUSH1 0x0 PUSH3 0x76A700 DUP3 LT ISZERO PUSH2 0x36FD JUMPI PUSH1 0x0 DUP1 REVERT JUMPDEST POP PUSH3 0x76A700 DUP2 MOD SWAP1 SUB SWAP1 JUMP JUMPDEST PUSH1 0x0 DUP2 PUSH1 0x1 EQ ISZERO PUSH2 0x371E JUMPI POP PUSH3 0x76A700 PUSH2 0x1007 JUMP JUMPDEST DUP2 PUSH1 0x2 EQ ISZERO PUSH2 0x3731 JUMPI POP PUSH3 0xED4E00 PUSH2 0x1007 JUMP JUMPDEST DUP2 PUSH1 0x3 EQ ISZERO PUSH2 0x3745 JUMPI POP PUSH4 0x1DA9C00 PUSH2 0x1007 JUMP JUMPDEST DUP2 PUSH1 0x4 EQ ISZERO PUSH2 0x3759 JUMPI POP PUSH4 0x3B53800 PUSH2 0x1007 JUMP JUMPDEST DUP2 PUSH1 0x5 EQ ISZERO PUSH2 0x376D JUMPI POP PUSH4 0x9450C00 PUSH2 0x1007 JUMP JUMPDEST DUP2 PUSH1 0x6 EQ ISZERO PUSH2 0x3781 JUMPI POP PUSH4 0x128A1800 PUSH2 0x1007 JUMP JUMPDEST DUP2 PUSH1 0x7 EQ ISZERO PUSH2 0x3795 JUMPI POP PUSH4 0x25143000 PUSH2 0x1007 JUMP JUMPDEST PUSH1 0x40 MLOAD PUSH3 0x461BCD PUSH1 0xE5 SHL DUP2 MSTORE PUSH1 0x4 ADD PUSH2 0x2CE SWAP1 PUSH2 0x419B JUMP JUMPDEST PUSH1 0x0 DUP3 DUP3 ADD DUP4 DUP2 LT ISZERO PUSH2 0x56D JUMPI PUSH1 0x40 DUP1 MLOAD PUSH3 0x461BCD PUSH1 0xE5 SHL DUP2 MSTORE PUSH1 0x20 PUSH1 0x4 DUP3 ADD MSTORE PUSH1 0x1B PUSH1 0x24 DUP3 ADD MSTORE PUSH32 0x536166654D6174683A206164646974696F6E206F766572666C6F770000000000 PUSH1 0x44 DUP3 ADD MSTORE SWAP1 MLOAD SWAP1 DUP2 SWAP1 SUB PUSH1 0x64 ADD SWAP1 REVERT JUMPDEST PUSH1 0x0 DUP2 SLT ISZERO PUSH2 0x3815 JUMPI PUSH1 0x0 DUP1 REVERT JUMPDEST PUSH1 0x0 PUSH2 0x3822 PUSH1 0x0 DUP5 PUSH2 0x38FA JUMP JUMPDEST POP POP POP SWAP1 POP PUSH2 0x383A DUP3 DUP3 PUSH2 0xF79 SWAP1 SWAP2 SWAP1 PUSH4 0xFFFFFFFF AND JUMP JUMPDEST SWAP1 POP PUSH2 0x384D PUSH1 0x0 DUP5 DUP4 PUSH1 0x0 DUP1 PUSH1 0x0 PUSH2 0x39A3 JUMP JUMPDEST DUP3 PUSH2 0xFFFF AND PUSH32 0x85170C297762884F47EC6098B74925C795E6D33686B11019B400E33A9B23B5E9 DUP4 PUSH1 0x40 MLOAD PUSH2 0x3881 SWAP2 SWAP1 PUSH2 0x409D JUMP JUMPDEST PUSH1 0x40 MLOAD DUP1 SWAP2 SUB SWAP1 LOG2 POP POP POP JUMP JUMPDEST PUSH1 0x0 DUP2 SLT ISZERO PUSH2 0x389C JUMPI PUSH1 0x0 DUP1 REVERT JUMPDEST PUSH1 0x0 PUSH2 0x38A7 DUP4 PUSH2 0x3AED JUMP JUMPDEST SWAP1 POP PUSH1 0x0 PUSH2 0x38B5 DUP3 DUP6 PUSH2 0x38FA JUMP JUMPDEST POP POP POP SWAP1 POP PUSH2 0x38CD DUP4 DUP3 PUSH2 0xF79 SWAP1 SWAP2 SWAP1 PUSH4 0xFFFFFFFF AND JUMP JUMPDEST SWAP1 POP PUSH2 0x38DA DUP3 DUP6 DUP4 PUSH2 0x3B13 JUMP JUMPDEST POP POP POP POP JUMP JUMPDEST PUSH1 0x0 DUP1 PUSH2 0x223 PUSH1 0xF PUSH2 0x29AE JUMP JUMPDEST PUSH1 0x0 DUP1 PUSH2 0x223 PUSH1 0x9 PUSH2 0x29AE JUMP JUMPDEST PUSH1 0x0 DUP1 PUSH1 0x0 DUP1 PUSH1 0x0 PUSH2 0x390A PUSH2 0x3B31 JUMP JUMPDEST PUSH1 0x1 PUSH1 0x1 PUSH1 0xA0 SHL SUB DUP9 AND PUSH1 0x0 SWAP1 DUP2 MSTORE PUSH1 0x20 DUP3 DUP2 MSTORE PUSH1 0x40 DUP1 DUP4 KECCAK256 DUP11 DUP5 MSTORE SWAP1 SWAP2 MSTORE SWAP1 KECCAK256 DUP1 SLOAD PUSH1 0x1 PUSH1 0x1 PUSH1 0x50 SHL SUB DUP2 AND SWAP7 POP PUSH1 0x1 PUSH1 0x50 SHL SWAP1 DIV PUSH4 0xFFFFFFFF AND SWAP5 POP SWAP1 SWAP2 POP DUP4 ISZERO PUSH2 0x3973 JUMPI DUP1 SLOAD PUSH2 0x396C SWAP1 PUSH1 0x1 PUSH1 0x70 SHL SWAP1 DIV PUSH7 0xFFFFFFFFFFFFFF AND PUSH2 0x3B3E JUMP JUMPDEST SWAP3 POP PUSH2 0x3988 JUMP JUMPDEST DUP1 SLOAD PUSH1 0x1 PUSH1 0x70 SHL SWAP1 DIV PUSH7 0xFFFFFFFFFFFFFF AND SWAP3 POP JUMPDEST SLOAD PUSH1 0x1 PUSH1 0xA8 SHL SWAP1 DIV PUSH1 0xA SWAP1 DUP2 SIGNEXTEND SWAP1 SIGNEXTEND SWAP8 SWAP4 SWAP7 POP SWAP2 SWAP5 POP SWAP3 POP POP JUMP JUMPDEST PUSH1 0x0 PUSH2 0x39AD PUSH2 0x3B31 JUMP JUMPDEST PUSH1 0x1 PUSH1 0x1 PUSH1 0xA0 SHL SUB DUP9 AND PUSH1 0x0 SWAP1 DUP2 MSTORE PUSH1 0x20 DUP3 DUP2 MSTORE PUSH1 0x40 DUP1 DUP4 KECCAK256 DUP11 DUP5 MSTORE SWAP1 SWAP2 MSTORE SWAP1 KECCAK256 SWAP1 SWAP2 POP PUSH11 0x7FFFFFFFFFFFFFFFFFFFFF NOT DUP7 SLT DUP1 ISZERO SWAP1 PUSH2 0x39F8 JUMPI POP PUSH11 0x7FFFFFFFFFFFFFFFFFFFFF DUP7 SGT ISZERO JUMPDEST PUSH2 0x3A01 JUMPI PUSH1 0x0 DUP1 REVERT JUMPDEST PUSH1 0x0 DUP6 SLT ISZERO DUP1 ISZERO PUSH2 0x3A19 JUMPI POP PUSH1 0x1 PUSH1 0x1 PUSH1 0x50 SHL SUB DUP6 SGT ISZERO JUMPDEST PUSH2 0x3A22 JUMPI PUSH1 0x0 DUP1 REVERT JUMPDEST DUP4 PUSH2 0x3A62 JUMPI PUSH7 0xFFFFFFFFFFFFFF DUP4 GT ISZERO PUSH2 0x3A3B JUMPI PUSH1 0x0 DUP1 REVERT JUMPDEST DUP1 SLOAD PUSH7 0xFFFFFFFFFFFFFF PUSH1 0x70 SHL NOT AND PUSH1 0x1 PUSH1 0x70 SHL PUSH7 0xFFFFFFFFFFFFFF DUP6 AND MUL OR DUP2 SSTORE PUSH2 0x3A7C JUMP JUMPDEST DUP1 SLOAD PUSH1 0x1 PUSH1 0x50 SHL SWAP1 DIV PUSH4 0xFFFFFFFF AND DUP5 EQ PUSH2 0x3A7C JUMPI PUSH1 0x0 DUP1 REVERT JUMPDEST DUP1 SLOAD PUSH1 0xA SWAP7 SWAP1 SWAP7 SIGNEXTEND PUSH11 0xFFFFFFFFFFFFFFFFFFFFFF AND PUSH1 0x1 PUSH1 0xA8 SHL MUL PUSH1 0x1 PUSH1 0x1 PUSH1 0xA8 SHL SUB PUSH1 0x1 PUSH1 0x1 PUSH1 0x50 SHL SUB SWAP1 SWAP7 AND PUSH10 0xFFFFFFFFFFFFFFFFFFFF NOT PUSH4 0xFFFFFFFF SWAP1 SWAP7 AND PUSH1 0x1 PUSH1 0x50 SHL MUL PUSH4 0xFFFFFFFF PUSH1 0x50 SHL NOT SWAP1 SWAP9 AND SWAP8 SWAP1 SWAP8 OR SWAP5 SWAP1 SWAP5 AND SWAP6 SWAP1 SWAP6 OR SWAP4 SWAP1 SWAP4 AND SWAP2 SWAP1 SWAP2 OR SWAP1 SWAP3 SSTORE POP POP POP POP JUMP JUMPDEST PUSH1 0x0 DUP1 PUSH2 0x3AF8 PUSH2 0x3B4C JUMP JUMPDEST PUSH1 0x0 SWAP4 DUP5 MSTORE PUSH1 0x20 MSTORE POP POP PUSH1 0x40 SWAP1 KECCAK256 SLOAD PUSH1 0x1 PUSH1 0x1 PUSH1 0xA0 SHL SUB AND SWAP1 JUMP JUMPDEST PUSH1 0x0 DUP2 SLT ISZERO PUSH2 0x3B21 JUMPI PUSH1 0x0 DUP1 REVERT JUMPDEST PUSH2 0xC29 DUP4 DUP4 DUP4 PUSH1 0x0 DUP1 PUSH1 0x0 PUSH2 0x39A3 JUMP JUMPDEST PUSH1 0x0 DUP1 PUSH2 0x223 PUSH1 0x6 PUSH2 0x29AE JUMP JUMPDEST PUSH1 0x8 DUP2 SWAP1 SHR PUSH1 0xFF SWAP1 SWAP2 AND SHL SWAP1 JUMP JUMPDEST PUSH1 0x0 DUP1 PUSH2 0x223 PUSH1 0x3 PUSH2 0x29AE JUMP JUMPDEST PUSH1 0x40 MLOAD DUP1 PUSH1 0xA0 ADD PUSH1 0x40 MSTORE DUP1 PUSH1 0x0 DUP2 MSTORE PUSH1 0x20 ADD PUSH1 0x0 DUP2 MSTORE PUSH1 0x20 ADD PUSH1 0x0 DUP2 MSTORE PUSH1 0x20 ADD PUSH1 0x0 PUSH1 0x1 PUSH1 0x1 PUSH1 0xA0 SHL SUB AND DUP2 MSTORE PUSH1 0x20 ADD PUSH1 0x0 DUP2 MSTORE POP SWAP1 JUMP JUMPDEST PUSH1 0x40 MLOAD DUP1 PUSH2 0x180 ADD PUSH1 0x40 MSTORE DUP1 PUSH1 0x0 PUSH1 0x1 PUSH1 0x1 PUSH1 0xA0 SHL SUB AND DUP2 MSTORE PUSH1 0x20 ADD PUSH1 0x0 PUSH2 0xFFFF AND DUP2 MSTORE PUSH1 0x20 ADD PUSH1 0x0 PUSH2 0xFFFF AND DUP2 MSTORE PUSH1 0x20 ADD PUSH1 0x0 DUP2 MSTORE PUSH1 0x20 ADD PUSH1 0x0 DUP2 MSTORE PUSH1 0x20 ADD PUSH1 0x0 DUP2 MSTORE PUSH1 0x20 ADD PUSH1 0x0 DUP2 MSTORE PUSH1 0x20 ADD PUSH1 0x0 DUP2 MSTORE PUSH1 0x20 ADD PUSH1 0x0 DUP2 MSTORE PUSH1 0x20 ADD PUSH1 0x0 DUP2 MSTORE PUSH1 0x20 ADD PUSH2 0x3BFC PUSH2 0x3CC4 JUMP JUMPDEST DUP2 MSTORE PUSH1 0x20 ADD PUSH2 0x3C09 PUSH2 0x3C7C JUMP JUMPDEST SWAP1 MSTORE SWAP1 JUMP JUMPDEST PUSH1 0x40 MLOAD DUP1 PUSH1 0xE0 ADD PUSH1 0x40 MSTORE DUP1 PUSH1 0x0 DUP2 MSTORE PUSH1 0x20 ADD PUSH1 0x0 DUP2 MSTORE PUSH1 0x20 ADD PUSH1 0x0 ISZERO ISZERO DUP2 MSTORE PUSH1 0x20 ADD PUSH1 0x0 DUP2 MSTORE PUSH1 0x20 ADD PUSH1 0x0 DUP2 MSTORE PUSH1 0x20 ADD PUSH1 0x0 DUP2 MSTORE PUSH1 0x20 ADD PUSH1 0x0 DUP2 MSTORE POP SWAP1 JUMP JUMPDEST PUSH1 0x40 DUP1 MLOAD PUSH1 0xA0 DUP2 ADD DUP3 MSTORE PUSH1 0x0 DUP1 DUP3 MSTORE PUSH1 0x20 DUP3 ADD DUP2 SWAP1 MSTORE SWAP2 DUP2 ADD DUP3 SWAP1 MSTORE SWAP1 PUSH1 0x60 DUP3 ADD SWAP1 DUP2 MSTORE PUSH1 0x20 ADD PUSH1 0x0 DUP2 MSTORE POP SWAP1 JUMP JUMPDEST PUSH1 0x40 MLOAD DUP1 PUSH1 0x60 ADD PUSH1 0x40 MSTORE DUP1 PUSH1 0x0 PUSH1 0x1 PUSH1 0x1 PUSH1 0xA0 SHL SUB AND DUP2 MSTORE PUSH1 0x20 ADD PUSH1 0x0 DUP2 MSTORE PUSH1 0x20 ADD PUSH1 0x0 DUP2 MSTORE POP SWAP1 JUMP JUMPDEST PUSH1 0x40 MLOAD DUP1 PUSH1 0x20 ADD PUSH1 0x40 MSTORE DUP1 PUSH1 0x1 SWAP1 PUSH1 0x20 DUP3 MUL DUP1 CALLDATASIZE DUP4 CALLDATACOPY POP SWAP2 SWAP3 SWAP2 POP POP JUMP JUMPDEST PUSH1 0x40 MLOAD DUP1 PUSH1 0x60 ADD PUSH1 0x40 MSTORE DUP1 PUSH1 0x3 SWAP1 PUSH1 0x20 DUP3 MUL DUP1 CALLDATASIZE DUP4 CALLDATACOPY POP SWAP2 SWAP3 SWAP2 POP POP JUMP JUMPDEST DUP1 CALLDATALOAD PUSH1 0x1 PUSH1 0x1 PUSH1 0xA0 SHL SUB DUP2 AND DUP2 EQ PUSH2 0x1007 JUMPI PUSH1 0x0 DUP1 REVERT JUMPDEST DUP1 CALLDATALOAD DUP1 ISZERO ISZERO DUP2 EQ PUSH2 0x1007 JUMPI PUSH1 0x0 DUP1 REVERT JUMPDEST PUSH1 0x0 DUP1 DUP4 PUSH1 0x1F DUP5 ADD SLT PUSH2 0x3D1A JUMPI DUP2 DUP3 REVERT JUMPDEST POP DUP2 CALLDATALOAD PUSH8 0xFFFFFFFFFFFFFFFF DUP2 GT ISZERO PUSH2 0x3D31 JUMPI DUP2 DUP3 REVERT JUMPDEST PUSH1 0x20 DUP4 ADD SWAP2 POP DUP4 PUSH1 0x20 DUP3 DUP6 ADD ADD GT ISZERO PUSH2 0x3D49 JUMPI PUSH1 0x0 DUP1 REVERT JUMPDEST SWAP3 POP SWAP3 SWAP1 POP JUMP JUMPDEST DUP1 CALLDATALOAD PUSH4 0xFFFFFFFF DUP2 AND DUP2 EQ PUSH2 0x1007 JUMPI PUSH1 0x0 DUP1 REVERT JUMPDEST PUSH1 0x0 DUP1 PUSH1 0x40 DUP4 DUP6 SUB SLT ISZERO PUSH2 0x3D76 JUMPI DUP2 DUP3 REVERT JUMPDEST PUSH2 0x3D7F DUP4 PUSH2 0x3CE2 JUMP JUMPDEST SWAP2 POP PUSH2 0x2ACB PUSH1 0x20 DUP5 ADD PUSH2 0x3CE2 JUMP JUMPDEST PUSH1 0x0 DUP1 PUSH1 0x0 DUP1 PUSH1 0x0 DUP1 PUSH1 0xA0 DUP8 DUP10 SUB SLT ISZERO PUSH2 0x3DA5 JUMPI DUP2 DUP3 REVERT JUMPDEST PUSH2 0x3DAE DUP8 PUSH2 0x3CE2 JUMP JUMPDEST SWAP6 POP PUSH2 0x3DBC PUSH1 0x20 DUP9 ADD PUSH2 0x3CE2 JUMP JUMPDEST SWAP5 POP PUSH2 0x3DCA PUSH1 0x40 DUP9 ADD PUSH2 0x3CE2 JUMP JUMPDEST SWAP4 POP PUSH1 0x60 DUP8 ADD CALLDATALOAD SWAP3 POP PUSH1 0x80 DUP8 ADD CALLDATALOAD PUSH8 0xFFFFFFFFFFFFFFFF DUP2 GT ISZERO PUSH2 0x3DEC JUMPI DUP3 DUP4 REVERT JUMPDEST PUSH2 0x3DF8 DUP10 DUP3 DUP11 ADD PUSH2 0x3D09 JUMP JUMPDEST SWAP8 SWAP11 SWAP7 SWAP10 POP SWAP5 SWAP8 POP SWAP3 SWAP6 SWAP4 SWAP5 SWAP3 POP POP POP JUMP JUMPDEST PUSH1 0x0 DUP1 PUSH1 0x0 DUP1 PUSH1 0x0 DUP1 PUSH1 0x0 DUP1 PUSH1 0x0 PUSH2 0x100 DUP11 DUP13 SUB SLT ISZERO PUSH2 0x3E28 JUMPI DUP3 DUP4 REVERT JUMPDEST PUSH2 0x3E31 DUP11 PUSH2 0x3CE2 JUMP JUMPDEST SWAP9 POP PUSH2 0x3E3F PUSH1 0x20 DUP12 ADD PUSH2 0x3CE2 JUMP JUMPDEST SWAP8 POP PUSH1 0x40 DUP11 ADD CALLDATALOAD SWAP7 POP PUSH1 0x60 DUP11 ADD CALLDATALOAD SWAP6 POP PUSH2 0x3E5B PUSH1 0x80 DUP12 ADD PUSH2 0x3CF9 JUMP JUMPDEST SWAP5 POP PUSH1 0xA0 DUP11 ADD CALLDATALOAD SWAP4 POP PUSH2 0x3E70 PUSH1 0xC0 DUP12 ADD PUSH2 0x3D50 JUMP JUMPDEST SWAP3 POP PUSH1 0xE0 DUP11 ADD CALLDATALOAD PUSH8 0xFFFFFFFFFFFFFFFF DUP2 GT ISZERO PUSH2 0x3E8B JUMPI DUP3 DUP4 REVERT JUMPDEST PUSH2 0x3E97 DUP13 DUP3 DUP14 ADD PUSH2 0x3D09 JUMP JUMPDEST SWAP2 POP DUP1 SWAP4 POP POP DUP1 SWAP2 POP POP SWAP3 SWAP6 SWAP9 POP SWAP3 SWAP6 SWAP9 POP SWAP3 SWAP6 SWAP9 JUMP JUMPDEST PUSH1 0x0 DUP1 PUSH1 0x0 DUP1 PUSH1 0x0 PUSH1 0xA0 DUP7 DUP9 SUB SLT ISZERO PUSH2 0x3EC5 JUMPI DUP1 DUP2 REVERT JUMPDEST PUSH2 0x3ECE DUP7 PUSH2 0x3CE2 JUMP JUMPDEST SWAP5 POP PUSH2 0x3EDC PUSH1 0x20 DUP8 ADD PUSH2 0x3CE2 JUMP JUMPDEST SWAP4 POP PUSH1 0x40 DUP7 ADD CALLDATALOAD SWAP3 POP PUSH1 0x60 DUP7 ADD CALLDATALOAD SWAP2 POP PUSH1 0x80 DUP7 ADD CALLDATALOAD PUSH8 0xFFFFFFFFFFFFFFFF DUP2 GT ISZERO PUSH2 0x3F05 JUMPI DUP2 DUP3 REVERT JUMPDEST DUP7 ADD PUSH1 0x60 DUP2 DUP10 SUB SLT ISZERO PUSH2 0x3F16 JUMPI DUP2 DUP3 REVERT JUMPDEST DUP1 SWAP2 POP POP SWAP3 SWAP6 POP SWAP3 SWAP6 SWAP1 SWAP4 POP JUMP JUMPDEST PUSH1 0x0 DUP1 PUSH1 0x0 DUP1 PUSH1 0x0 DUP1 PUSH1 0x0 DUP1 PUSH1 0xE0 DUP10 DUP12 SUB SLT ISZERO PUSH2 0x3F3F JUMPI DUP4 DUP5 REVERT JUMPDEST PUSH2 0x3F48 DUP10 PUSH2 0x3CE2 JUMP JUMPDEST SWAP8 POP PUSH2 0x3F56 PUSH1 0x20 DUP11 ADD PUSH2 0x3CE2 JUMP JUMPDEST SWAP7 POP PUSH1 0x40 DUP10 ADD CALLDATALOAD SWAP6 POP PUSH1 0x60 DUP10 ADD CALLDATALOAD SWAP5 POP PUSH2 0x3F72 PUSH1 0x80 DUP11 ADD PUSH2 0x3D50 JUMP JUMPDEST SWAP4 POP PUSH2 0x3F80 PUSH1 0xA0 DUP11 ADD PUSH2 0x3CF9 JUMP JUMPDEST SWAP3 POP PUSH1 0xC0 DUP10 ADD CALLDATALOAD PUSH8 0xFFFFFFFFFFFFFFFF DUP2 GT ISZERO PUSH2 0x3F9B JUMPI DUP3 DUP4 REVERT JUMPDEST PUSH2 0x3FA7 DUP12 DUP3 DUP13 ADD PUSH2 0x3D09 JUMP JUMPDEST SWAP10 SWAP13 SWAP9 SWAP12 POP SWAP7 SWAP10 POP SWAP5 SWAP8 SWAP4 SWAP7 SWAP3 SWAP6 SWAP5 POP POP POP JUMP JUMPDEST PUSH1 0x0 PUSH1 0x20 DUP3 DUP5 SUB SLT ISZERO PUSH2 0x3FCC JUMPI DUP1 DUP2 REVERT JUMPDEST POP MLOAD SWAP2 SWAP1 POP JUMP JUMPDEST PUSH1 0x0 PUSH1 0x20 DUP3 DUP5 SUB SLT ISZERO PUSH2 0x3FE4 JUMPI DUP1 DUP2 REVERT JUMPDEST PUSH2 0x56D DUP3 PUSH2 0x3D50 JUMP JUMPDEST PUSH1 0x1 PUSH1 0x1 PUSH1 0xA0 SHL SUB SWAP2 SWAP1 SWAP2 AND DUP2 MSTORE PUSH1 0x20 ADD SWAP1 JUMP JUMPDEST PUSH1 0x1 PUSH1 0x1 PUSH1 0xA0 SHL SUB SWAP4 DUP5 AND DUP2 MSTORE PUSH1 0x20 DUP2 ADD SWAP3 SWAP1 SWAP3 MSTORE SWAP1 SWAP2 AND PUSH1 0x40 DUP3 ADD MSTORE PUSH1 0x60 ADD SWAP1 JUMP JUMPDEST PUSH1 0x1 PUSH1 0x1 PUSH1 0xA0 SHL SUB SWAP5 DUP6 AND DUP2 MSTORE PUSH1 0x20 DUP2 ADD SWAP4 SWAP1 SWAP4 MSTORE SWAP3 AND PUSH1 0x40 DUP3 ADD MSTORE PUSH2 0xFFFF SWAP1 SWAP2 AND PUSH1 0x60 DUP3 ADD MSTORE PUSH1 0x80 ADD SWAP1 JUMP JUMPDEST PUSH1 0x0 PUSH1 0x1 DUP1 PUSH1 0xA0 SHL SUB DUP8 AND DUP3 MSTORE DUP6 PUSH1 0x20 DUP4 ADD MSTORE DUP5 PUSH1 0x40 DUP4 ADD MSTORE PUSH1 0x80 PUSH1 0x60 DUP4 ADD MSTORE DUP3 PUSH1 0x80 DUP4 ADD MSTORE DUP3 DUP5 PUSH1 0xA0 DUP5 ADD CALLDATACOPY DUP2 DUP4 ADD PUSH1 0xA0 SWAP1 DUP2 ADD SWAP2 SWAP1 SWAP2 MSTORE PUSH1 0x1F SWAP1 SWAP3 ADD PUSH1 0x1F NOT AND ADD ADD SWAP5 SWAP4 POP POP POP POP JUMP JUMPDEST SWAP1 DUP2 MSTORE PUSH1 0x20 ADD SWAP1 JUMP JUMPDEST SWAP2 DUP3 MSTORE PUSH1 0x20 DUP3 ADD MSTORE PUSH1 0x40 ADD SWAP1 JUMP JUMPDEST PUSH1 0x20 DUP1 DUP3 MSTORE PUSH1 0xC SWAP1 DUP3 ADD MSTORE PUSH12 0x155B985D5D1A1BDC9A5E9959 PUSH1 0xA2 SHL PUSH1 0x40 DUP3 ADD MSTORE PUSH1 0x60 ADD SWAP1 JUMP JUMPDEST PUSH1 0x20 DUP1 DUP3 MSTORE PUSH1 0x15 SWAP1 DUP3 ADD MSTORE PUSH21 0xACC2EAD8E840A6D0C2E4CAE6409AD2E6DAC2E8C6D PUSH1 0x5B SHL PUSH1 0x40 DUP3 ADD MSTORE PUSH1 0x60 ADD SWAP1 JUMP JUMPDEST PUSH1 0x20 DUP1 DUP3 MSTORE PUSH1 0x4 SWAP1 DUP3 ADD MSTORE PUSH4 0x135A5B9D PUSH1 0xE2 SHL PUSH1 0x40 DUP3 ADD MSTORE PUSH1 0x60 ADD SWAP1 JUMP JUMPDEST PUSH1 0x20 DUP1 DUP3 MSTORE PUSH1 0xB SWAP1 DUP3 ADD MSTORE PUSH11 0x4554482042616C616E6365 PUSH1 0xA8 SHL PUSH1 0x40 DUP3 ADD MSTORE PUSH1 0x60 ADD SWAP1 JUMP JUMPDEST PUSH1 0x20 DUP1 DUP3 MSTORE PUSH1 0x6 SWAP1 DUP3 ADD MSTORE PUSH6 0x52656465656D PUSH1 0xD0 SHL PUSH1 0x40 DUP3 ADD MSTORE PUSH1 0x60 ADD SWAP1 JUMP JUMPDEST PUSH1 0x20 DUP1 DUP3 MSTORE PUSH1 0x15 SWAP1 DUP3 ADD MSTORE PUSH21 0x10D1CE881B9BC81B585C9AD95D1CC81B1A5CDD1959 PUSH1 0x5A SHL PUSH1 0x40 DUP3 ADD MSTORE PUSH1 0x60 ADD SWAP1 JUMP JUMPDEST PUSH1 0x20 DUP1 DUP3 MSTORE PUSH1 0xD SWAP1 DUP3 ADD MSTORE PUSH13 0x92DCECC2D8D2C840D2DCC8CAF PUSH1 0x9B SHL PUSH1 0x40 DUP3 ADD MSTORE PUSH1 0x60 ADD SWAP1 JUMP JUMPDEST PUSH1 0x20 DUP1 DUP3 MSTORE PUSH1 0xC SWAP1 DUP3 ADD MSTORE PUSH12 0x4D6178204361706163697479 PUSH1 0xA0 SHL PUSH1 0x40 DUP3 ADD MSTORE PUSH1 0x60 ADD SWAP1 JUMP JUMPDEST PUSH1 0x20 DUP1 DUP3 MSTORE PUSH1 0xB SWAP1 DUP3 ADD MSTORE PUSH11 0x139BDD0814D95D1D1B1959 PUSH1 0xAA SHL PUSH1 0x40 DUP3 ADD MSTORE PUSH1 0x60 ADD SWAP1 JUMP JUMPDEST PUSH1 0x20 DUP1 DUP3 MSTORE PUSH1 0x16 SWAP1 DUP3 ADD MSTORE PUSH22 0x10D1CE881B585C9AD95D081A5B99195E08189BDD5B99 PUSH1 0x52 SHL PUSH1 0x40 DUP3 ADD MSTORE PUSH1 0x60 ADD SWAP1 JUMP JUMPDEST PUSH1 0x20 DUP1 DUP3 MSTORE PUSH1 0xF SWAP1 DUP3 ADD MSTORE PUSH15 0x139BC8149BDB1B08105B1B1BDDD959 PUSH1 0x8A SHL PUSH1 0x40 DUP3 ADD MSTORE PUSH1 0x60 ADD SWAP1 JUMP JUMPDEST PUSH1 0x20 DUP1 DUP3 MSTORE PUSH1 0x17 SWAP1 DUP3 ADD MSTORE PUSH32 0x496E73756666696369656E7420436F6C6C61746572616C000000000000000000 PUSH1 0x40 DUP3 ADD MSTORE PUSH1 0x60 ADD SWAP1 JUMP JUMPDEST PUSH1 0x20 DUP1 DUP3 MSTORE PUSH1 0x17 SWAP1 DUP3 ADD MSTORE PUSH32 0x4D757374204C697175696461746520416C6C2044656274000000000000000000 PUSH1 0x40 DUP3 ADD MSTORE PUSH1 0x60 ADD SWAP1 JUMP JUMPDEST PUSH1 0x20 DUP1 DUP3 MSTORE PUSH1 0xE SWAP1 DUP3 ADD MSTORE PUSH14 0x1499595B9D1C985B9D0818D85B1B PUSH1 0x92 SHL PUSH1 0x40 DUP3 ADD MSTORE PUSH1 0x60 ADD SWAP1 JUMP JUMPDEST PUSH1 0x20 DUP1 DUP3 MSTORE PUSH1 0xD SWAP1 DUP3 ADD MSTORE PUSH13 0x109BDC9C9BDDC819985A5B1959 PUSH1 0x9A SHL PUSH1 0x40 DUP3 ADD MSTORE PUSH1 0x60 ADD SWAP1 JUMP JUMPDEST PUSH1 0x20 DUP1 DUP3 MSTORE PUSH1 0xA SWAP1 DUP3 ADD MSTORE PUSH10 0x4D696E20426F72726F77 PUSH1 0xB0 SHL PUSH1 0x40 DUP3 ADD MSTORE PUSH1 0x60 ADD SWAP1 JUMP JUMPDEST PUSH1 0x20 DUP1 DUP3 MSTORE PUSH1 0x13 SWAP1 DUP3 ADD MSTORE PUSH19 0x10D1CE881B9BC81B585C9AD95D08199BDD5B99 PUSH1 0x6A SHL PUSH1 0x40 DUP3 ADD MSTORE PUSH1 0x60 ADD SWAP1 JUMP JUMPDEST PUSH1 0x20 DUP1 DUP3 MSTORE PUSH1 0xC SWAP1 DUP3 ADD MSTORE PUSH12 0x21B0B73737BA1022B73A32B9 PUSH1 0xA1 SHL PUSH1 0x40 DUP3 ADD MSTORE PUSH1 0x60 ADD SWAP1 JUMP JUMPDEST PUSH1 0x20 DUP1 DUP3 MSTORE PUSH1 0xB SWAP1 DUP3 ADD MSTORE PUSH11 0x11985A5B19590813195B99 PUSH1 0xAA SHL PUSH1 0x40 DUP3 ADD MSTORE PUSH1 0x60 ADD SWAP1 JUMP JUMPDEST PUSH1 0x20 DUP1 DUP3 MSTORE PUSH1 0x15 SWAP1 DUP3 ADD MSTORE PUSH21 0x14DD59999A58DA595B9D0810DBDB1B185D195C985B PUSH1 0x5A SHL PUSH1 0x40 DUP3 ADD MSTORE PUSH1 0x60 ADD SWAP1 JUMP JUMPDEST DUP2 MLOAD DUP2 MSTORE PUSH1 0x20 DUP1 DUP4 ADD MLOAD SWAP1 DUP3 ADD MSTORE PUSH1 0x40 DUP1 DUP4 ADD MLOAD SWAP1 DUP3 ADD MSTORE PUSH1 0x60 DUP1 DUP4 ADD MLOAD PUSH1 0x1 PUSH1 0x1 PUSH1 0xA0 SHL SUB AND SWAP1 DUP3 ADD MSTORE PUSH1 0x80 SWAP2 DUP3 ADD MLOAD SWAP2 DUP2 ADD SWAP2 SWAP1 SWAP2 MSTORE PUSH1 0xA0 ADD SWAP1 JUMP JUMPDEST PUSH1 0x1 PUSH1 0x1 PUSH1 0x80 SHL SUB SWAP2 SWAP1 SWAP2 AND DUP2 MSTORE PUSH1 0x20 ADD SWAP1 JUMP JUMPDEST PUSH2 0xFFFF SWAP3 SWAP1 SWAP3 AND DUP3 MSTORE PUSH1 0x20 DUP3 ADD MSTORE PUSH1 0x40 ADD SWAP1 JUMP JUMPDEST PUSH1 0x0 DUP1 DUP4 CALLDATALOAD PUSH1 0x1E NOT DUP5 CALLDATASIZE SUB ADD DUP2 SLT PUSH2 0x446A JUMPI DUP3 DUP4 REVERT JUMPDEST DUP4 ADD DUP1 CALLDATALOAD SWAP2 POP PUSH8 0xFFFFFFFFFFFFFFFF DUP3 GT ISZERO PUSH2 0x4484 JUMPI DUP3 DUP4 REVERT JUMPDEST PUSH1 0x20 ADD SWAP2 POP CALLDATASIZE DUP2 SWAP1 SUB DUP3 SGT ISZERO PUSH2 0x3D49 JUMPI PUSH1 0x0 DUP1 REVERT INVALID LOG2 PUSH5 0x6970667358 0x22 SLT KECCAK256 0xD6 NUMBER EXTCODECOPY 0xE8 DUP13 0xA8 TIMESTAMP 0xE4 SWAP14 0xA8 DUP14 0xD2 DUP15 0x23 DUP3 DUP9 CALLVALUE PUSH16 0x67F27451FD825F4872571F76B8A16473 PUSH16 0x6C634300070600330000000000000000 ",
  "sha1": "2eb207eaed2ca5ecbe4deb1534a90905e34754b1",
  "source": "// SPDX-License-Identifier: GPL-3.0-only\npragma solidity =0.7.6;\npragma abicoder v2;\n\nimport \"./ActionGuards.sol\";\nimport {IVaultAccountAction} from \"../../../../interfaces/notional/IVaultController.sol\";\nimport \"../../internal/vaults/VaultConfiguration.sol\";\nimport \"../../internal/vaults/VaultAccount.sol\";\nimport {VaultStateLib, VaultState} from \"../../internal/vaults/VaultState.sol\";\n\ncontract VaultAccountAction is ActionGuards, IVaultAccountAction {\n    using VaultConfiguration for VaultConfig;\n    using VaultAccountLib for VaultAccount;\n    using VaultStateLib for VaultState;\n    using AssetRate for AssetRateParameters;\n    using TokenHandler for Token;\n    using SafeInt256 for int256;\n    using SafeUint256 for uint256;\n\n    /**\n     * @notice Borrows a specified amount of fCash in the vault's borrow currency and deposits it\n     * all plus the depositAmountExternal into the vault to mint strategy tokens.\n     *\n     * @param account the address that will enter the vault\n     * @param vault the vault to enter\n     * @param depositAmountExternal some amount of additional collateral in the borrowed currency\n     * to be transferred to vault\n     * @param maturity the maturity to borrow at\n     * @param useUnderlying true if the account will transfer underlying tokens\n     * @param fCash amount to borrow\n     * @param maxBorrowRate maximum interest rate to borrow at\n     * @param vaultData additional data to pass to the vault contract\n     */\n    function enterVault(\n        address account,\n        address vault,\n        uint256 depositAmountExternal,\n        uint256 maturity,\n        bool useUnderlying,\n        uint256 fCash,\n        uint32 maxBorrowRate,\n        bytes calldata vaultData\n    ) external payable override nonReentrant { \n        // Ensure that system level accounts cannot enter vaults\n        requireValidAccount(account);\n        VaultConfig memory vaultConfig = VaultConfiguration.getVaultConfigStateful(vault);\n        vaultConfig.authorizeCaller(account, VaultConfiguration.ONLY_VAULT_ENTRY);\n\n        // If the vault allows further re-entrancy then set the status back to the default\n        if (vaultConfig.getFlag(VaultConfiguration.ALLOW_REENTRANCY)) {\n            reentrancyStatus = _NOT_ENTERED;\n        }\n\n        // Vaults cannot be entered if they are paused\n        require(vaultConfig.getFlag(VaultConfiguration.ENABLED), \"Cannot Enter\");\n        VaultAccount memory vaultAccount = VaultAccountLib.getVaultAccount(account, vaultConfig);\n\n        uint256 strategyTokens;\n        if (vaultAccount.maturity != 0 && vaultAccount.maturity <= block.timestamp) {\n            strategyTokens = vaultAccount.settleVaultAccount(vaultConfig, block.timestamp);\n        }\n        // This will update the account's cash balance in memory, this will establish the amount of\n        // collateral that the vault account has. This method only transfers from the account, so approvals\n        // must be set accordingly.\n        // TODO: this should transfer directly to the vault...\n        vaultAccount.depositIntoAccount(account, vaultConfig.borrowCurrencyId, depositAmountExternal, useUnderlying);\n\n        vaultAccount.borrowAndEnterVault(vaultConfig, maturity, fCash, maxBorrowRate, vaultData, strategyTokens);\n    }\n\n    /**\n     * @notice Re-enters the vault at a longer dated maturity. The account's existing borrow\n     * position will be closed and a new borrow position at the specified maturity will be\n     * opened. All strategy token holdings will be rolled forward.\n     *\n     * @param account the address that will reenter the vault\n     * @param vault the vault to reenter\n     * @param fCashToBorrow amount of fCash to borrow in the next maturity\n     * @param maturity new maturity to borrow at\n     * @param opts struct with slippage limits and data to send to vault\n     */\n    function rollVaultPosition(\n        address account,\n        address vault,\n        uint256 fCashToBorrow,\n        uint256 maturity,\n        RollVaultOpts calldata opts\n    ) external override nonReentrant {\n        VaultConfig memory vaultConfig = VaultConfiguration.getVaultConfigStateful(vault);\n        vaultConfig.authorizeCaller(account, VaultConfiguration.ONLY_VAULT_ROLL);\n\n        // If the vault allows further re-entrancy then set the status back to the default\n        if (vaultConfig.getFlag(VaultConfiguration.ALLOW_REENTRANCY)) {\n            reentrancyStatus = _NOT_ENTERED;\n        }\n\n        VaultAccount memory vaultAccount = VaultAccountLib.getVaultAccount(account, vaultConfig);\n        // Cannot roll unless all of these requirements are met\n        require(\n            vaultConfig.getFlag(VaultConfiguration.ENABLED) &&\n            vaultConfig.getFlag(VaultConfiguration.ALLOW_ROLL_POSITION) &&\n            block.timestamp < vaultAccount.maturity && // cannot have matured yet\n            vaultAccount.maturity < maturity && // new maturity must be forward in time\n            fCashToBorrow > 0, // must borrow into the next maturity, if not, then they should just exit\n            \"No Roll Allowed\"\n        );\n\n        VaultState memory vaultState = VaultStateLib.getVaultState(vaultConfig.vault, vaultAccount.maturity);\n        // Exit the maturity pool by removing all the vault shares. All of the strategy tokens will be\n        // re-deposited into the new maturity\n        uint256 strategyTokens = vaultState.exitMaturityPool(vaultAccount, vaultAccount.vaultShares);\n\n        // Exit the vault first, redeeming the amount of vault shares and crediting the amount raised\n        // back into the cash balance.\n        vaultAccount.lendToExitVault(\n            vaultConfig,\n            vaultState,\n            vaultAccount.fCash.neg(), // must fully exit the fCash position\n            opts.minLendRate,\n            block.timestamp\n        );\n\n        // This should never be the case for a healthy vault account due to the mechanics of exiting the vault\n        // above but we check it for safety here.\n        require(vaultAccount.fCash == 0, \"Failed Lend\");\n        vaultState.setVaultState(vaultConfig.vault);\n\n        // Borrows into the vault, paying nToken fees and checks borrow capacity\n        vaultAccount.borrowAndEnterVault(\n            vaultConfig,\n            maturity, // This is the new maturity to enter\n            fCashToBorrow,\n            opts.maxBorrowRate,\n            opts.enterVaultData,\n            strategyTokens\n        );\n    }\n\n    /**\n     * @notice Prior to maturity, allows an account to withdraw their position from the vault. Will\n     * redeem some number of vault shares to the borrow currency and close the borrow position by\n     * lending `fCashToLend`. Any shortfall in cash from lending will be transferred from the account,\n     * any excess profits will be transferred to the account.\n     *\n     * Post maturity, will net off the account's debt against vault cash balances and redeem all remaining\n     * strategy tokens back to the borrowed currency and transfer the profits to the account.\n     *\n     * @param account the address that will exit the vault\n     * @param vault the vault to enter\n     * @param vaultSharesToRedeem amount of vault tokens to exit, only relevant when exiting pre-maturity\n     * @param fCashToLend amount of fCash to lend\n     * @param minLendRate the minimum rate to lend at\n     * @param useUnderlying if vault shares should be redeemed to underlying\n     * @param exitVaultData passed to the vault during exit\n     */\n    function exitVault(\n        address account,\n        address vault,\n        uint256 vaultSharesToRedeem,\n        uint256 fCashToLend,\n        uint32 minLendRate,\n        bool useUnderlying,\n        bytes calldata exitVaultData\n    ) external override nonReentrant { \n        VaultConfig memory vaultConfig = VaultConfiguration.getVaultConfigStateful(vault);\n        vaultConfig.authorizeCaller(account, VaultConfiguration.ONLY_VAULT_EXIT);\n\n        // If the vault allows further re-entrancy then set the status back to the default\n        if (vaultConfig.getFlag(VaultConfiguration.ALLOW_REENTRANCY)) {\n            reentrancyStatus = _NOT_ENTERED;\n        }\n\n        VaultAccount memory vaultAccount = VaultAccountLib.getVaultAccount(account, vaultConfig);\n\n        if (vaultAccount.maturity <= block.timestamp) {\n            // Safe this off because settleVaultAccount will clear the maturity\n            uint256 maturity = vaultAccount.maturity;\n            // Past maturity, a vault cannot lend anymore. When they exit they will just be settling.\n            uint256 strategyTokens = vaultAccount.settleVaultAccount(vaultConfig, block.timestamp);\n\n            // Redeems all strategy tokens and updates temp cash balance\n            vaultAccount.tempCashBalance = vaultAccount.tempCashBalance.add(\n                vaultConfig.redeem(account, strategyTokens, maturity, exitVaultData)\n            );\n        } else {\n            VaultState memory vaultState = VaultStateLib.getVaultState(vaultConfig.vault, vaultAccount.maturity);\n\n            if (vaultSharesToRedeem > 0) {\n                // When an account exits the maturity pool it may get some asset cash credited to its temp\n                // cash balance and it will sell the strategy tokens it has a claim on.\n                uint256 strategyTokens = vaultState.exitMaturityPool(vaultAccount, vaultSharesToRedeem);\n\n                // Redeems and updates temp cash balance\n                vaultAccount.tempCashBalance = vaultAccount.tempCashBalance.add(\n                    vaultConfig.redeem(account, strategyTokens, vaultState.maturity, exitVaultData)\n                );\n            }\n\n            vaultAccount.lendToExitVault(\n                vaultConfig,\n                vaultState,\n                SafeInt256.toInt(fCashToLend),\n                minLendRate,\n                block.timestamp\n            );\n                \n            if (vaultAccount.fCash < 0) {\n                // It's possible that the user redeems more vault shares than they lend (it is not always the case that they\n                // will be increasing their collateral ratio here, so we check that this is the case).\n                vaultConfig.checkCollateralRatio(vaultState, vaultAccount.vaultShares, vaultAccount.fCash);\n            }\n\n            vaultState.setVaultState(vaultConfig.vault);\n        }\n\n        // Transfers any net deposit or withdraw from the account\n        vaultAccount.transferTempCashBalance(vaultConfig, useUnderlying);\n\n        if (vaultAccount.fCash == 0 && vaultAccount.vaultShares == 0) {\n            // If the account has no position in the vault at this point, set the maturity to zero as well\n            vaultAccount.maturity = 0;\n        }\n        vaultAccount.setVaultAccount(vaultConfig);\n    }\n\n    /**\n     * @notice If an account is below the minimum collateral ratio, this method wil deleverage (liquidate)\n     * that account. `depositAmountExternal` in the borrow currency will be transferred from the liquidator\n     * and used to offset the account's debt position. The liquidator will receive either vaultShares or\n     * cash depending on the vault's configuration.\n     * @param account the address that will exit the vault\n     * @param vault the vault to enter\n     * @param liquidator the address that will receive profits from liquidation\n     * @param depositAmountExternal amount of asset cash to deposit\n     * @param redeemData calldata sent to the vault when redeeming liquidator profits\n     * @return profitFromLiquidation amount of vaultShares or cash received from liquidation\n     */\n    function deleverageAccount(\n        address account,\n        address vault,\n        address liquidator,\n        uint256 depositAmountExternal,\n        bytes calldata redeemData\n    ) external nonReentrant override returns (uint256 profitFromLiquidation) {\n        VaultConfig memory vaultConfig = VaultConfiguration.getVaultConfigStateful(vault);\n        // If the vault allows further re-entrancy then set the status back to the default\n        if (vaultConfig.getFlag(VaultConfiguration.ALLOW_REENTRANCY)) {\n            reentrancyStatus = _NOT_ENTERED;\n        }\n\n        // Authorization rules for deleveraging\n        if (vaultConfig.getFlag(VaultConfiguration.ONLY_VAULT_DELEVERAGE)) {\n            require(msg.sender == vault, \"Unauthorized\");\n        }\n        // Cannot liquidate self, if a vault needs to deleverage itself as a whole it has other methods \n        // in VaultAction to do so.\n        require(account != msg.sender && account != liquidator, \"Unauthorized\");\n\n        VaultAccount memory vaultAccount = VaultAccountLib.getVaultAccount(account, vaultConfig);\n        VaultState memory vaultState = VaultStateLib.getVaultState(vault, vaultAccount.maturity);\n\n        // Check that the account has an active position. After maturity, accounts will be settled instead.\n        require(block.timestamp < vaultAccount.maturity);\n\n        // Check that the collateral ratio is below the minimum allowed\n        (int256 collateralRatio, int256 vaultShareValue) = vaultConfig.calculateCollateralRatio(\n            vaultState, vaultAccount.vaultShares, vaultAccount.fCash\n        );\n        require(collateralRatio < vaultConfig.minCollateralRatio , \"Sufficient Collateral\");\n\n        Token memory assetToken = TokenHandler.getAssetToken(vaultConfig.borrowCurrencyId);\n        depositAmountExternal =_calculateLiquidatorDeposit(\n            assetToken, vaultAccount, vaultConfig, depositAmountExternal, vaultShareValue\n        );\n\n        // Vault account will receive some deposit from the liquidator, the liquidator will be able to purchase their\n        // vault shares at a discount to the deposited amount\n        vaultAccount.depositIntoAccount(liquidator, vaultConfig.borrowCurrencyId, depositAmountExternal, false);\n\n        // The liquidator will purchase vault shares from the vault account at discount. The calculation is:\n        // (cashDeposited / assetCashValueOfShares) * liquidationRate * vaultShares\n        //      where cashDeposited / assetCashValueOfShares represents the share of the total vault share\n        //      value the liquidator has deposited\n        //      and liquidationRate is a percentage greater than 100% that represents their bonus\n        uint256 vaultSharesToLiquidator;\n        {\n            vaultSharesToLiquidator = SafeInt256.toUint(vaultAccount.tempCashBalance)\n                .mul(vaultConfig.liquidationRate.toUint())\n                .mul(vaultAccount.vaultShares)\n                .div(vaultShareValue.toUint())\n                .div(uint256(Constants.RATE_PRECISION));\n        }\n\n        vaultAccount.vaultShares = vaultAccount.vaultShares.sub(vaultSharesToLiquidator);\n        // The liquidated account will lend to exit their position at a zero interest rate and forgo any future interest\n        // from asset tokens. Trading on the AMM during liquidation is risky and lending at a zero interest rate is more\n        // costly to the the liquidated account but is safer from a protocol perspective. This can be seen as a protocol\n        // level liquidation fee.\n        vaultAccount.fCash = vaultAccount.fCash.add(vaultConfig.assetRate.convertToUnderlying(vaultAccount.tempCashBalance));\n        // _calculateLiquidatorDeposit should ensure that we only ever lend up to a zero balance, but in the case of any off by\n        // one issues we clear the fCash balance by down to zero.\n        if (vaultAccount.fCash > 0) vaultAccount.fCash = 0;\n        vaultAccount.tempCashBalance = 0;\n\n        // Sets the liquidated account account\n        vaultAccount.setVaultAccount(vaultConfig);\n\n        // Redeems the vault shares for asset cash and transfers it to the designated address\n        // TODO: turn this into an option\n        if (vaultConfig.getFlag(VaultConfiguration.TRANSFER_SHARES_ON_DELEVERAGE)) {\n            vaultState.setVaultState(vaultConfig.vault);\n            return _transferLiquidatorProfits(liquidator, vaultConfig, vaultSharesToLiquidator, vaultAccount.maturity);\n        } else {\n            uint256 totalProfits = _redeemLiquidatorProfits(\n                liquidator, vaultConfig, vaultState, vaultSharesToLiquidator, redeemData\n            );\n            \n            // Returns a negative amount to signify assets have left the protocol\n            int256 actualTransferExternal = assetToken.transfer(\n                liquidator, vaultConfig.borrowCurrencyId, totalProfits.toInt().neg()\n            );\n\n            return actualTransferExternal.neg().toUint();\n        }\n    }\n\n    function _calculateLiquidatorDeposit(\n        Token memory assetToken,\n        VaultAccount memory vaultAccount,\n        VaultConfig memory vaultConfig,\n        uint256 depositAmountExternal,\n        int256 vaultShareValue\n    ) private view returns (uint256) {\n        // Calculates the maximum deleverage amount\n        (int256 maxLiquidatorDepositAssetCash, bool mustLiquidateFull) = vaultAccount.calculateDeleverageAmount(\n            vaultConfig, vaultShareValue\n        );\n\n        uint256 maxLiquidatorDepositExternal = assetToken.convertAssetInternalToNativeExternal(\n            vaultConfig.borrowCurrencyId,\n            maxLiquidatorDepositAssetCash\n        ).toUint();\n\n        if (depositAmountExternal < maxLiquidatorDepositExternal) {\n            // If this flag is set, the liquidator must deposit more cash to liquidate the account down to a zero\n            // fCash balance\n            require(!mustLiquidateFull, \"Must Liquidate All Debt\");\n            return depositAmountExternal;\n        } else {\n            return maxLiquidatorDepositExternal;\n        }\n    }\n\n    function _transferLiquidatorProfits(\n        address receiver,\n        VaultConfig memory vaultConfig,\n        uint256 vaultSharesToLiquidator,\n        uint256 maturity\n    ) private returns (uint256) {\n        // Liquidator will receive vault shares that they can redeem by calling exitVault. If the liquidator has a\n        // leveraged position on then their collateral ratio will increase\n        VaultAccount memory liquidator = VaultAccountLib.getVaultAccount(receiver, vaultConfig);\n        // The liquidator must be able to receive the vault shares (i.e. not be in the vault at all or be in the\n        // vault at the same maturity). If the liquidator has fCash in the current maturity then their collateral\n        // ratio will increase as a result of the liquidation, no need to check their collateral position.\n        require(liquidator.maturity == 0 || liquidator.maturity == maturity, \"Vault Shares Mismatch\"); // dev: has vault shares\n        liquidator.maturity = maturity;\n        liquidator.vaultShares = liquidator.vaultShares.add(vaultSharesToLiquidator);\n        liquidator.setVaultAccount(vaultConfig);\n\n        return vaultSharesToLiquidator;\n    }\n\n    function _redeemLiquidatorProfits(\n        address receiver,\n        VaultConfig memory vaultConfig,\n        VaultState memory vaultState,\n        uint256 vaultSharesToLiquidator,\n        bytes calldata redeemData\n    ) private returns (uint256) {\n        (uint256 totalProfits, uint256 strategyTokensWithdrawn) = vaultState.exitMaturityPoolDirect(vaultSharesToLiquidator);\n        // Redeem returns an int, but we ensure that it is positive here\n        totalProfits = totalProfits.add(vaultConfig.redeem(\n            receiver, strategyTokensWithdrawn, vaultState.maturity, redeemData\n        ).toUint());\n\n        vaultState.setVaultState(vaultConfig.vault);\n        return totalProfits;\n    }\n\n    /** View Methods **/\n    function getVaultAccount(address account, address vault) external override view returns (VaultAccount memory) {\n        return VaultAccountLib.getVaultAccount(account, VaultConfiguration.getVaultConfigNoAssetRate(vault));\n    }\n\n    function getVaultAccountMaturity(address account, address vault) external override view returns (uint256) {\n        return VaultAccountLib.getVaultAccount(account, VaultConfiguration.getVaultConfigNoAssetRate(vault)).maturity;\n    }\n\n    function getVaultAccountCollateralRatio(address account, address vault) external override view returns (\n        int256 collateralRatio,\n        int256 minCollateralRatio\n    ) {\n        VaultConfig memory vaultConfig = VaultConfiguration.getVaultConfigView(vault);\n        VaultAccount memory vaultAccount = VaultAccountLib.getVaultAccount(account, vaultConfig);\n        VaultState memory vaultState = VaultStateLib.getVaultState(vault, vaultAccount.maturity);\n        minCollateralRatio = vaultConfig.minCollateralRatio;\n\n        if (vaultState.isSettled) {\n            // In this case, the maturity has been settled and although the vault account says that it has\n            // some fCash balance it does not actually owe any debt anymore.\n            collateralRatio = type(int256).max;\n        } else {\n            (collateralRatio, /* */) = vaultConfig.calculateCollateralRatio(\n                vaultState, vaultAccount.vaultShares, vaultAccount.fCash\n            );\n        }\n    }\n\n    function getLibInfo() external pure returns (address) {\n        return address(TradingAction);\n    }\n}\n",
  "sourcePath": "contracts/external/actions/VaultAccountAction.sol",
  "type": "contract"
}