{
  "abi": [
    {
      "inputs": [
        {
          "internalType": "contract ERC20",
          "name": "_liquidityToken",
          "type": "address"
        },
        {
          "internalType": "contract IVeToken",
          "name": "_veBal",
          "type": "address"
        },
        {
          "internalType": "contract IFeeDistributor",
          "name": "_feeDistributor",
          "type": "address"
        },
        {
          "internalType": "contract IBalancerMinter",
          "name": "_balancerMinter",
          "type": "address"
        },
        {
          "internalType": "address",
          "name": "_gaugeController",
          "type": "address"
        },
        {
          "internalType": "contract IStakedNote",
          "name": "_sNOTE",
          "type": "address"
        },
        {
          "internalType": "contract IDelegateRegistry",
          "name": "_delegateRegistry",
          "type": "address"
        },
        {
          "internalType": "bytes32",
          "name": "_spaceId",
          "type": "bytes32"
        },
        {
          "internalType": "address",
          "name": "_initialDelegate",
          "type": "address"
        }
      ],
      "stateMutability": "nonpayable",
      "type": "constructor"
    },
    {
      "anonymous": false,
      "inputs": [
        {
          "indexed": false,
          "internalType": "uint256",
          "name": "amount",
          "type": "uint256"
        }
      ],
      "name": "BALTokenClaimed",
      "type": "event"
    },
    {
      "anonymous": false,
      "inputs": [
        {
          "indexed": true,
          "internalType": "address",
          "name": "oldRegistry",
          "type": "address"
        },
        {
          "indexed": true,
          "internalType": "address",
          "name": "newRegistry",
          "type": "address"
        }
      ],
      "name": "DelegateRegistryUpdated",
      "type": "event"
    },
    {
      "anonymous": false,
      "inputs": [
        {
          "indexed": true,
          "internalType": "address",
          "name": "oldDelegate",
          "type": "address"
        },
        {
          "indexed": true,
          "internalType": "address",
          "name": "newDelegate",
          "type": "address"
        }
      ],
      "name": "DelegateUpdate",
      "type": "event"
    },
    {
      "anonymous": false,
      "inputs": [
        {
          "indexed": false,
          "internalType": "address",
          "name": "newFeeDistributor",
          "type": "address"
        }
      ],
      "name": "FeeDistributorUpdated",
      "type": "event"
    },
    {
      "anonymous": false,
      "inputs": [
        {
          "indexed": false,
          "internalType": "contract IERC20[]",
          "name": "tokens",
          "type": "address[]"
        },
        {
          "indexed": false,
          "internalType": "uint256[]",
          "name": "amounts",
          "type": "uint256[]"
        }
      ],
      "name": "FeeTokensClaimed",
      "type": "event"
    },
    {
      "anonymous": false,
      "inputs": [
        {
          "indexed": true,
          "internalType": "address",
          "name": "oldController",
          "type": "address"
        },
        {
          "indexed": true,
          "internalType": "address",
          "name": "newController",
          "type": "address"
        }
      ],
      "name": "GaugeControllerChanged",
      "type": "event"
    },
    {
      "anonymous": false,
      "inputs": [
        {
          "indexed": false,
          "internalType": "address[]",
          "name": "tokens",
          "type": "address[]"
        },
        {
          "indexed": false,
          "internalType": "uint256[]",
          "name": "amounts",
          "type": "uint256[]"
        }
      ],
      "name": "GaugeTokensClaimed",
      "type": "event"
    },
    {
      "anonymous": false,
      "inputs": [
        {
          "indexed": true,
          "internalType": "address",
          "name": "gauge",
          "type": "address"
        },
        {
          "indexed": false,
          "internalType": "uint256",
          "name": "amount",
          "type": "uint256"
        }
      ],
      "name": "GaugeVote",
      "type": "event"
    },
    {
      "anonymous": false,
      "inputs": [
        {
          "indexed": false,
          "internalType": "address",
          "name": "newLiquidityToken",
          "type": "address"
        }
      ],
      "name": "LiquidityTokenUpdated",
      "type": "event"
    },
    {
      "anonymous": false,
      "inputs": [
        {
          "indexed": false,
          "internalType": "uint256",
          "name": "cummulativeTokensLocked",
          "type": "uint256"
        },
        {
          "indexed": false,
          "internalType": "uint256",
          "name": "lockHorizon",
          "type": "uint256"
        }
      ],
      "name": "Lock",
      "type": "event"
    },
    {
      "anonymous": false,
      "inputs": [
        {
          "indexed": false,
          "internalType": "uint256",
          "name": "newLockDuration",
          "type": "uint256"
        }
      ],
      "name": "LockDurationUpdated",
      "type": "event"
    },
    {
      "anonymous": false,
      "inputs": [
        {
          "indexed": true,
          "internalType": "address",
          "name": "oldController",
          "type": "address"
        },
        {
          "indexed": true,
          "internalType": "address",
          "name": "newController",
          "type": "address"
        }
      ],
      "name": "ManagerContractChanged",
      "type": "event"
    },
    {
      "anonymous": false,
      "inputs": [
        {
          "indexed": true,
          "internalType": "address",
          "name": "previousOwner",
          "type": "address"
        },
        {
          "indexed": true,
          "internalType": "address",
          "name": "newOwner",
          "type": "address"
        }
      ],
      "name": "OwnershipTransferred",
      "type": "event"
    },
    {
      "anonymous": false,
      "inputs": [
        {
          "indexed": true,
          "internalType": "contract IMetagovGovernor",
          "name": "governor",
          "type": "address"
        },
        {
          "indexed": false,
          "internalType": "uint256",
          "name": "proposalId",
          "type": "uint256"
        }
      ],
      "name": "Proposed",
      "type": "event"
    },
    {
      "anonymous": false,
      "inputs": [
        {
          "indexed": false,
          "internalType": "address",
          "name": "token",
          "type": "address"
        },
        {
          "indexed": false,
          "internalType": "address",
          "name": "from",
          "type": "address"
        },
        {
          "indexed": false,
          "internalType": "uint256",
          "name": "amount",
          "type": "uint256"
        }
      ],
      "name": "TokenDeposit",
      "type": "event"
    },
    {
      "anonymous": false,
      "inputs": [
        {
          "indexed": false,
          "internalType": "address",
          "name": "token",
          "type": "address"
        },
        {
          "indexed": false,
          "internalType": "address",
          "name": "to",
          "type": "address"
        },
        {
          "indexed": false,
          "internalType": "uint256",
          "name": "amount",
          "type": "uint256"
        }
      ],
      "name": "TokenWithdrawal",
      "type": "event"
    },
    {
      "anonymous": false,
      "inputs": [
        {
          "indexed": false,
          "internalType": "uint256",
          "name": "tokensUnlocked",
          "type": "uint256"
        }
      ],
      "name": "Unlock",
      "type": "event"
    },
    {
      "anonymous": false,
      "inputs": [
        {
          "indexed": false,
          "internalType": "address",
          "name": "newVeToken",
          "type": "address"
        }
      ],
      "name": "VeTokenUpdated",
      "type": "event"
    },
    {
      "anonymous": false,
      "inputs": [
        {
          "indexed": true,
          "internalType": "contract IMetagovGovernor",
          "name": "governor",
          "type": "address"
        },
        {
          "indexed": false,
          "internalType": "uint256",
          "name": "proposalId",
          "type": "uint256"
        },
        {
          "indexed": false,
          "internalType": "uint256",
          "name": "weight",
          "type": "uint256"
        },
        {
          "indexed": false,
          "internalType": "uint8",
          "name": "support",
          "type": "uint8"
        }
      ],
      "name": "Voted",
      "type": "event"
    },
    {
      "inputs": [],
      "name": "BALANCER_MINTER",
      "outputs": [
        {
          "internalType": "contract IBalancerMinter",
          "name": "",
          "type": "address"
        }
      ],
      "stateMutability": "view",
      "type": "function"
    },
    {
      "inputs": [],
      "name": "BAL_TOKEN",
      "outputs": [
        {
          "internalType": "contract IERC20",
          "name": "",
          "type": "address"
        }
      ],
      "stateMutability": "view",
      "type": "function"
    },
    {
      "inputs": [
        {
          "internalType": "contract IMetagovGovernor",
          "name": "governor",
          "type": "address"
        },
        {
          "internalType": "uint256",
          "name": "proposalId",
          "type": "uint256"
        },
        {
          "internalType": "uint8",
          "name": "support",
          "type": "uint8"
        }
      ],
      "name": "castVote",
      "outputs": [
        {
          "internalType": "uint256",
          "name": "",
          "type": "uint256"
        }
      ],
      "stateMutability": "nonpayable",
      "type": "function"
    },
    {
      "inputs": [
        {
          "internalType": "address",
          "name": "liquidityGauge",
          "type": "address"
        }
      ],
      "name": "checkpointGauge",
      "outputs": [],
      "stateMutability": "nonpayable",
      "type": "function"
    },
    {
      "inputs": [
        {
          "internalType": "address",
          "name": "liquidityGauge",
          "type": "address"
        },
        {
          "internalType": "address",
          "name": "to",
          "type": "address"
        }
      ],
      "name": "claimBAL",
      "outputs": [
        {
          "internalType": "uint256",
          "name": "claimAmount",
          "type": "uint256"
        }
      ],
      "stateMutability": "nonpayable",
      "type": "function"
    },
    {
      "inputs": [
        {
          "internalType": "contract IERC20[]",
          "name": "tokens",
          "type": "address[]"
        }
      ],
      "name": "claimFeeTokens",
      "outputs": [
        {
          "internalType": "uint256[]",
          "name": "balancesTransferred",
          "type": "uint256[]"
        }
      ],
      "stateMutability": "nonpayable",
      "type": "function"
    },
    {
      "inputs": [
        {
          "internalType": "address",
          "name": "liquidityGauge",
          "type": "address"
        },
        {
          "internalType": "address",
          "name": "to",
          "type": "address"
        }
      ],
      "name": "claimGaugeTokens",
      "outputs": [
        {
          "internalType": "address[]",
          "name": "tokens",
          "type": "address[]"
        },
        {
          "internalType": "uint256[]",
          "name": "balancesTransferred",
          "type": "uint256[]"
        }
      ],
      "stateMutability": "nonpayable",
      "type": "function"
    },
    {
      "inputs": [],
      "name": "claimOwnership",
      "outputs": [],
      "stateMutability": "nonpayable",
      "type": "function"
    },
    {
      "inputs": [],
      "name": "clearDelegate",
      "outputs": [],
      "stateMutability": "nonpayable",
      "type": "function"
    },
    {
      "inputs": [],
      "name": "delegate",
      "outputs": [
        {
          "internalType": "address",
          "name": "",
          "type": "address"
        }
      ],
      "stateMutability": "view",
      "type": "function"
    },
    {
      "inputs": [],
      "name": "delegateRegistry",
      "outputs": [
        {
          "internalType": "contract IDelegateRegistry",
          "name": "",
          "type": "address"
        }
      ],
      "stateMutability": "view",
      "type": "function"
    },
    {
      "inputs": [
        {
          "internalType": "address",
          "name": "token",
          "type": "address"
        },
        {
          "internalType": "address",
          "name": "from",
          "type": "address"
        },
        {
          "internalType": "uint256",
          "name": "amount",
          "type": "uint256"
        }
      ],
      "name": "depositToken",
      "outputs": [],
      "stateMutability": "nonpayable",
      "type": "function"
    },
    {
      "inputs": [],
      "name": "exitLock",
      "outputs": [],
      "stateMutability": "nonpayable",
      "type": "function"
    },
    {
      "inputs": [],
      "name": "feeDistributor",
      "outputs": [
        {
          "internalType": "contract IFeeDistributor",
          "name": "",
          "type": "address"
        }
      ],
      "stateMutability": "view",
      "type": "function"
    },
    {
      "inputs": [],
      "name": "gaugeController",
      "outputs": [
        {
          "internalType": "address",
          "name": "",
          "type": "address"
        }
      ],
      "stateMutability": "view",
      "type": "function"
    },
    {
      "inputs": [
        {
          "internalType": "address",
          "name": "liquidityGauge",
          "type": "address"
        }
      ],
      "name": "getGaugeRewardTokens",
      "outputs": [
        {
          "internalType": "address[]",
          "name": "tokens",
          "type": "address[]"
        }
      ],
      "stateMutability": "view",
      "type": "function"
    },
    {
      "inputs": [
        {
          "internalType": "address",
          "name": "token",
          "type": "address"
        },
        {
          "internalType": "address",
          "name": "from",
          "type": "address"
        }
      ],
      "name": "getTokenBalance",
      "outputs": [
        {
          "internalType": "uint256",
          "name": "",
          "type": "uint256"
        }
      ],
      "stateMutability": "view",
      "type": "function"
    },
    {
      "inputs": [],
      "name": "liquidityToken",
      "outputs": [
        {
          "internalType": "contract IERC20",
          "name": "",
          "type": "address"
        }
      ],
      "stateMutability": "view",
      "type": "function"
    },
    {
      "inputs": [],
      "name": "lock",
      "outputs": [],
      "stateMutability": "nonpayable",
      "type": "function"
    },
    {
      "inputs": [],
      "name": "lockDuration",
      "outputs": [
        {
          "internalType": "uint256",
          "name": "",
          "type": "uint256"
        }
      ],
      "stateMutability": "view",
      "type": "function"
    },
    {
      "inputs": [],
      "name": "managerContract",
      "outputs": [
        {
          "internalType": "address",
          "name": "",
          "type": "address"
        }
      ],
      "stateMutability": "view",
      "type": "function"
    },
    {
      "inputs": [],
      "name": "owner",
      "outputs": [
        {
          "internalType": "address",
          "name": "",
          "type": "address"
        }
      ],
      "stateMutability": "view",
      "type": "function"
    },
    {
      "inputs": [],
      "name": "pendingOwner",
      "outputs": [
        {
          "internalType": "address",
          "name": "",
          "type": "address"
        }
      ],
      "stateMutability": "view",
      "type": "function"
    },
    {
      "inputs": [
        {
          "internalType": "contract IMetagovGovernor",
          "name": "governor",
          "type": "address"
        },
        {
          "internalType": "address[]",
          "name": "targets",
          "type": "address[]"
        },
        {
          "internalType": "uint256[]",
          "name": "values",
          "type": "uint256[]"
        },
        {
          "internalType": "string[]",
          "name": "signatures",
          "type": "string[]"
        },
        {
          "internalType": "bytes[]",
          "name": "calldatas",
          "type": "bytes[]"
        },
        {
          "internalType": "string",
          "name": "description",
          "type": "string"
        }
      ],
      "name": "proposeBravo",
      "outputs": [
        {
          "internalType": "uint256",
          "name": "",
          "type": "uint256"
        }
      ],
      "stateMutability": "nonpayable",
      "type": "function"
    },
    {
      "inputs": [
        {
          "internalType": "contract IMetagovGovernor",
          "name": "governor",
          "type": "address"
        },
        {
          "internalType": "address[]",
          "name": "targets",
          "type": "address[]"
        },
        {
          "internalType": "uint256[]",
          "name": "values",
          "type": "uint256[]"
        },
        {
          "internalType": "bytes[]",
          "name": "calldatas",
          "type": "bytes[]"
        },
        {
          "internalType": "string",
          "name": "description",
          "type": "string"
        }
      ],
      "name": "proposeOZ",
      "outputs": [
        {
          "internalType": "uint256",
          "name": "",
          "type": "uint256"
        }
      ],
      "stateMutability": "nonpayable",
      "type": "function"
    },
    {
      "inputs": [],
      "name": "sNOTE",
      "outputs": [
        {
          "internalType": "contract IStakedNote",
          "name": "",
          "type": "address"
        }
      ],
      "stateMutability": "view",
      "type": "function"
    },
    {
      "inputs": [
        {
          "internalType": "address",
          "name": "newDelegate",
          "type": "address"
        }
      ],
      "name": "setDelegate",
      "outputs": [],
      "stateMutability": "nonpayable",
      "type": "function"
    },
    {
      "inputs": [
        {
          "internalType": "address",
          "name": "newRegistry",
          "type": "address"
        }
      ],
      "name": "setDelegateRegistry",
      "outputs": [],
      "stateMutability": "nonpayable",
      "type": "function"
    },
    {
      "inputs": [
        {
          "internalType": "address",
          "name": "newFeeDistributor",
          "type": "address"
        }
      ],
      "name": "setFeeDistributor",
      "outputs": [],
      "stateMutability": "nonpayable",
      "type": "function"
    },
    {
      "inputs": [
        {
          "internalType": "address",
          "name": "_gaugeController",
          "type": "address"
        }
      ],
      "name": "setGaugeController",
      "outputs": [],
      "stateMutability": "nonpayable",
      "type": "function"
    },
    {
      "inputs": [
        {
          "internalType": "address",
          "name": "newLiquidityToken",
          "type": "address"
        }
      ],
      "name": "setLiquidityToken",
      "outputs": [],
      "stateMutability": "nonpayable",
      "type": "function"
    },
    {
      "inputs": [
        {
          "internalType": "uint256",
          "name": "newLockDuration",
          "type": "uint256"
        }
      ],
      "name": "setLockDuration",
      "outputs": [],
      "stateMutability": "nonpayable",
      "type": "function"
    },
    {
      "inputs": [
        {
          "internalType": "address",
          "name": "_managerContract",
          "type": "address"
        }
      ],
      "name": "setManagerContract",
      "outputs": [],
      "stateMutability": "nonpayable",
      "type": "function"
    },
    {
      "inputs": [
        {
          "internalType": "bytes32",
          "name": "_spaceId",
          "type": "bytes32"
        }
      ],
      "name": "setSpaceId",
      "outputs": [],
      "stateMutability": "nonpayable",
      "type": "function"
    },
    {
      "inputs": [
        {
          "internalType": "address",
          "name": "newVeToken",
          "type": "address"
        }
      ],
      "name": "setVeToken",
      "outputs": [],
      "stateMutability": "nonpayable",
      "type": "function"
    },
    {
      "inputs": [],
      "name": "spaceId",
      "outputs": [
        {
          "internalType": "bytes32",
          "name": "",
          "type": "bytes32"
        }
      ],
      "stateMutability": "view",
      "type": "function"
    },
    {
      "inputs": [],
      "name": "totalTokensManaged",
      "outputs": [
        {
          "internalType": "uint256",
          "name": "",
          "type": "uint256"
        }
      ],
      "stateMutability": "view",
      "type": "function"
    },
    {
      "inputs": [
        {
          "internalType": "address",
          "name": "newOwner",
          "type": "address"
        },
        {
          "internalType": "bool",
          "name": "direct",
          "type": "bool"
        },
        {
          "internalType": "bool",
          "name": "renounce",
          "type": "bool"
        }
      ],
      "name": "transferOwnership",
      "outputs": [],
      "stateMutability": "nonpayable",
      "type": "function"
    },
    {
      "inputs": [],
      "name": "veToken",
      "outputs": [
        {
          "internalType": "contract IVeToken",
          "name": "",
          "type": "address"
        }
      ],
      "stateMutability": "view",
      "type": "function"
    },
    {
      "inputs": [
        {
          "internalType": "address",
          "name": "liquidityGauge",
          "type": "address"
        },
        {
          "internalType": "uint256",
          "name": "weight",
          "type": "uint256"
        }
      ],
      "name": "voteForGaugeWeight",
      "outputs": [],
      "stateMutability": "nonpayable",
      "type": "function"
    },
    {
      "inputs": [
        {
          "internalType": "address",
          "name": "token",
          "type": "address"
        },
        {
          "internalType": "address",
          "name": "to",
          "type": "address"
        },
        {
          "internalType": "uint256",
          "name": "amount",
          "type": "uint256"
        }
      ],
      "name": "withdrawToken",
      "outputs": [],
      "stateMutability": "nonpayable",
      "type": "function"
    }
  ],
  "bytecode": "60e06040523480156200001157600080fd5b50604051620039ea380380620039ea83398101604081905262000034916200026f565b600354600280546001600160a01b0319166001600160a01b0386161790558690889087908c908c9089906301e13380908a9089620000728162000195565b5050600780546001600160a01b03199081166001600160a01b0397881617909155600680549091169486169490941790935590831660805260055550831660a08190526040805163c003969960e01b8152905163c00396999160048082019260209290919082900301816000875af1158015620000f3573d6000803e3d6000fd5b505050506040513d601f19601f820116820180604052508101906200011991906200033a565b6001600160a01b0390811660c052600980549382166001600160a01b03199485161790556008805492909116918316919091179055600080549091163390811782556040519092507f8be0079c531659141344cd1fd0a4f28419497f9722a3daafe3b4186f6b6457e0908290a350505050505050505062000361565b600480546002546003546040516317b0dca160e31b8152938401526001600160a01b0384811660248501529182169291169063bd86e50890604401600060405180830381600087803b158015620001eb57600080fd5b505af115801562000200573d6000803e3d6000fd5b5050600480546001600160a01b0319166001600160a01b0386811691821790925560405190935090841691507f4f7ba549b7c7c8abab2c58f33f2694510f36c3ca55a80c780df35835a4431cdb90600090a35050565b6001600160a01b03811681146200026c57600080fd5b50565b60008060008060008060008060006101208a8c0312156200028f57600080fd5b89516200029c8162000256565b60208b0151909950620002af8162000256565b60408b0151909850620002c28162000256565b60608b0151909750620002d58162000256565b60808b0151909650620002e88162000256565b60a08b0151909550620002fb8162000256565b60c08b01519094506200030e8162000256565b60e08b01516101008c01519194509250620003298162000256565b809150509295985092959850929598565b6000602082840312156200034d57600080fd5b81516200035a8162000256565b9392505050565b60805160a05160c05161363d620003ad600039600081816103370152818161108801528181611192015261122101526000818161044c015261111d015260006103a5015261363d6000f3fe608060405234801561001057600080fd5b50600436106102525760003560e01c80636bf2ffa111610146578063c5a9ff91116100c3578063e30c397811610087578063e30c397814610573578063f6d12d4f14610586578063f83d08ba1461058e578063fb0f97a814610596578063fee778f9146105a9578063ffef1b76146105bc57600080fd5b8063c5a9ff9114610507578063c89e43611461051a578063ca5eb5e11461052d578063ccfc2e8d14610540578063de7a16731461055357600080fd5b80638da5cb5b1161010a5780638da5cb5b1461048157806399eecb3b146104945780639d2ae781146104a7578063c0ab2cc6146104ba578063c489744b146104cd57600080fd5b80636bf2ffa1146104235780636ea447ba1461042c5780636f3a36521461043457806386a12631146104475780638aca6a231461046e57600080fd5b8063360cb4ef116101d4578063496da0b011610198578063496da0b0146103da5780634e71e0c8146103ed5780634eb665af146103f557806357895ca214610408578063653203451461041b57600080fd5b8063360cb4ef1461035957806339d36a3c1461037a5780633b92eb231461038d57806340c86a23146103a057806343cd8f7e146103c757600080fd5b806313bfffac1161021b57806313bfffac146102d95780631c31cac3146102ec578063267b5852146102ff5780632710ac801461031f5780632abc2a991461033257600080fd5b806291d2b81461025757806301e336671461026c578063045544431461027f578063078dfbe71461029b5780630d43e8ad146102ae575b600080fd5b61026a610265366004612b07565b6105cf565b005b61026a61027a366004612b24565b6106aa565b61028860055481565b6040519081526020015b60405180910390f35b61026a6102a9366004612b73565b6107da565b6009546102c1906001600160a01b031681565b6040516001600160a01b039091168152602001610292565b6002546102c1906001600160a01b031681565b61026a6102fa366004612b07565b6108e8565b61031261030d366004612b07565b610964565b6040516102929190612c02565b600b546102c1906001600160a01b031681565b6102c17f000000000000000000000000000000000000000000000000000000000000000081565b61036c610367366004612c15565b610ac7565b604051610292929190612c7e565b610288610388366004612eff565b610f51565b6006546102c1906001600160a01b031681565b6102c17f000000000000000000000000000000000000000000000000000000000000000081565b6007546102c1906001600160a01b031681565b6102886103e8366004612c15565b611043565b61026a611283565b61026a610403366004612fbe565b611340565b61026a610416366004612b07565b6113a6565b61028861146f565b61028860035481565b61026a611557565b61026a610442366004612b07565b61161f565b6102c17f000000000000000000000000000000000000000000000000000000000000000081565b61026a61047c366004612b07565b6116e4565b6000546102c1906001600160a01b031681565b6008546102c1906001600160a01b031681565b6102886104b5366004613056565b611789565b6102886104c8366004613136565b61187e565b6102886104db366004612c15565b6001600160a01b038082166000908152600a602090815260408083209386168352929052205492915050565b61026a610515366004613173565b61197a565b6004546102c1906001600160a01b031681565b61026a61053b366004612b07565b611a51565b61026a61054e366004612b07565b611a84565b61056661056136600461319f565b611b50565b6040516102929190613213565b6001546102c1906001600160a01b031681565b61026a611e6c565b61026a611f9f565b61026a6105a4366004612b24565b612410565b61026a6105b7366004612b07565b6125c7565b61026a6105ca366004612fbe565b612694565b6000546001600160a01b031633146106025760405162461bcd60e51b81526004016105f990613226565b60405180910390fd5b6008546001600160a01b03828116911614156106585760405162461bcd60e51b815260206004820152601560248201527429b0b6b29033b0bab3b29031b7b73a3937b63632b960591b60448201526064016105f9565b600880546001600160a01b038381166001600160a01b0319831681179093556040519116919082907fb9ef0e7900247e9ef69dcd8f950ee5e0f12886c1fdec67fc43561734d31f2ab290600090a35050565b600b546001600160a01b031633146106d45760405162461bcd60e51b81526004016105f99061325b565b60001981141561070657506001600160a01b038082166000908152600a60209081526040808320938616835292905220545b6001600160a01b038083166000908152600a602090815260408083209387168352929052205481111561073857600080fd5b6001600160a01b038083166000908152600a602090815260408083209387168352929052908120805483929061076f9084906132a8565b9091555061078990506001600160a01b038416838361273f565b604080516001600160a01b038086168252841660208201529081018290527f42856d0378dde02337bb59ae41747abc77ded8ebdbbc5cbdd1e53693b7554938906060015b60405180910390a1505050565b6000546001600160a01b031633146108045760405162461bcd60e51b81526004016105f990613226565b81156108c7576001600160a01b03831615158061081e5750805b6108625760405162461bcd60e51b81526020600482015260156024820152744f776e61626c653a207a65726f206164647265737360581b60448201526064016105f9565b600080546040516001600160a01b03808716939216917f8be0079c531659141344cd1fd0a4f28419497f9722a3daafe3b4186f6b6457e091a3600080546001600160a01b0385166001600160a01b031991821617909155600180549091169055505050565b600180546001600160a01b0319166001600160a01b0385161790555b505050565b6000546001600160a01b031633146109125760405162461bcd60e51b81526004016105f990613226565b600280546001600160a01b038381166001600160a01b0319831681179093556040519116919082907f663b68b5af2a0e03896087ed63be09d5fad83e3e22116394236b5bc7a78370de90600090a35050565b60606000826001600160a01b031663963c94b96040518163ffffffff1660e01b8152600401602060405180830381865afa1580156109a6573d6000803e3d6000fd5b505050506040513d601f19601f820116820180604052508101906109ca91906132bf565b9050806001600160401b038111156109e4576109e4612cbc565b604051908082528060200260200182016040528015610a0d578160200160208202803683370190505b50915060005b81811015610ac0576040516354c49fe960e01b8152600481018290526001600160a01b038516906354c49fe990602401602060405180830381865afa158015610a60573d6000803e3d6000fd5b505050506040513d601f19601f82011682018060405250810190610a8491906132d8565b838281518110610a9657610a966132f5565b6001600160a01b039092166020928302919091019091015280610ab88161330b565b915050610a13565b5050919050565b600b5460609081906001600160a01b03163314610af65760405162461bcd60e51b81526004016105f99061325b565b6000846001600160a01b031663963c94b96040518163ffffffff1660e01b8152600401602060405180830381865afa158015610b36573d6000803e3d6000fd5b505050506040513d601f19601f82011682018060405250810190610b5a91906132bf565b9050806001600160401b03811115610b7457610b74612cbc565b604051908082528060200260200182016040528015610b9d578160200160208202803683370190505b5092506000816001600160401b03811115610bba57610bba612cbc565b604051908082528060200260200182016040528015610be3578160200160208202803683370190505b50905060005b82811015610d41576040516354c49fe960e01b8152600481018290526001600160a01b038816906354c49fe990602401602060405180830381865afa158015610c36573d6000803e3d6000fd5b505050506040513d601f19601f82011682018060405250810190610c5a91906132d8565b858281518110610c6c57610c6c6132f5565b60200260200101906001600160a01b031690816001600160a01b031681525050848181518110610c9e57610c9e6132f5565b60209081029190910101516040516370a0823160e01b81523060048201526001600160a01b03909116906370a0823190602401602060405180830381865afa158015610cee573d6000803e3d6000fd5b505050506040513d601f19601f82011682018060405250810190610d1291906132bf565b828281518110610d2457610d246132f5565b602090810291909101015280610d398161330b565b915050610be9565b50856001600160a01b031663e6f1daf26040518163ffffffff1660e01b8152600401600060405180830381600087803b158015610d7d57600080fd5b505af1158015610d91573d6000803e3d6000fd5b50505050816001600160401b03811115610dad57610dad612cbc565b604051908082528060200260200182016040528015610dd6578160200160208202803683370190505b50925060005b82811015610f0e57818181518110610df657610df66132f5565b6020026020010151858281518110610e1057610e106132f5565b60209081029190910101516040516370a0823160e01b81523060048201526001600160a01b03909116906370a0823190602401602060405180830381865afa158015610e60573d6000803e3d6000fd5b505050506040513d601f19601f82011682018060405250810190610e8491906132bf565b610e8e91906132a8565b848281518110610ea057610ea06132f5565b602002602001018181525050610efc86858381518110610ec257610ec26132f5565b6020026020010151878481518110610edc57610edc6132f5565b60200260200101516001600160a01b031661273f9092919063ffffffff16565b80610f068161330b565b915050610ddc565b507f0103f18d14b140cdc75587725b97760015cf5da524676b3769175951295bef978484604051610f40929190612c7e565b60405180910390a150509250929050565b600080546001600160a01b03163314610f7c5760405162461bcd60e51b81526004016105f990613226565b604051633eaf40f160e11b81526000906001600160a01b03881690637d5e81e290610fb19089908990899089906004016133d3565b6020604051808303816000875af1158015610fd0573d6000803e3d6000fd5b505050506040513d601f19601f82011682018060405250810190610ff491906132bf565b9050866001600160a01b03167f047933b4d6d5561046580f25334035991926e1531252edfc5f6faa07bb9de2d28260405161103191815260200190565b60405180910390a29695505050505050565b600b546000906001600160a01b031633146110705760405162461bcd60e51b81526004016105f99061325b565b6040516370a0823160e01b81523060048201526000907f00000000000000000000000000000000000000000000000000000000000000006001600160a01b0316906370a0823190602401602060405180830381865afa1580156110d7573d6000803e3d6000fd5b505050506040513d601f19601f820116820180604052508101906110fb91906132bf565b6040516335313c2160e11b81526001600160a01b0386811660048301529192507f000000000000000000000000000000000000000000000000000000000000000090911690636a62784290602401600060405180830381600087803b15801561116357600080fd5b505af1158015611177573d6000803e3d6000fd5b50506040516370a0823160e01b8152306004820152600092507f00000000000000000000000000000000000000000000000000000000000000006001600160a01b031691506370a0823190602401602060405180830381865afa1580156111e2573d6000803e3d6000fd5b505050506040513d601f19601f8201168201806040525081019061120691906132bf565b905061121282826132a8565b92506112486001600160a01b037f000000000000000000000000000000000000000000000000000000000000000016858561273f565b6040518381527f7e191e2dec92dbb0f5c5db0454ad5381ef8cf019710257827d54f4a987c5c3bf9060200160405180910390a1505092915050565b6001546001600160a01b03163381146112de5760405162461bcd60e51b815260206004820181905260248201527f4f776e61626c653a2063616c6c657220213d2070656e64696e67206f776e657260448201526064016105f9565b600080546040516001600160a01b03808516939216917f8be0079c531659141344cd1fd0a4f28419497f9722a3daafe3b4186f6b6457e091a3600080546001600160a01b039092166001600160a01b0319928316179055600180549091169055565b6000546001600160a01b0316331461136a5760405162461bcd60e51b81526004016105f990613226565b60058190556040518181527f3e062f634a950eae456fa5f8fb53a4f59f55039983bd73df7a34a313b75443d4906020015b60405180910390a150565b6000546001600160a01b031633146113d05760405162461bcd60e51b81526004016105f990613226565b600b546001600160a01b038281169116141561141d5760405162461bcd60e51b815260206004820152600c60248201526b29b0b6b29036b0b730b3b2b960a11b60448201526064016105f9565b600b80546001600160a01b038381166001600160a01b0319831681179093556040519116919082907fa257970ee8f80640393e43cf0c62f811b0939a842d7188cd26af679a8c86e1de90600090a35050565b60065460405163cbf9fe5f60e01b81523060048201526000916001600160a01b03169063cbf9fe5f90602401602060405180830381865afa1580156114b8573d6000803e3d6000fd5b505050506040513d601f19601f820116820180604052508101906114dc91906132bf565b6007546040516370a0823160e01b81523060048201526001600160a01b03909116906370a0823190602401602060405180830381865afa158015611524573d6000803e3d6000fd5b505050506040513d601f19601f8201168201806040525081019061154891906132bf565b6115529190613420565b905090565b6000546001600160a01b031633146115815760405162461bcd60e51b81526004016105f990613226565b6004805460025460035460405163785f6df160e11b8152938401526001600160a01b039182169291169063f0bedbe290602401600060405180830381600087803b1580156115ce57600080fd5b505af11580156115e2573d6000803e3d6000fd5b5050604051600092506001600160a01b03841691507f4f7ba549b7c7c8abab2c58f33f2694510f36c3ca55a80c780df35835a4431cdb908390a350565b6000546001600160a01b031633146116495760405162461bcd60e51b81526004016105f990613226565b6006546001600160a01b03828116911614156116965760405162461bcd60e51b815260206004820152600c60248201526b29b0b6b2902b32aa37b5b2b760a11b60448201526064016105f9565b600680546001600160a01b0319166001600160a01b0383169081179091556040519081527fa1c3cf7bf4208f773afa5e259d7bdaad59909b4c5bf62a0c5e4be44ef47c33139060200161139b565b600b546001600160a01b0316331461170e5760405162461bcd60e51b81526004016105f99061325b565b604051634b82009360e01b81523060048201526001600160a01b03821690634b820093906024016020604051808303816000875af1158015611754573d6000803e3d6000fd5b505050506040513d601f19601f820116820180604052508101906117789190613438565b151560011461178657600080fd5b50565b600080546001600160a01b031633146117b45760405162461bcd60e51b81526004016105f990613226565b604051636d4ab48d60e11b81526000906001600160a01b0389169063da95691a906117eb908a908a908a908a908a90600401613455565b6020604051808303816000875af115801561180a573d6000803e3d6000fd5b505050506040513d601f19601f8201168201806040525081019061182e91906132bf565b9050876001600160a01b03167f047933b4d6d5561046580f25334035991926e1531252edfc5f6faa07bb9de2d28260405161186b91815260200190565b60405180910390a2979650505050505050565b600080546001600160a01b031633146118a95760405162461bcd60e51b81526004016105f990613226565b604051630acf027160e31b81526004810184905260ff831660248201526000906001600160a01b038616906356781388906044016020604051808303816000875af11580156118fc573d6000803e3d6000fd5b505050506040513d601f19601f8201168201806040525081019061192091906132bf565b604080518681526020810183905260ff86168183015290519192506001600160a01b038716917f2987456cc05c633153fced1915717c231d4c71e8f934b9c8d5aa6cf656902b679181900360600190a290505b9392505050565b6000546001600160a01b031633146119a45760405162461bcd60e51b81526004016105f990613226565b600854604051631ae26c6560e31b81526001600160a01b038481166004830152602482018490529091169063d713632890604401600060405180830381600087803b1580156119f257600080fd5b505af1158015611a06573d6000803e3d6000fd5b50505050816001600160a01b03167fe3b48098ca21a7c29bf3f73708857d7b045416aecd8ca27b322a3e1eee3ceeef82604051611a4591815260200190565b60405180910390a25050565b6000546001600160a01b03163314611a7b5760405162461bcd60e51b81526004016105f990613226565b611786816127a2565b6000546001600160a01b03163314611aae5760405162461bcd60e51b81526004016105f990613226565b6009546001600160a01b0382811691161415611b025760405162461bcd60e51b815260206004820152601360248201527229b0b6b2902332b2a234b9ba3934b13aba37b960691b60448201526064016105f9565b600980546001600160a01b0319166001600160a01b0383169081179091556040519081527f98b244c47458fedc88c0cf9958073e565e971d8ae9d8d1c50dfc6920fe939cbb9060200161139b565b6000546060906001600160a01b03163314611b7d5760405162461bcd60e51b81526004016105f990613226565b6000826001600160401b03811115611b9757611b97612cbc565b604051908082528060200260200182016040528015611bc0578160200160208202803683370190505b50905060005b83811015611c8e57848482818110611be057611be06132f5565b9050602002016020810190611bf59190612b07565b6040516370a0823160e01b81523060048201526001600160a01b0391909116906370a0823190602401602060405180830381865afa158015611c3b573d6000803e3d6000fd5b505050506040513d601f19601f82011682018060405250810190611c5f91906132bf565b828281518110611c7157611c716132f5565b602090810291909101015280611c868161330b565b915050611bc6565b50600954604051638872046760e01b81526001600160a01b0390911690638872046790611cc390309088908890600401613542565b600060405180830381600087803b158015611cdd57600080fd5b505af1158015611cf1573d6000803e3d6000fd5b5085925050506001600160401b03811115611d0e57611d0e612cbc565b604051908082528060200260200182016040528015611d37578160200160208202803683370190505b50915060005b83811015611e2957818181518110611d5757611d576132f5565b6020026020010151858583818110611d7157611d716132f5565b9050602002016020810190611d869190612b07565b6040516370a0823160e01b81523060048201526001600160a01b0391909116906370a0823190602401602060405180830381865afa158015611dcc573d6000803e3d6000fd5b505050506040513d601f19601f82011682018060405250810190611df091906132bf565b611dfa91906132a8565b838281518110611e0c57611e0c6132f5565b602090810291909101015280611e218161330b565b915050611d3d565b507fbbc3833a87c00061574f2323aa588a123484307be81ae2814b6599ad38d4883b848484604051611e5d93929190613567565b60405180910390a15092915050565b6000546001600160a01b03163314611e965760405162461bcd60e51b81526004016105f990613226565b600660009054906101000a90046001600160a01b03166001600160a01b0316633ccfd60b6040518163ffffffff1660e01b8152600401600060405180830381600087803b158015611ee657600080fd5b505af1158015611efa573d6000803e3d6000fd5b50506007546040516370a0823160e01b81523060048201527f832a253ad4e9e88f705006a24d9957b8aa1de307a0f9d0a6ad5fd0b0ac81050593506001600160a01b0390911691506370a0823190602401602060405180830381865afa158015611f68573d6000803e3d6000fd5b505050506040513d601f19601f82011682018060405250810190611f8c91906132bf565b60405190815260200160405180910390a1565b6000546001600160a01b03163314611fc95760405162461bcd60e51b81526004016105f990613226565b6007546040516370a0823160e01b81523060048201526000916001600160a01b0316906370a0823190602401602060405180830381865afa158015612012573d6000803e3d6000fd5b505050506040513d601f19601f8201168201806040525081019061203691906132bf565b60065460405163cbf9fe5f60e01b81523060048201529192506000916001600160a01b039091169063cbf9fe5f90602401602060405180830381865afa158015612084573d6000803e3d6000fd5b505050506040513d601f19601f820116820180604052508101906120a891906132bf565b9050600062093a8080600554426120bf9190613420565b6120c99190613597565b6120d391906135b9565b905082158015906120e2575081155b156121cc5760075460065460405163095ea7b360e01b81526001600160a01b0391821660048201526024810186905291169063095ea7b3906044016020604051808303816000875af115801561213c573d6000803e3d6000fd5b505050506040513d601f19601f820116820180604052508101906121609190613438565b506006546040516365fc387360e01b815260048101859052602481018390526001600160a01b03909116906365fc3873906044015b600060405180830381600087803b1580156121af57600080fd5b505af11580156121c3573d6000803e3d6000fd5b505050506123d1565b82158015906121da57508115155b156123605760075460065460405163095ea7b360e01b81526001600160a01b0391821660048201526024810186905291169063095ea7b3906044016020604051808303816000875af1158015612234573d6000803e3d6000fd5b505050506040513d601f19601f820116820180604052508101906122589190613438565b50600654604051631255d9df60e21b8152600481018590526001600160a01b0390911690634957677c90602401600060405180830381600087803b15801561229f57600080fd5b505af11580156122b3573d6000803e3d6000fd5b505060065460405163adc6358960e01b81523060048201528493506001600160a01b03909116915063adc6358990602401602060405180830381865afa158015612301573d6000803e3d6000fd5b505050506040513d601f19601f8201168201806040525081019061232591906132bf565b1461235b576006546040516377fbd30960e11b8152600481018390526001600160a01b039091169063eff7a61290602401612195565b6123d1565b8215801561236d57508115155b156123d1576006546040516377fbd30960e11b8152600481018390526001600160a01b039091169063eff7a61290602401600060405180830381600087803b1580156123b857600080fd5b505af11580156123cc573d6000803e3d6000fd5b505050505b7f46d326b399b600d54f10f9cc18580fd65427ff111e1ce74350b39e244cbfbcf86123fc8385613420565b6040805191825260208201849052016107cd565b600b546001600160a01b0316331461243a5760405162461bcd60e51b81526004016105f99061325b565b6040516370a0823160e01b81523060048201526000906001600160a01b038516906370a0823190602401602060405180830381865afa158015612481573d6000803e3d6000fd5b505050506040513d601f19601f820116820180604052508101906124a591906132bf565b905081156124c2576124c26001600160a01b038516843085612861565b6040516370a0823160e01b81523060048201526000906001600160a01b038616906370a0823190602401602060405180830381865afa158015612509573d6000803e3d6000fd5b505050506040513d601f19601f8201168201806040525081019061252d91906132bf565b905061253982826132a8565b6001600160a01b038086166000908152600a60209081526040808320938a1683529290529081208054909190612570908490613420565b9091555050604080516001600160a01b038088168252861660208201529081018490527f98c09d9949722bae4bd0d988d4050091c3ae7ec6d51d3c6bbfe4233593944e9e9060600160405180910390a15050505050565b6000546001600160a01b031633146125f15760405162461bcd60e51b81526004016105f990613226565b6007546001600160a01b03828116911614156126465760405162461bcd60e51b815260206004820152601460248201527329b0b6b2903634b8bab4b234ba3c903a37b5b2b760611b60448201526064016105f9565b600780546001600160a01b0319166001600160a01b0383169081179091556040519081527fbb8b37216ee672cc466c5c8e9b47059549c5aedb6a9709388be0f8145371bd8e9060200161139b565b6000546001600160a01b031633146126be5760405162461bcd60e51b81526004016105f990613226565b60025460035460405163785f6df160e11b81526001600160a01b039092169163f0bedbe2916126f39160040190815260200190565b600060405180830381600087803b15801561270d57600080fd5b505af1158015612721573d6000803e3d6000fd5b505050600382905550600454611786906001600160a01b03166127a2565b6040516001600160a01b0383166024820152604481018290526108e390849063a9059cbb60e01b906064015b60408051601f198184030181529190526020810180516001600160e01b03166001600160e01b03199093169290921790915261289f565b600480546002546003546040516317b0dca160e31b8152938401526001600160a01b0384811660248501529182169291169063bd86e50890604401600060405180830381600087803b1580156127f757600080fd5b505af115801561280b573d6000803e3d6000fd5b5050600480546001600160a01b0319166001600160a01b0386811691821790925560405190935090841691507f4f7ba549b7c7c8abab2c58f33f2694510f36c3ca55a80c780df35835a4431cdb90600090a35050565b6040516001600160a01b03808516602483015283166044820152606481018290526128999085906323b872dd60e01b9060840161276b565b50505050565b60006128f4826040518060400160405280602081526020017f5361666545524332303a206c6f772d6c6576656c2063616c6c206661696c6564815250856001600160a01b03166129719092919063ffffffff16565b8051909150156108e357808060200190518101906129129190613438565b6108e35760405162461bcd60e51b815260206004820152602a60248201527f5361666545524332303a204552433230206f7065726174696f6e20646964206e6044820152691bdd081cdd58d8d9595960b21b60648201526084016105f9565b60606129808484600085612988565b949350505050565b6060824710156129e95760405162461bcd60e51b815260206004820152602660248201527f416464726573733a20696e73756666696369656e742062616c616e636520666f6044820152651c8818d85b1b60d21b60648201526084016105f9565b6001600160a01b0385163b612a405760405162461bcd60e51b815260206004820152601d60248201527f416464726573733a2063616c6c20746f206e6f6e2d636f6e747261637400000060448201526064016105f9565b600080866001600160a01b03168587604051612a5c91906135d8565b60006040518083038185875af1925050503d8060008114612a99576040519150601f19603f3d011682016040523d82523d6000602084013e612a9e565b606091505b5091509150612aae828286612ab9565b979650505050505050565b60608315612ac8575081611973565b825115612ad85782518084602001fd5b8160405162461bcd60e51b81526004016105f991906135f4565b6001600160a01b038116811461178657600080fd5b600060208284031215612b1957600080fd5b813561197381612af2565b600080600060608486031215612b3957600080fd5b8335612b4481612af2565b92506020840135612b5481612af2565b929592945050506040919091013590565b801515811461178657600080fd5b600080600060608486031215612b8857600080fd5b8335612b9381612af2565b92506020840135612ba381612b65565b91506040840135612bb381612b65565b809150509250925092565b600081518084526020808501945080840160005b83811015612bf75781516001600160a01b031687529582019590820190600101612bd2565b509495945050505050565b6020815260006119736020830184612bbe565b60008060408385031215612c2857600080fd5b8235612c3381612af2565b91506020830135612c4381612af2565b809150509250929050565b600081518084526020808501945080840160005b83811015612bf757815187529582019590820190600101612c62565b604081526000612c916040830185612bbe565b8281036020840152612ca38185612c4e565b95945050505050565b8035612cb781612af2565b919050565b634e487b7160e01b600052604160045260246000fd5b604051601f8201601f191681016001600160401b0381118282101715612cfa57612cfa612cbc565b604052919050565b60006001600160401b03821115612d1b57612d1b612cbc565b5060051b60200190565b600082601f830112612d3657600080fd5b81356020612d4b612d4683612d02565b612cd2565b82815260059290921b84018101918181019086841115612d6a57600080fd5b8286015b84811015612d8e578035612d8181612af2565b8352918301918301612d6e565b509695505050505050565b600082601f830112612daa57600080fd5b81356020612dba612d4683612d02565b82815260059290921b84018101918181019086841115612dd957600080fd5b8286015b84811015612d8e5780358352918301918301612ddd565b60006001600160401b03831115612e0d57612e0d612cbc565b612e20601f8401601f1916602001612cd2565b9050828152838383011115612e3457600080fd5b828260208301376000602084830101529392505050565b600082601f830112612e5c57600080fd5b81356020612e6c612d4683612d02565b82815260059290921b84018101918181019086841115612e8b57600080fd5b8286015b84811015612d8e5780356001600160401b03811115612eae5760008081fd5b8701603f81018913612ec05760008081fd5b612ed1898683013560408401612df4565b845250918301918301612e8f565b600082601f830112612ef057600080fd5b61197383833560208501612df4565b600080600080600060a08688031215612f1757600080fd5b8535612f2281612af2565b945060208601356001600160401b0380821115612f3e57600080fd5b612f4a89838a01612d25565b95506040880135915080821115612f6057600080fd5b612f6c89838a01612d99565b94506060880135915080821115612f8257600080fd5b612f8e89838a01612e4b565b93506080880135915080821115612fa457600080fd5b50612fb188828901612edf565b9150509295509295909350565b600060208284031215612fd057600080fd5b5035919050565b600082601f830112612fe857600080fd5b81356020612ff8612d4683612d02565b82815260059290921b8401810191818101908684111561301757600080fd5b8286015b84811015612d8e5780356001600160401b0381111561303a5760008081fd5b6130488986838b0101612edf565b84525091830191830161301b565b60008060008060008060c0878903121561306f57600080fd5b61307887612cac565b955060208701356001600160401b038082111561309457600080fd5b6130a08a838b01612d25565b965060408901359150808211156130b657600080fd5b6130c28a838b01612d99565b955060608901359150808211156130d857600080fd5b6130e48a838b01612fd7565b945060808901359150808211156130fa57600080fd5b6131068a838b01612e4b565b935060a089013591508082111561311c57600080fd5b5061312989828a01612edf565b9150509295509295509295565b60008060006060848603121561314b57600080fd5b833561315681612af2565b925060208401359150604084013560ff81168114612bb357600080fd5b6000806040838503121561318657600080fd5b823561319181612af2565b946020939093013593505050565b600080602083850312156131b257600080fd5b82356001600160401b03808211156131c957600080fd5b818501915085601f8301126131dd57600080fd5b8135818111156131ec57600080fd5b8660208260051b850101111561320157600080fd5b60209290920196919550909350505050565b6020815260006119736020830184612c4e565b6020808252818101527f4f776e61626c653a2063616c6c6572206973206e6f7420746865206f776e6572604082015260600190565b60208082526019908201527f6d616e6167657220636f6e747261637420726571756972656400000000000000604082015260600190565b634e487b7160e01b600052601160045260246000fd5b6000828210156132ba576132ba613292565b500390565b6000602082840312156132d157600080fd5b5051919050565b6000602082840312156132ea57600080fd5b815161197381612af2565b634e487b7160e01b600052603260045260246000fd5b600060001982141561331f5761331f613292565b5060010190565b60005b83811015613341578181015183820152602001613329565b838111156128995750506000910152565b6000815180845261336a816020860160208601613326565b601f01601f19169290920160200192915050565b600081518084526020808501808196508360051b8101915082860160005b858110156133c65782840389526133b4848351613352565b9885019893509084019060010161339c565b5091979650505050505050565b6080815260006133e66080830187612bbe565b82810360208401526133f88187612c4e565b9050828103604084015261340c818661337e565b90508281036060840152612aae8185613352565b6000821982111561343357613433613292565b500190565b60006020828403121561344a57600080fd5b815161197381612b65565b60a08152600061346860a0830188612bbe565b60208382038185015261347b8289612c4e565b915083820360408501528187518084528284019150828160051b850101838a0160005b838110156134cc57601f198784030185526134ba838351613352565b9486019492509085019060010161349e565b505086810360608801526134e0818a61337e565b94505050505082810360808401526134f88185613352565b98975050505050505050565b8183526000602080850194508260005b85811015612bf757813561352781612af2565b6001600160a01b031687529582019590820190600101613514565b6001600160a01b0384168152604060208201819052600090612ca39083018486613504565b60408152600061357b604083018587613504565b828103602084015261358d8185612c4e565b9695505050505050565b6000826135b457634e487b7160e01b600052601260045260246000fd5b500490565b60008160001904831182151516156135d3576135d3613292565b500290565b600082516135ea818460208701613326565b9190910192915050565b602081526000611973602083018461335256fea2646970667358221220b6fead4aee09f1ea9adaad5fb26b301e2f6875061001a5da8b05b4f8e61433ee64736f6c634300080b0033",
  "bytecodeSha1": "5e449133fec1aff2b881dfd6f3925ce65928e6f3",
  "compiler": {
    "evm_version": "istanbul",
    "optimizer": {
      "enabled": true,
      "runs": 200
    },
    "version": "0.8.11+commit.d7f03943"
  },
  "contractName": "VeBalDelegator",
  "language": "Solidity",
  "natspec": {
    "author": "Fei Protocol",
    "kind": "dev",
    "methods": {
      "castVote(address,uint256,uint8)": {
        "notice": "cast a vote on a given proposal on the target governor."
      },
      "checkpointGauge(address)": {
        "notice": "Apply veBAL boost to the specified liquidity gauge",
        "params": {
          "liquidityGauge": "liquidity gauge address"
        }
      },
      "claimFeeTokens(address[])": {
        "notice": "Claims reward tokens from the fee distributor",
        "params": {
          "tokens": "a list of tokens to claim"
        }
      },
      "claimGaugeTokens(address,address)": {
        "notice": "Claims reward tokens available for a given liquidity gauge",
        "params": {
          "liquidityGauge": "liquidity gauge address"
        }
      },
      "claimOwnership()": {
        "notice": "Needs to be called by `pendingOwner` to claim ownership."
      },
      "clearDelegate()": {
        "notice": "clears the delegate from snapshot"
      },
      "constructor": {
        "notice": "veBAL token manager"
      },
      "delegate()": {
        "notice": "the snapshot delegate for the deposit"
      },
      "delegateRegistry()": {
        "notice": "the Gnosis delegate registry used by snapshot"
      },
      "depositToken(address,address,uint256)": {
        "details": "This is mainly used for boosting balancer LP tokens",
        "notice": "Allows the owner to deposit tokens",
        "params": {
          "amount": "deposit amount",
          "from": "source address",
          "token": "token address"
        }
      },
      "exitLock()": {
        "notice": "Exit the veToken lock. For this function to be called and not revert, tokens had to be locked previously, and the contract must have been paused for lockDuration in order to prevent lock extensions by calling lock(). This function will recover tokens on the contract, which can then be moved by calling withdraw() as a PCVController if the contract is also a PCVDeposit, for instance."
      },
      "feeDistributor()": {
        "notice": "The fee distributor address"
      },
      "gaugeController()": {
        "notice": "address of the gauge controller used for voting"
      },
      "getGaugeRewardTokens(address)": {
        "notice": "Gets a list of reward tokens for a given liquidity gauge",
        "params": {
          "liquidityGauge": "liquidity gauge address"
        },
        "returns": {
          "tokens": "a list of reward tokens"
        }
      },
      "getTokenBalance(address,address)": {
        "notice": "Returns the token balance",
        "params": {
          "from": "source address",
          "token": "token address"
        },
        "returns": {
          "_0": "token balance"
        }
      },
      "liquidityToken()": {
        "notice": "The token address"
      },
      "lock()": {
        "notice": "Deposit tokens to get veTokens. Set lock duration to lockDuration. The only way to withdraw tokens will be to pause this contract for lockDuration and then call exitLock()."
      },
      "lockDuration()": {
        "notice": "The lock duration of veTokens"
      },
      "managerContract()": {
        "notice": "manager contract used to manage BPT token deposits"
      },
      "proposeBravo(address,address[],uint256[],string[],bytes[],string)": {
        "notice": "propose a new proposal on the target Bravo governor."
      },
      "proposeOZ(address,address[],uint256[],bytes[],string)": {
        "notice": "propose a new proposal on the target OZ governor."
      },
      "sNOTE()": {
        "notice": "Staked NOTE contract"
      },
      "setDelegate(address)": {
        "notice": "sets the snapshot delegate",
        "params": {
          "newDelegate": "new delegate address"
        }
      },
      "setDelegateRegistry(address)": {
        "notice": "sets the delegate registry",
        "params": {
          "newRegistry": "new delegate registry"
        }
      },
      "setFeeDistributor(address)": {
        "notice": "Set the fee distributor address",
        "params": {
          "newFeeDistributor": "new VeToken address"
        }
      },
      "setGaugeController(address)": {
        "notice": "Set the gauge controller used for gauge weight voting",
        "params": {
          "_gaugeController": "the gauge controller address"
        }
      },
      "setLiquidityToken(address)": {
        "notice": "Set the BAL/ETH liquidity token address",
        "params": {
          "newLiquidityToken": "new liquidity token address"
        }
      },
      "setLockDuration(uint256)": {
        "notice": "Set the amount of time tokens will be vote-escrowed for in lock() calls",
        "params": {
          "newLockDuration": "new lock duration"
        }
      },
      "setManagerContract(address)": {
        "notice": "Set the manager contract used for managing LP token deposits",
        "params": {
          "_managerContract": "new manager contract"
        }
      },
      "setSpaceId(bytes32)": {
        "notice": "sets the snapshot space ID",
        "params": {
          "_spaceId": "space ID"
        }
      },
      "setVeToken(address)": {
        "notice": "Set the VeToken address",
        "params": {
          "newVeToken": "new VeToken address"
        }
      },
      "spaceId()": {
        "notice": "the keccak encoded spaceId of the snapshot space"
      },
      "totalTokensManaged()": {
        "notice": "returns total balance of tokens, vote-escrowed or liquid."
      },
      "transferOwnership(address,bool,bool)": {
        "notice": "Transfers ownership to `newOwner`. Either directly or claimable by the new pending owner. Can only be invoked by the current `owner`.",
        "params": {
          "direct": "True if `newOwner` should be set immediately. False if `newOwner` needs to use `claimOwnership`.",
          "newOwner": "Address of the new owner.",
          "renounce": "Allows the `newOwner` to be `address(0)` if `direct` and `renounce` is True. Has no effect otherwise."
        }
      },
      "veToken()": {
        "notice": "The vote-escrowed token address"
      },
      "voteForGaugeWeight(address,uint256)": {
        "notice": "Vote for a gauge's weight",
        "params": {
          "liquidityGauge": "liquidity gauge address",
          "weight": "gauge weight in BPS, 10000 BPS = 100%"
        }
      },
      "withdrawToken(address,address,uint256)": {
        "notice": "Allows the owner withdraw tokens",
        "params": {
          "amount": "amount to transfer",
          "to": "destination address",
          "token": "token address"
        }
      }
    },
    "title": "80-BAL-20-WETH BPT PCV Deposit",
    "version": 1
  },
  "opcodes": "PUSH1 0x80 PUSH1 0x40 MSTORE CALLVALUE DUP1 ISZERO PUSH2 0x10 JUMPI PUSH1 0x0 DUP1 REVERT JUMPDEST POP PUSH1 0x4 CALLDATASIZE LT PUSH2 0x252 JUMPI PUSH1 0x0 CALLDATALOAD PUSH1 0xE0 SHR DUP1 PUSH4 0x6BF2FFA1 GT PUSH2 0x146 JUMPI DUP1 PUSH4 0xC5A9FF91 GT PUSH2 0xC3 JUMPI DUP1 PUSH4 0xE30C3978 GT PUSH2 0x87 JUMPI DUP1 PUSH4 0xE30C3978 EQ PUSH2 0x573 JUMPI DUP1 PUSH4 0xF6D12D4F EQ PUSH2 0x586 JUMPI DUP1 PUSH4 0xF83D08BA EQ PUSH2 0x58E JUMPI DUP1 PUSH4 0xFB0F97A8 EQ PUSH2 0x596 JUMPI DUP1 PUSH4 0xFEE778F9 EQ PUSH2 0x5A9 JUMPI DUP1 PUSH4 0xFFEF1B76 EQ PUSH2 0x5BC JUMPI PUSH1 0x0 DUP1 REVERT JUMPDEST DUP1 PUSH4 0xC5A9FF91 EQ PUSH2 0x507 JUMPI DUP1 PUSH4 0xC89E4361 EQ PUSH2 0x51A JUMPI DUP1 PUSH4 0xCA5EB5E1 EQ PUSH2 0x52D JUMPI DUP1 PUSH4 0xCCFC2E8D EQ PUSH2 0x540 JUMPI DUP1 PUSH4 0xDE7A1673 EQ PUSH2 0x553 JUMPI PUSH1 0x0 DUP1 REVERT JUMPDEST DUP1 PUSH4 0x8DA5CB5B GT PUSH2 0x10A JUMPI DUP1 PUSH4 0x8DA5CB5B EQ PUSH2 0x481 JUMPI DUP1 PUSH4 0x99EECB3B EQ PUSH2 0x494 JUMPI DUP1 PUSH4 0x9D2AE781 EQ PUSH2 0x4A7 JUMPI DUP1 PUSH4 0xC0AB2CC6 EQ PUSH2 0x4BA JUMPI DUP1 PUSH4 0xC489744B EQ PUSH2 0x4CD JUMPI PUSH1 0x0 DUP1 REVERT JUMPDEST DUP1 PUSH4 0x6BF2FFA1 EQ PUSH2 0x423 JUMPI DUP1 PUSH4 0x6EA447BA EQ PUSH2 0x42C JUMPI DUP1 PUSH4 0x6F3A3652 EQ PUSH2 0x434 JUMPI DUP1 PUSH4 0x86A12631 EQ PUSH2 0x447 JUMPI DUP1 PUSH4 0x8ACA6A23 EQ PUSH2 0x46E JUMPI PUSH1 0x0 DUP1 REVERT JUMPDEST DUP1 PUSH4 0x360CB4EF GT PUSH2 0x1D4 JUMPI DUP1 PUSH4 0x496DA0B0 GT PUSH2 0x198 JUMPI DUP1 PUSH4 0x496DA0B0 EQ PUSH2 0x3DA JUMPI DUP1 PUSH4 0x4E71E0C8 EQ PUSH2 0x3ED JUMPI DUP1 PUSH4 0x4EB665AF EQ PUSH2 0x3F5 JUMPI DUP1 PUSH4 0x57895CA2 EQ PUSH2 0x408 JUMPI DUP1 PUSH4 0x65320345 EQ PUSH2 0x41B JUMPI PUSH1 0x0 DUP1 REVERT JUMPDEST DUP1 PUSH4 0x360CB4EF EQ PUSH2 0x359 JUMPI DUP1 PUSH4 0x39D36A3C EQ PUSH2 0x37A JUMPI DUP1 PUSH4 0x3B92EB23 EQ PUSH2 0x38D JUMPI DUP1 PUSH4 0x40C86A23 EQ PUSH2 0x3A0 JUMPI DUP1 PUSH4 0x43CD8F7E EQ PUSH2 0x3C7 JUMPI PUSH1 0x0 DUP1 REVERT JUMPDEST DUP1 PUSH4 0x13BFFFAC GT PUSH2 0x21B JUMPI DUP1 PUSH4 0x13BFFFAC EQ PUSH2 0x2D9 JUMPI DUP1 PUSH4 0x1C31CAC3 EQ PUSH2 0x2EC JUMPI DUP1 PUSH4 0x267B5852 EQ PUSH2 0x2FF JUMPI DUP1 PUSH4 0x2710AC80 EQ PUSH2 0x31F JUMPI DUP1 PUSH4 0x2ABC2A99 EQ PUSH2 0x332 JUMPI PUSH1 0x0 DUP1 REVERT JUMPDEST DUP1 PUSH3 0x91D2B8 EQ PUSH2 0x257 JUMPI DUP1 PUSH4 0x1E33667 EQ PUSH2 0x26C JUMPI DUP1 PUSH4 0x4554443 EQ PUSH2 0x27F JUMPI DUP1 PUSH4 0x78DFBE7 EQ PUSH2 0x29B JUMPI DUP1 PUSH4 0xD43E8AD EQ PUSH2 0x2AE JUMPI JUMPDEST PUSH1 0x0 DUP1 REVERT JUMPDEST PUSH2 0x26A PUSH2 0x265 CALLDATASIZE PUSH1 0x4 PUSH2 0x2B07 JUMP JUMPDEST PUSH2 0x5CF JUMP JUMPDEST STOP JUMPDEST PUSH2 0x26A PUSH2 0x27A CALLDATASIZE PUSH1 0x4 PUSH2 0x2B24 JUMP JUMPDEST PUSH2 0x6AA JUMP JUMPDEST PUSH2 0x288 PUSH1 0x5 SLOAD DUP2 JUMP JUMPDEST PUSH1 0x40 MLOAD SWAP1 DUP2 MSTORE PUSH1 0x20 ADD JUMPDEST PUSH1 0x40 MLOAD DUP1 SWAP2 SUB SWAP1 RETURN JUMPDEST PUSH2 0x26A PUSH2 0x2A9 CALLDATASIZE PUSH1 0x4 PUSH2 0x2B73 JUMP JUMPDEST PUSH2 0x7DA JUMP JUMPDEST PUSH1 0x9 SLOAD PUSH2 0x2C1 SWAP1 PUSH1 0x1 PUSH1 0x1 PUSH1 0xA0 SHL SUB AND DUP2 JUMP JUMPDEST PUSH1 0x40 MLOAD PUSH1 0x1 PUSH1 0x1 PUSH1 0xA0 SHL SUB SWAP1 SWAP2 AND DUP2 MSTORE PUSH1 0x20 ADD PUSH2 0x292 JUMP JUMPDEST PUSH1 0x2 SLOAD PUSH2 0x2C1 SWAP1 PUSH1 0x1 PUSH1 0x1 PUSH1 0xA0 SHL SUB AND DUP2 JUMP JUMPDEST PUSH2 0x26A PUSH2 0x2FA CALLDATASIZE PUSH1 0x4 PUSH2 0x2B07 JUMP JUMPDEST PUSH2 0x8E8 JUMP JUMPDEST PUSH2 0x312 PUSH2 0x30D CALLDATASIZE PUSH1 0x4 PUSH2 0x2B07 JUMP JUMPDEST PUSH2 0x964 JUMP JUMPDEST PUSH1 0x40 MLOAD PUSH2 0x292 SWAP2 SWAP1 PUSH2 0x2C02 JUMP JUMPDEST PUSH1 0xB SLOAD PUSH2 0x2C1 SWAP1 PUSH1 0x1 PUSH1 0x1 PUSH1 0xA0 SHL SUB AND DUP2 JUMP JUMPDEST PUSH2 0x2C1 PUSH32 0x0 DUP2 JUMP JUMPDEST PUSH2 0x36C PUSH2 0x367 CALLDATASIZE PUSH1 0x4 PUSH2 0x2C15 JUMP JUMPDEST PUSH2 0xAC7 JUMP JUMPDEST PUSH1 0x40 MLOAD PUSH2 0x292 SWAP3 SWAP2 SWAP1 PUSH2 0x2C7E JUMP JUMPDEST PUSH2 0x288 PUSH2 0x388 CALLDATASIZE PUSH1 0x4 PUSH2 0x2EFF JUMP JUMPDEST PUSH2 0xF51 JUMP JUMPDEST PUSH1 0x6 SLOAD PUSH2 0x2C1 SWAP1 PUSH1 0x1 PUSH1 0x1 PUSH1 0xA0 SHL SUB AND DUP2 JUMP JUMPDEST PUSH2 0x2C1 PUSH32 0x0 DUP2 JUMP JUMPDEST PUSH1 0x7 SLOAD PUSH2 0x2C1 SWAP1 PUSH1 0x1 PUSH1 0x1 PUSH1 0xA0 SHL SUB AND DUP2 JUMP JUMPDEST PUSH2 0x288 PUSH2 0x3E8 CALLDATASIZE PUSH1 0x4 PUSH2 0x2C15 JUMP JUMPDEST PUSH2 0x1043 JUMP JUMPDEST PUSH2 0x26A PUSH2 0x1283 JUMP JUMPDEST PUSH2 0x26A PUSH2 0x403 CALLDATASIZE PUSH1 0x4 PUSH2 0x2FBE JUMP JUMPDEST PUSH2 0x1340 JUMP JUMPDEST PUSH2 0x26A PUSH2 0x416 CALLDATASIZE PUSH1 0x4 PUSH2 0x2B07 JUMP JUMPDEST PUSH2 0x13A6 JUMP JUMPDEST PUSH2 0x288 PUSH2 0x146F JUMP JUMPDEST PUSH2 0x288 PUSH1 0x3 SLOAD DUP2 JUMP JUMPDEST PUSH2 0x26A PUSH2 0x1557 JUMP JUMPDEST PUSH2 0x26A PUSH2 0x442 CALLDATASIZE PUSH1 0x4 PUSH2 0x2B07 JUMP JUMPDEST PUSH2 0x161F JUMP JUMPDEST PUSH2 0x2C1 PUSH32 0x0 DUP2 JUMP JUMPDEST PUSH2 0x26A PUSH2 0x47C CALLDATASIZE PUSH1 0x4 PUSH2 0x2B07 JUMP JUMPDEST PUSH2 0x16E4 JUMP JUMPDEST PUSH1 0x0 SLOAD PUSH2 0x2C1 SWAP1 PUSH1 0x1 PUSH1 0x1 PUSH1 0xA0 SHL SUB AND DUP2 JUMP JUMPDEST PUSH1 0x8 SLOAD PUSH2 0x2C1 SWAP1 PUSH1 0x1 PUSH1 0x1 PUSH1 0xA0 SHL SUB AND DUP2 JUMP JUMPDEST PUSH2 0x288 PUSH2 0x4B5 CALLDATASIZE PUSH1 0x4 PUSH2 0x3056 JUMP JUMPDEST PUSH2 0x1789 JUMP JUMPDEST PUSH2 0x288 PUSH2 0x4C8 CALLDATASIZE PUSH1 0x4 PUSH2 0x3136 JUMP JUMPDEST PUSH2 0x187E JUMP JUMPDEST PUSH2 0x288 PUSH2 0x4DB CALLDATASIZE PUSH1 0x4 PUSH2 0x2C15 JUMP JUMPDEST PUSH1 0x1 PUSH1 0x1 PUSH1 0xA0 SHL SUB DUP1 DUP3 AND PUSH1 0x0 SWAP1 DUP2 MSTORE PUSH1 0xA PUSH1 0x20 SWAP1 DUP2 MSTORE PUSH1 0x40 DUP1 DUP4 KECCAK256 SWAP4 DUP7 AND DUP4 MSTORE SWAP3 SWAP1 MSTORE KECCAK256 SLOAD SWAP3 SWAP2 POP POP JUMP JUMPDEST PUSH2 0x26A PUSH2 0x515 CALLDATASIZE PUSH1 0x4 PUSH2 0x3173 JUMP JUMPDEST PUSH2 0x197A JUMP JUMPDEST PUSH1 0x4 SLOAD PUSH2 0x2C1 SWAP1 PUSH1 0x1 PUSH1 0x1 PUSH1 0xA0 SHL SUB AND DUP2 JUMP JUMPDEST PUSH2 0x26A PUSH2 0x53B CALLDATASIZE PUSH1 0x4 PUSH2 0x2B07 JUMP JUMPDEST PUSH2 0x1A51 JUMP JUMPDEST PUSH2 0x26A PUSH2 0x54E CALLDATASIZE PUSH1 0x4 PUSH2 0x2B07 JUMP JUMPDEST PUSH2 0x1A84 JUMP JUMPDEST PUSH2 0x566 PUSH2 0x561 CALLDATASIZE PUSH1 0x4 PUSH2 0x319F JUMP JUMPDEST PUSH2 0x1B50 JUMP JUMPDEST PUSH1 0x40 MLOAD PUSH2 0x292 SWAP2 SWAP1 PUSH2 0x3213 JUMP JUMPDEST PUSH1 0x1 SLOAD PUSH2 0x2C1 SWAP1 PUSH1 0x1 PUSH1 0x1 PUSH1 0xA0 SHL SUB AND DUP2 JUMP JUMPDEST PUSH2 0x26A PUSH2 0x1E6C JUMP JUMPDEST PUSH2 0x26A PUSH2 0x1F9F JUMP JUMPDEST PUSH2 0x26A PUSH2 0x5A4 CALLDATASIZE PUSH1 0x4 PUSH2 0x2B24 JUMP JUMPDEST PUSH2 0x2410 JUMP JUMPDEST PUSH2 0x26A PUSH2 0x5B7 CALLDATASIZE PUSH1 0x4 PUSH2 0x2B07 JUMP JUMPDEST PUSH2 0x25C7 JUMP JUMPDEST PUSH2 0x26A PUSH2 0x5CA CALLDATASIZE PUSH1 0x4 PUSH2 0x2FBE JUMP JUMPDEST PUSH2 0x2694 JUMP JUMPDEST PUSH1 0x0 SLOAD PUSH1 0x1 PUSH1 0x1 PUSH1 0xA0 SHL SUB AND CALLER EQ PUSH2 0x602 JUMPI PUSH1 0x40 MLOAD PUSH3 0x461BCD PUSH1 0xE5 SHL DUP2 MSTORE PUSH1 0x4 ADD PUSH2 0x5F9 SWAP1 PUSH2 0x3226 JUMP JUMPDEST PUSH1 0x40 MLOAD DUP1 SWAP2 SUB SWAP1 REVERT JUMPDEST PUSH1 0x8 SLOAD PUSH1 0x1 PUSH1 0x1 PUSH1 0xA0 SHL SUB DUP3 DUP2 AND SWAP2 AND EQ ISZERO PUSH2 0x658 JUMPI PUSH1 0x40 MLOAD PUSH3 0x461BCD PUSH1 0xE5 SHL DUP2 MSTORE PUSH1 0x20 PUSH1 0x4 DUP3 ADD MSTORE PUSH1 0x15 PUSH1 0x24 DUP3 ADD MSTORE PUSH21 0x29B0B6B29033B0BAB3B29031B7B73A3937B63632B9 PUSH1 0x59 SHL PUSH1 0x44 DUP3 ADD MSTORE PUSH1 0x64 ADD PUSH2 0x5F9 JUMP JUMPDEST PUSH1 0x8 DUP1 SLOAD PUSH1 0x1 PUSH1 0x1 PUSH1 0xA0 SHL SUB DUP4 DUP2 AND PUSH1 0x1 PUSH1 0x1 PUSH1 0xA0 SHL SUB NOT DUP4 AND DUP2 OR SWAP1 SWAP4 SSTORE PUSH1 0x40 MLOAD SWAP2 AND SWAP2 SWAP1 DUP3 SWAP1 PUSH32 0xB9EF0E7900247E9EF69DCD8F950EE5E0F12886C1FDEC67FC43561734D31F2AB2 SWAP1 PUSH1 0x0 SWAP1 LOG3 POP POP JUMP JUMPDEST PUSH1 0xB SLOAD PUSH1 0x1 PUSH1 0x1 PUSH1 0xA0 SHL SUB AND CALLER EQ PUSH2 0x6D4 JUMPI PUSH1 0x40 MLOAD PUSH3 0x461BCD PUSH1 0xE5 SHL DUP2 MSTORE PUSH1 0x4 ADD PUSH2 0x5F9 SWAP1 PUSH2 0x325B JUMP JUMPDEST PUSH1 0x0 NOT DUP2 EQ ISZERO PUSH2 0x706 JUMPI POP PUSH1 0x1 PUSH1 0x1 PUSH1 0xA0 SHL SUB DUP1 DUP3 AND PUSH1 0x0 SWAP1 DUP2 MSTORE PUSH1 0xA PUSH1 0x20 SWAP1 DUP2 MSTORE PUSH1 0x40 DUP1 DUP4 KECCAK256 SWAP4 DUP7 AND DUP4 MSTORE SWAP3 SWAP1 MSTORE KECCAK256 SLOAD JUMPDEST PUSH1 0x1 PUSH1 0x1 PUSH1 0xA0 SHL SUB DUP1 DUP4 AND PUSH1 0x0 SWAP1 DUP2 MSTORE PUSH1 0xA PUSH1 0x20 SWAP1 DUP2 MSTORE PUSH1 0x40 DUP1 DUP4 KECCAK256 SWAP4 DUP8 AND DUP4 MSTORE SWAP3 SWAP1 MSTORE KECCAK256 SLOAD DUP2 GT ISZERO PUSH2 0x738 JUMPI PUSH1 0x0 DUP1 REVERT JUMPDEST PUSH1 0x1 PUSH1 0x1 PUSH1 0xA0 SHL SUB DUP1 DUP4 AND PUSH1 0x0 SWAP1 DUP2 MSTORE PUSH1 0xA PUSH1 0x20 SWAP1 DUP2 MSTORE PUSH1 0x40 DUP1 DUP4 KECCAK256 SWAP4 DUP8 AND DUP4 MSTORE SWAP3 SWAP1 MSTORE SWAP1 DUP2 KECCAK256 DUP1 SLOAD DUP4 SWAP3 SWAP1 PUSH2 0x76F SWAP1 DUP5 SWAP1 PUSH2 0x32A8 JUMP JUMPDEST SWAP1 SWAP2 SSTORE POP PUSH2 0x789 SWAP1 POP PUSH1 0x1 PUSH1 0x1 PUSH1 0xA0 SHL SUB DUP5 AND DUP4 DUP4 PUSH2 0x273F JUMP JUMPDEST PUSH1 0x40 DUP1 MLOAD PUSH1 0x1 PUSH1 0x1 PUSH1 0xA0 SHL SUB DUP1 DUP7 AND DUP3 MSTORE DUP5 AND PUSH1 0x20 DUP3 ADD MSTORE SWAP1 DUP2 ADD DUP3 SWAP1 MSTORE PUSH32 0x42856D0378DDE02337BB59AE41747ABC77DED8EBDBBC5CBDD1E53693B7554938 SWAP1 PUSH1 0x60 ADD JUMPDEST PUSH1 0x40 MLOAD DUP1 SWAP2 SUB SWAP1 LOG1 POP POP POP JUMP JUMPDEST PUSH1 0x0 SLOAD PUSH1 0x1 PUSH1 0x1 PUSH1 0xA0 SHL SUB AND CALLER EQ PUSH2 0x804 JUMPI PUSH1 0x40 MLOAD PUSH3 0x461BCD PUSH1 0xE5 SHL DUP2 MSTORE PUSH1 0x4 ADD PUSH2 0x5F9 SWAP1 PUSH2 0x3226 JUMP JUMPDEST DUP2 ISZERO PUSH2 0x8C7 JUMPI PUSH1 0x1 PUSH1 0x1 PUSH1 0xA0 SHL SUB DUP4 AND ISZERO ISZERO DUP1 PUSH2 0x81E JUMPI POP DUP1 JUMPDEST PUSH2 0x862 JUMPI PUSH1 0x40 MLOAD PUSH3 0x461BCD PUSH1 0xE5 SHL DUP2 MSTORE PUSH1 0x20 PUSH1 0x4 DUP3 ADD MSTORE PUSH1 0x15 PUSH1 0x24 DUP3 ADD MSTORE PUSH21 0x4F776E61626C653A207A65726F2061646472657373 PUSH1 0x58 SHL PUSH1 0x44 DUP3 ADD MSTORE PUSH1 0x64 ADD PUSH2 0x5F9 JUMP JUMPDEST PUSH1 0x0 DUP1 SLOAD PUSH1 0x40 MLOAD PUSH1 0x1 PUSH1 0x1 PUSH1 0xA0 SHL SUB DUP1 DUP8 AND SWAP4 SWAP3 AND SWAP2 PUSH32 0x8BE0079C531659141344CD1FD0A4F28419497F9722A3DAAFE3B4186F6B6457E0 SWAP2 LOG3 PUSH1 0x0 DUP1 SLOAD PUSH1 0x1 PUSH1 0x1 PUSH1 0xA0 SHL SUB DUP6 AND PUSH1 0x1 PUSH1 0x1 PUSH1 0xA0 SHL SUB NOT SWAP2 DUP3 AND OR SWAP1 SWAP2 SSTORE PUSH1 0x1 DUP1 SLOAD SWAP1 SWAP2 AND SWAP1 SSTORE POP POP POP JUMP JUMPDEST PUSH1 0x1 DUP1 SLOAD PUSH1 0x1 PUSH1 0x1 PUSH1 0xA0 SHL SUB NOT AND PUSH1 0x1 PUSH1 0x1 PUSH1 0xA0 SHL SUB DUP6 AND OR SWAP1 SSTORE JUMPDEST POP POP POP JUMP JUMPDEST PUSH1 0x0 SLOAD PUSH1 0x1 PUSH1 0x1 PUSH1 0xA0 SHL SUB AND CALLER EQ PUSH2 0x912 JUMPI PUSH1 0x40 MLOAD PUSH3 0x461BCD PUSH1 0xE5 SHL DUP2 MSTORE PUSH1 0x4 ADD PUSH2 0x5F9 SWAP1 PUSH2 0x3226 JUMP JUMPDEST PUSH1 0x2 DUP1 SLOAD PUSH1 0x1 PUSH1 0x1 PUSH1 0xA0 SHL SUB DUP4 DUP2 AND PUSH1 0x1 PUSH1 0x1 PUSH1 0xA0 SHL SUB NOT DUP4 AND DUP2 OR SWAP1 SWAP4 SSTORE PUSH1 0x40 MLOAD SWAP2 AND SWAP2 SWAP1 DUP3 SWAP1 PUSH32 0x663B68B5AF2A0E03896087ED63BE09D5FAD83E3E22116394236B5BC7A78370DE SWAP1 PUSH1 0x0 SWAP1 LOG3 POP POP JUMP JUMPDEST PUSH1 0x60 PUSH1 0x0 DUP3 PUSH1 0x1 PUSH1 0x1 PUSH1 0xA0 SHL SUB AND PUSH4 0x963C94B9 PUSH1 0x40 MLOAD DUP2 PUSH4 0xFFFFFFFF AND PUSH1 0xE0 SHL DUP2 MSTORE PUSH1 0x4 ADD PUSH1 0x20 PUSH1 0x40 MLOAD DUP1 DUP4 SUB DUP2 DUP7 GAS STATICCALL ISZERO DUP1 ISZERO PUSH2 0x9A6 JUMPI RETURNDATASIZE PUSH1 0x0 DUP1 RETURNDATACOPY RETURNDATASIZE PUSH1 0x0 REVERT JUMPDEST POP POP POP POP PUSH1 0x40 MLOAD RETURNDATASIZE PUSH1 0x1F NOT PUSH1 0x1F DUP3 ADD AND DUP3 ADD DUP1 PUSH1 0x40 MSTORE POP DUP2 ADD SWAP1 PUSH2 0x9CA SWAP2 SWAP1 PUSH2 0x32BF JUMP JUMPDEST SWAP1 POP DUP1 PUSH1 0x1 PUSH1 0x1 PUSH1 0x40 SHL SUB DUP2 GT ISZERO PUSH2 0x9E4 JUMPI PUSH2 0x9E4 PUSH2 0x2CBC JUMP JUMPDEST PUSH1 0x40 MLOAD SWAP1 DUP1 DUP3 MSTORE DUP1 PUSH1 0x20 MUL PUSH1 0x20 ADD DUP3 ADD PUSH1 0x40 MSTORE DUP1 ISZERO PUSH2 0xA0D JUMPI DUP2 PUSH1 0x20 ADD PUSH1 0x20 DUP3 MUL DUP1 CALLDATASIZE DUP4 CALLDATACOPY ADD SWAP1 POP JUMPDEST POP SWAP2 POP PUSH1 0x0 JUMPDEST DUP2 DUP2 LT ISZERO PUSH2 0xAC0 JUMPI PUSH1 0x40 MLOAD PUSH4 0x54C49FE9 PUSH1 0xE0 SHL DUP2 MSTORE PUSH1 0x4 DUP2 ADD DUP3 SWAP1 MSTORE PUSH1 0x1 PUSH1 0x1 PUSH1 0xA0 SHL SUB DUP6 AND SWAP1 PUSH4 0x54C49FE9 SWAP1 PUSH1 0x24 ADD PUSH1 0x20 PUSH1 0x40 MLOAD DUP1 DUP4 SUB DUP2 DUP7 GAS STATICCALL ISZERO DUP1 ISZERO PUSH2 0xA60 JUMPI RETURNDATASIZE PUSH1 0x0 DUP1 RETURNDATACOPY RETURNDATASIZE PUSH1 0x0 REVERT JUMPDEST POP POP POP POP PUSH1 0x40 MLOAD RETURNDATASIZE PUSH1 0x1F NOT PUSH1 0x1F DUP3 ADD AND DUP3 ADD DUP1 PUSH1 0x40 MSTORE POP DUP2 ADD SWAP1 PUSH2 0xA84 SWAP2 SWAP1 PUSH2 0x32D8 JUMP JUMPDEST DUP4 DUP3 DUP2 MLOAD DUP2 LT PUSH2 0xA96 JUMPI PUSH2 0xA96 PUSH2 0x32F5 JUMP JUMPDEST PUSH1 0x1 PUSH1 0x1 PUSH1 0xA0 SHL SUB SWAP1 SWAP3 AND PUSH1 0x20 SWAP3 DUP4 MUL SWAP2 SWAP1 SWAP2 ADD SWAP1 SWAP2 ADD MSTORE DUP1 PUSH2 0xAB8 DUP2 PUSH2 0x330B JUMP JUMPDEST SWAP2 POP POP PUSH2 0xA13 JUMP JUMPDEST POP POP SWAP2 SWAP1 POP JUMP JUMPDEST PUSH1 0xB SLOAD PUSH1 0x60 SWAP1 DUP2 SWAP1 PUSH1 0x1 PUSH1 0x1 PUSH1 0xA0 SHL SUB AND CALLER EQ PUSH2 0xAF6 JUMPI PUSH1 0x40 MLOAD PUSH3 0x461BCD PUSH1 0xE5 SHL DUP2 MSTORE PUSH1 0x4 ADD PUSH2 0x5F9 SWAP1 PUSH2 0x325B JUMP JUMPDEST PUSH1 0x0 DUP5 PUSH1 0x1 PUSH1 0x1 PUSH1 0xA0 SHL SUB AND PUSH4 0x963C94B9 PUSH1 0x40 MLOAD DUP2 PUSH4 0xFFFFFFFF AND PUSH1 0xE0 SHL DUP2 MSTORE PUSH1 0x4 ADD PUSH1 0x20 PUSH1 0x40 MLOAD DUP1 DUP4 SUB DUP2 DUP7 GAS STATICCALL ISZERO DUP1 ISZERO PUSH2 0xB36 JUMPI RETURNDATASIZE PUSH1 0x0 DUP1 RETURNDATACOPY RETURNDATASIZE PUSH1 0x0 REVERT JUMPDEST POP POP POP POP PUSH1 0x40 MLOAD RETURNDATASIZE PUSH1 0x1F NOT PUSH1 0x1F DUP3 ADD AND DUP3 ADD DUP1 PUSH1 0x40 MSTORE POP DUP2 ADD SWAP1 PUSH2 0xB5A SWAP2 SWAP1 PUSH2 0x32BF JUMP JUMPDEST SWAP1 POP DUP1 PUSH1 0x1 PUSH1 0x1 PUSH1 0x40 SHL SUB DUP2 GT ISZERO PUSH2 0xB74 JUMPI PUSH2 0xB74 PUSH2 0x2CBC JUMP JUMPDEST PUSH1 0x40 MLOAD SWAP1 DUP1 DUP3 MSTORE DUP1 PUSH1 0x20 MUL PUSH1 0x20 ADD DUP3 ADD PUSH1 0x40 MSTORE DUP1 ISZERO PUSH2 0xB9D JUMPI DUP2 PUSH1 0x20 ADD PUSH1 0x20 DUP3 MUL DUP1 CALLDATASIZE DUP4 CALLDATACOPY ADD SWAP1 POP JUMPDEST POP SWAP3 POP PUSH1 0x0 DUP2 PUSH1 0x1 PUSH1 0x1 PUSH1 0x40 SHL SUB DUP2 GT ISZERO PUSH2 0xBBA JUMPI PUSH2 0xBBA PUSH2 0x2CBC JUMP JUMPDEST PUSH1 0x40 MLOAD SWAP1 DUP1 DUP3 MSTORE DUP1 PUSH1 0x20 MUL PUSH1 0x20 ADD DUP3 ADD PUSH1 0x40 MSTORE DUP1 ISZERO PUSH2 0xBE3 JUMPI DUP2 PUSH1 0x20 ADD PUSH1 0x20 DUP3 MUL DUP1 CALLDATASIZE DUP4 CALLDATACOPY ADD SWAP1 POP JUMPDEST POP SWAP1 POP PUSH1 0x0 JUMPDEST DUP3 DUP2 LT ISZERO PUSH2 0xD41 JUMPI PUSH1 0x40 MLOAD PUSH4 0x54C49FE9 PUSH1 0xE0 SHL DUP2 MSTORE PUSH1 0x4 DUP2 ADD DUP3 SWAP1 MSTORE PUSH1 0x1 PUSH1 0x1 PUSH1 0xA0 SHL SUB DUP9 AND SWAP1 PUSH4 0x54C49FE9 SWAP1 PUSH1 0x24 ADD PUSH1 0x20 PUSH1 0x40 MLOAD DUP1 DUP4 SUB DUP2 DUP7 GAS STATICCALL ISZERO DUP1 ISZERO PUSH2 0xC36 JUMPI RETURNDATASIZE PUSH1 0x0 DUP1 RETURNDATACOPY RETURNDATASIZE PUSH1 0x0 REVERT JUMPDEST POP POP POP POP PUSH1 0x40 MLOAD RETURNDATASIZE PUSH1 0x1F NOT PUSH1 0x1F DUP3 ADD AND DUP3 ADD DUP1 PUSH1 0x40 MSTORE POP DUP2 ADD SWAP1 PUSH2 0xC5A SWAP2 SWAP1 PUSH2 0x32D8 JUMP JUMPDEST DUP6 DUP3 DUP2 MLOAD DUP2 LT PUSH2 0xC6C JUMPI PUSH2 0xC6C PUSH2 0x32F5 JUMP JUMPDEST PUSH1 0x20 MUL PUSH1 0x20 ADD ADD SWAP1 PUSH1 0x1 PUSH1 0x1 PUSH1 0xA0 SHL SUB AND SWAP1 DUP2 PUSH1 0x1 PUSH1 0x1 PUSH1 0xA0 SHL SUB AND DUP2 MSTORE POP POP DUP5 DUP2 DUP2 MLOAD DUP2 LT PUSH2 0xC9E JUMPI PUSH2 0xC9E PUSH2 0x32F5 JUMP JUMPDEST PUSH1 0x20 SWAP1 DUP2 MUL SWAP2 SWAP1 SWAP2 ADD ADD MLOAD PUSH1 0x40 MLOAD PUSH4 0x70A08231 PUSH1 0xE0 SHL DUP2 MSTORE ADDRESS PUSH1 0x4 DUP3 ADD MSTORE PUSH1 0x1 PUSH1 0x1 PUSH1 0xA0 SHL SUB SWAP1 SWAP2 AND SWAP1 PUSH4 0x70A08231 SWAP1 PUSH1 0x24 ADD PUSH1 0x20 PUSH1 0x40 MLOAD DUP1 DUP4 SUB DUP2 DUP7 GAS STATICCALL ISZERO DUP1 ISZERO PUSH2 0xCEE JUMPI RETURNDATASIZE PUSH1 0x0 DUP1 RETURNDATACOPY RETURNDATASIZE PUSH1 0x0 REVERT JUMPDEST POP POP POP POP PUSH1 0x40 MLOAD RETURNDATASIZE PUSH1 0x1F NOT PUSH1 0x1F DUP3 ADD AND DUP3 ADD DUP1 PUSH1 0x40 MSTORE POP DUP2 ADD SWAP1 PUSH2 0xD12 SWAP2 SWAP1 PUSH2 0x32BF JUMP JUMPDEST DUP3 DUP3 DUP2 MLOAD DUP2 LT PUSH2 0xD24 JUMPI PUSH2 0xD24 PUSH2 0x32F5 JUMP JUMPDEST PUSH1 0x20 SWAP1 DUP2 MUL SWAP2 SWAP1 SWAP2 ADD ADD MSTORE DUP1 PUSH2 0xD39 DUP2 PUSH2 0x330B JUMP JUMPDEST SWAP2 POP POP PUSH2 0xBE9 JUMP JUMPDEST POP DUP6 PUSH1 0x1 PUSH1 0x1 PUSH1 0xA0 SHL SUB AND PUSH4 0xE6F1DAF2 PUSH1 0x40 MLOAD DUP2 PUSH4 0xFFFFFFFF AND PUSH1 0xE0 SHL DUP2 MSTORE PUSH1 0x4 ADD PUSH1 0x0 PUSH1 0x40 MLOAD DUP1 DUP4 SUB DUP2 PUSH1 0x0 DUP8 DUP1 EXTCODESIZE ISZERO DUP1 ISZERO PUSH2 0xD7D JUMPI PUSH1 0x0 DUP1 REVERT JUMPDEST POP GAS CALL ISZERO DUP1 ISZERO PUSH2 0xD91 JUMPI RETURNDATASIZE PUSH1 0x0 DUP1 RETURNDATACOPY RETURNDATASIZE PUSH1 0x0 REVERT JUMPDEST POP POP POP POP DUP2 PUSH1 0x1 PUSH1 0x1 PUSH1 0x40 SHL SUB DUP2 GT ISZERO PUSH2 0xDAD JUMPI PUSH2 0xDAD PUSH2 0x2CBC JUMP JUMPDEST PUSH1 0x40 MLOAD SWAP1 DUP1 DUP3 MSTORE DUP1 PUSH1 0x20 MUL PUSH1 0x20 ADD DUP3 ADD PUSH1 0x40 MSTORE DUP1 ISZERO PUSH2 0xDD6 JUMPI DUP2 PUSH1 0x20 ADD PUSH1 0x20 DUP3 MUL DUP1 CALLDATASIZE DUP4 CALLDATACOPY ADD SWAP1 POP JUMPDEST POP SWAP3 POP PUSH1 0x0 JUMPDEST DUP3 DUP2 LT ISZERO PUSH2 0xF0E JUMPI DUP2 DUP2 DUP2 MLOAD DUP2 LT PUSH2 0xDF6 JUMPI PUSH2 0xDF6 PUSH2 0x32F5 JUMP JUMPDEST PUSH1 0x20 MUL PUSH1 0x20 ADD ADD MLOAD DUP6 DUP3 DUP2 MLOAD DUP2 LT PUSH2 0xE10 JUMPI PUSH2 0xE10 PUSH2 0x32F5 JUMP JUMPDEST PUSH1 0x20 SWAP1 DUP2 MUL SWAP2 SWAP1 SWAP2 ADD ADD MLOAD PUSH1 0x40 MLOAD PUSH4 0x70A08231 PUSH1 0xE0 SHL DUP2 MSTORE ADDRESS PUSH1 0x4 DUP3 ADD MSTORE PUSH1 0x1 PUSH1 0x1 PUSH1 0xA0 SHL SUB SWAP1 SWAP2 AND SWAP1 PUSH4 0x70A08231 SWAP1 PUSH1 0x24 ADD PUSH1 0x20 PUSH1 0x40 MLOAD DUP1 DUP4 SUB DUP2 DUP7 GAS STATICCALL ISZERO DUP1 ISZERO PUSH2 0xE60 JUMPI RETURNDATASIZE PUSH1 0x0 DUP1 RETURNDATACOPY RETURNDATASIZE PUSH1 0x0 REVERT JUMPDEST POP POP POP POP PUSH1 0x40 MLOAD RETURNDATASIZE PUSH1 0x1F NOT PUSH1 0x1F DUP3 ADD AND DUP3 ADD DUP1 PUSH1 0x40 MSTORE POP DUP2 ADD SWAP1 PUSH2 0xE84 SWAP2 SWAP1 PUSH2 0x32BF JUMP JUMPDEST PUSH2 0xE8E SWAP2 SWAP1 PUSH2 0x32A8 JUMP JUMPDEST DUP5 DUP3 DUP2 MLOAD DUP2 LT PUSH2 0xEA0 JUMPI PUSH2 0xEA0 PUSH2 0x32F5 JUMP JUMPDEST PUSH1 0x20 MUL PUSH1 0x20 ADD ADD DUP2 DUP2 MSTORE POP POP PUSH2 0xEFC DUP7 DUP6 DUP4 DUP2 MLOAD DUP2 LT PUSH2 0xEC2 JUMPI PUSH2 0xEC2 PUSH2 0x32F5 JUMP JUMPDEST PUSH1 0x20 MUL PUSH1 0x20 ADD ADD MLOAD DUP8 DUP5 DUP2 MLOAD DUP2 LT PUSH2 0xEDC JUMPI PUSH2 0xEDC PUSH2 0x32F5 JUMP JUMPDEST PUSH1 0x20 MUL PUSH1 0x20 ADD ADD MLOAD PUSH1 0x1 PUSH1 0x1 PUSH1 0xA0 SHL SUB AND PUSH2 0x273F SWAP1 SWAP3 SWAP2 SWAP1 PUSH4 0xFFFFFFFF AND JUMP JUMPDEST DUP1 PUSH2 0xF06 DUP2 PUSH2 0x330B JUMP JUMPDEST SWAP2 POP POP PUSH2 0xDDC JUMP JUMPDEST POP PUSH32 0x103F18D14B140CDC75587725B97760015CF5DA524676B3769175951295BEF97 DUP5 DUP5 PUSH1 0x40 MLOAD PUSH2 0xF40 SWAP3 SWAP2 SWAP1 PUSH2 0x2C7E JUMP JUMPDEST PUSH1 0x40 MLOAD DUP1 SWAP2 SUB SWAP1 LOG1 POP POP SWAP3 POP SWAP3 SWAP1 POP JUMP JUMPDEST PUSH1 0x0 DUP1 SLOAD PUSH1 0x1 PUSH1 0x1 PUSH1 0xA0 SHL SUB AND CALLER EQ PUSH2 0xF7C JUMPI PUSH1 0x40 MLOAD PUSH3 0x461BCD PUSH1 0xE5 SHL DUP2 MSTORE PUSH1 0x4 ADD PUSH2 0x5F9 SWAP1 PUSH2 0x3226 JUMP JUMPDEST PUSH1 0x40 MLOAD PUSH4 0x3EAF40F1 PUSH1 0xE1 SHL DUP2 MSTORE PUSH1 0x0 SWAP1 PUSH1 0x1 PUSH1 0x1 PUSH1 0xA0 SHL SUB DUP9 AND SWAP1 PUSH4 0x7D5E81E2 SWAP1 PUSH2 0xFB1 SWAP1 DUP10 SWAP1 DUP10 SWAP1 DUP10 SWAP1 DUP10 SWAP1 PUSH1 0x4 ADD PUSH2 0x33D3 JUMP JUMPDEST PUSH1 0x20 PUSH1 0x40 MLOAD DUP1 DUP4 SUB DUP2 PUSH1 0x0 DUP8 GAS CALL ISZERO DUP1 ISZERO PUSH2 0xFD0 JUMPI RETURNDATASIZE PUSH1 0x0 DUP1 RETURNDATACOPY RETURNDATASIZE PUSH1 0x0 REVERT JUMPDEST POP POP POP POP PUSH1 0x40 MLOAD RETURNDATASIZE PUSH1 0x1F NOT PUSH1 0x1F DUP3 ADD AND DUP3 ADD DUP1 PUSH1 0x40 MSTORE POP DUP2 ADD SWAP1 PUSH2 0xFF4 SWAP2 SWAP1 PUSH2 0x32BF JUMP JUMPDEST SWAP1 POP DUP7 PUSH1 0x1 PUSH1 0x1 PUSH1 0xA0 SHL SUB AND PUSH32 0x47933B4D6D5561046580F25334035991926E1531252EDFC5F6FAA07BB9DE2D2 DUP3 PUSH1 0x40 MLOAD PUSH2 0x1031 SWAP2 DUP2 MSTORE PUSH1 0x20 ADD SWAP1 JUMP JUMPDEST PUSH1 0x40 MLOAD DUP1 SWAP2 SUB SWAP1 LOG2 SWAP7 SWAP6 POP POP POP POP POP POP JUMP JUMPDEST PUSH1 0xB SLOAD PUSH1 0x0 SWAP1 PUSH1 0x1 PUSH1 0x1 PUSH1 0xA0 SHL SUB AND CALLER EQ PUSH2 0x1070 JUMPI PUSH1 0x40 MLOAD PUSH3 0x461BCD PUSH1 0xE5 SHL DUP2 MSTORE PUSH1 0x4 ADD PUSH2 0x5F9 SWAP1 PUSH2 0x325B JUMP JUMPDEST PUSH1 0x40 MLOAD PUSH4 0x70A08231 PUSH1 0xE0 SHL DUP2 MSTORE ADDRESS PUSH1 0x4 DUP3 ADD MSTORE PUSH1 0x0 SWAP1 PUSH32 0x0 PUSH1 0x1 PUSH1 0x1 PUSH1 0xA0 SHL SUB AND SWAP1 PUSH4 0x70A08231 SWAP1 PUSH1 0x24 ADD PUSH1 0x20 PUSH1 0x40 MLOAD DUP1 DUP4 SUB DUP2 DUP7 GAS STATICCALL ISZERO DUP1 ISZERO PUSH2 0x10D7 JUMPI RETURNDATASIZE PUSH1 0x0 DUP1 RETURNDATACOPY RETURNDATASIZE PUSH1 0x0 REVERT JUMPDEST POP POP POP POP PUSH1 0x40 MLOAD RETURNDATASIZE PUSH1 0x1F NOT PUSH1 0x1F DUP3 ADD AND DUP3 ADD DUP1 PUSH1 0x40 MSTORE POP DUP2 ADD SWAP1 PUSH2 0x10FB SWAP2 SWAP1 PUSH2 0x32BF JUMP JUMPDEST PUSH1 0x40 MLOAD PUSH4 0x35313C21 PUSH1 0xE1 SHL DUP2 MSTORE PUSH1 0x1 PUSH1 0x1 PUSH1 0xA0 SHL SUB DUP7 DUP2 AND PUSH1 0x4 DUP4 ADD MSTORE SWAP2 SWAP3 POP PUSH32 0x0 SWAP1 SWAP2 AND SWAP1 PUSH4 0x6A627842 SWAP1 PUSH1 0x24 ADD PUSH1 0x0 PUSH1 0x40 MLOAD DUP1 DUP4 SUB DUP2 PUSH1 0x0 DUP8 DUP1 EXTCODESIZE ISZERO DUP1 ISZERO PUSH2 0x1163 JUMPI PUSH1 0x0 DUP1 REVERT JUMPDEST POP GAS CALL ISZERO DUP1 ISZERO PUSH2 0x1177 JUMPI RETURNDATASIZE PUSH1 0x0 DUP1 RETURNDATACOPY RETURNDATASIZE PUSH1 0x0 REVERT JUMPDEST POP POP PUSH1 0x40 MLOAD PUSH4 0x70A08231 PUSH1 0xE0 SHL DUP2 MSTORE ADDRESS PUSH1 0x4 DUP3 ADD MSTORE PUSH1 0x0 SWAP3 POP PUSH32 0x0 PUSH1 0x1 PUSH1 0x1 PUSH1 0xA0 SHL SUB AND SWAP2 POP PUSH4 0x70A08231 SWAP1 PUSH1 0x24 ADD PUSH1 0x20 PUSH1 0x40 MLOAD DUP1 DUP4 SUB DUP2 DUP7 GAS STATICCALL ISZERO DUP1 ISZERO PUSH2 0x11E2 JUMPI RETURNDATASIZE PUSH1 0x0 DUP1 RETURNDATACOPY RETURNDATASIZE PUSH1 0x0 REVERT JUMPDEST POP POP POP POP PUSH1 0x40 MLOAD RETURNDATASIZE PUSH1 0x1F NOT PUSH1 0x1F DUP3 ADD AND DUP3 ADD DUP1 PUSH1 0x40 MSTORE POP DUP2 ADD SWAP1 PUSH2 0x1206 SWAP2 SWAP1 PUSH2 0x32BF JUMP JUMPDEST SWAP1 POP PUSH2 0x1212 DUP3 DUP3 PUSH2 0x32A8 JUMP JUMPDEST SWAP3 POP PUSH2 0x1248 PUSH1 0x1 PUSH1 0x1 PUSH1 0xA0 SHL SUB PUSH32 0x0 AND DUP6 DUP6 PUSH2 0x273F JUMP JUMPDEST PUSH1 0x40 MLOAD DUP4 DUP2 MSTORE PUSH32 0x7E191E2DEC92DBB0F5C5DB0454AD5381EF8CF019710257827D54F4A987C5C3BF SWAP1 PUSH1 0x20 ADD PUSH1 0x40 MLOAD DUP1 SWAP2 SUB SWAP1 LOG1 POP POP SWAP3 SWAP2 POP POP JUMP JUMPDEST PUSH1 0x1 SLOAD PUSH1 0x1 PUSH1 0x1 PUSH1 0xA0 SHL SUB AND CALLER DUP2 EQ PUSH2 0x12DE JUMPI PUSH1 0x40 MLOAD PUSH3 0x461BCD PUSH1 0xE5 SHL DUP2 MSTORE PUSH1 0x20 PUSH1 0x4 DUP3 ADD DUP2 SWAP1 MSTORE PUSH1 0x24 DUP3 ADD MSTORE PUSH32 0x4F776E61626C653A2063616C6C657220213D2070656E64696E67206F776E6572 PUSH1 0x44 DUP3 ADD MSTORE PUSH1 0x64 ADD PUSH2 0x5F9 JUMP JUMPDEST PUSH1 0x0 DUP1 SLOAD PUSH1 0x40 MLOAD PUSH1 0x1 PUSH1 0x1 PUSH1 0xA0 SHL SUB DUP1 DUP6 AND SWAP4 SWAP3 AND SWAP2 PUSH32 0x8BE0079C531659141344CD1FD0A4F28419497F9722A3DAAFE3B4186F6B6457E0 SWAP2 LOG3 PUSH1 0x0 DUP1 SLOAD PUSH1 0x1 PUSH1 0x1 PUSH1 0xA0 SHL SUB SWAP1 SWAP3 AND PUSH1 0x1 PUSH1 0x1 PUSH1 0xA0 SHL SUB NOT SWAP3 DUP4 AND OR SWAP1 SSTORE PUSH1 0x1 DUP1 SLOAD SWAP1 SWAP2 AND SWAP1 SSTORE JUMP JUMPDEST PUSH1 0x0 SLOAD PUSH1 0x1 PUSH1 0x1 PUSH1 0xA0 SHL SUB AND CALLER EQ PUSH2 0x136A JUMPI PUSH1 0x40 MLOAD PUSH3 0x461BCD PUSH1 0xE5 SHL DUP2 MSTORE PUSH1 0x4 ADD PUSH2 0x5F9 SWAP1 PUSH2 0x3226 JUMP JUMPDEST PUSH1 0x5 DUP2 SWAP1 SSTORE PUSH1 0x40 MLOAD DUP2 DUP2 MSTORE PUSH32 0x3E062F634A950EAE456FA5F8FB53A4F59F55039983BD73DF7A34A313B75443D4 SWAP1 PUSH1 0x20 ADD JUMPDEST PUSH1 0x40 MLOAD DUP1 SWAP2 SUB SWAP1 LOG1 POP JUMP JUMPDEST PUSH1 0x0 SLOAD PUSH1 0x1 PUSH1 0x1 PUSH1 0xA0 SHL SUB AND CALLER EQ PUSH2 0x13D0 JUMPI PUSH1 0x40 MLOAD PUSH3 0x461BCD PUSH1 0xE5 SHL DUP2 MSTORE PUSH1 0x4 ADD PUSH2 0x5F9 SWAP1 PUSH2 0x3226 JUMP JUMPDEST PUSH1 0xB SLOAD PUSH1 0x1 PUSH1 0x1 PUSH1 0xA0 SHL SUB DUP3 DUP2 AND SWAP2 AND EQ ISZERO PUSH2 0x141D JUMPI PUSH1 0x40 MLOAD PUSH3 0x461BCD PUSH1 0xE5 SHL DUP2 MSTORE PUSH1 0x20 PUSH1 0x4 DUP3 ADD MSTORE PUSH1 0xC PUSH1 0x24 DUP3 ADD MSTORE PUSH12 0x29B0B6B29036B0B730B3B2B9 PUSH1 0xA1 SHL PUSH1 0x44 DUP3 ADD MSTORE PUSH1 0x64 ADD PUSH2 0x5F9 JUMP JUMPDEST PUSH1 0xB DUP1 SLOAD PUSH1 0x1 PUSH1 0x1 PUSH1 0xA0 SHL SUB DUP4 DUP2 AND PUSH1 0x1 PUSH1 0x1 PUSH1 0xA0 SHL SUB NOT DUP4 AND DUP2 OR SWAP1 SWAP4 SSTORE PUSH1 0x40 MLOAD SWAP2 AND SWAP2 SWAP1 DUP3 SWAP1 PUSH32 0xA257970EE8F80640393E43CF0C62F811B0939A842D7188CD26AF679A8C86E1DE SWAP1 PUSH1 0x0 SWAP1 LOG3 POP POP JUMP JUMPDEST PUSH1 0x6 SLOAD PUSH1 0x40 MLOAD PUSH4 0xCBF9FE5F PUSH1 0xE0 SHL DUP2 MSTORE ADDRESS PUSH1 0x4 DUP3 ADD MSTORE PUSH1 0x0 SWAP2 PUSH1 0x1 PUSH1 0x1 PUSH1 0xA0 SHL SUB AND SWAP1 PUSH4 0xCBF9FE5F SWAP1 PUSH1 0x24 ADD PUSH1 0x20 PUSH1 0x40 MLOAD DUP1 DUP4 SUB DUP2 DUP7 GAS STATICCALL ISZERO DUP1 ISZERO PUSH2 0x14B8 JUMPI RETURNDATASIZE PUSH1 0x0 DUP1 RETURNDATACOPY RETURNDATASIZE PUSH1 0x0 REVERT JUMPDEST POP POP POP POP PUSH1 0x40 MLOAD RETURNDATASIZE PUSH1 0x1F NOT PUSH1 0x1F DUP3 ADD AND DUP3 ADD DUP1 PUSH1 0x40 MSTORE POP DUP2 ADD SWAP1 PUSH2 0x14DC SWAP2 SWAP1 PUSH2 0x32BF JUMP JUMPDEST PUSH1 0x7 SLOAD PUSH1 0x40 MLOAD PUSH4 0x70A08231 PUSH1 0xE0 SHL DUP2 MSTORE ADDRESS PUSH1 0x4 DUP3 ADD MSTORE PUSH1 0x1 PUSH1 0x1 PUSH1 0xA0 SHL SUB SWAP1 SWAP2 AND SWAP1 PUSH4 0x70A08231 SWAP1 PUSH1 0x24 ADD PUSH1 0x20 PUSH1 0x40 MLOAD DUP1 DUP4 SUB DUP2 DUP7 GAS STATICCALL ISZERO DUP1 ISZERO PUSH2 0x1524 JUMPI RETURNDATASIZE PUSH1 0x0 DUP1 RETURNDATACOPY RETURNDATASIZE PUSH1 0x0 REVERT JUMPDEST POP POP POP POP PUSH1 0x40 MLOAD RETURNDATASIZE PUSH1 0x1F NOT PUSH1 0x1F DUP3 ADD AND DUP3 ADD DUP1 PUSH1 0x40 MSTORE POP DUP2 ADD SWAP1 PUSH2 0x1548 SWAP2 SWAP1 PUSH2 0x32BF JUMP JUMPDEST PUSH2 0x1552 SWAP2 SWAP1 PUSH2 0x3420 JUMP JUMPDEST SWAP1 POP SWAP1 JUMP JUMPDEST PUSH1 0x0 SLOAD PUSH1 0x1 PUSH1 0x1 PUSH1 0xA0 SHL SUB AND CALLER EQ PUSH2 0x1581 JUMPI PUSH1 0x40 MLOAD PUSH3 0x461BCD PUSH1 0xE5 SHL DUP2 MSTORE PUSH1 0x4 ADD PUSH2 0x5F9 SWAP1 PUSH2 0x3226 JUMP JUMPDEST PUSH1 0x4 DUP1 SLOAD PUSH1 0x2 SLOAD PUSH1 0x3 SLOAD PUSH1 0x40 MLOAD PUSH4 0x785F6DF1 PUSH1 0xE1 SHL DUP2 MSTORE SWAP4 DUP5 ADD MSTORE PUSH1 0x1 PUSH1 0x1 PUSH1 0xA0 SHL SUB SWAP2 DUP3 AND SWAP3 SWAP2 AND SWAP1 PUSH4 0xF0BEDBE2 SWAP1 PUSH1 0x24 ADD PUSH1 0x0 PUSH1 0x40 MLOAD DUP1 DUP4 SUB DUP2 PUSH1 0x0 DUP8 DUP1 EXTCODESIZE ISZERO DUP1 ISZERO PUSH2 0x15CE JUMPI PUSH1 0x0 DUP1 REVERT JUMPDEST POP GAS CALL ISZERO DUP1 ISZERO PUSH2 0x15E2 JUMPI RETURNDATASIZE PUSH1 0x0 DUP1 RETURNDATACOPY RETURNDATASIZE PUSH1 0x0 REVERT JUMPDEST POP POP PUSH1 0x40 MLOAD PUSH1 0x0 SWAP3 POP PUSH1 0x1 PUSH1 0x1 PUSH1 0xA0 SHL SUB DUP5 AND SWAP2 POP PUSH32 0x4F7BA549B7C7C8ABAB2C58F33F2694510F36C3CA55A80C780DF35835A4431CDB SWAP1 DUP4 SWAP1 LOG3 POP JUMP JUMPDEST PUSH1 0x0 SLOAD PUSH1 0x1 PUSH1 0x1 PUSH1 0xA0 SHL SUB AND CALLER EQ PUSH2 0x1649 JUMPI PUSH1 0x40 MLOAD PUSH3 0x461BCD PUSH1 0xE5 SHL DUP2 MSTORE PUSH1 0x4 ADD PUSH2 0x5F9 SWAP1 PUSH2 0x3226 JUMP JUMPDEST PUSH1 0x6 SLOAD PUSH1 0x1 PUSH1 0x1 PUSH1 0xA0 SHL SUB DUP3 DUP2 AND SWAP2 AND EQ ISZERO PUSH2 0x1696 JUMPI PUSH1 0x40 MLOAD PUSH3 0x461BCD PUSH1 0xE5 SHL DUP2 MSTORE PUSH1 0x20 PUSH1 0x4 DUP3 ADD MSTORE PUSH1 0xC PUSH1 0x24 DUP3 ADD MSTORE PUSH12 0x29B0B6B2902B32AA37B5B2B7 PUSH1 0xA1 SHL PUSH1 0x44 DUP3 ADD MSTORE PUSH1 0x64 ADD PUSH2 0x5F9 JUMP JUMPDEST PUSH1 0x6 DUP1 SLOAD PUSH1 0x1 PUSH1 0x1 PUSH1 0xA0 SHL SUB NOT AND PUSH1 0x1 PUSH1 0x1 PUSH1 0xA0 SHL SUB DUP4 AND SWAP1 DUP2 OR SWAP1 SWAP2 SSTORE PUSH1 0x40 MLOAD SWAP1 DUP2 MSTORE PUSH32 0xA1C3CF7BF4208F773AFA5E259D7BDAAD59909B4C5BF62A0C5E4BE44EF47C3313 SWAP1 PUSH1 0x20 ADD PUSH2 0x139B JUMP JUMPDEST PUSH1 0xB SLOAD PUSH1 0x1 PUSH1 0x1 PUSH1 0xA0 SHL SUB AND CALLER EQ PUSH2 0x170E JUMPI PUSH1 0x40 MLOAD PUSH3 0x461BCD PUSH1 0xE5 SHL DUP2 MSTORE PUSH1 0x4 ADD PUSH2 0x5F9 SWAP1 PUSH2 0x325B JUMP JUMPDEST PUSH1 0x40 MLOAD PUSH4 0x4B820093 PUSH1 0xE0 SHL DUP2 MSTORE ADDRESS PUSH1 0x4 DUP3 ADD MSTORE PUSH1 0x1 PUSH1 0x1 PUSH1 0xA0 SHL SUB DUP3 AND SWAP1 PUSH4 0x4B820093 SWAP1 PUSH1 0x24 ADD PUSH1 0x20 PUSH1 0x40 MLOAD DUP1 DUP4 SUB DUP2 PUSH1 0x0 DUP8 GAS CALL ISZERO DUP1 ISZERO PUSH2 0x1754 JUMPI RETURNDATASIZE PUSH1 0x0 DUP1 RETURNDATACOPY RETURNDATASIZE PUSH1 0x0 REVERT JUMPDEST POP POP POP POP PUSH1 0x40 MLOAD RETURNDATASIZE PUSH1 0x1F NOT PUSH1 0x1F DUP3 ADD AND DUP3 ADD DUP1 PUSH1 0x40 MSTORE POP DUP2 ADD SWAP1 PUSH2 0x1778 SWAP2 SWAP1 PUSH2 0x3438 JUMP JUMPDEST ISZERO ISZERO PUSH1 0x1 EQ PUSH2 0x1786 JUMPI PUSH1 0x0 DUP1 REVERT JUMPDEST POP JUMP JUMPDEST PUSH1 0x0 DUP1 SLOAD PUSH1 0x1 PUSH1 0x1 PUSH1 0xA0 SHL SUB AND CALLER EQ PUSH2 0x17B4 JUMPI PUSH1 0x40 MLOAD PUSH3 0x461BCD PUSH1 0xE5 SHL DUP2 MSTORE PUSH1 0x4 ADD PUSH2 0x5F9 SWAP1 PUSH2 0x3226 JUMP JUMPDEST PUSH1 0x40 MLOAD PUSH4 0x6D4AB48D PUSH1 0xE1 SHL DUP2 MSTORE PUSH1 0x0 SWAP1 PUSH1 0x1 PUSH1 0x1 PUSH1 0xA0 SHL SUB DUP10 AND SWAP1 PUSH4 0xDA95691A SWAP1 PUSH2 0x17EB SWAP1 DUP11 SWAP1 DUP11 SWAP1 DUP11 SWAP1 DUP11 SWAP1 DUP11 SWAP1 PUSH1 0x4 ADD PUSH2 0x3455 JUMP JUMPDEST PUSH1 0x20 PUSH1 0x40 MLOAD DUP1 DUP4 SUB DUP2 PUSH1 0x0 DUP8 GAS CALL ISZERO DUP1 ISZERO PUSH2 0x180A JUMPI RETURNDATASIZE PUSH1 0x0 DUP1 RETURNDATACOPY RETURNDATASIZE PUSH1 0x0 REVERT JUMPDEST POP POP POP POP PUSH1 0x40 MLOAD RETURNDATASIZE PUSH1 0x1F NOT PUSH1 0x1F DUP3 ADD AND DUP3 ADD DUP1 PUSH1 0x40 MSTORE POP DUP2 ADD SWAP1 PUSH2 0x182E SWAP2 SWAP1 PUSH2 0x32BF JUMP JUMPDEST SWAP1 POP DUP8 PUSH1 0x1 PUSH1 0x1 PUSH1 0xA0 SHL SUB AND PUSH32 0x47933B4D6D5561046580F25334035991926E1531252EDFC5F6FAA07BB9DE2D2 DUP3 PUSH1 0x40 MLOAD PUSH2 0x186B SWAP2 DUP2 MSTORE PUSH1 0x20 ADD SWAP1 JUMP JUMPDEST PUSH1 0x40 MLOAD DUP1 SWAP2 SUB SWAP1 LOG2 SWAP8 SWAP7 POP POP POP POP POP POP POP JUMP JUMPDEST PUSH1 0x0 DUP1 SLOAD PUSH1 0x1 PUSH1 0x1 PUSH1 0xA0 SHL SUB AND CALLER EQ PUSH2 0x18A9 JUMPI PUSH1 0x40 MLOAD PUSH3 0x461BCD PUSH1 0xE5 SHL DUP2 MSTORE PUSH1 0x4 ADD PUSH2 0x5F9 SWAP1 PUSH2 0x3226 JUMP JUMPDEST PUSH1 0x40 MLOAD PUSH4 0xACF0271 PUSH1 0xE3 SHL DUP2 MSTORE PUSH1 0x4 DUP2 ADD DUP5 SWAP1 MSTORE PUSH1 0xFF DUP4 AND PUSH1 0x24 DUP3 ADD MSTORE PUSH1 0x0 SWAP1 PUSH1 0x1 PUSH1 0x1 PUSH1 0xA0 SHL SUB DUP7 AND SWAP1 PUSH4 0x56781388 SWAP1 PUSH1 0x44 ADD PUSH1 0x20 PUSH1 0x40 MLOAD DUP1 DUP4 SUB DUP2 PUSH1 0x0 DUP8 GAS CALL ISZERO DUP1 ISZERO PUSH2 0x18FC JUMPI RETURNDATASIZE PUSH1 0x0 DUP1 RETURNDATACOPY RETURNDATASIZE PUSH1 0x0 REVERT JUMPDEST POP POP POP POP PUSH1 0x40 MLOAD RETURNDATASIZE PUSH1 0x1F NOT PUSH1 0x1F DUP3 ADD AND DUP3 ADD DUP1 PUSH1 0x40 MSTORE POP DUP2 ADD SWAP1 PUSH2 0x1920 SWAP2 SWAP1 PUSH2 0x32BF JUMP JUMPDEST PUSH1 0x40 DUP1 MLOAD DUP7 DUP2 MSTORE PUSH1 0x20 DUP2 ADD DUP4 SWAP1 MSTORE PUSH1 0xFF DUP7 AND DUP2 DUP4 ADD MSTORE SWAP1 MLOAD SWAP2 SWAP3 POP PUSH1 0x1 PUSH1 0x1 PUSH1 0xA0 SHL SUB DUP8 AND SWAP2 PUSH32 0x2987456CC05C633153FCED1915717C231D4C71E8F934B9C8D5AA6CF656902B67 SWAP2 DUP2 SWAP1 SUB PUSH1 0x60 ADD SWAP1 LOG2 SWAP1 POP JUMPDEST SWAP4 SWAP3 POP POP POP JUMP JUMPDEST PUSH1 0x0 SLOAD PUSH1 0x1 PUSH1 0x1 PUSH1 0xA0 SHL SUB AND CALLER EQ PUSH2 0x19A4 JUMPI PUSH1 0x40 MLOAD PUSH3 0x461BCD PUSH1 0xE5 SHL DUP2 MSTORE PUSH1 0x4 ADD PUSH2 0x5F9 SWAP1 PUSH2 0x3226 JUMP JUMPDEST PUSH1 0x8 SLOAD PUSH1 0x40 MLOAD PUSH4 0x1AE26C65 PUSH1 0xE3 SHL DUP2 MSTORE PUSH1 0x1 PUSH1 0x1 PUSH1 0xA0 SHL SUB DUP5 DUP2 AND PUSH1 0x4 DUP4 ADD MSTORE PUSH1 0x24 DUP3 ADD DUP5 SWAP1 MSTORE SWAP1 SWAP2 AND SWAP1 PUSH4 0xD7136328 SWAP1 PUSH1 0x44 ADD PUSH1 0x0 PUSH1 0x40 MLOAD DUP1 DUP4 SUB DUP2 PUSH1 0x0 DUP8 DUP1 EXTCODESIZE ISZERO DUP1 ISZERO PUSH2 0x19F2 JUMPI PUSH1 0x0 DUP1 REVERT JUMPDEST POP GAS CALL ISZERO DUP1 ISZERO PUSH2 0x1A06 JUMPI RETURNDATASIZE PUSH1 0x0 DUP1 RETURNDATACOPY RETURNDATASIZE PUSH1 0x0 REVERT JUMPDEST POP POP POP POP DUP2 PUSH1 0x1 PUSH1 0x1 PUSH1 0xA0 SHL SUB AND PUSH32 0xE3B48098CA21A7C29BF3F73708857D7B045416AECD8CA27B322A3E1EEE3CEEEF DUP3 PUSH1 0x40 MLOAD PUSH2 0x1A45 SWAP2 DUP2 MSTORE PUSH1 0x20 ADD SWAP1 JUMP JUMPDEST PUSH1 0x40 MLOAD DUP1 SWAP2 SUB SWAP1 LOG2 POP POP JUMP JUMPDEST PUSH1 0x0 SLOAD PUSH1 0x1 PUSH1 0x1 PUSH1 0xA0 SHL SUB AND CALLER EQ PUSH2 0x1A7B JUMPI PUSH1 0x40 MLOAD PUSH3 0x461BCD PUSH1 0xE5 SHL DUP2 MSTORE PUSH1 0x4 ADD PUSH2 0x5F9 SWAP1 PUSH2 0x3226 JUMP JUMPDEST PUSH2 0x1786 DUP2 PUSH2 0x27A2 JUMP JUMPDEST PUSH1 0x0 SLOAD PUSH1 0x1 PUSH1 0x1 PUSH1 0xA0 SHL SUB AND CALLER EQ PUSH2 0x1AAE JUMPI PUSH1 0x40 MLOAD PUSH3 0x461BCD PUSH1 0xE5 SHL DUP2 MSTORE PUSH1 0x4 ADD PUSH2 0x5F9 SWAP1 PUSH2 0x3226 JUMP JUMPDEST PUSH1 0x9 SLOAD PUSH1 0x1 PUSH1 0x1 PUSH1 0xA0 SHL SUB DUP3 DUP2 AND SWAP2 AND EQ ISZERO PUSH2 0x1B02 JUMPI PUSH1 0x40 MLOAD PUSH3 0x461BCD PUSH1 0xE5 SHL DUP2 MSTORE PUSH1 0x20 PUSH1 0x4 DUP3 ADD MSTORE PUSH1 0x13 PUSH1 0x24 DUP3 ADD MSTORE PUSH19 0x29B0B6B2902332B2A234B9BA3934B13ABA37B9 PUSH1 0x69 SHL PUSH1 0x44 DUP3 ADD MSTORE PUSH1 0x64 ADD PUSH2 0x5F9 JUMP JUMPDEST PUSH1 0x9 DUP1 SLOAD PUSH1 0x1 PUSH1 0x1 PUSH1 0xA0 SHL SUB NOT AND PUSH1 0x1 PUSH1 0x1 PUSH1 0xA0 SHL SUB DUP4 AND SWAP1 DUP2 OR SWAP1 SWAP2 SSTORE PUSH1 0x40 MLOAD SWAP1 DUP2 MSTORE PUSH32 0x98B244C47458FEDC88C0CF9958073E565E971D8AE9D8D1C50DFC6920FE939CBB SWAP1 PUSH1 0x20 ADD PUSH2 0x139B JUMP JUMPDEST PUSH1 0x0 SLOAD PUSH1 0x60 SWAP1 PUSH1 0x1 PUSH1 0x1 PUSH1 0xA0 SHL SUB AND CALLER EQ PUSH2 0x1B7D JUMPI PUSH1 0x40 MLOAD PUSH3 0x461BCD PUSH1 0xE5 SHL DUP2 MSTORE PUSH1 0x4 ADD PUSH2 0x5F9 SWAP1 PUSH2 0x3226 JUMP JUMPDEST PUSH1 0x0 DUP3 PUSH1 0x1 PUSH1 0x1 PUSH1 0x40 SHL SUB DUP2 GT ISZERO PUSH2 0x1B97 JUMPI PUSH2 0x1B97 PUSH2 0x2CBC JUMP JUMPDEST PUSH1 0x40 MLOAD SWAP1 DUP1 DUP3 MSTORE DUP1 PUSH1 0x20 MUL PUSH1 0x20 ADD DUP3 ADD PUSH1 0x40 MSTORE DUP1 ISZERO PUSH2 0x1BC0 JUMPI DUP2 PUSH1 0x20 ADD PUSH1 0x20 DUP3 MUL DUP1 CALLDATASIZE DUP4 CALLDATACOPY ADD SWAP1 POP JUMPDEST POP SWAP1 POP PUSH1 0x0 JUMPDEST DUP4 DUP2 LT ISZERO PUSH2 0x1C8E JUMPI DUP5 DUP5 DUP3 DUP2 DUP2 LT PUSH2 0x1BE0 JUMPI PUSH2 0x1BE0 PUSH2 0x32F5 JUMP JUMPDEST SWAP1 POP PUSH1 0x20 MUL ADD PUSH1 0x20 DUP2 ADD SWAP1 PUSH2 0x1BF5 SWAP2 SWAP1 PUSH2 0x2B07 JUMP JUMPDEST PUSH1 0x40 MLOAD PUSH4 0x70A08231 PUSH1 0xE0 SHL DUP2 MSTORE ADDRESS PUSH1 0x4 DUP3 ADD MSTORE PUSH1 0x1 PUSH1 0x1 PUSH1 0xA0 SHL SUB SWAP2 SWAP1 SWAP2 AND SWAP1 PUSH4 0x70A08231 SWAP1 PUSH1 0x24 ADD PUSH1 0x20 PUSH1 0x40 MLOAD DUP1 DUP4 SUB DUP2 DUP7 GAS STATICCALL ISZERO DUP1 ISZERO PUSH2 0x1C3B JUMPI RETURNDATASIZE PUSH1 0x0 DUP1 RETURNDATACOPY RETURNDATASIZE PUSH1 0x0 REVERT JUMPDEST POP POP POP POP PUSH1 0x40 MLOAD RETURNDATASIZE PUSH1 0x1F NOT PUSH1 0x1F DUP3 ADD AND DUP3 ADD DUP1 PUSH1 0x40 MSTORE POP DUP2 ADD SWAP1 PUSH2 0x1C5F SWAP2 SWAP1 PUSH2 0x32BF JUMP JUMPDEST DUP3 DUP3 DUP2 MLOAD DUP2 LT PUSH2 0x1C71 JUMPI PUSH2 0x1C71 PUSH2 0x32F5 JUMP JUMPDEST PUSH1 0x20 SWAP1 DUP2 MUL SWAP2 SWAP1 SWAP2 ADD ADD MSTORE DUP1 PUSH2 0x1C86 DUP2 PUSH2 0x330B JUMP JUMPDEST SWAP2 POP POP PUSH2 0x1BC6 JUMP JUMPDEST POP PUSH1 0x9 SLOAD PUSH1 0x40 MLOAD PUSH4 0x88720467 PUSH1 0xE0 SHL DUP2 MSTORE PUSH1 0x1 PUSH1 0x1 PUSH1 0xA0 SHL SUB SWAP1 SWAP2 AND SWAP1 PUSH4 0x88720467 SWAP1 PUSH2 0x1CC3 SWAP1 ADDRESS SWAP1 DUP9 SWAP1 DUP9 SWAP1 PUSH1 0x4 ADD PUSH2 0x3542 JUMP JUMPDEST PUSH1 0x0 PUSH1 0x40 MLOAD DUP1 DUP4 SUB DUP2 PUSH1 0x0 DUP8 DUP1 EXTCODESIZE ISZERO DUP1 ISZERO PUSH2 0x1CDD JUMPI PUSH1 0x0 DUP1 REVERT JUMPDEST POP GAS CALL ISZERO DUP1 ISZERO PUSH2 0x1CF1 JUMPI RETURNDATASIZE PUSH1 0x0 DUP1 RETURNDATACOPY RETURNDATASIZE PUSH1 0x0 REVERT JUMPDEST POP DUP6 SWAP3 POP POP POP PUSH1 0x1 PUSH1 0x1 PUSH1 0x40 SHL SUB DUP2 GT ISZERO PUSH2 0x1D0E JUMPI PUSH2 0x1D0E PUSH2 0x2CBC JUMP JUMPDEST PUSH1 0x40 MLOAD SWAP1 DUP1 DUP3 MSTORE DUP1 PUSH1 0x20 MUL PUSH1 0x20 ADD DUP3 ADD PUSH1 0x40 MSTORE DUP1 ISZERO PUSH2 0x1D37 JUMPI DUP2 PUSH1 0x20 ADD PUSH1 0x20 DUP3 MUL DUP1 CALLDATASIZE DUP4 CALLDATACOPY ADD SWAP1 POP JUMPDEST POP SWAP2 POP PUSH1 0x0 JUMPDEST DUP4 DUP2 LT ISZERO PUSH2 0x1E29 JUMPI DUP2 DUP2 DUP2 MLOAD DUP2 LT PUSH2 0x1D57 JUMPI PUSH2 0x1D57 PUSH2 0x32F5 JUMP JUMPDEST PUSH1 0x20 MUL PUSH1 0x20 ADD ADD MLOAD DUP6 DUP6 DUP4 DUP2 DUP2 LT PUSH2 0x1D71 JUMPI PUSH2 0x1D71 PUSH2 0x32F5 JUMP JUMPDEST SWAP1 POP PUSH1 0x20 MUL ADD PUSH1 0x20 DUP2 ADD SWAP1 PUSH2 0x1D86 SWAP2 SWAP1 PUSH2 0x2B07 JUMP JUMPDEST PUSH1 0x40 MLOAD PUSH4 0x70A08231 PUSH1 0xE0 SHL DUP2 MSTORE ADDRESS PUSH1 0x4 DUP3 ADD MSTORE PUSH1 0x1 PUSH1 0x1 PUSH1 0xA0 SHL SUB SWAP2 SWAP1 SWAP2 AND SWAP1 PUSH4 0x70A08231 SWAP1 PUSH1 0x24 ADD PUSH1 0x20 PUSH1 0x40 MLOAD DUP1 DUP4 SUB DUP2 DUP7 GAS STATICCALL ISZERO DUP1 ISZERO PUSH2 0x1DCC JUMPI RETURNDATASIZE PUSH1 0x0 DUP1 RETURNDATACOPY RETURNDATASIZE PUSH1 0x0 REVERT JUMPDEST POP POP POP POP PUSH1 0x40 MLOAD RETURNDATASIZE PUSH1 0x1F NOT PUSH1 0x1F DUP3 ADD AND DUP3 ADD DUP1 PUSH1 0x40 MSTORE POP DUP2 ADD SWAP1 PUSH2 0x1DF0 SWAP2 SWAP1 PUSH2 0x32BF JUMP JUMPDEST PUSH2 0x1DFA SWAP2 SWAP1 PUSH2 0x32A8 JUMP JUMPDEST DUP4 DUP3 DUP2 MLOAD DUP2 LT PUSH2 0x1E0C JUMPI PUSH2 0x1E0C PUSH2 0x32F5 JUMP JUMPDEST PUSH1 0x20 SWAP1 DUP2 MUL SWAP2 SWAP1 SWAP2 ADD ADD MSTORE DUP1 PUSH2 0x1E21 DUP2 PUSH2 0x330B JUMP JUMPDEST SWAP2 POP POP PUSH2 0x1D3D JUMP JUMPDEST POP PUSH32 0xBBC3833A87C00061574F2323AA588A123484307BE81AE2814B6599AD38D4883B DUP5 DUP5 DUP5 PUSH1 0x40 MLOAD PUSH2 0x1E5D SWAP4 SWAP3 SWAP2 SWAP1 PUSH2 0x3567 JUMP JUMPDEST PUSH1 0x40 MLOAD DUP1 SWAP2 SUB SWAP1 LOG1 POP SWAP3 SWAP2 POP POP JUMP JUMPDEST PUSH1 0x0 SLOAD PUSH1 0x1 PUSH1 0x1 PUSH1 0xA0 SHL SUB AND CALLER EQ PUSH2 0x1E96 JUMPI PUSH1 0x40 MLOAD PUSH3 0x461BCD PUSH1 0xE5 SHL DUP2 MSTORE PUSH1 0x4 ADD PUSH2 0x5F9 SWAP1 PUSH2 0x3226 JUMP JUMPDEST PUSH1 0x6 PUSH1 0x0 SWAP1 SLOAD SWAP1 PUSH2 0x100 EXP SWAP1 DIV PUSH1 0x1 PUSH1 0x1 PUSH1 0xA0 SHL SUB AND PUSH1 0x1 PUSH1 0x1 PUSH1 0xA0 SHL SUB AND PUSH4 0x3CCFD60B PUSH1 0x40 MLOAD DUP2 PUSH4 0xFFFFFFFF AND PUSH1 0xE0 SHL DUP2 MSTORE PUSH1 0x4 ADD PUSH1 0x0 PUSH1 0x40 MLOAD DUP1 DUP4 SUB DUP2 PUSH1 0x0 DUP8 DUP1 EXTCODESIZE ISZERO DUP1 ISZERO PUSH2 0x1EE6 JUMPI PUSH1 0x0 DUP1 REVERT JUMPDEST POP GAS CALL ISZERO DUP1 ISZERO PUSH2 0x1EFA JUMPI RETURNDATASIZE PUSH1 0x0 DUP1 RETURNDATACOPY RETURNDATASIZE PUSH1 0x0 REVERT JUMPDEST POP POP PUSH1 0x7 SLOAD PUSH1 0x40 MLOAD PUSH4 0x70A08231 PUSH1 0xE0 SHL DUP2 MSTORE ADDRESS PUSH1 0x4 DUP3 ADD MSTORE PUSH32 0x832A253AD4E9E88F705006A24D9957B8AA1DE307A0F9D0A6AD5FD0B0AC810505 SWAP4 POP PUSH1 0x1 PUSH1 0x1 PUSH1 0xA0 SHL SUB SWAP1 SWAP2 AND SWAP2 POP PUSH4 0x70A08231 SWAP1 PUSH1 0x24 ADD PUSH1 0x20 PUSH1 0x40 MLOAD DUP1 DUP4 SUB DUP2 DUP7 GAS STATICCALL ISZERO DUP1 ISZERO PUSH2 0x1F68 JUMPI RETURNDATASIZE PUSH1 0x0 DUP1 RETURNDATACOPY RETURNDATASIZE PUSH1 0x0 REVERT JUMPDEST POP POP POP POP PUSH1 0x40 MLOAD RETURNDATASIZE PUSH1 0x1F NOT PUSH1 0x1F DUP3 ADD AND DUP3 ADD DUP1 PUSH1 0x40 MSTORE POP DUP2 ADD SWAP1 PUSH2 0x1F8C SWAP2 SWAP1 PUSH2 0x32BF JUMP JUMPDEST PUSH1 0x40 MLOAD SWAP1 DUP2 MSTORE PUSH1 0x20 ADD PUSH1 0x40 MLOAD DUP1 SWAP2 SUB SWAP1 LOG1 JUMP JUMPDEST PUSH1 0x0 SLOAD PUSH1 0x1 PUSH1 0x1 PUSH1 0xA0 SHL SUB AND CALLER EQ PUSH2 0x1FC9 JUMPI PUSH1 0x40 MLOAD PUSH3 0x461BCD PUSH1 0xE5 SHL DUP2 MSTORE PUSH1 0x4 ADD PUSH2 0x5F9 SWAP1 PUSH2 0x3226 JUMP JUMPDEST PUSH1 0x7 SLOAD PUSH1 0x40 MLOAD PUSH4 0x70A08231 PUSH1 0xE0 SHL DUP2 MSTORE ADDRESS PUSH1 0x4 DUP3 ADD MSTORE PUSH1 0x0 SWAP2 PUSH1 0x1 PUSH1 0x1 PUSH1 0xA0 SHL SUB AND SWAP1 PUSH4 0x70A08231 SWAP1 PUSH1 0x24 ADD PUSH1 0x20 PUSH1 0x40 MLOAD DUP1 DUP4 SUB DUP2 DUP7 GAS STATICCALL ISZERO DUP1 ISZERO PUSH2 0x2012 JUMPI RETURNDATASIZE PUSH1 0x0 DUP1 RETURNDATACOPY RETURNDATASIZE PUSH1 0x0 REVERT JUMPDEST POP POP POP POP PUSH1 0x40 MLOAD RETURNDATASIZE PUSH1 0x1F NOT PUSH1 0x1F DUP3 ADD AND DUP3 ADD DUP1 PUSH1 0x40 MSTORE POP DUP2 ADD SWAP1 PUSH2 0x2036 SWAP2 SWAP1 PUSH2 0x32BF JUMP JUMPDEST PUSH1 0x6 SLOAD PUSH1 0x40 MLOAD PUSH4 0xCBF9FE5F PUSH1 0xE0 SHL DUP2 MSTORE ADDRESS PUSH1 0x4 DUP3 ADD MSTORE SWAP2 SWAP3 POP PUSH1 0x0 SWAP2 PUSH1 0x1 PUSH1 0x1 PUSH1 0xA0 SHL SUB SWAP1 SWAP2 AND SWAP1 PUSH4 0xCBF9FE5F SWAP1 PUSH1 0x24 ADD PUSH1 0x20 PUSH1 0x40 MLOAD DUP1 DUP4 SUB DUP2 DUP7 GAS STATICCALL ISZERO DUP1 ISZERO PUSH2 0x2084 JUMPI RETURNDATASIZE PUSH1 0x0 DUP1 RETURNDATACOPY RETURNDATASIZE PUSH1 0x0 REVERT JUMPDEST POP POP POP POP PUSH1 0x40 MLOAD RETURNDATASIZE PUSH1 0x1F NOT PUSH1 0x1F DUP3 ADD AND DUP3 ADD DUP1 PUSH1 0x40 MSTORE POP DUP2 ADD SWAP1 PUSH2 0x20A8 SWAP2 SWAP1 PUSH2 0x32BF JUMP JUMPDEST SWAP1 POP PUSH1 0x0 PUSH3 0x93A80 DUP1 PUSH1 0x5 SLOAD TIMESTAMP PUSH2 0x20BF SWAP2 SWAP1 PUSH2 0x3420 JUMP JUMPDEST PUSH2 0x20C9 SWAP2 SWAP1 PUSH2 0x3597 JUMP JUMPDEST PUSH2 0x20D3 SWAP2 SWAP1 PUSH2 0x35B9 JUMP JUMPDEST SWAP1 POP DUP3 ISZERO DUP1 ISZERO SWAP1 PUSH2 0x20E2 JUMPI POP DUP2 ISZERO JUMPDEST ISZERO PUSH2 0x21CC JUMPI PUSH1 0x7 SLOAD PUSH1 0x6 SLOAD PUSH1 0x40 MLOAD PUSH4 0x95EA7B3 PUSH1 0xE0 SHL DUP2 MSTORE PUSH1 0x1 PUSH1 0x1 PUSH1 0xA0 SHL SUB SWAP2 DUP3 AND PUSH1 0x4 DUP3 ADD MSTORE PUSH1 0x24 DUP2 ADD DUP7 SWAP1 MSTORE SWAP2 AND SWAP1 PUSH4 0x95EA7B3 SWAP1 PUSH1 0x44 ADD PUSH1 0x20 PUSH1 0x40 MLOAD DUP1 DUP4 SUB DUP2 PUSH1 0x0 DUP8 GAS CALL ISZERO DUP1 ISZERO PUSH2 0x213C JUMPI RETURNDATASIZE PUSH1 0x0 DUP1 RETURNDATACOPY RETURNDATASIZE PUSH1 0x0 REVERT JUMPDEST POP POP POP POP PUSH1 0x40 MLOAD RETURNDATASIZE PUSH1 0x1F NOT PUSH1 0x1F DUP3 ADD AND DUP3 ADD DUP1 PUSH1 0x40 MSTORE POP DUP2 ADD SWAP1 PUSH2 0x2160 SWAP2 SWAP1 PUSH2 0x3438 JUMP JUMPDEST POP PUSH1 0x6 SLOAD PUSH1 0x40 MLOAD PUSH4 0x65FC3873 PUSH1 0xE0 SHL DUP2 MSTORE PUSH1 0x4 DUP2 ADD DUP6 SWAP1 MSTORE PUSH1 0x24 DUP2 ADD DUP4 SWAP1 MSTORE PUSH1 0x1 PUSH1 0x1 PUSH1 0xA0 SHL SUB SWAP1 SWAP2 AND SWAP1 PUSH4 0x65FC3873 SWAP1 PUSH1 0x44 ADD JUMPDEST PUSH1 0x0 PUSH1 0x40 MLOAD DUP1 DUP4 SUB DUP2 PUSH1 0x0 DUP8 DUP1 EXTCODESIZE ISZERO DUP1 ISZERO PUSH2 0x21AF JUMPI PUSH1 0x0 DUP1 REVERT JUMPDEST POP GAS CALL ISZERO DUP1 ISZERO PUSH2 0x21C3 JUMPI RETURNDATASIZE PUSH1 0x0 DUP1 RETURNDATACOPY RETURNDATASIZE PUSH1 0x0 REVERT JUMPDEST POP POP POP POP PUSH2 0x23D1 JUMP JUMPDEST DUP3 ISZERO DUP1 ISZERO SWAP1 PUSH2 0x21DA JUMPI POP DUP2 ISZERO ISZERO JUMPDEST ISZERO PUSH2 0x2360 JUMPI PUSH1 0x7 SLOAD PUSH1 0x6 SLOAD PUSH1 0x40 MLOAD PUSH4 0x95EA7B3 PUSH1 0xE0 SHL DUP2 MSTORE PUSH1 0x1 PUSH1 0x1 PUSH1 0xA0 SHL SUB SWAP2 DUP3 AND PUSH1 0x4 DUP3 ADD MSTORE PUSH1 0x24 DUP2 ADD DUP7 SWAP1 MSTORE SWAP2 AND SWAP1 PUSH4 0x95EA7B3 SWAP1 PUSH1 0x44 ADD PUSH1 0x20 PUSH1 0x40 MLOAD DUP1 DUP4 SUB DUP2 PUSH1 0x0 DUP8 GAS CALL ISZERO DUP1 ISZERO PUSH2 0x2234 JUMPI RETURNDATASIZE PUSH1 0x0 DUP1 RETURNDATACOPY RETURNDATASIZE PUSH1 0x0 REVERT JUMPDEST POP POP POP POP PUSH1 0x40 MLOAD RETURNDATASIZE PUSH1 0x1F NOT PUSH1 0x1F DUP3 ADD AND DUP3 ADD DUP1 PUSH1 0x40 MSTORE POP DUP2 ADD SWAP1 PUSH2 0x2258 SWAP2 SWAP1 PUSH2 0x3438 JUMP JUMPDEST POP PUSH1 0x6 SLOAD PUSH1 0x40 MLOAD PUSH4 0x1255D9DF PUSH1 0xE2 SHL DUP2 MSTORE PUSH1 0x4 DUP2 ADD DUP6 SWAP1 MSTORE PUSH1 0x1 PUSH1 0x1 PUSH1 0xA0 SHL SUB SWAP1 SWAP2 AND SWAP1 PUSH4 0x4957677C SWAP1 PUSH1 0x24 ADD PUSH1 0x0 PUSH1 0x40 MLOAD DUP1 DUP4 SUB DUP2 PUSH1 0x0 DUP8 DUP1 EXTCODESIZE ISZERO DUP1 ISZERO PUSH2 0x229F JUMPI PUSH1 0x0 DUP1 REVERT JUMPDEST POP GAS CALL ISZERO DUP1 ISZERO PUSH2 0x22B3 JUMPI RETURNDATASIZE PUSH1 0x0 DUP1 RETURNDATACOPY RETURNDATASIZE PUSH1 0x0 REVERT JUMPDEST POP POP PUSH1 0x6 SLOAD PUSH1 0x40 MLOAD PUSH4 0xADC63589 PUSH1 0xE0 SHL DUP2 MSTORE ADDRESS PUSH1 0x4 DUP3 ADD MSTORE DUP5 SWAP4 POP PUSH1 0x1 PUSH1 0x1 PUSH1 0xA0 SHL SUB SWAP1 SWAP2 AND SWAP2 POP PUSH4 0xADC63589 SWAP1 PUSH1 0x24 ADD PUSH1 0x20 PUSH1 0x40 MLOAD DUP1 DUP4 SUB DUP2 DUP7 GAS STATICCALL ISZERO DUP1 ISZERO PUSH2 0x2301 JUMPI RETURNDATASIZE PUSH1 0x0 DUP1 RETURNDATACOPY RETURNDATASIZE PUSH1 0x0 REVERT JUMPDEST POP POP POP POP PUSH1 0x40 MLOAD RETURNDATASIZE PUSH1 0x1F NOT PUSH1 0x1F DUP3 ADD AND DUP3 ADD DUP1 PUSH1 0x40 MSTORE POP DUP2 ADD SWAP1 PUSH2 0x2325 SWAP2 SWAP1 PUSH2 0x32BF JUMP JUMPDEST EQ PUSH2 0x235B JUMPI PUSH1 0x6 SLOAD PUSH1 0x40 MLOAD PUSH4 0x77FBD309 PUSH1 0xE1 SHL DUP2 MSTORE PUSH1 0x4 DUP2 ADD DUP4 SWAP1 MSTORE PUSH1 0x1 PUSH1 0x1 PUSH1 0xA0 SHL SUB SWAP1 SWAP2 AND SWAP1 PUSH4 0xEFF7A612 SWAP1 PUSH1 0x24 ADD PUSH2 0x2195 JUMP JUMPDEST PUSH2 0x23D1 JUMP JUMPDEST DUP3 ISZERO DUP1 ISZERO PUSH2 0x236D JUMPI POP DUP2 ISZERO ISZERO JUMPDEST ISZERO PUSH2 0x23D1 JUMPI PUSH1 0x6 SLOAD PUSH1 0x40 MLOAD PUSH4 0x77FBD309 PUSH1 0xE1 SHL DUP2 MSTORE PUSH1 0x4 DUP2 ADD DUP4 SWAP1 MSTORE PUSH1 0x1 PUSH1 0x1 PUSH1 0xA0 SHL SUB SWAP1 SWAP2 AND SWAP1 PUSH4 0xEFF7A612 SWAP1 PUSH1 0x24 ADD PUSH1 0x0 PUSH1 0x40 MLOAD DUP1 DUP4 SUB DUP2 PUSH1 0x0 DUP8 DUP1 EXTCODESIZE ISZERO DUP1 ISZERO PUSH2 0x23B8 JUMPI PUSH1 0x0 DUP1 REVERT JUMPDEST POP GAS CALL ISZERO DUP1 ISZERO PUSH2 0x23CC JUMPI RETURNDATASIZE PUSH1 0x0 DUP1 RETURNDATACOPY RETURNDATASIZE PUSH1 0x0 REVERT JUMPDEST POP POP POP POP JUMPDEST PUSH32 0x46D326B399B600D54F10F9CC18580FD65427FF111E1CE74350B39E244CBFBCF8 PUSH2 0x23FC DUP4 DUP6 PUSH2 0x3420 JUMP JUMPDEST PUSH1 0x40 DUP1 MLOAD SWAP2 DUP3 MSTORE PUSH1 0x20 DUP3 ADD DUP5 SWAP1 MSTORE ADD PUSH2 0x7CD JUMP JUMPDEST PUSH1 0xB SLOAD PUSH1 0x1 PUSH1 0x1 PUSH1 0xA0 SHL SUB AND CALLER EQ PUSH2 0x243A JUMPI PUSH1 0x40 MLOAD PUSH3 0x461BCD PUSH1 0xE5 SHL DUP2 MSTORE PUSH1 0x4 ADD PUSH2 0x5F9 SWAP1 PUSH2 0x325B JUMP JUMPDEST PUSH1 0x40 MLOAD PUSH4 0x70A08231 PUSH1 0xE0 SHL DUP2 MSTORE ADDRESS PUSH1 0x4 DUP3 ADD MSTORE PUSH1 0x0 SWAP1 PUSH1 0x1 PUSH1 0x1 PUSH1 0xA0 SHL SUB DUP6 AND SWAP1 PUSH4 0x70A08231 SWAP1 PUSH1 0x24 ADD PUSH1 0x20 PUSH1 0x40 MLOAD DUP1 DUP4 SUB DUP2 DUP7 GAS STATICCALL ISZERO DUP1 ISZERO PUSH2 0x2481 JUMPI RETURNDATASIZE PUSH1 0x0 DUP1 RETURNDATACOPY RETURNDATASIZE PUSH1 0x0 REVERT JUMPDEST POP POP POP POP PUSH1 0x40 MLOAD RETURNDATASIZE PUSH1 0x1F NOT PUSH1 0x1F DUP3 ADD AND DUP3 ADD DUP1 PUSH1 0x40 MSTORE POP DUP2 ADD SWAP1 PUSH2 0x24A5 SWAP2 SWAP1 PUSH2 0x32BF JUMP JUMPDEST SWAP1 POP DUP2 ISZERO PUSH2 0x24C2 JUMPI PUSH2 0x24C2 PUSH1 0x1 PUSH1 0x1 PUSH1 0xA0 SHL SUB DUP6 AND DUP5 ADDRESS DUP6 PUSH2 0x2861 JUMP JUMPDEST PUSH1 0x40 MLOAD PUSH4 0x70A08231 PUSH1 0xE0 SHL DUP2 MSTORE ADDRESS PUSH1 0x4 DUP3 ADD MSTORE PUSH1 0x0 SWAP1 PUSH1 0x1 PUSH1 0x1 PUSH1 0xA0 SHL SUB DUP7 AND SWAP1 PUSH4 0x70A08231 SWAP1 PUSH1 0x24 ADD PUSH1 0x20 PUSH1 0x40 MLOAD DUP1 DUP4 SUB DUP2 DUP7 GAS STATICCALL ISZERO DUP1 ISZERO PUSH2 0x2509 JUMPI RETURNDATASIZE PUSH1 0x0 DUP1 RETURNDATACOPY RETURNDATASIZE PUSH1 0x0 REVERT JUMPDEST POP POP POP POP PUSH1 0x40 MLOAD RETURNDATASIZE PUSH1 0x1F NOT PUSH1 0x1F DUP3 ADD AND DUP3 ADD DUP1 PUSH1 0x40 MSTORE POP DUP2 ADD SWAP1 PUSH2 0x252D SWAP2 SWAP1 PUSH2 0x32BF JUMP JUMPDEST SWAP1 POP PUSH2 0x2539 DUP3 DUP3 PUSH2 0x32A8 JUMP JUMPDEST PUSH1 0x1 PUSH1 0x1 PUSH1 0xA0 SHL SUB DUP1 DUP7 AND PUSH1 0x0 SWAP1 DUP2 MSTORE PUSH1 0xA PUSH1 0x20 SWAP1 DUP2 MSTORE PUSH1 0x40 DUP1 DUP4 KECCAK256 SWAP4 DUP11 AND DUP4 MSTORE SWAP3 SWAP1 MSTORE SWAP1 DUP2 KECCAK256 DUP1 SLOAD SWAP1 SWAP2 SWAP1 PUSH2 0x2570 SWAP1 DUP5 SWAP1 PUSH2 0x3420 JUMP JUMPDEST SWAP1 SWAP2 SSTORE POP POP PUSH1 0x40 DUP1 MLOAD PUSH1 0x1 PUSH1 0x1 PUSH1 0xA0 SHL SUB DUP1 DUP9 AND DUP3 MSTORE DUP7 AND PUSH1 0x20 DUP3 ADD MSTORE SWAP1 DUP2 ADD DUP5 SWAP1 MSTORE PUSH32 0x98C09D9949722BAE4BD0D988D4050091C3AE7EC6D51D3C6BBFE4233593944E9E SWAP1 PUSH1 0x60 ADD PUSH1 0x40 MLOAD DUP1 SWAP2 SUB SWAP1 LOG1 POP POP POP POP POP JUMP JUMPDEST PUSH1 0x0 SLOAD PUSH1 0x1 PUSH1 0x1 PUSH1 0xA0 SHL SUB AND CALLER EQ PUSH2 0x25F1 JUMPI PUSH1 0x40 MLOAD PUSH3 0x461BCD PUSH1 0xE5 SHL DUP2 MSTORE PUSH1 0x4 ADD PUSH2 0x5F9 SWAP1 PUSH2 0x3226 JUMP JUMPDEST PUSH1 0x7 SLOAD PUSH1 0x1 PUSH1 0x1 PUSH1 0xA0 SHL SUB DUP3 DUP2 AND SWAP2 AND EQ ISZERO PUSH2 0x2646 JUMPI PUSH1 0x40 MLOAD PUSH3 0x461BCD PUSH1 0xE5 SHL DUP2 MSTORE PUSH1 0x20 PUSH1 0x4 DUP3 ADD MSTORE PUSH1 0x14 PUSH1 0x24 DUP3 ADD MSTORE PUSH20 0x29B0B6B2903634B8BAB4B234BA3C903A37B5B2B7 PUSH1 0x61 SHL PUSH1 0x44 DUP3 ADD MSTORE PUSH1 0x64 ADD PUSH2 0x5F9 JUMP JUMPDEST PUSH1 0x7 DUP1 SLOAD PUSH1 0x1 PUSH1 0x1 PUSH1 0xA0 SHL SUB NOT AND PUSH1 0x1 PUSH1 0x1 PUSH1 0xA0 SHL SUB DUP4 AND SWAP1 DUP2 OR SWAP1 SWAP2 SSTORE PUSH1 0x40 MLOAD SWAP1 DUP2 MSTORE PUSH32 0xBB8B37216EE672CC466C5C8E9B47059549C5AEDB6A9709388BE0F8145371BD8E SWAP1 PUSH1 0x20 ADD PUSH2 0x139B JUMP JUMPDEST PUSH1 0x0 SLOAD PUSH1 0x1 PUSH1 0x1 PUSH1 0xA0 SHL SUB AND CALLER EQ PUSH2 0x26BE JUMPI PUSH1 0x40 MLOAD PUSH3 0x461BCD PUSH1 0xE5 SHL DUP2 MSTORE PUSH1 0x4 ADD PUSH2 0x5F9 SWAP1 PUSH2 0x3226 JUMP JUMPDEST PUSH1 0x2 SLOAD PUSH1 0x3 SLOAD PUSH1 0x40 MLOAD PUSH4 0x785F6DF1 PUSH1 0xE1 SHL DUP2 MSTORE PUSH1 0x1 PUSH1 0x1 PUSH1 0xA0 SHL SUB SWAP1 SWAP3 AND SWAP2 PUSH4 0xF0BEDBE2 SWAP2 PUSH2 0x26F3 SWAP2 PUSH1 0x4 ADD SWAP1 DUP2 MSTORE PUSH1 0x20 ADD SWAP1 JUMP JUMPDEST PUSH1 0x0 PUSH1 0x40 MLOAD DUP1 DUP4 SUB DUP2 PUSH1 0x0 DUP8 DUP1 EXTCODESIZE ISZERO DUP1 ISZERO PUSH2 0x270D JUMPI PUSH1 0x0 DUP1 REVERT JUMPDEST POP GAS CALL ISZERO DUP1 ISZERO PUSH2 0x2721 JUMPI RETURNDATASIZE PUSH1 0x0 DUP1 RETURNDATACOPY RETURNDATASIZE PUSH1 0x0 REVERT JUMPDEST POP POP POP PUSH1 0x3 DUP3 SWAP1 SSTORE POP PUSH1 0x4 SLOAD PUSH2 0x1786 SWAP1 PUSH1 0x1 PUSH1 0x1 PUSH1 0xA0 SHL SUB AND PUSH2 0x27A2 JUMP JUMPDEST PUSH1 0x40 MLOAD PUSH1 0x1 PUSH1 0x1 PUSH1 0xA0 SHL SUB DUP4 AND PUSH1 0x24 DUP3 ADD MSTORE PUSH1 0x44 DUP2 ADD DUP3 SWAP1 MSTORE PUSH2 0x8E3 SWAP1 DUP5 SWAP1 PUSH4 0xA9059CBB PUSH1 0xE0 SHL SWAP1 PUSH1 0x64 ADD JUMPDEST PUSH1 0x40 DUP1 MLOAD PUSH1 0x1F NOT DUP2 DUP5 SUB ADD DUP2 MSTORE SWAP2 SWAP1 MSTORE PUSH1 0x20 DUP2 ADD DUP1 MLOAD PUSH1 0x1 PUSH1 0x1 PUSH1 0xE0 SHL SUB AND PUSH1 0x1 PUSH1 0x1 PUSH1 0xE0 SHL SUB NOT SWAP1 SWAP4 AND SWAP3 SWAP1 SWAP3 OR SWAP1 SWAP2 MSTORE PUSH2 0x289F JUMP JUMPDEST PUSH1 0x4 DUP1 SLOAD PUSH1 0x2 SLOAD PUSH1 0x3 SLOAD PUSH1 0x40 MLOAD PUSH4 0x17B0DCA1 PUSH1 0xE3 SHL DUP2 MSTORE SWAP4 DUP5 ADD MSTORE PUSH1 0x1 PUSH1 0x1 PUSH1 0xA0 SHL SUB DUP5 DUP2 AND PUSH1 0x24 DUP6 ADD MSTORE SWAP2 DUP3 AND SWAP3 SWAP2 AND SWAP1 PUSH4 0xBD86E508 SWAP1 PUSH1 0x44 ADD PUSH1 0x0 PUSH1 0x40 MLOAD DUP1 DUP4 SUB DUP2 PUSH1 0x0 DUP8 DUP1 EXTCODESIZE ISZERO DUP1 ISZERO PUSH2 0x27F7 JUMPI PUSH1 0x0 DUP1 REVERT JUMPDEST POP GAS CALL ISZERO DUP1 ISZERO PUSH2 0x280B JUMPI RETURNDATASIZE PUSH1 0x0 DUP1 RETURNDATACOPY RETURNDATASIZE PUSH1 0x0 REVERT JUMPDEST POP POP PUSH1 0x4 DUP1 SLOAD PUSH1 0x1 PUSH1 0x1 PUSH1 0xA0 SHL SUB NOT AND PUSH1 0x1 PUSH1 0x1 PUSH1 0xA0 SHL SUB DUP7 DUP2 AND SWAP2 DUP3 OR SWAP1 SWAP3 SSTORE PUSH1 0x40 MLOAD SWAP1 SWAP4 POP SWAP1 DUP5 AND SWAP2 POP PUSH32 0x4F7BA549B7C7C8ABAB2C58F33F2694510F36C3CA55A80C780DF35835A4431CDB SWAP1 PUSH1 0x0 SWAP1 LOG3 POP POP JUMP JUMPDEST PUSH1 0x40 MLOAD PUSH1 0x1 PUSH1 0x1 PUSH1 0xA0 SHL SUB DUP1 DUP6 AND PUSH1 0x24 DUP4 ADD MSTORE DUP4 AND PUSH1 0x44 DUP3 ADD MSTORE PUSH1 0x64 DUP2 ADD DUP3 SWAP1 MSTORE PUSH2 0x2899 SWAP1 DUP6 SWAP1 PUSH4 0x23B872DD PUSH1 0xE0 SHL SWAP1 PUSH1 0x84 ADD PUSH2 0x276B JUMP JUMPDEST POP POP POP POP JUMP JUMPDEST PUSH1 0x0 PUSH2 0x28F4 DUP3 PUSH1 0x40 MLOAD DUP1 PUSH1 0x40 ADD PUSH1 0x40 MSTORE DUP1 PUSH1 0x20 DUP2 MSTORE PUSH1 0x20 ADD PUSH32 0x5361666545524332303A206C6F772D6C6576656C2063616C6C206661696C6564 DUP2 MSTORE POP DUP6 PUSH1 0x1 PUSH1 0x1 PUSH1 0xA0 SHL SUB AND PUSH2 0x2971 SWAP1 SWAP3 SWAP2 SWAP1 PUSH4 0xFFFFFFFF AND JUMP JUMPDEST DUP1 MLOAD SWAP1 SWAP2 POP ISZERO PUSH2 0x8E3 JUMPI DUP1 DUP1 PUSH1 0x20 ADD SWAP1 MLOAD DUP2 ADD SWAP1 PUSH2 0x2912 SWAP2 SWAP1 PUSH2 0x3438 JUMP JUMPDEST PUSH2 0x8E3 JUMPI PUSH1 0x40 MLOAD PUSH3 0x461BCD PUSH1 0xE5 SHL DUP2 MSTORE PUSH1 0x20 PUSH1 0x4 DUP3 ADD MSTORE PUSH1 0x2A PUSH1 0x24 DUP3 ADD MSTORE PUSH32 0x5361666545524332303A204552433230206F7065726174696F6E20646964206E PUSH1 0x44 DUP3 ADD MSTORE PUSH10 0x1BDD081CDD58D8D95959 PUSH1 0xB2 SHL PUSH1 0x64 DUP3 ADD MSTORE PUSH1 0x84 ADD PUSH2 0x5F9 JUMP JUMPDEST PUSH1 0x60 PUSH2 0x2980 DUP5 DUP5 PUSH1 0x0 DUP6 PUSH2 0x2988 JUMP JUMPDEST SWAP5 SWAP4 POP POP POP POP JUMP JUMPDEST PUSH1 0x60 DUP3 SELFBALANCE LT ISZERO PUSH2 0x29E9 JUMPI PUSH1 0x40 MLOAD PUSH3 0x461BCD PUSH1 0xE5 SHL DUP2 MSTORE PUSH1 0x20 PUSH1 0x4 DUP3 ADD MSTORE PUSH1 0x26 PUSH1 0x24 DUP3 ADD MSTORE PUSH32 0x416464726573733A20696E73756666696369656E742062616C616E636520666F PUSH1 0x44 DUP3 ADD MSTORE PUSH6 0x1C8818D85B1B PUSH1 0xD2 SHL PUSH1 0x64 DUP3 ADD MSTORE PUSH1 0x84 ADD PUSH2 0x5F9 JUMP JUMPDEST PUSH1 0x1 PUSH1 0x1 PUSH1 0xA0 SHL SUB DUP6 AND EXTCODESIZE PUSH2 0x2A40 JUMPI PUSH1 0x40 MLOAD PUSH3 0x461BCD PUSH1 0xE5 SHL DUP2 MSTORE PUSH1 0x20 PUSH1 0x4 DUP3 ADD MSTORE PUSH1 0x1D PUSH1 0x24 DUP3 ADD MSTORE PUSH32 0x416464726573733A2063616C6C20746F206E6F6E2D636F6E7472616374000000 PUSH1 0x44 DUP3 ADD MSTORE PUSH1 0x64 ADD PUSH2 0x5F9 JUMP JUMPDEST PUSH1 0x0 DUP1 DUP7 PUSH1 0x1 PUSH1 0x1 PUSH1 0xA0 SHL SUB AND DUP6 DUP8 PUSH1 0x40 MLOAD PUSH2 0x2A5C SWAP2 SWAP1 PUSH2 0x35D8 JUMP JUMPDEST PUSH1 0x0 PUSH1 0x40 MLOAD DUP1 DUP4 SUB DUP2 DUP6 DUP8 GAS CALL SWAP3 POP POP POP RETURNDATASIZE DUP1 PUSH1 0x0 DUP2 EQ PUSH2 0x2A99 JUMPI PUSH1 0x40 MLOAD SWAP2 POP PUSH1 0x1F NOT PUSH1 0x3F RETURNDATASIZE ADD AND DUP3 ADD PUSH1 0x40 MSTORE RETURNDATASIZE DUP3 MSTORE RETURNDATASIZE PUSH1 0x0 PUSH1 0x20 DUP5 ADD RETURNDATACOPY PUSH2 0x2A9E JUMP JUMPDEST PUSH1 0x60 SWAP2 POP JUMPDEST POP SWAP2 POP SWAP2 POP PUSH2 0x2AAE DUP3 DUP3 DUP7 PUSH2 0x2AB9 JUMP JUMPDEST SWAP8 SWAP7 POP POP POP POP POP POP POP JUMP JUMPDEST PUSH1 0x60 DUP4 ISZERO PUSH2 0x2AC8 JUMPI POP DUP2 PUSH2 0x1973 JUMP JUMPDEST DUP3 MLOAD ISZERO PUSH2 0x2AD8 JUMPI DUP3 MLOAD DUP1 DUP5 PUSH1 0x20 ADD REVERT JUMPDEST DUP2 PUSH1 0x40 MLOAD PUSH3 0x461BCD PUSH1 0xE5 SHL DUP2 MSTORE PUSH1 0x4 ADD PUSH2 0x5F9 SWAP2 SWAP1 PUSH2 0x35F4 JUMP JUMPDEST PUSH1 0x1 PUSH1 0x1 PUSH1 0xA0 SHL SUB DUP2 AND DUP2 EQ PUSH2 0x1786 JUMPI PUSH1 0x0 DUP1 REVERT JUMPDEST PUSH1 0x0 PUSH1 0x20 DUP3 DUP5 SUB SLT ISZERO PUSH2 0x2B19 JUMPI PUSH1 0x0 DUP1 REVERT JUMPDEST DUP2 CALLDATALOAD PUSH2 0x1973 DUP2 PUSH2 0x2AF2 JUMP JUMPDEST PUSH1 0x0 DUP1 PUSH1 0x0 PUSH1 0x60 DUP5 DUP7 SUB SLT ISZERO PUSH2 0x2B39 JUMPI PUSH1 0x0 DUP1 REVERT JUMPDEST DUP4 CALLDATALOAD PUSH2 0x2B44 DUP2 PUSH2 0x2AF2 JUMP JUMPDEST SWAP3 POP PUSH1 0x20 DUP5 ADD CALLDATALOAD PUSH2 0x2B54 DUP2 PUSH2 0x2AF2 JUMP JUMPDEST SWAP3 SWAP6 SWAP3 SWAP5 POP POP POP PUSH1 0x40 SWAP2 SWAP1 SWAP2 ADD CALLDATALOAD SWAP1 JUMP JUMPDEST DUP1 ISZERO ISZERO DUP2 EQ PUSH2 0x1786 JUMPI PUSH1 0x0 DUP1 REVERT JUMPDEST PUSH1 0x0 DUP1 PUSH1 0x0 PUSH1 0x60 DUP5 DUP7 SUB SLT ISZERO PUSH2 0x2B88 JUMPI PUSH1 0x0 DUP1 REVERT JUMPDEST DUP4 CALLDATALOAD PUSH2 0x2B93 DUP2 PUSH2 0x2AF2 JUMP JUMPDEST SWAP3 POP PUSH1 0x20 DUP5 ADD CALLDATALOAD PUSH2 0x2BA3 DUP2 PUSH2 0x2B65 JUMP JUMPDEST SWAP2 POP PUSH1 0x40 DUP5 ADD CALLDATALOAD PUSH2 0x2BB3 DUP2 PUSH2 0x2B65 JUMP JUMPDEST DUP1 SWAP2 POP POP SWAP3 POP SWAP3 POP SWAP3 JUMP JUMPDEST PUSH1 0x0 DUP2 MLOAD DUP1 DUP5 MSTORE PUSH1 0x20 DUP1 DUP6 ADD SWAP5 POP DUP1 DUP5 ADD PUSH1 0x0 JUMPDEST DUP4 DUP2 LT ISZERO PUSH2 0x2BF7 JUMPI DUP2 MLOAD PUSH1 0x1 PUSH1 0x1 PUSH1 0xA0 SHL SUB AND DUP8 MSTORE SWAP6 DUP3 ADD SWAP6 SWAP1 DUP3 ADD SWAP1 PUSH1 0x1 ADD PUSH2 0x2BD2 JUMP JUMPDEST POP SWAP5 SWAP6 SWAP5 POP POP POP POP POP JUMP JUMPDEST PUSH1 0x20 DUP2 MSTORE PUSH1 0x0 PUSH2 0x1973 PUSH1 0x20 DUP4 ADD DUP5 PUSH2 0x2BBE JUMP JUMPDEST PUSH1 0x0 DUP1 PUSH1 0x40 DUP4 DUP6 SUB SLT ISZERO PUSH2 0x2C28 JUMPI PUSH1 0x0 DUP1 REVERT JUMPDEST DUP3 CALLDATALOAD PUSH2 0x2C33 DUP2 PUSH2 0x2AF2 JUMP JUMPDEST SWAP2 POP PUSH1 0x20 DUP4 ADD CALLDATALOAD PUSH2 0x2C43 DUP2 PUSH2 0x2AF2 JUMP JUMPDEST DUP1 SWAP2 POP POP SWAP3 POP SWAP3 SWAP1 POP JUMP JUMPDEST PUSH1 0x0 DUP2 MLOAD DUP1 DUP5 MSTORE PUSH1 0x20 DUP1 DUP6 ADD SWAP5 POP DUP1 DUP5 ADD PUSH1 0x0 JUMPDEST DUP4 DUP2 LT ISZERO PUSH2 0x2BF7 JUMPI DUP2 MLOAD DUP8 MSTORE SWAP6 DUP3 ADD SWAP6 SWAP1 DUP3 ADD SWAP1 PUSH1 0x1 ADD PUSH2 0x2C62 JUMP JUMPDEST PUSH1 0x40 DUP2 MSTORE PUSH1 0x0 PUSH2 0x2C91 PUSH1 0x40 DUP4 ADD DUP6 PUSH2 0x2BBE JUMP JUMPDEST DUP3 DUP2 SUB PUSH1 0x20 DUP5 ADD MSTORE PUSH2 0x2CA3 DUP2 DUP6 PUSH2 0x2C4E JUMP JUMPDEST SWAP6 SWAP5 POP POP POP POP POP JUMP JUMPDEST DUP1 CALLDATALOAD PUSH2 0x2CB7 DUP2 PUSH2 0x2AF2 JUMP JUMPDEST SWAP2 SWAP1 POP JUMP JUMPDEST PUSH4 0x4E487B71 PUSH1 0xE0 SHL PUSH1 0x0 MSTORE PUSH1 0x41 PUSH1 0x4 MSTORE PUSH1 0x24 PUSH1 0x0 REVERT JUMPDEST PUSH1 0x40 MLOAD PUSH1 0x1F DUP3 ADD PUSH1 0x1F NOT AND DUP2 ADD PUSH1 0x1 PUSH1 0x1 PUSH1 0x40 SHL SUB DUP2 GT DUP3 DUP3 LT OR ISZERO PUSH2 0x2CFA JUMPI PUSH2 0x2CFA PUSH2 0x2CBC JUMP JUMPDEST PUSH1 0x40 MSTORE SWAP2 SWAP1 POP JUMP JUMPDEST PUSH1 0x0 PUSH1 0x1 PUSH1 0x1 PUSH1 0x40 SHL SUB DUP3 GT ISZERO PUSH2 0x2D1B JUMPI PUSH2 0x2D1B PUSH2 0x2CBC JUMP JUMPDEST POP PUSH1 0x5 SHL PUSH1 0x20 ADD SWAP1 JUMP JUMPDEST PUSH1 0x0 DUP3 PUSH1 0x1F DUP4 ADD SLT PUSH2 0x2D36 JUMPI PUSH1 0x0 DUP1 REVERT JUMPDEST DUP2 CALLDATALOAD PUSH1 0x20 PUSH2 0x2D4B PUSH2 0x2D46 DUP4 PUSH2 0x2D02 JUMP JUMPDEST PUSH2 0x2CD2 JUMP JUMPDEST DUP3 DUP2 MSTORE PUSH1 0x5 SWAP3 SWAP1 SWAP3 SHL DUP5 ADD DUP2 ADD SWAP2 DUP2 DUP2 ADD SWAP1 DUP7 DUP5 GT ISZERO PUSH2 0x2D6A JUMPI PUSH1 0x0 DUP1 REVERT JUMPDEST DUP3 DUP7 ADD JUMPDEST DUP5 DUP2 LT ISZERO PUSH2 0x2D8E JUMPI DUP1 CALLDATALOAD PUSH2 0x2D81 DUP2 PUSH2 0x2AF2 JUMP JUMPDEST DUP4 MSTORE SWAP2 DUP4 ADD SWAP2 DUP4 ADD PUSH2 0x2D6E JUMP JUMPDEST POP SWAP7 SWAP6 POP POP POP POP POP POP JUMP JUMPDEST PUSH1 0x0 DUP3 PUSH1 0x1F DUP4 ADD SLT PUSH2 0x2DAA JUMPI PUSH1 0x0 DUP1 REVERT JUMPDEST DUP2 CALLDATALOAD PUSH1 0x20 PUSH2 0x2DBA PUSH2 0x2D46 DUP4 PUSH2 0x2D02 JUMP JUMPDEST DUP3 DUP2 MSTORE PUSH1 0x5 SWAP3 SWAP1 SWAP3 SHL DUP5 ADD DUP2 ADD SWAP2 DUP2 DUP2 ADD SWAP1 DUP7 DUP5 GT ISZERO PUSH2 0x2DD9 JUMPI PUSH1 0x0 DUP1 REVERT JUMPDEST DUP3 DUP7 ADD JUMPDEST DUP5 DUP2 LT ISZERO PUSH2 0x2D8E JUMPI DUP1 CALLDATALOAD DUP4 MSTORE SWAP2 DUP4 ADD SWAP2 DUP4 ADD PUSH2 0x2DDD JUMP JUMPDEST PUSH1 0x0 PUSH1 0x1 PUSH1 0x1 PUSH1 0x40 SHL SUB DUP4 GT ISZERO PUSH2 0x2E0D JUMPI PUSH2 0x2E0D PUSH2 0x2CBC JUMP JUMPDEST PUSH2 0x2E20 PUSH1 0x1F DUP5 ADD PUSH1 0x1F NOT AND PUSH1 0x20 ADD PUSH2 0x2CD2 JUMP JUMPDEST SWAP1 POP DUP3 DUP2 MSTORE DUP4 DUP4 DUP4 ADD GT ISZERO PUSH2 0x2E34 JUMPI PUSH1 0x0 DUP1 REVERT JUMPDEST DUP3 DUP3 PUSH1 0x20 DUP4 ADD CALLDATACOPY PUSH1 0x0 PUSH1 0x20 DUP5 DUP4 ADD ADD MSTORE SWAP4 SWAP3 POP POP POP JUMP JUMPDEST PUSH1 0x0 DUP3 PUSH1 0x1F DUP4 ADD SLT PUSH2 0x2E5C JUMPI PUSH1 0x0 DUP1 REVERT JUMPDEST DUP2 CALLDATALOAD PUSH1 0x20 PUSH2 0x2E6C PUSH2 0x2D46 DUP4 PUSH2 0x2D02 JUMP JUMPDEST DUP3 DUP2 MSTORE PUSH1 0x5 SWAP3 SWAP1 SWAP3 SHL DUP5 ADD DUP2 ADD SWAP2 DUP2 DUP2 ADD SWAP1 DUP7 DUP5 GT ISZERO PUSH2 0x2E8B JUMPI PUSH1 0x0 DUP1 REVERT JUMPDEST DUP3 DUP7 ADD JUMPDEST DUP5 DUP2 LT ISZERO PUSH2 0x2D8E JUMPI DUP1 CALLDATALOAD PUSH1 0x1 PUSH1 0x1 PUSH1 0x40 SHL SUB DUP2 GT ISZERO PUSH2 0x2EAE JUMPI PUSH1 0x0 DUP1 DUP2 REVERT JUMPDEST DUP8 ADD PUSH1 0x3F DUP2 ADD DUP10 SGT PUSH2 0x2EC0 JUMPI PUSH1 0x0 DUP1 DUP2 REVERT JUMPDEST PUSH2 0x2ED1 DUP10 DUP7 DUP4 ADD CALLDATALOAD PUSH1 0x40 DUP5 ADD PUSH2 0x2DF4 JUMP JUMPDEST DUP5 MSTORE POP SWAP2 DUP4 ADD SWAP2 DUP4 ADD PUSH2 0x2E8F JUMP JUMPDEST PUSH1 0x0 DUP3 PUSH1 0x1F DUP4 ADD SLT PUSH2 0x2EF0 JUMPI PUSH1 0x0 DUP1 REVERT JUMPDEST PUSH2 0x1973 DUP4 DUP4 CALLDATALOAD PUSH1 0x20 DUP6 ADD PUSH2 0x2DF4 JUMP JUMPDEST PUSH1 0x0 DUP1 PUSH1 0x0 DUP1 PUSH1 0x0 PUSH1 0xA0 DUP7 DUP9 SUB SLT ISZERO PUSH2 0x2F17 JUMPI PUSH1 0x0 DUP1 REVERT JUMPDEST DUP6 CALLDATALOAD PUSH2 0x2F22 DUP2 PUSH2 0x2AF2 JUMP JUMPDEST SWAP5 POP PUSH1 0x20 DUP7 ADD CALLDATALOAD PUSH1 0x1 PUSH1 0x1 PUSH1 0x40 SHL SUB DUP1 DUP3 GT ISZERO PUSH2 0x2F3E JUMPI PUSH1 0x0 DUP1 REVERT JUMPDEST PUSH2 0x2F4A DUP10 DUP4 DUP11 ADD PUSH2 0x2D25 JUMP JUMPDEST SWAP6 POP PUSH1 0x40 DUP9 ADD CALLDATALOAD SWAP2 POP DUP1 DUP3 GT ISZERO PUSH2 0x2F60 JUMPI PUSH1 0x0 DUP1 REVERT JUMPDEST PUSH2 0x2F6C DUP10 DUP4 DUP11 ADD PUSH2 0x2D99 JUMP JUMPDEST SWAP5 POP PUSH1 0x60 DUP9 ADD CALLDATALOAD SWAP2 POP DUP1 DUP3 GT ISZERO PUSH2 0x2F82 JUMPI PUSH1 0x0 DUP1 REVERT JUMPDEST PUSH2 0x2F8E DUP10 DUP4 DUP11 ADD PUSH2 0x2E4B JUMP JUMPDEST SWAP4 POP PUSH1 0x80 DUP9 ADD CALLDATALOAD SWAP2 POP DUP1 DUP3 GT ISZERO PUSH2 0x2FA4 JUMPI PUSH1 0x0 DUP1 REVERT JUMPDEST POP PUSH2 0x2FB1 DUP9 DUP3 DUP10 ADD PUSH2 0x2EDF JUMP JUMPDEST SWAP2 POP POP SWAP3 SWAP6 POP SWAP3 SWAP6 SWAP1 SWAP4 POP JUMP JUMPDEST PUSH1 0x0 PUSH1 0x20 DUP3 DUP5 SUB SLT ISZERO PUSH2 0x2FD0 JUMPI PUSH1 0x0 DUP1 REVERT JUMPDEST POP CALLDATALOAD SWAP2 SWAP1 POP JUMP JUMPDEST PUSH1 0x0 DUP3 PUSH1 0x1F DUP4 ADD SLT PUSH2 0x2FE8 JUMPI PUSH1 0x0 DUP1 REVERT JUMPDEST DUP2 CALLDATALOAD PUSH1 0x20 PUSH2 0x2FF8 PUSH2 0x2D46 DUP4 PUSH2 0x2D02 JUMP JUMPDEST DUP3 DUP2 MSTORE PUSH1 0x5 SWAP3 SWAP1 SWAP3 SHL DUP5 ADD DUP2 ADD SWAP2 DUP2 DUP2 ADD SWAP1 DUP7 DUP5 GT ISZERO PUSH2 0x3017 JUMPI PUSH1 0x0 DUP1 REVERT JUMPDEST DUP3 DUP7 ADD JUMPDEST DUP5 DUP2 LT ISZERO PUSH2 0x2D8E JUMPI DUP1 CALLDATALOAD PUSH1 0x1 PUSH1 0x1 PUSH1 0x40 SHL SUB DUP2 GT ISZERO PUSH2 0x303A JUMPI PUSH1 0x0 DUP1 DUP2 REVERT JUMPDEST PUSH2 0x3048 DUP10 DUP7 DUP4 DUP12 ADD ADD PUSH2 0x2EDF JUMP JUMPDEST DUP5 MSTORE POP SWAP2 DUP4 ADD SWAP2 DUP4 ADD PUSH2 0x301B JUMP JUMPDEST PUSH1 0x0 DUP1 PUSH1 0x0 DUP1 PUSH1 0x0 DUP1 PUSH1 0xC0 DUP8 DUP10 SUB SLT ISZERO PUSH2 0x306F JUMPI PUSH1 0x0 DUP1 REVERT JUMPDEST PUSH2 0x3078 DUP8 PUSH2 0x2CAC JUMP JUMPDEST SWAP6 POP PUSH1 0x20 DUP8 ADD CALLDATALOAD PUSH1 0x1 PUSH1 0x1 PUSH1 0x40 SHL SUB DUP1 DUP3 GT ISZERO PUSH2 0x3094 JUMPI PUSH1 0x0 DUP1 REVERT JUMPDEST PUSH2 0x30A0 DUP11 DUP4 DUP12 ADD PUSH2 0x2D25 JUMP JUMPDEST SWAP7 POP PUSH1 0x40 DUP10 ADD CALLDATALOAD SWAP2 POP DUP1 DUP3 GT ISZERO PUSH2 0x30B6 JUMPI PUSH1 0x0 DUP1 REVERT JUMPDEST PUSH2 0x30C2 DUP11 DUP4 DUP12 ADD PUSH2 0x2D99 JUMP JUMPDEST SWAP6 POP PUSH1 0x60 DUP10 ADD CALLDATALOAD SWAP2 POP DUP1 DUP3 GT ISZERO PUSH2 0x30D8 JUMPI PUSH1 0x0 DUP1 REVERT JUMPDEST PUSH2 0x30E4 DUP11 DUP4 DUP12 ADD PUSH2 0x2FD7 JUMP JUMPDEST SWAP5 POP PUSH1 0x80 DUP10 ADD CALLDATALOAD SWAP2 POP DUP1 DUP3 GT ISZERO PUSH2 0x30FA JUMPI PUSH1 0x0 DUP1 REVERT JUMPDEST PUSH2 0x3106 DUP11 DUP4 DUP12 ADD PUSH2 0x2E4B JUMP JUMPDEST SWAP4 POP PUSH1 0xA0 DUP10 ADD CALLDATALOAD SWAP2 POP DUP1 DUP3 GT ISZERO PUSH2 0x311C JUMPI PUSH1 0x0 DUP1 REVERT JUMPDEST POP PUSH2 0x3129 DUP10 DUP3 DUP11 ADD PUSH2 0x2EDF JUMP JUMPDEST SWAP2 POP POP SWAP3 SWAP6 POP SWAP3 SWAP6 POP SWAP3 SWAP6 JUMP JUMPDEST PUSH1 0x0 DUP1 PUSH1 0x0 PUSH1 0x60 DUP5 DUP7 SUB SLT ISZERO PUSH2 0x314B JUMPI PUSH1 0x0 DUP1 REVERT JUMPDEST DUP4 CALLDATALOAD PUSH2 0x3156 DUP2 PUSH2 0x2AF2 JUMP JUMPDEST SWAP3 POP PUSH1 0x20 DUP5 ADD CALLDATALOAD SWAP2 POP PUSH1 0x40 DUP5 ADD CALLDATALOAD PUSH1 0xFF DUP2 AND DUP2 EQ PUSH2 0x2BB3 JUMPI PUSH1 0x0 DUP1 REVERT JUMPDEST PUSH1 0x0 DUP1 PUSH1 0x40 DUP4 DUP6 SUB SLT ISZERO PUSH2 0x3186 JUMPI PUSH1 0x0 DUP1 REVERT JUMPDEST DUP3 CALLDATALOAD PUSH2 0x3191 DUP2 PUSH2 0x2AF2 JUMP JUMPDEST SWAP5 PUSH1 0x20 SWAP4 SWAP1 SWAP4 ADD CALLDATALOAD SWAP4 POP POP POP JUMP JUMPDEST PUSH1 0x0 DUP1 PUSH1 0x20 DUP4 DUP6 SUB SLT ISZERO PUSH2 0x31B2 JUMPI PUSH1 0x0 DUP1 REVERT JUMPDEST DUP3 CALLDATALOAD PUSH1 0x1 PUSH1 0x1 PUSH1 0x40 SHL SUB DUP1 DUP3 GT ISZERO PUSH2 0x31C9 JUMPI PUSH1 0x0 DUP1 REVERT JUMPDEST DUP2 DUP6 ADD SWAP2 POP DUP6 PUSH1 0x1F DUP4 ADD SLT PUSH2 0x31DD JUMPI PUSH1 0x0 DUP1 REVERT JUMPDEST DUP2 CALLDATALOAD DUP2 DUP2 GT ISZERO PUSH2 0x31EC JUMPI PUSH1 0x0 DUP1 REVERT JUMPDEST DUP7 PUSH1 0x20 DUP3 PUSH1 0x5 SHL DUP6 ADD ADD GT ISZERO PUSH2 0x3201 JUMPI PUSH1 0x0 DUP1 REVERT JUMPDEST PUSH1 0x20 SWAP3 SWAP1 SWAP3 ADD SWAP7 SWAP2 SWAP6 POP SWAP1 SWAP4 POP POP POP POP JUMP JUMPDEST PUSH1 0x20 DUP2 MSTORE PUSH1 0x0 PUSH2 0x1973 PUSH1 0x20 DUP4 ADD DUP5 PUSH2 0x2C4E JUMP JUMPDEST PUSH1 0x20 DUP1 DUP3 MSTORE DUP2 DUP2 ADD MSTORE PUSH32 0x4F776E61626C653A2063616C6C6572206973206E6F7420746865206F776E6572 PUSH1 0x40 DUP3 ADD MSTORE PUSH1 0x60 ADD SWAP1 JUMP JUMPDEST PUSH1 0x20 DUP1 DUP3 MSTORE PUSH1 0x19 SWAP1 DUP3 ADD MSTORE PUSH32 0x6D616E6167657220636F6E747261637420726571756972656400000000000000 PUSH1 0x40 DUP3 ADD MSTORE PUSH1 0x60 ADD SWAP1 JUMP JUMPDEST PUSH4 0x4E487B71 PUSH1 0xE0 SHL PUSH1 0x0 MSTORE PUSH1 0x11 PUSH1 0x4 MSTORE PUSH1 0x24 PUSH1 0x0 REVERT JUMPDEST PUSH1 0x0 DUP3 DUP3 LT ISZERO PUSH2 0x32BA JUMPI PUSH2 0x32BA PUSH2 0x3292 JUMP JUMPDEST POP SUB SWAP1 JUMP JUMPDEST PUSH1 0x0 PUSH1 0x20 DUP3 DUP5 SUB SLT ISZERO PUSH2 0x32D1 JUMPI PUSH1 0x0 DUP1 REVERT JUMPDEST POP MLOAD SWAP2 SWAP1 POP JUMP JUMPDEST PUSH1 0x0 PUSH1 0x20 DUP3 DUP5 SUB SLT ISZERO PUSH2 0x32EA JUMPI PUSH1 0x0 DUP1 REVERT JUMPDEST DUP2 MLOAD PUSH2 0x1973 DUP2 PUSH2 0x2AF2 JUMP JUMPDEST PUSH4 0x4E487B71 PUSH1 0xE0 SHL PUSH1 0x0 MSTORE PUSH1 0x32 PUSH1 0x4 MSTORE PUSH1 0x24 PUSH1 0x0 REVERT JUMPDEST PUSH1 0x0 PUSH1 0x0 NOT DUP3 EQ ISZERO PUSH2 0x331F JUMPI PUSH2 0x331F PUSH2 0x3292 JUMP JUMPDEST POP PUSH1 0x1 ADD SWAP1 JUMP JUMPDEST PUSH1 0x0 JUMPDEST DUP4 DUP2 LT ISZERO PUSH2 0x3341 JUMPI DUP2 DUP2 ADD MLOAD DUP4 DUP3 ADD MSTORE PUSH1 0x20 ADD PUSH2 0x3329 JUMP JUMPDEST DUP4 DUP2 GT ISZERO PUSH2 0x2899 JUMPI POP POP PUSH1 0x0 SWAP2 ADD MSTORE JUMP JUMPDEST PUSH1 0x0 DUP2 MLOAD DUP1 DUP5 MSTORE PUSH2 0x336A DUP2 PUSH1 0x20 DUP7 ADD PUSH1 0x20 DUP7 ADD PUSH2 0x3326 JUMP JUMPDEST PUSH1 0x1F ADD PUSH1 0x1F NOT AND SWAP3 SWAP1 SWAP3 ADD PUSH1 0x20 ADD SWAP3 SWAP2 POP POP JUMP JUMPDEST PUSH1 0x0 DUP2 MLOAD DUP1 DUP5 MSTORE PUSH1 0x20 DUP1 DUP6 ADD DUP1 DUP2 SWAP7 POP DUP4 PUSH1 0x5 SHL DUP2 ADD SWAP2 POP DUP3 DUP7 ADD PUSH1 0x0 JUMPDEST DUP6 DUP2 LT ISZERO PUSH2 0x33C6 JUMPI DUP3 DUP5 SUB DUP10 MSTORE PUSH2 0x33B4 DUP5 DUP4 MLOAD PUSH2 0x3352 JUMP JUMPDEST SWAP9 DUP6 ADD SWAP9 SWAP4 POP SWAP1 DUP5 ADD SWAP1 PUSH1 0x1 ADD PUSH2 0x339C JUMP JUMPDEST POP SWAP2 SWAP8 SWAP7 POP POP POP POP POP POP POP JUMP JUMPDEST PUSH1 0x80 DUP2 MSTORE PUSH1 0x0 PUSH2 0x33E6 PUSH1 0x80 DUP4 ADD DUP8 PUSH2 0x2BBE JUMP JUMPDEST DUP3 DUP2 SUB PUSH1 0x20 DUP5 ADD MSTORE PUSH2 0x33F8 DUP2 DUP8 PUSH2 0x2C4E JUMP JUMPDEST SWAP1 POP DUP3 DUP2 SUB PUSH1 0x40 DUP5 ADD MSTORE PUSH2 0x340C DUP2 DUP7 PUSH2 0x337E JUMP JUMPDEST SWAP1 POP DUP3 DUP2 SUB PUSH1 0x60 DUP5 ADD MSTORE PUSH2 0x2AAE DUP2 DUP6 PUSH2 0x3352 JUMP JUMPDEST PUSH1 0x0 DUP3 NOT DUP3 GT ISZERO PUSH2 0x3433 JUMPI PUSH2 0x3433 PUSH2 0x3292 JUMP JUMPDEST POP ADD SWAP1 JUMP JUMPDEST PUSH1 0x0 PUSH1 0x20 DUP3 DUP5 SUB SLT ISZERO PUSH2 0x344A JUMPI PUSH1 0x0 DUP1 REVERT JUMPDEST DUP2 MLOAD PUSH2 0x1973 DUP2 PUSH2 0x2B65 JUMP JUMPDEST PUSH1 0xA0 DUP2 MSTORE PUSH1 0x0 PUSH2 0x3468 PUSH1 0xA0 DUP4 ADD DUP9 PUSH2 0x2BBE JUMP JUMPDEST PUSH1 0x20 DUP4 DUP3 SUB DUP2 DUP6 ADD MSTORE PUSH2 0x347B DUP3 DUP10 PUSH2 0x2C4E JUMP JUMPDEST SWAP2 POP DUP4 DUP3 SUB PUSH1 0x40 DUP6 ADD MSTORE DUP2 DUP8 MLOAD DUP1 DUP5 MSTORE DUP3 DUP5 ADD SWAP2 POP DUP3 DUP2 PUSH1 0x5 SHL DUP6 ADD ADD DUP4 DUP11 ADD PUSH1 0x0 JUMPDEST DUP4 DUP2 LT ISZERO PUSH2 0x34CC JUMPI PUSH1 0x1F NOT DUP8 DUP5 SUB ADD DUP6 MSTORE PUSH2 0x34BA DUP4 DUP4 MLOAD PUSH2 0x3352 JUMP JUMPDEST SWAP5 DUP7 ADD SWAP5 SWAP3 POP SWAP1 DUP6 ADD SWAP1 PUSH1 0x1 ADD PUSH2 0x349E JUMP JUMPDEST POP POP DUP7 DUP2 SUB PUSH1 0x60 DUP9 ADD MSTORE PUSH2 0x34E0 DUP2 DUP11 PUSH2 0x337E JUMP JUMPDEST SWAP5 POP POP POP POP POP DUP3 DUP2 SUB PUSH1 0x80 DUP5 ADD MSTORE PUSH2 0x34F8 DUP2 DUP6 PUSH2 0x3352 JUMP JUMPDEST SWAP9 SWAP8 POP POP POP POP POP POP POP POP JUMP JUMPDEST DUP2 DUP4 MSTORE PUSH1 0x0 PUSH1 0x20 DUP1 DUP6 ADD SWAP5 POP DUP3 PUSH1 0x0 JUMPDEST DUP6 DUP2 LT ISZERO PUSH2 0x2BF7 JUMPI DUP2 CALLDATALOAD PUSH2 0x3527 DUP2 PUSH2 0x2AF2 JUMP JUMPDEST PUSH1 0x1 PUSH1 0x1 PUSH1 0xA0 SHL SUB AND DUP8 MSTORE SWAP6 DUP3 ADD SWAP6 SWAP1 DUP3 ADD SWAP1 PUSH1 0x1 ADD PUSH2 0x3514 JUMP JUMPDEST PUSH1 0x1 PUSH1 0x1 PUSH1 0xA0 SHL SUB DUP5 AND DUP2 MSTORE PUSH1 0x40 PUSH1 0x20 DUP3 ADD DUP2 SWAP1 MSTORE PUSH1 0x0 SWAP1 PUSH2 0x2CA3 SWAP1 DUP4 ADD DUP5 DUP7 PUSH2 0x3504 JUMP JUMPDEST PUSH1 0x40 DUP2 MSTORE PUSH1 0x0 PUSH2 0x357B PUSH1 0x40 DUP4 ADD DUP6 DUP8 PUSH2 0x3504 JUMP JUMPDEST DUP3 DUP2 SUB PUSH1 0x20 DUP5 ADD MSTORE PUSH2 0x358D DUP2 DUP6 PUSH2 0x2C4E JUMP JUMPDEST SWAP7 SWAP6 POP POP POP POP POP POP JUMP JUMPDEST PUSH1 0x0 DUP3 PUSH2 0x35B4 JUMPI PUSH4 0x4E487B71 PUSH1 0xE0 SHL PUSH1 0x0 MSTORE PUSH1 0x12 PUSH1 0x4 MSTORE PUSH1 0x24 PUSH1 0x0 REVERT JUMPDEST POP DIV SWAP1 JUMP JUMPDEST PUSH1 0x0 DUP2 PUSH1 0x0 NOT DIV DUP4 GT DUP3 ISZERO ISZERO AND ISZERO PUSH2 0x35D3 JUMPI PUSH2 0x35D3 PUSH2 0x3292 JUMP JUMPDEST POP MUL SWAP1 JUMP JUMPDEST PUSH1 0x0 DUP3 MLOAD PUSH2 0x35EA DUP2 DUP5 PUSH1 0x20 DUP8 ADD PUSH2 0x3326 JUMP JUMPDEST SWAP2 SWAP1 SWAP2 ADD SWAP3 SWAP2 POP POP JUMP JUMPDEST PUSH1 0x20 DUP2 MSTORE PUSH1 0x0 PUSH2 0x1973 PUSH1 0x20 DUP4 ADD DUP5 PUSH2 0x3352 JUMP INVALID LOG2 PUSH5 0x6970667358 0x22 SLT KECCAK256 0xB6 INVALID 0xAD 0x4A 0xEE MULMOD CALL 0xEA SWAP11 0xDA 0xAD 0x5F 0xB2 PUSH12 0x301E2F6875061001A5DA8B05 0xB4 0xF8 0xE6 EQ CALLER 0xEE PUSH5 0x736F6C6343 STOP ADDMOD SIGNEXTEND STOP CALLER ",
  "sha1": "bc0b93a1d466ad012a4e0616bb9ce7620ebd67bb",
  "source": "// SPDX-License-Identifier: GPL-3.0-or-later\npragma solidity =0.8.11;\n\nimport \"./SnapshotDelegator.sol\";\nimport \"./VoteEscrowTokenManager.sol\";\nimport \"./LiquidityGaugeVoter.sol\";\nimport \"./GovernorVoter.sol\";\nimport \"@openzeppelin/contracts/token/ERC20/ERC20.sol\";\nimport \"../interfaces/balancer/ILiquidityGauge.sol\";\nimport \"../interfaces/balancer/ILiquidityGaugeController.sol\";\nimport \"../interfaces/balancer/IFeeDistributor.sol\";\nimport \"../interfaces/balancer/IVeToken.sol\";\nimport \"../interfaces/notional/IStakedNote.sol\";\nimport \"../interfaces/balancer/IBalancerMinter.sol\";\n\n/// @title 80-BAL-20-WETH BPT PCV Deposit\n/// @author Fei Protocol\ncontract VeBalDelegator is\n    SnapshotDelegator,\n    VoteEscrowTokenManager,\n    LiquidityGaugeVoter,\n    GovernorVoter\n{\n    uint256 private constant YEAR = 365 * 86400; // 1 year, in seconds\n\n    /// @notice veBAL token manager\n    constructor(\n        ERC20 _liquidityToken,\n        IVeToken _veBal,\n        IFeeDistributor _feeDistributor,\n        IBalancerMinter _balancerMinter,\n        address _gaugeController,\n        IStakedNote _sNOTE,\n        IDelegateRegistry _delegateRegistry,\n        bytes32 _spaceId,\n        address _initialDelegate\n    )\n        SnapshotDelegator(_delegateRegistry, spaceId, _initialDelegate)\n        VoteEscrowTokenManager(_liquidityToken, _veBal, _sNOTE, YEAR)\n        LiquidityGaugeVoter(_balancerMinter, _feeDistributor, _gaugeController)\n        GovernorVoter()\n    {\n        owner = msg.sender;\n        emit OwnershipTransferred(address(0), owner);\n    }\n}\n",
  "sourcePath": "contracts/VeBalDelegator.sol",
  "type": "contract"
}