{
  "abi": [
    {
      "type": "constructor",
      "inputs": [],
      "stateMutability": "nonpayable"
    },
    {
      "type": "receive",
      "stateMutability": "payable"
    },
    {
      "type": "function",
      "name": "NOTIONAL",
      "inputs": [],
      "outputs": [
        {
          "name": "",
          "type": "address",
          "internalType": "contract NotionalProxy"
        }
      ],
      "stateMutability": "view"
    },
    {
      "type": "function",
      "name": "callback",
      "inputs": [
        {
          "name": "",
          "type": "address",
          "internalType": "address"
        },
        {
          "name": "paymentReceiver",
          "type": "address",
          "internalType": "address"
        },
        {
          "name": "",
          "type": "address",
          "internalType": "address"
        },
        {
          "name": "",
          "type": "uint256",
          "internalType": "uint256"
        },
        {
          "name": "fee",
          "type": "uint256",
          "internalType": "uint256"
        },
        {
          "name": "data",
          "type": "bytes",
          "internalType": "bytes"
        }
      ],
      "outputs": [
        {
          "name": "",
          "type": "bytes",
          "internalType": "bytes"
        }
      ],
      "stateMutability": "nonpayable"
    },
    {
      "type": "function",
      "name": "claimOwnership",
      "inputs": [],
      "outputs": [],
      "stateMutability": "nonpayable"
    },
    {
      "type": "function",
      "name": "enableCurrencies",
      "inputs": [
        {
          "name": "currencies",
          "type": "uint16[]",
          "internalType": "uint16[]"
        }
      ],
      "outputs": [],
      "stateMutability": "nonpayable"
    },
    {
      "type": "function",
      "name": "estimateProfit",
      "inputs": [
        {
          "name": "flashLenderWrapper",
          "type": "address",
          "internalType": "address"
        },
        {
          "name": "asset",
          "type": "address",
          "internalType": "address"
        },
        {
          "name": "amount",
          "type": "uint256",
          "internalType": "uint256"
        },
        {
          "name": "params",
          "type": "tuple",
          "internalType": "struct FlashLiquidator.LiquidationParams",
          "components": [
            {
              "name": "liquidationType",
              "type": "uint8",
              "internalType": "enum FlashLiquidator.LiquidationType"
            },
            {
              "name": "vault",
              "type": "address",
              "internalType": "address"
            },
            {
              "name": "accounts",
              "type": "address[]",
              "internalType": "address[]"
            },
            {
              "name": "redeemData",
              "type": "bytes",
              "internalType": "bytes"
            },
            {
              "name": "currencyId",
              "type": "uint16",
              "internalType": "uint16"
            },
            {
              "name": "currencyIndex",
              "type": "uint16",
              "internalType": "uint16"
            }
          ]
        }
      ],
      "outputs": [
        {
          "name": "",
          "type": "uint256",
          "internalType": "uint256"
        }
      ],
      "stateMutability": "nonpayable"
    },
    {
      "type": "function",
      "name": "flashLiquidate",
      "inputs": [
        {
          "name": "flashLenderWrapper",
          "type": "address",
          "internalType": "address"
        },
        {
          "name": "asset",
          "type": "address",
          "internalType": "address"
        },
        {
          "name": "amount",
          "type": "uint256",
          "internalType": "uint256"
        },
        {
          "name": "params",
          "type": "tuple",
          "internalType": "struct FlashLiquidator.LiquidationParams",
          "components": [
            {
              "name": "liquidationType",
              "type": "uint8",
              "internalType": "enum FlashLiquidator.LiquidationType"
            },
            {
              "name": "vault",
              "type": "address",
              "internalType": "address"
            },
            {
              "name": "accounts",
              "type": "address[]",
              "internalType": "address[]"
            },
            {
              "name": "redeemData",
              "type": "bytes",
              "internalType": "bytes"
            },
            {
              "name": "currencyId",
              "type": "uint16",
              "internalType": "uint16"
            },
            {
              "name": "currencyIndex",
              "type": "uint16",
              "internalType": "uint16"
            }
          ]
        }
      ],
      "outputs": [],
      "stateMutability": "nonpayable"
    },
    {
      "type": "function",
      "name": "flashLiquidateBatch",
      "inputs": [
        {
          "name": "flashLenderWrapper",
          "type": "address[]",
          "internalType": "address[]"
        },
        {
          "name": "asset",
          "type": "address[]",
          "internalType": "address[]"
        },
        {
          "name": "amount",
          "type": "uint256[]",
          "internalType": "uint256[]"
        },
        {
          "name": "params",
          "type": "tuple[]",
          "internalType": "struct FlashLiquidator.LiquidationParams[]",
          "components": [
            {
              "name": "liquidationType",
              "type": "uint8",
              "internalType": "enum FlashLiquidator.LiquidationType"
            },
            {
              "name": "vault",
              "type": "address",
              "internalType": "address"
            },
            {
              "name": "accounts",
              "type": "address[]",
              "internalType": "address[]"
            },
            {
              "name": "redeemData",
              "type": "bytes",
              "internalType": "bytes"
            },
            {
              "name": "currencyId",
              "type": "uint16",
              "internalType": "uint16"
            },
            {
              "name": "currencyIndex",
              "type": "uint16",
              "internalType": "uint16"
            }
          ]
        }
      ],
      "outputs": [],
      "stateMutability": "nonpayable"
    },
    {
      "type": "function",
      "name": "getOptimalDeleveragingParams",
      "inputs": [
        {
          "name": "account",
          "type": "address",
          "internalType": "address"
        },
        {
          "name": "vault",
          "type": "address",
          "internalType": "address"
        }
      ],
      "outputs": [
        {
          "name": "currencyIndex",
          "type": "uint16",
          "internalType": "uint16"
        },
        {
          "name": "maxUnderlying",
          "type": "int256",
          "internalType": "int256"
        }
      ],
      "stateMutability": "nonpayable"
    },
    {
      "type": "function",
      "name": "owner",
      "inputs": [],
      "outputs": [
        {
          "name": "",
          "type": "address",
          "internalType": "address"
        }
      ],
      "stateMutability": "view"
    },
    {
      "type": "function",
      "name": "pendingOwner",
      "inputs": [],
      "outputs": [
        {
          "name": "",
          "type": "address",
          "internalType": "address"
        }
      ],
      "stateMutability": "view"
    },
    {
      "type": "function",
      "name": "transferOwnership",
      "inputs": [
        {
          "name": "newOwner",
          "type": "address",
          "internalType": "address"
        },
        {
          "name": "direct",
          "type": "bool",
          "internalType": "bool"
        },
        {
          "name": "renounce",
          "type": "bool",
          "internalType": "bool"
        }
      ],
      "outputs": [],
      "stateMutability": "nonpayable"
    },
    {
      "type": "function",
      "name": "withdrawToOwner",
      "inputs": [
        {
          "name": "token",
          "type": "address",
          "internalType": "address"
        },
        {
          "name": "amount",
          "type": "uint256",
          "internalType": "uint256"
        }
      ],
      "outputs": [],
      "stateMutability": "nonpayable"
    },
    {
      "type": "function",
      "name": "wrapETH",
      "inputs": [],
      "outputs": [],
      "stateMutability": "nonpayable"
    },
    {
      "type": "event",
      "name": "OwnershipTransferred",
      "inputs": [
        {
          "name": "previousOwner",
          "type": "address",
          "indexed": true,
          "internalType": "address"
        },
        {
          "name": "newOwner",
          "type": "address",
          "indexed": true,
          "internalType": "address"
        }
      ],
      "anonymous": false
    },
    {
      "type": "error",
      "name": "ERC20Error",
      "inputs": []
    },
    {
      "type": "error",
      "name": "ErrInvalidCurrencyIndex",
      "inputs": [
        {
          "name": "index",
          "type": "uint16",
          "internalType": "uint16"
        }
      ]
    }
  ],
  "bytecode": {
    "object": "0x60a060405234801562000010575f80fd5b5046600181146200001f575f80fd5b736e7058c91f85e0f6db4fc9da2ca41241f5e4263f60808190525f80546001600160a01b03191633178155604080516302665c2760e11b815290519192916304ccb84e916004808201926020929091908290030181865afa15801562000087573d5f803e3d5ffd5b505050506040513d601f19601f82011682018060405250810190620000ad91906200044c565b90505f8161ffff166001600160401b03811115620000cf57620000cf62000476565b604051908082528060200260200182016040528015620000f9578160200160208202803683370190505b50905060015b8261ffff168161ffff16116200015d5780826200011e6001836200049e565b61ffff1681518110620001355762000135620004c3565b61ffff90921660209283029190910190910152806200015481620004d7565b915050620000ff565b506200016981620001aa565b5f80546040516001600160a01b0390911691907f8be0079c531659141344cd1fd0a4f28419497f9722a3daafe3b4186f6b6457e0908290a3505050620005f9565b5f546001600160a01b03163314620002085760405162461bcd60e51b815260206004820181905260248201527f4f776e61626c653a2063616c6c6572206973206e6f7420746865206f776e6572604482015260640160405180910390fd5b5f5b8151811015620002d9575f6080516001600160a01b0316634ebad18e8484815181106200023b576200023b620004c3565b60200260200101516040518263ffffffff1660e01b81526004016200026a919061ffff91909116815260200190565b61014060405180830381865afa15801562000287573d5f803e3d5ffd5b505050506040513d601f19601f82011682018060405250810190620002ad9190620005c0565b6080518151919350620002cf92506001600160a01b03909116905f19620002dd565b506001016200020a565b5050565b6001600160a01b038316620002f157505050565b60405163095ea7b360e01b81526001600160a01b0383811660048301525f602483015284169063095ea7b3906044015f604051808303815f87803b15801562000338575f80fd5b505af11580156200034b573d5f803e3d5ffd5b505050506200035f620003da60201b60201c565b8015620003d55760405163095ea7b360e01b81526001600160a01b0383811660048301526024820183905284169063095ea7b3906044015f604051808303815f87803b158015620003ae575f80fd5b505af1158015620003c1573d5f803e3d5ffd5b50505050620003d5620003da60201b60201c565b505050565b5f620003e56200042e565b3d8015620003fa576020811462000404575f80fd5b600192506200040e565b60205f833e815192505b5081620002d95760405163012c72af60e71b815260040160405180910390fd5b60405180602001604052806001906020820280368337509192915050565b5f602082840312156200045d575f80fd5b815161ffff811681146200046f575f80fd5b9392505050565b634e487b7160e01b5f52604160045260245ffd5b634e487b7160e01b5f52601160045260245ffd5b61ffff828116828216039080821115620004bc57620004bc6200048a565b5092915050565b634e487b7160e01b5f52603260045260245ffd5b5f61ffff808316818103620004f057620004f06200048a565b6001019392505050565b805180151581146200050a575f80fd5b919050565b8051600681106200050a575f80fd5b5f60a082840312156200052f575f80fd5b60405160a081016001600160401b03811182821017156200055e57634e487b7160e01b5f52604160045260245ffd5b604052825190915081906001600160a01b03811681146200057d575f80fd5b81526200058d60208401620004fa565b602082015260408301516040820152620005aa606084016200050f565b6060820152608083015160808201525092915050565b5f806101408385031215620005d3575f80fd5b620005df84846200051e565b9150620005f08460a085016200051e565b90509250929050565b608051612c2e620006745f395f818161020b015281816107aa0152818161086c015281816109d501528181610b4801528181610efb01528181610fad0152818161103a0152818161124c0152818161134f015281816114460152818161158001528181611633015281816119140152611a660152612c2e5ff3fe6080604052600436106100dc575f3560e01c80637ef2d3781161007c578063a85ef67811610057578063a85ef67814610263578063b12ffdad14610277578063e30c397814610296578063e8660a03146102b5575f80fd5b80637ef2d378146101db578063858dccb3146101fa5780638da5cb5b14610245575f80fd5b80632ee4e291116100b75780632ee4e2911461015c57806347c62a0d146101895780634e71e0c8146101a85780634f2ae24f146101bc575f80fd5b8063078dfbe7146100e7578063089381eb1461010857806311ee5be514610127575f80fd5b366100e357005b5f80fd5b3480156100f2575f80fd5b50610106610101366004611b19565b6102ee565b005b348015610113575f80fd5b50610106610122366004611b77565b610402565b348015610132575f80fd5b50610146610141366004611bde565b610416565b6040516101539190611cdf565b60405180910390f35b348015610167575f80fd5b5061017b610176366004611cf8565b61049d565b604051908152602001610153565b348015610194575f80fd5b506101066101a3366004611d4c565b6105b8565b3480156101b3575f80fd5b506101066105ef565b3480156101c7575f80fd5b506101066101d6366004611cf8565b6106aa565b3480156101e6575f80fd5b506101066101f5366004611db6565b6106b7565b348015610205575f80fd5b5061022d7f000000000000000000000000000000000000000000000000000000000000000081565b6040516001600160a01b039091168152602001610153565b348015610250575f80fd5b505f5461022d906001600160a01b031681565b34801561026e575f80fd5b50610106610740565b348015610282575f80fd5b50610106610291366004611f7e565b610773565b3480156102a1575f80fd5b5060015461022d906001600160a01b031681565b3480156102c0575f80fd5b506102d46102cf366004612017565b61089b565b6040805161ffff9093168352602083019190915201610153565b5f546001600160a01b031633146103205760405162461bcd60e51b81526004016103179061204e565b60405180910390fd5b81156103e1576001600160a01b03831615158061033a5750805b61037e5760405162461bcd60e51b81526020600482015260156024820152744f776e61626c653a207a65726f206164647265737360581b6044820152606401610317565b5f80546040516001600160a01b03808716939216917f8be0079c531659141344cd1fd0a4f28419497f9722a3daafe3b4186f6b6457e091a35f80546001600160a01b0385166001600160a01b031991821617909155600180549091169055505050565b600180546001600160a01b0319166001600160a01b0385161790555b505050565b6104108484846001856108c3565b50505050565b6060610458848885858080601f0160208091040260200160405190810160405280939291908181526020018383808284375f9201919091525061096f92505050565b6040516020016104819060208082526005908201526468656c6c6f60d81b604082015260600190565b6040516020818303038152906040529050979650505050505050565b5f80546001600160a01b031633146104c75760405162461bcd60e51b81526004016103179061204e565b6040516370a0823160e01b81523060048201525f906001600160a01b038616906370a0823190602401602060405180830381865afa15801561050b573d5f803e3d5ffd5b505050506040513d601f19601f8201168201806040525081019061052f9190612083565b905061053d85855f86610c9c565b6040516370a0823160e01b815230600482015281906001600160a01b038716906370a0823190602401602060405180830381865afa158015610581573d5f803e3d5ffd5b505050506040513d601f19601f820116820180604052508101906105a59190612083565b6105af91906120ae565b95945050505050565b5f546001600160a01b031633146105e15760405162461bcd60e51b81526004016103179061204e565b6105eb8282610cbd565b5050565b6001546001600160a01b031633811461064a5760405162461bcd60e51b815260206004820181905260248201527f4f776e61626c653a2063616c6c657220213d2070656e64696e67206f776e65726044820152606401610317565b5f80546040516001600160a01b03808516939216917f8be0079c531659141344cd1fd0a4f28419497f9722a3daafe3b4186f6b6457e091a35f80546001600160a01b039092166001600160a01b0319928316179055600180549091169055565b6103fd8383600184610c9c565b5f5b858110156107375761072f8787838181106106d6576106d66120c7565b90506020020160208101906106eb91906120db565b8686848181106106fd576106fd6120c7565b905060200201356001868686818110610718576107186120c7565b905060200281019061072a91906120f6565b610c9c565b6001016106b9565b50505050505050565b5f546001600160a01b031633146107695760405162461bcd60e51b81526004016103179061204e565b610771610d4d565b565b5f546001600160a01b0316331461079c5760405162461bcd60e51b81526004016103179061204e565b5f5b81518110156105eb575f7f00000000000000000000000000000000000000000000000000000000000000006001600160a01b0316634ebad18e8484815181106107e9576107e96120c7565b60200260200101516040518263ffffffff1660e01b8152600401610817919061ffff91909116815260200190565b61014060405180830381865afa158015610833573d5f803e3d5ffd5b505050506040513d601f19601f8201168201806040525081019061085791906121aa565b805190925061089291506001600160a01b03167f00000000000000000000000000000000000000000000000000000000000000005f19610db3565b5060010161079e565b5f805f6108a88585610e96565b9150506108b685858361100b565b92509250505b9250929050565b846001600160a01b03166340a08f10308686888888886040516020016108ec94939291906122f2565b60408051601f19818403018152908290526001600160e01b031960e087901b1682526109259493929130906311ee5be5906004016123d1565b5f604051808303815f875af1158015610940573d5f803e3d5ffd5b505050506040513d5f823e601f3d908101601f19168201604052610967919081019061248c565b505050505050565b5f805f80848060200190518101906109879190612538565b60208181015160405163de1eb9a360e01b81526001600160a01b039182166004820152959950939750919550935073c02aaa39b223fe8d0a0e5c4f27ead9083c756cc282881614925f9282917f00000000000000000000000000000000000000000000000000000000000000009091169063de1eb9a39060240161024060405180830381865afa158015610a1d573d5f803e3d5ffd5b505050506040513d601f19601f82011682018060405250810190610a419190612727565b602001511661ffff161490508115610a5c57610a5c85611127565b5f805b846040015151811015610b20575f85604001518281518110610a8357610a836120c7565b602002602001015190505f80610a9d838960200151610e96565b9092509050600188516002811115610ab757610ab76121ea565b03610ade57610acd83896020015188848b611171565b610ad79086612804565b9450610b15565b600288516002811115610af357610af36121ea565b03610b1557876040015151600114610b09575f80fd5b610b1582898d896112db565b505050600101610a5f565b508015610bc95760208401516060850151604051636ce48f0160e01b81526001600160a01b037f00000000000000000000000000000000000000000000000000000000000000001692636ce48f0192610b8792309291839188915f91829190600401612817565b6020604051808303815f875af1158015610ba3573d5f803e3d5ffd5b505050506040513d601f19601f82011682018060405250810190610bc79190612083565b505b8215610bd757610bd7610d4d565b6040516370a0823160e01b81523060048201525f906001600160a01b038916906370a0823190602401602060405180830381865afa158015610c1b573d5f803e3d5ffd5b505050506040513d601f19601f82011682018060405250810190610c3f9190612083565b9050868111610c4c575f80fd5b8515610c7057610c70888c610c618a856120ae565b610c6b91906120ae565b610cbd565b610c8f8a610c7e8d8a612804565b6001600160a01b038b1691906116a5565b5050505050505050505050565b610410730c86c636ed5593705b5675d370c831972c787841858585856108c3565b5f198103610d2e576040516370a0823160e01b81523060048201526001600160a01b038316906370a0823190602401602060405180830381865afa158015610d07573d5f803e3d5ffd5b505050506040513d601f19601f82011682018060405250810190610d2b9190612083565b90505b80156105eb575f546105eb906001600160a01b038481169116836116a5565b73c02aaa39b223fe8d0a0e5c4f27ead9083c756cc26001600160a01b031663d0e30db0476040518263ffffffff1660e01b81526004015f604051808303818588803b158015610d9a575f80fd5b505af1158015610dac573d5f803e3d5ffd5b5050505050565b6001600160a01b038316610dc657505050565b60405163095ea7b360e01b81526001600160a01b0383811660048301525f602483015284169063095ea7b3906044015f604051808303815f87803b158015610e0c575f80fd5b505af1158015610e1e573d5f803e3d5ffd5b50505050610e2a6116da565b80156103fd5760405163095ea7b360e01b81526001600160a01b0383811660048301526024820183905284169063095ea7b3906044015b5f604051808303815f87803b158015610e78575f80fd5b505af1158015610e8a573d5f803e3d5ffd5b505050506103fd6116da565b610ed26040518060c001604052805f81526020015f81526020015f81526020015f6001600160a01b031681526020015f81526020015f81525090565b6040516321d9f6a560e21b81526001600160a01b03848116600483015283811660248301525f917f000000000000000000000000000000000000000000000000000000000000000090911690638767da949060440160e060405180830381865afa158015610f42573d5f803e3d5ffd5b505050506040513d601f19601f82011682018060405250810190610f669190612871565b6020820151919350915015801590610f815750428260200151105b156108bc57604051631dd8a22160e31b81526001600160a01b03858116600483015284811660248301527f0000000000000000000000000000000000000000000000000000000000000000169063eec51108906044015f604051808303815f87803b158015610fee575f80fd5b505af1158015611000573d5f803e3d5ffd5b505050509250929050565b60405163b14428b960e01b81526001600160a01b03848116600483015283811660248301525f918291829182917f0000000000000000000000000000000000000000000000000000000000000000169063b14428b99060440161018060405180830381865afa158015611080573d5f803e3d5ffd5b505050506040513d601f19601f820116820180604052508101906110a4919061290f565b602081015181519295509093501190506110d15760408101518151106110ca575f6110ea565b60026110ea565b60408101516020820151106110e75760016110ea565b60025b60ff169350818460038110611101576111016120c7565b602002015192505f83131561111d5761111a85846129ce565b92505b5050935093915050565b604051632e1a7d4d60e01b81526004810182905273c02aaa39b223fe8d0a0e5c4f27ead9083c756cc290632e1a7d4d906024015f604051808303815f87803b158015610d9a575f80fd5b5f805f61117f88888761100b565b91509150805f03611194575f925050506105af565b5f846111a0575f6111af565b6111af826402540be4006129f5565b905086156112355760405163fcaf198b60e01b81526001600160a01b0389169063fcaf198b9083906111ed908d908d9030908a908a90600401612a24565b604080518083038185885af1158015611208573d5f803e3d5ffd5b50505050506040513d601f19601f8201168201806040525081019061122d9190612a5b565b5093506112cf565b60405163fcaf198b60e01b81526001600160a01b037f0000000000000000000000000000000000000000000000000000000000000000169063fcaf198b90839061128b908d908d9030908a908a90600401612a24565b604080518083038185885af11580156112a6573d5f803e3d5ffd5b50505050506040513d601f19601f820116820180604052508101906112cb9190612a5b565b5093505b50505095945050505050565b602084015164fffffffffe19016112f0575f80fd5b5f8360a0015161ffff165f0361130b57506080840151611414565b60038460a0015161ffff1610156113ef5760608501516020850151604051635f91ee3160e11b81526001600160a01b03928316600482015290821660248201525f917f0000000000000000000000000000000000000000000000000000000000000000169063bf23dc629060440160a060405180830381865afa158015611394573d5f803e3d5ffd5b505050506040513d601f19601f820116820180604052508101906113b89190612a7d565b925050508060018660a001516113ce9190612ab8565b61ffff16600281106113e2576113e26120c7565b6020020151915050611414565b60a0840151604051637835abe960e11b815261ffff9091166004820152602401610317565b6080840151602086015160405163f82f279d60e01b815261ffff90921660048301526024820152604481018290525f907f00000000000000000000000000000000000000000000000000000000000000006001600160a01b03169063f82f279d906064016040805180830381865afa158015611492573d5f803e3d5ffd5b505050506040513d601f19601f820116820180604052508101906114b69190612a5b565b5090506114ce85608001518760200151835f88611728565b821561155a576020850151606087015160a0870151604051634d5bb8c360e11b81526001600160a01b03841693639ab77186936115149390923091908890600401612a24565b6020604051808303815f875af1158015611530573d5f803e3d5ffd5b505050506040513d601f19601f820116820180604052508101906115549190612083565b506115fd565b6060860151602086015160a0870151604051634d5bb8c360e11b81526001600160a01b037f00000000000000000000000000000000000000000000000000000000000000001693639ab77186936115bb939192909130918890600401612a24565b6020604051808303815f875af11580156115d7573d5f803e3d5ffd5b505050506040513d601f19601f820116820180604052508101906115fb9190612083565b505b6080850151604051625e665d60e31b815261ffff90911660048201526affffffffffffffffffffff6024820152600160448201527f00000000000000000000000000000000000000000000000000000000000000006001600160a01b0316906302f332e8906064016020604051808303815f875af1158015611681573d5f803e3d5ffd5b505050506040513d601f19601f820116820180604052508101906107379190612083565b60405163a9059cbb60e01b81526001600160a01b0383811660048301526024820183905284169063a9059cbb90604401610e61565b5f6116e3611ad7565b3d80156116f657602081146116ff575f80fd5b60019250611709565b60205f833e815192505b50816105eb5760405163012c72af60e71b815260040160405180910390fd5b6040805160018082528183019092525f91816020015b6117816040805160e08101909152805f81526020015f61ffff1681526020015f81526020015f81526020015f151581526020015f15158152602001606081525090565b81526020019060019003908161173e5790505090506002815f815181106117aa576117aa6120c7565b60200260200101515f019060068111156117c6576117c66121ea565b908160068111156117d9576117d96121ea565b90525061ffff8616600114611853576040516370a0823160e01b81523060048201526001600160a01b038316906370a0823190602401602060405180830381865afa15801561182a573d5f803e3d5ffd5b505050506040513d601f19601f8201168201806040525081019061184e9190612083565b611855565b475b815f81518110611867576118676120c7565b6020026020010151604001818152505085815f8151811061188a5761188a6120c7565b60200260200101516020019061ffff16908161ffff16815250506001815f815181106118b8576118b86120c7565b602002602001015160800190151590811515815250506001815f815181106118e2576118e26120c7565b602090810291909101015190151560a090910152604051635953c77b60e01b8152600481018690524260248201525f907f00000000000000000000000000000000000000000000000000000000000000006001600160a01b031690635953c77b90604401602060405180830381865afa158015611961573d5f803e3d5ffd5b505050506040513d601f19601f820116820180604052508101906119859190612ada565b60408051600180825281830190925260ff9290921692506020808301908036833701905050825f815181106119bc576119bc6120c7565b602090810291909101015160c00152815160f082901b609887901b17607886901b63ffffffff60781b16179083905f906119f8576119f86120c7565b602002602001015160c001515f81518110611a1557611a156120c7565b6020026020010181815250505f60018861ffff1603611a4f57825f81518110611a4057611a406120c7565b60200260200101516040015190505b604051630276b64b60e01b81526001600160a01b037f00000000000000000000000000000000000000000000000000000000000000001690630276b64b908390611a9f9030908890600401612b29565b5f604051808303818588803b158015611ab6575f80fd5b505af1158015611ac8573d5f803e3d5ffd5b50505050505050505050505050565b60405180602001604052806001906020820280368337509192915050565b6001600160a01b0381168114611b09575f80fd5b50565b8015158114611b09575f80fd5b5f805f60608486031215611b2b575f80fd5b8335611b3681611af5565b92506020840135611b4681611b0c565b91506040840135611b5681611b0c565b809150509250925092565b5f60c08284031215611b71575f80fd5b50919050565b5f805f8060808587031215611b8a575f80fd5b8435611b9581611af5565b93506020850135611ba581611af5565b92506040850135915060608501356001600160401b03811115611bc6575f80fd5b611bd287828801611b61565b91505092959194509250565b5f805f805f805f60c0888a031215611bf4575f80fd5b8735611bff81611af5565b96506020880135611c0f81611af5565b95506040880135611c1f81611af5565b9450606088013593506080880135925060a08801356001600160401b0380821115611c48575f80fd5b818a0191508a601f830112611c5b575f80fd5b813581811115611c69575f80fd5b8b6020828501011115611c7a575f80fd5b60208301945080935050505092959891949750929550565b5f5b83811015611cac578181015183820152602001611c94565b50505f910152565b5f8151808452611ccb816020860160208601611c92565b601f01601f19169290920160200192915050565b602081525f611cf16020830184611cb4565b9392505050565b5f805f60608486031215611d0a575f80fd5b8335611d1581611af5565b92506020840135915060408401356001600160401b03811115611d36575f80fd5b611d4286828701611b61565b9150509250925092565b5f8060408385031215611d5d575f80fd5b8235611d6881611af5565b946020939093013593505050565b5f8083601f840112611d86575f80fd5b5081356001600160401b03811115611d9c575f80fd5b6020830191508360208260051b85010111156108bc575f80fd5b5f805f805f8060608789031215611dcb575f80fd5b86356001600160401b0380821115611de1575f80fd5b611ded8a838b01611d76565b90985096506020890135915080821115611e05575f80fd5b611e118a838b01611d76565b90965094506040890135915080821115611e29575f80fd5b50611e3689828a01611d76565b979a9699509497509295939492505050565b634e487b7160e01b5f52604160045260245ffd5b60405160c081016001600160401b0381118282101715611e7e57611e7e611e48565b60405290565b6040516101c081016001600160401b0381118282101715611e7e57611e7e611e48565b604051608081016001600160401b0381118282101715611e7e57611e7e611e48565b604080519081016001600160401b0381118282101715611e7e57611e7e611e48565b604051606081016001600160401b0381118282101715611e7e57611e7e611e48565b604051601f8201601f191681016001600160401b0381118282101715611f3557611f35611e48565b604052919050565b5f6001600160401b03821115611f5557611f55611e48565b5060051b60200190565b61ffff81168114611b09575f80fd5b8035611f7981611f5f565b919050565b5f6020808385031215611f8f575f80fd5b82356001600160401b03811115611fa4575f80fd5b8301601f81018513611fb4575f80fd5b8035611fc7611fc282611f3d565b611f0d565b81815260059190911b82018301908381019087831115611fe5575f80fd5b928401925b8284101561200c578335611ffd81611f5f565b82529284019290840190611fea565b979650505050505050565b5f8060408385031215612028575f80fd5b823561203381611af5565b9150602083013561204381611af5565b809150509250929050565b6020808252818101527f4f776e61626c653a2063616c6c6572206973206e6f7420746865206f776e6572604082015260600190565b5f60208284031215612093575f80fd5b5051919050565b634e487b7160e01b5f52601160045260245ffd5b818103818111156120c1576120c161209a565b92915050565b634e487b7160e01b5f52603260045260245ffd5b5f602082840312156120eb575f80fd5b8135611cf181611af5565b5f823560be1983360301811261210a575f80fd5b9190910192915050565b8051611f7981611af5565b5f60a0828403121561212f575f80fd5b60405160a081018181106001600160401b038211171561215157612151611e48565b8060405250809150825161216481611af5565b8152602083015161217481611b0c565b602082015260408381015190820152606083015160068110612194575f80fd5b6060820152608092830151920191909152919050565b5f8061014083850312156121bc575f80fd5b6121c6848461211f565b91506121d58460a0850161211f565b90509250929050565b60038110611b09575f80fd5b634e487b7160e01b5f52602160045260245ffd5b5f808335601e19843603018112612213575f80fd5b83016020810192503590506001600160401b03811115612231575f80fd5b8060051b36038213156108bc575f80fd5b8183525f60208085019450825f5b8581101561227e57813561226381611af5565b6001600160a01b031687529582019590820190600101612250565b509495945050505050565b5f808335601e1984360301811261229e575f80fd5b83016020810192503590506001600160401b038111156122bc575f80fd5b8036038213156108bc575f80fd5b81835281816020850137505f828201602090810191909152601f909101601f19169091010190565b6001600160a01b038581168252602082018590528315156040830152608060608301525f908335612322816121de565b60038110612332576123326121ea565b6080840152602084013561234581611af5565b1660a083015261235860408401846121fe565b60c08085015261236d61014085018284612242565b91505061237d6060850185612289565b848303607f190160e08601526123948382846122ca565b925050506123a460808501611f6e565b61ffff166101008401526123ba60a08501611f6e565b61ffff81166101208501525b509695505050505050565b6001600160a01b038781168252861660208201526040810185905260a0606082018190525f9061240390830186611cb4565b905063ffffffff83168460201b1760401b6080830152979650505050505050565b5f82601f830112612433575f80fd5b81516001600160401b0381111561244c5761244c611e48565b61245f601f8201601f1916602001611f0d565b818152846020838601011115612473575f80fd5b612484826020830160208701611c92565b949350505050565b5f6020828403121561249c575f80fd5b81516001600160401b038111156124b1575f80fd5b61248484828501612424565b8051611f79816121de565b5f82601f8301126124d7575f80fd5b815160206124e7611fc283611f3d565b8083825260208201915060208460051b870101935086841115612508575f80fd5b602086015b848110156123c657805161252081611af5565b835291830191830161250d565b8051611f7981611f5f565b5f805f806080858703121561254b575f80fd5b845161255681611af5565b60208601516040870151919550935061256e81611b0c565b60608601519092506001600160401b038082111561258a575f80fd5b9086019060c0828903121561259d575f80fd5b6125a5611e5c565b6125ae836124bd565b81526125bc60208401612114565b60208201526040830151828111156125d2575f80fd5b6125de8a8286016124c8565b6040830152506060830151828111156125f5575f80fd5b6126018a828601612424565b6060830152506126136080840161252d565b608082015261262460a0840161252d565b60a08201529598949750929550505050565b5f82601f830112612645575f80fd5b61264d611ec9565b80604084018581111561265e575f80fd5b845b8181101561268157805161267381611f5f565b845260209384019301612660565b509095945050505050565b5f6060828403121561269c575f80fd5b604051606081018181106001600160401b03821117156126be576126be611e48565b80604052508091508251815260208301516020820152604083015160408201525092915050565b5f82601f8301126126f4575f80fd5b6126fc611ec9565b80604084018581111561270d575f80fd5b845b8181101561268157805184526020938401930161270f565b5f6102408284031215612738575f80fd5b612740611e84565b61274983612114565b81526127576020840161252d565b60208201526127686040840161252d565b6040820152606083015160608201526080830151608082015260a083015160a082015260c083015160c082015260e083015160e08201526101008084015181830152506101208084015181830152506101406127c685828601612636565b908201526101806127d98585830161268c565b6101608301526101e0840151908201526127f78461020085016126e5565b6101a08201529392505050565b808201808211156120c1576120c161209a565b6001600160a01b038881168252878116602083015286166040820152606081018590526080810184905263ffffffff831660a082015260e060c082018190525f9061286490830184611cb4565b9998505050505050505050565b5f8082840360e0811215612883575f80fd5b60c0811215612890575f80fd5b50612899611e5c565b83518152602084015160208201526040840151604082015260608401516128bf81611af5565b60608201526080848101519082015260a0808501519082015260c09093015192949293505050565b5f82601f8301126128f6575f80fd5b6128fe611eeb565b80606084018581111561270d575f80fd5b5f805f83850361018080821215612924575f80fd5b60c0821215612931575f80fd5b612939611ea7565b91508551825260208087015160208401526040870151604084015261296188606089016128e7565b60608401528295506129768860c089016128e7565b94508761013f880112612987575f80fd5b61298f611eeb565b92509086019082888311156129a2575f80fd5b61012088015b838110156129bf57805185529382019382016129a8565b50809450505050509250925092565b8082018281125f8312801582168215821617156129ed576129ed61209a565b505092915050565b8082025f8212600160ff1b84141615612a1057612a1061209a565b81810583148215176120c1576120c161209a565b6001600160a01b039586168152938516602085015291909316604083015261ffff9092166060820152608081019190915260a00190565b5f8060408385031215612a6c575f80fd5b505080516020909101519092909150565b5f805f60a08486031215612a8f575f80fd5b83519250612aa085602086016126e5565b9150612aaf85606086016126e5565b90509250925092565b61ffff828116828216039080821115612ad357612ad361209a565b5092915050565b5f60208284031215612aea575f80fd5b815160ff81168114611cf1575f80fd5b5f815180845260208085019450602084015f5b8381101561227e57815187529582019590820190600101612b0d565b6001600160a01b03831681526040602080830182905283518383018190525f929160609182860190600581901b87018401888401875b83811015612be857605f198a8403018552815160e0815160078110612b8657612b866121ea565b85528188015161ffff1688860152898201518a860152888201518986015260808083015115159086015260a08083015115159086015260c091820151918501819052612bd481860183612afa565b968801969450505090850190600101612b5f565b50909a995050505050505050505056fea2646970667358221220ca4604e160d8c327eb7c242efb94722b287ce1dffe96c613b2e4b25329447d1664736f6c63430008180033",
    "linkReferences": {}
  },
  "methodIdentifiers": {
    "NOTIONAL()": "858dccb3",
    "callback(address,address,address,uint256,uint256,bytes)": "11ee5be5",
    "claimOwnership()": "4e71e0c8",
    "enableCurrencies(uint16[])": "b12ffdad",
    "estimateProfit(address,uint256,(uint8,address,address[],bytes,uint16,uint16))": "2ee4e291",
    "flashLiquidate(address,address,uint256,(uint8,address,address[],bytes,uint16,uint16))": "089381eb",
    "flashLiquidate(address,uint256,(uint8,address,address[],bytes,uint16,uint16))": "4f2ae24f",
    "flashLiquidateBatch(address[],uint256[],(uint8,address,address[],bytes,uint16,uint16)[])": "7ef2d378",
    "getOptimalDeleveragingParams(address,address)": "e8660a03",
    "owner()": "8da5cb5b",
    "pendingOwner()": "e30c3978",
    "transferOwnership(address,bool,bool)": "078dfbe7",
    "withdrawToOwner(address,uint256)": "47c62a0d",
    "wrapETH()": "a85ef678"
  },
  "id": 7
}